{
	"src/KipuBankV2.sol": {
		"KipuBankV2": {
			"abi": [
				{
					"inputs": [
						{
							"internalType": "uint256",
							"name": "_bankCapUsd",
							"type": "uint256"
						},
						{
							"internalType": "uint256",
							"name": "_withdrawLimitUsd",
							"type": "uint256"
						},
						{
							"internalType": "address",
							"name": "_defaultPriceFeed",
							"type": "address"
						}
					],
					"stateMutability": "nonpayable",
					"type": "constructor"
				},
				{
					"inputs": [
						{
							"internalType": "uint256",
							"name": "attemptedUsd",
							"type": "uint256"
						},
						{
							"internalType": "uint256",
							"name": "totalUsd",
							"type": "uint256"
						},
						{
							"internalType": "uint256",
							"name": "capUsd",
							"type": "uint256"
						}
					],
					"name": "ErrBankCapExceeded",
					"type": "error"
				},
				{
					"inputs": [
						{
							"internalType": "address",
							"name": "token",
							"type": "address"
						},
						{
							"internalType": "uint256",
							"name": "available",
							"type": "uint256"
						},
						{
							"internalType": "uint256",
							"name": "requested",
							"type": "uint256"
						}
					],
					"name": "ErrInsufficientBalance",
					"type": "error"
				},
				{
					"inputs": [],
					"name": "ErrReentrantCall",
					"type": "error"
				},
				{
					"inputs": [
						{
							"internalType": "address",
							"name": "to",
							"type": "address"
						},
						{
							"internalType": "address",
							"name": "token",
							"type": "address"
						},
						{
							"internalType": "uint256",
							"name": "amount",
							"type": "uint256"
						}
					],
					"name": "ErrTransferFailed",
					"type": "error"
				},
				{
					"inputs": [],
					"name": "ErrUnauthorized",
					"type": "error"
				},
				{
					"inputs": [
						{
							"internalType": "uint256",
							"name": "requestedUsd",
							"type": "uint256"
						},
						{
							"internalType": "uint256",
							"name": "limitUsd",
							"type": "uint256"
						}
					],
					"name": "ErrWithdrawLimitExceeded",
					"type": "error"
				},
				{
					"inputs": [],
					"name": "ErrZeroAmount",
					"type": "error"
				},
				{
					"inputs": [],
					"name": "InvalidConstructorParams",
					"type": "error"
				},
				{
					"anonymous": false,
					"inputs": [
						{
							"indexed": true,
							"internalType": "address",
							"name": "user",
							"type": "address"
						},
						{
							"indexed": true,
							"internalType": "address",
							"name": "token",
							"type": "address"
						},
						{
							"indexed": false,
							"internalType": "uint256",
							"name": "amount",
							"type": "uint256"
						},
						{
							"indexed": false,
							"internalType": "uint256",
							"name": "amountUsd",
							"type": "uint256"
						}
					],
					"name": "Deposit",
					"type": "event"
				},
				{
					"anonymous": false,
					"inputs": [
						{
							"indexed": true,
							"internalType": "address",
							"name": "oldOwner",
							"type": "address"
						},
						{
							"indexed": true,
							"internalType": "address",
							"name": "newOwner",
							"type": "address"
						}
					],
					"name": "OwnerChanged",
					"type": "event"
				},
				{
					"anonymous": false,
					"inputs": [
						{
							"indexed": true,
							"internalType": "address",
							"name": "token",
							"type": "address"
						},
						{
							"indexed": true,
							"internalType": "address",
							"name": "feed",
							"type": "address"
						}
					],
					"name": "PriceFeedSet",
					"type": "event"
				},
				{
					"anonymous": false,
					"inputs": [
						{
							"indexed": true,
							"internalType": "address",
							"name": "user",
							"type": "address"
						},
						{
							"indexed": true,
							"internalType": "address",
							"name": "token",
							"type": "address"
						},
						{
							"indexed": false,
							"internalType": "uint256",
							"name": "amount",
							"type": "uint256"
						},
						{
							"indexed": false,
							"internalType": "uint256",
							"name": "amountUsd",
							"type": "uint256"
						}
					],
					"name": "Withdraw",
					"type": "event"
				},
				{
					"inputs": [],
					"name": "INTERNAL_DECIMALS",
					"outputs": [
						{
							"internalType": "uint8",
							"name": "",
							"type": "uint8"
						}
					],
					"stateMutability": "view",
					"type": "function"
				},
				{
					"inputs": [
						{
							"internalType": "address",
							"name": "token",
							"type": "address"
						},
						{
							"internalType": "address",
							"name": "user",
							"type": "address"
						}
					],
					"name": "balanceOf",
					"outputs": [
						{
							"internalType": "uint256",
							"name": "",
							"type": "uint256"
						}
					],
					"stateMutability": "view",
					"type": "function"
				},
				{
					"inputs": [],
					"name": "bankCapUsd",
					"outputs": [
						{
							"internalType": "uint256",
							"name": "",
							"type": "uint256"
						}
					],
					"stateMutability": "view",
					"type": "function"
				},
				{
					"inputs": [],
					"name": "defaultPriceFeed",
					"outputs": [
						{
							"internalType": "contract AggregatorV3Interface",
							"name": "",
							"type": "address"
						}
					],
					"stateMutability": "view",
					"type": "function"
				},
				{
					"inputs": [
						{
							"internalType": "address",
							"name": "token",
							"type": "address"
						},
						{
							"internalType": "uint256",
							"name": "amount",
							"type": "uint256"
						}
					],
					"name": "depositERC20",
					"outputs": [],
					"stateMutability": "nonpayable",
					"type": "function"
				},
				{
					"inputs": [],
					"name": "depositETH",
					"outputs": [],
					"stateMutability": "payable",
					"type": "function"
				},
				{
					"inputs": [],
					"name": "owner",
					"outputs": [
						{
							"internalType": "address",
							"name": "",
							"type": "address"
						}
					],
					"stateMutability": "view",
					"type": "function"
				},
				{
					"inputs": [
						{
							"internalType": "address",
							"name": "",
							"type": "address"
						}
					],
					"name": "priceFeeds",
					"outputs": [
						{
							"internalType": "contract AggregatorV3Interface",
							"name": "",
							"type": "address"
						}
					],
					"stateMutability": "view",
					"type": "function"
				},
				{
					"inputs": [
						{
							"internalType": "address",
							"name": "newOwner",
							"type": "address"
						}
					],
					"name": "setOwner",
					"outputs": [],
					"stateMutability": "nonpayable",
					"type": "function"
				},
				{
					"inputs": [
						{
							"internalType": "address",
							"name": "token",
							"type": "address"
						},
						{
							"internalType": "address",
							"name": "feed",
							"type": "address"
						}
					],
					"name": "setPriceFeed",
					"outputs": [],
					"stateMutability": "nonpayable",
					"type": "function"
				},
				{
					"inputs": [],
					"name": "totalDepositCount",
					"outputs": [
						{
							"internalType": "uint256",
							"name": "",
							"type": "uint256"
						}
					],
					"stateMutability": "view",
					"type": "function"
				},
				{
					"inputs": [],
					"name": "totalDepositedUsd",
					"outputs": [
						{
							"internalType": "uint256",
							"name": "",
							"type": "uint256"
						}
					],
					"stateMutability": "view",
					"type": "function"
				},
				{
					"inputs": [],
					"name": "totalWithdrawCount",
					"outputs": [
						{
							"internalType": "uint256",
							"name": "",
							"type": "uint256"
						}
					],
					"stateMutability": "view",
					"type": "function"
				},
				{
					"inputs": [
						{
							"internalType": "address",
							"name": "token",
							"type": "address"
						},
						{
							"internalType": "uint256",
							"name": "amount",
							"type": "uint256"
						}
					],
					"name": "withdrawERC20",
					"outputs": [],
					"stateMutability": "nonpayable",
					"type": "function"
				},
				{
					"inputs": [
						{
							"internalType": "uint256",
							"name": "amount",
							"type": "uint256"
						}
					],
					"name": "withdrawETH",
					"outputs": [],
					"stateMutability": "nonpayable",
					"type": "function"
				},
				{
					"inputs": [],
					"name": "withdrawLimitUsd",
					"outputs": [
						{
							"internalType": "uint256",
							"name": "",
							"type": "uint256"
						}
					],
					"stateMutability": "view",
					"type": "function"
				},
				{
					"stateMutability": "payable",
					"type": "receive"
				}
			],
			"devdoc": {
				"kind": "dev",
				"methods": {
					"constructor": {
						"params": {
							"_bankCapUsd": "límite global del banco (en unidades con INTERNAL_DECIMALS, p.ej 100 * 10**6 para 100 USD)",
							"_defaultPriceFeed": "dirección del agregador Chainlink para ETH/USD (usado cuando token == address(0))",
							"_withdrawLimitUsd": "límite de retiro por tx (en INTERNAL_DECIMALS)"
						}
					},
					"depositERC20(address,uint256)": {
						"params": {
							"amount": "cantidad de token (en unidades token)",
							"token": "dirección del token ERC20"
						}
					},
					"withdrawERC20(address,uint256)": {
						"params": {
							"amount": "cantidad en unidades token",
							"token": "dirección del token"
						}
					},
					"withdrawETH(uint256)": {
						"params": {
							"amount": "cantidad en wei"
						}
					}
				},
				"version": 1
			},
			"evm": {
				"assembly": "    /* \"src/KipuBankV2.sol\":1697:12590  contract KipuBankV2{... */\n  mstore(0x40, 0xe0)\n    /* \"src/KipuBankV2.sol\":4936:5339  constructor(uint256 _bankCapUsd, uint256 _withdrawLimitUsd, address _defaultPriceFeed) {... */\n  callvalue\n  dup1\n  iszero\n  tag_1\n  jumpi\n  revert(0x00, 0x00)\ntag_1:\n  pop\n  mload(0x40)\n  sub(codesize, bytecodeSize)\n  dup1\n  bytecodeSize\n  dup4\n  codecopy\n  dup2\n  dup2\n  add\n  0x40\n  mstore\n  dup2\n  add\n  swap1\n  tag_2\n  swap2\n  swap1\n  tag_3\n  jump\t// in\ntag_2:\n    /* \"src/KipuBankV2.sol\":5053:5054  0 */\n  0x00\n    /* \"src/KipuBankV2.sol\":5038:5049  _bankCapUsd */\n  dup4\n    /* \"src/KipuBankV2.sol\":5038:5054  _bankCapUsd == 0 */\n  eq\n    /* \"src/KipuBankV2.sol\":5038:5080  _bankCapUsd == 0 || _withdrawLimitUsd == 0 */\n  dup1\n  tag_6\n  jumpi\n  pop\n    /* \"src/KipuBankV2.sol\":5079:5080  0 */\n  0x00\n    /* \"src/KipuBankV2.sol\":5058:5075  _withdrawLimitUsd */\n  dup3\n    /* \"src/KipuBankV2.sol\":5058:5080  _withdrawLimitUsd == 0 */\n  eq\n    /* \"src/KipuBankV2.sol\":5038:5080  _bankCapUsd == 0 || _withdrawLimitUsd == 0 */\ntag_6:\n    /* \"src/KipuBankV2.sol\":5038:5115  _bankCapUsd == 0 || _withdrawLimitUsd == 0 || _defaultPriceFeed == address(0) */\n  dup1\n  tag_7\n  jumpi\n  pop\n    /* \"src/KipuBankV2.sol\":5113:5114  0 */\n  0x00\n    /* \"src/KipuBankV2.sol\":5084:5115  _defaultPriceFeed == address(0) */\n  0xffffffffffffffffffffffffffffffffffffffff\n  and\n    /* \"src/KipuBankV2.sol\":5084:5101  _defaultPriceFeed */\n  dup2\n    /* \"src/KipuBankV2.sol\":5084:5115  _defaultPriceFeed == address(0) */\n  0xffffffffffffffffffffffffffffffffffffffff\n  and\n  eq\n    /* \"src/KipuBankV2.sol\":5038:5115  _bankCapUsd == 0 || _withdrawLimitUsd == 0 || _defaultPriceFeed == address(0) */\ntag_7:\n    /* \"src/KipuBankV2.sol\":5034:5150  if (_bankCapUsd == 0 || _withdrawLimitUsd == 0 || _defaultPriceFeed == address(0)) revert InvalidConstructorParams() */\n  iszero\n  tag_8\n  jumpi\n    /* \"src/KipuBankV2.sol\":5124:5150  InvalidConstructorParams() */\n  mload(0x40)\n  0x1510b77f00000000000000000000000000000000000000000000000000000000\n  dup2\n  mstore\n  0x04\n  add\n  mload(0x40)\n  dup1\n  swap2\n  sub\n  swap1\n  revert\n    /* \"src/KipuBankV2.sol\":5034:5150  if (_bankCapUsd == 0 || _withdrawLimitUsd == 0 || _defaultPriceFeed == address(0)) revert InvalidConstructorParams() */\ntag_8:\n    /* \"src/KipuBankV2.sol\":5169:5179  msg.sender */\n  caller\n    /* \"src/KipuBankV2.sol\":5161:5166  owner */\n  0x00\n  0x00\n    /* \"src/KipuBankV2.sol\":5161:5179  owner = msg.sender */\n  0x0100\n  exp\n  dup2\n  sload\n  dup2\n  0xffffffffffffffffffffffffffffffffffffffff\n  mul\n  not\n  and\n  swap1\n  dup4\n  0xffffffffffffffffffffffffffffffffffffffff\n  and\n  mul\n  or\n  swap1\n  sstore\n  pop\n    /* \"src/KipuBankV2.sol\":5203:5214  _bankCapUsd */\n  dup3\n    /* \"src/KipuBankV2.sol\":5190:5214  bankCapUsd = _bankCapUsd */\n  0x80\n  dup2\n  dup2\n  mstore\n  pop\n  pop\n    /* \"src/KipuBankV2.sol\":5244:5261  _withdrawLimitUsd */\n  dup2\n    /* \"src/KipuBankV2.sol\":5225:5261  withdrawLimitUsd = _withdrawLimitUsd */\n  0xa0\n  dup2\n  dup2\n  mstore\n  pop\n  pop\n    /* \"src/KipuBankV2.sol\":5313:5330  _defaultPriceFeed */\n  dup1\n    /* \"src/KipuBankV2.sol\":5272:5331  defaultPriceFeed = AggregatorV3Interface(_defaultPriceFeed) */\n  0xffffffffffffffffffffffffffffffffffffffff\n  and\n  0xc0\n  dup2\n  0xffffffffffffffffffffffffffffffffffffffff\n  and\n  dup2\n  mstore\n  pop\n  pop\n    /* \"src/KipuBankV2.sol\":4936:5339  constructor(uint256 _bankCapUsd, uint256 _withdrawLimitUsd, address _defaultPriceFeed) {... */\n  pop\n  pop\n  pop\n    /* \"src/KipuBankV2.sol\":1697:12590  contract KipuBankV2{... */\n  jump(tag_9)\n    /* \"#utility.yul\":88:205   */\ntag_11:\n    /* \"#utility.yul\":197:198   */\n  0x00\n    /* \"#utility.yul\":194:195   */\n  0x00\n    /* \"#utility.yul\":187:199   */\n  revert\n    /* \"#utility.yul\":334:411   */\ntag_13:\n    /* \"#utility.yul\":371:378   */\n  0x00\n    /* \"#utility.yul\":400:405   */\n  dup2\n    /* \"#utility.yul\":389:405   */\n  swap1\n  pop\n    /* \"#utility.yul\":334:411   */\n  swap2\n  swap1\n  pop\n  jump\t// out\n    /* \"#utility.yul\":417:539   */\ntag_14:\n    /* \"#utility.yul\":490:514   */\n  tag_26\n    /* \"#utility.yul\":508:513   */\n  dup2\n    /* \"#utility.yul\":490:514   */\n  tag_13\n  jump\t// in\ntag_26:\n    /* \"#utility.yul\":483:488   */\n  dup2\n    /* \"#utility.yul\":480:515   */\n  eq\n    /* \"#utility.yul\":470:533   */\n  tag_27\n  jumpi\n    /* \"#utility.yul\":529:530   */\n  0x00\n    /* \"#utility.yul\":526:527   */\n  0x00\n    /* \"#utility.yul\":519:531   */\n  revert\n    /* \"#utility.yul\":470:533   */\ntag_27:\n    /* \"#utility.yul\":417:539   */\n  pop\n  jump\t// out\n    /* \"#utility.yul\":545:688   */\ntag_15:\n    /* \"#utility.yul\":602:607   */\n  0x00\n    /* \"#utility.yul\":633:639   */\n  dup2\n    /* \"#utility.yul\":627:640   */\n  mload\n    /* \"#utility.yul\":618:640   */\n  swap1\n  pop\n    /* \"#utility.yul\":649:682   */\n  tag_29\n    /* \"#utility.yul\":676:681   */\n  dup2\n    /* \"#utility.yul\":649:682   */\n  tag_14\n  jump\t// in\ntag_29:\n    /* \"#utility.yul\":545:688   */\n  swap3\n  swap2\n  pop\n  pop\n  jump\t// out\n    /* \"#utility.yul\":694:820   */\ntag_16:\n    /* \"#utility.yul\":731:738   */\n  0x00\n    /* \"#utility.yul\":771:813   */\n  0xffffffffffffffffffffffffffffffffffffffff\n    /* \"#utility.yul\":764:769   */\n  dup3\n    /* \"#utility.yul\":760:814   */\n  and\n    /* \"#utility.yul\":749:814   */\n  swap1\n  pop\n    /* \"#utility.yul\":694:820   */\n  swap2\n  swap1\n  pop\n  jump\t// out\n    /* \"#utility.yul\":826:922   */\ntag_17:\n    /* \"#utility.yul\":863:870   */\n  0x00\n    /* \"#utility.yul\":892:916   */\n  tag_32\n    /* \"#utility.yul\":910:915   */\n  dup3\n    /* \"#utility.yul\":892:916   */\n  tag_16\n  jump\t// in\ntag_32:\n    /* \"#utility.yul\":881:916   */\n  swap1\n  pop\n    /* \"#utility.yul\":826:922   */\n  swap2\n  swap1\n  pop\n  jump\t// out\n    /* \"#utility.yul\":928:1050   */\ntag_18:\n    /* \"#utility.yul\":1001:1025   */\n  tag_34\n    /* \"#utility.yul\":1019:1024   */\n  dup2\n    /* \"#utility.yul\":1001:1025   */\n  tag_17\n  jump\t// in\ntag_34:\n    /* \"#utility.yul\":994:999   */\n  dup2\n    /* \"#utility.yul\":991:1026   */\n  eq\n    /* \"#utility.yul\":981:1044   */\n  tag_35\n  jumpi\n    /* \"#utility.yul\":1040:1041   */\n  0x00\n    /* \"#utility.yul\":1037:1038   */\n  0x00\n    /* \"#utility.yul\":1030:1042   */\n  revert\n    /* \"#utility.yul\":981:1044   */\ntag_35:\n    /* \"#utility.yul\":928:1050   */\n  pop\n  jump\t// out\n    /* \"#utility.yul\":1056:1199   */\ntag_19:\n    /* \"#utility.yul\":1113:1118   */\n  0x00\n    /* \"#utility.yul\":1144:1150   */\n  dup2\n    /* \"#utility.yul\":1138:1151   */\n  mload\n    /* \"#utility.yul\":1129:1151   */\n  swap1\n  pop\n    /* \"#utility.yul\":1160:1193   */\n  tag_37\n    /* \"#utility.yul\":1187:1192   */\n  dup2\n    /* \"#utility.yul\":1160:1193   */\n  tag_18\n  jump\t// in\ntag_37:\n    /* \"#utility.yul\":1056:1199   */\n  swap3\n  swap2\n  pop\n  pop\n  jump\t// out\n    /* \"#utility.yul\":1205:1868   */\ntag_3:\n    /* \"#utility.yul\":1293:1299   */\n  0x00\n    /* \"#utility.yul\":1301:1307   */\n  0x00\n    /* \"#utility.yul\":1309:1315   */\n  0x00\n    /* \"#utility.yul\":1358:1360   */\n  0x60\n    /* \"#utility.yul\":1346:1355   */\n  dup5\n    /* \"#utility.yul\":1337:1344   */\n  dup7\n    /* \"#utility.yul\":1333:1356   */\n  sub\n    /* \"#utility.yul\":1329:1361   */\n  slt\n    /* \"#utility.yul\":1326:1445   */\n  iszero\n  tag_39\n  jumpi\n    /* \"#utility.yul\":1364:1443   */\n  tag_40\n  tag_11\n  jump\t// in\ntag_40:\n    /* \"#utility.yul\":1326:1445   */\ntag_39:\n    /* \"#utility.yul\":1484:1485   */\n  0x00\n    /* \"#utility.yul\":1509:1573   */\n  tag_41\n    /* \"#utility.yul\":1565:1572   */\n  dup7\n    /* \"#utility.yul\":1556:1562   */\n  dup3\n    /* \"#utility.yul\":1545:1554   */\n  dup8\n    /* \"#utility.yul\":1541:1563   */\n  add\n    /* \"#utility.yul\":1509:1573   */\n  tag_15\n  jump\t// in\ntag_41:\n    /* \"#utility.yul\":1499:1573   */\n  swap4\n  pop\n    /* \"#utility.yul\":1455:1583   */\n  pop\n    /* \"#utility.yul\":1622:1624   */\n  0x20\n    /* \"#utility.yul\":1648:1712   */\n  tag_42\n    /* \"#utility.yul\":1704:1711   */\n  dup7\n    /* \"#utility.yul\":1695:1701   */\n  dup3\n    /* \"#utility.yul\":1684:1693   */\n  dup8\n    /* \"#utility.yul\":1680:1702   */\n  add\n    /* \"#utility.yul\":1648:1712   */\n  tag_15\n  jump\t// in\ntag_42:\n    /* \"#utility.yul\":1638:1712   */\n  swap3\n  pop\n    /* \"#utility.yul\":1593:1722   */\n  pop\n    /* \"#utility.yul\":1761:1763   */\n  0x40\n    /* \"#utility.yul\":1787:1851   */\n  tag_43\n    /* \"#utility.yul\":1843:1850   */\n  dup7\n    /* \"#utility.yul\":1834:1840   */\n  dup3\n    /* \"#utility.yul\":1823:1832   */\n  dup8\n    /* \"#utility.yul\":1819:1841   */\n  add\n    /* \"#utility.yul\":1787:1851   */\n  tag_19\n  jump\t// in\ntag_43:\n    /* \"#utility.yul\":1777:1851   */\n  swap2\n  pop\n    /* \"#utility.yul\":1732:1861   */\n  pop\n    /* \"#utility.yul\":1205:1868   */\n  swap3\n  pop\n  swap3\n  pop\n  swap3\n  jump\t// out\n    /* \"src/KipuBankV2.sol\":1697:12590  contract KipuBankV2{... */\ntag_9:\n  mload(0x80)\n  mload(0xa0)\n  mload(0xc0)\n  codecopy(0x00, dataOffset(sub_0), dataSize(sub_0))\n  0x00\n  assignImmutable(\"0xecb3d63bca2dac2f15cfd948f18f200abecc477e6036fc1499f13da50bed1ba1\")\n  0x00\n  assignImmutable(\"0x2a9063ed52b7d417e441f378325359c9ce274f5d6c3ecf11b7d42f24b9c90b7f\")\n  0x00\n  assignImmutable(\"0xc41c8390c0da0418b7667ee0df6c246c26c4be6c0618368dce5a916e8008b0db\")\n  return(0x00, dataSize(sub_0))\nstop\n\nsub_0: assembly {\n        /* \"src/KipuBankV2.sol\":1697:12590  contract KipuBankV2{... */\n      mstore(0x40, 0x80)\n      jumpi(tag_1, lt(calldatasize, 0x04))\n      shr(0xe0, calldataload(0x00))\n      dup1\n      0xb7b0ffd8\n      gt\n      tag_19\n      jumpi\n      dup1\n      0xe243df20\n      gt\n      tag_20\n      jumpi\n      dup1\n      0xe243df20\n      eq\n      tag_15\n      jumpi\n      dup1\n      0xf14210a6\n      eq\n      tag_16\n      jumpi\n      dup1\n      0xf6326fb3\n      eq\n      tag_17\n      jumpi\n      dup1\n      0xf7888aec\n      eq\n      tag_18\n      jumpi\n      jump(tag_2)\n    tag_20:\n      dup1\n      0xb7b0ffd8\n      eq\n      tag_11\n      jumpi\n      dup1\n      0xbe406e6c\n      eq\n      tag_12\n      jumpi\n      dup1\n      0xc1636bc9\n      eq\n      tag_13\n      jumpi\n      dup1\n      0xd6343867\n      eq\n      tag_14\n      jumpi\n      jump(tag_2)\n    tag_19:\n      dup1\n      0x97feb926\n      gt\n      tag_21\n      jumpi\n      dup1\n      0x97feb926\n      eq\n      tag_7\n      jumpi\n      dup1\n      0x9dcb511a\n      eq\n      tag_8\n      jumpi\n      dup1\n      0xa1db9782\n      eq\n      tag_9\n      jumpi\n      dup1\n      0xac4543ba\n      eq\n      tag_10\n      jumpi\n      jump(tag_2)\n    tag_21:\n      dup1\n      0x13af4035\n      eq\n      tag_3\n      jumpi\n      dup1\n      0x503e7042\n      eq\n      tag_4\n      jumpi\n      dup1\n      0x76e11286\n      eq\n      tag_5\n      jumpi\n      dup1\n      0x8da5cb5b\n      eq\n      tag_6\n      jumpi\n      jump(tag_2)\n    tag_1:\n    tag_2:\n      revert(0x00, 0x00)\n        /* \"src/KipuBankV2.sol\":5728:5947  function setOwner(address newOwner) external onlyOwner {... */\n    tag_3:\n      callvalue\n      dup1\n      iszero\n      tag_24\n      jumpi\n      revert(0x00, 0x00)\n    tag_24:\n      pop\n      tag_25\n      0x04\n      dup1\n      calldatasize\n      sub\n      dup2\n      add\n      swap1\n      tag_26\n      swap2\n      swap1\n      tag_27\n      jump\t// in\n    tag_26:\n      tag_28\n      jump\t// in\n    tag_25:\n      stop\n        /* \"src/KipuBankV2.sol\":3044:3077  uint256 public totalWithdrawCount */\n    tag_4:\n      callvalue\n      dup1\n      iszero\n      tag_29\n      jumpi\n      revert(0x00, 0x00)\n    tag_29:\n      pop\n      tag_30\n      tag_31\n      jump\t// in\n    tag_30:\n      mload(0x40)\n      tag_32\n      swap2\n      swap1\n      tag_33\n      jump\t// in\n    tag_32:\n      mload(0x40)\n      dup1\n      swap2\n      sub\n      swap1\n      return\n        /* \"src/KipuBankV2.sol\":5512:5689  function setPriceFeed(address token, address feed) external onlyOwner {... */\n    tag_5:\n      callvalue\n      dup1\n      iszero\n      tag_34\n      jumpi\n      revert(0x00, 0x00)\n    tag_34:\n      pop\n      tag_35\n      0x04\n      dup1\n      calldatasize\n      sub\n      dup2\n      add\n      swap1\n      tag_36\n      swap2\n      swap1\n      tag_37\n      jump\t// in\n    tag_36:\n      tag_38\n      jump\t// in\n    tag_35:\n      stop\n        /* \"src/KipuBankV2.sol\":2492:2512  address public owner */\n    tag_6:\n      callvalue\n      dup1\n      iszero\n      tag_39\n      jumpi\n      revert(0x00, 0x00)\n    tag_39:\n      pop\n      tag_40\n      tag_41\n      jump\t// in\n    tag_40:\n      mload(0x40)\n      tag_42\n      swap2\n      swap1\n      tag_43\n      jump\t// in\n    tag_42:\n      mload(0x40)\n      dup1\n      swap2\n      sub\n      swap1\n      return\n        /* \"src/KipuBankV2.sol\":6844:7989  function depositERC20(address token, uint256 amount) external nonReentrant nonZero(amount) {... */\n    tag_7:\n      callvalue\n      dup1\n      iszero\n      tag_44\n      jumpi\n      revert(0x00, 0x00)\n    tag_44:\n      pop\n      tag_45\n      0x04\n      dup1\n      calldatasize\n      sub\n      dup2\n      add\n      swap1\n      tag_46\n      swap2\n      swap1\n      tag_47\n      jump\t// in\n    tag_46:\n      tag_48\n      jump\t// in\n    tag_45:\n      stop\n        /* \"src/KipuBankV2.sol\":2746:2805  mapping(address => AggregatorV3Interface) public priceFeeds */\n    tag_8:\n      callvalue\n      dup1\n      iszero\n      tag_49\n      jumpi\n      revert(0x00, 0x00)\n    tag_49:\n      pop\n      tag_50\n      0x04\n      dup1\n      calldatasize\n      sub\n      dup2\n      add\n      swap1\n      tag_51\n      swap2\n      swap1\n      tag_27\n      jump\t// in\n    tag_51:\n      tag_52\n      jump\t// in\n    tag_50:\n      mload(0x40)\n      tag_53\n      swap2\n      swap1\n      tag_54\n      jump\t// in\n    tag_53:\n      mload(0x40)\n      dup1\n      swap2\n      sub\n      swap1\n      return\n        /* \"src/KipuBankV2.sol\":9247:10074  function withdrawERC20(address token, uint256 amount) external nonReentrant nonZero(amount) {... */\n    tag_9:\n      callvalue\n      dup1\n      iszero\n      tag_55\n      jumpi\n      revert(0x00, 0x00)\n    tag_55:\n      pop\n      tag_56\n      0x04\n      dup1\n      calldatasize\n      sub\n      dup2\n      add\n      swap1\n      tag_57\n      swap2\n      swap1\n      tag_47\n      jump\t// in\n    tag_57:\n      tag_58\n      jump\t// in\n    tag_56:\n      stop\n        /* \"src/KipuBankV2.sol\":2060:2095  uint256 public immutable bankCapUsd */\n    tag_10:\n      callvalue\n      dup1\n      iszero\n      tag_59\n      jumpi\n      revert(0x00, 0x00)\n    tag_59:\n      pop\n      tag_60\n      tag_61\n      jump\t// in\n    tag_60:\n      mload(0x40)\n      tag_62\n      swap2\n      swap1\n      tag_33\n      jump\t// in\n    tag_62:\n      mload(0x40)\n      dup1\n      swap2\n      sub\n      swap1\n      return\n        /* \"src/KipuBankV2.sol\":2936:2968  uint256 public totalDepositedUsd */\n    tag_11:\n      callvalue\n      dup1\n      iszero\n      tag_63\n      jumpi\n      revert(0x00, 0x00)\n    tag_63:\n      pop\n      tag_64\n      tag_65\n      jump\t// in\n    tag_64:\n      mload(0x40)\n      tag_66\n      swap2\n      swap1\n      tag_33\n      jump\t// in\n    tag_66:\n      mload(0x40)\n      dup1\n      swap2\n      sub\n      swap1\n      return\n        /* \"src/KipuBankV2.sol\":1862:1905  uint8 public constant INTERNAL_DECIMALS = 6 */\n    tag_12:\n      callvalue\n      dup1\n      iszero\n      tag_67\n      jumpi\n      revert(0x00, 0x00)\n    tag_67:\n      pop\n      tag_68\n      tag_69\n      jump\t// in\n    tag_68:\n      mload(0x40)\n      tag_70\n      swap2\n      swap1\n      tag_71\n      jump\t// in\n    tag_70:\n      mload(0x40)\n      dup1\n      swap2\n      sub\n      swap1\n      return\n        /* \"src/KipuBankV2.sol\":2332:2387  AggregatorV3Interface public immutable defaultPriceFeed */\n    tag_13:\n      callvalue\n      dup1\n      iszero\n      tag_72\n      jumpi\n      revert(0x00, 0x00)\n    tag_72:\n      pop\n      tag_73\n      tag_74\n      jump\t// in\n    tag_73:\n      mload(0x40)\n      tag_75\n      swap2\n      swap1\n      tag_54\n      jump\t// in\n    tag_75:\n      mload(0x40)\n      dup1\n      swap2\n      sub\n      swap1\n      return\n        /* \"src/KipuBankV2.sol\":3005:3037  uint256 public totalDepositCount */\n    tag_14:\n      callvalue\n      dup1\n      iszero\n      tag_76\n      jumpi\n      revert(0x00, 0x00)\n    tag_76:\n      pop\n      tag_77\n      tag_78\n      jump\t// in\n    tag_77:\n      mload(0x40)\n      tag_79\n      swap2\n      swap1\n      tag_33\n      jump\t// in\n    tag_79:\n      mload(0x40)\n      dup1\n      swap2\n      sub\n      swap1\n      return\n        /* \"src/KipuBankV2.sol\":2197:2238  uint256 public immutable withdrawLimitUsd */\n    tag_15:\n      callvalue\n      dup1\n      iszero\n      tag_80\n      jumpi\n      revert(0x00, 0x00)\n    tag_80:\n      pop\n      tag_81\n      tag_82\n      jump\t// in\n    tag_81:\n      mload(0x40)\n      tag_83\n      swap2\n      swap1\n      tag_33\n      jump\t// in\n    tag_83:\n      mload(0x40)\n      dup1\n      swap2\n      sub\n      swap1\n      return\n        /* \"src/KipuBankV2.sol\":8148:9094  function withdrawETH(uint256 amount) external nonReentrant nonZero(amount) {... */\n    tag_16:\n      callvalue\n      dup1\n      iszero\n      tag_84\n      jumpi\n      revert(0x00, 0x00)\n    tag_84:\n      pop\n      tag_85\n      0x04\n      dup1\n      calldatasize\n      sub\n      dup2\n      add\n      swap1\n      tag_86\n      swap2\n      swap1\n      tag_87\n      jump\t// in\n    tag_86:\n      tag_88\n      jump\t// in\n    tag_85:\n      stop\n        /* \"src/KipuBankV2.sol\":6108:6646  function depositETH() external payable nonReentrant nonZero(msg.value) {... */\n    tag_17:\n      tag_89\n      tag_90\n      jump\t// in\n    tag_89:\n      stop\n        /* \"src/KipuBankV2.sol\":10190:10317  function balanceOf(address token, address user) external view returns (uint256) {... */\n    tag_18:\n      callvalue\n      dup1\n      iszero\n      tag_91\n      jumpi\n      revert(0x00, 0x00)\n    tag_91:\n      pop\n      tag_92\n      0x04\n      dup1\n      calldatasize\n      sub\n      dup2\n      add\n      swap1\n      tag_93\n      swap2\n      swap1\n      tag_37\n      jump\t// in\n    tag_93:\n      tag_94\n      jump\t// in\n    tag_92:\n      mload(0x40)\n      tag_95\n      swap2\n      swap1\n      tag_33\n      jump\t// in\n    tag_95:\n      mload(0x40)\n      dup1\n      swap2\n      sub\n      swap1\n      return\n        /* \"src/KipuBankV2.sol\":5728:5947  function setOwner(address newOwner) external onlyOwner {... */\n    tag_28:\n        /* \"src/KipuBankV2.sol\":4302:4307  owner */\n      0x00\n      0x00\n      swap1\n      sload\n      swap1\n      0x0100\n      exp\n      swap1\n      div\n      0xffffffffffffffffffffffffffffffffffffffff\n      and\n        /* \"src/KipuBankV2.sol\":4288:4307  msg.sender != owner */\n      0xffffffffffffffffffffffffffffffffffffffff\n      and\n        /* \"src/KipuBankV2.sol\":4288:4298  msg.sender */\n      caller\n        /* \"src/KipuBankV2.sol\":4288:4307  msg.sender != owner */\n      0xffffffffffffffffffffffffffffffffffffffff\n      and\n      eq\n        /* \"src/KipuBankV2.sol\":4284:4333  if (msg.sender != owner) revert ErrUnauthorized() */\n      tag_97\n      jumpi\n        /* \"src/KipuBankV2.sol\":4316:4333  ErrUnauthorized() */\n      mload(0x40)\n      0xcc12cef600000000000000000000000000000000000000000000000000000000\n      dup2\n      mstore\n      0x04\n      add\n      mload(0x40)\n      dup1\n      swap2\n      sub\n      swap1\n      revert\n        /* \"src/KipuBankV2.sol\":4284:4333  if (msg.sender != owner) revert ErrUnauthorized() */\n    tag_97:\n        /* \"src/KipuBankV2.sol\":5822:5823  0 */\n      0x00\n        /* \"src/KipuBankV2.sol\":5802:5824  newOwner != address(0) */\n      0xffffffffffffffffffffffffffffffffffffffff\n      and\n        /* \"src/KipuBankV2.sol\":5802:5810  newOwner */\n      dup2\n        /* \"src/KipuBankV2.sol\":5802:5824  newOwner != address(0) */\n      0xffffffffffffffffffffffffffffffffffffffff\n      and\n      sub\n        /* \"src/KipuBankV2.sol\":5794:5839  require(newOwner != address(0), \"zero owner\") */\n      tag_99\n      jumpi\n      mload(0x40)\n      0x08c379a000000000000000000000000000000000000000000000000000000000\n      dup2\n      mstore\n      0x04\n      add\n      tag_100\n      swap1\n      tag_101\n      jump\t// in\n    tag_100:\n      mload(0x40)\n      dup1\n      swap2\n      sub\n      swap1\n      revert\n    tag_99:\n        /* \"src/KipuBankV2.sol\":5850:5861  address old */\n      0x00\n        /* \"src/KipuBankV2.sol\":5864:5869  owner */\n      0x00\n      0x00\n      swap1\n      sload\n      swap1\n      0x0100\n      exp\n      swap1\n      div\n      0xffffffffffffffffffffffffffffffffffffffff\n      and\n        /* \"src/KipuBankV2.sol\":5850:5869  address old = owner */\n      swap1\n      pop\n        /* \"src/KipuBankV2.sol\":5888:5896  newOwner */\n      dup2\n        /* \"src/KipuBankV2.sol\":5880:5885  owner */\n      0x00\n      0x00\n        /* \"src/KipuBankV2.sol\":5880:5896  owner = newOwner */\n      0x0100\n      exp\n      dup2\n      sload\n      dup2\n      0xffffffffffffffffffffffffffffffffffffffff\n      mul\n      not\n      and\n      swap1\n      dup4\n      0xffffffffffffffffffffffffffffffffffffffff\n      and\n      mul\n      or\n      swap1\n      sstore\n      pop\n        /* \"src/KipuBankV2.sol\":5930:5938  newOwner */\n      dup2\n        /* \"src/KipuBankV2.sol\":5912:5939  OwnerChanged(old, newOwner) */\n      0xffffffffffffffffffffffffffffffffffffffff\n      and\n        /* \"src/KipuBankV2.sol\":5925:5928  old */\n      dup2\n        /* \"src/KipuBankV2.sol\":5912:5939  OwnerChanged(old, newOwner) */\n      0xffffffffffffffffffffffffffffffffffffffff\n      and\n      0xb532073b38c83145e3e5135377a08bf9aab55bc0fd7c1179cd4fb995d2a5159c\n      mload(0x40)\n      mload(0x40)\n      dup1\n      swap2\n      sub\n      swap1\n      log3\n        /* \"src/KipuBankV2.sol\":5783:5947  {... */\n      pop\n        /* \"src/KipuBankV2.sol\":5728:5947  function setOwner(address newOwner) external onlyOwner {... */\n      pop\n      jump\t// out\n        /* \"src/KipuBankV2.sol\":3044:3077  uint256 public totalWithdrawCount */\n    tag_31:\n      sload(0x05)\n      dup2\n      jump\t// out\n        /* \"src/KipuBankV2.sol\":5512:5689  function setPriceFeed(address token, address feed) external onlyOwner {... */\n    tag_38:\n        /* \"src/KipuBankV2.sol\":4302:4307  owner */\n      0x00\n      0x00\n      swap1\n      sload\n      swap1\n      0x0100\n      exp\n      swap1\n      div\n      0xffffffffffffffffffffffffffffffffffffffff\n      and\n        /* \"src/KipuBankV2.sol\":4288:4307  msg.sender != owner */\n      0xffffffffffffffffffffffffffffffffffffffff\n      and\n        /* \"src/KipuBankV2.sol\":4288:4298  msg.sender */\n      caller\n        /* \"src/KipuBankV2.sol\":4288:4307  msg.sender != owner */\n      0xffffffffffffffffffffffffffffffffffffffff\n      and\n      eq\n        /* \"src/KipuBankV2.sol\":4284:4333  if (msg.sender != owner) revert ErrUnauthorized() */\n      tag_103\n      jumpi\n        /* \"src/KipuBankV2.sol\":4316:4333  ErrUnauthorized() */\n      mload(0x40)\n      0xcc12cef600000000000000000000000000000000000000000000000000000000\n      dup2\n      mstore\n      0x04\n      add\n      mload(0x40)\n      dup1\n      swap2\n      sub\n      swap1\n      revert\n        /* \"src/KipuBankV2.sol\":4284:4333  if (msg.sender != owner) revert ErrUnauthorized() */\n    tag_103:\n        /* \"src/KipuBankV2.sol\":5635:5639  feed */\n      dup1\n        /* \"src/KipuBankV2.sol\":5593:5603  priceFeeds */\n      0x02\n        /* \"src/KipuBankV2.sol\":5593:5610  priceFeeds[token] */\n      0x00\n        /* \"src/KipuBankV2.sol\":5604:5609  token */\n      dup5\n        /* \"src/KipuBankV2.sol\":5593:5610  priceFeeds[token] */\n      0xffffffffffffffffffffffffffffffffffffffff\n      and\n      0xffffffffffffffffffffffffffffffffffffffff\n      and\n      dup2\n      mstore\n      0x20\n      add\n      swap1\n      dup2\n      mstore\n      0x20\n      add\n      0x00\n      keccak256\n      0x00\n        /* \"src/KipuBankV2.sol\":5593:5640  priceFeeds[token] = AggregatorV3Interface(feed) */\n      0x0100\n      exp\n      dup2\n      sload\n      dup2\n      0xffffffffffffffffffffffffffffffffffffffff\n      mul\n      not\n      and\n      swap1\n      dup4\n      0xffffffffffffffffffffffffffffffffffffffff\n      and\n      mul\n      or\n      swap1\n      sstore\n      pop\n        /* \"src/KipuBankV2.sol\":5676:5680  feed */\n      dup1\n        /* \"src/KipuBankV2.sol\":5656:5681  PriceFeedSet(token, feed) */\n      0xffffffffffffffffffffffffffffffffffffffff\n      and\n        /* \"src/KipuBankV2.sol\":5669:5674  token */\n      dup3\n        /* \"src/KipuBankV2.sol\":5656:5681  PriceFeedSet(token, feed) */\n      0xffffffffffffffffffffffffffffffffffffffff\n      and\n      0xd2d8394cf7549a5ddbc2ba3dd7b2de8d53c891472d1f2907008ed6a10045fdae\n      mload(0x40)\n      mload(0x40)\n      dup1\n      swap2\n      sub\n      swap1\n      log3\n        /* \"src/KipuBankV2.sol\":5512:5689  function setPriceFeed(address token, address feed) external onlyOwner {... */\n      pop\n      pop\n      jump\t// out\n        /* \"src/KipuBankV2.sol\":2492:2512  address public owner */\n    tag_41:\n      0x00\n      0x00\n      swap1\n      sload\n      swap1\n      0x0100\n      exp\n      swap1\n      div\n      0xffffffffffffffffffffffffffffffffffffffff\n      and\n      dup2\n      jump\t// out\n        /* \"src/KipuBankV2.sol\":6844:7989  function depositERC20(address token, uint256 amount) external nonReentrant nonZero(amount) {... */\n    tag_48:\n        /* \"src/KipuBankV2.sol\":4092:4098  locked */\n      0x06\n      0x00\n      swap1\n      sload\n      swap1\n      0x0100\n      exp\n      swap1\n      div\n      0xff\n      and\n        /* \"src/KipuBankV2.sol\":4088:4125  if (locked) revert ErrReentrantCall() */\n      iszero\n      tag_106\n      jumpi\n        /* \"src/KipuBankV2.sol\":4107:4125  ErrReentrantCall() */\n      mload(0x40)\n      0x5a919cd900000000000000000000000000000000000000000000000000000000\n      dup2\n      mstore\n      0x04\n      add\n      mload(0x40)\n      dup1\n      swap2\n      sub\n      swap1\n      revert\n        /* \"src/KipuBankV2.sol\":4088:4125  if (locked) revert ErrReentrantCall() */\n    tag_106:\n        /* \"src/KipuBankV2.sol\":4145:4149  true */\n      0x01\n        /* \"src/KipuBankV2.sol\":4136:4142  locked */\n      0x06\n      0x00\n        /* \"src/KipuBankV2.sol\":4136:4149  locked = true */\n      0x0100\n      exp\n      dup2\n      sload\n      dup2\n      0xff\n      mul\n      not\n      and\n      swap1\n      dup4\n      iszero\n      iszero\n      mul\n      or\n      swap1\n      sstore\n      pop\n        /* \"src/KipuBankV2.sol\":6927:6933  amount */\n      dup1\n        /* \"src/KipuBankV2.sol\":4502:4503  0 */\n      0x00\n        /* \"src/KipuBankV2.sol\":4492:4498  amount */\n      dup2\n        /* \"src/KipuBankV2.sol\":4492:4503  amount == 0 */\n      sub\n        /* \"src/KipuBankV2.sol\":4488:4527  if (amount == 0) revert ErrZeroAmount() */\n      tag_108\n      jumpi\n        /* \"src/KipuBankV2.sol\":4512:4527  ErrZeroAmount() */\n      mload(0x40)\n      0x608294ac00000000000000000000000000000000000000000000000000000000\n      dup2\n      mstore\n      0x04\n      add\n      mload(0x40)\n      dup1\n      swap2\n      sub\n      swap1\n      revert\n        /* \"src/KipuBankV2.sol\":4488:4527  if (amount == 0) revert ErrZeroAmount() */\n    tag_108:\n        /* \"src/KipuBankV2.sol\":6967:6968  0 */\n      0x00\n        /* \"src/KipuBankV2.sol\":6950:6969  token == address(0) */\n      0xffffffffffffffffffffffffffffffffffffffff\n      and\n        /* \"src/KipuBankV2.sol\":6950:6955  token */\n      dup4\n        /* \"src/KipuBankV2.sol\":6950:6969  token == address(0) */\n      0xffffffffffffffffffffffffffffffffffffffff\n      and\n      sub\n        /* \"src/KipuBankV2.sol\":6946:6993  if (token == address(0)) revert ErrZeroAmount() */\n      tag_110\n      jumpi\n        /* \"src/KipuBankV2.sol\":6978:6993  ErrZeroAmount() */\n      mload(0x40)\n      0x608294ac00000000000000000000000000000000000000000000000000000000\n      dup2\n      mstore\n      0x04\n      add\n      mload(0x40)\n      dup1\n      swap2\n      sub\n      swap1\n      revert\n        /* \"src/KipuBankV2.sol\":6946:6993  if (token == address(0)) revert ErrZeroAmount() */\n    tag_110:\n        /* \"src/KipuBankV2.sol\":7051:7077  AggregatorV3Interface feed */\n      0x00\n        /* \"src/KipuBankV2.sol\":7080:7090  priceFeeds */\n      0x02\n        /* \"src/KipuBankV2.sol\":7080:7097  priceFeeds[token] */\n      0x00\n        /* \"src/KipuBankV2.sol\":7091:7096  token */\n      dup6\n        /* \"src/KipuBankV2.sol\":7080:7097  priceFeeds[token] */\n      0xffffffffffffffffffffffffffffffffffffffff\n      and\n      0xffffffffffffffffffffffffffffffffffffffff\n      and\n      dup2\n      mstore\n      0x20\n      add\n      swap1\n      dup2\n      mstore\n      0x20\n      add\n      0x00\n      keccak256\n      0x00\n      swap1\n      sload\n      swap1\n      0x0100\n      exp\n      swap1\n      div\n      0xffffffffffffffffffffffffffffffffffffffff\n      and\n        /* \"src/KipuBankV2.sol\":7051:7097  AggregatorV3Interface feed = priceFeeds[token] */\n      swap1\n      pop\n        /* \"src/KipuBankV2.sol\":7137:7138  0 */\n      0x00\n        /* \"src/KipuBankV2.sol\":7112:7139  address(feed) == address(0) */\n      0xffffffffffffffffffffffffffffffffffffffff\n      and\n        /* \"src/KipuBankV2.sol\":7120:7124  feed */\n      dup2\n        /* \"src/KipuBankV2.sol\":7112:7139  address(feed) == address(0) */\n      0xffffffffffffffffffffffffffffffffffffffff\n      and\n      sub\n        /* \"src/KipuBankV2.sol\":7108:7165  if (address(feed) == address(0)) revert ErrUnauthorized() */\n      tag_111\n      jumpi\n        /* \"src/KipuBankV2.sol\":7148:7165  ErrUnauthorized() */\n      mload(0x40)\n      0xcc12cef600000000000000000000000000000000000000000000000000000000\n      dup2\n      mstore\n      0x04\n      add\n      mload(0x40)\n      dup1\n      swap2\n      sub\n      swap1\n      revert\n        /* \"src/KipuBankV2.sol\":7108:7165  if (address(feed) == address(0)) revert ErrUnauthorized() */\n    tag_111:\n        /* \"src/KipuBankV2.sol\":7252:7259  bool ok */\n      0x00\n        /* \"src/KipuBankV2.sol\":7269:7274  token */\n      dup5\n        /* \"src/KipuBankV2.sol\":7262:7288  IERC20(token).transferFrom */\n      0xffffffffffffffffffffffffffffffffffffffff\n      and\n      0x23b872dd\n        /* \"src/KipuBankV2.sol\":7289:7299  msg.sender */\n      caller\n        /* \"src/KipuBankV2.sol\":7309:7313  this */\n      address\n        /* \"src/KipuBankV2.sol\":7316:7322  amount */\n      dup8\n        /* \"src/KipuBankV2.sol\":7262:7323  IERC20(token).transferFrom(msg.sender, address(this), amount) */\n      mload(0x40)\n      dup5\n      0xffffffff\n      and\n      0xe0\n      shl\n      dup2\n      mstore\n      0x04\n      add\n      tag_112\n      swap4\n      swap3\n      swap2\n      swap1\n      tag_113\n      jump\t// in\n    tag_112:\n      0x20\n      mload(0x40)\n      dup1\n      dup4\n      sub\n      dup2\n      0x00\n      dup8\n      gas\n      call\n      iszero\n      dup1\n      iszero\n      tag_115\n      jumpi\n      returndatacopy(0x00, 0x00, returndatasize)\n      revert(0x00, returndatasize)\n    tag_115:\n      pop\n      pop\n      pop\n      pop\n      mload(0x40)\n      returndatasize\n      not(0x1f)\n      0x1f\n      dup3\n      add\n      and\n      dup3\n      add\n      dup1\n      0x40\n      mstore\n      pop\n      dup2\n      add\n      swap1\n      tag_116\n      swap2\n      swap1\n      tag_117\n      jump\t// in\n    tag_116:\n        /* \"src/KipuBankV2.sol\":7252:7323  bool ok = IERC20(token).transferFrom(msg.sender, address(this), amount) */\n      swap1\n      pop\n        /* \"src/KipuBankV2.sol\":7339:7341  ok */\n      dup1\n        /* \"src/KipuBankV2.sol\":7334:7394  if (!ok) revert ErrTransferFailed(msg.sender, token, amount) */\n      tag_118\n      jumpi\n        /* \"src/KipuBankV2.sol\":7368:7378  msg.sender */\n      caller\n        /* \"src/KipuBankV2.sol\":7380:7385  token */\n      dup6\n        /* \"src/KipuBankV2.sol\":7387:7393  amount */\n      dup6\n        /* \"src/KipuBankV2.sol\":7350:7394  ErrTransferFailed(msg.sender, token, amount) */\n      mload(0x40)\n      0x31e6e4e100000000000000000000000000000000000000000000000000000000\n      dup2\n      mstore\n      0x04\n      add\n      tag_119\n      swap4\n      swap3\n      swap2\n      swap1\n      tag_113\n      jump\t// in\n    tag_119:\n      mload(0x40)\n      dup1\n      swap2\n      sub\n      swap1\n      revert\n        /* \"src/KipuBankV2.sol\":7334:7394  if (!ok) revert ErrTransferFailed(msg.sender, token, amount) */\n    tag_118:\n        /* \"src/KipuBankV2.sol\":7431:7448  uint256 amountUsd */\n      0x00\n        /* \"src/KipuBankV2.sol\":7451:7479  _convertToUsd(token, amount) */\n      tag_120\n        /* \"src/KipuBankV2.sol\":7465:7470  token */\n      dup7\n        /* \"src/KipuBankV2.sol\":7472:7478  amount */\n      dup7\n        /* \"src/KipuBankV2.sol\":7451:7464  _convertToUsd */\n      tag_121\n        /* \"src/KipuBankV2.sol\":7451:7479  _convertToUsd(token, amount) */\n      jump\t// in\n    tag_120:\n        /* \"src/KipuBankV2.sol\":7431:7479  uint256 amountUsd = _convertToUsd(token, amount) */\n      swap1\n      pop\n        /* \"src/KipuBankV2.sol\":7526:7536  bankCapUsd */\n      immutable(\"0xc41c8390c0da0418b7667ee0df6c246c26c4be6c0618368dce5a916e8008b0db\")\n        /* \"src/KipuBankV2.sol\":7514:7523  amountUsd */\n      dup2\n        /* \"src/KipuBankV2.sol\":7494:7511  totalDepositedUsd */\n      sload(0x03)\n        /* \"src/KipuBankV2.sol\":7494:7523  totalDepositedUsd + amountUsd */\n      tag_122\n      swap2\n      swap1\n      tag_123\n      jump\t// in\n    tag_122:\n        /* \"src/KipuBankV2.sol\":7494:7536  totalDepositedUsd + amountUsd > bankCapUsd */\n      gt\n        /* \"src/KipuBankV2.sol\":7490:7778  if (totalDepositedUsd + amountUsd > bankCapUsd) {... */\n      iszero\n      tag_124\n      jumpi\n        /* \"src/KipuBankV2.sol\":7649:7654  token */\n      dup6\n        /* \"src/KipuBankV2.sol\":7642:7664  IERC20(token).transfer */\n      0xffffffffffffffffffffffffffffffffffffffff\n      and\n      0xa9059cbb\n        /* \"src/KipuBankV2.sol\":7665:7675  msg.sender */\n      caller\n        /* \"src/KipuBankV2.sol\":7677:7683  amount */\n      dup8\n        /* \"src/KipuBankV2.sol\":7642:7684  IERC20(token).transfer(msg.sender, amount) */\n      mload(0x40)\n      dup4\n      0xffffffff\n      and\n      0xe0\n      shl\n      dup2\n      mstore\n      0x04\n      add\n      tag_125\n      swap3\n      swap2\n      swap1\n      tag_126\n      jump\t// in\n    tag_125:\n      0x20\n      mload(0x40)\n      dup1\n      dup4\n      sub\n      dup2\n      0x00\n      dup8\n      gas\n      call\n      iszero\n      dup1\n      iszero\n      tag_128\n      jumpi\n      returndatacopy(0x00, 0x00, returndatasize)\n      revert(0x00, returndatasize)\n    tag_128:\n      pop\n      pop\n      pop\n      pop\n      mload(0x40)\n      returndatasize\n      not(0x1f)\n      0x1f\n      dup3\n      add\n      and\n      dup3\n      add\n      dup1\n      0x40\n      mstore\n      pop\n      dup2\n      add\n      swap1\n      tag_129\n      swap2\n      swap1\n      tag_117\n      jump\t// in\n    tag_129:\n      pop\n        /* \"src/KipuBankV2.sol\":7725:7734  amountUsd */\n      dup1\n        /* \"src/KipuBankV2.sol\":7736:7753  totalDepositedUsd */\n      sload(0x03)\n        /* \"src/KipuBankV2.sol\":7755:7765  bankCapUsd */\n      immutable(\"0xc41c8390c0da0418b7667ee0df6c246c26c4be6c0618368dce5a916e8008b0db\")\n        /* \"src/KipuBankV2.sol\":7706:7766  ErrBankCapExceeded(amountUsd, totalDepositedUsd, bankCapUsd) */\n      mload(0x40)\n      0xcfe6749800000000000000000000000000000000000000000000000000000000\n      dup2\n      mstore\n      0x04\n      add\n      tag_130\n      swap4\n      swap3\n      swap2\n      swap1\n      tag_131\n      jump\t// in\n    tag_130:\n      mload(0x40)\n      dup1\n      swap2\n      sub\n      swap1\n      revert\n        /* \"src/KipuBankV2.sol\":7490:7778  if (totalDepositedUsd + amountUsd > bankCapUsd) {... */\n    tag_124:\n        /* \"src/KipuBankV2.sol\":7841:7847  amount */\n      dup5\n        /* \"src/KipuBankV2.sol\":7810:7818  balances */\n      0x01\n        /* \"src/KipuBankV2.sol\":7810:7825  balances[token] */\n      0x00\n        /* \"src/KipuBankV2.sol\":7819:7824  token */\n      dup9\n        /* \"src/KipuBankV2.sol\":7810:7825  balances[token] */\n      0xffffffffffffffffffffffffffffffffffffffff\n      and\n      0xffffffffffffffffffffffffffffffffffffffff\n      and\n      dup2\n      mstore\n      0x20\n      add\n      swap1\n      dup2\n      mstore\n      0x20\n      add\n      0x00\n      keccak256\n        /* \"src/KipuBankV2.sol\":7810:7837  balances[token][msg.sender] */\n      0x00\n        /* \"src/KipuBankV2.sol\":7826:7836  msg.sender */\n      caller\n        /* \"src/KipuBankV2.sol\":7810:7837  balances[token][msg.sender] */\n      0xffffffffffffffffffffffffffffffffffffffff\n      and\n      0xffffffffffffffffffffffffffffffffffffffff\n      and\n      dup2\n      mstore\n      0x20\n      add\n      swap1\n      dup2\n      mstore\n      0x20\n      add\n      0x00\n      keccak256\n      0x00\n        /* \"src/KipuBankV2.sol\":7810:7847  balances[token][msg.sender] += amount */\n      dup3\n      dup3\n      sload\n      tag_132\n      swap2\n      swap1\n      tag_123\n      jump\t// in\n    tag_132:\n      swap3\n      pop\n      pop\n      dup2\n      swap1\n      sstore\n      pop\n        /* \"src/KipuBankV2.sol\":7858:7875  totalDepositCount */\n      0x04\n      0x00\n        /* \"src/KipuBankV2.sol\":7858:7877  totalDepositCount++ */\n      dup2\n      sload\n      dup1\n      swap3\n      swap2\n      swap1\n      tag_133\n      swap1\n      tag_134\n      jump\t// in\n    tag_133:\n      swap2\n      swap1\n      pop\n      sstore\n      pop\n        /* \"src/KipuBankV2.sol\":7909:7918  amountUsd */\n      dup1\n        /* \"src/KipuBankV2.sol\":7888:7905  totalDepositedUsd */\n      0x03\n      0x00\n        /* \"src/KipuBankV2.sol\":7888:7918  totalDepositedUsd += amountUsd */\n      dup3\n      dup3\n      sload\n      tag_135\n      swap2\n      swap1\n      tag_123\n      jump\t// in\n    tag_135:\n      swap3\n      pop\n      pop\n      dup2\n      swap1\n      sstore\n      pop\n        /* \"src/KipuBankV2.sol\":7956:7961  token */\n      dup6\n        /* \"src/KipuBankV2.sol\":7936:7981  Deposit(msg.sender, token, amount, amountUsd) */\n      0xffffffffffffffffffffffffffffffffffffffff\n      and\n        /* \"src/KipuBankV2.sol\":7944:7954  msg.sender */\n      caller\n        /* \"src/KipuBankV2.sol\":7936:7981  Deposit(msg.sender, token, amount, amountUsd) */\n      0xffffffffffffffffffffffffffffffffffffffff\n      and\n      0xdcbc1c05240f31ff3ad067ef1ee35ce4997762752e3a095284754544f4c709d7\n        /* \"src/KipuBankV2.sol\":7963:7969  amount */\n      dup8\n        /* \"src/KipuBankV2.sol\":7971:7980  amountUsd */\n      dup5\n        /* \"src/KipuBankV2.sol\":7936:7981  Deposit(msg.sender, token, amount, amountUsd) */\n      mload(0x40)\n      tag_136\n      swap3\n      swap2\n      swap1\n      tag_137\n      jump\t// in\n    tag_136:\n      mload(0x40)\n      dup1\n      swap2\n      sub\n      swap1\n      log3\n        /* \"src/KipuBankV2.sol\":6935:7989  {... */\n      pop\n      pop\n      pop\n        /* \"src/KipuBankV2.sol\":4160:4161  _ */\n      pop\n        /* \"src/KipuBankV2.sol\":4181:4186  false */\n      0x00\n        /* \"src/KipuBankV2.sol\":4172:4178  locked */\n      0x06\n      0x00\n        /* \"src/KipuBankV2.sol\":4172:4186  locked = false */\n      0x0100\n      exp\n      dup2\n      sload\n      dup2\n      0xff\n      mul\n      not\n      and\n      swap1\n      dup4\n      iszero\n      iszero\n      mul\n      or\n      swap1\n      sstore\n      pop\n        /* \"src/KipuBankV2.sol\":6844:7989  function depositERC20(address token, uint256 amount) external nonReentrant nonZero(amount) {... */\n      pop\n      pop\n      jump\t// out\n        /* \"src/KipuBankV2.sol\":2746:2805  mapping(address => AggregatorV3Interface) public priceFeeds */\n    tag_52:\n      mstore(0x20, 0x02)\n      dup1\n      0x00\n      mstore\n      keccak256(0x00, 0x40)\n      0x00\n      swap2\n      pop\n      sload\n      swap1\n      0x0100\n      exp\n      swap1\n      div\n      0xffffffffffffffffffffffffffffffffffffffff\n      and\n      dup2\n      jump\t// out\n        /* \"src/KipuBankV2.sol\":9247:10074  function withdrawERC20(address token, uint256 amount) external nonReentrant nonZero(amount) {... */\n    tag_58:\n        /* \"src/KipuBankV2.sol\":4092:4098  locked */\n      0x06\n      0x00\n      swap1\n      sload\n      swap1\n      0x0100\n      exp\n      swap1\n      div\n      0xff\n      and\n        /* \"src/KipuBankV2.sol\":4088:4125  if (locked) revert ErrReentrantCall() */\n      iszero\n      tag_139\n      jumpi\n        /* \"src/KipuBankV2.sol\":4107:4125  ErrReentrantCall() */\n      mload(0x40)\n      0x5a919cd900000000000000000000000000000000000000000000000000000000\n      dup2\n      mstore\n      0x04\n      add\n      mload(0x40)\n      dup1\n      swap2\n      sub\n      swap1\n      revert\n        /* \"src/KipuBankV2.sol\":4088:4125  if (locked) revert ErrReentrantCall() */\n    tag_139:\n        /* \"src/KipuBankV2.sol\":4145:4149  true */\n      0x01\n        /* \"src/KipuBankV2.sol\":4136:4142  locked */\n      0x06\n      0x00\n        /* \"src/KipuBankV2.sol\":4136:4149  locked = true */\n      0x0100\n      exp\n      dup2\n      sload\n      dup2\n      0xff\n      mul\n      not\n      and\n      swap1\n      dup4\n      iszero\n      iszero\n      mul\n      or\n      swap1\n      sstore\n      pop\n        /* \"src/KipuBankV2.sol\":9331:9337  amount */\n      dup1\n        /* \"src/KipuBankV2.sol\":4502:4503  0 */\n      0x00\n        /* \"src/KipuBankV2.sol\":4492:4498  amount */\n      dup2\n        /* \"src/KipuBankV2.sol\":4492:4503  amount == 0 */\n      sub\n        /* \"src/KipuBankV2.sol\":4488:4527  if (amount == 0) revert ErrZeroAmount() */\n      tag_141\n      jumpi\n        /* \"src/KipuBankV2.sol\":4512:4527  ErrZeroAmount() */\n      mload(0x40)\n      0x608294ac00000000000000000000000000000000000000000000000000000000\n      dup2\n      mstore\n      0x04\n      add\n      mload(0x40)\n      dup1\n      swap2\n      sub\n      swap1\n      revert\n        /* \"src/KipuBankV2.sol\":4488:4527  if (amount == 0) revert ErrZeroAmount() */\n    tag_141:\n        /* \"src/KipuBankV2.sol\":9350:9361  uint256 bal */\n      0x00\n        /* \"src/KipuBankV2.sol\":9364:9372  balances */\n      0x01\n        /* \"src/KipuBankV2.sol\":9364:9379  balances[token] */\n      0x00\n        /* \"src/KipuBankV2.sol\":9373:9378  token */\n      dup6\n        /* \"src/KipuBankV2.sol\":9364:9379  balances[token] */\n      0xffffffffffffffffffffffffffffffffffffffff\n      and\n      0xffffffffffffffffffffffffffffffffffffffff\n      and\n      dup2\n      mstore\n      0x20\n      add\n      swap1\n      dup2\n      mstore\n      0x20\n      add\n      0x00\n      keccak256\n        /* \"src/KipuBankV2.sol\":9364:9391  balances[token][msg.sender] */\n      0x00\n        /* \"src/KipuBankV2.sol\":9380:9390  msg.sender */\n      caller\n        /* \"src/KipuBankV2.sol\":9364:9391  balances[token][msg.sender] */\n      0xffffffffffffffffffffffffffffffffffffffff\n      and\n      0xffffffffffffffffffffffffffffffffffffffff\n      and\n      dup2\n      mstore\n      0x20\n      add\n      swap1\n      dup2\n      mstore\n      0x20\n      add\n      0x00\n      keccak256\n      sload\n        /* \"src/KipuBankV2.sol\":9350:9391  uint256 bal = balances[token][msg.sender] */\n      swap1\n      pop\n        /* \"src/KipuBankV2.sol\":9415:9418  bal */\n      dup1\n        /* \"src/KipuBankV2.sol\":9406:9412  amount */\n      dup4\n        /* \"src/KipuBankV2.sol\":9406:9418  amount > bal */\n      gt\n        /* \"src/KipuBankV2.sol\":9402:9469  if (amount > bal) revert ErrInsufficientBalance(token, bal, amount) */\n      iszero\n      tag_143\n      jumpi\n        /* \"src/KipuBankV2.sol\":9450:9455  token */\n      dup4\n        /* \"src/KipuBankV2.sol\":9457:9460  bal */\n      dup2\n        /* \"src/KipuBankV2.sol\":9462:9468  amount */\n      dup5\n        /* \"src/KipuBankV2.sol\":9427:9469  ErrInsufficientBalance(token, bal, amount) */\n      mload(0x40)\n      0x483b38f200000000000000000000000000000000000000000000000000000000\n      dup2\n      mstore\n      0x04\n      add\n      tag_144\n      swap4\n      swap3\n      swap2\n      swap1\n      tag_145\n      jump\t// in\n    tag_144:\n      mload(0x40)\n      dup1\n      swap2\n      sub\n      swap1\n      revert\n        /* \"src/KipuBankV2.sol\":9402:9469  if (amount > bal) revert ErrInsufficientBalance(token, bal, amount) */\n    tag_143:\n        /* \"src/KipuBankV2.sol\":9482:9499  uint256 amountUsd */\n      0x00\n        /* \"src/KipuBankV2.sol\":9502:9530  _convertToUsd(token, amount) */\n      tag_146\n        /* \"src/KipuBankV2.sol\":9516:9521  token */\n      dup6\n        /* \"src/KipuBankV2.sol\":9523:9529  amount */\n      dup6\n        /* \"src/KipuBankV2.sol\":9502:9515  _convertToUsd */\n      tag_121\n        /* \"src/KipuBankV2.sol\":9502:9530  _convertToUsd(token, amount) */\n      jump\t// in\n    tag_146:\n        /* \"src/KipuBankV2.sol\":9482:9530  uint256 amountUsd = _convertToUsd(token, amount) */\n      swap1\n      pop\n        /* \"src/KipuBankV2.sol\":9557:9573  withdrawLimitUsd */\n      immutable(\"0x2a9063ed52b7d417e441f378325359c9ce274f5d6c3ecf11b7d42f24b9c90b7f\")\n        /* \"src/KipuBankV2.sol\":9545:9554  amountUsd */\n      dup2\n        /* \"src/KipuBankV2.sol\":9545:9573  amountUsd > withdrawLimitUsd */\n      gt\n        /* \"src/KipuBankV2.sol\":9541:9635  if (amountUsd > withdrawLimitUsd) revert ErrWithdrawLimitExceeded(amountUsd, withdrawLimitUsd) */\n      iszero\n      tag_147\n      jumpi\n        /* \"src/KipuBankV2.sol\":9607:9616  amountUsd */\n      dup1\n        /* \"src/KipuBankV2.sol\":9618:9634  withdrawLimitUsd */\n      immutable(\"0x2a9063ed52b7d417e441f378325359c9ce274f5d6c3ecf11b7d42f24b9c90b7f\")\n        /* \"src/KipuBankV2.sol\":9582:9635  ErrWithdrawLimitExceeded(amountUsd, withdrawLimitUsd) */\n      mload(0x40)\n      0x2996304900000000000000000000000000000000000000000000000000000000\n      dup2\n      mstore\n      0x04\n      add\n      tag_148\n      swap3\n      swap2\n      swap1\n      tag_137\n      jump\t// in\n    tag_148:\n      mload(0x40)\n      dup1\n      swap2\n      sub\n      swap1\n      revert\n        /* \"src/KipuBankV2.sol\":9541:9635  if (amountUsd > withdrawLimitUsd) revert ErrWithdrawLimitExceeded(amountUsd, withdrawLimitUsd) */\n    tag_147:\n        /* \"src/KipuBankV2.sol\":9704:9710  amount */\n      dup4\n        /* \"src/KipuBankV2.sol\":9698:9701  bal */\n      dup3\n        /* \"src/KipuBankV2.sol\":9698:9710  bal - amount */\n      tag_149\n      swap2\n      swap1\n      tag_150\n      jump\t// in\n    tag_149:\n        /* \"src/KipuBankV2.sol\":9668:9676  balances */\n      0x01\n        /* \"src/KipuBankV2.sol\":9668:9683  balances[token] */\n      0x00\n        /* \"src/KipuBankV2.sol\":9677:9682  token */\n      dup8\n        /* \"src/KipuBankV2.sol\":9668:9683  balances[token] */\n      0xffffffffffffffffffffffffffffffffffffffff\n      and\n      0xffffffffffffffffffffffffffffffffffffffff\n      and\n      dup2\n      mstore\n      0x20\n      add\n      swap1\n      dup2\n      mstore\n      0x20\n      add\n      0x00\n      keccak256\n        /* \"src/KipuBankV2.sol\":9668:9695  balances[token][msg.sender] */\n      0x00\n        /* \"src/KipuBankV2.sol\":9684:9694  msg.sender */\n      caller\n        /* \"src/KipuBankV2.sol\":9668:9695  balances[token][msg.sender] */\n      0xffffffffffffffffffffffffffffffffffffffff\n      and\n      0xffffffffffffffffffffffffffffffffffffffff\n      and\n      dup2\n      mstore\n      0x20\n      add\n      swap1\n      dup2\n      mstore\n      0x20\n      add\n      0x00\n      keccak256\n        /* \"src/KipuBankV2.sol\":9668:9710  balances[token][msg.sender] = bal - amount */\n      dup2\n      swap1\n      sstore\n      pop\n        /* \"src/KipuBankV2.sol\":9721:9739  totalWithdrawCount */\n      0x05\n      0x00\n        /* \"src/KipuBankV2.sol\":9721:9741  totalWithdrawCount++ */\n      dup2\n      sload\n      dup1\n      swap3\n      swap2\n      swap1\n      tag_151\n      swap1\n      tag_134\n      jump\t// in\n    tag_151:\n      swap2\n      swap1\n      pop\n      sstore\n      pop\n        /* \"src/KipuBankV2.sol\":9785:9802  totalDepositedUsd */\n      sload(0x03)\n        /* \"src/KipuBankV2.sol\":9773:9782  amountUsd */\n      dup2\n        /* \"src/KipuBankV2.sol\":9773:9802  amountUsd > totalDepositedUsd */\n      gt\n        /* \"src/KipuBankV2.sol\":9772:9841  (amountUsd > totalDepositedUsd) ? 0 : (totalDepositedUsd - amountUsd) */\n      tag_152\n      jumpi\n        /* \"src/KipuBankV2.sol\":9831:9840  amountUsd */\n      dup1\n        /* \"src/KipuBankV2.sol\":9811:9828  totalDepositedUsd */\n      sload(0x03)\n        /* \"src/KipuBankV2.sol\":9811:9840  totalDepositedUsd - amountUsd */\n      tag_153\n      swap2\n      swap1\n      tag_150\n      jump\t// in\n    tag_153:\n        /* \"src/KipuBankV2.sol\":9772:9841  (amountUsd > totalDepositedUsd) ? 0 : (totalDepositedUsd - amountUsd) */\n      jump(tag_154)\n    tag_152:\n        /* \"src/KipuBankV2.sol\":9806:9807  0 */\n      0x00\n        /* \"src/KipuBankV2.sol\":9772:9841  (amountUsd > totalDepositedUsd) ? 0 : (totalDepositedUsd - amountUsd) */\n    tag_154:\n        /* \"src/KipuBankV2.sol\":9752:9769  totalDepositedUsd */\n      0x03\n        /* \"src/KipuBankV2.sol\":9752:9841  totalDepositedUsd = (amountUsd > totalDepositedUsd) ? 0 : (totalDepositedUsd - amountUsd) */\n      dup2\n      swap1\n      sstore\n      pop\n        /* \"src/KipuBankV2.sol\":9879:9886  bool ok */\n      0x00\n        /* \"src/KipuBankV2.sol\":9896:9901  token */\n      dup6\n        /* \"src/KipuBankV2.sol\":9889:9911  IERC20(token).transfer */\n      0xffffffffffffffffffffffffffffffffffffffff\n      and\n      0xa9059cbb\n        /* \"src/KipuBankV2.sol\":9912:9922  msg.sender */\n      caller\n        /* \"src/KipuBankV2.sol\":9924:9930  amount */\n      dup8\n        /* \"src/KipuBankV2.sol\":9889:9931  IERC20(token).transfer(msg.sender, amount) */\n      mload(0x40)\n      dup4\n      0xffffffff\n      and\n      0xe0\n      shl\n      dup2\n      mstore\n      0x04\n      add\n      tag_155\n      swap3\n      swap2\n      swap1\n      tag_126\n      jump\t// in\n    tag_155:\n      0x20\n      mload(0x40)\n      dup1\n      dup4\n      sub\n      dup2\n      0x00\n      dup8\n      gas\n      call\n      iszero\n      dup1\n      iszero\n      tag_157\n      jumpi\n      returndatacopy(0x00, 0x00, returndatasize)\n      revert(0x00, returndatasize)\n    tag_157:\n      pop\n      pop\n      pop\n      pop\n      mload(0x40)\n      returndatasize\n      not(0x1f)\n      0x1f\n      dup3\n      add\n      and\n      dup3\n      add\n      dup1\n      0x40\n      mstore\n      pop\n      dup2\n      add\n      swap1\n      tag_158\n      swap2\n      swap1\n      tag_117\n      jump\t// in\n    tag_158:\n        /* \"src/KipuBankV2.sol\":9879:9931  bool ok = IERC20(token).transfer(msg.sender, amount) */\n      swap1\n      pop\n        /* \"src/KipuBankV2.sol\":9947:9949  ok */\n      dup1\n        /* \"src/KipuBankV2.sol\":9942:10002  if (!ok) revert ErrTransferFailed(msg.sender, token, amount) */\n      tag_159\n      jumpi\n        /* \"src/KipuBankV2.sol\":9976:9986  msg.sender */\n      caller\n        /* \"src/KipuBankV2.sol\":9988:9993  token */\n      dup7\n        /* \"src/KipuBankV2.sol\":9995:10001  amount */\n      dup7\n        /* \"src/KipuBankV2.sol\":9958:10002  ErrTransferFailed(msg.sender, token, amount) */\n      mload(0x40)\n      0x31e6e4e100000000000000000000000000000000000000000000000000000000\n      dup2\n      mstore\n      0x04\n      add\n      tag_160\n      swap4\n      swap3\n      swap2\n      swap1\n      tag_113\n      jump\t// in\n    tag_160:\n      mload(0x40)\n      dup1\n      swap2\n      sub\n      swap1\n      revert\n        /* \"src/KipuBankV2.sol\":9942:10002  if (!ok) revert ErrTransferFailed(msg.sender, token, amount) */\n    tag_159:\n        /* \"src/KipuBankV2.sol\":10041:10046  token */\n      dup6\n        /* \"src/KipuBankV2.sol\":10020:10066  Withdraw(msg.sender, token, amount, amountUsd) */\n      0xffffffffffffffffffffffffffffffffffffffff\n      and\n        /* \"src/KipuBankV2.sol\":10029:10039  msg.sender */\n      caller\n        /* \"src/KipuBankV2.sol\":10020:10066  Withdraw(msg.sender, token, amount, amountUsd) */\n      0xffffffffffffffffffffffffffffffffffffffff\n      and\n      0xf341246adaac6f497bc2a656f546ab9e182111d630394f0c57c710a59a2cb567\n        /* \"src/KipuBankV2.sol\":10048:10054  amount */\n      dup8\n        /* \"src/KipuBankV2.sol\":10056:10065  amountUsd */\n      dup6\n        /* \"src/KipuBankV2.sol\":10020:10066  Withdraw(msg.sender, token, amount, amountUsd) */\n      mload(0x40)\n      tag_161\n      swap3\n      swap2\n      swap1\n      tag_137\n      jump\t// in\n    tag_161:\n      mload(0x40)\n      dup1\n      swap2\n      sub\n      swap1\n      log3\n        /* \"src/KipuBankV2.sol\":9339:10074  {... */\n      pop\n      pop\n      pop\n        /* \"src/KipuBankV2.sol\":4160:4161  _ */\n      pop\n        /* \"src/KipuBankV2.sol\":4181:4186  false */\n      0x00\n        /* \"src/KipuBankV2.sol\":4172:4178  locked */\n      0x06\n      0x00\n        /* \"src/KipuBankV2.sol\":4172:4186  locked = false */\n      0x0100\n      exp\n      dup2\n      sload\n      dup2\n      0xff\n      mul\n      not\n      and\n      swap1\n      dup4\n      iszero\n      iszero\n      mul\n      or\n      swap1\n      sstore\n      pop\n        /* \"src/KipuBankV2.sol\":9247:10074  function withdrawERC20(address token, uint256 amount) external nonReentrant nonZero(amount) {... */\n      pop\n      pop\n      jump\t// out\n        /* \"src/KipuBankV2.sol\":2060:2095  uint256 public immutable bankCapUsd */\n    tag_61:\n      immutable(\"0xc41c8390c0da0418b7667ee0df6c246c26c4be6c0618368dce5a916e8008b0db\")\n      dup2\n      jump\t// out\n        /* \"src/KipuBankV2.sol\":2936:2968  uint256 public totalDepositedUsd */\n    tag_65:\n      sload(0x03)\n      dup2\n      jump\t// out\n        /* \"src/KipuBankV2.sol\":1862:1905  uint8 public constant INTERNAL_DECIMALS = 6 */\n    tag_69:\n        /* \"src/KipuBankV2.sol\":1904:1905  6 */\n      0x06\n        /* \"src/KipuBankV2.sol\":1862:1905  uint8 public constant INTERNAL_DECIMALS = 6 */\n      dup2\n      jump\t// out\n        /* \"src/KipuBankV2.sol\":2332:2387  AggregatorV3Interface public immutable defaultPriceFeed */\n    tag_74:\n      immutable(\"0xecb3d63bca2dac2f15cfd948f18f200abecc477e6036fc1499f13da50bed1ba1\")\n      dup2\n      jump\t// out\n        /* \"src/KipuBankV2.sol\":3005:3037  uint256 public totalDepositCount */\n    tag_78:\n      sload(0x04)\n      dup2\n      jump\t// out\n        /* \"src/KipuBankV2.sol\":2197:2238  uint256 public immutable withdrawLimitUsd */\n    tag_82:\n      immutable(\"0x2a9063ed52b7d417e441f378325359c9ce274f5d6c3ecf11b7d42f24b9c90b7f\")\n      dup2\n      jump\t// out\n        /* \"src/KipuBankV2.sol\":8148:9094  function withdrawETH(uint256 amount) external nonReentrant nonZero(amount) {... */\n    tag_88:\n        /* \"src/KipuBankV2.sol\":4092:4098  locked */\n      0x06\n      0x00\n      swap1\n      sload\n      swap1\n      0x0100\n      exp\n      swap1\n      div\n      0xff\n      and\n        /* \"src/KipuBankV2.sol\":4088:4125  if (locked) revert ErrReentrantCall() */\n      iszero\n      tag_163\n      jumpi\n        /* \"src/KipuBankV2.sol\":4107:4125  ErrReentrantCall() */\n      mload(0x40)\n      0x5a919cd900000000000000000000000000000000000000000000000000000000\n      dup2\n      mstore\n      0x04\n      add\n      mload(0x40)\n      dup1\n      swap2\n      sub\n      swap1\n      revert\n        /* \"src/KipuBankV2.sol\":4088:4125  if (locked) revert ErrReentrantCall() */\n    tag_163:\n        /* \"src/KipuBankV2.sol\":4145:4149  true */\n      0x01\n        /* \"src/KipuBankV2.sol\":4136:4142  locked */\n      0x06\n      0x00\n        /* \"src/KipuBankV2.sol\":4136:4149  locked = true */\n      0x0100\n      exp\n      dup2\n      sload\n      dup2\n      0xff\n      mul\n      not\n      and\n      swap1\n      dup4\n      iszero\n      iszero\n      mul\n      or\n      swap1\n      sstore\n      pop\n        /* \"src/KipuBankV2.sol\":8215:8221  amount */\n      dup1\n        /* \"src/KipuBankV2.sol\":4502:4503  0 */\n      0x00\n        /* \"src/KipuBankV2.sol\":4492:4498  amount */\n      dup2\n        /* \"src/KipuBankV2.sol\":4492:4503  amount == 0 */\n      sub\n        /* \"src/KipuBankV2.sol\":4488:4527  if (amount == 0) revert ErrZeroAmount() */\n      tag_165\n      jumpi\n        /* \"src/KipuBankV2.sol\":4512:4527  ErrZeroAmount() */\n      mload(0x40)\n      0x608294ac00000000000000000000000000000000000000000000000000000000\n      dup2\n      mstore\n      0x04\n      add\n      mload(0x40)\n      dup1\n      swap2\n      sub\n      swap1\n      revert\n        /* \"src/KipuBankV2.sol\":4488:4527  if (amount == 0) revert ErrZeroAmount() */\n    tag_165:\n        /* \"src/KipuBankV2.sol\":8234:8245  uint256 bal */\n      0x00\n        /* \"src/KipuBankV2.sol\":8248:8256  balances */\n      0x01\n        /* \"src/KipuBankV2.sol\":8248:8268  balances[address(0)] */\n      0x00\n        /* \"src/KipuBankV2.sol\":8265:8266  0 */\n      0x00\n        /* \"src/KipuBankV2.sol\":8248:8268  balances[address(0)] */\n      0xffffffffffffffffffffffffffffffffffffffff\n      and\n      0xffffffffffffffffffffffffffffffffffffffff\n      and\n      dup2\n      mstore\n      0x20\n      add\n      swap1\n      dup2\n      mstore\n      0x20\n      add\n      0x00\n      keccak256\n        /* \"src/KipuBankV2.sol\":8248:8280  balances[address(0)][msg.sender] */\n      0x00\n        /* \"src/KipuBankV2.sol\":8269:8279  msg.sender */\n      caller\n        /* \"src/KipuBankV2.sol\":8248:8280  balances[address(0)][msg.sender] */\n      0xffffffffffffffffffffffffffffffffffffffff\n      and\n      0xffffffffffffffffffffffffffffffffffffffff\n      and\n      dup2\n      mstore\n      0x20\n      add\n      swap1\n      dup2\n      mstore\n      0x20\n      add\n      0x00\n      keccak256\n      sload\n        /* \"src/KipuBankV2.sol\":8234:8280  uint256 bal = balances[address(0)][msg.sender] */\n      swap1\n      pop\n        /* \"src/KipuBankV2.sol\":8304:8307  bal */\n      dup1\n        /* \"src/KipuBankV2.sol\":8295:8301  amount */\n      dup4\n        /* \"src/KipuBankV2.sol\":8295:8307  amount > bal */\n      gt\n        /* \"src/KipuBankV2.sol\":8291:8363  if (amount > bal) revert ErrInsufficientBalance(address(0), bal, amount) */\n      iszero\n      tag_167\n      jumpi\n        /* \"src/KipuBankV2.sol\":8347:8348  0 */\n      0x00\n        /* \"src/KipuBankV2.sol\":8351:8354  bal */\n      dup2\n        /* \"src/KipuBankV2.sol\":8356:8362  amount */\n      dup5\n        /* \"src/KipuBankV2.sol\":8316:8363  ErrInsufficientBalance(address(0), bal, amount) */\n      mload(0x40)\n      0x483b38f200000000000000000000000000000000000000000000000000000000\n      dup2\n      mstore\n      0x04\n      add\n      tag_168\n      swap4\n      swap3\n      swap2\n      swap1\n      tag_145\n      jump\t// in\n    tag_168:\n      mload(0x40)\n      dup1\n      swap2\n      sub\n      swap1\n      revert\n        /* \"src/KipuBankV2.sol\":8291:8363  if (amount > bal) revert ErrInsufficientBalance(address(0), bal, amount) */\n    tag_167:\n        /* \"src/KipuBankV2.sol\":8376:8393  uint256 amountUsd */\n      0x00\n        /* \"src/KipuBankV2.sol\":8396:8429  _convertToUsd(address(0), amount) */\n      tag_169\n        /* \"src/KipuBankV2.sol\":8418:8419  0 */\n      0x00\n        /* \"src/KipuBankV2.sol\":8422:8428  amount */\n      dup6\n        /* \"src/KipuBankV2.sol\":8396:8409  _convertToUsd */\n      tag_121\n        /* \"src/KipuBankV2.sol\":8396:8429  _convertToUsd(address(0), amount) */\n      jump\t// in\n    tag_169:\n        /* \"src/KipuBankV2.sol\":8376:8429  uint256 amountUsd = _convertToUsd(address(0), amount) */\n      swap1\n      pop\n        /* \"src/KipuBankV2.sol\":8456:8472  withdrawLimitUsd */\n      immutable(\"0x2a9063ed52b7d417e441f378325359c9ce274f5d6c3ecf11b7d42f24b9c90b7f\")\n        /* \"src/KipuBankV2.sol\":8444:8453  amountUsd */\n      dup2\n        /* \"src/KipuBankV2.sol\":8444:8472  amountUsd > withdrawLimitUsd */\n      gt\n        /* \"src/KipuBankV2.sol\":8440:8534  if (amountUsd > withdrawLimitUsd) revert ErrWithdrawLimitExceeded(amountUsd, withdrawLimitUsd) */\n      iszero\n      tag_170\n      jumpi\n        /* \"src/KipuBankV2.sol\":8506:8515  amountUsd */\n      dup1\n        /* \"src/KipuBankV2.sol\":8517:8533  withdrawLimitUsd */\n      immutable(\"0x2a9063ed52b7d417e441f378325359c9ce274f5d6c3ecf11b7d42f24b9c90b7f\")\n        /* \"src/KipuBankV2.sol\":8481:8534  ErrWithdrawLimitExceeded(amountUsd, withdrawLimitUsd) */\n      mload(0x40)\n      0x2996304900000000000000000000000000000000000000000000000000000000\n      dup2\n      mstore\n      0x04\n      add\n      tag_171\n      swap3\n      swap2\n      swap1\n      tag_137\n      jump\t// in\n    tag_171:\n      mload(0x40)\n      dup1\n      swap2\n      sub\n      swap1\n      revert\n        /* \"src/KipuBankV2.sol\":8440:8534  if (amountUsd > withdrawLimitUsd) revert ErrWithdrawLimitExceeded(amountUsd, withdrawLimitUsd) */\n    tag_170:\n        /* \"src/KipuBankV2.sol\":8608:8614  amount */\n      dup4\n        /* \"src/KipuBankV2.sol\":8602:8605  bal */\n      dup3\n        /* \"src/KipuBankV2.sol\":8602:8614  bal - amount */\n      tag_172\n      swap2\n      swap1\n      tag_150\n      jump\t// in\n    tag_172:\n        /* \"src/KipuBankV2.sol\":8567:8575  balances */\n      0x01\n        /* \"src/KipuBankV2.sol\":8567:8587  balances[address(0)] */\n      0x00\n        /* \"src/KipuBankV2.sol\":8584:8585  0 */\n      0x00\n        /* \"src/KipuBankV2.sol\":8567:8587  balances[address(0)] */\n      0xffffffffffffffffffffffffffffffffffffffff\n      and\n      0xffffffffffffffffffffffffffffffffffffffff\n      and\n      dup2\n      mstore\n      0x20\n      add\n      swap1\n      dup2\n      mstore\n      0x20\n      add\n      0x00\n      keccak256\n        /* \"src/KipuBankV2.sol\":8567:8599  balances[address(0)][msg.sender] */\n      0x00\n        /* \"src/KipuBankV2.sol\":8588:8598  msg.sender */\n      caller\n        /* \"src/KipuBankV2.sol\":8567:8599  balances[address(0)][msg.sender] */\n      0xffffffffffffffffffffffffffffffffffffffff\n      and\n      0xffffffffffffffffffffffffffffffffffffffff\n      and\n      dup2\n      mstore\n      0x20\n      add\n      swap1\n      dup2\n      mstore\n      0x20\n      add\n      0x00\n      keccak256\n        /* \"src/KipuBankV2.sol\":8567:8614  balances[address(0)][msg.sender] = bal - amount */\n      dup2\n      swap1\n      sstore\n      pop\n        /* \"src/KipuBankV2.sol\":8625:8643  totalWithdrawCount */\n      0x05\n      0x00\n        /* \"src/KipuBankV2.sol\":8625:8645  totalWithdrawCount++ */\n      dup2\n      sload\n      dup1\n      swap3\n      swap2\n      swap1\n      tag_173\n      swap1\n      tag_134\n      jump\t// in\n    tag_173:\n      swap2\n      swap1\n      pop\n      sstore\n      pop\n        /* \"src/KipuBankV2.sol\":8786:8803  totalDepositedUsd */\n      sload(0x03)\n        /* \"src/KipuBankV2.sol\":8774:8783  amountUsd */\n      dup2\n        /* \"src/KipuBankV2.sol\":8774:8803  amountUsd > totalDepositedUsd */\n      gt\n        /* \"src/KipuBankV2.sol\":8773:8842  (amountUsd > totalDepositedUsd) ? 0 : (totalDepositedUsd - amountUsd) */\n      tag_174\n      jumpi\n        /* \"src/KipuBankV2.sol\":8832:8841  amountUsd */\n      dup1\n        /* \"src/KipuBankV2.sol\":8812:8829  totalDepositedUsd */\n      sload(0x03)\n        /* \"src/KipuBankV2.sol\":8812:8841  totalDepositedUsd - amountUsd */\n      tag_175\n      swap2\n      swap1\n      tag_150\n      jump\t// in\n    tag_175:\n        /* \"src/KipuBankV2.sol\":8773:8842  (amountUsd > totalDepositedUsd) ? 0 : (totalDepositedUsd - amountUsd) */\n      jump(tag_176)\n    tag_174:\n        /* \"src/KipuBankV2.sol\":8807:8808  0 */\n      0x00\n        /* \"src/KipuBankV2.sol\":8773:8842  (amountUsd > totalDepositedUsd) ? 0 : (totalDepositedUsd - amountUsd) */\n    tag_176:\n        /* \"src/KipuBankV2.sol\":8753:8770  totalDepositedUsd */\n      0x03\n        /* \"src/KipuBankV2.sol\":8753:8842  totalDepositedUsd = (amountUsd > totalDepositedUsd) ? 0 : (totalDepositedUsd - amountUsd) */\n      dup2\n      swap1\n      sstore\n      pop\n        /* \"src/KipuBankV2.sol\":8881:8890  bool sent */\n      0x00\n        /* \"src/KipuBankV2.sol\":8904:8914  msg.sender */\n      caller\n        /* \"src/KipuBankV2.sol\":8896:8920  payable(msg.sender).call */\n      0xffffffffffffffffffffffffffffffffffffffff\n      and\n        /* \"src/KipuBankV2.sol\":8928:8934  amount */\n      dup6\n        /* \"src/KipuBankV2.sol\":8896:8939  payable(msg.sender).call{value: amount}(\"\") */\n      mload(0x40)\n      tag_177\n      swap1\n      tag_178\n      jump\t// in\n    tag_177:\n      0x00\n      mload(0x40)\n      dup1\n      dup4\n      sub\n      dup2\n      dup6\n      dup8\n      gas\n      call\n      swap3\n      pop\n      pop\n      pop\n      returndatasize\n      dup1\n      0x00\n      dup2\n      eq\n      tag_181\n      jumpi\n      mload(0x40)\n      swap2\n      pop\n      and(add(returndatasize, 0x3f), not(0x1f))\n      dup3\n      add\n      0x40\n      mstore\n      returndatasize\n      dup3\n      mstore\n      returndatasize\n      0x00\n      0x20\n      dup5\n      add\n      returndatacopy\n      jump(tag_180)\n    tag_181:\n      0x60\n      swap2\n      pop\n    tag_180:\n      pop\n        /* \"src/KipuBankV2.sol\":8880:8939  (bool sent, ) = payable(msg.sender).call{value: amount}(\"\") */\n      pop\n      swap1\n      pop\n        /* \"src/KipuBankV2.sol\":8955:8959  sent */\n      dup1\n        /* \"src/KipuBankV2.sol\":8950:9017  if (!sent) revert ErrTransferFailed(msg.sender, address(0), amount) */\n      tag_182\n      jumpi\n        /* \"src/KipuBankV2.sol\":8986:8996  msg.sender */\n      caller\n        /* \"src/KipuBankV2.sol\":9006:9007  0 */\n      0x00\n        /* \"src/KipuBankV2.sol\":9010:9016  amount */\n      dup7\n        /* \"src/KipuBankV2.sol\":8968:9017  ErrTransferFailed(msg.sender, address(0), amount) */\n      mload(0x40)\n      0x31e6e4e100000000000000000000000000000000000000000000000000000000\n      dup2\n      mstore\n      0x04\n      add\n      tag_183\n      swap4\n      swap3\n      swap2\n      swap1\n      tag_113\n      jump\t// in\n    tag_183:\n      mload(0x40)\n      dup1\n      swap2\n      sub\n      swap1\n      revert\n        /* \"src/KipuBankV2.sol\":8950:9017  if (!sent) revert ErrTransferFailed(msg.sender, address(0), amount) */\n    tag_182:\n        /* \"src/KipuBankV2.sol\":9064:9065  0 */\n      0x00\n        /* \"src/KipuBankV2.sol\":9035:9086  Withdraw(msg.sender, address(0), amount, amountUsd) */\n      0xffffffffffffffffffffffffffffffffffffffff\n      and\n        /* \"src/KipuBankV2.sol\":9044:9054  msg.sender */\n      caller\n        /* \"src/KipuBankV2.sol\":9035:9086  Withdraw(msg.sender, address(0), amount, amountUsd) */\n      0xffffffffffffffffffffffffffffffffffffffff\n      and\n      0xf341246adaac6f497bc2a656f546ab9e182111d630394f0c57c710a59a2cb567\n        /* \"src/KipuBankV2.sol\":9068:9074  amount */\n      dup8\n        /* \"src/KipuBankV2.sol\":9076:9085  amountUsd */\n      dup6\n        /* \"src/KipuBankV2.sol\":9035:9086  Withdraw(msg.sender, address(0), amount, amountUsd) */\n      mload(0x40)\n      tag_184\n      swap3\n      swap2\n      swap1\n      tag_137\n      jump\t// in\n    tag_184:\n      mload(0x40)\n      dup1\n      swap2\n      sub\n      swap1\n      log3\n        /* \"src/KipuBankV2.sol\":8223:9094  {... */\n      pop\n      pop\n      pop\n        /* \"src/KipuBankV2.sol\":4160:4161  _ */\n      pop\n        /* \"src/KipuBankV2.sol\":4181:4186  false */\n      0x00\n        /* \"src/KipuBankV2.sol\":4172:4178  locked */\n      0x06\n      0x00\n        /* \"src/KipuBankV2.sol\":4172:4186  locked = false */\n      0x0100\n      exp\n      dup2\n      sload\n      dup2\n      0xff\n      mul\n      not\n      and\n      swap1\n      dup4\n      iszero\n      iszero\n      mul\n      or\n      swap1\n      sstore\n      pop\n        /* \"src/KipuBankV2.sol\":8148:9094  function withdrawETH(uint256 amount) external nonReentrant nonZero(amount) {... */\n      pop\n      jump\t// out\n        /* \"src/KipuBankV2.sol\":6108:6646  function depositETH() external payable nonReentrant nonZero(msg.value) {... */\n    tag_90:\n        /* \"src/KipuBankV2.sol\":4092:4098  locked */\n      0x06\n      0x00\n      swap1\n      sload\n      swap1\n      0x0100\n      exp\n      swap1\n      div\n      0xff\n      and\n        /* \"src/KipuBankV2.sol\":4088:4125  if (locked) revert ErrReentrantCall() */\n      iszero\n      tag_186\n      jumpi\n        /* \"src/KipuBankV2.sol\":4107:4125  ErrReentrantCall() */\n      mload(0x40)\n      0x5a919cd900000000000000000000000000000000000000000000000000000000\n      dup2\n      mstore\n      0x04\n      add\n      mload(0x40)\n      dup1\n      swap2\n      sub\n      swap1\n      revert\n        /* \"src/KipuBankV2.sol\":4088:4125  if (locked) revert ErrReentrantCall() */\n    tag_186:\n        /* \"src/KipuBankV2.sol\":4145:4149  true */\n      0x01\n        /* \"src/KipuBankV2.sol\":4136:4142  locked */\n      0x06\n      0x00\n        /* \"src/KipuBankV2.sol\":4136:4149  locked = true */\n      0x0100\n      exp\n      dup2\n      sload\n      dup2\n      0xff\n      mul\n      not\n      and\n      swap1\n      dup4\n      iszero\n      iszero\n      mul\n      or\n      swap1\n      sstore\n      pop\n        /* \"src/KipuBankV2.sol\":6168:6177  msg.value */\n      callvalue\n        /* \"src/KipuBankV2.sol\":4502:4503  0 */\n      0x00\n        /* \"src/KipuBankV2.sol\":4492:4498  amount */\n      dup2\n        /* \"src/KipuBankV2.sol\":4492:4503  amount == 0 */\n      sub\n        /* \"src/KipuBankV2.sol\":4488:4527  if (amount == 0) revert ErrZeroAmount() */\n      tag_188\n      jumpi\n        /* \"src/KipuBankV2.sol\":4512:4527  ErrZeroAmount() */\n      mload(0x40)\n      0x608294ac00000000000000000000000000000000000000000000000000000000\n      dup2\n      mstore\n      0x04\n      add\n      mload(0x40)\n      dup1\n      swap2\n      sub\n      swap1\n      revert\n        /* \"src/KipuBankV2.sol\":4488:4527  if (amount == 0) revert ErrZeroAmount() */\n    tag_188:\n        /* \"src/KipuBankV2.sol\":6236:6253  uint256 amountUsd */\n      0x00\n        /* \"src/KipuBankV2.sol\":6256:6292  _convertToUsd(address(0), msg.value) */\n      tag_190\n        /* \"src/KipuBankV2.sol\":6278:6279  0 */\n      0x00\n        /* \"src/KipuBankV2.sol\":6282:6291  msg.value */\n      callvalue\n        /* \"src/KipuBankV2.sol\":6256:6269  _convertToUsd */\n      tag_121\n        /* \"src/KipuBankV2.sol\":6256:6292  _convertToUsd(address(0), msg.value) */\n      jump\t// in\n    tag_190:\n        /* \"src/KipuBankV2.sol\":6236:6292  uint256 amountUsd = _convertToUsd(address(0), msg.value) */\n      swap1\n      pop\n        /* \"src/KipuBankV2.sol\":6339:6349  bankCapUsd */\n      immutable(\"0xc41c8390c0da0418b7667ee0df6c246c26c4be6c0618368dce5a916e8008b0db\")\n        /* \"src/KipuBankV2.sol\":6327:6336  amountUsd */\n      dup2\n        /* \"src/KipuBankV2.sol\":6307:6324  totalDepositedUsd */\n      sload(0x03)\n        /* \"src/KipuBankV2.sol\":6307:6336  totalDepositedUsd + amountUsd */\n      tag_191\n      swap2\n      swap1\n      tag_123\n      jump\t// in\n    tag_191:\n        /* \"src/KipuBankV2.sol\":6307:6349  totalDepositedUsd + amountUsd > bankCapUsd */\n      gt\n        /* \"src/KipuBankV2.sol\":6303:6418  if (totalDepositedUsd + amountUsd > bankCapUsd) revert ErrBankCapExceeded(amountUsd, totalDepositedUsd, bankCapUsd) */\n      iszero\n      tag_192\n      jumpi\n        /* \"src/KipuBankV2.sol\":6377:6386  amountUsd */\n      dup1\n        /* \"src/KipuBankV2.sol\":6388:6405  totalDepositedUsd */\n      sload(0x03)\n        /* \"src/KipuBankV2.sol\":6407:6417  bankCapUsd */\n      immutable(\"0xc41c8390c0da0418b7667ee0df6c246c26c4be6c0618368dce5a916e8008b0db\")\n        /* \"src/KipuBankV2.sol\":6358:6418  ErrBankCapExceeded(amountUsd, totalDepositedUsd, bankCapUsd) */\n      mload(0x40)\n      0xcfe6749800000000000000000000000000000000000000000000000000000000\n      dup2\n      mstore\n      0x04\n      add\n      tag_193\n      swap4\n      swap3\n      swap2\n      swap1\n      tag_131\n      jump\t// in\n    tag_193:\n      mload(0x40)\n      dup1\n      swap2\n      sub\n      swap1\n      revert\n        /* \"src/KipuBankV2.sol\":6303:6418  if (totalDepositedUsd + amountUsd > bankCapUsd) revert ErrBankCapExceeded(amountUsd, totalDepositedUsd, bankCapUsd) */\n    tag_192:\n        /* \"src/KipuBankV2.sol\":6487:6496  msg.value */\n      callvalue\n        /* \"src/KipuBankV2.sol\":6451:6459  balances */\n      0x01\n        /* \"src/KipuBankV2.sol\":6451:6471  balances[address(0)] */\n      0x00\n        /* \"src/KipuBankV2.sol\":6468:6469  0 */\n      0x00\n        /* \"src/KipuBankV2.sol\":6451:6471  balances[address(0)] */\n      0xffffffffffffffffffffffffffffffffffffffff\n      and\n      0xffffffffffffffffffffffffffffffffffffffff\n      and\n      dup2\n      mstore\n      0x20\n      add\n      swap1\n      dup2\n      mstore\n      0x20\n      add\n      0x00\n      keccak256\n        /* \"src/KipuBankV2.sol\":6451:6483  balances[address(0)][msg.sender] */\n      0x00\n        /* \"src/KipuBankV2.sol\":6472:6482  msg.sender */\n      caller\n        /* \"src/KipuBankV2.sol\":6451:6483  balances[address(0)][msg.sender] */\n      0xffffffffffffffffffffffffffffffffffffffff\n      and\n      0xffffffffffffffffffffffffffffffffffffffff\n      and\n      dup2\n      mstore\n      0x20\n      add\n      swap1\n      dup2\n      mstore\n      0x20\n      add\n      0x00\n      keccak256\n      0x00\n        /* \"src/KipuBankV2.sol\":6451:6496  balances[address(0)][msg.sender] += msg.value */\n      dup3\n      dup3\n      sload\n      tag_194\n      swap2\n      swap1\n      tag_123\n      jump\t// in\n    tag_194:\n      swap3\n      pop\n      pop\n      dup2\n      swap1\n      sstore\n      pop\n        /* \"src/KipuBankV2.sol\":6507:6524  totalDepositCount */\n      0x04\n      0x00\n        /* \"src/KipuBankV2.sol\":6507:6526  totalDepositCount++ */\n      dup2\n      sload\n      dup1\n      swap3\n      swap2\n      swap1\n      tag_195\n      swap1\n      tag_134\n      jump\t// in\n    tag_195:\n      swap2\n      swap1\n      pop\n      sstore\n      pop\n        /* \"src/KipuBankV2.sol\":6558:6567  amountUsd */\n      dup1\n        /* \"src/KipuBankV2.sol\":6537:6554  totalDepositedUsd */\n      0x03\n      0x00\n        /* \"src/KipuBankV2.sol\":6537:6567  totalDepositedUsd += amountUsd */\n      dup3\n      dup3\n      sload\n      tag_196\n      swap2\n      swap1\n      tag_123\n      jump\t// in\n    tag_196:\n      swap3\n      pop\n      pop\n      dup2\n      swap1\n      sstore\n      pop\n        /* \"src/KipuBankV2.sol\":6613:6614  0 */\n      0x00\n        /* \"src/KipuBankV2.sol\":6585:6638  Deposit(msg.sender, address(0), msg.value, amountUsd) */\n      0xffffffffffffffffffffffffffffffffffffffff\n      and\n        /* \"src/KipuBankV2.sol\":6593:6603  msg.sender */\n      caller\n        /* \"src/KipuBankV2.sol\":6585:6638  Deposit(msg.sender, address(0), msg.value, amountUsd) */\n      0xffffffffffffffffffffffffffffffffffffffff\n      and\n      0xdcbc1c05240f31ff3ad067ef1ee35ce4997762752e3a095284754544f4c709d7\n        /* \"src/KipuBankV2.sol\":6617:6626  msg.value */\n      callvalue\n        /* \"src/KipuBankV2.sol\":6628:6637  amountUsd */\n      dup5\n        /* \"src/KipuBankV2.sol\":6585:6638  Deposit(msg.sender, address(0), msg.value, amountUsd) */\n      mload(0x40)\n      tag_197\n      swap3\n      swap2\n      swap1\n      tag_137\n      jump\t// in\n    tag_197:\n      mload(0x40)\n      dup1\n      swap2\n      sub\n      swap1\n      log3\n        /* \"src/KipuBankV2.sol\":6179:6646  {... */\n      pop\n        /* \"src/KipuBankV2.sol\":4160:4161  _ */\n      pop\n        /* \"src/KipuBankV2.sol\":4181:4186  false */\n      0x00\n        /* \"src/KipuBankV2.sol\":4172:4178  locked */\n      0x06\n      0x00\n        /* \"src/KipuBankV2.sol\":4172:4186  locked = false */\n      0x0100\n      exp\n      dup2\n      sload\n      dup2\n      0xff\n      mul\n      not\n      and\n      swap1\n      dup4\n      iszero\n      iszero\n      mul\n      or\n      swap1\n      sstore\n      pop\n        /* \"src/KipuBankV2.sol\":6108:6646  function depositETH() external payable nonReentrant nonZero(msg.value) {... */\n      jump\t// out\n        /* \"src/KipuBankV2.sol\":10190:10317  function balanceOf(address token, address user) external view returns (uint256) {... */\n    tag_94:\n        /* \"src/KipuBankV2.sol\":10261:10268  uint256 */\n      0x00\n        /* \"src/KipuBankV2.sol\":10288:10296  balances */\n      0x01\n        /* \"src/KipuBankV2.sol\":10288:10303  balances[token] */\n      0x00\n        /* \"src/KipuBankV2.sol\":10297:10302  token */\n      dup5\n        /* \"src/KipuBankV2.sol\":10288:10303  balances[token] */\n      0xffffffffffffffffffffffffffffffffffffffff\n      and\n      0xffffffffffffffffffffffffffffffffffffffff\n      and\n      dup2\n      mstore\n      0x20\n      add\n      swap1\n      dup2\n      mstore\n      0x20\n      add\n      0x00\n      keccak256\n        /* \"src/KipuBankV2.sol\":10288:10309  balances[token][user] */\n      0x00\n        /* \"src/KipuBankV2.sol\":10304:10308  user */\n      dup4\n        /* \"src/KipuBankV2.sol\":10288:10309  balances[token][user] */\n      0xffffffffffffffffffffffffffffffffffffffff\n      and\n      0xffffffffffffffffffffffffffffffffffffffff\n      and\n      dup2\n      mstore\n      0x20\n      add\n      swap1\n      dup2\n      mstore\n      0x20\n      add\n      0x00\n      keccak256\n      sload\n        /* \"src/KipuBankV2.sol\":10281:10309  return balances[token][user] */\n      swap1\n      pop\n        /* \"src/KipuBankV2.sol\":10190:10317  function balanceOf(address token, address user) external view returns (uint256) {... */\n      swap3\n      swap2\n      pop\n      pop\n      jump\t// out\n        /* \"src/KipuBankV2.sol\":10887:12449  function _convertToUsd(address token, uint256 amount) internal view returns (uint256) {... */\n    tag_121:\n        /* \"src/KipuBankV2.sol\":10964:10971  uint256 */\n      0x00\n        /* \"src/KipuBankV2.sol\":10984:11010  AggregatorV3Interface feed */\n      0x00\n        /* \"src/KipuBankV2.sol\":11013:11028  _getFeed(token) */\n      tag_200\n        /* \"src/KipuBankV2.sol\":11022:11027  token */\n      dup5\n        /* \"src/KipuBankV2.sol\":11013:11021  _getFeed */\n      tag_201\n        /* \"src/KipuBankV2.sol\":11013:11028  _getFeed(token) */\n      jump\t// in\n    tag_200:\n        /* \"src/KipuBankV2.sol\":10984:11028  AggregatorV3Interface feed = _getFeed(token) */\n      swap1\n      pop\n        /* \"src/KipuBankV2.sol\":11042:11054  int256 price */\n      0x00\n        /* \"src/KipuBankV2.sol\":11063:11067  feed */\n      dup2\n        /* \"src/KipuBankV2.sol\":11063:11083  feed.latestRoundData */\n      0xffffffffffffffffffffffffffffffffffffffff\n      and\n      0xfeaf968c\n        /* \"src/KipuBankV2.sol\":11063:11085  feed.latestRoundData() */\n      mload(0x40)\n      dup2\n      0xffffffff\n      and\n      0xe0\n      shl\n      dup2\n      mstore\n      0x04\n      add\n      0xa0\n      mload(0x40)\n      dup1\n      dup4\n      sub\n      dup2\n      dup7\n      gas\n      staticcall\n      iszero\n      dup1\n      iszero\n      tag_203\n      jumpi\n      returndatacopy(0x00, 0x00, returndatasize)\n      revert(0x00, returndatasize)\n    tag_203:\n      pop\n      pop\n      pop\n      pop\n      mload(0x40)\n      returndatasize\n      not(0x1f)\n      0x1f\n      dup3\n      add\n      and\n      dup3\n      add\n      dup1\n      0x40\n      mstore\n      pop\n      dup2\n      add\n      swap1\n      tag_204\n      swap2\n      swap1\n      tag_205\n      jump\t// in\n    tag_204:\n        /* \"src/KipuBankV2.sol\":11039:11085  (, int256 price, , ,) = feed.latestRoundData() */\n      pop\n      pop\n      pop\n      swap2\n      pop\n      pop\n        /* \"src/KipuBankV2.sol\":11096:11114  uint8 feedDecimals */\n      0x00\n        /* \"src/KipuBankV2.sol\":11117:11121  feed */\n      dup3\n        /* \"src/KipuBankV2.sol\":11117:11130  feed.decimals */\n      0xffffffffffffffffffffffffffffffffffffffff\n      and\n      0x313ce567\n        /* \"src/KipuBankV2.sol\":11117:11132  feed.decimals() */\n      mload(0x40)\n      dup2\n      0xffffffff\n      and\n      0xe0\n      shl\n      dup2\n      mstore\n      0x04\n      add\n      0x20\n      mload(0x40)\n      dup1\n      dup4\n      sub\n      dup2\n      dup7\n      gas\n      staticcall\n      iszero\n      dup1\n      iszero\n      tag_207\n      jumpi\n      returndatacopy(0x00, 0x00, returndatasize)\n      revert(0x00, returndatasize)\n    tag_207:\n      pop\n      pop\n      pop\n      pop\n      mload(0x40)\n      returndatasize\n      not(0x1f)\n      0x1f\n      dup3\n      add\n      and\n      dup3\n      add\n      dup1\n      0x40\n      mstore\n      pop\n      dup2\n      add\n      swap1\n      tag_208\n      swap2\n      swap1\n      tag_209\n      jump\t// in\n    tag_208:\n        /* \"src/KipuBankV2.sol\":11096:11132  uint8 feedDecimals = feed.decimals() */\n      swap1\n      pop\n        /* \"src/KipuBankV2.sol\":11167:11168  0 */\n      0x00\n        /* \"src/KipuBankV2.sol\":11158:11163  price */\n      dup3\n        /* \"src/KipuBankV2.sol\":11158:11168  price <= 0 */\n      sgt\n        /* \"src/KipuBankV2.sol\":11154:11178  if (price <= 0) return 0 */\n      tag_210\n      jumpi\n        /* \"src/KipuBankV2.sol\":11177:11178  0 */\n      0x00\n        /* \"src/KipuBankV2.sol\":11170:11178  return 0 */\n      swap4\n      pop\n      pop\n      pop\n      pop\n      jump(tag_199)\n        /* \"src/KipuBankV2.sol\":11154:11178  if (price <= 0) return 0 */\n    tag_210:\n        /* \"src/KipuBankV2.sol\":11191:11210  uint8 tokenDecimals */\n      0x00\n        /* \"src/KipuBankV2.sol\":11213:11215  18 */\n      0x12\n        /* \"src/KipuBankV2.sol\":11191:11215  uint8 tokenDecimals = 18 */\n      swap1\n      pop\n        /* \"src/KipuBankV2.sol\":11247:11248  0 */\n      0x00\n        /* \"src/KipuBankV2.sol\":11230:11249  token != address(0) */\n      0xffffffffffffffffffffffffffffffffffffffff\n      and\n        /* \"src/KipuBankV2.sol\":11230:11235  token */\n      dup8\n        /* \"src/KipuBankV2.sol\":11230:11249  token != address(0) */\n      0xffffffffffffffffffffffffffffffffffffffff\n      and\n      eq\n        /* \"src/KipuBankV2.sol\":11226:11527  if (token != address(0)) {... */\n      tag_211\n      jumpi\n        /* \"src/KipuBankV2.sol\":11368:11373  token */\n      dup7\n        /* \"src/KipuBankV2.sol\":11361:11383  IERC20(token).decimals */\n      0xffffffffffffffffffffffffffffffffffffffff\n      and\n      0x313ce567\n        /* \"src/KipuBankV2.sol\":11361:11385  IERC20(token).decimals() */\n      mload(0x40)\n      dup2\n      0xffffffff\n      and\n      0xe0\n      shl\n      dup2\n      mstore\n      0x04\n      add\n      0x20\n      mload(0x40)\n      dup1\n      dup4\n      sub\n      dup2\n      dup7\n      gas\n      staticcall\n      swap3\n      pop\n      pop\n      pop\n      dup1\n      iszero\n      tag_212\n      jumpi\n      pop\n      mload(0x40)\n      returndatasize\n      not(0x1f)\n      0x1f\n      dup3\n      add\n      and\n      dup3\n      add\n      dup1\n      0x40\n      mstore\n      pop\n      dup2\n      add\n      swap1\n      tag_213\n      swap2\n      swap1\n      tag_209\n      jump\t// in\n    tag_213:\n      0x01\n    tag_212:\n        /* \"src/KipuBankV2.sol\":11357:11516  try IERC20(token).decimals() returns (uint8 d) {... */\n      tag_214\n      jumpi\n        /* \"src/KipuBankV2.sol\":11498:11500  18 */\n      0x12\n        /* \"src/KipuBankV2.sol\":11482:11500  tokenDecimals = 18 */\n      swap1\n      pop\n        /* \"src/KipuBankV2.sol\":11357:11516  try IERC20(token).decimals() returns (uint8 d) {... */\n      jump(tag_218)\n    tag_214:\n        /* \"src/KipuBankV2.sol\":11439:11440  d */\n      dup1\n        /* \"src/KipuBankV2.sol\":11423:11440  tokenDecimals = d */\n      swap2\n      pop\n        /* \"src/KipuBankV2.sol\":11386:11456  returns (uint8 d) {... */\n      pop\n        /* \"src/KipuBankV2.sol\":11357:11516  try IERC20(token).decimals() returns (uint8 d) {... */\n    tag_218:\n        /* \"src/KipuBankV2.sol\":11226:11527  if (token != address(0)) {... */\n    tag_211:\n        /* \"src/KipuBankV2.sol\":11830:11847  uint256 numerator */\n      0x00\n        /* \"src/KipuBankV2.sol\":11867:11873  amount */\n      dup7\n        /* \"src/KipuBankV2.sol\":11858:11863  price */\n      dup5\n        /* \"src/KipuBankV2.sol\":11850:11873  uint256(price) * amount */\n      tag_219\n      swap2\n      swap1\n      tag_220\n      jump\t// in\n    tag_219:\n        /* \"src/KipuBankV2.sol\":11830:11873  uint256 numerator = uint256(price) * amount */\n      swap1\n      pop\n        /* \"src/KipuBankV2.sol\":11884:11910  uint256 decimalsAdjustment */\n      0x00\n        /* \"src/KipuBankV2.sol\":1904:1905  6 */\n      0x06\n        /* \"src/KipuBankV2.sol\":11979:12028  tokenDecimals + feedDecimals >= INTERNAL_DECIMALS */\n      0xff\n      and\n        /* \"src/KipuBankV2.sol\":11995:12007  feedDecimals */\n      dup5\n        /* \"src/KipuBankV2.sol\":11979:11992  tokenDecimals */\n      dup5\n        /* \"src/KipuBankV2.sol\":11979:12007  tokenDecimals + feedDecimals */\n      tag_221\n      swap2\n      swap1\n      tag_222\n      jump\t// in\n    tag_221:\n        /* \"src/KipuBankV2.sol\":11979:12028  tokenDecimals + feedDecimals >= INTERNAL_DECIMALS */\n      0xff\n      and\n      lt\n        /* \"src/KipuBankV2.sol\":11975:12442  if (tokenDecimals + feedDecimals >= INTERNAL_DECIMALS) {... */\n      tag_223\n      jumpi\n        /* \"src/KipuBankV2.sol\":1904:1905  6 */\n      0x06\n        /* \"src/KipuBankV2.sol\":12082:12094  feedDecimals */\n      dup5\n        /* \"src/KipuBankV2.sol\":12066:12079  tokenDecimals */\n      dup5\n        /* \"src/KipuBankV2.sol\":12066:12094  tokenDecimals + feedDecimals */\n      tag_224\n      swap2\n      swap1\n      tag_222\n      jump\t// in\n    tag_224:\n        /* \"src/KipuBankV2.sol\":12066:12114  tokenDecimals + feedDecimals - INTERNAL_DECIMALS */\n      tag_225\n      swap2\n      swap1\n      tag_226\n      jump\t// in\n    tag_225:\n        /* \"src/KipuBankV2.sol\":12045:12114  decimalsAdjustment = tokenDecimals + feedDecimals - INTERNAL_DECIMALS */\n      0xff\n      and\n      swap1\n      pop\n        /* \"src/KipuBankV2.sol\":12155:12173  decimalsAdjustment */\n      dup1\n        /* \"src/KipuBankV2.sol\":12149:12151  10 */\n      0x0a\n        /* \"src/KipuBankV2.sol\":12149:12173  10 ** decimalsAdjustment */\n      tag_227\n      swap2\n      swap1\n      tag_228\n      jump\t// in\n    tag_227:\n        /* \"src/KipuBankV2.sol\":12136:12145  numerator */\n      dup3\n        /* \"src/KipuBankV2.sol\":12136:12174  numerator / (10 ** decimalsAdjustment) */\n      tag_229\n      swap2\n      swap1\n      tag_230\n      jump\t// in\n    tag_229:\n        /* \"src/KipuBankV2.sol\":12129:12174  return numerator / (10 ** decimalsAdjustment) */\n      swap7\n      pop\n      pop\n      pop\n      pop\n      pop\n      pop\n      pop\n      jump(tag_199)\n        /* \"src/KipuBankV2.sol\":11975:12442  if (tokenDecimals + feedDecimals >= INTERNAL_DECIMALS) {... */\n    tag_223:\n        /* \"src/KipuBankV2.sol\":12357:12369  feedDecimals */\n      dup4\n        /* \"src/KipuBankV2.sol\":12341:12354  tokenDecimals */\n      dup4\n        /* \"src/KipuBankV2.sol\":12341:12369  tokenDecimals + feedDecimals */\n      tag_232\n      swap2\n      swap1\n      tag_222\n      jump\t// in\n    tag_232:\n        /* \"src/KipuBankV2.sol\":1904:1905  6 */\n      0x06\n        /* \"src/KipuBankV2.sol\":12320:12370  INTERNAL_DECIMALS - (tokenDecimals + feedDecimals) */\n      tag_233\n      swap2\n      swap1\n      tag_226\n      jump\t// in\n    tag_233:\n        /* \"src/KipuBankV2.sol\":12299:12370  decimalsAdjustment = INTERNAL_DECIMALS - (tokenDecimals + feedDecimals) */\n      0xff\n      and\n      swap1\n      pop\n        /* \"src/KipuBankV2.sol\":12411:12429  decimalsAdjustment */\n      dup1\n        /* \"src/KipuBankV2.sol\":12405:12407  10 */\n      0x0a\n        /* \"src/KipuBankV2.sol\":12405:12429  10 ** decimalsAdjustment */\n      tag_234\n      swap2\n      swap1\n      tag_228\n      jump\t// in\n    tag_234:\n        /* \"src/KipuBankV2.sol\":12392:12401  numerator */\n      dup3\n        /* \"src/KipuBankV2.sol\":12392:12430  numerator * (10 ** decimalsAdjustment) */\n      tag_235\n      swap2\n      swap1\n      tag_220\n      jump\t// in\n    tag_235:\n        /* \"src/KipuBankV2.sol\":12385:12430  return numerator * (10 ** decimalsAdjustment) */\n      swap7\n      pop\n      pop\n      pop\n      pop\n      pop\n      pop\n      pop\n        /* \"src/KipuBankV2.sol\":10887:12449  function _convertToUsd(address token, uint256 amount) internal view returns (uint256) {... */\n    tag_199:\n      swap3\n      swap2\n      pop\n      pop\n      jump\t// out\n        /* \"src/KipuBankV2.sol\":10415:10674  function _getFeed(address token) internal view returns (AggregatorV3Interface) {... */\n    tag_201:\n        /* \"src/KipuBankV2.sol\":10471:10492  AggregatorV3Interface */\n      0x00\n        /* \"src/KipuBankV2.sol\":10505:10531  AggregatorV3Interface feed */\n      0x00\n        /* \"src/KipuBankV2.sol\":10534:10544  priceFeeds */\n      0x02\n        /* \"src/KipuBankV2.sol\":10534:10551  priceFeeds[token] */\n      0x00\n        /* \"src/KipuBankV2.sol\":10545:10550  token */\n      dup5\n        /* \"src/KipuBankV2.sol\":10534:10551  priceFeeds[token] */\n      0xffffffffffffffffffffffffffffffffffffffff\n      and\n      0xffffffffffffffffffffffffffffffffffffffff\n      and\n      dup2\n      mstore\n      0x20\n      add\n      swap1\n      dup2\n      mstore\n      0x20\n      add\n      0x00\n      keccak256\n      0x00\n      swap1\n      sload\n      swap1\n      0x0100\n      exp\n      swap1\n      div\n      0xffffffffffffffffffffffffffffffffffffffff\n      and\n        /* \"src/KipuBankV2.sol\":10505:10551  AggregatorV3Interface feed = priceFeeds[token] */\n      swap1\n      pop\n        /* \"src/KipuBankV2.sol\":10591:10592  0 */\n      0x00\n        /* \"src/KipuBankV2.sol\":10566:10593  address(feed) == address(0) */\n      0xffffffffffffffffffffffffffffffffffffffff\n      and\n        /* \"src/KipuBankV2.sol\":10574:10578  feed */\n      dup2\n        /* \"src/KipuBankV2.sol\":10566:10593  address(feed) == address(0) */\n      0xffffffffffffffffffffffffffffffffffffffff\n      and\n      sub\n        /* \"src/KipuBankV2.sol\":10562:10645  if (address(feed) == address(0)) {... */\n      tag_237\n      jumpi\n        /* \"src/KipuBankV2.sol\":10617:10633  defaultPriceFeed */\n      immutable(\"0xecb3d63bca2dac2f15cfd948f18f200abecc477e6036fc1499f13da50bed1ba1\")\n        /* \"src/KipuBankV2.sol\":10610:10633  return defaultPriceFeed */\n      swap2\n      pop\n      pop\n      jump(tag_236)\n        /* \"src/KipuBankV2.sol\":10562:10645  if (address(feed) == address(0)) {... */\n    tag_237:\n        /* \"src/KipuBankV2.sol\":10662:10666  feed */\n      dup1\n        /* \"src/KipuBankV2.sol\":10655:10666  return feed */\n      swap2\n      pop\n      pop\n        /* \"src/KipuBankV2.sol\":10415:10674  function _getFeed(address token) internal view returns (AggregatorV3Interface) {... */\n    tag_236:\n      swap2\n      swap1\n      pop\n      jump\t// out\n        /* \"#utility.yul\":88:205   */\n    tag_239:\n        /* \"#utility.yul\":197:198   */\n      0x00\n        /* \"#utility.yul\":194:195   */\n      0x00\n        /* \"#utility.yul\":187:199   */\n      revert\n        /* \"#utility.yul\":334:460   */\n    tag_241:\n        /* \"#utility.yul\":371:378   */\n      0x00\n        /* \"#utility.yul\":411:453   */\n      0xffffffffffffffffffffffffffffffffffffffff\n        /* \"#utility.yul\":404:409   */\n      dup3\n        /* \"#utility.yul\":400:454   */\n      and\n        /* \"#utility.yul\":389:454   */\n      swap1\n      pop\n        /* \"#utility.yul\":334:460   */\n      swap2\n      swap1\n      pop\n      jump\t// out\n        /* \"#utility.yul\":466:562   */\n    tag_242:\n        /* \"#utility.yul\":503:510   */\n      0x00\n        /* \"#utility.yul\":532:556   */\n      tag_286\n        /* \"#utility.yul\":550:555   */\n      dup3\n        /* \"#utility.yul\":532:556   */\n      tag_241\n      jump\t// in\n    tag_286:\n        /* \"#utility.yul\":521:556   */\n      swap1\n      pop\n        /* \"#utility.yul\":466:562   */\n      swap2\n      swap1\n      pop\n      jump\t// out\n        /* \"#utility.yul\":568:690   */\n    tag_243:\n        /* \"#utility.yul\":641:665   */\n      tag_288\n        /* \"#utility.yul\":659:664   */\n      dup2\n        /* \"#utility.yul\":641:665   */\n      tag_242\n      jump\t// in\n    tag_288:\n        /* \"#utility.yul\":634:639   */\n      dup2\n        /* \"#utility.yul\":631:666   */\n      eq\n        /* \"#utility.yul\":621:684   */\n      tag_289\n      jumpi\n        /* \"#utility.yul\":680:681   */\n      0x00\n        /* \"#utility.yul\":677:678   */\n      0x00\n        /* \"#utility.yul\":670:682   */\n      revert\n        /* \"#utility.yul\":621:684   */\n    tag_289:\n        /* \"#utility.yul\":568:690   */\n      pop\n      jump\t// out\n        /* \"#utility.yul\":696:835   */\n    tag_244:\n        /* \"#utility.yul\":742:747   */\n      0x00\n        /* \"#utility.yul\":780:786   */\n      dup2\n        /* \"#utility.yul\":767:787   */\n      calldataload\n        /* \"#utility.yul\":758:787   */\n      swap1\n      pop\n        /* \"#utility.yul\":796:829   */\n      tag_291\n        /* \"#utility.yul\":823:828   */\n      dup2\n        /* \"#utility.yul\":796:829   */\n      tag_243\n      jump\t// in\n    tag_291:\n        /* \"#utility.yul\":696:835   */\n      swap3\n      swap2\n      pop\n      pop\n      jump\t// out\n        /* \"#utility.yul\":841:1170   */\n    tag_27:\n        /* \"#utility.yul\":900:906   */\n      0x00\n        /* \"#utility.yul\":949:951   */\n      0x20\n        /* \"#utility.yul\":937:946   */\n      dup3\n        /* \"#utility.yul\":928:935   */\n      dup5\n        /* \"#utility.yul\":924:947   */\n      sub\n        /* \"#utility.yul\":920:952   */\n      slt\n        /* \"#utility.yul\":917:1036   */\n      iszero\n      tag_293\n      jumpi\n        /* \"#utility.yul\":955:1034   */\n      tag_294\n      tag_239\n      jump\t// in\n    tag_294:\n        /* \"#utility.yul\":917:1036   */\n    tag_293:\n        /* \"#utility.yul\":1075:1076   */\n      0x00\n        /* \"#utility.yul\":1100:1153   */\n      tag_295\n        /* \"#utility.yul\":1145:1152   */\n      dup5\n        /* \"#utility.yul\":1136:1142   */\n      dup3\n        /* \"#utility.yul\":1125:1134   */\n      dup6\n        /* \"#utility.yul\":1121:1143   */\n      add\n        /* \"#utility.yul\":1100:1153   */\n      tag_244\n      jump\t// in\n    tag_295:\n        /* \"#utility.yul\":1090:1153   */\n      swap2\n      pop\n        /* \"#utility.yul\":1046:1163   */\n      pop\n        /* \"#utility.yul\":841:1170   */\n      swap3\n      swap2\n      pop\n      pop\n      jump\t// out\n        /* \"#utility.yul\":1176:1253   */\n    tag_245:\n        /* \"#utility.yul\":1213:1220   */\n      0x00\n        /* \"#utility.yul\":1242:1247   */\n      dup2\n        /* \"#utility.yul\":1231:1247   */\n      swap1\n      pop\n        /* \"#utility.yul\":1176:1253   */\n      swap2\n      swap1\n      pop\n      jump\t// out\n        /* \"#utility.yul\":1259:1377   */\n    tag_246:\n        /* \"#utility.yul\":1346:1370   */\n      tag_298\n        /* \"#utility.yul\":1364:1369   */\n      dup2\n        /* \"#utility.yul\":1346:1370   */\n      tag_245\n      jump\t// in\n    tag_298:\n        /* \"#utility.yul\":1341:1344   */\n      dup3\n        /* \"#utility.yul\":1334:1371   */\n      mstore\n        /* \"#utility.yul\":1259:1377   */\n      pop\n      pop\n      jump\t// out\n        /* \"#utility.yul\":1383:1605   */\n    tag_33:\n        /* \"#utility.yul\":1476:1480   */\n      0x00\n        /* \"#utility.yul\":1514:1516   */\n      0x20\n        /* \"#utility.yul\":1503:1512   */\n      dup3\n        /* \"#utility.yul\":1499:1517   */\n      add\n        /* \"#utility.yul\":1491:1517   */\n      swap1\n      pop\n        /* \"#utility.yul\":1527:1598   */\n      tag_300\n        /* \"#utility.yul\":1595:1596   */\n      0x00\n        /* \"#utility.yul\":1584:1593   */\n      dup4\n        /* \"#utility.yul\":1580:1597   */\n      add\n        /* \"#utility.yul\":1571:1577   */\n      dup5\n        /* \"#utility.yul\":1527:1598   */\n      tag_246\n      jump\t// in\n    tag_300:\n        /* \"#utility.yul\":1383:1605   */\n      swap3\n      swap2\n      pop\n      pop\n      jump\t// out\n        /* \"#utility.yul\":1611:2085   */\n    tag_37:\n        /* \"#utility.yul\":1679:1685   */\n      0x00\n        /* \"#utility.yul\":1687:1693   */\n      0x00\n        /* \"#utility.yul\":1736:1738   */\n      0x40\n        /* \"#utility.yul\":1724:1733   */\n      dup4\n        /* \"#utility.yul\":1715:1722   */\n      dup6\n        /* \"#utility.yul\":1711:1734   */\n      sub\n        /* \"#utility.yul\":1707:1739   */\n      slt\n        /* \"#utility.yul\":1704:1823   */\n      iszero\n      tag_302\n      jumpi\n        /* \"#utility.yul\":1742:1821   */\n      tag_303\n      tag_239\n      jump\t// in\n    tag_303:\n        /* \"#utility.yul\":1704:1823   */\n    tag_302:\n        /* \"#utility.yul\":1862:1863   */\n      0x00\n        /* \"#utility.yul\":1887:1940   */\n      tag_304\n        /* \"#utility.yul\":1932:1939   */\n      dup6\n        /* \"#utility.yul\":1923:1929   */\n      dup3\n        /* \"#utility.yul\":1912:1921   */\n      dup7\n        /* \"#utility.yul\":1908:1930   */\n      add\n        /* \"#utility.yul\":1887:1940   */\n      tag_244\n      jump\t// in\n    tag_304:\n        /* \"#utility.yul\":1877:1940   */\n      swap3\n      pop\n        /* \"#utility.yul\":1833:1950   */\n      pop\n        /* \"#utility.yul\":1989:1991   */\n      0x20\n        /* \"#utility.yul\":2015:2068   */\n      tag_305\n        /* \"#utility.yul\":2060:2067   */\n      dup6\n        /* \"#utility.yul\":2051:2057   */\n      dup3\n        /* \"#utility.yul\":2040:2049   */\n      dup7\n        /* \"#utility.yul\":2036:2058   */\n      add\n        /* \"#utility.yul\":2015:2068   */\n      tag_244\n      jump\t// in\n    tag_305:\n        /* \"#utility.yul\":2005:2068   */\n      swap2\n      pop\n        /* \"#utility.yul\":1960:2078   */\n      pop\n        /* \"#utility.yul\":1611:2085   */\n      swap3\n      pop\n      swap3\n      swap1\n      pop\n      jump\t// out\n        /* \"#utility.yul\":2091:2209   */\n    tag_247:\n        /* \"#utility.yul\":2178:2202   */\n      tag_307\n        /* \"#utility.yul\":2196:2201   */\n      dup2\n        /* \"#utility.yul\":2178:2202   */\n      tag_242\n      jump\t// in\n    tag_307:\n        /* \"#utility.yul\":2173:2176   */\n      dup3\n        /* \"#utility.yul\":2166:2203   */\n      mstore\n        /* \"#utility.yul\":2091:2209   */\n      pop\n      pop\n      jump\t// out\n        /* \"#utility.yul\":2215:2437   */\n    tag_43:\n        /* \"#utility.yul\":2308:2312   */\n      0x00\n        /* \"#utility.yul\":2346:2348   */\n      0x20\n        /* \"#utility.yul\":2335:2344   */\n      dup3\n        /* \"#utility.yul\":2331:2349   */\n      add\n        /* \"#utility.yul\":2323:2349   */\n      swap1\n      pop\n        /* \"#utility.yul\":2359:2430   */\n      tag_309\n        /* \"#utility.yul\":2427:2428   */\n      0x00\n        /* \"#utility.yul\":2416:2425   */\n      dup4\n        /* \"#utility.yul\":2412:2429   */\n      add\n        /* \"#utility.yul\":2403:2409   */\n      dup5\n        /* \"#utility.yul\":2359:2430   */\n      tag_247\n      jump\t// in\n    tag_309:\n        /* \"#utility.yul\":2215:2437   */\n      swap3\n      swap2\n      pop\n      pop\n      jump\t// out\n        /* \"#utility.yul\":2443:2565   */\n    tag_248:\n        /* \"#utility.yul\":2516:2540   */\n      tag_311\n        /* \"#utility.yul\":2534:2539   */\n      dup2\n        /* \"#utility.yul\":2516:2540   */\n      tag_245\n      jump\t// in\n    tag_311:\n        /* \"#utility.yul\":2509:2514   */\n      dup2\n        /* \"#utility.yul\":2506:2541   */\n      eq\n        /* \"#utility.yul\":2496:2559   */\n      tag_312\n      jumpi\n        /* \"#utility.yul\":2555:2556   */\n      0x00\n        /* \"#utility.yul\":2552:2553   */\n      0x00\n        /* \"#utility.yul\":2545:2557   */\n      revert\n        /* \"#utility.yul\":2496:2559   */\n    tag_312:\n        /* \"#utility.yul\":2443:2565   */\n      pop\n      jump\t// out\n        /* \"#utility.yul\":2571:2710   */\n    tag_249:\n        /* \"#utility.yul\":2617:2622   */\n      0x00\n        /* \"#utility.yul\":2655:2661   */\n      dup2\n        /* \"#utility.yul\":2642:2662   */\n      calldataload\n        /* \"#utility.yul\":2633:2662   */\n      swap1\n      pop\n        /* \"#utility.yul\":2671:2704   */\n      tag_314\n        /* \"#utility.yul\":2698:2703   */\n      dup2\n        /* \"#utility.yul\":2671:2704   */\n      tag_248\n      jump\t// in\n    tag_314:\n        /* \"#utility.yul\":2571:2710   */\n      swap3\n      swap2\n      pop\n      pop\n      jump\t// out\n        /* \"#utility.yul\":2716:3190   */\n    tag_47:\n        /* \"#utility.yul\":2784:2790   */\n      0x00\n        /* \"#utility.yul\":2792:2798   */\n      0x00\n        /* \"#utility.yul\":2841:2843   */\n      0x40\n        /* \"#utility.yul\":2829:2838   */\n      dup4\n        /* \"#utility.yul\":2820:2827   */\n      dup6\n        /* \"#utility.yul\":2816:2839   */\n      sub\n        /* \"#utility.yul\":2812:2844   */\n      slt\n        /* \"#utility.yul\":2809:2928   */\n      iszero\n      tag_316\n      jumpi\n        /* \"#utility.yul\":2847:2926   */\n      tag_317\n      tag_239\n      jump\t// in\n    tag_317:\n        /* \"#utility.yul\":2809:2928   */\n    tag_316:\n        /* \"#utility.yul\":2967:2968   */\n      0x00\n        /* \"#utility.yul\":2992:3045   */\n      tag_318\n        /* \"#utility.yul\":3037:3044   */\n      dup6\n        /* \"#utility.yul\":3028:3034   */\n      dup3\n        /* \"#utility.yul\":3017:3026   */\n      dup7\n        /* \"#utility.yul\":3013:3035   */\n      add\n        /* \"#utility.yul\":2992:3045   */\n      tag_244\n      jump\t// in\n    tag_318:\n        /* \"#utility.yul\":2982:3045   */\n      swap3\n      pop\n        /* \"#utility.yul\":2938:3055   */\n      pop\n        /* \"#utility.yul\":3094:3096   */\n      0x20\n        /* \"#utility.yul\":3120:3173   */\n      tag_319\n        /* \"#utility.yul\":3165:3172   */\n      dup6\n        /* \"#utility.yul\":3156:3162   */\n      dup3\n        /* \"#utility.yul\":3145:3154   */\n      dup7\n        /* \"#utility.yul\":3141:3163   */\n      add\n        /* \"#utility.yul\":3120:3173   */\n      tag_249\n      jump\t// in\n    tag_319:\n        /* \"#utility.yul\":3110:3173   */\n      swap2\n      pop\n        /* \"#utility.yul\":3065:3183   */\n      pop\n        /* \"#utility.yul\":2716:3190   */\n      swap3\n      pop\n      swap3\n      swap1\n      pop\n      jump\t// out\n        /* \"#utility.yul\":3196:3256   */\n    tag_250:\n        /* \"#utility.yul\":3224:3227   */\n      0x00\n        /* \"#utility.yul\":3245:3250   */\n      dup2\n        /* \"#utility.yul\":3238:3250   */\n      swap1\n      pop\n        /* \"#utility.yul\":3196:3256   */\n      swap2\n      swap1\n      pop\n      jump\t// out\n        /* \"#utility.yul\":3262:3404   */\n    tag_251:\n        /* \"#utility.yul\":3312:3321   */\n      0x00\n        /* \"#utility.yul\":3345:3398   */\n      tag_322\n        /* \"#utility.yul\":3363:3397   */\n      tag_323\n        /* \"#utility.yul\":3372:3396   */\n      tag_324\n        /* \"#utility.yul\":3390:3395   */\n      dup5\n        /* \"#utility.yul\":3372:3396   */\n      tag_241\n      jump\t// in\n    tag_324:\n        /* \"#utility.yul\":3363:3397   */\n      tag_250\n      jump\t// in\n    tag_323:\n        /* \"#utility.yul\":3345:3398   */\n      tag_241\n      jump\t// in\n    tag_322:\n        /* \"#utility.yul\":3332:3398   */\n      swap1\n      pop\n        /* \"#utility.yul\":3262:3404   */\n      swap2\n      swap1\n      pop\n      jump\t// out\n        /* \"#utility.yul\":3410:3536   */\n    tag_252:\n        /* \"#utility.yul\":3460:3469   */\n      0x00\n        /* \"#utility.yul\":3493:3530   */\n      tag_326\n        /* \"#utility.yul\":3524:3529   */\n      dup3\n        /* \"#utility.yul\":3493:3530   */\n      tag_251\n      jump\t// in\n    tag_326:\n        /* \"#utility.yul\":3480:3530   */\n      swap1\n      pop\n        /* \"#utility.yul\":3410:3536   */\n      swap2\n      swap1\n      pop\n      jump\t// out\n        /* \"#utility.yul\":3542:3696   */\n    tag_253:\n        /* \"#utility.yul\":3620:3629   */\n      0x00\n        /* \"#utility.yul\":3653:3690   */\n      tag_328\n        /* \"#utility.yul\":3684:3689   */\n      dup3\n        /* \"#utility.yul\":3653:3690   */\n      tag_252\n      jump\t// in\n    tag_328:\n        /* \"#utility.yul\":3640:3690   */\n      swap1\n      pop\n        /* \"#utility.yul\":3542:3696   */\n      swap2\n      swap1\n      pop\n      jump\t// out\n        /* \"#utility.yul\":3702:3889   */\n    tag_254:\n        /* \"#utility.yul\":3817:3882   */\n      tag_330\n        /* \"#utility.yul\":3876:3881   */\n      dup2\n        /* \"#utility.yul\":3817:3882   */\n      tag_253\n      jump\t// in\n    tag_330:\n        /* \"#utility.yul\":3812:3815   */\n      dup3\n        /* \"#utility.yul\":3805:3883   */\n      mstore\n        /* \"#utility.yul\":3702:3889   */\n      pop\n      pop\n      jump\t// out\n        /* \"#utility.yul\":3895:4173   */\n    tag_54:\n        /* \"#utility.yul\":4016:4020   */\n      0x00\n        /* \"#utility.yul\":4054:4056   */\n      0x20\n        /* \"#utility.yul\":4043:4052   */\n      dup3\n        /* \"#utility.yul\":4039:4057   */\n      add\n        /* \"#utility.yul\":4031:4057   */\n      swap1\n      pop\n        /* \"#utility.yul\":4067:4166   */\n      tag_332\n        /* \"#utility.yul\":4163:4164   */\n      0x00\n        /* \"#utility.yul\":4152:4161   */\n      dup4\n        /* \"#utility.yul\":4148:4165   */\n      add\n        /* \"#utility.yul\":4139:4145   */\n      dup5\n        /* \"#utility.yul\":4067:4166   */\n      tag_254\n      jump\t// in\n    tag_332:\n        /* \"#utility.yul\":3895:4173   */\n      swap3\n      swap2\n      pop\n      pop\n      jump\t// out\n        /* \"#utility.yul\":4179:4265   */\n    tag_255:\n        /* \"#utility.yul\":4214:4221   */\n      0x00\n        /* \"#utility.yul\":4254:4258   */\n      0xff\n        /* \"#utility.yul\":4247:4252   */\n      dup3\n        /* \"#utility.yul\":4243:4259   */\n      and\n        /* \"#utility.yul\":4232:4259   */\n      swap1\n      pop\n        /* \"#utility.yul\":4179:4265   */\n      swap2\n      swap1\n      pop\n      jump\t// out\n        /* \"#utility.yul\":4271:4383   */\n    tag_256:\n        /* \"#utility.yul\":4354:4376   */\n      tag_335\n        /* \"#utility.yul\":4370:4375   */\n      dup2\n        /* \"#utility.yul\":4354:4376   */\n      tag_255\n      jump\t// in\n    tag_335:\n        /* \"#utility.yul\":4349:4352   */\n      dup3\n        /* \"#utility.yul\":4342:4377   */\n      mstore\n        /* \"#utility.yul\":4271:4383   */\n      pop\n      pop\n      jump\t// out\n        /* \"#utility.yul\":4389:4603   */\n    tag_71:\n        /* \"#utility.yul\":4478:4482   */\n      0x00\n        /* \"#utility.yul\":4516:4518   */\n      0x20\n        /* \"#utility.yul\":4505:4514   */\n      dup3\n        /* \"#utility.yul\":4501:4519   */\n      add\n        /* \"#utility.yul\":4493:4519   */\n      swap1\n      pop\n        /* \"#utility.yul\":4529:4596   */\n      tag_337\n        /* \"#utility.yul\":4593:4594   */\n      0x00\n        /* \"#utility.yul\":4582:4591   */\n      dup4\n        /* \"#utility.yul\":4578:4595   */\n      add\n        /* \"#utility.yul\":4569:4575   */\n      dup5\n        /* \"#utility.yul\":4529:4596   */\n      tag_256\n      jump\t// in\n    tag_337:\n        /* \"#utility.yul\":4389:4603   */\n      swap3\n      swap2\n      pop\n      pop\n      jump\t// out\n        /* \"#utility.yul\":4609:4938   */\n    tag_87:\n        /* \"#utility.yul\":4668:4674   */\n      0x00\n        /* \"#utility.yul\":4717:4719   */\n      0x20\n        /* \"#utility.yul\":4705:4714   */\n      dup3\n        /* \"#utility.yul\":4696:4703   */\n      dup5\n        /* \"#utility.yul\":4692:4715   */\n      sub\n        /* \"#utility.yul\":4688:4720   */\n      slt\n        /* \"#utility.yul\":4685:4804   */\n      iszero\n      tag_339\n      jumpi\n        /* \"#utility.yul\":4723:4802   */\n      tag_340\n      tag_239\n      jump\t// in\n    tag_340:\n        /* \"#utility.yul\":4685:4804   */\n    tag_339:\n        /* \"#utility.yul\":4843:4844   */\n      0x00\n        /* \"#utility.yul\":4868:4921   */\n      tag_341\n        /* \"#utility.yul\":4913:4920   */\n      dup5\n        /* \"#utility.yul\":4904:4910   */\n      dup3\n        /* \"#utility.yul\":4893:4902   */\n      dup6\n        /* \"#utility.yul\":4889:4911   */\n      add\n        /* \"#utility.yul\":4868:4921   */\n      tag_249\n      jump\t// in\n    tag_341:\n        /* \"#utility.yul\":4858:4921   */\n      swap2\n      pop\n        /* \"#utility.yul\":4814:4931   */\n      pop\n        /* \"#utility.yul\":4609:4938   */\n      swap3\n      swap2\n      pop\n      pop\n      jump\t// out\n        /* \"#utility.yul\":4944:5113   */\n    tag_257:\n        /* \"#utility.yul\":5028:5039   */\n      0x00\n        /* \"#utility.yul\":5062:5068   */\n      dup3\n        /* \"#utility.yul\":5057:5060   */\n      dup3\n        /* \"#utility.yul\":5050:5069   */\n      mstore\n        /* \"#utility.yul\":5102:5106   */\n      0x20\n        /* \"#utility.yul\":5097:5100   */\n      dup3\n        /* \"#utility.yul\":5093:5107   */\n      add\n        /* \"#utility.yul\":5078:5107   */\n      swap1\n      pop\n        /* \"#utility.yul\":4944:5113   */\n      swap3\n      swap2\n      pop\n      pop\n      jump\t// out\n        /* \"#utility.yul\":5119:5279   */\n    tag_258:\n        /* \"#utility.yul\":5259:5271   */\n      0x7a65726f206f776e657200000000000000000000000000000000000000000000\n        /* \"#utility.yul\":5255:5256   */\n      0x00\n        /* \"#utility.yul\":5247:5253   */\n      dup3\n        /* \"#utility.yul\":5243:5257   */\n      add\n        /* \"#utility.yul\":5236:5272   */\n      mstore\n        /* \"#utility.yul\":5119:5279   */\n      pop\n      jump\t// out\n        /* \"#utility.yul\":5285:5651   */\n    tag_259:\n        /* \"#utility.yul\":5427:5430   */\n      0x00\n        /* \"#utility.yul\":5448:5515   */\n      tag_345\n        /* \"#utility.yul\":5512:5514   */\n      0x0a\n        /* \"#utility.yul\":5507:5510   */\n      dup4\n        /* \"#utility.yul\":5448:5515   */\n      tag_257\n      jump\t// in\n    tag_345:\n        /* \"#utility.yul\":5441:5515   */\n      swap2\n      pop\n        /* \"#utility.yul\":5524:5617   */\n      tag_346\n        /* \"#utility.yul\":5613:5616   */\n      dup3\n        /* \"#utility.yul\":5524:5617   */\n      tag_258\n      jump\t// in\n    tag_346:\n        /* \"#utility.yul\":5642:5644   */\n      0x20\n        /* \"#utility.yul\":5637:5640   */\n      dup3\n        /* \"#utility.yul\":5633:5645   */\n      add\n        /* \"#utility.yul\":5626:5645   */\n      swap1\n      pop\n        /* \"#utility.yul\":5285:5651   */\n      swap2\n      swap1\n      pop\n      jump\t// out\n        /* \"#utility.yul\":5657:6076   */\n    tag_101:\n        /* \"#utility.yul\":5823:5827   */\n      0x00\n        /* \"#utility.yul\":5861:5863   */\n      0x20\n        /* \"#utility.yul\":5850:5859   */\n      dup3\n        /* \"#utility.yul\":5846:5864   */\n      add\n        /* \"#utility.yul\":5838:5864   */\n      swap1\n      pop\n        /* \"#utility.yul\":5910:5919   */\n      dup2\n        /* \"#utility.yul\":5904:5908   */\n      dup2\n        /* \"#utility.yul\":5900:5920   */\n      sub\n        /* \"#utility.yul\":5896:5897   */\n      0x00\n        /* \"#utility.yul\":5885:5894   */\n      dup4\n        /* \"#utility.yul\":5881:5898   */\n      add\n        /* \"#utility.yul\":5874:5921   */\n      mstore\n        /* \"#utility.yul\":5938:6069   */\n      tag_348\n        /* \"#utility.yul\":6064:6068   */\n      dup2\n        /* \"#utility.yul\":5938:6069   */\n      tag_259\n      jump\t// in\n    tag_348:\n        /* \"#utility.yul\":5930:6069   */\n      swap1\n      pop\n        /* \"#utility.yul\":5657:6076   */\n      swap2\n      swap1\n      pop\n      jump\t// out\n        /* \"#utility.yul\":6082:6524   */\n    tag_113:\n        /* \"#utility.yul\":6231:6235   */\n      0x00\n        /* \"#utility.yul\":6269:6271   */\n      0x60\n        /* \"#utility.yul\":6258:6267   */\n      dup3\n        /* \"#utility.yul\":6254:6272   */\n      add\n        /* \"#utility.yul\":6246:6272   */\n      swap1\n      pop\n        /* \"#utility.yul\":6282:6353   */\n      tag_350\n        /* \"#utility.yul\":6350:6351   */\n      0x00\n        /* \"#utility.yul\":6339:6348   */\n      dup4\n        /* \"#utility.yul\":6335:6352   */\n      add\n        /* \"#utility.yul\":6326:6332   */\n      dup7\n        /* \"#utility.yul\":6282:6353   */\n      tag_247\n      jump\t// in\n    tag_350:\n        /* \"#utility.yul\":6363:6435   */\n      tag_351\n        /* \"#utility.yul\":6431:6433   */\n      0x20\n        /* \"#utility.yul\":6420:6429   */\n      dup4\n        /* \"#utility.yul\":6416:6434   */\n      add\n        /* \"#utility.yul\":6407:6413   */\n      dup6\n        /* \"#utility.yul\":6363:6435   */\n      tag_247\n      jump\t// in\n    tag_351:\n        /* \"#utility.yul\":6445:6517   */\n      tag_352\n        /* \"#utility.yul\":6513:6515   */\n      0x40\n        /* \"#utility.yul\":6502:6511   */\n      dup4\n        /* \"#utility.yul\":6498:6516   */\n      add\n        /* \"#utility.yul\":6489:6495   */\n      dup5\n        /* \"#utility.yul\":6445:6517   */\n      tag_246\n      jump\t// in\n    tag_352:\n        /* \"#utility.yul\":6082:6524   */\n      swap5\n      swap4\n      pop\n      pop\n      pop\n      pop\n      jump\t// out\n        /* \"#utility.yul\":6530:6620   */\n    tag_260:\n        /* \"#utility.yul\":6564:6571   */\n      0x00\n        /* \"#utility.yul\":6607:6612   */\n      dup2\n        /* \"#utility.yul\":6600:6613   */\n      iszero\n        /* \"#utility.yul\":6593:6614   */\n      iszero\n        /* \"#utility.yul\":6582:6614   */\n      swap1\n      pop\n        /* \"#utility.yul\":6530:6620   */\n      swap2\n      swap1\n      pop\n      jump\t// out\n        /* \"#utility.yul\":6626:6742   */\n    tag_261:\n        /* \"#utility.yul\":6696:6717   */\n      tag_355\n        /* \"#utility.yul\":6711:6716   */\n      dup2\n        /* \"#utility.yul\":6696:6717   */\n      tag_260\n      jump\t// in\n    tag_355:\n        /* \"#utility.yul\":6689:6694   */\n      dup2\n        /* \"#utility.yul\":6686:6718   */\n      eq\n        /* \"#utility.yul\":6676:6736   */\n      tag_356\n      jumpi\n        /* \"#utility.yul\":6732:6733   */\n      0x00\n        /* \"#utility.yul\":6729:6730   */\n      0x00\n        /* \"#utility.yul\":6722:6734   */\n      revert\n        /* \"#utility.yul\":6676:6736   */\n    tag_356:\n        /* \"#utility.yul\":6626:6742   */\n      pop\n      jump\t// out\n        /* \"#utility.yul\":6748:6885   */\n    tag_262:\n        /* \"#utility.yul\":6802:6807   */\n      0x00\n        /* \"#utility.yul\":6833:6839   */\n      dup2\n        /* \"#utility.yul\":6827:6840   */\n      mload\n        /* \"#utility.yul\":6818:6840   */\n      swap1\n      pop\n        /* \"#utility.yul\":6849:6879   */\n      tag_358\n        /* \"#utility.yul\":6873:6878   */\n      dup2\n        /* \"#utility.yul\":6849:6879   */\n      tag_261\n      jump\t// in\n    tag_358:\n        /* \"#utility.yul\":6748:6885   */\n      swap3\n      swap2\n      pop\n      pop\n      jump\t// out\n        /* \"#utility.yul\":6891:7236   */\n    tag_117:\n        /* \"#utility.yul\":6958:6964   */\n      0x00\n        /* \"#utility.yul\":7007:7009   */\n      0x20\n        /* \"#utility.yul\":6995:7004   */\n      dup3\n        /* \"#utility.yul\":6986:6993   */\n      dup5\n        /* \"#utility.yul\":6982:7005   */\n      sub\n        /* \"#utility.yul\":6978:7010   */\n      slt\n        /* \"#utility.yul\":6975:7094   */\n      iszero\n      tag_360\n      jumpi\n        /* \"#utility.yul\":7013:7092   */\n      tag_361\n      tag_239\n      jump\t// in\n    tag_361:\n        /* \"#utility.yul\":6975:7094   */\n    tag_360:\n        /* \"#utility.yul\":7133:7134   */\n      0x00\n        /* \"#utility.yul\":7158:7219   */\n      tag_362\n        /* \"#utility.yul\":7211:7218   */\n      dup5\n        /* \"#utility.yul\":7202:7208   */\n      dup3\n        /* \"#utility.yul\":7191:7200   */\n      dup6\n        /* \"#utility.yul\":7187:7209   */\n      add\n        /* \"#utility.yul\":7158:7219   */\n      tag_262\n      jump\t// in\n    tag_362:\n        /* \"#utility.yul\":7148:7219   */\n      swap2\n      pop\n        /* \"#utility.yul\":7104:7229   */\n      pop\n        /* \"#utility.yul\":6891:7236   */\n      swap3\n      swap2\n      pop\n      pop\n      jump\t// out\n        /* \"#utility.yul\":7242:7422   */\n    tag_263:\n        /* \"#utility.yul\":7290:7367   */\n      0x4e487b7100000000000000000000000000000000000000000000000000000000\n        /* \"#utility.yul\":7287:7288   */\n      0x00\n        /* \"#utility.yul\":7280:7368   */\n      mstore\n        /* \"#utility.yul\":7387:7391   */\n      0x11\n        /* \"#utility.yul\":7384:7385   */\n      0x04\n        /* \"#utility.yul\":7377:7392   */\n      mstore\n        /* \"#utility.yul\":7411:7415   */\n      0x24\n        /* \"#utility.yul\":7408:7409   */\n      0x00\n        /* \"#utility.yul\":7401:7416   */\n      revert\n        /* \"#utility.yul\":7428:7619   */\n    tag_123:\n        /* \"#utility.yul\":7468:7471   */\n      0x00\n        /* \"#utility.yul\":7487:7507   */\n      tag_365\n        /* \"#utility.yul\":7505:7506   */\n      dup3\n        /* \"#utility.yul\":7487:7507   */\n      tag_245\n      jump\t// in\n    tag_365:\n        /* \"#utility.yul\":7482:7507   */\n      swap2\n      pop\n        /* \"#utility.yul\":7521:7541   */\n      tag_366\n        /* \"#utility.yul\":7539:7540   */\n      dup4\n        /* \"#utility.yul\":7521:7541   */\n      tag_245\n      jump\t// in\n    tag_366:\n        /* \"#utility.yul\":7516:7541   */\n      swap3\n      pop\n        /* \"#utility.yul\":7564:7565   */\n      dup3\n        /* \"#utility.yul\":7561:7562   */\n      dup3\n        /* \"#utility.yul\":7557:7566   */\n      add\n        /* \"#utility.yul\":7550:7566   */\n      swap1\n      pop\n        /* \"#utility.yul\":7585:7588   */\n      dup1\n        /* \"#utility.yul\":7582:7583   */\n      dup3\n        /* \"#utility.yul\":7579:7589   */\n      gt\n        /* \"#utility.yul\":7576:7612   */\n      iszero\n      tag_367\n      jumpi\n        /* \"#utility.yul\":7592:7610   */\n      tag_368\n      tag_263\n      jump\t// in\n    tag_368:\n        /* \"#utility.yul\":7576:7612   */\n    tag_367:\n        /* \"#utility.yul\":7428:7619   */\n      swap3\n      swap2\n      pop\n      pop\n      jump\t// out\n        /* \"#utility.yul\":7625:7957   */\n    tag_126:\n        /* \"#utility.yul\":7746:7750   */\n      0x00\n        /* \"#utility.yul\":7784:7786   */\n      0x40\n        /* \"#utility.yul\":7773:7782   */\n      dup3\n        /* \"#utility.yul\":7769:7787   */\n      add\n        /* \"#utility.yul\":7761:7787   */\n      swap1\n      pop\n        /* \"#utility.yul\":7797:7868   */\n      tag_370\n        /* \"#utility.yul\":7865:7866   */\n      0x00\n        /* \"#utility.yul\":7854:7863   */\n      dup4\n        /* \"#utility.yul\":7850:7867   */\n      add\n        /* \"#utility.yul\":7841:7847   */\n      dup6\n        /* \"#utility.yul\":7797:7868   */\n      tag_247\n      jump\t// in\n    tag_370:\n        /* \"#utility.yul\":7878:7950   */\n      tag_371\n        /* \"#utility.yul\":7946:7948   */\n      0x20\n        /* \"#utility.yul\":7935:7944   */\n      dup4\n        /* \"#utility.yul\":7931:7949   */\n      add\n        /* \"#utility.yul\":7922:7928   */\n      dup5\n        /* \"#utility.yul\":7878:7950   */\n      tag_246\n      jump\t// in\n    tag_371:\n        /* \"#utility.yul\":7625:7957   */\n      swap4\n      swap3\n      pop\n      pop\n      pop\n      jump\t// out\n        /* \"#utility.yul\":7963:8405   */\n    tag_131:\n        /* \"#utility.yul\":8112:8116   */\n      0x00\n        /* \"#utility.yul\":8150:8152   */\n      0x60\n        /* \"#utility.yul\":8139:8148   */\n      dup3\n        /* \"#utility.yul\":8135:8153   */\n      add\n        /* \"#utility.yul\":8127:8153   */\n      swap1\n      pop\n        /* \"#utility.yul\":8163:8234   */\n      tag_373\n        /* \"#utility.yul\":8231:8232   */\n      0x00\n        /* \"#utility.yul\":8220:8229   */\n      dup4\n        /* \"#utility.yul\":8216:8233   */\n      add\n        /* \"#utility.yul\":8207:8213   */\n      dup7\n        /* \"#utility.yul\":8163:8234   */\n      tag_246\n      jump\t// in\n    tag_373:\n        /* \"#utility.yul\":8244:8316   */\n      tag_374\n        /* \"#utility.yul\":8312:8314   */\n      0x20\n        /* \"#utility.yul\":8301:8310   */\n      dup4\n        /* \"#utility.yul\":8297:8315   */\n      add\n        /* \"#utility.yul\":8288:8294   */\n      dup6\n        /* \"#utility.yul\":8244:8316   */\n      tag_246\n      jump\t// in\n    tag_374:\n        /* \"#utility.yul\":8326:8398   */\n      tag_375\n        /* \"#utility.yul\":8394:8396   */\n      0x40\n        /* \"#utility.yul\":8383:8392   */\n      dup4\n        /* \"#utility.yul\":8379:8397   */\n      add\n        /* \"#utility.yul\":8370:8376   */\n      dup5\n        /* \"#utility.yul\":8326:8398   */\n      tag_246\n      jump\t// in\n    tag_375:\n        /* \"#utility.yul\":7963:8405   */\n      swap5\n      swap4\n      pop\n      pop\n      pop\n      pop\n      jump\t// out\n        /* \"#utility.yul\":8411:8644   */\n    tag_134:\n        /* \"#utility.yul\":8450:8453   */\n      0x00\n        /* \"#utility.yul\":8473:8497   */\n      tag_377\n        /* \"#utility.yul\":8491:8496   */\n      dup3\n        /* \"#utility.yul\":8473:8497   */\n      tag_245\n      jump\t// in\n    tag_377:\n        /* \"#utility.yul\":8464:8497   */\n      swap2\n      pop\n        /* \"#utility.yul\":8519:8585   */\n      0xffffffffffffffffffffffffffffffffffffffffffffffffffffffffffffffff\n        /* \"#utility.yul\":8512:8517   */\n      dup3\n        /* \"#utility.yul\":8509:8586   */\n      sub\n        /* \"#utility.yul\":8506:8609   */\n      tag_378\n      jumpi\n        /* \"#utility.yul\":8589:8607   */\n      tag_379\n      tag_263\n      jump\t// in\n    tag_379:\n        /* \"#utility.yul\":8506:8609   */\n    tag_378:\n        /* \"#utility.yul\":8636:8637   */\n      0x01\n        /* \"#utility.yul\":8629:8634   */\n      dup3\n        /* \"#utility.yul\":8625:8638   */\n      add\n        /* \"#utility.yul\":8618:8638   */\n      swap1\n      pop\n        /* \"#utility.yul\":8411:8644   */\n      swap2\n      swap1\n      pop\n      jump\t// out\n        /* \"#utility.yul\":8650:8982   */\n    tag_137:\n        /* \"#utility.yul\":8771:8775   */\n      0x00\n        /* \"#utility.yul\":8809:8811   */\n      0x40\n        /* \"#utility.yul\":8798:8807   */\n      dup3\n        /* \"#utility.yul\":8794:8812   */\n      add\n        /* \"#utility.yul\":8786:8812   */\n      swap1\n      pop\n        /* \"#utility.yul\":8822:8893   */\n      tag_381\n        /* \"#utility.yul\":8890:8891   */\n      0x00\n        /* \"#utility.yul\":8879:8888   */\n      dup4\n        /* \"#utility.yul\":8875:8892   */\n      add\n        /* \"#utility.yul\":8866:8872   */\n      dup6\n        /* \"#utility.yul\":8822:8893   */\n      tag_246\n      jump\t// in\n    tag_381:\n        /* \"#utility.yul\":8903:8975   */\n      tag_382\n        /* \"#utility.yul\":8971:8973   */\n      0x20\n        /* \"#utility.yul\":8960:8969   */\n      dup4\n        /* \"#utility.yul\":8956:8974   */\n      add\n        /* \"#utility.yul\":8947:8953   */\n      dup5\n        /* \"#utility.yul\":8903:8975   */\n      tag_246\n      jump\t// in\n    tag_382:\n        /* \"#utility.yul\":8650:8982   */\n      swap4\n      swap3\n      pop\n      pop\n      pop\n      jump\t// out\n        /* \"#utility.yul\":8988:9430   */\n    tag_145:\n        /* \"#utility.yul\":9137:9141   */\n      0x00\n        /* \"#utility.yul\":9175:9177   */\n      0x60\n        /* \"#utility.yul\":9164:9173   */\n      dup3\n        /* \"#utility.yul\":9160:9178   */\n      add\n        /* \"#utility.yul\":9152:9178   */\n      swap1\n      pop\n        /* \"#utility.yul\":9188:9259   */\n      tag_384\n        /* \"#utility.yul\":9256:9257   */\n      0x00\n        /* \"#utility.yul\":9245:9254   */\n      dup4\n        /* \"#utility.yul\":9241:9258   */\n      add\n        /* \"#utility.yul\":9232:9238   */\n      dup7\n        /* \"#utility.yul\":9188:9259   */\n      tag_247\n      jump\t// in\n    tag_384:\n        /* \"#utility.yul\":9269:9341   */\n      tag_385\n        /* \"#utility.yul\":9337:9339   */\n      0x20\n        /* \"#utility.yul\":9326:9335   */\n      dup4\n        /* \"#utility.yul\":9322:9340   */\n      add\n        /* \"#utility.yul\":9313:9319   */\n      dup6\n        /* \"#utility.yul\":9269:9341   */\n      tag_246\n      jump\t// in\n    tag_385:\n        /* \"#utility.yul\":9351:9423   */\n      tag_386\n        /* \"#utility.yul\":9419:9421   */\n      0x40\n        /* \"#utility.yul\":9408:9417   */\n      dup4\n        /* \"#utility.yul\":9404:9422   */\n      add\n        /* \"#utility.yul\":9395:9401   */\n      dup5\n        /* \"#utility.yul\":9351:9423   */\n      tag_246\n      jump\t// in\n    tag_386:\n        /* \"#utility.yul\":8988:9430   */\n      swap5\n      swap4\n      pop\n      pop\n      pop\n      pop\n      jump\t// out\n        /* \"#utility.yul\":9436:9630   */\n    tag_150:\n        /* \"#utility.yul\":9476:9480   */\n      0x00\n        /* \"#utility.yul\":9496:9516   */\n      tag_388\n        /* \"#utility.yul\":9514:9515   */\n      dup3\n        /* \"#utility.yul\":9496:9516   */\n      tag_245\n      jump\t// in\n    tag_388:\n        /* \"#utility.yul\":9491:9516   */\n      swap2\n      pop\n        /* \"#utility.yul\":9530:9550   */\n      tag_389\n        /* \"#utility.yul\":9548:9549   */\n      dup4\n        /* \"#utility.yul\":9530:9550   */\n      tag_245\n      jump\t// in\n    tag_389:\n        /* \"#utility.yul\":9525:9550   */\n      swap3\n      pop\n        /* \"#utility.yul\":9574:9575   */\n      dup3\n        /* \"#utility.yul\":9571:9572   */\n      dup3\n        /* \"#utility.yul\":9567:9576   */\n      sub\n        /* \"#utility.yul\":9559:9576   */\n      swap1\n      pop\n        /* \"#utility.yul\":9598:9599   */\n      dup2\n        /* \"#utility.yul\":9592:9596   */\n      dup2\n        /* \"#utility.yul\":9589:9600   */\n      gt\n        /* \"#utility.yul\":9586:9623   */\n      iszero\n      tag_390\n      jumpi\n        /* \"#utility.yul\":9603:9621   */\n      tag_391\n      tag_263\n      jump\t// in\n    tag_391:\n        /* \"#utility.yul\":9586:9623   */\n    tag_390:\n        /* \"#utility.yul\":9436:9630   */\n      swap3\n      swap2\n      pop\n      pop\n      jump\t// out\n        /* \"#utility.yul\":9636:9783   */\n    tag_264:\n        /* \"#utility.yul\":9737:9748   */\n      0x00\n        /* \"#utility.yul\":9774:9777   */\n      dup2\n        /* \"#utility.yul\":9759:9777   */\n      swap1\n      pop\n        /* \"#utility.yul\":9636:9783   */\n      swap3\n      swap2\n      pop\n      pop\n      jump\t// out\n        /* \"#utility.yul\":9789:9903   */\n    tag_265:\n      pop\n      jump\t// out\n        /* \"#utility.yul\":9909:10307   */\n    tag_266:\n        /* \"#utility.yul\":10068:10071   */\n      0x00\n        /* \"#utility.yul\":10089:10172   */\n      tag_395\n        /* \"#utility.yul\":10170:10171   */\n      0x00\n        /* \"#utility.yul\":10165:10168   */\n      dup4\n        /* \"#utility.yul\":10089:10172   */\n      tag_264\n      jump\t// in\n    tag_395:\n        /* \"#utility.yul\":10082:10172   */\n      swap2\n      pop\n        /* \"#utility.yul\":10181:10274   */\n      tag_396\n        /* \"#utility.yul\":10270:10273   */\n      dup3\n        /* \"#utility.yul\":10181:10274   */\n      tag_265\n      jump\t// in\n    tag_396:\n        /* \"#utility.yul\":10299:10300   */\n      0x00\n        /* \"#utility.yul\":10294:10297   */\n      dup3\n        /* \"#utility.yul\":10290:10301   */\n      add\n        /* \"#utility.yul\":10283:10301   */\n      swap1\n      pop\n        /* \"#utility.yul\":9909:10307   */\n      swap2\n      swap1\n      pop\n      jump\t// out\n        /* \"#utility.yul\":10313:10692   */\n    tag_178:\n        /* \"#utility.yul\":10497:10500   */\n      0x00\n        /* \"#utility.yul\":10519:10666   */\n      tag_398\n        /* \"#utility.yul\":10662:10665   */\n      dup3\n        /* \"#utility.yul\":10519:10666   */\n      tag_266\n      jump\t// in\n    tag_398:\n        /* \"#utility.yul\":10512:10666   */\n      swap2\n      pop\n        /* \"#utility.yul\":10683:10686   */\n      dup2\n        /* \"#utility.yul\":10676:10686   */\n      swap1\n      pop\n        /* \"#utility.yul\":10313:10692   */\n      swap2\n      swap1\n      pop\n      jump\t// out\n        /* \"#utility.yul\":10698:10803   */\n    tag_267:\n        /* \"#utility.yul\":10734:10741   */\n      0x00\n        /* \"#utility.yul\":10774:10796   */\n      0xffffffffffffffffffff\n        /* \"#utility.yul\":10767:10772   */\n      dup3\n        /* \"#utility.yul\":10763:10797   */\n      and\n        /* \"#utility.yul\":10752:10797   */\n      swap1\n      pop\n        /* \"#utility.yul\":10698:10803   */\n      swap2\n      swap1\n      pop\n      jump\t// out\n        /* \"#utility.yul\":10809:10929   */\n    tag_268:\n        /* \"#utility.yul\":10881:10904   */\n      tag_401\n        /* \"#utility.yul\":10898:10903   */\n      dup2\n        /* \"#utility.yul\":10881:10904   */\n      tag_267\n      jump\t// in\n    tag_401:\n        /* \"#utility.yul\":10874:10879   */\n      dup2\n        /* \"#utility.yul\":10871:10905   */\n      eq\n        /* \"#utility.yul\":10861:10923   */\n      tag_402\n      jumpi\n        /* \"#utility.yul\":10919:10920   */\n      0x00\n        /* \"#utility.yul\":10916:10917   */\n      0x00\n        /* \"#utility.yul\":10909:10921   */\n      revert\n        /* \"#utility.yul\":10861:10923   */\n    tag_402:\n        /* \"#utility.yul\":10809:10929   */\n      pop\n      jump\t// out\n        /* \"#utility.yul\":10935:11076   */\n    tag_269:\n        /* \"#utility.yul\":10991:10996   */\n      0x00\n        /* \"#utility.yul\":11022:11028   */\n      dup2\n        /* \"#utility.yul\":11016:11029   */\n      mload\n        /* \"#utility.yul\":11007:11029   */\n      swap1\n      pop\n        /* \"#utility.yul\":11038:11070   */\n      tag_404\n        /* \"#utility.yul\":11064:11069   */\n      dup2\n        /* \"#utility.yul\":11038:11070   */\n      tag_268\n      jump\t// in\n    tag_404:\n        /* \"#utility.yul\":10935:11076   */\n      swap3\n      swap2\n      pop\n      pop\n      jump\t// out\n        /* \"#utility.yul\":11082:11158   */\n    tag_270:\n        /* \"#utility.yul\":11118:11125   */\n      0x00\n        /* \"#utility.yul\":11147:11152   */\n      dup2\n        /* \"#utility.yul\":11136:11152   */\n      swap1\n      pop\n        /* \"#utility.yul\":11082:11158   */\n      swap2\n      swap1\n      pop\n      jump\t// out\n        /* \"#utility.yul\":11164:11284   */\n    tag_271:\n        /* \"#utility.yul\":11236:11259   */\n      tag_407\n        /* \"#utility.yul\":11253:11258   */\n      dup2\n        /* \"#utility.yul\":11236:11259   */\n      tag_270\n      jump\t// in\n    tag_407:\n        /* \"#utility.yul\":11229:11234   */\n      dup2\n        /* \"#utility.yul\":11226:11260   */\n      eq\n        /* \"#utility.yul\":11216:11278   */\n      tag_408\n      jumpi\n        /* \"#utility.yul\":11274:11275   */\n      0x00\n        /* \"#utility.yul\":11271:11272   */\n      0x00\n        /* \"#utility.yul\":11264:11276   */\n      revert\n        /* \"#utility.yul\":11216:11278   */\n    tag_408:\n        /* \"#utility.yul\":11164:11284   */\n      pop\n      jump\t// out\n        /* \"#utility.yul\":11290:11431   */\n    tag_272:\n        /* \"#utility.yul\":11346:11351   */\n      0x00\n        /* \"#utility.yul\":11377:11383   */\n      dup2\n        /* \"#utility.yul\":11371:11384   */\n      mload\n        /* \"#utility.yul\":11362:11384   */\n      swap1\n      pop\n        /* \"#utility.yul\":11393:11425   */\n      tag_410\n        /* \"#utility.yul\":11419:11424   */\n      dup2\n        /* \"#utility.yul\":11393:11425   */\n      tag_271\n      jump\t// in\n    tag_410:\n        /* \"#utility.yul\":11290:11431   */\n      swap3\n      swap2\n      pop\n      pop\n      jump\t// out\n        /* \"#utility.yul\":11437:11580   */\n    tag_273:\n        /* \"#utility.yul\":11494:11499   */\n      0x00\n        /* \"#utility.yul\":11525:11531   */\n      dup2\n        /* \"#utility.yul\":11519:11532   */\n      mload\n        /* \"#utility.yul\":11510:11532   */\n      swap1\n      pop\n        /* \"#utility.yul\":11541:11574   */\n      tag_412\n        /* \"#utility.yul\":11568:11573   */\n      dup2\n        /* \"#utility.yul\":11541:11574   */\n      tag_248\n      jump\t// in\n    tag_412:\n        /* \"#utility.yul\":11437:11580   */\n      swap3\n      swap2\n      pop\n      pop\n      jump\t// out\n        /* \"#utility.yul\":11586:12557   */\n    tag_205:\n        /* \"#utility.yul\":11689:11695   */\n      0x00\n        /* \"#utility.yul\":11697:11703   */\n      0x00\n        /* \"#utility.yul\":11705:11711   */\n      0x00\n        /* \"#utility.yul\":11713:11719   */\n      0x00\n        /* \"#utility.yul\":11721:11727   */\n      0x00\n        /* \"#utility.yul\":11770:11773   */\n      0xa0\n        /* \"#utility.yul\":11758:11767   */\n      dup7\n        /* \"#utility.yul\":11749:11756   */\n      dup9\n        /* \"#utility.yul\":11745:11768   */\n      sub\n        /* \"#utility.yul\":11741:11774   */\n      slt\n        /* \"#utility.yul\":11738:11858   */\n      iszero\n      tag_414\n      jumpi\n        /* \"#utility.yul\":11777:11856   */\n      tag_415\n      tag_239\n      jump\t// in\n    tag_415:\n        /* \"#utility.yul\":11738:11858   */\n    tag_414:\n        /* \"#utility.yul\":11897:11898   */\n      0x00\n        /* \"#utility.yul\":11922:11985   */\n      tag_416\n        /* \"#utility.yul\":11977:11984   */\n      dup9\n        /* \"#utility.yul\":11968:11974   */\n      dup3\n        /* \"#utility.yul\":11957:11966   */\n      dup10\n        /* \"#utility.yul\":11953:11975   */\n      add\n        /* \"#utility.yul\":11922:11985   */\n      tag_269\n      jump\t// in\n    tag_416:\n        /* \"#utility.yul\":11912:11985   */\n      swap6\n      pop\n        /* \"#utility.yul\":11868:11995   */\n      pop\n        /* \"#utility.yul\":12034:12036   */\n      0x20\n        /* \"#utility.yul\":12060:12123   */\n      tag_417\n        /* \"#utility.yul\":12115:12122   */\n      dup9\n        /* \"#utility.yul\":12106:12112   */\n      dup3\n        /* \"#utility.yul\":12095:12104   */\n      dup10\n        /* \"#utility.yul\":12091:12113   */\n      add\n        /* \"#utility.yul\":12060:12123   */\n      tag_272\n      jump\t// in\n    tag_417:\n        /* \"#utility.yul\":12050:12123   */\n      swap5\n      pop\n        /* \"#utility.yul\":12005:12133   */\n      pop\n        /* \"#utility.yul\":12172:12174   */\n      0x40\n        /* \"#utility.yul\":12198:12262   */\n      tag_418\n        /* \"#utility.yul\":12254:12261   */\n      dup9\n        /* \"#utility.yul\":12245:12251   */\n      dup3\n        /* \"#utility.yul\":12234:12243   */\n      dup10\n        /* \"#utility.yul\":12230:12252   */\n      add\n        /* \"#utility.yul\":12198:12262   */\n      tag_273\n      jump\t// in\n    tag_418:\n        /* \"#utility.yul\":12188:12262   */\n      swap4\n      pop\n        /* \"#utility.yul\":12143:12272   */\n      pop\n        /* \"#utility.yul\":12311:12313   */\n      0x60\n        /* \"#utility.yul\":12337:12401   */\n      tag_419\n        /* \"#utility.yul\":12393:12400   */\n      dup9\n        /* \"#utility.yul\":12384:12390   */\n      dup3\n        /* \"#utility.yul\":12373:12382   */\n      dup10\n        /* \"#utility.yul\":12369:12391   */\n      add\n        /* \"#utility.yul\":12337:12401   */\n      tag_273\n      jump\t// in\n    tag_419:\n        /* \"#utility.yul\":12327:12401   */\n      swap3\n      pop\n        /* \"#utility.yul\":12282:12411   */\n      pop\n        /* \"#utility.yul\":12450:12453   */\n      0x80\n        /* \"#utility.yul\":12477:12540   */\n      tag_420\n        /* \"#utility.yul\":12532:12539   */\n      dup9\n        /* \"#utility.yul\":12523:12529   */\n      dup3\n        /* \"#utility.yul\":12512:12521   */\n      dup10\n        /* \"#utility.yul\":12508:12530   */\n      add\n        /* \"#utility.yul\":12477:12540   */\n      tag_269\n      jump\t// in\n    tag_420:\n        /* \"#utility.yul\":12467:12540   */\n      swap2\n      pop\n        /* \"#utility.yul\":12421:12550   */\n      pop\n        /* \"#utility.yul\":11586:12557   */\n      swap3\n      swap6\n      pop\n      swap3\n      swap6\n      swap1\n      swap4\n      pop\n      jump\t// out\n        /* \"#utility.yul\":12563:12681   */\n    tag_274:\n        /* \"#utility.yul\":12634:12656   */\n      tag_422\n        /* \"#utility.yul\":12650:12655   */\n      dup2\n        /* \"#utility.yul\":12634:12656   */\n      tag_255\n      jump\t// in\n    tag_422:\n        /* \"#utility.yul\":12627:12632   */\n      dup2\n        /* \"#utility.yul\":12624:12657   */\n      eq\n        /* \"#utility.yul\":12614:12675   */\n      tag_423\n      jumpi\n        /* \"#utility.yul\":12671:12672   */\n      0x00\n        /* \"#utility.yul\":12668:12669   */\n      0x00\n        /* \"#utility.yul\":12661:12673   */\n      revert\n        /* \"#utility.yul\":12614:12675   */\n    tag_423:\n        /* \"#utility.yul\":12563:12681   */\n      pop\n      jump\t// out\n        /* \"#utility.yul\":12687:12826   */\n    tag_275:\n        /* \"#utility.yul\":12742:12747   */\n      0x00\n        /* \"#utility.yul\":12773:12779   */\n      dup2\n        /* \"#utility.yul\":12767:12780   */\n      mload\n        /* \"#utility.yul\":12758:12780   */\n      swap1\n      pop\n        /* \"#utility.yul\":12789:12820   */\n      tag_425\n        /* \"#utility.yul\":12814:12819   */\n      dup2\n        /* \"#utility.yul\":12789:12820   */\n      tag_274\n      jump\t// in\n    tag_425:\n        /* \"#utility.yul\":12687:12826   */\n      swap3\n      swap2\n      pop\n      pop\n      jump\t// out\n        /* \"#utility.yul\":12832:13179   */\n    tag_209:\n        /* \"#utility.yul\":12900:12906   */\n      0x00\n        /* \"#utility.yul\":12949:12951   */\n      0x20\n        /* \"#utility.yul\":12937:12946   */\n      dup3\n        /* \"#utility.yul\":12928:12935   */\n      dup5\n        /* \"#utility.yul\":12924:12947   */\n      sub\n        /* \"#utility.yul\":12920:12952   */\n      slt\n        /* \"#utility.yul\":12917:13036   */\n      iszero\n      tag_427\n      jumpi\n        /* \"#utility.yul\":12955:13034   */\n      tag_428\n      tag_239\n      jump\t// in\n    tag_428:\n        /* \"#utility.yul\":12917:13036   */\n    tag_427:\n        /* \"#utility.yul\":13075:13076   */\n      0x00\n        /* \"#utility.yul\":13100:13162   */\n      tag_429\n        /* \"#utility.yul\":13154:13161   */\n      dup5\n        /* \"#utility.yul\":13145:13151   */\n      dup3\n        /* \"#utility.yul\":13134:13143   */\n      dup6\n        /* \"#utility.yul\":13130:13152   */\n      add\n        /* \"#utility.yul\":13100:13162   */\n      tag_275\n      jump\t// in\n    tag_429:\n        /* \"#utility.yul\":13090:13162   */\n      swap2\n      pop\n        /* \"#utility.yul\":13046:13172   */\n      pop\n        /* \"#utility.yul\":12832:13179   */\n      swap3\n      swap2\n      pop\n      pop\n      jump\t// out\n        /* \"#utility.yul\":13185:13595   */\n    tag_220:\n        /* \"#utility.yul\":13225:13232   */\n      0x00\n        /* \"#utility.yul\":13248:13268   */\n      tag_431\n        /* \"#utility.yul\":13266:13267   */\n      dup3\n        /* \"#utility.yul\":13248:13268   */\n      tag_245\n      jump\t// in\n    tag_431:\n        /* \"#utility.yul\":13243:13268   */\n      swap2\n      pop\n        /* \"#utility.yul\":13282:13302   */\n      tag_432\n        /* \"#utility.yul\":13300:13301   */\n      dup4\n        /* \"#utility.yul\":13282:13302   */\n      tag_245\n      jump\t// in\n    tag_432:\n        /* \"#utility.yul\":13277:13302   */\n      swap3\n      pop\n        /* \"#utility.yul\":13337:13338   */\n      dup3\n        /* \"#utility.yul\":13334:13335   */\n      dup3\n        /* \"#utility.yul\":13330:13339   */\n      mul\n        /* \"#utility.yul\":13359:13389   */\n      tag_433\n        /* \"#utility.yul\":13377:13388   */\n      dup2\n        /* \"#utility.yul\":13359:13389   */\n      tag_245\n      jump\t// in\n    tag_433:\n        /* \"#utility.yul\":13348:13389   */\n      swap2\n      pop\n        /* \"#utility.yul\":13538:13539   */\n      dup3\n        /* \"#utility.yul\":13529:13536   */\n      dup3\n        /* \"#utility.yul\":13525:13540   */\n      div\n        /* \"#utility.yul\":13522:13523   */\n      dup5\n        /* \"#utility.yul\":13519:13541   */\n      eq\n        /* \"#utility.yul\":13499:13500   */\n      dup4\n        /* \"#utility.yul\":13492:13501   */\n      iszero\n        /* \"#utility.yul\":13472:13555   */\n      or\n        /* \"#utility.yul\":13449:13588   */\n      tag_434\n      jumpi\n        /* \"#utility.yul\":13568:13586   */\n      tag_435\n      tag_263\n      jump\t// in\n    tag_435:\n        /* \"#utility.yul\":13449:13588   */\n    tag_434:\n        /* \"#utility.yul\":13233:13595   */\n      pop\n        /* \"#utility.yul\":13185:13595   */\n      swap3\n      swap2\n      pop\n      pop\n      jump\t// out\n        /* \"#utility.yul\":13601:13789   */\n    tag_222:\n        /* \"#utility.yul\":13639:13642   */\n      0x00\n        /* \"#utility.yul\":13658:13676   */\n      tag_437\n        /* \"#utility.yul\":13674:13675   */\n      dup3\n        /* \"#utility.yul\":13658:13676   */\n      tag_255\n      jump\t// in\n    tag_437:\n        /* \"#utility.yul\":13653:13676   */\n      swap2\n      pop\n        /* \"#utility.yul\":13690:13708   */\n      tag_438\n        /* \"#utility.yul\":13706:13707   */\n      dup4\n        /* \"#utility.yul\":13690:13708   */\n      tag_255\n      jump\t// in\n    tag_438:\n        /* \"#utility.yul\":13685:13708   */\n      swap3\n      pop\n        /* \"#utility.yul\":13731:13732   */\n      dup3\n        /* \"#utility.yul\":13728:13729   */\n      dup3\n        /* \"#utility.yul\":13724:13733   */\n      add\n        /* \"#utility.yul\":13717:13733   */\n      swap1\n      pop\n        /* \"#utility.yul\":13754:13758   */\n      0xff\n        /* \"#utility.yul\":13749:13752   */\n      dup2\n        /* \"#utility.yul\":13746:13759   */\n      gt\n        /* \"#utility.yul\":13743:13782   */\n      iszero\n      tag_439\n      jumpi\n        /* \"#utility.yul\":13762:13780   */\n      tag_440\n      tag_263\n      jump\t// in\n    tag_440:\n        /* \"#utility.yul\":13743:13782   */\n    tag_439:\n        /* \"#utility.yul\":13601:13789   */\n      swap3\n      swap2\n      pop\n      pop\n      jump\t// out\n        /* \"#utility.yul\":13795:13986   */\n    tag_226:\n        /* \"#utility.yul\":13833:13837   */\n      0x00\n        /* \"#utility.yul\":13853:13871   */\n      tag_442\n        /* \"#utility.yul\":13869:13870   */\n      dup3\n        /* \"#utility.yul\":13853:13871   */\n      tag_255\n      jump\t// in\n    tag_442:\n        /* \"#utility.yul\":13848:13871   */\n      swap2\n      pop\n        /* \"#utility.yul\":13885:13903   */\n      tag_443\n        /* \"#utility.yul\":13901:13902   */\n      dup4\n        /* \"#utility.yul\":13885:13903   */\n      tag_255\n      jump\t// in\n    tag_443:\n        /* \"#utility.yul\":13880:13903   */\n      swap3\n      pop\n        /* \"#utility.yul\":13927:13928   */\n      dup3\n        /* \"#utility.yul\":13924:13925   */\n      dup3\n        /* \"#utility.yul\":13920:13929   */\n      sub\n        /* \"#utility.yul\":13912:13929   */\n      swap1\n      pop\n        /* \"#utility.yul\":13951:13955   */\n      0xff\n        /* \"#utility.yul\":13945:13949   */\n      dup2\n        /* \"#utility.yul\":13942:13956   */\n      gt\n        /* \"#utility.yul\":13939:13979   */\n      iszero\n      tag_444\n      jumpi\n        /* \"#utility.yul\":13959:13977   */\n      tag_445\n      tag_263\n      jump\t// in\n    tag_445:\n        /* \"#utility.yul\":13939:13979   */\n    tag_444:\n        /* \"#utility.yul\":13795:13986   */\n      swap3\n      swap2\n      pop\n      pop\n      jump\t// out\n        /* \"#utility.yul\":13992:14094   */\n    tag_276:\n        /* \"#utility.yul\":14034:14042   */\n      0x00\n        /* \"#utility.yul\":14081:14086   */\n      dup2\n        /* \"#utility.yul\":14078:14079   */\n      0x01\n        /* \"#utility.yul\":14074:14087   */\n      shr\n        /* \"#utility.yul\":14053:14087   */\n      swap1\n      pop\n        /* \"#utility.yul\":13992:14094   */\n      swap2\n      swap1\n      pop\n      jump\t// out\n        /* \"#utility.yul\":14100:14948   */\n    tag_277:\n        /* \"#utility.yul\":14161:14166   */\n      0x00\n        /* \"#utility.yul\":14168:14172   */\n      0x00\n        /* \"#utility.yul\":14192:14198   */\n      dup3\n        /* \"#utility.yul\":14183:14198   */\n      swap2\n      pop\n        /* \"#utility.yul\":14216:14221   */\n      dup4\n        /* \"#utility.yul\":14207:14221   */\n      swap1\n      pop\n        /* \"#utility.yul\":14230:14942   */\n    tag_448:\n        /* \"#utility.yul\":14251:14252   */\n      0x01\n        /* \"#utility.yul\":14241:14249   */\n      dup6\n        /* \"#utility.yul\":14238:14253   */\n      gt\n        /* \"#utility.yul\":14230:14942   */\n      iszero\n      tag_450\n      jumpi\n        /* \"#utility.yul\":14346:14350   */\n      dup1\n        /* \"#utility.yul\":14341:14344   */\n      dup7\n        /* \"#utility.yul\":14337:14351   */\n      div\n        /* \"#utility.yul\":14331:14335   */\n      dup2\n        /* \"#utility.yul\":14328:14352   */\n      gt\n        /* \"#utility.yul\":14325:14375   */\n      iszero\n      tag_451\n      jumpi\n        /* \"#utility.yul\":14355:14373   */\n      tag_452\n      tag_263\n      jump\t// in\n    tag_452:\n        /* \"#utility.yul\":14325:14375   */\n    tag_451:\n        /* \"#utility.yul\":14405:14406   */\n      0x01\n        /* \"#utility.yul\":14395:14403   */\n      dup6\n        /* \"#utility.yul\":14391:14407   */\n      and\n        /* \"#utility.yul\":14388:14839   */\n      iszero\n      tag_453\n      jumpi\n        /* \"#utility.yul\":14820:14824   */\n      dup1\n        /* \"#utility.yul\":14813:14818   */\n      dup3\n        /* \"#utility.yul\":14809:14825   */\n      mul\n        /* \"#utility.yul\":14800:14825   */\n      swap2\n      pop\n        /* \"#utility.yul\":14388:14839   */\n    tag_453:\n        /* \"#utility.yul\":14870:14874   */\n      dup1\n        /* \"#utility.yul\":14864:14868   */\n      dup2\n        /* \"#utility.yul\":14860:14875   */\n      mul\n        /* \"#utility.yul\":14852:14875   */\n      swap1\n      pop\n        /* \"#utility.yul\":14900:14932   */\n      tag_454\n        /* \"#utility.yul\":14923:14931   */\n      dup6\n        /* \"#utility.yul\":14900:14932   */\n      tag_276\n      jump\t// in\n    tag_454:\n        /* \"#utility.yul\":14888:14932   */\n      swap5\n      pop\n        /* \"#utility.yul\":14230:14942   */\n      jump(tag_448)\n    tag_450:\n        /* \"#utility.yul\":14100:14948   */\n      swap5\n      pop\n      swap5\n      swap3\n      pop\n      pop\n      pop\n      jump\t// out\n        /* \"#utility.yul\":14954:16027   */\n    tag_278:\n        /* \"#utility.yul\":15008:15013   */\n      0x00\n        /* \"#utility.yul\":15199:15207   */\n      dup3\n        /* \"#utility.yul\":15189:15229   */\n      tag_456\n      jumpi\n        /* \"#utility.yul\":15220:15221   */\n      0x01\n        /* \"#utility.yul\":15211:15221   */\n      swap1\n      pop\n        /* \"#utility.yul\":15222:15227   */\n      jump(tag_455)\n        /* \"#utility.yul\":15189:15229   */\n    tag_456:\n        /* \"#utility.yul\":15248:15252   */\n      dup2\n        /* \"#utility.yul\":15238:15274   */\n      tag_457\n      jumpi\n        /* \"#utility.yul\":15265:15266   */\n      0x00\n        /* \"#utility.yul\":15256:15266   */\n      swap1\n      pop\n        /* \"#utility.yul\":15267:15272   */\n      jump(tag_455)\n        /* \"#utility.yul\":15238:15274   */\n    tag_457:\n        /* \"#utility.yul\":15334:15338   */\n      dup2\n        /* \"#utility.yul\":15382:15383   */\n      0x01\n        /* \"#utility.yul\":15377:15404   */\n      dup2\n      eq\n      tag_459\n      jumpi\n        /* \"#utility.yul\":15418:15419   */\n      0x02\n        /* \"#utility.yul\":15413:15604   */\n      dup2\n      eq\n      tag_460\n      jumpi\n        /* \"#utility.yul\":15327:15604   */\n      jump(tag_458)\n        /* \"#utility.yul\":15377:15404   */\n    tag_459:\n        /* \"#utility.yul\":15395:15396   */\n      0x01\n        /* \"#utility.yul\":15386:15396   */\n      swap2\n      pop\n        /* \"#utility.yul\":15397:15402   */\n      pop\n      jump(tag_455)\n        /* \"#utility.yul\":15413:15604   */\n    tag_460:\n        /* \"#utility.yul\":15458:15461   */\n      0xff\n        /* \"#utility.yul\":15448:15456   */\n      dup5\n        /* \"#utility.yul\":15445:15462   */\n      gt\n        /* \"#utility.yul\":15442:15485   */\n      iszero\n      tag_461\n      jumpi\n        /* \"#utility.yul\":15465:15483   */\n      tag_462\n      tag_263\n      jump\t// in\n    tag_462:\n        /* \"#utility.yul\":15442:15485   */\n    tag_461:\n        /* \"#utility.yul\":15514:15522   */\n      dup4\n        /* \"#utility.yul\":15511:15512   */\n      0x02\n        /* \"#utility.yul\":15507:15523   */\n      exp\n        /* \"#utility.yul\":15498:15523   */\n      swap2\n      pop\n        /* \"#utility.yul\":15549:15552   */\n      dup5\n        /* \"#utility.yul\":15542:15547   */\n      dup3\n        /* \"#utility.yul\":15539:15553   */\n      gt\n        /* \"#utility.yul\":15536:15576   */\n      iszero\n      tag_463\n      jumpi\n        /* \"#utility.yul\":15556:15574   */\n      tag_464\n      tag_263\n      jump\t// in\n    tag_464:\n        /* \"#utility.yul\":15536:15576   */\n    tag_463:\n        /* \"#utility.yul\":15589:15594   */\n      pop\n      jump(tag_455)\n        /* \"#utility.yul\":15327:15604   */\n    tag_458:\n      pop\n        /* \"#utility.yul\":15713:15715   */\n      0x20\n        /* \"#utility.yul\":15703:15711   */\n      dup4\n        /* \"#utility.yul\":15700:15716   */\n      lt\n        /* \"#utility.yul\":15694:15697   */\n      0x0133\n        /* \"#utility.yul\":15688:15692   */\n      dup4\n        /* \"#utility.yul\":15685:15698   */\n      lt\n        /* \"#utility.yul\":15681:15717   */\n      and\n        /* \"#utility.yul\":15663:15665   */\n      0x4e\n        /* \"#utility.yul\":15653:15661   */\n      dup5\n        /* \"#utility.yul\":15650:15666   */\n      lt\n        /* \"#utility.yul\":15645:15647   */\n      0x0b\n        /* \"#utility.yul\":15639:15643   */\n      dup5\n        /* \"#utility.yul\":15636:15648   */\n      lt\n        /* \"#utility.yul\":15632:15667   */\n      and\n        /* \"#utility.yul\":15616:15727   */\n      or\n        /* \"#utility.yul\":15613:15859   */\n      iszero\n      tag_465\n      jumpi\n        /* \"#utility.yul\":15769:15777   */\n      dup3\n        /* \"#utility.yul\":15763:15767   */\n      dup3\n        /* \"#utility.yul\":15759:15778   */\n      exp\n        /* \"#utility.yul\":15750:15778   */\n      swap1\n      pop\n        /* \"#utility.yul\":15804:15807   */\n      dup4\n        /* \"#utility.yul\":15797:15802   */\n      dup2\n        /* \"#utility.yul\":15794:15808   */\n      gt\n        /* \"#utility.yul\":15791:15831   */\n      iszero\n      tag_466\n      jumpi\n        /* \"#utility.yul\":15811:15829   */\n      tag_467\n      tag_263\n      jump\t// in\n    tag_467:\n        /* \"#utility.yul\":15791:15831   */\n    tag_466:\n        /* \"#utility.yul\":15844:15849   */\n      jump(tag_455)\n        /* \"#utility.yul\":15613:15859   */\n    tag_465:\n        /* \"#utility.yul\":15884:15926   */\n      tag_468\n        /* \"#utility.yul\":15922:15925   */\n      dup5\n        /* \"#utility.yul\":15912:15920   */\n      dup5\n        /* \"#utility.yul\":15906:15910   */\n      dup5\n        /* \"#utility.yul\":15903:15904   */\n      0x01\n        /* \"#utility.yul\":15884:15926   */\n      tag_277\n      jump\t// in\n    tag_468:\n        /* \"#utility.yul\":15869:15926   */\n      swap3\n      pop\n      swap1\n      pop\n        /* \"#utility.yul\":15958:15962   */\n      dup2\n        /* \"#utility.yul\":15953:15956   */\n      dup5\n        /* \"#utility.yul\":15949:15963   */\n      div\n        /* \"#utility.yul\":15942:15947   */\n      dup2\n        /* \"#utility.yul\":15939:15964   */\n      gt\n        /* \"#utility.yul\":15936:15987   */\n      iszero\n      tag_469\n      jumpi\n        /* \"#utility.yul\":15967:15985   */\n      tag_470\n      tag_263\n      jump\t// in\n    tag_470:\n        /* \"#utility.yul\":15936:15987   */\n    tag_469:\n        /* \"#utility.yul\":16016:16020   */\n      dup2\n        /* \"#utility.yul\":16009:16014   */\n      dup2\n        /* \"#utility.yul\":16005:16021   */\n      mul\n        /* \"#utility.yul\":15996:16021   */\n      swap1\n      pop\n        /* \"#utility.yul\":14954:16027   */\n    tag_455:\n      swap4\n      swap3\n      pop\n      pop\n      pop\n      jump\t// out\n        /* \"#utility.yul\":16033:16318   */\n    tag_228:\n        /* \"#utility.yul\":16093:16098   */\n      0x00\n        /* \"#utility.yul\":16117:16140   */\n      tag_472\n        /* \"#utility.yul\":16135:16139   */\n      dup3\n        /* \"#utility.yul\":16117:16140   */\n      tag_245\n      jump\t// in\n    tag_472:\n        /* \"#utility.yul\":16109:16140   */\n      swap2\n      pop\n        /* \"#utility.yul\":16161:16188   */\n      tag_473\n        /* \"#utility.yul\":16179:16187   */\n      dup4\n        /* \"#utility.yul\":16161:16188   */\n      tag_245\n      jump\t// in\n    tag_473:\n        /* \"#utility.yul\":16149:16188   */\n      swap3\n      pop\n        /* \"#utility.yul\":16207:16311   */\n      tag_474\n        /* \"#utility.yul\":16244:16310   */\n      0xffffffffffffffffffffffffffffffffffffffffffffffffffffffffffffffff\n        /* \"#utility.yul\":16234:16242   */\n      dup5\n        /* \"#utility.yul\":16228:16232   */\n      dup5\n        /* \"#utility.yul\":16207:16311   */\n      tag_278\n      jump\t// in\n    tag_474:\n        /* \"#utility.yul\":16198:16311   */\n      swap1\n      pop\n        /* \"#utility.yul\":16033:16318   */\n      swap3\n      swap2\n      pop\n      pop\n      jump\t// out\n        /* \"#utility.yul\":16324:16504   */\n    tag_279:\n        /* \"#utility.yul\":16372:16449   */\n      0x4e487b7100000000000000000000000000000000000000000000000000000000\n        /* \"#utility.yul\":16369:16370   */\n      0x00\n        /* \"#utility.yul\":16362:16450   */\n      mstore\n        /* \"#utility.yul\":16469:16473   */\n      0x12\n        /* \"#utility.yul\":16466:16467   */\n      0x04\n        /* \"#utility.yul\":16459:16474   */\n      mstore\n        /* \"#utility.yul\":16493:16497   */\n      0x24\n        /* \"#utility.yul\":16490:16491   */\n      0x00\n        /* \"#utility.yul\":16483:16498   */\n      revert\n        /* \"#utility.yul\":16510:16695   */\n    tag_230:\n        /* \"#utility.yul\":16550:16551   */\n      0x00\n        /* \"#utility.yul\":16567:16587   */\n      tag_477\n        /* \"#utility.yul\":16585:16586   */\n      dup3\n        /* \"#utility.yul\":16567:16587   */\n      tag_245\n      jump\t// in\n    tag_477:\n        /* \"#utility.yul\":16562:16587   */\n      swap2\n      pop\n        /* \"#utility.yul\":16601:16621   */\n      tag_478\n        /* \"#utility.yul\":16619:16620   */\n      dup4\n        /* \"#utility.yul\":16601:16621   */\n      tag_245\n      jump\t// in\n    tag_478:\n        /* \"#utility.yul\":16596:16621   */\n      swap3\n      pop\n        /* \"#utility.yul\":16640:16641   */\n      dup3\n        /* \"#utility.yul\":16630:16665   */\n      tag_479\n      jumpi\n        /* \"#utility.yul\":16645:16663   */\n      tag_480\n      tag_279\n      jump\t// in\n    tag_480:\n        /* \"#utility.yul\":16630:16665   */\n    tag_479:\n        /* \"#utility.yul\":16687:16688   */\n      dup3\n        /* \"#utility.yul\":16684:16685   */\n      dup3\n        /* \"#utility.yul\":16680:16689   */\n      div\n        /* \"#utility.yul\":16675:16689   */\n      swap1\n      pop\n        /* \"#utility.yul\":16510:16695   */\n      swap3\n      swap2\n      pop\n      pop\n      jump\t// out\n\n    auxdata: 0xa26469706673582212207540d908e8d68461b2f0d11b7bbb94a768b7f71213b6b805865f0efaf94c733064736f6c634300081e0033\n}\n",
				"bytecode": {
					"linkReferences": {},
					"object": "60e060405234801561000f575f5ffd5b5060405161264b38038061264b833981810160405281019061003191906101c7565b5f83148061003e57505f82145b8061007457505f73ffffffffffffffffffffffffffffffffffffffff168173ffffffffffffffffffffffffffffffffffffffff16145b156100ab576040517f1510b77f00000000000000000000000000000000000000000000000000000000815260040160405180910390fd5b335f5f6101000a81548173ffffffffffffffffffffffffffffffffffffffff021916908373ffffffffffffffffffffffffffffffffffffffff16021790555082608081815250508160a081815250508073ffffffffffffffffffffffffffffffffffffffff1660c08173ffffffffffffffffffffffffffffffffffffffff1681525050505050610217565b5f5ffd5b5f819050919050565b61014c8161013a565b8114610156575f5ffd5b50565b5f8151905061016781610143565b92915050565b5f73ffffffffffffffffffffffffffffffffffffffff82169050919050565b5f6101968261016d565b9050919050565b6101a68161018c565b81146101b0575f5ffd5b50565b5f815190506101c18161019d565b92915050565b5f5f5f606084860312156101de576101dd610136565b5b5f6101eb86828701610159565b93505060206101fc86828701610159565b925050604061020d868287016101b3565b9150509250925092565b60805160a05160c0516123cb6102805f395f81816110240152611a5801525f8181610d5f01528181610d880152818161104e015281816111de015261120701525f818161096a01528181610a1f01528181610ff501528181611504015261153d01526123cb5ff3fe6080604052600436106100f6575f3560e01c8063b7b0ffd811610089578063e243df2011610058578063e243df20146102fd578063f14210a614610327578063f6326fb31461034f578063f7888aec14610359576100f7565b8063b7b0ffd814610255578063be406e6c1461027f578063c1636bc9146102a9578063d6343867146102d3576100f7565b806397feb926116100c557806397feb9261461019f5780639dcb511a146101c7578063a1db978214610203578063ac4543ba1461022b576100f7565b806313af4035146100fb578063503e70421461012357806376e112861461014d5780638da5cb5b14610175576100f7565b5b5f5ffd5b348015610106575f5ffd5b50610121600480360381019061011c9190611ae7565b610395565b005b34801561012e575f5ffd5b50610137610549565b6040516101449190611b2a565b60405180910390f35b348015610158575f5ffd5b50610173600480360381019061016e9190611b43565b61054f565b005b348015610180575f5ffd5b506101896106ad565b6040516101969190611b90565b60405180910390f35b3480156101aa575f5ffd5b506101c560048036038101906101c09190611bd3565b6106d1565b005b3480156101d2575f5ffd5b506101ed60048036038101906101e89190611ae7565b610bc1565b6040516101fa9190611c6c565b60405180910390f35b34801561020e575f5ffd5b5061022960048036038101906102249190611bd3565b610bf1565b005b348015610236575f5ffd5b5061023f610ff3565b60405161024c9190611b2a565b60405180910390f35b348015610260575f5ffd5b50610269611017565b6040516102769190611b2a565b60405180910390f35b34801561028a575f5ffd5b5061029361101d565b6040516102a09190611ca0565b60405180910390f35b3480156102b4575f5ffd5b506102bd611022565b6040516102ca9190611c6c565b60405180910390f35b3480156102de575f5ffd5b506102e7611046565b6040516102f49190611b2a565b60405180910390f35b348015610308575f5ffd5b5061031161104c565b60405161031e9190611b2a565b60405180910390f35b348015610332575f5ffd5b5061034d60048036038101906103489190611cb9565b611070565b005b61035761145b565b005b348015610364575f5ffd5b5061037f600480360381019061037a9190611b43565b6116db565b60405161038c9190611b2a565b60405180910390f35b5f5f9054906101000a900473ffffffffffffffffffffffffffffffffffffffff1673ffffffffffffffffffffffffffffffffffffffff163373ffffffffffffffffffffffffffffffffffffffff161461041a576040517fcc12cef600000000000000000000000000000000000000000000000000000000815260040160405180910390fd5b5f73ffffffffffffffffffffffffffffffffffffffff168173ffffffffffffffffffffffffffffffffffffffff1603610488576040517f08c379a000000000000000000000000000000000000000000000000000000000815260040161047f90611d3e565b60405180910390fd5b5f5f5f9054906101000a900473ffffffffffffffffffffffffffffffffffffffff169050815f5f6101000a81548173ffffffffffffffffffffffffffffffffffffffff021916908373ffffffffffffffffffffffffffffffffffffffff1602179055508173ffffffffffffffffffffffffffffffffffffffff168173ffffffffffffffffffffffffffffffffffffffff167fb532073b38c83145e3e5135377a08bf9aab55bc0fd7c1179cd4fb995d2a5159c60405160405180910390a35050565b60055481565b5f5f9054906101000a900473ffffffffffffffffffffffffffffffffffffffff1673ffffffffffffffffffffffffffffffffffffffff163373ffffffffffffffffffffffffffffffffffffffff16146105d4576040517fcc12cef600000000000000000000000000000000000000000000000000000000815260040160405180910390fd5b8060025f8473ffffffffffffffffffffffffffffffffffffffff1673ffffffffffffffffffffffffffffffffffffffff1681526020019081526020015f205f6101000a81548173ffffffffffffffffffffffffffffffffffffffff021916908373ffffffffffffffffffffffffffffffffffffffff1602179055508073ffffffffffffffffffffffffffffffffffffffff168273ffffffffffffffffffffffffffffffffffffffff167fd2d8394cf7549a5ddbc2ba3dd7b2de8d53c891472d1f2907008ed6a10045fdae60405160405180910390a35050565b5f5f9054906101000a900473ffffffffffffffffffffffffffffffffffffffff1681565b60065f9054906101000a900460ff1615610717576040517f5a919cd900000000000000000000000000000000000000000000000000000000815260040160405180910390fd5b600160065f6101000a81548160ff021916908315150217905550805f810361076b576040517f608294ac00000000000000000000000000000000000000000000000000000000815260040160405180910390fd5b5f73ffffffffffffffffffffffffffffffffffffffff168373ffffffffffffffffffffffffffffffffffffffff16036107d0576040517f608294ac00000000000000000000000000000000000000000000000000000000815260040160405180910390fd5b5f60025f8573ffffffffffffffffffffffffffffffffffffffff1673ffffffffffffffffffffffffffffffffffffffff1681526020019081526020015f205f9054906101000a900473ffffffffffffffffffffffffffffffffffffffff1690505f73ffffffffffffffffffffffffffffffffffffffff168173ffffffffffffffffffffffffffffffffffffffff1603610895576040517fcc12cef600000000000000000000000000000000000000000000000000000000815260040160405180910390fd5b5f8473ffffffffffffffffffffffffffffffffffffffff166323b872dd3330876040518463ffffffff1660e01b81526004016108d393929190611d5c565b6020604051808303815f875af11580156108ef573d5f5f3e3d5ffd5b505050506040513d601f19601f820116820180604052508101906109139190611dc6565b90508061095b573385856040517f31e6e4e100000000000000000000000000000000000000000000000000000000815260040161095293929190611d5c565b60405180910390fd5b5f610966868661175d565b90507f0000000000000000000000000000000000000000000000000000000000000000816003546109979190611e1e565b1115610a7c578573ffffffffffffffffffffffffffffffffffffffff1663a9059cbb33876040518363ffffffff1660e01b81526004016109d8929190611e51565b6020604051808303815f875af11580156109f4573d5f5f3e3d5ffd5b505050506040513d601f19601f82011682018060405250810190610a189190611dc6565b50806003547f00000000000000000000000000000000000000000000000000000000000000006040517fcfe67498000000000000000000000000000000000000000000000000000000008152600401610a7393929190611e78565b60405180910390fd5b8460015f8873ffffffffffffffffffffffffffffffffffffffff1673ffffffffffffffffffffffffffffffffffffffff1681526020019081526020015f205f3373ffffffffffffffffffffffffffffffffffffffff1673ffffffffffffffffffffffffffffffffffffffff1681526020019081526020015f205f828254610b039190611e1e565b9250508190555060045f815480929190610b1c90611ead565b91905055508060035f828254610b329190611e1e565b925050819055508573ffffffffffffffffffffffffffffffffffffffff163373ffffffffffffffffffffffffffffffffffffffff167fdcbc1c05240f31ff3ad067ef1ee35ce4997762752e3a095284754544f4c709d78784604051610b98929190611ef4565b60405180910390a3505050505f60065f6101000a81548160ff0219169083151502179055505050565b6002602052805f5260405f205f915054906101000a900473ffffffffffffffffffffffffffffffffffffffff1681565b60065f9054906101000a900460ff1615610c37576040517f5a919cd900000000000000000000000000000000000000000000000000000000815260040160405180910390fd5b600160065f6101000a81548160ff021916908315150217905550805f8103610c8b576040517f608294ac00000000000000000000000000000000000000000000000000000000815260040160405180910390fd5b5f60015f8573ffffffffffffffffffffffffffffffffffffffff1673ffffffffffffffffffffffffffffffffffffffff1681526020019081526020015f205f3373ffffffffffffffffffffffffffffffffffffffff1673ffffffffffffffffffffffffffffffffffffffff1681526020019081526020015f2054905080831115610d50578381846040517f483b38f2000000000000000000000000000000000000000000000000000000008152600401610d4793929190611f1b565b60405180910390fd5b5f610d5b858561175d565b90507f0000000000000000000000000000000000000000000000000000000000000000811115610de457807f00000000000000000000000000000000000000000000000000000000000000006040517f29963049000000000000000000000000000000000000000000000000000000008152600401610ddb929190611ef4565b60405180910390fd5b8382610df09190611f50565b60015f8773ffffffffffffffffffffffffffffffffffffffff1673ffffffffffffffffffffffffffffffffffffffff1681526020019081526020015f205f3373ffffffffffffffffffffffffffffffffffffffff1673ffffffffffffffffffffffffffffffffffffffff1681526020019081526020015f208190555060055f815480929190610e7e90611ead565b91905055506003548111610e9f5780600354610e9a9190611f50565b610ea1565b5f5b6003819055505f8573ffffffffffffffffffffffffffffffffffffffff1663a9059cbb33876040518363ffffffff1660e01b8152600401610ee3929190611e51565b6020604051808303815f875af1158015610eff573d5f5f3e3d5ffd5b505050506040513d601f19601f82011682018060405250810190610f239190611dc6565b905080610f6b573386866040517f31e6e4e1000000000000000000000000000000000000000000000000000000008152600401610f6293929190611d5c565b60405180910390fd5b8573ffffffffffffffffffffffffffffffffffffffff163373ffffffffffffffffffffffffffffffffffffffff167ff341246adaac6f497bc2a656f546ab9e182111d630394f0c57c710a59a2cb5678785604051610fca929190611ef4565b60405180910390a3505050505f60065f6101000a81548160ff0219169083151502179055505050565b7f000000000000000000000000000000000000000000000000000000000000000081565b60035481565b600681565b7f000000000000000000000000000000000000000000000000000000000000000081565b60045481565b7f000000000000000000000000000000000000000000000000000000000000000081565b60065f9054906101000a900460ff16156110b6576040517f5a919cd900000000000000000000000000000000000000000000000000000000815260040160405180910390fd5b600160065f6101000a81548160ff021916908315150217905550805f810361110a576040517f608294ac00000000000000000000000000000000000000000000000000000000815260040160405180910390fd5b5f60015f5f73ffffffffffffffffffffffffffffffffffffffff1673ffffffffffffffffffffffffffffffffffffffff1681526020019081526020015f205f3373ffffffffffffffffffffffffffffffffffffffff1673ffffffffffffffffffffffffffffffffffffffff1681526020019081526020015f20549050808311156111cf575f81846040517f483b38f20000000000000000000000000000000000000000000000000000000081526004016111c693929190611f1b565b60405180910390fd5b5f6111da5f8561175d565b90507f000000000000000000000000000000000000000000000000000000000000000081111561126357807f00000000000000000000000000000000000000000000000000000000000000006040517f2996304900000000000000000000000000000000000000000000000000000000815260040161125a929190611ef4565b60405180910390fd5b838261126f9190611f50565b60015f5f73ffffffffffffffffffffffffffffffffffffffff1673ffffffffffffffffffffffffffffffffffffffff1681526020019081526020015f205f3373ffffffffffffffffffffffffffffffffffffffff1673ffffffffffffffffffffffffffffffffffffffff1681526020019081526020015f208190555060055f8154809291906112fd90611ead565b9190505550600354811161131e57806003546113199190611f50565b611320565b5f5b6003819055505f3373ffffffffffffffffffffffffffffffffffffffff168560405161134b90611fb0565b5f6040518083038185875af1925050503d805f8114611385576040519150601f19603f3d011682016040523d82523d5f602084013e61138a565b606091505b50509050806113d457335f866040517f31e6e4e10000000000000000000000000000000000000000000000000000000081526004016113cb93929190611d5c565b60405180910390fd5b5f73ffffffffffffffffffffffffffffffffffffffff163373ffffffffffffffffffffffffffffffffffffffff167ff341246adaac6f497bc2a656f546ab9e182111d630394f0c57c710a59a2cb5678785604051611433929190611ef4565b60405180910390a3505050505f60065f6101000a81548160ff02191690831515021790555050565b60065f9054906101000a900460ff16156114a1576040517f5a919cd900000000000000000000000000000000000000000000000000000000815260040160405180910390fd5b600160065f6101000a81548160ff021916908315150217905550345f81036114f5576040517f608294ac00000000000000000000000000000000000000000000000000000000815260040160405180910390fd5b5f6115005f3461175d565b90507f0000000000000000000000000000000000000000000000000000000000000000816003546115319190611e1e565b111561159a57806003547f00000000000000000000000000000000000000000000000000000000000000006040517fcfe6749800000000000000000000000000000000000000000000000000000000815260040161159193929190611e78565b60405180910390fd5b3460015f5f73ffffffffffffffffffffffffffffffffffffffff1673ffffffffffffffffffffffffffffffffffffffff1681526020019081526020015f205f3373ffffffffffffffffffffffffffffffffffffffff1673ffffffffffffffffffffffffffffffffffffffff1681526020019081526020015f205f8282546116219190611e1e565b9250508190555060045f81548092919061163a90611ead565b91905055508060035f8282546116509190611e1e565b925050819055505f73ffffffffffffffffffffffffffffffffffffffff163373ffffffffffffffffffffffffffffffffffffffff167fdcbc1c05240f31ff3ad067ef1ee35ce4997762752e3a095284754544f4c709d734846040516116b6929190611ef4565b60405180910390a350505f60065f6101000a81548160ff021916908315150217905550565b5f60015f8473ffffffffffffffffffffffffffffffffffffffff1673ffffffffffffffffffffffffffffffffffffffff1681526020019081526020015f205f8373ffffffffffffffffffffffffffffffffffffffff1673ffffffffffffffffffffffffffffffffffffffff1681526020019081526020015f2054905092915050565b5f5f611768846119c2565b90505f8173ffffffffffffffffffffffffffffffffffffffff1663feaf968c6040518163ffffffff1660e01b815260040160a060405180830381865afa1580156117b4573d5f5f3e3d5ffd5b505050506040513d601f19601f820116820180604052508101906117d8919061204a565b5050509150505f8273ffffffffffffffffffffffffffffffffffffffff1663313ce5676040518163ffffffff1660e01b8152600401602060405180830381865afa158015611828573d5f5f3e3d5ffd5b505050506040513d601f19601f8201168201806040525081019061184c91906120eb565b90505f8213611860575f93505050506119bc565b5f601290505f73ffffffffffffffffffffffffffffffffffffffff168773ffffffffffffffffffffffffffffffffffffffff1614611913578673ffffffffffffffffffffffffffffffffffffffff1663313ce5676040518163ffffffff1660e01b8152600401602060405180830381865afa92505050801561190057506040513d601f19601f820116820180604052508101906118fd91906120eb565b60015b61190d5760129050611912565b809150505b5b5f86846119209190612116565b90505f600660ff1684846119349190612157565b60ff161061197e576006848461194a9190612157565b611954919061218b565b60ff16905080600a61196691906122ee565b826119719190612365565b96505050505050506119bc565b838361198a9190612157565b6006611996919061218b565b60ff16905080600a6119a891906122ee565b826119b39190612116565b96505050505050505b92915050565b5f5f60025f8473ffffffffffffffffffffffffffffffffffffffff1673ffffffffffffffffffffffffffffffffffffffff1681526020019081526020015f205f9054906101000a900473ffffffffffffffffffffffffffffffffffffffff1690505f73ffffffffffffffffffffffffffffffffffffffff168173ffffffffffffffffffffffffffffffffffffffff1603611a7f577f0000000000000000000000000000000000000000000000000000000000000000915050611a84565b809150505b919050565b5f5ffd5b5f73ffffffffffffffffffffffffffffffffffffffff82169050919050565b5f611ab682611a8d565b9050919050565b611ac681611aac565b8114611ad0575f5ffd5b50565b5f81359050611ae181611abd565b92915050565b5f60208284031215611afc57611afb611a89565b5b5f611b0984828501611ad3565b91505092915050565b5f819050919050565b611b2481611b12565b82525050565b5f602082019050611b3d5f830184611b1b565b92915050565b5f5f60408385031215611b5957611b58611a89565b5b5f611b6685828601611ad3565b9250506020611b7785828601611ad3565b9150509250929050565b611b8a81611aac565b82525050565b5f602082019050611ba35f830184611b81565b92915050565b611bb281611b12565b8114611bbc575f5ffd5b50565b5f81359050611bcd81611ba9565b92915050565b5f5f60408385031215611be957611be8611a89565b5b5f611bf685828601611ad3565b9250506020611c0785828601611bbf565b9150509250929050565b5f819050919050565b5f611c34611c2f611c2a84611a8d565b611c11565b611a8d565b9050919050565b5f611c4582611c1a565b9050919050565b5f611c5682611c3b565b9050919050565b611c6681611c4c565b82525050565b5f602082019050611c7f5f830184611c5d565b92915050565b5f60ff82169050919050565b611c9a81611c85565b82525050565b5f602082019050611cb35f830184611c91565b92915050565b5f60208284031215611cce57611ccd611a89565b5b5f611cdb84828501611bbf565b91505092915050565b5f82825260208201905092915050565b7f7a65726f206f776e6572000000000000000000000000000000000000000000005f82015250565b5f611d28600a83611ce4565b9150611d3382611cf4565b602082019050919050565b5f6020820190508181035f830152611d5581611d1c565b9050919050565b5f606082019050611d6f5f830186611b81565b611d7c6020830185611b81565b611d896040830184611b1b565b949350505050565b5f8115159050919050565b611da581611d91565b8114611daf575f5ffd5b50565b5f81519050611dc081611d9c565b92915050565b5f60208284031215611ddb57611dda611a89565b5b5f611de884828501611db2565b91505092915050565b7f4e487b71000000000000000000000000000000000000000000000000000000005f52601160045260245ffd5b5f611e2882611b12565b9150611e3383611b12565b9250828201905080821115611e4b57611e4a611df1565b5b92915050565b5f604082019050611e645f830185611b81565b611e716020830184611b1b565b9392505050565b5f606082019050611e8b5f830186611b1b565b611e986020830185611b1b565b611ea56040830184611b1b565b949350505050565b5f611eb782611b12565b91507fffffffffffffffffffffffffffffffffffffffffffffffffffffffffffffffff8203611ee957611ee8611df1565b5b600182019050919050565b5f604082019050611f075f830185611b1b565b611f146020830184611b1b565b9392505050565b5f606082019050611f2e5f830186611b81565b611f3b6020830185611b1b565b611f486040830184611b1b565b949350505050565b5f611f5a82611b12565b9150611f6583611b12565b9250828203905081811115611f7d57611f7c611df1565b5b92915050565b5f81905092915050565b50565b5f611f9b5f83611f83565b9150611fa682611f8d565b5f82019050919050565b5f611fba82611f90565b9150819050919050565b5f69ffffffffffffffffffff82169050919050565b611fe281611fc4565b8114611fec575f5ffd5b50565b5f81519050611ffd81611fd9565b92915050565b5f819050919050565b61201581612003565b811461201f575f5ffd5b50565b5f815190506120308161200c565b92915050565b5f8151905061204481611ba9565b92915050565b5f5f5f5f5f60a0868803121561206357612062611a89565b5b5f61207088828901611fef565b955050602061208188828901612022565b945050604061209288828901612036565b93505060606120a388828901612036565b92505060806120b488828901611fef565b9150509295509295909350565b6120ca81611c85565b81146120d4575f5ffd5b50565b5f815190506120e5816120c1565b92915050565b5f60208284031215612100576120ff611a89565b5b5f61210d848285016120d7565b91505092915050565b5f61212082611b12565b915061212b83611b12565b925082820261213981611b12565b915082820484148315176121505761214f611df1565b5b5092915050565b5f61216182611c85565b915061216c83611c85565b9250828201905060ff81111561218557612184611df1565b5b92915050565b5f61219582611c85565b91506121a083611c85565b9250828203905060ff8111156121b9576121b8611df1565b5b92915050565b5f8160011c9050919050565b5f5f8291508390505b6001851115612214578086048111156121f0576121ef611df1565b5b60018516156121ff5780820291505b808102905061220d856121bf565b94506121d4565b94509492505050565b5f8261222c57600190506122e7565b81612239575f90506122e7565b816001811461224f576002811461225957612288565b60019150506122e7565b60ff84111561226b5761226a611df1565b5b8360020a91508482111561228257612281611df1565b5b506122e7565b5060208310610133831016604e8410600b84101617156122bd5782820a9050838111156122b8576122b7611df1565b5b6122e7565b6122ca84848460016121cb565b925090508184048111156122e1576122e0611df1565b5b81810290505b9392505050565b5f6122f882611b12565b915061230383611b12565b92506123307fffffffffffffffffffffffffffffffffffffffffffffffffffffffffffffffff848461221d565b905092915050565b7f4e487b71000000000000000000000000000000000000000000000000000000005f52601260045260245ffd5b5f61236f82611b12565b915061237a83611b12565b92508261238a57612389612338565b5b82820490509291505056fea26469706673582212207540d908e8d68461b2f0d11b7bbb94a768b7f71213b6b805865f0efaf94c733064736f6c634300081e0033",
					"opcodes": "PUSH1 0xE0 PUSH1 0x40 MSTORE CALLVALUE DUP1 ISZERO PUSH2 0xF JUMPI PUSH0 PUSH0 REVERT JUMPDEST POP PUSH1 0x40 MLOAD PUSH2 0x264B CODESIZE SUB DUP1 PUSH2 0x264B DUP4 CODECOPY DUP2 DUP2 ADD PUSH1 0x40 MSTORE DUP2 ADD SWAP1 PUSH2 0x31 SWAP2 SWAP1 PUSH2 0x1C7 JUMP JUMPDEST PUSH0 DUP4 EQ DUP1 PUSH2 0x3E JUMPI POP PUSH0 DUP3 EQ JUMPDEST DUP1 PUSH2 0x74 JUMPI POP PUSH0 PUSH20 0xFFFFFFFFFFFFFFFFFFFFFFFFFFFFFFFFFFFFFFFF AND DUP2 PUSH20 0xFFFFFFFFFFFFFFFFFFFFFFFFFFFFFFFFFFFFFFFF AND EQ JUMPDEST ISZERO PUSH2 0xAB JUMPI PUSH1 0x40 MLOAD PUSH32 0x1510B77F00000000000000000000000000000000000000000000000000000000 DUP2 MSTORE PUSH1 0x4 ADD PUSH1 0x40 MLOAD DUP1 SWAP2 SUB SWAP1 REVERT JUMPDEST CALLER PUSH0 PUSH0 PUSH2 0x100 EXP DUP2 SLOAD DUP2 PUSH20 0xFFFFFFFFFFFFFFFFFFFFFFFFFFFFFFFFFFFFFFFF MUL NOT AND SWAP1 DUP4 PUSH20 0xFFFFFFFFFFFFFFFFFFFFFFFFFFFFFFFFFFFFFFFF AND MUL OR SWAP1 SSTORE POP DUP3 PUSH1 0x80 DUP2 DUP2 MSTORE POP POP DUP2 PUSH1 0xA0 DUP2 DUP2 MSTORE POP POP DUP1 PUSH20 0xFFFFFFFFFFFFFFFFFFFFFFFFFFFFFFFFFFFFFFFF AND PUSH1 0xC0 DUP2 PUSH20 0xFFFFFFFFFFFFFFFFFFFFFFFFFFFFFFFFFFFFFFFF AND DUP2 MSTORE POP POP POP POP POP PUSH2 0x217 JUMP JUMPDEST PUSH0 PUSH0 REVERT JUMPDEST PUSH0 DUP2 SWAP1 POP SWAP2 SWAP1 POP JUMP JUMPDEST PUSH2 0x14C DUP2 PUSH2 0x13A JUMP JUMPDEST DUP2 EQ PUSH2 0x156 JUMPI PUSH0 PUSH0 REVERT JUMPDEST POP JUMP JUMPDEST PUSH0 DUP2 MLOAD SWAP1 POP PUSH2 0x167 DUP2 PUSH2 0x143 JUMP JUMPDEST SWAP3 SWAP2 POP POP JUMP JUMPDEST PUSH0 PUSH20 0xFFFFFFFFFFFFFFFFFFFFFFFFFFFFFFFFFFFFFFFF DUP3 AND SWAP1 POP SWAP2 SWAP1 POP JUMP JUMPDEST PUSH0 PUSH2 0x196 DUP3 PUSH2 0x16D JUMP JUMPDEST SWAP1 POP SWAP2 SWAP1 POP JUMP JUMPDEST PUSH2 0x1A6 DUP2 PUSH2 0x18C JUMP JUMPDEST DUP2 EQ PUSH2 0x1B0 JUMPI PUSH0 PUSH0 REVERT JUMPDEST POP JUMP JUMPDEST PUSH0 DUP2 MLOAD SWAP1 POP PUSH2 0x1C1 DUP2 PUSH2 0x19D JUMP JUMPDEST SWAP3 SWAP2 POP POP JUMP JUMPDEST PUSH0 PUSH0 PUSH0 PUSH1 0x60 DUP5 DUP7 SUB SLT ISZERO PUSH2 0x1DE JUMPI PUSH2 0x1DD PUSH2 0x136 JUMP JUMPDEST JUMPDEST PUSH0 PUSH2 0x1EB DUP7 DUP3 DUP8 ADD PUSH2 0x159 JUMP JUMPDEST SWAP4 POP POP PUSH1 0x20 PUSH2 0x1FC DUP7 DUP3 DUP8 ADD PUSH2 0x159 JUMP JUMPDEST SWAP3 POP POP PUSH1 0x40 PUSH2 0x20D DUP7 DUP3 DUP8 ADD PUSH2 0x1B3 JUMP JUMPDEST SWAP2 POP POP SWAP3 POP SWAP3 POP SWAP3 JUMP JUMPDEST PUSH1 0x80 MLOAD PUSH1 0xA0 MLOAD PUSH1 0xC0 MLOAD PUSH2 0x23CB PUSH2 0x280 PUSH0 CODECOPY PUSH0 DUP2 DUP2 PUSH2 0x1024 ADD MSTORE PUSH2 0x1A58 ADD MSTORE PUSH0 DUP2 DUP2 PUSH2 0xD5F ADD MSTORE DUP2 DUP2 PUSH2 0xD88 ADD MSTORE DUP2 DUP2 PUSH2 0x104E ADD MSTORE DUP2 DUP2 PUSH2 0x11DE ADD MSTORE PUSH2 0x1207 ADD MSTORE PUSH0 DUP2 DUP2 PUSH2 0x96A ADD MSTORE DUP2 DUP2 PUSH2 0xA1F ADD MSTORE DUP2 DUP2 PUSH2 0xFF5 ADD MSTORE DUP2 DUP2 PUSH2 0x1504 ADD MSTORE PUSH2 0x153D ADD MSTORE PUSH2 0x23CB PUSH0 RETURN INVALID PUSH1 0x80 PUSH1 0x40 MSTORE PUSH1 0x4 CALLDATASIZE LT PUSH2 0xF6 JUMPI PUSH0 CALLDATALOAD PUSH1 0xE0 SHR DUP1 PUSH4 0xB7B0FFD8 GT PUSH2 0x89 JUMPI DUP1 PUSH4 0xE243DF20 GT PUSH2 0x58 JUMPI DUP1 PUSH4 0xE243DF20 EQ PUSH2 0x2FD JUMPI DUP1 PUSH4 0xF14210A6 EQ PUSH2 0x327 JUMPI DUP1 PUSH4 0xF6326FB3 EQ PUSH2 0x34F JUMPI DUP1 PUSH4 0xF7888AEC EQ PUSH2 0x359 JUMPI PUSH2 0xF7 JUMP JUMPDEST DUP1 PUSH4 0xB7B0FFD8 EQ PUSH2 0x255 JUMPI DUP1 PUSH4 0xBE406E6C EQ PUSH2 0x27F JUMPI DUP1 PUSH4 0xC1636BC9 EQ PUSH2 0x2A9 JUMPI DUP1 PUSH4 0xD6343867 EQ PUSH2 0x2D3 JUMPI PUSH2 0xF7 JUMP JUMPDEST DUP1 PUSH4 0x97FEB926 GT PUSH2 0xC5 JUMPI DUP1 PUSH4 0x97FEB926 EQ PUSH2 0x19F JUMPI DUP1 PUSH4 0x9DCB511A EQ PUSH2 0x1C7 JUMPI DUP1 PUSH4 0xA1DB9782 EQ PUSH2 0x203 JUMPI DUP1 PUSH4 0xAC4543BA EQ PUSH2 0x22B JUMPI PUSH2 0xF7 JUMP JUMPDEST DUP1 PUSH4 0x13AF4035 EQ PUSH2 0xFB JUMPI DUP1 PUSH4 0x503E7042 EQ PUSH2 0x123 JUMPI DUP1 PUSH4 0x76E11286 EQ PUSH2 0x14D JUMPI DUP1 PUSH4 0x8DA5CB5B EQ PUSH2 0x175 JUMPI PUSH2 0xF7 JUMP JUMPDEST JUMPDEST PUSH0 PUSH0 REVERT JUMPDEST CALLVALUE DUP1 ISZERO PUSH2 0x106 JUMPI PUSH0 PUSH0 REVERT JUMPDEST POP PUSH2 0x121 PUSH1 0x4 DUP1 CALLDATASIZE SUB DUP2 ADD SWAP1 PUSH2 0x11C SWAP2 SWAP1 PUSH2 0x1AE7 JUMP JUMPDEST PUSH2 0x395 JUMP JUMPDEST STOP JUMPDEST CALLVALUE DUP1 ISZERO PUSH2 0x12E JUMPI PUSH0 PUSH0 REVERT JUMPDEST POP PUSH2 0x137 PUSH2 0x549 JUMP JUMPDEST PUSH1 0x40 MLOAD PUSH2 0x144 SWAP2 SWAP1 PUSH2 0x1B2A JUMP JUMPDEST PUSH1 0x40 MLOAD DUP1 SWAP2 SUB SWAP1 RETURN JUMPDEST CALLVALUE DUP1 ISZERO PUSH2 0x158 JUMPI PUSH0 PUSH0 REVERT JUMPDEST POP PUSH2 0x173 PUSH1 0x4 DUP1 CALLDATASIZE SUB DUP2 ADD SWAP1 PUSH2 0x16E SWAP2 SWAP1 PUSH2 0x1B43 JUMP JUMPDEST PUSH2 0x54F JUMP JUMPDEST STOP JUMPDEST CALLVALUE DUP1 ISZERO PUSH2 0x180 JUMPI PUSH0 PUSH0 REVERT JUMPDEST POP PUSH2 0x189 PUSH2 0x6AD JUMP JUMPDEST PUSH1 0x40 MLOAD PUSH2 0x196 SWAP2 SWAP1 PUSH2 0x1B90 JUMP JUMPDEST PUSH1 0x40 MLOAD DUP1 SWAP2 SUB SWAP1 RETURN JUMPDEST CALLVALUE DUP1 ISZERO PUSH2 0x1AA JUMPI PUSH0 PUSH0 REVERT JUMPDEST POP PUSH2 0x1C5 PUSH1 0x4 DUP1 CALLDATASIZE SUB DUP2 ADD SWAP1 PUSH2 0x1C0 SWAP2 SWAP1 PUSH2 0x1BD3 JUMP JUMPDEST PUSH2 0x6D1 JUMP JUMPDEST STOP JUMPDEST CALLVALUE DUP1 ISZERO PUSH2 0x1D2 JUMPI PUSH0 PUSH0 REVERT JUMPDEST POP PUSH2 0x1ED PUSH1 0x4 DUP1 CALLDATASIZE SUB DUP2 ADD SWAP1 PUSH2 0x1E8 SWAP2 SWAP1 PUSH2 0x1AE7 JUMP JUMPDEST PUSH2 0xBC1 JUMP JUMPDEST PUSH1 0x40 MLOAD PUSH2 0x1FA SWAP2 SWAP1 PUSH2 0x1C6C JUMP JUMPDEST PUSH1 0x40 MLOAD DUP1 SWAP2 SUB SWAP1 RETURN JUMPDEST CALLVALUE DUP1 ISZERO PUSH2 0x20E JUMPI PUSH0 PUSH0 REVERT JUMPDEST POP PUSH2 0x229 PUSH1 0x4 DUP1 CALLDATASIZE SUB DUP2 ADD SWAP1 PUSH2 0x224 SWAP2 SWAP1 PUSH2 0x1BD3 JUMP JUMPDEST PUSH2 0xBF1 JUMP JUMPDEST STOP JUMPDEST CALLVALUE DUP1 ISZERO PUSH2 0x236 JUMPI PUSH0 PUSH0 REVERT JUMPDEST POP PUSH2 0x23F PUSH2 0xFF3 JUMP JUMPDEST PUSH1 0x40 MLOAD PUSH2 0x24C SWAP2 SWAP1 PUSH2 0x1B2A JUMP JUMPDEST PUSH1 0x40 MLOAD DUP1 SWAP2 SUB SWAP1 RETURN JUMPDEST CALLVALUE DUP1 ISZERO PUSH2 0x260 JUMPI PUSH0 PUSH0 REVERT JUMPDEST POP PUSH2 0x269 PUSH2 0x1017 JUMP JUMPDEST PUSH1 0x40 MLOAD PUSH2 0x276 SWAP2 SWAP1 PUSH2 0x1B2A JUMP JUMPDEST PUSH1 0x40 MLOAD DUP1 SWAP2 SUB SWAP1 RETURN JUMPDEST CALLVALUE DUP1 ISZERO PUSH2 0x28A JUMPI PUSH0 PUSH0 REVERT JUMPDEST POP PUSH2 0x293 PUSH2 0x101D JUMP JUMPDEST PUSH1 0x40 MLOAD PUSH2 0x2A0 SWAP2 SWAP1 PUSH2 0x1CA0 JUMP JUMPDEST PUSH1 0x40 MLOAD DUP1 SWAP2 SUB SWAP1 RETURN JUMPDEST CALLVALUE DUP1 ISZERO PUSH2 0x2B4 JUMPI PUSH0 PUSH0 REVERT JUMPDEST POP PUSH2 0x2BD PUSH2 0x1022 JUMP JUMPDEST PUSH1 0x40 MLOAD PUSH2 0x2CA SWAP2 SWAP1 PUSH2 0x1C6C JUMP JUMPDEST PUSH1 0x40 MLOAD DUP1 SWAP2 SUB SWAP1 RETURN JUMPDEST CALLVALUE DUP1 ISZERO PUSH2 0x2DE JUMPI PUSH0 PUSH0 REVERT JUMPDEST POP PUSH2 0x2E7 PUSH2 0x1046 JUMP JUMPDEST PUSH1 0x40 MLOAD PUSH2 0x2F4 SWAP2 SWAP1 PUSH2 0x1B2A JUMP JUMPDEST PUSH1 0x40 MLOAD DUP1 SWAP2 SUB SWAP1 RETURN JUMPDEST CALLVALUE DUP1 ISZERO PUSH2 0x308 JUMPI PUSH0 PUSH0 REVERT JUMPDEST POP PUSH2 0x311 PUSH2 0x104C JUMP JUMPDEST PUSH1 0x40 MLOAD PUSH2 0x31E SWAP2 SWAP1 PUSH2 0x1B2A JUMP JUMPDEST PUSH1 0x40 MLOAD DUP1 SWAP2 SUB SWAP1 RETURN JUMPDEST CALLVALUE DUP1 ISZERO PUSH2 0x332 JUMPI PUSH0 PUSH0 REVERT JUMPDEST POP PUSH2 0x34D PUSH1 0x4 DUP1 CALLDATASIZE SUB DUP2 ADD SWAP1 PUSH2 0x348 SWAP2 SWAP1 PUSH2 0x1CB9 JUMP JUMPDEST PUSH2 0x1070 JUMP JUMPDEST STOP JUMPDEST PUSH2 0x357 PUSH2 0x145B JUMP JUMPDEST STOP JUMPDEST CALLVALUE DUP1 ISZERO PUSH2 0x364 JUMPI PUSH0 PUSH0 REVERT JUMPDEST POP PUSH2 0x37F PUSH1 0x4 DUP1 CALLDATASIZE SUB DUP2 ADD SWAP1 PUSH2 0x37A SWAP2 SWAP1 PUSH2 0x1B43 JUMP JUMPDEST PUSH2 0x16DB JUMP JUMPDEST PUSH1 0x40 MLOAD PUSH2 0x38C SWAP2 SWAP1 PUSH2 0x1B2A JUMP JUMPDEST PUSH1 0x40 MLOAD DUP1 SWAP2 SUB SWAP1 RETURN JUMPDEST PUSH0 PUSH0 SWAP1 SLOAD SWAP1 PUSH2 0x100 EXP SWAP1 DIV PUSH20 0xFFFFFFFFFFFFFFFFFFFFFFFFFFFFFFFFFFFFFFFF AND PUSH20 0xFFFFFFFFFFFFFFFFFFFFFFFFFFFFFFFFFFFFFFFF AND CALLER PUSH20 0xFFFFFFFFFFFFFFFFFFFFFFFFFFFFFFFFFFFFFFFF AND EQ PUSH2 0x41A JUMPI PUSH1 0x40 MLOAD PUSH32 0xCC12CEF600000000000000000000000000000000000000000000000000000000 DUP2 MSTORE PUSH1 0x4 ADD PUSH1 0x40 MLOAD DUP1 SWAP2 SUB SWAP1 REVERT JUMPDEST PUSH0 PUSH20 0xFFFFFFFFFFFFFFFFFFFFFFFFFFFFFFFFFFFFFFFF AND DUP2 PUSH20 0xFFFFFFFFFFFFFFFFFFFFFFFFFFFFFFFFFFFFFFFF AND SUB PUSH2 0x488 JUMPI PUSH1 0x40 MLOAD PUSH32 0x8C379A000000000000000000000000000000000000000000000000000000000 DUP2 MSTORE PUSH1 0x4 ADD PUSH2 0x47F SWAP1 PUSH2 0x1D3E JUMP JUMPDEST PUSH1 0x40 MLOAD DUP1 SWAP2 SUB SWAP1 REVERT JUMPDEST PUSH0 PUSH0 PUSH0 SWAP1 SLOAD SWAP1 PUSH2 0x100 EXP SWAP1 DIV PUSH20 0xFFFFFFFFFFFFFFFFFFFFFFFFFFFFFFFFFFFFFFFF AND SWAP1 POP DUP2 PUSH0 PUSH0 PUSH2 0x100 EXP DUP2 SLOAD DUP2 PUSH20 0xFFFFFFFFFFFFFFFFFFFFFFFFFFFFFFFFFFFFFFFF MUL NOT AND SWAP1 DUP4 PUSH20 0xFFFFFFFFFFFFFFFFFFFFFFFFFFFFFFFFFFFFFFFF AND MUL OR SWAP1 SSTORE POP DUP2 PUSH20 0xFFFFFFFFFFFFFFFFFFFFFFFFFFFFFFFFFFFFFFFF AND DUP2 PUSH20 0xFFFFFFFFFFFFFFFFFFFFFFFFFFFFFFFFFFFFFFFF AND PUSH32 0xB532073B38C83145E3E5135377A08BF9AAB55BC0FD7C1179CD4FB995D2A5159C PUSH1 0x40 MLOAD PUSH1 0x40 MLOAD DUP1 SWAP2 SUB SWAP1 LOG3 POP POP JUMP JUMPDEST PUSH1 0x5 SLOAD DUP2 JUMP JUMPDEST PUSH0 PUSH0 SWAP1 SLOAD SWAP1 PUSH2 0x100 EXP SWAP1 DIV PUSH20 0xFFFFFFFFFFFFFFFFFFFFFFFFFFFFFFFFFFFFFFFF AND PUSH20 0xFFFFFFFFFFFFFFFFFFFFFFFFFFFFFFFFFFFFFFFF AND CALLER PUSH20 0xFFFFFFFFFFFFFFFFFFFFFFFFFFFFFFFFFFFFFFFF AND EQ PUSH2 0x5D4 JUMPI PUSH1 0x40 MLOAD PUSH32 0xCC12CEF600000000000000000000000000000000000000000000000000000000 DUP2 MSTORE PUSH1 0x4 ADD PUSH1 0x40 MLOAD DUP1 SWAP2 SUB SWAP1 REVERT JUMPDEST DUP1 PUSH1 0x2 PUSH0 DUP5 PUSH20 0xFFFFFFFFFFFFFFFFFFFFFFFFFFFFFFFFFFFFFFFF AND PUSH20 0xFFFFFFFFFFFFFFFFFFFFFFFFFFFFFFFFFFFFFFFF AND DUP2 MSTORE PUSH1 0x20 ADD SWAP1 DUP2 MSTORE PUSH1 0x20 ADD PUSH0 KECCAK256 PUSH0 PUSH2 0x100 EXP DUP2 SLOAD DUP2 PUSH20 0xFFFFFFFFFFFFFFFFFFFFFFFFFFFFFFFFFFFFFFFF MUL NOT AND SWAP1 DUP4 PUSH20 0xFFFFFFFFFFFFFFFFFFFFFFFFFFFFFFFFFFFFFFFF AND MUL OR SWAP1 SSTORE POP DUP1 PUSH20 0xFFFFFFFFFFFFFFFFFFFFFFFFFFFFFFFFFFFFFFFF AND DUP3 PUSH20 0xFFFFFFFFFFFFFFFFFFFFFFFFFFFFFFFFFFFFFFFF AND PUSH32 0xD2D8394CF7549A5DDBC2BA3DD7B2DE8D53C891472D1F2907008ED6A10045FDAE PUSH1 0x40 MLOAD PUSH1 0x40 MLOAD DUP1 SWAP2 SUB SWAP1 LOG3 POP POP JUMP JUMPDEST PUSH0 PUSH0 SWAP1 SLOAD SWAP1 PUSH2 0x100 EXP SWAP1 DIV PUSH20 0xFFFFFFFFFFFFFFFFFFFFFFFFFFFFFFFFFFFFFFFF AND DUP2 JUMP JUMPDEST PUSH1 0x6 PUSH0 SWAP1 SLOAD SWAP1 PUSH2 0x100 EXP SWAP1 DIV PUSH1 0xFF AND ISZERO PUSH2 0x717 JUMPI PUSH1 0x40 MLOAD PUSH32 0x5A919CD900000000000000000000000000000000000000000000000000000000 DUP2 MSTORE PUSH1 0x4 ADD PUSH1 0x40 MLOAD DUP1 SWAP2 SUB SWAP1 REVERT JUMPDEST PUSH1 0x1 PUSH1 0x6 PUSH0 PUSH2 0x100 EXP DUP2 SLOAD DUP2 PUSH1 0xFF MUL NOT AND SWAP1 DUP4 ISZERO ISZERO MUL OR SWAP1 SSTORE POP DUP1 PUSH0 DUP2 SUB PUSH2 0x76B JUMPI PUSH1 0x40 MLOAD PUSH32 0x608294AC00000000000000000000000000000000000000000000000000000000 DUP2 MSTORE PUSH1 0x4 ADD PUSH1 0x40 MLOAD DUP1 SWAP2 SUB SWAP1 REVERT JUMPDEST PUSH0 PUSH20 0xFFFFFFFFFFFFFFFFFFFFFFFFFFFFFFFFFFFFFFFF AND DUP4 PUSH20 0xFFFFFFFFFFFFFFFFFFFFFFFFFFFFFFFFFFFFFFFF AND SUB PUSH2 0x7D0 JUMPI PUSH1 0x40 MLOAD PUSH32 0x608294AC00000000000000000000000000000000000000000000000000000000 DUP2 MSTORE PUSH1 0x4 ADD PUSH1 0x40 MLOAD DUP1 SWAP2 SUB SWAP1 REVERT JUMPDEST PUSH0 PUSH1 0x2 PUSH0 DUP6 PUSH20 0xFFFFFFFFFFFFFFFFFFFFFFFFFFFFFFFFFFFFFFFF AND PUSH20 0xFFFFFFFFFFFFFFFFFFFFFFFFFFFFFFFFFFFFFFFF AND DUP2 MSTORE PUSH1 0x20 ADD SWAP1 DUP2 MSTORE PUSH1 0x20 ADD PUSH0 KECCAK256 PUSH0 SWAP1 SLOAD SWAP1 PUSH2 0x100 EXP SWAP1 DIV PUSH20 0xFFFFFFFFFFFFFFFFFFFFFFFFFFFFFFFFFFFFFFFF AND SWAP1 POP PUSH0 PUSH20 0xFFFFFFFFFFFFFFFFFFFFFFFFFFFFFFFFFFFFFFFF AND DUP2 PUSH20 0xFFFFFFFFFFFFFFFFFFFFFFFFFFFFFFFFFFFFFFFF AND SUB PUSH2 0x895 JUMPI PUSH1 0x40 MLOAD PUSH32 0xCC12CEF600000000000000000000000000000000000000000000000000000000 DUP2 MSTORE PUSH1 0x4 ADD PUSH1 0x40 MLOAD DUP1 SWAP2 SUB SWAP1 REVERT JUMPDEST PUSH0 DUP5 PUSH20 0xFFFFFFFFFFFFFFFFFFFFFFFFFFFFFFFFFFFFFFFF AND PUSH4 0x23B872DD CALLER ADDRESS DUP8 PUSH1 0x40 MLOAD DUP5 PUSH4 0xFFFFFFFF AND PUSH1 0xE0 SHL DUP2 MSTORE PUSH1 0x4 ADD PUSH2 0x8D3 SWAP4 SWAP3 SWAP2 SWAP1 PUSH2 0x1D5C JUMP JUMPDEST PUSH1 0x20 PUSH1 0x40 MLOAD DUP1 DUP4 SUB DUP2 PUSH0 DUP8 GAS CALL ISZERO DUP1 ISZERO PUSH2 0x8EF JUMPI RETURNDATASIZE PUSH0 PUSH0 RETURNDATACOPY RETURNDATASIZE PUSH0 REVERT JUMPDEST POP POP POP POP PUSH1 0x40 MLOAD RETURNDATASIZE PUSH1 0x1F NOT PUSH1 0x1F DUP3 ADD AND DUP3 ADD DUP1 PUSH1 0x40 MSTORE POP DUP2 ADD SWAP1 PUSH2 0x913 SWAP2 SWAP1 PUSH2 0x1DC6 JUMP JUMPDEST SWAP1 POP DUP1 PUSH2 0x95B JUMPI CALLER DUP6 DUP6 PUSH1 0x40 MLOAD PUSH32 0x31E6E4E100000000000000000000000000000000000000000000000000000000 DUP2 MSTORE PUSH1 0x4 ADD PUSH2 0x952 SWAP4 SWAP3 SWAP2 SWAP1 PUSH2 0x1D5C JUMP JUMPDEST PUSH1 0x40 MLOAD DUP1 SWAP2 SUB SWAP1 REVERT JUMPDEST PUSH0 PUSH2 0x966 DUP7 DUP7 PUSH2 0x175D JUMP JUMPDEST SWAP1 POP PUSH32 0x0 DUP2 PUSH1 0x3 SLOAD PUSH2 0x997 SWAP2 SWAP1 PUSH2 0x1E1E JUMP JUMPDEST GT ISZERO PUSH2 0xA7C JUMPI DUP6 PUSH20 0xFFFFFFFFFFFFFFFFFFFFFFFFFFFFFFFFFFFFFFFF AND PUSH4 0xA9059CBB CALLER DUP8 PUSH1 0x40 MLOAD DUP4 PUSH4 0xFFFFFFFF AND PUSH1 0xE0 SHL DUP2 MSTORE PUSH1 0x4 ADD PUSH2 0x9D8 SWAP3 SWAP2 SWAP1 PUSH2 0x1E51 JUMP JUMPDEST PUSH1 0x20 PUSH1 0x40 MLOAD DUP1 DUP4 SUB DUP2 PUSH0 DUP8 GAS CALL ISZERO DUP1 ISZERO PUSH2 0x9F4 JUMPI RETURNDATASIZE PUSH0 PUSH0 RETURNDATACOPY RETURNDATASIZE PUSH0 REVERT JUMPDEST POP POP POP POP PUSH1 0x40 MLOAD RETURNDATASIZE PUSH1 0x1F NOT PUSH1 0x1F DUP3 ADD AND DUP3 ADD DUP1 PUSH1 0x40 MSTORE POP DUP2 ADD SWAP1 PUSH2 0xA18 SWAP2 SWAP1 PUSH2 0x1DC6 JUMP JUMPDEST POP DUP1 PUSH1 0x3 SLOAD PUSH32 0x0 PUSH1 0x40 MLOAD PUSH32 0xCFE6749800000000000000000000000000000000000000000000000000000000 DUP2 MSTORE PUSH1 0x4 ADD PUSH2 0xA73 SWAP4 SWAP3 SWAP2 SWAP1 PUSH2 0x1E78 JUMP JUMPDEST PUSH1 0x40 MLOAD DUP1 SWAP2 SUB SWAP1 REVERT JUMPDEST DUP5 PUSH1 0x1 PUSH0 DUP9 PUSH20 0xFFFFFFFFFFFFFFFFFFFFFFFFFFFFFFFFFFFFFFFF AND PUSH20 0xFFFFFFFFFFFFFFFFFFFFFFFFFFFFFFFFFFFFFFFF AND DUP2 MSTORE PUSH1 0x20 ADD SWAP1 DUP2 MSTORE PUSH1 0x20 ADD PUSH0 KECCAK256 PUSH0 CALLER PUSH20 0xFFFFFFFFFFFFFFFFFFFFFFFFFFFFFFFFFFFFFFFF AND PUSH20 0xFFFFFFFFFFFFFFFFFFFFFFFFFFFFFFFFFFFFFFFF AND DUP2 MSTORE PUSH1 0x20 ADD SWAP1 DUP2 MSTORE PUSH1 0x20 ADD PUSH0 KECCAK256 PUSH0 DUP3 DUP3 SLOAD PUSH2 0xB03 SWAP2 SWAP1 PUSH2 0x1E1E JUMP JUMPDEST SWAP3 POP POP DUP2 SWAP1 SSTORE POP PUSH1 0x4 PUSH0 DUP2 SLOAD DUP1 SWAP3 SWAP2 SWAP1 PUSH2 0xB1C SWAP1 PUSH2 0x1EAD JUMP JUMPDEST SWAP2 SWAP1 POP SSTORE POP DUP1 PUSH1 0x3 PUSH0 DUP3 DUP3 SLOAD PUSH2 0xB32 SWAP2 SWAP1 PUSH2 0x1E1E JUMP JUMPDEST SWAP3 POP POP DUP2 SWAP1 SSTORE POP DUP6 PUSH20 0xFFFFFFFFFFFFFFFFFFFFFFFFFFFFFFFFFFFFFFFF AND CALLER PUSH20 0xFFFFFFFFFFFFFFFFFFFFFFFFFFFFFFFFFFFFFFFF AND PUSH32 0xDCBC1C05240F31FF3AD067EF1EE35CE4997762752E3A095284754544F4C709D7 DUP8 DUP5 PUSH1 0x40 MLOAD PUSH2 0xB98 SWAP3 SWAP2 SWAP1 PUSH2 0x1EF4 JUMP JUMPDEST PUSH1 0x40 MLOAD DUP1 SWAP2 SUB SWAP1 LOG3 POP POP POP POP PUSH0 PUSH1 0x6 PUSH0 PUSH2 0x100 EXP DUP2 SLOAD DUP2 PUSH1 0xFF MUL NOT AND SWAP1 DUP4 ISZERO ISZERO MUL OR SWAP1 SSTORE POP POP POP JUMP JUMPDEST PUSH1 0x2 PUSH1 0x20 MSTORE DUP1 PUSH0 MSTORE PUSH1 0x40 PUSH0 KECCAK256 PUSH0 SWAP2 POP SLOAD SWAP1 PUSH2 0x100 EXP SWAP1 DIV PUSH20 0xFFFFFFFFFFFFFFFFFFFFFFFFFFFFFFFFFFFFFFFF AND DUP2 JUMP JUMPDEST PUSH1 0x6 PUSH0 SWAP1 SLOAD SWAP1 PUSH2 0x100 EXP SWAP1 DIV PUSH1 0xFF AND ISZERO PUSH2 0xC37 JUMPI PUSH1 0x40 MLOAD PUSH32 0x5A919CD900000000000000000000000000000000000000000000000000000000 DUP2 MSTORE PUSH1 0x4 ADD PUSH1 0x40 MLOAD DUP1 SWAP2 SUB SWAP1 REVERT JUMPDEST PUSH1 0x1 PUSH1 0x6 PUSH0 PUSH2 0x100 EXP DUP2 SLOAD DUP2 PUSH1 0xFF MUL NOT AND SWAP1 DUP4 ISZERO ISZERO MUL OR SWAP1 SSTORE POP DUP1 PUSH0 DUP2 SUB PUSH2 0xC8B JUMPI PUSH1 0x40 MLOAD PUSH32 0x608294AC00000000000000000000000000000000000000000000000000000000 DUP2 MSTORE PUSH1 0x4 ADD PUSH1 0x40 MLOAD DUP1 SWAP2 SUB SWAP1 REVERT JUMPDEST PUSH0 PUSH1 0x1 PUSH0 DUP6 PUSH20 0xFFFFFFFFFFFFFFFFFFFFFFFFFFFFFFFFFFFFFFFF AND PUSH20 0xFFFFFFFFFFFFFFFFFFFFFFFFFFFFFFFFFFFFFFFF AND DUP2 MSTORE PUSH1 0x20 ADD SWAP1 DUP2 MSTORE PUSH1 0x20 ADD PUSH0 KECCAK256 PUSH0 CALLER PUSH20 0xFFFFFFFFFFFFFFFFFFFFFFFFFFFFFFFFFFFFFFFF AND PUSH20 0xFFFFFFFFFFFFFFFFFFFFFFFFFFFFFFFFFFFFFFFF AND DUP2 MSTORE PUSH1 0x20 ADD SWAP1 DUP2 MSTORE PUSH1 0x20 ADD PUSH0 KECCAK256 SLOAD SWAP1 POP DUP1 DUP4 GT ISZERO PUSH2 0xD50 JUMPI DUP4 DUP2 DUP5 PUSH1 0x40 MLOAD PUSH32 0x483B38F200000000000000000000000000000000000000000000000000000000 DUP2 MSTORE PUSH1 0x4 ADD PUSH2 0xD47 SWAP4 SWAP3 SWAP2 SWAP1 PUSH2 0x1F1B JUMP JUMPDEST PUSH1 0x40 MLOAD DUP1 SWAP2 SUB SWAP1 REVERT JUMPDEST PUSH0 PUSH2 0xD5B DUP6 DUP6 PUSH2 0x175D JUMP JUMPDEST SWAP1 POP PUSH32 0x0 DUP2 GT ISZERO PUSH2 0xDE4 JUMPI DUP1 PUSH32 0x0 PUSH1 0x40 MLOAD PUSH32 0x2996304900000000000000000000000000000000000000000000000000000000 DUP2 MSTORE PUSH1 0x4 ADD PUSH2 0xDDB SWAP3 SWAP2 SWAP1 PUSH2 0x1EF4 JUMP JUMPDEST PUSH1 0x40 MLOAD DUP1 SWAP2 SUB SWAP1 REVERT JUMPDEST DUP4 DUP3 PUSH2 0xDF0 SWAP2 SWAP1 PUSH2 0x1F50 JUMP JUMPDEST PUSH1 0x1 PUSH0 DUP8 PUSH20 0xFFFFFFFFFFFFFFFFFFFFFFFFFFFFFFFFFFFFFFFF AND PUSH20 0xFFFFFFFFFFFFFFFFFFFFFFFFFFFFFFFFFFFFFFFF AND DUP2 MSTORE PUSH1 0x20 ADD SWAP1 DUP2 MSTORE PUSH1 0x20 ADD PUSH0 KECCAK256 PUSH0 CALLER PUSH20 0xFFFFFFFFFFFFFFFFFFFFFFFFFFFFFFFFFFFFFFFF AND PUSH20 0xFFFFFFFFFFFFFFFFFFFFFFFFFFFFFFFFFFFFFFFF AND DUP2 MSTORE PUSH1 0x20 ADD SWAP1 DUP2 MSTORE PUSH1 0x20 ADD PUSH0 KECCAK256 DUP2 SWAP1 SSTORE POP PUSH1 0x5 PUSH0 DUP2 SLOAD DUP1 SWAP3 SWAP2 SWAP1 PUSH2 0xE7E SWAP1 PUSH2 0x1EAD JUMP JUMPDEST SWAP2 SWAP1 POP SSTORE POP PUSH1 0x3 SLOAD DUP2 GT PUSH2 0xE9F JUMPI DUP1 PUSH1 0x3 SLOAD PUSH2 0xE9A SWAP2 SWAP1 PUSH2 0x1F50 JUMP JUMPDEST PUSH2 0xEA1 JUMP JUMPDEST PUSH0 JUMPDEST PUSH1 0x3 DUP2 SWAP1 SSTORE POP PUSH0 DUP6 PUSH20 0xFFFFFFFFFFFFFFFFFFFFFFFFFFFFFFFFFFFFFFFF AND PUSH4 0xA9059CBB CALLER DUP8 PUSH1 0x40 MLOAD DUP4 PUSH4 0xFFFFFFFF AND PUSH1 0xE0 SHL DUP2 MSTORE PUSH1 0x4 ADD PUSH2 0xEE3 SWAP3 SWAP2 SWAP1 PUSH2 0x1E51 JUMP JUMPDEST PUSH1 0x20 PUSH1 0x40 MLOAD DUP1 DUP4 SUB DUP2 PUSH0 DUP8 GAS CALL ISZERO DUP1 ISZERO PUSH2 0xEFF JUMPI RETURNDATASIZE PUSH0 PUSH0 RETURNDATACOPY RETURNDATASIZE PUSH0 REVERT JUMPDEST POP POP POP POP PUSH1 0x40 MLOAD RETURNDATASIZE PUSH1 0x1F NOT PUSH1 0x1F DUP3 ADD AND DUP3 ADD DUP1 PUSH1 0x40 MSTORE POP DUP2 ADD SWAP1 PUSH2 0xF23 SWAP2 SWAP1 PUSH2 0x1DC6 JUMP JUMPDEST SWAP1 POP DUP1 PUSH2 0xF6B JUMPI CALLER DUP7 DUP7 PUSH1 0x40 MLOAD PUSH32 0x31E6E4E100000000000000000000000000000000000000000000000000000000 DUP2 MSTORE PUSH1 0x4 ADD PUSH2 0xF62 SWAP4 SWAP3 SWAP2 SWAP1 PUSH2 0x1D5C JUMP JUMPDEST PUSH1 0x40 MLOAD DUP1 SWAP2 SUB SWAP1 REVERT JUMPDEST DUP6 PUSH20 0xFFFFFFFFFFFFFFFFFFFFFFFFFFFFFFFFFFFFFFFF AND CALLER PUSH20 0xFFFFFFFFFFFFFFFFFFFFFFFFFFFFFFFFFFFFFFFF AND PUSH32 0xF341246ADAAC6F497BC2A656F546AB9E182111D630394F0C57C710A59A2CB567 DUP8 DUP6 PUSH1 0x40 MLOAD PUSH2 0xFCA SWAP3 SWAP2 SWAP1 PUSH2 0x1EF4 JUMP JUMPDEST PUSH1 0x40 MLOAD DUP1 SWAP2 SUB SWAP1 LOG3 POP POP POP POP PUSH0 PUSH1 0x6 PUSH0 PUSH2 0x100 EXP DUP2 SLOAD DUP2 PUSH1 0xFF MUL NOT AND SWAP1 DUP4 ISZERO ISZERO MUL OR SWAP1 SSTORE POP POP POP JUMP JUMPDEST PUSH32 0x0 DUP2 JUMP JUMPDEST PUSH1 0x3 SLOAD DUP2 JUMP JUMPDEST PUSH1 0x6 DUP2 JUMP JUMPDEST PUSH32 0x0 DUP2 JUMP JUMPDEST PUSH1 0x4 SLOAD DUP2 JUMP JUMPDEST PUSH32 0x0 DUP2 JUMP JUMPDEST PUSH1 0x6 PUSH0 SWAP1 SLOAD SWAP1 PUSH2 0x100 EXP SWAP1 DIV PUSH1 0xFF AND ISZERO PUSH2 0x10B6 JUMPI PUSH1 0x40 MLOAD PUSH32 0x5A919CD900000000000000000000000000000000000000000000000000000000 DUP2 MSTORE PUSH1 0x4 ADD PUSH1 0x40 MLOAD DUP1 SWAP2 SUB SWAP1 REVERT JUMPDEST PUSH1 0x1 PUSH1 0x6 PUSH0 PUSH2 0x100 EXP DUP2 SLOAD DUP2 PUSH1 0xFF MUL NOT AND SWAP1 DUP4 ISZERO ISZERO MUL OR SWAP1 SSTORE POP DUP1 PUSH0 DUP2 SUB PUSH2 0x110A JUMPI PUSH1 0x40 MLOAD PUSH32 0x608294AC00000000000000000000000000000000000000000000000000000000 DUP2 MSTORE PUSH1 0x4 ADD PUSH1 0x40 MLOAD DUP1 SWAP2 SUB SWAP1 REVERT JUMPDEST PUSH0 PUSH1 0x1 PUSH0 PUSH0 PUSH20 0xFFFFFFFFFFFFFFFFFFFFFFFFFFFFFFFFFFFFFFFF AND PUSH20 0xFFFFFFFFFFFFFFFFFFFFFFFFFFFFFFFFFFFFFFFF AND DUP2 MSTORE PUSH1 0x20 ADD SWAP1 DUP2 MSTORE PUSH1 0x20 ADD PUSH0 KECCAK256 PUSH0 CALLER PUSH20 0xFFFFFFFFFFFFFFFFFFFFFFFFFFFFFFFFFFFFFFFF AND PUSH20 0xFFFFFFFFFFFFFFFFFFFFFFFFFFFFFFFFFFFFFFFF AND DUP2 MSTORE PUSH1 0x20 ADD SWAP1 DUP2 MSTORE PUSH1 0x20 ADD PUSH0 KECCAK256 SLOAD SWAP1 POP DUP1 DUP4 GT ISZERO PUSH2 0x11CF JUMPI PUSH0 DUP2 DUP5 PUSH1 0x40 MLOAD PUSH32 0x483B38F200000000000000000000000000000000000000000000000000000000 DUP2 MSTORE PUSH1 0x4 ADD PUSH2 0x11C6 SWAP4 SWAP3 SWAP2 SWAP1 PUSH2 0x1F1B JUMP JUMPDEST PUSH1 0x40 MLOAD DUP1 SWAP2 SUB SWAP1 REVERT JUMPDEST PUSH0 PUSH2 0x11DA PUSH0 DUP6 PUSH2 0x175D JUMP JUMPDEST SWAP1 POP PUSH32 0x0 DUP2 GT ISZERO PUSH2 0x1263 JUMPI DUP1 PUSH32 0x0 PUSH1 0x40 MLOAD PUSH32 0x2996304900000000000000000000000000000000000000000000000000000000 DUP2 MSTORE PUSH1 0x4 ADD PUSH2 0x125A SWAP3 SWAP2 SWAP1 PUSH2 0x1EF4 JUMP JUMPDEST PUSH1 0x40 MLOAD DUP1 SWAP2 SUB SWAP1 REVERT JUMPDEST DUP4 DUP3 PUSH2 0x126F SWAP2 SWAP1 PUSH2 0x1F50 JUMP JUMPDEST PUSH1 0x1 PUSH0 PUSH0 PUSH20 0xFFFFFFFFFFFFFFFFFFFFFFFFFFFFFFFFFFFFFFFF AND PUSH20 0xFFFFFFFFFFFFFFFFFFFFFFFFFFFFFFFFFFFFFFFF AND DUP2 MSTORE PUSH1 0x20 ADD SWAP1 DUP2 MSTORE PUSH1 0x20 ADD PUSH0 KECCAK256 PUSH0 CALLER PUSH20 0xFFFFFFFFFFFFFFFFFFFFFFFFFFFFFFFFFFFFFFFF AND PUSH20 0xFFFFFFFFFFFFFFFFFFFFFFFFFFFFFFFFFFFFFFFF AND DUP2 MSTORE PUSH1 0x20 ADD SWAP1 DUP2 MSTORE PUSH1 0x20 ADD PUSH0 KECCAK256 DUP2 SWAP1 SSTORE POP PUSH1 0x5 PUSH0 DUP2 SLOAD DUP1 SWAP3 SWAP2 SWAP1 PUSH2 0x12FD SWAP1 PUSH2 0x1EAD JUMP JUMPDEST SWAP2 SWAP1 POP SSTORE POP PUSH1 0x3 SLOAD DUP2 GT PUSH2 0x131E JUMPI DUP1 PUSH1 0x3 SLOAD PUSH2 0x1319 SWAP2 SWAP1 PUSH2 0x1F50 JUMP JUMPDEST PUSH2 0x1320 JUMP JUMPDEST PUSH0 JUMPDEST PUSH1 0x3 DUP2 SWAP1 SSTORE POP PUSH0 CALLER PUSH20 0xFFFFFFFFFFFFFFFFFFFFFFFFFFFFFFFFFFFFFFFF AND DUP6 PUSH1 0x40 MLOAD PUSH2 0x134B SWAP1 PUSH2 0x1FB0 JUMP JUMPDEST PUSH0 PUSH1 0x40 MLOAD DUP1 DUP4 SUB DUP2 DUP6 DUP8 GAS CALL SWAP3 POP POP POP RETURNDATASIZE DUP1 PUSH0 DUP2 EQ PUSH2 0x1385 JUMPI PUSH1 0x40 MLOAD SWAP2 POP PUSH1 0x1F NOT PUSH1 0x3F RETURNDATASIZE ADD AND DUP3 ADD PUSH1 0x40 MSTORE RETURNDATASIZE DUP3 MSTORE RETURNDATASIZE PUSH0 PUSH1 0x20 DUP5 ADD RETURNDATACOPY PUSH2 0x138A JUMP JUMPDEST PUSH1 0x60 SWAP2 POP JUMPDEST POP POP SWAP1 POP DUP1 PUSH2 0x13D4 JUMPI CALLER PUSH0 DUP7 PUSH1 0x40 MLOAD PUSH32 0x31E6E4E100000000000000000000000000000000000000000000000000000000 DUP2 MSTORE PUSH1 0x4 ADD PUSH2 0x13CB SWAP4 SWAP3 SWAP2 SWAP1 PUSH2 0x1D5C JUMP JUMPDEST PUSH1 0x40 MLOAD DUP1 SWAP2 SUB SWAP1 REVERT JUMPDEST PUSH0 PUSH20 0xFFFFFFFFFFFFFFFFFFFFFFFFFFFFFFFFFFFFFFFF AND CALLER PUSH20 0xFFFFFFFFFFFFFFFFFFFFFFFFFFFFFFFFFFFFFFFF AND PUSH32 0xF341246ADAAC6F497BC2A656F546AB9E182111D630394F0C57C710A59A2CB567 DUP8 DUP6 PUSH1 0x40 MLOAD PUSH2 0x1433 SWAP3 SWAP2 SWAP1 PUSH2 0x1EF4 JUMP JUMPDEST PUSH1 0x40 MLOAD DUP1 SWAP2 SUB SWAP1 LOG3 POP POP POP POP PUSH0 PUSH1 0x6 PUSH0 PUSH2 0x100 EXP DUP2 SLOAD DUP2 PUSH1 0xFF MUL NOT AND SWAP1 DUP4 ISZERO ISZERO MUL OR SWAP1 SSTORE POP POP JUMP JUMPDEST PUSH1 0x6 PUSH0 SWAP1 SLOAD SWAP1 PUSH2 0x100 EXP SWAP1 DIV PUSH1 0xFF AND ISZERO PUSH2 0x14A1 JUMPI PUSH1 0x40 MLOAD PUSH32 0x5A919CD900000000000000000000000000000000000000000000000000000000 DUP2 MSTORE PUSH1 0x4 ADD PUSH1 0x40 MLOAD DUP1 SWAP2 SUB SWAP1 REVERT JUMPDEST PUSH1 0x1 PUSH1 0x6 PUSH0 PUSH2 0x100 EXP DUP2 SLOAD DUP2 PUSH1 0xFF MUL NOT AND SWAP1 DUP4 ISZERO ISZERO MUL OR SWAP1 SSTORE POP CALLVALUE PUSH0 DUP2 SUB PUSH2 0x14F5 JUMPI PUSH1 0x40 MLOAD PUSH32 0x608294AC00000000000000000000000000000000000000000000000000000000 DUP2 MSTORE PUSH1 0x4 ADD PUSH1 0x40 MLOAD DUP1 SWAP2 SUB SWAP1 REVERT JUMPDEST PUSH0 PUSH2 0x1500 PUSH0 CALLVALUE PUSH2 0x175D JUMP JUMPDEST SWAP1 POP PUSH32 0x0 DUP2 PUSH1 0x3 SLOAD PUSH2 0x1531 SWAP2 SWAP1 PUSH2 0x1E1E JUMP JUMPDEST GT ISZERO PUSH2 0x159A JUMPI DUP1 PUSH1 0x3 SLOAD PUSH32 0x0 PUSH1 0x40 MLOAD PUSH32 0xCFE6749800000000000000000000000000000000000000000000000000000000 DUP2 MSTORE PUSH1 0x4 ADD PUSH2 0x1591 SWAP4 SWAP3 SWAP2 SWAP1 PUSH2 0x1E78 JUMP JUMPDEST PUSH1 0x40 MLOAD DUP1 SWAP2 SUB SWAP1 REVERT JUMPDEST CALLVALUE PUSH1 0x1 PUSH0 PUSH0 PUSH20 0xFFFFFFFFFFFFFFFFFFFFFFFFFFFFFFFFFFFFFFFF AND PUSH20 0xFFFFFFFFFFFFFFFFFFFFFFFFFFFFFFFFFFFFFFFF AND DUP2 MSTORE PUSH1 0x20 ADD SWAP1 DUP2 MSTORE PUSH1 0x20 ADD PUSH0 KECCAK256 PUSH0 CALLER PUSH20 0xFFFFFFFFFFFFFFFFFFFFFFFFFFFFFFFFFFFFFFFF AND PUSH20 0xFFFFFFFFFFFFFFFFFFFFFFFFFFFFFFFFFFFFFFFF AND DUP2 MSTORE PUSH1 0x20 ADD SWAP1 DUP2 MSTORE PUSH1 0x20 ADD PUSH0 KECCAK256 PUSH0 DUP3 DUP3 SLOAD PUSH2 0x1621 SWAP2 SWAP1 PUSH2 0x1E1E JUMP JUMPDEST SWAP3 POP POP DUP2 SWAP1 SSTORE POP PUSH1 0x4 PUSH0 DUP2 SLOAD DUP1 SWAP3 SWAP2 SWAP1 PUSH2 0x163A SWAP1 PUSH2 0x1EAD JUMP JUMPDEST SWAP2 SWAP1 POP SSTORE POP DUP1 PUSH1 0x3 PUSH0 DUP3 DUP3 SLOAD PUSH2 0x1650 SWAP2 SWAP1 PUSH2 0x1E1E JUMP JUMPDEST SWAP3 POP POP DUP2 SWAP1 SSTORE POP PUSH0 PUSH20 0xFFFFFFFFFFFFFFFFFFFFFFFFFFFFFFFFFFFFFFFF AND CALLER PUSH20 0xFFFFFFFFFFFFFFFFFFFFFFFFFFFFFFFFFFFFFFFF AND PUSH32 0xDCBC1C05240F31FF3AD067EF1EE35CE4997762752E3A095284754544F4C709D7 CALLVALUE DUP5 PUSH1 0x40 MLOAD PUSH2 0x16B6 SWAP3 SWAP2 SWAP1 PUSH2 0x1EF4 JUMP JUMPDEST PUSH1 0x40 MLOAD DUP1 SWAP2 SUB SWAP1 LOG3 POP POP PUSH0 PUSH1 0x6 PUSH0 PUSH2 0x100 EXP DUP2 SLOAD DUP2 PUSH1 0xFF MUL NOT AND SWAP1 DUP4 ISZERO ISZERO MUL OR SWAP1 SSTORE POP JUMP JUMPDEST PUSH0 PUSH1 0x1 PUSH0 DUP5 PUSH20 0xFFFFFFFFFFFFFFFFFFFFFFFFFFFFFFFFFFFFFFFF AND PUSH20 0xFFFFFFFFFFFFFFFFFFFFFFFFFFFFFFFFFFFFFFFF AND DUP2 MSTORE PUSH1 0x20 ADD SWAP1 DUP2 MSTORE PUSH1 0x20 ADD PUSH0 KECCAK256 PUSH0 DUP4 PUSH20 0xFFFFFFFFFFFFFFFFFFFFFFFFFFFFFFFFFFFFFFFF AND PUSH20 0xFFFFFFFFFFFFFFFFFFFFFFFFFFFFFFFFFFFFFFFF AND DUP2 MSTORE PUSH1 0x20 ADD SWAP1 DUP2 MSTORE PUSH1 0x20 ADD PUSH0 KECCAK256 SLOAD SWAP1 POP SWAP3 SWAP2 POP POP JUMP JUMPDEST PUSH0 PUSH0 PUSH2 0x1768 DUP5 PUSH2 0x19C2 JUMP JUMPDEST SWAP1 POP PUSH0 DUP2 PUSH20 0xFFFFFFFFFFFFFFFFFFFFFFFFFFFFFFFFFFFFFFFF AND PUSH4 0xFEAF968C PUSH1 0x40 MLOAD DUP2 PUSH4 0xFFFFFFFF AND PUSH1 0xE0 SHL DUP2 MSTORE PUSH1 0x4 ADD PUSH1 0xA0 PUSH1 0x40 MLOAD DUP1 DUP4 SUB DUP2 DUP7 GAS STATICCALL ISZERO DUP1 ISZERO PUSH2 0x17B4 JUMPI RETURNDATASIZE PUSH0 PUSH0 RETURNDATACOPY RETURNDATASIZE PUSH0 REVERT JUMPDEST POP POP POP POP PUSH1 0x40 MLOAD RETURNDATASIZE PUSH1 0x1F NOT PUSH1 0x1F DUP3 ADD AND DUP3 ADD DUP1 PUSH1 0x40 MSTORE POP DUP2 ADD SWAP1 PUSH2 0x17D8 SWAP2 SWAP1 PUSH2 0x204A JUMP JUMPDEST POP POP POP SWAP2 POP POP PUSH0 DUP3 PUSH20 0xFFFFFFFFFFFFFFFFFFFFFFFFFFFFFFFFFFFFFFFF AND PUSH4 0x313CE567 PUSH1 0x40 MLOAD DUP2 PUSH4 0xFFFFFFFF AND PUSH1 0xE0 SHL DUP2 MSTORE PUSH1 0x4 ADD PUSH1 0x20 PUSH1 0x40 MLOAD DUP1 DUP4 SUB DUP2 DUP7 GAS STATICCALL ISZERO DUP1 ISZERO PUSH2 0x1828 JUMPI RETURNDATASIZE PUSH0 PUSH0 RETURNDATACOPY RETURNDATASIZE PUSH0 REVERT JUMPDEST POP POP POP POP PUSH1 0x40 MLOAD RETURNDATASIZE PUSH1 0x1F NOT PUSH1 0x1F DUP3 ADD AND DUP3 ADD DUP1 PUSH1 0x40 MSTORE POP DUP2 ADD SWAP1 PUSH2 0x184C SWAP2 SWAP1 PUSH2 0x20EB JUMP JUMPDEST SWAP1 POP PUSH0 DUP3 SGT PUSH2 0x1860 JUMPI PUSH0 SWAP4 POP POP POP POP PUSH2 0x19BC JUMP JUMPDEST PUSH0 PUSH1 0x12 SWAP1 POP PUSH0 PUSH20 0xFFFFFFFFFFFFFFFFFFFFFFFFFFFFFFFFFFFFFFFF AND DUP8 PUSH20 0xFFFFFFFFFFFFFFFFFFFFFFFFFFFFFFFFFFFFFFFF AND EQ PUSH2 0x1913 JUMPI DUP7 PUSH20 0xFFFFFFFFFFFFFFFFFFFFFFFFFFFFFFFFFFFFFFFF AND PUSH4 0x313CE567 PUSH1 0x40 MLOAD DUP2 PUSH4 0xFFFFFFFF AND PUSH1 0xE0 SHL DUP2 MSTORE PUSH1 0x4 ADD PUSH1 0x20 PUSH1 0x40 MLOAD DUP1 DUP4 SUB DUP2 DUP7 GAS STATICCALL SWAP3 POP POP POP DUP1 ISZERO PUSH2 0x1900 JUMPI POP PUSH1 0x40 MLOAD RETURNDATASIZE PUSH1 0x1F NOT PUSH1 0x1F DUP3 ADD AND DUP3 ADD DUP1 PUSH1 0x40 MSTORE POP DUP2 ADD SWAP1 PUSH2 0x18FD SWAP2 SWAP1 PUSH2 0x20EB JUMP JUMPDEST PUSH1 0x1 JUMPDEST PUSH2 0x190D JUMPI PUSH1 0x12 SWAP1 POP PUSH2 0x1912 JUMP JUMPDEST DUP1 SWAP2 POP POP JUMPDEST JUMPDEST PUSH0 DUP7 DUP5 PUSH2 0x1920 SWAP2 SWAP1 PUSH2 0x2116 JUMP JUMPDEST SWAP1 POP PUSH0 PUSH1 0x6 PUSH1 0xFF AND DUP5 DUP5 PUSH2 0x1934 SWAP2 SWAP1 PUSH2 0x2157 JUMP JUMPDEST PUSH1 0xFF AND LT PUSH2 0x197E JUMPI PUSH1 0x6 DUP5 DUP5 PUSH2 0x194A SWAP2 SWAP1 PUSH2 0x2157 JUMP JUMPDEST PUSH2 0x1954 SWAP2 SWAP1 PUSH2 0x218B JUMP JUMPDEST PUSH1 0xFF AND SWAP1 POP DUP1 PUSH1 0xA PUSH2 0x1966 SWAP2 SWAP1 PUSH2 0x22EE JUMP JUMPDEST DUP3 PUSH2 0x1971 SWAP2 SWAP1 PUSH2 0x2365 JUMP JUMPDEST SWAP7 POP POP POP POP POP POP POP PUSH2 0x19BC JUMP JUMPDEST DUP4 DUP4 PUSH2 0x198A SWAP2 SWAP1 PUSH2 0x2157 JUMP JUMPDEST PUSH1 0x6 PUSH2 0x1996 SWAP2 SWAP1 PUSH2 0x218B JUMP JUMPDEST PUSH1 0xFF AND SWAP1 POP DUP1 PUSH1 0xA PUSH2 0x19A8 SWAP2 SWAP1 PUSH2 0x22EE JUMP JUMPDEST DUP3 PUSH2 0x19B3 SWAP2 SWAP1 PUSH2 0x2116 JUMP JUMPDEST SWAP7 POP POP POP POP POP POP POP JUMPDEST SWAP3 SWAP2 POP POP JUMP JUMPDEST PUSH0 PUSH0 PUSH1 0x2 PUSH0 DUP5 PUSH20 0xFFFFFFFFFFFFFFFFFFFFFFFFFFFFFFFFFFFFFFFF AND PUSH20 0xFFFFFFFFFFFFFFFFFFFFFFFFFFFFFFFFFFFFFFFF AND DUP2 MSTORE PUSH1 0x20 ADD SWAP1 DUP2 MSTORE PUSH1 0x20 ADD PUSH0 KECCAK256 PUSH0 SWAP1 SLOAD SWAP1 PUSH2 0x100 EXP SWAP1 DIV PUSH20 0xFFFFFFFFFFFFFFFFFFFFFFFFFFFFFFFFFFFFFFFF AND SWAP1 POP PUSH0 PUSH20 0xFFFFFFFFFFFFFFFFFFFFFFFFFFFFFFFFFFFFFFFF AND DUP2 PUSH20 0xFFFFFFFFFFFFFFFFFFFFFFFFFFFFFFFFFFFFFFFF AND SUB PUSH2 0x1A7F JUMPI PUSH32 0x0 SWAP2 POP POP PUSH2 0x1A84 JUMP JUMPDEST DUP1 SWAP2 POP POP JUMPDEST SWAP2 SWAP1 POP JUMP JUMPDEST PUSH0 PUSH0 REVERT JUMPDEST PUSH0 PUSH20 0xFFFFFFFFFFFFFFFFFFFFFFFFFFFFFFFFFFFFFFFF DUP3 AND SWAP1 POP SWAP2 SWAP1 POP JUMP JUMPDEST PUSH0 PUSH2 0x1AB6 DUP3 PUSH2 0x1A8D JUMP JUMPDEST SWAP1 POP SWAP2 SWAP1 POP JUMP JUMPDEST PUSH2 0x1AC6 DUP2 PUSH2 0x1AAC JUMP JUMPDEST DUP2 EQ PUSH2 0x1AD0 JUMPI PUSH0 PUSH0 REVERT JUMPDEST POP JUMP JUMPDEST PUSH0 DUP2 CALLDATALOAD SWAP1 POP PUSH2 0x1AE1 DUP2 PUSH2 0x1ABD JUMP JUMPDEST SWAP3 SWAP2 POP POP JUMP JUMPDEST PUSH0 PUSH1 0x20 DUP3 DUP5 SUB SLT ISZERO PUSH2 0x1AFC JUMPI PUSH2 0x1AFB PUSH2 0x1A89 JUMP JUMPDEST JUMPDEST PUSH0 PUSH2 0x1B09 DUP5 DUP3 DUP6 ADD PUSH2 0x1AD3 JUMP JUMPDEST SWAP2 POP POP SWAP3 SWAP2 POP POP JUMP JUMPDEST PUSH0 DUP2 SWAP1 POP SWAP2 SWAP1 POP JUMP JUMPDEST PUSH2 0x1B24 DUP2 PUSH2 0x1B12 JUMP JUMPDEST DUP3 MSTORE POP POP JUMP JUMPDEST PUSH0 PUSH1 0x20 DUP3 ADD SWAP1 POP PUSH2 0x1B3D PUSH0 DUP4 ADD DUP5 PUSH2 0x1B1B JUMP JUMPDEST SWAP3 SWAP2 POP POP JUMP JUMPDEST PUSH0 PUSH0 PUSH1 0x40 DUP4 DUP6 SUB SLT ISZERO PUSH2 0x1B59 JUMPI PUSH2 0x1B58 PUSH2 0x1A89 JUMP JUMPDEST JUMPDEST PUSH0 PUSH2 0x1B66 DUP6 DUP3 DUP7 ADD PUSH2 0x1AD3 JUMP JUMPDEST SWAP3 POP POP PUSH1 0x20 PUSH2 0x1B77 DUP6 DUP3 DUP7 ADD PUSH2 0x1AD3 JUMP JUMPDEST SWAP2 POP POP SWAP3 POP SWAP3 SWAP1 POP JUMP JUMPDEST PUSH2 0x1B8A DUP2 PUSH2 0x1AAC JUMP JUMPDEST DUP3 MSTORE POP POP JUMP JUMPDEST PUSH0 PUSH1 0x20 DUP3 ADD SWAP1 POP PUSH2 0x1BA3 PUSH0 DUP4 ADD DUP5 PUSH2 0x1B81 JUMP JUMPDEST SWAP3 SWAP2 POP POP JUMP JUMPDEST PUSH2 0x1BB2 DUP2 PUSH2 0x1B12 JUMP JUMPDEST DUP2 EQ PUSH2 0x1BBC JUMPI PUSH0 PUSH0 REVERT JUMPDEST POP JUMP JUMPDEST PUSH0 DUP2 CALLDATALOAD SWAP1 POP PUSH2 0x1BCD DUP2 PUSH2 0x1BA9 JUMP JUMPDEST SWAP3 SWAP2 POP POP JUMP JUMPDEST PUSH0 PUSH0 PUSH1 0x40 DUP4 DUP6 SUB SLT ISZERO PUSH2 0x1BE9 JUMPI PUSH2 0x1BE8 PUSH2 0x1A89 JUMP JUMPDEST JUMPDEST PUSH0 PUSH2 0x1BF6 DUP6 DUP3 DUP7 ADD PUSH2 0x1AD3 JUMP JUMPDEST SWAP3 POP POP PUSH1 0x20 PUSH2 0x1C07 DUP6 DUP3 DUP7 ADD PUSH2 0x1BBF JUMP JUMPDEST SWAP2 POP POP SWAP3 POP SWAP3 SWAP1 POP JUMP JUMPDEST PUSH0 DUP2 SWAP1 POP SWAP2 SWAP1 POP JUMP JUMPDEST PUSH0 PUSH2 0x1C34 PUSH2 0x1C2F PUSH2 0x1C2A DUP5 PUSH2 0x1A8D JUMP JUMPDEST PUSH2 0x1C11 JUMP JUMPDEST PUSH2 0x1A8D JUMP JUMPDEST SWAP1 POP SWAP2 SWAP1 POP JUMP JUMPDEST PUSH0 PUSH2 0x1C45 DUP3 PUSH2 0x1C1A JUMP JUMPDEST SWAP1 POP SWAP2 SWAP1 POP JUMP JUMPDEST PUSH0 PUSH2 0x1C56 DUP3 PUSH2 0x1C3B JUMP JUMPDEST SWAP1 POP SWAP2 SWAP1 POP JUMP JUMPDEST PUSH2 0x1C66 DUP2 PUSH2 0x1C4C JUMP JUMPDEST DUP3 MSTORE POP POP JUMP JUMPDEST PUSH0 PUSH1 0x20 DUP3 ADD SWAP1 POP PUSH2 0x1C7F PUSH0 DUP4 ADD DUP5 PUSH2 0x1C5D JUMP JUMPDEST SWAP3 SWAP2 POP POP JUMP JUMPDEST PUSH0 PUSH1 0xFF DUP3 AND SWAP1 POP SWAP2 SWAP1 POP JUMP JUMPDEST PUSH2 0x1C9A DUP2 PUSH2 0x1C85 JUMP JUMPDEST DUP3 MSTORE POP POP JUMP JUMPDEST PUSH0 PUSH1 0x20 DUP3 ADD SWAP1 POP PUSH2 0x1CB3 PUSH0 DUP4 ADD DUP5 PUSH2 0x1C91 JUMP JUMPDEST SWAP3 SWAP2 POP POP JUMP JUMPDEST PUSH0 PUSH1 0x20 DUP3 DUP5 SUB SLT ISZERO PUSH2 0x1CCE JUMPI PUSH2 0x1CCD PUSH2 0x1A89 JUMP JUMPDEST JUMPDEST PUSH0 PUSH2 0x1CDB DUP5 DUP3 DUP6 ADD PUSH2 0x1BBF JUMP JUMPDEST SWAP2 POP POP SWAP3 SWAP2 POP POP JUMP JUMPDEST PUSH0 DUP3 DUP3 MSTORE PUSH1 0x20 DUP3 ADD SWAP1 POP SWAP3 SWAP2 POP POP JUMP JUMPDEST PUSH32 0x7A65726F206F776E657200000000000000000000000000000000000000000000 PUSH0 DUP3 ADD MSTORE POP JUMP JUMPDEST PUSH0 PUSH2 0x1D28 PUSH1 0xA DUP4 PUSH2 0x1CE4 JUMP JUMPDEST SWAP2 POP PUSH2 0x1D33 DUP3 PUSH2 0x1CF4 JUMP JUMPDEST PUSH1 0x20 DUP3 ADD SWAP1 POP SWAP2 SWAP1 POP JUMP JUMPDEST PUSH0 PUSH1 0x20 DUP3 ADD SWAP1 POP DUP2 DUP2 SUB PUSH0 DUP4 ADD MSTORE PUSH2 0x1D55 DUP2 PUSH2 0x1D1C JUMP JUMPDEST SWAP1 POP SWAP2 SWAP1 POP JUMP JUMPDEST PUSH0 PUSH1 0x60 DUP3 ADD SWAP1 POP PUSH2 0x1D6F PUSH0 DUP4 ADD DUP7 PUSH2 0x1B81 JUMP JUMPDEST PUSH2 0x1D7C PUSH1 0x20 DUP4 ADD DUP6 PUSH2 0x1B81 JUMP JUMPDEST PUSH2 0x1D89 PUSH1 0x40 DUP4 ADD DUP5 PUSH2 0x1B1B JUMP JUMPDEST SWAP5 SWAP4 POP POP POP POP JUMP JUMPDEST PUSH0 DUP2 ISZERO ISZERO SWAP1 POP SWAP2 SWAP1 POP JUMP JUMPDEST PUSH2 0x1DA5 DUP2 PUSH2 0x1D91 JUMP JUMPDEST DUP2 EQ PUSH2 0x1DAF JUMPI PUSH0 PUSH0 REVERT JUMPDEST POP JUMP JUMPDEST PUSH0 DUP2 MLOAD SWAP1 POP PUSH2 0x1DC0 DUP2 PUSH2 0x1D9C JUMP JUMPDEST SWAP3 SWAP2 POP POP JUMP JUMPDEST PUSH0 PUSH1 0x20 DUP3 DUP5 SUB SLT ISZERO PUSH2 0x1DDB JUMPI PUSH2 0x1DDA PUSH2 0x1A89 JUMP JUMPDEST JUMPDEST PUSH0 PUSH2 0x1DE8 DUP5 DUP3 DUP6 ADD PUSH2 0x1DB2 JUMP JUMPDEST SWAP2 POP POP SWAP3 SWAP2 POP POP JUMP JUMPDEST PUSH32 0x4E487B7100000000000000000000000000000000000000000000000000000000 PUSH0 MSTORE PUSH1 0x11 PUSH1 0x4 MSTORE PUSH1 0x24 PUSH0 REVERT JUMPDEST PUSH0 PUSH2 0x1E28 DUP3 PUSH2 0x1B12 JUMP JUMPDEST SWAP2 POP PUSH2 0x1E33 DUP4 PUSH2 0x1B12 JUMP JUMPDEST SWAP3 POP DUP3 DUP3 ADD SWAP1 POP DUP1 DUP3 GT ISZERO PUSH2 0x1E4B JUMPI PUSH2 0x1E4A PUSH2 0x1DF1 JUMP JUMPDEST JUMPDEST SWAP3 SWAP2 POP POP JUMP JUMPDEST PUSH0 PUSH1 0x40 DUP3 ADD SWAP1 POP PUSH2 0x1E64 PUSH0 DUP4 ADD DUP6 PUSH2 0x1B81 JUMP JUMPDEST PUSH2 0x1E71 PUSH1 0x20 DUP4 ADD DUP5 PUSH2 0x1B1B JUMP JUMPDEST SWAP4 SWAP3 POP POP POP JUMP JUMPDEST PUSH0 PUSH1 0x60 DUP3 ADD SWAP1 POP PUSH2 0x1E8B PUSH0 DUP4 ADD DUP7 PUSH2 0x1B1B JUMP JUMPDEST PUSH2 0x1E98 PUSH1 0x20 DUP4 ADD DUP6 PUSH2 0x1B1B JUMP JUMPDEST PUSH2 0x1EA5 PUSH1 0x40 DUP4 ADD DUP5 PUSH2 0x1B1B JUMP JUMPDEST SWAP5 SWAP4 POP POP POP POP JUMP JUMPDEST PUSH0 PUSH2 0x1EB7 DUP3 PUSH2 0x1B12 JUMP JUMPDEST SWAP2 POP PUSH32 0xFFFFFFFFFFFFFFFFFFFFFFFFFFFFFFFFFFFFFFFFFFFFFFFFFFFFFFFFFFFFFFFF DUP3 SUB PUSH2 0x1EE9 JUMPI PUSH2 0x1EE8 PUSH2 0x1DF1 JUMP JUMPDEST JUMPDEST PUSH1 0x1 DUP3 ADD SWAP1 POP SWAP2 SWAP1 POP JUMP JUMPDEST PUSH0 PUSH1 0x40 DUP3 ADD SWAP1 POP PUSH2 0x1F07 PUSH0 DUP4 ADD DUP6 PUSH2 0x1B1B JUMP JUMPDEST PUSH2 0x1F14 PUSH1 0x20 DUP4 ADD DUP5 PUSH2 0x1B1B JUMP JUMPDEST SWAP4 SWAP3 POP POP POP JUMP JUMPDEST PUSH0 PUSH1 0x60 DUP3 ADD SWAP1 POP PUSH2 0x1F2E PUSH0 DUP4 ADD DUP7 PUSH2 0x1B81 JUMP JUMPDEST PUSH2 0x1F3B PUSH1 0x20 DUP4 ADD DUP6 PUSH2 0x1B1B JUMP JUMPDEST PUSH2 0x1F48 PUSH1 0x40 DUP4 ADD DUP5 PUSH2 0x1B1B JUMP JUMPDEST SWAP5 SWAP4 POP POP POP POP JUMP JUMPDEST PUSH0 PUSH2 0x1F5A DUP3 PUSH2 0x1B12 JUMP JUMPDEST SWAP2 POP PUSH2 0x1F65 DUP4 PUSH2 0x1B12 JUMP JUMPDEST SWAP3 POP DUP3 DUP3 SUB SWAP1 POP DUP2 DUP2 GT ISZERO PUSH2 0x1F7D JUMPI PUSH2 0x1F7C PUSH2 0x1DF1 JUMP JUMPDEST JUMPDEST SWAP3 SWAP2 POP POP JUMP JUMPDEST PUSH0 DUP2 SWAP1 POP SWAP3 SWAP2 POP POP JUMP JUMPDEST POP JUMP JUMPDEST PUSH0 PUSH2 0x1F9B PUSH0 DUP4 PUSH2 0x1F83 JUMP JUMPDEST SWAP2 POP PUSH2 0x1FA6 DUP3 PUSH2 0x1F8D JUMP JUMPDEST PUSH0 DUP3 ADD SWAP1 POP SWAP2 SWAP1 POP JUMP JUMPDEST PUSH0 PUSH2 0x1FBA DUP3 PUSH2 0x1F90 JUMP JUMPDEST SWAP2 POP DUP2 SWAP1 POP SWAP2 SWAP1 POP JUMP JUMPDEST PUSH0 PUSH10 0xFFFFFFFFFFFFFFFFFFFF DUP3 AND SWAP1 POP SWAP2 SWAP1 POP JUMP JUMPDEST PUSH2 0x1FE2 DUP2 PUSH2 0x1FC4 JUMP JUMPDEST DUP2 EQ PUSH2 0x1FEC JUMPI PUSH0 PUSH0 REVERT JUMPDEST POP JUMP JUMPDEST PUSH0 DUP2 MLOAD SWAP1 POP PUSH2 0x1FFD DUP2 PUSH2 0x1FD9 JUMP JUMPDEST SWAP3 SWAP2 POP POP JUMP JUMPDEST PUSH0 DUP2 SWAP1 POP SWAP2 SWAP1 POP JUMP JUMPDEST PUSH2 0x2015 DUP2 PUSH2 0x2003 JUMP JUMPDEST DUP2 EQ PUSH2 0x201F JUMPI PUSH0 PUSH0 REVERT JUMPDEST POP JUMP JUMPDEST PUSH0 DUP2 MLOAD SWAP1 POP PUSH2 0x2030 DUP2 PUSH2 0x200C JUMP JUMPDEST SWAP3 SWAP2 POP POP JUMP JUMPDEST PUSH0 DUP2 MLOAD SWAP1 POP PUSH2 0x2044 DUP2 PUSH2 0x1BA9 JUMP JUMPDEST SWAP3 SWAP2 POP POP JUMP JUMPDEST PUSH0 PUSH0 PUSH0 PUSH0 PUSH0 PUSH1 0xA0 DUP7 DUP9 SUB SLT ISZERO PUSH2 0x2063 JUMPI PUSH2 0x2062 PUSH2 0x1A89 JUMP JUMPDEST JUMPDEST PUSH0 PUSH2 0x2070 DUP9 DUP3 DUP10 ADD PUSH2 0x1FEF JUMP JUMPDEST SWAP6 POP POP PUSH1 0x20 PUSH2 0x2081 DUP9 DUP3 DUP10 ADD PUSH2 0x2022 JUMP JUMPDEST SWAP5 POP POP PUSH1 0x40 PUSH2 0x2092 DUP9 DUP3 DUP10 ADD PUSH2 0x2036 JUMP JUMPDEST SWAP4 POP POP PUSH1 0x60 PUSH2 0x20A3 DUP9 DUP3 DUP10 ADD PUSH2 0x2036 JUMP JUMPDEST SWAP3 POP POP PUSH1 0x80 PUSH2 0x20B4 DUP9 DUP3 DUP10 ADD PUSH2 0x1FEF JUMP JUMPDEST SWAP2 POP POP SWAP3 SWAP6 POP SWAP3 SWAP6 SWAP1 SWAP4 POP JUMP JUMPDEST PUSH2 0x20CA DUP2 PUSH2 0x1C85 JUMP JUMPDEST DUP2 EQ PUSH2 0x20D4 JUMPI PUSH0 PUSH0 REVERT JUMPDEST POP JUMP JUMPDEST PUSH0 DUP2 MLOAD SWAP1 POP PUSH2 0x20E5 DUP2 PUSH2 0x20C1 JUMP JUMPDEST SWAP3 SWAP2 POP POP JUMP JUMPDEST PUSH0 PUSH1 0x20 DUP3 DUP5 SUB SLT ISZERO PUSH2 0x2100 JUMPI PUSH2 0x20FF PUSH2 0x1A89 JUMP JUMPDEST JUMPDEST PUSH0 PUSH2 0x210D DUP5 DUP3 DUP6 ADD PUSH2 0x20D7 JUMP JUMPDEST SWAP2 POP POP SWAP3 SWAP2 POP POP JUMP JUMPDEST PUSH0 PUSH2 0x2120 DUP3 PUSH2 0x1B12 JUMP JUMPDEST SWAP2 POP PUSH2 0x212B DUP4 PUSH2 0x1B12 JUMP JUMPDEST SWAP3 POP DUP3 DUP3 MUL PUSH2 0x2139 DUP2 PUSH2 0x1B12 JUMP JUMPDEST SWAP2 POP DUP3 DUP3 DIV DUP5 EQ DUP4 ISZERO OR PUSH2 0x2150 JUMPI PUSH2 0x214F PUSH2 0x1DF1 JUMP JUMPDEST JUMPDEST POP SWAP3 SWAP2 POP POP JUMP JUMPDEST PUSH0 PUSH2 0x2161 DUP3 PUSH2 0x1C85 JUMP JUMPDEST SWAP2 POP PUSH2 0x216C DUP4 PUSH2 0x1C85 JUMP JUMPDEST SWAP3 POP DUP3 DUP3 ADD SWAP1 POP PUSH1 0xFF DUP2 GT ISZERO PUSH2 0x2185 JUMPI PUSH2 0x2184 PUSH2 0x1DF1 JUMP JUMPDEST JUMPDEST SWAP3 SWAP2 POP POP JUMP JUMPDEST PUSH0 PUSH2 0x2195 DUP3 PUSH2 0x1C85 JUMP JUMPDEST SWAP2 POP PUSH2 0x21A0 DUP4 PUSH2 0x1C85 JUMP JUMPDEST SWAP3 POP DUP3 DUP3 SUB SWAP1 POP PUSH1 0xFF DUP2 GT ISZERO PUSH2 0x21B9 JUMPI PUSH2 0x21B8 PUSH2 0x1DF1 JUMP JUMPDEST JUMPDEST SWAP3 SWAP2 POP POP JUMP JUMPDEST PUSH0 DUP2 PUSH1 0x1 SHR SWAP1 POP SWAP2 SWAP1 POP JUMP JUMPDEST PUSH0 PUSH0 DUP3 SWAP2 POP DUP4 SWAP1 POP JUMPDEST PUSH1 0x1 DUP6 GT ISZERO PUSH2 0x2214 JUMPI DUP1 DUP7 DIV DUP2 GT ISZERO PUSH2 0x21F0 JUMPI PUSH2 0x21EF PUSH2 0x1DF1 JUMP JUMPDEST JUMPDEST PUSH1 0x1 DUP6 AND ISZERO PUSH2 0x21FF JUMPI DUP1 DUP3 MUL SWAP2 POP JUMPDEST DUP1 DUP2 MUL SWAP1 POP PUSH2 0x220D DUP6 PUSH2 0x21BF JUMP JUMPDEST SWAP5 POP PUSH2 0x21D4 JUMP JUMPDEST SWAP5 POP SWAP5 SWAP3 POP POP POP JUMP JUMPDEST PUSH0 DUP3 PUSH2 0x222C JUMPI PUSH1 0x1 SWAP1 POP PUSH2 0x22E7 JUMP JUMPDEST DUP2 PUSH2 0x2239 JUMPI PUSH0 SWAP1 POP PUSH2 0x22E7 JUMP JUMPDEST DUP2 PUSH1 0x1 DUP2 EQ PUSH2 0x224F JUMPI PUSH1 0x2 DUP2 EQ PUSH2 0x2259 JUMPI PUSH2 0x2288 JUMP JUMPDEST PUSH1 0x1 SWAP2 POP POP PUSH2 0x22E7 JUMP JUMPDEST PUSH1 0xFF DUP5 GT ISZERO PUSH2 0x226B JUMPI PUSH2 0x226A PUSH2 0x1DF1 JUMP JUMPDEST JUMPDEST DUP4 PUSH1 0x2 EXP SWAP2 POP DUP5 DUP3 GT ISZERO PUSH2 0x2282 JUMPI PUSH2 0x2281 PUSH2 0x1DF1 JUMP JUMPDEST JUMPDEST POP PUSH2 0x22E7 JUMP JUMPDEST POP PUSH1 0x20 DUP4 LT PUSH2 0x133 DUP4 LT AND PUSH1 0x4E DUP5 LT PUSH1 0xB DUP5 LT AND OR ISZERO PUSH2 0x22BD JUMPI DUP3 DUP3 EXP SWAP1 POP DUP4 DUP2 GT ISZERO PUSH2 0x22B8 JUMPI PUSH2 0x22B7 PUSH2 0x1DF1 JUMP JUMPDEST JUMPDEST PUSH2 0x22E7 JUMP JUMPDEST PUSH2 0x22CA DUP5 DUP5 DUP5 PUSH1 0x1 PUSH2 0x21CB JUMP JUMPDEST SWAP3 POP SWAP1 POP DUP2 DUP5 DIV DUP2 GT ISZERO PUSH2 0x22E1 JUMPI PUSH2 0x22E0 PUSH2 0x1DF1 JUMP JUMPDEST JUMPDEST DUP2 DUP2 MUL SWAP1 POP JUMPDEST SWAP4 SWAP3 POP POP POP JUMP JUMPDEST PUSH0 PUSH2 0x22F8 DUP3 PUSH2 0x1B12 JUMP JUMPDEST SWAP2 POP PUSH2 0x2303 DUP4 PUSH2 0x1B12 JUMP JUMPDEST SWAP3 POP PUSH2 0x2330 PUSH32 0xFFFFFFFFFFFFFFFFFFFFFFFFFFFFFFFFFFFFFFFFFFFFFFFFFFFFFFFFFFFFFFFF DUP5 DUP5 PUSH2 0x221D JUMP JUMPDEST SWAP1 POP SWAP3 SWAP2 POP POP JUMP JUMPDEST PUSH32 0x4E487B7100000000000000000000000000000000000000000000000000000000 PUSH0 MSTORE PUSH1 0x12 PUSH1 0x4 MSTORE PUSH1 0x24 PUSH0 REVERT JUMPDEST PUSH0 PUSH2 0x236F DUP3 PUSH2 0x1B12 JUMP JUMPDEST SWAP2 POP PUSH2 0x237A DUP4 PUSH2 0x1B12 JUMP JUMPDEST SWAP3 POP DUP3 PUSH2 0x238A JUMPI PUSH2 0x2389 PUSH2 0x2338 JUMP JUMPDEST JUMPDEST DUP3 DUP3 DIV SWAP1 POP SWAP3 SWAP2 POP POP JUMP INVALID LOG2 PUSH5 0x6970667358 0x22 SLT KECCAK256 PUSH22 0x40D908E8D68461B2F0D11B7BBB94A768B7F71213B6B8 SDIV DUP7 PUSH0 0xE STATICCALL EXTDELEGATECALL 0x4C PUSH20 0x3064736F6C634300081E00330000000000000000 "
				},
				"gasEstimates": {
					"creation": {
						"codeDepositCost": "1832600",
						"executionCost": "infinite",
						"totalCost": "infinite"
					},
					"external": {
						"INTERNAL_DECIMALS()": "376",
						"balanceOf(address,address)": "infinite",
						"bankCapUsd()": "infinite",
						"defaultPriceFeed()": "infinite",
						"depositERC20(address,uint256)": "infinite",
						"depositETH()": "infinite",
						"owner()": "2597",
						"priceFeeds(address)": "infinite",
						"setOwner(address)": "30631",
						"setPriceFeed(address,address)": "infinite",
						"totalDepositCount()": "2514",
						"totalDepositedUsd()": "2448",
						"totalWithdrawCount()": "2471",
						"withdrawERC20(address,uint256)": "infinite",
						"withdrawETH(uint256)": "infinite",
						"withdrawLimitUsd()": "infinite"
					},
					"internal": {
						"_convertToUsd(address,uint256)": "infinite",
						"_getFeed(address)": "infinite"
					}
				},
				"methodIdentifiers": {
					"INTERNAL_DECIMALS()": "be406e6c",
					"balanceOf(address,address)": "f7888aec",
					"bankCapUsd()": "ac4543ba",
					"defaultPriceFeed()": "c1636bc9",
					"depositERC20(address,uint256)": "97feb926",
					"depositETH()": "f6326fb3",
					"owner()": "8da5cb5b",
					"priceFeeds(address)": "9dcb511a",
					"setOwner(address)": "13af4035",
					"setPriceFeed(address,address)": "76e11286",
					"totalDepositCount()": "d6343867",
					"totalDepositedUsd()": "b7b0ffd8",
					"totalWithdrawCount()": "503e7042",
					"withdrawERC20(address,uint256)": "a1db9782",
					"withdrawETH(uint256)": "f14210a6",
					"withdrawLimitUsd()": "e243df20"
				}
			},
			"storageLayout": {
				"storage": [
					{
						"astId": 109,
						"contract": "src/KipuBankV2.sol:KipuBankV2",
						"label": "owner",
						"offset": 0,
						"slot": "0",
						"type": "t_address"
					},
					{
						"astId": 116,
						"contract": "src/KipuBankV2.sol:KipuBankV2",
						"label": "balances",
						"offset": 0,
						"slot": "1",
						"type": "t_mapping(t_address,t_mapping(t_address,t_uint256))"
					},
					{
						"astId": 122,
						"contract": "src/KipuBankV2.sol:KipuBankV2",
						"label": "priceFeeds",
						"offset": 0,
						"slot": "2",
						"type": "t_mapping(t_address,t_contract(AggregatorV3Interface)92)"
					},
					{
						"astId": 125,
						"contract": "src/KipuBankV2.sol:KipuBankV2",
						"label": "totalDepositedUsd",
						"offset": 0,
						"slot": "3",
						"type": "t_uint256"
					},
					{
						"astId": 128,
						"contract": "src/KipuBankV2.sol:KipuBankV2",
						"label": "totalDepositCount",
						"offset": 0,
						"slot": "4",
						"type": "t_uint256"
					},
					{
						"astId": 130,
						"contract": "src/KipuBankV2.sol:KipuBankV2",
						"label": "totalWithdrawCount",
						"offset": 0,
						"slot": "5",
						"type": "t_uint256"
					},
					{
						"astId": 202,
						"contract": "src/KipuBankV2.sol:KipuBankV2",
						"label": "locked",
						"offset": 0,
						"slot": "6",
						"type": "t_bool"
					}
				],
				"types": {
					"t_address": {
						"encoding": "inplace",
						"label": "address",
						"numberOfBytes": "20"
					},
					"t_bool": {
						"encoding": "inplace",
						"label": "bool",
						"numberOfBytes": "1"
					},
					"t_contract(AggregatorV3Interface)92": {
						"encoding": "inplace",
						"label": "contract AggregatorV3Interface",
						"numberOfBytes": "20"
					},
					"t_mapping(t_address,t_contract(AggregatorV3Interface)92)": {
						"encoding": "mapping",
						"key": "t_address",
						"label": "mapping(address => contract AggregatorV3Interface)",
						"numberOfBytes": "32",
						"value": "t_contract(AggregatorV3Interface)92"
					},
					"t_mapping(t_address,t_mapping(t_address,t_uint256))": {
						"encoding": "mapping",
						"key": "t_address",
						"label": "mapping(address => mapping(address => uint256))",
						"numberOfBytes": "32",
						"value": "t_mapping(t_address,t_uint256)"
					},
					"t_mapping(t_address,t_uint256)": {
						"encoding": "mapping",
						"key": "t_address",
						"label": "mapping(address => uint256)",
						"numberOfBytes": "32",
						"value": "t_uint256"
					},
					"t_uint256": {
						"encoding": "inplace",
						"label": "uint256",
						"numberOfBytes": "32"
					}
				}
			},
			"userdoc": {
				"kind": "user",
				"methods": {
					"INTERNAL_DECIMALS()": {
						"notice": "número de decimales que adoptamos para la contabilidad interna (USDC style)"
					},
					"balanceOf(address,address)": {
						"notice": "Obtener saldo del usuario para un token"
					},
					"bankCapUsd()": {
						"notice": "Límite global del banco en valor USD (con INTERNAL_DECIMALS)"
					},
					"defaultPriceFeed()": {
						"notice": "Oráculo por defecto (ej. ETH/USD) usado cuando token == address(0)"
					},
					"depositERC20(address,uint256)": {
						"notice": "Depositar ERC20. El usuario debe aprobar antes."
					},
					"depositETH()": {
						"notice": "Depositar ETH (usar address(0) para representar ETH internamente)"
					},
					"owner()": {
						"notice": "owner simple (control administrativo)"
					},
					"priceFeeds(address)": {
						"notice": "mapping token => price feed aggregator (Chainlink)"
					},
					"setOwner(address)": {
						"notice": "Cambiar owner"
					},
					"setPriceFeed(address,address)": {
						"notice": "Asignar/actualizar price feed para un token (token == address(0) para ETH no debería cambiarse)"
					},
					"totalDepositCount()": {
						"notice": "contadores"
					},
					"totalDepositedUsd()": {
						"notice": "total depositado en USD (internal decimals) — aproximado en tiempo real según conversiones realizadas"
					},
					"withdrawERC20(address,uint256)": {
						"notice": "Retirar ERC20 token"
					},
					"withdrawETH(uint256)": {
						"notice": "Retirar ETH (address(0))"
					},
					"withdrawLimitUsd()": {
						"notice": "Límite de retiro por transacción expresado en USD (con INTERNAL_DECIMALS)"
					}
				},
				"version": 1
			}
		}
	}
}