{
	"contracts/KipuBank.sol": {
		"kipubank": {
			"abi": [
				{
					"inputs": [
						{
							"internalType": "uint256",
							"name": "_bankCap",
							"type": "uint256"
						},
						{
							"internalType": "uint256",
							"name": "_withdrawLimitPerTx",
							"type": "uint256"
						}
					],
					"stateMutability": "nonpayable",
					"type": "constructor"
				},
				{
					"inputs": [
						{
							"internalType": "uint256",
							"name": "attempted",
							"type": "uint256"
						},
						{
							"internalType": "uint256",
							"name": "total",
							"type": "uint256"
						},
						{
							"internalType": "uint256",
							"name": "cap",
							"type": "uint256"
						}
					],
					"name": "BankCapExceeded",
					"type": "error"
				},
				{
					"inputs": [
						{
							"internalType": "uint256",
							"name": "requested",
							"type": "uint256"
						},
						{
							"internalType": "uint256",
							"name": "available",
							"type": "uint256"
						}
					],
					"name": "InsufficientBalance",
					"type": "error"
				},
				{
					"inputs": [],
					"name": "TransferFailed",
					"type": "error"
				},
				{
					"inputs": [
						{
							"internalType": "uint256",
							"name": "requested",
							"type": "uint256"
						},
						{
							"internalType": "uint256",
							"name": "limit",
							"type": "uint256"
						}
					],
					"name": "WithdrawLimitExceeded",
					"type": "error"
				},
				{
					"inputs": [],
					"name": "ZeroAmount",
					"type": "error"
				},
				{
					"anonymous": false,
					"inputs": [
						{
							"indexed": true,
							"internalType": "address",
							"name": "user",
							"type": "address"
						},
						{
							"indexed": false,
							"internalType": "uint256",
							"name": "amount",
							"type": "uint256"
						},
						{
							"indexed": false,
							"internalType": "uint256",
							"name": "balance",
							"type": "uint256"
						},
						{
							"indexed": false,
							"internalType": "uint256",
							"name": "totalDeposited",
							"type": "uint256"
						}
					],
					"name": "Deposit",
					"type": "event"
				},
				{
					"anonymous": false,
					"inputs": [
						{
							"indexed": true,
							"internalType": "address",
							"name": "user",
							"type": "address"
						},
						{
							"indexed": false,
							"internalType": "uint256",
							"name": "amount",
							"type": "uint256"
						},
						{
							"indexed": false,
							"internalType": "uint256",
							"name": "balance",
							"type": "uint256"
						},
						{
							"indexed": false,
							"internalType": "uint256",
							"name": "totalDeposited",
							"type": "uint256"
						}
					],
					"name": "Withdraw",
					"type": "event"
				},
				{
					"inputs": [
						{
							"internalType": "address",
							"name": "user",
							"type": "address"
						}
					],
					"name": "balanceOf",
					"outputs": [
						{
							"internalType": "uint256",
							"name": "",
							"type": "uint256"
						}
					],
					"stateMutability": "view",
					"type": "function"
				},
				{
					"inputs": [],
					"name": "bankCap",
					"outputs": [
						{
							"internalType": "uint256",
							"name": "",
							"type": "uint256"
						}
					],
					"stateMutability": "view",
					"type": "function"
				},
				{
					"inputs": [],
					"name": "deposit",
					"outputs": [],
					"stateMutability": "payable",
					"type": "function"
				},
				{
					"inputs": [],
					"name": "depositCount",
					"outputs": [
						{
							"internalType": "uint256",
							"name": "",
							"type": "uint256"
						}
					],
					"stateMutability": "view",
					"type": "function"
				},
				{
					"inputs": [],
					"name": "totalDeposited",
					"outputs": [
						{
							"internalType": "uint256",
							"name": "",
							"type": "uint256"
						}
					],
					"stateMutability": "view",
					"type": "function"
				},
				{
					"inputs": [
						{
							"internalType": "uint256",
							"name": "amount",
							"type": "uint256"
						}
					],
					"name": "withdraw",
					"outputs": [],
					"stateMutability": "nonpayable",
					"type": "function"
				},
				{
					"inputs": [],
					"name": "withdrawCount",
					"outputs": [
						{
							"internalType": "uint256",
							"name": "",
							"type": "uint256"
						}
					],
					"stateMutability": "view",
					"type": "function"
				},
				{
					"inputs": [],
					"name": "withdrawLimitPerTx",
					"outputs": [
						{
							"internalType": "uint256",
							"name": "",
							"type": "uint256"
						}
					],
					"stateMutability": "view",
					"type": "function"
				},
				{
					"stateMutability": "payable",
					"type": "receive"
				}
			],
			"devdoc": {
				"author": "Dev ramlpp",
				"details": "Este contrato sigue buenas prácticas de seguridad y documentación en Solidity",
				"kind": "dev",
				"methods": {
					"balanceOf(address)": {
						"params": {
							"user": "Dirección a consultar"
						}
					},
					"constructor": {
						"params": {
							"_bankCap": "Límite global máximo de depósitos en el contrato",
							"_withdrawLimitPerTx": "Límite máximo de retiro por transacción"
						}
					},
					"withdraw(uint256)": {
						"params": {
							"amount": "Monto a retirar en wei"
						}
					}
				},
				"stateVariables": {
					"bankCap": {
						"details": "Se define en el constructor y no puede modificarse"
					},
					"withdrawLimitPerTx": {
						"details": "Se define en el constructor y no puede modificarse"
					}
				},
				"title": "KipuBank - Bóveda de depósito y retiro de ETH con límites",
				"version": 1
			},
			"evm": {
				"assembly": "    /* \"contracts/KipuBank.sol\":327:5816  contract kipubank {... */\n  mstore(0x40, 0xc0)\n    /* \"contracts/KipuBank.sol\":3035:3258  constructor(uint256 _bankCap, uint256 _withdrawLimitPerTx) {... */\n  callvalue\n  dup1\n  iszero\n  tag_1\n  jumpi\n  revert(0x00, 0x00)\ntag_1:\n  pop\n  mload(0x40)\n  sub(codesize, bytecodeSize)\n  dup1\n  bytecodeSize\n  dup4\n  codecopy\n  dup2\n  dup2\n  add\n  0x40\n  mstore\n  dup2\n  add\n  swap1\n  tag_2\n  swap2\n  swap1\n  tag_3\n  jump\t// in\ntag_2:\n    /* \"contracts/KipuBank.sol\":3123:3124  0 */\n  0x00\n    /* \"contracts/KipuBank.sol\":3112:3120  _bankCap */\n  dup3\n    /* \"contracts/KipuBank.sol\":3112:3124  _bankCap > 0 */\n  gt\n    /* \"contracts/KipuBank.sol\":3112:3151  _bankCap > 0 && _withdrawLimitPerTx > 0 */\n  dup1\n  iszero\n  tag_6\n  jumpi\n  pop\n    /* \"contracts/KipuBank.sol\":3150:3151  0 */\n  0x00\n    /* \"contracts/KipuBank.sol\":3128:3147  _withdrawLimitPerTx */\n  dup2\n    /* \"contracts/KipuBank.sol\":3128:3151  _withdrawLimitPerTx > 0 */\n  gt\n    /* \"contracts/KipuBank.sol\":3112:3151  _bankCap > 0 && _withdrawLimitPerTx > 0 */\ntag_6:\n    /* \"contracts/KipuBank.sol\":3104:3173  require(_bankCap > 0 && _withdrawLimitPerTx > 0, \"Valores invalidos\") */\n  tag_7\n  jumpi\n  mload(0x40)\n  0x08c379a000000000000000000000000000000000000000000000000000000000\n  dup2\n  mstore\n  0x04\n  add\n  tag_8\n  swap1\n  tag_9\n  jump\t// in\ntag_8:\n  mload(0x40)\n  dup1\n  swap2\n  sub\n  swap1\n  revert\ntag_7:\n    /* \"contracts/KipuBank.sol\":3193:3201  _bankCap */\n  dup2\n    /* \"contracts/KipuBank.sol\":3183:3201  bankCap = _bankCap */\n  0xa0\n  dup2\n  dup2\n  mstore\n  pop\n  pop\n    /* \"contracts/KipuBank.sol\":3232:3251  _withdrawLimitPerTx */\n  dup1\n    /* \"contracts/KipuBank.sol\":3211:3251  withdrawLimitPerTx = _withdrawLimitPerTx */\n  0x80\n  dup2\n  dup2\n  mstore\n  pop\n  pop\n    /* \"contracts/KipuBank.sol\":3035:3258  constructor(uint256 _bankCap, uint256 _withdrawLimitPerTx) {... */\n  pop\n  pop\n    /* \"contracts/KipuBank.sol\":327:5816  contract kipubank {... */\n  jump(tag_10)\n    /* \"#utility.yul\":88:205   */\ntag_12:\n    /* \"#utility.yul\":197:198   */\n  0x00\n    /* \"#utility.yul\":194:195   */\n  0x00\n    /* \"#utility.yul\":187:199   */\n  revert\n    /* \"#utility.yul\":334:411   */\ntag_14:\n    /* \"#utility.yul\":371:378   */\n  0x00\n    /* \"#utility.yul\":400:405   */\n  dup2\n    /* \"#utility.yul\":389:405   */\n  swap1\n  pop\n    /* \"#utility.yul\":334:411   */\n  swap2\n  swap1\n  pop\n  jump\t// out\n    /* \"#utility.yul\":417:539   */\ntag_15:\n    /* \"#utility.yul\":490:514   */\n  tag_26\n    /* \"#utility.yul\":508:513   */\n  dup2\n    /* \"#utility.yul\":490:514   */\n  tag_14\n  jump\t// in\ntag_26:\n    /* \"#utility.yul\":483:488   */\n  dup2\n    /* \"#utility.yul\":480:515   */\n  eq\n    /* \"#utility.yul\":470:533   */\n  tag_27\n  jumpi\n    /* \"#utility.yul\":529:530   */\n  0x00\n    /* \"#utility.yul\":526:527   */\n  0x00\n    /* \"#utility.yul\":519:531   */\n  revert\n    /* \"#utility.yul\":470:533   */\ntag_27:\n    /* \"#utility.yul\":417:539   */\n  pop\n  jump\t// out\n    /* \"#utility.yul\":545:688   */\ntag_16:\n    /* \"#utility.yul\":602:607   */\n  0x00\n    /* \"#utility.yul\":633:639   */\n  dup2\n    /* \"#utility.yul\":627:640   */\n  mload\n    /* \"#utility.yul\":618:640   */\n  swap1\n  pop\n    /* \"#utility.yul\":649:682   */\n  tag_29\n    /* \"#utility.yul\":676:681   */\n  dup2\n    /* \"#utility.yul\":649:682   */\n  tag_15\n  jump\t// in\ntag_29:\n    /* \"#utility.yul\":545:688   */\n  swap3\n  swap2\n  pop\n  pop\n  jump\t// out\n    /* \"#utility.yul\":694:1201   */\ntag_3:\n    /* \"#utility.yul\":773:779   */\n  0x00\n    /* \"#utility.yul\":781:787   */\n  0x00\n    /* \"#utility.yul\":830:832   */\n  0x40\n    /* \"#utility.yul\":818:827   */\n  dup4\n    /* \"#utility.yul\":809:816   */\n  dup6\n    /* \"#utility.yul\":805:828   */\n  sub\n    /* \"#utility.yul\":801:833   */\n  slt\n    /* \"#utility.yul\":798:917   */\n  iszero\n  tag_31\n  jumpi\n    /* \"#utility.yul\":836:915   */\n  tag_32\n  tag_12\n  jump\t// in\ntag_32:\n    /* \"#utility.yul\":798:917   */\ntag_31:\n    /* \"#utility.yul\":956:957   */\n  0x00\n    /* \"#utility.yul\":981:1045   */\n  tag_33\n    /* \"#utility.yul\":1037:1044   */\n  dup6\n    /* \"#utility.yul\":1028:1034   */\n  dup3\n    /* \"#utility.yul\":1017:1026   */\n  dup7\n    /* \"#utility.yul\":1013:1035   */\n  add\n    /* \"#utility.yul\":981:1045   */\n  tag_16\n  jump\t// in\ntag_33:\n    /* \"#utility.yul\":971:1045   */\n  swap3\n  pop\n    /* \"#utility.yul\":927:1055   */\n  pop\n    /* \"#utility.yul\":1094:1096   */\n  0x20\n    /* \"#utility.yul\":1120:1184   */\n  tag_34\n    /* \"#utility.yul\":1176:1183   */\n  dup6\n    /* \"#utility.yul\":1167:1173   */\n  dup3\n    /* \"#utility.yul\":1156:1165   */\n  dup7\n    /* \"#utility.yul\":1152:1174   */\n  add\n    /* \"#utility.yul\":1120:1184   */\n  tag_16\n  jump\t// in\ntag_34:\n    /* \"#utility.yul\":1110:1184   */\n  swap2\n  pop\n    /* \"#utility.yul\":1065:1194   */\n  pop\n    /* \"#utility.yul\":694:1201   */\n  swap3\n  pop\n  swap3\n  swap1\n  pop\n  jump\t// out\n    /* \"#utility.yul\":1207:1376   */\ntag_17:\n    /* \"#utility.yul\":1291:1302   */\n  0x00\n    /* \"#utility.yul\":1325:1331   */\n  dup3\n    /* \"#utility.yul\":1320:1323   */\n  dup3\n    /* \"#utility.yul\":1313:1332   */\n  mstore\n    /* \"#utility.yul\":1365:1369   */\n  0x20\n    /* \"#utility.yul\":1360:1363   */\n  dup3\n    /* \"#utility.yul\":1356:1370   */\n  add\n    /* \"#utility.yul\":1341:1370   */\n  swap1\n  pop\n    /* \"#utility.yul\":1207:1376   */\n  swap3\n  swap2\n  pop\n  pop\n  jump\t// out\n    /* \"#utility.yul\":1382:1549   */\ntag_18:\n    /* \"#utility.yul\":1522:1541   */\n  0x56616c6f72657320696e76616c69646f73000000000000000000000000000000\n    /* \"#utility.yul\":1518:1519   */\n  0x00\n    /* \"#utility.yul\":1510:1516   */\n  dup3\n    /* \"#utility.yul\":1506:1520   */\n  add\n    /* \"#utility.yul\":1499:1542   */\n  mstore\n    /* \"#utility.yul\":1382:1549   */\n  pop\n  jump\t// out\n    /* \"#utility.yul\":1555:1921   */\ntag_19:\n    /* \"#utility.yul\":1697:1700   */\n  0x00\n    /* \"#utility.yul\":1718:1785   */\n  tag_38\n    /* \"#utility.yul\":1782:1784   */\n  0x11\n    /* \"#utility.yul\":1777:1780   */\n  dup4\n    /* \"#utility.yul\":1718:1785   */\n  tag_17\n  jump\t// in\ntag_38:\n    /* \"#utility.yul\":1711:1785   */\n  swap2\n  pop\n    /* \"#utility.yul\":1794:1887   */\n  tag_39\n    /* \"#utility.yul\":1883:1886   */\n  dup3\n    /* \"#utility.yul\":1794:1887   */\n  tag_18\n  jump\t// in\ntag_39:\n    /* \"#utility.yul\":1912:1914   */\n  0x20\n    /* \"#utility.yul\":1907:1910   */\n  dup3\n    /* \"#utility.yul\":1903:1915   */\n  add\n    /* \"#utility.yul\":1896:1915   */\n  swap1\n  pop\n    /* \"#utility.yul\":1555:1921   */\n  swap2\n  swap1\n  pop\n  jump\t// out\n    /* \"#utility.yul\":1927:2346   */\ntag_9:\n    /* \"#utility.yul\":2093:2097   */\n  0x00\n    /* \"#utility.yul\":2131:2133   */\n  0x20\n    /* \"#utility.yul\":2120:2129   */\n  dup3\n    /* \"#utility.yul\":2116:2134   */\n  add\n    /* \"#utility.yul\":2108:2134   */\n  swap1\n  pop\n    /* \"#utility.yul\":2180:2189   */\n  dup2\n    /* \"#utility.yul\":2174:2178   */\n  dup2\n    /* \"#utility.yul\":2170:2190   */\n  sub\n    /* \"#utility.yul\":2166:2167   */\n  0x00\n    /* \"#utility.yul\":2155:2164   */\n  dup4\n    /* \"#utility.yul\":2151:2168   */\n  add\n    /* \"#utility.yul\":2144:2191   */\n  mstore\n    /* \"#utility.yul\":2208:2339   */\n  tag_41\n    /* \"#utility.yul\":2334:2338   */\n  dup2\n    /* \"#utility.yul\":2208:2339   */\n  tag_19\n  jump\t// in\ntag_41:\n    /* \"#utility.yul\":2200:2339   */\n  swap1\n  pop\n    /* \"#utility.yul\":1927:2346   */\n  swap2\n  swap1\n  pop\n  jump\t// out\n    /* \"contracts/KipuBank.sol\":327:5816  contract kipubank {... */\ntag_10:\n  mload(0x80)\n  mload(0xa0)\n  codecopy(0x00, dataOffset(sub_0), dataSize(sub_0))\n  0x00\n  assignImmutable(\"0xe4b1702d9298fee62dfeccc57d322a463ad55ca201256d01f62b45b2e1c21c10\")\n  0x00\n  assignImmutable(\"0xceebf77a833b30520287ddd9478ff51abbdffa30aa90a8d655dba0e8a79ce0c1\")\n  return(0x00, dataSize(sub_0))\nstop\n\nsub_0: assembly {\n        /* \"contracts/KipuBank.sol\":327:5816  contract kipubank {... */\n      mstore(0x40, 0x80)\n      jumpi(tag_1, lt(calldatasize, 0x04))\n      shr(0xe0, calldataload(0x00))\n      dup1\n      0x9c51fd6e\n      gt\n      tag_11\n      jumpi\n      dup1\n      0x9c51fd6e\n      eq\n      tag_7\n      jumpi\n      dup1\n      0xd0e30db0\n      eq\n      tag_8\n      jumpi\n      dup1\n      0xecbea24d\n      eq\n      tag_9\n      jumpi\n      dup1\n      0xff50abdc\n      eq\n      tag_10\n      jumpi\n      jump(tag_2)\n    tag_11:\n      dup1\n      0x2dfdf0b5\n      eq\n      tag_3\n      jumpi\n      dup1\n      0x2e1a7d4d\n      eq\n      tag_4\n      jumpi\n      dup1\n      0x4cc05a71\n      eq\n      tag_5\n      jumpi\n      dup1\n      0x70a08231\n      eq\n      tag_6\n      jumpi\n      jump(tag_2)\n    tag_1:\n      jumpi(tag_2, calldatasize)\n        /* \"contracts/KipuBank.sol\":5798:5807  deposit() */\n      tag_14\n        /* \"contracts/KipuBank.sol\":5798:5805  deposit */\n      tag_15\n        /* \"contracts/KipuBank.sol\":5798:5807  deposit() */\n      jump\t// in\n    tag_14:\n        /* \"contracts/KipuBank.sol\":327:5816  contract kipubank {... */\n      stop\n    tag_2:\n      revert(0x00, 0x00)\n        /* \"contracts/KipuBank.sol\":1299:1326  uint256 public depositCount */\n    tag_3:\n      callvalue\n      dup1\n      iszero\n      tag_16\n      jumpi\n      revert(0x00, 0x00)\n    tag_16:\n      pop\n      tag_17\n      tag_18\n      jump\t// in\n    tag_17:\n      mload(0x40)\n      tag_19\n      swap2\n      swap1\n      tag_20\n      jump\t// in\n    tag_19:\n      mload(0x40)\n      dup1\n      swap2\n      sub\n      swap1\n      return\n        /* \"contracts/KipuBank.sol\":4373:4967  function withdraw(uint256 amount) external nonZero(amount) {... */\n    tag_4:\n      callvalue\n      dup1\n      iszero\n      tag_21\n      jumpi\n      revert(0x00, 0x00)\n    tag_21:\n      pop\n      tag_22\n      0x04\n      dup1\n      calldatasize\n      sub\n      dup2\n      add\n      swap1\n      tag_23\n      swap2\n      swap1\n      tag_24\n      jump\t// in\n    tag_23:\n      tag_25\n      jump\t// in\n    tag_22:\n      stop\n        /* \"contracts/KipuBank.sol\":1385:1413  uint256 public withdrawCount */\n    tag_5:\n      callvalue\n      dup1\n      iszero\n      tag_26\n      jumpi\n      revert(0x00, 0x00)\n    tag_26:\n      pop\n      tag_27\n      tag_28\n      jump\t// in\n    tag_27:\n      mload(0x40)\n      tag_29\n      swap2\n      swap1\n      tag_20\n      jump\t// in\n    tag_29:\n      mload(0x40)\n      dup1\n      swap2\n      sub\n      swap1\n      return\n        /* \"contracts/KipuBank.sol\":5092:5196  function balanceOf(address user) external view returns (uint256) {... */\n    tag_6:\n      callvalue\n      dup1\n      iszero\n      tag_30\n      jumpi\n      revert(0x00, 0x00)\n    tag_30:\n      pop\n      tag_31\n      0x04\n      dup1\n      calldatasize\n      sub\n      dup2\n      add\n      swap1\n      tag_32\n      swap2\n      swap1\n      tag_33\n      jump\t// in\n    tag_32:\n      tag_34\n      jump\t// in\n    tag_31:\n      mload(0x40)\n      tag_35\n      swap2\n      swap1\n      tag_20\n      jump\t// in\n    tag_35:\n      mload(0x40)\n      dup1\n      swap2\n      sub\n      swap1\n      return\n        /* \"contracts/KipuBank.sol\":641:684  uint256 public immutable withdrawLimitPerTx */\n    tag_7:\n      callvalue\n      dup1\n      iszero\n      tag_36\n      jumpi\n      revert(0x00, 0x00)\n    tag_36:\n      pop\n      tag_37\n      tag_38\n      jump\t// in\n    tag_37:\n      mload(0x40)\n      tag_39\n      swap2\n      swap1\n      tag_20\n      jump\t// in\n    tag_39:\n      mload(0x40)\n      dup1\n      swap2\n      sub\n      swap1\n      return\n        /* \"contracts/KipuBank.sol\":3846:4231  function deposit() public payable nonZero(msg.value) {... */\n    tag_8:\n      tag_40\n      tag_15\n      jump\t// in\n    tag_40:\n      stop\n        /* \"contracts/KipuBank.sol\":821:853  uint256 public immutable bankCap */\n    tag_9:\n      callvalue\n      dup1\n      iszero\n      tag_41\n      jumpi\n      revert(0x00, 0x00)\n    tag_41:\n      pop\n      tag_42\n      tag_43\n      jump\t// in\n    tag_42:\n      mload(0x40)\n      tag_44\n      swap2\n      swap1\n      tag_20\n      jump\t// in\n    tag_44:\n      mload(0x40)\n      dup1\n      swap2\n      sub\n      swap1\n      return\n        /* \"contracts/KipuBank.sol\":1208:1237  uint256 public totalDeposited */\n    tag_10:\n      callvalue\n      dup1\n      iszero\n      tag_45\n      jumpi\n      revert(0x00, 0x00)\n    tag_45:\n      pop\n      tag_46\n      tag_47\n      jump\t// in\n    tag_46:\n      mload(0x40)\n      tag_48\n      swap2\n      swap1\n      tag_20\n      jump\t// in\n    tag_48:\n      mload(0x40)\n      dup1\n      swap2\n      sub\n      swap1\n      return\n        /* \"contracts/KipuBank.sol\":3846:4231  function deposit() public payable nonZero(msg.value) {... */\n    tag_15:\n        /* \"contracts/KipuBank.sol\":3888:3897  msg.value */\n      callvalue\n        /* \"contracts/KipuBank.sol\":3559:3560  0 */\n      0x00\n        /* \"contracts/KipuBank.sol\":3549:3555  amount */\n      dup2\n        /* \"contracts/KipuBank.sol\":3549:3560  amount == 0 */\n      sub\n        /* \"contracts/KipuBank.sol\":3545:3581  if (amount == 0) revert ZeroAmount() */\n      tag_50\n      jumpi\n        /* \"contracts/KipuBank.sol\":3569:3581  ZeroAmount() */\n      mload(0x40)\n      0x1f2a200500000000000000000000000000000000000000000000000000000000\n      dup2\n      mstore\n      0x04\n      add\n      mload(0x40)\n      dup1\n      swap2\n      sub\n      swap1\n      revert\n        /* \"contracts/KipuBank.sol\":3545:3581  if (amount == 0) revert ZeroAmount() */\n    tag_50:\n        /* \"contracts/KipuBank.sol\":3942:3949  bankCap */\n      immutable(\"0xe4b1702d9298fee62dfeccc57d322a463ad55ca201256d01f62b45b2e1c21c10\")\n        /* \"contracts/KipuBank.sol\":3930:3939  msg.value */\n      callvalue\n        /* \"contracts/KipuBank.sol\":3913:3927  totalDeposited */\n      sload(0x01)\n        /* \"contracts/KipuBank.sol\":3913:3939  totalDeposited + msg.value */\n      tag_52\n      swap2\n      swap1\n      tag_53\n      jump\t// in\n    tag_52:\n        /* \"contracts/KipuBank.sol\":3913:3949  totalDeposited + msg.value > bankCap */\n      gt\n        /* \"contracts/KipuBank.sol\":3909:4034  if (totalDeposited + msg.value > bankCap) {... */\n      iszero\n      tag_54\n      jumpi\n        /* \"contracts/KipuBank.sol\":3988:3997  msg.value */\n      callvalue\n        /* \"contracts/KipuBank.sol\":3999:4013  totalDeposited */\n      sload(0x01)\n        /* \"contracts/KipuBank.sol\":4015:4022  bankCap */\n      immutable(\"0xe4b1702d9298fee62dfeccc57d322a463ad55ca201256d01f62b45b2e1c21c10\")\n        /* \"contracts/KipuBank.sol\":3972:4023  BankCapExceeded(msg.value, totalDeposited, bankCap) */\n      mload(0x40)\n      0x621e5a6900000000000000000000000000000000000000000000000000000000\n      dup2\n      mstore\n      0x04\n      add\n      tag_55\n      swap4\n      swap3\n      swap2\n      swap1\n      tag_56\n      jump\t// in\n    tag_55:\n      mload(0x40)\n      dup1\n      swap2\n      sub\n      swap1\n      revert\n        /* \"contracts/KipuBank.sol\":3909:4034  if (totalDeposited + msg.value > bankCap) {... */\n    tag_54:\n        /* \"contracts/KipuBank.sol\":4069:4078  msg.value */\n      callvalue\n        /* \"contracts/KipuBank.sol\":4044:4053  _balances */\n      0x00\n        /* \"contracts/KipuBank.sol\":4044:4065  _balances[msg.sender] */\n      0x00\n        /* \"contracts/KipuBank.sol\":4054:4064  msg.sender */\n      caller\n        /* \"contracts/KipuBank.sol\":4044:4065  _balances[msg.sender] */\n      0xffffffffffffffffffffffffffffffffffffffff\n      and\n      0xffffffffffffffffffffffffffffffffffffffff\n      and\n      dup2\n      mstore\n      0x20\n      add\n      swap1\n      dup2\n      mstore\n      0x20\n      add\n      0x00\n      keccak256\n      0x00\n        /* \"contracts/KipuBank.sol\":4044:4078  _balances[msg.sender] += msg.value */\n      dup3\n      dup3\n      sload\n      tag_57\n      swap2\n      swap1\n      tag_53\n      jump\t// in\n    tag_57:\n      swap3\n      pop\n      pop\n      dup2\n      swap1\n      sstore\n      pop\n        /* \"contracts/KipuBank.sol\":4106:4115  msg.value */\n      callvalue\n        /* \"contracts/KipuBank.sol\":4088:4102  totalDeposited */\n      0x01\n      0x00\n        /* \"contracts/KipuBank.sol\":4088:4115  totalDeposited += msg.value */\n      dup3\n      dup3\n      sload\n      tag_58\n      swap2\n      swap1\n      tag_53\n      jump\t// in\n    tag_58:\n      swap3\n      pop\n      pop\n      dup2\n      swap1\n      sstore\n      pop\n        /* \"contracts/KipuBank.sol\":4125:4137  depositCount */\n      0x02\n      0x00\n        /* \"contracts/KipuBank.sol\":4125:4139  depositCount++ */\n      dup2\n      sload\n      dup1\n      swap3\n      swap2\n      swap1\n      tag_59\n      swap1\n      tag_60\n      jump\t// in\n    tag_59:\n      swap2\n      swap1\n      pop\n      sstore\n      pop\n        /* \"contracts/KipuBank.sol\":4163:4173  msg.sender */\n      caller\n        /* \"contracts/KipuBank.sol\":4155:4224  Deposit(msg.sender, msg.value, _balances[msg.sender], totalDeposited) */\n      0xffffffffffffffffffffffffffffffffffffffff\n      and\n      0x36af321ec8d3c75236829c5317affd40ddb308863a1236d2d277a4025cccee1e\n        /* \"contracts/KipuBank.sol\":4175:4184  msg.value */\n      callvalue\n        /* \"contracts/KipuBank.sol\":4186:4195  _balances */\n      0x00\n        /* \"contracts/KipuBank.sol\":4186:4207  _balances[msg.sender] */\n      0x00\n        /* \"contracts/KipuBank.sol\":4196:4206  msg.sender */\n      caller\n        /* \"contracts/KipuBank.sol\":4186:4207  _balances[msg.sender] */\n      0xffffffffffffffffffffffffffffffffffffffff\n      and\n      0xffffffffffffffffffffffffffffffffffffffff\n      and\n      dup2\n      mstore\n      0x20\n      add\n      swap1\n      dup2\n      mstore\n      0x20\n      add\n      0x00\n      keccak256\n      sload\n        /* \"contracts/KipuBank.sol\":4209:4223  totalDeposited */\n      sload(0x01)\n        /* \"contracts/KipuBank.sol\":4155:4224  Deposit(msg.sender, msg.value, _balances[msg.sender], totalDeposited) */\n      mload(0x40)\n      tag_61\n      swap4\n      swap3\n      swap2\n      swap1\n      tag_56\n      jump\t// in\n    tag_61:\n      mload(0x40)\n      dup1\n      swap2\n      sub\n      swap1\n      log2\n        /* \"contracts/KipuBank.sol\":3846:4231  function deposit() public payable nonZero(msg.value) {... */\n      pop\n      jump\t// out\n        /* \"contracts/KipuBank.sol\":1299:1326  uint256 public depositCount */\n    tag_18:\n      sload(0x02)\n      dup2\n      jump\t// out\n        /* \"contracts/KipuBank.sol\":4373:4967  function withdraw(uint256 amount) external nonZero(amount) {... */\n    tag_25:\n        /* \"contracts/KipuBank.sol\":4424:4430  amount */\n      dup1\n        /* \"contracts/KipuBank.sol\":3559:3560  0 */\n      0x00\n        /* \"contracts/KipuBank.sol\":3549:3555  amount */\n      dup2\n        /* \"contracts/KipuBank.sol\":3549:3560  amount == 0 */\n      sub\n        /* \"contracts/KipuBank.sol\":3545:3581  if (amount == 0) revert ZeroAmount() */\n      tag_63\n      jumpi\n        /* \"contracts/KipuBank.sol\":3569:3581  ZeroAmount() */\n      mload(0x40)\n      0x1f2a200500000000000000000000000000000000000000000000000000000000\n      dup2\n      mstore\n      0x04\n      add\n      mload(0x40)\n      dup1\n      swap2\n      sub\n      swap1\n      revert\n        /* \"contracts/KipuBank.sol\":3545:3581  if (amount == 0) revert ZeroAmount() */\n    tag_63:\n        /* \"contracts/KipuBank.sol\":4442:4457  uint256 balance */\n      0x00\n        /* \"contracts/KipuBank.sol\":4460:4469  _balances */\n      0x00\n        /* \"contracts/KipuBank.sol\":4460:4481  _balances[msg.sender] */\n      0x00\n        /* \"contracts/KipuBank.sol\":4470:4480  msg.sender */\n      caller\n        /* \"contracts/KipuBank.sol\":4460:4481  _balances[msg.sender] */\n      0xffffffffffffffffffffffffffffffffffffffff\n      and\n      0xffffffffffffffffffffffffffffffffffffffff\n      and\n      dup2\n      mstore\n      0x20\n      add\n      swap1\n      dup2\n      mstore\n      0x20\n      add\n      0x00\n      keccak256\n      sload\n        /* \"contracts/KipuBank.sol\":4442:4481  uint256 balance = _balances[msg.sender] */\n      swap1\n      pop\n        /* \"contracts/KipuBank.sol\":4505:4512  balance */\n      dup1\n        /* \"contracts/KipuBank.sol\":4496:4502  amount */\n      dup4\n        /* \"contracts/KipuBank.sol\":4496:4512  amount > balance */\n      gt\n        /* \"contracts/KipuBank.sol\":4492:4557  if (amount > balance) revert InsufficientBalance(amount, balance) */\n      iszero\n      tag_65\n      jumpi\n        /* \"contracts/KipuBank.sol\":4541:4547  amount */\n      dup3\n        /* \"contracts/KipuBank.sol\":4549:4556  balance */\n      dup2\n        /* \"contracts/KipuBank.sol\":4521:4557  InsufficientBalance(amount, balance) */\n      mload(0x40)\n      0xcf47918100000000000000000000000000000000000000000000000000000000\n      dup2\n      mstore\n      0x04\n      add\n      tag_66\n      swap3\n      swap2\n      swap1\n      tag_67\n      jump\t// in\n    tag_66:\n      mload(0x40)\n      dup1\n      swap2\n      sub\n      swap1\n      revert\n        /* \"contracts/KipuBank.sol\":4492:4557  if (amount > balance) revert InsufficientBalance(amount, balance) */\n    tag_65:\n        /* \"contracts/KipuBank.sol\":4580:4598  withdrawLimitPerTx */\n      immutable(\"0xceebf77a833b30520287ddd9478ff51abbdffa30aa90a8d655dba0e8a79ce0c1\")\n        /* \"contracts/KipuBank.sol\":4571:4577  amount */\n      dup4\n        /* \"contracts/KipuBank.sol\":4571:4598  amount > withdrawLimitPerTx */\n      gt\n        /* \"contracts/KipuBank.sol\":4567:4656  if (amount > withdrawLimitPerTx) revert WithdrawLimitExceeded(amount, withdrawLimitPerTx) */\n      iszero\n      tag_68\n      jumpi\n        /* \"contracts/KipuBank.sol\":4629:4635  amount */\n      dup3\n        /* \"contracts/KipuBank.sol\":4637:4655  withdrawLimitPerTx */\n      immutable(\"0xceebf77a833b30520287ddd9478ff51abbdffa30aa90a8d655dba0e8a79ce0c1\")\n        /* \"contracts/KipuBank.sol\":4607:4656  WithdrawLimitExceeded(amount, withdrawLimitPerTx) */\n      mload(0x40)\n      0x016d0ef100000000000000000000000000000000000000000000000000000000\n      dup2\n      mstore\n      0x04\n      add\n      tag_69\n      swap3\n      swap2\n      swap1\n      tag_67\n      jump\t// in\n    tag_69:\n      mload(0x40)\n      dup1\n      swap2\n      sub\n      swap1\n      revert\n        /* \"contracts/KipuBank.sol\":4567:4656  if (amount > withdrawLimitPerTx) revert WithdrawLimitExceeded(amount, withdrawLimitPerTx) */\n    tag_68:\n        /* \"contracts/KipuBank.sol\":4692:4698  amount */\n      dup3\n        /* \"contracts/KipuBank.sol\":4667:4676  _balances */\n      0x00\n        /* \"contracts/KipuBank.sol\":4667:4688  _balances[msg.sender] */\n      0x00\n        /* \"contracts/KipuBank.sol\":4677:4687  msg.sender */\n      caller\n        /* \"contracts/KipuBank.sol\":4667:4688  _balances[msg.sender] */\n      0xffffffffffffffffffffffffffffffffffffffff\n      and\n      0xffffffffffffffffffffffffffffffffffffffff\n      and\n      dup2\n      mstore\n      0x20\n      add\n      swap1\n      dup2\n      mstore\n      0x20\n      add\n      0x00\n      keccak256\n      0x00\n        /* \"contracts/KipuBank.sol\":4667:4698  _balances[msg.sender] -= amount */\n      dup3\n      dup3\n      sload\n      tag_70\n      swap2\n      swap1\n      tag_71\n      jump\t// in\n    tag_70:\n      swap3\n      pop\n      pop\n      dup2\n      swap1\n      sstore\n      pop\n        /* \"contracts/KipuBank.sol\":4726:4732  amount */\n      dup3\n        /* \"contracts/KipuBank.sol\":4708:4722  totalDeposited */\n      0x01\n      0x00\n        /* \"contracts/KipuBank.sol\":4708:4732  totalDeposited -= amount */\n      dup3\n      dup3\n      sload\n      tag_72\n      swap2\n      swap1\n      tag_71\n      jump\t// in\n    tag_72:\n      swap3\n      pop\n      pop\n      dup2\n      swap1\n      sstore\n      pop\n        /* \"contracts/KipuBank.sol\":4742:4755  withdrawCount */\n      0x03\n      0x00\n        /* \"contracts/KipuBank.sol\":4742:4757  withdrawCount++ */\n      dup2\n      sload\n      dup1\n      swap3\n      swap2\n      swap1\n      tag_73\n      swap1\n      tag_60\n      jump\t// in\n    tag_73:\n      swap2\n      swap1\n      pop\n      sstore\n      pop\n        /* \"contracts/KipuBank.sol\":4769:4781  bool success */\n      0x00\n        /* \"contracts/KipuBank.sol\":4795:4805  msg.sender */\n      caller\n        /* \"contracts/KipuBank.sol\":4787:4811  payable(msg.sender).call */\n      0xffffffffffffffffffffffffffffffffffffffff\n      and\n        /* \"contracts/KipuBank.sol\":4819:4825  amount */\n      dup5\n        /* \"contracts/KipuBank.sol\":4787:4830  payable(msg.sender).call{value: amount}(\"\") */\n      mload(0x40)\n      tag_74\n      swap1\n      tag_75\n      jump\t// in\n    tag_74:\n      0x00\n      mload(0x40)\n      dup1\n      dup4\n      sub\n      dup2\n      dup6\n      dup8\n      gas\n      call\n      swap3\n      pop\n      pop\n      pop\n      returndatasize\n      dup1\n      0x00\n      dup2\n      eq\n      tag_78\n      jumpi\n      mload(0x40)\n      swap2\n      pop\n      and(add(returndatasize, 0x3f), not(0x1f))\n      dup3\n      add\n      0x40\n      mstore\n      returndatasize\n      dup3\n      mstore\n      returndatasize\n      0x00\n      0x20\n      dup5\n      add\n      returndatacopy\n      jump(tag_77)\n    tag_78:\n      0x60\n      swap2\n      pop\n    tag_77:\n      pop\n        /* \"contracts/KipuBank.sol\":4768:4830  (bool success, ) = payable(msg.sender).call{value: amount}(\"\") */\n      pop\n      swap1\n      pop\n        /* \"contracts/KipuBank.sol\":4845:4852  success */\n      dup1\n        /* \"contracts/KipuBank.sol\":4840:4877  if (!success) revert TransferFailed() */\n      tag_79\n      jumpi\n        /* \"contracts/KipuBank.sol\":4861:4877  TransferFailed() */\n      mload(0x40)\n      0x90b8ec1800000000000000000000000000000000000000000000000000000000\n      dup2\n      mstore\n      0x04\n      add\n      mload(0x40)\n      dup1\n      swap2\n      sub\n      swap1\n      revert\n        /* \"contracts/KipuBank.sol\":4840:4877  if (!success) revert TransferFailed() */\n    tag_79:\n        /* \"contracts/KipuBank.sol\":4902:4912  msg.sender */\n      caller\n        /* \"contracts/KipuBank.sol\":4893:4960  Withdraw(msg.sender, amount, _balances[msg.sender], totalDeposited) */\n      0xffffffffffffffffffffffffffffffffffffffff\n      and\n      0x02f25270a4d87bea75db541cdfe559334a275b4a233520ed6c0a2429667cca94\n        /* \"contracts/KipuBank.sol\":4914:4920  amount */\n      dup6\n        /* \"contracts/KipuBank.sol\":4922:4931  _balances */\n      0x00\n        /* \"contracts/KipuBank.sol\":4922:4943  _balances[msg.sender] */\n      0x00\n        /* \"contracts/KipuBank.sol\":4932:4942  msg.sender */\n      caller\n        /* \"contracts/KipuBank.sol\":4922:4943  _balances[msg.sender] */\n      0xffffffffffffffffffffffffffffffffffffffff\n      and\n      0xffffffffffffffffffffffffffffffffffffffff\n      and\n      dup2\n      mstore\n      0x20\n      add\n      swap1\n      dup2\n      mstore\n      0x20\n      add\n      0x00\n      keccak256\n      sload\n        /* \"contracts/KipuBank.sol\":4945:4959  totalDeposited */\n      sload(0x01)\n        /* \"contracts/KipuBank.sol\":4893:4960  Withdraw(msg.sender, amount, _balances[msg.sender], totalDeposited) */\n      mload(0x40)\n      tag_80\n      swap4\n      swap3\n      swap2\n      swap1\n      tag_56\n      jump\t// in\n    tag_80:\n      mload(0x40)\n      dup1\n      swap2\n      sub\n      swap1\n      log2\n        /* \"contracts/KipuBank.sol\":4432:4967  {... */\n      pop\n      pop\n        /* \"contracts/KipuBank.sol\":4373:4967  function withdraw(uint256 amount) external nonZero(amount) {... */\n      pop\n      pop\n      jump\t// out\n        /* \"contracts/KipuBank.sol\":1385:1413  uint256 public withdrawCount */\n    tag_28:\n      sload(0x03)\n      dup2\n      jump\t// out\n        /* \"contracts/KipuBank.sol\":5092:5196  function balanceOf(address user) external view returns (uint256) {... */\n    tag_34:\n        /* \"contracts/KipuBank.sol\":5148:5155  uint256 */\n      0x00\n        /* \"contracts/KipuBank.sol\":5174:5183  _balances */\n      0x00\n        /* \"contracts/KipuBank.sol\":5174:5189  _balances[user] */\n      0x00\n        /* \"contracts/KipuBank.sol\":5184:5188  user */\n      dup4\n        /* \"contracts/KipuBank.sol\":5174:5189  _balances[user] */\n      0xffffffffffffffffffffffffffffffffffffffff\n      and\n      0xffffffffffffffffffffffffffffffffffffffff\n      and\n      dup2\n      mstore\n      0x20\n      add\n      swap1\n      dup2\n      mstore\n      0x20\n      add\n      0x00\n      keccak256\n      sload\n        /* \"contracts/KipuBank.sol\":5167:5189  return _balances[user] */\n      swap1\n      pop\n        /* \"contracts/KipuBank.sol\":5092:5196  function balanceOf(address user) external view returns (uint256) {... */\n      swap2\n      swap1\n      pop\n      jump\t// out\n        /* \"contracts/KipuBank.sol\":641:684  uint256 public immutable withdrawLimitPerTx */\n    tag_38:\n      immutable(\"0xceebf77a833b30520287ddd9478ff51abbdffa30aa90a8d655dba0e8a79ce0c1\")\n      dup2\n      jump\t// out\n        /* \"contracts/KipuBank.sol\":821:853  uint256 public immutable bankCap */\n    tag_43:\n      immutable(\"0xe4b1702d9298fee62dfeccc57d322a463ad55ca201256d01f62b45b2e1c21c10\")\n      dup2\n      jump\t// out\n        /* \"contracts/KipuBank.sol\":1208:1237  uint256 public totalDeposited */\n    tag_47:\n      sload(0x01)\n      dup2\n      jump\t// out\n        /* \"#utility.yul\":7:84   */\n    tag_82:\n        /* \"#utility.yul\":44:51   */\n      0x00\n        /* \"#utility.yul\":73:78   */\n      dup2\n        /* \"#utility.yul\":62:78   */\n      swap1\n      pop\n        /* \"#utility.yul\":7:84   */\n      swap2\n      swap1\n      pop\n      jump\t// out\n        /* \"#utility.yul\":90:208   */\n    tag_83:\n        /* \"#utility.yul\":177:201   */\n      tag_100\n        /* \"#utility.yul\":195:200   */\n      dup2\n        /* \"#utility.yul\":177:201   */\n      tag_82\n      jump\t// in\n    tag_100:\n        /* \"#utility.yul\":172:175   */\n      dup3\n        /* \"#utility.yul\":165:202   */\n      mstore\n        /* \"#utility.yul\":90:208   */\n      pop\n      pop\n      jump\t// out\n        /* \"#utility.yul\":214:436   */\n    tag_20:\n        /* \"#utility.yul\":307:311   */\n      0x00\n        /* \"#utility.yul\":345:347   */\n      0x20\n        /* \"#utility.yul\":334:343   */\n      dup3\n        /* \"#utility.yul\":330:348   */\n      add\n        /* \"#utility.yul\":322:348   */\n      swap1\n      pop\n        /* \"#utility.yul\":358:429   */\n      tag_102\n        /* \"#utility.yul\":426:427   */\n      0x00\n        /* \"#utility.yul\":415:424   */\n      dup4\n        /* \"#utility.yul\":411:428   */\n      add\n        /* \"#utility.yul\":402:408   */\n      dup5\n        /* \"#utility.yul\":358:429   */\n      tag_83\n      jump\t// in\n    tag_102:\n        /* \"#utility.yul\":214:436   */\n      swap3\n      swap2\n      pop\n      pop\n      jump\t// out\n        /* \"#utility.yul\":523:640   */\n    tag_85:\n        /* \"#utility.yul\":632:633   */\n      0x00\n        /* \"#utility.yul\":629:630   */\n      0x00\n        /* \"#utility.yul\":622:634   */\n      revert\n        /* \"#utility.yul\":769:891   */\n    tag_87:\n        /* \"#utility.yul\":842:866   */\n      tag_107\n        /* \"#utility.yul\":860:865   */\n      dup2\n        /* \"#utility.yul\":842:866   */\n      tag_82\n      jump\t// in\n    tag_107:\n        /* \"#utility.yul\":835:840   */\n      dup2\n        /* \"#utility.yul\":832:867   */\n      eq\n        /* \"#utility.yul\":822:885   */\n      tag_108\n      jumpi\n        /* \"#utility.yul\":881:882   */\n      0x00\n        /* \"#utility.yul\":878:879   */\n      0x00\n        /* \"#utility.yul\":871:883   */\n      revert\n        /* \"#utility.yul\":822:885   */\n    tag_108:\n        /* \"#utility.yul\":769:891   */\n      pop\n      jump\t// out\n        /* \"#utility.yul\":897:1036   */\n    tag_88:\n        /* \"#utility.yul\":943:948   */\n      0x00\n        /* \"#utility.yul\":981:987   */\n      dup2\n        /* \"#utility.yul\":968:988   */\n      calldataload\n        /* \"#utility.yul\":959:988   */\n      swap1\n      pop\n        /* \"#utility.yul\":997:1030   */\n      tag_110\n        /* \"#utility.yul\":1024:1029   */\n      dup2\n        /* \"#utility.yul\":997:1030   */\n      tag_87\n      jump\t// in\n    tag_110:\n        /* \"#utility.yul\":897:1036   */\n      swap3\n      swap2\n      pop\n      pop\n      jump\t// out\n        /* \"#utility.yul\":1042:1371   */\n    tag_24:\n        /* \"#utility.yul\":1101:1107   */\n      0x00\n        /* \"#utility.yul\":1150:1152   */\n      0x20\n        /* \"#utility.yul\":1138:1147   */\n      dup3\n        /* \"#utility.yul\":1129:1136   */\n      dup5\n        /* \"#utility.yul\":1125:1148   */\n      sub\n        /* \"#utility.yul\":1121:1153   */\n      slt\n        /* \"#utility.yul\":1118:1237   */\n      iszero\n      tag_112\n      jumpi\n        /* \"#utility.yul\":1156:1235   */\n      tag_113\n      tag_85\n      jump\t// in\n    tag_113:\n        /* \"#utility.yul\":1118:1237   */\n    tag_112:\n        /* \"#utility.yul\":1276:1277   */\n      0x00\n        /* \"#utility.yul\":1301:1354   */\n      tag_114\n        /* \"#utility.yul\":1346:1353   */\n      dup5\n        /* \"#utility.yul\":1337:1343   */\n      dup3\n        /* \"#utility.yul\":1326:1335   */\n      dup6\n        /* \"#utility.yul\":1322:1344   */\n      add\n        /* \"#utility.yul\":1301:1354   */\n      tag_88\n      jump\t// in\n    tag_114:\n        /* \"#utility.yul\":1291:1354   */\n      swap2\n      pop\n        /* \"#utility.yul\":1247:1364   */\n      pop\n        /* \"#utility.yul\":1042:1371   */\n      swap3\n      swap2\n      pop\n      pop\n      jump\t// out\n        /* \"#utility.yul\":1377:1503   */\n    tag_89:\n        /* \"#utility.yul\":1414:1421   */\n      0x00\n        /* \"#utility.yul\":1454:1496   */\n      0xffffffffffffffffffffffffffffffffffffffff\n        /* \"#utility.yul\":1447:1452   */\n      dup3\n        /* \"#utility.yul\":1443:1497   */\n      and\n        /* \"#utility.yul\":1432:1497   */\n      swap1\n      pop\n        /* \"#utility.yul\":1377:1503   */\n      swap2\n      swap1\n      pop\n      jump\t// out\n        /* \"#utility.yul\":1509:1605   */\n    tag_90:\n        /* \"#utility.yul\":1546:1553   */\n      0x00\n        /* \"#utility.yul\":1575:1599   */\n      tag_117\n        /* \"#utility.yul\":1593:1598   */\n      dup3\n        /* \"#utility.yul\":1575:1599   */\n      tag_89\n      jump\t// in\n    tag_117:\n        /* \"#utility.yul\":1564:1599   */\n      swap1\n      pop\n        /* \"#utility.yul\":1509:1605   */\n      swap2\n      swap1\n      pop\n      jump\t// out\n        /* \"#utility.yul\":1611:1733   */\n    tag_91:\n        /* \"#utility.yul\":1684:1708   */\n      tag_119\n        /* \"#utility.yul\":1702:1707   */\n      dup2\n        /* \"#utility.yul\":1684:1708   */\n      tag_90\n      jump\t// in\n    tag_119:\n        /* \"#utility.yul\":1677:1682   */\n      dup2\n        /* \"#utility.yul\":1674:1709   */\n      eq\n        /* \"#utility.yul\":1664:1727   */\n      tag_120\n      jumpi\n        /* \"#utility.yul\":1723:1724   */\n      0x00\n        /* \"#utility.yul\":1720:1721   */\n      0x00\n        /* \"#utility.yul\":1713:1725   */\n      revert\n        /* \"#utility.yul\":1664:1727   */\n    tag_120:\n        /* \"#utility.yul\":1611:1733   */\n      pop\n      jump\t// out\n        /* \"#utility.yul\":1739:1878   */\n    tag_92:\n        /* \"#utility.yul\":1785:1790   */\n      0x00\n        /* \"#utility.yul\":1823:1829   */\n      dup2\n        /* \"#utility.yul\":1810:1830   */\n      calldataload\n        /* \"#utility.yul\":1801:1830   */\n      swap1\n      pop\n        /* \"#utility.yul\":1839:1872   */\n      tag_122\n        /* \"#utility.yul\":1866:1871   */\n      dup2\n        /* \"#utility.yul\":1839:1872   */\n      tag_91\n      jump\t// in\n    tag_122:\n        /* \"#utility.yul\":1739:1878   */\n      swap3\n      swap2\n      pop\n      pop\n      jump\t// out\n        /* \"#utility.yul\":1884:2213   */\n    tag_33:\n        /* \"#utility.yul\":1943:1949   */\n      0x00\n        /* \"#utility.yul\":1992:1994   */\n      0x20\n        /* \"#utility.yul\":1980:1989   */\n      dup3\n        /* \"#utility.yul\":1971:1978   */\n      dup5\n        /* \"#utility.yul\":1967:1990   */\n      sub\n        /* \"#utility.yul\":1963:1995   */\n      slt\n        /* \"#utility.yul\":1960:2079   */\n      iszero\n      tag_124\n      jumpi\n        /* \"#utility.yul\":1998:2077   */\n      tag_125\n      tag_85\n      jump\t// in\n    tag_125:\n        /* \"#utility.yul\":1960:2079   */\n    tag_124:\n        /* \"#utility.yul\":2118:2119   */\n      0x00\n        /* \"#utility.yul\":2143:2196   */\n      tag_126\n        /* \"#utility.yul\":2188:2195   */\n      dup5\n        /* \"#utility.yul\":2179:2185   */\n      dup3\n        /* \"#utility.yul\":2168:2177   */\n      dup6\n        /* \"#utility.yul\":2164:2186   */\n      add\n        /* \"#utility.yul\":2143:2196   */\n      tag_92\n      jump\t// in\n    tag_126:\n        /* \"#utility.yul\":2133:2196   */\n      swap2\n      pop\n        /* \"#utility.yul\":2089:2206   */\n      pop\n        /* \"#utility.yul\":1884:2213   */\n      swap3\n      swap2\n      pop\n      pop\n      jump\t// out\n        /* \"#utility.yul\":2219:2399   */\n    tag_93:\n        /* \"#utility.yul\":2267:2344   */\n      0x4e487b7100000000000000000000000000000000000000000000000000000000\n        /* \"#utility.yul\":2264:2265   */\n      0x00\n        /* \"#utility.yul\":2257:2345   */\n      mstore\n        /* \"#utility.yul\":2364:2368   */\n      0x11\n        /* \"#utility.yul\":2361:2362   */\n      0x04\n        /* \"#utility.yul\":2354:2369   */\n      mstore\n        /* \"#utility.yul\":2388:2392   */\n      0x24\n        /* \"#utility.yul\":2385:2386   */\n      0x00\n        /* \"#utility.yul\":2378:2393   */\n      revert\n        /* \"#utility.yul\":2405:2596   */\n    tag_53:\n        /* \"#utility.yul\":2445:2448   */\n      0x00\n        /* \"#utility.yul\":2464:2484   */\n      tag_129\n        /* \"#utility.yul\":2482:2483   */\n      dup3\n        /* \"#utility.yul\":2464:2484   */\n      tag_82\n      jump\t// in\n    tag_129:\n        /* \"#utility.yul\":2459:2484   */\n      swap2\n      pop\n        /* \"#utility.yul\":2498:2518   */\n      tag_130\n        /* \"#utility.yul\":2516:2517   */\n      dup4\n        /* \"#utility.yul\":2498:2518   */\n      tag_82\n      jump\t// in\n    tag_130:\n        /* \"#utility.yul\":2493:2518   */\n      swap3\n      pop\n        /* \"#utility.yul\":2541:2542   */\n      dup3\n        /* \"#utility.yul\":2538:2539   */\n      dup3\n        /* \"#utility.yul\":2534:2543   */\n      add\n        /* \"#utility.yul\":2527:2543   */\n      swap1\n      pop\n        /* \"#utility.yul\":2562:2565   */\n      dup1\n        /* \"#utility.yul\":2559:2560   */\n      dup3\n        /* \"#utility.yul\":2556:2566   */\n      gt\n        /* \"#utility.yul\":2553:2589   */\n      iszero\n      tag_131\n      jumpi\n        /* \"#utility.yul\":2569:2587   */\n      tag_132\n      tag_93\n      jump\t// in\n    tag_132:\n        /* \"#utility.yul\":2553:2589   */\n    tag_131:\n        /* \"#utility.yul\":2405:2596   */\n      swap3\n      swap2\n      pop\n      pop\n      jump\t// out\n        /* \"#utility.yul\":2602:3044   */\n    tag_56:\n        /* \"#utility.yul\":2751:2755   */\n      0x00\n        /* \"#utility.yul\":2789:2791   */\n      0x60\n        /* \"#utility.yul\":2778:2787   */\n      dup3\n        /* \"#utility.yul\":2774:2792   */\n      add\n        /* \"#utility.yul\":2766:2792   */\n      swap1\n      pop\n        /* \"#utility.yul\":2802:2873   */\n      tag_134\n        /* \"#utility.yul\":2870:2871   */\n      0x00\n        /* \"#utility.yul\":2859:2868   */\n      dup4\n        /* \"#utility.yul\":2855:2872   */\n      add\n        /* \"#utility.yul\":2846:2852   */\n      dup7\n        /* \"#utility.yul\":2802:2873   */\n      tag_83\n      jump\t// in\n    tag_134:\n        /* \"#utility.yul\":2883:2955   */\n      tag_135\n        /* \"#utility.yul\":2951:2953   */\n      0x20\n        /* \"#utility.yul\":2940:2949   */\n      dup4\n        /* \"#utility.yul\":2936:2954   */\n      add\n        /* \"#utility.yul\":2927:2933   */\n      dup6\n        /* \"#utility.yul\":2883:2955   */\n      tag_83\n      jump\t// in\n    tag_135:\n        /* \"#utility.yul\":2965:3037   */\n      tag_136\n        /* \"#utility.yul\":3033:3035   */\n      0x40\n        /* \"#utility.yul\":3022:3031   */\n      dup4\n        /* \"#utility.yul\":3018:3036   */\n      add\n        /* \"#utility.yul\":3009:3015   */\n      dup5\n        /* \"#utility.yul\":2965:3037   */\n      tag_83\n      jump\t// in\n    tag_136:\n        /* \"#utility.yul\":2602:3044   */\n      swap5\n      swap4\n      pop\n      pop\n      pop\n      pop\n      jump\t// out\n        /* \"#utility.yul\":3050:3283   */\n    tag_60:\n        /* \"#utility.yul\":3089:3092   */\n      0x00\n        /* \"#utility.yul\":3112:3136   */\n      tag_138\n        /* \"#utility.yul\":3130:3135   */\n      dup3\n        /* \"#utility.yul\":3112:3136   */\n      tag_82\n      jump\t// in\n    tag_138:\n        /* \"#utility.yul\":3103:3136   */\n      swap2\n      pop\n        /* \"#utility.yul\":3158:3224   */\n      0xffffffffffffffffffffffffffffffffffffffffffffffffffffffffffffffff\n        /* \"#utility.yul\":3151:3156   */\n      dup3\n        /* \"#utility.yul\":3148:3225   */\n      sub\n        /* \"#utility.yul\":3145:3248   */\n      tag_139\n      jumpi\n        /* \"#utility.yul\":3228:3246   */\n      tag_140\n      tag_93\n      jump\t// in\n    tag_140:\n        /* \"#utility.yul\":3145:3248   */\n    tag_139:\n        /* \"#utility.yul\":3275:3276   */\n      0x01\n        /* \"#utility.yul\":3268:3273   */\n      dup3\n        /* \"#utility.yul\":3264:3277   */\n      add\n        /* \"#utility.yul\":3257:3277   */\n      swap1\n      pop\n        /* \"#utility.yul\":3050:3283   */\n      swap2\n      swap1\n      pop\n      jump\t// out\n        /* \"#utility.yul\":3289:3621   */\n    tag_67:\n        /* \"#utility.yul\":3410:3414   */\n      0x00\n        /* \"#utility.yul\":3448:3450   */\n      0x40\n        /* \"#utility.yul\":3437:3446   */\n      dup3\n        /* \"#utility.yul\":3433:3451   */\n      add\n        /* \"#utility.yul\":3425:3451   */\n      swap1\n      pop\n        /* \"#utility.yul\":3461:3532   */\n      tag_142\n        /* \"#utility.yul\":3529:3530   */\n      0x00\n        /* \"#utility.yul\":3518:3527   */\n      dup4\n        /* \"#utility.yul\":3514:3531   */\n      add\n        /* \"#utility.yul\":3505:3511   */\n      dup6\n        /* \"#utility.yul\":3461:3532   */\n      tag_83\n      jump\t// in\n    tag_142:\n        /* \"#utility.yul\":3542:3614   */\n      tag_143\n        /* \"#utility.yul\":3610:3612   */\n      0x20\n        /* \"#utility.yul\":3599:3608   */\n      dup4\n        /* \"#utility.yul\":3595:3613   */\n      add\n        /* \"#utility.yul\":3586:3592   */\n      dup5\n        /* \"#utility.yul\":3542:3614   */\n      tag_83\n      jump\t// in\n    tag_143:\n        /* \"#utility.yul\":3289:3621   */\n      swap4\n      swap3\n      pop\n      pop\n      pop\n      jump\t// out\n        /* \"#utility.yul\":3627:3821   */\n    tag_71:\n        /* \"#utility.yul\":3667:3671   */\n      0x00\n        /* \"#utility.yul\":3687:3707   */\n      tag_145\n        /* \"#utility.yul\":3705:3706   */\n      dup3\n        /* \"#utility.yul\":3687:3707   */\n      tag_82\n      jump\t// in\n    tag_145:\n        /* \"#utility.yul\":3682:3707   */\n      swap2\n      pop\n        /* \"#utility.yul\":3721:3741   */\n      tag_146\n        /* \"#utility.yul\":3739:3740   */\n      dup4\n        /* \"#utility.yul\":3721:3741   */\n      tag_82\n      jump\t// in\n    tag_146:\n        /* \"#utility.yul\":3716:3741   */\n      swap3\n      pop\n        /* \"#utility.yul\":3765:3766   */\n      dup3\n        /* \"#utility.yul\":3762:3763   */\n      dup3\n        /* \"#utility.yul\":3758:3767   */\n      sub\n        /* \"#utility.yul\":3750:3767   */\n      swap1\n      pop\n        /* \"#utility.yul\":3789:3790   */\n      dup2\n        /* \"#utility.yul\":3783:3787   */\n      dup2\n        /* \"#utility.yul\":3780:3791   */\n      gt\n        /* \"#utility.yul\":3777:3814   */\n      iszero\n      tag_147\n      jumpi\n        /* \"#utility.yul\":3794:3812   */\n      tag_148\n      tag_93\n      jump\t// in\n    tag_148:\n        /* \"#utility.yul\":3777:3814   */\n    tag_147:\n        /* \"#utility.yul\":3627:3821   */\n      swap3\n      swap2\n      pop\n      pop\n      jump\t// out\n        /* \"#utility.yul\":3827:3974   */\n    tag_94:\n        /* \"#utility.yul\":3928:3939   */\n      0x00\n        /* \"#utility.yul\":3965:3968   */\n      dup2\n        /* \"#utility.yul\":3950:3968   */\n      swap1\n      pop\n        /* \"#utility.yul\":3827:3974   */\n      swap3\n      swap2\n      pop\n      pop\n      jump\t// out\n        /* \"#utility.yul\":3980:4094   */\n    tag_95:\n      pop\n      jump\t// out\n        /* \"#utility.yul\":4100:4498   */\n    tag_96:\n        /* \"#utility.yul\":4259:4262   */\n      0x00\n        /* \"#utility.yul\":4280:4363   */\n      tag_152\n        /* \"#utility.yul\":4361:4362   */\n      0x00\n        /* \"#utility.yul\":4356:4359   */\n      dup4\n        /* \"#utility.yul\":4280:4363   */\n      tag_94\n      jump\t// in\n    tag_152:\n        /* \"#utility.yul\":4273:4363   */\n      swap2\n      pop\n        /* \"#utility.yul\":4372:4465   */\n      tag_153\n        /* \"#utility.yul\":4461:4464   */\n      dup3\n        /* \"#utility.yul\":4372:4465   */\n      tag_95\n      jump\t// in\n    tag_153:\n        /* \"#utility.yul\":4490:4491   */\n      0x00\n        /* \"#utility.yul\":4485:4488   */\n      dup3\n        /* \"#utility.yul\":4481:4492   */\n      add\n        /* \"#utility.yul\":4474:4492   */\n      swap1\n      pop\n        /* \"#utility.yul\":4100:4498   */\n      swap2\n      swap1\n      pop\n      jump\t// out\n        /* \"#utility.yul\":4504:4883   */\n    tag_75:\n        /* \"#utility.yul\":4688:4691   */\n      0x00\n        /* \"#utility.yul\":4710:4857   */\n      tag_155\n        /* \"#utility.yul\":4853:4856   */\n      dup3\n        /* \"#utility.yul\":4710:4857   */\n      tag_96\n      jump\t// in\n    tag_155:\n        /* \"#utility.yul\":4703:4857   */\n      swap2\n      pop\n        /* \"#utility.yul\":4874:4877   */\n      dup2\n        /* \"#utility.yul\":4867:4877   */\n      swap1\n      pop\n        /* \"#utility.yul\":4504:4883   */\n      swap2\n      swap1\n      pop\n      jump\t// out\n\n    auxdata: 0xa26469706673582212206573b1702a1547c634467cc294a1d8888cf98d4a049f0e8caa5d467d5f2891fb64736f6c634300081e0033\n}\n",
				"bytecode": {
					"linkReferences": {},
					"object": "60c060405234801561000f575f5ffd5b50604051610bcf380380610bcf833981810160405281019061003191906100cc565b5f8211801561003f57505f81115b61007e576040517f08c379a000000000000000000000000000000000000000000000000000000000815260040161007590610164565b60405180910390fd5b8160a0818152505080608081815250505050610182565b5f5ffd5b5f819050919050565b6100ab81610099565b81146100b5575f5ffd5b50565b5f815190506100c6816100a2565b92915050565b5f5f604083850312156100e2576100e1610095565b5b5f6100ef858286016100b8565b9250506020610100858286016100b8565b9150509250929050565b5f82825260208201905092915050565b7f56616c6f72657320696e76616c69646f730000000000000000000000000000005f82015250565b5f61014e60118361010a565b91506101598261011a565b602082019050919050565b5f6020820190508181035f83015261017b81610142565b9050919050565b60805160a051610a106101bf5f395f818161020d01528181610246015261072c01525f8181610480015281816104a901526107080152610a105ff3fe60806040526004361061007e575f3560e01c80639c51fd6e1161004d5780639c51fd6e14610149578063d0e30db014610173578063ecbea24d1461017d578063ff50abdc146101a75761008d565b80632dfdf0b5146100915780632e1a7d4d146100bb5780634cc05a71146100e357806370a082311461010d5761008d565b3661008d5761008b6101d1565b005b5f5ffd5b34801561009c575f5ffd5b506100a56103b7565b6040516100b2919061076c565b60405180910390f35b3480156100c6575f5ffd5b506100e160048036038101906100dc91906107b3565b6103bd565b005b3480156100ee575f5ffd5b506100f76106bb565b604051610104919061076c565b60405180910390f35b348015610118575f5ffd5b50610133600480360381019061012e9190610838565b6106c1565b604051610140919061076c565b60405180910390f35b348015610154575f5ffd5b5061015d610706565b60405161016a919061076c565b60405180910390f35b61017b6101d1565b005b348015610188575f5ffd5b5061019161072a565b60405161019e919061076c565b60405180910390f35b3480156101b2575f5ffd5b506101bb61074e565b6040516101c8919061076c565b60405180910390f35b345f810361020b576040517f1f2a200500000000000000000000000000000000000000000000000000000000815260040160405180910390fd5b7f00000000000000000000000000000000000000000000000000000000000000003460015461023a9190610890565b11156102a357346001547f00000000000000000000000000000000000000000000000000000000000000006040517f621e5a6900000000000000000000000000000000000000000000000000000000815260040161029a939291906108c3565b60405180910390fd5b345f5f3373ffffffffffffffffffffffffffffffffffffffff1673ffffffffffffffffffffffffffffffffffffffff1681526020019081526020015f205f8282546102ee9190610890565b925050819055503460015f8282546103069190610890565b9250508190555060025f81548092919061031f906108f8565b91905055503373ffffffffffffffffffffffffffffffffffffffff167f36af321ec8d3c75236829c5317affd40ddb308863a1236d2d277a4025cccee1e345f5f3373ffffffffffffffffffffffffffffffffffffffff1673ffffffffffffffffffffffffffffffffffffffff1681526020019081526020015f20546001546040516103ac939291906108c3565b60405180910390a250565b60025481565b805f81036103f7576040517f1f2a200500000000000000000000000000000000000000000000000000000000815260040160405180910390fd5b5f5f5f3373ffffffffffffffffffffffffffffffffffffffff1673ffffffffffffffffffffffffffffffffffffffff1681526020019081526020015f205490508083111561047e5782816040517fcf47918100000000000000000000000000000000000000000000000000000000815260040161047592919061093f565b60405180910390fd5b7f000000000000000000000000000000000000000000000000000000000000000083111561050557827f00000000000000000000000000000000000000000000000000000000000000006040517f016d0ef10000000000000000000000000000000000000000000000000000000081526004016104fc92919061093f565b60405180910390fd5b825f5f3373ffffffffffffffffffffffffffffffffffffffff1673ffffffffffffffffffffffffffffffffffffffff1681526020019081526020015f205f8282546105509190610966565b925050819055508260015f8282546105689190610966565b9250508190555060035f815480929190610581906108f8565b91905055505f3373ffffffffffffffffffffffffffffffffffffffff16846040516105ab906109c6565b5f6040518083038185875af1925050503d805f81146105e5576040519150601f19603f3d011682016040523d82523d5f602084013e6105ea565b606091505b5050905080610625576040517f90b8ec1800000000000000000000000000000000000000000000000000000000815260040160405180910390fd5b3373ffffffffffffffffffffffffffffffffffffffff167f02f25270a4d87bea75db541cdfe559334a275b4a233520ed6c0a2429667cca94855f5f3373ffffffffffffffffffffffffffffffffffffffff1673ffffffffffffffffffffffffffffffffffffffff1681526020019081526020015f20546001546040516106ad939291906108c3565b60405180910390a250505050565b60035481565b5f5f5f8373ffffffffffffffffffffffffffffffffffffffff1673ffffffffffffffffffffffffffffffffffffffff1681526020019081526020015f20549050919050565b7f000000000000000000000000000000000000000000000000000000000000000081565b7f000000000000000000000000000000000000000000000000000000000000000081565b60015481565b5f819050919050565b61076681610754565b82525050565b5f60208201905061077f5f83018461075d565b92915050565b5f5ffd5b61079281610754565b811461079c575f5ffd5b50565b5f813590506107ad81610789565b92915050565b5f602082840312156107c8576107c7610785565b5b5f6107d58482850161079f565b91505092915050565b5f73ffffffffffffffffffffffffffffffffffffffff82169050919050565b5f610807826107de565b9050919050565b610817816107fd565b8114610821575f5ffd5b50565b5f813590506108328161080e565b92915050565b5f6020828403121561084d5761084c610785565b5b5f61085a84828501610824565b91505092915050565b7f4e487b71000000000000000000000000000000000000000000000000000000005f52601160045260245ffd5b5f61089a82610754565b91506108a583610754565b92508282019050808211156108bd576108bc610863565b5b92915050565b5f6060820190506108d65f83018661075d565b6108e3602083018561075d565b6108f0604083018461075d565b949350505050565b5f61090282610754565b91507fffffffffffffffffffffffffffffffffffffffffffffffffffffffffffffffff820361093457610933610863565b5b600182019050919050565b5f6040820190506109525f83018561075d565b61095f602083018461075d565b9392505050565b5f61097082610754565b915061097b83610754565b925082820390508181111561099357610992610863565b5b92915050565b5f81905092915050565b50565b5f6109b15f83610999565b91506109bc826109a3565b5f82019050919050565b5f6109d0826109a6565b915081905091905056fea26469706673582212206573b1702a1547c634467cc294a1d8888cf98d4a049f0e8caa5d467d5f2891fb64736f6c634300081e0033",
					"opcodes": "PUSH1 0xC0 PUSH1 0x40 MSTORE CALLVALUE DUP1 ISZERO PUSH2 0xF JUMPI PUSH0 PUSH0 REVERT JUMPDEST POP PUSH1 0x40 MLOAD PUSH2 0xBCF CODESIZE SUB DUP1 PUSH2 0xBCF DUP4 CODECOPY DUP2 DUP2 ADD PUSH1 0x40 MSTORE DUP2 ADD SWAP1 PUSH2 0x31 SWAP2 SWAP1 PUSH2 0xCC JUMP JUMPDEST PUSH0 DUP3 GT DUP1 ISZERO PUSH2 0x3F JUMPI POP PUSH0 DUP2 GT JUMPDEST PUSH2 0x7E JUMPI PUSH1 0x40 MLOAD PUSH32 0x8C379A000000000000000000000000000000000000000000000000000000000 DUP2 MSTORE PUSH1 0x4 ADD PUSH2 0x75 SWAP1 PUSH2 0x164 JUMP JUMPDEST PUSH1 0x40 MLOAD DUP1 SWAP2 SUB SWAP1 REVERT JUMPDEST DUP2 PUSH1 0xA0 DUP2 DUP2 MSTORE POP POP DUP1 PUSH1 0x80 DUP2 DUP2 MSTORE POP POP POP POP PUSH2 0x182 JUMP JUMPDEST PUSH0 PUSH0 REVERT JUMPDEST PUSH0 DUP2 SWAP1 POP SWAP2 SWAP1 POP JUMP JUMPDEST PUSH2 0xAB DUP2 PUSH2 0x99 JUMP JUMPDEST DUP2 EQ PUSH2 0xB5 JUMPI PUSH0 PUSH0 REVERT JUMPDEST POP JUMP JUMPDEST PUSH0 DUP2 MLOAD SWAP1 POP PUSH2 0xC6 DUP2 PUSH2 0xA2 JUMP JUMPDEST SWAP3 SWAP2 POP POP JUMP JUMPDEST PUSH0 PUSH0 PUSH1 0x40 DUP4 DUP6 SUB SLT ISZERO PUSH2 0xE2 JUMPI PUSH2 0xE1 PUSH2 0x95 JUMP JUMPDEST JUMPDEST PUSH0 PUSH2 0xEF DUP6 DUP3 DUP7 ADD PUSH2 0xB8 JUMP JUMPDEST SWAP3 POP POP PUSH1 0x20 PUSH2 0x100 DUP6 DUP3 DUP7 ADD PUSH2 0xB8 JUMP JUMPDEST SWAP2 POP POP SWAP3 POP SWAP3 SWAP1 POP JUMP JUMPDEST PUSH0 DUP3 DUP3 MSTORE PUSH1 0x20 DUP3 ADD SWAP1 POP SWAP3 SWAP2 POP POP JUMP JUMPDEST PUSH32 0x56616C6F72657320696E76616C69646F73000000000000000000000000000000 PUSH0 DUP3 ADD MSTORE POP JUMP JUMPDEST PUSH0 PUSH2 0x14E PUSH1 0x11 DUP4 PUSH2 0x10A JUMP JUMPDEST SWAP2 POP PUSH2 0x159 DUP3 PUSH2 0x11A JUMP JUMPDEST PUSH1 0x20 DUP3 ADD SWAP1 POP SWAP2 SWAP1 POP JUMP JUMPDEST PUSH0 PUSH1 0x20 DUP3 ADD SWAP1 POP DUP2 DUP2 SUB PUSH0 DUP4 ADD MSTORE PUSH2 0x17B DUP2 PUSH2 0x142 JUMP JUMPDEST SWAP1 POP SWAP2 SWAP1 POP JUMP JUMPDEST PUSH1 0x80 MLOAD PUSH1 0xA0 MLOAD PUSH2 0xA10 PUSH2 0x1BF PUSH0 CODECOPY PUSH0 DUP2 DUP2 PUSH2 0x20D ADD MSTORE DUP2 DUP2 PUSH2 0x246 ADD MSTORE PUSH2 0x72C ADD MSTORE PUSH0 DUP2 DUP2 PUSH2 0x480 ADD MSTORE DUP2 DUP2 PUSH2 0x4A9 ADD MSTORE PUSH2 0x708 ADD MSTORE PUSH2 0xA10 PUSH0 RETURN INVALID PUSH1 0x80 PUSH1 0x40 MSTORE PUSH1 0x4 CALLDATASIZE LT PUSH2 0x7E JUMPI PUSH0 CALLDATALOAD PUSH1 0xE0 SHR DUP1 PUSH4 0x9C51FD6E GT PUSH2 0x4D JUMPI DUP1 PUSH4 0x9C51FD6E EQ PUSH2 0x149 JUMPI DUP1 PUSH4 0xD0E30DB0 EQ PUSH2 0x173 JUMPI DUP1 PUSH4 0xECBEA24D EQ PUSH2 0x17D JUMPI DUP1 PUSH4 0xFF50ABDC EQ PUSH2 0x1A7 JUMPI PUSH2 0x8D JUMP JUMPDEST DUP1 PUSH4 0x2DFDF0B5 EQ PUSH2 0x91 JUMPI DUP1 PUSH4 0x2E1A7D4D EQ PUSH2 0xBB JUMPI DUP1 PUSH4 0x4CC05A71 EQ PUSH2 0xE3 JUMPI DUP1 PUSH4 0x70A08231 EQ PUSH2 0x10D JUMPI PUSH2 0x8D JUMP JUMPDEST CALLDATASIZE PUSH2 0x8D JUMPI PUSH2 0x8B PUSH2 0x1D1 JUMP JUMPDEST STOP JUMPDEST PUSH0 PUSH0 REVERT JUMPDEST CALLVALUE DUP1 ISZERO PUSH2 0x9C JUMPI PUSH0 PUSH0 REVERT JUMPDEST POP PUSH2 0xA5 PUSH2 0x3B7 JUMP JUMPDEST PUSH1 0x40 MLOAD PUSH2 0xB2 SWAP2 SWAP1 PUSH2 0x76C JUMP JUMPDEST PUSH1 0x40 MLOAD DUP1 SWAP2 SUB SWAP1 RETURN JUMPDEST CALLVALUE DUP1 ISZERO PUSH2 0xC6 JUMPI PUSH0 PUSH0 REVERT JUMPDEST POP PUSH2 0xE1 PUSH1 0x4 DUP1 CALLDATASIZE SUB DUP2 ADD SWAP1 PUSH2 0xDC SWAP2 SWAP1 PUSH2 0x7B3 JUMP JUMPDEST PUSH2 0x3BD JUMP JUMPDEST STOP JUMPDEST CALLVALUE DUP1 ISZERO PUSH2 0xEE JUMPI PUSH0 PUSH0 REVERT JUMPDEST POP PUSH2 0xF7 PUSH2 0x6BB JUMP JUMPDEST PUSH1 0x40 MLOAD PUSH2 0x104 SWAP2 SWAP1 PUSH2 0x76C JUMP JUMPDEST PUSH1 0x40 MLOAD DUP1 SWAP2 SUB SWAP1 RETURN JUMPDEST CALLVALUE DUP1 ISZERO PUSH2 0x118 JUMPI PUSH0 PUSH0 REVERT JUMPDEST POP PUSH2 0x133 PUSH1 0x4 DUP1 CALLDATASIZE SUB DUP2 ADD SWAP1 PUSH2 0x12E SWAP2 SWAP1 PUSH2 0x838 JUMP JUMPDEST PUSH2 0x6C1 JUMP JUMPDEST PUSH1 0x40 MLOAD PUSH2 0x140 SWAP2 SWAP1 PUSH2 0x76C JUMP JUMPDEST PUSH1 0x40 MLOAD DUP1 SWAP2 SUB SWAP1 RETURN JUMPDEST CALLVALUE DUP1 ISZERO PUSH2 0x154 JUMPI PUSH0 PUSH0 REVERT JUMPDEST POP PUSH2 0x15D PUSH2 0x706 JUMP JUMPDEST PUSH1 0x40 MLOAD PUSH2 0x16A SWAP2 SWAP1 PUSH2 0x76C JUMP JUMPDEST PUSH1 0x40 MLOAD DUP1 SWAP2 SUB SWAP1 RETURN JUMPDEST PUSH2 0x17B PUSH2 0x1D1 JUMP JUMPDEST STOP JUMPDEST CALLVALUE DUP1 ISZERO PUSH2 0x188 JUMPI PUSH0 PUSH0 REVERT JUMPDEST POP PUSH2 0x191 PUSH2 0x72A JUMP JUMPDEST PUSH1 0x40 MLOAD PUSH2 0x19E SWAP2 SWAP1 PUSH2 0x76C JUMP JUMPDEST PUSH1 0x40 MLOAD DUP1 SWAP2 SUB SWAP1 RETURN JUMPDEST CALLVALUE DUP1 ISZERO PUSH2 0x1B2 JUMPI PUSH0 PUSH0 REVERT JUMPDEST POP PUSH2 0x1BB PUSH2 0x74E JUMP JUMPDEST PUSH1 0x40 MLOAD PUSH2 0x1C8 SWAP2 SWAP1 PUSH2 0x76C JUMP JUMPDEST PUSH1 0x40 MLOAD DUP1 SWAP2 SUB SWAP1 RETURN JUMPDEST CALLVALUE PUSH0 DUP2 SUB PUSH2 0x20B JUMPI PUSH1 0x40 MLOAD PUSH32 0x1F2A200500000000000000000000000000000000000000000000000000000000 DUP2 MSTORE PUSH1 0x4 ADD PUSH1 0x40 MLOAD DUP1 SWAP2 SUB SWAP1 REVERT JUMPDEST PUSH32 0x0 CALLVALUE PUSH1 0x1 SLOAD PUSH2 0x23A SWAP2 SWAP1 PUSH2 0x890 JUMP JUMPDEST GT ISZERO PUSH2 0x2A3 JUMPI CALLVALUE PUSH1 0x1 SLOAD PUSH32 0x0 PUSH1 0x40 MLOAD PUSH32 0x621E5A6900000000000000000000000000000000000000000000000000000000 DUP2 MSTORE PUSH1 0x4 ADD PUSH2 0x29A SWAP4 SWAP3 SWAP2 SWAP1 PUSH2 0x8C3 JUMP JUMPDEST PUSH1 0x40 MLOAD DUP1 SWAP2 SUB SWAP1 REVERT JUMPDEST CALLVALUE PUSH0 PUSH0 CALLER PUSH20 0xFFFFFFFFFFFFFFFFFFFFFFFFFFFFFFFFFFFFFFFF AND PUSH20 0xFFFFFFFFFFFFFFFFFFFFFFFFFFFFFFFFFFFFFFFF AND DUP2 MSTORE PUSH1 0x20 ADD SWAP1 DUP2 MSTORE PUSH1 0x20 ADD PUSH0 KECCAK256 PUSH0 DUP3 DUP3 SLOAD PUSH2 0x2EE SWAP2 SWAP1 PUSH2 0x890 JUMP JUMPDEST SWAP3 POP POP DUP2 SWAP1 SSTORE POP CALLVALUE PUSH1 0x1 PUSH0 DUP3 DUP3 SLOAD PUSH2 0x306 SWAP2 SWAP1 PUSH2 0x890 JUMP JUMPDEST SWAP3 POP POP DUP2 SWAP1 SSTORE POP PUSH1 0x2 PUSH0 DUP2 SLOAD DUP1 SWAP3 SWAP2 SWAP1 PUSH2 0x31F SWAP1 PUSH2 0x8F8 JUMP JUMPDEST SWAP2 SWAP1 POP SSTORE POP CALLER PUSH20 0xFFFFFFFFFFFFFFFFFFFFFFFFFFFFFFFFFFFFFFFF AND PUSH32 0x36AF321EC8D3C75236829C5317AFFD40DDB308863A1236D2D277A4025CCCEE1E CALLVALUE PUSH0 PUSH0 CALLER PUSH20 0xFFFFFFFFFFFFFFFFFFFFFFFFFFFFFFFFFFFFFFFF AND PUSH20 0xFFFFFFFFFFFFFFFFFFFFFFFFFFFFFFFFFFFFFFFF AND DUP2 MSTORE PUSH1 0x20 ADD SWAP1 DUP2 MSTORE PUSH1 0x20 ADD PUSH0 KECCAK256 SLOAD PUSH1 0x1 SLOAD PUSH1 0x40 MLOAD PUSH2 0x3AC SWAP4 SWAP3 SWAP2 SWAP1 PUSH2 0x8C3 JUMP JUMPDEST PUSH1 0x40 MLOAD DUP1 SWAP2 SUB SWAP1 LOG2 POP JUMP JUMPDEST PUSH1 0x2 SLOAD DUP2 JUMP JUMPDEST DUP1 PUSH0 DUP2 SUB PUSH2 0x3F7 JUMPI PUSH1 0x40 MLOAD PUSH32 0x1F2A200500000000000000000000000000000000000000000000000000000000 DUP2 MSTORE PUSH1 0x4 ADD PUSH1 0x40 MLOAD DUP1 SWAP2 SUB SWAP1 REVERT JUMPDEST PUSH0 PUSH0 PUSH0 CALLER PUSH20 0xFFFFFFFFFFFFFFFFFFFFFFFFFFFFFFFFFFFFFFFF AND PUSH20 0xFFFFFFFFFFFFFFFFFFFFFFFFFFFFFFFFFFFFFFFF AND DUP2 MSTORE PUSH1 0x20 ADD SWAP1 DUP2 MSTORE PUSH1 0x20 ADD PUSH0 KECCAK256 SLOAD SWAP1 POP DUP1 DUP4 GT ISZERO PUSH2 0x47E JUMPI DUP3 DUP2 PUSH1 0x40 MLOAD PUSH32 0xCF47918100000000000000000000000000000000000000000000000000000000 DUP2 MSTORE PUSH1 0x4 ADD PUSH2 0x475 SWAP3 SWAP2 SWAP1 PUSH2 0x93F JUMP JUMPDEST PUSH1 0x40 MLOAD DUP1 SWAP2 SUB SWAP1 REVERT JUMPDEST PUSH32 0x0 DUP4 GT ISZERO PUSH2 0x505 JUMPI DUP3 PUSH32 0x0 PUSH1 0x40 MLOAD PUSH32 0x16D0EF100000000000000000000000000000000000000000000000000000000 DUP2 MSTORE PUSH1 0x4 ADD PUSH2 0x4FC SWAP3 SWAP2 SWAP1 PUSH2 0x93F JUMP JUMPDEST PUSH1 0x40 MLOAD DUP1 SWAP2 SUB SWAP1 REVERT JUMPDEST DUP3 PUSH0 PUSH0 CALLER PUSH20 0xFFFFFFFFFFFFFFFFFFFFFFFFFFFFFFFFFFFFFFFF AND PUSH20 0xFFFFFFFFFFFFFFFFFFFFFFFFFFFFFFFFFFFFFFFF AND DUP2 MSTORE PUSH1 0x20 ADD SWAP1 DUP2 MSTORE PUSH1 0x20 ADD PUSH0 KECCAK256 PUSH0 DUP3 DUP3 SLOAD PUSH2 0x550 SWAP2 SWAP1 PUSH2 0x966 JUMP JUMPDEST SWAP3 POP POP DUP2 SWAP1 SSTORE POP DUP3 PUSH1 0x1 PUSH0 DUP3 DUP3 SLOAD PUSH2 0x568 SWAP2 SWAP1 PUSH2 0x966 JUMP JUMPDEST SWAP3 POP POP DUP2 SWAP1 SSTORE POP PUSH1 0x3 PUSH0 DUP2 SLOAD DUP1 SWAP3 SWAP2 SWAP1 PUSH2 0x581 SWAP1 PUSH2 0x8F8 JUMP JUMPDEST SWAP2 SWAP1 POP SSTORE POP PUSH0 CALLER PUSH20 0xFFFFFFFFFFFFFFFFFFFFFFFFFFFFFFFFFFFFFFFF AND DUP5 PUSH1 0x40 MLOAD PUSH2 0x5AB SWAP1 PUSH2 0x9C6 JUMP JUMPDEST PUSH0 PUSH1 0x40 MLOAD DUP1 DUP4 SUB DUP2 DUP6 DUP8 GAS CALL SWAP3 POP POP POP RETURNDATASIZE DUP1 PUSH0 DUP2 EQ PUSH2 0x5E5 JUMPI PUSH1 0x40 MLOAD SWAP2 POP PUSH1 0x1F NOT PUSH1 0x3F RETURNDATASIZE ADD AND DUP3 ADD PUSH1 0x40 MSTORE RETURNDATASIZE DUP3 MSTORE RETURNDATASIZE PUSH0 PUSH1 0x20 DUP5 ADD RETURNDATACOPY PUSH2 0x5EA JUMP JUMPDEST PUSH1 0x60 SWAP2 POP JUMPDEST POP POP SWAP1 POP DUP1 PUSH2 0x625 JUMPI PUSH1 0x40 MLOAD PUSH32 0x90B8EC1800000000000000000000000000000000000000000000000000000000 DUP2 MSTORE PUSH1 0x4 ADD PUSH1 0x40 MLOAD DUP1 SWAP2 SUB SWAP1 REVERT JUMPDEST CALLER PUSH20 0xFFFFFFFFFFFFFFFFFFFFFFFFFFFFFFFFFFFFFFFF AND PUSH32 0x2F25270A4D87BEA75DB541CDFE559334A275B4A233520ED6C0A2429667CCA94 DUP6 PUSH0 PUSH0 CALLER PUSH20 0xFFFFFFFFFFFFFFFFFFFFFFFFFFFFFFFFFFFFFFFF AND PUSH20 0xFFFFFFFFFFFFFFFFFFFFFFFFFFFFFFFFFFFFFFFF AND DUP2 MSTORE PUSH1 0x20 ADD SWAP1 DUP2 MSTORE PUSH1 0x20 ADD PUSH0 KECCAK256 SLOAD PUSH1 0x1 SLOAD PUSH1 0x40 MLOAD PUSH2 0x6AD SWAP4 SWAP3 SWAP2 SWAP1 PUSH2 0x8C3 JUMP JUMPDEST PUSH1 0x40 MLOAD DUP1 SWAP2 SUB SWAP1 LOG2 POP POP POP POP JUMP JUMPDEST PUSH1 0x3 SLOAD DUP2 JUMP JUMPDEST PUSH0 PUSH0 PUSH0 DUP4 PUSH20 0xFFFFFFFFFFFFFFFFFFFFFFFFFFFFFFFFFFFFFFFF AND PUSH20 0xFFFFFFFFFFFFFFFFFFFFFFFFFFFFFFFFFFFFFFFF AND DUP2 MSTORE PUSH1 0x20 ADD SWAP1 DUP2 MSTORE PUSH1 0x20 ADD PUSH0 KECCAK256 SLOAD SWAP1 POP SWAP2 SWAP1 POP JUMP JUMPDEST PUSH32 0x0 DUP2 JUMP JUMPDEST PUSH32 0x0 DUP2 JUMP JUMPDEST PUSH1 0x1 SLOAD DUP2 JUMP JUMPDEST PUSH0 DUP2 SWAP1 POP SWAP2 SWAP1 POP JUMP JUMPDEST PUSH2 0x766 DUP2 PUSH2 0x754 JUMP JUMPDEST DUP3 MSTORE POP POP JUMP JUMPDEST PUSH0 PUSH1 0x20 DUP3 ADD SWAP1 POP PUSH2 0x77F PUSH0 DUP4 ADD DUP5 PUSH2 0x75D JUMP JUMPDEST SWAP3 SWAP2 POP POP JUMP JUMPDEST PUSH0 PUSH0 REVERT JUMPDEST PUSH2 0x792 DUP2 PUSH2 0x754 JUMP JUMPDEST DUP2 EQ PUSH2 0x79C JUMPI PUSH0 PUSH0 REVERT JUMPDEST POP JUMP JUMPDEST PUSH0 DUP2 CALLDATALOAD SWAP1 POP PUSH2 0x7AD DUP2 PUSH2 0x789 JUMP JUMPDEST SWAP3 SWAP2 POP POP JUMP JUMPDEST PUSH0 PUSH1 0x20 DUP3 DUP5 SUB SLT ISZERO PUSH2 0x7C8 JUMPI PUSH2 0x7C7 PUSH2 0x785 JUMP JUMPDEST JUMPDEST PUSH0 PUSH2 0x7D5 DUP5 DUP3 DUP6 ADD PUSH2 0x79F JUMP JUMPDEST SWAP2 POP POP SWAP3 SWAP2 POP POP JUMP JUMPDEST PUSH0 PUSH20 0xFFFFFFFFFFFFFFFFFFFFFFFFFFFFFFFFFFFFFFFF DUP3 AND SWAP1 POP SWAP2 SWAP1 POP JUMP JUMPDEST PUSH0 PUSH2 0x807 DUP3 PUSH2 0x7DE JUMP JUMPDEST SWAP1 POP SWAP2 SWAP1 POP JUMP JUMPDEST PUSH2 0x817 DUP2 PUSH2 0x7FD JUMP JUMPDEST DUP2 EQ PUSH2 0x821 JUMPI PUSH0 PUSH0 REVERT JUMPDEST POP JUMP JUMPDEST PUSH0 DUP2 CALLDATALOAD SWAP1 POP PUSH2 0x832 DUP2 PUSH2 0x80E JUMP JUMPDEST SWAP3 SWAP2 POP POP JUMP JUMPDEST PUSH0 PUSH1 0x20 DUP3 DUP5 SUB SLT ISZERO PUSH2 0x84D JUMPI PUSH2 0x84C PUSH2 0x785 JUMP JUMPDEST JUMPDEST PUSH0 PUSH2 0x85A DUP5 DUP3 DUP6 ADD PUSH2 0x824 JUMP JUMPDEST SWAP2 POP POP SWAP3 SWAP2 POP POP JUMP JUMPDEST PUSH32 0x4E487B7100000000000000000000000000000000000000000000000000000000 PUSH0 MSTORE PUSH1 0x11 PUSH1 0x4 MSTORE PUSH1 0x24 PUSH0 REVERT JUMPDEST PUSH0 PUSH2 0x89A DUP3 PUSH2 0x754 JUMP JUMPDEST SWAP2 POP PUSH2 0x8A5 DUP4 PUSH2 0x754 JUMP JUMPDEST SWAP3 POP DUP3 DUP3 ADD SWAP1 POP DUP1 DUP3 GT ISZERO PUSH2 0x8BD JUMPI PUSH2 0x8BC PUSH2 0x863 JUMP JUMPDEST JUMPDEST SWAP3 SWAP2 POP POP JUMP JUMPDEST PUSH0 PUSH1 0x60 DUP3 ADD SWAP1 POP PUSH2 0x8D6 PUSH0 DUP4 ADD DUP7 PUSH2 0x75D JUMP JUMPDEST PUSH2 0x8E3 PUSH1 0x20 DUP4 ADD DUP6 PUSH2 0x75D JUMP JUMPDEST PUSH2 0x8F0 PUSH1 0x40 DUP4 ADD DUP5 PUSH2 0x75D JUMP JUMPDEST SWAP5 SWAP4 POP POP POP POP JUMP JUMPDEST PUSH0 PUSH2 0x902 DUP3 PUSH2 0x754 JUMP JUMPDEST SWAP2 POP PUSH32 0xFFFFFFFFFFFFFFFFFFFFFFFFFFFFFFFFFFFFFFFFFFFFFFFFFFFFFFFFFFFFFFFF DUP3 SUB PUSH2 0x934 JUMPI PUSH2 0x933 PUSH2 0x863 JUMP JUMPDEST JUMPDEST PUSH1 0x1 DUP3 ADD SWAP1 POP SWAP2 SWAP1 POP JUMP JUMPDEST PUSH0 PUSH1 0x40 DUP3 ADD SWAP1 POP PUSH2 0x952 PUSH0 DUP4 ADD DUP6 PUSH2 0x75D JUMP JUMPDEST PUSH2 0x95F PUSH1 0x20 DUP4 ADD DUP5 PUSH2 0x75D JUMP JUMPDEST SWAP4 SWAP3 POP POP POP JUMP JUMPDEST PUSH0 PUSH2 0x970 DUP3 PUSH2 0x754 JUMP JUMPDEST SWAP2 POP PUSH2 0x97B DUP4 PUSH2 0x754 JUMP JUMPDEST SWAP3 POP DUP3 DUP3 SUB SWAP1 POP DUP2 DUP2 GT ISZERO PUSH2 0x993 JUMPI PUSH2 0x992 PUSH2 0x863 JUMP JUMPDEST JUMPDEST SWAP3 SWAP2 POP POP JUMP JUMPDEST PUSH0 DUP2 SWAP1 POP SWAP3 SWAP2 POP POP JUMP JUMPDEST POP JUMP JUMPDEST PUSH0 PUSH2 0x9B1 PUSH0 DUP4 PUSH2 0x999 JUMP JUMPDEST SWAP2 POP PUSH2 0x9BC DUP3 PUSH2 0x9A3 JUMP JUMPDEST PUSH0 DUP3 ADD SWAP1 POP SWAP2 SWAP1 POP JUMP JUMPDEST PUSH0 PUSH2 0x9D0 DUP3 PUSH2 0x9A6 JUMP JUMPDEST SWAP2 POP DUP2 SWAP1 POP SWAP2 SWAP1 POP JUMP INVALID LOG2 PUSH5 0x6970667358 0x22 SLT KECCAK256 PUSH6 0x73B1702A1547 0xC6 CALLVALUE CHAINID PUSH29 0xC294A1D8888CF98D4A049F0E8CAA5D467D5F2891FB64736F6C63430008 0x1E STOP CALLER "
				},
				"gasEstimates": {
					"creation": {
						"codeDepositCost": "515200",
						"executionCost": "infinite",
						"totalCost": "infinite"
					},
					"external": {
						"balanceOf(address)": "2895",
						"bankCap()": "infinite",
						"deposit()": "infinite",
						"depositCount()": "2426",
						"totalDeposited()": "2491",
						"withdraw(uint256)": "infinite",
						"withdrawCount()": "2470",
						"withdrawLimitPerTx()": "infinite"
					},
					"internal": {
						"_addBalance(address,uint256)": "infinite"
					}
				},
				"methodIdentifiers": {
					"balanceOf(address)": "70a08231",
					"bankCap()": "ecbea24d",
					"deposit()": "d0e30db0",
					"depositCount()": "2dfdf0b5",
					"totalDeposited()": "ff50abdc",
					"withdraw(uint256)": "2e1a7d4d",
					"withdrawCount()": "4cc05a71",
					"withdrawLimitPerTx()": "9c51fd6e"
				}
			},
			"storageLayout": {
				"storage": [
					{
						"astId": 13,
						"contract": "contracts/KipuBank.sol:kipubank",
						"label": "_balances",
						"offset": 0,
						"slot": "0",
						"type": "t_mapping(t_address,t_uint256)"
					},
					{
						"astId": 16,
						"contract": "contracts/KipuBank.sol:kipubank",
						"label": "totalDeposited",
						"offset": 0,
						"slot": "1",
						"type": "t_uint256"
					},
					{
						"astId": 19,
						"contract": "contracts/KipuBank.sol:kipubank",
						"label": "depositCount",
						"offset": 0,
						"slot": "2",
						"type": "t_uint256"
					},
					{
						"astId": 22,
						"contract": "contracts/KipuBank.sol:kipubank",
						"label": "withdrawCount",
						"offset": 0,
						"slot": "3",
						"type": "t_uint256"
					}
				],
				"types": {
					"t_address": {
						"encoding": "inplace",
						"label": "address",
						"numberOfBytes": "20"
					},
					"t_mapping(t_address,t_uint256)": {
						"encoding": "mapping",
						"key": "t_address",
						"label": "mapping(address => uint256)",
						"numberOfBytes": "32",
						"value": "t_uint256"
					},
					"t_uint256": {
						"encoding": "inplace",
						"label": "uint256",
						"numberOfBytes": "32"
					}
				}
			},
			"userdoc": {
				"errors": {
					"BankCapExceeded(uint256,uint256,uint256)": [
						{
							"notice": "Error cuando el depósito excede el límite global del banco"
						}
					],
					"InsufficientBalance(uint256,uint256)": [
						{
							"notice": "Error cuando el usuario intenta retirar más de su saldo"
						}
					],
					"TransferFailed()": [
						{
							"notice": "Error cuando la transferencia falla"
						}
					],
					"WithdrawLimitExceeded(uint256,uint256)": [
						{
							"notice": "Error cuando el retiro excede el límite por transacción"
						}
					],
					"ZeroAmount()": [
						{
							"notice": "Error cuando el monto es cero"
						}
					]
				},
				"events": {
					"Deposit(address,uint256,uint256,uint256)": {
						"notice": "Evento emitido cuando un usuario deposita"
					},
					"Withdraw(address,uint256,uint256,uint256)": {
						"notice": "Evento emitido cuando un usuario retira"
					}
				},
				"kind": "user",
				"methods": {
					"balanceOf(address)": {
						"notice": "Consulta el saldo en la bóveda de un usuario"
					},
					"bankCap()": {
						"notice": "Límite máximo de depósito por transacción"
					},
					"deposit()": {
						"notice": "Deposita ETH en la bóveda personal"
					},
					"depositCount()": {
						"notice": "Número total de depósitos realizados"
					},
					"totalDeposited()": {
						"notice": "Total de ETH depositado en el contrato"
					},
					"withdraw(uint256)": {
						"notice": "Retira ETH de la bóveda personal hasta el límite permitido"
					},
					"withdrawCount()": {
						"notice": "Número total de retiros realizados"
					},
					"withdrawLimitPerTx()": {
						"notice": "Límite máximo de retiro por transacción"
					}
				},
				"notice": "Permite a los usuarios depositar y retirar ETH bajo ciertos parametros",
				"version": 1
			}
		}
	}
}