{
	"src/KipuBankV4.sol": {
		"KipuBankV4": {
			"abi": [
				{
					"inputs": [
						{
							"internalType": "address",
							"name": "_usdc",
							"type": "address"
						},
						{
							"internalType": "address",
							"name": "_router",
							"type": "address"
						},
						{
							"internalType": "uint256",
							"name": "_bankCapUsd",
							"type": "uint256"
						}
					],
					"stateMutability": "nonpayable",
					"type": "constructor"
				},
				{
					"inputs": [
						{
							"internalType": "uint256",
							"name": "attempted",
							"type": "uint256"
						},
						{
							"internalType": "uint256",
							"name": "total",
							"type": "uint256"
						},
						{
							"internalType": "uint256",
							"name": "cap",
							"type": "uint256"
						}
					],
					"name": "BankCapExceeded",
					"type": "error"
				},
				{
					"inputs": [
						{
							"internalType": "uint256",
							"name": "waitTime",
							"type": "uint256"
						}
					],
					"name": "CooldownActive",
					"type": "error"
				},
				{
					"inputs": [
						{
							"internalType": "uint256",
							"name": "available",
							"type": "uint256"
						},
						{
							"internalType": "uint256",
							"name": "requested",
							"type": "uint256"
						}
					],
					"name": "InsufficientBalance",
					"type": "error"
				},
				{
					"inputs": [],
					"name": "InvalidPath",
					"type": "error"
				},
				{
					"inputs": [],
					"name": "InvalidToken",
					"type": "error"
				},
				{
					"inputs": [],
					"name": "NotOwner",
					"type": "error"
				},
				{
					"inputs": [],
					"name": "Reentrant",
					"type": "error"
				},
				{
					"inputs": [],
					"name": "SwapFailed",
					"type": "error"
				},
				{
					"inputs": [
						{
							"internalType": "uint256",
							"name": "attempted",
							"type": "uint256"
						},
						{
							"internalType": "uint256",
							"name": "limit",
							"type": "uint256"
						}
					],
					"name": "WithdrawalLimitExceeded",
					"type": "error"
				},
				{
					"inputs": [],
					"name": "ZeroAmount",
					"type": "error"
				},
				{
					"anonymous": false,
					"inputs": [
						{
							"indexed": true,
							"internalType": "address",
							"name": "user",
							"type": "address"
						},
						{
							"indexed": true,
							"internalType": "address",
							"name": "tokenIn",
							"type": "address"
						},
						{
							"indexed": false,
							"internalType": "uint256",
							"name": "amountIn",
							"type": "uint256"
						},
						{
							"indexed": false,
							"internalType": "uint256",
							"name": "usdcReceived",
							"type": "uint256"
						}
					],
					"name": "DepositConverted",
					"type": "event"
				},
				{
					"anonymous": false,
					"inputs": [
						{
							"indexed": true,
							"internalType": "address",
							"name": "user",
							"type": "address"
						},
						{
							"indexed": false,
							"internalType": "uint256",
							"name": "amountUsdc",
							"type": "uint256"
						}
					],
					"name": "DepositUSDC",
					"type": "event"
				},
				{
					"anonymous": false,
					"inputs": [
						{
							"indexed": true,
							"internalType": "address",
							"name": "token",
							"type": "address"
						},
						{
							"indexed": false,
							"internalType": "uint256",
							"name": "amount",
							"type": "uint256"
						}
					],
					"name": "EmergencyWithdraw",
					"type": "event"
				},
				{
					"anonymous": false,
					"inputs": [
						{
							"indexed": true,
							"internalType": "address",
							"name": "oldOwner",
							"type": "address"
						},
						{
							"indexed": true,
							"internalType": "address",
							"name": "newOwner",
							"type": "address"
						}
					],
					"name": "OwnerChanged",
					"type": "event"
				},
				{
					"anonymous": false,
					"inputs": [
						{
							"indexed": true,
							"internalType": "address",
							"name": "user",
							"type": "address"
						},
						{
							"indexed": false,
							"internalType": "uint256",
							"name": "amountUsdc",
							"type": "uint256"
						}
					],
					"name": "WithdrawUSDC",
					"type": "event"
				},
				{
					"stateMutability": "payable",
					"type": "fallback"
				},
				{
					"inputs": [],
					"name": "MAX_WITHDRAWAL_AMOUNT",
					"outputs": [
						{
							"internalType": "uint256",
							"name": "",
							"type": "uint256"
						}
					],
					"stateMutability": "view",
					"type": "function"
				},
				{
					"inputs": [],
					"name": "USDC",
					"outputs": [
						{
							"internalType": "address",
							"name": "",
							"type": "address"
						}
					],
					"stateMutability": "view",
					"type": "function"
				},
				{
					"inputs": [],
					"name": "WETH",
					"outputs": [
						{
							"internalType": "address",
							"name": "",
							"type": "address"
						}
					],
					"stateMutability": "view",
					"type": "function"
				},
				{
					"inputs": [],
					"name": "WITHDRAWAL_COOLDOWN",
					"outputs": [
						{
							"internalType": "uint256",
							"name": "",
							"type": "uint256"
						}
					],
					"stateMutability": "view",
					"type": "function"
				},
				{
					"inputs": [],
					"name": "bankCapUsd",
					"outputs": [
						{
							"internalType": "uint256",
							"name": "",
							"type": "uint256"
						}
					],
					"stateMutability": "view",
					"type": "function"
				},
				{
					"inputs": [
						{
							"internalType": "uint256",
							"name": "minUsdcOut",
							"type": "uint256"
						}
					],
					"name": "depositETHSwapToUSDC",
					"outputs": [],
					"stateMutability": "payable",
					"type": "function"
				},
				{
					"inputs": [
						{
							"internalType": "address",
							"name": "token",
							"type": "address"
						},
						{
							"internalType": "uint256",
							"name": "amountIn",
							"type": "uint256"
						},
						{
							"internalType": "uint256",
							"name": "minUsdcOut",
							"type": "uint256"
						}
					],
					"name": "depositTokenSwapToUSDC",
					"outputs": [],
					"stateMutability": "nonpayable",
					"type": "function"
				},
				{
					"inputs": [
						{
							"internalType": "uint256",
							"name": "amountUsdc",
							"type": "uint256"
						}
					],
					"name": "depositUSDC",
					"outputs": [],
					"stateMutability": "nonpayable",
					"type": "function"
				},
				{
					"inputs": [
						{
							"internalType": "address",
							"name": "token",
							"type": "address"
						},
						{
							"internalType": "uint256",
							"name": "amount",
							"type": "uint256"
						}
					],
					"name": "emergencyWithdraw",
					"outputs": [],
					"stateMutability": "nonpayable",
					"type": "function"
				},
				{
					"inputs": [
						{
							"internalType": "address",
							"name": "",
							"type": "address"
						}
					],
					"name": "lastWithdrawalTime",
					"outputs": [
						{
							"internalType": "uint256",
							"name": "",
							"type": "uint256"
						}
					],
					"stateMutability": "view",
					"type": "function"
				},
				{
					"inputs": [],
					"name": "owner",
					"outputs": [
						{
							"internalType": "address",
							"name": "",
							"type": "address"
						}
					],
					"stateMutability": "view",
					"type": "function"
				},
				{
					"inputs": [],
					"name": "remainingCapacity",
					"outputs": [
						{
							"internalType": "uint256",
							"name": "",
							"type": "uint256"
						}
					],
					"stateMutability": "view",
					"type": "function"
				},
				{
					"inputs": [],
					"name": "router",
					"outputs": [
						{
							"internalType": "contract IUniswapV2Router02",
							"name": "",
							"type": "address"
						}
					],
					"stateMutability": "view",
					"type": "function"
				},
				{
					"inputs": [
						{
							"internalType": "address",
							"name": "newOwner",
							"type": "address"
						}
					],
					"name": "setOwner",
					"outputs": [],
					"stateMutability": "nonpayable",
					"type": "function"
				},
				{
					"inputs": [],
					"name": "totalUsdc",
					"outputs": [
						{
							"internalType": "uint256",
							"name": "",
							"type": "uint256"
						}
					],
					"stateMutability": "view",
					"type": "function"
				},
				{
					"inputs": [
						{
							"internalType": "address",
							"name": "user",
							"type": "address"
						}
					],
					"name": "usdcBalanceOf",
					"outputs": [
						{
							"internalType": "uint256",
							"name": "",
							"type": "uint256"
						}
					],
					"stateMutability": "view",
					"type": "function"
				},
				{
					"inputs": [
						{
							"internalType": "uint256",
							"name": "amountUsdc",
							"type": "uint256"
						}
					],
					"name": "withdrawUSDC",
					"outputs": [],
					"stateMutability": "nonpayable",
					"type": "function"
				},
				{
					"inputs": [
						{
							"internalType": "address",
							"name": "",
							"type": "address"
						}
					],
					"name": "withdrawalCount",
					"outputs": [
						{
							"internalType": "uint256",
							"name": "",
							"type": "uint256"
						}
					],
					"stateMutability": "view",
					"type": "function"
				},
				{
					"stateMutability": "payable",
					"type": "receive"
				}
			],
			"devdoc": {
				"kind": "dev",
				"methods": {
					"constructor": {
						"params": {
							"_bankCapUsd": "bank cap expressed in USDC smallest units (e.g. 100 * 10**6)",
							"_router": "UniswapV2 router address",
							"_usdc": "address of USDC token (accounting token)"
						}
					},
					"depositETHSwapToUSDC(uint256)": {
						"details": "MEJORA: Validación de bankCap ANTES del swap para prevenir pérdida de fondos",
						"params": {
							"minUsdcOut": "minimum acceptable USDC out to protect from slippage (USDC smallest units)"
						}
					},
					"depositTokenSwapToUSDC(address,uint256,uint256)": {
						"details": "MEJORA: Validación de bankCap ANTES del swap",
						"params": {
							"amountIn": "amount of token being deposited (in token units)",
							"minUsdcOut": "minimum acceptable USDC out to protect from slippage (USDC smallest units)",
							"token": "token address to deposit"
						}
					},
					"depositUSDC(uint256)": {
						"details": "MEJORA: Validación de bankCap antes de la transferencia",
						"params": {
							"amountUsdc": "amount of USDC in USDC smallest units (6 decimals)"
						}
					},
					"withdrawUSDC(uint256)": {
						"details": "MEJORAS: Límite máximo por transacción y cooldown entre retiros",
						"params": {
							"amountUsdc": "amount in USDC smallest units"
						}
					}
				},
				"version": 1
			},
			"evm": {
				"assembly": "    /* \"src/KipuBankV4.sol\":2250:14744  contract KipuBankV4 {... */\n  mstore(0x40, 0x0100)\n    /* \"src/KipuBankV4.sol\":4898:5357  constructor(address _usdc, address _router, uint256 _bankCapUsd) {... */\n  callvalue\n  dup1\n  iszero\n  tag_1\n  jumpi\n  revert(0x00, 0x00)\ntag_1:\n  pop\n  mload(0x40)\n  sub(codesize, bytecodeSize)\n  dup1\n  bytecodeSize\n  dup4\n  codecopy\n  dup2\n  dup2\n  add\n  0x40\n  mstore\n  dup2\n  add\n  swap1\n  tag_2\n  swap2\n  swap1\n  tag_3\n  jump\t// in\ntag_2:\n    /* \"src/KipuBankV4.sol\":4995:4996  0 */\n  0x00\n    /* \"src/KipuBankV4.sol\":4978:4997  _usdc == address(0) */\n  0xffffffffffffffffffffffffffffffffffffffff\n  and\n    /* \"src/KipuBankV4.sol\":4978:4983  _usdc */\n  dup4\n    /* \"src/KipuBankV4.sol\":4978:4997  _usdc == address(0) */\n  0xffffffffffffffffffffffffffffffffffffffff\n  and\n  eq\n    /* \"src/KipuBankV4.sol\":4978:5022  _usdc == address(0) || _router == address(0) */\n  dup1\n  tag_6\n  jumpi\n  pop\n    /* \"src/KipuBankV4.sol\":5020:5021  0 */\n  0x00\n    /* \"src/KipuBankV4.sol\":5001:5022  _router == address(0) */\n  0xffffffffffffffffffffffffffffffffffffffff\n  and\n    /* \"src/KipuBankV4.sol\":5001:5008  _router */\n  dup3\n    /* \"src/KipuBankV4.sol\":5001:5022  _router == address(0) */\n  0xffffffffffffffffffffffffffffffffffffffff\n  and\n  eq\n    /* \"src/KipuBankV4.sol\":4978:5022  _usdc == address(0) || _router == address(0) */\ntag_6:\n    /* \"src/KipuBankV4.sol\":4978:5042  _usdc == address(0) || _router == address(0) || _bankCapUsd == 0 */\n  dup1\n  tag_7\n  jumpi\n  pop\n    /* \"src/KipuBankV4.sol\":5041:5042  0 */\n  0x00\n    /* \"src/KipuBankV4.sol\":5026:5037  _bankCapUsd */\n  dup2\n    /* \"src/KipuBankV4.sol\":5026:5042  _bankCapUsd == 0 */\n  eq\n    /* \"src/KipuBankV4.sol\":4978:5042  _usdc == address(0) || _router == address(0) || _bankCapUsd == 0 */\ntag_7:\n    /* \"src/KipuBankV4.sol\":4974:5063  if (_usdc == address(0) || _router == address(0) || _bankCapUsd == 0) revert ZeroAmount() */\n  iszero\n  tag_8\n  jumpi\n    /* \"src/KipuBankV4.sol\":5051:5063  ZeroAmount() */\n  mload(0x40)\n  0x1f2a200500000000000000000000000000000000000000000000000000000000\n  dup2\n  mstore\n  0x04\n  add\n  mload(0x40)\n  dup1\n  swap2\n  sub\n  swap1\n  revert\n    /* \"src/KipuBankV4.sol\":4974:5063  if (_usdc == address(0) || _router == address(0) || _bankCapUsd == 0) revert ZeroAmount() */\ntag_8:\n    /* \"src/KipuBankV4.sol\":5087:5092  _usdc */\n  dup3\n    /* \"src/KipuBankV4.sol\":5080:5092  USDC = _usdc */\n  0xffffffffffffffffffffffffffffffffffffffff\n  and\n  0x80\n  dup2\n  0xffffffffffffffffffffffffffffffffffffffff\n  and\n  dup2\n  mstore\n  pop\n  pop\n    /* \"src/KipuBankV4.sol\":5131:5138  _router */\n  dup2\n    /* \"src/KipuBankV4.sol\":5103:5139  router = IUniswapV2Router02(_router) */\n  0xffffffffffffffffffffffffffffffffffffffff\n  and\n  0xa0\n  dup2\n  0xffffffffffffffffffffffffffffffffffffffff\n  and\n  dup2\n  mstore\n  pop\n  pop\n    /* \"src/KipuBankV4.sol\":5237:5279  0x7b79995e5f793A07Bc00c21412e50Ecae098E7f9 */\n  0x7b79995e5f793a07bc00c21412e50ecae098e7f9\n    /* \"src/KipuBankV4.sol\":5230:5279  WETH = 0x7b79995e5f793A07Bc00c21412e50Ecae098E7f9 */\n  0xffffffffffffffffffffffffffffffffffffffff\n  and\n  0xc0\n  dup2\n  0xffffffffffffffffffffffffffffffffffffffff\n  and\n  dup2\n  mstore\n  pop\n  pop\n    /* \"src/KipuBankV4.sol\":5309:5320  _bankCapUsd */\n  dup1\n    /* \"src/KipuBankV4.sol\":5296:5320  bankCapUsd = _bankCapUsd */\n  0xe0\n  dup2\n  dup2\n  mstore\n  pop\n  pop\n    /* \"src/KipuBankV4.sol\":5339:5349  msg.sender */\n  caller\n    /* \"src/KipuBankV4.sol\":5331:5336  owner */\n  0x00\n  0x00\n    /* \"src/KipuBankV4.sol\":5331:5349  owner = msg.sender */\n  0x0100\n  exp\n  dup2\n  sload\n  dup2\n  0xffffffffffffffffffffffffffffffffffffffff\n  mul\n  not\n  and\n  swap1\n  dup4\n  0xffffffffffffffffffffffffffffffffffffffff\n  and\n  mul\n  or\n  swap1\n  sstore\n  pop\n    /* \"src/KipuBankV4.sol\":4898:5357  constructor(address _usdc, address _router, uint256 _bankCapUsd) {... */\n  pop\n  pop\n  pop\n    /* \"src/KipuBankV4.sol\":2250:14744  contract KipuBankV4 {... */\n  jump(tag_9)\n    /* \"#utility.yul\":88:205   */\ntag_11:\n    /* \"#utility.yul\":197:198   */\n  0x00\n    /* \"#utility.yul\":194:195   */\n  0x00\n    /* \"#utility.yul\":187:199   */\n  revert\n    /* \"#utility.yul\":334:460   */\ntag_13:\n    /* \"#utility.yul\":371:378   */\n  0x00\n    /* \"#utility.yul\":411:453   */\n  0xffffffffffffffffffffffffffffffffffffffff\n    /* \"#utility.yul\":404:409   */\n  dup3\n    /* \"#utility.yul\":400:454   */\n  and\n    /* \"#utility.yul\":389:454   */\n  swap1\n  pop\n    /* \"#utility.yul\":334:460   */\n  swap2\n  swap1\n  pop\n  jump\t// out\n    /* \"#utility.yul\":466:562   */\ntag_14:\n    /* \"#utility.yul\":503:510   */\n  0x00\n    /* \"#utility.yul\":532:556   */\n  tag_26\n    /* \"#utility.yul\":550:555   */\n  dup3\n    /* \"#utility.yul\":532:556   */\n  tag_13\n  jump\t// in\ntag_26:\n    /* \"#utility.yul\":521:556   */\n  swap1\n  pop\n    /* \"#utility.yul\":466:562   */\n  swap2\n  swap1\n  pop\n  jump\t// out\n    /* \"#utility.yul\":568:690   */\ntag_15:\n    /* \"#utility.yul\":641:665   */\n  tag_28\n    /* \"#utility.yul\":659:664   */\n  dup2\n    /* \"#utility.yul\":641:665   */\n  tag_14\n  jump\t// in\ntag_28:\n    /* \"#utility.yul\":634:639   */\n  dup2\n    /* \"#utility.yul\":631:666   */\n  eq\n    /* \"#utility.yul\":621:684   */\n  tag_29\n  jumpi\n    /* \"#utility.yul\":680:681   */\n  0x00\n    /* \"#utility.yul\":677:678   */\n  0x00\n    /* \"#utility.yul\":670:682   */\n  revert\n    /* \"#utility.yul\":621:684   */\ntag_29:\n    /* \"#utility.yul\":568:690   */\n  pop\n  jump\t// out\n    /* \"#utility.yul\":696:839   */\ntag_16:\n    /* \"#utility.yul\":753:758   */\n  0x00\n    /* \"#utility.yul\":784:790   */\n  dup2\n    /* \"#utility.yul\":778:791   */\n  mload\n    /* \"#utility.yul\":769:791   */\n  swap1\n  pop\n    /* \"#utility.yul\":800:833   */\n  tag_31\n    /* \"#utility.yul\":827:832   */\n  dup2\n    /* \"#utility.yul\":800:833   */\n  tag_15\n  jump\t// in\ntag_31:\n    /* \"#utility.yul\":696:839   */\n  swap3\n  swap2\n  pop\n  pop\n  jump\t// out\n    /* \"#utility.yul\":845:922   */\ntag_17:\n    /* \"#utility.yul\":882:889   */\n  0x00\n    /* \"#utility.yul\":911:916   */\n  dup2\n    /* \"#utility.yul\":900:916   */\n  swap1\n  pop\n    /* \"#utility.yul\":845:922   */\n  swap2\n  swap1\n  pop\n  jump\t// out\n    /* \"#utility.yul\":928:1050   */\ntag_18:\n    /* \"#utility.yul\":1001:1025   */\n  tag_34\n    /* \"#utility.yul\":1019:1024   */\n  dup2\n    /* \"#utility.yul\":1001:1025   */\n  tag_17\n  jump\t// in\ntag_34:\n    /* \"#utility.yul\":994:999   */\n  dup2\n    /* \"#utility.yul\":991:1026   */\n  eq\n    /* \"#utility.yul\":981:1044   */\n  tag_35\n  jumpi\n    /* \"#utility.yul\":1040:1041   */\n  0x00\n    /* \"#utility.yul\":1037:1038   */\n  0x00\n    /* \"#utility.yul\":1030:1042   */\n  revert\n    /* \"#utility.yul\":981:1044   */\ntag_35:\n    /* \"#utility.yul\":928:1050   */\n  pop\n  jump\t// out\n    /* \"#utility.yul\":1056:1199   */\ntag_19:\n    /* \"#utility.yul\":1113:1118   */\n  0x00\n    /* \"#utility.yul\":1144:1150   */\n  dup2\n    /* \"#utility.yul\":1138:1151   */\n  mload\n    /* \"#utility.yul\":1129:1151   */\n  swap1\n  pop\n    /* \"#utility.yul\":1160:1193   */\n  tag_37\n    /* \"#utility.yul\":1187:1192   */\n  dup2\n    /* \"#utility.yul\":1160:1193   */\n  tag_18\n  jump\t// in\ntag_37:\n    /* \"#utility.yul\":1056:1199   */\n  swap3\n  swap2\n  pop\n  pop\n  jump\t// out\n    /* \"#utility.yul\":1205:1868   */\ntag_3:\n    /* \"#utility.yul\":1293:1299   */\n  0x00\n    /* \"#utility.yul\":1301:1307   */\n  0x00\n    /* \"#utility.yul\":1309:1315   */\n  0x00\n    /* \"#utility.yul\":1358:1360   */\n  0x60\n    /* \"#utility.yul\":1346:1355   */\n  dup5\n    /* \"#utility.yul\":1337:1344   */\n  dup7\n    /* \"#utility.yul\":1333:1356   */\n  sub\n    /* \"#utility.yul\":1329:1361   */\n  slt\n    /* \"#utility.yul\":1326:1445   */\n  iszero\n  tag_39\n  jumpi\n    /* \"#utility.yul\":1364:1443   */\n  tag_40\n  tag_11\n  jump\t// in\ntag_40:\n    /* \"#utility.yul\":1326:1445   */\ntag_39:\n    /* \"#utility.yul\":1484:1485   */\n  0x00\n    /* \"#utility.yul\":1509:1573   */\n  tag_41\n    /* \"#utility.yul\":1565:1572   */\n  dup7\n    /* \"#utility.yul\":1556:1562   */\n  dup3\n    /* \"#utility.yul\":1545:1554   */\n  dup8\n    /* \"#utility.yul\":1541:1563   */\n  add\n    /* \"#utility.yul\":1509:1573   */\n  tag_16\n  jump\t// in\ntag_41:\n    /* \"#utility.yul\":1499:1573   */\n  swap4\n  pop\n    /* \"#utility.yul\":1455:1583   */\n  pop\n    /* \"#utility.yul\":1622:1624   */\n  0x20\n    /* \"#utility.yul\":1648:1712   */\n  tag_42\n    /* \"#utility.yul\":1704:1711   */\n  dup7\n    /* \"#utility.yul\":1695:1701   */\n  dup3\n    /* \"#utility.yul\":1684:1693   */\n  dup8\n    /* \"#utility.yul\":1680:1702   */\n  add\n    /* \"#utility.yul\":1648:1712   */\n  tag_16\n  jump\t// in\ntag_42:\n    /* \"#utility.yul\":1638:1712   */\n  swap3\n  pop\n    /* \"#utility.yul\":1593:1722   */\n  pop\n    /* \"#utility.yul\":1761:1763   */\n  0x40\n    /* \"#utility.yul\":1787:1851   */\n  tag_43\n    /* \"#utility.yul\":1843:1850   */\n  dup7\n    /* \"#utility.yul\":1834:1840   */\n  dup3\n    /* \"#utility.yul\":1823:1832   */\n  dup8\n    /* \"#utility.yul\":1819:1841   */\n  add\n    /* \"#utility.yul\":1787:1851   */\n  tag_19\n  jump\t// in\ntag_43:\n    /* \"#utility.yul\":1777:1851   */\n  swap2\n  pop\n    /* \"#utility.yul\":1732:1861   */\n  pop\n    /* \"#utility.yul\":1205:1868   */\n  swap3\n  pop\n  swap3\n  pop\n  swap3\n  jump\t// out\n    /* \"src/KipuBankV4.sol\":2250:14744  contract KipuBankV4 {... */\ntag_9:\n  mload(0x80)\n  mload(0xa0)\n  mload(0xc0)\n  mload(0xe0)\n  codecopy(0x00, dataOffset(sub_0), dataSize(sub_0))\n  0x00\n  assignImmutable(\"0x890f693d9ea1b595bb4a33efee4a21d60a63ffd2ec40c37883b92f82fc5da52b\")\n  0x00\n  assignImmutable(\"0x9960ed3041b9945289da338fa273462c820f58427408d57789c0e1400ad5c9bb\")\n  0x00\n  assignImmutable(\"0xe7fcf89c34605f23590ff58513f1080dc375dd06cc5e256320151057827a258a\")\n  0x00\n  assignImmutable(\"0x24036ccf201a67256250eabe66d3f9fd72f9c4d022f225a8ee964be060dcb993\")\n  return(0x00, dataSize(sub_0))\nstop\n\nsub_0: assembly {\n        /* \"src/KipuBankV4.sol\":2250:14744  contract KipuBankV4 {... */\n      mstore(0x40, 0x80)\n      jumpi(tag_1, lt(calldatasize, 0x04))\n      shr(0xe0, calldataload(0x00))\n      dup1\n      0xa78c7b08\n      gt\n      tag_21\n      jumpi\n      dup1\n      0xc3fd262d\n      gt\n      tag_22\n      jumpi\n      dup1\n      0xc3fd262d\n      eq\n      tag_16\n      jumpi\n      dup1\n      0xdb81f99b\n      eq\n      tag_17\n      jumpi\n      dup1\n      0xf688bcfb\n      eq\n      tag_18\n      jumpi\n      dup1\n      0xf887ea40\n      eq\n      tag_19\n      jumpi\n      dup1\n      0xfeedab00\n      eq\n      tag_20\n      jumpi\n      jump(tag_2)\n    tag_22:\n      dup1\n      0xa78c7b08\n      eq\n      tag_12\n      jumpi\n      dup1\n      0xac4543ba\n      eq\n      tag_13\n      jumpi\n      dup1\n      0xad5c4648\n      eq\n      tag_14\n      jumpi\n      dup1\n      0xb3d8bcdc\n      eq\n      tag_15\n      jumpi\n      jump(tag_2)\n    tag_21:\n      dup1\n      0x4de5120e\n      gt\n      tag_23\n      jumpi\n      dup1\n      0x4de5120e\n      eq\n      tag_7\n      jumpi\n      dup1\n      0x883f1721\n      eq\n      tag_8\n      jumpi\n      dup1\n      0x89a30271\n      eq\n      tag_9\n      jumpi\n      dup1\n      0x8da5cb5b\n      eq\n      tag_10\n      jumpi\n      dup1\n      0x95ccea67\n      eq\n      tag_11\n      jumpi\n      jump(tag_2)\n    tag_23:\n      dup1\n      0x058c8c2e\n      eq\n      tag_3\n      jumpi\n      dup1\n      0x13af4035\n      eq\n      tag_4\n      jumpi\n      dup1\n      0x34462be6\n      eq\n      tag_5\n      jumpi\n      dup1\n      0x39657553\n      eq\n      tag_6\n      jumpi\n      jump(tag_2)\n    tag_1:\n      jumpi(tag_2, calldatasize)\n        /* \"src/KipuBankV4.sol\":14618:14670  revert(\"Use depositETHSwapToUSDC function directly\") */\n      mload(0x40)\n      0x08c379a000000000000000000000000000000000000000000000000000000000\n      dup2\n      mstore\n      0x04\n      add\n      tag_26\n      swap1\n      tag_27\n      jump\t// in\n    tag_26:\n      mload(0x40)\n      dup1\n      swap2\n      sub\n      swap1\n      revert\n        /* \"src/KipuBankV4.sol\":2250:14744  contract KipuBankV4 {... */\n    tag_2:\n        /* \"src/KipuBankV4.sol\":14725:14733  revert() */\n      revert(0x00, 0x00)\n        /* \"src/KipuBankV4.sol\":2910:2971  uint256 public constant MAX_WITHDRAWAL_AMOUNT = 50000 * 10**6 */\n    tag_3:\n      callvalue\n      dup1\n      iszero\n      tag_30\n      jumpi\n      revert(0x00, 0x00)\n    tag_30:\n      pop\n      tag_31\n      tag_32\n      jump\t// in\n    tag_31:\n      mload(0x40)\n      tag_33\n      swap2\n      swap1\n      tag_34\n      jump\t// in\n    tag_33:\n      mload(0x40)\n      dup1\n      swap2\n      sub\n      swap1\n      return\n        /* \"src/KipuBankV4.sol\":5406:5667  function setOwner(address newOwner) external {... */\n    tag_4:\n      callvalue\n      dup1\n      iszero\n      tag_35\n      jumpi\n      revert(0x00, 0x00)\n    tag_35:\n      pop\n      tag_36\n      0x04\n      dup1\n      calldatasize\n      sub\n      dup2\n      add\n      swap1\n      tag_37\n      swap2\n      swap1\n      tag_38\n      jump\t// in\n    tag_37:\n      tag_39\n      jump\t// in\n    tag_36:\n      stop\n        /* \"src/KipuBankV4.sol\":2694:2718  uint256 public totalUsdc */\n    tag_5:\n      callvalue\n      dup1\n      iszero\n      tag_40\n      jumpi\n      revert(0x00, 0x00)\n    tag_40:\n      pop\n      tag_41\n      tag_42\n      jump\t// in\n    tag_41:\n      mload(0x40)\n      tag_43\n      swap2\n      swap1\n      tag_34\n      jump\t// in\n    tag_43:\n      mload(0x40)\n      dup1\n      swap2\n      sub\n      swap1\n      return\n        /* \"src/KipuBankV4.sol\":9771:11630  function depositTokenSwapToUSDC(... */\n    tag_6:\n      callvalue\n      dup1\n      iszero\n      tag_44\n      jumpi\n      revert(0x00, 0x00)\n    tag_44:\n      pop\n      tag_45\n      0x04\n      dup1\n      calldatasize\n      sub\n      dup2\n      add\n      swap1\n      tag_46\n      swap2\n      swap1\n      tag_47\n      jump\t// in\n    tag_46:\n      tag_48\n      jump\t// in\n    tag_45:\n      stop\n        /* \"src/KipuBankV4.sol\":3580:3633  mapping(address => uint256) public lastWithdrawalTime */\n    tag_7:\n      callvalue\n      dup1\n      iszero\n      tag_49\n      jumpi\n      revert(0x00, 0x00)\n    tag_49:\n      pop\n      tag_50\n      0x04\n      dup1\n      calldatasize\n      sub\n      dup2\n      add\n      swap1\n      tag_51\n      swap2\n      swap1\n      tag_38\n      jump\t// in\n    tag_51:\n      tag_52\n      jump\t// in\n    tag_50:\n      mload(0x40)\n      tag_53\n      swap2\n      swap1\n      tag_34\n      jump\t// in\n    tag_53:\n      mload(0x40)\n      dup1\n      swap2\n      sub\n      swap1\n      return\n        /* \"src/KipuBankV4.sol\":7678:9298  function depositETHSwapToUSDC(uint256 minUsdcOut) external payable nonReentrant {... */\n    tag_8:\n      tag_54\n      0x04\n      dup1\n      calldatasize\n      sub\n      dup2\n      add\n      swap1\n      tag_55\n      swap2\n      swap1\n      tag_56\n      jump\t// in\n    tag_55:\n      tag_57\n      jump\t// in\n    tag_54:\n      stop\n        /* \"src/KipuBankV4.sol\":2365:2394  address public immutable USDC */\n    tag_9:\n      callvalue\n      dup1\n      iszero\n      tag_58\n      jumpi\n      revert(0x00, 0x00)\n    tag_58:\n      pop\n      tag_59\n      tag_60\n      jump\t// in\n    tag_59:\n      mload(0x40)\n      tag_61\n      swap2\n      swap1\n      tag_62\n      jump\t// in\n    tag_61:\n      mload(0x40)\n      dup1\n      swap2\n      sub\n      swap1\n      return\n        /* \"src/KipuBankV4.sol\":2595:2615  address public owner */\n    tag_10:\n      callvalue\n      dup1\n      iszero\n      tag_63\n      jumpi\n      revert(0x00, 0x00)\n    tag_63:\n      pop\n      tag_64\n      tag_65\n      jump\t// in\n    tag_64:\n      mload(0x40)\n      tag_66\n      swap2\n      swap1\n      tag_62\n      jump\t// in\n    tag_66:\n      mload(0x40)\n      dup1\n      swap2\n      sub\n      swap1\n      return\n        /* \"src/KipuBankV4.sol\":5737:6076  function emergencyWithdraw(address token, uint256 amount) external {... */\n    tag_11:\n      callvalue\n      dup1\n      iszero\n      tag_67\n      jumpi\n      revert(0x00, 0x00)\n    tag_67:\n      pop\n      tag_68\n      0x04\n      dup1\n      calldatasize\n      sub\n      dup2\n      add\n      swap1\n      tag_69\n      swap2\n      swap1\n      tag_70\n      jump\t// in\n    tag_69:\n      tag_71\n      jump\t// in\n    tag_68:\n      stop\n        /* \"src/KipuBankV4.sol\":6316:6423  function remainingCapacity() public view returns (uint256) {... */\n    tag_12:\n      callvalue\n      dup1\n      iszero\n      tag_72\n      jumpi\n      revert(0x00, 0x00)\n    tag_72:\n      pop\n      tag_73\n      tag_74\n      jump\t// in\n    tag_73:\n      mload(0x40)\n      tag_75\n      swap2\n      swap1\n      tag_34\n      jump\t// in\n    tag_75:\n      mload(0x40)\n      dup1\n      swap2\n      sub\n      swap1\n      return\n        /* \"src/KipuBankV4.sol\":2803:2838  uint256 public immutable bankCapUsd */\n    tag_13:\n      callvalue\n      dup1\n      iszero\n      tag_76\n      jumpi\n      revert(0x00, 0x00)\n    tag_76:\n      pop\n      tag_77\n      tag_78\n      jump\t// in\n    tag_77:\n      mload(0x40)\n      tag_79\n      swap2\n      swap1\n      tag_34\n      jump\t// in\n    tag_79:\n      mload(0x40)\n      dup1\n      swap2\n      sub\n      swap1\n      return\n        /* \"src/KipuBankV4.sol\":2528:2557  address public immutable WETH */\n    tag_14:\n      callvalue\n      dup1\n      iszero\n      tag_80\n      jumpi\n      revert(0x00, 0x00)\n    tag_80:\n      pop\n      tag_81\n      tag_82\n      jump\t// in\n    tag_81:\n      mload(0x40)\n      tag_83\n      swap2\n      swap1\n      tag_62\n      jump\t// in\n    tag_83:\n      mload(0x40)\n      dup1\n      swap2\n      sub\n      swap1\n      return\n        /* \"src/KipuBankV4.sol\":3488:3538  mapping(address => uint256) public withdrawalCount */\n    tag_15:\n      callvalue\n      dup1\n      iszero\n      tag_84\n      jumpi\n      revert(0x00, 0x00)\n    tag_84:\n      pop\n      tag_85\n      0x04\n      dup1\n      calldatasize\n      sub\n      dup2\n      add\n      swap1\n      tag_86\n      swap2\n      swap1\n      tag_38\n      jump\t// in\n    tag_86:\n      tag_87\n      jump\t// in\n    tag_85:\n      mload(0x40)\n      tag_88\n      swap2\n      swap1\n      tag_34\n      jump\t// in\n    tag_88:\n      mload(0x40)\n      dup1\n      swap2\n      sub\n      swap1\n      return\n        /* \"src/KipuBankV4.sol\":6132:6245  function usdcBalanceOf(address user) external view returns (uint256) {... */\n    tag_16:\n      callvalue\n      dup1\n      iszero\n      tag_89\n      jumpi\n      revert(0x00, 0x00)\n    tag_89:\n      pop\n      tag_90\n      0x04\n      dup1\n      calldatasize\n      sub\n      dup2\n      add\n      swap1\n      tag_91\n      swap2\n      swap1\n      tag_38\n      jump\t// in\n    tag_91:\n      tag_92\n      jump\t// in\n    tag_90:\n      mload(0x40)\n      tag_93\n      swap2\n      swap1\n      tag_34\n      jump\t// in\n    tag_93:\n      mload(0x40)\n      dup1\n      swap2\n      sub\n      swap1\n      return\n        /* \"src/KipuBankV4.sol\":11893:13127  function withdrawUSDC(uint256 amountUsdc) external nonReentrant {... */\n    tag_17:\n      callvalue\n      dup1\n      iszero\n      tag_94\n      jumpi\n      revert(0x00, 0x00)\n    tag_94:\n      pop\n      tag_95\n      0x04\n      dup1\n      calldatasize\n      sub\n      dup2\n      add\n      swap1\n      tag_96\n      swap2\n      swap1\n      tag_56\n      jump\t// in\n    tag_96:\n      tag_97\n      jump\t// in\n    tag_95:\n      stop\n        /* \"src/KipuBankV4.sol\":6712:7379  function depositUSDC(uint256 amountUsdc) external nonReentrant {... */\n    tag_18:\n      callvalue\n      dup1\n      iszero\n      tag_98\n      jumpi\n      revert(0x00, 0x00)\n    tag_98:\n      pop\n      tag_99\n      0x04\n      dup1\n      calldatasize\n      sub\n      dup2\n      add\n      swap1\n      tag_100\n      swap2\n      swap1\n      tag_56\n      jump\t// in\n    tag_100:\n      tag_101\n      jump\t// in\n    tag_99:\n      stop\n        /* \"src/KipuBankV4.sol\":2435:2477  IUniswapV2Router02 public immutable router */\n    tag_19:\n      callvalue\n      dup1\n      iszero\n      tag_102\n      jumpi\n      revert(0x00, 0x00)\n    tag_102:\n      pop\n      tag_103\n      tag_104\n      jump\t// in\n    tag_103:\n      mload(0x40)\n      tag_105\n      swap2\n      swap1\n      tag_106\n      jump\t// in\n    tag_105:\n      mload(0x40)\n      dup1\n      swap2\n      sub\n      swap1\n      return\n        /* \"src/KipuBankV4.sol\":3018:3070  uint256 public constant WITHDRAWAL_COOLDOWN = 1 days */\n    tag_20:\n      callvalue\n      dup1\n      iszero\n      tag_107\n      jumpi\n      revert(0x00, 0x00)\n    tag_107:\n      pop\n      tag_108\n      tag_109\n      jump\t// in\n    tag_108:\n      mload(0x40)\n      tag_110\n      swap2\n      swap1\n      tag_34\n      jump\t// in\n    tag_110:\n      mload(0x40)\n      dup1\n      swap2\n      sub\n      swap1\n      return\n        /* \"src/KipuBankV4.sol\":2910:2971  uint256 public constant MAX_WITHDRAWAL_AMOUNT = 50000 * 10**6 */\n    tag_32:\n        /* \"src/KipuBankV4.sol\":2958:2971  50000 * 10**6 */\n      0x0ba43b7400\n        /* \"src/KipuBankV4.sol\":2910:2971  uint256 public constant MAX_WITHDRAWAL_AMOUNT = 50000 * 10**6 */\n      dup2\n      jump\t// out\n        /* \"src/KipuBankV4.sol\":5406:5667  function setOwner(address newOwner) external {... */\n    tag_39:\n        /* \"src/KipuBankV4.sol\":5480:5485  owner */\n      0x00\n      0x00\n      swap1\n      sload\n      swap1\n      0x0100\n      exp\n      swap1\n      div\n      0xffffffffffffffffffffffffffffffffffffffff\n      and\n        /* \"src/KipuBankV4.sol\":5466:5485  msg.sender != owner */\n      0xffffffffffffffffffffffffffffffffffffffff\n      and\n        /* \"src/KipuBankV4.sol\":5466:5476  msg.sender */\n      caller\n        /* \"src/KipuBankV4.sol\":5466:5485  msg.sender != owner */\n      0xffffffffffffffffffffffffffffffffffffffff\n      and\n      eq\n        /* \"src/KipuBankV4.sol\":5462:5504  if (msg.sender != owner) revert NotOwner() */\n      tag_112\n      jumpi\n        /* \"src/KipuBankV4.sol\":5494:5504  NotOwner() */\n      mload(0x40)\n      0x30cd747100000000000000000000000000000000000000000000000000000000\n      dup2\n      mstore\n      0x04\n      add\n      mload(0x40)\n      dup1\n      swap2\n      sub\n      swap1\n      revert\n        /* \"src/KipuBankV4.sol\":5462:5504  if (msg.sender != owner) revert NotOwner() */\n    tag_112:\n        /* \"src/KipuBankV4.sol\":5543:5544  0 */\n      0x00\n        /* \"src/KipuBankV4.sol\":5523:5545  newOwner != address(0) */\n      0xffffffffffffffffffffffffffffffffffffffff\n      and\n        /* \"src/KipuBankV4.sol\":5523:5531  newOwner */\n      dup2\n        /* \"src/KipuBankV4.sol\":5523:5545  newOwner != address(0) */\n      0xffffffffffffffffffffffffffffffffffffffff\n      and\n      sub\n        /* \"src/KipuBankV4.sol\":5515:5559  require(newOwner != address(0), \"zero addr\") */\n      tag_113\n      jumpi\n      mload(0x40)\n      0x08c379a000000000000000000000000000000000000000000000000000000000\n      dup2\n      mstore\n      0x04\n      add\n      tag_114\n      swap1\n      tag_115\n      jump\t// in\n    tag_114:\n      mload(0x40)\n      dup1\n      swap2\n      sub\n      swap1\n      revert\n    tag_113:\n        /* \"src/KipuBankV4.sol\":5570:5581  address old */\n      0x00\n        /* \"src/KipuBankV4.sol\":5584:5589  owner */\n      0x00\n      0x00\n      swap1\n      sload\n      swap1\n      0x0100\n      exp\n      swap1\n      div\n      0xffffffffffffffffffffffffffffffffffffffff\n      and\n        /* \"src/KipuBankV4.sol\":5570:5589  address old = owner */\n      swap1\n      pop\n        /* \"src/KipuBankV4.sol\":5608:5616  newOwner */\n      dup2\n        /* \"src/KipuBankV4.sol\":5600:5605  owner */\n      0x00\n      0x00\n        /* \"src/KipuBankV4.sol\":5600:5616  owner = newOwner */\n      0x0100\n      exp\n      dup2\n      sload\n      dup2\n      0xffffffffffffffffffffffffffffffffffffffff\n      mul\n      not\n      and\n      swap1\n      dup4\n      0xffffffffffffffffffffffffffffffffffffffff\n      and\n      mul\n      or\n      swap1\n      sstore\n      pop\n        /* \"src/KipuBankV4.sol\":5650:5658  newOwner */\n      dup2\n        /* \"src/KipuBankV4.sol\":5632:5659  OwnerChanged(old, newOwner) */\n      0xffffffffffffffffffffffffffffffffffffffff\n      and\n        /* \"src/KipuBankV4.sol\":5645:5648  old */\n      dup2\n        /* \"src/KipuBankV4.sol\":5632:5659  OwnerChanged(old, newOwner) */\n      0xffffffffffffffffffffffffffffffffffffffff\n      and\n      0xb532073b38c83145e3e5135377a08bf9aab55bc0fd7c1179cd4fb995d2a5159c\n      mload(0x40)\n      mload(0x40)\n      dup1\n      swap2\n      sub\n      swap1\n      log3\n        /* \"src/KipuBankV4.sol\":5451:5667  {... */\n      pop\n        /* \"src/KipuBankV4.sol\":5406:5667  function setOwner(address newOwner) external {... */\n      pop\n      jump\t// out\n        /* \"src/KipuBankV4.sol\":2694:2718  uint256 public totalUsdc */\n    tag_42:\n      sload(0x01)\n      dup2\n      jump\t// out\n        /* \"src/KipuBankV4.sol\":9771:11630  function depositTokenSwapToUSDC(... */\n    tag_48:\n        /* \"src/KipuBankV4.sol\":3204:3210  locked */\n      0x02\n      0x00\n      swap1\n      sload\n      swap1\n      0x0100\n      exp\n      swap1\n      div\n      0xff\n      and\n        /* \"src/KipuBankV4.sol\":3200:3230  if (locked) revert Reentrant() */\n      iszero\n      tag_117\n      jumpi\n        /* \"src/KipuBankV4.sol\":3219:3230  Reentrant() */\n      mload(0x40)\n      0xed3ba6a600000000000000000000000000000000000000000000000000000000\n      dup2\n      mstore\n      0x04\n      add\n      mload(0x40)\n      dup1\n      swap2\n      sub\n      swap1\n      revert\n        /* \"src/KipuBankV4.sol\":3200:3230  if (locked) revert Reentrant() */\n    tag_117:\n        /* \"src/KipuBankV4.sol\":3250:3254  true */\n      0x01\n        /* \"src/KipuBankV4.sol\":3241:3247  locked */\n      0x02\n      0x00\n        /* \"src/KipuBankV4.sol\":3241:3254  locked = true */\n      0x0100\n      exp\n      dup2\n      sload\n      dup2\n      0xff\n      mul\n      not\n      and\n      swap1\n      dup4\n      iszero\n      iszero\n      mul\n      or\n      swap1\n      sstore\n      pop\n        /* \"src/KipuBankV4.sol\":9939:9940  0 */\n      0x00\n        /* \"src/KipuBankV4.sol\":9927:9935  amountIn */\n      dup3\n        /* \"src/KipuBankV4.sol\":9927:9940  amountIn == 0 */\n      sub\n        /* \"src/KipuBankV4.sol\":9923:9961  if (amountIn == 0) revert ZeroAmount() */\n      tag_119\n      jumpi\n        /* \"src/KipuBankV4.sol\":9949:9961  ZeroAmount() */\n      mload(0x40)\n      0x1f2a200500000000000000000000000000000000000000000000000000000000\n      dup2\n      mstore\n      0x04\n      add\n      mload(0x40)\n      dup1\n      swap2\n      sub\n      swap1\n      revert\n        /* \"src/KipuBankV4.sol\":9923:9961  if (amountIn == 0) revert ZeroAmount() */\n    tag_119:\n        /* \"src/KipuBankV4.sol\":9993:9994  0 */\n      0x00\n        /* \"src/KipuBankV4.sol\":9976:9995  token == address(0) */\n      0xffffffffffffffffffffffffffffffffffffffff\n      and\n        /* \"src/KipuBankV4.sol\":9976:9981  token */\n      dup4\n        /* \"src/KipuBankV4.sol\":9976:9995  token == address(0) */\n      0xffffffffffffffffffffffffffffffffffffffff\n      and\n      eq\n        /* \"src/KipuBankV4.sol\":9976:10012  token == address(0) || token == USDC */\n      dup1\n      tag_120\n      jumpi\n      pop\n        /* \"src/KipuBankV4.sol\":10008:10012  USDC */\n      immutable(\"0x24036ccf201a67256250eabe66d3f9fd72f9c4d022f225a8ee964be060dcb993\")\n        /* \"src/KipuBankV4.sol\":9999:10012  token == USDC */\n      0xffffffffffffffffffffffffffffffffffffffff\n      and\n        /* \"src/KipuBankV4.sol\":9999:10004  token */\n      dup4\n        /* \"src/KipuBankV4.sol\":9999:10012  token == USDC */\n      0xffffffffffffffffffffffffffffffffffffffff\n      and\n      eq\n        /* \"src/KipuBankV4.sol\":9976:10012  token == address(0) || token == USDC */\n    tag_120:\n        /* \"src/KipuBankV4.sol\":9972:10035  if (token == address(0) || token == USDC) revert InvalidToken() */\n      iszero\n      tag_121\n      jumpi\n        /* \"src/KipuBankV4.sol\":10021:10035  InvalidToken() */\n      mload(0x40)\n      0xc1ab6dc100000000000000000000000000000000000000000000000000000000\n      dup2\n      mstore\n      0x04\n      add\n      mload(0x40)\n      dup1\n      swap2\n      sub\n      swap1\n      revert\n        /* \"src/KipuBankV4.sol\":9972:10035  if (token == address(0) || token == USDC) revert InvalidToken() */\n    tag_121:\n        /* \"src/KipuBankV4.sol\":10152:10183  address[] memory estimationPath */\n      0x00\n        /* \"src/KipuBankV4.sol\":10200:10201  2 */\n      0x02\n        /* \"src/KipuBankV4.sol\":10186:10202  new address[](2) */\n      0xffffffffffffffff\n      dup2\n      gt\n      iszero\n      tag_122\n      jumpi\n      tag_123\n      tag_124\n      jump\t// in\n    tag_123:\n    tag_122:\n      mload(0x40)\n      swap1\n      dup1\n      dup3\n      mstore\n      dup1\n      0x20\n      mul\n      0x20\n      add\n      dup3\n      add\n      0x40\n      mstore\n      dup1\n      iszero\n      tag_125\n      jumpi\n      dup2\n      0x20\n      add\n      0x20\n      dup3\n      mul\n      dup1\n      calldatasize\n      dup4\n      calldatacopy\n      dup1\n      dup3\n      add\n      swap2\n      pop\n      pop\n      swap1\n      pop\n    tag_125:\n      pop\n        /* \"src/KipuBankV4.sol\":10152:10202  address[] memory estimationPath = new address[](2) */\n      swap1\n      pop\n        /* \"src/KipuBankV4.sol\":10233:10238  token */\n      dup4\n        /* \"src/KipuBankV4.sol\":10213:10227  estimationPath */\n      dup2\n        /* \"src/KipuBankV4.sol\":10228:10229  0 */\n      0x00\n        /* \"src/KipuBankV4.sol\":10213:10230  estimationPath[0] */\n      dup2\n      mload\n      dup2\n      lt\n      tag_126\n      jumpi\n      tag_127\n      tag_128\n      jump\t// in\n    tag_127:\n    tag_126:\n      0x20\n      mul\n      0x20\n      add\n      add\n        /* \"src/KipuBankV4.sol\":10213:10238  estimationPath[0] = token */\n      swap1\n      0xffffffffffffffffffffffffffffffffffffffff\n      and\n      swap1\n      dup2\n      0xffffffffffffffffffffffffffffffffffffffff\n      and\n      dup2\n      mstore\n      pop\n      pop\n        /* \"src/KipuBankV4.sol\":10269:10273  USDC */\n      immutable(\"0x24036ccf201a67256250eabe66d3f9fd72f9c4d022f225a8ee964be060dcb993\")\n        /* \"src/KipuBankV4.sol\":10249:10263  estimationPath */\n      dup2\n        /* \"src/KipuBankV4.sol\":10264:10265  1 */\n      0x01\n        /* \"src/KipuBankV4.sol\":10249:10266  estimationPath[1] */\n      dup2\n      mload\n      dup2\n      lt\n      tag_129\n      jumpi\n      tag_130\n      tag_128\n      jump\t// in\n    tag_130:\n    tag_129:\n      0x20\n      mul\n      0x20\n      add\n      add\n        /* \"src/KipuBankV4.sol\":10249:10273  estimationPath[1] = USDC */\n      swap1\n      0xffffffffffffffffffffffffffffffffffffffff\n      and\n      swap1\n      dup2\n      0xffffffffffffffffffffffffffffffffffffffff\n      and\n      dup2\n      mstore\n      pop\n      pop\n        /* \"src/KipuBankV4.sol\":10294:10315  uint256 estimatedUsdc */\n      0x00\n        /* \"src/KipuBankV4.sol\":10318:10363  _estimateSwapOutput(estimationPath, amountIn) */\n      tag_131\n        /* \"src/KipuBankV4.sol\":10338:10352  estimationPath */\n      dup3\n        /* \"src/KipuBankV4.sol\":10354:10362  amountIn */\n      dup6\n        /* \"src/KipuBankV4.sol\":10318:10337  _estimateSwapOutput */\n      tag_132\n        /* \"src/KipuBankV4.sol\":10318:10363  _estimateSwapOutput(estimationPath, amountIn) */\n      jump\t// in\n    tag_131:\n        /* \"src/KipuBankV4.sol\":10294:10363  uint256 estimatedUsdc = _estimateSwapOutput(estimationPath, amountIn) */\n      swap1\n      pop\n        /* \"src/KipuBankV4.sol\":10487:10497  bankCapUsd */\n      immutable(\"0x890f693d9ea1b595bb4a33efee4a21d60a63ffd2ec40c37883b92f82fc5da52b\")\n        /* \"src/KipuBankV4.sol\":10471:10484  estimatedUsdc */\n      dup2\n        /* \"src/KipuBankV4.sol\":10459:10468  totalUsdc */\n      sload(0x01)\n        /* \"src/KipuBankV4.sol\":10459:10484  totalUsdc + estimatedUsdc */\n      tag_133\n      swap2\n      swap1\n      tag_134\n      jump\t// in\n    tag_133:\n        /* \"src/KipuBankV4.sol\":10459:10497  totalUsdc + estimatedUsdc > bankCapUsd */\n      gt\n        /* \"src/KipuBankV4.sol\":10455:10586  if (totalUsdc + estimatedUsdc > bankCapUsd) {... */\n      iszero\n      tag_135\n      jumpi\n        /* \"src/KipuBankV4.sol\":10537:10550  estimatedUsdc */\n      dup1\n        /* \"src/KipuBankV4.sol\":10552:10561  totalUsdc */\n      sload(0x01)\n        /* \"src/KipuBankV4.sol\":10563:10573  bankCapUsd */\n      immutable(\"0x890f693d9ea1b595bb4a33efee4a21d60a63ffd2ec40c37883b92f82fc5da52b\")\n        /* \"src/KipuBankV4.sol\":10521:10574  BankCapExceeded(estimatedUsdc, totalUsdc, bankCapUsd) */\n      mload(0x40)\n      0x621e5a6900000000000000000000000000000000000000000000000000000000\n      dup2\n      mstore\n      0x04\n      add\n      tag_136\n      swap4\n      swap3\n      swap2\n      swap1\n      tag_137\n      jump\t// in\n    tag_136:\n      mload(0x40)\n      dup1\n      swap2\n      sub\n      swap1\n      revert\n        /* \"src/KipuBankV4.sol\":10455:10586  if (totalUsdc + estimatedUsdc > bankCapUsd) {... */\n    tag_135:\n        /* \"src/KipuBankV4.sol\":10644:10652  bool ok1 */\n      0x00\n        /* \"src/KipuBankV4.sol\":10662:10667  token */\n      dup6\n        /* \"src/KipuBankV4.sol\":10655:10681  IERC20(token).transferFrom */\n      0xffffffffffffffffffffffffffffffffffffffff\n      and\n      0x23b872dd\n        /* \"src/KipuBankV4.sol\":10682:10692  msg.sender */\n      caller\n        /* \"src/KipuBankV4.sol\":10702:10706  this */\n      address\n        /* \"src/KipuBankV4.sol\":10709:10717  amountIn */\n      dup9\n        /* \"src/KipuBankV4.sol\":10655:10718  IERC20(token).transferFrom(msg.sender, address(this), amountIn) */\n      mload(0x40)\n      dup5\n      0xffffffff\n      and\n      0xe0\n      shl\n      dup2\n      mstore\n      0x04\n      add\n      tag_138\n      swap4\n      swap3\n      swap2\n      swap1\n      tag_139\n      jump\t// in\n    tag_138:\n      0x20\n      mload(0x40)\n      dup1\n      dup4\n      sub\n      dup2\n      0x00\n      dup8\n      gas\n      call\n      iszero\n      dup1\n      iszero\n      tag_141\n      jumpi\n      returndatacopy(0x00, 0x00, returndatasize)\n      revert(0x00, returndatasize)\n    tag_141:\n      pop\n      pop\n      pop\n      pop\n      mload(0x40)\n      returndatasize\n      not(0x1f)\n      0x1f\n      dup3\n      add\n      and\n      dup3\n      add\n      dup1\n      0x40\n      mstore\n      pop\n      dup2\n      add\n      swap1\n      tag_142\n      swap2\n      swap1\n      tag_143\n      jump\t// in\n    tag_142:\n        /* \"src/KipuBankV4.sol\":10644:10718  bool ok1 = IERC20(token).transferFrom(msg.sender, address(this), amountIn) */\n      swap1\n      pop\n        /* \"src/KipuBankV4.sol\":10734:10737  ok1 */\n      dup1\n        /* \"src/KipuBankV4.sol\":10729:10758  if (!ok1) revert SwapFailed() */\n      tag_144\n      jumpi\n        /* \"src/KipuBankV4.sol\":10746:10758  SwapFailed() */\n      mload(0x40)\n      0x81ceff3000000000000000000000000000000000000000000000000000000000\n      dup2\n      mstore\n      0x04\n      add\n      mload(0x40)\n      dup1\n      swap2\n      sub\n      swap1\n      revert\n        /* \"src/KipuBankV4.sol\":10729:10758  if (!ok1) revert SwapFailed() */\n    tag_144:\n        /* \"src/KipuBankV4.sol\":10821:10867  _safeApprove(token, address(router), amountIn) */\n      tag_145\n        /* \"src/KipuBankV4.sol\":10834:10839  token */\n      dup7\n        /* \"src/KipuBankV4.sol\":10849:10855  router */\n      immutable(\"0xe7fcf89c34605f23590ff58513f1080dc375dd06cc5e256320151057827a258a\")\n        /* \"src/KipuBankV4.sol\":10858:10866  amountIn */\n      dup8\n        /* \"src/KipuBankV4.sol\":10821:10833  _safeApprove */\n      tag_146\n        /* \"src/KipuBankV4.sol\":10821:10867  _safeApprove(token, address(router), amountIn) */\n      jump\t// in\n    tag_145:\n        /* \"src/KipuBankV4.sol\":10951:10976  address[] memory swapPath */\n      0x00\n        /* \"src/KipuBankV4.sol\":10993:10994  2 */\n      0x02\n        /* \"src/KipuBankV4.sol\":10979:10995  new address[](2) */\n      0xffffffffffffffff\n      dup2\n      gt\n      iszero\n      tag_147\n      jumpi\n      tag_148\n      tag_124\n      jump\t// in\n    tag_148:\n    tag_147:\n      mload(0x40)\n      swap1\n      dup1\n      dup3\n      mstore\n      dup1\n      0x20\n      mul\n      0x20\n      add\n      dup3\n      add\n      0x40\n      mstore\n      dup1\n      iszero\n      tag_149\n      jumpi\n      dup2\n      0x20\n      add\n      0x20\n      dup3\n      mul\n      dup1\n      calldatasize\n      dup4\n      calldatacopy\n      dup1\n      dup3\n      add\n      swap2\n      pop\n      pop\n      swap1\n      pop\n    tag_149:\n      pop\n        /* \"src/KipuBankV4.sol\":10951:10995  address[] memory swapPath = new address[](2) */\n      swap1\n      pop\n        /* \"src/KipuBankV4.sol\":11020:11025  token */\n      dup7\n        /* \"src/KipuBankV4.sol\":11006:11014  swapPath */\n      dup2\n        /* \"src/KipuBankV4.sol\":11015:11016  0 */\n      0x00\n        /* \"src/KipuBankV4.sol\":11006:11017  swapPath[0] */\n      dup2\n      mload\n      dup2\n      lt\n      tag_150\n      jumpi\n      tag_151\n      tag_128\n      jump\t// in\n    tag_151:\n    tag_150:\n      0x20\n      mul\n      0x20\n      add\n      add\n        /* \"src/KipuBankV4.sol\":11006:11025  swapPath[0] = token */\n      swap1\n      0xffffffffffffffffffffffffffffffffffffffff\n      and\n      swap1\n      dup2\n      0xffffffffffffffffffffffffffffffffffffffff\n      and\n      dup2\n      mstore\n      pop\n      pop\n        /* \"src/KipuBankV4.sol\":11050:11054  USDC */\n      immutable(\"0x24036ccf201a67256250eabe66d3f9fd72f9c4d022f225a8ee964be060dcb993\")\n        /* \"src/KipuBankV4.sol\":11036:11044  swapPath */\n      dup2\n        /* \"src/KipuBankV4.sol\":11045:11046  1 */\n      0x01\n        /* \"src/KipuBankV4.sol\":11036:11047  swapPath[1] */\n      dup2\n      mload\n      dup2\n      lt\n      tag_152\n      jumpi\n      tag_153\n      tag_128\n      jump\t// in\n    tag_153:\n    tag_152:\n      0x20\n      mul\n      0x20\n      add\n      add\n        /* \"src/KipuBankV4.sol\":11036:11054  swapPath[1] = USDC */\n      swap1\n      0xffffffffffffffffffffffffffffffffffffffff\n      and\n      swap1\n      dup2\n      0xffffffffffffffffffffffffffffffffffffffff\n      and\n      dup2\n      mstore\n      pop\n      pop\n        /* \"src/KipuBankV4.sol\":11087:11100  uint deadline */\n      0x00\n        /* \"src/KipuBankV4.sol\":11121:11124  300 */\n      0x012c\n        /* \"src/KipuBankV4.sol\":11103:11118  block.timestamp */\n      timestamp\n        /* \"src/KipuBankV4.sol\":11103:11124  block.timestamp + 300 */\n      tag_154\n      swap2\n      swap1\n      tag_134\n      jump\t// in\n    tag_154:\n        /* \"src/KipuBankV4.sol\":11087:11124  uint deadline = block.timestamp + 300 */\n      swap1\n      pop\n        /* \"src/KipuBankV4.sol\":11135:11156  uint[] memory amounts */\n      0x00\n        /* \"src/KipuBankV4.sol\":11159:11165  router */\n      immutable(\"0xe7fcf89c34605f23590ff58513f1080dc375dd06cc5e256320151057827a258a\")\n        /* \"src/KipuBankV4.sol\":11159:11190  router.swapExactTokensForTokens */\n      0xffffffffffffffffffffffffffffffffffffffff\n      and\n      0x38ed1739\n        /* \"src/KipuBankV4.sol\":11205:11213  amountIn */\n      dup10\n        /* \"src/KipuBankV4.sol\":11228:11238  minUsdcOut */\n      dup10\n        /* \"src/KipuBankV4.sol\":11253:11261  swapPath */\n      dup7\n        /* \"src/KipuBankV4.sol\":11284:11288  this */\n      address\n        /* \"src/KipuBankV4.sol\":11304:11312  deadline */\n      dup8\n        /* \"src/KipuBankV4.sol\":11159:11323  router.swapExactTokensForTokens(... */\n      mload(0x40)\n      dup7\n      0xffffffff\n      and\n      0xe0\n      shl\n      dup2\n      mstore\n      0x04\n      add\n      tag_155\n      swap6\n      swap5\n      swap4\n      swap3\n      swap2\n      swap1\n      tag_156\n      jump\t// in\n    tag_155:\n      0x00\n      mload(0x40)\n      dup1\n      dup4\n      sub\n      dup2\n      0x00\n      dup8\n      gas\n      call\n      iszero\n      dup1\n      iszero\n      tag_158\n      jumpi\n      returndatacopy(0x00, 0x00, returndatasize)\n      revert(0x00, returndatasize)\n    tag_158:\n      pop\n      pop\n      pop\n      pop\n      mload(0x40)\n      returndatasize\n      0x00\n      dup3\n      returndatacopy\n      returndatasize\n      not(0x1f)\n      0x1f\n      dup3\n      add\n      and\n      dup3\n      add\n      dup1\n      0x40\n      mstore\n      pop\n      dup2\n      add\n      swap1\n      tag_159\n      swap2\n      swap1\n      tag_160\n      jump\t// in\n    tag_159:\n        /* \"src/KipuBankV4.sol\":11135:11323  uint[] memory amounts = router.swapExactTokensForTokens(... */\n      swap1\n      pop\n        /* \"src/KipuBankV4.sol\":11355:11356  2 */\n      0x02\n        /* \"src/KipuBankV4.sol\":11338:11345  amounts */\n      dup2\n        /* \"src/KipuBankV4.sol\":11338:11352  amounts.length */\n      mload\n        /* \"src/KipuBankV4.sol\":11338:11356  amounts.length < 2 */\n      lt\n        /* \"src/KipuBankV4.sol\":11334:11377  if (amounts.length < 2) revert SwapFailed() */\n      iszero\n      tag_161\n      jumpi\n        /* \"src/KipuBankV4.sol\":11365:11377  SwapFailed() */\n      mload(0x40)\n      0x81ceff3000000000000000000000000000000000000000000000000000000000\n      dup2\n      mstore\n      0x04\n      add\n      mload(0x40)\n      dup1\n      swap2\n      sub\n      swap1\n      revert\n        /* \"src/KipuBankV4.sol\":11334:11377  if (amounts.length < 2) revert SwapFailed() */\n    tag_161:\n        /* \"src/KipuBankV4.sol\":11390:11407  uint usdcReceived */\n      0x00\n        /* \"src/KipuBankV4.sol\":11410:11417  amounts */\n      dup2\n        /* \"src/KipuBankV4.sol\":11435:11436  1 */\n      0x01\n        /* \"src/KipuBankV4.sol\":11418:11425  amounts */\n      dup4\n        /* \"src/KipuBankV4.sol\":11418:11432  amounts.length */\n      mload\n        /* \"src/KipuBankV4.sol\":11418:11436  amounts.length - 1 */\n      tag_162\n      swap2\n      swap1\n      tag_163\n      jump\t// in\n    tag_162:\n        /* \"src/KipuBankV4.sol\":11410:11437  amounts[amounts.length - 1] */\n      dup2\n      mload\n      dup2\n      lt\n      tag_164\n      jumpi\n      tag_165\n      tag_128\n      jump\t// in\n    tag_165:\n    tag_164:\n      0x20\n      mul\n      0x20\n      add\n      add\n      mload\n        /* \"src/KipuBankV4.sol\":11390:11437  uint usdcReceived = amounts[amounts.length - 1] */\n      swap1\n      pop\n        /* \"src/KipuBankV4.sol\":11482:11494  usdcReceived */\n      dup1\n        /* \"src/KipuBankV4.sol\":11469:11478  totalUsdc */\n      0x01\n      0x00\n        /* \"src/KipuBankV4.sol\":11469:11494  totalUsdc += usdcReceived */\n      dup3\n      dup3\n      sload\n      tag_166\n      swap2\n      swap1\n      tag_134\n      jump\t// in\n    tag_166:\n      swap3\n      pop\n      pop\n      dup2\n      swap1\n      sstore\n      pop\n        /* \"src/KipuBankV4.sol\":11533:11545  usdcReceived */\n      dup1\n        /* \"src/KipuBankV4.sol\":11505:11517  usdcBalances */\n      0x03\n        /* \"src/KipuBankV4.sol\":11505:11529  usdcBalances[msg.sender] */\n      0x00\n        /* \"src/KipuBankV4.sol\":11518:11528  msg.sender */\n      caller\n        /* \"src/KipuBankV4.sol\":11505:11529  usdcBalances[msg.sender] */\n      0xffffffffffffffffffffffffffffffffffffffff\n      and\n      0xffffffffffffffffffffffffffffffffffffffff\n      and\n      dup2\n      mstore\n      0x20\n      add\n      swap1\n      dup2\n      mstore\n      0x20\n      add\n      0x00\n      keccak256\n      0x00\n        /* \"src/KipuBankV4.sol\":11505:11545  usdcBalances[msg.sender] += usdcReceived */\n      dup3\n      dup3\n      sload\n      tag_167\n      swap2\n      swap1\n      tag_134\n      jump\t// in\n    tag_167:\n      swap3\n      pop\n      pop\n      dup2\n      swap1\n      sstore\n      pop\n        /* \"src/KipuBankV4.sol\":11592:11597  token */\n      dup10\n        /* \"src/KipuBankV4.sol\":11563:11622  DepositConverted(msg.sender, token, amountIn, usdcReceived) */\n      0xffffffffffffffffffffffffffffffffffffffff\n      and\n        /* \"src/KipuBankV4.sol\":11580:11590  msg.sender */\n      caller\n        /* \"src/KipuBankV4.sol\":11563:11622  DepositConverted(msg.sender, token, amountIn, usdcReceived) */\n      0xffffffffffffffffffffffffffffffffffffffff\n      and\n      0xab466672cd9adae1c2072831f94c1068597b355987d2a64d4e5a7dcd74e5cda5\n        /* \"src/KipuBankV4.sol\":11599:11607  amountIn */\n      dup12\n        /* \"src/KipuBankV4.sol\":11609:11621  usdcReceived */\n      dup5\n        /* \"src/KipuBankV4.sol\":11563:11622  DepositConverted(msg.sender, token, amountIn, usdcReceived) */\n      mload(0x40)\n      tag_168\n      swap3\n      swap2\n      swap1\n      tag_169\n      jump\t// in\n    tag_168:\n      mload(0x40)\n      dup1\n      swap2\n      sub\n      swap1\n      log3\n        /* \"src/KipuBankV4.sol\":9912:11630  {... */\n      pop\n      pop\n      pop\n      pop\n      pop\n      pop\n      pop\n        /* \"src/KipuBankV4.sol\":3286:3291  false */\n      0x00\n        /* \"src/KipuBankV4.sol\":3277:3283  locked */\n      0x02\n      0x00\n        /* \"src/KipuBankV4.sol\":3277:3291  locked = false */\n      0x0100\n      exp\n      dup2\n      sload\n      dup2\n      0xff\n      mul\n      not\n      and\n      swap1\n      dup4\n      iszero\n      iszero\n      mul\n      or\n      swap1\n      sstore\n      pop\n        /* \"src/KipuBankV4.sol\":9771:11630  function depositTokenSwapToUSDC(... */\n      pop\n      pop\n      pop\n      jump\t// out\n        /* \"src/KipuBankV4.sol\":3580:3633  mapping(address => uint256) public lastWithdrawalTime */\n    tag_52:\n      mstore(0x20, 0x05)\n      dup1\n      0x00\n      mstore\n      keccak256(0x00, 0x40)\n      0x00\n      swap2\n      pop\n      swap1\n      pop\n      sload\n      dup2\n      jump\t// out\n        /* \"src/KipuBankV4.sol\":7678:9298  function depositETHSwapToUSDC(uint256 minUsdcOut) external payable nonReentrant {... */\n    tag_57:\n        /* \"src/KipuBankV4.sol\":3204:3210  locked */\n      0x02\n      0x00\n      swap1\n      sload\n      swap1\n      0x0100\n      exp\n      swap1\n      div\n      0xff\n      and\n        /* \"src/KipuBankV4.sol\":3200:3230  if (locked) revert Reentrant() */\n      iszero\n      tag_171\n      jumpi\n        /* \"src/KipuBankV4.sol\":3219:3230  Reentrant() */\n      mload(0x40)\n      0xed3ba6a600000000000000000000000000000000000000000000000000000000\n      dup2\n      mstore\n      0x04\n      add\n      mload(0x40)\n      dup1\n      swap2\n      sub\n      swap1\n      revert\n        /* \"src/KipuBankV4.sol\":3200:3230  if (locked) revert Reentrant() */\n    tag_171:\n        /* \"src/KipuBankV4.sol\":3250:3254  true */\n      0x01\n        /* \"src/KipuBankV4.sol\":3241:3247  locked */\n      0x02\n      0x00\n        /* \"src/KipuBankV4.sol\":3241:3254  locked = true */\n      0x0100\n      exp\n      dup2\n      sload\n      dup2\n      0xff\n      mul\n      not\n      and\n      swap1\n      dup4\n      iszero\n      iszero\n      mul\n      or\n      swap1\n      sstore\n      pop\n        /* \"src/KipuBankV4.sol\":7786:7787  0 */\n      0x00\n        /* \"src/KipuBankV4.sol\":7773:7782  msg.value */\n      callvalue\n        /* \"src/KipuBankV4.sol\":7773:7787  msg.value == 0 */\n      sub\n        /* \"src/KipuBankV4.sol\":7769:7808  if (msg.value == 0) revert ZeroAmount() */\n      tag_173\n      jumpi\n        /* \"src/KipuBankV4.sol\":7796:7808  ZeroAmount() */\n      mload(0x40)\n      0x1f2a200500000000000000000000000000000000000000000000000000000000\n      dup2\n      mstore\n      0x04\n      add\n      mload(0x40)\n      dup1\n      swap2\n      sub\n      swap1\n      revert\n        /* \"src/KipuBankV4.sol\":7769:7808  if (msg.value == 0) revert ZeroAmount() */\n    tag_173:\n        /* \"src/KipuBankV4.sol\":7913:7944  address[] memory estimationPath */\n      0x00\n        /* \"src/KipuBankV4.sol\":7961:7962  2 */\n      0x02\n        /* \"src/KipuBankV4.sol\":7947:7963  new address[](2) */\n      0xffffffffffffffff\n      dup2\n      gt\n      iszero\n      tag_174\n      jumpi\n      tag_175\n      tag_124\n      jump\t// in\n    tag_175:\n    tag_174:\n      mload(0x40)\n      swap1\n      dup1\n      dup3\n      mstore\n      dup1\n      0x20\n      mul\n      0x20\n      add\n      dup3\n      add\n      0x40\n      mstore\n      dup1\n      iszero\n      tag_176\n      jumpi\n      dup2\n      0x20\n      add\n      0x20\n      dup3\n      mul\n      dup1\n      calldatasize\n      dup4\n      calldatacopy\n      dup1\n      dup3\n      add\n      swap2\n      pop\n      pop\n      swap1\n      pop\n    tag_176:\n      pop\n        /* \"src/KipuBankV4.sol\":7913:7963  address[] memory estimationPath = new address[](2) */\n      swap1\n      pop\n        /* \"src/KipuBankV4.sol\":7994:7998  WETH */\n      immutable(\"0x9960ed3041b9945289da338fa273462c820f58427408d57789c0e1400ad5c9bb\")\n        /* \"src/KipuBankV4.sol\":7974:7988  estimationPath */\n      dup2\n        /* \"src/KipuBankV4.sol\":7989:7990  0 */\n      0x00\n        /* \"src/KipuBankV4.sol\":7974:7991  estimationPath[0] */\n      dup2\n      mload\n      dup2\n      lt\n      tag_177\n      jumpi\n      tag_178\n      tag_128\n      jump\t// in\n    tag_178:\n    tag_177:\n      0x20\n      mul\n      0x20\n      add\n      add\n        /* \"src/KipuBankV4.sol\":7974:7998  estimationPath[0] = WETH */\n      swap1\n      0xffffffffffffffffffffffffffffffffffffffff\n      and\n      swap1\n      dup2\n      0xffffffffffffffffffffffffffffffffffffffff\n      and\n      dup2\n      mstore\n      pop\n      pop\n        /* \"src/KipuBankV4.sol\":8029:8033  USDC */\n      immutable(\"0x24036ccf201a67256250eabe66d3f9fd72f9c4d022f225a8ee964be060dcb993\")\n        /* \"src/KipuBankV4.sol\":8009:8023  estimationPath */\n      dup2\n        /* \"src/KipuBankV4.sol\":8024:8025  1 */\n      0x01\n        /* \"src/KipuBankV4.sol\":8009:8026  estimationPath[1] */\n      dup2\n      mload\n      dup2\n      lt\n      tag_179\n      jumpi\n      tag_180\n      tag_128\n      jump\t// in\n    tag_180:\n    tag_179:\n      0x20\n      mul\n      0x20\n      add\n      add\n        /* \"src/KipuBankV4.sol\":8009:8033  estimationPath[1] = USDC */\n      swap1\n      0xffffffffffffffffffffffffffffffffffffffff\n      and\n      swap1\n      dup2\n      0xffffffffffffffffffffffffffffffffffffffff\n      and\n      dup2\n      mstore\n      pop\n      pop\n        /* \"src/KipuBankV4.sol\":8054:8075  uint256 estimatedUsdc */\n      0x00\n        /* \"src/KipuBankV4.sol\":8078:8124  _estimateSwapOutput(estimationPath, msg.value) */\n      tag_181\n        /* \"src/KipuBankV4.sol\":8098:8112  estimationPath */\n      dup3\n        /* \"src/KipuBankV4.sol\":8114:8123  msg.value */\n      callvalue\n        /* \"src/KipuBankV4.sol\":8078:8097  _estimateSwapOutput */\n      tag_132\n        /* \"src/KipuBankV4.sol\":8078:8124  _estimateSwapOutput(estimationPath, msg.value) */\n      jump\t// in\n    tag_181:\n        /* \"src/KipuBankV4.sol\":8054:8124  uint256 estimatedUsdc = _estimateSwapOutput(estimationPath, msg.value) */\n      swap1\n      pop\n        /* \"src/KipuBankV4.sol\":8237:8247  bankCapUsd */\n      immutable(\"0x890f693d9ea1b595bb4a33efee4a21d60a63ffd2ec40c37883b92f82fc5da52b\")\n        /* \"src/KipuBankV4.sol\":8221:8234  estimatedUsdc */\n      dup2\n        /* \"src/KipuBankV4.sol\":8209:8218  totalUsdc */\n      sload(0x01)\n        /* \"src/KipuBankV4.sol\":8209:8234  totalUsdc + estimatedUsdc */\n      tag_182\n      swap2\n      swap1\n      tag_134\n      jump\t// in\n    tag_182:\n        /* \"src/KipuBankV4.sol\":8209:8247  totalUsdc + estimatedUsdc > bankCapUsd */\n      gt\n        /* \"src/KipuBankV4.sol\":8205:8336  if (totalUsdc + estimatedUsdc > bankCapUsd) {... */\n      iszero\n      tag_183\n      jumpi\n        /* \"src/KipuBankV4.sol\":8287:8300  estimatedUsdc */\n      dup1\n        /* \"src/KipuBankV4.sol\":8302:8311  totalUsdc */\n      sload(0x01)\n        /* \"src/KipuBankV4.sol\":8313:8323  bankCapUsd */\n      immutable(\"0x890f693d9ea1b595bb4a33efee4a21d60a63ffd2ec40c37883b92f82fc5da52b\")\n        /* \"src/KipuBankV4.sol\":8271:8324  BankCapExceeded(estimatedUsdc, totalUsdc, bankCapUsd) */\n      mload(0x40)\n      0x621e5a6900000000000000000000000000000000000000000000000000000000\n      dup2\n      mstore\n      0x04\n      add\n      tag_184\n      swap4\n      swap3\n      swap2\n      swap1\n      tag_137\n      jump\t// in\n    tag_184:\n      mload(0x40)\n      dup1\n      swap2\n      sub\n      swap1\n      revert\n        /* \"src/KipuBankV4.sol\":8205:8336  if (totalUsdc + estimatedUsdc > bankCapUsd) {... */\n    tag_183:\n        /* \"src/KipuBankV4.sol\":8383:8387  WETH */\n      immutable(\"0x9960ed3041b9945289da338fa273462c820f58427408d57789c0e1400ad5c9bb\")\n        /* \"src/KipuBankV4.sol\":8377:8396  IWETH(WETH).deposit */\n      0xffffffffffffffffffffffffffffffffffffffff\n      and\n      0xd0e30db0\n        /* \"src/KipuBankV4.sol\":8404:8413  msg.value */\n      callvalue\n        /* \"src/KipuBankV4.sol\":8377:8416  IWETH(WETH).deposit{value: msg.value}() */\n      mload(0x40)\n      dup3\n      0xffffffff\n      and\n      0xe0\n      shl\n      dup2\n      mstore\n      0x04\n      add\n      0x00\n      mload(0x40)\n      dup1\n      dup4\n      sub\n      dup2\n      dup6\n      dup9\n      dup1\n      extcodesize\n      iszero\n      dup1\n      iszero\n      tag_185\n      jumpi\n      revert(0x00, 0x00)\n    tag_185:\n      pop\n      gas\n      call\n      iszero\n      dup1\n      iszero\n      tag_187\n      jumpi\n      returndatacopy(0x00, 0x00, returndatasize)\n      revert(0x00, returndatasize)\n    tag_187:\n      pop\n      pop\n      pop\n      pop\n      pop\n        /* \"src/KipuBankV4.sol\":8456:8502  _safeApprove(WETH, address(router), msg.value) */\n      tag_188\n        /* \"src/KipuBankV4.sol\":8469:8473  WETH */\n      immutable(\"0x9960ed3041b9945289da338fa273462c820f58427408d57789c0e1400ad5c9bb\")\n        /* \"src/KipuBankV4.sol\":8483:8489  router */\n      immutable(\"0xe7fcf89c34605f23590ff58513f1080dc375dd06cc5e256320151057827a258a\")\n        /* \"src/KipuBankV4.sol\":8492:8501  msg.value */\n      callvalue\n        /* \"src/KipuBankV4.sol\":8456:8468  _safeApprove */\n      tag_146\n        /* \"src/KipuBankV4.sol\":8456:8502  _safeApprove(WETH, address(router), msg.value) */\n      jump\t// in\n    tag_188:\n        /* \"src/KipuBankV4.sol\":8600:8625  address[] memory swapPath */\n      0x00\n        /* \"src/KipuBankV4.sol\":8642:8643  2 */\n      0x02\n        /* \"src/KipuBankV4.sol\":8628:8644  new address[](2) */\n      0xffffffffffffffff\n      dup2\n      gt\n      iszero\n      tag_189\n      jumpi\n      tag_190\n      tag_124\n      jump\t// in\n    tag_190:\n    tag_189:\n      mload(0x40)\n      swap1\n      dup1\n      dup3\n      mstore\n      dup1\n      0x20\n      mul\n      0x20\n      add\n      dup3\n      add\n      0x40\n      mstore\n      dup1\n      iszero\n      tag_191\n      jumpi\n      dup2\n      0x20\n      add\n      0x20\n      dup3\n      mul\n      dup1\n      calldatasize\n      dup4\n      calldatacopy\n      dup1\n      dup3\n      add\n      swap2\n      pop\n      pop\n      swap1\n      pop\n    tag_191:\n      pop\n        /* \"src/KipuBankV4.sol\":8600:8644  address[] memory swapPath = new address[](2) */\n      swap1\n      pop\n        /* \"src/KipuBankV4.sol\":8669:8673  WETH */\n      immutable(\"0x9960ed3041b9945289da338fa273462c820f58427408d57789c0e1400ad5c9bb\")\n        /* \"src/KipuBankV4.sol\":8655:8663  swapPath */\n      dup2\n        /* \"src/KipuBankV4.sol\":8664:8665  0 */\n      0x00\n        /* \"src/KipuBankV4.sol\":8655:8666  swapPath[0] */\n      dup2\n      mload\n      dup2\n      lt\n      tag_192\n      jumpi\n      tag_193\n      tag_128\n      jump\t// in\n    tag_193:\n    tag_192:\n      0x20\n      mul\n      0x20\n      add\n      add\n        /* \"src/KipuBankV4.sol\":8655:8673  swapPath[0] = WETH */\n      swap1\n      0xffffffffffffffffffffffffffffffffffffffff\n      and\n      swap1\n      dup2\n      0xffffffffffffffffffffffffffffffffffffffff\n      and\n      dup2\n      mstore\n      pop\n      pop\n        /* \"src/KipuBankV4.sol\":8698:8702  USDC */\n      immutable(\"0x24036ccf201a67256250eabe66d3f9fd72f9c4d022f225a8ee964be060dcb993\")\n        /* \"src/KipuBankV4.sol\":8684:8692  swapPath */\n      dup2\n        /* \"src/KipuBankV4.sol\":8693:8694  1 */\n      0x01\n        /* \"src/KipuBankV4.sol\":8684:8695  swapPath[1] */\n      dup2\n      mload\n      dup2\n      lt\n      tag_194\n      jumpi\n      tag_195\n      tag_128\n      jump\t// in\n    tag_195:\n    tag_194:\n      0x20\n      mul\n      0x20\n      add\n      add\n        /* \"src/KipuBankV4.sol\":8684:8702  swapPath[1] = USDC */\n      swap1\n      0xffffffffffffffffffffffffffffffffffffffff\n      and\n      swap1\n      dup2\n      0xffffffffffffffffffffffffffffffffffffffff\n      and\n      dup2\n      mstore\n      pop\n      pop\n        /* \"src/KipuBankV4.sol\":8741:8754  uint deadline */\n      0x00\n        /* \"src/KipuBankV4.sol\":8775:8778  300 */\n      0x012c\n        /* \"src/KipuBankV4.sol\":8757:8772  block.timestamp */\n      timestamp\n        /* \"src/KipuBankV4.sol\":8757:8778  block.timestamp + 300 */\n      tag_196\n      swap2\n      swap1\n      tag_134\n      jump\t// in\n    tag_196:\n        /* \"src/KipuBankV4.sol\":8741:8778  uint deadline = block.timestamp + 300 */\n      swap1\n      pop\n        /* \"src/KipuBankV4.sol\":8789:8810  uint[] memory amounts */\n      0x00\n        /* \"src/KipuBankV4.sol\":8813:8819  router */\n      immutable(\"0xe7fcf89c34605f23590ff58513f1080dc375dd06cc5e256320151057827a258a\")\n        /* \"src/KipuBankV4.sol\":8813:8844  router.swapExactTokensForTokens */\n      0xffffffffffffffffffffffffffffffffffffffff\n      and\n      0x38ed1739\n        /* \"src/KipuBankV4.sol\":8859:8868  msg.value */\n      callvalue\n        /* \"src/KipuBankV4.sol\":8883:8893  minUsdcOut */\n      dup9\n        /* \"src/KipuBankV4.sol\":8908:8916  swapPath */\n      dup7\n        /* \"src/KipuBankV4.sol\":8939:8943  this */\n      address\n        /* \"src/KipuBankV4.sol\":8959:8967  deadline */\n      dup8\n        /* \"src/KipuBankV4.sol\":8813:8978  router.swapExactTokensForTokens(... */\n      mload(0x40)\n      dup7\n      0xffffffff\n      and\n      0xe0\n      shl\n      dup2\n      mstore\n      0x04\n      add\n      tag_197\n      swap6\n      swap5\n      swap4\n      swap3\n      swap2\n      swap1\n      tag_156\n      jump\t// in\n    tag_197:\n      0x00\n      mload(0x40)\n      dup1\n      dup4\n      sub\n      dup2\n      0x00\n      dup8\n      gas\n      call\n      iszero\n      dup1\n      iszero\n      tag_199\n      jumpi\n      returndatacopy(0x00, 0x00, returndatasize)\n      revert(0x00, returndatasize)\n    tag_199:\n      pop\n      pop\n      pop\n      pop\n      mload(0x40)\n      returndatasize\n      0x00\n      dup3\n      returndatacopy\n      returndatasize\n      not(0x1f)\n      0x1f\n      dup3\n      add\n      and\n      dup3\n      add\n      dup1\n      0x40\n      mstore\n      pop\n      dup2\n      add\n      swap1\n      tag_200\n      swap2\n      swap1\n      tag_160\n      jump\t// in\n    tag_200:\n        /* \"src/KipuBankV4.sol\":8789:8978  uint[] memory amounts = router.swapExactTokensForTokens(... */\n      swap1\n      pop\n        /* \"src/KipuBankV4.sol\":9010:9011  2 */\n      0x02\n        /* \"src/KipuBankV4.sol\":8993:9000  amounts */\n      dup2\n        /* \"src/KipuBankV4.sol\":8993:9007  amounts.length */\n      mload\n        /* \"src/KipuBankV4.sol\":8993:9011  amounts.length < 2 */\n      lt\n        /* \"src/KipuBankV4.sol\":8989:9032  if (amounts.length < 2) revert SwapFailed() */\n      iszero\n      tag_201\n      jumpi\n        /* \"src/KipuBankV4.sol\":9020:9032  SwapFailed() */\n      mload(0x40)\n      0x81ceff3000000000000000000000000000000000000000000000000000000000\n      dup2\n      mstore\n      0x04\n      add\n      mload(0x40)\n      dup1\n      swap2\n      sub\n      swap1\n      revert\n        /* \"src/KipuBankV4.sol\":8989:9032  if (amounts.length < 2) revert SwapFailed() */\n    tag_201:\n        /* \"src/KipuBankV4.sol\":9045:9062  uint usdcReceived */\n      0x00\n        /* \"src/KipuBankV4.sol\":9065:9072  amounts */\n      dup2\n        /* \"src/KipuBankV4.sol\":9090:9091  1 */\n      0x01\n        /* \"src/KipuBankV4.sol\":9073:9080  amounts */\n      dup4\n        /* \"src/KipuBankV4.sol\":9073:9087  amounts.length */\n      mload\n        /* \"src/KipuBankV4.sol\":9073:9091  amounts.length - 1 */\n      tag_202\n      swap2\n      swap1\n      tag_163\n      jump\t// in\n    tag_202:\n        /* \"src/KipuBankV4.sol\":9065:9092  amounts[amounts.length - 1] */\n      dup2\n      mload\n      dup2\n      lt\n      tag_203\n      jumpi\n      tag_204\n      tag_128\n      jump\t// in\n    tag_204:\n    tag_203:\n      0x20\n      mul\n      0x20\n      add\n      add\n      mload\n        /* \"src/KipuBankV4.sol\":9045:9092  uint usdcReceived = amounts[amounts.length - 1] */\n      swap1\n      pop\n        /* \"src/KipuBankV4.sol\":9150:9162  usdcReceived */\n      dup1\n        /* \"src/KipuBankV4.sol\":9137:9146  totalUsdc */\n      0x01\n      0x00\n        /* \"src/KipuBankV4.sol\":9137:9162  totalUsdc += usdcReceived */\n      dup3\n      dup3\n      sload\n      tag_205\n      swap2\n      swap1\n      tag_134\n      jump\t// in\n    tag_205:\n      swap3\n      pop\n      pop\n      dup2\n      swap1\n      sstore\n      pop\n        /* \"src/KipuBankV4.sol\":9201:9213  usdcReceived */\n      dup1\n        /* \"src/KipuBankV4.sol\":9173:9185  usdcBalances */\n      0x03\n        /* \"src/KipuBankV4.sol\":9173:9197  usdcBalances[msg.sender] */\n      0x00\n        /* \"src/KipuBankV4.sol\":9186:9196  msg.sender */\n      caller\n        /* \"src/KipuBankV4.sol\":9173:9197  usdcBalances[msg.sender] */\n      0xffffffffffffffffffffffffffffffffffffffff\n      and\n      0xffffffffffffffffffffffffffffffffffffffff\n      and\n      dup2\n      mstore\n      0x20\n      add\n      swap1\n      dup2\n      mstore\n      0x20\n      add\n      0x00\n      keccak256\n      0x00\n        /* \"src/KipuBankV4.sol\":9173:9213  usdcBalances[msg.sender] += usdcReceived */\n      dup3\n      dup3\n      sload\n      tag_206\n      swap2\n      swap1\n      tag_134\n      jump\t// in\n    tag_206:\n      swap3\n      pop\n      pop\n      dup2\n      swap1\n      sstore\n      pop\n        /* \"src/KipuBankV4.sol\":9260:9264  WETH */\n      immutable(\"0x9960ed3041b9945289da338fa273462c820f58427408d57789c0e1400ad5c9bb\")\n        /* \"src/KipuBankV4.sol\":9231:9290  DepositConverted(msg.sender, WETH, msg.value, usdcReceived) */\n      0xffffffffffffffffffffffffffffffffffffffff\n      and\n        /* \"src/KipuBankV4.sol\":9248:9258  msg.sender */\n      caller\n        /* \"src/KipuBankV4.sol\":9231:9290  DepositConverted(msg.sender, WETH, msg.value, usdcReceived) */\n      0xffffffffffffffffffffffffffffffffffffffff\n      and\n      0xab466672cd9adae1c2072831f94c1068597b355987d2a64d4e5a7dcd74e5cda5\n        /* \"src/KipuBankV4.sol\":9266:9275  msg.value */\n      callvalue\n        /* \"src/KipuBankV4.sol\":9277:9289  usdcReceived */\n      dup5\n        /* \"src/KipuBankV4.sol\":9231:9290  DepositConverted(msg.sender, WETH, msg.value, usdcReceived) */\n      mload(0x40)\n      tag_207\n      swap3\n      swap2\n      swap1\n      tag_169\n      jump\t// in\n    tag_207:\n      mload(0x40)\n      dup1\n      swap2\n      sub\n      swap1\n      log3\n        /* \"src/KipuBankV4.sol\":7758:9298  {... */\n      pop\n      pop\n      pop\n      pop\n      pop\n      pop\n        /* \"src/KipuBankV4.sol\":3286:3291  false */\n      0x00\n        /* \"src/KipuBankV4.sol\":3277:3283  locked */\n      0x02\n      0x00\n        /* \"src/KipuBankV4.sol\":3277:3291  locked = false */\n      0x0100\n      exp\n      dup2\n      sload\n      dup2\n      0xff\n      mul\n      not\n      and\n      swap1\n      dup4\n      iszero\n      iszero\n      mul\n      or\n      swap1\n      sstore\n      pop\n        /* \"src/KipuBankV4.sol\":7678:9298  function depositETHSwapToUSDC(uint256 minUsdcOut) external payable nonReentrant {... */\n      pop\n      jump\t// out\n        /* \"src/KipuBankV4.sol\":2365:2394  address public immutable USDC */\n    tag_60:\n      immutable(\"0x24036ccf201a67256250eabe66d3f9fd72f9c4d022f225a8ee964be060dcb993\")\n      dup2\n      jump\t// out\n        /* \"src/KipuBankV4.sol\":2595:2615  address public owner */\n    tag_65:\n      0x00\n      0x00\n      swap1\n      sload\n      swap1\n      0x0100\n      exp\n      swap1\n      div\n      0xffffffffffffffffffffffffffffffffffffffff\n      and\n      dup2\n      jump\t// out\n        /* \"src/KipuBankV4.sol\":5737:6076  function emergencyWithdraw(address token, uint256 amount) external {... */\n    tag_71:\n        /* \"src/KipuBankV4.sol\":5833:5838  owner */\n      0x00\n      0x00\n      swap1\n      sload\n      swap1\n      0x0100\n      exp\n      swap1\n      div\n      0xffffffffffffffffffffffffffffffffffffffff\n      and\n        /* \"src/KipuBankV4.sol\":5819:5838  msg.sender != owner */\n      0xffffffffffffffffffffffffffffffffffffffff\n      and\n        /* \"src/KipuBankV4.sol\":5819:5829  msg.sender */\n      caller\n        /* \"src/KipuBankV4.sol\":5819:5838  msg.sender != owner */\n      0xffffffffffffffffffffffffffffffffffffffff\n      and\n      eq\n        /* \"src/KipuBankV4.sol\":5815:5857  if (msg.sender != owner) revert NotOwner() */\n      tag_209\n      jumpi\n        /* \"src/KipuBankV4.sol\":5847:5857  NotOwner() */\n      mload(0x40)\n      0x30cd747100000000000000000000000000000000000000000000000000000000\n      dup2\n      mstore\n      0x04\n      add\n      mload(0x40)\n      dup1\n      swap2\n      sub\n      swap1\n      revert\n        /* \"src/KipuBankV4.sol\":5815:5857  if (msg.sender != owner) revert NotOwner() */\n    tag_209:\n        /* \"src/KipuBankV4.sol\":5889:5890  0 */\n      0x00\n        /* \"src/KipuBankV4.sol\":5872:5891  token == address(0) */\n      0xffffffffffffffffffffffffffffffffffffffff\n      and\n        /* \"src/KipuBankV4.sol\":5872:5877  token */\n      dup3\n        /* \"src/KipuBankV4.sol\":5872:5891  token == address(0) */\n      0xffffffffffffffffffffffffffffffffffffffff\n      and\n      sub\n        /* \"src/KipuBankV4.sol\":5868:6021  if (token == address(0)) {... */\n      tag_210\n      jumpi\n        /* \"src/KipuBankV4.sol\":5916:5921  owner */\n      0x00\n      0x00\n      swap1\n      sload\n      swap1\n      0x0100\n      exp\n      swap1\n      div\n      0xffffffffffffffffffffffffffffffffffffffff\n      and\n        /* \"src/KipuBankV4.sol\":5908:5931  payable(owner).transfer */\n      0xffffffffffffffffffffffffffffffffffffffff\n      and\n        /* \"src/KipuBankV4.sol\":5908:5939  payable(owner).transfer(amount) */\n      0x08fc\n        /* \"src/KipuBankV4.sol\":5932:5938  amount */\n      dup3\n        /* \"src/KipuBankV4.sol\":5908:5939  payable(owner).transfer(amount) */\n      swap1\n      dup2\n      iszero\n      mul\n      swap1\n      mload(0x40)\n      0x00\n      mload(0x40)\n      dup1\n      dup4\n      sub\n      dup2\n      dup6\n      dup9\n      dup9\n      call\n      swap4\n      pop\n      pop\n      pop\n      pop\n      iszero\n      dup1\n      iszero\n      tag_212\n      jumpi\n      returndatacopy(0x00, 0x00, returndatasize)\n      revert(0x00, returndatasize)\n    tag_212:\n      pop\n        /* \"src/KipuBankV4.sol\":5868:6021  if (token == address(0)) {... */\n      jump(tag_213)\n    tag_210:\n        /* \"src/KipuBankV4.sol\":5979:5984  token */\n      dup2\n        /* \"src/KipuBankV4.sol\":5972:5994  IERC20(token).transfer */\n      0xffffffffffffffffffffffffffffffffffffffff\n      and\n      0xa9059cbb\n        /* \"src/KipuBankV4.sol\":5995:6000  owner */\n      0x00\n      0x00\n      swap1\n      sload\n      swap1\n      0x0100\n      exp\n      swap1\n      div\n      0xffffffffffffffffffffffffffffffffffffffff\n      and\n        /* \"src/KipuBankV4.sol\":6002:6008  amount */\n      dup4\n        /* \"src/KipuBankV4.sol\":5972:6009  IERC20(token).transfer(owner, amount) */\n      mload(0x40)\n      dup4\n      0xffffffff\n      and\n      0xe0\n      shl\n      dup2\n      mstore\n      0x04\n      add\n      tag_214\n      swap3\n      swap2\n      swap1\n      tag_215\n      jump\t// in\n    tag_214:\n      0x20\n      mload(0x40)\n      dup1\n      dup4\n      sub\n      dup2\n      0x00\n      dup8\n      gas\n      call\n      iszero\n      dup1\n      iszero\n      tag_217\n      jumpi\n      returndatacopy(0x00, 0x00, returndatasize)\n      revert(0x00, returndatasize)\n    tag_217:\n      pop\n      pop\n      pop\n      pop\n      mload(0x40)\n      returndatasize\n      not(0x1f)\n      0x1f\n      dup3\n      add\n      and\n      dup3\n      add\n      dup1\n      0x40\n      mstore\n      pop\n      dup2\n      add\n      swap1\n      tag_218\n      swap2\n      swap1\n      tag_143\n      jump\t// in\n    tag_218:\n      pop\n        /* \"src/KipuBankV4.sol\":5868:6021  if (token == address(0)) {... */\n    tag_213:\n        /* \"src/KipuBankV4.sol\":6054:6059  token */\n      dup2\n        /* \"src/KipuBankV4.sol\":6036:6068  EmergencyWithdraw(token, amount) */\n      0xffffffffffffffffffffffffffffffffffffffff\n      and\n      0x5fafa99d0643513820be26656b45130b01e1c03062e1266bf36f88cbd3bd9695\n        /* \"src/KipuBankV4.sol\":6061:6067  amount */\n      dup3\n        /* \"src/KipuBankV4.sol\":6036:6068  EmergencyWithdraw(token, amount) */\n      mload(0x40)\n      tag_219\n      swap2\n      swap1\n      tag_34\n      jump\t// in\n    tag_219:\n      mload(0x40)\n      dup1\n      swap2\n      sub\n      swap1\n      log2\n        /* \"src/KipuBankV4.sol\":5737:6076  function emergencyWithdraw(address token, uint256 amount) external {... */\n      pop\n      pop\n      jump\t// out\n        /* \"src/KipuBankV4.sol\":6316:6423  function remainingCapacity() public view returns (uint256) {... */\n    tag_74:\n        /* \"src/KipuBankV4.sol\":6366:6373  uint256 */\n      0x00\n        /* \"src/KipuBankV4.sol\":6406:6415  totalUsdc */\n      sload(0x01)\n        /* \"src/KipuBankV4.sol\":6393:6403  bankCapUsd */\n      immutable(\"0x890f693d9ea1b595bb4a33efee4a21d60a63ffd2ec40c37883b92f82fc5da52b\")\n        /* \"src/KipuBankV4.sol\":6393:6415  bankCapUsd - totalUsdc */\n      tag_221\n      swap2\n      swap1\n      tag_163\n      jump\t// in\n    tag_221:\n        /* \"src/KipuBankV4.sol\":6386:6415  return bankCapUsd - totalUsdc */\n      swap1\n      pop\n        /* \"src/KipuBankV4.sol\":6316:6423  function remainingCapacity() public view returns (uint256) {... */\n      swap1\n      jump\t// out\n        /* \"src/KipuBankV4.sol\":2803:2838  uint256 public immutable bankCapUsd */\n    tag_78:\n      immutable(\"0x890f693d9ea1b595bb4a33efee4a21d60a63ffd2ec40c37883b92f82fc5da52b\")\n      dup2\n      jump\t// out\n        /* \"src/KipuBankV4.sol\":2528:2557  address public immutable WETH */\n    tag_82:\n      immutable(\"0x9960ed3041b9945289da338fa273462c820f58427408d57789c0e1400ad5c9bb\")\n      dup2\n      jump\t// out\n        /* \"src/KipuBankV4.sol\":3488:3538  mapping(address => uint256) public withdrawalCount */\n    tag_87:\n      mstore(0x20, 0x04)\n      dup1\n      0x00\n      mstore\n      keccak256(0x00, 0x40)\n      0x00\n      swap2\n      pop\n      swap1\n      pop\n      sload\n      dup2\n      jump\t// out\n        /* \"src/KipuBankV4.sol\":6132:6245  function usdcBalanceOf(address user) external view returns (uint256) {... */\n    tag_92:\n        /* \"src/KipuBankV4.sol\":6192:6199  uint256 */\n      0x00\n        /* \"src/KipuBankV4.sol\":6219:6231  usdcBalances */\n      0x03\n        /* \"src/KipuBankV4.sol\":6219:6237  usdcBalances[user] */\n      0x00\n        /* \"src/KipuBankV4.sol\":6232:6236  user */\n      dup4\n        /* \"src/KipuBankV4.sol\":6219:6237  usdcBalances[user] */\n      0xffffffffffffffffffffffffffffffffffffffff\n      and\n      0xffffffffffffffffffffffffffffffffffffffff\n      and\n      dup2\n      mstore\n      0x20\n      add\n      swap1\n      dup2\n      mstore\n      0x20\n      add\n      0x00\n      keccak256\n      sload\n        /* \"src/KipuBankV4.sol\":6212:6237  return usdcBalances[user] */\n      swap1\n      pop\n        /* \"src/KipuBankV4.sol\":6132:6245  function usdcBalanceOf(address user) external view returns (uint256) {... */\n      swap2\n      swap1\n      pop\n      jump\t// out\n        /* \"src/KipuBankV4.sol\":11893:13127  function withdrawUSDC(uint256 amountUsdc) external nonReentrant {... */\n    tag_97:\n        /* \"src/KipuBankV4.sol\":3204:3210  locked */\n      0x02\n      0x00\n      swap1\n      sload\n      swap1\n      0x0100\n      exp\n      swap1\n      div\n      0xff\n      and\n        /* \"src/KipuBankV4.sol\":3200:3230  if (locked) revert Reentrant() */\n      iszero\n      tag_224\n      jumpi\n        /* \"src/KipuBankV4.sol\":3219:3230  Reentrant() */\n      mload(0x40)\n      0xed3ba6a600000000000000000000000000000000000000000000000000000000\n      dup2\n      mstore\n      0x04\n      add\n      mload(0x40)\n      dup1\n      swap2\n      sub\n      swap1\n      revert\n        /* \"src/KipuBankV4.sol\":3200:3230  if (locked) revert Reentrant() */\n    tag_224:\n        /* \"src/KipuBankV4.sol\":3250:3254  true */\n      0x01\n        /* \"src/KipuBankV4.sol\":3241:3247  locked */\n      0x02\n      0x00\n        /* \"src/KipuBankV4.sol\":3241:3254  locked = true */\n      0x0100\n      exp\n      dup2\n      sload\n      dup2\n      0xff\n      mul\n      not\n      and\n      swap1\n      dup4\n      iszero\n      iszero\n      mul\n      or\n      swap1\n      sstore\n      pop\n        /* \"src/KipuBankV4.sol\":11986:11987  0 */\n      0x00\n        /* \"src/KipuBankV4.sol\":11972:11982  amountUsdc */\n      dup2\n        /* \"src/KipuBankV4.sol\":11972:11987  amountUsdc == 0 */\n      sub\n        /* \"src/KipuBankV4.sol\":11968:12008  if (amountUsdc == 0) revert ZeroAmount() */\n      tag_226\n      jumpi\n        /* \"src/KipuBankV4.sol\":11996:12008  ZeroAmount() */\n      mload(0x40)\n      0x1f2a200500000000000000000000000000000000000000000000000000000000\n      dup2\n      mstore\n      0x04\n      add\n      mload(0x40)\n      dup1\n      swap2\n      sub\n      swap1\n      revert\n        /* \"src/KipuBankV4.sol\":11968:12008  if (amountUsdc == 0) revert ZeroAmount() */\n    tag_226:\n        /* \"src/KipuBankV4.sol\":2958:2971  50000 * 10**6 */\n      0x0ba43b7400\n        /* \"src/KipuBankV4.sol\":12096:12106  amountUsdc */\n      dup2\n        /* \"src/KipuBankV4.sol\":12096:12130  amountUsdc > MAX_WITHDRAWAL_AMOUNT */\n      gt\n        /* \"src/KipuBankV4.sol\":12092:12224  if (amountUsdc > MAX_WITHDRAWAL_AMOUNT) {... */\n      iszero\n      tag_227\n      jumpi\n        /* \"src/KipuBankV4.sol\":12178:12188  amountUsdc */\n      dup1\n        /* \"src/KipuBankV4.sol\":2958:2971  50000 * 10**6 */\n      0x0ba43b7400\n        /* \"src/KipuBankV4.sol\":12154:12212  WithdrawalLimitExceeded(amountUsdc, MAX_WITHDRAWAL_AMOUNT) */\n      mload(0x40)\n      0xb945e2d800000000000000000000000000000000000000000000000000000000\n      dup2\n      mstore\n      0x04\n      add\n      tag_228\n      swap3\n      swap2\n      swap1\n      tag_169\n      jump\t// in\n    tag_228:\n      mload(0x40)\n      dup1\n      swap2\n      sub\n      swap1\n      revert\n        /* \"src/KipuBankV4.sol\":12092:12224  if (amountUsdc > MAX_WITHDRAWAL_AMOUNT) {... */\n    tag_227:\n        /* \"src/KipuBankV4.sol\":3064:3070  1 days */\n      0x015180\n        /* \"src/KipuBankV4.sol\":12309:12327  lastWithdrawalTime */\n      0x05\n        /* \"src/KipuBankV4.sol\":12309:12339  lastWithdrawalTime[msg.sender] */\n      0x00\n        /* \"src/KipuBankV4.sol\":12328:12338  msg.sender */\n      caller\n        /* \"src/KipuBankV4.sol\":12309:12339  lastWithdrawalTime[msg.sender] */\n      0xffffffffffffffffffffffffffffffffffffffff\n      and\n      0xffffffffffffffffffffffffffffffffffffffff\n      and\n      dup2\n      mstore\n      0x20\n      add\n      swap1\n      dup2\n      mstore\n      0x20\n      add\n      0x00\n      keccak256\n      sload\n        /* \"src/KipuBankV4.sol\":12309:12361  lastWithdrawalTime[msg.sender] + WITHDRAWAL_COOLDOWN */\n      tag_229\n      swap2\n      swap1\n      tag_134\n      jump\t// in\n    tag_229:\n        /* \"src/KipuBankV4.sol\":12291:12306  block.timestamp */\n      timestamp\n        /* \"src/KipuBankV4.sol\":12291:12361  block.timestamp < lastWithdrawalTime[msg.sender] + WITHDRAWAL_COOLDOWN */\n      lt\n        /* \"src/KipuBankV4.sol\":12287:12527  if (block.timestamp < lastWithdrawalTime[msg.sender] + WITHDRAWAL_COOLDOWN) {... */\n      iszero\n      tag_230\n      jumpi\n        /* \"src/KipuBankV4.sol\":12378:12394  uint256 waitTime */\n      0x00\n        /* \"src/KipuBankV4.sol\":12454:12469  block.timestamp */\n      timestamp\n        /* \"src/KipuBankV4.sol\":3064:3070  1 days */\n      0x015180\n        /* \"src/KipuBankV4.sol\":12398:12416  lastWithdrawalTime */\n      0x05\n        /* \"src/KipuBankV4.sol\":12398:12428  lastWithdrawalTime[msg.sender] */\n      0x00\n        /* \"src/KipuBankV4.sol\":12417:12427  msg.sender */\n      caller\n        /* \"src/KipuBankV4.sol\":12398:12428  lastWithdrawalTime[msg.sender] */\n      0xffffffffffffffffffffffffffffffffffffffff\n      and\n      0xffffffffffffffffffffffffffffffffffffffff\n      and\n      dup2\n      mstore\n      0x20\n      add\n      swap1\n      dup2\n      mstore\n      0x20\n      add\n      0x00\n      keccak256\n      sload\n        /* \"src/KipuBankV4.sol\":12398:12450  lastWithdrawalTime[msg.sender] + WITHDRAWAL_COOLDOWN */\n      tag_231\n      swap2\n      swap1\n      tag_134\n      jump\t// in\n    tag_231:\n        /* \"src/KipuBankV4.sol\":12397:12469  (lastWithdrawalTime[msg.sender] + WITHDRAWAL_COOLDOWN) - block.timestamp */\n      tag_232\n      swap2\n      swap1\n      tag_163\n      jump\t// in\n    tag_232:\n        /* \"src/KipuBankV4.sol\":12378:12469  uint256 waitTime = (lastWithdrawalTime[msg.sender] + WITHDRAWAL_COOLDOWN) - block.timestamp */\n      swap1\n      pop\n        /* \"src/KipuBankV4.sol\":12506:12514  waitTime */\n      dup1\n        /* \"src/KipuBankV4.sol\":12491:12515  CooldownActive(waitTime) */\n      mload(0x40)\n      0xc1ab61a100000000000000000000000000000000000000000000000000000000\n      dup2\n      mstore\n      0x04\n      add\n      tag_233\n      swap2\n      swap1\n      tag_34\n      jump\t// in\n    tag_233:\n      mload(0x40)\n      dup1\n      swap2\n      sub\n      swap1\n      revert\n        /* \"src/KipuBankV4.sol\":12287:12527  if (block.timestamp < lastWithdrawalTime[msg.sender] + WITHDRAWAL_COOLDOWN) {... */\n    tag_230:\n        /* \"src/KipuBankV4.sol\":12547:12555  uint bal */\n      0x00\n        /* \"src/KipuBankV4.sol\":12558:12570  usdcBalances */\n      0x03\n        /* \"src/KipuBankV4.sol\":12558:12582  usdcBalances[msg.sender] */\n      0x00\n        /* \"src/KipuBankV4.sol\":12571:12581  msg.sender */\n      caller\n        /* \"src/KipuBankV4.sol\":12558:12582  usdcBalances[msg.sender] */\n      0xffffffffffffffffffffffffffffffffffffffff\n      and\n      0xffffffffffffffffffffffffffffffffffffffff\n      and\n      dup2\n      mstore\n      0x20\n      add\n      swap1\n      dup2\n      mstore\n      0x20\n      add\n      0x00\n      keccak256\n      sload\n        /* \"src/KipuBankV4.sol\":12547:12582  uint bal = usdcBalances[msg.sender] */\n      swap1\n      pop\n        /* \"src/KipuBankV4.sol\":12610:12613  bal */\n      dup1\n        /* \"src/KipuBankV4.sol\":12597:12607  amountUsdc */\n      dup3\n        /* \"src/KipuBankV4.sol\":12597:12613  amountUsdc > bal */\n      gt\n        /* \"src/KipuBankV4.sol\":12593:12658  if (amountUsdc > bal) revert InsufficientBalance(bal, amountUsdc) */\n      iszero\n      tag_234\n      jumpi\n        /* \"src/KipuBankV4.sol\":12642:12645  bal */\n      dup1\n        /* \"src/KipuBankV4.sol\":12647:12657  amountUsdc */\n      dup3\n        /* \"src/KipuBankV4.sol\":12622:12658  InsufficientBalance(bal, amountUsdc) */\n      mload(0x40)\n      0xcf47918100000000000000000000000000000000000000000000000000000000\n      dup2\n      mstore\n      0x04\n      add\n      tag_235\n      swap3\n      swap2\n      swap1\n      tag_169\n      jump\t// in\n    tag_235:\n      mload(0x40)\n      dup1\n      swap2\n      sub\n      swap1\n      revert\n        /* \"src/KipuBankV4.sol\":12593:12658  if (amountUsdc > bal) revert InsufficientBalance(bal, amountUsdc) */\n    tag_234:\n        /* \"src/KipuBankV4.sol\":12724:12734  amountUsdc */\n      dup2\n        /* \"src/KipuBankV4.sol\":12718:12721  bal */\n      dup2\n        /* \"src/KipuBankV4.sol\":12718:12734  bal - amountUsdc */\n      tag_236\n      swap2\n      swap1\n      tag_163\n      jump\t// in\n    tag_236:\n        /* \"src/KipuBankV4.sol\":12691:12703  usdcBalances */\n      0x03\n        /* \"src/KipuBankV4.sol\":12691:12715  usdcBalances[msg.sender] */\n      0x00\n        /* \"src/KipuBankV4.sol\":12704:12714  msg.sender */\n      caller\n        /* \"src/KipuBankV4.sol\":12691:12715  usdcBalances[msg.sender] */\n      0xffffffffffffffffffffffffffffffffffffffff\n      and\n      0xffffffffffffffffffffffffffffffffffffffff\n      and\n      dup2\n      mstore\n      0x20\n      add\n      swap1\n      dup2\n      mstore\n      0x20\n      add\n      0x00\n      keccak256\n        /* \"src/KipuBankV4.sol\":12691:12734  usdcBalances[msg.sender] = bal - amountUsdc */\n      dup2\n      swap1\n      sstore\n      pop\n        /* \"src/KipuBankV4.sol\":12758:12768  amountUsdc */\n      dup2\n        /* \"src/KipuBankV4.sol\":12745:12754  totalUsdc */\n      0x01\n      0x00\n        /* \"src/KipuBankV4.sol\":12745:12768  totalUsdc -= amountUsdc */\n      dup3\n      dup3\n      sload\n      tag_237\n      swap2\n      swap1\n      tag_163\n      jump\t// in\n    tag_237:\n      swap3\n      pop\n      pop\n      dup2\n      swap1\n      sstore\n      pop\n        /* \"src/KipuBankV4.sol\":12846:12861  withdrawalCount */\n      0x04\n        /* \"src/KipuBankV4.sol\":12846:12873  withdrawalCount[msg.sender] */\n      0x00\n        /* \"src/KipuBankV4.sol\":12862:12872  msg.sender */\n      caller\n        /* \"src/KipuBankV4.sol\":12846:12873  withdrawalCount[msg.sender] */\n      0xffffffffffffffffffffffffffffffffffffffff\n      and\n      0xffffffffffffffffffffffffffffffffffffffff\n      and\n      dup2\n      mstore\n      0x20\n      add\n      swap1\n      dup2\n      mstore\n      0x20\n      add\n      0x00\n      keccak256\n      0x00\n        /* \"src/KipuBankV4.sol\":12846:12875  withdrawalCount[msg.sender]++ */\n      dup2\n      sload\n      dup1\n      swap3\n      swap2\n      swap1\n      tag_238\n      swap1\n      tag_239\n      jump\t// in\n    tag_238:\n      swap2\n      swap1\n      pop\n      sstore\n      pop\n        /* \"src/KipuBankV4.sol\":12919:12934  block.timestamp */\n      timestamp\n        /* \"src/KipuBankV4.sol\":12886:12904  lastWithdrawalTime */\n      0x05\n        /* \"src/KipuBankV4.sol\":12886:12916  lastWithdrawalTime[msg.sender] */\n      0x00\n        /* \"src/KipuBankV4.sol\":12905:12915  msg.sender */\n      caller\n        /* \"src/KipuBankV4.sol\":12886:12916  lastWithdrawalTime[msg.sender] */\n      0xffffffffffffffffffffffffffffffffffffffff\n      and\n      0xffffffffffffffffffffffffffffffffffffffff\n      and\n      dup2\n      mstore\n      0x20\n      add\n      swap1\n      dup2\n      mstore\n      0x20\n      add\n      0x00\n      keccak256\n        /* \"src/KipuBankV4.sol\":12886:12934  lastWithdrawalTime[msg.sender] = block.timestamp */\n      dup2\n      swap1\n      sstore\n      pop\n        /* \"src/KipuBankV4.sol\":12971:12978  bool ok */\n      0x00\n        /* \"src/KipuBankV4.sol\":12988:12992  USDC */\n      immutable(\"0x24036ccf201a67256250eabe66d3f9fd72f9c4d022f225a8ee964be060dcb993\")\n        /* \"src/KipuBankV4.sol\":12981:13002  IERC20(USDC).transfer */\n      0xffffffffffffffffffffffffffffffffffffffff\n      and\n      0xa9059cbb\n        /* \"src/KipuBankV4.sol\":13003:13013  msg.sender */\n      caller\n        /* \"src/KipuBankV4.sol\":13015:13025  amountUsdc */\n      dup6\n        /* \"src/KipuBankV4.sol\":12981:13026  IERC20(USDC).transfer(msg.sender, amountUsdc) */\n      mload(0x40)\n      dup4\n      0xffffffff\n      and\n      0xe0\n      shl\n      dup2\n      mstore\n      0x04\n      add\n      tag_240\n      swap3\n      swap2\n      swap1\n      tag_215\n      jump\t// in\n    tag_240:\n      0x20\n      mload(0x40)\n      dup1\n      dup4\n      sub\n      dup2\n      0x00\n      dup8\n      gas\n      call\n      iszero\n      dup1\n      iszero\n      tag_242\n      jumpi\n      returndatacopy(0x00, 0x00, returndatasize)\n      revert(0x00, returndatasize)\n    tag_242:\n      pop\n      pop\n      pop\n      pop\n      mload(0x40)\n      returndatasize\n      not(0x1f)\n      0x1f\n      dup3\n      add\n      and\n      dup3\n      add\n      dup1\n      0x40\n      mstore\n      pop\n      dup2\n      add\n      swap1\n      tag_243\n      swap2\n      swap1\n      tag_143\n      jump\t// in\n    tag_243:\n        /* \"src/KipuBankV4.sol\":12971:13026  bool ok = IERC20(USDC).transfer(msg.sender, amountUsdc) */\n      swap1\n      pop\n        /* \"src/KipuBankV4.sol\":13042:13044  ok */\n      dup1\n        /* \"src/KipuBankV4.sol\":13037:13065  if (!ok) revert SwapFailed() */\n      tag_244\n      jumpi\n        /* \"src/KipuBankV4.sol\":13053:13065  SwapFailed() */\n      mload(0x40)\n      0x81ceff3000000000000000000000000000000000000000000000000000000000\n      dup2\n      mstore\n      0x04\n      add\n      mload(0x40)\n      dup1\n      swap2\n      sub\n      swap1\n      revert\n        /* \"src/KipuBankV4.sol\":13037:13065  if (!ok) revert SwapFailed() */\n    tag_244:\n        /* \"src/KipuBankV4.sol\":13096:13106  msg.sender */\n      caller\n        /* \"src/KipuBankV4.sol\":13083:13119  WithdrawUSDC(msg.sender, amountUsdc) */\n      0xffffffffffffffffffffffffffffffffffffffff\n      and\n      0x23ee1b877cb0081138b4973c5b2eca0133c573ad526550935d83aaade37666ca\n        /* \"src/KipuBankV4.sol\":13108:13118  amountUsdc */\n      dup5\n        /* \"src/KipuBankV4.sol\":13083:13119  WithdrawUSDC(msg.sender, amountUsdc) */\n      mload(0x40)\n      tag_245\n      swap2\n      swap1\n      tag_34\n      jump\t// in\n    tag_245:\n      mload(0x40)\n      dup1\n      swap2\n      sub\n      swap1\n      log2\n        /* \"src/KipuBankV4.sol\":11957:13127  {... */\n      pop\n      pop\n        /* \"src/KipuBankV4.sol\":3286:3291  false */\n      0x00\n        /* \"src/KipuBankV4.sol\":3277:3283  locked */\n      0x02\n      0x00\n        /* \"src/KipuBankV4.sol\":3277:3291  locked = false */\n      0x0100\n      exp\n      dup2\n      sload\n      dup2\n      0xff\n      mul\n      not\n      and\n      swap1\n      dup4\n      iszero\n      iszero\n      mul\n      or\n      swap1\n      sstore\n      pop\n        /* \"src/KipuBankV4.sol\":11893:13127  function withdrawUSDC(uint256 amountUsdc) external nonReentrant {... */\n      pop\n      jump\t// out\n        /* \"src/KipuBankV4.sol\":6712:7379  function depositUSDC(uint256 amountUsdc) external nonReentrant {... */\n    tag_101:\n        /* \"src/KipuBankV4.sol\":3204:3210  locked */\n      0x02\n      0x00\n      swap1\n      sload\n      swap1\n      0x0100\n      exp\n      swap1\n      div\n      0xff\n      and\n        /* \"src/KipuBankV4.sol\":3200:3230  if (locked) revert Reentrant() */\n      iszero\n      tag_247\n      jumpi\n        /* \"src/KipuBankV4.sol\":3219:3230  Reentrant() */\n      mload(0x40)\n      0xed3ba6a600000000000000000000000000000000000000000000000000000000\n      dup2\n      mstore\n      0x04\n      add\n      mload(0x40)\n      dup1\n      swap2\n      sub\n      swap1\n      revert\n        /* \"src/KipuBankV4.sol\":3200:3230  if (locked) revert Reentrant() */\n    tag_247:\n        /* \"src/KipuBankV4.sol\":3250:3254  true */\n      0x01\n        /* \"src/KipuBankV4.sol\":3241:3247  locked */\n      0x02\n      0x00\n        /* \"src/KipuBankV4.sol\":3241:3254  locked = true */\n      0x0100\n      exp\n      dup2\n      sload\n      dup2\n      0xff\n      mul\n      not\n      and\n      swap1\n      dup4\n      iszero\n      iszero\n      mul\n      or\n      swap1\n      sstore\n      pop\n        /* \"src/KipuBankV4.sol\":6804:6805  0 */\n      0x00\n        /* \"src/KipuBankV4.sol\":6790:6800  amountUsdc */\n      dup2\n        /* \"src/KipuBankV4.sol\":6790:6805  amountUsdc == 0 */\n      sub\n        /* \"src/KipuBankV4.sol\":6786:6826  if (amountUsdc == 0) revert ZeroAmount() */\n      tag_249\n      jumpi\n        /* \"src/KipuBankV4.sol\":6814:6826  ZeroAmount() */\n      mload(0x40)\n      0x1f2a200500000000000000000000000000000000000000000000000000000000\n      dup2\n      mstore\n      0x04\n      add\n      mload(0x40)\n      dup1\n      swap2\n      sub\n      swap1\n      revert\n        /* \"src/KipuBankV4.sol\":6786:6826  if (amountUsdc == 0) revert ZeroAmount() */\n    tag_249:\n        /* \"src/KipuBankV4.sol\":6945:6955  bankCapUsd */\n      immutable(\"0x890f693d9ea1b595bb4a33efee4a21d60a63ffd2ec40c37883b92f82fc5da52b\")\n        /* \"src/KipuBankV4.sol\":6932:6942  amountUsdc */\n      dup2\n        /* \"src/KipuBankV4.sol\":6920:6929  totalUsdc */\n      sload(0x01)\n        /* \"src/KipuBankV4.sol\":6920:6942  totalUsdc + amountUsdc */\n      tag_250\n      swap2\n      swap1\n      tag_134\n      jump\t// in\n    tag_250:\n        /* \"src/KipuBankV4.sol\":6920:6955  totalUsdc + amountUsdc > bankCapUsd */\n      gt\n        /* \"src/KipuBankV4.sol\":6916:7041  if (totalUsdc + amountUsdc > bankCapUsd) {... */\n      iszero\n      tag_251\n      jumpi\n        /* \"src/KipuBankV4.sol\":6995:7005  amountUsdc */\n      dup1\n        /* \"src/KipuBankV4.sol\":7007:7016  totalUsdc */\n      sload(0x01)\n        /* \"src/KipuBankV4.sol\":7018:7028  bankCapUsd */\n      immutable(\"0x890f693d9ea1b595bb4a33efee4a21d60a63ffd2ec40c37883b92f82fc5da52b\")\n        /* \"src/KipuBankV4.sol\":6979:7029  BankCapExceeded(amountUsdc, totalUsdc, bankCapUsd) */\n      mload(0x40)\n      0x621e5a6900000000000000000000000000000000000000000000000000000000\n      dup2\n      mstore\n      0x04\n      add\n      tag_252\n      swap4\n      swap3\n      swap2\n      swap1\n      tag_137\n      jump\t// in\n    tag_252:\n      mload(0x40)\n      dup1\n      swap2\n      sub\n      swap1\n      revert\n        /* \"src/KipuBankV4.sol\":6916:7041  if (totalUsdc + amountUsdc > bankCapUsd) {... */\n    tag_251:\n        /* \"src/KipuBankV4.sol\":7101:7108  bool ok */\n      0x00\n        /* \"src/KipuBankV4.sol\":7118:7122  USDC */\n      immutable(\"0x24036ccf201a67256250eabe66d3f9fd72f9c4d022f225a8ee964be060dcb993\")\n        /* \"src/KipuBankV4.sol\":7111:7136  IERC20(USDC).transferFrom */\n      0xffffffffffffffffffffffffffffffffffffffff\n      and\n      0x23b872dd\n        /* \"src/KipuBankV4.sol\":7137:7147  msg.sender */\n      caller\n        /* \"src/KipuBankV4.sol\":7157:7161  this */\n      address\n        /* \"src/KipuBankV4.sol\":7164:7174  amountUsdc */\n      dup6\n        /* \"src/KipuBankV4.sol\":7111:7175  IERC20(USDC).transferFrom(msg.sender, address(this), amountUsdc) */\n      mload(0x40)\n      dup5\n      0xffffffff\n      and\n      0xe0\n      shl\n      dup2\n      mstore\n      0x04\n      add\n      tag_253\n      swap4\n      swap3\n      swap2\n      swap1\n      tag_139\n      jump\t// in\n    tag_253:\n      0x20\n      mload(0x40)\n      dup1\n      dup4\n      sub\n      dup2\n      0x00\n      dup8\n      gas\n      call\n      iszero\n      dup1\n      iszero\n      tag_255\n      jumpi\n      returndatacopy(0x00, 0x00, returndatasize)\n      revert(0x00, returndatasize)\n    tag_255:\n      pop\n      pop\n      pop\n      pop\n      mload(0x40)\n      returndatasize\n      not(0x1f)\n      0x1f\n      dup3\n      add\n      and\n      dup3\n      add\n      dup1\n      0x40\n      mstore\n      pop\n      dup2\n      add\n      swap1\n      tag_256\n      swap2\n      swap1\n      tag_143\n      jump\t// in\n    tag_256:\n        /* \"src/KipuBankV4.sol\":7101:7175  bool ok = IERC20(USDC).transferFrom(msg.sender, address(this), amountUsdc) */\n      swap1\n      pop\n        /* \"src/KipuBankV4.sol\":7191:7193  ok */\n      dup1\n        /* \"src/KipuBankV4.sol\":7186:7214  if (!ok) revert SwapFailed() */\n      tag_257\n      jumpi\n        /* \"src/KipuBankV4.sol\":7202:7214  SwapFailed() */\n      mload(0x40)\n      0x81ceff3000000000000000000000000000000000000000000000000000000000\n      dup2\n      mstore\n      0x04\n      add\n      mload(0x40)\n      dup1\n      swap2\n      sub\n      swap1\n      revert\n        /* \"src/KipuBankV4.sol\":7186:7214  if (!ok) revert SwapFailed() */\n    tag_257:\n        /* \"src/KipuBankV4.sol\":7259:7269  amountUsdc */\n      dup2\n        /* \"src/KipuBankV4.sol\":7246:7255  totalUsdc */\n      0x01\n      0x00\n        /* \"src/KipuBankV4.sol\":7246:7269  totalUsdc += amountUsdc */\n      dup3\n      dup3\n      sload\n      tag_258\n      swap2\n      swap1\n      tag_134\n      jump\t// in\n    tag_258:\n      swap3\n      pop\n      pop\n      dup2\n      swap1\n      sstore\n      pop\n        /* \"src/KipuBankV4.sol\":7308:7318  amountUsdc */\n      dup2\n        /* \"src/KipuBankV4.sol\":7280:7292  usdcBalances */\n      0x03\n        /* \"src/KipuBankV4.sol\":7280:7304  usdcBalances[msg.sender] */\n      0x00\n        /* \"src/KipuBankV4.sol\":7293:7303  msg.sender */\n      caller\n        /* \"src/KipuBankV4.sol\":7280:7304  usdcBalances[msg.sender] */\n      0xffffffffffffffffffffffffffffffffffffffff\n      and\n      0xffffffffffffffffffffffffffffffffffffffff\n      and\n      dup2\n      mstore\n      0x20\n      add\n      swap1\n      dup2\n      mstore\n      0x20\n      add\n      0x00\n      keccak256\n      0x00\n        /* \"src/KipuBankV4.sol\":7280:7318  usdcBalances[msg.sender] += amountUsdc */\n      dup3\n      dup3\n      sload\n      tag_259\n      swap2\n      swap1\n      tag_134\n      jump\t// in\n    tag_259:\n      swap3\n      pop\n      pop\n      dup2\n      swap1\n      sstore\n      pop\n        /* \"src/KipuBankV4.sol\":7348:7358  msg.sender */\n      caller\n        /* \"src/KipuBankV4.sol\":7336:7371  DepositUSDC(msg.sender, amountUsdc) */\n      0xffffffffffffffffffffffffffffffffffffffff\n      and\n      0xe7440f6772025dec9be06ba934e6ee5289b73533ee2136ba668f6cb6ea3f56a8\n        /* \"src/KipuBankV4.sol\":7360:7370  amountUsdc */\n      dup4\n        /* \"src/KipuBankV4.sol\":7336:7371  DepositUSDC(msg.sender, amountUsdc) */\n      mload(0x40)\n      tag_260\n      swap2\n      swap1\n      tag_34\n      jump\t// in\n    tag_260:\n      mload(0x40)\n      dup1\n      swap2\n      sub\n      swap1\n      log2\n        /* \"src/KipuBankV4.sol\":6775:7379  {... */\n      pop\n        /* \"src/KipuBankV4.sol\":3286:3291  false */\n      0x00\n        /* \"src/KipuBankV4.sol\":3277:3283  locked */\n      0x02\n      0x00\n        /* \"src/KipuBankV4.sol\":3277:3291  locked = false */\n      0x0100\n      exp\n      dup2\n      sload\n      dup2\n      0xff\n      mul\n      not\n      and\n      swap1\n      dup4\n      iszero\n      iszero\n      mul\n      or\n      swap1\n      sstore\n      pop\n        /* \"src/KipuBankV4.sol\":6712:7379  function depositUSDC(uint256 amountUsdc) external nonReentrant {... */\n      pop\n      jump\t// out\n        /* \"src/KipuBankV4.sol\":2435:2477  IUniswapV2Router02 public immutable router */\n    tag_104:\n      immutable(\"0xe7fcf89c34605f23590ff58513f1080dc375dd06cc5e256320151057827a258a\")\n      dup2\n      jump\t// out\n        /* \"src/KipuBankV4.sol\":3018:3070  uint256 public constant WITHDRAWAL_COOLDOWN = 1 days */\n    tag_109:\n        /* \"src/KipuBankV4.sol\":3064:3070  1 days */\n      0x015180\n        /* \"src/KipuBankV4.sol\":3018:3070  uint256 public constant WITHDRAWAL_COOLDOWN = 1 days */\n      dup2\n      jump\t// out\n        /* \"src/KipuBankV4.sol\":13507:13944  function _estimateSwapOutput(address[] memory path, uint256 amountIn) internal view returns (uint256) {... */\n    tag_132:\n        /* \"src/KipuBankV4.sol\":13600:13607  uint256 */\n      0x00\n        /* \"src/KipuBankV4.sol\":13624:13630  router */\n      immutable(\"0xe7fcf89c34605f23590ff58513f1080dc375dd06cc5e256320151057827a258a\")\n        /* \"src/KipuBankV4.sol\":13624:13644  router.getAmountsOut */\n      0xffffffffffffffffffffffffffffffffffffffff\n      and\n      0xd06ca61f\n        /* \"src/KipuBankV4.sol\":13645:13653  amountIn */\n      dup4\n        /* \"src/KipuBankV4.sol\":13655:13659  path */\n      dup6\n        /* \"src/KipuBankV4.sol\":13624:13660  router.getAmountsOut(amountIn, path) */\n      mload(0x40)\n      dup4\n      0xffffffff\n      and\n      0xe0\n      shl\n      dup2\n      mstore\n      0x04\n      add\n      tag_262\n      swap3\n      swap2\n      swap1\n      tag_263\n      jump\t// in\n    tag_262:\n      0x00\n      mload(0x40)\n      dup1\n      dup4\n      sub\n      dup2\n      dup7\n      gas\n      staticcall\n      swap3\n      pop\n      pop\n      pop\n      dup1\n      iszero\n      tag_264\n      jumpi\n      pop\n      mload(0x40)\n      returndatasize\n      0x00\n      dup3\n      returndatacopy\n      returndatasize\n      not(0x1f)\n      0x1f\n      dup3\n      add\n      and\n      dup3\n      add\n      dup1\n      0x40\n      mstore\n      pop\n      dup2\n      add\n      swap1\n      tag_265\n      swap2\n      swap1\n      tag_160\n      jump\t// in\n    tag_265:\n      0x01\n    tag_264:\n        /* \"src/KipuBankV4.sol\":13620:13887  try router.getAmountsOut(amountIn, path) returns (uint[] memory amounts) {... */\n      iszero\n      tag_270\n      jumpi\n        /* \"src/KipuBankV4.sol\":13730:13731  2 */\n      0x02\n        /* \"src/KipuBankV4.sol\":13712:13719  amounts */\n      dup2\n        /* \"src/KipuBankV4.sol\":13712:13726  amounts.length */\n      mload\n        /* \"src/KipuBankV4.sol\":13712:13731  amounts.length >= 2 */\n      lt\n        /* \"src/KipuBankV4.sol\":13708:13802  if (amounts.length >= 2) {... */\n      tag_271\n      jumpi\n        /* \"src/KipuBankV4.sol\":13759:13766  amounts */\n      dup1\n        /* \"src/KipuBankV4.sol\":13784:13785  1 */\n      0x01\n        /* \"src/KipuBankV4.sol\":13767:13774  amounts */\n      dup3\n        /* \"src/KipuBankV4.sol\":13767:13781  amounts.length */\n      mload\n        /* \"src/KipuBankV4.sol\":13767:13785  amounts.length - 1 */\n      tag_272\n      swap2\n      swap1\n      tag_163\n      jump\t// in\n    tag_272:\n        /* \"src/KipuBankV4.sol\":13759:13786  amounts[amounts.length - 1] */\n      dup2\n      mload\n      dup2\n      lt\n      tag_273\n      jumpi\n      tag_274\n      tag_128\n      jump\t// in\n    tag_274:\n    tag_273:\n      0x20\n      mul\n      0x20\n      add\n      add\n      mload\n        /* \"src/KipuBankV4.sol\":13752:13786  return amounts[amounts.length - 1] */\n      swap2\n      pop\n      pop\n      jump(tag_261)\n        /* \"src/KipuBankV4.sol\":13708:13802  if (amounts.length >= 2) {... */\n    tag_271:\n        /* \"src/KipuBankV4.sol\":13661:13813  returns (uint[] memory amounts) {... */\n      pop\n        /* \"src/KipuBankV4.sol\":13620:13887  try router.getAmountsOut(amountIn, path) returns (uint[] memory amounts) {... */\n    tag_270:\n        /* \"src/KipuBankV4.sol\":13904:13912  amountIn */\n      dup2\n        /* \"src/KipuBankV4.sol\":13897:13912  return amountIn */\n      swap1\n      pop\n        /* \"src/KipuBankV4.sol\":13507:13944  function _estimateSwapOutput(address[] memory path, uint256 amountIn) internal view returns (uint256) {... */\n    tag_261:\n      swap3\n      swap2\n      pop\n      pop\n      jump\t// out\n        /* \"src/KipuBankV4.sol\":13187:13441  function _safeApprove(address token, address spender, uint256 amount) internal {... */\n    tag_146:\n        /* \"src/KipuBankV4.sol\":13358:13363  token */\n      dup3\n        /* \"src/KipuBankV4.sol\":13351:13372  IERC20(token).approve */\n      0xffffffffffffffffffffffffffffffffffffffff\n      and\n      0x095ea7b3\n        /* \"src/KipuBankV4.sol\":13373:13380  spender */\n      dup4\n        /* \"src/KipuBankV4.sol\":13382:13383  0 */\n      0x00\n        /* \"src/KipuBankV4.sol\":13351:13384  IERC20(token).approve(spender, 0) */\n      mload(0x40)\n      dup4\n      0xffffffff\n      and\n      0xe0\n      shl\n      dup2\n      mstore\n      0x04\n      add\n      tag_276\n      swap3\n      swap2\n      swap1\n      tag_277\n      jump\t// in\n    tag_276:\n      0x20\n      mload(0x40)\n      dup1\n      dup4\n      sub\n      dup2\n      0x00\n      dup8\n      gas\n      call\n      iszero\n      dup1\n      iszero\n      tag_279\n      jumpi\n      returndatacopy(0x00, 0x00, returndatasize)\n      revert(0x00, returndatasize)\n    tag_279:\n      pop\n      pop\n      pop\n      pop\n      mload(0x40)\n      returndatasize\n      not(0x1f)\n      0x1f\n      dup3\n      add\n      and\n      dup3\n      add\n      dup1\n      0x40\n      mstore\n      pop\n      dup2\n      add\n      swap1\n      tag_280\n      swap2\n      swap1\n      tag_143\n      jump\t// in\n    tag_280:\n      pop\n        /* \"src/KipuBankV4.sol\":13402:13407  token */\n      dup3\n        /* \"src/KipuBankV4.sol\":13395:13416  IERC20(token).approve */\n      0xffffffffffffffffffffffffffffffffffffffff\n      and\n      0x095ea7b3\n        /* \"src/KipuBankV4.sol\":13417:13424  spender */\n      dup4\n        /* \"src/KipuBankV4.sol\":13426:13432  amount */\n      dup4\n        /* \"src/KipuBankV4.sol\":13395:13433  IERC20(token).approve(spender, amount) */\n      mload(0x40)\n      dup4\n      0xffffffff\n      and\n      0xe0\n      shl\n      dup2\n      mstore\n      0x04\n      add\n      tag_281\n      swap3\n      swap2\n      swap1\n      tag_215\n      jump\t// in\n    tag_281:\n      0x20\n      mload(0x40)\n      dup1\n      dup4\n      sub\n      dup2\n      0x00\n      dup8\n      gas\n      call\n      iszero\n      dup1\n      iszero\n      tag_283\n      jumpi\n      returndatacopy(0x00, 0x00, returndatasize)\n      revert(0x00, returndatasize)\n    tag_283:\n      pop\n      pop\n      pop\n      pop\n      mload(0x40)\n      returndatasize\n      not(0x1f)\n      0x1f\n      dup3\n      add\n      and\n      dup3\n      add\n      dup1\n      0x40\n      mstore\n      pop\n      dup2\n      add\n      swap1\n      tag_284\n      swap2\n      swap1\n      tag_143\n      jump\t// in\n    tag_284:\n      pop\n        /* \"src/KipuBankV4.sol\":13187:13441  function _safeApprove(address token, address spender, uint256 amount) internal {... */\n      pop\n      pop\n      pop\n      jump\t// out\n        /* \"#utility.yul\":7:176   */\n    tag_285:\n        /* \"#utility.yul\":91:102   */\n      0x00\n        /* \"#utility.yul\":125:131   */\n      dup3\n        /* \"#utility.yul\":120:123   */\n      dup3\n        /* \"#utility.yul\":113:132   */\n      mstore\n        /* \"#utility.yul\":165:169   */\n      0x20\n        /* \"#utility.yul\":160:163   */\n      dup3\n        /* \"#utility.yul\":156:170   */\n      add\n        /* \"#utility.yul\":141:170   */\n      swap1\n      pop\n        /* \"#utility.yul\":7:176   */\n      swap3\n      swap2\n      pop\n      pop\n      jump\t// out\n        /* \"#utility.yul\":182:411   */\n    tag_286:\n        /* \"#utility.yul\":322:356   */\n      0x557365206465706f73697445544853776170546f555344432066756e6374696f\n        /* \"#utility.yul\":318:319   */\n      0x00\n        /* \"#utility.yul\":310:316   */\n      dup3\n        /* \"#utility.yul\":306:320   */\n      add\n        /* \"#utility.yul\":299:357   */\n      mstore\n        /* \"#utility.yul\":391:403   */\n      0x6e206469726563746c7900000000000000000000000000000000000000000000\n        /* \"#utility.yul\":386:388   */\n      0x20\n        /* \"#utility.yul\":378:384   */\n      dup3\n        /* \"#utility.yul\":374:389   */\n      add\n        /* \"#utility.yul\":367:404   */\n      mstore\n        /* \"#utility.yul\":182:411   */\n      pop\n      jump\t// out\n        /* \"#utility.yul\":417:783   */\n    tag_287:\n        /* \"#utility.yul\":559:562   */\n      0x00\n        /* \"#utility.yul\":580:647   */\n      tag_334\n        /* \"#utility.yul\":644:646   */\n      0x2a\n        /* \"#utility.yul\":639:642   */\n      dup4\n        /* \"#utility.yul\":580:647   */\n      tag_285\n      jump\t// in\n    tag_334:\n        /* \"#utility.yul\":573:647   */\n      swap2\n      pop\n        /* \"#utility.yul\":656:749   */\n      tag_335\n        /* \"#utility.yul\":745:748   */\n      dup3\n        /* \"#utility.yul\":656:749   */\n      tag_286\n      jump\t// in\n    tag_335:\n        /* \"#utility.yul\":774:776   */\n      0x40\n        /* \"#utility.yul\":769:772   */\n      dup3\n        /* \"#utility.yul\":765:777   */\n      add\n        /* \"#utility.yul\":758:777   */\n      swap1\n      pop\n        /* \"#utility.yul\":417:783   */\n      swap2\n      swap1\n      pop\n      jump\t// out\n        /* \"#utility.yul\":789:1208   */\n    tag_27:\n        /* \"#utility.yul\":955:959   */\n      0x00\n        /* \"#utility.yul\":993:995   */\n      0x20\n        /* \"#utility.yul\":982:991   */\n      dup3\n        /* \"#utility.yul\":978:996   */\n      add\n        /* \"#utility.yul\":970:996   */\n      swap1\n      pop\n        /* \"#utility.yul\":1042:1051   */\n      dup2\n        /* \"#utility.yul\":1036:1040   */\n      dup2\n        /* \"#utility.yul\":1032:1052   */\n      sub\n        /* \"#utility.yul\":1028:1029   */\n      0x00\n        /* \"#utility.yul\":1017:1026   */\n      dup4\n        /* \"#utility.yul\":1013:1030   */\n      add\n        /* \"#utility.yul\":1006:1053   */\n      mstore\n        /* \"#utility.yul\":1070:1201   */\n      tag_337\n        /* \"#utility.yul\":1196:1200   */\n      dup2\n        /* \"#utility.yul\":1070:1201   */\n      tag_287\n      jump\t// in\n    tag_337:\n        /* \"#utility.yul\":1062:1201   */\n      swap1\n      pop\n        /* \"#utility.yul\":789:1208   */\n      swap2\n      swap1\n      pop\n      jump\t// out\n        /* \"#utility.yul\":1214:1291   */\n    tag_288:\n        /* \"#utility.yul\":1251:1258   */\n      0x00\n        /* \"#utility.yul\":1280:1285   */\n      dup2\n        /* \"#utility.yul\":1269:1285   */\n      swap1\n      pop\n        /* \"#utility.yul\":1214:1291   */\n      swap2\n      swap1\n      pop\n      jump\t// out\n        /* \"#utility.yul\":1297:1415   */\n    tag_289:\n        /* \"#utility.yul\":1384:1408   */\n      tag_340\n        /* \"#utility.yul\":1402:1407   */\n      dup2\n        /* \"#utility.yul\":1384:1408   */\n      tag_288\n      jump\t// in\n    tag_340:\n        /* \"#utility.yul\":1379:1382   */\n      dup3\n        /* \"#utility.yul\":1372:1409   */\n      mstore\n        /* \"#utility.yul\":1297:1415   */\n      pop\n      pop\n      jump\t// out\n        /* \"#utility.yul\":1421:1643   */\n    tag_34:\n        /* \"#utility.yul\":1514:1518   */\n      0x00\n        /* \"#utility.yul\":1552:1554   */\n      0x20\n        /* \"#utility.yul\":1541:1550   */\n      dup3\n        /* \"#utility.yul\":1537:1555   */\n      add\n        /* \"#utility.yul\":1529:1555   */\n      swap1\n      pop\n        /* \"#utility.yul\":1565:1636   */\n      tag_342\n        /* \"#utility.yul\":1633:1634   */\n      0x00\n        /* \"#utility.yul\":1622:1631   */\n      dup4\n        /* \"#utility.yul\":1618:1635   */\n      add\n        /* \"#utility.yul\":1609:1615   */\n      dup5\n        /* \"#utility.yul\":1565:1636   */\n      tag_289\n      jump\t// in\n    tag_342:\n        /* \"#utility.yul\":1421:1643   */\n      swap3\n      swap2\n      pop\n      pop\n      jump\t// out\n        /* \"#utility.yul\":1649:1724   */\n    tag_290:\n        /* \"#utility.yul\":1682:1688   */\n      0x00\n        /* \"#utility.yul\":1715:1717   */\n      0x40\n        /* \"#utility.yul\":1709:1718   */\n      mload\n        /* \"#utility.yul\":1699:1718   */\n      swap1\n      pop\n        /* \"#utility.yul\":1649:1724   */\n      swap1\n      jump\t// out\n        /* \"#utility.yul\":1730:1847   */\n    tag_291:\n        /* \"#utility.yul\":1839:1840   */\n      0x00\n        /* \"#utility.yul\":1836:1837   */\n      0x00\n        /* \"#utility.yul\":1829:1841   */\n      revert\n        /* \"#utility.yul\":1853:1970   */\n    tag_292:\n        /* \"#utility.yul\":1962:1963   */\n      0x00\n        /* \"#utility.yul\":1959:1960   */\n      0x00\n        /* \"#utility.yul\":1952:1964   */\n      revert\n        /* \"#utility.yul\":1976:2102   */\n    tag_293:\n        /* \"#utility.yul\":2013:2020   */\n      0x00\n        /* \"#utility.yul\":2053:2095   */\n      0xffffffffffffffffffffffffffffffffffffffff\n        /* \"#utility.yul\":2046:2051   */\n      dup3\n        /* \"#utility.yul\":2042:2096   */\n      and\n        /* \"#utility.yul\":2031:2096   */\n      swap1\n      pop\n        /* \"#utility.yul\":1976:2102   */\n      swap2\n      swap1\n      pop\n      jump\t// out\n        /* \"#utility.yul\":2108:2204   */\n    tag_294:\n        /* \"#utility.yul\":2145:2152   */\n      0x00\n        /* \"#utility.yul\":2174:2198   */\n      tag_348\n        /* \"#utility.yul\":2192:2197   */\n      dup3\n        /* \"#utility.yul\":2174:2198   */\n      tag_293\n      jump\t// in\n    tag_348:\n        /* \"#utility.yul\":2163:2198   */\n      swap1\n      pop\n        /* \"#utility.yul\":2108:2204   */\n      swap2\n      swap1\n      pop\n      jump\t// out\n        /* \"#utility.yul\":2210:2332   */\n    tag_295:\n        /* \"#utility.yul\":2283:2307   */\n      tag_350\n        /* \"#utility.yul\":2301:2306   */\n      dup2\n        /* \"#utility.yul\":2283:2307   */\n      tag_294\n      jump\t// in\n    tag_350:\n        /* \"#utility.yul\":2276:2281   */\n      dup2\n        /* \"#utility.yul\":2273:2308   */\n      eq\n        /* \"#utility.yul\":2263:2326   */\n      tag_351\n      jumpi\n        /* \"#utility.yul\":2322:2323   */\n      0x00\n        /* \"#utility.yul\":2319:2320   */\n      0x00\n        /* \"#utility.yul\":2312:2324   */\n      revert\n        /* \"#utility.yul\":2263:2326   */\n    tag_351:\n        /* \"#utility.yul\":2210:2332   */\n      pop\n      jump\t// out\n        /* \"#utility.yul\":2338:2477   */\n    tag_296:\n        /* \"#utility.yul\":2384:2389   */\n      0x00\n        /* \"#utility.yul\":2422:2428   */\n      dup2\n        /* \"#utility.yul\":2409:2429   */\n      calldataload\n        /* \"#utility.yul\":2400:2429   */\n      swap1\n      pop\n        /* \"#utility.yul\":2438:2471   */\n      tag_353\n        /* \"#utility.yul\":2465:2470   */\n      dup2\n        /* \"#utility.yul\":2438:2471   */\n      tag_295\n      jump\t// in\n    tag_353:\n        /* \"#utility.yul\":2338:2477   */\n      swap3\n      swap2\n      pop\n      pop\n      jump\t// out\n        /* \"#utility.yul\":2483:2812   */\n    tag_38:\n        /* \"#utility.yul\":2542:2548   */\n      0x00\n        /* \"#utility.yul\":2591:2593   */\n      0x20\n        /* \"#utility.yul\":2579:2588   */\n      dup3\n        /* \"#utility.yul\":2570:2577   */\n      dup5\n        /* \"#utility.yul\":2566:2589   */\n      sub\n        /* \"#utility.yul\":2562:2594   */\n      slt\n        /* \"#utility.yul\":2559:2678   */\n      iszero\n      tag_355\n      jumpi\n        /* \"#utility.yul\":2597:2676   */\n      tag_356\n      tag_291\n      jump\t// in\n    tag_356:\n        /* \"#utility.yul\":2559:2678   */\n    tag_355:\n        /* \"#utility.yul\":2717:2718   */\n      0x00\n        /* \"#utility.yul\":2742:2795   */\n      tag_357\n        /* \"#utility.yul\":2787:2794   */\n      dup5\n        /* \"#utility.yul\":2778:2784   */\n      dup3\n        /* \"#utility.yul\":2767:2776   */\n      dup6\n        /* \"#utility.yul\":2763:2785   */\n      add\n        /* \"#utility.yul\":2742:2795   */\n      tag_296\n      jump\t// in\n    tag_357:\n        /* \"#utility.yul\":2732:2795   */\n      swap2\n      pop\n        /* \"#utility.yul\":2688:2805   */\n      pop\n        /* \"#utility.yul\":2483:2812   */\n      swap3\n      swap2\n      pop\n      pop\n      jump\t// out\n        /* \"#utility.yul\":2818:2940   */\n    tag_297:\n        /* \"#utility.yul\":2891:2915   */\n      tag_359\n        /* \"#utility.yul\":2909:2914   */\n      dup2\n        /* \"#utility.yul\":2891:2915   */\n      tag_288\n      jump\t// in\n    tag_359:\n        /* \"#utility.yul\":2884:2889   */\n      dup2\n        /* \"#utility.yul\":2881:2916   */\n      eq\n        /* \"#utility.yul\":2871:2934   */\n      tag_360\n      jumpi\n        /* \"#utility.yul\":2930:2931   */\n      0x00\n        /* \"#utility.yul\":2927:2928   */\n      0x00\n        /* \"#utility.yul\":2920:2932   */\n      revert\n        /* \"#utility.yul\":2871:2934   */\n    tag_360:\n        /* \"#utility.yul\":2818:2940   */\n      pop\n      jump\t// out\n        /* \"#utility.yul\":2946:3085   */\n    tag_298:\n        /* \"#utility.yul\":2992:2997   */\n      0x00\n        /* \"#utility.yul\":3030:3036   */\n      dup2\n        /* \"#utility.yul\":3017:3037   */\n      calldataload\n        /* \"#utility.yul\":3008:3037   */\n      swap1\n      pop\n        /* \"#utility.yul\":3046:3079   */\n      tag_362\n        /* \"#utility.yul\":3073:3078   */\n      dup2\n        /* \"#utility.yul\":3046:3079   */\n      tag_297\n      jump\t// in\n    tag_362:\n        /* \"#utility.yul\":2946:3085   */\n      swap3\n      swap2\n      pop\n      pop\n      jump\t// out\n        /* \"#utility.yul\":3091:3710   */\n    tag_47:\n        /* \"#utility.yul\":3168:3174   */\n      0x00\n        /* \"#utility.yul\":3176:3182   */\n      0x00\n        /* \"#utility.yul\":3184:3190   */\n      0x00\n        /* \"#utility.yul\":3233:3235   */\n      0x60\n        /* \"#utility.yul\":3221:3230   */\n      dup5\n        /* \"#utility.yul\":3212:3219   */\n      dup7\n        /* \"#utility.yul\":3208:3231   */\n      sub\n        /* \"#utility.yul\":3204:3236   */\n      slt\n        /* \"#utility.yul\":3201:3320   */\n      iszero\n      tag_364\n      jumpi\n        /* \"#utility.yul\":3239:3318   */\n      tag_365\n      tag_291\n      jump\t// in\n    tag_365:\n        /* \"#utility.yul\":3201:3320   */\n    tag_364:\n        /* \"#utility.yul\":3359:3360   */\n      0x00\n        /* \"#utility.yul\":3384:3437   */\n      tag_366\n        /* \"#utility.yul\":3429:3436   */\n      dup7\n        /* \"#utility.yul\":3420:3426   */\n      dup3\n        /* \"#utility.yul\":3409:3418   */\n      dup8\n        /* \"#utility.yul\":3405:3427   */\n      add\n        /* \"#utility.yul\":3384:3437   */\n      tag_296\n      jump\t// in\n    tag_366:\n        /* \"#utility.yul\":3374:3437   */\n      swap4\n      pop\n        /* \"#utility.yul\":3330:3447   */\n      pop\n        /* \"#utility.yul\":3486:3488   */\n      0x20\n        /* \"#utility.yul\":3512:3565   */\n      tag_367\n        /* \"#utility.yul\":3557:3564   */\n      dup7\n        /* \"#utility.yul\":3548:3554   */\n      dup3\n        /* \"#utility.yul\":3537:3546   */\n      dup8\n        /* \"#utility.yul\":3533:3555   */\n      add\n        /* \"#utility.yul\":3512:3565   */\n      tag_298\n      jump\t// in\n    tag_367:\n        /* \"#utility.yul\":3502:3565   */\n      swap3\n      pop\n        /* \"#utility.yul\":3457:3575   */\n      pop\n        /* \"#utility.yul\":3614:3616   */\n      0x40\n        /* \"#utility.yul\":3640:3693   */\n      tag_368\n        /* \"#utility.yul\":3685:3692   */\n      dup7\n        /* \"#utility.yul\":3676:3682   */\n      dup3\n        /* \"#utility.yul\":3665:3674   */\n      dup8\n        /* \"#utility.yul\":3661:3683   */\n      add\n        /* \"#utility.yul\":3640:3693   */\n      tag_298\n      jump\t// in\n    tag_368:\n        /* \"#utility.yul\":3630:3693   */\n      swap2\n      pop\n        /* \"#utility.yul\":3585:3703   */\n      pop\n        /* \"#utility.yul\":3091:3710   */\n      swap3\n      pop\n      swap3\n      pop\n      swap3\n      jump\t// out\n        /* \"#utility.yul\":3716:4045   */\n    tag_56:\n        /* \"#utility.yul\":3775:3781   */\n      0x00\n        /* \"#utility.yul\":3824:3826   */\n      0x20\n        /* \"#utility.yul\":3812:3821   */\n      dup3\n        /* \"#utility.yul\":3803:3810   */\n      dup5\n        /* \"#utility.yul\":3799:3822   */\n      sub\n        /* \"#utility.yul\":3795:3827   */\n      slt\n        /* \"#utility.yul\":3792:3911   */\n      iszero\n      tag_370\n      jumpi\n        /* \"#utility.yul\":3830:3909   */\n      tag_371\n      tag_291\n      jump\t// in\n    tag_371:\n        /* \"#utility.yul\":3792:3911   */\n    tag_370:\n        /* \"#utility.yul\":3950:3951   */\n      0x00\n        /* \"#utility.yul\":3975:4028   */\n      tag_372\n        /* \"#utility.yul\":4020:4027   */\n      dup5\n        /* \"#utility.yul\":4011:4017   */\n      dup3\n        /* \"#utility.yul\":4000:4009   */\n      dup6\n        /* \"#utility.yul\":3996:4018   */\n      add\n        /* \"#utility.yul\":3975:4028   */\n      tag_298\n      jump\t// in\n    tag_372:\n        /* \"#utility.yul\":3965:4028   */\n      swap2\n      pop\n        /* \"#utility.yul\":3921:4038   */\n      pop\n        /* \"#utility.yul\":3716:4045   */\n      swap3\n      swap2\n      pop\n      pop\n      jump\t// out\n        /* \"#utility.yul\":4051:4169   */\n    tag_299:\n        /* \"#utility.yul\":4138:4162   */\n      tag_374\n        /* \"#utility.yul\":4156:4161   */\n      dup2\n        /* \"#utility.yul\":4138:4162   */\n      tag_294\n      jump\t// in\n    tag_374:\n        /* \"#utility.yul\":4133:4136   */\n      dup3\n        /* \"#utility.yul\":4126:4163   */\n      mstore\n        /* \"#utility.yul\":4051:4169   */\n      pop\n      pop\n      jump\t// out\n        /* \"#utility.yul\":4175:4397   */\n    tag_62:\n        /* \"#utility.yul\":4268:4272   */\n      0x00\n        /* \"#utility.yul\":4306:4308   */\n      0x20\n        /* \"#utility.yul\":4295:4304   */\n      dup3\n        /* \"#utility.yul\":4291:4309   */\n      add\n        /* \"#utility.yul\":4283:4309   */\n      swap1\n      pop\n        /* \"#utility.yul\":4319:4390   */\n      tag_376\n        /* \"#utility.yul\":4387:4388   */\n      0x00\n        /* \"#utility.yul\":4376:4385   */\n      dup4\n        /* \"#utility.yul\":4372:4389   */\n      add\n        /* \"#utility.yul\":4363:4369   */\n      dup5\n        /* \"#utility.yul\":4319:4390   */\n      tag_299\n      jump\t// in\n    tag_376:\n        /* \"#utility.yul\":4175:4397   */\n      swap3\n      swap2\n      pop\n      pop\n      jump\t// out\n        /* \"#utility.yul\":4403:4877   */\n    tag_70:\n        /* \"#utility.yul\":4471:4477   */\n      0x00\n        /* \"#utility.yul\":4479:4485   */\n      0x00\n        /* \"#utility.yul\":4528:4530   */\n      0x40\n        /* \"#utility.yul\":4516:4525   */\n      dup4\n        /* \"#utility.yul\":4507:4514   */\n      dup6\n        /* \"#utility.yul\":4503:4526   */\n      sub\n        /* \"#utility.yul\":4499:4531   */\n      slt\n        /* \"#utility.yul\":4496:4615   */\n      iszero\n      tag_378\n      jumpi\n        /* \"#utility.yul\":4534:4613   */\n      tag_379\n      tag_291\n      jump\t// in\n    tag_379:\n        /* \"#utility.yul\":4496:4615   */\n    tag_378:\n        /* \"#utility.yul\":4654:4655   */\n      0x00\n        /* \"#utility.yul\":4679:4732   */\n      tag_380\n        /* \"#utility.yul\":4724:4731   */\n      dup6\n        /* \"#utility.yul\":4715:4721   */\n      dup3\n        /* \"#utility.yul\":4704:4713   */\n      dup7\n        /* \"#utility.yul\":4700:4722   */\n      add\n        /* \"#utility.yul\":4679:4732   */\n      tag_296\n      jump\t// in\n    tag_380:\n        /* \"#utility.yul\":4669:4732   */\n      swap3\n      pop\n        /* \"#utility.yul\":4625:4742   */\n      pop\n        /* \"#utility.yul\":4781:4783   */\n      0x20\n        /* \"#utility.yul\":4807:4860   */\n      tag_381\n        /* \"#utility.yul\":4852:4859   */\n      dup6\n        /* \"#utility.yul\":4843:4849   */\n      dup3\n        /* \"#utility.yul\":4832:4841   */\n      dup7\n        /* \"#utility.yul\":4828:4850   */\n      add\n        /* \"#utility.yul\":4807:4860   */\n      tag_298\n      jump\t// in\n    tag_381:\n        /* \"#utility.yul\":4797:4860   */\n      swap2\n      pop\n        /* \"#utility.yul\":4752:4870   */\n      pop\n        /* \"#utility.yul\":4403:4877   */\n      swap3\n      pop\n      swap3\n      swap1\n      pop\n      jump\t// out\n        /* \"#utility.yul\":4883:4943   */\n    tag_300:\n        /* \"#utility.yul\":4911:4914   */\n      0x00\n        /* \"#utility.yul\":4932:4937   */\n      dup2\n        /* \"#utility.yul\":4925:4937   */\n      swap1\n      pop\n        /* \"#utility.yul\":4883:4943   */\n      swap2\n      swap1\n      pop\n      jump\t// out\n        /* \"#utility.yul\":4949:5091   */\n    tag_301:\n        /* \"#utility.yul\":4999:5008   */\n      0x00\n        /* \"#utility.yul\":5032:5085   */\n      tag_384\n        /* \"#utility.yul\":5050:5084   */\n      tag_385\n        /* \"#utility.yul\":5059:5083   */\n      tag_386\n        /* \"#utility.yul\":5077:5082   */\n      dup5\n        /* \"#utility.yul\":5059:5083   */\n      tag_293\n      jump\t// in\n    tag_386:\n        /* \"#utility.yul\":5050:5084   */\n      tag_300\n      jump\t// in\n    tag_385:\n        /* \"#utility.yul\":5032:5085   */\n      tag_293\n      jump\t// in\n    tag_384:\n        /* \"#utility.yul\":5019:5085   */\n      swap1\n      pop\n        /* \"#utility.yul\":4949:5091   */\n      swap2\n      swap1\n      pop\n      jump\t// out\n        /* \"#utility.yul\":5097:5223   */\n    tag_302:\n        /* \"#utility.yul\":5147:5156   */\n      0x00\n        /* \"#utility.yul\":5180:5217   */\n      tag_388\n        /* \"#utility.yul\":5211:5216   */\n      dup3\n        /* \"#utility.yul\":5180:5217   */\n      tag_301\n      jump\t// in\n    tag_388:\n        /* \"#utility.yul\":5167:5217   */\n      swap1\n      pop\n        /* \"#utility.yul\":5097:5223   */\n      swap2\n      swap1\n      pop\n      jump\t// out\n        /* \"#utility.yul\":5229:5381   */\n    tag_303:\n        /* \"#utility.yul\":5305:5314   */\n      0x00\n        /* \"#utility.yul\":5338:5375   */\n      tag_390\n        /* \"#utility.yul\":5369:5374   */\n      dup3\n        /* \"#utility.yul\":5338:5375   */\n      tag_302\n      jump\t// in\n    tag_390:\n        /* \"#utility.yul\":5325:5375   */\n      swap1\n      pop\n        /* \"#utility.yul\":5229:5381   */\n      swap2\n      swap1\n      pop\n      jump\t// out\n        /* \"#utility.yul\":5387:5570   */\n    tag_304:\n        /* \"#utility.yul\":5500:5563   */\n      tag_392\n        /* \"#utility.yul\":5557:5562   */\n      dup2\n        /* \"#utility.yul\":5500:5563   */\n      tag_303\n      jump\t// in\n    tag_392:\n        /* \"#utility.yul\":5495:5498   */\n      dup3\n        /* \"#utility.yul\":5488:5564   */\n      mstore\n        /* \"#utility.yul\":5387:5570   */\n      pop\n      pop\n      jump\t// out\n        /* \"#utility.yul\":5576:5850   */\n    tag_106:\n        /* \"#utility.yul\":5695:5699   */\n      0x00\n        /* \"#utility.yul\":5733:5735   */\n      0x20\n        /* \"#utility.yul\":5722:5731   */\n      dup3\n        /* \"#utility.yul\":5718:5736   */\n      add\n        /* \"#utility.yul\":5710:5736   */\n      swap1\n      pop\n        /* \"#utility.yul\":5746:5843   */\n      tag_394\n        /* \"#utility.yul\":5840:5841   */\n      0x00\n        /* \"#utility.yul\":5829:5838   */\n      dup4\n        /* \"#utility.yul\":5825:5842   */\n      add\n        /* \"#utility.yul\":5816:5822   */\n      dup5\n        /* \"#utility.yul\":5746:5843   */\n      tag_304\n      jump\t// in\n    tag_394:\n        /* \"#utility.yul\":5576:5850   */\n      swap3\n      swap2\n      pop\n      pop\n      jump\t// out\n        /* \"#utility.yul\":5856:6015   */\n    tag_305:\n        /* \"#utility.yul\":5996:6007   */\n      0x7a65726f20616464720000000000000000000000000000000000000000000000\n        /* \"#utility.yul\":5992:5993   */\n      0x00\n        /* \"#utility.yul\":5984:5990   */\n      dup3\n        /* \"#utility.yul\":5980:5994   */\n      add\n        /* \"#utility.yul\":5973:6008   */\n      mstore\n        /* \"#utility.yul\":5856:6015   */\n      pop\n      jump\t// out\n        /* \"#utility.yul\":6021:6386   */\n    tag_306:\n        /* \"#utility.yul\":6163:6166   */\n      0x00\n        /* \"#utility.yul\":6184:6250   */\n      tag_397\n        /* \"#utility.yul\":6248:6249   */\n      0x09\n        /* \"#utility.yul\":6243:6246   */\n      dup4\n        /* \"#utility.yul\":6184:6250   */\n      tag_285\n      jump\t// in\n    tag_397:\n        /* \"#utility.yul\":6177:6250   */\n      swap2\n      pop\n        /* \"#utility.yul\":6259:6352   */\n      tag_398\n        /* \"#utility.yul\":6348:6351   */\n      dup3\n        /* \"#utility.yul\":6259:6352   */\n      tag_305\n      jump\t// in\n    tag_398:\n        /* \"#utility.yul\":6377:6379   */\n      0x20\n        /* \"#utility.yul\":6372:6375   */\n      dup3\n        /* \"#utility.yul\":6368:6380   */\n      add\n        /* \"#utility.yul\":6361:6380   */\n      swap1\n      pop\n        /* \"#utility.yul\":6021:6386   */\n      swap2\n      swap1\n      pop\n      jump\t// out\n        /* \"#utility.yul\":6392:6811   */\n    tag_115:\n        /* \"#utility.yul\":6558:6562   */\n      0x00\n        /* \"#utility.yul\":6596:6598   */\n      0x20\n        /* \"#utility.yul\":6585:6594   */\n      dup3\n        /* \"#utility.yul\":6581:6599   */\n      add\n        /* \"#utility.yul\":6573:6599   */\n      swap1\n      pop\n        /* \"#utility.yul\":6645:6654   */\n      dup2\n        /* \"#utility.yul\":6639:6643   */\n      dup2\n        /* \"#utility.yul\":6635:6655   */\n      sub\n        /* \"#utility.yul\":6631:6632   */\n      0x00\n        /* \"#utility.yul\":6620:6629   */\n      dup4\n        /* \"#utility.yul\":6616:6633   */\n      add\n        /* \"#utility.yul\":6609:6656   */\n      mstore\n        /* \"#utility.yul\":6673:6804   */\n      tag_400\n        /* \"#utility.yul\":6799:6803   */\n      dup2\n        /* \"#utility.yul\":6673:6804   */\n      tag_306\n      jump\t// in\n    tag_400:\n        /* \"#utility.yul\":6665:6804   */\n      swap1\n      pop\n        /* \"#utility.yul\":6392:6811   */\n      swap2\n      swap1\n      pop\n      jump\t// out\n        /* \"#utility.yul\":6817:6997   */\n    tag_124:\n        /* \"#utility.yul\":6865:6942   */\n      0x4e487b7100000000000000000000000000000000000000000000000000000000\n        /* \"#utility.yul\":6862:6863   */\n      0x00\n        /* \"#utility.yul\":6855:6943   */\n      mstore\n        /* \"#utility.yul\":6962:6966   */\n      0x41\n        /* \"#utility.yul\":6959:6960   */\n      0x04\n        /* \"#utility.yul\":6952:6967   */\n      mstore\n        /* \"#utility.yul\":6986:6990   */\n      0x24\n        /* \"#utility.yul\":6983:6984   */\n      0x00\n        /* \"#utility.yul\":6976:6991   */\n      revert\n        /* \"#utility.yul\":7003:7183   */\n    tag_128:\n        /* \"#utility.yul\":7051:7128   */\n      0x4e487b7100000000000000000000000000000000000000000000000000000000\n        /* \"#utility.yul\":7048:7049   */\n      0x00\n        /* \"#utility.yul\":7041:7129   */\n      mstore\n        /* \"#utility.yul\":7148:7152   */\n      0x32\n        /* \"#utility.yul\":7145:7146   */\n      0x04\n        /* \"#utility.yul\":7138:7153   */\n      mstore\n        /* \"#utility.yul\":7172:7176   */\n      0x24\n        /* \"#utility.yul\":7169:7170   */\n      0x00\n        /* \"#utility.yul\":7162:7177   */\n      revert\n        /* \"#utility.yul\":7189:7369   */\n    tag_307:\n        /* \"#utility.yul\":7237:7314   */\n      0x4e487b7100000000000000000000000000000000000000000000000000000000\n        /* \"#utility.yul\":7234:7235   */\n      0x00\n        /* \"#utility.yul\":7227:7315   */\n      mstore\n        /* \"#utility.yul\":7334:7338   */\n      0x11\n        /* \"#utility.yul\":7331:7332   */\n      0x04\n        /* \"#utility.yul\":7324:7339   */\n      mstore\n        /* \"#utility.yul\":7358:7362   */\n      0x24\n        /* \"#utility.yul\":7355:7356   */\n      0x00\n        /* \"#utility.yul\":7348:7363   */\n      revert\n        /* \"#utility.yul\":7375:7566   */\n    tag_134:\n        /* \"#utility.yul\":7415:7418   */\n      0x00\n        /* \"#utility.yul\":7434:7454   */\n      tag_405\n        /* \"#utility.yul\":7452:7453   */\n      dup3\n        /* \"#utility.yul\":7434:7454   */\n      tag_288\n      jump\t// in\n    tag_405:\n        /* \"#utility.yul\":7429:7454   */\n      swap2\n      pop\n        /* \"#utility.yul\":7468:7488   */\n      tag_406\n        /* \"#utility.yul\":7486:7487   */\n      dup4\n        /* \"#utility.yul\":7468:7488   */\n      tag_288\n      jump\t// in\n    tag_406:\n        /* \"#utility.yul\":7463:7488   */\n      swap3\n      pop\n        /* \"#utility.yul\":7511:7512   */\n      dup3\n        /* \"#utility.yul\":7508:7509   */\n      dup3\n        /* \"#utility.yul\":7504:7513   */\n      add\n        /* \"#utility.yul\":7497:7513   */\n      swap1\n      pop\n        /* \"#utility.yul\":7532:7535   */\n      dup1\n        /* \"#utility.yul\":7529:7530   */\n      dup3\n        /* \"#utility.yul\":7526:7536   */\n      gt\n        /* \"#utility.yul\":7523:7559   */\n      iszero\n      tag_407\n      jumpi\n        /* \"#utility.yul\":7539:7557   */\n      tag_408\n      tag_307\n      jump\t// in\n    tag_408:\n        /* \"#utility.yul\":7523:7559   */\n    tag_407:\n        /* \"#utility.yul\":7375:7566   */\n      swap3\n      swap2\n      pop\n      pop\n      jump\t// out\n        /* \"#utility.yul\":7572:8014   */\n    tag_137:\n        /* \"#utility.yul\":7721:7725   */\n      0x00\n        /* \"#utility.yul\":7759:7761   */\n      0x60\n        /* \"#utility.yul\":7748:7757   */\n      dup3\n        /* \"#utility.yul\":7744:7762   */\n      add\n        /* \"#utility.yul\":7736:7762   */\n      swap1\n      pop\n        /* \"#utility.yul\":7772:7843   */\n      tag_410\n        /* \"#utility.yul\":7840:7841   */\n      0x00\n        /* \"#utility.yul\":7829:7838   */\n      dup4\n        /* \"#utility.yul\":7825:7842   */\n      add\n        /* \"#utility.yul\":7816:7822   */\n      dup7\n        /* \"#utility.yul\":7772:7843   */\n      tag_289\n      jump\t// in\n    tag_410:\n        /* \"#utility.yul\":7853:7925   */\n      tag_411\n        /* \"#utility.yul\":7921:7923   */\n      0x20\n        /* \"#utility.yul\":7910:7919   */\n      dup4\n        /* \"#utility.yul\":7906:7924   */\n      add\n        /* \"#utility.yul\":7897:7903   */\n      dup6\n        /* \"#utility.yul\":7853:7925   */\n      tag_289\n      jump\t// in\n    tag_411:\n        /* \"#utility.yul\":7935:8007   */\n      tag_412\n        /* \"#utility.yul\":8003:8005   */\n      0x40\n        /* \"#utility.yul\":7992:8001   */\n      dup4\n        /* \"#utility.yul\":7988:8006   */\n      add\n        /* \"#utility.yul\":7979:7985   */\n      dup5\n        /* \"#utility.yul\":7935:8007   */\n      tag_289\n      jump\t// in\n    tag_412:\n        /* \"#utility.yul\":7572:8014   */\n      swap5\n      swap4\n      pop\n      pop\n      pop\n      pop\n      jump\t// out\n        /* \"#utility.yul\":8020:8462   */\n    tag_139:\n        /* \"#utility.yul\":8169:8173   */\n      0x00\n        /* \"#utility.yul\":8207:8209   */\n      0x60\n        /* \"#utility.yul\":8196:8205   */\n      dup3\n        /* \"#utility.yul\":8192:8210   */\n      add\n        /* \"#utility.yul\":8184:8210   */\n      swap1\n      pop\n        /* \"#utility.yul\":8220:8291   */\n      tag_414\n        /* \"#utility.yul\":8288:8289   */\n      0x00\n        /* \"#utility.yul\":8277:8286   */\n      dup4\n        /* \"#utility.yul\":8273:8290   */\n      add\n        /* \"#utility.yul\":8264:8270   */\n      dup7\n        /* \"#utility.yul\":8220:8291   */\n      tag_299\n      jump\t// in\n    tag_414:\n        /* \"#utility.yul\":8301:8373   */\n      tag_415\n        /* \"#utility.yul\":8369:8371   */\n      0x20\n        /* \"#utility.yul\":8358:8367   */\n      dup4\n        /* \"#utility.yul\":8354:8372   */\n      add\n        /* \"#utility.yul\":8345:8351   */\n      dup6\n        /* \"#utility.yul\":8301:8373   */\n      tag_299\n      jump\t// in\n    tag_415:\n        /* \"#utility.yul\":8383:8455   */\n      tag_416\n        /* \"#utility.yul\":8451:8453   */\n      0x40\n        /* \"#utility.yul\":8440:8449   */\n      dup4\n        /* \"#utility.yul\":8436:8454   */\n      add\n        /* \"#utility.yul\":8427:8433   */\n      dup5\n        /* \"#utility.yul\":8383:8455   */\n      tag_289\n      jump\t// in\n    tag_416:\n        /* \"#utility.yul\":8020:8462   */\n      swap5\n      swap4\n      pop\n      pop\n      pop\n      pop\n      jump\t// out\n        /* \"#utility.yul\":8468:8558   */\n    tag_308:\n        /* \"#utility.yul\":8502:8509   */\n      0x00\n        /* \"#utility.yul\":8545:8550   */\n      dup2\n        /* \"#utility.yul\":8538:8551   */\n      iszero\n        /* \"#utility.yul\":8531:8552   */\n      iszero\n        /* \"#utility.yul\":8520:8552   */\n      swap1\n      pop\n        /* \"#utility.yul\":8468:8558   */\n      swap2\n      swap1\n      pop\n      jump\t// out\n        /* \"#utility.yul\":8564:8680   */\n    tag_309:\n        /* \"#utility.yul\":8634:8655   */\n      tag_419\n        /* \"#utility.yul\":8649:8654   */\n      dup2\n        /* \"#utility.yul\":8634:8655   */\n      tag_308\n      jump\t// in\n    tag_419:\n        /* \"#utility.yul\":8627:8632   */\n      dup2\n        /* \"#utility.yul\":8624:8656   */\n      eq\n        /* \"#utility.yul\":8614:8674   */\n      tag_420\n      jumpi\n        /* \"#utility.yul\":8670:8671   */\n      0x00\n        /* \"#utility.yul\":8667:8668   */\n      0x00\n        /* \"#utility.yul\":8660:8672   */\n      revert\n        /* \"#utility.yul\":8614:8674   */\n    tag_420:\n        /* \"#utility.yul\":8564:8680   */\n      pop\n      jump\t// out\n        /* \"#utility.yul\":8686:8823   */\n    tag_310:\n        /* \"#utility.yul\":8740:8745   */\n      0x00\n        /* \"#utility.yul\":8771:8777   */\n      dup2\n        /* \"#utility.yul\":8765:8778   */\n      mload\n        /* \"#utility.yul\":8756:8778   */\n      swap1\n      pop\n        /* \"#utility.yul\":8787:8817   */\n      tag_422\n        /* \"#utility.yul\":8811:8816   */\n      dup2\n        /* \"#utility.yul\":8787:8817   */\n      tag_309\n      jump\t// in\n    tag_422:\n        /* \"#utility.yul\":8686:8823   */\n      swap3\n      swap2\n      pop\n      pop\n      jump\t// out\n        /* \"#utility.yul\":8829:9174   */\n    tag_143:\n        /* \"#utility.yul\":8896:8902   */\n      0x00\n        /* \"#utility.yul\":8945:8947   */\n      0x20\n        /* \"#utility.yul\":8933:8942   */\n      dup3\n        /* \"#utility.yul\":8924:8931   */\n      dup5\n        /* \"#utility.yul\":8920:8943   */\n      sub\n        /* \"#utility.yul\":8916:8948   */\n      slt\n        /* \"#utility.yul\":8913:9032   */\n      iszero\n      tag_424\n      jumpi\n        /* \"#utility.yul\":8951:9030   */\n      tag_425\n      tag_291\n      jump\t// in\n    tag_425:\n        /* \"#utility.yul\":8913:9032   */\n    tag_424:\n        /* \"#utility.yul\":9071:9072   */\n      0x00\n        /* \"#utility.yul\":9096:9157   */\n      tag_426\n        /* \"#utility.yul\":9149:9156   */\n      dup5\n        /* \"#utility.yul\":9140:9146   */\n      dup3\n        /* \"#utility.yul\":9129:9138   */\n      dup6\n        /* \"#utility.yul\":9125:9147   */\n      add\n        /* \"#utility.yul\":9096:9157   */\n      tag_310\n      jump\t// in\n    tag_426:\n        /* \"#utility.yul\":9086:9157   */\n      swap2\n      pop\n        /* \"#utility.yul\":9042:9167   */\n      pop\n        /* \"#utility.yul\":8829:9174   */\n      swap3\n      swap2\n      pop\n      pop\n      jump\t// out\n        /* \"#utility.yul\":9180:9294   */\n    tag_311:\n        /* \"#utility.yul\":9247:9253   */\n      0x00\n        /* \"#utility.yul\":9281:9286   */\n      dup2\n        /* \"#utility.yul\":9275:9287   */\n      mload\n        /* \"#utility.yul\":9265:9287   */\n      swap1\n      pop\n        /* \"#utility.yul\":9180:9294   */\n      swap2\n      swap1\n      pop\n      jump\t// out\n        /* \"#utility.yul\":9300:9484   */\n    tag_312:\n        /* \"#utility.yul\":9399:9410   */\n      0x00\n        /* \"#utility.yul\":9433:9439   */\n      dup3\n        /* \"#utility.yul\":9428:9431   */\n      dup3\n        /* \"#utility.yul\":9421:9440   */\n      mstore\n        /* \"#utility.yul\":9473:9477   */\n      0x20\n        /* \"#utility.yul\":9468:9471   */\n      dup3\n        /* \"#utility.yul\":9464:9478   */\n      add\n        /* \"#utility.yul\":9449:9478   */\n      swap1\n      pop\n        /* \"#utility.yul\":9300:9484   */\n      swap3\n      swap2\n      pop\n      pop\n      jump\t// out\n        /* \"#utility.yul\":9490:9622   */\n    tag_313:\n        /* \"#utility.yul\":9557:9561   */\n      0x00\n        /* \"#utility.yul\":9580:9583   */\n      dup2\n        /* \"#utility.yul\":9572:9583   */\n      swap1\n      pop\n        /* \"#utility.yul\":9610:9614   */\n      0x20\n        /* \"#utility.yul\":9605:9608   */\n      dup3\n        /* \"#utility.yul\":9601:9615   */\n      add\n        /* \"#utility.yul\":9593:9615   */\n      swap1\n      pop\n        /* \"#utility.yul\":9490:9622   */\n      swap2\n      swap1\n      pop\n      jump\t// out\n        /* \"#utility.yul\":9628:9736   */\n    tag_314:\n        /* \"#utility.yul\":9705:9729   */\n      tag_431\n        /* \"#utility.yul\":9723:9728   */\n      dup2\n        /* \"#utility.yul\":9705:9729   */\n      tag_294\n      jump\t// in\n    tag_431:\n        /* \"#utility.yul\":9700:9703   */\n      dup3\n        /* \"#utility.yul\":9693:9730   */\n      mstore\n        /* \"#utility.yul\":9628:9736   */\n      pop\n      pop\n      jump\t// out\n        /* \"#utility.yul\":9742:9921   */\n    tag_315:\n        /* \"#utility.yul\":9811:9821   */\n      0x00\n        /* \"#utility.yul\":9832:9878   */\n      tag_433\n        /* \"#utility.yul\":9874:9877   */\n      dup4\n        /* \"#utility.yul\":9866:9872   */\n      dup4\n        /* \"#utility.yul\":9832:9878   */\n      tag_314\n      jump\t// in\n    tag_433:\n        /* \"#utility.yul\":9910:9914   */\n      0x20\n        /* \"#utility.yul\":9905:9908   */\n      dup4\n        /* \"#utility.yul\":9901:9915   */\n      add\n        /* \"#utility.yul\":9887:9915   */\n      swap1\n      pop\n        /* \"#utility.yul\":9742:9921   */\n      swap3\n      swap2\n      pop\n      pop\n      jump\t// out\n        /* \"#utility.yul\":9927:10040   */\n    tag_316:\n        /* \"#utility.yul\":9997:10001   */\n      0x00\n        /* \"#utility.yul\":10029:10033   */\n      0x20\n        /* \"#utility.yul\":10024:10027   */\n      dup3\n        /* \"#utility.yul\":10020:10034   */\n      add\n        /* \"#utility.yul\":10012:10034   */\n      swap1\n      pop\n        /* \"#utility.yul\":9927:10040   */\n      swap2\n      swap1\n      pop\n      jump\t// out\n        /* \"#utility.yul\":10076:10808   */\n    tag_317:\n        /* \"#utility.yul\":10195:10198   */\n      0x00\n        /* \"#utility.yul\":10224:10278   */\n      tag_436\n        /* \"#utility.yul\":10272:10277   */\n      dup3\n        /* \"#utility.yul\":10224:10278   */\n      tag_311\n      jump\t// in\n    tag_436:\n        /* \"#utility.yul\":10294:10380   */\n      tag_437\n        /* \"#utility.yul\":10373:10379   */\n      dup2\n        /* \"#utility.yul\":10368:10371   */\n      dup6\n        /* \"#utility.yul\":10294:10380   */\n      tag_312\n      jump\t// in\n    tag_437:\n        /* \"#utility.yul\":10287:10380   */\n      swap4\n      pop\n        /* \"#utility.yul\":10404:10460   */\n      tag_438\n        /* \"#utility.yul\":10454:10459   */\n      dup4\n        /* \"#utility.yul\":10404:10460   */\n      tag_313\n      jump\t// in\n    tag_438:\n        /* \"#utility.yul\":10483:10490   */\n      dup1\n        /* \"#utility.yul\":10514:10515   */\n      0x00\n        /* \"#utility.yul\":10499:10783   */\n    tag_439:\n        /* \"#utility.yul\":10524:10530   */\n      dup4\n        /* \"#utility.yul\":10521:10522   */\n      dup2\n        /* \"#utility.yul\":10518:10531   */\n      lt\n        /* \"#utility.yul\":10499:10783   */\n      iszero\n      tag_441\n      jumpi\n        /* \"#utility.yul\":10600:10606   */\n      dup2\n        /* \"#utility.yul\":10594:10607   */\n      mload\n        /* \"#utility.yul\":10627:10690   */\n      tag_442\n        /* \"#utility.yul\":10686:10689   */\n      dup9\n        /* \"#utility.yul\":10671:10684   */\n      dup3\n        /* \"#utility.yul\":10627:10690   */\n      tag_315\n      jump\t// in\n    tag_442:\n        /* \"#utility.yul\":10620:10690   */\n      swap8\n      pop\n        /* \"#utility.yul\":10713:10773   */\n      tag_443\n        /* \"#utility.yul\":10766:10772   */\n      dup4\n        /* \"#utility.yul\":10713:10773   */\n      tag_316\n      jump\t// in\n    tag_443:\n        /* \"#utility.yul\":10703:10773   */\n      swap3\n      pop\n        /* \"#utility.yul\":10559:10783   */\n      pop\n        /* \"#utility.yul\":10546:10547   */\n      0x01\n        /* \"#utility.yul\":10543:10544   */\n      dup2\n        /* \"#utility.yul\":10539:10548   */\n      add\n        /* \"#utility.yul\":10534:10548   */\n      swap1\n      pop\n        /* \"#utility.yul\":10499:10783   */\n      jump(tag_439)\n    tag_441:\n        /* \"#utility.yul\":10503:10517   */\n      pop\n        /* \"#utility.yul\":10799:10802   */\n      dup6\n        /* \"#utility.yul\":10792:10802   */\n      swap4\n      pop\n        /* \"#utility.yul\":10200:10808   */\n      pop\n      pop\n      pop\n        /* \"#utility.yul\":10076:10808   */\n      swap3\n      swap2\n      pop\n      pop\n      jump\t// out\n        /* \"#utility.yul\":10814:11629   */\n    tag_156:\n        /* \"#utility.yul\":11069:11073   */\n      0x00\n        /* \"#utility.yul\":11107:11110   */\n      0xa0\n        /* \"#utility.yul\":11096:11105   */\n      dup3\n        /* \"#utility.yul\":11092:11111   */\n      add\n        /* \"#utility.yul\":11084:11111   */\n      swap1\n      pop\n        /* \"#utility.yul\":11121:11192   */\n      tag_445\n        /* \"#utility.yul\":11189:11190   */\n      0x00\n        /* \"#utility.yul\":11178:11187   */\n      dup4\n        /* \"#utility.yul\":11174:11191   */\n      add\n        /* \"#utility.yul\":11165:11171   */\n      dup9\n        /* \"#utility.yul\":11121:11192   */\n      tag_289\n      jump\t// in\n    tag_445:\n        /* \"#utility.yul\":11202:11274   */\n      tag_446\n        /* \"#utility.yul\":11270:11272   */\n      0x20\n        /* \"#utility.yul\":11259:11268   */\n      dup4\n        /* \"#utility.yul\":11255:11273   */\n      add\n        /* \"#utility.yul\":11246:11252   */\n      dup8\n        /* \"#utility.yul\":11202:11274   */\n      tag_289\n      jump\t// in\n    tag_446:\n        /* \"#utility.yul\":11321:11330   */\n      dup2\n        /* \"#utility.yul\":11315:11319   */\n      dup2\n        /* \"#utility.yul\":11311:11331   */\n      sub\n        /* \"#utility.yul\":11306:11308   */\n      0x40\n        /* \"#utility.yul\":11295:11304   */\n      dup4\n        /* \"#utility.yul\":11291:11309   */\n      add\n        /* \"#utility.yul\":11284:11332   */\n      mstore\n        /* \"#utility.yul\":11349:11457   */\n      tag_447\n        /* \"#utility.yul\":11452:11456   */\n      dup2\n        /* \"#utility.yul\":11443:11449   */\n      dup7\n        /* \"#utility.yul\":11349:11457   */\n      tag_317\n      jump\t// in\n    tag_447:\n        /* \"#utility.yul\":11341:11457   */\n      swap1\n      pop\n        /* \"#utility.yul\":11467:11539   */\n      tag_448\n        /* \"#utility.yul\":11535:11537   */\n      0x60\n        /* \"#utility.yul\":11524:11533   */\n      dup4\n        /* \"#utility.yul\":11520:11538   */\n      add\n        /* \"#utility.yul\":11511:11517   */\n      dup6\n        /* \"#utility.yul\":11467:11539   */\n      tag_299\n      jump\t// in\n    tag_448:\n        /* \"#utility.yul\":11549:11622   */\n      tag_449\n        /* \"#utility.yul\":11617:11620   */\n      0x80\n        /* \"#utility.yul\":11606:11615   */\n      dup4\n        /* \"#utility.yul\":11602:11621   */\n      add\n        /* \"#utility.yul\":11593:11599   */\n      dup5\n        /* \"#utility.yul\":11549:11622   */\n      tag_289\n      jump\t// in\n    tag_449:\n        /* \"#utility.yul\":10814:11629   */\n      swap7\n      swap6\n      pop\n      pop\n      pop\n      pop\n      pop\n      pop\n      jump\t// out\n        /* \"#utility.yul\":11635:11752   */\n    tag_318:\n        /* \"#utility.yul\":11744:11745   */\n      0x00\n        /* \"#utility.yul\":11741:11742   */\n      0x00\n        /* \"#utility.yul\":11734:11746   */\n      revert\n        /* \"#utility.yul\":11758:11860   */\n    tag_319:\n        /* \"#utility.yul\":11799:11805   */\n      0x00\n        /* \"#utility.yul\":11850:11852   */\n      0x1f\n        /* \"#utility.yul\":11846:11853   */\n      not\n        /* \"#utility.yul\":11841:11843   */\n      0x1f\n        /* \"#utility.yul\":11834:11839   */\n      dup4\n        /* \"#utility.yul\":11830:11844   */\n      add\n        /* \"#utility.yul\":11826:11854   */\n      and\n        /* \"#utility.yul\":11816:11854   */\n      swap1\n      pop\n        /* \"#utility.yul\":11758:11860   */\n      swap2\n      swap1\n      pop\n      jump\t// out\n        /* \"#utility.yul\":11866:12147   */\n    tag_320:\n        /* \"#utility.yul\":11949:11976   */\n      tag_453\n        /* \"#utility.yul\":11971:11975   */\n      dup3\n        /* \"#utility.yul\":11949:11976   */\n      tag_319\n      jump\t// in\n    tag_453:\n        /* \"#utility.yul\":11941:11947   */\n      dup2\n        /* \"#utility.yul\":11937:11977   */\n      add\n        /* \"#utility.yul\":12079:12085   */\n      dup2\n        /* \"#utility.yul\":12067:12077   */\n      dup2\n        /* \"#utility.yul\":12064:12086   */\n      lt\n        /* \"#utility.yul\":12043:12061   */\n      0xffffffffffffffff\n        /* \"#utility.yul\":12031:12041   */\n      dup3\n        /* \"#utility.yul\":12028:12062   */\n      gt\n        /* \"#utility.yul\":12025:12087   */\n      or\n        /* \"#utility.yul\":12022:12110   */\n      iszero\n      tag_454\n      jumpi\n        /* \"#utility.yul\":12090:12108   */\n      tag_455\n      tag_124\n      jump\t// in\n    tag_455:\n        /* \"#utility.yul\":12022:12110   */\n    tag_454:\n        /* \"#utility.yul\":12130:12140   */\n      dup1\n        /* \"#utility.yul\":12126:12128   */\n      0x40\n        /* \"#utility.yul\":12119:12141   */\n      mstore\n        /* \"#utility.yul\":11909:12147   */\n      pop\n        /* \"#utility.yul\":11866:12147   */\n      pop\n      pop\n      jump\t// out\n        /* \"#utility.yul\":12153:12282   */\n    tag_321:\n        /* \"#utility.yul\":12187:12193   */\n      0x00\n        /* \"#utility.yul\":12214:12234   */\n      tag_457\n      tag_290\n      jump\t// in\n    tag_457:\n        /* \"#utility.yul\":12204:12234   */\n      swap1\n      pop\n        /* \"#utility.yul\":12243:12276   */\n      tag_458\n        /* \"#utility.yul\":12271:12275   */\n      dup3\n        /* \"#utility.yul\":12263:12269   */\n      dup3\n        /* \"#utility.yul\":12243:12276   */\n      tag_320\n      jump\t// in\n    tag_458:\n        /* \"#utility.yul\":12153:12282   */\n      swap2\n      swap1\n      pop\n      jump\t// out\n        /* \"#utility.yul\":12288:12599   */\n    tag_322:\n        /* \"#utility.yul\":12365:12369   */\n      0x00\n        /* \"#utility.yul\":12455:12473   */\n      0xffffffffffffffff\n        /* \"#utility.yul\":12447:12453   */\n      dup3\n        /* \"#utility.yul\":12444:12474   */\n      gt\n        /* \"#utility.yul\":12441:12497   */\n      iszero\n      tag_460\n      jumpi\n        /* \"#utility.yul\":12477:12495   */\n      tag_461\n      tag_124\n      jump\t// in\n    tag_461:\n        /* \"#utility.yul\":12441:12497   */\n    tag_460:\n        /* \"#utility.yul\":12527:12531   */\n      0x20\n        /* \"#utility.yul\":12519:12525   */\n      dup3\n        /* \"#utility.yul\":12515:12532   */\n      mul\n        /* \"#utility.yul\":12507:12532   */\n      swap1\n      pop\n        /* \"#utility.yul\":12587:12591   */\n      0x20\n        /* \"#utility.yul\":12581:12585   */\n      dup2\n        /* \"#utility.yul\":12577:12592   */\n      add\n        /* \"#utility.yul\":12569:12592   */\n      swap1\n      pop\n        /* \"#utility.yul\":12288:12599   */\n      swap2\n      swap1\n      pop\n      jump\t// out\n        /* \"#utility.yul\":12605:12722   */\n    tag_323:\n        /* \"#utility.yul\":12714:12715   */\n      0x00\n        /* \"#utility.yul\":12711:12712   */\n      0x00\n        /* \"#utility.yul\":12704:12716   */\n      revert\n        /* \"#utility.yul\":12728:12871   */\n    tag_324:\n        /* \"#utility.yul\":12785:12790   */\n      0x00\n        /* \"#utility.yul\":12816:12822   */\n      dup2\n        /* \"#utility.yul\":12810:12823   */\n      mload\n        /* \"#utility.yul\":12801:12823   */\n      swap1\n      pop\n        /* \"#utility.yul\":12832:12865   */\n      tag_464\n        /* \"#utility.yul\":12859:12864   */\n      dup2\n        /* \"#utility.yul\":12832:12865   */\n      tag_297\n      jump\t// in\n    tag_464:\n        /* \"#utility.yul\":12728:12871   */\n      swap3\n      swap2\n      pop\n      pop\n      jump\t// out\n        /* \"#utility.yul\":12894:13626   */\n    tag_325:\n        /* \"#utility.yul\":13001:13006   */\n      0x00\n        /* \"#utility.yul\":13026:13107   */\n      tag_466\n        /* \"#utility.yul\":13042:13106   */\n      tag_467\n        /* \"#utility.yul\":13099:13105   */\n      dup5\n        /* \"#utility.yul\":13042:13106   */\n      tag_322\n      jump\t// in\n    tag_467:\n        /* \"#utility.yul\":13026:13107   */\n      tag_321\n      jump\t// in\n    tag_466:\n        /* \"#utility.yul\":13017:13107   */\n      swap1\n      pop\n        /* \"#utility.yul\":13127:13132   */\n      dup1\n        /* \"#utility.yul\":13156:13162   */\n      dup4\n        /* \"#utility.yul\":13149:13154   */\n      dup3\n        /* \"#utility.yul\":13142:13163   */\n      mstore\n        /* \"#utility.yul\":13190:13194   */\n      0x20\n        /* \"#utility.yul\":13183:13188   */\n      dup3\n        /* \"#utility.yul\":13179:13195   */\n      add\n        /* \"#utility.yul\":13172:13195   */\n      swap1\n      pop\n        /* \"#utility.yul\":13243:13247   */\n      0x20\n        /* \"#utility.yul\":13235:13241   */\n      dup5\n        /* \"#utility.yul\":13231:13248   */\n      mul\n        /* \"#utility.yul\":13223:13229   */\n      dup4\n        /* \"#utility.yul\":13219:13249   */\n      add\n        /* \"#utility.yul\":13272:13275   */\n      dup6\n        /* \"#utility.yul\":13264:13270   */\n      dup2\n        /* \"#utility.yul\":13261:13276   */\n      gt\n        /* \"#utility.yul\":13258:13380   */\n      iszero\n      tag_468\n      jumpi\n        /* \"#utility.yul\":13291:13370   */\n      tag_469\n      tag_323\n      jump\t// in\n    tag_469:\n        /* \"#utility.yul\":13258:13380   */\n    tag_468:\n        /* \"#utility.yul\":13406:13412   */\n      dup4\n        /* \"#utility.yul\":13389:13620   */\n    tag_470:\n        /* \"#utility.yul\":13423:13429   */\n      dup2\n        /* \"#utility.yul\":13418:13421   */\n      dup2\n        /* \"#utility.yul\":13415:13430   */\n      lt\n        /* \"#utility.yul\":13389:13620   */\n      iszero\n      tag_472\n      jumpi\n        /* \"#utility.yul\":13498:13501   */\n      dup1\n        /* \"#utility.yul\":13527:13575   */\n      tag_473\n        /* \"#utility.yul\":13571:13574   */\n      dup9\n        /* \"#utility.yul\":13559:13569   */\n      dup3\n        /* \"#utility.yul\":13527:13575   */\n      tag_324\n      jump\t// in\n    tag_473:\n        /* \"#utility.yul\":13522:13525   */\n      dup5\n        /* \"#utility.yul\":13515:13576   */\n      mstore\n        /* \"#utility.yul\":13605:13609   */\n      0x20\n        /* \"#utility.yul\":13600:13603   */\n      dup5\n        /* \"#utility.yul\":13596:13610   */\n      add\n        /* \"#utility.yul\":13589:13610   */\n      swap4\n      pop\n        /* \"#utility.yul\":13465:13620   */\n      pop\n        /* \"#utility.yul\":13449:13453   */\n      0x20\n        /* \"#utility.yul\":13444:13447   */\n      dup2\n        /* \"#utility.yul\":13440:13454   */\n      add\n        /* \"#utility.yul\":13433:13454   */\n      swap1\n      pop\n        /* \"#utility.yul\":13389:13620   */\n      jump(tag_470)\n    tag_472:\n        /* \"#utility.yul\":13393:13414   */\n      pop\n        /* \"#utility.yul\":13007:13626   */\n      pop\n      pop\n        /* \"#utility.yul\":12894:13626   */\n      swap4\n      swap3\n      pop\n      pop\n      pop\n      jump\t// out\n        /* \"#utility.yul\":13649:14034   */\n    tag_326:\n        /* \"#utility.yul\":13731:13736   */\n      0x00\n        /* \"#utility.yul\":13780:13783   */\n      dup3\n        /* \"#utility.yul\":13773:13777   */\n      0x1f\n        /* \"#utility.yul\":13765:13771   */\n      dup4\n        /* \"#utility.yul\":13761:13778   */\n      add\n        /* \"#utility.yul\":13757:13784   */\n      slt\n        /* \"#utility.yul\":13747:13869   */\n      tag_475\n      jumpi\n        /* \"#utility.yul\":13788:13867   */\n      tag_476\n      tag_318\n      jump\t// in\n    tag_476:\n        /* \"#utility.yul\":13747:13869   */\n    tag_475:\n        /* \"#utility.yul\":13898:13904   */\n      dup2\n        /* \"#utility.yul\":13892:13905   */\n      mload\n        /* \"#utility.yul\":13923:14028   */\n      tag_477\n        /* \"#utility.yul\":14024:14027   */\n      dup5\n        /* \"#utility.yul\":14016:14022   */\n      dup3\n        /* \"#utility.yul\":14009:14013   */\n      0x20\n        /* \"#utility.yul\":14001:14007   */\n      dup7\n        /* \"#utility.yul\":13997:14014   */\n      add\n        /* \"#utility.yul\":13923:14028   */\n      tag_325\n      jump\t// in\n    tag_477:\n        /* \"#utility.yul\":13914:14028   */\n      swap2\n      pop\n        /* \"#utility.yul\":13737:14034   */\n      pop\n        /* \"#utility.yul\":13649:14034   */\n      swap3\n      swap2\n      pop\n      pop\n      jump\t// out\n        /* \"#utility.yul\":14040:14594   */\n    tag_160:\n        /* \"#utility.yul\":14135:14141   */\n      0x00\n        /* \"#utility.yul\":14184:14186   */\n      0x20\n        /* \"#utility.yul\":14172:14181   */\n      dup3\n        /* \"#utility.yul\":14163:14170   */\n      dup5\n        /* \"#utility.yul\":14159:14182   */\n      sub\n        /* \"#utility.yul\":14155:14187   */\n      slt\n        /* \"#utility.yul\":14152:14271   */\n      iszero\n      tag_479\n      jumpi\n        /* \"#utility.yul\":14190:14269   */\n      tag_480\n      tag_291\n      jump\t// in\n    tag_480:\n        /* \"#utility.yul\":14152:14271   */\n    tag_479:\n        /* \"#utility.yul\":14331:14332   */\n      0x00\n        /* \"#utility.yul\":14320:14329   */\n      dup3\n        /* \"#utility.yul\":14316:14333   */\n      add\n        /* \"#utility.yul\":14310:14334   */\n      mload\n        /* \"#utility.yul\":14361:14379   */\n      0xffffffffffffffff\n        /* \"#utility.yul\":14353:14359   */\n      dup2\n        /* \"#utility.yul\":14350:14380   */\n      gt\n        /* \"#utility.yul\":14347:14464   */\n      iszero\n      tag_481\n      jumpi\n        /* \"#utility.yul\":14383:14462   */\n      tag_482\n      tag_292\n      jump\t// in\n    tag_482:\n        /* \"#utility.yul\":14347:14464   */\n    tag_481:\n        /* \"#utility.yul\":14488:14577   */\n      tag_483\n        /* \"#utility.yul\":14569:14576   */\n      dup5\n        /* \"#utility.yul\":14560:14566   */\n      dup3\n        /* \"#utility.yul\":14549:14558   */\n      dup6\n        /* \"#utility.yul\":14545:14567   */\n      add\n        /* \"#utility.yul\":14488:14577   */\n      tag_326\n      jump\t// in\n    tag_483:\n        /* \"#utility.yul\":14478:14577   */\n      swap2\n      pop\n        /* \"#utility.yul\":14281:14587   */\n      pop\n        /* \"#utility.yul\":14040:14594   */\n      swap3\n      swap2\n      pop\n      pop\n      jump\t// out\n        /* \"#utility.yul\":14600:14794   */\n    tag_163:\n        /* \"#utility.yul\":14640:14644   */\n      0x00\n        /* \"#utility.yul\":14660:14680   */\n      tag_485\n        /* \"#utility.yul\":14678:14679   */\n      dup3\n        /* \"#utility.yul\":14660:14680   */\n      tag_288\n      jump\t// in\n    tag_485:\n        /* \"#utility.yul\":14655:14680   */\n      swap2\n      pop\n        /* \"#utility.yul\":14694:14714   */\n      tag_486\n        /* \"#utility.yul\":14712:14713   */\n      dup4\n        /* \"#utility.yul\":14694:14714   */\n      tag_288\n      jump\t// in\n    tag_486:\n        /* \"#utility.yul\":14689:14714   */\n      swap3\n      pop\n        /* \"#utility.yul\":14738:14739   */\n      dup3\n        /* \"#utility.yul\":14735:14736   */\n      dup3\n        /* \"#utility.yul\":14731:14740   */\n      sub\n        /* \"#utility.yul\":14723:14740   */\n      swap1\n      pop\n        /* \"#utility.yul\":14762:14763   */\n      dup2\n        /* \"#utility.yul\":14756:14760   */\n      dup2\n        /* \"#utility.yul\":14753:14764   */\n      gt\n        /* \"#utility.yul\":14750:14787   */\n      iszero\n      tag_487\n      jumpi\n        /* \"#utility.yul\":14767:14785   */\n      tag_488\n      tag_307\n      jump\t// in\n    tag_488:\n        /* \"#utility.yul\":14750:14787   */\n    tag_487:\n        /* \"#utility.yul\":14600:14794   */\n      swap3\n      swap2\n      pop\n      pop\n      jump\t// out\n        /* \"#utility.yul\":14800:15132   */\n    tag_169:\n        /* \"#utility.yul\":14921:14925   */\n      0x00\n        /* \"#utility.yul\":14959:14961   */\n      0x40\n        /* \"#utility.yul\":14948:14957   */\n      dup3\n        /* \"#utility.yul\":14944:14962   */\n      add\n        /* \"#utility.yul\":14936:14962   */\n      swap1\n      pop\n        /* \"#utility.yul\":14972:15043   */\n      tag_490\n        /* \"#utility.yul\":15040:15041   */\n      0x00\n        /* \"#utility.yul\":15029:15038   */\n      dup4\n        /* \"#utility.yul\":15025:15042   */\n      add\n        /* \"#utility.yul\":15016:15022   */\n      dup6\n        /* \"#utility.yul\":14972:15043   */\n      tag_289\n      jump\t// in\n    tag_490:\n        /* \"#utility.yul\":15053:15125   */\n      tag_491\n        /* \"#utility.yul\":15121:15123   */\n      0x20\n        /* \"#utility.yul\":15110:15119   */\n      dup4\n        /* \"#utility.yul\":15106:15124   */\n      add\n        /* \"#utility.yul\":15097:15103   */\n      dup5\n        /* \"#utility.yul\":15053:15125   */\n      tag_289\n      jump\t// in\n    tag_491:\n        /* \"#utility.yul\":14800:15132   */\n      swap4\n      swap3\n      pop\n      pop\n      pop\n      jump\t// out\n        /* \"#utility.yul\":15138:15470   */\n    tag_215:\n        /* \"#utility.yul\":15259:15263   */\n      0x00\n        /* \"#utility.yul\":15297:15299   */\n      0x40\n        /* \"#utility.yul\":15286:15295   */\n      dup3\n        /* \"#utility.yul\":15282:15300   */\n      add\n        /* \"#utility.yul\":15274:15300   */\n      swap1\n      pop\n        /* \"#utility.yul\":15310:15381   */\n      tag_493\n        /* \"#utility.yul\":15378:15379   */\n      0x00\n        /* \"#utility.yul\":15367:15376   */\n      dup4\n        /* \"#utility.yul\":15363:15380   */\n      add\n        /* \"#utility.yul\":15354:15360   */\n      dup6\n        /* \"#utility.yul\":15310:15381   */\n      tag_299\n      jump\t// in\n    tag_493:\n        /* \"#utility.yul\":15391:15463   */\n      tag_494\n        /* \"#utility.yul\":15459:15461   */\n      0x20\n        /* \"#utility.yul\":15448:15457   */\n      dup4\n        /* \"#utility.yul\":15444:15462   */\n      add\n        /* \"#utility.yul\":15435:15441   */\n      dup5\n        /* \"#utility.yul\":15391:15463   */\n      tag_289\n      jump\t// in\n    tag_494:\n        /* \"#utility.yul\":15138:15470   */\n      swap4\n      swap3\n      pop\n      pop\n      pop\n      jump\t// out\n        /* \"#utility.yul\":15476:15709   */\n    tag_239:\n        /* \"#utility.yul\":15515:15518   */\n      0x00\n        /* \"#utility.yul\":15538:15562   */\n      tag_496\n        /* \"#utility.yul\":15556:15561   */\n      dup3\n        /* \"#utility.yul\":15538:15562   */\n      tag_288\n      jump\t// in\n    tag_496:\n        /* \"#utility.yul\":15529:15562   */\n      swap2\n      pop\n        /* \"#utility.yul\":15584:15650   */\n      0xffffffffffffffffffffffffffffffffffffffffffffffffffffffffffffffff\n        /* \"#utility.yul\":15577:15582   */\n      dup3\n        /* \"#utility.yul\":15574:15651   */\n      sub\n        /* \"#utility.yul\":15571:15674   */\n      tag_497\n      jumpi\n        /* \"#utility.yul\":15654:15672   */\n      tag_498\n      tag_307\n      jump\t// in\n    tag_498:\n        /* \"#utility.yul\":15571:15674   */\n    tag_497:\n        /* \"#utility.yul\":15701:15702   */\n      0x01\n        /* \"#utility.yul\":15694:15699   */\n      dup3\n        /* \"#utility.yul\":15690:15703   */\n      add\n        /* \"#utility.yul\":15683:15703   */\n      swap1\n      pop\n        /* \"#utility.yul\":15476:15709   */\n      swap2\n      swap1\n      pop\n      jump\t// out\n        /* \"#utility.yul\":15715:16198   */\n    tag_263:\n        /* \"#utility.yul\":15886:15890   */\n      0x00\n        /* \"#utility.yul\":15924:15926   */\n      0x40\n        /* \"#utility.yul\":15913:15922   */\n      dup3\n        /* \"#utility.yul\":15909:15927   */\n      add\n        /* \"#utility.yul\":15901:15927   */\n      swap1\n      pop\n        /* \"#utility.yul\":15937:16008   */\n      tag_500\n        /* \"#utility.yul\":16005:16006   */\n      0x00\n        /* \"#utility.yul\":15994:16003   */\n      dup4\n        /* \"#utility.yul\":15990:16007   */\n      add\n        /* \"#utility.yul\":15981:15987   */\n      dup6\n        /* \"#utility.yul\":15937:16008   */\n      tag_289\n      jump\t// in\n    tag_500:\n        /* \"#utility.yul\":16055:16064   */\n      dup2\n        /* \"#utility.yul\":16049:16053   */\n      dup2\n        /* \"#utility.yul\":16045:16065   */\n      sub\n        /* \"#utility.yul\":16040:16042   */\n      0x20\n        /* \"#utility.yul\":16029:16038   */\n      dup4\n        /* \"#utility.yul\":16025:16043   */\n      add\n        /* \"#utility.yul\":16018:16066   */\n      mstore\n        /* \"#utility.yul\":16083:16191   */\n      tag_501\n        /* \"#utility.yul\":16186:16190   */\n      dup2\n        /* \"#utility.yul\":16177:16183   */\n      dup5\n        /* \"#utility.yul\":16083:16191   */\n      tag_317\n      jump\t// in\n    tag_501:\n        /* \"#utility.yul\":16075:16191   */\n      swap1\n      pop\n        /* \"#utility.yul\":15715:16198   */\n      swap4\n      swap3\n      pop\n      pop\n      pop\n      jump\t// out\n        /* \"#utility.yul\":16204:16289   */\n    tag_327:\n        /* \"#utility.yul\":16249:16256   */\n      0x00\n        /* \"#utility.yul\":16278:16283   */\n      dup2\n        /* \"#utility.yul\":16267:16283   */\n      swap1\n      pop\n        /* \"#utility.yul\":16204:16289   */\n      swap2\n      swap1\n      pop\n      jump\t// out\n        /* \"#utility.yul\":16295:16453   */\n    tag_328:\n        /* \"#utility.yul\":16353:16362   */\n      0x00\n        /* \"#utility.yul\":16386:16447   */\n      tag_504\n        /* \"#utility.yul\":16404:16446   */\n      tag_505\n        /* \"#utility.yul\":16413:16445   */\n      tag_506\n        /* \"#utility.yul\":16439:16444   */\n      dup5\n        /* \"#utility.yul\":16413:16445   */\n      tag_327\n      jump\t// in\n    tag_506:\n        /* \"#utility.yul\":16404:16446   */\n      tag_300\n      jump\t// in\n    tag_505:\n        /* \"#utility.yul\":16386:16447   */\n      tag_288\n      jump\t// in\n    tag_504:\n        /* \"#utility.yul\":16373:16447   */\n      swap1\n      pop\n        /* \"#utility.yul\":16295:16453   */\n      swap2\n      swap1\n      pop\n      jump\t// out\n        /* \"#utility.yul\":16459:16606   */\n    tag_329:\n        /* \"#utility.yul\":16554:16599   */\n      tag_508\n        /* \"#utility.yul\":16593:16598   */\n      dup2\n        /* \"#utility.yul\":16554:16599   */\n      tag_328\n      jump\t// in\n    tag_508:\n        /* \"#utility.yul\":16549:16552   */\n      dup3\n        /* \"#utility.yul\":16542:16600   */\n      mstore\n        /* \"#utility.yul\":16459:16606   */\n      pop\n      pop\n      jump\t// out\n        /* \"#utility.yul\":16612:16960   */\n    tag_277:\n        /* \"#utility.yul\":16741:16745   */\n      0x00\n        /* \"#utility.yul\":16779:16781   */\n      0x40\n        /* \"#utility.yul\":16768:16777   */\n      dup3\n        /* \"#utility.yul\":16764:16782   */\n      add\n        /* \"#utility.yul\":16756:16782   */\n      swap1\n      pop\n        /* \"#utility.yul\":16792:16863   */\n      tag_510\n        /* \"#utility.yul\":16860:16861   */\n      0x00\n        /* \"#utility.yul\":16849:16858   */\n      dup4\n        /* \"#utility.yul\":16845:16862   */\n      add\n        /* \"#utility.yul\":16836:16842   */\n      dup6\n        /* \"#utility.yul\":16792:16863   */\n      tag_299\n      jump\t// in\n    tag_510:\n        /* \"#utility.yul\":16873:16953   */\n      tag_511\n        /* \"#utility.yul\":16949:16951   */\n      0x20\n        /* \"#utility.yul\":16938:16947   */\n      dup4\n        /* \"#utility.yul\":16934:16952   */\n      add\n        /* \"#utility.yul\":16925:16931   */\n      dup5\n        /* \"#utility.yul\":16873:16953   */\n      tag_329\n      jump\t// in\n    tag_511:\n        /* \"#utility.yul\":16612:16960   */\n      swap4\n      swap3\n      pop\n      pop\n      pop\n      jump\t// out\n\n    auxdata: 0xa264697066735822122024ff14c6731bbaa5cc2e78dab7220c6609c36a7f89f825d2d016b45c1e41bd3c64736f6c634300081e0033\n}\n",
				"bytecode": {
					"linkReferences": {},
					"object": "610100604052348015610010575f5ffd5b50604051612cf7380380612cf783398181016040528101906100329190610268565b5f73ffffffffffffffffffffffffffffffffffffffff168373ffffffffffffffffffffffffffffffffffffffff16148061009757505f73ffffffffffffffffffffffffffffffffffffffff168273ffffffffffffffffffffffffffffffffffffffff16145b806100a157505f81145b156100d8576040517f1f2a200500000000000000000000000000000000000000000000000000000000815260040160405180910390fd5b8273ffffffffffffffffffffffffffffffffffffffff1660808173ffffffffffffffffffffffffffffffffffffffff16815250508173ffffffffffffffffffffffffffffffffffffffff1660a08173ffffffffffffffffffffffffffffffffffffffff1681525050737b79995e5f793a07bc00c21412e50ecae098e7f973ffffffffffffffffffffffffffffffffffffffff1660c08173ffffffffffffffffffffffffffffffffffffffff16815250508060e08181525050335f5f6101000a81548173ffffffffffffffffffffffffffffffffffffffff021916908373ffffffffffffffffffffffffffffffffffffffff1602179055505050506102b8565b5f5ffd5b5f73ffffffffffffffffffffffffffffffffffffffff82169050919050565b5f610204826101db565b9050919050565b610214816101fa565b811461021e575f5ffd5b50565b5f8151905061022f8161020b565b92915050565b5f819050919050565b61024781610235565b8114610251575f5ffd5b50565b5f815190506102628161023e565b92915050565b5f5f5f6060848603121561027f5761027e6101d7565b5b5f61028c86828701610221565b935050602061029d86828701610221565b92505060406102ae86828701610254565b9150509250925092565b60805160a05160c05160e0516129646103935f395f8181610893015281816108cc01528181610f1201528181610f4b0152818161162b0152818161165b01528181611c2d0152611c6601525f8181610e2801528181610faa0152818161102a015281816110bf01528181611326015261167f01525f81816109e601528181610b290152818161104b015281816111ae01528181611e720152611e9e01525f81816106f50152818161081701528181610aa801528181610e960152818161112d015281816113cf01528181611a540152611cc601526129645ff3fe60806040526004361061010c575f3560e01c8063a78c7b0811610094578063c3fd262d11610063578063c3fd262d14610382578063db81f99b146103be578063f688bcfb146103e6578063f887ea401461040e578063feedab00146104385761014c565b8063a78c7b08146102c8578063ac4543ba146102f2578063ad5c46481461031c578063b3d8bcdc146103465761014c565b80634de5120e116100db5780634de5120e146101f4578063883f17211461023057806389a302711461024c5780638da5cb5b1461027657806395ccea67146102a05761014c565b8063058c8c2e1461015057806313af40351461017a57806334462be6146101a257806339657553146101cc5761014c565b3661014c576040517f08c379a0000000000000000000000000000000000000000000000000000000008152600401610143906120fb565b60405180910390fd5b5f5ffd5b34801561015b575f5ffd5b50610164610462565b6040516101719190612131565b60405180910390f35b348015610185575f5ffd5b506101a0600480360381019061019b91906121b5565b61046b565b005b3480156101ad575f5ffd5b506101b661061f565b6040516101c39190612131565b60405180910390f35b3480156101d7575f5ffd5b506101f260048036038101906101ed919061220a565b610625565b005b3480156101ff575f5ffd5b5061021a600480360381019061021591906121b5565b610d2b565b6040516102279190612131565b60405180910390f35b61024a6004803603810190610245919061225a565b610d40565b005b348015610257575f5ffd5b506102606113cd565b60405161026d9190612294565b60405180910390f35b348015610281575f5ffd5b5061028a6113f1565b6040516102979190612294565b60405180910390f35b3480156102ab575f5ffd5b506102c660048036038101906102c191906122ad565b611415565b005b3480156102d3575f5ffd5b506102dc611625565b6040516102e99190612131565b60405180910390f35b3480156102fd575f5ffd5b50610306611659565b6040516103139190612131565b60405180910390f35b348015610327575f5ffd5b5061033061167d565b60405161033d9190612294565b60405180910390f35b348015610351575f5ffd5b5061036c600480360381019061036791906121b5565b6116a1565b6040516103799190612131565b60405180910390f35b34801561038d575f5ffd5b506103a860048036038101906103a391906121b5565b6116b6565b6040516103b59190612131565b60405180910390f35b3480156103c9575f5ffd5b506103e460048036038101906103df919061225a565b6116fc565b005b3480156103f1575f5ffd5b5061040c6004803603810190610407919061225a565b611b92565b005b348015610419575f5ffd5b50610422611e70565b60405161042f9190612346565b60405180910390f35b348015610443575f5ffd5b5061044c611e94565b6040516104599190612131565b60405180910390f35b640ba43b740081565b5f5f9054906101000a900473ffffffffffffffffffffffffffffffffffffffff1673ffffffffffffffffffffffffffffffffffffffff163373ffffffffffffffffffffffffffffffffffffffff16146104f0576040517f30cd747100000000000000000000000000000000000000000000000000000000815260040160405180910390fd5b5f73ffffffffffffffffffffffffffffffffffffffff168173ffffffffffffffffffffffffffffffffffffffff160361055e576040517f08c379a0000000000000000000000000000000000000000000000000000000008152600401610555906123a9565b60405180910390fd5b5f5f5f9054906101000a900473ffffffffffffffffffffffffffffffffffffffff169050815f5f6101000a81548173ffffffffffffffffffffffffffffffffffffffff021916908373ffffffffffffffffffffffffffffffffffffffff1602179055508173ffffffffffffffffffffffffffffffffffffffff168173ffffffffffffffffffffffffffffffffffffffff167fb532073b38c83145e3e5135377a08bf9aab55bc0fd7c1179cd4fb995d2a5159c60405160405180910390a35050565b60015481565b60025f9054906101000a900460ff161561066b576040517fed3ba6a600000000000000000000000000000000000000000000000000000000815260040160405180910390fd5b600160025f6101000a81548160ff0219169083151502179055505f82036106be576040517f1f2a200500000000000000000000000000000000000000000000000000000000815260040160405180910390fd5b5f73ffffffffffffffffffffffffffffffffffffffff168373ffffffffffffffffffffffffffffffffffffffff16148061074357507f000000000000000000000000000000000000000000000000000000000000000073ffffffffffffffffffffffffffffffffffffffff168373ffffffffffffffffffffffffffffffffffffffff16145b1561077a576040517fc1ab6dc100000000000000000000000000000000000000000000000000000000815260040160405180910390fd5b5f600267ffffffffffffffff811115610796576107956123c7565b5b6040519080825280602002602001820160405280156107c45781602001602082028036833780820191505090505b50905083815f815181106107db576107da6123f4565b5b602002602001019073ffffffffffffffffffffffffffffffffffffffff16908173ffffffffffffffffffffffffffffffffffffffff16815250507f00000000000000000000000000000000000000000000000000000000000000008160018151811061084a576108496123f4565b5b602002602001019073ffffffffffffffffffffffffffffffffffffffff16908173ffffffffffffffffffffffffffffffffffffffff16815250505f61088f8285611e9b565b90507f0000000000000000000000000000000000000000000000000000000000000000816001546108c0919061244e565b111561092957806001547f00000000000000000000000000000000000000000000000000000000000000006040517f621e5a6900000000000000000000000000000000000000000000000000000000815260040161092093929190612481565b60405180910390fd5b5f8573ffffffffffffffffffffffffffffffffffffffff166323b872dd3330886040518463ffffffff1660e01b8152600401610967939291906124b6565b6020604051808303815f875af1158015610983573d5f5f3e3d5ffd5b505050506040513d601f19601f820116820180604052508101906109a79190612520565b9050806109e0576040517f81ceff3000000000000000000000000000000000000000000000000000000000815260040160405180910390fd5b610a0b867f000000000000000000000000000000000000000000000000000000000000000087611f7e565b5f600267ffffffffffffffff811115610a2757610a266123c7565b5b604051908082528060200260200182016040528015610a555781602001602082028036833780820191505090505b50905086815f81518110610a6c57610a6b6123f4565b5b602002602001019073ffffffffffffffffffffffffffffffffffffffff16908173ffffffffffffffffffffffffffffffffffffffff16815250507f000000000000000000000000000000000000000000000000000000000000000081600181518110610adb57610ada6123f4565b5b602002602001019073ffffffffffffffffffffffffffffffffffffffff16908173ffffffffffffffffffffffffffffffffffffffff16815250505f61012c42610b24919061244e565b90505f7f000000000000000000000000000000000000000000000000000000000000000073ffffffffffffffffffffffffffffffffffffffff166338ed173989898630876040518663ffffffff1660e01b8152600401610b88959493929190612602565b5f604051808303815f875af1158015610ba3573d5f5f3e3d5ffd5b505050506040513d5f823e3d601f19601f82011682018060405250810190610bcb9190612791565b9050600281511015610c09576040517f81ceff3000000000000000000000000000000000000000000000000000000000815260040160405180910390fd5b5f8160018351610c1991906127d8565b81518110610c2a57610c296123f4565b5b602002602001015190508060015f828254610c45919061244e565b925050819055508060035f3373ffffffffffffffffffffffffffffffffffffffff1673ffffffffffffffffffffffffffffffffffffffff1681526020019081526020015f205f828254610c98919061244e565b925050819055508973ffffffffffffffffffffffffffffffffffffffff163373ffffffffffffffffffffffffffffffffffffffff167fab466672cd9adae1c2072831f94c1068597b355987d2a64d4e5a7dcd74e5cda58b84604051610cfe92919061280b565b60405180910390a3505050505050505f60025f6101000a81548160ff021916908315150217905550505050565b6005602052805f5260405f205f915090505481565b60025f9054906101000a900460ff1615610d86576040517fed3ba6a600000000000000000000000000000000000000000000000000000000815260040160405180910390fd5b600160025f6101000a81548160ff0219169083151502179055505f3403610dd9576040517f1f2a200500000000000000000000000000000000000000000000000000000000815260040160405180910390fd5b5f600267ffffffffffffffff811115610df557610df46123c7565b5b604051908082528060200260200182016040528015610e235781602001602082028036833780820191505090505b5090507f0000000000000000000000000000000000000000000000000000000000000000815f81518110610e5a57610e596123f4565b5b602002602001019073ffffffffffffffffffffffffffffffffffffffff16908173ffffffffffffffffffffffffffffffffffffffff16815250507f000000000000000000000000000000000000000000000000000000000000000081600181518110610ec957610ec86123f4565b5b602002602001019073ffffffffffffffffffffffffffffffffffffffff16908173ffffffffffffffffffffffffffffffffffffffff16815250505f610f0e8234611e9b565b90507f000000000000000000000000000000000000000000000000000000000000000081600154610f3f919061244e565b1115610fa857806001547f00000000000000000000000000000000000000000000000000000000000000006040517f621e5a69000000000000000000000000000000000000000000000000000000008152600401610f9f93929190612481565b60405180910390fd5b7f000000000000000000000000000000000000000000000000000000000000000073ffffffffffffffffffffffffffffffffffffffff1663d0e30db0346040518263ffffffff1660e01b81526004015f604051808303818588803b15801561100e575f5ffd5b505af1158015611020573d5f5f3e3d5ffd5b50505050506110707f00000000000000000000000000000000000000000000000000000000000000007f000000000000000000000000000000000000000000000000000000000000000034611f7e565b5f600267ffffffffffffffff81111561108c5761108b6123c7565b5b6040519080825280602002602001820160405280156110ba5781602001602082028036833780820191505090505b5090507f0000000000000000000000000000000000000000000000000000000000000000815f815181106110f1576110f06123f4565b5b602002602001019073ffffffffffffffffffffffffffffffffffffffff16908173ffffffffffffffffffffffffffffffffffffffff16815250507f0000000000000000000000000000000000000000000000000000000000000000816001815181106111605761115f6123f4565b5b602002602001019073ffffffffffffffffffffffffffffffffffffffff16908173ffffffffffffffffffffffffffffffffffffffff16815250505f61012c426111a9919061244e565b90505f7f000000000000000000000000000000000000000000000000000000000000000073ffffffffffffffffffffffffffffffffffffffff166338ed173934888630876040518663ffffffff1660e01b815260040161120d959493929190612602565b5f604051808303815f875af1158015611228573d5f5f3e3d5ffd5b505050506040513d5f823e3d601f19601f820116820180604052508101906112509190612791565b905060028151101561128e576040517f81ceff3000000000000000000000000000000000000000000000000000000000815260040160405180910390fd5b5f816001835161129e91906127d8565b815181106112af576112ae6123f4565b5b602002602001015190508060015f8282546112ca919061244e565b925050819055508060035f3373ffffffffffffffffffffffffffffffffffffffff1673ffffffffffffffffffffffffffffffffffffffff1681526020019081526020015f205f82825461131d919061244e565b925050819055507f000000000000000000000000000000000000000000000000000000000000000073ffffffffffffffffffffffffffffffffffffffff163373ffffffffffffffffffffffffffffffffffffffff167fab466672cd9adae1c2072831f94c1068597b355987d2a64d4e5a7dcd74e5cda534846040516113a392919061280b565b60405180910390a35050505050505f60025f6101000a81548160ff02191690831515021790555050565b7f000000000000000000000000000000000000000000000000000000000000000081565b5f5f9054906101000a900473ffffffffffffffffffffffffffffffffffffffff1681565b5f5f9054906101000a900473ffffffffffffffffffffffffffffffffffffffff1673ffffffffffffffffffffffffffffffffffffffff163373ffffffffffffffffffffffffffffffffffffffff161461149a576040517f30cd747100000000000000000000000000000000000000000000000000000000815260040160405180910390fd5b5f73ffffffffffffffffffffffffffffffffffffffff168273ffffffffffffffffffffffffffffffffffffffff1603611536575f5f9054906101000a900473ffffffffffffffffffffffffffffffffffffffff1673ffffffffffffffffffffffffffffffffffffffff166108fc8290811502906040515f60405180830381858888f19350505050158015611530573d5f5f3e3d5ffd5b506115d3565b8173ffffffffffffffffffffffffffffffffffffffff1663a9059cbb5f5f9054906101000a900473ffffffffffffffffffffffffffffffffffffffff16836040518363ffffffff1660e01b8152600401611591929190612832565b6020604051808303815f875af11580156115ad573d5f5f3e3d5ffd5b505050506040513d601f19601f820116820180604052508101906115d19190612520565b505b8173ffffffffffffffffffffffffffffffffffffffff167f5fafa99d0643513820be26656b45130b01e1c03062e1266bf36f88cbd3bd9695826040516116199190612131565b60405180910390a25050565b5f6001547f000000000000000000000000000000000000000000000000000000000000000061165491906127d8565b905090565b7f000000000000000000000000000000000000000000000000000000000000000081565b7f000000000000000000000000000000000000000000000000000000000000000081565b6004602052805f5260405f205f915090505481565b5f60035f8373ffffffffffffffffffffffffffffffffffffffff1673ffffffffffffffffffffffffffffffffffffffff1681526020019081526020015f20549050919050565b60025f9054906101000a900460ff1615611742576040517fed3ba6a600000000000000000000000000000000000000000000000000000000815260040160405180910390fd5b600160025f6101000a81548160ff0219169083151502179055505f8103611795576040517f1f2a200500000000000000000000000000000000000000000000000000000000815260040160405180910390fd5b640ba43b74008111156117e65780640ba43b74006040517fb945e2d80000000000000000000000000000000000000000000000000000000081526004016117dd92919061280b565b60405180910390fd5b6201518060055f3373ffffffffffffffffffffffffffffffffffffffff1673ffffffffffffffffffffffffffffffffffffffff1681526020019081526020015f2054611832919061244e565b4210156118d0575f426201518060055f3373ffffffffffffffffffffffffffffffffffffffff1673ffffffffffffffffffffffffffffffffffffffff1681526020019081526020015f2054611887919061244e565b61189191906127d8565b9050806040517fc1ab61a10000000000000000000000000000000000000000000000000000000081526004016118c79190612131565b60405180910390fd5b5f60035f3373ffffffffffffffffffffffffffffffffffffffff1673ffffffffffffffffffffffffffffffffffffffff1681526020019081526020015f20549050808211156119585780826040517fcf47918100000000000000000000000000000000000000000000000000000000815260040161194f92919061280b565b60405180910390fd5b818161196491906127d8565b60035f3373ffffffffffffffffffffffffffffffffffffffff1673ffffffffffffffffffffffffffffffffffffffff1681526020019081526020015f20819055508160015f8282546119b691906127d8565b9250508190555060045f3373ffffffffffffffffffffffffffffffffffffffff1673ffffffffffffffffffffffffffffffffffffffff1681526020019081526020015f205f815480929190611a0a90612859565b91905055504260055f3373ffffffffffffffffffffffffffffffffffffffff1673ffffffffffffffffffffffffffffffffffffffff1681526020019081526020015f20819055505f7f000000000000000000000000000000000000000000000000000000000000000073ffffffffffffffffffffffffffffffffffffffff1663a9059cbb33856040518363ffffffff1660e01b8152600401611aad929190612832565b6020604051808303815f875af1158015611ac9573d5f5f3e3d5ffd5b505050506040513d601f19601f82011682018060405250810190611aed9190612520565b905080611b26576040517f81ceff3000000000000000000000000000000000000000000000000000000000815260040160405180910390fd5b3373ffffffffffffffffffffffffffffffffffffffff167f23ee1b877cb0081138b4973c5b2eca0133c573ad526550935d83aaade37666ca84604051611b6c9190612131565b60405180910390a250505f60025f6101000a81548160ff02191690831515021790555050565b60025f9054906101000a900460ff1615611bd8576040517fed3ba6a600000000000000000000000000000000000000000000000000000000815260040160405180910390fd5b600160025f6101000a81548160ff0219169083151502179055505f8103611c2b576040517f1f2a200500000000000000000000000000000000000000000000000000000000815260040160405180910390fd5b7f000000000000000000000000000000000000000000000000000000000000000081600154611c5a919061244e565b1115611cc357806001547f00000000000000000000000000000000000000000000000000000000000000006040517f621e5a69000000000000000000000000000000000000000000000000000000008152600401611cba93929190612481565b60405180910390fd5b5f7f000000000000000000000000000000000000000000000000000000000000000073ffffffffffffffffffffffffffffffffffffffff166323b872dd3330856040518463ffffffff1660e01b8152600401611d21939291906124b6565b6020604051808303815f875af1158015611d3d573d5f5f3e3d5ffd5b505050506040513d601f19601f82011682018060405250810190611d619190612520565b905080611d9a576040517f81ceff3000000000000000000000000000000000000000000000000000000000815260040160405180910390fd5b8160015f828254611dab919061244e565b925050819055508160035f3373ffffffffffffffffffffffffffffffffffffffff1673ffffffffffffffffffffffffffffffffffffffff1681526020019081526020015f205f828254611dfe919061244e565b925050819055503373ffffffffffffffffffffffffffffffffffffffff167fe7440f6772025dec9be06ba934e6ee5289b73533ee2136ba668f6cb6ea3f56a883604051611e4b9190612131565b60405180910390a2505f60025f6101000a81548160ff02191690831515021790555050565b7f000000000000000000000000000000000000000000000000000000000000000081565b6201518081565b5f7f000000000000000000000000000000000000000000000000000000000000000073ffffffffffffffffffffffffffffffffffffffff1663d06ca61f83856040518363ffffffff1660e01b8152600401611ef79291906128a0565b5f60405180830381865afa925050508015611f3457506040513d5f823e3d601f19601f82011682018060405250810190611f319190612791565b60015b15611f74576002815110611f72578060018251611f5191906127d8565b81518110611f6257611f616123f4565b5b6020026020010151915050611f78565b505b8190505b92915050565b8273ffffffffffffffffffffffffffffffffffffffff1663095ea7b3835f6040518363ffffffff1660e01b8152600401611fb9929190612907565b6020604051808303815f875af1158015611fd5573d5f5f3e3d5ffd5b505050506040513d601f19601f82011682018060405250810190611ff99190612520565b508273ffffffffffffffffffffffffffffffffffffffff1663095ea7b383836040518363ffffffff1660e01b8152600401612035929190612832565b6020604051808303815f875af1158015612051573d5f5f3e3d5ffd5b505050506040513d601f19601f820116820180604052508101906120759190612520565b50505050565b5f82825260208201905092915050565b7f557365206465706f73697445544853776170546f555344432066756e6374696f5f8201527f6e206469726563746c7900000000000000000000000000000000000000000000602082015250565b5f6120e5602a8361207b565b91506120f08261208b565b604082019050919050565b5f6020820190508181035f830152612112816120d9565b9050919050565b5f819050919050565b61212b81612119565b82525050565b5f6020820190506121445f830184612122565b92915050565b5f604051905090565b5f5ffd5b5f5ffd5b5f73ffffffffffffffffffffffffffffffffffffffff82169050919050565b5f6121848261215b565b9050919050565b6121948161217a565b811461219e575f5ffd5b50565b5f813590506121af8161218b565b92915050565b5f602082840312156121ca576121c9612153565b5b5f6121d7848285016121a1565b91505092915050565b6121e981612119565b81146121f3575f5ffd5b50565b5f81359050612204816121e0565b92915050565b5f5f5f6060848603121561222157612220612153565b5b5f61222e868287016121a1565b935050602061223f868287016121f6565b9250506040612250868287016121f6565b9150509250925092565b5f6020828403121561226f5761226e612153565b5b5f61227c848285016121f6565b91505092915050565b61228e8161217a565b82525050565b5f6020820190506122a75f830184612285565b92915050565b5f5f604083850312156122c3576122c2612153565b5b5f6122d0858286016121a1565b92505060206122e1858286016121f6565b9150509250929050565b5f819050919050565b5f61230e6123096123048461215b565b6122eb565b61215b565b9050919050565b5f61231f826122f4565b9050919050565b5f61233082612315565b9050919050565b61234081612326565b82525050565b5f6020820190506123595f830184612337565b92915050565b7f7a65726f206164647200000000000000000000000000000000000000000000005f82015250565b5f61239360098361207b565b915061239e8261235f565b602082019050919050565b5f6020820190508181035f8301526123c081612387565b9050919050565b7f4e487b71000000000000000000000000000000000000000000000000000000005f52604160045260245ffd5b7f4e487b71000000000000000000000000000000000000000000000000000000005f52603260045260245ffd5b7f4e487b71000000000000000000000000000000000000000000000000000000005f52601160045260245ffd5b5f61245882612119565b915061246383612119565b925082820190508082111561247b5761247a612421565b5b92915050565b5f6060820190506124945f830186612122565b6124a16020830185612122565b6124ae6040830184612122565b949350505050565b5f6060820190506124c95f830186612285565b6124d66020830185612285565b6124e36040830184612122565b949350505050565b5f8115159050919050565b6124ff816124eb565b8114612509575f5ffd5b50565b5f8151905061251a816124f6565b92915050565b5f6020828403121561253557612534612153565b5b5f6125428482850161250c565b91505092915050565b5f81519050919050565b5f82825260208201905092915050565b5f819050602082019050919050565b61257d8161217a565b82525050565b5f61258e8383612574565b60208301905092915050565b5f602082019050919050565b5f6125b08261254b565b6125ba8185612555565b93506125c583612565565b805f5b838110156125f55781516125dc8882612583565b97506125e78361259a565b9250506001810190506125c8565b5085935050505092915050565b5f60a0820190506126155f830188612122565b6126226020830187612122565b818103604083015261263481866125a6565b90506126436060830185612285565b6126506080830184612122565b9695505050505050565b5f5ffd5b5f601f19601f8301169050919050565b6126778261265e565b810181811067ffffffffffffffff82111715612696576126956123c7565b5b80604052505050565b5f6126a861214a565b90506126b4828261266e565b919050565b5f67ffffffffffffffff8211156126d3576126d26123c7565b5b602082029050602081019050919050565b5f5ffd5b5f815190506126f6816121e0565b92915050565b5f61270e612709846126b9565b61269f565b90508083825260208201905060208402830185811115612731576127306126e4565b5b835b8181101561275a578061274688826126e8565b845260208401935050602081019050612733565b5050509392505050565b5f82601f8301126127785761277761265a565b5b81516127888482602086016126fc565b91505092915050565b5f602082840312156127a6576127a5612153565b5b5f82015167ffffffffffffffff8111156127c3576127c2612157565b5b6127cf84828501612764565b91505092915050565b5f6127e282612119565b91506127ed83612119565b925082820390508181111561280557612804612421565b5b92915050565b5f60408201905061281e5f830185612122565b61282b6020830184612122565b9392505050565b5f6040820190506128455f830185612285565b6128526020830184612122565b9392505050565b5f61286382612119565b91507fffffffffffffffffffffffffffffffffffffffffffffffffffffffffffffffff820361289557612894612421565b5b600182019050919050565b5f6040820190506128b35f830185612122565b81810360208301526128c581846125a6565b90509392505050565b5f819050919050565b5f6128f16128ec6128e7846128ce565b6122eb565b612119565b9050919050565b612901816128d7565b82525050565b5f60408201905061291a5f830185612285565b61292760208301846128f8565b939250505056fea264697066735822122024ff14c6731bbaa5cc2e78dab7220c6609c36a7f89f825d2d016b45c1e41bd3c64736f6c634300081e0033",
					"opcodes": "PUSH2 0x100 PUSH1 0x40 MSTORE CALLVALUE DUP1 ISZERO PUSH2 0x10 JUMPI PUSH0 PUSH0 REVERT JUMPDEST POP PUSH1 0x40 MLOAD PUSH2 0x2CF7 CODESIZE SUB DUP1 PUSH2 0x2CF7 DUP4 CODECOPY DUP2 DUP2 ADD PUSH1 0x40 MSTORE DUP2 ADD SWAP1 PUSH2 0x32 SWAP2 SWAP1 PUSH2 0x268 JUMP JUMPDEST PUSH0 PUSH20 0xFFFFFFFFFFFFFFFFFFFFFFFFFFFFFFFFFFFFFFFF AND DUP4 PUSH20 0xFFFFFFFFFFFFFFFFFFFFFFFFFFFFFFFFFFFFFFFF AND EQ DUP1 PUSH2 0x97 JUMPI POP PUSH0 PUSH20 0xFFFFFFFFFFFFFFFFFFFFFFFFFFFFFFFFFFFFFFFF AND DUP3 PUSH20 0xFFFFFFFFFFFFFFFFFFFFFFFFFFFFFFFFFFFFFFFF AND EQ JUMPDEST DUP1 PUSH2 0xA1 JUMPI POP PUSH0 DUP2 EQ JUMPDEST ISZERO PUSH2 0xD8 JUMPI PUSH1 0x40 MLOAD PUSH32 0x1F2A200500000000000000000000000000000000000000000000000000000000 DUP2 MSTORE PUSH1 0x4 ADD PUSH1 0x40 MLOAD DUP1 SWAP2 SUB SWAP1 REVERT JUMPDEST DUP3 PUSH20 0xFFFFFFFFFFFFFFFFFFFFFFFFFFFFFFFFFFFFFFFF AND PUSH1 0x80 DUP2 PUSH20 0xFFFFFFFFFFFFFFFFFFFFFFFFFFFFFFFFFFFFFFFF AND DUP2 MSTORE POP POP DUP2 PUSH20 0xFFFFFFFFFFFFFFFFFFFFFFFFFFFFFFFFFFFFFFFF AND PUSH1 0xA0 DUP2 PUSH20 0xFFFFFFFFFFFFFFFFFFFFFFFFFFFFFFFFFFFFFFFF AND DUP2 MSTORE POP POP PUSH20 0x7B79995E5F793A07BC00C21412E50ECAE098E7F9 PUSH20 0xFFFFFFFFFFFFFFFFFFFFFFFFFFFFFFFFFFFFFFFF AND PUSH1 0xC0 DUP2 PUSH20 0xFFFFFFFFFFFFFFFFFFFFFFFFFFFFFFFFFFFFFFFF AND DUP2 MSTORE POP POP DUP1 PUSH1 0xE0 DUP2 DUP2 MSTORE POP POP CALLER PUSH0 PUSH0 PUSH2 0x100 EXP DUP2 SLOAD DUP2 PUSH20 0xFFFFFFFFFFFFFFFFFFFFFFFFFFFFFFFFFFFFFFFF MUL NOT AND SWAP1 DUP4 PUSH20 0xFFFFFFFFFFFFFFFFFFFFFFFFFFFFFFFFFFFFFFFF AND MUL OR SWAP1 SSTORE POP POP POP POP PUSH2 0x2B8 JUMP JUMPDEST PUSH0 PUSH0 REVERT JUMPDEST PUSH0 PUSH20 0xFFFFFFFFFFFFFFFFFFFFFFFFFFFFFFFFFFFFFFFF DUP3 AND SWAP1 POP SWAP2 SWAP1 POP JUMP JUMPDEST PUSH0 PUSH2 0x204 DUP3 PUSH2 0x1DB JUMP JUMPDEST SWAP1 POP SWAP2 SWAP1 POP JUMP JUMPDEST PUSH2 0x214 DUP2 PUSH2 0x1FA JUMP JUMPDEST DUP2 EQ PUSH2 0x21E JUMPI PUSH0 PUSH0 REVERT JUMPDEST POP JUMP JUMPDEST PUSH0 DUP2 MLOAD SWAP1 POP PUSH2 0x22F DUP2 PUSH2 0x20B JUMP JUMPDEST SWAP3 SWAP2 POP POP JUMP JUMPDEST PUSH0 DUP2 SWAP1 POP SWAP2 SWAP1 POP JUMP JUMPDEST PUSH2 0x247 DUP2 PUSH2 0x235 JUMP JUMPDEST DUP2 EQ PUSH2 0x251 JUMPI PUSH0 PUSH0 REVERT JUMPDEST POP JUMP JUMPDEST PUSH0 DUP2 MLOAD SWAP1 POP PUSH2 0x262 DUP2 PUSH2 0x23E JUMP JUMPDEST SWAP3 SWAP2 POP POP JUMP JUMPDEST PUSH0 PUSH0 PUSH0 PUSH1 0x60 DUP5 DUP7 SUB SLT ISZERO PUSH2 0x27F JUMPI PUSH2 0x27E PUSH2 0x1D7 JUMP JUMPDEST JUMPDEST PUSH0 PUSH2 0x28C DUP7 DUP3 DUP8 ADD PUSH2 0x221 JUMP JUMPDEST SWAP4 POP POP PUSH1 0x20 PUSH2 0x29D DUP7 DUP3 DUP8 ADD PUSH2 0x221 JUMP JUMPDEST SWAP3 POP POP PUSH1 0x40 PUSH2 0x2AE DUP7 DUP3 DUP8 ADD PUSH2 0x254 JUMP JUMPDEST SWAP2 POP POP SWAP3 POP SWAP3 POP SWAP3 JUMP JUMPDEST PUSH1 0x80 MLOAD PUSH1 0xA0 MLOAD PUSH1 0xC0 MLOAD PUSH1 0xE0 MLOAD PUSH2 0x2964 PUSH2 0x393 PUSH0 CODECOPY PUSH0 DUP2 DUP2 PUSH2 0x893 ADD MSTORE DUP2 DUP2 PUSH2 0x8CC ADD MSTORE DUP2 DUP2 PUSH2 0xF12 ADD MSTORE DUP2 DUP2 PUSH2 0xF4B ADD MSTORE DUP2 DUP2 PUSH2 0x162B ADD MSTORE DUP2 DUP2 PUSH2 0x165B ADD MSTORE DUP2 DUP2 PUSH2 0x1C2D ADD MSTORE PUSH2 0x1C66 ADD MSTORE PUSH0 DUP2 DUP2 PUSH2 0xE28 ADD MSTORE DUP2 DUP2 PUSH2 0xFAA ADD MSTORE DUP2 DUP2 PUSH2 0x102A ADD MSTORE DUP2 DUP2 PUSH2 0x10BF ADD MSTORE DUP2 DUP2 PUSH2 0x1326 ADD MSTORE PUSH2 0x167F ADD MSTORE PUSH0 DUP2 DUP2 PUSH2 0x9E6 ADD MSTORE DUP2 DUP2 PUSH2 0xB29 ADD MSTORE DUP2 DUP2 PUSH2 0x104B ADD MSTORE DUP2 DUP2 PUSH2 0x11AE ADD MSTORE DUP2 DUP2 PUSH2 0x1E72 ADD MSTORE PUSH2 0x1E9E ADD MSTORE PUSH0 DUP2 DUP2 PUSH2 0x6F5 ADD MSTORE DUP2 DUP2 PUSH2 0x817 ADD MSTORE DUP2 DUP2 PUSH2 0xAA8 ADD MSTORE DUP2 DUP2 PUSH2 0xE96 ADD MSTORE DUP2 DUP2 PUSH2 0x112D ADD MSTORE DUP2 DUP2 PUSH2 0x13CF ADD MSTORE DUP2 DUP2 PUSH2 0x1A54 ADD MSTORE PUSH2 0x1CC6 ADD MSTORE PUSH2 0x2964 PUSH0 RETURN INVALID PUSH1 0x80 PUSH1 0x40 MSTORE PUSH1 0x4 CALLDATASIZE LT PUSH2 0x10C JUMPI PUSH0 CALLDATALOAD PUSH1 0xE0 SHR DUP1 PUSH4 0xA78C7B08 GT PUSH2 0x94 JUMPI DUP1 PUSH4 0xC3FD262D GT PUSH2 0x63 JUMPI DUP1 PUSH4 0xC3FD262D EQ PUSH2 0x382 JUMPI DUP1 PUSH4 0xDB81F99B EQ PUSH2 0x3BE JUMPI DUP1 PUSH4 0xF688BCFB EQ PUSH2 0x3E6 JUMPI DUP1 PUSH4 0xF887EA40 EQ PUSH2 0x40E JUMPI DUP1 PUSH4 0xFEEDAB00 EQ PUSH2 0x438 JUMPI PUSH2 0x14C JUMP JUMPDEST DUP1 PUSH4 0xA78C7B08 EQ PUSH2 0x2C8 JUMPI DUP1 PUSH4 0xAC4543BA EQ PUSH2 0x2F2 JUMPI DUP1 PUSH4 0xAD5C4648 EQ PUSH2 0x31C JUMPI DUP1 PUSH4 0xB3D8BCDC EQ PUSH2 0x346 JUMPI PUSH2 0x14C JUMP JUMPDEST DUP1 PUSH4 0x4DE5120E GT PUSH2 0xDB JUMPI DUP1 PUSH4 0x4DE5120E EQ PUSH2 0x1F4 JUMPI DUP1 PUSH4 0x883F1721 EQ PUSH2 0x230 JUMPI DUP1 PUSH4 0x89A30271 EQ PUSH2 0x24C JUMPI DUP1 PUSH4 0x8DA5CB5B EQ PUSH2 0x276 JUMPI DUP1 PUSH4 0x95CCEA67 EQ PUSH2 0x2A0 JUMPI PUSH2 0x14C JUMP JUMPDEST DUP1 PUSH4 0x58C8C2E EQ PUSH2 0x150 JUMPI DUP1 PUSH4 0x13AF4035 EQ PUSH2 0x17A JUMPI DUP1 PUSH4 0x34462BE6 EQ PUSH2 0x1A2 JUMPI DUP1 PUSH4 0x39657553 EQ PUSH2 0x1CC JUMPI PUSH2 0x14C JUMP JUMPDEST CALLDATASIZE PUSH2 0x14C JUMPI PUSH1 0x40 MLOAD PUSH32 0x8C379A000000000000000000000000000000000000000000000000000000000 DUP2 MSTORE PUSH1 0x4 ADD PUSH2 0x143 SWAP1 PUSH2 0x20FB JUMP JUMPDEST PUSH1 0x40 MLOAD DUP1 SWAP2 SUB SWAP1 REVERT JUMPDEST PUSH0 PUSH0 REVERT JUMPDEST CALLVALUE DUP1 ISZERO PUSH2 0x15B JUMPI PUSH0 PUSH0 REVERT JUMPDEST POP PUSH2 0x164 PUSH2 0x462 JUMP JUMPDEST PUSH1 0x40 MLOAD PUSH2 0x171 SWAP2 SWAP1 PUSH2 0x2131 JUMP JUMPDEST PUSH1 0x40 MLOAD DUP1 SWAP2 SUB SWAP1 RETURN JUMPDEST CALLVALUE DUP1 ISZERO PUSH2 0x185 JUMPI PUSH0 PUSH0 REVERT JUMPDEST POP PUSH2 0x1A0 PUSH1 0x4 DUP1 CALLDATASIZE SUB DUP2 ADD SWAP1 PUSH2 0x19B SWAP2 SWAP1 PUSH2 0x21B5 JUMP JUMPDEST PUSH2 0x46B JUMP JUMPDEST STOP JUMPDEST CALLVALUE DUP1 ISZERO PUSH2 0x1AD JUMPI PUSH0 PUSH0 REVERT JUMPDEST POP PUSH2 0x1B6 PUSH2 0x61F JUMP JUMPDEST PUSH1 0x40 MLOAD PUSH2 0x1C3 SWAP2 SWAP1 PUSH2 0x2131 JUMP JUMPDEST PUSH1 0x40 MLOAD DUP1 SWAP2 SUB SWAP1 RETURN JUMPDEST CALLVALUE DUP1 ISZERO PUSH2 0x1D7 JUMPI PUSH0 PUSH0 REVERT JUMPDEST POP PUSH2 0x1F2 PUSH1 0x4 DUP1 CALLDATASIZE SUB DUP2 ADD SWAP1 PUSH2 0x1ED SWAP2 SWAP1 PUSH2 0x220A JUMP JUMPDEST PUSH2 0x625 JUMP JUMPDEST STOP JUMPDEST CALLVALUE DUP1 ISZERO PUSH2 0x1FF JUMPI PUSH0 PUSH0 REVERT JUMPDEST POP PUSH2 0x21A PUSH1 0x4 DUP1 CALLDATASIZE SUB DUP2 ADD SWAP1 PUSH2 0x215 SWAP2 SWAP1 PUSH2 0x21B5 JUMP JUMPDEST PUSH2 0xD2B JUMP JUMPDEST PUSH1 0x40 MLOAD PUSH2 0x227 SWAP2 SWAP1 PUSH2 0x2131 JUMP JUMPDEST PUSH1 0x40 MLOAD DUP1 SWAP2 SUB SWAP1 RETURN JUMPDEST PUSH2 0x24A PUSH1 0x4 DUP1 CALLDATASIZE SUB DUP2 ADD SWAP1 PUSH2 0x245 SWAP2 SWAP1 PUSH2 0x225A JUMP JUMPDEST PUSH2 0xD40 JUMP JUMPDEST STOP JUMPDEST CALLVALUE DUP1 ISZERO PUSH2 0x257 JUMPI PUSH0 PUSH0 REVERT JUMPDEST POP PUSH2 0x260 PUSH2 0x13CD JUMP JUMPDEST PUSH1 0x40 MLOAD PUSH2 0x26D SWAP2 SWAP1 PUSH2 0x2294 JUMP JUMPDEST PUSH1 0x40 MLOAD DUP1 SWAP2 SUB SWAP1 RETURN JUMPDEST CALLVALUE DUP1 ISZERO PUSH2 0x281 JUMPI PUSH0 PUSH0 REVERT JUMPDEST POP PUSH2 0x28A PUSH2 0x13F1 JUMP JUMPDEST PUSH1 0x40 MLOAD PUSH2 0x297 SWAP2 SWAP1 PUSH2 0x2294 JUMP JUMPDEST PUSH1 0x40 MLOAD DUP1 SWAP2 SUB SWAP1 RETURN JUMPDEST CALLVALUE DUP1 ISZERO PUSH2 0x2AB JUMPI PUSH0 PUSH0 REVERT JUMPDEST POP PUSH2 0x2C6 PUSH1 0x4 DUP1 CALLDATASIZE SUB DUP2 ADD SWAP1 PUSH2 0x2C1 SWAP2 SWAP1 PUSH2 0x22AD JUMP JUMPDEST PUSH2 0x1415 JUMP JUMPDEST STOP JUMPDEST CALLVALUE DUP1 ISZERO PUSH2 0x2D3 JUMPI PUSH0 PUSH0 REVERT JUMPDEST POP PUSH2 0x2DC PUSH2 0x1625 JUMP JUMPDEST PUSH1 0x40 MLOAD PUSH2 0x2E9 SWAP2 SWAP1 PUSH2 0x2131 JUMP JUMPDEST PUSH1 0x40 MLOAD DUP1 SWAP2 SUB SWAP1 RETURN JUMPDEST CALLVALUE DUP1 ISZERO PUSH2 0x2FD JUMPI PUSH0 PUSH0 REVERT JUMPDEST POP PUSH2 0x306 PUSH2 0x1659 JUMP JUMPDEST PUSH1 0x40 MLOAD PUSH2 0x313 SWAP2 SWAP1 PUSH2 0x2131 JUMP JUMPDEST PUSH1 0x40 MLOAD DUP1 SWAP2 SUB SWAP1 RETURN JUMPDEST CALLVALUE DUP1 ISZERO PUSH2 0x327 JUMPI PUSH0 PUSH0 REVERT JUMPDEST POP PUSH2 0x330 PUSH2 0x167D JUMP JUMPDEST PUSH1 0x40 MLOAD PUSH2 0x33D SWAP2 SWAP1 PUSH2 0x2294 JUMP JUMPDEST PUSH1 0x40 MLOAD DUP1 SWAP2 SUB SWAP1 RETURN JUMPDEST CALLVALUE DUP1 ISZERO PUSH2 0x351 JUMPI PUSH0 PUSH0 REVERT JUMPDEST POP PUSH2 0x36C PUSH1 0x4 DUP1 CALLDATASIZE SUB DUP2 ADD SWAP1 PUSH2 0x367 SWAP2 SWAP1 PUSH2 0x21B5 JUMP JUMPDEST PUSH2 0x16A1 JUMP JUMPDEST PUSH1 0x40 MLOAD PUSH2 0x379 SWAP2 SWAP1 PUSH2 0x2131 JUMP JUMPDEST PUSH1 0x40 MLOAD DUP1 SWAP2 SUB SWAP1 RETURN JUMPDEST CALLVALUE DUP1 ISZERO PUSH2 0x38D JUMPI PUSH0 PUSH0 REVERT JUMPDEST POP PUSH2 0x3A8 PUSH1 0x4 DUP1 CALLDATASIZE SUB DUP2 ADD SWAP1 PUSH2 0x3A3 SWAP2 SWAP1 PUSH2 0x21B5 JUMP JUMPDEST PUSH2 0x16B6 JUMP JUMPDEST PUSH1 0x40 MLOAD PUSH2 0x3B5 SWAP2 SWAP1 PUSH2 0x2131 JUMP JUMPDEST PUSH1 0x40 MLOAD DUP1 SWAP2 SUB SWAP1 RETURN JUMPDEST CALLVALUE DUP1 ISZERO PUSH2 0x3C9 JUMPI PUSH0 PUSH0 REVERT JUMPDEST POP PUSH2 0x3E4 PUSH1 0x4 DUP1 CALLDATASIZE SUB DUP2 ADD SWAP1 PUSH2 0x3DF SWAP2 SWAP1 PUSH2 0x225A JUMP JUMPDEST PUSH2 0x16FC JUMP JUMPDEST STOP JUMPDEST CALLVALUE DUP1 ISZERO PUSH2 0x3F1 JUMPI PUSH0 PUSH0 REVERT JUMPDEST POP PUSH2 0x40C PUSH1 0x4 DUP1 CALLDATASIZE SUB DUP2 ADD SWAP1 PUSH2 0x407 SWAP2 SWAP1 PUSH2 0x225A JUMP JUMPDEST PUSH2 0x1B92 JUMP JUMPDEST STOP JUMPDEST CALLVALUE DUP1 ISZERO PUSH2 0x419 JUMPI PUSH0 PUSH0 REVERT JUMPDEST POP PUSH2 0x422 PUSH2 0x1E70 JUMP JUMPDEST PUSH1 0x40 MLOAD PUSH2 0x42F SWAP2 SWAP1 PUSH2 0x2346 JUMP JUMPDEST PUSH1 0x40 MLOAD DUP1 SWAP2 SUB SWAP1 RETURN JUMPDEST CALLVALUE DUP1 ISZERO PUSH2 0x443 JUMPI PUSH0 PUSH0 REVERT JUMPDEST POP PUSH2 0x44C PUSH2 0x1E94 JUMP JUMPDEST PUSH1 0x40 MLOAD PUSH2 0x459 SWAP2 SWAP1 PUSH2 0x2131 JUMP JUMPDEST PUSH1 0x40 MLOAD DUP1 SWAP2 SUB SWAP1 RETURN JUMPDEST PUSH5 0xBA43B7400 DUP2 JUMP JUMPDEST PUSH0 PUSH0 SWAP1 SLOAD SWAP1 PUSH2 0x100 EXP SWAP1 DIV PUSH20 0xFFFFFFFFFFFFFFFFFFFFFFFFFFFFFFFFFFFFFFFF AND PUSH20 0xFFFFFFFFFFFFFFFFFFFFFFFFFFFFFFFFFFFFFFFF AND CALLER PUSH20 0xFFFFFFFFFFFFFFFFFFFFFFFFFFFFFFFFFFFFFFFF AND EQ PUSH2 0x4F0 JUMPI PUSH1 0x40 MLOAD PUSH32 0x30CD747100000000000000000000000000000000000000000000000000000000 DUP2 MSTORE PUSH1 0x4 ADD PUSH1 0x40 MLOAD DUP1 SWAP2 SUB SWAP1 REVERT JUMPDEST PUSH0 PUSH20 0xFFFFFFFFFFFFFFFFFFFFFFFFFFFFFFFFFFFFFFFF AND DUP2 PUSH20 0xFFFFFFFFFFFFFFFFFFFFFFFFFFFFFFFFFFFFFFFF AND SUB PUSH2 0x55E JUMPI PUSH1 0x40 MLOAD PUSH32 0x8C379A000000000000000000000000000000000000000000000000000000000 DUP2 MSTORE PUSH1 0x4 ADD PUSH2 0x555 SWAP1 PUSH2 0x23A9 JUMP JUMPDEST PUSH1 0x40 MLOAD DUP1 SWAP2 SUB SWAP1 REVERT JUMPDEST PUSH0 PUSH0 PUSH0 SWAP1 SLOAD SWAP1 PUSH2 0x100 EXP SWAP1 DIV PUSH20 0xFFFFFFFFFFFFFFFFFFFFFFFFFFFFFFFFFFFFFFFF AND SWAP1 POP DUP2 PUSH0 PUSH0 PUSH2 0x100 EXP DUP2 SLOAD DUP2 PUSH20 0xFFFFFFFFFFFFFFFFFFFFFFFFFFFFFFFFFFFFFFFF MUL NOT AND SWAP1 DUP4 PUSH20 0xFFFFFFFFFFFFFFFFFFFFFFFFFFFFFFFFFFFFFFFF AND MUL OR SWAP1 SSTORE POP DUP2 PUSH20 0xFFFFFFFFFFFFFFFFFFFFFFFFFFFFFFFFFFFFFFFF AND DUP2 PUSH20 0xFFFFFFFFFFFFFFFFFFFFFFFFFFFFFFFFFFFFFFFF AND PUSH32 0xB532073B38C83145E3E5135377A08BF9AAB55BC0FD7C1179CD4FB995D2A5159C PUSH1 0x40 MLOAD PUSH1 0x40 MLOAD DUP1 SWAP2 SUB SWAP1 LOG3 POP POP JUMP JUMPDEST PUSH1 0x1 SLOAD DUP2 JUMP JUMPDEST PUSH1 0x2 PUSH0 SWAP1 SLOAD SWAP1 PUSH2 0x100 EXP SWAP1 DIV PUSH1 0xFF AND ISZERO PUSH2 0x66B JUMPI PUSH1 0x40 MLOAD PUSH32 0xED3BA6A600000000000000000000000000000000000000000000000000000000 DUP2 MSTORE PUSH1 0x4 ADD PUSH1 0x40 MLOAD DUP1 SWAP2 SUB SWAP1 REVERT JUMPDEST PUSH1 0x1 PUSH1 0x2 PUSH0 PUSH2 0x100 EXP DUP2 SLOAD DUP2 PUSH1 0xFF MUL NOT AND SWAP1 DUP4 ISZERO ISZERO MUL OR SWAP1 SSTORE POP PUSH0 DUP3 SUB PUSH2 0x6BE JUMPI PUSH1 0x40 MLOAD PUSH32 0x1F2A200500000000000000000000000000000000000000000000000000000000 DUP2 MSTORE PUSH1 0x4 ADD PUSH1 0x40 MLOAD DUP1 SWAP2 SUB SWAP1 REVERT JUMPDEST PUSH0 PUSH20 0xFFFFFFFFFFFFFFFFFFFFFFFFFFFFFFFFFFFFFFFF AND DUP4 PUSH20 0xFFFFFFFFFFFFFFFFFFFFFFFFFFFFFFFFFFFFFFFF AND EQ DUP1 PUSH2 0x743 JUMPI POP PUSH32 0x0 PUSH20 0xFFFFFFFFFFFFFFFFFFFFFFFFFFFFFFFFFFFFFFFF AND DUP4 PUSH20 0xFFFFFFFFFFFFFFFFFFFFFFFFFFFFFFFFFFFFFFFF AND EQ JUMPDEST ISZERO PUSH2 0x77A JUMPI PUSH1 0x40 MLOAD PUSH32 0xC1AB6DC100000000000000000000000000000000000000000000000000000000 DUP2 MSTORE PUSH1 0x4 ADD PUSH1 0x40 MLOAD DUP1 SWAP2 SUB SWAP1 REVERT JUMPDEST PUSH0 PUSH1 0x2 PUSH8 0xFFFFFFFFFFFFFFFF DUP2 GT ISZERO PUSH2 0x796 JUMPI PUSH2 0x795 PUSH2 0x23C7 JUMP JUMPDEST JUMPDEST PUSH1 0x40 MLOAD SWAP1 DUP1 DUP3 MSTORE DUP1 PUSH1 0x20 MUL PUSH1 0x20 ADD DUP3 ADD PUSH1 0x40 MSTORE DUP1 ISZERO PUSH2 0x7C4 JUMPI DUP2 PUSH1 0x20 ADD PUSH1 0x20 DUP3 MUL DUP1 CALLDATASIZE DUP4 CALLDATACOPY DUP1 DUP3 ADD SWAP2 POP POP SWAP1 POP JUMPDEST POP SWAP1 POP DUP4 DUP2 PUSH0 DUP2 MLOAD DUP2 LT PUSH2 0x7DB JUMPI PUSH2 0x7DA PUSH2 0x23F4 JUMP JUMPDEST JUMPDEST PUSH1 0x20 MUL PUSH1 0x20 ADD ADD SWAP1 PUSH20 0xFFFFFFFFFFFFFFFFFFFFFFFFFFFFFFFFFFFFFFFF AND SWAP1 DUP2 PUSH20 0xFFFFFFFFFFFFFFFFFFFFFFFFFFFFFFFFFFFFFFFF AND DUP2 MSTORE POP POP PUSH32 0x0 DUP2 PUSH1 0x1 DUP2 MLOAD DUP2 LT PUSH2 0x84A JUMPI PUSH2 0x849 PUSH2 0x23F4 JUMP JUMPDEST JUMPDEST PUSH1 0x20 MUL PUSH1 0x20 ADD ADD SWAP1 PUSH20 0xFFFFFFFFFFFFFFFFFFFFFFFFFFFFFFFFFFFFFFFF AND SWAP1 DUP2 PUSH20 0xFFFFFFFFFFFFFFFFFFFFFFFFFFFFFFFFFFFFFFFF AND DUP2 MSTORE POP POP PUSH0 PUSH2 0x88F DUP3 DUP6 PUSH2 0x1E9B JUMP JUMPDEST SWAP1 POP PUSH32 0x0 DUP2 PUSH1 0x1 SLOAD PUSH2 0x8C0 SWAP2 SWAP1 PUSH2 0x244E JUMP JUMPDEST GT ISZERO PUSH2 0x929 JUMPI DUP1 PUSH1 0x1 SLOAD PUSH32 0x0 PUSH1 0x40 MLOAD PUSH32 0x621E5A6900000000000000000000000000000000000000000000000000000000 DUP2 MSTORE PUSH1 0x4 ADD PUSH2 0x920 SWAP4 SWAP3 SWAP2 SWAP1 PUSH2 0x2481 JUMP JUMPDEST PUSH1 0x40 MLOAD DUP1 SWAP2 SUB SWAP1 REVERT JUMPDEST PUSH0 DUP6 PUSH20 0xFFFFFFFFFFFFFFFFFFFFFFFFFFFFFFFFFFFFFFFF AND PUSH4 0x23B872DD CALLER ADDRESS DUP9 PUSH1 0x40 MLOAD DUP5 PUSH4 0xFFFFFFFF AND PUSH1 0xE0 SHL DUP2 MSTORE PUSH1 0x4 ADD PUSH2 0x967 SWAP4 SWAP3 SWAP2 SWAP1 PUSH2 0x24B6 JUMP JUMPDEST PUSH1 0x20 PUSH1 0x40 MLOAD DUP1 DUP4 SUB DUP2 PUSH0 DUP8 GAS CALL ISZERO DUP1 ISZERO PUSH2 0x983 JUMPI RETURNDATASIZE PUSH0 PUSH0 RETURNDATACOPY RETURNDATASIZE PUSH0 REVERT JUMPDEST POP POP POP POP PUSH1 0x40 MLOAD RETURNDATASIZE PUSH1 0x1F NOT PUSH1 0x1F DUP3 ADD AND DUP3 ADD DUP1 PUSH1 0x40 MSTORE POP DUP2 ADD SWAP1 PUSH2 0x9A7 SWAP2 SWAP1 PUSH2 0x2520 JUMP JUMPDEST SWAP1 POP DUP1 PUSH2 0x9E0 JUMPI PUSH1 0x40 MLOAD PUSH32 0x81CEFF3000000000000000000000000000000000000000000000000000000000 DUP2 MSTORE PUSH1 0x4 ADD PUSH1 0x40 MLOAD DUP1 SWAP2 SUB SWAP1 REVERT JUMPDEST PUSH2 0xA0B DUP7 PUSH32 0x0 DUP8 PUSH2 0x1F7E JUMP JUMPDEST PUSH0 PUSH1 0x2 PUSH8 0xFFFFFFFFFFFFFFFF DUP2 GT ISZERO PUSH2 0xA27 JUMPI PUSH2 0xA26 PUSH2 0x23C7 JUMP JUMPDEST JUMPDEST PUSH1 0x40 MLOAD SWAP1 DUP1 DUP3 MSTORE DUP1 PUSH1 0x20 MUL PUSH1 0x20 ADD DUP3 ADD PUSH1 0x40 MSTORE DUP1 ISZERO PUSH2 0xA55 JUMPI DUP2 PUSH1 0x20 ADD PUSH1 0x20 DUP3 MUL DUP1 CALLDATASIZE DUP4 CALLDATACOPY DUP1 DUP3 ADD SWAP2 POP POP SWAP1 POP JUMPDEST POP SWAP1 POP DUP7 DUP2 PUSH0 DUP2 MLOAD DUP2 LT PUSH2 0xA6C JUMPI PUSH2 0xA6B PUSH2 0x23F4 JUMP JUMPDEST JUMPDEST PUSH1 0x20 MUL PUSH1 0x20 ADD ADD SWAP1 PUSH20 0xFFFFFFFFFFFFFFFFFFFFFFFFFFFFFFFFFFFFFFFF AND SWAP1 DUP2 PUSH20 0xFFFFFFFFFFFFFFFFFFFFFFFFFFFFFFFFFFFFFFFF AND DUP2 MSTORE POP POP PUSH32 0x0 DUP2 PUSH1 0x1 DUP2 MLOAD DUP2 LT PUSH2 0xADB JUMPI PUSH2 0xADA PUSH2 0x23F4 JUMP JUMPDEST JUMPDEST PUSH1 0x20 MUL PUSH1 0x20 ADD ADD SWAP1 PUSH20 0xFFFFFFFFFFFFFFFFFFFFFFFFFFFFFFFFFFFFFFFF AND SWAP1 DUP2 PUSH20 0xFFFFFFFFFFFFFFFFFFFFFFFFFFFFFFFFFFFFFFFF AND DUP2 MSTORE POP POP PUSH0 PUSH2 0x12C TIMESTAMP PUSH2 0xB24 SWAP2 SWAP1 PUSH2 0x244E JUMP JUMPDEST SWAP1 POP PUSH0 PUSH32 0x0 PUSH20 0xFFFFFFFFFFFFFFFFFFFFFFFFFFFFFFFFFFFFFFFF AND PUSH4 0x38ED1739 DUP10 DUP10 DUP7 ADDRESS DUP8 PUSH1 0x40 MLOAD DUP7 PUSH4 0xFFFFFFFF AND PUSH1 0xE0 SHL DUP2 MSTORE PUSH1 0x4 ADD PUSH2 0xB88 SWAP6 SWAP5 SWAP4 SWAP3 SWAP2 SWAP1 PUSH2 0x2602 JUMP JUMPDEST PUSH0 PUSH1 0x40 MLOAD DUP1 DUP4 SUB DUP2 PUSH0 DUP8 GAS CALL ISZERO DUP1 ISZERO PUSH2 0xBA3 JUMPI RETURNDATASIZE PUSH0 PUSH0 RETURNDATACOPY RETURNDATASIZE PUSH0 REVERT JUMPDEST POP POP POP POP PUSH1 0x40 MLOAD RETURNDATASIZE PUSH0 DUP3 RETURNDATACOPY RETURNDATASIZE PUSH1 0x1F NOT PUSH1 0x1F DUP3 ADD AND DUP3 ADD DUP1 PUSH1 0x40 MSTORE POP DUP2 ADD SWAP1 PUSH2 0xBCB SWAP2 SWAP1 PUSH2 0x2791 JUMP JUMPDEST SWAP1 POP PUSH1 0x2 DUP2 MLOAD LT ISZERO PUSH2 0xC09 JUMPI PUSH1 0x40 MLOAD PUSH32 0x81CEFF3000000000000000000000000000000000000000000000000000000000 DUP2 MSTORE PUSH1 0x4 ADD PUSH1 0x40 MLOAD DUP1 SWAP2 SUB SWAP1 REVERT JUMPDEST PUSH0 DUP2 PUSH1 0x1 DUP4 MLOAD PUSH2 0xC19 SWAP2 SWAP1 PUSH2 0x27D8 JUMP JUMPDEST DUP2 MLOAD DUP2 LT PUSH2 0xC2A JUMPI PUSH2 0xC29 PUSH2 0x23F4 JUMP JUMPDEST JUMPDEST PUSH1 0x20 MUL PUSH1 0x20 ADD ADD MLOAD SWAP1 POP DUP1 PUSH1 0x1 PUSH0 DUP3 DUP3 SLOAD PUSH2 0xC45 SWAP2 SWAP1 PUSH2 0x244E JUMP JUMPDEST SWAP3 POP POP DUP2 SWAP1 SSTORE POP DUP1 PUSH1 0x3 PUSH0 CALLER PUSH20 0xFFFFFFFFFFFFFFFFFFFFFFFFFFFFFFFFFFFFFFFF AND PUSH20 0xFFFFFFFFFFFFFFFFFFFFFFFFFFFFFFFFFFFFFFFF AND DUP2 MSTORE PUSH1 0x20 ADD SWAP1 DUP2 MSTORE PUSH1 0x20 ADD PUSH0 KECCAK256 PUSH0 DUP3 DUP3 SLOAD PUSH2 0xC98 SWAP2 SWAP1 PUSH2 0x244E JUMP JUMPDEST SWAP3 POP POP DUP2 SWAP1 SSTORE POP DUP10 PUSH20 0xFFFFFFFFFFFFFFFFFFFFFFFFFFFFFFFFFFFFFFFF AND CALLER PUSH20 0xFFFFFFFFFFFFFFFFFFFFFFFFFFFFFFFFFFFFFFFF AND PUSH32 0xAB466672CD9ADAE1C2072831F94C1068597B355987D2A64D4E5A7DCD74E5CDA5 DUP12 DUP5 PUSH1 0x40 MLOAD PUSH2 0xCFE SWAP3 SWAP2 SWAP1 PUSH2 0x280B JUMP JUMPDEST PUSH1 0x40 MLOAD DUP1 SWAP2 SUB SWAP1 LOG3 POP POP POP POP POP POP POP PUSH0 PUSH1 0x2 PUSH0 PUSH2 0x100 EXP DUP2 SLOAD DUP2 PUSH1 0xFF MUL NOT AND SWAP1 DUP4 ISZERO ISZERO MUL OR SWAP1 SSTORE POP POP POP POP JUMP JUMPDEST PUSH1 0x5 PUSH1 0x20 MSTORE DUP1 PUSH0 MSTORE PUSH1 0x40 PUSH0 KECCAK256 PUSH0 SWAP2 POP SWAP1 POP SLOAD DUP2 JUMP JUMPDEST PUSH1 0x2 PUSH0 SWAP1 SLOAD SWAP1 PUSH2 0x100 EXP SWAP1 DIV PUSH1 0xFF AND ISZERO PUSH2 0xD86 JUMPI PUSH1 0x40 MLOAD PUSH32 0xED3BA6A600000000000000000000000000000000000000000000000000000000 DUP2 MSTORE PUSH1 0x4 ADD PUSH1 0x40 MLOAD DUP1 SWAP2 SUB SWAP1 REVERT JUMPDEST PUSH1 0x1 PUSH1 0x2 PUSH0 PUSH2 0x100 EXP DUP2 SLOAD DUP2 PUSH1 0xFF MUL NOT AND SWAP1 DUP4 ISZERO ISZERO MUL OR SWAP1 SSTORE POP PUSH0 CALLVALUE SUB PUSH2 0xDD9 JUMPI PUSH1 0x40 MLOAD PUSH32 0x1F2A200500000000000000000000000000000000000000000000000000000000 DUP2 MSTORE PUSH1 0x4 ADD PUSH1 0x40 MLOAD DUP1 SWAP2 SUB SWAP1 REVERT JUMPDEST PUSH0 PUSH1 0x2 PUSH8 0xFFFFFFFFFFFFFFFF DUP2 GT ISZERO PUSH2 0xDF5 JUMPI PUSH2 0xDF4 PUSH2 0x23C7 JUMP JUMPDEST JUMPDEST PUSH1 0x40 MLOAD SWAP1 DUP1 DUP3 MSTORE DUP1 PUSH1 0x20 MUL PUSH1 0x20 ADD DUP3 ADD PUSH1 0x40 MSTORE DUP1 ISZERO PUSH2 0xE23 JUMPI DUP2 PUSH1 0x20 ADD PUSH1 0x20 DUP3 MUL DUP1 CALLDATASIZE DUP4 CALLDATACOPY DUP1 DUP3 ADD SWAP2 POP POP SWAP1 POP JUMPDEST POP SWAP1 POP PUSH32 0x0 DUP2 PUSH0 DUP2 MLOAD DUP2 LT PUSH2 0xE5A JUMPI PUSH2 0xE59 PUSH2 0x23F4 JUMP JUMPDEST JUMPDEST PUSH1 0x20 MUL PUSH1 0x20 ADD ADD SWAP1 PUSH20 0xFFFFFFFFFFFFFFFFFFFFFFFFFFFFFFFFFFFFFFFF AND SWAP1 DUP2 PUSH20 0xFFFFFFFFFFFFFFFFFFFFFFFFFFFFFFFFFFFFFFFF AND DUP2 MSTORE POP POP PUSH32 0x0 DUP2 PUSH1 0x1 DUP2 MLOAD DUP2 LT PUSH2 0xEC9 JUMPI PUSH2 0xEC8 PUSH2 0x23F4 JUMP JUMPDEST JUMPDEST PUSH1 0x20 MUL PUSH1 0x20 ADD ADD SWAP1 PUSH20 0xFFFFFFFFFFFFFFFFFFFFFFFFFFFFFFFFFFFFFFFF AND SWAP1 DUP2 PUSH20 0xFFFFFFFFFFFFFFFFFFFFFFFFFFFFFFFFFFFFFFFF AND DUP2 MSTORE POP POP PUSH0 PUSH2 0xF0E DUP3 CALLVALUE PUSH2 0x1E9B JUMP JUMPDEST SWAP1 POP PUSH32 0x0 DUP2 PUSH1 0x1 SLOAD PUSH2 0xF3F SWAP2 SWAP1 PUSH2 0x244E JUMP JUMPDEST GT ISZERO PUSH2 0xFA8 JUMPI DUP1 PUSH1 0x1 SLOAD PUSH32 0x0 PUSH1 0x40 MLOAD PUSH32 0x621E5A6900000000000000000000000000000000000000000000000000000000 DUP2 MSTORE PUSH1 0x4 ADD PUSH2 0xF9F SWAP4 SWAP3 SWAP2 SWAP1 PUSH2 0x2481 JUMP JUMPDEST PUSH1 0x40 MLOAD DUP1 SWAP2 SUB SWAP1 REVERT JUMPDEST PUSH32 0x0 PUSH20 0xFFFFFFFFFFFFFFFFFFFFFFFFFFFFFFFFFFFFFFFF AND PUSH4 0xD0E30DB0 CALLVALUE PUSH1 0x40 MLOAD DUP3 PUSH4 0xFFFFFFFF AND PUSH1 0xE0 SHL DUP2 MSTORE PUSH1 0x4 ADD PUSH0 PUSH1 0x40 MLOAD DUP1 DUP4 SUB DUP2 DUP6 DUP9 DUP1 EXTCODESIZE ISZERO DUP1 ISZERO PUSH2 0x100E JUMPI PUSH0 PUSH0 REVERT JUMPDEST POP GAS CALL ISZERO DUP1 ISZERO PUSH2 0x1020 JUMPI RETURNDATASIZE PUSH0 PUSH0 RETURNDATACOPY RETURNDATASIZE PUSH0 REVERT JUMPDEST POP POP POP POP POP PUSH2 0x1070 PUSH32 0x0 PUSH32 0x0 CALLVALUE PUSH2 0x1F7E JUMP JUMPDEST PUSH0 PUSH1 0x2 PUSH8 0xFFFFFFFFFFFFFFFF DUP2 GT ISZERO PUSH2 0x108C JUMPI PUSH2 0x108B PUSH2 0x23C7 JUMP JUMPDEST JUMPDEST PUSH1 0x40 MLOAD SWAP1 DUP1 DUP3 MSTORE DUP1 PUSH1 0x20 MUL PUSH1 0x20 ADD DUP3 ADD PUSH1 0x40 MSTORE DUP1 ISZERO PUSH2 0x10BA JUMPI DUP2 PUSH1 0x20 ADD PUSH1 0x20 DUP3 MUL DUP1 CALLDATASIZE DUP4 CALLDATACOPY DUP1 DUP3 ADD SWAP2 POP POP SWAP1 POP JUMPDEST POP SWAP1 POP PUSH32 0x0 DUP2 PUSH0 DUP2 MLOAD DUP2 LT PUSH2 0x10F1 JUMPI PUSH2 0x10F0 PUSH2 0x23F4 JUMP JUMPDEST JUMPDEST PUSH1 0x20 MUL PUSH1 0x20 ADD ADD SWAP1 PUSH20 0xFFFFFFFFFFFFFFFFFFFFFFFFFFFFFFFFFFFFFFFF AND SWAP1 DUP2 PUSH20 0xFFFFFFFFFFFFFFFFFFFFFFFFFFFFFFFFFFFFFFFF AND DUP2 MSTORE POP POP PUSH32 0x0 DUP2 PUSH1 0x1 DUP2 MLOAD DUP2 LT PUSH2 0x1160 JUMPI PUSH2 0x115F PUSH2 0x23F4 JUMP JUMPDEST JUMPDEST PUSH1 0x20 MUL PUSH1 0x20 ADD ADD SWAP1 PUSH20 0xFFFFFFFFFFFFFFFFFFFFFFFFFFFFFFFFFFFFFFFF AND SWAP1 DUP2 PUSH20 0xFFFFFFFFFFFFFFFFFFFFFFFFFFFFFFFFFFFFFFFF AND DUP2 MSTORE POP POP PUSH0 PUSH2 0x12C TIMESTAMP PUSH2 0x11A9 SWAP2 SWAP1 PUSH2 0x244E JUMP JUMPDEST SWAP1 POP PUSH0 PUSH32 0x0 PUSH20 0xFFFFFFFFFFFFFFFFFFFFFFFFFFFFFFFFFFFFFFFF AND PUSH4 0x38ED1739 CALLVALUE DUP9 DUP7 ADDRESS DUP8 PUSH1 0x40 MLOAD DUP7 PUSH4 0xFFFFFFFF AND PUSH1 0xE0 SHL DUP2 MSTORE PUSH1 0x4 ADD PUSH2 0x120D SWAP6 SWAP5 SWAP4 SWAP3 SWAP2 SWAP1 PUSH2 0x2602 JUMP JUMPDEST PUSH0 PUSH1 0x40 MLOAD DUP1 DUP4 SUB DUP2 PUSH0 DUP8 GAS CALL ISZERO DUP1 ISZERO PUSH2 0x1228 JUMPI RETURNDATASIZE PUSH0 PUSH0 RETURNDATACOPY RETURNDATASIZE PUSH0 REVERT JUMPDEST POP POP POP POP PUSH1 0x40 MLOAD RETURNDATASIZE PUSH0 DUP3 RETURNDATACOPY RETURNDATASIZE PUSH1 0x1F NOT PUSH1 0x1F DUP3 ADD AND DUP3 ADD DUP1 PUSH1 0x40 MSTORE POP DUP2 ADD SWAP1 PUSH2 0x1250 SWAP2 SWAP1 PUSH2 0x2791 JUMP JUMPDEST SWAP1 POP PUSH1 0x2 DUP2 MLOAD LT ISZERO PUSH2 0x128E JUMPI PUSH1 0x40 MLOAD PUSH32 0x81CEFF3000000000000000000000000000000000000000000000000000000000 DUP2 MSTORE PUSH1 0x4 ADD PUSH1 0x40 MLOAD DUP1 SWAP2 SUB SWAP1 REVERT JUMPDEST PUSH0 DUP2 PUSH1 0x1 DUP4 MLOAD PUSH2 0x129E SWAP2 SWAP1 PUSH2 0x27D8 JUMP JUMPDEST DUP2 MLOAD DUP2 LT PUSH2 0x12AF JUMPI PUSH2 0x12AE PUSH2 0x23F4 JUMP JUMPDEST JUMPDEST PUSH1 0x20 MUL PUSH1 0x20 ADD ADD MLOAD SWAP1 POP DUP1 PUSH1 0x1 PUSH0 DUP3 DUP3 SLOAD PUSH2 0x12CA SWAP2 SWAP1 PUSH2 0x244E JUMP JUMPDEST SWAP3 POP POP DUP2 SWAP1 SSTORE POP DUP1 PUSH1 0x3 PUSH0 CALLER PUSH20 0xFFFFFFFFFFFFFFFFFFFFFFFFFFFFFFFFFFFFFFFF AND PUSH20 0xFFFFFFFFFFFFFFFFFFFFFFFFFFFFFFFFFFFFFFFF AND DUP2 MSTORE PUSH1 0x20 ADD SWAP1 DUP2 MSTORE PUSH1 0x20 ADD PUSH0 KECCAK256 PUSH0 DUP3 DUP3 SLOAD PUSH2 0x131D SWAP2 SWAP1 PUSH2 0x244E JUMP JUMPDEST SWAP3 POP POP DUP2 SWAP1 SSTORE POP PUSH32 0x0 PUSH20 0xFFFFFFFFFFFFFFFFFFFFFFFFFFFFFFFFFFFFFFFF AND CALLER PUSH20 0xFFFFFFFFFFFFFFFFFFFFFFFFFFFFFFFFFFFFFFFF AND PUSH32 0xAB466672CD9ADAE1C2072831F94C1068597B355987D2A64D4E5A7DCD74E5CDA5 CALLVALUE DUP5 PUSH1 0x40 MLOAD PUSH2 0x13A3 SWAP3 SWAP2 SWAP1 PUSH2 0x280B JUMP JUMPDEST PUSH1 0x40 MLOAD DUP1 SWAP2 SUB SWAP1 LOG3 POP POP POP POP POP POP PUSH0 PUSH1 0x2 PUSH0 PUSH2 0x100 EXP DUP2 SLOAD DUP2 PUSH1 0xFF MUL NOT AND SWAP1 DUP4 ISZERO ISZERO MUL OR SWAP1 SSTORE POP POP JUMP JUMPDEST PUSH32 0x0 DUP2 JUMP JUMPDEST PUSH0 PUSH0 SWAP1 SLOAD SWAP1 PUSH2 0x100 EXP SWAP1 DIV PUSH20 0xFFFFFFFFFFFFFFFFFFFFFFFFFFFFFFFFFFFFFFFF AND DUP2 JUMP JUMPDEST PUSH0 PUSH0 SWAP1 SLOAD SWAP1 PUSH2 0x100 EXP SWAP1 DIV PUSH20 0xFFFFFFFFFFFFFFFFFFFFFFFFFFFFFFFFFFFFFFFF AND PUSH20 0xFFFFFFFFFFFFFFFFFFFFFFFFFFFFFFFFFFFFFFFF AND CALLER PUSH20 0xFFFFFFFFFFFFFFFFFFFFFFFFFFFFFFFFFFFFFFFF AND EQ PUSH2 0x149A JUMPI PUSH1 0x40 MLOAD PUSH32 0x30CD747100000000000000000000000000000000000000000000000000000000 DUP2 MSTORE PUSH1 0x4 ADD PUSH1 0x40 MLOAD DUP1 SWAP2 SUB SWAP1 REVERT JUMPDEST PUSH0 PUSH20 0xFFFFFFFFFFFFFFFFFFFFFFFFFFFFFFFFFFFFFFFF AND DUP3 PUSH20 0xFFFFFFFFFFFFFFFFFFFFFFFFFFFFFFFFFFFFFFFF AND SUB PUSH2 0x1536 JUMPI PUSH0 PUSH0 SWAP1 SLOAD SWAP1 PUSH2 0x100 EXP SWAP1 DIV PUSH20 0xFFFFFFFFFFFFFFFFFFFFFFFFFFFFFFFFFFFFFFFF AND PUSH20 0xFFFFFFFFFFFFFFFFFFFFFFFFFFFFFFFFFFFFFFFF AND PUSH2 0x8FC DUP3 SWAP1 DUP2 ISZERO MUL SWAP1 PUSH1 0x40 MLOAD PUSH0 PUSH1 0x40 MLOAD DUP1 DUP4 SUB DUP2 DUP6 DUP9 DUP9 CALL SWAP4 POP POP POP POP ISZERO DUP1 ISZERO PUSH2 0x1530 JUMPI RETURNDATASIZE PUSH0 PUSH0 RETURNDATACOPY RETURNDATASIZE PUSH0 REVERT JUMPDEST POP PUSH2 0x15D3 JUMP JUMPDEST DUP2 PUSH20 0xFFFFFFFFFFFFFFFFFFFFFFFFFFFFFFFFFFFFFFFF AND PUSH4 0xA9059CBB PUSH0 PUSH0 SWAP1 SLOAD SWAP1 PUSH2 0x100 EXP SWAP1 DIV PUSH20 0xFFFFFFFFFFFFFFFFFFFFFFFFFFFFFFFFFFFFFFFF AND DUP4 PUSH1 0x40 MLOAD DUP4 PUSH4 0xFFFFFFFF AND PUSH1 0xE0 SHL DUP2 MSTORE PUSH1 0x4 ADD PUSH2 0x1591 SWAP3 SWAP2 SWAP1 PUSH2 0x2832 JUMP JUMPDEST PUSH1 0x20 PUSH1 0x40 MLOAD DUP1 DUP4 SUB DUP2 PUSH0 DUP8 GAS CALL ISZERO DUP1 ISZERO PUSH2 0x15AD JUMPI RETURNDATASIZE PUSH0 PUSH0 RETURNDATACOPY RETURNDATASIZE PUSH0 REVERT JUMPDEST POP POP POP POP PUSH1 0x40 MLOAD RETURNDATASIZE PUSH1 0x1F NOT PUSH1 0x1F DUP3 ADD AND DUP3 ADD DUP1 PUSH1 0x40 MSTORE POP DUP2 ADD SWAP1 PUSH2 0x15D1 SWAP2 SWAP1 PUSH2 0x2520 JUMP JUMPDEST POP JUMPDEST DUP2 PUSH20 0xFFFFFFFFFFFFFFFFFFFFFFFFFFFFFFFFFFFFFFFF AND PUSH32 0x5FAFA99D0643513820BE26656B45130B01E1C03062E1266BF36F88CBD3BD9695 DUP3 PUSH1 0x40 MLOAD PUSH2 0x1619 SWAP2 SWAP1 PUSH2 0x2131 JUMP JUMPDEST PUSH1 0x40 MLOAD DUP1 SWAP2 SUB SWAP1 LOG2 POP POP JUMP JUMPDEST PUSH0 PUSH1 0x1 SLOAD PUSH32 0x0 PUSH2 0x1654 SWAP2 SWAP1 PUSH2 0x27D8 JUMP JUMPDEST SWAP1 POP SWAP1 JUMP JUMPDEST PUSH32 0x0 DUP2 JUMP JUMPDEST PUSH32 0x0 DUP2 JUMP JUMPDEST PUSH1 0x4 PUSH1 0x20 MSTORE DUP1 PUSH0 MSTORE PUSH1 0x40 PUSH0 KECCAK256 PUSH0 SWAP2 POP SWAP1 POP SLOAD DUP2 JUMP JUMPDEST PUSH0 PUSH1 0x3 PUSH0 DUP4 PUSH20 0xFFFFFFFFFFFFFFFFFFFFFFFFFFFFFFFFFFFFFFFF AND PUSH20 0xFFFFFFFFFFFFFFFFFFFFFFFFFFFFFFFFFFFFFFFF AND DUP2 MSTORE PUSH1 0x20 ADD SWAP1 DUP2 MSTORE PUSH1 0x20 ADD PUSH0 KECCAK256 SLOAD SWAP1 POP SWAP2 SWAP1 POP JUMP JUMPDEST PUSH1 0x2 PUSH0 SWAP1 SLOAD SWAP1 PUSH2 0x100 EXP SWAP1 DIV PUSH1 0xFF AND ISZERO PUSH2 0x1742 JUMPI PUSH1 0x40 MLOAD PUSH32 0xED3BA6A600000000000000000000000000000000000000000000000000000000 DUP2 MSTORE PUSH1 0x4 ADD PUSH1 0x40 MLOAD DUP1 SWAP2 SUB SWAP1 REVERT JUMPDEST PUSH1 0x1 PUSH1 0x2 PUSH0 PUSH2 0x100 EXP DUP2 SLOAD DUP2 PUSH1 0xFF MUL NOT AND SWAP1 DUP4 ISZERO ISZERO MUL OR SWAP1 SSTORE POP PUSH0 DUP2 SUB PUSH2 0x1795 JUMPI PUSH1 0x40 MLOAD PUSH32 0x1F2A200500000000000000000000000000000000000000000000000000000000 DUP2 MSTORE PUSH1 0x4 ADD PUSH1 0x40 MLOAD DUP1 SWAP2 SUB SWAP1 REVERT JUMPDEST PUSH5 0xBA43B7400 DUP2 GT ISZERO PUSH2 0x17E6 JUMPI DUP1 PUSH5 0xBA43B7400 PUSH1 0x40 MLOAD PUSH32 0xB945E2D800000000000000000000000000000000000000000000000000000000 DUP2 MSTORE PUSH1 0x4 ADD PUSH2 0x17DD SWAP3 SWAP2 SWAP1 PUSH2 0x280B JUMP JUMPDEST PUSH1 0x40 MLOAD DUP1 SWAP2 SUB SWAP1 REVERT JUMPDEST PUSH3 0x15180 PUSH1 0x5 PUSH0 CALLER PUSH20 0xFFFFFFFFFFFFFFFFFFFFFFFFFFFFFFFFFFFFFFFF AND PUSH20 0xFFFFFFFFFFFFFFFFFFFFFFFFFFFFFFFFFFFFFFFF AND DUP2 MSTORE PUSH1 0x20 ADD SWAP1 DUP2 MSTORE PUSH1 0x20 ADD PUSH0 KECCAK256 SLOAD PUSH2 0x1832 SWAP2 SWAP1 PUSH2 0x244E JUMP JUMPDEST TIMESTAMP LT ISZERO PUSH2 0x18D0 JUMPI PUSH0 TIMESTAMP PUSH3 0x15180 PUSH1 0x5 PUSH0 CALLER PUSH20 0xFFFFFFFFFFFFFFFFFFFFFFFFFFFFFFFFFFFFFFFF AND PUSH20 0xFFFFFFFFFFFFFFFFFFFFFFFFFFFFFFFFFFFFFFFF AND DUP2 MSTORE PUSH1 0x20 ADD SWAP1 DUP2 MSTORE PUSH1 0x20 ADD PUSH0 KECCAK256 SLOAD PUSH2 0x1887 SWAP2 SWAP1 PUSH2 0x244E JUMP JUMPDEST PUSH2 0x1891 SWAP2 SWAP1 PUSH2 0x27D8 JUMP JUMPDEST SWAP1 POP DUP1 PUSH1 0x40 MLOAD PUSH32 0xC1AB61A100000000000000000000000000000000000000000000000000000000 DUP2 MSTORE PUSH1 0x4 ADD PUSH2 0x18C7 SWAP2 SWAP1 PUSH2 0x2131 JUMP JUMPDEST PUSH1 0x40 MLOAD DUP1 SWAP2 SUB SWAP1 REVERT JUMPDEST PUSH0 PUSH1 0x3 PUSH0 CALLER PUSH20 0xFFFFFFFFFFFFFFFFFFFFFFFFFFFFFFFFFFFFFFFF AND PUSH20 0xFFFFFFFFFFFFFFFFFFFFFFFFFFFFFFFFFFFFFFFF AND DUP2 MSTORE PUSH1 0x20 ADD SWAP1 DUP2 MSTORE PUSH1 0x20 ADD PUSH0 KECCAK256 SLOAD SWAP1 POP DUP1 DUP3 GT ISZERO PUSH2 0x1958 JUMPI DUP1 DUP3 PUSH1 0x40 MLOAD PUSH32 0xCF47918100000000000000000000000000000000000000000000000000000000 DUP2 MSTORE PUSH1 0x4 ADD PUSH2 0x194F SWAP3 SWAP2 SWAP1 PUSH2 0x280B JUMP JUMPDEST PUSH1 0x40 MLOAD DUP1 SWAP2 SUB SWAP1 REVERT JUMPDEST DUP2 DUP2 PUSH2 0x1964 SWAP2 SWAP1 PUSH2 0x27D8 JUMP JUMPDEST PUSH1 0x3 PUSH0 CALLER PUSH20 0xFFFFFFFFFFFFFFFFFFFFFFFFFFFFFFFFFFFFFFFF AND PUSH20 0xFFFFFFFFFFFFFFFFFFFFFFFFFFFFFFFFFFFFFFFF AND DUP2 MSTORE PUSH1 0x20 ADD SWAP1 DUP2 MSTORE PUSH1 0x20 ADD PUSH0 KECCAK256 DUP2 SWAP1 SSTORE POP DUP2 PUSH1 0x1 PUSH0 DUP3 DUP3 SLOAD PUSH2 0x19B6 SWAP2 SWAP1 PUSH2 0x27D8 JUMP JUMPDEST SWAP3 POP POP DUP2 SWAP1 SSTORE POP PUSH1 0x4 PUSH0 CALLER PUSH20 0xFFFFFFFFFFFFFFFFFFFFFFFFFFFFFFFFFFFFFFFF AND PUSH20 0xFFFFFFFFFFFFFFFFFFFFFFFFFFFFFFFFFFFFFFFF AND DUP2 MSTORE PUSH1 0x20 ADD SWAP1 DUP2 MSTORE PUSH1 0x20 ADD PUSH0 KECCAK256 PUSH0 DUP2 SLOAD DUP1 SWAP3 SWAP2 SWAP1 PUSH2 0x1A0A SWAP1 PUSH2 0x2859 JUMP JUMPDEST SWAP2 SWAP1 POP SSTORE POP TIMESTAMP PUSH1 0x5 PUSH0 CALLER PUSH20 0xFFFFFFFFFFFFFFFFFFFFFFFFFFFFFFFFFFFFFFFF AND PUSH20 0xFFFFFFFFFFFFFFFFFFFFFFFFFFFFFFFFFFFFFFFF AND DUP2 MSTORE PUSH1 0x20 ADD SWAP1 DUP2 MSTORE PUSH1 0x20 ADD PUSH0 KECCAK256 DUP2 SWAP1 SSTORE POP PUSH0 PUSH32 0x0 PUSH20 0xFFFFFFFFFFFFFFFFFFFFFFFFFFFFFFFFFFFFFFFF AND PUSH4 0xA9059CBB CALLER DUP6 PUSH1 0x40 MLOAD DUP4 PUSH4 0xFFFFFFFF AND PUSH1 0xE0 SHL DUP2 MSTORE PUSH1 0x4 ADD PUSH2 0x1AAD SWAP3 SWAP2 SWAP1 PUSH2 0x2832 JUMP JUMPDEST PUSH1 0x20 PUSH1 0x40 MLOAD DUP1 DUP4 SUB DUP2 PUSH0 DUP8 GAS CALL ISZERO DUP1 ISZERO PUSH2 0x1AC9 JUMPI RETURNDATASIZE PUSH0 PUSH0 RETURNDATACOPY RETURNDATASIZE PUSH0 REVERT JUMPDEST POP POP POP POP PUSH1 0x40 MLOAD RETURNDATASIZE PUSH1 0x1F NOT PUSH1 0x1F DUP3 ADD AND DUP3 ADD DUP1 PUSH1 0x40 MSTORE POP DUP2 ADD SWAP1 PUSH2 0x1AED SWAP2 SWAP1 PUSH2 0x2520 JUMP JUMPDEST SWAP1 POP DUP1 PUSH2 0x1B26 JUMPI PUSH1 0x40 MLOAD PUSH32 0x81CEFF3000000000000000000000000000000000000000000000000000000000 DUP2 MSTORE PUSH1 0x4 ADD PUSH1 0x40 MLOAD DUP1 SWAP2 SUB SWAP1 REVERT JUMPDEST CALLER PUSH20 0xFFFFFFFFFFFFFFFFFFFFFFFFFFFFFFFFFFFFFFFF AND PUSH32 0x23EE1B877CB0081138B4973C5B2ECA0133C573AD526550935D83AAADE37666CA DUP5 PUSH1 0x40 MLOAD PUSH2 0x1B6C SWAP2 SWAP1 PUSH2 0x2131 JUMP JUMPDEST PUSH1 0x40 MLOAD DUP1 SWAP2 SUB SWAP1 LOG2 POP POP PUSH0 PUSH1 0x2 PUSH0 PUSH2 0x100 EXP DUP2 SLOAD DUP2 PUSH1 0xFF MUL NOT AND SWAP1 DUP4 ISZERO ISZERO MUL OR SWAP1 SSTORE POP POP JUMP JUMPDEST PUSH1 0x2 PUSH0 SWAP1 SLOAD SWAP1 PUSH2 0x100 EXP SWAP1 DIV PUSH1 0xFF AND ISZERO PUSH2 0x1BD8 JUMPI PUSH1 0x40 MLOAD PUSH32 0xED3BA6A600000000000000000000000000000000000000000000000000000000 DUP2 MSTORE PUSH1 0x4 ADD PUSH1 0x40 MLOAD DUP1 SWAP2 SUB SWAP1 REVERT JUMPDEST PUSH1 0x1 PUSH1 0x2 PUSH0 PUSH2 0x100 EXP DUP2 SLOAD DUP2 PUSH1 0xFF MUL NOT AND SWAP1 DUP4 ISZERO ISZERO MUL OR SWAP1 SSTORE POP PUSH0 DUP2 SUB PUSH2 0x1C2B JUMPI PUSH1 0x40 MLOAD PUSH32 0x1F2A200500000000000000000000000000000000000000000000000000000000 DUP2 MSTORE PUSH1 0x4 ADD PUSH1 0x40 MLOAD DUP1 SWAP2 SUB SWAP1 REVERT JUMPDEST PUSH32 0x0 DUP2 PUSH1 0x1 SLOAD PUSH2 0x1C5A SWAP2 SWAP1 PUSH2 0x244E JUMP JUMPDEST GT ISZERO PUSH2 0x1CC3 JUMPI DUP1 PUSH1 0x1 SLOAD PUSH32 0x0 PUSH1 0x40 MLOAD PUSH32 0x621E5A6900000000000000000000000000000000000000000000000000000000 DUP2 MSTORE PUSH1 0x4 ADD PUSH2 0x1CBA SWAP4 SWAP3 SWAP2 SWAP1 PUSH2 0x2481 JUMP JUMPDEST PUSH1 0x40 MLOAD DUP1 SWAP2 SUB SWAP1 REVERT JUMPDEST PUSH0 PUSH32 0x0 PUSH20 0xFFFFFFFFFFFFFFFFFFFFFFFFFFFFFFFFFFFFFFFF AND PUSH4 0x23B872DD CALLER ADDRESS DUP6 PUSH1 0x40 MLOAD DUP5 PUSH4 0xFFFFFFFF AND PUSH1 0xE0 SHL DUP2 MSTORE PUSH1 0x4 ADD PUSH2 0x1D21 SWAP4 SWAP3 SWAP2 SWAP1 PUSH2 0x24B6 JUMP JUMPDEST PUSH1 0x20 PUSH1 0x40 MLOAD DUP1 DUP4 SUB DUP2 PUSH0 DUP8 GAS CALL ISZERO DUP1 ISZERO PUSH2 0x1D3D JUMPI RETURNDATASIZE PUSH0 PUSH0 RETURNDATACOPY RETURNDATASIZE PUSH0 REVERT JUMPDEST POP POP POP POP PUSH1 0x40 MLOAD RETURNDATASIZE PUSH1 0x1F NOT PUSH1 0x1F DUP3 ADD AND DUP3 ADD DUP1 PUSH1 0x40 MSTORE POP DUP2 ADD SWAP1 PUSH2 0x1D61 SWAP2 SWAP1 PUSH2 0x2520 JUMP JUMPDEST SWAP1 POP DUP1 PUSH2 0x1D9A JUMPI PUSH1 0x40 MLOAD PUSH32 0x81CEFF3000000000000000000000000000000000000000000000000000000000 DUP2 MSTORE PUSH1 0x4 ADD PUSH1 0x40 MLOAD DUP1 SWAP2 SUB SWAP1 REVERT JUMPDEST DUP2 PUSH1 0x1 PUSH0 DUP3 DUP3 SLOAD PUSH2 0x1DAB SWAP2 SWAP1 PUSH2 0x244E JUMP JUMPDEST SWAP3 POP POP DUP2 SWAP1 SSTORE POP DUP2 PUSH1 0x3 PUSH0 CALLER PUSH20 0xFFFFFFFFFFFFFFFFFFFFFFFFFFFFFFFFFFFFFFFF AND PUSH20 0xFFFFFFFFFFFFFFFFFFFFFFFFFFFFFFFFFFFFFFFF AND DUP2 MSTORE PUSH1 0x20 ADD SWAP1 DUP2 MSTORE PUSH1 0x20 ADD PUSH0 KECCAK256 PUSH0 DUP3 DUP3 SLOAD PUSH2 0x1DFE SWAP2 SWAP1 PUSH2 0x244E JUMP JUMPDEST SWAP3 POP POP DUP2 SWAP1 SSTORE POP CALLER PUSH20 0xFFFFFFFFFFFFFFFFFFFFFFFFFFFFFFFFFFFFFFFF AND PUSH32 0xE7440F6772025DEC9BE06BA934E6EE5289B73533EE2136BA668F6CB6EA3F56A8 DUP4 PUSH1 0x40 MLOAD PUSH2 0x1E4B SWAP2 SWAP1 PUSH2 0x2131 JUMP JUMPDEST PUSH1 0x40 MLOAD DUP1 SWAP2 SUB SWAP1 LOG2 POP PUSH0 PUSH1 0x2 PUSH0 PUSH2 0x100 EXP DUP2 SLOAD DUP2 PUSH1 0xFF MUL NOT AND SWAP1 DUP4 ISZERO ISZERO MUL OR SWAP1 SSTORE POP POP JUMP JUMPDEST PUSH32 0x0 DUP2 JUMP JUMPDEST PUSH3 0x15180 DUP2 JUMP JUMPDEST PUSH0 PUSH32 0x0 PUSH20 0xFFFFFFFFFFFFFFFFFFFFFFFFFFFFFFFFFFFFFFFF AND PUSH4 0xD06CA61F DUP4 DUP6 PUSH1 0x40 MLOAD DUP4 PUSH4 0xFFFFFFFF AND PUSH1 0xE0 SHL DUP2 MSTORE PUSH1 0x4 ADD PUSH2 0x1EF7 SWAP3 SWAP2 SWAP1 PUSH2 0x28A0 JUMP JUMPDEST PUSH0 PUSH1 0x40 MLOAD DUP1 DUP4 SUB DUP2 DUP7 GAS STATICCALL SWAP3 POP POP POP DUP1 ISZERO PUSH2 0x1F34 JUMPI POP PUSH1 0x40 MLOAD RETURNDATASIZE PUSH0 DUP3 RETURNDATACOPY RETURNDATASIZE PUSH1 0x1F NOT PUSH1 0x1F DUP3 ADD AND DUP3 ADD DUP1 PUSH1 0x40 MSTORE POP DUP2 ADD SWAP1 PUSH2 0x1F31 SWAP2 SWAP1 PUSH2 0x2791 JUMP JUMPDEST PUSH1 0x1 JUMPDEST ISZERO PUSH2 0x1F74 JUMPI PUSH1 0x2 DUP2 MLOAD LT PUSH2 0x1F72 JUMPI DUP1 PUSH1 0x1 DUP3 MLOAD PUSH2 0x1F51 SWAP2 SWAP1 PUSH2 0x27D8 JUMP JUMPDEST DUP2 MLOAD DUP2 LT PUSH2 0x1F62 JUMPI PUSH2 0x1F61 PUSH2 0x23F4 JUMP JUMPDEST JUMPDEST PUSH1 0x20 MUL PUSH1 0x20 ADD ADD MLOAD SWAP2 POP POP PUSH2 0x1F78 JUMP JUMPDEST POP JUMPDEST DUP2 SWAP1 POP JUMPDEST SWAP3 SWAP2 POP POP JUMP JUMPDEST DUP3 PUSH20 0xFFFFFFFFFFFFFFFFFFFFFFFFFFFFFFFFFFFFFFFF AND PUSH4 0x95EA7B3 DUP4 PUSH0 PUSH1 0x40 MLOAD DUP4 PUSH4 0xFFFFFFFF AND PUSH1 0xE0 SHL DUP2 MSTORE PUSH1 0x4 ADD PUSH2 0x1FB9 SWAP3 SWAP2 SWAP1 PUSH2 0x2907 JUMP JUMPDEST PUSH1 0x20 PUSH1 0x40 MLOAD DUP1 DUP4 SUB DUP2 PUSH0 DUP8 GAS CALL ISZERO DUP1 ISZERO PUSH2 0x1FD5 JUMPI RETURNDATASIZE PUSH0 PUSH0 RETURNDATACOPY RETURNDATASIZE PUSH0 REVERT JUMPDEST POP POP POP POP PUSH1 0x40 MLOAD RETURNDATASIZE PUSH1 0x1F NOT PUSH1 0x1F DUP3 ADD AND DUP3 ADD DUP1 PUSH1 0x40 MSTORE POP DUP2 ADD SWAP1 PUSH2 0x1FF9 SWAP2 SWAP1 PUSH2 0x2520 JUMP JUMPDEST POP DUP3 PUSH20 0xFFFFFFFFFFFFFFFFFFFFFFFFFFFFFFFFFFFFFFFF AND PUSH4 0x95EA7B3 DUP4 DUP4 PUSH1 0x40 MLOAD DUP4 PUSH4 0xFFFFFFFF AND PUSH1 0xE0 SHL DUP2 MSTORE PUSH1 0x4 ADD PUSH2 0x2035 SWAP3 SWAP2 SWAP1 PUSH2 0x2832 JUMP JUMPDEST PUSH1 0x20 PUSH1 0x40 MLOAD DUP1 DUP4 SUB DUP2 PUSH0 DUP8 GAS CALL ISZERO DUP1 ISZERO PUSH2 0x2051 JUMPI RETURNDATASIZE PUSH0 PUSH0 RETURNDATACOPY RETURNDATASIZE PUSH0 REVERT JUMPDEST POP POP POP POP PUSH1 0x40 MLOAD RETURNDATASIZE PUSH1 0x1F NOT PUSH1 0x1F DUP3 ADD AND DUP3 ADD DUP1 PUSH1 0x40 MSTORE POP DUP2 ADD SWAP1 PUSH2 0x2075 SWAP2 SWAP1 PUSH2 0x2520 JUMP JUMPDEST POP POP POP POP JUMP JUMPDEST PUSH0 DUP3 DUP3 MSTORE PUSH1 0x20 DUP3 ADD SWAP1 POP SWAP3 SWAP2 POP POP JUMP JUMPDEST PUSH32 0x557365206465706F73697445544853776170546F555344432066756E6374696F PUSH0 DUP3 ADD MSTORE PUSH32 0x6E206469726563746C7900000000000000000000000000000000000000000000 PUSH1 0x20 DUP3 ADD MSTORE POP JUMP JUMPDEST PUSH0 PUSH2 0x20E5 PUSH1 0x2A DUP4 PUSH2 0x207B JUMP JUMPDEST SWAP2 POP PUSH2 0x20F0 DUP3 PUSH2 0x208B JUMP JUMPDEST PUSH1 0x40 DUP3 ADD SWAP1 POP SWAP2 SWAP1 POP JUMP JUMPDEST PUSH0 PUSH1 0x20 DUP3 ADD SWAP1 POP DUP2 DUP2 SUB PUSH0 DUP4 ADD MSTORE PUSH2 0x2112 DUP2 PUSH2 0x20D9 JUMP JUMPDEST SWAP1 POP SWAP2 SWAP1 POP JUMP JUMPDEST PUSH0 DUP2 SWAP1 POP SWAP2 SWAP1 POP JUMP JUMPDEST PUSH2 0x212B DUP2 PUSH2 0x2119 JUMP JUMPDEST DUP3 MSTORE POP POP JUMP JUMPDEST PUSH0 PUSH1 0x20 DUP3 ADD SWAP1 POP PUSH2 0x2144 PUSH0 DUP4 ADD DUP5 PUSH2 0x2122 JUMP JUMPDEST SWAP3 SWAP2 POP POP JUMP JUMPDEST PUSH0 PUSH1 0x40 MLOAD SWAP1 POP SWAP1 JUMP JUMPDEST PUSH0 PUSH0 REVERT JUMPDEST PUSH0 PUSH0 REVERT JUMPDEST PUSH0 PUSH20 0xFFFFFFFFFFFFFFFFFFFFFFFFFFFFFFFFFFFFFFFF DUP3 AND SWAP1 POP SWAP2 SWAP1 POP JUMP JUMPDEST PUSH0 PUSH2 0x2184 DUP3 PUSH2 0x215B JUMP JUMPDEST SWAP1 POP SWAP2 SWAP1 POP JUMP JUMPDEST PUSH2 0x2194 DUP2 PUSH2 0x217A JUMP JUMPDEST DUP2 EQ PUSH2 0x219E JUMPI PUSH0 PUSH0 REVERT JUMPDEST POP JUMP JUMPDEST PUSH0 DUP2 CALLDATALOAD SWAP1 POP PUSH2 0x21AF DUP2 PUSH2 0x218B JUMP JUMPDEST SWAP3 SWAP2 POP POP JUMP JUMPDEST PUSH0 PUSH1 0x20 DUP3 DUP5 SUB SLT ISZERO PUSH2 0x21CA JUMPI PUSH2 0x21C9 PUSH2 0x2153 JUMP JUMPDEST JUMPDEST PUSH0 PUSH2 0x21D7 DUP5 DUP3 DUP6 ADD PUSH2 0x21A1 JUMP JUMPDEST SWAP2 POP POP SWAP3 SWAP2 POP POP JUMP JUMPDEST PUSH2 0x21E9 DUP2 PUSH2 0x2119 JUMP JUMPDEST DUP2 EQ PUSH2 0x21F3 JUMPI PUSH0 PUSH0 REVERT JUMPDEST POP JUMP JUMPDEST PUSH0 DUP2 CALLDATALOAD SWAP1 POP PUSH2 0x2204 DUP2 PUSH2 0x21E0 JUMP JUMPDEST SWAP3 SWAP2 POP POP JUMP JUMPDEST PUSH0 PUSH0 PUSH0 PUSH1 0x60 DUP5 DUP7 SUB SLT ISZERO PUSH2 0x2221 JUMPI PUSH2 0x2220 PUSH2 0x2153 JUMP JUMPDEST JUMPDEST PUSH0 PUSH2 0x222E DUP7 DUP3 DUP8 ADD PUSH2 0x21A1 JUMP JUMPDEST SWAP4 POP POP PUSH1 0x20 PUSH2 0x223F DUP7 DUP3 DUP8 ADD PUSH2 0x21F6 JUMP JUMPDEST SWAP3 POP POP PUSH1 0x40 PUSH2 0x2250 DUP7 DUP3 DUP8 ADD PUSH2 0x21F6 JUMP JUMPDEST SWAP2 POP POP SWAP3 POP SWAP3 POP SWAP3 JUMP JUMPDEST PUSH0 PUSH1 0x20 DUP3 DUP5 SUB SLT ISZERO PUSH2 0x226F JUMPI PUSH2 0x226E PUSH2 0x2153 JUMP JUMPDEST JUMPDEST PUSH0 PUSH2 0x227C DUP5 DUP3 DUP6 ADD PUSH2 0x21F6 JUMP JUMPDEST SWAP2 POP POP SWAP3 SWAP2 POP POP JUMP JUMPDEST PUSH2 0x228E DUP2 PUSH2 0x217A JUMP JUMPDEST DUP3 MSTORE POP POP JUMP JUMPDEST PUSH0 PUSH1 0x20 DUP3 ADD SWAP1 POP PUSH2 0x22A7 PUSH0 DUP4 ADD DUP5 PUSH2 0x2285 JUMP JUMPDEST SWAP3 SWAP2 POP POP JUMP JUMPDEST PUSH0 PUSH0 PUSH1 0x40 DUP4 DUP6 SUB SLT ISZERO PUSH2 0x22C3 JUMPI PUSH2 0x22C2 PUSH2 0x2153 JUMP JUMPDEST JUMPDEST PUSH0 PUSH2 0x22D0 DUP6 DUP3 DUP7 ADD PUSH2 0x21A1 JUMP JUMPDEST SWAP3 POP POP PUSH1 0x20 PUSH2 0x22E1 DUP6 DUP3 DUP7 ADD PUSH2 0x21F6 JUMP JUMPDEST SWAP2 POP POP SWAP3 POP SWAP3 SWAP1 POP JUMP JUMPDEST PUSH0 DUP2 SWAP1 POP SWAP2 SWAP1 POP JUMP JUMPDEST PUSH0 PUSH2 0x230E PUSH2 0x2309 PUSH2 0x2304 DUP5 PUSH2 0x215B JUMP JUMPDEST PUSH2 0x22EB JUMP JUMPDEST PUSH2 0x215B JUMP JUMPDEST SWAP1 POP SWAP2 SWAP1 POP JUMP JUMPDEST PUSH0 PUSH2 0x231F DUP3 PUSH2 0x22F4 JUMP JUMPDEST SWAP1 POP SWAP2 SWAP1 POP JUMP JUMPDEST PUSH0 PUSH2 0x2330 DUP3 PUSH2 0x2315 JUMP JUMPDEST SWAP1 POP SWAP2 SWAP1 POP JUMP JUMPDEST PUSH2 0x2340 DUP2 PUSH2 0x2326 JUMP JUMPDEST DUP3 MSTORE POP POP JUMP JUMPDEST PUSH0 PUSH1 0x20 DUP3 ADD SWAP1 POP PUSH2 0x2359 PUSH0 DUP4 ADD DUP5 PUSH2 0x2337 JUMP JUMPDEST SWAP3 SWAP2 POP POP JUMP JUMPDEST PUSH32 0x7A65726F20616464720000000000000000000000000000000000000000000000 PUSH0 DUP3 ADD MSTORE POP JUMP JUMPDEST PUSH0 PUSH2 0x2393 PUSH1 0x9 DUP4 PUSH2 0x207B JUMP JUMPDEST SWAP2 POP PUSH2 0x239E DUP3 PUSH2 0x235F JUMP JUMPDEST PUSH1 0x20 DUP3 ADD SWAP1 POP SWAP2 SWAP1 POP JUMP JUMPDEST PUSH0 PUSH1 0x20 DUP3 ADD SWAP1 POP DUP2 DUP2 SUB PUSH0 DUP4 ADD MSTORE PUSH2 0x23C0 DUP2 PUSH2 0x2387 JUMP JUMPDEST SWAP1 POP SWAP2 SWAP1 POP JUMP JUMPDEST PUSH32 0x4E487B7100000000000000000000000000000000000000000000000000000000 PUSH0 MSTORE PUSH1 0x41 PUSH1 0x4 MSTORE PUSH1 0x24 PUSH0 REVERT JUMPDEST PUSH32 0x4E487B7100000000000000000000000000000000000000000000000000000000 PUSH0 MSTORE PUSH1 0x32 PUSH1 0x4 MSTORE PUSH1 0x24 PUSH0 REVERT JUMPDEST PUSH32 0x4E487B7100000000000000000000000000000000000000000000000000000000 PUSH0 MSTORE PUSH1 0x11 PUSH1 0x4 MSTORE PUSH1 0x24 PUSH0 REVERT JUMPDEST PUSH0 PUSH2 0x2458 DUP3 PUSH2 0x2119 JUMP JUMPDEST SWAP2 POP PUSH2 0x2463 DUP4 PUSH2 0x2119 JUMP JUMPDEST SWAP3 POP DUP3 DUP3 ADD SWAP1 POP DUP1 DUP3 GT ISZERO PUSH2 0x247B JUMPI PUSH2 0x247A PUSH2 0x2421 JUMP JUMPDEST JUMPDEST SWAP3 SWAP2 POP POP JUMP JUMPDEST PUSH0 PUSH1 0x60 DUP3 ADD SWAP1 POP PUSH2 0x2494 PUSH0 DUP4 ADD DUP7 PUSH2 0x2122 JUMP JUMPDEST PUSH2 0x24A1 PUSH1 0x20 DUP4 ADD DUP6 PUSH2 0x2122 JUMP JUMPDEST PUSH2 0x24AE PUSH1 0x40 DUP4 ADD DUP5 PUSH2 0x2122 JUMP JUMPDEST SWAP5 SWAP4 POP POP POP POP JUMP JUMPDEST PUSH0 PUSH1 0x60 DUP3 ADD SWAP1 POP PUSH2 0x24C9 PUSH0 DUP4 ADD DUP7 PUSH2 0x2285 JUMP JUMPDEST PUSH2 0x24D6 PUSH1 0x20 DUP4 ADD DUP6 PUSH2 0x2285 JUMP JUMPDEST PUSH2 0x24E3 PUSH1 0x40 DUP4 ADD DUP5 PUSH2 0x2122 JUMP JUMPDEST SWAP5 SWAP4 POP POP POP POP JUMP JUMPDEST PUSH0 DUP2 ISZERO ISZERO SWAP1 POP SWAP2 SWAP1 POP JUMP JUMPDEST PUSH2 0x24FF DUP2 PUSH2 0x24EB JUMP JUMPDEST DUP2 EQ PUSH2 0x2509 JUMPI PUSH0 PUSH0 REVERT JUMPDEST POP JUMP JUMPDEST PUSH0 DUP2 MLOAD SWAP1 POP PUSH2 0x251A DUP2 PUSH2 0x24F6 JUMP JUMPDEST SWAP3 SWAP2 POP POP JUMP JUMPDEST PUSH0 PUSH1 0x20 DUP3 DUP5 SUB SLT ISZERO PUSH2 0x2535 JUMPI PUSH2 0x2534 PUSH2 0x2153 JUMP JUMPDEST JUMPDEST PUSH0 PUSH2 0x2542 DUP5 DUP3 DUP6 ADD PUSH2 0x250C JUMP JUMPDEST SWAP2 POP POP SWAP3 SWAP2 POP POP JUMP JUMPDEST PUSH0 DUP2 MLOAD SWAP1 POP SWAP2 SWAP1 POP JUMP JUMPDEST PUSH0 DUP3 DUP3 MSTORE PUSH1 0x20 DUP3 ADD SWAP1 POP SWAP3 SWAP2 POP POP JUMP JUMPDEST PUSH0 DUP2 SWAP1 POP PUSH1 0x20 DUP3 ADD SWAP1 POP SWAP2 SWAP1 POP JUMP JUMPDEST PUSH2 0x257D DUP2 PUSH2 0x217A JUMP JUMPDEST DUP3 MSTORE POP POP JUMP JUMPDEST PUSH0 PUSH2 0x258E DUP4 DUP4 PUSH2 0x2574 JUMP JUMPDEST PUSH1 0x20 DUP4 ADD SWAP1 POP SWAP3 SWAP2 POP POP JUMP JUMPDEST PUSH0 PUSH1 0x20 DUP3 ADD SWAP1 POP SWAP2 SWAP1 POP JUMP JUMPDEST PUSH0 PUSH2 0x25B0 DUP3 PUSH2 0x254B JUMP JUMPDEST PUSH2 0x25BA DUP2 DUP6 PUSH2 0x2555 JUMP JUMPDEST SWAP4 POP PUSH2 0x25C5 DUP4 PUSH2 0x2565 JUMP JUMPDEST DUP1 PUSH0 JUMPDEST DUP4 DUP2 LT ISZERO PUSH2 0x25F5 JUMPI DUP2 MLOAD PUSH2 0x25DC DUP9 DUP3 PUSH2 0x2583 JUMP JUMPDEST SWAP8 POP PUSH2 0x25E7 DUP4 PUSH2 0x259A JUMP JUMPDEST SWAP3 POP POP PUSH1 0x1 DUP2 ADD SWAP1 POP PUSH2 0x25C8 JUMP JUMPDEST POP DUP6 SWAP4 POP POP POP POP SWAP3 SWAP2 POP POP JUMP JUMPDEST PUSH0 PUSH1 0xA0 DUP3 ADD SWAP1 POP PUSH2 0x2615 PUSH0 DUP4 ADD DUP9 PUSH2 0x2122 JUMP JUMPDEST PUSH2 0x2622 PUSH1 0x20 DUP4 ADD DUP8 PUSH2 0x2122 JUMP JUMPDEST DUP2 DUP2 SUB PUSH1 0x40 DUP4 ADD MSTORE PUSH2 0x2634 DUP2 DUP7 PUSH2 0x25A6 JUMP JUMPDEST SWAP1 POP PUSH2 0x2643 PUSH1 0x60 DUP4 ADD DUP6 PUSH2 0x2285 JUMP JUMPDEST PUSH2 0x2650 PUSH1 0x80 DUP4 ADD DUP5 PUSH2 0x2122 JUMP JUMPDEST SWAP7 SWAP6 POP POP POP POP POP POP JUMP JUMPDEST PUSH0 PUSH0 REVERT JUMPDEST PUSH0 PUSH1 0x1F NOT PUSH1 0x1F DUP4 ADD AND SWAP1 POP SWAP2 SWAP1 POP JUMP JUMPDEST PUSH2 0x2677 DUP3 PUSH2 0x265E JUMP JUMPDEST DUP2 ADD DUP2 DUP2 LT PUSH8 0xFFFFFFFFFFFFFFFF DUP3 GT OR ISZERO PUSH2 0x2696 JUMPI PUSH2 0x2695 PUSH2 0x23C7 JUMP JUMPDEST JUMPDEST DUP1 PUSH1 0x40 MSTORE POP POP POP JUMP JUMPDEST PUSH0 PUSH2 0x26A8 PUSH2 0x214A JUMP JUMPDEST SWAP1 POP PUSH2 0x26B4 DUP3 DUP3 PUSH2 0x266E JUMP JUMPDEST SWAP2 SWAP1 POP JUMP JUMPDEST PUSH0 PUSH8 0xFFFFFFFFFFFFFFFF DUP3 GT ISZERO PUSH2 0x26D3 JUMPI PUSH2 0x26D2 PUSH2 0x23C7 JUMP JUMPDEST JUMPDEST PUSH1 0x20 DUP3 MUL SWAP1 POP PUSH1 0x20 DUP2 ADD SWAP1 POP SWAP2 SWAP1 POP JUMP JUMPDEST PUSH0 PUSH0 REVERT JUMPDEST PUSH0 DUP2 MLOAD SWAP1 POP PUSH2 0x26F6 DUP2 PUSH2 0x21E0 JUMP JUMPDEST SWAP3 SWAP2 POP POP JUMP JUMPDEST PUSH0 PUSH2 0x270E PUSH2 0x2709 DUP5 PUSH2 0x26B9 JUMP JUMPDEST PUSH2 0x269F JUMP JUMPDEST SWAP1 POP DUP1 DUP4 DUP3 MSTORE PUSH1 0x20 DUP3 ADD SWAP1 POP PUSH1 0x20 DUP5 MUL DUP4 ADD DUP6 DUP2 GT ISZERO PUSH2 0x2731 JUMPI PUSH2 0x2730 PUSH2 0x26E4 JUMP JUMPDEST JUMPDEST DUP4 JUMPDEST DUP2 DUP2 LT ISZERO PUSH2 0x275A JUMPI DUP1 PUSH2 0x2746 DUP9 DUP3 PUSH2 0x26E8 JUMP JUMPDEST DUP5 MSTORE PUSH1 0x20 DUP5 ADD SWAP4 POP POP PUSH1 0x20 DUP2 ADD SWAP1 POP PUSH2 0x2733 JUMP JUMPDEST POP POP POP SWAP4 SWAP3 POP POP POP JUMP JUMPDEST PUSH0 DUP3 PUSH1 0x1F DUP4 ADD SLT PUSH2 0x2778 JUMPI PUSH2 0x2777 PUSH2 0x265A JUMP JUMPDEST JUMPDEST DUP2 MLOAD PUSH2 0x2788 DUP5 DUP3 PUSH1 0x20 DUP7 ADD PUSH2 0x26FC JUMP JUMPDEST SWAP2 POP POP SWAP3 SWAP2 POP POP JUMP JUMPDEST PUSH0 PUSH1 0x20 DUP3 DUP5 SUB SLT ISZERO PUSH2 0x27A6 JUMPI PUSH2 0x27A5 PUSH2 0x2153 JUMP JUMPDEST JUMPDEST PUSH0 DUP3 ADD MLOAD PUSH8 0xFFFFFFFFFFFFFFFF DUP2 GT ISZERO PUSH2 0x27C3 JUMPI PUSH2 0x27C2 PUSH2 0x2157 JUMP JUMPDEST JUMPDEST PUSH2 0x27CF DUP5 DUP3 DUP6 ADD PUSH2 0x2764 JUMP JUMPDEST SWAP2 POP POP SWAP3 SWAP2 POP POP JUMP JUMPDEST PUSH0 PUSH2 0x27E2 DUP3 PUSH2 0x2119 JUMP JUMPDEST SWAP2 POP PUSH2 0x27ED DUP4 PUSH2 0x2119 JUMP JUMPDEST SWAP3 POP DUP3 DUP3 SUB SWAP1 POP DUP2 DUP2 GT ISZERO PUSH2 0x2805 JUMPI PUSH2 0x2804 PUSH2 0x2421 JUMP JUMPDEST JUMPDEST SWAP3 SWAP2 POP POP JUMP JUMPDEST PUSH0 PUSH1 0x40 DUP3 ADD SWAP1 POP PUSH2 0x281E PUSH0 DUP4 ADD DUP6 PUSH2 0x2122 JUMP JUMPDEST PUSH2 0x282B PUSH1 0x20 DUP4 ADD DUP5 PUSH2 0x2122 JUMP JUMPDEST SWAP4 SWAP3 POP POP POP JUMP JUMPDEST PUSH0 PUSH1 0x40 DUP3 ADD SWAP1 POP PUSH2 0x2845 PUSH0 DUP4 ADD DUP6 PUSH2 0x2285 JUMP JUMPDEST PUSH2 0x2852 PUSH1 0x20 DUP4 ADD DUP5 PUSH2 0x2122 JUMP JUMPDEST SWAP4 SWAP3 POP POP POP JUMP JUMPDEST PUSH0 PUSH2 0x2863 DUP3 PUSH2 0x2119 JUMP JUMPDEST SWAP2 POP PUSH32 0xFFFFFFFFFFFFFFFFFFFFFFFFFFFFFFFFFFFFFFFFFFFFFFFFFFFFFFFFFFFFFFFF DUP3 SUB PUSH2 0x2895 JUMPI PUSH2 0x2894 PUSH2 0x2421 JUMP JUMPDEST JUMPDEST PUSH1 0x1 DUP3 ADD SWAP1 POP SWAP2 SWAP1 POP JUMP JUMPDEST PUSH0 PUSH1 0x40 DUP3 ADD SWAP1 POP PUSH2 0x28B3 PUSH0 DUP4 ADD DUP6 PUSH2 0x2122 JUMP JUMPDEST DUP2 DUP2 SUB PUSH1 0x20 DUP4 ADD MSTORE PUSH2 0x28C5 DUP2 DUP5 PUSH2 0x25A6 JUMP JUMPDEST SWAP1 POP SWAP4 SWAP3 POP POP POP JUMP JUMPDEST PUSH0 DUP2 SWAP1 POP SWAP2 SWAP1 POP JUMP JUMPDEST PUSH0 PUSH2 0x28F1 PUSH2 0x28EC PUSH2 0x28E7 DUP5 PUSH2 0x28CE JUMP JUMPDEST PUSH2 0x22EB JUMP JUMPDEST PUSH2 0x2119 JUMP JUMPDEST SWAP1 POP SWAP2 SWAP1 POP JUMP JUMPDEST PUSH2 0x2901 DUP2 PUSH2 0x28D7 JUMP JUMPDEST DUP3 MSTORE POP POP JUMP JUMPDEST PUSH0 PUSH1 0x40 DUP3 ADD SWAP1 POP PUSH2 0x291A PUSH0 DUP4 ADD DUP6 PUSH2 0x2285 JUMP JUMPDEST PUSH2 0x2927 PUSH1 0x20 DUP4 ADD DUP5 PUSH2 0x28F8 JUMP JUMPDEST SWAP4 SWAP3 POP POP POP JUMP INVALID LOG2 PUSH5 0x6970667358 0x22 SLT KECCAK256 0x24 SELFDESTRUCT EQ 0xC6 PUSH20 0x1BBAA5CC2E78DAB7220C6609C36A7F89F825D2D0 AND 0xB4 TLOAD 0x1E COINBASE 0xBD EXTCODECOPY PUSH5 0x736F6C6343 STOP ADDMOD 0x1E STOP CALLER "
				},
				"gasEstimates": {
					"creation": {
						"codeDepositCost": "2119200",
						"executionCost": "infinite",
						"totalCost": "infinite"
					},
					"external": {
						"": "200",
						"MAX_WITHDRAWAL_AMOUNT()": "349",
						"USDC()": "infinite",
						"WETH()": "infinite",
						"WITHDRAWAL_COOLDOWN()": "435",
						"bankCapUsd()": "infinite",
						"depositETHSwapToUSDC(uint256)": "infinite",
						"depositTokenSwapToUSDC(address,uint256,uint256)": "infinite",
						"depositUSDC(uint256)": "infinite",
						"emergencyWithdraw(address,uint256)": "infinite",
						"lastWithdrawalTime(address)": "2825",
						"owner()": "2596",
						"remainingCapacity()": "infinite",
						"router()": "infinite",
						"setOwner(address)": "30653",
						"totalUsdc()": "2493",
						"usdcBalanceOf(address)": "2851",
						"withdrawUSDC(uint256)": "infinite",
						"withdrawalCount(address)": "2891"
					},
					"internal": {
						"_estimateSwapOutput(address[] memory,uint256)": "infinite",
						"_safeApprove(address,address,uint256)": "infinite"
					}
				},
				"methodIdentifiers": {
					"MAX_WITHDRAWAL_AMOUNT()": "058c8c2e",
					"USDC()": "89a30271",
					"WETH()": "ad5c4648",
					"WITHDRAWAL_COOLDOWN()": "feedab00",
					"bankCapUsd()": "ac4543ba",
					"depositETHSwapToUSDC(uint256)": "883f1721",
					"depositTokenSwapToUSDC(address,uint256,uint256)": "39657553",
					"depositUSDC(uint256)": "f688bcfb",
					"emergencyWithdraw(address,uint256)": "95ccea67",
					"lastWithdrawalTime(address)": "4de5120e",
					"owner()": "8da5cb5b",
					"remainingCapacity()": "a78c7b08",
					"router()": "f887ea40",
					"setOwner(address)": "13af4035",
					"totalUsdc()": "34462be6",
					"usdcBalanceOf(address)": "c3fd262d",
					"withdrawUSDC(uint256)": "db81f99b",
					"withdrawalCount(address)": "b3d8bcdc"
				}
			},
			"storageLayout": {
				"storage": [
					{
						"astId": 138,
						"contract": "src/KipuBankV4.sol:KipuBankV4",
						"label": "owner",
						"offset": 0,
						"slot": "0",
						"type": "t_address"
					},
					{
						"astId": 141,
						"contract": "src/KipuBankV4.sol:KipuBankV4",
						"label": "totalUsdc",
						"offset": 0,
						"slot": "1",
						"type": "t_uint256"
					},
					{
						"astId": 157,
						"contract": "src/KipuBankV4.sol:KipuBankV4",
						"label": "locked",
						"offset": 0,
						"slot": "2",
						"type": "t_bool"
					},
					{
						"astId": 179,
						"contract": "src/KipuBankV4.sol:KipuBankV4",
						"label": "usdcBalances",
						"offset": 0,
						"slot": "3",
						"type": "t_mapping(t_address,t_uint256)"
					},
					{
						"astId": 183,
						"contract": "src/KipuBankV4.sol:KipuBankV4",
						"label": "withdrawalCount",
						"offset": 0,
						"slot": "4",
						"type": "t_mapping(t_address,t_uint256)"
					},
					{
						"astId": 187,
						"contract": "src/KipuBankV4.sol:KipuBankV4",
						"label": "lastWithdrawalTime",
						"offset": 0,
						"slot": "5",
						"type": "t_mapping(t_address,t_uint256)"
					}
				],
				"types": {
					"t_address": {
						"encoding": "inplace",
						"label": "address",
						"numberOfBytes": "20"
					},
					"t_bool": {
						"encoding": "inplace",
						"label": "bool",
						"numberOfBytes": "1"
					},
					"t_mapping(t_address,t_uint256)": {
						"encoding": "mapping",
						"key": "t_address",
						"label": "mapping(address => uint256)",
						"numberOfBytes": "32",
						"value": "t_uint256"
					},
					"t_uint256": {
						"encoding": "inplace",
						"label": "uint256",
						"numberOfBytes": "32"
					}
				}
			},
			"userdoc": {
				"kind": "user",
				"methods": {
					"USDC()": {
						"notice": "USDC token used by this bank (accounting token, expected decimals = 6)"
					},
					"WETH()": {
						"notice": "WETH address (from router)"
					},
					"bankCapUsd()": {
						"notice": "bank cap in USDC units (raw, e.g. 100 * 10**6 = 100 USDC)"
					},
					"depositETHSwapToUSDC(uint256)": {
						"notice": "Deposit ETH (native). Contract swaps ETH -> USDC via UniswapV2."
					},
					"depositTokenSwapToUSDC(address,uint256,uint256)": {
						"notice": "Deposit ERC20 token (not USDC). Contract swaps token -> USDC via UniswapV2.         Token must have a direct pair to USDC (path [token, USDC])."
					},
					"depositUSDC(uint256)": {
						"notice": "Deposit USDC directly (user must approve this contract)"
					},
					"owner()": {
						"notice": "owner/admin"
					},
					"router()": {
						"notice": "UniswapV2 router"
					},
					"totalUsdc()": {
						"notice": "total USDC held (in raw USDC units, e.g. 6 decimals)"
					},
					"withdrawUSDC(uint256)": {
						"notice": "Withdraw USDC from your internal balance"
					}
				},
				"version": 1
			}
		}
	}
}