{
	"src/KipuBankV3.sol": {
		"KipuBankV3": {
			"abi": [
				{
					"inputs": [
						{
							"internalType": "address",
							"name": "_usdc",
							"type": "address"
						},
						{
							"internalType": "address",
							"name": "_router",
							"type": "address"
						},
						{
							"internalType": "uint256",
							"name": "_bankCapUsd",
							"type": "uint256"
						}
					],
					"stateMutability": "nonpayable",
					"type": "constructor"
				},
				{
					"inputs": [
						{
							"internalType": "uint256",
							"name": "attempted",
							"type": "uint256"
						},
						{
							"internalType": "uint256",
							"name": "total",
							"type": "uint256"
						},
						{
							"internalType": "uint256",
							"name": "cap",
							"type": "uint256"
						}
					],
					"name": "BankCapExceeded",
					"type": "error"
				},
				{
					"inputs": [
						{
							"internalType": "uint256",
							"name": "available",
							"type": "uint256"
						},
						{
							"internalType": "uint256",
							"name": "requested",
							"type": "uint256"
						}
					],
					"name": "InsufficientBalance",
					"type": "error"
				},
				{
					"inputs": [],
					"name": "InvalidPath",
					"type": "error"
				},
				{
					"inputs": [],
					"name": "NotOwner",
					"type": "error"
				},
				{
					"inputs": [],
					"name": "Reentrant",
					"type": "error"
				},
				{
					"inputs": [],
					"name": "SwapFailed",
					"type": "error"
				},
				{
					"inputs": [],
					"name": "ZeroAmount",
					"type": "error"
				},
				{
					"anonymous": false,
					"inputs": [
						{
							"indexed": true,
							"internalType": "address",
							"name": "user",
							"type": "address"
						},
						{
							"indexed": true,
							"internalType": "address",
							"name": "tokenIn",
							"type": "address"
						},
						{
							"indexed": false,
							"internalType": "uint256",
							"name": "amountIn",
							"type": "uint256"
						},
						{
							"indexed": false,
							"internalType": "uint256",
							"name": "usdcReceived",
							"type": "uint256"
						}
					],
					"name": "DepositConverted",
					"type": "event"
				},
				{
					"anonymous": false,
					"inputs": [
						{
							"indexed": true,
							"internalType": "address",
							"name": "user",
							"type": "address"
						},
						{
							"indexed": false,
							"internalType": "uint256",
							"name": "amountUsdc",
							"type": "uint256"
						}
					],
					"name": "DepositUSDC",
					"type": "event"
				},
				{
					"anonymous": false,
					"inputs": [
						{
							"indexed": true,
							"internalType": "address",
							"name": "oldOwner",
							"type": "address"
						},
						{
							"indexed": true,
							"internalType": "address",
							"name": "newOwner",
							"type": "address"
						}
					],
					"name": "OwnerChanged",
					"type": "event"
				},
				{
					"anonymous": false,
					"inputs": [
						{
							"indexed": true,
							"internalType": "address",
							"name": "user",
							"type": "address"
						},
						{
							"indexed": false,
							"internalType": "uint256",
							"name": "amountUsdc",
							"type": "uint256"
						}
					],
					"name": "WithdrawUSDC",
					"type": "event"
				},
				{
					"stateMutability": "payable",
					"type": "fallback"
				},
				{
					"inputs": [],
					"name": "USDC",
					"outputs": [
						{
							"internalType": "address",
							"name": "",
							"type": "address"
						}
					],
					"stateMutability": "view",
					"type": "function"
				},
				{
					"inputs": [],
					"name": "WETH",
					"outputs": [
						{
							"internalType": "address",
							"name": "",
							"type": "address"
						}
					],
					"stateMutability": "view",
					"type": "function"
				},
				{
					"inputs": [],
					"name": "bankCapUsd",
					"outputs": [
						{
							"internalType": "uint256",
							"name": "",
							"type": "uint256"
						}
					],
					"stateMutability": "view",
					"type": "function"
				},
				{
					"inputs": [
						{
							"internalType": "uint256",
							"name": "minUsdcOut",
							"type": "uint256"
						}
					],
					"name": "depositETHSwapToUSDC",
					"outputs": [],
					"stateMutability": "payable",
					"type": "function"
				},
				{
					"inputs": [
						{
							"internalType": "address",
							"name": "token",
							"type": "address"
						},
						{
							"internalType": "uint256",
							"name": "amountIn",
							"type": "uint256"
						},
						{
							"internalType": "uint256",
							"name": "minUsdcOut",
							"type": "uint256"
						}
					],
					"name": "depositTokenSwapToUSDC",
					"outputs": [],
					"stateMutability": "nonpayable",
					"type": "function"
				},
				{
					"inputs": [
						{
							"internalType": "uint256",
							"name": "amountUsdc",
							"type": "uint256"
						}
					],
					"name": "depositUSDC",
					"outputs": [],
					"stateMutability": "nonpayable",
					"type": "function"
				},
				{
					"inputs": [],
					"name": "owner",
					"outputs": [
						{
							"internalType": "address",
							"name": "",
							"type": "address"
						}
					],
					"stateMutability": "view",
					"type": "function"
				},
				{
					"inputs": [],
					"name": "router",
					"outputs": [
						{
							"internalType": "contract IUniswapV2Router02",
							"name": "",
							"type": "address"
						}
					],
					"stateMutability": "view",
					"type": "function"
				},
				{
					"inputs": [
						{
							"internalType": "address",
							"name": "newOwner",
							"type": "address"
						}
					],
					"name": "setOwner",
					"outputs": [],
					"stateMutability": "nonpayable",
					"type": "function"
				},
				{
					"inputs": [],
					"name": "totalUsdc",
					"outputs": [
						{
							"internalType": "uint256",
							"name": "",
							"type": "uint256"
						}
					],
					"stateMutability": "view",
					"type": "function"
				},
				{
					"inputs": [
						{
							"internalType": "address",
							"name": "user",
							"type": "address"
						}
					],
					"name": "usdcBalanceOf",
					"outputs": [
						{
							"internalType": "uint256",
							"name": "",
							"type": "uint256"
						}
					],
					"stateMutability": "view",
					"type": "function"
				},
				{
					"inputs": [
						{
							"internalType": "uint256",
							"name": "amountUsdc",
							"type": "uint256"
						}
					],
					"name": "withdrawUSDC",
					"outputs": [],
					"stateMutability": "nonpayable",
					"type": "function"
				},
				{
					"stateMutability": "payable",
					"type": "receive"
				}
			],
			"devdoc": {
				"kind": "dev",
				"methods": {
					"constructor": {
						"params": {
							"_bankCapUsd": "bank cap expressed in USDC smallest units (e.g. 100 * 10**6)",
							"_router": "UniswapV2 router address",
							"_usdc": "address of USDC token (accounting token)"
						}
					},
					"depositETHSwapToUSDC(uint256)": {
						"params": {
							"minUsdcOut": "minimum acceptable USDC out to protect from slippage (USDC smallest units)"
						}
					},
					"depositTokenSwapToUSDC(address,uint256,uint256)": {
						"params": {
							"amountIn": "amount of token being deposited (in token units)",
							"minUsdcOut": "minimum acceptable USDC out to protect from slippage (USDC smallest units)",
							"token": "token address to deposit"
						}
					},
					"depositUSDC(uint256)": {
						"params": {
							"amountUsdc": "amount of USDC in USDC smallest units (6 decimals)"
						}
					},
					"withdrawUSDC(uint256)": {
						"params": {
							"amountUsdc": "amount in USDC smallest units"
						}
					}
				},
				"version": 1
			},
			"evm": {
				"assembly": "    /* \"src/KipuBankV3.sol\":1970:10614  contract KipuBankV3 {... */\n  mstore(0x40, 0x0100)\n    /* \"src/KipuBankV3.sol\":3799:4137  constructor(address _usdc, address _router, uint256 _bankCapUsd) {... */\n  callvalue\n  dup1\n  iszero\n  tag_1\n  jumpi\n  revert(0x00, 0x00)\ntag_1:\n  pop\n  mload(0x40)\n  sub(codesize, bytecodeSize)\n  dup1\n  bytecodeSize\n  dup4\n  codecopy\n  dup2\n  dup2\n  add\n  0x40\n  mstore\n  dup2\n  add\n  swap1\n  tag_2\n  swap2\n  swap1\n  tag_3\n  jump\t// in\ntag_2:\n    /* \"src/KipuBankV3.sol\":3896:3897  0 */\n  0x00\n    /* \"src/KipuBankV3.sol\":3879:3898  _usdc == address(0) */\n  0xffffffffffffffffffffffffffffffffffffffff\n  and\n    /* \"src/KipuBankV3.sol\":3879:3884  _usdc */\n  dup4\n    /* \"src/KipuBankV3.sol\":3879:3898  _usdc == address(0) */\n  0xffffffffffffffffffffffffffffffffffffffff\n  and\n  eq\n    /* \"src/KipuBankV3.sol\":3879:3923  _usdc == address(0) || _router == address(0) */\n  dup1\n  tag_6\n  jumpi\n  pop\n    /* \"src/KipuBankV3.sol\":3921:3922  0 */\n  0x00\n    /* \"src/KipuBankV3.sol\":3902:3923  _router == address(0) */\n  0xffffffffffffffffffffffffffffffffffffffff\n  and\n    /* \"src/KipuBankV3.sol\":3902:3909  _router */\n  dup3\n    /* \"src/KipuBankV3.sol\":3902:3923  _router == address(0) */\n  0xffffffffffffffffffffffffffffffffffffffff\n  and\n  eq\n    /* \"src/KipuBankV3.sol\":3879:3923  _usdc == address(0) || _router == address(0) */\ntag_6:\n    /* \"src/KipuBankV3.sol\":3879:3943  _usdc == address(0) || _router == address(0) || _bankCapUsd == 0 */\n  dup1\n  tag_7\n  jumpi\n  pop\n    /* \"src/KipuBankV3.sol\":3942:3943  0 */\n  0x00\n    /* \"src/KipuBankV3.sol\":3927:3938  _bankCapUsd */\n  dup2\n    /* \"src/KipuBankV3.sol\":3927:3943  _bankCapUsd == 0 */\n  eq\n    /* \"src/KipuBankV3.sol\":3879:3943  _usdc == address(0) || _router == address(0) || _bankCapUsd == 0 */\ntag_7:\n    /* \"src/KipuBankV3.sol\":3875:3964  if (_usdc == address(0) || _router == address(0) || _bankCapUsd == 0) revert ZeroAmount() */\n  iszero\n  tag_8\n  jumpi\n    /* \"src/KipuBankV3.sol\":3952:3964  ZeroAmount() */\n  mload(0x40)\n  0x1f2a200500000000000000000000000000000000000000000000000000000000\n  dup2\n  mstore\n  0x04\n  add\n  mload(0x40)\n  dup1\n  swap2\n  sub\n  swap1\n  revert\n    /* \"src/KipuBankV3.sol\":3875:3964  if (_usdc == address(0) || _router == address(0) || _bankCapUsd == 0) revert ZeroAmount() */\ntag_8:\n    /* \"src/KipuBankV3.sol\":3982:3987  _usdc */\n  dup3\n    /* \"src/KipuBankV3.sol\":3975:3987  USDC = _usdc */\n  0xffffffffffffffffffffffffffffffffffffffff\n  and\n  0x80\n  dup2\n  0xffffffffffffffffffffffffffffffffffffffff\n  and\n  dup2\n  mstore\n  pop\n  pop\n    /* \"src/KipuBankV3.sol\":4026:4033  _router */\n  dup2\n    /* \"src/KipuBankV3.sol\":3998:4034  router = IUniswapV2Router02(_router) */\n  0xffffffffffffffffffffffffffffffffffffffff\n  and\n  0xa0\n  dup2\n  0xffffffffffffffffffffffffffffffffffffffff\n  and\n  dup2\n  mstore\n  pop\n  pop\n    /* \"src/KipuBankV3.sol\":4052:4058  router */\n  mload(0xa0)\n    /* \"src/KipuBankV3.sol\":4052:4063  router.WETH */\n  0xffffffffffffffffffffffffffffffffffffffff\n  and\n  0xad5c4648\n    /* \"src/KipuBankV3.sol\":4052:4065  router.WETH() */\n  mload(0x40)\n  dup2\n  0xffffffff\n  and\n  0xe0\n  shl\n  dup2\n  mstore\n  0x04\n  add\n  0x20\n  mload(0x40)\n  dup1\n  dup4\n  sub\n  dup2\n  dup7\n  gas\n  staticcall\n  iszero\n  dup1\n  iszero\n  tag_10\n  jumpi\n  returndatacopy(0x00, 0x00, returndatasize)\n  revert(0x00, returndatasize)\ntag_10:\n  pop\n  pop\n  pop\n  pop\n  mload(0x40)\n  returndatasize\n  not(0x1f)\n  0x1f\n  dup3\n  add\n  and\n  dup3\n  add\n  dup1\n  0x40\n  mstore\n  pop\n  dup2\n  add\n  swap1\n  tag_11\n  swap2\n  swap1\n  tag_12\n  jump\t// in\ntag_11:\n    /* \"src/KipuBankV3.sol\":4045:4065  WETH = router.WETH() */\n  0xffffffffffffffffffffffffffffffffffffffff\n  and\n  0xc0\n  dup2\n  0xffffffffffffffffffffffffffffffffffffffff\n  and\n  dup2\n  mstore\n  pop\n  pop\n    /* \"src/KipuBankV3.sol\":4089:4100  _bankCapUsd */\n  dup1\n    /* \"src/KipuBankV3.sol\":4076:4100  bankCapUsd = _bankCapUsd */\n  0xe0\n  dup2\n  dup2\n  mstore\n  pop\n  pop\n    /* \"src/KipuBankV3.sol\":4119:4129  msg.sender */\n  caller\n    /* \"src/KipuBankV3.sol\":4111:4116  owner */\n  0x00\n  0x00\n    /* \"src/KipuBankV3.sol\":4111:4129  owner = msg.sender */\n  0x0100\n  exp\n  dup2\n  sload\n  dup2\n  0xffffffffffffffffffffffffffffffffffffffff\n  mul\n  not\n  and\n  swap1\n  dup4\n  0xffffffffffffffffffffffffffffffffffffffff\n  and\n  mul\n  or\n  swap1\n  sstore\n  pop\n    /* \"src/KipuBankV3.sol\":3799:4137  constructor(address _usdc, address _router, uint256 _bankCapUsd) {... */\n  pop\n  pop\n  pop\n    /* \"src/KipuBankV3.sol\":1970:10614  contract KipuBankV3 {... */\n  jump(tag_13)\n    /* \"#utility.yul\":88:205   */\ntag_15:\n    /* \"#utility.yul\":197:198   */\n  0x00\n    /* \"#utility.yul\":194:195   */\n  0x00\n    /* \"#utility.yul\":187:199   */\n  revert\n    /* \"#utility.yul\":334:460   */\ntag_17:\n    /* \"#utility.yul\":371:378   */\n  0x00\n    /* \"#utility.yul\":411:453   */\n  0xffffffffffffffffffffffffffffffffffffffff\n    /* \"#utility.yul\":404:409   */\n  dup3\n    /* \"#utility.yul\":400:454   */\n  and\n    /* \"#utility.yul\":389:454   */\n  swap1\n  pop\n    /* \"#utility.yul\":334:460   */\n  swap2\n  swap1\n  pop\n  jump\t// out\n    /* \"#utility.yul\":466:562   */\ntag_18:\n    /* \"#utility.yul\":503:510   */\n  0x00\n    /* \"#utility.yul\":532:556   */\n  tag_30\n    /* \"#utility.yul\":550:555   */\n  dup3\n    /* \"#utility.yul\":532:556   */\n  tag_17\n  jump\t// in\ntag_30:\n    /* \"#utility.yul\":521:556   */\n  swap1\n  pop\n    /* \"#utility.yul\":466:562   */\n  swap2\n  swap1\n  pop\n  jump\t// out\n    /* \"#utility.yul\":568:690   */\ntag_19:\n    /* \"#utility.yul\":641:665   */\n  tag_32\n    /* \"#utility.yul\":659:664   */\n  dup2\n    /* \"#utility.yul\":641:665   */\n  tag_18\n  jump\t// in\ntag_32:\n    /* \"#utility.yul\":634:639   */\n  dup2\n    /* \"#utility.yul\":631:666   */\n  eq\n    /* \"#utility.yul\":621:684   */\n  tag_33\n  jumpi\n    /* \"#utility.yul\":680:681   */\n  0x00\n    /* \"#utility.yul\":677:678   */\n  0x00\n    /* \"#utility.yul\":670:682   */\n  revert\n    /* \"#utility.yul\":621:684   */\ntag_33:\n    /* \"#utility.yul\":568:690   */\n  pop\n  jump\t// out\n    /* \"#utility.yul\":696:839   */\ntag_20:\n    /* \"#utility.yul\":753:758   */\n  0x00\n    /* \"#utility.yul\":784:790   */\n  dup2\n    /* \"#utility.yul\":778:791   */\n  mload\n    /* \"#utility.yul\":769:791   */\n  swap1\n  pop\n    /* \"#utility.yul\":800:833   */\n  tag_35\n    /* \"#utility.yul\":827:832   */\n  dup2\n    /* \"#utility.yul\":800:833   */\n  tag_19\n  jump\t// in\ntag_35:\n    /* \"#utility.yul\":696:839   */\n  swap3\n  swap2\n  pop\n  pop\n  jump\t// out\n    /* \"#utility.yul\":845:922   */\ntag_21:\n    /* \"#utility.yul\":882:889   */\n  0x00\n    /* \"#utility.yul\":911:916   */\n  dup2\n    /* \"#utility.yul\":900:916   */\n  swap1\n  pop\n    /* \"#utility.yul\":845:922   */\n  swap2\n  swap1\n  pop\n  jump\t// out\n    /* \"#utility.yul\":928:1050   */\ntag_22:\n    /* \"#utility.yul\":1001:1025   */\n  tag_38\n    /* \"#utility.yul\":1019:1024   */\n  dup2\n    /* \"#utility.yul\":1001:1025   */\n  tag_21\n  jump\t// in\ntag_38:\n    /* \"#utility.yul\":994:999   */\n  dup2\n    /* \"#utility.yul\":991:1026   */\n  eq\n    /* \"#utility.yul\":981:1044   */\n  tag_39\n  jumpi\n    /* \"#utility.yul\":1040:1041   */\n  0x00\n    /* \"#utility.yul\":1037:1038   */\n  0x00\n    /* \"#utility.yul\":1030:1042   */\n  revert\n    /* \"#utility.yul\":981:1044   */\ntag_39:\n    /* \"#utility.yul\":928:1050   */\n  pop\n  jump\t// out\n    /* \"#utility.yul\":1056:1199   */\ntag_23:\n    /* \"#utility.yul\":1113:1118   */\n  0x00\n    /* \"#utility.yul\":1144:1150   */\n  dup2\n    /* \"#utility.yul\":1138:1151   */\n  mload\n    /* \"#utility.yul\":1129:1151   */\n  swap1\n  pop\n    /* \"#utility.yul\":1160:1193   */\n  tag_41\n    /* \"#utility.yul\":1187:1192   */\n  dup2\n    /* \"#utility.yul\":1160:1193   */\n  tag_22\n  jump\t// in\ntag_41:\n    /* \"#utility.yul\":1056:1199   */\n  swap3\n  swap2\n  pop\n  pop\n  jump\t// out\n    /* \"#utility.yul\":1205:1868   */\ntag_3:\n    /* \"#utility.yul\":1293:1299   */\n  0x00\n    /* \"#utility.yul\":1301:1307   */\n  0x00\n    /* \"#utility.yul\":1309:1315   */\n  0x00\n    /* \"#utility.yul\":1358:1360   */\n  0x60\n    /* \"#utility.yul\":1346:1355   */\n  dup5\n    /* \"#utility.yul\":1337:1344   */\n  dup7\n    /* \"#utility.yul\":1333:1356   */\n  sub\n    /* \"#utility.yul\":1329:1361   */\n  slt\n    /* \"#utility.yul\":1326:1445   */\n  iszero\n  tag_43\n  jumpi\n    /* \"#utility.yul\":1364:1443   */\n  tag_44\n  tag_15\n  jump\t// in\ntag_44:\n    /* \"#utility.yul\":1326:1445   */\ntag_43:\n    /* \"#utility.yul\":1484:1485   */\n  0x00\n    /* \"#utility.yul\":1509:1573   */\n  tag_45\n    /* \"#utility.yul\":1565:1572   */\n  dup7\n    /* \"#utility.yul\":1556:1562   */\n  dup3\n    /* \"#utility.yul\":1545:1554   */\n  dup8\n    /* \"#utility.yul\":1541:1563   */\n  add\n    /* \"#utility.yul\":1509:1573   */\n  tag_20\n  jump\t// in\ntag_45:\n    /* \"#utility.yul\":1499:1573   */\n  swap4\n  pop\n    /* \"#utility.yul\":1455:1583   */\n  pop\n    /* \"#utility.yul\":1622:1624   */\n  0x20\n    /* \"#utility.yul\":1648:1712   */\n  tag_46\n    /* \"#utility.yul\":1704:1711   */\n  dup7\n    /* \"#utility.yul\":1695:1701   */\n  dup3\n    /* \"#utility.yul\":1684:1693   */\n  dup8\n    /* \"#utility.yul\":1680:1702   */\n  add\n    /* \"#utility.yul\":1648:1712   */\n  tag_20\n  jump\t// in\ntag_46:\n    /* \"#utility.yul\":1638:1712   */\n  swap3\n  pop\n    /* \"#utility.yul\":1593:1722   */\n  pop\n    /* \"#utility.yul\":1761:1763   */\n  0x40\n    /* \"#utility.yul\":1787:1851   */\n  tag_47\n    /* \"#utility.yul\":1843:1850   */\n  dup7\n    /* \"#utility.yul\":1834:1840   */\n  dup3\n    /* \"#utility.yul\":1823:1832   */\n  dup8\n    /* \"#utility.yul\":1819:1841   */\n  add\n    /* \"#utility.yul\":1787:1851   */\n  tag_23\n  jump\t// in\ntag_47:\n    /* \"#utility.yul\":1777:1851   */\n  swap2\n  pop\n    /* \"#utility.yul\":1732:1861   */\n  pop\n    /* \"#utility.yul\":1205:1868   */\n  swap3\n  pop\n  swap3\n  pop\n  swap3\n  jump\t// out\n    /* \"#utility.yul\":1874:2225   */\ntag_12:\n    /* \"#utility.yul\":1944:1950   */\n  0x00\n    /* \"#utility.yul\":1993:1995   */\n  0x20\n    /* \"#utility.yul\":1981:1990   */\n  dup3\n    /* \"#utility.yul\":1972:1979   */\n  dup5\n    /* \"#utility.yul\":1968:1991   */\n  sub\n    /* \"#utility.yul\":1964:1996   */\n  slt\n    /* \"#utility.yul\":1961:2080   */\n  iszero\n  tag_49\n  jumpi\n    /* \"#utility.yul\":1999:2078   */\n  tag_50\n  tag_15\n  jump\t// in\ntag_50:\n    /* \"#utility.yul\":1961:2080   */\ntag_49:\n    /* \"#utility.yul\":2119:2120   */\n  0x00\n    /* \"#utility.yul\":2144:2208   */\n  tag_51\n    /* \"#utility.yul\":2200:2207   */\n  dup5\n    /* \"#utility.yul\":2191:2197   */\n  dup3\n    /* \"#utility.yul\":2180:2189   */\n  dup6\n    /* \"#utility.yul\":2176:2198   */\n  add\n    /* \"#utility.yul\":2144:2208   */\n  tag_20\n  jump\t// in\ntag_51:\n    /* \"#utility.yul\":2134:2208   */\n  swap2\n  pop\n    /* \"#utility.yul\":2090:2218   */\n  pop\n    /* \"#utility.yul\":1874:2225   */\n  swap3\n  swap2\n  pop\n  pop\n  jump\t// out\n    /* \"src/KipuBankV3.sol\":1970:10614  contract KipuBankV3 {... */\ntag_13:\n  mload(0x80)\n  mload(0xa0)\n  mload(0xc0)\n  mload(0xe0)\n  codecopy(0x00, dataOffset(sub_0), dataSize(sub_0))\n  0x00\n  assignImmutable(\"0x2f5ccb30fa919306cd2899a81c7670a9b1be09e8c15a0b78b0fbbc777d15e97b\")\n  0x00\n  assignImmutable(\"0xac09810740600c31fa69f9db79ed6fc3e3281f758a950fe1fb254a3a3ae571b6\")\n  0x00\n  assignImmutable(\"0xb9aa4ff60d3edb7fbc3b53bd780c9274ed80a5ba1a237d38b011edab2b031b4a\")\n  0x00\n  assignImmutable(\"0x7d4579ab3c781860520f730aa471b37a7366c1c6efb6e34470da23130f5149f7\")\n  return(0x00, dataSize(sub_0))\nstop\n\nsub_0: assembly {\n        /* \"src/KipuBankV3.sol\":1970:10614  contract KipuBankV3 {... */\n      mstore(0x40, 0x80)\n      jumpi(tag_1, lt(calldatasize, 0x04))\n      shr(0xe0, calldataload(0x00))\n      dup1\n      0xac4543ba\n      gt\n      tag_15\n      jumpi\n      dup1\n      0xac4543ba\n      eq\n      tag_9\n      jumpi\n      dup1\n      0xad5c4648\n      eq\n      tag_10\n      jumpi\n      dup1\n      0xc3fd262d\n      eq\n      tag_11\n      jumpi\n      dup1\n      0xdb81f99b\n      eq\n      tag_12\n      jumpi\n      dup1\n      0xf688bcfb\n      eq\n      tag_13\n      jumpi\n      dup1\n      0xf887ea40\n      eq\n      tag_14\n      jumpi\n      jump(tag_2)\n    tag_15:\n      dup1\n      0x13af4035\n      eq\n      tag_3\n      jumpi\n      dup1\n      0x34462be6\n      eq\n      tag_4\n      jumpi\n      dup1\n      0x39657553\n      eq\n      tag_5\n      jumpi\n      dup1\n      0x883f1721\n      eq\n      tag_6\n      jumpi\n      dup1\n      0x89a30271\n      eq\n      tag_7\n      jumpi\n      dup1\n      0x8da5cb5b\n      eq\n      tag_8\n      jumpi\n      jump(tag_2)\n    tag_1:\n      jumpi(tag_2, calldatasize)\n        /* \"src/KipuBankV3.sol\":10374:10386  bool success */\n      0x00\n        /* \"src/KipuBankV3.sol\":10400:10404  this */\n      address\n        /* \"src/KipuBankV3.sol\":10392:10410  address(this).call */\n      0xffffffffffffffffffffffffffffffffffffffff\n      and\n        /* \"src/KipuBankV3.sol\":10482:10483  0 */\n      0x00\n        /* \"src/KipuBankV3.sol\":10425:10484  abi.encodeWithSignature(\"depositETHSwapToUSDC(uint256)\", 0) */\n      add(0x24, mload(0x40))\n      tag_18\n      swap2\n      swap1\n      tag_19\n      jump\t// in\n    tag_18:\n      mload(0x40)\n      0x20\n      dup2\n      dup4\n      sub\n      sub\n      dup2\n      mstore\n      swap1\n      0x40\n      mstore\n      and(not(0xffffffffffffffffffffffffffffffffffffffffffffffffffffffff), 0x883f172100000000000000000000000000000000000000000000000000000000)\n      0x20\n      dup3\n      add\n      dup1\n      mload\n      0xffffffffffffffffffffffffffffffffffffffffffffffffffffffff\n      dup4\n      dup2\n      dup4\n      and\n      or\n      dup4\n      mstore\n      pop\n      pop\n      pop\n      pop\n        /* \"src/KipuBankV3.sol\":10392:10495  address(this).call(... */\n      mload(0x40)\n      tag_20\n      swap2\n      swap1\n      tag_21\n      jump\t// in\n    tag_20:\n      0x00\n      mload(0x40)\n      dup1\n      dup4\n      sub\n      dup2\n      0x00\n      dup7\n      gas\n      call\n      swap2\n      pop\n      pop\n      returndatasize\n      dup1\n      0x00\n      dup2\n      eq\n      tag_24\n      jumpi\n      mload(0x40)\n      swap2\n      pop\n      and(add(returndatasize, 0x3f), not(0x1f))\n      dup3\n      add\n      0x40\n      mstore\n      returndatasize\n      dup3\n      mstore\n      returndatasize\n      0x00\n      0x20\n      dup5\n      add\n      returndatacopy\n      jump(tag_23)\n    tag_24:\n      0x60\n      swap2\n      pop\n    tag_23:\n      pop\n        /* \"src/KipuBankV3.sol\":10373:10495  (bool success, ) = address(this).call(... */\n      pop\n      swap1\n      pop\n        /* \"src/KipuBankV3.sol\":10514:10521  success */\n      dup1\n        /* \"src/KipuBankV3.sol\":10506:10540  require(success, \"Deposit failed\") */\n      tag_25\n      jumpi\n      mload(0x40)\n      0x08c379a000000000000000000000000000000000000000000000000000000000\n      dup2\n      mstore\n      0x04\n      add\n      tag_26\n      swap1\n      tag_27\n      jump\t// in\n    tag_26:\n      mload(0x40)\n      dup1\n      swap2\n      sub\n      swap1\n      revert\n    tag_25:\n        /* \"src/KipuBankV3.sol\":10164:10548  {... */\n      stop\n        /* \"src/KipuBankV3.sol\":1970:10614  contract KipuBankV3 {... */\n    tag_2:\n        /* \"src/KipuBankV3.sol\":10595:10603  revert() */\n      revert(0x00, 0x00)\n        /* \"src/KipuBankV3.sol\":4186:4447  function setOwner(address newOwner) external {... */\n    tag_3:\n      callvalue\n      dup1\n      iszero\n      tag_30\n      jumpi\n      revert(0x00, 0x00)\n    tag_30:\n      pop\n      tag_31\n      0x04\n      dup1\n      calldatasize\n      sub\n      dup2\n      add\n      swap1\n      tag_32\n      swap2\n      swap1\n      tag_33\n      jump\t// in\n    tag_32:\n      tag_34\n      jump\t// in\n    tag_31:\n      stop\n        /* \"src/KipuBankV3.sol\":2414:2438  uint256 public totalUsdc */\n    tag_4:\n      callvalue\n      dup1\n      iszero\n      tag_35\n      jumpi\n      revert(0x00, 0x00)\n    tag_35:\n      pop\n      tag_36\n      tag_37\n      jump\t// in\n    tag_36:\n      mload(0x40)\n      tag_38\n      swap2\n      swap1\n      tag_39\n      jump\t// in\n    tag_38:\n      mload(0x40)\n      dup1\n      swap2\n      sub\n      swap1\n      return\n        /* \"src/KipuBankV3.sol\":7447:9038  function depositTokenSwapToUSDC(... */\n    tag_5:\n      callvalue\n      dup1\n      iszero\n      tag_40\n      jumpi\n      revert(0x00, 0x00)\n    tag_40:\n      pop\n      tag_41\n      0x04\n      dup1\n      calldatasize\n      sub\n      dup2\n      add\n      swap1\n      tag_42\n      swap2\n      swap1\n      tag_43\n      jump\t// in\n    tag_42:\n      tag_44\n      jump\t// in\n    tag_41:\n      stop\n        /* \"src/KipuBankV3.sol\":5732:7033  function depositETHSwapToUSDC(uint256 minUsdcOut) external payable nonReentrant {... */\n    tag_6:\n      tag_45\n      0x04\n      dup1\n      calldatasize\n      sub\n      dup2\n      add\n      swap1\n      tag_46\n      swap2\n      swap1\n      tag_47\n      jump\t// in\n    tag_46:\n      tag_48\n      jump\t// in\n    tag_45:\n      stop\n        /* \"src/KipuBankV3.sol\":2085:2114  address public immutable USDC */\n    tag_7:\n      callvalue\n      dup1\n      iszero\n      tag_49\n      jumpi\n      revert(0x00, 0x00)\n    tag_49:\n      pop\n      tag_50\n      tag_51\n      jump\t// in\n    tag_50:\n      mload(0x40)\n      tag_52\n      swap2\n      swap1\n      tag_53\n      jump\t// in\n    tag_52:\n      mload(0x40)\n      dup1\n      swap2\n      sub\n      swap1\n      return\n        /* \"src/KipuBankV3.sol\":2315:2335  address public owner */\n    tag_8:\n      callvalue\n      dup1\n      iszero\n      tag_54\n      jumpi\n      revert(0x00, 0x00)\n    tag_54:\n      pop\n      tag_55\n      tag_56\n      jump\t// in\n    tag_55:\n      mload(0x40)\n      tag_57\n      swap2\n      swap1\n      tag_53\n      jump\t// in\n    tag_57:\n      mload(0x40)\n      dup1\n      swap2\n      sub\n      swap1\n      return\n        /* \"src/KipuBankV3.sol\":2523:2558  uint256 public immutable bankCapUsd */\n    tag_9:\n      callvalue\n      dup1\n      iszero\n      tag_58\n      jumpi\n      revert(0x00, 0x00)\n    tag_58:\n      pop\n      tag_59\n      tag_60\n      jump\t// in\n    tag_59:\n      mload(0x40)\n      tag_61\n      swap2\n      swap1\n      tag_39\n      jump\t// in\n    tag_61:\n      mload(0x40)\n      dup1\n      swap2\n      sub\n      swap1\n      return\n        /* \"src/KipuBankV3.sol\":2248:2277  address public immutable WETH */\n    tag_10:\n      callvalue\n      dup1\n      iszero\n      tag_62\n      jumpi\n      revert(0x00, 0x00)\n    tag_62:\n      pop\n      tag_63\n      tag_64\n      jump\t// in\n    tag_63:\n      mload(0x40)\n      tag_65\n      swap2\n      swap1\n      tag_53\n      jump\t// in\n    tag_65:\n      mload(0x40)\n      dup1\n      swap2\n      sub\n      swap1\n      return\n        /* \"src/KipuBankV3.sol\":4503:4616  function usdcBalanceOf(address user) external view returns (uint256) {... */\n    tag_11:\n      callvalue\n      dup1\n      iszero\n      tag_66\n      jumpi\n      revert(0x00, 0x00)\n    tag_66:\n      pop\n      tag_67\n      0x04\n      dup1\n      calldatasize\n      sub\n      dup2\n      add\n      swap1\n      tag_68\n      swap2\n      swap1\n      tag_33\n      jump\t// in\n    tag_68:\n      tag_69\n      jump\t// in\n    tag_67:\n      mload(0x40)\n      tag_70\n      swap2\n      swap1\n      tag_39\n      jump\t// in\n    tag_70:\n      mload(0x40)\n      dup1\n      swap2\n      sub\n      swap1\n      return\n        /* \"src/KipuBankV3.sol\":9221:9761  function withdrawUSDC(uint256 amountUsdc) external nonReentrant {... */\n    tag_12:\n      callvalue\n      dup1\n      iszero\n      tag_71\n      jumpi\n      revert(0x00, 0x00)\n    tag_71:\n      pop\n      tag_72\n      0x04\n      dup1\n      calldatasize\n      sub\n      dup2\n      add\n      swap1\n      tag_73\n      swap2\n      swap1\n      tag_47\n      jump\t// in\n    tag_73:\n      tag_74\n      jump\t// in\n    tag_72:\n      stop\n        /* \"src/KipuBankV3.sol\":4835:5525  function depositUSDC(uint256 amountUsdc) external nonReentrant {... */\n    tag_13:\n      callvalue\n      dup1\n      iszero\n      tag_75\n      jumpi\n      revert(0x00, 0x00)\n    tag_75:\n      pop\n      tag_76\n      0x04\n      dup1\n      calldatasize\n      sub\n      dup2\n      add\n      swap1\n      tag_77\n      swap2\n      swap1\n      tag_47\n      jump\t// in\n    tag_77:\n      tag_78\n      jump\t// in\n    tag_76:\n      stop\n        /* \"src/KipuBankV3.sol\":2155:2197  IUniswapV2Router02 public immutable router */\n    tag_14:\n      callvalue\n      dup1\n      iszero\n      tag_79\n      jumpi\n      revert(0x00, 0x00)\n    tag_79:\n      pop\n      tag_80\n      tag_81\n      jump\t// in\n    tag_80:\n      mload(0x40)\n      tag_82\n      swap2\n      swap1\n      tag_83\n      jump\t// in\n    tag_82:\n      mload(0x40)\n      dup1\n      swap2\n      sub\n      swap1\n      return\n        /* \"src/KipuBankV3.sol\":4186:4447  function setOwner(address newOwner) external {... */\n    tag_34:\n        /* \"src/KipuBankV3.sol\":4260:4265  owner */\n      0x00\n      0x00\n      swap1\n      sload\n      swap1\n      0x0100\n      exp\n      swap1\n      div\n      0xffffffffffffffffffffffffffffffffffffffff\n      and\n        /* \"src/KipuBankV3.sol\":4246:4265  msg.sender != owner */\n      0xffffffffffffffffffffffffffffffffffffffff\n      and\n        /* \"src/KipuBankV3.sol\":4246:4256  msg.sender */\n      caller\n        /* \"src/KipuBankV3.sol\":4246:4265  msg.sender != owner */\n      0xffffffffffffffffffffffffffffffffffffffff\n      and\n      eq\n        /* \"src/KipuBankV3.sol\":4242:4284  if (msg.sender != owner) revert NotOwner() */\n      tag_85\n      jumpi\n        /* \"src/KipuBankV3.sol\":4274:4284  NotOwner() */\n      mload(0x40)\n      0x30cd747100000000000000000000000000000000000000000000000000000000\n      dup2\n      mstore\n      0x04\n      add\n      mload(0x40)\n      dup1\n      swap2\n      sub\n      swap1\n      revert\n        /* \"src/KipuBankV3.sol\":4242:4284  if (msg.sender != owner) revert NotOwner() */\n    tag_85:\n        /* \"src/KipuBankV3.sol\":4323:4324  0 */\n      0x00\n        /* \"src/KipuBankV3.sol\":4303:4325  newOwner != address(0) */\n      0xffffffffffffffffffffffffffffffffffffffff\n      and\n        /* \"src/KipuBankV3.sol\":4303:4311  newOwner */\n      dup2\n        /* \"src/KipuBankV3.sol\":4303:4325  newOwner != address(0) */\n      0xffffffffffffffffffffffffffffffffffffffff\n      and\n      sub\n        /* \"src/KipuBankV3.sol\":4295:4339  require(newOwner != address(0), \"zero addr\") */\n      tag_86\n      jumpi\n      mload(0x40)\n      0x08c379a000000000000000000000000000000000000000000000000000000000\n      dup2\n      mstore\n      0x04\n      add\n      tag_87\n      swap1\n      tag_88\n      jump\t// in\n    tag_87:\n      mload(0x40)\n      dup1\n      swap2\n      sub\n      swap1\n      revert\n    tag_86:\n        /* \"src/KipuBankV3.sol\":4350:4361  address old */\n      0x00\n        /* \"src/KipuBankV3.sol\":4364:4369  owner */\n      0x00\n      0x00\n      swap1\n      sload\n      swap1\n      0x0100\n      exp\n      swap1\n      div\n      0xffffffffffffffffffffffffffffffffffffffff\n      and\n        /* \"src/KipuBankV3.sol\":4350:4369  address old = owner */\n      swap1\n      pop\n        /* \"src/KipuBankV3.sol\":4388:4396  newOwner */\n      dup2\n        /* \"src/KipuBankV3.sol\":4380:4385  owner */\n      0x00\n      0x00\n        /* \"src/KipuBankV3.sol\":4380:4396  owner = newOwner */\n      0x0100\n      exp\n      dup2\n      sload\n      dup2\n      0xffffffffffffffffffffffffffffffffffffffff\n      mul\n      not\n      and\n      swap1\n      dup4\n      0xffffffffffffffffffffffffffffffffffffffff\n      and\n      mul\n      or\n      swap1\n      sstore\n      pop\n        /* \"src/KipuBankV3.sol\":4430:4438  newOwner */\n      dup2\n        /* \"src/KipuBankV3.sol\":4412:4439  OwnerChanged(old, newOwner) */\n      0xffffffffffffffffffffffffffffffffffffffff\n      and\n        /* \"src/KipuBankV3.sol\":4425:4428  old */\n      dup2\n        /* \"src/KipuBankV3.sol\":4412:4439  OwnerChanged(old, newOwner) */\n      0xffffffffffffffffffffffffffffffffffffffff\n      and\n      0xb532073b38c83145e3e5135377a08bf9aab55bc0fd7c1179cd4fb995d2a5159c\n      mload(0x40)\n      mload(0x40)\n      dup1\n      swap2\n      sub\n      swap1\n      log3\n        /* \"src/KipuBankV3.sol\":4231:4447  {... */\n      pop\n        /* \"src/KipuBankV3.sol\":4186:4447  function setOwner(address newOwner) external {... */\n      pop\n      jump\t// out\n        /* \"src/KipuBankV3.sol\":2414:2438  uint256 public totalUsdc */\n    tag_37:\n      sload(0x01)\n      dup2\n      jump\t// out\n        /* \"src/KipuBankV3.sol\":7447:9038  function depositTokenSwapToUSDC(... */\n    tag_44:\n        /* \"src/KipuBankV3.sol\":2666:2672  locked */\n      0x02\n      0x00\n      swap1\n      sload\n      swap1\n      0x0100\n      exp\n      swap1\n      div\n      0xff\n      and\n        /* \"src/KipuBankV3.sol\":2662:2692  if (locked) revert Reentrant() */\n      iszero\n      tag_90\n      jumpi\n        /* \"src/KipuBankV3.sol\":2681:2692  Reentrant() */\n      mload(0x40)\n      0xed3ba6a600000000000000000000000000000000000000000000000000000000\n      dup2\n      mstore\n      0x04\n      add\n      mload(0x40)\n      dup1\n      swap2\n      sub\n      swap1\n      revert\n        /* \"src/KipuBankV3.sol\":2662:2692  if (locked) revert Reentrant() */\n    tag_90:\n        /* \"src/KipuBankV3.sol\":2712:2716  true */\n      0x01\n        /* \"src/KipuBankV3.sol\":2703:2709  locked */\n      0x02\n      0x00\n        /* \"src/KipuBankV3.sol\":2703:2716  locked = true */\n      0x0100\n      exp\n      dup2\n      sload\n      dup2\n      0xff\n      mul\n      not\n      and\n      swap1\n      dup4\n      iszero\n      iszero\n      mul\n      or\n      swap1\n      sstore\n      pop\n        /* \"src/KipuBankV3.sol\":7615:7616  0 */\n      0x00\n        /* \"src/KipuBankV3.sol\":7603:7611  amountIn */\n      dup3\n        /* \"src/KipuBankV3.sol\":7603:7616  amountIn == 0 */\n      sub\n        /* \"src/KipuBankV3.sol\":7599:7637  if (amountIn == 0) revert ZeroAmount() */\n      tag_92\n      jumpi\n        /* \"src/KipuBankV3.sol\":7625:7637  ZeroAmount() */\n      mload(0x40)\n      0x1f2a200500000000000000000000000000000000000000000000000000000000\n      dup2\n      mstore\n      0x04\n      add\n      mload(0x40)\n      dup1\n      swap2\n      sub\n      swap1\n      revert\n        /* \"src/KipuBankV3.sol\":7599:7637  if (amountIn == 0) revert ZeroAmount() */\n    tag_92:\n        /* \"src/KipuBankV3.sol\":7669:7670  0 */\n      0x00\n        /* \"src/KipuBankV3.sol\":7652:7671  token == address(0) */\n      0xffffffffffffffffffffffffffffffffffffffff\n      and\n        /* \"src/KipuBankV3.sol\":7652:7657  token */\n      dup4\n        /* \"src/KipuBankV3.sol\":7652:7671  token == address(0) */\n      0xffffffffffffffffffffffffffffffffffffffff\n      and\n      eq\n        /* \"src/KipuBankV3.sol\":7652:7688  token == address(0) || token == USDC */\n      dup1\n      tag_93\n      jumpi\n      pop\n        /* \"src/KipuBankV3.sol\":7684:7688  USDC */\n      immutable(\"0x7d4579ab3c781860520f730aa471b37a7366c1c6efb6e34470da23130f5149f7\")\n        /* \"src/KipuBankV3.sol\":7675:7688  token == USDC */\n      0xffffffffffffffffffffffffffffffffffffffff\n      and\n        /* \"src/KipuBankV3.sol\":7675:7680  token */\n      dup4\n        /* \"src/KipuBankV3.sol\":7675:7688  token == USDC */\n      0xffffffffffffffffffffffffffffffffffffffff\n      and\n      eq\n        /* \"src/KipuBankV3.sol\":7652:7688  token == address(0) || token == USDC */\n    tag_93:\n        /* \"src/KipuBankV3.sol\":7648:7710  if (token == address(0) || token == USDC) revert InvalidPath() */\n      iszero\n      tag_94\n      jumpi\n        /* \"src/KipuBankV3.sol\":7697:7710  InvalidPath() */\n      mload(0x40)\n      0x20db826700000000000000000000000000000000000000000000000000000000\n      dup2\n      mstore\n      0x04\n      add\n      mload(0x40)\n      dup1\n      swap2\n      sub\n      swap1\n      revert\n        /* \"src/KipuBankV3.sol\":7648:7710  if (token == address(0) || token == USDC) revert InvalidPath() */\n    tag_94:\n        /* \"src/KipuBankV3.sol\":7769:7777  bool ok1 */\n      0x00\n        /* \"src/KipuBankV3.sol\":7787:7792  token */\n      dup4\n        /* \"src/KipuBankV3.sol\":7780:7806  IERC20(token).transferFrom */\n      0xffffffffffffffffffffffffffffffffffffffff\n      and\n      0x23b872dd\n        /* \"src/KipuBankV3.sol\":7807:7817  msg.sender */\n      caller\n        /* \"src/KipuBankV3.sol\":7827:7831  this */\n      address\n        /* \"src/KipuBankV3.sol\":7834:7842  amountIn */\n      dup7\n        /* \"src/KipuBankV3.sol\":7780:7843  IERC20(token).transferFrom(msg.sender, address(this), amountIn) */\n      mload(0x40)\n      dup5\n      0xffffffff\n      and\n      0xe0\n      shl\n      dup2\n      mstore\n      0x04\n      add\n      tag_95\n      swap4\n      swap3\n      swap2\n      swap1\n      tag_96\n      jump\t// in\n    tag_95:\n      0x20\n      mload(0x40)\n      dup1\n      dup4\n      sub\n      dup2\n      0x00\n      dup8\n      gas\n      call\n      iszero\n      dup1\n      iszero\n      tag_98\n      jumpi\n      returndatacopy(0x00, 0x00, returndatasize)\n      revert(0x00, returndatasize)\n    tag_98:\n      pop\n      pop\n      pop\n      pop\n      mload(0x40)\n      returndatasize\n      not(0x1f)\n      0x1f\n      dup3\n      add\n      and\n      dup3\n      add\n      dup1\n      0x40\n      mstore\n      pop\n      dup2\n      add\n      swap1\n      tag_99\n      swap2\n      swap1\n      tag_100\n      jump\t// in\n    tag_99:\n        /* \"src/KipuBankV3.sol\":7769:7843  bool ok1 = IERC20(token).transferFrom(msg.sender, address(this), amountIn) */\n      swap1\n      pop\n        /* \"src/KipuBankV3.sol\":7859:7862  ok1 */\n      dup1\n        /* \"src/KipuBankV3.sol\":7854:7883  if (!ok1) revert SwapFailed() */\n      tag_101\n      jumpi\n        /* \"src/KipuBankV3.sol\":7871:7883  SwapFailed() */\n      mload(0x40)\n      0x81ceff3000000000000000000000000000000000000000000000000000000000\n      dup2\n      mstore\n      0x04\n      add\n      mload(0x40)\n      dup1\n      swap2\n      sub\n      swap1\n      revert\n        /* \"src/KipuBankV3.sol\":7854:7883  if (!ok1) revert SwapFailed() */\n    tag_101:\n        /* \"src/KipuBankV3.sol\":7946:7992  _safeApprove(token, address(router), amountIn) */\n      tag_102\n        /* \"src/KipuBankV3.sol\":7959:7964  token */\n      dup5\n        /* \"src/KipuBankV3.sol\":7974:7980  router */\n      immutable(\"0xb9aa4ff60d3edb7fbc3b53bd780c9274ed80a5ba1a237d38b011edab2b031b4a\")\n        /* \"src/KipuBankV3.sol\":7983:7991  amountIn */\n      dup6\n        /* \"src/KipuBankV3.sol\":7946:7958  _safeApprove */\n      tag_103\n        /* \"src/KipuBankV3.sol\":7946:7992  _safeApprove(token, address(router), amountIn) */\n      jump\t// in\n    tag_102:\n        /* \"src/KipuBankV3.sol\":8049:8070  address[] memory path */\n      0x00\n        /* \"src/KipuBankV3.sol\":8087:8088  2 */\n      0x02\n        /* \"src/KipuBankV3.sol\":8073:8089  new address[](2) */\n      0xffffffffffffffff\n      dup2\n      gt\n      iszero\n      tag_104\n      jumpi\n      tag_105\n      tag_106\n      jump\t// in\n    tag_105:\n    tag_104:\n      mload(0x40)\n      swap1\n      dup1\n      dup3\n      mstore\n      dup1\n      0x20\n      mul\n      0x20\n      add\n      dup3\n      add\n      0x40\n      mstore\n      dup1\n      iszero\n      tag_107\n      jumpi\n      dup2\n      0x20\n      add\n      0x20\n      dup3\n      mul\n      dup1\n      calldatasize\n      dup4\n      calldatacopy\n      dup1\n      dup3\n      add\n      swap2\n      pop\n      pop\n      swap1\n      pop\n    tag_107:\n      pop\n        /* \"src/KipuBankV3.sol\":8049:8089  address[] memory path = new address[](2) */\n      swap1\n      pop\n        /* \"src/KipuBankV3.sol\":8110:8115  token */\n      dup5\n        /* \"src/KipuBankV3.sol\":8100:8104  path */\n      dup2\n        /* \"src/KipuBankV3.sol\":8105:8106  0 */\n      0x00\n        /* \"src/KipuBankV3.sol\":8100:8107  path[0] */\n      dup2\n      mload\n      dup2\n      lt\n      tag_108\n      jumpi\n      tag_109\n      tag_110\n      jump\t// in\n    tag_109:\n    tag_108:\n      0x20\n      mul\n      0x20\n      add\n      add\n        /* \"src/KipuBankV3.sol\":8100:8115  path[0] = token */\n      swap1\n      0xffffffffffffffffffffffffffffffffffffffff\n      and\n      swap1\n      dup2\n      0xffffffffffffffffffffffffffffffffffffffff\n      and\n      dup2\n      mstore\n      pop\n      pop\n        /* \"src/KipuBankV3.sol\":8136:8140  USDC */\n      immutable(\"0x7d4579ab3c781860520f730aa471b37a7366c1c6efb6e34470da23130f5149f7\")\n        /* \"src/KipuBankV3.sol\":8126:8130  path */\n      dup2\n        /* \"src/KipuBankV3.sol\":8131:8132  1 */\n      0x01\n        /* \"src/KipuBankV3.sol\":8126:8133  path[1] */\n      dup2\n      mload\n      dup2\n      lt\n      tag_111\n      jumpi\n      tag_112\n      tag_110\n      jump\t// in\n    tag_112:\n    tag_111:\n      0x20\n      mul\n      0x20\n      add\n      add\n        /* \"src/KipuBankV3.sol\":8126:8140  path[1] = USDC */\n      swap1\n      0xffffffffffffffffffffffffffffffffffffffff\n      and\n      swap1\n      dup2\n      0xffffffffffffffffffffffffffffffffffffffff\n      and\n      dup2\n      mstore\n      pop\n      pop\n        /* \"src/KipuBankV3.sol\":8173:8186  uint deadline */\n      0x00\n        /* \"src/KipuBankV3.sol\":8207:8210  300 */\n      0x012c\n        /* \"src/KipuBankV3.sol\":8189:8204  block.timestamp */\n      timestamp\n        /* \"src/KipuBankV3.sol\":8189:8210  block.timestamp + 300 */\n      tag_113\n      swap2\n      swap1\n      tag_114\n      jump\t// in\n    tag_113:\n        /* \"src/KipuBankV3.sol\":8173:8210  uint deadline = block.timestamp + 300 */\n      swap1\n      pop\n        /* \"src/KipuBankV3.sol\":8221:8242  uint[] memory amounts */\n      0x00\n        /* \"src/KipuBankV3.sol\":8245:8251  router */\n      immutable(\"0xb9aa4ff60d3edb7fbc3b53bd780c9274ed80a5ba1a237d38b011edab2b031b4a\")\n        /* \"src/KipuBankV3.sol\":8245:8276  router.swapExactTokensForTokens */\n      0xffffffffffffffffffffffffffffffffffffffff\n      and\n      0x38ed1739\n        /* \"src/KipuBankV3.sol\":8291:8299  amountIn */\n      dup8\n        /* \"src/KipuBankV3.sol\":8314:8324  minUsdcOut */\n      dup8\n        /* \"src/KipuBankV3.sol\":8339:8343  path */\n      dup7\n        /* \"src/KipuBankV3.sol\":8366:8370  this */\n      address\n        /* \"src/KipuBankV3.sol\":8386:8394  deadline */\n      dup8\n        /* \"src/KipuBankV3.sol\":8245:8405  router.swapExactTokensForTokens(... */\n      mload(0x40)\n      dup7\n      0xffffffff\n      and\n      0xe0\n      shl\n      dup2\n      mstore\n      0x04\n      add\n      tag_115\n      swap6\n      swap5\n      swap4\n      swap3\n      swap2\n      swap1\n      tag_116\n      jump\t// in\n    tag_115:\n      0x00\n      mload(0x40)\n      dup1\n      dup4\n      sub\n      dup2\n      0x00\n      dup8\n      gas\n      call\n      iszero\n      dup1\n      iszero\n      tag_118\n      jumpi\n      returndatacopy(0x00, 0x00, returndatasize)\n      revert(0x00, returndatasize)\n    tag_118:\n      pop\n      pop\n      pop\n      pop\n      mload(0x40)\n      returndatasize\n      0x00\n      dup3\n      returndatacopy\n      returndatasize\n      not(0x1f)\n      0x1f\n      dup3\n      add\n      and\n      dup3\n      add\n      dup1\n      0x40\n      mstore\n      pop\n      dup2\n      add\n      swap1\n      tag_119\n      swap2\n      swap1\n      tag_120\n      jump\t// in\n    tag_119:\n        /* \"src/KipuBankV3.sol\":8221:8405  uint[] memory amounts = router.swapExactTokensForTokens(... */\n      swap1\n      pop\n        /* \"src/KipuBankV3.sol\":8437:8438  2 */\n      0x02\n        /* \"src/KipuBankV3.sol\":8420:8427  amounts */\n      dup2\n        /* \"src/KipuBankV3.sol\":8420:8434  amounts.length */\n      mload\n        /* \"src/KipuBankV3.sol\":8420:8438  amounts.length < 2 */\n      lt\n        /* \"src/KipuBankV3.sol\":8416:8459  if (amounts.length < 2) revert SwapFailed() */\n      iszero\n      tag_121\n      jumpi\n        /* \"src/KipuBankV3.sol\":8447:8459  SwapFailed() */\n      mload(0x40)\n      0x81ceff3000000000000000000000000000000000000000000000000000000000\n      dup2\n      mstore\n      0x04\n      add\n      mload(0x40)\n      dup1\n      swap2\n      sub\n      swap1\n      revert\n        /* \"src/KipuBankV3.sol\":8416:8459  if (amounts.length < 2) revert SwapFailed() */\n    tag_121:\n        /* \"src/KipuBankV3.sol\":8472:8489  uint usdcReceived */\n      0x00\n        /* \"src/KipuBankV3.sol\":8492:8499  amounts */\n      dup2\n        /* \"src/KipuBankV3.sol\":8517:8518  1 */\n      0x01\n        /* \"src/KipuBankV3.sol\":8500:8507  amounts */\n      dup4\n        /* \"src/KipuBankV3.sol\":8500:8514  amounts.length */\n      mload\n        /* \"src/KipuBankV3.sol\":8500:8518  amounts.length - 1 */\n      tag_122\n      swap2\n      swap1\n      tag_123\n      jump\t// in\n    tag_122:\n        /* \"src/KipuBankV3.sol\":8492:8519  amounts[amounts.length - 1] */\n      dup2\n      mload\n      dup2\n      lt\n      tag_124\n      jumpi\n      tag_125\n      tag_110\n      jump\t// in\n    tag_125:\n    tag_124:\n      0x20\n      mul\n      0x20\n      add\n      add\n      mload\n        /* \"src/KipuBankV3.sol\":8472:8519  uint usdcReceived = amounts[amounts.length - 1] */\n      swap1\n      pop\n        /* \"src/KipuBankV3.sol\":8607:8617  bankCapUsd */\n      immutable(\"0x2f5ccb30fa919306cd2899a81c7670a9b1be09e8c15a0b78b0fbbc777d15e97b\")\n        /* \"src/KipuBankV3.sol\":8592:8604  usdcReceived */\n      dup2\n        /* \"src/KipuBankV3.sol\":8580:8589  totalUsdc */\n      sload(0x01)\n        /* \"src/KipuBankV3.sol\":8580:8604  totalUsdc + usdcReceived */\n      tag_126\n      swap2\n      swap1\n      tag_114\n      jump\t// in\n    tag_126:\n        /* \"src/KipuBankV3.sol\":8580:8617  totalUsdc + usdcReceived > bankCapUsd */\n      gt\n        /* \"src/KipuBankV3.sol\":8576:8846  if (totalUsdc + usdcReceived > bankCapUsd) {... */\n      iszero\n      tag_127\n      jumpi\n        /* \"src/KipuBankV3.sol\":8720:8724  USDC */\n      immutable(\"0x7d4579ab3c781860520f730aa471b37a7366c1c6efb6e34470da23130f5149f7\")\n        /* \"src/KipuBankV3.sol\":8713:8734  IERC20(USDC).transfer */\n      0xffffffffffffffffffffffffffffffffffffffff\n      and\n      0xa9059cbb\n        /* \"src/KipuBankV3.sol\":8735:8745  msg.sender */\n      caller\n        /* \"src/KipuBankV3.sol\":8747:8759  usdcReceived */\n      dup4\n        /* \"src/KipuBankV3.sol\":8713:8760  IERC20(USDC).transfer(msg.sender, usdcReceived) */\n      mload(0x40)\n      dup4\n      0xffffffff\n      and\n      0xe0\n      shl\n      dup2\n      mstore\n      0x04\n      add\n      tag_128\n      swap3\n      swap2\n      swap1\n      tag_129\n      jump\t// in\n    tag_128:\n      0x20\n      mload(0x40)\n      dup1\n      dup4\n      sub\n      dup2\n      0x00\n      dup8\n      gas\n      call\n      iszero\n      dup1\n      iszero\n      tag_131\n      jumpi\n      returndatacopy(0x00, 0x00, returndatasize)\n      revert(0x00, returndatasize)\n    tag_131:\n      pop\n      pop\n      pop\n      pop\n      mload(0x40)\n      returndatasize\n      not(0x1f)\n      0x1f\n      dup3\n      add\n      and\n      dup3\n      add\n      dup1\n      0x40\n      mstore\n      pop\n      dup2\n      add\n      swap1\n      tag_132\n      swap2\n      swap1\n      tag_100\n      jump\t// in\n    tag_132:\n      pop\n        /* \"src/KipuBankV3.sol\":8798:8810  usdcReceived */\n      dup1\n        /* \"src/KipuBankV3.sol\":8812:8821  totalUsdc */\n      sload(0x01)\n        /* \"src/KipuBankV3.sol\":8823:8833  bankCapUsd */\n      immutable(\"0x2f5ccb30fa919306cd2899a81c7670a9b1be09e8c15a0b78b0fbbc777d15e97b\")\n        /* \"src/KipuBankV3.sol\":8782:8834  BankCapExceeded(usdcReceived, totalUsdc, bankCapUsd) */\n      mload(0x40)\n      0x621e5a6900000000000000000000000000000000000000000000000000000000\n      dup2\n      mstore\n      0x04\n      add\n      tag_133\n      swap4\n      swap3\n      swap2\n      swap1\n      tag_134\n      jump\t// in\n    tag_133:\n      mload(0x40)\n      dup1\n      swap2\n      sub\n      swap1\n      revert\n        /* \"src/KipuBankV3.sol\":8576:8846  if (totalUsdc + usdcReceived > bankCapUsd) {... */\n    tag_127:\n        /* \"src/KipuBankV3.sol\":8890:8902  usdcReceived */\n      dup1\n        /* \"src/KipuBankV3.sol\":8877:8886  totalUsdc */\n      0x01\n      0x00\n        /* \"src/KipuBankV3.sol\":8877:8902  totalUsdc += usdcReceived */\n      dup3\n      dup3\n      sload\n      tag_135\n      swap2\n      swap1\n      tag_114\n      jump\t// in\n    tag_135:\n      swap3\n      pop\n      pop\n      dup2\n      swap1\n      sstore\n      pop\n        /* \"src/KipuBankV3.sol\":8941:8953  usdcReceived */\n      dup1\n        /* \"src/KipuBankV3.sol\":8913:8925  usdcBalances */\n      0x03\n        /* \"src/KipuBankV3.sol\":8913:8937  usdcBalances[msg.sender] */\n      0x00\n        /* \"src/KipuBankV3.sol\":8926:8936  msg.sender */\n      caller\n        /* \"src/KipuBankV3.sol\":8913:8937  usdcBalances[msg.sender] */\n      0xffffffffffffffffffffffffffffffffffffffff\n      and\n      0xffffffffffffffffffffffffffffffffffffffff\n      and\n      dup2\n      mstore\n      0x20\n      add\n      swap1\n      dup2\n      mstore\n      0x20\n      add\n      0x00\n      keccak256\n      0x00\n        /* \"src/KipuBankV3.sol\":8913:8953  usdcBalances[msg.sender] += usdcReceived */\n      dup3\n      dup3\n      sload\n      tag_136\n      swap2\n      swap1\n      tag_114\n      jump\t// in\n    tag_136:\n      swap3\n      pop\n      pop\n      dup2\n      swap1\n      sstore\n      pop\n        /* \"src/KipuBankV3.sol\":9000:9005  token */\n      dup8\n        /* \"src/KipuBankV3.sol\":8971:9030  DepositConverted(msg.sender, token, amountIn, usdcReceived) */\n      0xffffffffffffffffffffffffffffffffffffffff\n      and\n        /* \"src/KipuBankV3.sol\":8988:8998  msg.sender */\n      caller\n        /* \"src/KipuBankV3.sol\":8971:9030  DepositConverted(msg.sender, token, amountIn, usdcReceived) */\n      0xffffffffffffffffffffffffffffffffffffffff\n      and\n      0xab466672cd9adae1c2072831f94c1068597b355987d2a64d4e5a7dcd74e5cda5\n        /* \"src/KipuBankV3.sol\":9007:9015  amountIn */\n      dup10\n        /* \"src/KipuBankV3.sol\":9017:9029  usdcReceived */\n      dup5\n        /* \"src/KipuBankV3.sol\":8971:9030  DepositConverted(msg.sender, token, amountIn, usdcReceived) */\n      mload(0x40)\n      tag_137\n      swap3\n      swap2\n      swap1\n      tag_138\n      jump\t// in\n    tag_137:\n      mload(0x40)\n      dup1\n      swap2\n      sub\n      swap1\n      log3\n        /* \"src/KipuBankV3.sol\":7588:9038  {... */\n      pop\n      pop\n      pop\n      pop\n      pop\n        /* \"src/KipuBankV3.sol\":2748:2753  false */\n      0x00\n        /* \"src/KipuBankV3.sol\":2739:2745  locked */\n      0x02\n      0x00\n        /* \"src/KipuBankV3.sol\":2739:2753  locked = false */\n      0x0100\n      exp\n      dup2\n      sload\n      dup2\n      0xff\n      mul\n      not\n      and\n      swap1\n      dup4\n      iszero\n      iszero\n      mul\n      or\n      swap1\n      sstore\n      pop\n        /* \"src/KipuBankV3.sol\":7447:9038  function depositTokenSwapToUSDC(... */\n      pop\n      pop\n      pop\n      jump\t// out\n        /* \"src/KipuBankV3.sol\":5732:7033  function depositETHSwapToUSDC(uint256 minUsdcOut) external payable nonReentrant {... */\n    tag_48:\n        /* \"src/KipuBankV3.sol\":2666:2672  locked */\n      0x02\n      0x00\n      swap1\n      sload\n      swap1\n      0x0100\n      exp\n      swap1\n      div\n      0xff\n      and\n        /* \"src/KipuBankV3.sol\":2662:2692  if (locked) revert Reentrant() */\n      iszero\n      tag_140\n      jumpi\n        /* \"src/KipuBankV3.sol\":2681:2692  Reentrant() */\n      mload(0x40)\n      0xed3ba6a600000000000000000000000000000000000000000000000000000000\n      dup2\n      mstore\n      0x04\n      add\n      mload(0x40)\n      dup1\n      swap2\n      sub\n      swap1\n      revert\n        /* \"src/KipuBankV3.sol\":2662:2692  if (locked) revert Reentrant() */\n    tag_140:\n        /* \"src/KipuBankV3.sol\":2712:2716  true */\n      0x01\n        /* \"src/KipuBankV3.sol\":2703:2709  locked */\n      0x02\n      0x00\n        /* \"src/KipuBankV3.sol\":2703:2716  locked = true */\n      0x0100\n      exp\n      dup2\n      sload\n      dup2\n      0xff\n      mul\n      not\n      and\n      swap1\n      dup4\n      iszero\n      iszero\n      mul\n      or\n      swap1\n      sstore\n      pop\n        /* \"src/KipuBankV3.sol\":5840:5841  0 */\n      0x00\n        /* \"src/KipuBankV3.sol\":5827:5836  msg.value */\n      callvalue\n        /* \"src/KipuBankV3.sol\":5827:5841  msg.value == 0 */\n      sub\n        /* \"src/KipuBankV3.sol\":5823:5862  if (msg.value == 0) revert ZeroAmount() */\n      tag_142\n      jumpi\n        /* \"src/KipuBankV3.sol\":5850:5862  ZeroAmount() */\n      mload(0x40)\n      0x1f2a200500000000000000000000000000000000000000000000000000000000\n      dup2\n      mstore\n      0x04\n      add\n      mload(0x40)\n      dup1\n      swap2\n      sub\n      swap1\n      revert\n        /* \"src/KipuBankV3.sol\":5823:5862  if (msg.value == 0) revert ZeroAmount() */\n    tag_142:\n        /* \"src/KipuBankV3.sol\":5910:5914  WETH */\n      immutable(\"0xac09810740600c31fa69f9db79ed6fc3e3281f758a950fe1fb254a3a3ae571b6\")\n        /* \"src/KipuBankV3.sol\":5904:5923  IWETH(WETH).deposit */\n      0xffffffffffffffffffffffffffffffffffffffff\n      and\n      0xd0e30db0\n        /* \"src/KipuBankV3.sol\":5931:5940  msg.value */\n      callvalue\n        /* \"src/KipuBankV3.sol\":5904:5943  IWETH(WETH).deposit{value: msg.value}() */\n      mload(0x40)\n      dup3\n      0xffffffff\n      and\n      0xe0\n      shl\n      dup2\n      mstore\n      0x04\n      add\n      0x00\n      mload(0x40)\n      dup1\n      dup4\n      sub\n      dup2\n      dup6\n      dup9\n      dup1\n      extcodesize\n      iszero\n      dup1\n      iszero\n      tag_143\n      jumpi\n      revert(0x00, 0x00)\n    tag_143:\n      pop\n      gas\n      call\n      iszero\n      dup1\n      iszero\n      tag_145\n      jumpi\n      returndatacopy(0x00, 0x00, returndatasize)\n      revert(0x00, returndatasize)\n    tag_145:\n      pop\n      pop\n      pop\n      pop\n      pop\n        /* \"src/KipuBankV3.sol\":5983:6029  _safeApprove(WETH, address(router), msg.value) */\n      tag_146\n        /* \"src/KipuBankV3.sol\":5996:6000  WETH */\n      immutable(\"0xac09810740600c31fa69f9db79ed6fc3e3281f758a950fe1fb254a3a3ae571b6\")\n        /* \"src/KipuBankV3.sol\":6010:6016  router */\n      immutable(\"0xb9aa4ff60d3edb7fbc3b53bd780c9274ed80a5ba1a237d38b011edab2b031b4a\")\n        /* \"src/KipuBankV3.sol\":6019:6028  msg.value */\n      callvalue\n        /* \"src/KipuBankV3.sol\":5983:5995  _safeApprove */\n      tag_103\n        /* \"src/KipuBankV3.sol\":5983:6029  _safeApprove(WETH, address(router), msg.value) */\n      jump\t// in\n    tag_146:\n        /* \"src/KipuBankV3.sol\":6100:6121  address[] memory path */\n      0x00\n        /* \"src/KipuBankV3.sol\":6138:6139  2 */\n      0x02\n        /* \"src/KipuBankV3.sol\":6124:6140  new address[](2) */\n      0xffffffffffffffff\n      dup2\n      gt\n      iszero\n      tag_147\n      jumpi\n      tag_148\n      tag_106\n      jump\t// in\n    tag_148:\n    tag_147:\n      mload(0x40)\n      swap1\n      dup1\n      dup3\n      mstore\n      dup1\n      0x20\n      mul\n      0x20\n      add\n      dup3\n      add\n      0x40\n      mstore\n      dup1\n      iszero\n      tag_149\n      jumpi\n      dup2\n      0x20\n      add\n      0x20\n      dup3\n      mul\n      dup1\n      calldatasize\n      dup4\n      calldatacopy\n      dup1\n      dup3\n      add\n      swap2\n      pop\n      pop\n      swap1\n      pop\n    tag_149:\n      pop\n        /* \"src/KipuBankV3.sol\":6100:6140  address[] memory path = new address[](2) */\n      swap1\n      pop\n        /* \"src/KipuBankV3.sol\":6161:6165  WETH */\n      immutable(\"0xac09810740600c31fa69f9db79ed6fc3e3281f758a950fe1fb254a3a3ae571b6\")\n        /* \"src/KipuBankV3.sol\":6151:6155  path */\n      dup2\n        /* \"src/KipuBankV3.sol\":6156:6157  0 */\n      0x00\n        /* \"src/KipuBankV3.sol\":6151:6158  path[0] */\n      dup2\n      mload\n      dup2\n      lt\n      tag_150\n      jumpi\n      tag_151\n      tag_110\n      jump\t// in\n    tag_151:\n    tag_150:\n      0x20\n      mul\n      0x20\n      add\n      add\n        /* \"src/KipuBankV3.sol\":6151:6165  path[0] = WETH */\n      swap1\n      0xffffffffffffffffffffffffffffffffffffffff\n      and\n      swap1\n      dup2\n      0xffffffffffffffffffffffffffffffffffffffff\n      and\n      dup2\n      mstore\n      pop\n      pop\n        /* \"src/KipuBankV3.sol\":6186:6190  USDC */\n      immutable(\"0x7d4579ab3c781860520f730aa471b37a7366c1c6efb6e34470da23130f5149f7\")\n        /* \"src/KipuBankV3.sol\":6176:6180  path */\n      dup2\n        /* \"src/KipuBankV3.sol\":6181:6182  1 */\n      0x01\n        /* \"src/KipuBankV3.sol\":6176:6183  path[1] */\n      dup2\n      mload\n      dup2\n      lt\n      tag_152\n      jumpi\n      tag_153\n      tag_110\n      jump\t// in\n    tag_153:\n    tag_152:\n      0x20\n      mul\n      0x20\n      add\n      add\n        /* \"src/KipuBankV3.sol\":6176:6190  path[1] = USDC */\n      swap1\n      0xffffffffffffffffffffffffffffffffffffffff\n      and\n      swap1\n      dup2\n      0xffffffffffffffffffffffffffffffffffffffff\n      and\n      dup2\n      mstore\n      pop\n      pop\n        /* \"src/KipuBankV3.sol\":6229:6242  uint deadline */\n      0x00\n        /* \"src/KipuBankV3.sol\":6263:6266  300 */\n      0x012c\n        /* \"src/KipuBankV3.sol\":6245:6260  block.timestamp */\n      timestamp\n        /* \"src/KipuBankV3.sol\":6245:6266  block.timestamp + 300 */\n      tag_154\n      swap2\n      swap1\n      tag_114\n      jump\t// in\n    tag_154:\n        /* \"src/KipuBankV3.sol\":6229:6266  uint deadline = block.timestamp + 300 */\n      swap1\n      pop\n        /* \"src/KipuBankV3.sol\":6277:6298  uint[] memory amounts */\n      0x00\n        /* \"src/KipuBankV3.sol\":6301:6307  router */\n      immutable(\"0xb9aa4ff60d3edb7fbc3b53bd780c9274ed80a5ba1a237d38b011edab2b031b4a\")\n        /* \"src/KipuBankV3.sol\":6301:6332  router.swapExactTokensForTokens */\n      0xffffffffffffffffffffffffffffffffffffffff\n      and\n      0x38ed1739\n        /* \"src/KipuBankV3.sol\":6347:6356  msg.value */\n      callvalue\n        /* \"src/KipuBankV3.sol\":6371:6381  minUsdcOut */\n      dup7\n        /* \"src/KipuBankV3.sol\":6396:6400  path */\n      dup7\n        /* \"src/KipuBankV3.sol\":6423:6427  this */\n      address\n        /* \"src/KipuBankV3.sol\":6443:6451  deadline */\n      dup8\n        /* \"src/KipuBankV3.sol\":6301:6462  router.swapExactTokensForTokens(... */\n      mload(0x40)\n      dup7\n      0xffffffff\n      and\n      0xe0\n      shl\n      dup2\n      mstore\n      0x04\n      add\n      tag_155\n      swap6\n      swap5\n      swap4\n      swap3\n      swap2\n      swap1\n      tag_116\n      jump\t// in\n    tag_155:\n      0x00\n      mload(0x40)\n      dup1\n      dup4\n      sub\n      dup2\n      0x00\n      dup8\n      gas\n      call\n      iszero\n      dup1\n      iszero\n      tag_157\n      jumpi\n      returndatacopy(0x00, 0x00, returndatasize)\n      revert(0x00, returndatasize)\n    tag_157:\n      pop\n      pop\n      pop\n      pop\n      mload(0x40)\n      returndatasize\n      0x00\n      dup3\n      returndatacopy\n      returndatasize\n      not(0x1f)\n      0x1f\n      dup3\n      add\n      and\n      dup3\n      add\n      dup1\n      0x40\n      mstore\n      pop\n      dup2\n      add\n      swap1\n      tag_158\n      swap2\n      swap1\n      tag_120\n      jump\t// in\n    tag_158:\n        /* \"src/KipuBankV3.sol\":6277:6462  uint[] memory amounts = router.swapExactTokensForTokens(... */\n      swap1\n      pop\n        /* \"src/KipuBankV3.sol\":6494:6495  2 */\n      0x02\n        /* \"src/KipuBankV3.sol\":6477:6484  amounts */\n      dup2\n        /* \"src/KipuBankV3.sol\":6477:6491  amounts.length */\n      mload\n        /* \"src/KipuBankV3.sol\":6477:6495  amounts.length < 2 */\n      lt\n        /* \"src/KipuBankV3.sol\":6473:6516  if (amounts.length < 2) revert SwapFailed() */\n      iszero\n      tag_159\n      jumpi\n        /* \"src/KipuBankV3.sol\":6504:6516  SwapFailed() */\n      mload(0x40)\n      0x81ceff3000000000000000000000000000000000000000000000000000000000\n      dup2\n      mstore\n      0x04\n      add\n      mload(0x40)\n      dup1\n      swap2\n      sub\n      swap1\n      revert\n        /* \"src/KipuBankV3.sol\":6473:6516  if (amounts.length < 2) revert SwapFailed() */\n    tag_159:\n        /* \"src/KipuBankV3.sol\":6529:6546  uint usdcReceived */\n      0x00\n        /* \"src/KipuBankV3.sol\":6549:6556  amounts */\n      dup2\n        /* \"src/KipuBankV3.sol\":6574:6575  1 */\n      0x01\n        /* \"src/KipuBankV3.sol\":6557:6564  amounts */\n      dup4\n        /* \"src/KipuBankV3.sol\":6557:6571  amounts.length */\n      mload\n        /* \"src/KipuBankV3.sol\":6557:6575  amounts.length - 1 */\n      tag_160\n      swap2\n      swap1\n      tag_123\n      jump\t// in\n    tag_160:\n        /* \"src/KipuBankV3.sol\":6549:6576  amounts[amounts.length - 1] */\n      dup2\n      mload\n      dup2\n      lt\n      tag_161\n      jumpi\n      tag_162\n      tag_110\n      jump\t// in\n    tag_162:\n    tag_161:\n      0x20\n      mul\n      0x20\n      add\n      add\n      mload\n        /* \"src/KipuBankV3.sol\":6529:6576  uint usdcReceived = amounts[amounts.length - 1] */\n      swap1\n      pop\n        /* \"src/KipuBankV3.sol\":6668:6678  bankCapUsd */\n      immutable(\"0x2f5ccb30fa919306cd2899a81c7670a9b1be09e8c15a0b78b0fbbc777d15e97b\")\n        /* \"src/KipuBankV3.sol\":6653:6665  usdcReceived */\n      dup2\n        /* \"src/KipuBankV3.sol\":6641:6650  totalUsdc */\n      sload(0x01)\n        /* \"src/KipuBankV3.sol\":6641:6665  totalUsdc + usdcReceived */\n      tag_163\n      swap2\n      swap1\n      tag_114\n      jump\t// in\n    tag_163:\n        /* \"src/KipuBankV3.sol\":6641:6678  totalUsdc + usdcReceived > bankCapUsd */\n      gt\n        /* \"src/KipuBankV3.sol\":6637:6828  if (totalUsdc + usdcReceived > bankCapUsd) {... */\n      iszero\n      tag_164\n      jumpi\n        /* \"src/KipuBankV3.sol\":6702:6706  USDC */\n      immutable(\"0x7d4579ab3c781860520f730aa471b37a7366c1c6efb6e34470da23130f5149f7\")\n        /* \"src/KipuBankV3.sol\":6695:6716  IERC20(USDC).transfer */\n      0xffffffffffffffffffffffffffffffffffffffff\n      and\n      0xa9059cbb\n        /* \"src/KipuBankV3.sol\":6717:6727  msg.sender */\n      caller\n        /* \"src/KipuBankV3.sol\":6729:6741  usdcReceived */\n      dup4\n        /* \"src/KipuBankV3.sol\":6695:6742  IERC20(USDC).transfer(msg.sender, usdcReceived) */\n      mload(0x40)\n      dup4\n      0xffffffff\n      and\n      0xe0\n      shl\n      dup2\n      mstore\n      0x04\n      add\n      tag_165\n      swap3\n      swap2\n      swap1\n      tag_129\n      jump\t// in\n    tag_165:\n      0x20\n      mload(0x40)\n      dup1\n      dup4\n      sub\n      dup2\n      0x00\n      dup8\n      gas\n      call\n      iszero\n      dup1\n      iszero\n      tag_167\n      jumpi\n      returndatacopy(0x00, 0x00, returndatasize)\n      revert(0x00, returndatasize)\n    tag_167:\n      pop\n      pop\n      pop\n      pop\n      mload(0x40)\n      returndatasize\n      not(0x1f)\n      0x1f\n      dup3\n      add\n      and\n      dup3\n      add\n      dup1\n      0x40\n      mstore\n      pop\n      dup2\n      add\n      swap1\n      tag_168\n      swap2\n      swap1\n      tag_100\n      jump\t// in\n    tag_168:\n      pop\n        /* \"src/KipuBankV3.sol\":6780:6792  usdcReceived */\n      dup1\n        /* \"src/KipuBankV3.sol\":6794:6803  totalUsdc */\n      sload(0x01)\n        /* \"src/KipuBankV3.sol\":6805:6815  bankCapUsd */\n      immutable(\"0x2f5ccb30fa919306cd2899a81c7670a9b1be09e8c15a0b78b0fbbc777d15e97b\")\n        /* \"src/KipuBankV3.sol\":6764:6816  BankCapExceeded(usdcReceived, totalUsdc, bankCapUsd) */\n      mload(0x40)\n      0x621e5a6900000000000000000000000000000000000000000000000000000000\n      dup2\n      mstore\n      0x04\n      add\n      tag_169\n      swap4\n      swap3\n      swap2\n      swap1\n      tag_134\n      jump\t// in\n    tag_169:\n      mload(0x40)\n      dup1\n      swap2\n      sub\n      swap1\n      revert\n        /* \"src/KipuBankV3.sol\":6637:6828  if (totalUsdc + usdcReceived > bankCapUsd) {... */\n    tag_164:\n        /* \"src/KipuBankV3.sol\":6885:6897  usdcReceived */\n      dup1\n        /* \"src/KipuBankV3.sol\":6872:6881  totalUsdc */\n      0x01\n      0x00\n        /* \"src/KipuBankV3.sol\":6872:6897  totalUsdc += usdcReceived */\n      dup3\n      dup3\n      sload\n      tag_170\n      swap2\n      swap1\n      tag_114\n      jump\t// in\n    tag_170:\n      swap3\n      pop\n      pop\n      dup2\n      swap1\n      sstore\n      pop\n        /* \"src/KipuBankV3.sol\":6936:6948  usdcReceived */\n      dup1\n        /* \"src/KipuBankV3.sol\":6908:6920  usdcBalances */\n      0x03\n        /* \"src/KipuBankV3.sol\":6908:6932  usdcBalances[msg.sender] */\n      0x00\n        /* \"src/KipuBankV3.sol\":6921:6931  msg.sender */\n      caller\n        /* \"src/KipuBankV3.sol\":6908:6932  usdcBalances[msg.sender] */\n      0xffffffffffffffffffffffffffffffffffffffff\n      and\n      0xffffffffffffffffffffffffffffffffffffffff\n      and\n      dup2\n      mstore\n      0x20\n      add\n      swap1\n      dup2\n      mstore\n      0x20\n      add\n      0x00\n      keccak256\n      0x00\n        /* \"src/KipuBankV3.sol\":6908:6948  usdcBalances[msg.sender] += usdcReceived */\n      dup3\n      dup3\n      sload\n      tag_171\n      swap2\n      swap1\n      tag_114\n      jump\t// in\n    tag_171:\n      swap3\n      pop\n      pop\n      dup2\n      swap1\n      sstore\n      pop\n        /* \"src/KipuBankV3.sol\":6995:6999  WETH */\n      immutable(\"0xac09810740600c31fa69f9db79ed6fc3e3281f758a950fe1fb254a3a3ae571b6\")\n        /* \"src/KipuBankV3.sol\":6966:7025  DepositConverted(msg.sender, WETH, msg.value, usdcReceived) */\n      0xffffffffffffffffffffffffffffffffffffffff\n      and\n        /* \"src/KipuBankV3.sol\":6983:6993  msg.sender */\n      caller\n        /* \"src/KipuBankV3.sol\":6966:7025  DepositConverted(msg.sender, WETH, msg.value, usdcReceived) */\n      0xffffffffffffffffffffffffffffffffffffffff\n      and\n      0xab466672cd9adae1c2072831f94c1068597b355987d2a64d4e5a7dcd74e5cda5\n        /* \"src/KipuBankV3.sol\":7001:7010  msg.value */\n      callvalue\n        /* \"src/KipuBankV3.sol\":7012:7024  usdcReceived */\n      dup5\n        /* \"src/KipuBankV3.sol\":6966:7025  DepositConverted(msg.sender, WETH, msg.value, usdcReceived) */\n      mload(0x40)\n      tag_172\n      swap3\n      swap2\n      swap1\n      tag_138\n      jump\t// in\n    tag_172:\n      mload(0x40)\n      dup1\n      swap2\n      sub\n      swap1\n      log3\n        /* \"src/KipuBankV3.sol\":5812:7033  {... */\n      pop\n      pop\n      pop\n      pop\n        /* \"src/KipuBankV3.sol\":2748:2753  false */\n      0x00\n        /* \"src/KipuBankV3.sol\":2739:2745  locked */\n      0x02\n      0x00\n        /* \"src/KipuBankV3.sol\":2739:2753  locked = false */\n      0x0100\n      exp\n      dup2\n      sload\n      dup2\n      0xff\n      mul\n      not\n      and\n      swap1\n      dup4\n      iszero\n      iszero\n      mul\n      or\n      swap1\n      sstore\n      pop\n        /* \"src/KipuBankV3.sol\":5732:7033  function depositETHSwapToUSDC(uint256 minUsdcOut) external payable nonReentrant {... */\n      pop\n      jump\t// out\n        /* \"src/KipuBankV3.sol\":2085:2114  address public immutable USDC */\n    tag_51:\n      immutable(\"0x7d4579ab3c781860520f730aa471b37a7366c1c6efb6e34470da23130f5149f7\")\n      dup2\n      jump\t// out\n        /* \"src/KipuBankV3.sol\":2315:2335  address public owner */\n    tag_56:\n      0x00\n      0x00\n      swap1\n      sload\n      swap1\n      0x0100\n      exp\n      swap1\n      div\n      0xffffffffffffffffffffffffffffffffffffffff\n      and\n      dup2\n      jump\t// out\n        /* \"src/KipuBankV3.sol\":2523:2558  uint256 public immutable bankCapUsd */\n    tag_60:\n      immutable(\"0x2f5ccb30fa919306cd2899a81c7670a9b1be09e8c15a0b78b0fbbc777d15e97b\")\n      dup2\n      jump\t// out\n        /* \"src/KipuBankV3.sol\":2248:2277  address public immutable WETH */\n    tag_64:\n      immutable(\"0xac09810740600c31fa69f9db79ed6fc3e3281f758a950fe1fb254a3a3ae571b6\")\n      dup2\n      jump\t// out\n        /* \"src/KipuBankV3.sol\":4503:4616  function usdcBalanceOf(address user) external view returns (uint256) {... */\n    tag_69:\n        /* \"src/KipuBankV3.sol\":4563:4570  uint256 */\n      0x00\n        /* \"src/KipuBankV3.sol\":4590:4602  usdcBalances */\n      0x03\n        /* \"src/KipuBankV3.sol\":4590:4608  usdcBalances[user] */\n      0x00\n        /* \"src/KipuBankV3.sol\":4603:4607  user */\n      dup4\n        /* \"src/KipuBankV3.sol\":4590:4608  usdcBalances[user] */\n      0xffffffffffffffffffffffffffffffffffffffff\n      and\n      0xffffffffffffffffffffffffffffffffffffffff\n      and\n      dup2\n      mstore\n      0x20\n      add\n      swap1\n      dup2\n      mstore\n      0x20\n      add\n      0x00\n      keccak256\n      sload\n        /* \"src/KipuBankV3.sol\":4583:4608  return usdcBalances[user] */\n      swap1\n      pop\n        /* \"src/KipuBankV3.sol\":4503:4616  function usdcBalanceOf(address user) external view returns (uint256) {... */\n      swap2\n      swap1\n      pop\n      jump\t// out\n        /* \"src/KipuBankV3.sol\":9221:9761  function withdrawUSDC(uint256 amountUsdc) external nonReentrant {... */\n    tag_74:\n        /* \"src/KipuBankV3.sol\":2666:2672  locked */\n      0x02\n      0x00\n      swap1\n      sload\n      swap1\n      0x0100\n      exp\n      swap1\n      div\n      0xff\n      and\n        /* \"src/KipuBankV3.sol\":2662:2692  if (locked) revert Reentrant() */\n      iszero\n      tag_175\n      jumpi\n        /* \"src/KipuBankV3.sol\":2681:2692  Reentrant() */\n      mload(0x40)\n      0xed3ba6a600000000000000000000000000000000000000000000000000000000\n      dup2\n      mstore\n      0x04\n      add\n      mload(0x40)\n      dup1\n      swap2\n      sub\n      swap1\n      revert\n        /* \"src/KipuBankV3.sol\":2662:2692  if (locked) revert Reentrant() */\n    tag_175:\n        /* \"src/KipuBankV3.sol\":2712:2716  true */\n      0x01\n        /* \"src/KipuBankV3.sol\":2703:2709  locked */\n      0x02\n      0x00\n        /* \"src/KipuBankV3.sol\":2703:2716  locked = true */\n      0x0100\n      exp\n      dup2\n      sload\n      dup2\n      0xff\n      mul\n      not\n      and\n      swap1\n      dup4\n      iszero\n      iszero\n      mul\n      or\n      swap1\n      sstore\n      pop\n        /* \"src/KipuBankV3.sol\":9314:9315  0 */\n      0x00\n        /* \"src/KipuBankV3.sol\":9300:9310  amountUsdc */\n      dup2\n        /* \"src/KipuBankV3.sol\":9300:9315  amountUsdc == 0 */\n      sub\n        /* \"src/KipuBankV3.sol\":9296:9336  if (amountUsdc == 0) revert ZeroAmount() */\n      tag_177\n      jumpi\n        /* \"src/KipuBankV3.sol\":9324:9336  ZeroAmount() */\n      mload(0x40)\n      0x1f2a200500000000000000000000000000000000000000000000000000000000\n      dup2\n      mstore\n      0x04\n      add\n      mload(0x40)\n      dup1\n      swap2\n      sub\n      swap1\n      revert\n        /* \"src/KipuBankV3.sol\":9296:9336  if (amountUsdc == 0) revert ZeroAmount() */\n    tag_177:\n        /* \"src/KipuBankV3.sol\":9347:9355  uint bal */\n      0x00\n        /* \"src/KipuBankV3.sol\":9358:9370  usdcBalances */\n      0x03\n        /* \"src/KipuBankV3.sol\":9358:9382  usdcBalances[msg.sender] */\n      0x00\n        /* \"src/KipuBankV3.sol\":9371:9381  msg.sender */\n      caller\n        /* \"src/KipuBankV3.sol\":9358:9382  usdcBalances[msg.sender] */\n      0xffffffffffffffffffffffffffffffffffffffff\n      and\n      0xffffffffffffffffffffffffffffffffffffffff\n      and\n      dup2\n      mstore\n      0x20\n      add\n      swap1\n      dup2\n      mstore\n      0x20\n      add\n      0x00\n      keccak256\n      sload\n        /* \"src/KipuBankV3.sol\":9347:9382  uint bal = usdcBalances[msg.sender] */\n      swap1\n      pop\n        /* \"src/KipuBankV3.sol\":9410:9413  bal */\n      dup1\n        /* \"src/KipuBankV3.sol\":9397:9407  amountUsdc */\n      dup3\n        /* \"src/KipuBankV3.sol\":9397:9413  amountUsdc > bal */\n      gt\n        /* \"src/KipuBankV3.sol\":9393:9458  if (amountUsdc > bal) revert InsufficientBalance(bal, amountUsdc) */\n      iszero\n      tag_178\n      jumpi\n        /* \"src/KipuBankV3.sol\":9442:9445  bal */\n      dup1\n        /* \"src/KipuBankV3.sol\":9447:9457  amountUsdc */\n      dup3\n        /* \"src/KipuBankV3.sol\":9422:9458  InsufficientBalance(bal, amountUsdc) */\n      mload(0x40)\n      0xcf47918100000000000000000000000000000000000000000000000000000000\n      dup2\n      mstore\n      0x04\n      add\n      tag_179\n      swap3\n      swap2\n      swap1\n      tag_138\n      jump\t// in\n    tag_179:\n      mload(0x40)\n      dup1\n      swap2\n      sub\n      swap1\n      revert\n        /* \"src/KipuBankV3.sol\":9393:9458  if (amountUsdc > bal) revert InsufficientBalance(bal, amountUsdc) */\n    tag_178:\n        /* \"src/KipuBankV3.sol\":9524:9534  amountUsdc */\n      dup2\n        /* \"src/KipuBankV3.sol\":9518:9521  bal */\n      dup2\n        /* \"src/KipuBankV3.sol\":9518:9534  bal - amountUsdc */\n      tag_180\n      swap2\n      swap1\n      tag_123\n      jump\t// in\n    tag_180:\n        /* \"src/KipuBankV3.sol\":9491:9503  usdcBalances */\n      0x03\n        /* \"src/KipuBankV3.sol\":9491:9515  usdcBalances[msg.sender] */\n      0x00\n        /* \"src/KipuBankV3.sol\":9504:9514  msg.sender */\n      caller\n        /* \"src/KipuBankV3.sol\":9491:9515  usdcBalances[msg.sender] */\n      0xffffffffffffffffffffffffffffffffffffffff\n      and\n      0xffffffffffffffffffffffffffffffffffffffff\n      and\n      dup2\n      mstore\n      0x20\n      add\n      swap1\n      dup2\n      mstore\n      0x20\n      add\n      0x00\n      keccak256\n        /* \"src/KipuBankV3.sol\":9491:9534  usdcBalances[msg.sender] = bal - amountUsdc */\n      dup2\n      swap1\n      sstore\n      pop\n        /* \"src/KipuBankV3.sol\":9558:9568  amountUsdc */\n      dup2\n        /* \"src/KipuBankV3.sol\":9545:9554  totalUsdc */\n      0x01\n      0x00\n        /* \"src/KipuBankV3.sol\":9545:9568  totalUsdc -= amountUsdc */\n      dup3\n      dup3\n      sload\n      tag_181\n      swap2\n      swap1\n      tag_123\n      jump\t// in\n    tag_181:\n      swap3\n      pop\n      pop\n      dup2\n      swap1\n      sstore\n      pop\n        /* \"src/KipuBankV3.sol\":9605:9612  bool ok */\n      0x00\n        /* \"src/KipuBankV3.sol\":9622:9626  USDC */\n      immutable(\"0x7d4579ab3c781860520f730aa471b37a7366c1c6efb6e34470da23130f5149f7\")\n        /* \"src/KipuBankV3.sol\":9615:9636  IERC20(USDC).transfer */\n      0xffffffffffffffffffffffffffffffffffffffff\n      and\n      0xa9059cbb\n        /* \"src/KipuBankV3.sol\":9637:9647  msg.sender */\n      caller\n        /* \"src/KipuBankV3.sol\":9649:9659  amountUsdc */\n      dup6\n        /* \"src/KipuBankV3.sol\":9615:9660  IERC20(USDC).transfer(msg.sender, amountUsdc) */\n      mload(0x40)\n      dup4\n      0xffffffff\n      and\n      0xe0\n      shl\n      dup2\n      mstore\n      0x04\n      add\n      tag_182\n      swap3\n      swap2\n      swap1\n      tag_129\n      jump\t// in\n    tag_182:\n      0x20\n      mload(0x40)\n      dup1\n      dup4\n      sub\n      dup2\n      0x00\n      dup8\n      gas\n      call\n      iszero\n      dup1\n      iszero\n      tag_184\n      jumpi\n      returndatacopy(0x00, 0x00, returndatasize)\n      revert(0x00, returndatasize)\n    tag_184:\n      pop\n      pop\n      pop\n      pop\n      mload(0x40)\n      returndatasize\n      not(0x1f)\n      0x1f\n      dup3\n      add\n      and\n      dup3\n      add\n      dup1\n      0x40\n      mstore\n      pop\n      dup2\n      add\n      swap1\n      tag_185\n      swap2\n      swap1\n      tag_100\n      jump\t// in\n    tag_185:\n        /* \"src/KipuBankV3.sol\":9605:9660  bool ok = IERC20(USDC).transfer(msg.sender, amountUsdc) */\n      swap1\n      pop\n        /* \"src/KipuBankV3.sol\":9676:9678  ok */\n      dup1\n        /* \"src/KipuBankV3.sol\":9671:9699  if (!ok) revert SwapFailed() */\n      tag_186\n      jumpi\n        /* \"src/KipuBankV3.sol\":9687:9699  SwapFailed() */\n      mload(0x40)\n      0x81ceff3000000000000000000000000000000000000000000000000000000000\n      dup2\n      mstore\n      0x04\n      add\n      mload(0x40)\n      dup1\n      swap2\n      sub\n      swap1\n      revert\n        /* \"src/KipuBankV3.sol\":9671:9699  if (!ok) revert SwapFailed() */\n    tag_186:\n        /* \"src/KipuBankV3.sol\":9730:9740  msg.sender */\n      caller\n        /* \"src/KipuBankV3.sol\":9717:9753  WithdrawUSDC(msg.sender, amountUsdc) */\n      0xffffffffffffffffffffffffffffffffffffffff\n      and\n      0x23ee1b877cb0081138b4973c5b2eca0133c573ad526550935d83aaade37666ca\n        /* \"src/KipuBankV3.sol\":9742:9752  amountUsdc */\n      dup5\n        /* \"src/KipuBankV3.sol\":9717:9753  WithdrawUSDC(msg.sender, amountUsdc) */\n      mload(0x40)\n      tag_187\n      swap2\n      swap1\n      tag_39\n      jump\t// in\n    tag_187:\n      mload(0x40)\n      dup1\n      swap2\n      sub\n      swap1\n      log2\n        /* \"src/KipuBankV3.sol\":9285:9761  {... */\n      pop\n      pop\n        /* \"src/KipuBankV3.sol\":2748:2753  false */\n      0x00\n        /* \"src/KipuBankV3.sol\":2739:2745  locked */\n      0x02\n      0x00\n        /* \"src/KipuBankV3.sol\":2739:2753  locked = false */\n      0x0100\n      exp\n      dup2\n      sload\n      dup2\n      0xff\n      mul\n      not\n      and\n      swap1\n      dup4\n      iszero\n      iszero\n      mul\n      or\n      swap1\n      sstore\n      pop\n        /* \"src/KipuBankV3.sol\":9221:9761  function withdrawUSDC(uint256 amountUsdc) external nonReentrant {... */\n      pop\n      jump\t// out\n        /* \"src/KipuBankV3.sol\":4835:5525  function depositUSDC(uint256 amountUsdc) external nonReentrant {... */\n    tag_78:\n        /* \"src/KipuBankV3.sol\":2666:2672  locked */\n      0x02\n      0x00\n      swap1\n      sload\n      swap1\n      0x0100\n      exp\n      swap1\n      div\n      0xff\n      and\n        /* \"src/KipuBankV3.sol\":2662:2692  if (locked) revert Reentrant() */\n      iszero\n      tag_189\n      jumpi\n        /* \"src/KipuBankV3.sol\":2681:2692  Reentrant() */\n      mload(0x40)\n      0xed3ba6a600000000000000000000000000000000000000000000000000000000\n      dup2\n      mstore\n      0x04\n      add\n      mload(0x40)\n      dup1\n      swap2\n      sub\n      swap1\n      revert\n        /* \"src/KipuBankV3.sol\":2662:2692  if (locked) revert Reentrant() */\n    tag_189:\n        /* \"src/KipuBankV3.sol\":2712:2716  true */\n      0x01\n        /* \"src/KipuBankV3.sol\":2703:2709  locked */\n      0x02\n      0x00\n        /* \"src/KipuBankV3.sol\":2703:2716  locked = true */\n      0x0100\n      exp\n      dup2\n      sload\n      dup2\n      0xff\n      mul\n      not\n      and\n      swap1\n      dup4\n      iszero\n      iszero\n      mul\n      or\n      swap1\n      sstore\n      pop\n        /* \"src/KipuBankV3.sol\":4927:4928  0 */\n      0x00\n        /* \"src/KipuBankV3.sol\":4913:4923  amountUsdc */\n      dup2\n        /* \"src/KipuBankV3.sol\":4913:4928  amountUsdc == 0 */\n      sub\n        /* \"src/KipuBankV3.sol\":4909:4949  if (amountUsdc == 0) revert ZeroAmount() */\n      tag_191\n      jumpi\n        /* \"src/KipuBankV3.sol\":4937:4949  ZeroAmount() */\n      mload(0x40)\n      0x1f2a200500000000000000000000000000000000000000000000000000000000\n      dup2\n      mstore\n      0x04\n      add\n      mload(0x40)\n      dup1\n      swap2\n      sub\n      swap1\n      revert\n        /* \"src/KipuBankV3.sol\":4909:4949  if (amountUsdc == 0) revert ZeroAmount() */\n    tag_191:\n        /* \"src/KipuBankV3.sol\":5000:5007  bool ok */\n      0x00\n        /* \"src/KipuBankV3.sol\":5017:5021  USDC */\n      immutable(\"0x7d4579ab3c781860520f730aa471b37a7366c1c6efb6e34470da23130f5149f7\")\n        /* \"src/KipuBankV3.sol\":5010:5035  IERC20(USDC).transferFrom */\n      0xffffffffffffffffffffffffffffffffffffffff\n      and\n      0x23b872dd\n        /* \"src/KipuBankV3.sol\":5036:5046  msg.sender */\n      caller\n        /* \"src/KipuBankV3.sol\":5056:5060  this */\n      address\n        /* \"src/KipuBankV3.sol\":5063:5073  amountUsdc */\n      dup6\n        /* \"src/KipuBankV3.sol\":5010:5074  IERC20(USDC).transferFrom(msg.sender, address(this), amountUsdc) */\n      mload(0x40)\n      dup5\n      0xffffffff\n      and\n      0xe0\n      shl\n      dup2\n      mstore\n      0x04\n      add\n      tag_192\n      swap4\n      swap3\n      swap2\n      swap1\n      tag_96\n      jump\t// in\n    tag_192:\n      0x20\n      mload(0x40)\n      dup1\n      dup4\n      sub\n      dup2\n      0x00\n      dup8\n      gas\n      call\n      iszero\n      dup1\n      iszero\n      tag_194\n      jumpi\n      returndatacopy(0x00, 0x00, returndatasize)\n      revert(0x00, returndatasize)\n    tag_194:\n      pop\n      pop\n      pop\n      pop\n      mload(0x40)\n      returndatasize\n      not(0x1f)\n      0x1f\n      dup3\n      add\n      and\n      dup3\n      add\n      dup1\n      0x40\n      mstore\n      pop\n      dup2\n      add\n      swap1\n      tag_195\n      swap2\n      swap1\n      tag_100\n      jump\t// in\n    tag_195:\n        /* \"src/KipuBankV3.sol\":5000:5074  bool ok = IERC20(USDC).transferFrom(msg.sender, address(this), amountUsdc) */\n      swap1\n      pop\n        /* \"src/KipuBankV3.sol\":5090:5092  ok */\n      dup1\n        /* \"src/KipuBankV3.sol\":5085:5113  if (!ok) revert SwapFailed() */\n      tag_196\n      jumpi\n        /* \"src/KipuBankV3.sol\":5101:5113  SwapFailed() */\n      mload(0x40)\n      0x81ceff3000000000000000000000000000000000000000000000000000000000\n      dup2\n      mstore\n      0x04\n      add\n      mload(0x40)\n      dup1\n      swap2\n      sub\n      swap1\n      revert\n        /* \"src/KipuBankV3.sol\":5085:5113  if (!ok) revert SwapFailed() */\n    tag_196:\n        /* \"src/KipuBankV3.sol\":5182:5192  bankCapUsd */\n      immutable(\"0x2f5ccb30fa919306cd2899a81c7670a9b1be09e8c15a0b78b0fbbc777d15e97b\")\n        /* \"src/KipuBankV3.sol\":5169:5179  amountUsdc */\n      dup3\n        /* \"src/KipuBankV3.sol\":5157:5166  totalUsdc */\n      sload(0x01)\n        /* \"src/KipuBankV3.sol\":5157:5179  totalUsdc + amountUsdc */\n      tag_197\n      swap2\n      swap1\n      tag_114\n      jump\t// in\n    tag_197:\n        /* \"src/KipuBankV3.sol\":5157:5192  totalUsdc + amountUsdc > bankCapUsd */\n      gt\n        /* \"src/KipuBankV3.sol\":5153:5361  if (totalUsdc + amountUsdc > bankCapUsd) {... */\n      iszero\n      tag_198\n      jumpi\n        /* \"src/KipuBankV3.sol\":5239:5243  USDC */\n      immutable(\"0x7d4579ab3c781860520f730aa471b37a7366c1c6efb6e34470da23130f5149f7\")\n        /* \"src/KipuBankV3.sol\":5232:5253  IERC20(USDC).transfer */\n      0xffffffffffffffffffffffffffffffffffffffff\n      and\n      0xa9059cbb\n        /* \"src/KipuBankV3.sol\":5254:5264  msg.sender */\n      caller\n        /* \"src/KipuBankV3.sol\":5266:5276  amountUsdc */\n      dup5\n        /* \"src/KipuBankV3.sol\":5232:5277  IERC20(USDC).transfer(msg.sender, amountUsdc) */\n      mload(0x40)\n      dup4\n      0xffffffff\n      and\n      0xe0\n      shl\n      dup2\n      mstore\n      0x04\n      add\n      tag_199\n      swap3\n      swap2\n      swap1\n      tag_129\n      jump\t// in\n    tag_199:\n      0x20\n      mload(0x40)\n      dup1\n      dup4\n      sub\n      dup2\n      0x00\n      dup8\n      gas\n      call\n      iszero\n      dup1\n      iszero\n      tag_201\n      jumpi\n      returndatacopy(0x00, 0x00, returndatasize)\n      revert(0x00, returndatasize)\n    tag_201:\n      pop\n      pop\n      pop\n      pop\n      mload(0x40)\n      returndatasize\n      not(0x1f)\n      0x1f\n      dup3\n      add\n      and\n      dup3\n      add\n      dup1\n      0x40\n      mstore\n      pop\n      dup2\n      add\n      swap1\n      tag_202\n      swap2\n      swap1\n      tag_100\n      jump\t// in\n    tag_202:\n      pop\n        /* \"src/KipuBankV3.sol\":5315:5325  amountUsdc */\n      dup2\n        /* \"src/KipuBankV3.sol\":5327:5336  totalUsdc */\n      sload(0x01)\n        /* \"src/KipuBankV3.sol\":5338:5348  bankCapUsd */\n      immutable(\"0x2f5ccb30fa919306cd2899a81c7670a9b1be09e8c15a0b78b0fbbc777d15e97b\")\n        /* \"src/KipuBankV3.sol\":5299:5349  BankCapExceeded(amountUsdc, totalUsdc, bankCapUsd) */\n      mload(0x40)\n      0x621e5a6900000000000000000000000000000000000000000000000000000000\n      dup2\n      mstore\n      0x04\n      add\n      tag_203\n      swap4\n      swap3\n      swap2\n      swap1\n      tag_134\n      jump\t// in\n    tag_203:\n      mload(0x40)\n      dup1\n      swap2\n      sub\n      swap1\n      revert\n        /* \"src/KipuBankV3.sol\":5153:5361  if (totalUsdc + amountUsdc > bankCapUsd) {... */\n    tag_198:\n        /* \"src/KipuBankV3.sol\":5405:5415  amountUsdc */\n      dup2\n        /* \"src/KipuBankV3.sol\":5392:5401  totalUsdc */\n      0x01\n      0x00\n        /* \"src/KipuBankV3.sol\":5392:5415  totalUsdc += amountUsdc */\n      dup3\n      dup3\n      sload\n      tag_204\n      swap2\n      swap1\n      tag_114\n      jump\t// in\n    tag_204:\n      swap3\n      pop\n      pop\n      dup2\n      swap1\n      sstore\n      pop\n        /* \"src/KipuBankV3.sol\":5454:5464  amountUsdc */\n      dup2\n        /* \"src/KipuBankV3.sol\":5426:5438  usdcBalances */\n      0x03\n        /* \"src/KipuBankV3.sol\":5426:5450  usdcBalances[msg.sender] */\n      0x00\n        /* \"src/KipuBankV3.sol\":5439:5449  msg.sender */\n      caller\n        /* \"src/KipuBankV3.sol\":5426:5450  usdcBalances[msg.sender] */\n      0xffffffffffffffffffffffffffffffffffffffff\n      and\n      0xffffffffffffffffffffffffffffffffffffffff\n      and\n      dup2\n      mstore\n      0x20\n      add\n      swap1\n      dup2\n      mstore\n      0x20\n      add\n      0x00\n      keccak256\n      0x00\n        /* \"src/KipuBankV3.sol\":5426:5464  usdcBalances[msg.sender] += amountUsdc */\n      dup3\n      dup3\n      sload\n      tag_205\n      swap2\n      swap1\n      tag_114\n      jump\t// in\n    tag_205:\n      swap3\n      pop\n      pop\n      dup2\n      swap1\n      sstore\n      pop\n        /* \"src/KipuBankV3.sol\":5494:5504  msg.sender */\n      caller\n        /* \"src/KipuBankV3.sol\":5482:5517  DepositUSDC(msg.sender, amountUsdc) */\n      0xffffffffffffffffffffffffffffffffffffffff\n      and\n      0xe7440f6772025dec9be06ba934e6ee5289b73533ee2136ba668f6cb6ea3f56a8\n        /* \"src/KipuBankV3.sol\":5506:5516  amountUsdc */\n      dup4\n        /* \"src/KipuBankV3.sol\":5482:5517  DepositUSDC(msg.sender, amountUsdc) */\n      mload(0x40)\n      tag_206\n      swap2\n      swap1\n      tag_39\n      jump\t// in\n    tag_206:\n      mload(0x40)\n      dup1\n      swap2\n      sub\n      swap1\n      log2\n        /* \"src/KipuBankV3.sol\":4898:5525  {... */\n      pop\n        /* \"src/KipuBankV3.sol\":2748:2753  false */\n      0x00\n        /* \"src/KipuBankV3.sol\":2739:2745  locked */\n      0x02\n      0x00\n        /* \"src/KipuBankV3.sol\":2739:2753  locked = false */\n      0x0100\n      exp\n      dup2\n      sload\n      dup2\n      0xff\n      mul\n      not\n      and\n      swap1\n      dup4\n      iszero\n      iszero\n      mul\n      or\n      swap1\n      sstore\n      pop\n        /* \"src/KipuBankV3.sol\":4835:5525  function depositUSDC(uint256 amountUsdc) external nonReentrant {... */\n      pop\n      jump\t// out\n        /* \"src/KipuBankV3.sol\":2155:2197  IUniswapV2Router02 public immutable router */\n    tag_81:\n      immutable(\"0xb9aa4ff60d3edb7fbc3b53bd780c9274ed80a5ba1a237d38b011edab2b031b4a\")\n      dup2\n      jump\t// out\n        /* \"src/KipuBankV3.sol\":9821:10075  function _safeApprove(address token, address spender, uint256 amount) internal {... */\n    tag_103:\n        /* \"src/KipuBankV3.sol\":9992:9997  token */\n      dup3\n        /* \"src/KipuBankV3.sol\":9985:10006  IERC20(token).approve */\n      0xffffffffffffffffffffffffffffffffffffffff\n      and\n      0x095ea7b3\n        /* \"src/KipuBankV3.sol\":10007:10014  spender */\n      dup4\n        /* \"src/KipuBankV3.sol\":10016:10017  0 */\n      0x00\n        /* \"src/KipuBankV3.sol\":9985:10018  IERC20(token).approve(spender, 0) */\n      mload(0x40)\n      dup4\n      0xffffffff\n      and\n      0xe0\n      shl\n      dup2\n      mstore\n      0x04\n      add\n      tag_208\n      swap3\n      swap2\n      swap1\n      tag_209\n      jump\t// in\n    tag_208:\n      0x20\n      mload(0x40)\n      dup1\n      dup4\n      sub\n      dup2\n      0x00\n      dup8\n      gas\n      call\n      iszero\n      dup1\n      iszero\n      tag_211\n      jumpi\n      returndatacopy(0x00, 0x00, returndatasize)\n      revert(0x00, returndatasize)\n    tag_211:\n      pop\n      pop\n      pop\n      pop\n      mload(0x40)\n      returndatasize\n      not(0x1f)\n      0x1f\n      dup3\n      add\n      and\n      dup3\n      add\n      dup1\n      0x40\n      mstore\n      pop\n      dup2\n      add\n      swap1\n      tag_212\n      swap2\n      swap1\n      tag_100\n      jump\t// in\n    tag_212:\n      pop\n        /* \"src/KipuBankV3.sol\":10036:10041  token */\n      dup3\n        /* \"src/KipuBankV3.sol\":10029:10050  IERC20(token).approve */\n      0xffffffffffffffffffffffffffffffffffffffff\n      and\n      0x095ea7b3\n        /* \"src/KipuBankV3.sol\":10051:10058  spender */\n      dup4\n        /* \"src/KipuBankV3.sol\":10060:10066  amount */\n      dup4\n        /* \"src/KipuBankV3.sol\":10029:10067  IERC20(token).approve(spender, amount) */\n      mload(0x40)\n      dup4\n      0xffffffff\n      and\n      0xe0\n      shl\n      dup2\n      mstore\n      0x04\n      add\n      tag_213\n      swap3\n      swap2\n      swap1\n      tag_129\n      jump\t// in\n    tag_213:\n      0x20\n      mload(0x40)\n      dup1\n      dup4\n      sub\n      dup2\n      0x00\n      dup8\n      gas\n      call\n      iszero\n      dup1\n      iszero\n      tag_215\n      jumpi\n      returndatacopy(0x00, 0x00, returndatasize)\n      revert(0x00, returndatasize)\n    tag_215:\n      pop\n      pop\n      pop\n      pop\n      mload(0x40)\n      returndatasize\n      not(0x1f)\n      0x1f\n      dup3\n      add\n      and\n      dup3\n      add\n      dup1\n      0x40\n      mstore\n      pop\n      dup2\n      add\n      swap1\n      tag_216\n      swap2\n      swap1\n      tag_100\n      jump\t// in\n    tag_216:\n      pop\n        /* \"src/KipuBankV3.sol\":9821:10075  function _safeApprove(address token, address spender, uint256 amount) internal {... */\n      pop\n      pop\n      pop\n      jump\t// out\n        /* \"#utility.yul\":7:92   */\n    tag_217:\n        /* \"#utility.yul\":52:59   */\n      0x00\n        /* \"#utility.yul\":81:86   */\n      dup2\n        /* \"#utility.yul\":70:86   */\n      swap1\n      pop\n        /* \"#utility.yul\":7:92   */\n      swap2\n      swap1\n      pop\n      jump\t// out\n        /* \"#utility.yul\":98:184   */\n    tag_218:\n        /* \"#utility.yul\":133:140   */\n      0x00\n        /* \"#utility.yul\":173:177   */\n      0xff\n        /* \"#utility.yul\":166:171   */\n      dup3\n        /* \"#utility.yul\":162:178   */\n      and\n        /* \"#utility.yul\":151:178   */\n      swap1\n      pop\n        /* \"#utility.yul\":98:184   */\n      swap2\n      swap1\n      pop\n      jump\t// out\n        /* \"#utility.yul\":190:250   */\n    tag_219:\n        /* \"#utility.yul\":218:221   */\n      0x00\n        /* \"#utility.yul\":239:244   */\n      dup2\n        /* \"#utility.yul\":232:244   */\n      swap1\n      pop\n        /* \"#utility.yul\":190:250   */\n      swap2\n      swap1\n      pop\n      jump\t// out\n        /* \"#utility.yul\":256:410   */\n    tag_220:\n        /* \"#utility.yul\":312:321   */\n      0x00\n        /* \"#utility.yul\":345:404   */\n      tag_274\n        /* \"#utility.yul\":361:403   */\n      tag_275\n        /* \"#utility.yul\":370:402   */\n      tag_276\n        /* \"#utility.yul\":396:401   */\n      dup5\n        /* \"#utility.yul\":370:402   */\n      tag_217\n      jump\t// in\n    tag_276:\n        /* \"#utility.yul\":361:403   */\n      tag_219\n      jump\t// in\n    tag_275:\n        /* \"#utility.yul\":345:404   */\n      tag_218\n      jump\t// in\n    tag_274:\n        /* \"#utility.yul\":332:404   */\n      swap1\n      pop\n        /* \"#utility.yul\":256:410   */\n      swap2\n      swap1\n      pop\n      jump\t// out\n        /* \"#utility.yul\":416:559   */\n    tag_221:\n        /* \"#utility.yul\":509:552   */\n      tag_278\n        /* \"#utility.yul\":546:551   */\n      dup2\n        /* \"#utility.yul\":509:552   */\n      tag_220\n      jump\t// in\n    tag_278:\n        /* \"#utility.yul\":504:507   */\n      dup3\n        /* \"#utility.yul\":497:553   */\n      mstore\n        /* \"#utility.yul\":416:559   */\n      pop\n      pop\n      jump\t// out\n        /* \"#utility.yul\":565:799   */\n    tag_19:\n        /* \"#utility.yul\":664:668   */\n      0x00\n        /* \"#utility.yul\":702:704   */\n      0x20\n        /* \"#utility.yul\":691:700   */\n      dup3\n        /* \"#utility.yul\":687:705   */\n      add\n        /* \"#utility.yul\":679:705   */\n      swap1\n      pop\n        /* \"#utility.yul\":715:792   */\n      tag_280\n        /* \"#utility.yul\":789:790   */\n      0x00\n        /* \"#utility.yul\":778:787   */\n      dup4\n        /* \"#utility.yul\":774:791   */\n      add\n        /* \"#utility.yul\":765:771   */\n      dup5\n        /* \"#utility.yul\":715:792   */\n      tag_221\n      jump\t// in\n    tag_280:\n        /* \"#utility.yul\":565:799   */\n      swap3\n      swap2\n      pop\n      pop\n      jump\t// out\n        /* \"#utility.yul\":805:903   */\n    tag_222:\n        /* \"#utility.yul\":856:862   */\n      0x00\n        /* \"#utility.yul\":890:895   */\n      dup2\n        /* \"#utility.yul\":884:896   */\n      mload\n        /* \"#utility.yul\":874:896   */\n      swap1\n      pop\n        /* \"#utility.yul\":805:903   */\n      swap2\n      swap1\n      pop\n      jump\t// out\n        /* \"#utility.yul\":909:1056   */\n    tag_223:\n        /* \"#utility.yul\":1010:1021   */\n      0x00\n        /* \"#utility.yul\":1047:1050   */\n      dup2\n        /* \"#utility.yul\":1032:1050   */\n      swap1\n      pop\n        /* \"#utility.yul\":909:1056   */\n      swap3\n      swap2\n      pop\n      pop\n      jump\t// out\n        /* \"#utility.yul\":1062:1201   */\n    tag_224:\n        /* \"#utility.yul\":1151:1157   */\n      dup3\n        /* \"#utility.yul\":1146:1149   */\n      dup2\n        /* \"#utility.yul\":1141:1144   */\n      dup4\n        /* \"#utility.yul\":1135:1158   */\n      mcopy\n        /* \"#utility.yul\":1192:1193   */\n      0x00\n        /* \"#utility.yul\":1183:1189   */\n      dup4\n        /* \"#utility.yul\":1178:1181   */\n      dup4\n        /* \"#utility.yul\":1174:1190   */\n      add\n        /* \"#utility.yul\":1167:1194   */\n      mstore\n        /* \"#utility.yul\":1062:1201   */\n      pop\n      pop\n      pop\n      jump\t// out\n        /* \"#utility.yul\":1207:1593   */\n    tag_225:\n        /* \"#utility.yul\":1311:1314   */\n      0x00\n        /* \"#utility.yul\":1339:1377   */\n      tag_285\n        /* \"#utility.yul\":1371:1376   */\n      dup3\n        /* \"#utility.yul\":1339:1377   */\n      tag_222\n      jump\t// in\n    tag_285:\n        /* \"#utility.yul\":1393:1481   */\n      tag_286\n        /* \"#utility.yul\":1474:1480   */\n      dup2\n        /* \"#utility.yul\":1469:1472   */\n      dup6\n        /* \"#utility.yul\":1393:1481   */\n      tag_223\n      jump\t// in\n    tag_286:\n        /* \"#utility.yul\":1386:1481   */\n      swap4\n      pop\n        /* \"#utility.yul\":1490:1555   */\n      tag_287\n        /* \"#utility.yul\":1548:1554   */\n      dup2\n        /* \"#utility.yul\":1543:1546   */\n      dup6\n        /* \"#utility.yul\":1536:1540   */\n      0x20\n        /* \"#utility.yul\":1529:1534   */\n      dup7\n        /* \"#utility.yul\":1525:1541   */\n      add\n        /* \"#utility.yul\":1490:1555   */\n      tag_224\n      jump\t// in\n    tag_287:\n        /* \"#utility.yul\":1580:1586   */\n      dup1\n        /* \"#utility.yul\":1575:1578   */\n      dup5\n        /* \"#utility.yul\":1571:1587   */\n      add\n        /* \"#utility.yul\":1564:1587   */\n      swap2\n      pop\n        /* \"#utility.yul\":1315:1593   */\n      pop\n        /* \"#utility.yul\":1207:1593   */\n      swap3\n      swap2\n      pop\n      pop\n      jump\t// out\n        /* \"#utility.yul\":1599:1870   */\n    tag_21:\n        /* \"#utility.yul\":1729:1732   */\n      0x00\n        /* \"#utility.yul\":1751:1844   */\n      tag_289\n        /* \"#utility.yul\":1840:1843   */\n      dup3\n        /* \"#utility.yul\":1831:1837   */\n      dup5\n        /* \"#utility.yul\":1751:1844   */\n      tag_225\n      jump\t// in\n    tag_289:\n        /* \"#utility.yul\":1744:1844   */\n      swap2\n      pop\n        /* \"#utility.yul\":1861:1864   */\n      dup2\n        /* \"#utility.yul\":1854:1864   */\n      swap1\n      pop\n        /* \"#utility.yul\":1599:1870   */\n      swap3\n      swap2\n      pop\n      pop\n      jump\t// out\n        /* \"#utility.yul\":1876:2045   */\n    tag_226:\n        /* \"#utility.yul\":1960:1971   */\n      0x00\n        /* \"#utility.yul\":1994:2000   */\n      dup3\n        /* \"#utility.yul\":1989:1992   */\n      dup3\n        /* \"#utility.yul\":1982:2001   */\n      mstore\n        /* \"#utility.yul\":2034:2038   */\n      0x20\n        /* \"#utility.yul\":2029:2032   */\n      dup3\n        /* \"#utility.yul\":2025:2039   */\n      add\n        /* \"#utility.yul\":2010:2039   */\n      swap1\n      pop\n        /* \"#utility.yul\":1876:2045   */\n      swap3\n      swap2\n      pop\n      pop\n      jump\t// out\n        /* \"#utility.yul\":2051:2215   */\n    tag_227:\n        /* \"#utility.yul\":2191:2207   */\n      0x4465706f736974206661696c6564000000000000000000000000000000000000\n        /* \"#utility.yul\":2187:2188   */\n      0x00\n        /* \"#utility.yul\":2179:2185   */\n      dup3\n        /* \"#utility.yul\":2175:2189   */\n      add\n        /* \"#utility.yul\":2168:2208   */\n      mstore\n        /* \"#utility.yul\":2051:2215   */\n      pop\n      jump\t// out\n        /* \"#utility.yul\":2221:2587   */\n    tag_228:\n        /* \"#utility.yul\":2363:2366   */\n      0x00\n        /* \"#utility.yul\":2384:2451   */\n      tag_293\n        /* \"#utility.yul\":2448:2450   */\n      0x0e\n        /* \"#utility.yul\":2443:2446   */\n      dup4\n        /* \"#utility.yul\":2384:2451   */\n      tag_226\n      jump\t// in\n    tag_293:\n        /* \"#utility.yul\":2377:2451   */\n      swap2\n      pop\n        /* \"#utility.yul\":2460:2553   */\n      tag_294\n        /* \"#utility.yul\":2549:2552   */\n      dup3\n        /* \"#utility.yul\":2460:2553   */\n      tag_227\n      jump\t// in\n    tag_294:\n        /* \"#utility.yul\":2578:2580   */\n      0x20\n        /* \"#utility.yul\":2573:2576   */\n      dup3\n        /* \"#utility.yul\":2569:2581   */\n      add\n        /* \"#utility.yul\":2562:2581   */\n      swap1\n      pop\n        /* \"#utility.yul\":2221:2587   */\n      swap2\n      swap1\n      pop\n      jump\t// out\n        /* \"#utility.yul\":2593:3012   */\n    tag_27:\n        /* \"#utility.yul\":2759:2763   */\n      0x00\n        /* \"#utility.yul\":2797:2799   */\n      0x20\n        /* \"#utility.yul\":2786:2795   */\n      dup3\n        /* \"#utility.yul\":2782:2800   */\n      add\n        /* \"#utility.yul\":2774:2800   */\n      swap1\n      pop\n        /* \"#utility.yul\":2846:2855   */\n      dup2\n        /* \"#utility.yul\":2840:2844   */\n      dup2\n        /* \"#utility.yul\":2836:2856   */\n      sub\n        /* \"#utility.yul\":2832:2833   */\n      0x00\n        /* \"#utility.yul\":2821:2830   */\n      dup4\n        /* \"#utility.yul\":2817:2834   */\n      add\n        /* \"#utility.yul\":2810:2857   */\n      mstore\n        /* \"#utility.yul\":2874:3005   */\n      tag_296\n        /* \"#utility.yul\":3000:3004   */\n      dup2\n        /* \"#utility.yul\":2874:3005   */\n      tag_228\n      jump\t// in\n    tag_296:\n        /* \"#utility.yul\":2866:3005   */\n      swap1\n      pop\n        /* \"#utility.yul\":2593:3012   */\n      swap2\n      swap1\n      pop\n      jump\t// out\n        /* \"#utility.yul\":3018:3093   */\n    tag_229:\n        /* \"#utility.yul\":3051:3057   */\n      0x00\n        /* \"#utility.yul\":3084:3086   */\n      0x40\n        /* \"#utility.yul\":3078:3087   */\n      mload\n        /* \"#utility.yul\":3068:3087   */\n      swap1\n      pop\n        /* \"#utility.yul\":3018:3093   */\n      swap1\n      jump\t// out\n        /* \"#utility.yul\":3099:3216   */\n    tag_230:\n        /* \"#utility.yul\":3208:3209   */\n      0x00\n        /* \"#utility.yul\":3205:3206   */\n      0x00\n        /* \"#utility.yul\":3198:3210   */\n      revert\n        /* \"#utility.yul\":3222:3339   */\n    tag_231:\n        /* \"#utility.yul\":3331:3332   */\n      0x00\n        /* \"#utility.yul\":3328:3329   */\n      0x00\n        /* \"#utility.yul\":3321:3333   */\n      revert\n        /* \"#utility.yul\":3345:3471   */\n    tag_232:\n        /* \"#utility.yul\":3382:3389   */\n      0x00\n        /* \"#utility.yul\":3422:3464   */\n      0xffffffffffffffffffffffffffffffffffffffff\n        /* \"#utility.yul\":3415:3420   */\n      dup3\n        /* \"#utility.yul\":3411:3465   */\n      and\n        /* \"#utility.yul\":3400:3465   */\n      swap1\n      pop\n        /* \"#utility.yul\":3345:3471   */\n      swap2\n      swap1\n      pop\n      jump\t// out\n        /* \"#utility.yul\":3477:3573   */\n    tag_233:\n        /* \"#utility.yul\":3514:3521   */\n      0x00\n        /* \"#utility.yul\":3543:3567   */\n      tag_302\n        /* \"#utility.yul\":3561:3566   */\n      dup3\n        /* \"#utility.yul\":3543:3567   */\n      tag_232\n      jump\t// in\n    tag_302:\n        /* \"#utility.yul\":3532:3567   */\n      swap1\n      pop\n        /* \"#utility.yul\":3477:3573   */\n      swap2\n      swap1\n      pop\n      jump\t// out\n        /* \"#utility.yul\":3579:3701   */\n    tag_234:\n        /* \"#utility.yul\":3652:3676   */\n      tag_304\n        /* \"#utility.yul\":3670:3675   */\n      dup2\n        /* \"#utility.yul\":3652:3676   */\n      tag_233\n      jump\t// in\n    tag_304:\n        /* \"#utility.yul\":3645:3650   */\n      dup2\n        /* \"#utility.yul\":3642:3677   */\n      eq\n        /* \"#utility.yul\":3632:3695   */\n      tag_305\n      jumpi\n        /* \"#utility.yul\":3691:3692   */\n      0x00\n        /* \"#utility.yul\":3688:3689   */\n      0x00\n        /* \"#utility.yul\":3681:3693   */\n      revert\n        /* \"#utility.yul\":3632:3695   */\n    tag_305:\n        /* \"#utility.yul\":3579:3701   */\n      pop\n      jump\t// out\n        /* \"#utility.yul\":3707:3846   */\n    tag_235:\n        /* \"#utility.yul\":3753:3758   */\n      0x00\n        /* \"#utility.yul\":3791:3797   */\n      dup2\n        /* \"#utility.yul\":3778:3798   */\n      calldataload\n        /* \"#utility.yul\":3769:3798   */\n      swap1\n      pop\n        /* \"#utility.yul\":3807:3840   */\n      tag_307\n        /* \"#utility.yul\":3834:3839   */\n      dup2\n        /* \"#utility.yul\":3807:3840   */\n      tag_234\n      jump\t// in\n    tag_307:\n        /* \"#utility.yul\":3707:3846   */\n      swap3\n      swap2\n      pop\n      pop\n      jump\t// out\n        /* \"#utility.yul\":3852:4181   */\n    tag_33:\n        /* \"#utility.yul\":3911:3917   */\n      0x00\n        /* \"#utility.yul\":3960:3962   */\n      0x20\n        /* \"#utility.yul\":3948:3957   */\n      dup3\n        /* \"#utility.yul\":3939:3946   */\n      dup5\n        /* \"#utility.yul\":3935:3958   */\n      sub\n        /* \"#utility.yul\":3931:3963   */\n      slt\n        /* \"#utility.yul\":3928:4047   */\n      iszero\n      tag_309\n      jumpi\n        /* \"#utility.yul\":3966:4045   */\n      tag_310\n      tag_230\n      jump\t// in\n    tag_310:\n        /* \"#utility.yul\":3928:4047   */\n    tag_309:\n        /* \"#utility.yul\":4086:4087   */\n      0x00\n        /* \"#utility.yul\":4111:4164   */\n      tag_311\n        /* \"#utility.yul\":4156:4163   */\n      dup5\n        /* \"#utility.yul\":4147:4153   */\n      dup3\n        /* \"#utility.yul\":4136:4145   */\n      dup6\n        /* \"#utility.yul\":4132:4154   */\n      add\n        /* \"#utility.yul\":4111:4164   */\n      tag_235\n      jump\t// in\n    tag_311:\n        /* \"#utility.yul\":4101:4164   */\n      swap2\n      pop\n        /* \"#utility.yul\":4057:4174   */\n      pop\n        /* \"#utility.yul\":3852:4181   */\n      swap3\n      swap2\n      pop\n      pop\n      jump\t// out\n        /* \"#utility.yul\":4187:4264   */\n    tag_236:\n        /* \"#utility.yul\":4224:4231   */\n      0x00\n        /* \"#utility.yul\":4253:4258   */\n      dup2\n        /* \"#utility.yul\":4242:4258   */\n      swap1\n      pop\n        /* \"#utility.yul\":4187:4264   */\n      swap2\n      swap1\n      pop\n      jump\t// out\n        /* \"#utility.yul\":4270:4388   */\n    tag_237:\n        /* \"#utility.yul\":4357:4381   */\n      tag_314\n        /* \"#utility.yul\":4375:4380   */\n      dup2\n        /* \"#utility.yul\":4357:4381   */\n      tag_236\n      jump\t// in\n    tag_314:\n        /* \"#utility.yul\":4352:4355   */\n      dup3\n        /* \"#utility.yul\":4345:4382   */\n      mstore\n        /* \"#utility.yul\":4270:4388   */\n      pop\n      pop\n      jump\t// out\n        /* \"#utility.yul\":4394:4616   */\n    tag_39:\n        /* \"#utility.yul\":4487:4491   */\n      0x00\n        /* \"#utility.yul\":4525:4527   */\n      0x20\n        /* \"#utility.yul\":4514:4523   */\n      dup3\n        /* \"#utility.yul\":4510:4528   */\n      add\n        /* \"#utility.yul\":4502:4528   */\n      swap1\n      pop\n        /* \"#utility.yul\":4538:4609   */\n      tag_316\n        /* \"#utility.yul\":4606:4607   */\n      0x00\n        /* \"#utility.yul\":4595:4604   */\n      dup4\n        /* \"#utility.yul\":4591:4608   */\n      add\n        /* \"#utility.yul\":4582:4588   */\n      dup5\n        /* \"#utility.yul\":4538:4609   */\n      tag_237\n      jump\t// in\n    tag_316:\n        /* \"#utility.yul\":4394:4616   */\n      swap3\n      swap2\n      pop\n      pop\n      jump\t// out\n        /* \"#utility.yul\":4622:4744   */\n    tag_238:\n        /* \"#utility.yul\":4695:4719   */\n      tag_318\n        /* \"#utility.yul\":4713:4718   */\n      dup2\n        /* \"#utility.yul\":4695:4719   */\n      tag_236\n      jump\t// in\n    tag_318:\n        /* \"#utility.yul\":4688:4693   */\n      dup2\n        /* \"#utility.yul\":4685:4720   */\n      eq\n        /* \"#utility.yul\":4675:4738   */\n      tag_319\n      jumpi\n        /* \"#utility.yul\":4734:4735   */\n      0x00\n        /* \"#utility.yul\":4731:4732   */\n      0x00\n        /* \"#utility.yul\":4724:4736   */\n      revert\n        /* \"#utility.yul\":4675:4738   */\n    tag_319:\n        /* \"#utility.yul\":4622:4744   */\n      pop\n      jump\t// out\n        /* \"#utility.yul\":4750:4889   */\n    tag_239:\n        /* \"#utility.yul\":4796:4801   */\n      0x00\n        /* \"#utility.yul\":4834:4840   */\n      dup2\n        /* \"#utility.yul\":4821:4841   */\n      calldataload\n        /* \"#utility.yul\":4812:4841   */\n      swap1\n      pop\n        /* \"#utility.yul\":4850:4883   */\n      tag_321\n        /* \"#utility.yul\":4877:4882   */\n      dup2\n        /* \"#utility.yul\":4850:4883   */\n      tag_238\n      jump\t// in\n    tag_321:\n        /* \"#utility.yul\":4750:4889   */\n      swap3\n      swap2\n      pop\n      pop\n      jump\t// out\n        /* \"#utility.yul\":4895:5514   */\n    tag_43:\n        /* \"#utility.yul\":4972:4978   */\n      0x00\n        /* \"#utility.yul\":4980:4986   */\n      0x00\n        /* \"#utility.yul\":4988:4994   */\n      0x00\n        /* \"#utility.yul\":5037:5039   */\n      0x60\n        /* \"#utility.yul\":5025:5034   */\n      dup5\n        /* \"#utility.yul\":5016:5023   */\n      dup7\n        /* \"#utility.yul\":5012:5035   */\n      sub\n        /* \"#utility.yul\":5008:5040   */\n      slt\n        /* \"#utility.yul\":5005:5124   */\n      iszero\n      tag_323\n      jumpi\n        /* \"#utility.yul\":5043:5122   */\n      tag_324\n      tag_230\n      jump\t// in\n    tag_324:\n        /* \"#utility.yul\":5005:5124   */\n    tag_323:\n        /* \"#utility.yul\":5163:5164   */\n      0x00\n        /* \"#utility.yul\":5188:5241   */\n      tag_325\n        /* \"#utility.yul\":5233:5240   */\n      dup7\n        /* \"#utility.yul\":5224:5230   */\n      dup3\n        /* \"#utility.yul\":5213:5222   */\n      dup8\n        /* \"#utility.yul\":5209:5231   */\n      add\n        /* \"#utility.yul\":5188:5241   */\n      tag_235\n      jump\t// in\n    tag_325:\n        /* \"#utility.yul\":5178:5241   */\n      swap4\n      pop\n        /* \"#utility.yul\":5134:5251   */\n      pop\n        /* \"#utility.yul\":5290:5292   */\n      0x20\n        /* \"#utility.yul\":5316:5369   */\n      tag_326\n        /* \"#utility.yul\":5361:5368   */\n      dup7\n        /* \"#utility.yul\":5352:5358   */\n      dup3\n        /* \"#utility.yul\":5341:5350   */\n      dup8\n        /* \"#utility.yul\":5337:5359   */\n      add\n        /* \"#utility.yul\":5316:5369   */\n      tag_239\n      jump\t// in\n    tag_326:\n        /* \"#utility.yul\":5306:5369   */\n      swap3\n      pop\n        /* \"#utility.yul\":5261:5379   */\n      pop\n        /* \"#utility.yul\":5418:5420   */\n      0x40\n        /* \"#utility.yul\":5444:5497   */\n      tag_327\n        /* \"#utility.yul\":5489:5496   */\n      dup7\n        /* \"#utility.yul\":5480:5486   */\n      dup3\n        /* \"#utility.yul\":5469:5478   */\n      dup8\n        /* \"#utility.yul\":5465:5487   */\n      add\n        /* \"#utility.yul\":5444:5497   */\n      tag_239\n      jump\t// in\n    tag_327:\n        /* \"#utility.yul\":5434:5497   */\n      swap2\n      pop\n        /* \"#utility.yul\":5389:5507   */\n      pop\n        /* \"#utility.yul\":4895:5514   */\n      swap3\n      pop\n      swap3\n      pop\n      swap3\n      jump\t// out\n        /* \"#utility.yul\":5520:5849   */\n    tag_47:\n        /* \"#utility.yul\":5579:5585   */\n      0x00\n        /* \"#utility.yul\":5628:5630   */\n      0x20\n        /* \"#utility.yul\":5616:5625   */\n      dup3\n        /* \"#utility.yul\":5607:5614   */\n      dup5\n        /* \"#utility.yul\":5603:5626   */\n      sub\n        /* \"#utility.yul\":5599:5631   */\n      slt\n        /* \"#utility.yul\":5596:5715   */\n      iszero\n      tag_329\n      jumpi\n        /* \"#utility.yul\":5634:5713   */\n      tag_330\n      tag_230\n      jump\t// in\n    tag_330:\n        /* \"#utility.yul\":5596:5715   */\n    tag_329:\n        /* \"#utility.yul\":5754:5755   */\n      0x00\n        /* \"#utility.yul\":5779:5832   */\n      tag_331\n        /* \"#utility.yul\":5824:5831   */\n      dup5\n        /* \"#utility.yul\":5815:5821   */\n      dup3\n        /* \"#utility.yul\":5804:5813   */\n      dup6\n        /* \"#utility.yul\":5800:5822   */\n      add\n        /* \"#utility.yul\":5779:5832   */\n      tag_239\n      jump\t// in\n    tag_331:\n        /* \"#utility.yul\":5769:5832   */\n      swap2\n      pop\n        /* \"#utility.yul\":5725:5842   */\n      pop\n        /* \"#utility.yul\":5520:5849   */\n      swap3\n      swap2\n      pop\n      pop\n      jump\t// out\n        /* \"#utility.yul\":5855:5973   */\n    tag_240:\n        /* \"#utility.yul\":5942:5966   */\n      tag_333\n        /* \"#utility.yul\":5960:5965   */\n      dup2\n        /* \"#utility.yul\":5942:5966   */\n      tag_233\n      jump\t// in\n    tag_333:\n        /* \"#utility.yul\":5937:5940   */\n      dup3\n        /* \"#utility.yul\":5930:5967   */\n      mstore\n        /* \"#utility.yul\":5855:5973   */\n      pop\n      pop\n      jump\t// out\n        /* \"#utility.yul\":5979:6201   */\n    tag_53:\n        /* \"#utility.yul\":6072:6076   */\n      0x00\n        /* \"#utility.yul\":6110:6112   */\n      0x20\n        /* \"#utility.yul\":6099:6108   */\n      dup3\n        /* \"#utility.yul\":6095:6113   */\n      add\n        /* \"#utility.yul\":6087:6113   */\n      swap1\n      pop\n        /* \"#utility.yul\":6123:6194   */\n      tag_335\n        /* \"#utility.yul\":6191:6192   */\n      0x00\n        /* \"#utility.yul\":6180:6189   */\n      dup4\n        /* \"#utility.yul\":6176:6193   */\n      add\n        /* \"#utility.yul\":6167:6173   */\n      dup5\n        /* \"#utility.yul\":6123:6194   */\n      tag_240\n      jump\t// in\n    tag_335:\n        /* \"#utility.yul\":5979:6201   */\n      swap3\n      swap2\n      pop\n      pop\n      jump\t// out\n        /* \"#utility.yul\":6207:6349   */\n    tag_241:\n        /* \"#utility.yul\":6257:6266   */\n      0x00\n        /* \"#utility.yul\":6290:6343   */\n      tag_337\n        /* \"#utility.yul\":6308:6342   */\n      tag_338\n        /* \"#utility.yul\":6317:6341   */\n      tag_339\n        /* \"#utility.yul\":6335:6340   */\n      dup5\n        /* \"#utility.yul\":6317:6341   */\n      tag_232\n      jump\t// in\n    tag_339:\n        /* \"#utility.yul\":6308:6342   */\n      tag_219\n      jump\t// in\n    tag_338:\n        /* \"#utility.yul\":6290:6343   */\n      tag_232\n      jump\t// in\n    tag_337:\n        /* \"#utility.yul\":6277:6343   */\n      swap1\n      pop\n        /* \"#utility.yul\":6207:6349   */\n      swap2\n      swap1\n      pop\n      jump\t// out\n        /* \"#utility.yul\":6355:6481   */\n    tag_242:\n        /* \"#utility.yul\":6405:6414   */\n      0x00\n        /* \"#utility.yul\":6438:6475   */\n      tag_341\n        /* \"#utility.yul\":6469:6474   */\n      dup3\n        /* \"#utility.yul\":6438:6475   */\n      tag_241\n      jump\t// in\n    tag_341:\n        /* \"#utility.yul\":6425:6475   */\n      swap1\n      pop\n        /* \"#utility.yul\":6355:6481   */\n      swap2\n      swap1\n      pop\n      jump\t// out\n        /* \"#utility.yul\":6487:6639   */\n    tag_243:\n        /* \"#utility.yul\":6563:6572   */\n      0x00\n        /* \"#utility.yul\":6596:6633   */\n      tag_343\n        /* \"#utility.yul\":6627:6632   */\n      dup3\n        /* \"#utility.yul\":6596:6633   */\n      tag_242\n      jump\t// in\n    tag_343:\n        /* \"#utility.yul\":6583:6633   */\n      swap1\n      pop\n        /* \"#utility.yul\":6487:6639   */\n      swap2\n      swap1\n      pop\n      jump\t// out\n        /* \"#utility.yul\":6645:6828   */\n    tag_244:\n        /* \"#utility.yul\":6758:6821   */\n      tag_345\n        /* \"#utility.yul\":6815:6820   */\n      dup2\n        /* \"#utility.yul\":6758:6821   */\n      tag_243\n      jump\t// in\n    tag_345:\n        /* \"#utility.yul\":6753:6756   */\n      dup3\n        /* \"#utility.yul\":6746:6822   */\n      mstore\n        /* \"#utility.yul\":6645:6828   */\n      pop\n      pop\n      jump\t// out\n        /* \"#utility.yul\":6834:7108   */\n    tag_83:\n        /* \"#utility.yul\":6953:6957   */\n      0x00\n        /* \"#utility.yul\":6991:6993   */\n      0x20\n        /* \"#utility.yul\":6980:6989   */\n      dup3\n        /* \"#utility.yul\":6976:6994   */\n      add\n        /* \"#utility.yul\":6968:6994   */\n      swap1\n      pop\n        /* \"#utility.yul\":7004:7101   */\n      tag_347\n        /* \"#utility.yul\":7098:7099   */\n      0x00\n        /* \"#utility.yul\":7087:7096   */\n      dup4\n        /* \"#utility.yul\":7083:7100   */\n      add\n        /* \"#utility.yul\":7074:7080   */\n      dup5\n        /* \"#utility.yul\":7004:7101   */\n      tag_244\n      jump\t// in\n    tag_347:\n        /* \"#utility.yul\":6834:7108   */\n      swap3\n      swap2\n      pop\n      pop\n      jump\t// out\n        /* \"#utility.yul\":7114:7273   */\n    tag_245:\n        /* \"#utility.yul\":7254:7265   */\n      0x7a65726f20616464720000000000000000000000000000000000000000000000\n        /* \"#utility.yul\":7250:7251   */\n      0x00\n        /* \"#utility.yul\":7242:7248   */\n      dup3\n        /* \"#utility.yul\":7238:7252   */\n      add\n        /* \"#utility.yul\":7231:7266   */\n      mstore\n        /* \"#utility.yul\":7114:7273   */\n      pop\n      jump\t// out\n        /* \"#utility.yul\":7279:7644   */\n    tag_246:\n        /* \"#utility.yul\":7421:7424   */\n      0x00\n        /* \"#utility.yul\":7442:7508   */\n      tag_350\n        /* \"#utility.yul\":7506:7507   */\n      0x09\n        /* \"#utility.yul\":7501:7504   */\n      dup4\n        /* \"#utility.yul\":7442:7508   */\n      tag_226\n      jump\t// in\n    tag_350:\n        /* \"#utility.yul\":7435:7508   */\n      swap2\n      pop\n        /* \"#utility.yul\":7517:7610   */\n      tag_351\n        /* \"#utility.yul\":7606:7609   */\n      dup3\n        /* \"#utility.yul\":7517:7610   */\n      tag_245\n      jump\t// in\n    tag_351:\n        /* \"#utility.yul\":7635:7637   */\n      0x20\n        /* \"#utility.yul\":7630:7633   */\n      dup3\n        /* \"#utility.yul\":7626:7638   */\n      add\n        /* \"#utility.yul\":7619:7638   */\n      swap1\n      pop\n        /* \"#utility.yul\":7279:7644   */\n      swap2\n      swap1\n      pop\n      jump\t// out\n        /* \"#utility.yul\":7650:8069   */\n    tag_88:\n        /* \"#utility.yul\":7816:7820   */\n      0x00\n        /* \"#utility.yul\":7854:7856   */\n      0x20\n        /* \"#utility.yul\":7843:7852   */\n      dup3\n        /* \"#utility.yul\":7839:7857   */\n      add\n        /* \"#utility.yul\":7831:7857   */\n      swap1\n      pop\n        /* \"#utility.yul\":7903:7912   */\n      dup2\n        /* \"#utility.yul\":7897:7901   */\n      dup2\n        /* \"#utility.yul\":7893:7913   */\n      sub\n        /* \"#utility.yul\":7889:7890   */\n      0x00\n        /* \"#utility.yul\":7878:7887   */\n      dup4\n        /* \"#utility.yul\":7874:7891   */\n      add\n        /* \"#utility.yul\":7867:7914   */\n      mstore\n        /* \"#utility.yul\":7931:8062   */\n      tag_353\n        /* \"#utility.yul\":8057:8061   */\n      dup2\n        /* \"#utility.yul\":7931:8062   */\n      tag_246\n      jump\t// in\n    tag_353:\n        /* \"#utility.yul\":7923:8062   */\n      swap1\n      pop\n        /* \"#utility.yul\":7650:8069   */\n      swap2\n      swap1\n      pop\n      jump\t// out\n        /* \"#utility.yul\":8075:8517   */\n    tag_96:\n        /* \"#utility.yul\":8224:8228   */\n      0x00\n        /* \"#utility.yul\":8262:8264   */\n      0x60\n        /* \"#utility.yul\":8251:8260   */\n      dup3\n        /* \"#utility.yul\":8247:8265   */\n      add\n        /* \"#utility.yul\":8239:8265   */\n      swap1\n      pop\n        /* \"#utility.yul\":8275:8346   */\n      tag_355\n        /* \"#utility.yul\":8343:8344   */\n      0x00\n        /* \"#utility.yul\":8332:8341   */\n      dup4\n        /* \"#utility.yul\":8328:8345   */\n      add\n        /* \"#utility.yul\":8319:8325   */\n      dup7\n        /* \"#utility.yul\":8275:8346   */\n      tag_240\n      jump\t// in\n    tag_355:\n        /* \"#utility.yul\":8356:8428   */\n      tag_356\n        /* \"#utility.yul\":8424:8426   */\n      0x20\n        /* \"#utility.yul\":8413:8422   */\n      dup4\n        /* \"#utility.yul\":8409:8427   */\n      add\n        /* \"#utility.yul\":8400:8406   */\n      dup6\n        /* \"#utility.yul\":8356:8428   */\n      tag_240\n      jump\t// in\n    tag_356:\n        /* \"#utility.yul\":8438:8510   */\n      tag_357\n        /* \"#utility.yul\":8506:8508   */\n      0x40\n        /* \"#utility.yul\":8495:8504   */\n      dup4\n        /* \"#utility.yul\":8491:8509   */\n      add\n        /* \"#utility.yul\":8482:8488   */\n      dup5\n        /* \"#utility.yul\":8438:8510   */\n      tag_237\n      jump\t// in\n    tag_357:\n        /* \"#utility.yul\":8075:8517   */\n      swap5\n      swap4\n      pop\n      pop\n      pop\n      pop\n      jump\t// out\n        /* \"#utility.yul\":8523:8613   */\n    tag_247:\n        /* \"#utility.yul\":8557:8564   */\n      0x00\n        /* \"#utility.yul\":8600:8605   */\n      dup2\n        /* \"#utility.yul\":8593:8606   */\n      iszero\n        /* \"#utility.yul\":8586:8607   */\n      iszero\n        /* \"#utility.yul\":8575:8607   */\n      swap1\n      pop\n        /* \"#utility.yul\":8523:8613   */\n      swap2\n      swap1\n      pop\n      jump\t// out\n        /* \"#utility.yul\":8619:8735   */\n    tag_248:\n        /* \"#utility.yul\":8689:8710   */\n      tag_360\n        /* \"#utility.yul\":8704:8709   */\n      dup2\n        /* \"#utility.yul\":8689:8710   */\n      tag_247\n      jump\t// in\n    tag_360:\n        /* \"#utility.yul\":8682:8687   */\n      dup2\n        /* \"#utility.yul\":8679:8711   */\n      eq\n        /* \"#utility.yul\":8669:8729   */\n      tag_361\n      jumpi\n        /* \"#utility.yul\":8725:8726   */\n      0x00\n        /* \"#utility.yul\":8722:8723   */\n      0x00\n        /* \"#utility.yul\":8715:8727   */\n      revert\n        /* \"#utility.yul\":8669:8729   */\n    tag_361:\n        /* \"#utility.yul\":8619:8735   */\n      pop\n      jump\t// out\n        /* \"#utility.yul\":8741:8878   */\n    tag_249:\n        /* \"#utility.yul\":8795:8800   */\n      0x00\n        /* \"#utility.yul\":8826:8832   */\n      dup2\n        /* \"#utility.yul\":8820:8833   */\n      mload\n        /* \"#utility.yul\":8811:8833   */\n      swap1\n      pop\n        /* \"#utility.yul\":8842:8872   */\n      tag_363\n        /* \"#utility.yul\":8866:8871   */\n      dup2\n        /* \"#utility.yul\":8842:8872   */\n      tag_248\n      jump\t// in\n    tag_363:\n        /* \"#utility.yul\":8741:8878   */\n      swap3\n      swap2\n      pop\n      pop\n      jump\t// out\n        /* \"#utility.yul\":8884:9229   */\n    tag_100:\n        /* \"#utility.yul\":8951:8957   */\n      0x00\n        /* \"#utility.yul\":9000:9002   */\n      0x20\n        /* \"#utility.yul\":8988:8997   */\n      dup3\n        /* \"#utility.yul\":8979:8986   */\n      dup5\n        /* \"#utility.yul\":8975:8998   */\n      sub\n        /* \"#utility.yul\":8971:9003   */\n      slt\n        /* \"#utility.yul\":8968:9087   */\n      iszero\n      tag_365\n      jumpi\n        /* \"#utility.yul\":9006:9085   */\n      tag_366\n      tag_230\n      jump\t// in\n    tag_366:\n        /* \"#utility.yul\":8968:9087   */\n    tag_365:\n        /* \"#utility.yul\":9126:9127   */\n      0x00\n        /* \"#utility.yul\":9151:9212   */\n      tag_367\n        /* \"#utility.yul\":9204:9211   */\n      dup5\n        /* \"#utility.yul\":9195:9201   */\n      dup3\n        /* \"#utility.yul\":9184:9193   */\n      dup6\n        /* \"#utility.yul\":9180:9202   */\n      add\n        /* \"#utility.yul\":9151:9212   */\n      tag_249\n      jump\t// in\n    tag_367:\n        /* \"#utility.yul\":9141:9212   */\n      swap2\n      pop\n        /* \"#utility.yul\":9097:9222   */\n      pop\n        /* \"#utility.yul\":8884:9229   */\n      swap3\n      swap2\n      pop\n      pop\n      jump\t// out\n        /* \"#utility.yul\":9235:9415   */\n    tag_106:\n        /* \"#utility.yul\":9283:9360   */\n      0x4e487b7100000000000000000000000000000000000000000000000000000000\n        /* \"#utility.yul\":9280:9281   */\n      0x00\n        /* \"#utility.yul\":9273:9361   */\n      mstore\n        /* \"#utility.yul\":9380:9384   */\n      0x41\n        /* \"#utility.yul\":9377:9378   */\n      0x04\n        /* \"#utility.yul\":9370:9385   */\n      mstore\n        /* \"#utility.yul\":9404:9408   */\n      0x24\n        /* \"#utility.yul\":9401:9402   */\n      0x00\n        /* \"#utility.yul\":9394:9409   */\n      revert\n        /* \"#utility.yul\":9421:9601   */\n    tag_110:\n        /* \"#utility.yul\":9469:9546   */\n      0x4e487b7100000000000000000000000000000000000000000000000000000000\n        /* \"#utility.yul\":9466:9467   */\n      0x00\n        /* \"#utility.yul\":9459:9547   */\n      mstore\n        /* \"#utility.yul\":9566:9570   */\n      0x32\n        /* \"#utility.yul\":9563:9564   */\n      0x04\n        /* \"#utility.yul\":9556:9571   */\n      mstore\n        /* \"#utility.yul\":9590:9594   */\n      0x24\n        /* \"#utility.yul\":9587:9588   */\n      0x00\n        /* \"#utility.yul\":9580:9595   */\n      revert\n        /* \"#utility.yul\":9607:9787   */\n    tag_250:\n        /* \"#utility.yul\":9655:9732   */\n      0x4e487b7100000000000000000000000000000000000000000000000000000000\n        /* \"#utility.yul\":9652:9653   */\n      0x00\n        /* \"#utility.yul\":9645:9733   */\n      mstore\n        /* \"#utility.yul\":9752:9756   */\n      0x11\n        /* \"#utility.yul\":9749:9750   */\n      0x04\n        /* \"#utility.yul\":9742:9757   */\n      mstore\n        /* \"#utility.yul\":9776:9780   */\n      0x24\n        /* \"#utility.yul\":9773:9774   */\n      0x00\n        /* \"#utility.yul\":9766:9781   */\n      revert\n        /* \"#utility.yul\":9793:9984   */\n    tag_114:\n        /* \"#utility.yul\":9833:9836   */\n      0x00\n        /* \"#utility.yul\":9852:9872   */\n      tag_372\n        /* \"#utility.yul\":9870:9871   */\n      dup3\n        /* \"#utility.yul\":9852:9872   */\n      tag_236\n      jump\t// in\n    tag_372:\n        /* \"#utility.yul\":9847:9872   */\n      swap2\n      pop\n        /* \"#utility.yul\":9886:9906   */\n      tag_373\n        /* \"#utility.yul\":9904:9905   */\n      dup4\n        /* \"#utility.yul\":9886:9906   */\n      tag_236\n      jump\t// in\n    tag_373:\n        /* \"#utility.yul\":9881:9906   */\n      swap3\n      pop\n        /* \"#utility.yul\":9929:9930   */\n      dup3\n        /* \"#utility.yul\":9926:9927   */\n      dup3\n        /* \"#utility.yul\":9922:9931   */\n      add\n        /* \"#utility.yul\":9915:9931   */\n      swap1\n      pop\n        /* \"#utility.yul\":9950:9953   */\n      dup1\n        /* \"#utility.yul\":9947:9948   */\n      dup3\n        /* \"#utility.yul\":9944:9954   */\n      gt\n        /* \"#utility.yul\":9941:9977   */\n      iszero\n      tag_374\n      jumpi\n        /* \"#utility.yul\":9957:9975   */\n      tag_375\n      tag_250\n      jump\t// in\n    tag_375:\n        /* \"#utility.yul\":9941:9977   */\n    tag_374:\n        /* \"#utility.yul\":9793:9984   */\n      swap3\n      swap2\n      pop\n      pop\n      jump\t// out\n        /* \"#utility.yul\":9990:10104   */\n    tag_251:\n        /* \"#utility.yul\":10057:10063   */\n      0x00\n        /* \"#utility.yul\":10091:10096   */\n      dup2\n        /* \"#utility.yul\":10085:10097   */\n      mload\n        /* \"#utility.yul\":10075:10097   */\n      swap1\n      pop\n        /* \"#utility.yul\":9990:10104   */\n      swap2\n      swap1\n      pop\n      jump\t// out\n        /* \"#utility.yul\":10110:10294   */\n    tag_252:\n        /* \"#utility.yul\":10209:10220   */\n      0x00\n        /* \"#utility.yul\":10243:10249   */\n      dup3\n        /* \"#utility.yul\":10238:10241   */\n      dup3\n        /* \"#utility.yul\":10231:10250   */\n      mstore\n        /* \"#utility.yul\":10283:10287   */\n      0x20\n        /* \"#utility.yul\":10278:10281   */\n      dup3\n        /* \"#utility.yul\":10274:10288   */\n      add\n        /* \"#utility.yul\":10259:10288   */\n      swap1\n      pop\n        /* \"#utility.yul\":10110:10294   */\n      swap3\n      swap2\n      pop\n      pop\n      jump\t// out\n        /* \"#utility.yul\":10300:10432   */\n    tag_253:\n        /* \"#utility.yul\":10367:10371   */\n      0x00\n        /* \"#utility.yul\":10390:10393   */\n      dup2\n        /* \"#utility.yul\":10382:10393   */\n      swap1\n      pop\n        /* \"#utility.yul\":10420:10424   */\n      0x20\n        /* \"#utility.yul\":10415:10418   */\n      dup3\n        /* \"#utility.yul\":10411:10425   */\n      add\n        /* \"#utility.yul\":10403:10425   */\n      swap1\n      pop\n        /* \"#utility.yul\":10300:10432   */\n      swap2\n      swap1\n      pop\n      jump\t// out\n        /* \"#utility.yul\":10438:10546   */\n    tag_254:\n        /* \"#utility.yul\":10515:10539   */\n      tag_380\n        /* \"#utility.yul\":10533:10538   */\n      dup2\n        /* \"#utility.yul\":10515:10539   */\n      tag_233\n      jump\t// in\n    tag_380:\n        /* \"#utility.yul\":10510:10513   */\n      dup3\n        /* \"#utility.yul\":10503:10540   */\n      mstore\n        /* \"#utility.yul\":10438:10546   */\n      pop\n      pop\n      jump\t// out\n        /* \"#utility.yul\":10552:10731   */\n    tag_255:\n        /* \"#utility.yul\":10621:10631   */\n      0x00\n        /* \"#utility.yul\":10642:10688   */\n      tag_382\n        /* \"#utility.yul\":10684:10687   */\n      dup4\n        /* \"#utility.yul\":10676:10682   */\n      dup4\n        /* \"#utility.yul\":10642:10688   */\n      tag_254\n      jump\t// in\n    tag_382:\n        /* \"#utility.yul\":10720:10724   */\n      0x20\n        /* \"#utility.yul\":10715:10718   */\n      dup4\n        /* \"#utility.yul\":10711:10725   */\n      add\n        /* \"#utility.yul\":10697:10725   */\n      swap1\n      pop\n        /* \"#utility.yul\":10552:10731   */\n      swap3\n      swap2\n      pop\n      pop\n      jump\t// out\n        /* \"#utility.yul\":10737:10850   */\n    tag_256:\n        /* \"#utility.yul\":10807:10811   */\n      0x00\n        /* \"#utility.yul\":10839:10843   */\n      0x20\n        /* \"#utility.yul\":10834:10837   */\n      dup3\n        /* \"#utility.yul\":10830:10844   */\n      add\n        /* \"#utility.yul\":10822:10844   */\n      swap1\n      pop\n        /* \"#utility.yul\":10737:10850   */\n      swap2\n      swap1\n      pop\n      jump\t// out\n        /* \"#utility.yul\":10886:11618   */\n    tag_257:\n        /* \"#utility.yul\":11005:11008   */\n      0x00\n        /* \"#utility.yul\":11034:11088   */\n      tag_385\n        /* \"#utility.yul\":11082:11087   */\n      dup3\n        /* \"#utility.yul\":11034:11088   */\n      tag_251\n      jump\t// in\n    tag_385:\n        /* \"#utility.yul\":11104:11190   */\n      tag_386\n        /* \"#utility.yul\":11183:11189   */\n      dup2\n        /* \"#utility.yul\":11178:11181   */\n      dup6\n        /* \"#utility.yul\":11104:11190   */\n      tag_252\n      jump\t// in\n    tag_386:\n        /* \"#utility.yul\":11097:11190   */\n      swap4\n      pop\n        /* \"#utility.yul\":11214:11270   */\n      tag_387\n        /* \"#utility.yul\":11264:11269   */\n      dup4\n        /* \"#utility.yul\":11214:11270   */\n      tag_253\n      jump\t// in\n    tag_387:\n        /* \"#utility.yul\":11293:11300   */\n      dup1\n        /* \"#utility.yul\":11324:11325   */\n      0x00\n        /* \"#utility.yul\":11309:11593   */\n    tag_388:\n        /* \"#utility.yul\":11334:11340   */\n      dup4\n        /* \"#utility.yul\":11331:11332   */\n      dup2\n        /* \"#utility.yul\":11328:11341   */\n      lt\n        /* \"#utility.yul\":11309:11593   */\n      iszero\n      tag_390\n      jumpi\n        /* \"#utility.yul\":11410:11416   */\n      dup2\n        /* \"#utility.yul\":11404:11417   */\n      mload\n        /* \"#utility.yul\":11437:11500   */\n      tag_391\n        /* \"#utility.yul\":11496:11499   */\n      dup9\n        /* \"#utility.yul\":11481:11494   */\n      dup3\n        /* \"#utility.yul\":11437:11500   */\n      tag_255\n      jump\t// in\n    tag_391:\n        /* \"#utility.yul\":11430:11500   */\n      swap8\n      pop\n        /* \"#utility.yul\":11523:11583   */\n      tag_392\n        /* \"#utility.yul\":11576:11582   */\n      dup4\n        /* \"#utility.yul\":11523:11583   */\n      tag_256\n      jump\t// in\n    tag_392:\n        /* \"#utility.yul\":11513:11583   */\n      swap3\n      pop\n        /* \"#utility.yul\":11369:11593   */\n      pop\n        /* \"#utility.yul\":11356:11357   */\n      0x01\n        /* \"#utility.yul\":11353:11354   */\n      dup2\n        /* \"#utility.yul\":11349:11358   */\n      add\n        /* \"#utility.yul\":11344:11358   */\n      swap1\n      pop\n        /* \"#utility.yul\":11309:11593   */\n      jump(tag_388)\n    tag_390:\n        /* \"#utility.yul\":11313:11327   */\n      pop\n        /* \"#utility.yul\":11609:11612   */\n      dup6\n        /* \"#utility.yul\":11602:11612   */\n      swap4\n      pop\n        /* \"#utility.yul\":11010:11618   */\n      pop\n      pop\n      pop\n        /* \"#utility.yul\":10886:11618   */\n      swap3\n      swap2\n      pop\n      pop\n      jump\t// out\n        /* \"#utility.yul\":11624:12439   */\n    tag_116:\n        /* \"#utility.yul\":11879:11883   */\n      0x00\n        /* \"#utility.yul\":11917:11920   */\n      0xa0\n        /* \"#utility.yul\":11906:11915   */\n      dup3\n        /* \"#utility.yul\":11902:11921   */\n      add\n        /* \"#utility.yul\":11894:11921   */\n      swap1\n      pop\n        /* \"#utility.yul\":11931:12002   */\n      tag_394\n        /* \"#utility.yul\":11999:12000   */\n      0x00\n        /* \"#utility.yul\":11988:11997   */\n      dup4\n        /* \"#utility.yul\":11984:12001   */\n      add\n        /* \"#utility.yul\":11975:11981   */\n      dup9\n        /* \"#utility.yul\":11931:12002   */\n      tag_237\n      jump\t// in\n    tag_394:\n        /* \"#utility.yul\":12012:12084   */\n      tag_395\n        /* \"#utility.yul\":12080:12082   */\n      0x20\n        /* \"#utility.yul\":12069:12078   */\n      dup4\n        /* \"#utility.yul\":12065:12083   */\n      add\n        /* \"#utility.yul\":12056:12062   */\n      dup8\n        /* \"#utility.yul\":12012:12084   */\n      tag_237\n      jump\t// in\n    tag_395:\n        /* \"#utility.yul\":12131:12140   */\n      dup2\n        /* \"#utility.yul\":12125:12129   */\n      dup2\n        /* \"#utility.yul\":12121:12141   */\n      sub\n        /* \"#utility.yul\":12116:12118   */\n      0x40\n        /* \"#utility.yul\":12105:12114   */\n      dup4\n        /* \"#utility.yul\":12101:12119   */\n      add\n        /* \"#utility.yul\":12094:12142   */\n      mstore\n        /* \"#utility.yul\":12159:12267   */\n      tag_396\n        /* \"#utility.yul\":12262:12266   */\n      dup2\n        /* \"#utility.yul\":12253:12259   */\n      dup7\n        /* \"#utility.yul\":12159:12267   */\n      tag_257\n      jump\t// in\n    tag_396:\n        /* \"#utility.yul\":12151:12267   */\n      swap1\n      pop\n        /* \"#utility.yul\":12277:12349   */\n      tag_397\n        /* \"#utility.yul\":12345:12347   */\n      0x60\n        /* \"#utility.yul\":12334:12343   */\n      dup4\n        /* \"#utility.yul\":12330:12348   */\n      add\n        /* \"#utility.yul\":12321:12327   */\n      dup6\n        /* \"#utility.yul\":12277:12349   */\n      tag_240\n      jump\t// in\n    tag_397:\n        /* \"#utility.yul\":12359:12432   */\n      tag_398\n        /* \"#utility.yul\":12427:12430   */\n      0x80\n        /* \"#utility.yul\":12416:12425   */\n      dup4\n        /* \"#utility.yul\":12412:12431   */\n      add\n        /* \"#utility.yul\":12403:12409   */\n      dup5\n        /* \"#utility.yul\":12359:12432   */\n      tag_237\n      jump\t// in\n    tag_398:\n        /* \"#utility.yul\":11624:12439   */\n      swap7\n      swap6\n      pop\n      pop\n      pop\n      pop\n      pop\n      pop\n      jump\t// out\n        /* \"#utility.yul\":12445:12562   */\n    tag_258:\n        /* \"#utility.yul\":12554:12555   */\n      0x00\n        /* \"#utility.yul\":12551:12552   */\n      0x00\n        /* \"#utility.yul\":12544:12556   */\n      revert\n        /* \"#utility.yul\":12568:12670   */\n    tag_259:\n        /* \"#utility.yul\":12609:12615   */\n      0x00\n        /* \"#utility.yul\":12660:12662   */\n      0x1f\n        /* \"#utility.yul\":12656:12663   */\n      not\n        /* \"#utility.yul\":12651:12653   */\n      0x1f\n        /* \"#utility.yul\":12644:12649   */\n      dup4\n        /* \"#utility.yul\":12640:12654   */\n      add\n        /* \"#utility.yul\":12636:12664   */\n      and\n        /* \"#utility.yul\":12626:12664   */\n      swap1\n      pop\n        /* \"#utility.yul\":12568:12670   */\n      swap2\n      swap1\n      pop\n      jump\t// out\n        /* \"#utility.yul\":12676:12957   */\n    tag_260:\n        /* \"#utility.yul\":12759:12786   */\n      tag_402\n        /* \"#utility.yul\":12781:12785   */\n      dup3\n        /* \"#utility.yul\":12759:12786   */\n      tag_259\n      jump\t// in\n    tag_402:\n        /* \"#utility.yul\":12751:12757   */\n      dup2\n        /* \"#utility.yul\":12747:12787   */\n      add\n        /* \"#utility.yul\":12889:12895   */\n      dup2\n        /* \"#utility.yul\":12877:12887   */\n      dup2\n        /* \"#utility.yul\":12874:12896   */\n      lt\n        /* \"#utility.yul\":12853:12871   */\n      0xffffffffffffffff\n        /* \"#utility.yul\":12841:12851   */\n      dup3\n        /* \"#utility.yul\":12838:12872   */\n      gt\n        /* \"#utility.yul\":12835:12897   */\n      or\n        /* \"#utility.yul\":12832:12920   */\n      iszero\n      tag_403\n      jumpi\n        /* \"#utility.yul\":12900:12918   */\n      tag_404\n      tag_106\n      jump\t// in\n    tag_404:\n        /* \"#utility.yul\":12832:12920   */\n    tag_403:\n        /* \"#utility.yul\":12940:12950   */\n      dup1\n        /* \"#utility.yul\":12936:12938   */\n      0x40\n        /* \"#utility.yul\":12929:12951   */\n      mstore\n        /* \"#utility.yul\":12719:12957   */\n      pop\n        /* \"#utility.yul\":12676:12957   */\n      pop\n      pop\n      jump\t// out\n        /* \"#utility.yul\":12963:13092   */\n    tag_261:\n        /* \"#utility.yul\":12997:13003   */\n      0x00\n        /* \"#utility.yul\":13024:13044   */\n      tag_406\n      tag_229\n      jump\t// in\n    tag_406:\n        /* \"#utility.yul\":13014:13044   */\n      swap1\n      pop\n        /* \"#utility.yul\":13053:13086   */\n      tag_407\n        /* \"#utility.yul\":13081:13085   */\n      dup3\n        /* \"#utility.yul\":13073:13079   */\n      dup3\n        /* \"#utility.yul\":13053:13086   */\n      tag_260\n      jump\t// in\n    tag_407:\n        /* \"#utility.yul\":12963:13092   */\n      swap2\n      swap1\n      pop\n      jump\t// out\n        /* \"#utility.yul\":13098:13409   */\n    tag_262:\n        /* \"#utility.yul\":13175:13179   */\n      0x00\n        /* \"#utility.yul\":13265:13283   */\n      0xffffffffffffffff\n        /* \"#utility.yul\":13257:13263   */\n      dup3\n        /* \"#utility.yul\":13254:13284   */\n      gt\n        /* \"#utility.yul\":13251:13307   */\n      iszero\n      tag_409\n      jumpi\n        /* \"#utility.yul\":13287:13305   */\n      tag_410\n      tag_106\n      jump\t// in\n    tag_410:\n        /* \"#utility.yul\":13251:13307   */\n    tag_409:\n        /* \"#utility.yul\":13337:13341   */\n      0x20\n        /* \"#utility.yul\":13329:13335   */\n      dup3\n        /* \"#utility.yul\":13325:13342   */\n      mul\n        /* \"#utility.yul\":13317:13342   */\n      swap1\n      pop\n        /* \"#utility.yul\":13397:13401   */\n      0x20\n        /* \"#utility.yul\":13391:13395   */\n      dup2\n        /* \"#utility.yul\":13387:13402   */\n      add\n        /* \"#utility.yul\":13379:13402   */\n      swap1\n      pop\n        /* \"#utility.yul\":13098:13409   */\n      swap2\n      swap1\n      pop\n      jump\t// out\n        /* \"#utility.yul\":13415:13532   */\n    tag_263:\n        /* \"#utility.yul\":13524:13525   */\n      0x00\n        /* \"#utility.yul\":13521:13522   */\n      0x00\n        /* \"#utility.yul\":13514:13526   */\n      revert\n        /* \"#utility.yul\":13538:13681   */\n    tag_264:\n        /* \"#utility.yul\":13595:13600   */\n      0x00\n        /* \"#utility.yul\":13626:13632   */\n      dup2\n        /* \"#utility.yul\":13620:13633   */\n      mload\n        /* \"#utility.yul\":13611:13633   */\n      swap1\n      pop\n        /* \"#utility.yul\":13642:13675   */\n      tag_413\n        /* \"#utility.yul\":13669:13674   */\n      dup2\n        /* \"#utility.yul\":13642:13675   */\n      tag_238\n      jump\t// in\n    tag_413:\n        /* \"#utility.yul\":13538:13681   */\n      swap3\n      swap2\n      pop\n      pop\n      jump\t// out\n        /* \"#utility.yul\":13704:14436   */\n    tag_265:\n        /* \"#utility.yul\":13811:13816   */\n      0x00\n        /* \"#utility.yul\":13836:13917   */\n      tag_415\n        /* \"#utility.yul\":13852:13916   */\n      tag_416\n        /* \"#utility.yul\":13909:13915   */\n      dup5\n        /* \"#utility.yul\":13852:13916   */\n      tag_262\n      jump\t// in\n    tag_416:\n        /* \"#utility.yul\":13836:13917   */\n      tag_261\n      jump\t// in\n    tag_415:\n        /* \"#utility.yul\":13827:13917   */\n      swap1\n      pop\n        /* \"#utility.yul\":13937:13942   */\n      dup1\n        /* \"#utility.yul\":13966:13972   */\n      dup4\n        /* \"#utility.yul\":13959:13964   */\n      dup3\n        /* \"#utility.yul\":13952:13973   */\n      mstore\n        /* \"#utility.yul\":14000:14004   */\n      0x20\n        /* \"#utility.yul\":13993:13998   */\n      dup3\n        /* \"#utility.yul\":13989:14005   */\n      add\n        /* \"#utility.yul\":13982:14005   */\n      swap1\n      pop\n        /* \"#utility.yul\":14053:14057   */\n      0x20\n        /* \"#utility.yul\":14045:14051   */\n      dup5\n        /* \"#utility.yul\":14041:14058   */\n      mul\n        /* \"#utility.yul\":14033:14039   */\n      dup4\n        /* \"#utility.yul\":14029:14059   */\n      add\n        /* \"#utility.yul\":14082:14085   */\n      dup6\n        /* \"#utility.yul\":14074:14080   */\n      dup2\n        /* \"#utility.yul\":14071:14086   */\n      gt\n        /* \"#utility.yul\":14068:14190   */\n      iszero\n      tag_417\n      jumpi\n        /* \"#utility.yul\":14101:14180   */\n      tag_418\n      tag_263\n      jump\t// in\n    tag_418:\n        /* \"#utility.yul\":14068:14190   */\n    tag_417:\n        /* \"#utility.yul\":14216:14222   */\n      dup4\n        /* \"#utility.yul\":14199:14430   */\n    tag_419:\n        /* \"#utility.yul\":14233:14239   */\n      dup2\n        /* \"#utility.yul\":14228:14231   */\n      dup2\n        /* \"#utility.yul\":14225:14240   */\n      lt\n        /* \"#utility.yul\":14199:14430   */\n      iszero\n      tag_421\n      jumpi\n        /* \"#utility.yul\":14308:14311   */\n      dup1\n        /* \"#utility.yul\":14337:14385   */\n      tag_422\n        /* \"#utility.yul\":14381:14384   */\n      dup9\n        /* \"#utility.yul\":14369:14379   */\n      dup3\n        /* \"#utility.yul\":14337:14385   */\n      tag_264\n      jump\t// in\n    tag_422:\n        /* \"#utility.yul\":14332:14335   */\n      dup5\n        /* \"#utility.yul\":14325:14386   */\n      mstore\n        /* \"#utility.yul\":14415:14419   */\n      0x20\n        /* \"#utility.yul\":14410:14413   */\n      dup5\n        /* \"#utility.yul\":14406:14420   */\n      add\n        /* \"#utility.yul\":14399:14420   */\n      swap4\n      pop\n        /* \"#utility.yul\":14275:14430   */\n      pop\n        /* \"#utility.yul\":14259:14263   */\n      0x20\n        /* \"#utility.yul\":14254:14257   */\n      dup2\n        /* \"#utility.yul\":14250:14264   */\n      add\n        /* \"#utility.yul\":14243:14264   */\n      swap1\n      pop\n        /* \"#utility.yul\":14199:14430   */\n      jump(tag_419)\n    tag_421:\n        /* \"#utility.yul\":14203:14224   */\n      pop\n        /* \"#utility.yul\":13817:14436   */\n      pop\n      pop\n        /* \"#utility.yul\":13704:14436   */\n      swap4\n      swap3\n      pop\n      pop\n      pop\n      jump\t// out\n        /* \"#utility.yul\":14459:14844   */\n    tag_266:\n        /* \"#utility.yul\":14541:14546   */\n      0x00\n        /* \"#utility.yul\":14590:14593   */\n      dup3\n        /* \"#utility.yul\":14583:14587   */\n      0x1f\n        /* \"#utility.yul\":14575:14581   */\n      dup4\n        /* \"#utility.yul\":14571:14588   */\n      add\n        /* \"#utility.yul\":14567:14594   */\n      slt\n        /* \"#utility.yul\":14557:14679   */\n      tag_424\n      jumpi\n        /* \"#utility.yul\":14598:14677   */\n      tag_425\n      tag_258\n      jump\t// in\n    tag_425:\n        /* \"#utility.yul\":14557:14679   */\n    tag_424:\n        /* \"#utility.yul\":14708:14714   */\n      dup2\n        /* \"#utility.yul\":14702:14715   */\n      mload\n        /* \"#utility.yul\":14733:14838   */\n      tag_426\n        /* \"#utility.yul\":14834:14837   */\n      dup5\n        /* \"#utility.yul\":14826:14832   */\n      dup3\n        /* \"#utility.yul\":14819:14823   */\n      0x20\n        /* \"#utility.yul\":14811:14817   */\n      dup7\n        /* \"#utility.yul\":14807:14824   */\n      add\n        /* \"#utility.yul\":14733:14838   */\n      tag_265\n      jump\t// in\n    tag_426:\n        /* \"#utility.yul\":14724:14838   */\n      swap2\n      pop\n        /* \"#utility.yul\":14547:14844   */\n      pop\n        /* \"#utility.yul\":14459:14844   */\n      swap3\n      swap2\n      pop\n      pop\n      jump\t// out\n        /* \"#utility.yul\":14850:15404   */\n    tag_120:\n        /* \"#utility.yul\":14945:14951   */\n      0x00\n        /* \"#utility.yul\":14994:14996   */\n      0x20\n        /* \"#utility.yul\":14982:14991   */\n      dup3\n        /* \"#utility.yul\":14973:14980   */\n      dup5\n        /* \"#utility.yul\":14969:14992   */\n      sub\n        /* \"#utility.yul\":14965:14997   */\n      slt\n        /* \"#utility.yul\":14962:15081   */\n      iszero\n      tag_428\n      jumpi\n        /* \"#utility.yul\":15000:15079   */\n      tag_429\n      tag_230\n      jump\t// in\n    tag_429:\n        /* \"#utility.yul\":14962:15081   */\n    tag_428:\n        /* \"#utility.yul\":15141:15142   */\n      0x00\n        /* \"#utility.yul\":15130:15139   */\n      dup3\n        /* \"#utility.yul\":15126:15143   */\n      add\n        /* \"#utility.yul\":15120:15144   */\n      mload\n        /* \"#utility.yul\":15171:15189   */\n      0xffffffffffffffff\n        /* \"#utility.yul\":15163:15169   */\n      dup2\n        /* \"#utility.yul\":15160:15190   */\n      gt\n        /* \"#utility.yul\":15157:15274   */\n      iszero\n      tag_430\n      jumpi\n        /* \"#utility.yul\":15193:15272   */\n      tag_431\n      tag_231\n      jump\t// in\n    tag_431:\n        /* \"#utility.yul\":15157:15274   */\n    tag_430:\n        /* \"#utility.yul\":15298:15387   */\n      tag_432\n        /* \"#utility.yul\":15379:15386   */\n      dup5\n        /* \"#utility.yul\":15370:15376   */\n      dup3\n        /* \"#utility.yul\":15359:15368   */\n      dup6\n        /* \"#utility.yul\":15355:15377   */\n      add\n        /* \"#utility.yul\":15298:15387   */\n      tag_266\n      jump\t// in\n    tag_432:\n        /* \"#utility.yul\":15288:15387   */\n      swap2\n      pop\n        /* \"#utility.yul\":15091:15397   */\n      pop\n        /* \"#utility.yul\":14850:15404   */\n      swap3\n      swap2\n      pop\n      pop\n      jump\t// out\n        /* \"#utility.yul\":15410:15604   */\n    tag_123:\n        /* \"#utility.yul\":15450:15454   */\n      0x00\n        /* \"#utility.yul\":15470:15490   */\n      tag_434\n        /* \"#utility.yul\":15488:15489   */\n      dup3\n        /* \"#utility.yul\":15470:15490   */\n      tag_236\n      jump\t// in\n    tag_434:\n        /* \"#utility.yul\":15465:15490   */\n      swap2\n      pop\n        /* \"#utility.yul\":15504:15524   */\n      tag_435\n        /* \"#utility.yul\":15522:15523   */\n      dup4\n        /* \"#utility.yul\":15504:15524   */\n      tag_236\n      jump\t// in\n    tag_435:\n        /* \"#utility.yul\":15499:15524   */\n      swap3\n      pop\n        /* \"#utility.yul\":15548:15549   */\n      dup3\n        /* \"#utility.yul\":15545:15546   */\n      dup3\n        /* \"#utility.yul\":15541:15550   */\n      sub\n        /* \"#utility.yul\":15533:15550   */\n      swap1\n      pop\n        /* \"#utility.yul\":15572:15573   */\n      dup2\n        /* \"#utility.yul\":15566:15570   */\n      dup2\n        /* \"#utility.yul\":15563:15574   */\n      gt\n        /* \"#utility.yul\":15560:15597   */\n      iszero\n      tag_436\n      jumpi\n        /* \"#utility.yul\":15577:15595   */\n      tag_437\n      tag_250\n      jump\t// in\n    tag_437:\n        /* \"#utility.yul\":15560:15597   */\n    tag_436:\n        /* \"#utility.yul\":15410:15604   */\n      swap3\n      swap2\n      pop\n      pop\n      jump\t// out\n        /* \"#utility.yul\":15610:15942   */\n    tag_129:\n        /* \"#utility.yul\":15731:15735   */\n      0x00\n        /* \"#utility.yul\":15769:15771   */\n      0x40\n        /* \"#utility.yul\":15758:15767   */\n      dup3\n        /* \"#utility.yul\":15754:15772   */\n      add\n        /* \"#utility.yul\":15746:15772   */\n      swap1\n      pop\n        /* \"#utility.yul\":15782:15853   */\n      tag_439\n        /* \"#utility.yul\":15850:15851   */\n      0x00\n        /* \"#utility.yul\":15839:15848   */\n      dup4\n        /* \"#utility.yul\":15835:15852   */\n      add\n        /* \"#utility.yul\":15826:15832   */\n      dup6\n        /* \"#utility.yul\":15782:15853   */\n      tag_240\n      jump\t// in\n    tag_439:\n        /* \"#utility.yul\":15863:15935   */\n      tag_440\n        /* \"#utility.yul\":15931:15933   */\n      0x20\n        /* \"#utility.yul\":15920:15929   */\n      dup4\n        /* \"#utility.yul\":15916:15934   */\n      add\n        /* \"#utility.yul\":15907:15913   */\n      dup5\n        /* \"#utility.yul\":15863:15935   */\n      tag_237\n      jump\t// in\n    tag_440:\n        /* \"#utility.yul\":15610:15942   */\n      swap4\n      swap3\n      pop\n      pop\n      pop\n      jump\t// out\n        /* \"#utility.yul\":15948:16390   */\n    tag_134:\n        /* \"#utility.yul\":16097:16101   */\n      0x00\n        /* \"#utility.yul\":16135:16137   */\n      0x60\n        /* \"#utility.yul\":16124:16133   */\n      dup3\n        /* \"#utility.yul\":16120:16138   */\n      add\n        /* \"#utility.yul\":16112:16138   */\n      swap1\n      pop\n        /* \"#utility.yul\":16148:16219   */\n      tag_442\n        /* \"#utility.yul\":16216:16217   */\n      0x00\n        /* \"#utility.yul\":16205:16214   */\n      dup4\n        /* \"#utility.yul\":16201:16218   */\n      add\n        /* \"#utility.yul\":16192:16198   */\n      dup7\n        /* \"#utility.yul\":16148:16219   */\n      tag_237\n      jump\t// in\n    tag_442:\n        /* \"#utility.yul\":16229:16301   */\n      tag_443\n        /* \"#utility.yul\":16297:16299   */\n      0x20\n        /* \"#utility.yul\":16286:16295   */\n      dup4\n        /* \"#utility.yul\":16282:16300   */\n      add\n        /* \"#utility.yul\":16273:16279   */\n      dup6\n        /* \"#utility.yul\":16229:16301   */\n      tag_237\n      jump\t// in\n    tag_443:\n        /* \"#utility.yul\":16311:16383   */\n      tag_444\n        /* \"#utility.yul\":16379:16381   */\n      0x40\n        /* \"#utility.yul\":16368:16377   */\n      dup4\n        /* \"#utility.yul\":16364:16382   */\n      add\n        /* \"#utility.yul\":16355:16361   */\n      dup5\n        /* \"#utility.yul\":16311:16383   */\n      tag_237\n      jump\t// in\n    tag_444:\n        /* \"#utility.yul\":15948:16390   */\n      swap5\n      swap4\n      pop\n      pop\n      pop\n      pop\n      jump\t// out\n        /* \"#utility.yul\":16396:16728   */\n    tag_138:\n        /* \"#utility.yul\":16517:16521   */\n      0x00\n        /* \"#utility.yul\":16555:16557   */\n      0x40\n        /* \"#utility.yul\":16544:16553   */\n      dup3\n        /* \"#utility.yul\":16540:16558   */\n      add\n        /* \"#utility.yul\":16532:16558   */\n      swap1\n      pop\n        /* \"#utility.yul\":16568:16639   */\n      tag_446\n        /* \"#utility.yul\":16636:16637   */\n      0x00\n        /* \"#utility.yul\":16625:16634   */\n      dup4\n        /* \"#utility.yul\":16621:16638   */\n      add\n        /* \"#utility.yul\":16612:16618   */\n      dup6\n        /* \"#utility.yul\":16568:16639   */\n      tag_237\n      jump\t// in\n    tag_446:\n        /* \"#utility.yul\":16649:16721   */\n      tag_447\n        /* \"#utility.yul\":16717:16719   */\n      0x20\n        /* \"#utility.yul\":16706:16715   */\n      dup4\n        /* \"#utility.yul\":16702:16720   */\n      add\n        /* \"#utility.yul\":16693:16699   */\n      dup5\n        /* \"#utility.yul\":16649:16721   */\n      tag_237\n      jump\t// in\n    tag_447:\n        /* \"#utility.yul\":16396:16728   */\n      swap4\n      swap3\n      pop\n      pop\n      pop\n      jump\t// out\n        /* \"#utility.yul\":16734:16892   */\n    tag_267:\n        /* \"#utility.yul\":16792:16801   */\n      0x00\n        /* \"#utility.yul\":16825:16886   */\n      tag_449\n        /* \"#utility.yul\":16843:16885   */\n      tag_450\n        /* \"#utility.yul\":16852:16884   */\n      tag_451\n        /* \"#utility.yul\":16878:16883   */\n      dup5\n        /* \"#utility.yul\":16852:16884   */\n      tag_217\n      jump\t// in\n    tag_451:\n        /* \"#utility.yul\":16843:16885   */\n      tag_219\n      jump\t// in\n    tag_450:\n        /* \"#utility.yul\":16825:16886   */\n      tag_236\n      jump\t// in\n    tag_449:\n        /* \"#utility.yul\":16812:16886   */\n      swap1\n      pop\n        /* \"#utility.yul\":16734:16892   */\n      swap2\n      swap1\n      pop\n      jump\t// out\n        /* \"#utility.yul\":16898:17045   */\n    tag_268:\n        /* \"#utility.yul\":16993:17038   */\n      tag_453\n        /* \"#utility.yul\":17032:17037   */\n      dup2\n        /* \"#utility.yul\":16993:17038   */\n      tag_267\n      jump\t// in\n    tag_453:\n        /* \"#utility.yul\":16988:16991   */\n      dup3\n        /* \"#utility.yul\":16981:17039   */\n      mstore\n        /* \"#utility.yul\":16898:17045   */\n      pop\n      pop\n      jump\t// out\n        /* \"#utility.yul\":17051:17399   */\n    tag_209:\n        /* \"#utility.yul\":17180:17184   */\n      0x00\n        /* \"#utility.yul\":17218:17220   */\n      0x40\n        /* \"#utility.yul\":17207:17216   */\n      dup3\n        /* \"#utility.yul\":17203:17221   */\n      add\n        /* \"#utility.yul\":17195:17221   */\n      swap1\n      pop\n        /* \"#utility.yul\":17231:17302   */\n      tag_455\n        /* \"#utility.yul\":17299:17300   */\n      0x00\n        /* \"#utility.yul\":17288:17297   */\n      dup4\n        /* \"#utility.yul\":17284:17301   */\n      add\n        /* \"#utility.yul\":17275:17281   */\n      dup6\n        /* \"#utility.yul\":17231:17302   */\n      tag_240\n      jump\t// in\n    tag_455:\n        /* \"#utility.yul\":17312:17392   */\n      tag_456\n        /* \"#utility.yul\":17388:17390   */\n      0x20\n        /* \"#utility.yul\":17377:17386   */\n      dup4\n        /* \"#utility.yul\":17373:17391   */\n      add\n        /* \"#utility.yul\":17364:17370   */\n      dup5\n        /* \"#utility.yul\":17312:17392   */\n      tag_268\n      jump\t// in\n    tag_456:\n        /* \"#utility.yul\":17051:17399   */\n      swap4\n      swap3\n      pop\n      pop\n      pop\n      jump\t// out\n\n    auxdata: 0xa264697066735822122017630e7d5aba65394e117794739a773474f9c10ac53ba776c0274a44175fa8f064736f6c634300081e0033\n}\n",
				"bytecode": {
					"linkReferences": {},
					"object": "610100604052348015610010575f5ffd5b50604051612720380380612720833981810160405281019061003291906102c2565b5f73ffffffffffffffffffffffffffffffffffffffff168373ffffffffffffffffffffffffffffffffffffffff16148061009757505f73ffffffffffffffffffffffffffffffffffffffff168273ffffffffffffffffffffffffffffffffffffffff16145b806100a157505f81145b156100d8576040517f1f2a200500000000000000000000000000000000000000000000000000000000815260040160405180910390fd5b8273ffffffffffffffffffffffffffffffffffffffff1660808173ffffffffffffffffffffffffffffffffffffffff16815250508173ffffffffffffffffffffffffffffffffffffffff1660a08173ffffffffffffffffffffffffffffffffffffffff168152505060a05173ffffffffffffffffffffffffffffffffffffffff1663ad5c46486040518163ffffffff1660e01b8152600401602060405180830381865afa15801561018b573d5f5f3e3d5ffd5b505050506040513d601f19601f820116820180604052508101906101af9190610312565b73ffffffffffffffffffffffffffffffffffffffff1660c08173ffffffffffffffffffffffffffffffffffffffff16815250508060e08181525050335f5f6101000a81548173ffffffffffffffffffffffffffffffffffffffff021916908373ffffffffffffffffffffffffffffffffffffffff16021790555050505061033d565b5f5ffd5b5f73ffffffffffffffffffffffffffffffffffffffff82169050919050565b5f61025e82610235565b9050919050565b61026e81610254565b8114610278575f5ffd5b50565b5f8151905061028981610265565b92915050565b5f819050919050565b6102a18161028f565b81146102ab575f5ffd5b50565b5f815190506102bc81610298565b92915050565b5f5f5f606084860312156102d9576102d8610231565b5b5f6102e68682870161027b565b93505060206102f78682870161027b565b9250506040610308868287016102ae565b9150509250925092565b5f6020828403121561032757610326610231565b5b5f6103348482850161027b565b91505092915050565b60805160a05160c05160e05161231661040a5f395f81816109fa01528181610acf01528181610fcd015281816110a20152818161125b0152818161172001526117f501525f8181610cbc01528181610d3c01528181610dd10152818161116c015261127f01525f81816107aa015281816108ed01528181610d5d01528181610ec0015261192a01525f81816106680152818161086c01528181610a2f01528181610e3f0152818161100201528181611213015281816114700152818161164a015261175501526123165ff3fe6080604052600436106100aa575f3560e01c8063ac4543ba11610063578063ac4543ba146102d4578063ad5c4648146102fe578063c3fd262d14610328578063db81f99b14610364578063f688bcfb1461038c578063f887ea40146103b4576101e6565b806313af4035146101ea57806334462be614610212578063396575531461023c578063883f17211461026457806389a30271146102805780638da5cb5b146102aa576101e6565b366101e6575f3073ffffffffffffffffffffffffffffffffffffffff165f6040516024016100d89190611a97565b6040516020818303038152906040527f883f1721000000000000000000000000000000000000000000000000000000007bffffffffffffffffffffffffffffffffffffffffffffffffffffffff19166020820180517bffffffffffffffffffffffffffffffffffffffffffffffffffffffff83818316178352505050506040516101629190611b02565b5f604051808303815f865af19150503d805f811461019b576040519150601f19603f3d011682016040523d82523d5f602084013e6101a0565b606091505b50509050806101e4576040517f08c379a00000000000000000000000000000000000000000000000000000000081526004016101db90611b72565b60405180910390fd5b005b5f5ffd5b3480156101f5575f5ffd5b50610210600480360381019061020b9190611bfb565b6103de565b005b34801561021d575f5ffd5b50610226610592565b6040516102339190611c3e565b60405180910390f35b348015610247575f5ffd5b50610262600480360381019061025d9190611c81565b610598565b005b61027e60048036038101906102799190611cd1565b610c21565b005b34801561028b575f5ffd5b50610294611211565b6040516102a19190611d0b565b60405180910390f35b3480156102b5575f5ffd5b506102be611235565b6040516102cb9190611d0b565b60405180910390f35b3480156102df575f5ffd5b506102e8611259565b6040516102f59190611c3e565b60405180910390f35b348015610309575f5ffd5b5061031261127d565b60405161031f9190611d0b565b60405180910390f35b348015610333575f5ffd5b5061034e60048036038101906103499190611bfb565b6112a1565b60405161035b9190611c3e565b60405180910390f35b34801561036f575f5ffd5b5061038a60048036038101906103859190611cd1565b6112e7565b005b348015610397575f5ffd5b506103b260048036038101906103ad9190611cd1565b6115ae565b005b3480156103bf575f5ffd5b506103c8611928565b6040516103d59190611d76565b60405180910390f35b5f5f9054906101000a900473ffffffffffffffffffffffffffffffffffffffff1673ffffffffffffffffffffffffffffffffffffffff163373ffffffffffffffffffffffffffffffffffffffff1614610463576040517f30cd747100000000000000000000000000000000000000000000000000000000815260040160405180910390fd5b5f73ffffffffffffffffffffffffffffffffffffffff168173ffffffffffffffffffffffffffffffffffffffff16036104d1576040517f08c379a00000000000000000000000000000000000000000000000000000000081526004016104c890611dd9565b60405180910390fd5b5f5f5f9054906101000a900473ffffffffffffffffffffffffffffffffffffffff169050815f5f6101000a81548173ffffffffffffffffffffffffffffffffffffffff021916908373ffffffffffffffffffffffffffffffffffffffff1602179055508173ffffffffffffffffffffffffffffffffffffffff168173ffffffffffffffffffffffffffffffffffffffff167fb532073b38c83145e3e5135377a08bf9aab55bc0fd7c1179cd4fb995d2a5159c60405160405180910390a35050565b60015481565b60025f9054906101000a900460ff16156105de576040517fed3ba6a600000000000000000000000000000000000000000000000000000000815260040160405180910390fd5b600160025f6101000a81548160ff0219169083151502179055505f8203610631576040517f1f2a200500000000000000000000000000000000000000000000000000000000815260040160405180910390fd5b5f73ffffffffffffffffffffffffffffffffffffffff168373ffffffffffffffffffffffffffffffffffffffff1614806106b657507f000000000000000000000000000000000000000000000000000000000000000073ffffffffffffffffffffffffffffffffffffffff168373ffffffffffffffffffffffffffffffffffffffff16145b156106ed576040517f20db826700000000000000000000000000000000000000000000000000000000815260040160405180910390fd5b5f8373ffffffffffffffffffffffffffffffffffffffff166323b872dd3330866040518463ffffffff1660e01b815260040161072b93929190611df7565b6020604051808303815f875af1158015610747573d5f5f3e3d5ffd5b505050506040513d601f19601f8201168201806040525081019061076b9190611e61565b9050806107a4576040517f81ceff3000000000000000000000000000000000000000000000000000000000815260040160405180910390fd5b6107cf847f00000000000000000000000000000000000000000000000000000000000000008561194c565b5f600267ffffffffffffffff8111156107eb576107ea611e8c565b5b6040519080825280602002602001820160405280156108195781602001602082028036833780820191505090505b50905084815f815181106108305761082f611eb9565b5b602002602001019073ffffffffffffffffffffffffffffffffffffffff16908173ffffffffffffffffffffffffffffffffffffffff16815250507f00000000000000000000000000000000000000000000000000000000000000008160018151811061089f5761089e611eb9565b5b602002602001019073ffffffffffffffffffffffffffffffffffffffff16908173ffffffffffffffffffffffffffffffffffffffff16815250505f61012c426108e89190611f13565b90505f7f000000000000000000000000000000000000000000000000000000000000000073ffffffffffffffffffffffffffffffffffffffff166338ed173987878630876040518663ffffffff1660e01b815260040161094c959493929190611ffd565b5f604051808303815f875af1158015610967573d5f5f3e3d5ffd5b505050506040513d5f823e3d601f19601f8201168201806040525081019061098f919061218c565b90506002815110156109cd576040517f81ceff3000000000000000000000000000000000000000000000000000000000815260040160405180910390fd5b5f81600183516109dd91906121d3565b815181106109ee576109ed611eb9565b5b602002602001015190507f000000000000000000000000000000000000000000000000000000000000000081600154610a279190611f13565b1115610b2c577f000000000000000000000000000000000000000000000000000000000000000073ffffffffffffffffffffffffffffffffffffffff1663a9059cbb33836040518363ffffffff1660e01b8152600401610a88929190612206565b6020604051808303815f875af1158015610aa4573d5f5f3e3d5ffd5b505050506040513d601f19601f82011682018060405250810190610ac89190611e61565b50806001547f00000000000000000000000000000000000000000000000000000000000000006040517f621e5a69000000000000000000000000000000000000000000000000000000008152600401610b239392919061222d565b60405180910390fd5b8060015f828254610b3d9190611f13565b925050819055508060035f3373ffffffffffffffffffffffffffffffffffffffff1673ffffffffffffffffffffffffffffffffffffffff1681526020019081526020015f205f828254610b909190611f13565b925050819055508773ffffffffffffffffffffffffffffffffffffffff163373ffffffffffffffffffffffffffffffffffffffff167fab466672cd9adae1c2072831f94c1068597b355987d2a64d4e5a7dcd74e5cda58984604051610bf6929190612262565b60405180910390a350505050505f60025f6101000a81548160ff021916908315150217905550505050565b60025f9054906101000a900460ff1615610c67576040517fed3ba6a600000000000000000000000000000000000000000000000000000000815260040160405180910390fd5b600160025f6101000a81548160ff0219169083151502179055505f3403610cba576040517f1f2a200500000000000000000000000000000000000000000000000000000000815260040160405180910390fd5b7f000000000000000000000000000000000000000000000000000000000000000073ffffffffffffffffffffffffffffffffffffffff1663d0e30db0346040518263ffffffff1660e01b81526004015f604051808303818588803b158015610d20575f5ffd5b505af1158015610d32573d5f5f3e3d5ffd5b5050505050610d827f00000000000000000000000000000000000000000000000000000000000000007f00000000000000000000000000000000000000000000000000000000000000003461194c565b5f600267ffffffffffffffff811115610d9e57610d9d611e8c565b5b604051908082528060200260200182016040528015610dcc5781602001602082028036833780820191505090505b5090507f0000000000000000000000000000000000000000000000000000000000000000815f81518110610e0357610e02611eb9565b5b602002602001019073ffffffffffffffffffffffffffffffffffffffff16908173ffffffffffffffffffffffffffffffffffffffff16815250507f000000000000000000000000000000000000000000000000000000000000000081600181518110610e7257610e71611eb9565b5b602002602001019073ffffffffffffffffffffffffffffffffffffffff16908173ffffffffffffffffffffffffffffffffffffffff16815250505f61012c42610ebb9190611f13565b90505f7f000000000000000000000000000000000000000000000000000000000000000073ffffffffffffffffffffffffffffffffffffffff166338ed173934868630876040518663ffffffff1660e01b8152600401610f1f959493929190611ffd565b5f604051808303815f875af1158015610f3a573d5f5f3e3d5ffd5b505050506040513d5f823e3d601f19601f82011682018060405250810190610f62919061218c565b9050600281511015610fa0576040517f81ceff3000000000000000000000000000000000000000000000000000000000815260040160405180910390fd5b5f8160018351610fb091906121d3565b81518110610fc157610fc0611eb9565b5b602002602001015190507f000000000000000000000000000000000000000000000000000000000000000081600154610ffa9190611f13565b11156110ff577f000000000000000000000000000000000000000000000000000000000000000073ffffffffffffffffffffffffffffffffffffffff1663a9059cbb33836040518363ffffffff1660e01b815260040161105b929190612206565b6020604051808303815f875af1158015611077573d5f5f3e3d5ffd5b505050506040513d601f19601f8201168201806040525081019061109b9190611e61565b50806001547f00000000000000000000000000000000000000000000000000000000000000006040517f621e5a690000000000000000000000000000000000000000000000000000000081526004016110f69392919061222d565b60405180910390fd5b8060015f8282546111109190611f13565b925050819055508060035f3373ffffffffffffffffffffffffffffffffffffffff1673ffffffffffffffffffffffffffffffffffffffff1681526020019081526020015f205f8282546111639190611f13565b925050819055507f000000000000000000000000000000000000000000000000000000000000000073ffffffffffffffffffffffffffffffffffffffff163373ffffffffffffffffffffffffffffffffffffffff167fab466672cd9adae1c2072831f94c1068597b355987d2a64d4e5a7dcd74e5cda534846040516111e9929190612262565b60405180910390a3505050505f60025f6101000a81548160ff02191690831515021790555050565b7f000000000000000000000000000000000000000000000000000000000000000081565b5f5f9054906101000a900473ffffffffffffffffffffffffffffffffffffffff1681565b7f000000000000000000000000000000000000000000000000000000000000000081565b7f000000000000000000000000000000000000000000000000000000000000000081565b5f60035f8373ffffffffffffffffffffffffffffffffffffffff1673ffffffffffffffffffffffffffffffffffffffff1681526020019081526020015f20549050919050565b60025f9054906101000a900460ff161561132d576040517fed3ba6a600000000000000000000000000000000000000000000000000000000815260040160405180910390fd5b600160025f6101000a81548160ff0219169083151502179055505f8103611380576040517f1f2a200500000000000000000000000000000000000000000000000000000000815260040160405180910390fd5b5f60035f3373ffffffffffffffffffffffffffffffffffffffff1673ffffffffffffffffffffffffffffffffffffffff1681526020019081526020015f20549050808211156114085780826040517fcf4791810000000000000000000000000000000000000000000000000000000081526004016113ff929190612262565b60405180910390fd5b818161141491906121d3565b60035f3373ffffffffffffffffffffffffffffffffffffffff1673ffffffffffffffffffffffffffffffffffffffff1681526020019081526020015f20819055508160015f82825461146691906121d3565b925050819055505f7f000000000000000000000000000000000000000000000000000000000000000073ffffffffffffffffffffffffffffffffffffffff1663a9059cbb33856040518363ffffffff1660e01b81526004016114c9929190612206565b6020604051808303815f875af11580156114e5573d5f5f3e3d5ffd5b505050506040513d601f19601f820116820180604052508101906115099190611e61565b905080611542576040517f81ceff3000000000000000000000000000000000000000000000000000000000815260040160405180910390fd5b3373ffffffffffffffffffffffffffffffffffffffff167f23ee1b877cb0081138b4973c5b2eca0133c573ad526550935d83aaade37666ca846040516115889190611c3e565b60405180910390a250505f60025f6101000a81548160ff02191690831515021790555050565b60025f9054906101000a900460ff16156115f4576040517fed3ba6a600000000000000000000000000000000000000000000000000000000815260040160405180910390fd5b600160025f6101000a81548160ff0219169083151502179055505f8103611647576040517f1f2a200500000000000000000000000000000000000000000000000000000000815260040160405180910390fd5b5f7f000000000000000000000000000000000000000000000000000000000000000073ffffffffffffffffffffffffffffffffffffffff166323b872dd3330856040518463ffffffff1660e01b81526004016116a593929190611df7565b6020604051808303815f875af11580156116c1573d5f5f3e3d5ffd5b505050506040513d601f19601f820116820180604052508101906116e59190611e61565b90508061171e576040517f81ceff3000000000000000000000000000000000000000000000000000000000815260040160405180910390fd5b7f00000000000000000000000000000000000000000000000000000000000000008260015461174d9190611f13565b1115611852577f000000000000000000000000000000000000000000000000000000000000000073ffffffffffffffffffffffffffffffffffffffff1663a9059cbb33846040518363ffffffff1660e01b81526004016117ae929190612206565b6020604051808303815f875af11580156117ca573d5f5f3e3d5ffd5b505050506040513d601f19601f820116820180604052508101906117ee9190611e61565b50816001547f00000000000000000000000000000000000000000000000000000000000000006040517f621e5a690000000000000000000000000000000000000000000000000000000081526004016118499392919061222d565b60405180910390fd5b8160015f8282546118639190611f13565b925050819055508160035f3373ffffffffffffffffffffffffffffffffffffffff1673ffffffffffffffffffffffffffffffffffffffff1681526020019081526020015f205f8282546118b69190611f13565b925050819055503373ffffffffffffffffffffffffffffffffffffffff167fe7440f6772025dec9be06ba934e6ee5289b73533ee2136ba668f6cb6ea3f56a8836040516119039190611c3e565b60405180910390a2505f60025f6101000a81548160ff02191690831515021790555050565b7f000000000000000000000000000000000000000000000000000000000000000081565b8273ffffffffffffffffffffffffffffffffffffffff1663095ea7b3835f6040518363ffffffff1660e01b81526004016119879291906122b9565b6020604051808303815f875af11580156119a3573d5f5f3e3d5ffd5b505050506040513d601f19601f820116820180604052508101906119c79190611e61565b508273ffffffffffffffffffffffffffffffffffffffff1663095ea7b383836040518363ffffffff1660e01b8152600401611a03929190612206565b6020604051808303815f875af1158015611a1f573d5f5f3e3d5ffd5b505050506040513d601f19601f82011682018060405250810190611a439190611e61565b50505050565b5f819050919050565b5f60ff82169050919050565b5f819050919050565b5f611a81611a7c611a7784611a49565b611a5e565b611a52565b9050919050565b611a9181611a67565b82525050565b5f602082019050611aaa5f830184611a88565b92915050565b5f81519050919050565b5f81905092915050565b8281835e5f83830152505050565b5f611adc82611ab0565b611ae68185611aba565b9350611af6818560208601611ac4565b80840191505092915050565b5f611b0d8284611ad2565b915081905092915050565b5f82825260208201905092915050565b7f4465706f736974206661696c65640000000000000000000000000000000000005f82015250565b5f611b5c600e83611b18565b9150611b6782611b28565b602082019050919050565b5f6020820190508181035f830152611b8981611b50565b9050919050565b5f604051905090565b5f5ffd5b5f5ffd5b5f73ffffffffffffffffffffffffffffffffffffffff82169050919050565b5f611bca82611ba1565b9050919050565b611bda81611bc0565b8114611be4575f5ffd5b50565b5f81359050611bf581611bd1565b92915050565b5f60208284031215611c1057611c0f611b99565b5b5f611c1d84828501611be7565b91505092915050565b5f819050919050565b611c3881611c26565b82525050565b5f602082019050611c515f830184611c2f565b92915050565b611c6081611c26565b8114611c6a575f5ffd5b50565b5f81359050611c7b81611c57565b92915050565b5f5f5f60608486031215611c9857611c97611b99565b5b5f611ca586828701611be7565b9350506020611cb686828701611c6d565b9250506040611cc786828701611c6d565b9150509250925092565b5f60208284031215611ce657611ce5611b99565b5b5f611cf384828501611c6d565b91505092915050565b611d0581611bc0565b82525050565b5f602082019050611d1e5f830184611cfc565b92915050565b5f611d3e611d39611d3484611ba1565b611a5e565b611ba1565b9050919050565b5f611d4f82611d24565b9050919050565b5f611d6082611d45565b9050919050565b611d7081611d56565b82525050565b5f602082019050611d895f830184611d67565b92915050565b7f7a65726f206164647200000000000000000000000000000000000000000000005f82015250565b5f611dc3600983611b18565b9150611dce82611d8f565b602082019050919050565b5f6020820190508181035f830152611df081611db7565b9050919050565b5f606082019050611e0a5f830186611cfc565b611e176020830185611cfc565b611e246040830184611c2f565b949350505050565b5f8115159050919050565b611e4081611e2c565b8114611e4a575f5ffd5b50565b5f81519050611e5b81611e37565b92915050565b5f60208284031215611e7657611e75611b99565b5b5f611e8384828501611e4d565b91505092915050565b7f4e487b71000000000000000000000000000000000000000000000000000000005f52604160045260245ffd5b7f4e487b71000000000000000000000000000000000000000000000000000000005f52603260045260245ffd5b7f4e487b71000000000000000000000000000000000000000000000000000000005f52601160045260245ffd5b5f611f1d82611c26565b9150611f2883611c26565b9250828201905080821115611f4057611f3f611ee6565b5b92915050565b5f81519050919050565b5f82825260208201905092915050565b5f819050602082019050919050565b611f7881611bc0565b82525050565b5f611f898383611f6f565b60208301905092915050565b5f602082019050919050565b5f611fab82611f46565b611fb58185611f50565b9350611fc083611f60565b805f5b83811015611ff0578151611fd78882611f7e565b9750611fe283611f95565b925050600181019050611fc3565b5085935050505092915050565b5f60a0820190506120105f830188611c2f565b61201d6020830187611c2f565b818103604083015261202f8186611fa1565b905061203e6060830185611cfc565b61204b6080830184611c2f565b9695505050505050565b5f5ffd5b5f601f19601f8301169050919050565b61207282612059565b810181811067ffffffffffffffff8211171561209157612090611e8c565b5b80604052505050565b5f6120a3611b90565b90506120af8282612069565b919050565b5f67ffffffffffffffff8211156120ce576120cd611e8c565b5b602082029050602081019050919050565b5f5ffd5b5f815190506120f181611c57565b92915050565b5f612109612104846120b4565b61209a565b9050808382526020820190506020840283018581111561212c5761212b6120df565b5b835b81811015612155578061214188826120e3565b84526020840193505060208101905061212e565b5050509392505050565b5f82601f83011261217357612172612055565b5b81516121838482602086016120f7565b91505092915050565b5f602082840312156121a1576121a0611b99565b5b5f82015167ffffffffffffffff8111156121be576121bd611b9d565b5b6121ca8482850161215f565b91505092915050565b5f6121dd82611c26565b91506121e883611c26565b9250828203905081811115612200576121ff611ee6565b5b92915050565b5f6040820190506122195f830185611cfc565b6122266020830184611c2f565b9392505050565b5f6060820190506122405f830186611c2f565b61224d6020830185611c2f565b61225a6040830184611c2f565b949350505050565b5f6040820190506122755f830185611c2f565b6122826020830184611c2f565b9392505050565b5f6122a361229e61229984611a49565b611a5e565b611c26565b9050919050565b6122b381612289565b82525050565b5f6040820190506122cc5f830185611cfc565b6122d960208301846122aa565b939250505056fea264697066735822122017630e7d5aba65394e117794739a773474f9c10ac53ba776c0274a44175fa8f064736f6c634300081e0033",
					"opcodes": "PUSH2 0x100 PUSH1 0x40 MSTORE CALLVALUE DUP1 ISZERO PUSH2 0x10 JUMPI PUSH0 PUSH0 REVERT JUMPDEST POP PUSH1 0x40 MLOAD PUSH2 0x2720 CODESIZE SUB DUP1 PUSH2 0x2720 DUP4 CODECOPY DUP2 DUP2 ADD PUSH1 0x40 MSTORE DUP2 ADD SWAP1 PUSH2 0x32 SWAP2 SWAP1 PUSH2 0x2C2 JUMP JUMPDEST PUSH0 PUSH20 0xFFFFFFFFFFFFFFFFFFFFFFFFFFFFFFFFFFFFFFFF AND DUP4 PUSH20 0xFFFFFFFFFFFFFFFFFFFFFFFFFFFFFFFFFFFFFFFF AND EQ DUP1 PUSH2 0x97 JUMPI POP PUSH0 PUSH20 0xFFFFFFFFFFFFFFFFFFFFFFFFFFFFFFFFFFFFFFFF AND DUP3 PUSH20 0xFFFFFFFFFFFFFFFFFFFFFFFFFFFFFFFFFFFFFFFF AND EQ JUMPDEST DUP1 PUSH2 0xA1 JUMPI POP PUSH0 DUP2 EQ JUMPDEST ISZERO PUSH2 0xD8 JUMPI PUSH1 0x40 MLOAD PUSH32 0x1F2A200500000000000000000000000000000000000000000000000000000000 DUP2 MSTORE PUSH1 0x4 ADD PUSH1 0x40 MLOAD DUP1 SWAP2 SUB SWAP1 REVERT JUMPDEST DUP3 PUSH20 0xFFFFFFFFFFFFFFFFFFFFFFFFFFFFFFFFFFFFFFFF AND PUSH1 0x80 DUP2 PUSH20 0xFFFFFFFFFFFFFFFFFFFFFFFFFFFFFFFFFFFFFFFF AND DUP2 MSTORE POP POP DUP2 PUSH20 0xFFFFFFFFFFFFFFFFFFFFFFFFFFFFFFFFFFFFFFFF AND PUSH1 0xA0 DUP2 PUSH20 0xFFFFFFFFFFFFFFFFFFFFFFFFFFFFFFFFFFFFFFFF AND DUP2 MSTORE POP POP PUSH1 0xA0 MLOAD PUSH20 0xFFFFFFFFFFFFFFFFFFFFFFFFFFFFFFFFFFFFFFFF AND PUSH4 0xAD5C4648 PUSH1 0x40 MLOAD DUP2 PUSH4 0xFFFFFFFF AND PUSH1 0xE0 SHL DUP2 MSTORE PUSH1 0x4 ADD PUSH1 0x20 PUSH1 0x40 MLOAD DUP1 DUP4 SUB DUP2 DUP7 GAS STATICCALL ISZERO DUP1 ISZERO PUSH2 0x18B JUMPI RETURNDATASIZE PUSH0 PUSH0 RETURNDATACOPY RETURNDATASIZE PUSH0 REVERT JUMPDEST POP POP POP POP PUSH1 0x40 MLOAD RETURNDATASIZE PUSH1 0x1F NOT PUSH1 0x1F DUP3 ADD AND DUP3 ADD DUP1 PUSH1 0x40 MSTORE POP DUP2 ADD SWAP1 PUSH2 0x1AF SWAP2 SWAP1 PUSH2 0x312 JUMP JUMPDEST PUSH20 0xFFFFFFFFFFFFFFFFFFFFFFFFFFFFFFFFFFFFFFFF AND PUSH1 0xC0 DUP2 PUSH20 0xFFFFFFFFFFFFFFFFFFFFFFFFFFFFFFFFFFFFFFFF AND DUP2 MSTORE POP POP DUP1 PUSH1 0xE0 DUP2 DUP2 MSTORE POP POP CALLER PUSH0 PUSH0 PUSH2 0x100 EXP DUP2 SLOAD DUP2 PUSH20 0xFFFFFFFFFFFFFFFFFFFFFFFFFFFFFFFFFFFFFFFF MUL NOT AND SWAP1 DUP4 PUSH20 0xFFFFFFFFFFFFFFFFFFFFFFFFFFFFFFFFFFFFFFFF AND MUL OR SWAP1 SSTORE POP POP POP POP PUSH2 0x33D JUMP JUMPDEST PUSH0 PUSH0 REVERT JUMPDEST PUSH0 PUSH20 0xFFFFFFFFFFFFFFFFFFFFFFFFFFFFFFFFFFFFFFFF DUP3 AND SWAP1 POP SWAP2 SWAP1 POP JUMP JUMPDEST PUSH0 PUSH2 0x25E DUP3 PUSH2 0x235 JUMP JUMPDEST SWAP1 POP SWAP2 SWAP1 POP JUMP JUMPDEST PUSH2 0x26E DUP2 PUSH2 0x254 JUMP JUMPDEST DUP2 EQ PUSH2 0x278 JUMPI PUSH0 PUSH0 REVERT JUMPDEST POP JUMP JUMPDEST PUSH0 DUP2 MLOAD SWAP1 POP PUSH2 0x289 DUP2 PUSH2 0x265 JUMP JUMPDEST SWAP3 SWAP2 POP POP JUMP JUMPDEST PUSH0 DUP2 SWAP1 POP SWAP2 SWAP1 POP JUMP JUMPDEST PUSH2 0x2A1 DUP2 PUSH2 0x28F JUMP JUMPDEST DUP2 EQ PUSH2 0x2AB JUMPI PUSH0 PUSH0 REVERT JUMPDEST POP JUMP JUMPDEST PUSH0 DUP2 MLOAD SWAP1 POP PUSH2 0x2BC DUP2 PUSH2 0x298 JUMP JUMPDEST SWAP3 SWAP2 POP POP JUMP JUMPDEST PUSH0 PUSH0 PUSH0 PUSH1 0x60 DUP5 DUP7 SUB SLT ISZERO PUSH2 0x2D9 JUMPI PUSH2 0x2D8 PUSH2 0x231 JUMP JUMPDEST JUMPDEST PUSH0 PUSH2 0x2E6 DUP7 DUP3 DUP8 ADD PUSH2 0x27B JUMP JUMPDEST SWAP4 POP POP PUSH1 0x20 PUSH2 0x2F7 DUP7 DUP3 DUP8 ADD PUSH2 0x27B JUMP JUMPDEST SWAP3 POP POP PUSH1 0x40 PUSH2 0x308 DUP7 DUP3 DUP8 ADD PUSH2 0x2AE JUMP JUMPDEST SWAP2 POP POP SWAP3 POP SWAP3 POP SWAP3 JUMP JUMPDEST PUSH0 PUSH1 0x20 DUP3 DUP5 SUB SLT ISZERO PUSH2 0x327 JUMPI PUSH2 0x326 PUSH2 0x231 JUMP JUMPDEST JUMPDEST PUSH0 PUSH2 0x334 DUP5 DUP3 DUP6 ADD PUSH2 0x27B JUMP JUMPDEST SWAP2 POP POP SWAP3 SWAP2 POP POP JUMP JUMPDEST PUSH1 0x80 MLOAD PUSH1 0xA0 MLOAD PUSH1 0xC0 MLOAD PUSH1 0xE0 MLOAD PUSH2 0x2316 PUSH2 0x40A PUSH0 CODECOPY PUSH0 DUP2 DUP2 PUSH2 0x9FA ADD MSTORE DUP2 DUP2 PUSH2 0xACF ADD MSTORE DUP2 DUP2 PUSH2 0xFCD ADD MSTORE DUP2 DUP2 PUSH2 0x10A2 ADD MSTORE DUP2 DUP2 PUSH2 0x125B ADD MSTORE DUP2 DUP2 PUSH2 0x1720 ADD MSTORE PUSH2 0x17F5 ADD MSTORE PUSH0 DUP2 DUP2 PUSH2 0xCBC ADD MSTORE DUP2 DUP2 PUSH2 0xD3C ADD MSTORE DUP2 DUP2 PUSH2 0xDD1 ADD MSTORE DUP2 DUP2 PUSH2 0x116C ADD MSTORE PUSH2 0x127F ADD MSTORE PUSH0 DUP2 DUP2 PUSH2 0x7AA ADD MSTORE DUP2 DUP2 PUSH2 0x8ED ADD MSTORE DUP2 DUP2 PUSH2 0xD5D ADD MSTORE DUP2 DUP2 PUSH2 0xEC0 ADD MSTORE PUSH2 0x192A ADD MSTORE PUSH0 DUP2 DUP2 PUSH2 0x668 ADD MSTORE DUP2 DUP2 PUSH2 0x86C ADD MSTORE DUP2 DUP2 PUSH2 0xA2F ADD MSTORE DUP2 DUP2 PUSH2 0xE3F ADD MSTORE DUP2 DUP2 PUSH2 0x1002 ADD MSTORE DUP2 DUP2 PUSH2 0x1213 ADD MSTORE DUP2 DUP2 PUSH2 0x1470 ADD MSTORE DUP2 DUP2 PUSH2 0x164A ADD MSTORE PUSH2 0x1755 ADD MSTORE PUSH2 0x2316 PUSH0 RETURN INVALID PUSH1 0x80 PUSH1 0x40 MSTORE PUSH1 0x4 CALLDATASIZE LT PUSH2 0xAA JUMPI PUSH0 CALLDATALOAD PUSH1 0xE0 SHR DUP1 PUSH4 0xAC4543BA GT PUSH2 0x63 JUMPI DUP1 PUSH4 0xAC4543BA EQ PUSH2 0x2D4 JUMPI DUP1 PUSH4 0xAD5C4648 EQ PUSH2 0x2FE JUMPI DUP1 PUSH4 0xC3FD262D EQ PUSH2 0x328 JUMPI DUP1 PUSH4 0xDB81F99B EQ PUSH2 0x364 JUMPI DUP1 PUSH4 0xF688BCFB EQ PUSH2 0x38C JUMPI DUP1 PUSH4 0xF887EA40 EQ PUSH2 0x3B4 JUMPI PUSH2 0x1E6 JUMP JUMPDEST DUP1 PUSH4 0x13AF4035 EQ PUSH2 0x1EA JUMPI DUP1 PUSH4 0x34462BE6 EQ PUSH2 0x212 JUMPI DUP1 PUSH4 0x39657553 EQ PUSH2 0x23C JUMPI DUP1 PUSH4 0x883F1721 EQ PUSH2 0x264 JUMPI DUP1 PUSH4 0x89A30271 EQ PUSH2 0x280 JUMPI DUP1 PUSH4 0x8DA5CB5B EQ PUSH2 0x2AA JUMPI PUSH2 0x1E6 JUMP JUMPDEST CALLDATASIZE PUSH2 0x1E6 JUMPI PUSH0 ADDRESS PUSH20 0xFFFFFFFFFFFFFFFFFFFFFFFFFFFFFFFFFFFFFFFF AND PUSH0 PUSH1 0x40 MLOAD PUSH1 0x24 ADD PUSH2 0xD8 SWAP2 SWAP1 PUSH2 0x1A97 JUMP JUMPDEST PUSH1 0x40 MLOAD PUSH1 0x20 DUP2 DUP4 SUB SUB DUP2 MSTORE SWAP1 PUSH1 0x40 MSTORE PUSH32 0x883F172100000000000000000000000000000000000000000000000000000000 PUSH28 0xFFFFFFFFFFFFFFFFFFFFFFFFFFFFFFFFFFFFFFFFFFFFFFFFFFFFFFFF NOT AND PUSH1 0x20 DUP3 ADD DUP1 MLOAD PUSH28 0xFFFFFFFFFFFFFFFFFFFFFFFFFFFFFFFFFFFFFFFFFFFFFFFFFFFFFFFF DUP4 DUP2 DUP4 AND OR DUP4 MSTORE POP POP POP POP PUSH1 0x40 MLOAD PUSH2 0x162 SWAP2 SWAP1 PUSH2 0x1B02 JUMP JUMPDEST PUSH0 PUSH1 0x40 MLOAD DUP1 DUP4 SUB DUP2 PUSH0 DUP7 GAS CALL SWAP2 POP POP RETURNDATASIZE DUP1 PUSH0 DUP2 EQ PUSH2 0x19B JUMPI PUSH1 0x40 MLOAD SWAP2 POP PUSH1 0x1F NOT PUSH1 0x3F RETURNDATASIZE ADD AND DUP3 ADD PUSH1 0x40 MSTORE RETURNDATASIZE DUP3 MSTORE RETURNDATASIZE PUSH0 PUSH1 0x20 DUP5 ADD RETURNDATACOPY PUSH2 0x1A0 JUMP JUMPDEST PUSH1 0x60 SWAP2 POP JUMPDEST POP POP SWAP1 POP DUP1 PUSH2 0x1E4 JUMPI PUSH1 0x40 MLOAD PUSH32 0x8C379A000000000000000000000000000000000000000000000000000000000 DUP2 MSTORE PUSH1 0x4 ADD PUSH2 0x1DB SWAP1 PUSH2 0x1B72 JUMP JUMPDEST PUSH1 0x40 MLOAD DUP1 SWAP2 SUB SWAP1 REVERT JUMPDEST STOP JUMPDEST PUSH0 PUSH0 REVERT JUMPDEST CALLVALUE DUP1 ISZERO PUSH2 0x1F5 JUMPI PUSH0 PUSH0 REVERT JUMPDEST POP PUSH2 0x210 PUSH1 0x4 DUP1 CALLDATASIZE SUB DUP2 ADD SWAP1 PUSH2 0x20B SWAP2 SWAP1 PUSH2 0x1BFB JUMP JUMPDEST PUSH2 0x3DE JUMP JUMPDEST STOP JUMPDEST CALLVALUE DUP1 ISZERO PUSH2 0x21D JUMPI PUSH0 PUSH0 REVERT JUMPDEST POP PUSH2 0x226 PUSH2 0x592 JUMP JUMPDEST PUSH1 0x40 MLOAD PUSH2 0x233 SWAP2 SWAP1 PUSH2 0x1C3E JUMP JUMPDEST PUSH1 0x40 MLOAD DUP1 SWAP2 SUB SWAP1 RETURN JUMPDEST CALLVALUE DUP1 ISZERO PUSH2 0x247 JUMPI PUSH0 PUSH0 REVERT JUMPDEST POP PUSH2 0x262 PUSH1 0x4 DUP1 CALLDATASIZE SUB DUP2 ADD SWAP1 PUSH2 0x25D SWAP2 SWAP1 PUSH2 0x1C81 JUMP JUMPDEST PUSH2 0x598 JUMP JUMPDEST STOP JUMPDEST PUSH2 0x27E PUSH1 0x4 DUP1 CALLDATASIZE SUB DUP2 ADD SWAP1 PUSH2 0x279 SWAP2 SWAP1 PUSH2 0x1CD1 JUMP JUMPDEST PUSH2 0xC21 JUMP JUMPDEST STOP JUMPDEST CALLVALUE DUP1 ISZERO PUSH2 0x28B JUMPI PUSH0 PUSH0 REVERT JUMPDEST POP PUSH2 0x294 PUSH2 0x1211 JUMP JUMPDEST PUSH1 0x40 MLOAD PUSH2 0x2A1 SWAP2 SWAP1 PUSH2 0x1D0B JUMP JUMPDEST PUSH1 0x40 MLOAD DUP1 SWAP2 SUB SWAP1 RETURN JUMPDEST CALLVALUE DUP1 ISZERO PUSH2 0x2B5 JUMPI PUSH0 PUSH0 REVERT JUMPDEST POP PUSH2 0x2BE PUSH2 0x1235 JUMP JUMPDEST PUSH1 0x40 MLOAD PUSH2 0x2CB SWAP2 SWAP1 PUSH2 0x1D0B JUMP JUMPDEST PUSH1 0x40 MLOAD DUP1 SWAP2 SUB SWAP1 RETURN JUMPDEST CALLVALUE DUP1 ISZERO PUSH2 0x2DF JUMPI PUSH0 PUSH0 REVERT JUMPDEST POP PUSH2 0x2E8 PUSH2 0x1259 JUMP JUMPDEST PUSH1 0x40 MLOAD PUSH2 0x2F5 SWAP2 SWAP1 PUSH2 0x1C3E JUMP JUMPDEST PUSH1 0x40 MLOAD DUP1 SWAP2 SUB SWAP1 RETURN JUMPDEST CALLVALUE DUP1 ISZERO PUSH2 0x309 JUMPI PUSH0 PUSH0 REVERT JUMPDEST POP PUSH2 0x312 PUSH2 0x127D JUMP JUMPDEST PUSH1 0x40 MLOAD PUSH2 0x31F SWAP2 SWAP1 PUSH2 0x1D0B JUMP JUMPDEST PUSH1 0x40 MLOAD DUP1 SWAP2 SUB SWAP1 RETURN JUMPDEST CALLVALUE DUP1 ISZERO PUSH2 0x333 JUMPI PUSH0 PUSH0 REVERT JUMPDEST POP PUSH2 0x34E PUSH1 0x4 DUP1 CALLDATASIZE SUB DUP2 ADD SWAP1 PUSH2 0x349 SWAP2 SWAP1 PUSH2 0x1BFB JUMP JUMPDEST PUSH2 0x12A1 JUMP JUMPDEST PUSH1 0x40 MLOAD PUSH2 0x35B SWAP2 SWAP1 PUSH2 0x1C3E JUMP JUMPDEST PUSH1 0x40 MLOAD DUP1 SWAP2 SUB SWAP1 RETURN JUMPDEST CALLVALUE DUP1 ISZERO PUSH2 0x36F JUMPI PUSH0 PUSH0 REVERT JUMPDEST POP PUSH2 0x38A PUSH1 0x4 DUP1 CALLDATASIZE SUB DUP2 ADD SWAP1 PUSH2 0x385 SWAP2 SWAP1 PUSH2 0x1CD1 JUMP JUMPDEST PUSH2 0x12E7 JUMP JUMPDEST STOP JUMPDEST CALLVALUE DUP1 ISZERO PUSH2 0x397 JUMPI PUSH0 PUSH0 REVERT JUMPDEST POP PUSH2 0x3B2 PUSH1 0x4 DUP1 CALLDATASIZE SUB DUP2 ADD SWAP1 PUSH2 0x3AD SWAP2 SWAP1 PUSH2 0x1CD1 JUMP JUMPDEST PUSH2 0x15AE JUMP JUMPDEST STOP JUMPDEST CALLVALUE DUP1 ISZERO PUSH2 0x3BF JUMPI PUSH0 PUSH0 REVERT JUMPDEST POP PUSH2 0x3C8 PUSH2 0x1928 JUMP JUMPDEST PUSH1 0x40 MLOAD PUSH2 0x3D5 SWAP2 SWAP1 PUSH2 0x1D76 JUMP JUMPDEST PUSH1 0x40 MLOAD DUP1 SWAP2 SUB SWAP1 RETURN JUMPDEST PUSH0 PUSH0 SWAP1 SLOAD SWAP1 PUSH2 0x100 EXP SWAP1 DIV PUSH20 0xFFFFFFFFFFFFFFFFFFFFFFFFFFFFFFFFFFFFFFFF AND PUSH20 0xFFFFFFFFFFFFFFFFFFFFFFFFFFFFFFFFFFFFFFFF AND CALLER PUSH20 0xFFFFFFFFFFFFFFFFFFFFFFFFFFFFFFFFFFFFFFFF AND EQ PUSH2 0x463 JUMPI PUSH1 0x40 MLOAD PUSH32 0x30CD747100000000000000000000000000000000000000000000000000000000 DUP2 MSTORE PUSH1 0x4 ADD PUSH1 0x40 MLOAD DUP1 SWAP2 SUB SWAP1 REVERT JUMPDEST PUSH0 PUSH20 0xFFFFFFFFFFFFFFFFFFFFFFFFFFFFFFFFFFFFFFFF AND DUP2 PUSH20 0xFFFFFFFFFFFFFFFFFFFFFFFFFFFFFFFFFFFFFFFF AND SUB PUSH2 0x4D1 JUMPI PUSH1 0x40 MLOAD PUSH32 0x8C379A000000000000000000000000000000000000000000000000000000000 DUP2 MSTORE PUSH1 0x4 ADD PUSH2 0x4C8 SWAP1 PUSH2 0x1DD9 JUMP JUMPDEST PUSH1 0x40 MLOAD DUP1 SWAP2 SUB SWAP1 REVERT JUMPDEST PUSH0 PUSH0 PUSH0 SWAP1 SLOAD SWAP1 PUSH2 0x100 EXP SWAP1 DIV PUSH20 0xFFFFFFFFFFFFFFFFFFFFFFFFFFFFFFFFFFFFFFFF AND SWAP1 POP DUP2 PUSH0 PUSH0 PUSH2 0x100 EXP DUP2 SLOAD DUP2 PUSH20 0xFFFFFFFFFFFFFFFFFFFFFFFFFFFFFFFFFFFFFFFF MUL NOT AND SWAP1 DUP4 PUSH20 0xFFFFFFFFFFFFFFFFFFFFFFFFFFFFFFFFFFFFFFFF AND MUL OR SWAP1 SSTORE POP DUP2 PUSH20 0xFFFFFFFFFFFFFFFFFFFFFFFFFFFFFFFFFFFFFFFF AND DUP2 PUSH20 0xFFFFFFFFFFFFFFFFFFFFFFFFFFFFFFFFFFFFFFFF AND PUSH32 0xB532073B38C83145E3E5135377A08BF9AAB55BC0FD7C1179CD4FB995D2A5159C PUSH1 0x40 MLOAD PUSH1 0x40 MLOAD DUP1 SWAP2 SUB SWAP1 LOG3 POP POP JUMP JUMPDEST PUSH1 0x1 SLOAD DUP2 JUMP JUMPDEST PUSH1 0x2 PUSH0 SWAP1 SLOAD SWAP1 PUSH2 0x100 EXP SWAP1 DIV PUSH1 0xFF AND ISZERO PUSH2 0x5DE JUMPI PUSH1 0x40 MLOAD PUSH32 0xED3BA6A600000000000000000000000000000000000000000000000000000000 DUP2 MSTORE PUSH1 0x4 ADD PUSH1 0x40 MLOAD DUP1 SWAP2 SUB SWAP1 REVERT JUMPDEST PUSH1 0x1 PUSH1 0x2 PUSH0 PUSH2 0x100 EXP DUP2 SLOAD DUP2 PUSH1 0xFF MUL NOT AND SWAP1 DUP4 ISZERO ISZERO MUL OR SWAP1 SSTORE POP PUSH0 DUP3 SUB PUSH2 0x631 JUMPI PUSH1 0x40 MLOAD PUSH32 0x1F2A200500000000000000000000000000000000000000000000000000000000 DUP2 MSTORE PUSH1 0x4 ADD PUSH1 0x40 MLOAD DUP1 SWAP2 SUB SWAP1 REVERT JUMPDEST PUSH0 PUSH20 0xFFFFFFFFFFFFFFFFFFFFFFFFFFFFFFFFFFFFFFFF AND DUP4 PUSH20 0xFFFFFFFFFFFFFFFFFFFFFFFFFFFFFFFFFFFFFFFF AND EQ DUP1 PUSH2 0x6B6 JUMPI POP PUSH32 0x0 PUSH20 0xFFFFFFFFFFFFFFFFFFFFFFFFFFFFFFFFFFFFFFFF AND DUP4 PUSH20 0xFFFFFFFFFFFFFFFFFFFFFFFFFFFFFFFFFFFFFFFF AND EQ JUMPDEST ISZERO PUSH2 0x6ED JUMPI PUSH1 0x40 MLOAD PUSH32 0x20DB826700000000000000000000000000000000000000000000000000000000 DUP2 MSTORE PUSH1 0x4 ADD PUSH1 0x40 MLOAD DUP1 SWAP2 SUB SWAP1 REVERT JUMPDEST PUSH0 DUP4 PUSH20 0xFFFFFFFFFFFFFFFFFFFFFFFFFFFFFFFFFFFFFFFF AND PUSH4 0x23B872DD CALLER ADDRESS DUP7 PUSH1 0x40 MLOAD DUP5 PUSH4 0xFFFFFFFF AND PUSH1 0xE0 SHL DUP2 MSTORE PUSH1 0x4 ADD PUSH2 0x72B SWAP4 SWAP3 SWAP2 SWAP1 PUSH2 0x1DF7 JUMP JUMPDEST PUSH1 0x20 PUSH1 0x40 MLOAD DUP1 DUP4 SUB DUP2 PUSH0 DUP8 GAS CALL ISZERO DUP1 ISZERO PUSH2 0x747 JUMPI RETURNDATASIZE PUSH0 PUSH0 RETURNDATACOPY RETURNDATASIZE PUSH0 REVERT JUMPDEST POP POP POP POP PUSH1 0x40 MLOAD RETURNDATASIZE PUSH1 0x1F NOT PUSH1 0x1F DUP3 ADD AND DUP3 ADD DUP1 PUSH1 0x40 MSTORE POP DUP2 ADD SWAP1 PUSH2 0x76B SWAP2 SWAP1 PUSH2 0x1E61 JUMP JUMPDEST SWAP1 POP DUP1 PUSH2 0x7A4 JUMPI PUSH1 0x40 MLOAD PUSH32 0x81CEFF3000000000000000000000000000000000000000000000000000000000 DUP2 MSTORE PUSH1 0x4 ADD PUSH1 0x40 MLOAD DUP1 SWAP2 SUB SWAP1 REVERT JUMPDEST PUSH2 0x7CF DUP5 PUSH32 0x0 DUP6 PUSH2 0x194C JUMP JUMPDEST PUSH0 PUSH1 0x2 PUSH8 0xFFFFFFFFFFFFFFFF DUP2 GT ISZERO PUSH2 0x7EB JUMPI PUSH2 0x7EA PUSH2 0x1E8C JUMP JUMPDEST JUMPDEST PUSH1 0x40 MLOAD SWAP1 DUP1 DUP3 MSTORE DUP1 PUSH1 0x20 MUL PUSH1 0x20 ADD DUP3 ADD PUSH1 0x40 MSTORE DUP1 ISZERO PUSH2 0x819 JUMPI DUP2 PUSH1 0x20 ADD PUSH1 0x20 DUP3 MUL DUP1 CALLDATASIZE DUP4 CALLDATACOPY DUP1 DUP3 ADD SWAP2 POP POP SWAP1 POP JUMPDEST POP SWAP1 POP DUP5 DUP2 PUSH0 DUP2 MLOAD DUP2 LT PUSH2 0x830 JUMPI PUSH2 0x82F PUSH2 0x1EB9 JUMP JUMPDEST JUMPDEST PUSH1 0x20 MUL PUSH1 0x20 ADD ADD SWAP1 PUSH20 0xFFFFFFFFFFFFFFFFFFFFFFFFFFFFFFFFFFFFFFFF AND SWAP1 DUP2 PUSH20 0xFFFFFFFFFFFFFFFFFFFFFFFFFFFFFFFFFFFFFFFF AND DUP2 MSTORE POP POP PUSH32 0x0 DUP2 PUSH1 0x1 DUP2 MLOAD DUP2 LT PUSH2 0x89F JUMPI PUSH2 0x89E PUSH2 0x1EB9 JUMP JUMPDEST JUMPDEST PUSH1 0x20 MUL PUSH1 0x20 ADD ADD SWAP1 PUSH20 0xFFFFFFFFFFFFFFFFFFFFFFFFFFFFFFFFFFFFFFFF AND SWAP1 DUP2 PUSH20 0xFFFFFFFFFFFFFFFFFFFFFFFFFFFFFFFFFFFFFFFF AND DUP2 MSTORE POP POP PUSH0 PUSH2 0x12C TIMESTAMP PUSH2 0x8E8 SWAP2 SWAP1 PUSH2 0x1F13 JUMP JUMPDEST SWAP1 POP PUSH0 PUSH32 0x0 PUSH20 0xFFFFFFFFFFFFFFFFFFFFFFFFFFFFFFFFFFFFFFFF AND PUSH4 0x38ED1739 DUP8 DUP8 DUP7 ADDRESS DUP8 PUSH1 0x40 MLOAD DUP7 PUSH4 0xFFFFFFFF AND PUSH1 0xE0 SHL DUP2 MSTORE PUSH1 0x4 ADD PUSH2 0x94C SWAP6 SWAP5 SWAP4 SWAP3 SWAP2 SWAP1 PUSH2 0x1FFD JUMP JUMPDEST PUSH0 PUSH1 0x40 MLOAD DUP1 DUP4 SUB DUP2 PUSH0 DUP8 GAS CALL ISZERO DUP1 ISZERO PUSH2 0x967 JUMPI RETURNDATASIZE PUSH0 PUSH0 RETURNDATACOPY RETURNDATASIZE PUSH0 REVERT JUMPDEST POP POP POP POP PUSH1 0x40 MLOAD RETURNDATASIZE PUSH0 DUP3 RETURNDATACOPY RETURNDATASIZE PUSH1 0x1F NOT PUSH1 0x1F DUP3 ADD AND DUP3 ADD DUP1 PUSH1 0x40 MSTORE POP DUP2 ADD SWAP1 PUSH2 0x98F SWAP2 SWAP1 PUSH2 0x218C JUMP JUMPDEST SWAP1 POP PUSH1 0x2 DUP2 MLOAD LT ISZERO PUSH2 0x9CD JUMPI PUSH1 0x40 MLOAD PUSH32 0x81CEFF3000000000000000000000000000000000000000000000000000000000 DUP2 MSTORE PUSH1 0x4 ADD PUSH1 0x40 MLOAD DUP1 SWAP2 SUB SWAP1 REVERT JUMPDEST PUSH0 DUP2 PUSH1 0x1 DUP4 MLOAD PUSH2 0x9DD SWAP2 SWAP1 PUSH2 0x21D3 JUMP JUMPDEST DUP2 MLOAD DUP2 LT PUSH2 0x9EE JUMPI PUSH2 0x9ED PUSH2 0x1EB9 JUMP JUMPDEST JUMPDEST PUSH1 0x20 MUL PUSH1 0x20 ADD ADD MLOAD SWAP1 POP PUSH32 0x0 DUP2 PUSH1 0x1 SLOAD PUSH2 0xA27 SWAP2 SWAP1 PUSH2 0x1F13 JUMP JUMPDEST GT ISZERO PUSH2 0xB2C JUMPI PUSH32 0x0 PUSH20 0xFFFFFFFFFFFFFFFFFFFFFFFFFFFFFFFFFFFFFFFF AND PUSH4 0xA9059CBB CALLER DUP4 PUSH1 0x40 MLOAD DUP4 PUSH4 0xFFFFFFFF AND PUSH1 0xE0 SHL DUP2 MSTORE PUSH1 0x4 ADD PUSH2 0xA88 SWAP3 SWAP2 SWAP1 PUSH2 0x2206 JUMP JUMPDEST PUSH1 0x20 PUSH1 0x40 MLOAD DUP1 DUP4 SUB DUP2 PUSH0 DUP8 GAS CALL ISZERO DUP1 ISZERO PUSH2 0xAA4 JUMPI RETURNDATASIZE PUSH0 PUSH0 RETURNDATACOPY RETURNDATASIZE PUSH0 REVERT JUMPDEST POP POP POP POP PUSH1 0x40 MLOAD RETURNDATASIZE PUSH1 0x1F NOT PUSH1 0x1F DUP3 ADD AND DUP3 ADD DUP1 PUSH1 0x40 MSTORE POP DUP2 ADD SWAP1 PUSH2 0xAC8 SWAP2 SWAP1 PUSH2 0x1E61 JUMP JUMPDEST POP DUP1 PUSH1 0x1 SLOAD PUSH32 0x0 PUSH1 0x40 MLOAD PUSH32 0x621E5A6900000000000000000000000000000000000000000000000000000000 DUP2 MSTORE PUSH1 0x4 ADD PUSH2 0xB23 SWAP4 SWAP3 SWAP2 SWAP1 PUSH2 0x222D JUMP JUMPDEST PUSH1 0x40 MLOAD DUP1 SWAP2 SUB SWAP1 REVERT JUMPDEST DUP1 PUSH1 0x1 PUSH0 DUP3 DUP3 SLOAD PUSH2 0xB3D SWAP2 SWAP1 PUSH2 0x1F13 JUMP JUMPDEST SWAP3 POP POP DUP2 SWAP1 SSTORE POP DUP1 PUSH1 0x3 PUSH0 CALLER PUSH20 0xFFFFFFFFFFFFFFFFFFFFFFFFFFFFFFFFFFFFFFFF AND PUSH20 0xFFFFFFFFFFFFFFFFFFFFFFFFFFFFFFFFFFFFFFFF AND DUP2 MSTORE PUSH1 0x20 ADD SWAP1 DUP2 MSTORE PUSH1 0x20 ADD PUSH0 KECCAK256 PUSH0 DUP3 DUP3 SLOAD PUSH2 0xB90 SWAP2 SWAP1 PUSH2 0x1F13 JUMP JUMPDEST SWAP3 POP POP DUP2 SWAP1 SSTORE POP DUP8 PUSH20 0xFFFFFFFFFFFFFFFFFFFFFFFFFFFFFFFFFFFFFFFF AND CALLER PUSH20 0xFFFFFFFFFFFFFFFFFFFFFFFFFFFFFFFFFFFFFFFF AND PUSH32 0xAB466672CD9ADAE1C2072831F94C1068597B355987D2A64D4E5A7DCD74E5CDA5 DUP10 DUP5 PUSH1 0x40 MLOAD PUSH2 0xBF6 SWAP3 SWAP2 SWAP1 PUSH2 0x2262 JUMP JUMPDEST PUSH1 0x40 MLOAD DUP1 SWAP2 SUB SWAP1 LOG3 POP POP POP POP POP PUSH0 PUSH1 0x2 PUSH0 PUSH2 0x100 EXP DUP2 SLOAD DUP2 PUSH1 0xFF MUL NOT AND SWAP1 DUP4 ISZERO ISZERO MUL OR SWAP1 SSTORE POP POP POP POP JUMP JUMPDEST PUSH1 0x2 PUSH0 SWAP1 SLOAD SWAP1 PUSH2 0x100 EXP SWAP1 DIV PUSH1 0xFF AND ISZERO PUSH2 0xC67 JUMPI PUSH1 0x40 MLOAD PUSH32 0xED3BA6A600000000000000000000000000000000000000000000000000000000 DUP2 MSTORE PUSH1 0x4 ADD PUSH1 0x40 MLOAD DUP1 SWAP2 SUB SWAP1 REVERT JUMPDEST PUSH1 0x1 PUSH1 0x2 PUSH0 PUSH2 0x100 EXP DUP2 SLOAD DUP2 PUSH1 0xFF MUL NOT AND SWAP1 DUP4 ISZERO ISZERO MUL OR SWAP1 SSTORE POP PUSH0 CALLVALUE SUB PUSH2 0xCBA JUMPI PUSH1 0x40 MLOAD PUSH32 0x1F2A200500000000000000000000000000000000000000000000000000000000 DUP2 MSTORE PUSH1 0x4 ADD PUSH1 0x40 MLOAD DUP1 SWAP2 SUB SWAP1 REVERT JUMPDEST PUSH32 0x0 PUSH20 0xFFFFFFFFFFFFFFFFFFFFFFFFFFFFFFFFFFFFFFFF AND PUSH4 0xD0E30DB0 CALLVALUE PUSH1 0x40 MLOAD DUP3 PUSH4 0xFFFFFFFF AND PUSH1 0xE0 SHL DUP2 MSTORE PUSH1 0x4 ADD PUSH0 PUSH1 0x40 MLOAD DUP1 DUP4 SUB DUP2 DUP6 DUP9 DUP1 EXTCODESIZE ISZERO DUP1 ISZERO PUSH2 0xD20 JUMPI PUSH0 PUSH0 REVERT JUMPDEST POP GAS CALL ISZERO DUP1 ISZERO PUSH2 0xD32 JUMPI RETURNDATASIZE PUSH0 PUSH0 RETURNDATACOPY RETURNDATASIZE PUSH0 REVERT JUMPDEST POP POP POP POP POP PUSH2 0xD82 PUSH32 0x0 PUSH32 0x0 CALLVALUE PUSH2 0x194C JUMP JUMPDEST PUSH0 PUSH1 0x2 PUSH8 0xFFFFFFFFFFFFFFFF DUP2 GT ISZERO PUSH2 0xD9E JUMPI PUSH2 0xD9D PUSH2 0x1E8C JUMP JUMPDEST JUMPDEST PUSH1 0x40 MLOAD SWAP1 DUP1 DUP3 MSTORE DUP1 PUSH1 0x20 MUL PUSH1 0x20 ADD DUP3 ADD PUSH1 0x40 MSTORE DUP1 ISZERO PUSH2 0xDCC JUMPI DUP2 PUSH1 0x20 ADD PUSH1 0x20 DUP3 MUL DUP1 CALLDATASIZE DUP4 CALLDATACOPY DUP1 DUP3 ADD SWAP2 POP POP SWAP1 POP JUMPDEST POP SWAP1 POP PUSH32 0x0 DUP2 PUSH0 DUP2 MLOAD DUP2 LT PUSH2 0xE03 JUMPI PUSH2 0xE02 PUSH2 0x1EB9 JUMP JUMPDEST JUMPDEST PUSH1 0x20 MUL PUSH1 0x20 ADD ADD SWAP1 PUSH20 0xFFFFFFFFFFFFFFFFFFFFFFFFFFFFFFFFFFFFFFFF AND SWAP1 DUP2 PUSH20 0xFFFFFFFFFFFFFFFFFFFFFFFFFFFFFFFFFFFFFFFF AND DUP2 MSTORE POP POP PUSH32 0x0 DUP2 PUSH1 0x1 DUP2 MLOAD DUP2 LT PUSH2 0xE72 JUMPI PUSH2 0xE71 PUSH2 0x1EB9 JUMP JUMPDEST JUMPDEST PUSH1 0x20 MUL PUSH1 0x20 ADD ADD SWAP1 PUSH20 0xFFFFFFFFFFFFFFFFFFFFFFFFFFFFFFFFFFFFFFFF AND SWAP1 DUP2 PUSH20 0xFFFFFFFFFFFFFFFFFFFFFFFFFFFFFFFFFFFFFFFF AND DUP2 MSTORE POP POP PUSH0 PUSH2 0x12C TIMESTAMP PUSH2 0xEBB SWAP2 SWAP1 PUSH2 0x1F13 JUMP JUMPDEST SWAP1 POP PUSH0 PUSH32 0x0 PUSH20 0xFFFFFFFFFFFFFFFFFFFFFFFFFFFFFFFFFFFFFFFF AND PUSH4 0x38ED1739 CALLVALUE DUP7 DUP7 ADDRESS DUP8 PUSH1 0x40 MLOAD DUP7 PUSH4 0xFFFFFFFF AND PUSH1 0xE0 SHL DUP2 MSTORE PUSH1 0x4 ADD PUSH2 0xF1F SWAP6 SWAP5 SWAP4 SWAP3 SWAP2 SWAP1 PUSH2 0x1FFD JUMP JUMPDEST PUSH0 PUSH1 0x40 MLOAD DUP1 DUP4 SUB DUP2 PUSH0 DUP8 GAS CALL ISZERO DUP1 ISZERO PUSH2 0xF3A JUMPI RETURNDATASIZE PUSH0 PUSH0 RETURNDATACOPY RETURNDATASIZE PUSH0 REVERT JUMPDEST POP POP POP POP PUSH1 0x40 MLOAD RETURNDATASIZE PUSH0 DUP3 RETURNDATACOPY RETURNDATASIZE PUSH1 0x1F NOT PUSH1 0x1F DUP3 ADD AND DUP3 ADD DUP1 PUSH1 0x40 MSTORE POP DUP2 ADD SWAP1 PUSH2 0xF62 SWAP2 SWAP1 PUSH2 0x218C JUMP JUMPDEST SWAP1 POP PUSH1 0x2 DUP2 MLOAD LT ISZERO PUSH2 0xFA0 JUMPI PUSH1 0x40 MLOAD PUSH32 0x81CEFF3000000000000000000000000000000000000000000000000000000000 DUP2 MSTORE PUSH1 0x4 ADD PUSH1 0x40 MLOAD DUP1 SWAP2 SUB SWAP1 REVERT JUMPDEST PUSH0 DUP2 PUSH1 0x1 DUP4 MLOAD PUSH2 0xFB0 SWAP2 SWAP1 PUSH2 0x21D3 JUMP JUMPDEST DUP2 MLOAD DUP2 LT PUSH2 0xFC1 JUMPI PUSH2 0xFC0 PUSH2 0x1EB9 JUMP JUMPDEST JUMPDEST PUSH1 0x20 MUL PUSH1 0x20 ADD ADD MLOAD SWAP1 POP PUSH32 0x0 DUP2 PUSH1 0x1 SLOAD PUSH2 0xFFA SWAP2 SWAP1 PUSH2 0x1F13 JUMP JUMPDEST GT ISZERO PUSH2 0x10FF JUMPI PUSH32 0x0 PUSH20 0xFFFFFFFFFFFFFFFFFFFFFFFFFFFFFFFFFFFFFFFF AND PUSH4 0xA9059CBB CALLER DUP4 PUSH1 0x40 MLOAD DUP4 PUSH4 0xFFFFFFFF AND PUSH1 0xE0 SHL DUP2 MSTORE PUSH1 0x4 ADD PUSH2 0x105B SWAP3 SWAP2 SWAP1 PUSH2 0x2206 JUMP JUMPDEST PUSH1 0x20 PUSH1 0x40 MLOAD DUP1 DUP4 SUB DUP2 PUSH0 DUP8 GAS CALL ISZERO DUP1 ISZERO PUSH2 0x1077 JUMPI RETURNDATASIZE PUSH0 PUSH0 RETURNDATACOPY RETURNDATASIZE PUSH0 REVERT JUMPDEST POP POP POP POP PUSH1 0x40 MLOAD RETURNDATASIZE PUSH1 0x1F NOT PUSH1 0x1F DUP3 ADD AND DUP3 ADD DUP1 PUSH1 0x40 MSTORE POP DUP2 ADD SWAP1 PUSH2 0x109B SWAP2 SWAP1 PUSH2 0x1E61 JUMP JUMPDEST POP DUP1 PUSH1 0x1 SLOAD PUSH32 0x0 PUSH1 0x40 MLOAD PUSH32 0x621E5A6900000000000000000000000000000000000000000000000000000000 DUP2 MSTORE PUSH1 0x4 ADD PUSH2 0x10F6 SWAP4 SWAP3 SWAP2 SWAP1 PUSH2 0x222D JUMP JUMPDEST PUSH1 0x40 MLOAD DUP1 SWAP2 SUB SWAP1 REVERT JUMPDEST DUP1 PUSH1 0x1 PUSH0 DUP3 DUP3 SLOAD PUSH2 0x1110 SWAP2 SWAP1 PUSH2 0x1F13 JUMP JUMPDEST SWAP3 POP POP DUP2 SWAP1 SSTORE POP DUP1 PUSH1 0x3 PUSH0 CALLER PUSH20 0xFFFFFFFFFFFFFFFFFFFFFFFFFFFFFFFFFFFFFFFF AND PUSH20 0xFFFFFFFFFFFFFFFFFFFFFFFFFFFFFFFFFFFFFFFF AND DUP2 MSTORE PUSH1 0x20 ADD SWAP1 DUP2 MSTORE PUSH1 0x20 ADD PUSH0 KECCAK256 PUSH0 DUP3 DUP3 SLOAD PUSH2 0x1163 SWAP2 SWAP1 PUSH2 0x1F13 JUMP JUMPDEST SWAP3 POP POP DUP2 SWAP1 SSTORE POP PUSH32 0x0 PUSH20 0xFFFFFFFFFFFFFFFFFFFFFFFFFFFFFFFFFFFFFFFF AND CALLER PUSH20 0xFFFFFFFFFFFFFFFFFFFFFFFFFFFFFFFFFFFFFFFF AND PUSH32 0xAB466672CD9ADAE1C2072831F94C1068597B355987D2A64D4E5A7DCD74E5CDA5 CALLVALUE DUP5 PUSH1 0x40 MLOAD PUSH2 0x11E9 SWAP3 SWAP2 SWAP1 PUSH2 0x2262 JUMP JUMPDEST PUSH1 0x40 MLOAD DUP1 SWAP2 SUB SWAP1 LOG3 POP POP POP POP PUSH0 PUSH1 0x2 PUSH0 PUSH2 0x100 EXP DUP2 SLOAD DUP2 PUSH1 0xFF MUL NOT AND SWAP1 DUP4 ISZERO ISZERO MUL OR SWAP1 SSTORE POP POP JUMP JUMPDEST PUSH32 0x0 DUP2 JUMP JUMPDEST PUSH0 PUSH0 SWAP1 SLOAD SWAP1 PUSH2 0x100 EXP SWAP1 DIV PUSH20 0xFFFFFFFFFFFFFFFFFFFFFFFFFFFFFFFFFFFFFFFF AND DUP2 JUMP JUMPDEST PUSH32 0x0 DUP2 JUMP JUMPDEST PUSH32 0x0 DUP2 JUMP JUMPDEST PUSH0 PUSH1 0x3 PUSH0 DUP4 PUSH20 0xFFFFFFFFFFFFFFFFFFFFFFFFFFFFFFFFFFFFFFFF AND PUSH20 0xFFFFFFFFFFFFFFFFFFFFFFFFFFFFFFFFFFFFFFFF AND DUP2 MSTORE PUSH1 0x20 ADD SWAP1 DUP2 MSTORE PUSH1 0x20 ADD PUSH0 KECCAK256 SLOAD SWAP1 POP SWAP2 SWAP1 POP JUMP JUMPDEST PUSH1 0x2 PUSH0 SWAP1 SLOAD SWAP1 PUSH2 0x100 EXP SWAP1 DIV PUSH1 0xFF AND ISZERO PUSH2 0x132D JUMPI PUSH1 0x40 MLOAD PUSH32 0xED3BA6A600000000000000000000000000000000000000000000000000000000 DUP2 MSTORE PUSH1 0x4 ADD PUSH1 0x40 MLOAD DUP1 SWAP2 SUB SWAP1 REVERT JUMPDEST PUSH1 0x1 PUSH1 0x2 PUSH0 PUSH2 0x100 EXP DUP2 SLOAD DUP2 PUSH1 0xFF MUL NOT AND SWAP1 DUP4 ISZERO ISZERO MUL OR SWAP1 SSTORE POP PUSH0 DUP2 SUB PUSH2 0x1380 JUMPI PUSH1 0x40 MLOAD PUSH32 0x1F2A200500000000000000000000000000000000000000000000000000000000 DUP2 MSTORE PUSH1 0x4 ADD PUSH1 0x40 MLOAD DUP1 SWAP2 SUB SWAP1 REVERT JUMPDEST PUSH0 PUSH1 0x3 PUSH0 CALLER PUSH20 0xFFFFFFFFFFFFFFFFFFFFFFFFFFFFFFFFFFFFFFFF AND PUSH20 0xFFFFFFFFFFFFFFFFFFFFFFFFFFFFFFFFFFFFFFFF AND DUP2 MSTORE PUSH1 0x20 ADD SWAP1 DUP2 MSTORE PUSH1 0x20 ADD PUSH0 KECCAK256 SLOAD SWAP1 POP DUP1 DUP3 GT ISZERO PUSH2 0x1408 JUMPI DUP1 DUP3 PUSH1 0x40 MLOAD PUSH32 0xCF47918100000000000000000000000000000000000000000000000000000000 DUP2 MSTORE PUSH1 0x4 ADD PUSH2 0x13FF SWAP3 SWAP2 SWAP1 PUSH2 0x2262 JUMP JUMPDEST PUSH1 0x40 MLOAD DUP1 SWAP2 SUB SWAP1 REVERT JUMPDEST DUP2 DUP2 PUSH2 0x1414 SWAP2 SWAP1 PUSH2 0x21D3 JUMP JUMPDEST PUSH1 0x3 PUSH0 CALLER PUSH20 0xFFFFFFFFFFFFFFFFFFFFFFFFFFFFFFFFFFFFFFFF AND PUSH20 0xFFFFFFFFFFFFFFFFFFFFFFFFFFFFFFFFFFFFFFFF AND DUP2 MSTORE PUSH1 0x20 ADD SWAP1 DUP2 MSTORE PUSH1 0x20 ADD PUSH0 KECCAK256 DUP2 SWAP1 SSTORE POP DUP2 PUSH1 0x1 PUSH0 DUP3 DUP3 SLOAD PUSH2 0x1466 SWAP2 SWAP1 PUSH2 0x21D3 JUMP JUMPDEST SWAP3 POP POP DUP2 SWAP1 SSTORE POP PUSH0 PUSH32 0x0 PUSH20 0xFFFFFFFFFFFFFFFFFFFFFFFFFFFFFFFFFFFFFFFF AND PUSH4 0xA9059CBB CALLER DUP6 PUSH1 0x40 MLOAD DUP4 PUSH4 0xFFFFFFFF AND PUSH1 0xE0 SHL DUP2 MSTORE PUSH1 0x4 ADD PUSH2 0x14C9 SWAP3 SWAP2 SWAP1 PUSH2 0x2206 JUMP JUMPDEST PUSH1 0x20 PUSH1 0x40 MLOAD DUP1 DUP4 SUB DUP2 PUSH0 DUP8 GAS CALL ISZERO DUP1 ISZERO PUSH2 0x14E5 JUMPI RETURNDATASIZE PUSH0 PUSH0 RETURNDATACOPY RETURNDATASIZE PUSH0 REVERT JUMPDEST POP POP POP POP PUSH1 0x40 MLOAD RETURNDATASIZE PUSH1 0x1F NOT PUSH1 0x1F DUP3 ADD AND DUP3 ADD DUP1 PUSH1 0x40 MSTORE POP DUP2 ADD SWAP1 PUSH2 0x1509 SWAP2 SWAP1 PUSH2 0x1E61 JUMP JUMPDEST SWAP1 POP DUP1 PUSH2 0x1542 JUMPI PUSH1 0x40 MLOAD PUSH32 0x81CEFF3000000000000000000000000000000000000000000000000000000000 DUP2 MSTORE PUSH1 0x4 ADD PUSH1 0x40 MLOAD DUP1 SWAP2 SUB SWAP1 REVERT JUMPDEST CALLER PUSH20 0xFFFFFFFFFFFFFFFFFFFFFFFFFFFFFFFFFFFFFFFF AND PUSH32 0x23EE1B877CB0081138B4973C5B2ECA0133C573AD526550935D83AAADE37666CA DUP5 PUSH1 0x40 MLOAD PUSH2 0x1588 SWAP2 SWAP1 PUSH2 0x1C3E JUMP JUMPDEST PUSH1 0x40 MLOAD DUP1 SWAP2 SUB SWAP1 LOG2 POP POP PUSH0 PUSH1 0x2 PUSH0 PUSH2 0x100 EXP DUP2 SLOAD DUP2 PUSH1 0xFF MUL NOT AND SWAP1 DUP4 ISZERO ISZERO MUL OR SWAP1 SSTORE POP POP JUMP JUMPDEST PUSH1 0x2 PUSH0 SWAP1 SLOAD SWAP1 PUSH2 0x100 EXP SWAP1 DIV PUSH1 0xFF AND ISZERO PUSH2 0x15F4 JUMPI PUSH1 0x40 MLOAD PUSH32 0xED3BA6A600000000000000000000000000000000000000000000000000000000 DUP2 MSTORE PUSH1 0x4 ADD PUSH1 0x40 MLOAD DUP1 SWAP2 SUB SWAP1 REVERT JUMPDEST PUSH1 0x1 PUSH1 0x2 PUSH0 PUSH2 0x100 EXP DUP2 SLOAD DUP2 PUSH1 0xFF MUL NOT AND SWAP1 DUP4 ISZERO ISZERO MUL OR SWAP1 SSTORE POP PUSH0 DUP2 SUB PUSH2 0x1647 JUMPI PUSH1 0x40 MLOAD PUSH32 0x1F2A200500000000000000000000000000000000000000000000000000000000 DUP2 MSTORE PUSH1 0x4 ADD PUSH1 0x40 MLOAD DUP1 SWAP2 SUB SWAP1 REVERT JUMPDEST PUSH0 PUSH32 0x0 PUSH20 0xFFFFFFFFFFFFFFFFFFFFFFFFFFFFFFFFFFFFFFFF AND PUSH4 0x23B872DD CALLER ADDRESS DUP6 PUSH1 0x40 MLOAD DUP5 PUSH4 0xFFFFFFFF AND PUSH1 0xE0 SHL DUP2 MSTORE PUSH1 0x4 ADD PUSH2 0x16A5 SWAP4 SWAP3 SWAP2 SWAP1 PUSH2 0x1DF7 JUMP JUMPDEST PUSH1 0x20 PUSH1 0x40 MLOAD DUP1 DUP4 SUB DUP2 PUSH0 DUP8 GAS CALL ISZERO DUP1 ISZERO PUSH2 0x16C1 JUMPI RETURNDATASIZE PUSH0 PUSH0 RETURNDATACOPY RETURNDATASIZE PUSH0 REVERT JUMPDEST POP POP POP POP PUSH1 0x40 MLOAD RETURNDATASIZE PUSH1 0x1F NOT PUSH1 0x1F DUP3 ADD AND DUP3 ADD DUP1 PUSH1 0x40 MSTORE POP DUP2 ADD SWAP1 PUSH2 0x16E5 SWAP2 SWAP1 PUSH2 0x1E61 JUMP JUMPDEST SWAP1 POP DUP1 PUSH2 0x171E JUMPI PUSH1 0x40 MLOAD PUSH32 0x81CEFF3000000000000000000000000000000000000000000000000000000000 DUP2 MSTORE PUSH1 0x4 ADD PUSH1 0x40 MLOAD DUP1 SWAP2 SUB SWAP1 REVERT JUMPDEST PUSH32 0x0 DUP3 PUSH1 0x1 SLOAD PUSH2 0x174D SWAP2 SWAP1 PUSH2 0x1F13 JUMP JUMPDEST GT ISZERO PUSH2 0x1852 JUMPI PUSH32 0x0 PUSH20 0xFFFFFFFFFFFFFFFFFFFFFFFFFFFFFFFFFFFFFFFF AND PUSH4 0xA9059CBB CALLER DUP5 PUSH1 0x40 MLOAD DUP4 PUSH4 0xFFFFFFFF AND PUSH1 0xE0 SHL DUP2 MSTORE PUSH1 0x4 ADD PUSH2 0x17AE SWAP3 SWAP2 SWAP1 PUSH2 0x2206 JUMP JUMPDEST PUSH1 0x20 PUSH1 0x40 MLOAD DUP1 DUP4 SUB DUP2 PUSH0 DUP8 GAS CALL ISZERO DUP1 ISZERO PUSH2 0x17CA JUMPI RETURNDATASIZE PUSH0 PUSH0 RETURNDATACOPY RETURNDATASIZE PUSH0 REVERT JUMPDEST POP POP POP POP PUSH1 0x40 MLOAD RETURNDATASIZE PUSH1 0x1F NOT PUSH1 0x1F DUP3 ADD AND DUP3 ADD DUP1 PUSH1 0x40 MSTORE POP DUP2 ADD SWAP1 PUSH2 0x17EE SWAP2 SWAP1 PUSH2 0x1E61 JUMP JUMPDEST POP DUP2 PUSH1 0x1 SLOAD PUSH32 0x0 PUSH1 0x40 MLOAD PUSH32 0x621E5A6900000000000000000000000000000000000000000000000000000000 DUP2 MSTORE PUSH1 0x4 ADD PUSH2 0x1849 SWAP4 SWAP3 SWAP2 SWAP1 PUSH2 0x222D JUMP JUMPDEST PUSH1 0x40 MLOAD DUP1 SWAP2 SUB SWAP1 REVERT JUMPDEST DUP2 PUSH1 0x1 PUSH0 DUP3 DUP3 SLOAD PUSH2 0x1863 SWAP2 SWAP1 PUSH2 0x1F13 JUMP JUMPDEST SWAP3 POP POP DUP2 SWAP1 SSTORE POP DUP2 PUSH1 0x3 PUSH0 CALLER PUSH20 0xFFFFFFFFFFFFFFFFFFFFFFFFFFFFFFFFFFFFFFFF AND PUSH20 0xFFFFFFFFFFFFFFFFFFFFFFFFFFFFFFFFFFFFFFFF AND DUP2 MSTORE PUSH1 0x20 ADD SWAP1 DUP2 MSTORE PUSH1 0x20 ADD PUSH0 KECCAK256 PUSH0 DUP3 DUP3 SLOAD PUSH2 0x18B6 SWAP2 SWAP1 PUSH2 0x1F13 JUMP JUMPDEST SWAP3 POP POP DUP2 SWAP1 SSTORE POP CALLER PUSH20 0xFFFFFFFFFFFFFFFFFFFFFFFFFFFFFFFFFFFFFFFF AND PUSH32 0xE7440F6772025DEC9BE06BA934E6EE5289B73533EE2136BA668F6CB6EA3F56A8 DUP4 PUSH1 0x40 MLOAD PUSH2 0x1903 SWAP2 SWAP1 PUSH2 0x1C3E JUMP JUMPDEST PUSH1 0x40 MLOAD DUP1 SWAP2 SUB SWAP1 LOG2 POP PUSH0 PUSH1 0x2 PUSH0 PUSH2 0x100 EXP DUP2 SLOAD DUP2 PUSH1 0xFF MUL NOT AND SWAP1 DUP4 ISZERO ISZERO MUL OR SWAP1 SSTORE POP POP JUMP JUMPDEST PUSH32 0x0 DUP2 JUMP JUMPDEST DUP3 PUSH20 0xFFFFFFFFFFFFFFFFFFFFFFFFFFFFFFFFFFFFFFFF AND PUSH4 0x95EA7B3 DUP4 PUSH0 PUSH1 0x40 MLOAD DUP4 PUSH4 0xFFFFFFFF AND PUSH1 0xE0 SHL DUP2 MSTORE PUSH1 0x4 ADD PUSH2 0x1987 SWAP3 SWAP2 SWAP1 PUSH2 0x22B9 JUMP JUMPDEST PUSH1 0x20 PUSH1 0x40 MLOAD DUP1 DUP4 SUB DUP2 PUSH0 DUP8 GAS CALL ISZERO DUP1 ISZERO PUSH2 0x19A3 JUMPI RETURNDATASIZE PUSH0 PUSH0 RETURNDATACOPY RETURNDATASIZE PUSH0 REVERT JUMPDEST POP POP POP POP PUSH1 0x40 MLOAD RETURNDATASIZE PUSH1 0x1F NOT PUSH1 0x1F DUP3 ADD AND DUP3 ADD DUP1 PUSH1 0x40 MSTORE POP DUP2 ADD SWAP1 PUSH2 0x19C7 SWAP2 SWAP1 PUSH2 0x1E61 JUMP JUMPDEST POP DUP3 PUSH20 0xFFFFFFFFFFFFFFFFFFFFFFFFFFFFFFFFFFFFFFFF AND PUSH4 0x95EA7B3 DUP4 DUP4 PUSH1 0x40 MLOAD DUP4 PUSH4 0xFFFFFFFF AND PUSH1 0xE0 SHL DUP2 MSTORE PUSH1 0x4 ADD PUSH2 0x1A03 SWAP3 SWAP2 SWAP1 PUSH2 0x2206 JUMP JUMPDEST PUSH1 0x20 PUSH1 0x40 MLOAD DUP1 DUP4 SUB DUP2 PUSH0 DUP8 GAS CALL ISZERO DUP1 ISZERO PUSH2 0x1A1F JUMPI RETURNDATASIZE PUSH0 PUSH0 RETURNDATACOPY RETURNDATASIZE PUSH0 REVERT JUMPDEST POP POP POP POP PUSH1 0x40 MLOAD RETURNDATASIZE PUSH1 0x1F NOT PUSH1 0x1F DUP3 ADD AND DUP3 ADD DUP1 PUSH1 0x40 MSTORE POP DUP2 ADD SWAP1 PUSH2 0x1A43 SWAP2 SWAP1 PUSH2 0x1E61 JUMP JUMPDEST POP POP POP POP JUMP JUMPDEST PUSH0 DUP2 SWAP1 POP SWAP2 SWAP1 POP JUMP JUMPDEST PUSH0 PUSH1 0xFF DUP3 AND SWAP1 POP SWAP2 SWAP1 POP JUMP JUMPDEST PUSH0 DUP2 SWAP1 POP SWAP2 SWAP1 POP JUMP JUMPDEST PUSH0 PUSH2 0x1A81 PUSH2 0x1A7C PUSH2 0x1A77 DUP5 PUSH2 0x1A49 JUMP JUMPDEST PUSH2 0x1A5E JUMP JUMPDEST PUSH2 0x1A52 JUMP JUMPDEST SWAP1 POP SWAP2 SWAP1 POP JUMP JUMPDEST PUSH2 0x1A91 DUP2 PUSH2 0x1A67 JUMP JUMPDEST DUP3 MSTORE POP POP JUMP JUMPDEST PUSH0 PUSH1 0x20 DUP3 ADD SWAP1 POP PUSH2 0x1AAA PUSH0 DUP4 ADD DUP5 PUSH2 0x1A88 JUMP JUMPDEST SWAP3 SWAP2 POP POP JUMP JUMPDEST PUSH0 DUP2 MLOAD SWAP1 POP SWAP2 SWAP1 POP JUMP JUMPDEST PUSH0 DUP2 SWAP1 POP SWAP3 SWAP2 POP POP JUMP JUMPDEST DUP3 DUP2 DUP4 MCOPY PUSH0 DUP4 DUP4 ADD MSTORE POP POP POP JUMP JUMPDEST PUSH0 PUSH2 0x1ADC DUP3 PUSH2 0x1AB0 JUMP JUMPDEST PUSH2 0x1AE6 DUP2 DUP6 PUSH2 0x1ABA JUMP JUMPDEST SWAP4 POP PUSH2 0x1AF6 DUP2 DUP6 PUSH1 0x20 DUP7 ADD PUSH2 0x1AC4 JUMP JUMPDEST DUP1 DUP5 ADD SWAP2 POP POP SWAP3 SWAP2 POP POP JUMP JUMPDEST PUSH0 PUSH2 0x1B0D DUP3 DUP5 PUSH2 0x1AD2 JUMP JUMPDEST SWAP2 POP DUP2 SWAP1 POP SWAP3 SWAP2 POP POP JUMP JUMPDEST PUSH0 DUP3 DUP3 MSTORE PUSH1 0x20 DUP3 ADD SWAP1 POP SWAP3 SWAP2 POP POP JUMP JUMPDEST PUSH32 0x4465706F736974206661696C6564000000000000000000000000000000000000 PUSH0 DUP3 ADD MSTORE POP JUMP JUMPDEST PUSH0 PUSH2 0x1B5C PUSH1 0xE DUP4 PUSH2 0x1B18 JUMP JUMPDEST SWAP2 POP PUSH2 0x1B67 DUP3 PUSH2 0x1B28 JUMP JUMPDEST PUSH1 0x20 DUP3 ADD SWAP1 POP SWAP2 SWAP1 POP JUMP JUMPDEST PUSH0 PUSH1 0x20 DUP3 ADD SWAP1 POP DUP2 DUP2 SUB PUSH0 DUP4 ADD MSTORE PUSH2 0x1B89 DUP2 PUSH2 0x1B50 JUMP JUMPDEST SWAP1 POP SWAP2 SWAP1 POP JUMP JUMPDEST PUSH0 PUSH1 0x40 MLOAD SWAP1 POP SWAP1 JUMP JUMPDEST PUSH0 PUSH0 REVERT JUMPDEST PUSH0 PUSH0 REVERT JUMPDEST PUSH0 PUSH20 0xFFFFFFFFFFFFFFFFFFFFFFFFFFFFFFFFFFFFFFFF DUP3 AND SWAP1 POP SWAP2 SWAP1 POP JUMP JUMPDEST PUSH0 PUSH2 0x1BCA DUP3 PUSH2 0x1BA1 JUMP JUMPDEST SWAP1 POP SWAP2 SWAP1 POP JUMP JUMPDEST PUSH2 0x1BDA DUP2 PUSH2 0x1BC0 JUMP JUMPDEST DUP2 EQ PUSH2 0x1BE4 JUMPI PUSH0 PUSH0 REVERT JUMPDEST POP JUMP JUMPDEST PUSH0 DUP2 CALLDATALOAD SWAP1 POP PUSH2 0x1BF5 DUP2 PUSH2 0x1BD1 JUMP JUMPDEST SWAP3 SWAP2 POP POP JUMP JUMPDEST PUSH0 PUSH1 0x20 DUP3 DUP5 SUB SLT ISZERO PUSH2 0x1C10 JUMPI PUSH2 0x1C0F PUSH2 0x1B99 JUMP JUMPDEST JUMPDEST PUSH0 PUSH2 0x1C1D DUP5 DUP3 DUP6 ADD PUSH2 0x1BE7 JUMP JUMPDEST SWAP2 POP POP SWAP3 SWAP2 POP POP JUMP JUMPDEST PUSH0 DUP2 SWAP1 POP SWAP2 SWAP1 POP JUMP JUMPDEST PUSH2 0x1C38 DUP2 PUSH2 0x1C26 JUMP JUMPDEST DUP3 MSTORE POP POP JUMP JUMPDEST PUSH0 PUSH1 0x20 DUP3 ADD SWAP1 POP PUSH2 0x1C51 PUSH0 DUP4 ADD DUP5 PUSH2 0x1C2F JUMP JUMPDEST SWAP3 SWAP2 POP POP JUMP JUMPDEST PUSH2 0x1C60 DUP2 PUSH2 0x1C26 JUMP JUMPDEST DUP2 EQ PUSH2 0x1C6A JUMPI PUSH0 PUSH0 REVERT JUMPDEST POP JUMP JUMPDEST PUSH0 DUP2 CALLDATALOAD SWAP1 POP PUSH2 0x1C7B DUP2 PUSH2 0x1C57 JUMP JUMPDEST SWAP3 SWAP2 POP POP JUMP JUMPDEST PUSH0 PUSH0 PUSH0 PUSH1 0x60 DUP5 DUP7 SUB SLT ISZERO PUSH2 0x1C98 JUMPI PUSH2 0x1C97 PUSH2 0x1B99 JUMP JUMPDEST JUMPDEST PUSH0 PUSH2 0x1CA5 DUP7 DUP3 DUP8 ADD PUSH2 0x1BE7 JUMP JUMPDEST SWAP4 POP POP PUSH1 0x20 PUSH2 0x1CB6 DUP7 DUP3 DUP8 ADD PUSH2 0x1C6D JUMP JUMPDEST SWAP3 POP POP PUSH1 0x40 PUSH2 0x1CC7 DUP7 DUP3 DUP8 ADD PUSH2 0x1C6D JUMP JUMPDEST SWAP2 POP POP SWAP3 POP SWAP3 POP SWAP3 JUMP JUMPDEST PUSH0 PUSH1 0x20 DUP3 DUP5 SUB SLT ISZERO PUSH2 0x1CE6 JUMPI PUSH2 0x1CE5 PUSH2 0x1B99 JUMP JUMPDEST JUMPDEST PUSH0 PUSH2 0x1CF3 DUP5 DUP3 DUP6 ADD PUSH2 0x1C6D JUMP JUMPDEST SWAP2 POP POP SWAP3 SWAP2 POP POP JUMP JUMPDEST PUSH2 0x1D05 DUP2 PUSH2 0x1BC0 JUMP JUMPDEST DUP3 MSTORE POP POP JUMP JUMPDEST PUSH0 PUSH1 0x20 DUP3 ADD SWAP1 POP PUSH2 0x1D1E PUSH0 DUP4 ADD DUP5 PUSH2 0x1CFC JUMP JUMPDEST SWAP3 SWAP2 POP POP JUMP JUMPDEST PUSH0 PUSH2 0x1D3E PUSH2 0x1D39 PUSH2 0x1D34 DUP5 PUSH2 0x1BA1 JUMP JUMPDEST PUSH2 0x1A5E JUMP JUMPDEST PUSH2 0x1BA1 JUMP JUMPDEST SWAP1 POP SWAP2 SWAP1 POP JUMP JUMPDEST PUSH0 PUSH2 0x1D4F DUP3 PUSH2 0x1D24 JUMP JUMPDEST SWAP1 POP SWAP2 SWAP1 POP JUMP JUMPDEST PUSH0 PUSH2 0x1D60 DUP3 PUSH2 0x1D45 JUMP JUMPDEST SWAP1 POP SWAP2 SWAP1 POP JUMP JUMPDEST PUSH2 0x1D70 DUP2 PUSH2 0x1D56 JUMP JUMPDEST DUP3 MSTORE POP POP JUMP JUMPDEST PUSH0 PUSH1 0x20 DUP3 ADD SWAP1 POP PUSH2 0x1D89 PUSH0 DUP4 ADD DUP5 PUSH2 0x1D67 JUMP JUMPDEST SWAP3 SWAP2 POP POP JUMP JUMPDEST PUSH32 0x7A65726F20616464720000000000000000000000000000000000000000000000 PUSH0 DUP3 ADD MSTORE POP JUMP JUMPDEST PUSH0 PUSH2 0x1DC3 PUSH1 0x9 DUP4 PUSH2 0x1B18 JUMP JUMPDEST SWAP2 POP PUSH2 0x1DCE DUP3 PUSH2 0x1D8F JUMP JUMPDEST PUSH1 0x20 DUP3 ADD SWAP1 POP SWAP2 SWAP1 POP JUMP JUMPDEST PUSH0 PUSH1 0x20 DUP3 ADD SWAP1 POP DUP2 DUP2 SUB PUSH0 DUP4 ADD MSTORE PUSH2 0x1DF0 DUP2 PUSH2 0x1DB7 JUMP JUMPDEST SWAP1 POP SWAP2 SWAP1 POP JUMP JUMPDEST PUSH0 PUSH1 0x60 DUP3 ADD SWAP1 POP PUSH2 0x1E0A PUSH0 DUP4 ADD DUP7 PUSH2 0x1CFC JUMP JUMPDEST PUSH2 0x1E17 PUSH1 0x20 DUP4 ADD DUP6 PUSH2 0x1CFC JUMP JUMPDEST PUSH2 0x1E24 PUSH1 0x40 DUP4 ADD DUP5 PUSH2 0x1C2F JUMP JUMPDEST SWAP5 SWAP4 POP POP POP POP JUMP JUMPDEST PUSH0 DUP2 ISZERO ISZERO SWAP1 POP SWAP2 SWAP1 POP JUMP JUMPDEST PUSH2 0x1E40 DUP2 PUSH2 0x1E2C JUMP JUMPDEST DUP2 EQ PUSH2 0x1E4A JUMPI PUSH0 PUSH0 REVERT JUMPDEST POP JUMP JUMPDEST PUSH0 DUP2 MLOAD SWAP1 POP PUSH2 0x1E5B DUP2 PUSH2 0x1E37 JUMP JUMPDEST SWAP3 SWAP2 POP POP JUMP JUMPDEST PUSH0 PUSH1 0x20 DUP3 DUP5 SUB SLT ISZERO PUSH2 0x1E76 JUMPI PUSH2 0x1E75 PUSH2 0x1B99 JUMP JUMPDEST JUMPDEST PUSH0 PUSH2 0x1E83 DUP5 DUP3 DUP6 ADD PUSH2 0x1E4D JUMP JUMPDEST SWAP2 POP POP SWAP3 SWAP2 POP POP JUMP JUMPDEST PUSH32 0x4E487B7100000000000000000000000000000000000000000000000000000000 PUSH0 MSTORE PUSH1 0x41 PUSH1 0x4 MSTORE PUSH1 0x24 PUSH0 REVERT JUMPDEST PUSH32 0x4E487B7100000000000000000000000000000000000000000000000000000000 PUSH0 MSTORE PUSH1 0x32 PUSH1 0x4 MSTORE PUSH1 0x24 PUSH0 REVERT JUMPDEST PUSH32 0x4E487B7100000000000000000000000000000000000000000000000000000000 PUSH0 MSTORE PUSH1 0x11 PUSH1 0x4 MSTORE PUSH1 0x24 PUSH0 REVERT JUMPDEST PUSH0 PUSH2 0x1F1D DUP3 PUSH2 0x1C26 JUMP JUMPDEST SWAP2 POP PUSH2 0x1F28 DUP4 PUSH2 0x1C26 JUMP JUMPDEST SWAP3 POP DUP3 DUP3 ADD SWAP1 POP DUP1 DUP3 GT ISZERO PUSH2 0x1F40 JUMPI PUSH2 0x1F3F PUSH2 0x1EE6 JUMP JUMPDEST JUMPDEST SWAP3 SWAP2 POP POP JUMP JUMPDEST PUSH0 DUP2 MLOAD SWAP1 POP SWAP2 SWAP1 POP JUMP JUMPDEST PUSH0 DUP3 DUP3 MSTORE PUSH1 0x20 DUP3 ADD SWAP1 POP SWAP3 SWAP2 POP POP JUMP JUMPDEST PUSH0 DUP2 SWAP1 POP PUSH1 0x20 DUP3 ADD SWAP1 POP SWAP2 SWAP1 POP JUMP JUMPDEST PUSH2 0x1F78 DUP2 PUSH2 0x1BC0 JUMP JUMPDEST DUP3 MSTORE POP POP JUMP JUMPDEST PUSH0 PUSH2 0x1F89 DUP4 DUP4 PUSH2 0x1F6F JUMP JUMPDEST PUSH1 0x20 DUP4 ADD SWAP1 POP SWAP3 SWAP2 POP POP JUMP JUMPDEST PUSH0 PUSH1 0x20 DUP3 ADD SWAP1 POP SWAP2 SWAP1 POP JUMP JUMPDEST PUSH0 PUSH2 0x1FAB DUP3 PUSH2 0x1F46 JUMP JUMPDEST PUSH2 0x1FB5 DUP2 DUP6 PUSH2 0x1F50 JUMP JUMPDEST SWAP4 POP PUSH2 0x1FC0 DUP4 PUSH2 0x1F60 JUMP JUMPDEST DUP1 PUSH0 JUMPDEST DUP4 DUP2 LT ISZERO PUSH2 0x1FF0 JUMPI DUP2 MLOAD PUSH2 0x1FD7 DUP9 DUP3 PUSH2 0x1F7E JUMP JUMPDEST SWAP8 POP PUSH2 0x1FE2 DUP4 PUSH2 0x1F95 JUMP JUMPDEST SWAP3 POP POP PUSH1 0x1 DUP2 ADD SWAP1 POP PUSH2 0x1FC3 JUMP JUMPDEST POP DUP6 SWAP4 POP POP POP POP SWAP3 SWAP2 POP POP JUMP JUMPDEST PUSH0 PUSH1 0xA0 DUP3 ADD SWAP1 POP PUSH2 0x2010 PUSH0 DUP4 ADD DUP9 PUSH2 0x1C2F JUMP JUMPDEST PUSH2 0x201D PUSH1 0x20 DUP4 ADD DUP8 PUSH2 0x1C2F JUMP JUMPDEST DUP2 DUP2 SUB PUSH1 0x40 DUP4 ADD MSTORE PUSH2 0x202F DUP2 DUP7 PUSH2 0x1FA1 JUMP JUMPDEST SWAP1 POP PUSH2 0x203E PUSH1 0x60 DUP4 ADD DUP6 PUSH2 0x1CFC JUMP JUMPDEST PUSH2 0x204B PUSH1 0x80 DUP4 ADD DUP5 PUSH2 0x1C2F JUMP JUMPDEST SWAP7 SWAP6 POP POP POP POP POP POP JUMP JUMPDEST PUSH0 PUSH0 REVERT JUMPDEST PUSH0 PUSH1 0x1F NOT PUSH1 0x1F DUP4 ADD AND SWAP1 POP SWAP2 SWAP1 POP JUMP JUMPDEST PUSH2 0x2072 DUP3 PUSH2 0x2059 JUMP JUMPDEST DUP2 ADD DUP2 DUP2 LT PUSH8 0xFFFFFFFFFFFFFFFF DUP3 GT OR ISZERO PUSH2 0x2091 JUMPI PUSH2 0x2090 PUSH2 0x1E8C JUMP JUMPDEST JUMPDEST DUP1 PUSH1 0x40 MSTORE POP POP POP JUMP JUMPDEST PUSH0 PUSH2 0x20A3 PUSH2 0x1B90 JUMP JUMPDEST SWAP1 POP PUSH2 0x20AF DUP3 DUP3 PUSH2 0x2069 JUMP JUMPDEST SWAP2 SWAP1 POP JUMP JUMPDEST PUSH0 PUSH8 0xFFFFFFFFFFFFFFFF DUP3 GT ISZERO PUSH2 0x20CE JUMPI PUSH2 0x20CD PUSH2 0x1E8C JUMP JUMPDEST JUMPDEST PUSH1 0x20 DUP3 MUL SWAP1 POP PUSH1 0x20 DUP2 ADD SWAP1 POP SWAP2 SWAP1 POP JUMP JUMPDEST PUSH0 PUSH0 REVERT JUMPDEST PUSH0 DUP2 MLOAD SWAP1 POP PUSH2 0x20F1 DUP2 PUSH2 0x1C57 JUMP JUMPDEST SWAP3 SWAP2 POP POP JUMP JUMPDEST PUSH0 PUSH2 0x2109 PUSH2 0x2104 DUP5 PUSH2 0x20B4 JUMP JUMPDEST PUSH2 0x209A JUMP JUMPDEST SWAP1 POP DUP1 DUP4 DUP3 MSTORE PUSH1 0x20 DUP3 ADD SWAP1 POP PUSH1 0x20 DUP5 MUL DUP4 ADD DUP6 DUP2 GT ISZERO PUSH2 0x212C JUMPI PUSH2 0x212B PUSH2 0x20DF JUMP JUMPDEST JUMPDEST DUP4 JUMPDEST DUP2 DUP2 LT ISZERO PUSH2 0x2155 JUMPI DUP1 PUSH2 0x2141 DUP9 DUP3 PUSH2 0x20E3 JUMP JUMPDEST DUP5 MSTORE PUSH1 0x20 DUP5 ADD SWAP4 POP POP PUSH1 0x20 DUP2 ADD SWAP1 POP PUSH2 0x212E JUMP JUMPDEST POP POP POP SWAP4 SWAP3 POP POP POP JUMP JUMPDEST PUSH0 DUP3 PUSH1 0x1F DUP4 ADD SLT PUSH2 0x2173 JUMPI PUSH2 0x2172 PUSH2 0x2055 JUMP JUMPDEST JUMPDEST DUP2 MLOAD PUSH2 0x2183 DUP5 DUP3 PUSH1 0x20 DUP7 ADD PUSH2 0x20F7 JUMP JUMPDEST SWAP2 POP POP SWAP3 SWAP2 POP POP JUMP JUMPDEST PUSH0 PUSH1 0x20 DUP3 DUP5 SUB SLT ISZERO PUSH2 0x21A1 JUMPI PUSH2 0x21A0 PUSH2 0x1B99 JUMP JUMPDEST JUMPDEST PUSH0 DUP3 ADD MLOAD PUSH8 0xFFFFFFFFFFFFFFFF DUP2 GT ISZERO PUSH2 0x21BE JUMPI PUSH2 0x21BD PUSH2 0x1B9D JUMP JUMPDEST JUMPDEST PUSH2 0x21CA DUP5 DUP3 DUP6 ADD PUSH2 0x215F JUMP JUMPDEST SWAP2 POP POP SWAP3 SWAP2 POP POP JUMP JUMPDEST PUSH0 PUSH2 0x21DD DUP3 PUSH2 0x1C26 JUMP JUMPDEST SWAP2 POP PUSH2 0x21E8 DUP4 PUSH2 0x1C26 JUMP JUMPDEST SWAP3 POP DUP3 DUP3 SUB SWAP1 POP DUP2 DUP2 GT ISZERO PUSH2 0x2200 JUMPI PUSH2 0x21FF PUSH2 0x1EE6 JUMP JUMPDEST JUMPDEST SWAP3 SWAP2 POP POP JUMP JUMPDEST PUSH0 PUSH1 0x40 DUP3 ADD SWAP1 POP PUSH2 0x2219 PUSH0 DUP4 ADD DUP6 PUSH2 0x1CFC JUMP JUMPDEST PUSH2 0x2226 PUSH1 0x20 DUP4 ADD DUP5 PUSH2 0x1C2F JUMP JUMPDEST SWAP4 SWAP3 POP POP POP JUMP JUMPDEST PUSH0 PUSH1 0x60 DUP3 ADD SWAP1 POP PUSH2 0x2240 PUSH0 DUP4 ADD DUP7 PUSH2 0x1C2F JUMP JUMPDEST PUSH2 0x224D PUSH1 0x20 DUP4 ADD DUP6 PUSH2 0x1C2F JUMP JUMPDEST PUSH2 0x225A PUSH1 0x40 DUP4 ADD DUP5 PUSH2 0x1C2F JUMP JUMPDEST SWAP5 SWAP4 POP POP POP POP JUMP JUMPDEST PUSH0 PUSH1 0x40 DUP3 ADD SWAP1 POP PUSH2 0x2275 PUSH0 DUP4 ADD DUP6 PUSH2 0x1C2F JUMP JUMPDEST PUSH2 0x2282 PUSH1 0x20 DUP4 ADD DUP5 PUSH2 0x1C2F JUMP JUMPDEST SWAP4 SWAP3 POP POP POP JUMP JUMPDEST PUSH0 PUSH2 0x22A3 PUSH2 0x229E PUSH2 0x2299 DUP5 PUSH2 0x1A49 JUMP JUMPDEST PUSH2 0x1A5E JUMP JUMPDEST PUSH2 0x1C26 JUMP JUMPDEST SWAP1 POP SWAP2 SWAP1 POP JUMP JUMPDEST PUSH2 0x22B3 DUP2 PUSH2 0x2289 JUMP JUMPDEST DUP3 MSTORE POP POP JUMP JUMPDEST PUSH0 PUSH1 0x40 DUP3 ADD SWAP1 POP PUSH2 0x22CC PUSH0 DUP4 ADD DUP6 PUSH2 0x1CFC JUMP JUMPDEST PUSH2 0x22D9 PUSH1 0x20 DUP4 ADD DUP5 PUSH2 0x22AA JUMP JUMPDEST SWAP4 SWAP3 POP POP POP JUMP INVALID LOG2 PUSH5 0x6970667358 0x22 SLT KECCAK256 OR PUSH4 0xE7D5ABA PUSH6 0x394E11779473 SWAP11 PUSH24 0x3474F9C10AC53BA776C0274A44175FA8F064736F6C634300 ADDMOD 0x1E STOP CALLER "
				},
				"gasEstimates": {
					"creation": {
						"codeDepositCost": "1796400",
						"executionCost": "infinite",
						"totalCost": "infinite"
					},
					"external": {
						"": "221",
						"USDC()": "infinite",
						"WETH()": "infinite",
						"bankCapUsd()": "infinite",
						"depositETHSwapToUSDC(uint256)": "infinite",
						"depositTokenSwapToUSDC(address,uint256,uint256)": "infinite",
						"depositUSDC(uint256)": "infinite",
						"owner()": "2618",
						"router()": "infinite",
						"setOwner(address)": "30608",
						"totalUsdc()": "2448",
						"usdcBalanceOf(address)": "2873",
						"withdrawUSDC(uint256)": "infinite"
					},
					"internal": {
						"_safeApprove(address,address,uint256)": "infinite"
					}
				},
				"methodIdentifiers": {
					"USDC()": "89a30271",
					"WETH()": "ad5c4648",
					"bankCapUsd()": "ac4543ba",
					"depositETHSwapToUSDC(uint256)": "883f1721",
					"depositTokenSwapToUSDC(address,uint256,uint256)": "39657553",
					"depositUSDC(uint256)": "f688bcfb",
					"owner()": "8da5cb5b",
					"router()": "f887ea40",
					"setOwner(address)": "13af4035",
					"totalUsdc()": "34462be6",
					"usdcBalanceOf(address)": "c3fd262d",
					"withdrawUSDC(uint256)": "db81f99b"
				}
			},
			"storageLayout": {
				"storage": [
					{
						"astId": 127,
						"contract": "src/KipuBankV3.sol:KipuBankV3",
						"label": "owner",
						"offset": 0,
						"slot": "0",
						"type": "t_address"
					},
					{
						"astId": 130,
						"contract": "src/KipuBankV3.sol:KipuBankV3",
						"label": "totalUsdc",
						"offset": 0,
						"slot": "1",
						"type": "t_uint256"
					},
					{
						"astId": 136,
						"contract": "src/KipuBankV3.sol:KipuBankV3",
						"label": "locked",
						"offset": 0,
						"slot": "2",
						"type": "t_bool"
					},
					{
						"astId": 158,
						"contract": "src/KipuBankV3.sol:KipuBankV3",
						"label": "usdcBalances",
						"offset": 0,
						"slot": "3",
						"type": "t_mapping(t_address,t_uint256)"
					}
				],
				"types": {
					"t_address": {
						"encoding": "inplace",
						"label": "address",
						"numberOfBytes": "20"
					},
					"t_bool": {
						"encoding": "inplace",
						"label": "bool",
						"numberOfBytes": "1"
					},
					"t_mapping(t_address,t_uint256)": {
						"encoding": "mapping",
						"key": "t_address",
						"label": "mapping(address => uint256)",
						"numberOfBytes": "32",
						"value": "t_uint256"
					},
					"t_uint256": {
						"encoding": "inplace",
						"label": "uint256",
						"numberOfBytes": "32"
					}
				}
			},
			"userdoc": {
				"kind": "user",
				"methods": {
					"USDC()": {
						"notice": "USDC token used by this bank (accounting token, expected decimals = 6)"
					},
					"WETH()": {
						"notice": "WETH address (from router)"
					},
					"bankCapUsd()": {
						"notice": "bank cap in USDC units (raw, e.g. 100 * 10**6 = 100 USDC)"
					},
					"depositETHSwapToUSDC(uint256)": {
						"notice": "Deposit ETH (native). Contract swaps ETH -> USDC via UniswapV2."
					},
					"depositTokenSwapToUSDC(address,uint256,uint256)": {
						"notice": "Deposit ERC20 token (not USDC). Contract swaps token -> USDC via UniswapV2.         Token must have a direct pair to USDC (path [token, USDC])."
					},
					"depositUSDC(uint256)": {
						"notice": "Deposit USDC directly (user must approve this contract)"
					},
					"owner()": {
						"notice": "owner/admin"
					},
					"router()": {
						"notice": "UniswapV2 router"
					},
					"totalUsdc()": {
						"notice": "total USDC held (in raw USDC units, e.g. 6 decimals)"
					},
					"withdrawUSDC(uint256)": {
						"notice": "Withdraw USDC from your internal balance"
					}
				},
				"version": 1
			}
		}
	}
}