{
	"contracts/KipuBank.sol": {
		"KipuBank": {
			"abi": [
				{
					"inputs": [
						{
							"internalType": "uint256",
							"name": "_bankCap",
							"type": "uint256"
						},
						{
							"internalType": "uint256",
							"name": "_withdrawLimitPerTx",
							"type": "uint256"
						}
					],
					"stateMutability": "nonpayable",
					"type": "constructor"
				},
				{
					"inputs": [
						{
							"internalType": "uint256",
							"name": "attempted",
							"type": "uint256"
						},
						{
							"internalType": "uint256",
							"name": "total",
							"type": "uint256"
						},
						{
							"internalType": "uint256",
							"name": "cap",
							"type": "uint256"
						}
					],
					"name": "BankCapExceeded",
					"type": "error"
				},
				{
					"inputs": [
						{
							"internalType": "uint256",
							"name": "requested",
							"type": "uint256"
						},
						{
							"internalType": "uint256",
							"name": "available",
							"type": "uint256"
						}
					],
					"name": "InsufficientBalance",
					"type": "error"
				},
				{
					"inputs": [],
					"name": "InvalidConstructorParams",
					"type": "error"
				},
				{
					"inputs": [],
					"name": "TransferFailed",
					"type": "error"
				},
				{
					"inputs": [
						{
							"internalType": "uint256",
							"name": "requested",
							"type": "uint256"
						},
						{
							"internalType": "uint256",
							"name": "limit",
							"type": "uint256"
						}
					],
					"name": "WithdrawLimitExceeded",
					"type": "error"
				},
				{
					"inputs": [],
					"name": "ZeroAmount",
					"type": "error"
				},
				{
					"anonymous": false,
					"inputs": [
						{
							"indexed": true,
							"internalType": "address",
							"name": "user",
							"type": "address"
						},
						{
							"indexed": false,
							"internalType": "uint256",
							"name": "amount",
							"type": "uint256"
						},
						{
							"indexed": false,
							"internalType": "uint256",
							"name": "balance",
							"type": "uint256"
						},
						{
							"indexed": false,
							"internalType": "uint256",
							"name": "totalDeposited",
							"type": "uint256"
						}
					],
					"name": "Deposit",
					"type": "event"
				},
				{
					"anonymous": false,
					"inputs": [
						{
							"indexed": true,
							"internalType": "address",
							"name": "user",
							"type": "address"
						},
						{
							"indexed": false,
							"internalType": "uint256",
							"name": "amount",
							"type": "uint256"
						},
						{
							"indexed": false,
							"internalType": "uint256",
							"name": "balance",
							"type": "uint256"
						},
						{
							"indexed": false,
							"internalType": "uint256",
							"name": "totalDeposited",
							"type": "uint256"
						}
					],
					"name": "Withdraw",
					"type": "event"
				},
				{
					"inputs": [
						{
							"internalType": "address",
							"name": "user",
							"type": "address"
						}
					],
					"name": "balanceOf",
					"outputs": [
						{
							"internalType": "uint256",
							"name": "",
							"type": "uint256"
						}
					],
					"stateMutability": "view",
					"type": "function"
				},
				{
					"inputs": [],
					"name": "bankCap",
					"outputs": [
						{
							"internalType": "uint256",
							"name": "",
							"type": "uint256"
						}
					],
					"stateMutability": "view",
					"type": "function"
				},
				{
					"inputs": [],
					"name": "deposit",
					"outputs": [],
					"stateMutability": "payable",
					"type": "function"
				},
				{
					"inputs": [],
					"name": "depositCount",
					"outputs": [
						{
							"internalType": "uint256",
							"name": "",
							"type": "uint256"
						}
					],
					"stateMutability": "view",
					"type": "function"
				},
				{
					"inputs": [],
					"name": "totalDeposited",
					"outputs": [
						{
							"internalType": "uint256",
							"name": "",
							"type": "uint256"
						}
					],
					"stateMutability": "view",
					"type": "function"
				},
				{
					"inputs": [
						{
							"internalType": "uint256",
							"name": "amount",
							"type": "uint256"
						}
					],
					"name": "withdraw",
					"outputs": [],
					"stateMutability": "nonpayable",
					"type": "function"
				},
				{
					"inputs": [],
					"name": "withdrawCount",
					"outputs": [
						{
							"internalType": "uint256",
							"name": "",
							"type": "uint256"
						}
					],
					"stateMutability": "view",
					"type": "function"
				},
				{
					"inputs": [],
					"name": "withdrawLimitPerTx",
					"outputs": [
						{
							"internalType": "uint256",
							"name": "",
							"type": "uint256"
						}
					],
					"stateMutability": "view",
					"type": "function"
				},
				{
					"stateMutability": "payable",
					"type": "receive"
				}
			],
			"devdoc": {
				"author": "Dev ramlpp",
				"details": "Este contrato sigue buenas prácticas de seguridad y documentación en Solidity",
				"kind": "dev",
				"methods": {
					"balanceOf(address)": {
						"params": {
							"user": "Dirección a consultar"
						}
					},
					"constructor": {
						"params": {
							"_bankCap": "Límite global máximo de depósitos en el contrato",
							"_withdrawLimitPerTx": "Límite máximo de retiro por transacción"
						}
					},
					"withdraw(uint256)": {
						"params": {
							"amount": "Monto a retirar en wei"
						}
					}
				},
				"stateVariables": {
					"withdrawLimitPerTx": {
						"details": "Se define en el constructor y no puede modificarse"
					}
				},
				"title": "KipuBank - Bóveda de depósito y retiro de ETH con límites",
				"version": 1
			},
			"evm": {
				"assembly": "    /* \"contracts/KipuBank.sol\":327:5844  contract KipuBank {... */\n  mstore(0x40, 0xc0)\n    /* \"contracts/KipuBank.sol\":3088:3322  constructor(uint256 _bankCap, uint256 _withdrawLimitPerTx) {... */\n  callvalue\n  dup1\n  iszero\n  tag_1\n  jumpi\n  revert(0x00, 0x00)\ntag_1:\n  pop\n  mload(0x40)\n  sub(codesize, bytecodeSize)\n  dup1\n  bytecodeSize\n  dup4\n  codecopy\n  dup2\n  dup2\n  add\n  0x40\n  mstore\n  dup2\n  add\n  swap1\n  tag_2\n  swap2\n  swap1\n  tag_3\n  jump\t// in\ntag_2:\n    /* \"contracts/KipuBank.sol\":3173:3174  0 */\n  0x00\n    /* \"contracts/KipuBank.sol\":3161:3169  _bankCap */\n  dup3\n    /* \"contracts/KipuBank.sol\":3161:3174  _bankCap == 0 */\n  eq\n    /* \"contracts/KipuBank.sol\":3161:3202  _bankCap == 0 || _withdrawLimitPerTx == 0 */\n  dup1\n  tag_6\n  jumpi\n  pop\n    /* \"contracts/KipuBank.sol\":3201:3202  0 */\n  0x00\n    /* \"contracts/KipuBank.sol\":3178:3197  _withdrawLimitPerTx */\n  dup2\n    /* \"contracts/KipuBank.sol\":3178:3202  _withdrawLimitPerTx == 0 */\n  eq\n    /* \"contracts/KipuBank.sol\":3161:3202  _bankCap == 0 || _withdrawLimitPerTx == 0 */\ntag_6:\n    /* \"contracts/KipuBank.sol\":3157:3237  if (_bankCap == 0 || _withdrawLimitPerTx == 0) revert InvalidConstructorParams() */\n  iszero\n  tag_7\n  jumpi\n    /* \"contracts/KipuBank.sol\":3211:3237  InvalidConstructorParams() */\n  mload(0x40)\n  0x1510b77f00000000000000000000000000000000000000000000000000000000\n  dup2\n  mstore\n  0x04\n  add\n  mload(0x40)\n  dup1\n  swap2\n  sub\n  swap1\n  revert\n    /* \"contracts/KipuBank.sol\":3157:3237  if (_bankCap == 0 || _withdrawLimitPerTx == 0) revert InvalidConstructorParams() */\ntag_7:\n    /* \"contracts/KipuBank.sol\":3257:3265  _bankCap */\n  dup2\n    /* \"contracts/KipuBank.sol\":3247:3265  bankCap = _bankCap */\n  0xa0\n  dup2\n  dup2\n  mstore\n  pop\n  pop\n    /* \"contracts/KipuBank.sol\":3296:3315  _withdrawLimitPerTx */\n  dup1\n    /* \"contracts/KipuBank.sol\":3275:3315  withdrawLimitPerTx = _withdrawLimitPerTx */\n  0x80\n  dup2\n  dup2\n  mstore\n  pop\n  pop\n    /* \"contracts/KipuBank.sol\":3088:3322  constructor(uint256 _bankCap, uint256 _withdrawLimitPerTx) {... */\n  pop\n  pop\n    /* \"contracts/KipuBank.sol\":327:5844  contract KipuBank {... */\n  jump(tag_8)\n    /* \"#utility.yul\":88:205   */\ntag_10:\n    /* \"#utility.yul\":197:198   */\n  0x00\n    /* \"#utility.yul\":194:195   */\n  0x00\n    /* \"#utility.yul\":187:199   */\n  revert\n    /* \"#utility.yul\":334:411   */\ntag_12:\n    /* \"#utility.yul\":371:378   */\n  0x00\n    /* \"#utility.yul\":400:405   */\n  dup2\n    /* \"#utility.yul\":389:405   */\n  swap1\n  pop\n    /* \"#utility.yul\":334:411   */\n  swap2\n  swap1\n  pop\n  jump\t// out\n    /* \"#utility.yul\":417:539   */\ntag_13:\n    /* \"#utility.yul\":490:514   */\n  tag_21\n    /* \"#utility.yul\":508:513   */\n  dup2\n    /* \"#utility.yul\":490:514   */\n  tag_12\n  jump\t// in\ntag_21:\n    /* \"#utility.yul\":483:488   */\n  dup2\n    /* \"#utility.yul\":480:515   */\n  eq\n    /* \"#utility.yul\":470:533   */\n  tag_22\n  jumpi\n    /* \"#utility.yul\":529:530   */\n  0x00\n    /* \"#utility.yul\":526:527   */\n  0x00\n    /* \"#utility.yul\":519:531   */\n  revert\n    /* \"#utility.yul\":470:533   */\ntag_22:\n    /* \"#utility.yul\":417:539   */\n  pop\n  jump\t// out\n    /* \"#utility.yul\":545:688   */\ntag_14:\n    /* \"#utility.yul\":602:607   */\n  0x00\n    /* \"#utility.yul\":633:639   */\n  dup2\n    /* \"#utility.yul\":627:640   */\n  mload\n    /* \"#utility.yul\":618:640   */\n  swap1\n  pop\n    /* \"#utility.yul\":649:682   */\n  tag_24\n    /* \"#utility.yul\":676:681   */\n  dup2\n    /* \"#utility.yul\":649:682   */\n  tag_13\n  jump\t// in\ntag_24:\n    /* \"#utility.yul\":545:688   */\n  swap3\n  swap2\n  pop\n  pop\n  jump\t// out\n    /* \"#utility.yul\":694:1201   */\ntag_3:\n    /* \"#utility.yul\":773:779   */\n  0x00\n    /* \"#utility.yul\":781:787   */\n  0x00\n    /* \"#utility.yul\":830:832   */\n  0x40\n    /* \"#utility.yul\":818:827   */\n  dup4\n    /* \"#utility.yul\":809:816   */\n  dup6\n    /* \"#utility.yul\":805:828   */\n  sub\n    /* \"#utility.yul\":801:833   */\n  slt\n    /* \"#utility.yul\":798:917   */\n  iszero\n  tag_26\n  jumpi\n    /* \"#utility.yul\":836:915   */\n  tag_27\n  tag_10\n  jump\t// in\ntag_27:\n    /* \"#utility.yul\":798:917   */\ntag_26:\n    /* \"#utility.yul\":956:957   */\n  0x00\n    /* \"#utility.yul\":981:1045   */\n  tag_28\n    /* \"#utility.yul\":1037:1044   */\n  dup6\n    /* \"#utility.yul\":1028:1034   */\n  dup3\n    /* \"#utility.yul\":1017:1026   */\n  dup7\n    /* \"#utility.yul\":1013:1035   */\n  add\n    /* \"#utility.yul\":981:1045   */\n  tag_14\n  jump\t// in\ntag_28:\n    /* \"#utility.yul\":971:1045   */\n  swap3\n  pop\n    /* \"#utility.yul\":927:1055   */\n  pop\n    /* \"#utility.yul\":1094:1096   */\n  0x20\n    /* \"#utility.yul\":1120:1184   */\n  tag_29\n    /* \"#utility.yul\":1176:1183   */\n  dup6\n    /* \"#utility.yul\":1167:1173   */\n  dup3\n    /* \"#utility.yul\":1156:1165   */\n  dup7\n    /* \"#utility.yul\":1152:1174   */\n  add\n    /* \"#utility.yul\":1120:1184   */\n  tag_14\n  jump\t// in\ntag_29:\n    /* \"#utility.yul\":1110:1184   */\n  swap2\n  pop\n    /* \"#utility.yul\":1065:1194   */\n  pop\n    /* \"#utility.yul\":694:1201   */\n  swap3\n  pop\n  swap3\n  swap1\n  pop\n  jump\t// out\n    /* \"contracts/KipuBank.sol\":327:5844  contract KipuBank {... */\ntag_8:\n  mload(0x80)\n  mload(0xa0)\n  codecopy(0x00, dataOffset(sub_0), dataSize(sub_0))\n  0x00\n  assignImmutable(\"0xe4b1702d9298fee62dfeccc57d322a463ad55ca201256d01f62b45b2e1c21c10\")\n  0x00\n  assignImmutable(\"0xceebf77a833b30520287ddd9478ff51abbdffa30aa90a8d655dba0e8a79ce0c1\")\n  return(0x00, dataSize(sub_0))\nstop\n\nsub_0: assembly {\n        /* \"contracts/KipuBank.sol\":327:5844  contract KipuBank {... */\n      mstore(0x40, 0x80)\n      jumpi(tag_1, lt(calldatasize, 0x04))\n      shr(0xe0, calldataload(0x00))\n      dup1\n      0x9c51fd6e\n      gt\n      tag_11\n      jumpi\n      dup1\n      0x9c51fd6e\n      eq\n      tag_7\n      jumpi\n      dup1\n      0xd0e30db0\n      eq\n      tag_8\n      jumpi\n      dup1\n      0xecbea24d\n      eq\n      tag_9\n      jumpi\n      dup1\n      0xff50abdc\n      eq\n      tag_10\n      jumpi\n      jump(tag_2)\n    tag_11:\n      dup1\n      0x2dfdf0b5\n      eq\n      tag_3\n      jumpi\n      dup1\n      0x2e1a7d4d\n      eq\n      tag_4\n      jumpi\n      dup1\n      0x4cc05a71\n      eq\n      tag_5\n      jumpi\n      dup1\n      0x70a08231\n      eq\n      tag_6\n      jumpi\n      jump(tag_2)\n    tag_1:\n      jumpi(tag_2, calldatasize)\n        /* \"contracts/KipuBank.sol\":5803:5807  this */\n      address\n        /* \"contracts/KipuBank.sol\":5803:5815  this.deposit */\n      0xffffffffffffffffffffffffffffffffffffffff\n      and\n      0xd0e30db0\n        /* \"contracts/KipuBank.sol\":5823:5832  msg.value */\n      callvalue\n        /* \"contracts/KipuBank.sol\":5803:5835  this.deposit{value: msg.value}() */\n      mload(0x40)\n      dup3\n      0xffffffff\n      and\n      0xe0\n      shl\n      dup2\n      mstore\n      0x04\n      add\n      0x00\n      mload(0x40)\n      dup1\n      dup4\n      sub\n      dup2\n      dup6\n      dup9\n      dup1\n      extcodesize\n      iszero\n      dup1\n      iszero\n      tag_14\n      jumpi\n      revert(0x00, 0x00)\n    tag_14:\n      pop\n      gas\n      call\n      iszero\n      dup1\n      iszero\n      tag_16\n      jumpi\n      returndatacopy(0x00, 0x00, returndatasize)\n      revert(0x00, returndatasize)\n    tag_16:\n      stop\n        /* \"contracts/KipuBank.sol\":327:5844  contract KipuBank {... */\n    tag_2:\n      revert(0x00, 0x00)\n        /* \"contracts/KipuBank.sol\":1241:1268  uint256 public depositCount */\n    tag_3:\n      callvalue\n      dup1\n      iszero\n      tag_17\n      jumpi\n      revert(0x00, 0x00)\n    tag_17:\n      pop\n      tag_18\n      tag_19\n      jump\t// in\n    tag_18:\n      mload(0x40)\n      tag_20\n      swap2\n      swap1\n      tag_21\n      jump\t// in\n    tag_20:\n      mload(0x40)\n      dup1\n      swap2\n      sub\n      swap1\n      return\n        /* \"contracts/KipuBank.sol\":4378:4972  function withdraw(uint256 amount) external nonZero(amount) {... */\n    tag_4:\n      callvalue\n      dup1\n      iszero\n      tag_22\n      jumpi\n      revert(0x00, 0x00)\n    tag_22:\n      pop\n      tag_23\n      0x04\n      dup1\n      calldatasize\n      sub\n      dup2\n      add\n      swap1\n      tag_24\n      swap2\n      swap1\n      tag_25\n      jump\t// in\n    tag_24:\n      tag_26\n      jump\t// in\n    tag_23:\n      stop\n        /* \"contracts/KipuBank.sol\":1327:1355  uint256 public withdrawCount */\n    tag_5:\n      callvalue\n      dup1\n      iszero\n      tag_27\n      jumpi\n      revert(0x00, 0x00)\n    tag_27:\n      pop\n      tag_28\n      tag_29\n      jump\t// in\n    tag_28:\n      mload(0x40)\n      tag_30\n      swap2\n      swap1\n      tag_21\n      jump\t// in\n    tag_30:\n      mload(0x40)\n      dup1\n      swap2\n      sub\n      swap1\n      return\n        /* \"contracts/KipuBank.sol\":5097:5201  function balanceOf(address user) external view returns (uint256) {... */\n    tag_6:\n      callvalue\n      dup1\n      iszero\n      tag_31\n      jumpi\n      revert(0x00, 0x00)\n    tag_31:\n      pop\n      tag_32\n      0x04\n      dup1\n      calldatasize\n      sub\n      dup2\n      add\n      swap1\n      tag_33\n      swap2\n      swap1\n      tag_34\n      jump\t// in\n    tag_33:\n      tag_35\n      jump\t// in\n    tag_32:\n      mload(0x40)\n      tag_36\n      swap2\n      swap1\n      tag_21\n      jump\t// in\n    tag_36:\n      mload(0x40)\n      dup1\n      swap2\n      sub\n      swap1\n      return\n        /* \"contracts/KipuBank.sol\":641:684  uint256 public immutable withdrawLimitPerTx */\n    tag_7:\n      callvalue\n      dup1\n      iszero\n      tag_37\n      jumpi\n      revert(0x00, 0x00)\n    tag_37:\n      pop\n      tag_38\n      tag_39\n      jump\t// in\n    tag_38:\n      mload(0x40)\n      tag_40\n      swap2\n      swap1\n      tag_21\n      jump\t// in\n    tag_40:\n      mload(0x40)\n      dup1\n      swap2\n      sub\n      swap1\n      return\n        /* \"contracts/KipuBank.sol\":3881:4236  function deposit() external payable nonZero(msg.value) {... */\n    tag_8:\n      tag_41\n      tag_42\n      jump\t// in\n    tag_41:\n      stop\n        /* \"contracts/KipuBank.sol\":763:795  uint256 public immutable bankCap */\n    tag_9:\n      callvalue\n      dup1\n      iszero\n      tag_43\n      jumpi\n      revert(0x00, 0x00)\n    tag_43:\n      pop\n      tag_44\n      tag_45\n      jump\t// in\n    tag_44:\n      mload(0x40)\n      tag_46\n      swap2\n      swap1\n      tag_21\n      jump\t// in\n    tag_46:\n      mload(0x40)\n      dup1\n      swap2\n      sub\n      swap1\n      return\n        /* \"contracts/KipuBank.sol\":1150:1179  uint256 public totalDeposited */\n    tag_10:\n      callvalue\n      dup1\n      iszero\n      tag_47\n      jumpi\n      revert(0x00, 0x00)\n    tag_47:\n      pop\n      tag_48\n      tag_49\n      jump\t// in\n    tag_48:\n      mload(0x40)\n      tag_50\n      swap2\n      swap1\n      tag_21\n      jump\t// in\n    tag_50:\n      mload(0x40)\n      dup1\n      swap2\n      sub\n      swap1\n      return\n        /* \"contracts/KipuBank.sol\":1241:1268  uint256 public depositCount */\n    tag_19:\n      sload(0x02)\n      dup2\n      jump\t// out\n        /* \"contracts/KipuBank.sol\":4378:4972  function withdraw(uint256 amount) external nonZero(amount) {... */\n    tag_26:\n        /* \"contracts/KipuBank.sol\":4429:4435  amount */\n      dup1\n        /* \"contracts/KipuBank.sol\":3606:3607  0 */\n      0x00\n        /* \"contracts/KipuBank.sol\":3596:3602  amount */\n      dup2\n        /* \"contracts/KipuBank.sol\":3596:3607  amount == 0 */\n      sub\n        /* \"contracts/KipuBank.sol\":3592:3628  if (amount == 0) revert ZeroAmount() */\n      tag_52\n      jumpi\n        /* \"contracts/KipuBank.sol\":3616:3628  ZeroAmount() */\n      mload(0x40)\n      0x1f2a200500000000000000000000000000000000000000000000000000000000\n      dup2\n      mstore\n      0x04\n      add\n      mload(0x40)\n      dup1\n      swap2\n      sub\n      swap1\n      revert\n        /* \"contracts/KipuBank.sol\":3592:3628  if (amount == 0) revert ZeroAmount() */\n    tag_52:\n        /* \"contracts/KipuBank.sol\":4447:4462  uint256 balance */\n      0x00\n        /* \"contracts/KipuBank.sol\":4465:4474  _balances */\n      0x00\n        /* \"contracts/KipuBank.sol\":4465:4486  _balances[msg.sender] */\n      0x00\n        /* \"contracts/KipuBank.sol\":4475:4485  msg.sender */\n      caller\n        /* \"contracts/KipuBank.sol\":4465:4486  _balances[msg.sender] */\n      0xffffffffffffffffffffffffffffffffffffffff\n      and\n      0xffffffffffffffffffffffffffffffffffffffff\n      and\n      dup2\n      mstore\n      0x20\n      add\n      swap1\n      dup2\n      mstore\n      0x20\n      add\n      0x00\n      keccak256\n      sload\n        /* \"contracts/KipuBank.sol\":4447:4486  uint256 balance = _balances[msg.sender] */\n      swap1\n      pop\n        /* \"contracts/KipuBank.sol\":4510:4517  balance */\n      dup1\n        /* \"contracts/KipuBank.sol\":4501:4507  amount */\n      dup4\n        /* \"contracts/KipuBank.sol\":4501:4517  amount > balance */\n      gt\n        /* \"contracts/KipuBank.sol\":4497:4562  if (amount > balance) revert InsufficientBalance(amount, balance) */\n      iszero\n      tag_54\n      jumpi\n        /* \"contracts/KipuBank.sol\":4546:4552  amount */\n      dup3\n        /* \"contracts/KipuBank.sol\":4554:4561  balance */\n      dup2\n        /* \"contracts/KipuBank.sol\":4526:4562  InsufficientBalance(amount, balance) */\n      mload(0x40)\n      0xcf47918100000000000000000000000000000000000000000000000000000000\n      dup2\n      mstore\n      0x04\n      add\n      tag_55\n      swap3\n      swap2\n      swap1\n      tag_56\n      jump\t// in\n    tag_55:\n      mload(0x40)\n      dup1\n      swap2\n      sub\n      swap1\n      revert\n        /* \"contracts/KipuBank.sol\":4497:4562  if (amount > balance) revert InsufficientBalance(amount, balance) */\n    tag_54:\n        /* \"contracts/KipuBank.sol\":4585:4603  withdrawLimitPerTx */\n      immutable(\"0xceebf77a833b30520287ddd9478ff51abbdffa30aa90a8d655dba0e8a79ce0c1\")\n        /* \"contracts/KipuBank.sol\":4576:4582  amount */\n      dup4\n        /* \"contracts/KipuBank.sol\":4576:4603  amount > withdrawLimitPerTx */\n      gt\n        /* \"contracts/KipuBank.sol\":4572:4661  if (amount > withdrawLimitPerTx) revert WithdrawLimitExceeded(amount, withdrawLimitPerTx) */\n      iszero\n      tag_57\n      jumpi\n        /* \"contracts/KipuBank.sol\":4634:4640  amount */\n      dup3\n        /* \"contracts/KipuBank.sol\":4642:4660  withdrawLimitPerTx */\n      immutable(\"0xceebf77a833b30520287ddd9478ff51abbdffa30aa90a8d655dba0e8a79ce0c1\")\n        /* \"contracts/KipuBank.sol\":4612:4661  WithdrawLimitExceeded(amount, withdrawLimitPerTx) */\n      mload(0x40)\n      0x016d0ef100000000000000000000000000000000000000000000000000000000\n      dup2\n      mstore\n      0x04\n      add\n      tag_58\n      swap3\n      swap2\n      swap1\n      tag_56\n      jump\t// in\n    tag_58:\n      mload(0x40)\n      dup1\n      swap2\n      sub\n      swap1\n      revert\n        /* \"contracts/KipuBank.sol\":4572:4661  if (amount > withdrawLimitPerTx) revert WithdrawLimitExceeded(amount, withdrawLimitPerTx) */\n    tag_57:\n        /* \"contracts/KipuBank.sol\":4697:4703  amount */\n      dup3\n        /* \"contracts/KipuBank.sol\":4672:4681  _balances */\n      0x00\n        /* \"contracts/KipuBank.sol\":4672:4693  _balances[msg.sender] */\n      0x00\n        /* \"contracts/KipuBank.sol\":4682:4692  msg.sender */\n      caller\n        /* \"contracts/KipuBank.sol\":4672:4693  _balances[msg.sender] */\n      0xffffffffffffffffffffffffffffffffffffffff\n      and\n      0xffffffffffffffffffffffffffffffffffffffff\n      and\n      dup2\n      mstore\n      0x20\n      add\n      swap1\n      dup2\n      mstore\n      0x20\n      add\n      0x00\n      keccak256\n      0x00\n        /* \"contracts/KipuBank.sol\":4672:4703  _balances[msg.sender] -= amount */\n      dup3\n      dup3\n      sload\n      tag_59\n      swap2\n      swap1\n      tag_60\n      jump\t// in\n    tag_59:\n      swap3\n      pop\n      pop\n      dup2\n      swap1\n      sstore\n      pop\n        /* \"contracts/KipuBank.sol\":4731:4737  amount */\n      dup3\n        /* \"contracts/KipuBank.sol\":4713:4727  totalDeposited */\n      0x01\n      0x00\n        /* \"contracts/KipuBank.sol\":4713:4737  totalDeposited -= amount */\n      dup3\n      dup3\n      sload\n      tag_61\n      swap2\n      swap1\n      tag_60\n      jump\t// in\n    tag_61:\n      swap3\n      pop\n      pop\n      dup2\n      swap1\n      sstore\n      pop\n        /* \"contracts/KipuBank.sol\":4747:4760  withdrawCount */\n      0x03\n      0x00\n        /* \"contracts/KipuBank.sol\":4747:4762  withdrawCount++ */\n      dup2\n      sload\n      dup1\n      swap3\n      swap2\n      swap1\n      tag_62\n      swap1\n      tag_63\n      jump\t// in\n    tag_62:\n      swap2\n      swap1\n      pop\n      sstore\n      pop\n        /* \"contracts/KipuBank.sol\":4774:4786  bool success */\n      0x00\n        /* \"contracts/KipuBank.sol\":4800:4810  msg.sender */\n      caller\n        /* \"contracts/KipuBank.sol\":4792:4816  payable(msg.sender).call */\n      0xffffffffffffffffffffffffffffffffffffffff\n      and\n        /* \"contracts/KipuBank.sol\":4824:4830  amount */\n      dup5\n        /* \"contracts/KipuBank.sol\":4792:4835  payable(msg.sender).call{value: amount}(\"\") */\n      mload(0x40)\n      tag_64\n      swap1\n      tag_65\n      jump\t// in\n    tag_64:\n      0x00\n      mload(0x40)\n      dup1\n      dup4\n      sub\n      dup2\n      dup6\n      dup8\n      gas\n      call\n      swap3\n      pop\n      pop\n      pop\n      returndatasize\n      dup1\n      0x00\n      dup2\n      eq\n      tag_68\n      jumpi\n      mload(0x40)\n      swap2\n      pop\n      and(add(returndatasize, 0x3f), not(0x1f))\n      dup3\n      add\n      0x40\n      mstore\n      returndatasize\n      dup3\n      mstore\n      returndatasize\n      0x00\n      0x20\n      dup5\n      add\n      returndatacopy\n      jump(tag_67)\n    tag_68:\n      0x60\n      swap2\n      pop\n    tag_67:\n      pop\n        /* \"contracts/KipuBank.sol\":4773:4835  (bool success, ) = payable(msg.sender).call{value: amount}(\"\") */\n      pop\n      swap1\n      pop\n        /* \"contracts/KipuBank.sol\":4850:4857  success */\n      dup1\n        /* \"contracts/KipuBank.sol\":4845:4882  if (!success) revert TransferFailed() */\n      tag_69\n      jumpi\n        /* \"contracts/KipuBank.sol\":4866:4882  TransferFailed() */\n      mload(0x40)\n      0x90b8ec1800000000000000000000000000000000000000000000000000000000\n      dup2\n      mstore\n      0x04\n      add\n      mload(0x40)\n      dup1\n      swap2\n      sub\n      swap1\n      revert\n        /* \"contracts/KipuBank.sol\":4845:4882  if (!success) revert TransferFailed() */\n    tag_69:\n        /* \"contracts/KipuBank.sol\":4907:4917  msg.sender */\n      caller\n        /* \"contracts/KipuBank.sol\":4898:4965  Withdraw(msg.sender, amount, _balances[msg.sender], totalDeposited) */\n      0xffffffffffffffffffffffffffffffffffffffff\n      and\n      0x02f25270a4d87bea75db541cdfe559334a275b4a233520ed6c0a2429667cca94\n        /* \"contracts/KipuBank.sol\":4919:4925  amount */\n      dup6\n        /* \"contracts/KipuBank.sol\":4927:4936  _balances */\n      0x00\n        /* \"contracts/KipuBank.sol\":4927:4948  _balances[msg.sender] */\n      0x00\n        /* \"contracts/KipuBank.sol\":4937:4947  msg.sender */\n      caller\n        /* \"contracts/KipuBank.sol\":4927:4948  _balances[msg.sender] */\n      0xffffffffffffffffffffffffffffffffffffffff\n      and\n      0xffffffffffffffffffffffffffffffffffffffff\n      and\n      dup2\n      mstore\n      0x20\n      add\n      swap1\n      dup2\n      mstore\n      0x20\n      add\n      0x00\n      keccak256\n      sload\n        /* \"contracts/KipuBank.sol\":4950:4964  totalDeposited */\n      sload(0x01)\n        /* \"contracts/KipuBank.sol\":4898:4965  Withdraw(msg.sender, amount, _balances[msg.sender], totalDeposited) */\n      mload(0x40)\n      tag_70\n      swap4\n      swap3\n      swap2\n      swap1\n      tag_71\n      jump\t// in\n    tag_70:\n      mload(0x40)\n      dup1\n      swap2\n      sub\n      swap1\n      log2\n        /* \"contracts/KipuBank.sol\":4437:4972  {... */\n      pop\n      pop\n        /* \"contracts/KipuBank.sol\":4378:4972  function withdraw(uint256 amount) external nonZero(amount) {... */\n      pop\n      pop\n      jump\t// out\n        /* \"contracts/KipuBank.sol\":1327:1355  uint256 public withdrawCount */\n    tag_29:\n      sload(0x03)\n      dup2\n      jump\t// out\n        /* \"contracts/KipuBank.sol\":5097:5201  function balanceOf(address user) external view returns (uint256) {... */\n    tag_35:\n        /* \"contracts/KipuBank.sol\":5153:5160  uint256 */\n      0x00\n        /* \"contracts/KipuBank.sol\":5179:5188  _balances */\n      0x00\n        /* \"contracts/KipuBank.sol\":5179:5194  _balances[user] */\n      0x00\n        /* \"contracts/KipuBank.sol\":5189:5193  user */\n      dup4\n        /* \"contracts/KipuBank.sol\":5179:5194  _balances[user] */\n      0xffffffffffffffffffffffffffffffffffffffff\n      and\n      0xffffffffffffffffffffffffffffffffffffffff\n      and\n      dup2\n      mstore\n      0x20\n      add\n      swap1\n      dup2\n      mstore\n      0x20\n      add\n      0x00\n      keccak256\n      sload\n        /* \"contracts/KipuBank.sol\":5172:5194  return _balances[user] */\n      swap1\n      pop\n        /* \"contracts/KipuBank.sol\":5097:5201  function balanceOf(address user) external view returns (uint256) {... */\n      swap2\n      swap1\n      pop\n      jump\t// out\n        /* \"contracts/KipuBank.sol\":641:684  uint256 public immutable withdrawLimitPerTx */\n    tag_39:\n      immutable(\"0xceebf77a833b30520287ddd9478ff51abbdffa30aa90a8d655dba0e8a79ce0c1\")\n      dup2\n      jump\t// out\n        /* \"contracts/KipuBank.sol\":3881:4236  function deposit() external payable nonZero(msg.value) {... */\n    tag_42:\n        /* \"contracts/KipuBank.sol\":3925:3934  msg.value */\n      callvalue\n        /* \"contracts/KipuBank.sol\":3606:3607  0 */\n      0x00\n        /* \"contracts/KipuBank.sol\":3596:3602  amount */\n      dup2\n        /* \"contracts/KipuBank.sol\":3596:3607  amount == 0 */\n      sub\n        /* \"contracts/KipuBank.sol\":3592:3628  if (amount == 0) revert ZeroAmount() */\n      tag_74\n      jumpi\n        /* \"contracts/KipuBank.sol\":3616:3628  ZeroAmount() */\n      mload(0x40)\n      0x1f2a200500000000000000000000000000000000000000000000000000000000\n      dup2\n      mstore\n      0x04\n      add\n      mload(0x40)\n      dup1\n      swap2\n      sub\n      swap1\n      revert\n        /* \"contracts/KipuBank.sol\":3592:3628  if (amount == 0) revert ZeroAmount() */\n    tag_74:\n        /* \"contracts/KipuBank.sol\":3975:3982  bankCap */\n      immutable(\"0xe4b1702d9298fee62dfeccc57d322a463ad55ca201256d01f62b45b2e1c21c10\")\n        /* \"contracts/KipuBank.sol\":3963:3972  msg.value */\n      callvalue\n        /* \"contracts/KipuBank.sol\":3946:3960  totalDeposited */\n      sload(0x01)\n        /* \"contracts/KipuBank.sol\":3946:3972  totalDeposited + msg.value */\n      tag_76\n      swap2\n      swap1\n      tag_77\n      jump\t// in\n    tag_76:\n        /* \"contracts/KipuBank.sol\":3946:3982  totalDeposited + msg.value > bankCap */\n      gt\n        /* \"contracts/KipuBank.sol\":3942:4059  if (totalDeposited + msg.value > bankCap) {... */\n      iszero\n      tag_78\n      jumpi\n        /* \"contracts/KipuBank.sol\":4017:4026  msg.value */\n      callvalue\n        /* \"contracts/KipuBank.sol\":4028:4042  totalDeposited */\n      sload(0x01)\n        /* \"contracts/KipuBank.sol\":4044:4051  bankCap */\n      immutable(\"0xe4b1702d9298fee62dfeccc57d322a463ad55ca201256d01f62b45b2e1c21c10\")\n        /* \"contracts/KipuBank.sol\":4001:4052  BankCapExceeded(msg.value, totalDeposited, bankCap) */\n      mload(0x40)\n      0x621e5a6900000000000000000000000000000000000000000000000000000000\n      dup2\n      mstore\n      0x04\n      add\n      tag_79\n      swap4\n      swap3\n      swap2\n      swap1\n      tag_71\n      jump\t// in\n    tag_79:\n      mload(0x40)\n      dup1\n      swap2\n      sub\n      swap1\n      revert\n        /* \"contracts/KipuBank.sol\":3942:4059  if (totalDeposited + msg.value > bankCap) {... */\n    tag_78:\n        /* \"contracts/KipuBank.sol\":4065:4099  _addBalance(msg.sender, msg.value) */\n      tag_80\n        /* \"contracts/KipuBank.sol\":4077:4087  msg.sender */\n      caller\n        /* \"contracts/KipuBank.sol\":4089:4098  msg.value */\n      callvalue\n        /* \"contracts/KipuBank.sol\":4065:4076  _addBalance */\n      tag_81\n        /* \"contracts/KipuBank.sol\":4065:4099  _addBalance(msg.sender, msg.value) */\n      jump\t// in\n    tag_80:\n        /* \"contracts/KipuBank.sol\":4123:4132  msg.value */\n      callvalue\n        /* \"contracts/KipuBank.sol\":4105:4119  totalDeposited */\n      0x01\n      0x00\n        /* \"contracts/KipuBank.sol\":4105:4132  totalDeposited += msg.value */\n      dup3\n      dup3\n      sload\n      tag_82\n      swap2\n      swap1\n      tag_77\n      jump\t// in\n    tag_82:\n      swap3\n      pop\n      pop\n      dup2\n      swap1\n      sstore\n      pop\n        /* \"contracts/KipuBank.sol\":4138:4150  depositCount */\n      0x02\n      0x00\n        /* \"contracts/KipuBank.sol\":4138:4152  depositCount++ */\n      dup2\n      sload\n      dup1\n      swap3\n      swap2\n      swap1\n      tag_83\n      swap1\n      tag_63\n      jump\t// in\n    tag_83:\n      swap2\n      swap1\n      pop\n      sstore\n      pop\n        /* \"contracts/KipuBank.sol\":4172:4182  msg.sender */\n      caller\n        /* \"contracts/KipuBank.sol\":4164:4233  Deposit(msg.sender, msg.value, _balances[msg.sender], totalDeposited) */\n      0xffffffffffffffffffffffffffffffffffffffff\n      and\n      0x36af321ec8d3c75236829c5317affd40ddb308863a1236d2d277a4025cccee1e\n        /* \"contracts/KipuBank.sol\":4184:4193  msg.value */\n      callvalue\n        /* \"contracts/KipuBank.sol\":4195:4204  _balances */\n      0x00\n        /* \"contracts/KipuBank.sol\":4195:4216  _balances[msg.sender] */\n      0x00\n        /* \"contracts/KipuBank.sol\":4205:4215  msg.sender */\n      caller\n        /* \"contracts/KipuBank.sol\":4195:4216  _balances[msg.sender] */\n      0xffffffffffffffffffffffffffffffffffffffff\n      and\n      0xffffffffffffffffffffffffffffffffffffffff\n      and\n      dup2\n      mstore\n      0x20\n      add\n      swap1\n      dup2\n      mstore\n      0x20\n      add\n      0x00\n      keccak256\n      sload\n        /* \"contracts/KipuBank.sol\":4218:4232  totalDeposited */\n      sload(0x01)\n        /* \"contracts/KipuBank.sol\":4164:4233  Deposit(msg.sender, msg.value, _balances[msg.sender], totalDeposited) */\n      mload(0x40)\n      tag_84\n      swap4\n      swap3\n      swap2\n      swap1\n      tag_71\n      jump\t// in\n    tag_84:\n      mload(0x40)\n      dup1\n      swap2\n      sub\n      swap1\n      log2\n        /* \"contracts/KipuBank.sol\":3881:4236  function deposit() external payable nonZero(msg.value) {... */\n      pop\n      jump\t// out\n        /* \"contracts/KipuBank.sol\":763:795  uint256 public immutable bankCap */\n    tag_45:\n      immutable(\"0xe4b1702d9298fee62dfeccc57d322a463ad55ca201256d01f62b45b2e1c21c10\")\n      dup2\n      jump\t// out\n        /* \"contracts/KipuBank.sol\":1150:1179  uint256 public totalDeposited */\n    tag_49:\n      sload(0x01)\n      dup2\n      jump\t// out\n        /* \"contracts/KipuBank.sol\":5481:5582  function _addBalance(address user, uint256 amount) private {... */\n    tag_81:\n        /* \"contracts/KipuBank.sol\":5569:5575  amount */\n      dup1\n        /* \"contracts/KipuBank.sol\":5550:5559  _balances */\n      0x00\n        /* \"contracts/KipuBank.sol\":5550:5565  _balances[user] */\n      0x00\n        /* \"contracts/KipuBank.sol\":5560:5564  user */\n      dup5\n        /* \"contracts/KipuBank.sol\":5550:5565  _balances[user] */\n      0xffffffffffffffffffffffffffffffffffffffff\n      and\n      0xffffffffffffffffffffffffffffffffffffffff\n      and\n      dup2\n      mstore\n      0x20\n      add\n      swap1\n      dup2\n      mstore\n      0x20\n      add\n      0x00\n      keccak256\n      0x00\n        /* \"contracts/KipuBank.sol\":5550:5575  _balances[user] += amount */\n      dup3\n      dup3\n      sload\n      tag_86\n      swap2\n      swap1\n      tag_77\n      jump\t// in\n    tag_86:\n      swap3\n      pop\n      pop\n      dup2\n      swap1\n      sstore\n      pop\n        /* \"contracts/KipuBank.sol\":5481:5582  function _addBalance(address user, uint256 amount) private {... */\n      pop\n      pop\n      jump\t// out\n        /* \"#utility.yul\":7:84   */\n    tag_87:\n        /* \"#utility.yul\":44:51   */\n      0x00\n        /* \"#utility.yul\":73:78   */\n      dup2\n        /* \"#utility.yul\":62:78   */\n      swap1\n      pop\n        /* \"#utility.yul\":7:84   */\n      swap2\n      swap1\n      pop\n      jump\t// out\n        /* \"#utility.yul\":90:208   */\n    tag_88:\n        /* \"#utility.yul\":177:201   */\n      tag_105\n        /* \"#utility.yul\":195:200   */\n      dup2\n        /* \"#utility.yul\":177:201   */\n      tag_87\n      jump\t// in\n    tag_105:\n        /* \"#utility.yul\":172:175   */\n      dup3\n        /* \"#utility.yul\":165:202   */\n      mstore\n        /* \"#utility.yul\":90:208   */\n      pop\n      pop\n      jump\t// out\n        /* \"#utility.yul\":214:436   */\n    tag_21:\n        /* \"#utility.yul\":307:311   */\n      0x00\n        /* \"#utility.yul\":345:347   */\n      0x20\n        /* \"#utility.yul\":334:343   */\n      dup3\n        /* \"#utility.yul\":330:348   */\n      add\n        /* \"#utility.yul\":322:348   */\n      swap1\n      pop\n        /* \"#utility.yul\":358:429   */\n      tag_107\n        /* \"#utility.yul\":426:427   */\n      0x00\n        /* \"#utility.yul\":415:424   */\n      dup4\n        /* \"#utility.yul\":411:428   */\n      add\n        /* \"#utility.yul\":402:408   */\n      dup5\n        /* \"#utility.yul\":358:429   */\n      tag_88\n      jump\t// in\n    tag_107:\n        /* \"#utility.yul\":214:436   */\n      swap3\n      swap2\n      pop\n      pop\n      jump\t// out\n        /* \"#utility.yul\":523:640   */\n    tag_90:\n        /* \"#utility.yul\":632:633   */\n      0x00\n        /* \"#utility.yul\":629:630   */\n      0x00\n        /* \"#utility.yul\":622:634   */\n      revert\n        /* \"#utility.yul\":769:891   */\n    tag_92:\n        /* \"#utility.yul\":842:866   */\n      tag_112\n        /* \"#utility.yul\":860:865   */\n      dup2\n        /* \"#utility.yul\":842:866   */\n      tag_87\n      jump\t// in\n    tag_112:\n        /* \"#utility.yul\":835:840   */\n      dup2\n        /* \"#utility.yul\":832:867   */\n      eq\n        /* \"#utility.yul\":822:885   */\n      tag_113\n      jumpi\n        /* \"#utility.yul\":881:882   */\n      0x00\n        /* \"#utility.yul\":878:879   */\n      0x00\n        /* \"#utility.yul\":871:883   */\n      revert\n        /* \"#utility.yul\":822:885   */\n    tag_113:\n        /* \"#utility.yul\":769:891   */\n      pop\n      jump\t// out\n        /* \"#utility.yul\":897:1036   */\n    tag_93:\n        /* \"#utility.yul\":943:948   */\n      0x00\n        /* \"#utility.yul\":981:987   */\n      dup2\n        /* \"#utility.yul\":968:988   */\n      calldataload\n        /* \"#utility.yul\":959:988   */\n      swap1\n      pop\n        /* \"#utility.yul\":997:1030   */\n      tag_115\n        /* \"#utility.yul\":1024:1029   */\n      dup2\n        /* \"#utility.yul\":997:1030   */\n      tag_92\n      jump\t// in\n    tag_115:\n        /* \"#utility.yul\":897:1036   */\n      swap3\n      swap2\n      pop\n      pop\n      jump\t// out\n        /* \"#utility.yul\":1042:1371   */\n    tag_25:\n        /* \"#utility.yul\":1101:1107   */\n      0x00\n        /* \"#utility.yul\":1150:1152   */\n      0x20\n        /* \"#utility.yul\":1138:1147   */\n      dup3\n        /* \"#utility.yul\":1129:1136   */\n      dup5\n        /* \"#utility.yul\":1125:1148   */\n      sub\n        /* \"#utility.yul\":1121:1153   */\n      slt\n        /* \"#utility.yul\":1118:1237   */\n      iszero\n      tag_117\n      jumpi\n        /* \"#utility.yul\":1156:1235   */\n      tag_118\n      tag_90\n      jump\t// in\n    tag_118:\n        /* \"#utility.yul\":1118:1237   */\n    tag_117:\n        /* \"#utility.yul\":1276:1277   */\n      0x00\n        /* \"#utility.yul\":1301:1354   */\n      tag_119\n        /* \"#utility.yul\":1346:1353   */\n      dup5\n        /* \"#utility.yul\":1337:1343   */\n      dup3\n        /* \"#utility.yul\":1326:1335   */\n      dup6\n        /* \"#utility.yul\":1322:1344   */\n      add\n        /* \"#utility.yul\":1301:1354   */\n      tag_93\n      jump\t// in\n    tag_119:\n        /* \"#utility.yul\":1291:1354   */\n      swap2\n      pop\n        /* \"#utility.yul\":1247:1364   */\n      pop\n        /* \"#utility.yul\":1042:1371   */\n      swap3\n      swap2\n      pop\n      pop\n      jump\t// out\n        /* \"#utility.yul\":1377:1503   */\n    tag_94:\n        /* \"#utility.yul\":1414:1421   */\n      0x00\n        /* \"#utility.yul\":1454:1496   */\n      0xffffffffffffffffffffffffffffffffffffffff\n        /* \"#utility.yul\":1447:1452   */\n      dup3\n        /* \"#utility.yul\":1443:1497   */\n      and\n        /* \"#utility.yul\":1432:1497   */\n      swap1\n      pop\n        /* \"#utility.yul\":1377:1503   */\n      swap2\n      swap1\n      pop\n      jump\t// out\n        /* \"#utility.yul\":1509:1605   */\n    tag_95:\n        /* \"#utility.yul\":1546:1553   */\n      0x00\n        /* \"#utility.yul\":1575:1599   */\n      tag_122\n        /* \"#utility.yul\":1593:1598   */\n      dup3\n        /* \"#utility.yul\":1575:1599   */\n      tag_94\n      jump\t// in\n    tag_122:\n        /* \"#utility.yul\":1564:1599   */\n      swap1\n      pop\n        /* \"#utility.yul\":1509:1605   */\n      swap2\n      swap1\n      pop\n      jump\t// out\n        /* \"#utility.yul\":1611:1733   */\n    tag_96:\n        /* \"#utility.yul\":1684:1708   */\n      tag_124\n        /* \"#utility.yul\":1702:1707   */\n      dup2\n        /* \"#utility.yul\":1684:1708   */\n      tag_95\n      jump\t// in\n    tag_124:\n        /* \"#utility.yul\":1677:1682   */\n      dup2\n        /* \"#utility.yul\":1674:1709   */\n      eq\n        /* \"#utility.yul\":1664:1727   */\n      tag_125\n      jumpi\n        /* \"#utility.yul\":1723:1724   */\n      0x00\n        /* \"#utility.yul\":1720:1721   */\n      0x00\n        /* \"#utility.yul\":1713:1725   */\n      revert\n        /* \"#utility.yul\":1664:1727   */\n    tag_125:\n        /* \"#utility.yul\":1611:1733   */\n      pop\n      jump\t// out\n        /* \"#utility.yul\":1739:1878   */\n    tag_97:\n        /* \"#utility.yul\":1785:1790   */\n      0x00\n        /* \"#utility.yul\":1823:1829   */\n      dup2\n        /* \"#utility.yul\":1810:1830   */\n      calldataload\n        /* \"#utility.yul\":1801:1830   */\n      swap1\n      pop\n        /* \"#utility.yul\":1839:1872   */\n      tag_127\n        /* \"#utility.yul\":1866:1871   */\n      dup2\n        /* \"#utility.yul\":1839:1872   */\n      tag_96\n      jump\t// in\n    tag_127:\n        /* \"#utility.yul\":1739:1878   */\n      swap3\n      swap2\n      pop\n      pop\n      jump\t// out\n        /* \"#utility.yul\":1884:2213   */\n    tag_34:\n        /* \"#utility.yul\":1943:1949   */\n      0x00\n        /* \"#utility.yul\":1992:1994   */\n      0x20\n        /* \"#utility.yul\":1980:1989   */\n      dup3\n        /* \"#utility.yul\":1971:1978   */\n      dup5\n        /* \"#utility.yul\":1967:1990   */\n      sub\n        /* \"#utility.yul\":1963:1995   */\n      slt\n        /* \"#utility.yul\":1960:2079   */\n      iszero\n      tag_129\n      jumpi\n        /* \"#utility.yul\":1998:2077   */\n      tag_130\n      tag_90\n      jump\t// in\n    tag_130:\n        /* \"#utility.yul\":1960:2079   */\n    tag_129:\n        /* \"#utility.yul\":2118:2119   */\n      0x00\n        /* \"#utility.yul\":2143:2196   */\n      tag_131\n        /* \"#utility.yul\":2188:2195   */\n      dup5\n        /* \"#utility.yul\":2179:2185   */\n      dup3\n        /* \"#utility.yul\":2168:2177   */\n      dup6\n        /* \"#utility.yul\":2164:2186   */\n      add\n        /* \"#utility.yul\":2143:2196   */\n      tag_97\n      jump\t// in\n    tag_131:\n        /* \"#utility.yul\":2133:2196   */\n      swap2\n      pop\n        /* \"#utility.yul\":2089:2206   */\n      pop\n        /* \"#utility.yul\":1884:2213   */\n      swap3\n      swap2\n      pop\n      pop\n      jump\t// out\n        /* \"#utility.yul\":2219:2551   */\n    tag_56:\n        /* \"#utility.yul\":2340:2344   */\n      0x00\n        /* \"#utility.yul\":2378:2380   */\n      0x40\n        /* \"#utility.yul\":2367:2376   */\n      dup3\n        /* \"#utility.yul\":2363:2381   */\n      add\n        /* \"#utility.yul\":2355:2381   */\n      swap1\n      pop\n        /* \"#utility.yul\":2391:2462   */\n      tag_133\n        /* \"#utility.yul\":2459:2460   */\n      0x00\n        /* \"#utility.yul\":2448:2457   */\n      dup4\n        /* \"#utility.yul\":2444:2461   */\n      add\n        /* \"#utility.yul\":2435:2441   */\n      dup6\n        /* \"#utility.yul\":2391:2462   */\n      tag_88\n      jump\t// in\n    tag_133:\n        /* \"#utility.yul\":2472:2544   */\n      tag_134\n        /* \"#utility.yul\":2540:2542   */\n      0x20\n        /* \"#utility.yul\":2529:2538   */\n      dup4\n        /* \"#utility.yul\":2525:2543   */\n      add\n        /* \"#utility.yul\":2516:2522   */\n      dup5\n        /* \"#utility.yul\":2472:2544   */\n      tag_88\n      jump\t// in\n    tag_134:\n        /* \"#utility.yul\":2219:2551   */\n      swap4\n      swap3\n      pop\n      pop\n      pop\n      jump\t// out\n        /* \"#utility.yul\":2557:2737   */\n    tag_98:\n        /* \"#utility.yul\":2605:2682   */\n      0x4e487b7100000000000000000000000000000000000000000000000000000000\n        /* \"#utility.yul\":2602:2603   */\n      0x00\n        /* \"#utility.yul\":2595:2683   */\n      mstore\n        /* \"#utility.yul\":2702:2706   */\n      0x11\n        /* \"#utility.yul\":2699:2700   */\n      0x04\n        /* \"#utility.yul\":2692:2707   */\n      mstore\n        /* \"#utility.yul\":2726:2730   */\n      0x24\n        /* \"#utility.yul\":2723:2724   */\n      0x00\n        /* \"#utility.yul\":2716:2731   */\n      revert\n        /* \"#utility.yul\":2743:2937   */\n    tag_60:\n        /* \"#utility.yul\":2783:2787   */\n      0x00\n        /* \"#utility.yul\":2803:2823   */\n      tag_137\n        /* \"#utility.yul\":2821:2822   */\n      dup3\n        /* \"#utility.yul\":2803:2823   */\n      tag_87\n      jump\t// in\n    tag_137:\n        /* \"#utility.yul\":2798:2823   */\n      swap2\n      pop\n        /* \"#utility.yul\":2837:2857   */\n      tag_138\n        /* \"#utility.yul\":2855:2856   */\n      dup4\n        /* \"#utility.yul\":2837:2857   */\n      tag_87\n      jump\t// in\n    tag_138:\n        /* \"#utility.yul\":2832:2857   */\n      swap3\n      pop\n        /* \"#utility.yul\":2881:2882   */\n      dup3\n        /* \"#utility.yul\":2878:2879   */\n      dup3\n        /* \"#utility.yul\":2874:2883   */\n      sub\n        /* \"#utility.yul\":2866:2883   */\n      swap1\n      pop\n        /* \"#utility.yul\":2905:2906   */\n      dup2\n        /* \"#utility.yul\":2899:2903   */\n      dup2\n        /* \"#utility.yul\":2896:2907   */\n      gt\n        /* \"#utility.yul\":2893:2930   */\n      iszero\n      tag_139\n      jumpi\n        /* \"#utility.yul\":2910:2928   */\n      tag_140\n      tag_98\n      jump\t// in\n    tag_140:\n        /* \"#utility.yul\":2893:2930   */\n    tag_139:\n        /* \"#utility.yul\":2743:2937   */\n      swap3\n      swap2\n      pop\n      pop\n      jump\t// out\n        /* \"#utility.yul\":2943:3176   */\n    tag_63:\n        /* \"#utility.yul\":2982:2985   */\n      0x00\n        /* \"#utility.yul\":3005:3029   */\n      tag_142\n        /* \"#utility.yul\":3023:3028   */\n      dup3\n        /* \"#utility.yul\":3005:3029   */\n      tag_87\n      jump\t// in\n    tag_142:\n        /* \"#utility.yul\":2996:3029   */\n      swap2\n      pop\n        /* \"#utility.yul\":3051:3117   */\n      0xffffffffffffffffffffffffffffffffffffffffffffffffffffffffffffffff\n        /* \"#utility.yul\":3044:3049   */\n      dup3\n        /* \"#utility.yul\":3041:3118   */\n      sub\n        /* \"#utility.yul\":3038:3141   */\n      tag_143\n      jumpi\n        /* \"#utility.yul\":3121:3139   */\n      tag_144\n      tag_98\n      jump\t// in\n    tag_144:\n        /* \"#utility.yul\":3038:3141   */\n    tag_143:\n        /* \"#utility.yul\":3168:3169   */\n      0x01\n        /* \"#utility.yul\":3161:3166   */\n      dup3\n        /* \"#utility.yul\":3157:3170   */\n      add\n        /* \"#utility.yul\":3150:3170   */\n      swap1\n      pop\n        /* \"#utility.yul\":2943:3176   */\n      swap2\n      swap1\n      pop\n      jump\t// out\n        /* \"#utility.yul\":3182:3329   */\n    tag_99:\n        /* \"#utility.yul\":3283:3294   */\n      0x00\n        /* \"#utility.yul\":3320:3323   */\n      dup2\n        /* \"#utility.yul\":3305:3323   */\n      swap1\n      pop\n        /* \"#utility.yul\":3182:3329   */\n      swap3\n      swap2\n      pop\n      pop\n      jump\t// out\n        /* \"#utility.yul\":3335:3449   */\n    tag_100:\n      pop\n      jump\t// out\n        /* \"#utility.yul\":3455:3853   */\n    tag_101:\n        /* \"#utility.yul\":3614:3617   */\n      0x00\n        /* \"#utility.yul\":3635:3718   */\n      tag_148\n        /* \"#utility.yul\":3716:3717   */\n      0x00\n        /* \"#utility.yul\":3711:3714   */\n      dup4\n        /* \"#utility.yul\":3635:3718   */\n      tag_99\n      jump\t// in\n    tag_148:\n        /* \"#utility.yul\":3628:3718   */\n      swap2\n      pop\n        /* \"#utility.yul\":3727:3820   */\n      tag_149\n        /* \"#utility.yul\":3816:3819   */\n      dup3\n        /* \"#utility.yul\":3727:3820   */\n      tag_100\n      jump\t// in\n    tag_149:\n        /* \"#utility.yul\":3845:3846   */\n      0x00\n        /* \"#utility.yul\":3840:3843   */\n      dup3\n        /* \"#utility.yul\":3836:3847   */\n      add\n        /* \"#utility.yul\":3829:3847   */\n      swap1\n      pop\n        /* \"#utility.yul\":3455:3853   */\n      swap2\n      swap1\n      pop\n      jump\t// out\n        /* \"#utility.yul\":3859:4238   */\n    tag_65:\n        /* \"#utility.yul\":4043:4046   */\n      0x00\n        /* \"#utility.yul\":4065:4212   */\n      tag_151\n        /* \"#utility.yul\":4208:4211   */\n      dup3\n        /* \"#utility.yul\":4065:4212   */\n      tag_101\n      jump\t// in\n    tag_151:\n        /* \"#utility.yul\":4058:4212   */\n      swap2\n      pop\n        /* \"#utility.yul\":4229:4232   */\n      dup2\n        /* \"#utility.yul\":4222:4232   */\n      swap1\n      pop\n        /* \"#utility.yul\":3859:4238   */\n      swap2\n      swap1\n      pop\n      jump\t// out\n        /* \"#utility.yul\":4244:4686   */\n    tag_71:\n        /* \"#utility.yul\":4393:4397   */\n      0x00\n        /* \"#utility.yul\":4431:4433   */\n      0x60\n        /* \"#utility.yul\":4420:4429   */\n      dup3\n        /* \"#utility.yul\":4416:4434   */\n      add\n        /* \"#utility.yul\":4408:4434   */\n      swap1\n      pop\n        /* \"#utility.yul\":4444:4515   */\n      tag_153\n        /* \"#utility.yul\":4512:4513   */\n      0x00\n        /* \"#utility.yul\":4501:4510   */\n      dup4\n        /* \"#utility.yul\":4497:4514   */\n      add\n        /* \"#utility.yul\":4488:4494   */\n      dup7\n        /* \"#utility.yul\":4444:4515   */\n      tag_88\n      jump\t// in\n    tag_153:\n        /* \"#utility.yul\":4525:4597   */\n      tag_154\n        /* \"#utility.yul\":4593:4595   */\n      0x20\n        /* \"#utility.yul\":4582:4591   */\n      dup4\n        /* \"#utility.yul\":4578:4596   */\n      add\n        /* \"#utility.yul\":4569:4575   */\n      dup6\n        /* \"#utility.yul\":4525:4597   */\n      tag_88\n      jump\t// in\n    tag_154:\n        /* \"#utility.yul\":4607:4679   */\n      tag_155\n        /* \"#utility.yul\":4675:4677   */\n      0x40\n        /* \"#utility.yul\":4664:4673   */\n      dup4\n        /* \"#utility.yul\":4660:4678   */\n      add\n        /* \"#utility.yul\":4651:4657   */\n      dup5\n        /* \"#utility.yul\":4607:4679   */\n      tag_88\n      jump\t// in\n    tag_155:\n        /* \"#utility.yul\":4244:4686   */\n      swap5\n      swap4\n      pop\n      pop\n      pop\n      pop\n      jump\t// out\n        /* \"#utility.yul\":4692:4883   */\n    tag_77:\n        /* \"#utility.yul\":4732:4735   */\n      0x00\n        /* \"#utility.yul\":4751:4771   */\n      tag_157\n        /* \"#utility.yul\":4769:4770   */\n      dup3\n        /* \"#utility.yul\":4751:4771   */\n      tag_87\n      jump\t// in\n    tag_157:\n        /* \"#utility.yul\":4746:4771   */\n      swap2\n      pop\n        /* \"#utility.yul\":4785:4805   */\n      tag_158\n        /* \"#utility.yul\":4803:4804   */\n      dup4\n        /* \"#utility.yul\":4785:4805   */\n      tag_87\n      jump\t// in\n    tag_158:\n        /* \"#utility.yul\":4780:4805   */\n      swap3\n      pop\n        /* \"#utility.yul\":4828:4829   */\n      dup3\n        /* \"#utility.yul\":4825:4826   */\n      dup3\n        /* \"#utility.yul\":4821:4830   */\n      add\n        /* \"#utility.yul\":4814:4830   */\n      swap1\n      pop\n        /* \"#utility.yul\":4849:4852   */\n      dup1\n        /* \"#utility.yul\":4846:4847   */\n      dup3\n        /* \"#utility.yul\":4843:4853   */\n      gt\n        /* \"#utility.yul\":4840:4876   */\n      iszero\n      tag_159\n      jumpi\n        /* \"#utility.yul\":4856:4874   */\n      tag_160\n      tag_98\n      jump\t// in\n    tag_160:\n        /* \"#utility.yul\":4840:4876   */\n    tag_159:\n        /* \"#utility.yul\":4692:4883   */\n      swap3\n      swap2\n      pop\n      pop\n      jump\t// out\n\n    auxdata: 0xa2646970667358221220d36a6a7a57f550c7adf8e4eef0425b951b37be706d919c4f7372a4c982fdbc1264736f6c634300081e0033\n}\n",
				"bytecode": {
					"linkReferences": {},
					"object": "60c060405234801561000f575f5ffd5b50604051610bac380380610bac833981810160405281019061003191906100c3565b5f82148061003e57505f81145b15610075576040517f1510b77f00000000000000000000000000000000000000000000000000000000815260040160405180910390fd5b8160a0818152505080608081815250505050610101565b5f5ffd5b5f819050919050565b6100a281610090565b81146100ac575f5ffd5b50565b5f815190506100bd81610099565b92915050565b5f5f604083850312156100d9576100d861008c565b5b5f6100e6858286016100af565b92505060206100f7858286016100af565b9150509250929050565b60805160a051610a6e61013e5f395f81816105d001528181610609015261073401525f81816102ea0152818161031301526105720152610a6e5ff3fe60806040526004361061007e575f3560e01c80639c51fd6e1161004d5780639c51fd6e14610199578063d0e30db0146101c3578063ecbea24d146101cd578063ff50abdc146101f7576100dd565b80632dfdf0b5146100e15780632e1a7d4d1461010b5780634cc05a711461013357806370a082311461015d576100dd565b366100dd573073ffffffffffffffffffffffffffffffffffffffff1663d0e30db0346040518263ffffffff1660e01b81526004015f604051808303818588803b1580156100c9575f5ffd5b505af11580156100db573d5f5f3e3d5ffd5b005b5f5ffd5b3480156100ec575f5ffd5b506100f5610221565b60405161010291906107ca565b60405180910390f35b348015610116575f5ffd5b50610131600480360381019061012c9190610811565b610227565b005b34801561013e575f5ffd5b50610147610525565b60405161015491906107ca565b60405180910390f35b348015610168575f5ffd5b50610183600480360381019061017e9190610896565b61052b565b60405161019091906107ca565b60405180910390f35b3480156101a4575f5ffd5b506101ad610570565b6040516101ba91906107ca565b60405180910390f35b6101cb610594565b005b3480156101d8575f5ffd5b506101e1610732565b6040516101ee91906107ca565b60405180910390f35b348015610202575f5ffd5b5061020b610756565b60405161021891906107ca565b60405180910390f35b60025481565b805f8103610261576040517f1f2a200500000000000000000000000000000000000000000000000000000000815260040160405180910390fd5b5f5f5f3373ffffffffffffffffffffffffffffffffffffffff1673ffffffffffffffffffffffffffffffffffffffff1681526020019081526020015f20549050808311156102e85782816040517fcf4791810000000000000000000000000000000000000000000000000000000081526004016102df9291906108c1565b60405180910390fd5b7f000000000000000000000000000000000000000000000000000000000000000083111561036f57827f00000000000000000000000000000000000000000000000000000000000000006040517f016d0ef10000000000000000000000000000000000000000000000000000000081526004016103669291906108c1565b60405180910390fd5b825f5f3373ffffffffffffffffffffffffffffffffffffffff1673ffffffffffffffffffffffffffffffffffffffff1681526020019081526020015f205f8282546103ba9190610915565b925050819055508260015f8282546103d29190610915565b9250508190555060035f8154809291906103eb90610948565b91905055505f3373ffffffffffffffffffffffffffffffffffffffff1684604051610415906109bc565b5f6040518083038185875af1925050503d805f811461044f576040519150601f19603f3d011682016040523d82523d5f602084013e610454565b606091505b505090508061048f576040517f90b8ec1800000000000000000000000000000000000000000000000000000000815260040160405180910390fd5b3373ffffffffffffffffffffffffffffffffffffffff167f02f25270a4d87bea75db541cdfe559334a275b4a233520ed6c0a2429667cca94855f5f3373ffffffffffffffffffffffffffffffffffffffff1673ffffffffffffffffffffffffffffffffffffffff1681526020019081526020015f2054600154604051610517939291906109d0565b60405180910390a250505050565b60035481565b5f5f5f8373ffffffffffffffffffffffffffffffffffffffff1673ffffffffffffffffffffffffffffffffffffffff1681526020019081526020015f20549050919050565b7f000000000000000000000000000000000000000000000000000000000000000081565b345f81036105ce576040517f1f2a200500000000000000000000000000000000000000000000000000000000815260040160405180910390fd5b7f0000000000000000000000000000000000000000000000000000000000000000346001546105fd9190610a05565b111561066657346001547f00000000000000000000000000000000000000000000000000000000000000006040517f621e5a6900000000000000000000000000000000000000000000000000000000815260040161065d939291906109d0565b60405180910390fd5b610670333461075c565b3460015f8282546106819190610a05565b9250508190555060025f81548092919061069a90610948565b91905055503373ffffffffffffffffffffffffffffffffffffffff167f36af321ec8d3c75236829c5317affd40ddb308863a1236d2d277a4025cccee1e345f5f3373ffffffffffffffffffffffffffffffffffffffff1673ffffffffffffffffffffffffffffffffffffffff1681526020019081526020015f2054600154604051610727939291906109d0565b60405180910390a250565b7f000000000000000000000000000000000000000000000000000000000000000081565b60015481565b805f5f8473ffffffffffffffffffffffffffffffffffffffff1673ffffffffffffffffffffffffffffffffffffffff1681526020019081526020015f205f8282546107a79190610a05565b925050819055505050565b5f819050919050565b6107c4816107b2565b82525050565b5f6020820190506107dd5f8301846107bb565b92915050565b5f5ffd5b6107f0816107b2565b81146107fa575f5ffd5b50565b5f8135905061080b816107e7565b92915050565b5f60208284031215610826576108256107e3565b5b5f610833848285016107fd565b91505092915050565b5f73ffffffffffffffffffffffffffffffffffffffff82169050919050565b5f6108658261083c565b9050919050565b6108758161085b565b811461087f575f5ffd5b50565b5f813590506108908161086c565b92915050565b5f602082840312156108ab576108aa6107e3565b5b5f6108b884828501610882565b91505092915050565b5f6040820190506108d45f8301856107bb565b6108e160208301846107bb565b9392505050565b7f4e487b71000000000000000000000000000000000000000000000000000000005f52601160045260245ffd5b5f61091f826107b2565b915061092a836107b2565b9250828203905081811115610942576109416108e8565b5b92915050565b5f610952826107b2565b91507fffffffffffffffffffffffffffffffffffffffffffffffffffffffffffffffff8203610984576109836108e8565b5b600182019050919050565b5f81905092915050565b50565b5f6109a75f8361098f565b91506109b282610999565b5f82019050919050565b5f6109c68261099c565b9150819050919050565b5f6060820190506109e35f8301866107bb565b6109f060208301856107bb565b6109fd60408301846107bb565b949350505050565b5f610a0f826107b2565b9150610a1a836107b2565b9250828201905080821115610a3257610a316108e8565b5b9291505056fea2646970667358221220d36a6a7a57f550c7adf8e4eef0425b951b37be706d919c4f7372a4c982fdbc1264736f6c634300081e0033",
					"opcodes": "PUSH1 0xC0 PUSH1 0x40 MSTORE CALLVALUE DUP1 ISZERO PUSH2 0xF JUMPI PUSH0 PUSH0 REVERT JUMPDEST POP PUSH1 0x40 MLOAD PUSH2 0xBAC CODESIZE SUB DUP1 PUSH2 0xBAC DUP4 CODECOPY DUP2 DUP2 ADD PUSH1 0x40 MSTORE DUP2 ADD SWAP1 PUSH2 0x31 SWAP2 SWAP1 PUSH2 0xC3 JUMP JUMPDEST PUSH0 DUP3 EQ DUP1 PUSH2 0x3E JUMPI POP PUSH0 DUP2 EQ JUMPDEST ISZERO PUSH2 0x75 JUMPI PUSH1 0x40 MLOAD PUSH32 0x1510B77F00000000000000000000000000000000000000000000000000000000 DUP2 MSTORE PUSH1 0x4 ADD PUSH1 0x40 MLOAD DUP1 SWAP2 SUB SWAP1 REVERT JUMPDEST DUP2 PUSH1 0xA0 DUP2 DUP2 MSTORE POP POP DUP1 PUSH1 0x80 DUP2 DUP2 MSTORE POP POP POP POP PUSH2 0x101 JUMP JUMPDEST PUSH0 PUSH0 REVERT JUMPDEST PUSH0 DUP2 SWAP1 POP SWAP2 SWAP1 POP JUMP JUMPDEST PUSH2 0xA2 DUP2 PUSH2 0x90 JUMP JUMPDEST DUP2 EQ PUSH2 0xAC JUMPI PUSH0 PUSH0 REVERT JUMPDEST POP JUMP JUMPDEST PUSH0 DUP2 MLOAD SWAP1 POP PUSH2 0xBD DUP2 PUSH2 0x99 JUMP JUMPDEST SWAP3 SWAP2 POP POP JUMP JUMPDEST PUSH0 PUSH0 PUSH1 0x40 DUP4 DUP6 SUB SLT ISZERO PUSH2 0xD9 JUMPI PUSH2 0xD8 PUSH2 0x8C JUMP JUMPDEST JUMPDEST PUSH0 PUSH2 0xE6 DUP6 DUP3 DUP7 ADD PUSH2 0xAF JUMP JUMPDEST SWAP3 POP POP PUSH1 0x20 PUSH2 0xF7 DUP6 DUP3 DUP7 ADD PUSH2 0xAF JUMP JUMPDEST SWAP2 POP POP SWAP3 POP SWAP3 SWAP1 POP JUMP JUMPDEST PUSH1 0x80 MLOAD PUSH1 0xA0 MLOAD PUSH2 0xA6E PUSH2 0x13E PUSH0 CODECOPY PUSH0 DUP2 DUP2 PUSH2 0x5D0 ADD MSTORE DUP2 DUP2 PUSH2 0x609 ADD MSTORE PUSH2 0x734 ADD MSTORE PUSH0 DUP2 DUP2 PUSH2 0x2EA ADD MSTORE DUP2 DUP2 PUSH2 0x313 ADD MSTORE PUSH2 0x572 ADD MSTORE PUSH2 0xA6E PUSH0 RETURN INVALID PUSH1 0x80 PUSH1 0x40 MSTORE PUSH1 0x4 CALLDATASIZE LT PUSH2 0x7E JUMPI PUSH0 CALLDATALOAD PUSH1 0xE0 SHR DUP1 PUSH4 0x9C51FD6E GT PUSH2 0x4D JUMPI DUP1 PUSH4 0x9C51FD6E EQ PUSH2 0x199 JUMPI DUP1 PUSH4 0xD0E30DB0 EQ PUSH2 0x1C3 JUMPI DUP1 PUSH4 0xECBEA24D EQ PUSH2 0x1CD JUMPI DUP1 PUSH4 0xFF50ABDC EQ PUSH2 0x1F7 JUMPI PUSH2 0xDD JUMP JUMPDEST DUP1 PUSH4 0x2DFDF0B5 EQ PUSH2 0xE1 JUMPI DUP1 PUSH4 0x2E1A7D4D EQ PUSH2 0x10B JUMPI DUP1 PUSH4 0x4CC05A71 EQ PUSH2 0x133 JUMPI DUP1 PUSH4 0x70A08231 EQ PUSH2 0x15D JUMPI PUSH2 0xDD JUMP JUMPDEST CALLDATASIZE PUSH2 0xDD JUMPI ADDRESS PUSH20 0xFFFFFFFFFFFFFFFFFFFFFFFFFFFFFFFFFFFFFFFF AND PUSH4 0xD0E30DB0 CALLVALUE PUSH1 0x40 MLOAD DUP3 PUSH4 0xFFFFFFFF AND PUSH1 0xE0 SHL DUP2 MSTORE PUSH1 0x4 ADD PUSH0 PUSH1 0x40 MLOAD DUP1 DUP4 SUB DUP2 DUP6 DUP9 DUP1 EXTCODESIZE ISZERO DUP1 ISZERO PUSH2 0xC9 JUMPI PUSH0 PUSH0 REVERT JUMPDEST POP GAS CALL ISZERO DUP1 ISZERO PUSH2 0xDB JUMPI RETURNDATASIZE PUSH0 PUSH0 RETURNDATACOPY RETURNDATASIZE PUSH0 REVERT JUMPDEST STOP JUMPDEST PUSH0 PUSH0 REVERT JUMPDEST CALLVALUE DUP1 ISZERO PUSH2 0xEC JUMPI PUSH0 PUSH0 REVERT JUMPDEST POP PUSH2 0xF5 PUSH2 0x221 JUMP JUMPDEST PUSH1 0x40 MLOAD PUSH2 0x102 SWAP2 SWAP1 PUSH2 0x7CA JUMP JUMPDEST PUSH1 0x40 MLOAD DUP1 SWAP2 SUB SWAP1 RETURN JUMPDEST CALLVALUE DUP1 ISZERO PUSH2 0x116 JUMPI PUSH0 PUSH0 REVERT JUMPDEST POP PUSH2 0x131 PUSH1 0x4 DUP1 CALLDATASIZE SUB DUP2 ADD SWAP1 PUSH2 0x12C SWAP2 SWAP1 PUSH2 0x811 JUMP JUMPDEST PUSH2 0x227 JUMP JUMPDEST STOP JUMPDEST CALLVALUE DUP1 ISZERO PUSH2 0x13E JUMPI PUSH0 PUSH0 REVERT JUMPDEST POP PUSH2 0x147 PUSH2 0x525 JUMP JUMPDEST PUSH1 0x40 MLOAD PUSH2 0x154 SWAP2 SWAP1 PUSH2 0x7CA JUMP JUMPDEST PUSH1 0x40 MLOAD DUP1 SWAP2 SUB SWAP1 RETURN JUMPDEST CALLVALUE DUP1 ISZERO PUSH2 0x168 JUMPI PUSH0 PUSH0 REVERT JUMPDEST POP PUSH2 0x183 PUSH1 0x4 DUP1 CALLDATASIZE SUB DUP2 ADD SWAP1 PUSH2 0x17E SWAP2 SWAP1 PUSH2 0x896 JUMP JUMPDEST PUSH2 0x52B JUMP JUMPDEST PUSH1 0x40 MLOAD PUSH2 0x190 SWAP2 SWAP1 PUSH2 0x7CA JUMP JUMPDEST PUSH1 0x40 MLOAD DUP1 SWAP2 SUB SWAP1 RETURN JUMPDEST CALLVALUE DUP1 ISZERO PUSH2 0x1A4 JUMPI PUSH0 PUSH0 REVERT JUMPDEST POP PUSH2 0x1AD PUSH2 0x570 JUMP JUMPDEST PUSH1 0x40 MLOAD PUSH2 0x1BA SWAP2 SWAP1 PUSH2 0x7CA JUMP JUMPDEST PUSH1 0x40 MLOAD DUP1 SWAP2 SUB SWAP1 RETURN JUMPDEST PUSH2 0x1CB PUSH2 0x594 JUMP JUMPDEST STOP JUMPDEST CALLVALUE DUP1 ISZERO PUSH2 0x1D8 JUMPI PUSH0 PUSH0 REVERT JUMPDEST POP PUSH2 0x1E1 PUSH2 0x732 JUMP JUMPDEST PUSH1 0x40 MLOAD PUSH2 0x1EE SWAP2 SWAP1 PUSH2 0x7CA JUMP JUMPDEST PUSH1 0x40 MLOAD DUP1 SWAP2 SUB SWAP1 RETURN JUMPDEST CALLVALUE DUP1 ISZERO PUSH2 0x202 JUMPI PUSH0 PUSH0 REVERT JUMPDEST POP PUSH2 0x20B PUSH2 0x756 JUMP JUMPDEST PUSH1 0x40 MLOAD PUSH2 0x218 SWAP2 SWAP1 PUSH2 0x7CA JUMP JUMPDEST PUSH1 0x40 MLOAD DUP1 SWAP2 SUB SWAP1 RETURN JUMPDEST PUSH1 0x2 SLOAD DUP2 JUMP JUMPDEST DUP1 PUSH0 DUP2 SUB PUSH2 0x261 JUMPI PUSH1 0x40 MLOAD PUSH32 0x1F2A200500000000000000000000000000000000000000000000000000000000 DUP2 MSTORE PUSH1 0x4 ADD PUSH1 0x40 MLOAD DUP1 SWAP2 SUB SWAP1 REVERT JUMPDEST PUSH0 PUSH0 PUSH0 CALLER PUSH20 0xFFFFFFFFFFFFFFFFFFFFFFFFFFFFFFFFFFFFFFFF AND PUSH20 0xFFFFFFFFFFFFFFFFFFFFFFFFFFFFFFFFFFFFFFFF AND DUP2 MSTORE PUSH1 0x20 ADD SWAP1 DUP2 MSTORE PUSH1 0x20 ADD PUSH0 KECCAK256 SLOAD SWAP1 POP DUP1 DUP4 GT ISZERO PUSH2 0x2E8 JUMPI DUP3 DUP2 PUSH1 0x40 MLOAD PUSH32 0xCF47918100000000000000000000000000000000000000000000000000000000 DUP2 MSTORE PUSH1 0x4 ADD PUSH2 0x2DF SWAP3 SWAP2 SWAP1 PUSH2 0x8C1 JUMP JUMPDEST PUSH1 0x40 MLOAD DUP1 SWAP2 SUB SWAP1 REVERT JUMPDEST PUSH32 0x0 DUP4 GT ISZERO PUSH2 0x36F JUMPI DUP3 PUSH32 0x0 PUSH1 0x40 MLOAD PUSH32 0x16D0EF100000000000000000000000000000000000000000000000000000000 DUP2 MSTORE PUSH1 0x4 ADD PUSH2 0x366 SWAP3 SWAP2 SWAP1 PUSH2 0x8C1 JUMP JUMPDEST PUSH1 0x40 MLOAD DUP1 SWAP2 SUB SWAP1 REVERT JUMPDEST DUP3 PUSH0 PUSH0 CALLER PUSH20 0xFFFFFFFFFFFFFFFFFFFFFFFFFFFFFFFFFFFFFFFF AND PUSH20 0xFFFFFFFFFFFFFFFFFFFFFFFFFFFFFFFFFFFFFFFF AND DUP2 MSTORE PUSH1 0x20 ADD SWAP1 DUP2 MSTORE PUSH1 0x20 ADD PUSH0 KECCAK256 PUSH0 DUP3 DUP3 SLOAD PUSH2 0x3BA SWAP2 SWAP1 PUSH2 0x915 JUMP JUMPDEST SWAP3 POP POP DUP2 SWAP1 SSTORE POP DUP3 PUSH1 0x1 PUSH0 DUP3 DUP3 SLOAD PUSH2 0x3D2 SWAP2 SWAP1 PUSH2 0x915 JUMP JUMPDEST SWAP3 POP POP DUP2 SWAP1 SSTORE POP PUSH1 0x3 PUSH0 DUP2 SLOAD DUP1 SWAP3 SWAP2 SWAP1 PUSH2 0x3EB SWAP1 PUSH2 0x948 JUMP JUMPDEST SWAP2 SWAP1 POP SSTORE POP PUSH0 CALLER PUSH20 0xFFFFFFFFFFFFFFFFFFFFFFFFFFFFFFFFFFFFFFFF AND DUP5 PUSH1 0x40 MLOAD PUSH2 0x415 SWAP1 PUSH2 0x9BC JUMP JUMPDEST PUSH0 PUSH1 0x40 MLOAD DUP1 DUP4 SUB DUP2 DUP6 DUP8 GAS CALL SWAP3 POP POP POP RETURNDATASIZE DUP1 PUSH0 DUP2 EQ PUSH2 0x44F JUMPI PUSH1 0x40 MLOAD SWAP2 POP PUSH1 0x1F NOT PUSH1 0x3F RETURNDATASIZE ADD AND DUP3 ADD PUSH1 0x40 MSTORE RETURNDATASIZE DUP3 MSTORE RETURNDATASIZE PUSH0 PUSH1 0x20 DUP5 ADD RETURNDATACOPY PUSH2 0x454 JUMP JUMPDEST PUSH1 0x60 SWAP2 POP JUMPDEST POP POP SWAP1 POP DUP1 PUSH2 0x48F JUMPI PUSH1 0x40 MLOAD PUSH32 0x90B8EC1800000000000000000000000000000000000000000000000000000000 DUP2 MSTORE PUSH1 0x4 ADD PUSH1 0x40 MLOAD DUP1 SWAP2 SUB SWAP1 REVERT JUMPDEST CALLER PUSH20 0xFFFFFFFFFFFFFFFFFFFFFFFFFFFFFFFFFFFFFFFF AND PUSH32 0x2F25270A4D87BEA75DB541CDFE559334A275B4A233520ED6C0A2429667CCA94 DUP6 PUSH0 PUSH0 CALLER PUSH20 0xFFFFFFFFFFFFFFFFFFFFFFFFFFFFFFFFFFFFFFFF AND PUSH20 0xFFFFFFFFFFFFFFFFFFFFFFFFFFFFFFFFFFFFFFFF AND DUP2 MSTORE PUSH1 0x20 ADD SWAP1 DUP2 MSTORE PUSH1 0x20 ADD PUSH0 KECCAK256 SLOAD PUSH1 0x1 SLOAD PUSH1 0x40 MLOAD PUSH2 0x517 SWAP4 SWAP3 SWAP2 SWAP1 PUSH2 0x9D0 JUMP JUMPDEST PUSH1 0x40 MLOAD DUP1 SWAP2 SUB SWAP1 LOG2 POP POP POP POP JUMP JUMPDEST PUSH1 0x3 SLOAD DUP2 JUMP JUMPDEST PUSH0 PUSH0 PUSH0 DUP4 PUSH20 0xFFFFFFFFFFFFFFFFFFFFFFFFFFFFFFFFFFFFFFFF AND PUSH20 0xFFFFFFFFFFFFFFFFFFFFFFFFFFFFFFFFFFFFFFFF AND DUP2 MSTORE PUSH1 0x20 ADD SWAP1 DUP2 MSTORE PUSH1 0x20 ADD PUSH0 KECCAK256 SLOAD SWAP1 POP SWAP2 SWAP1 POP JUMP JUMPDEST PUSH32 0x0 DUP2 JUMP JUMPDEST CALLVALUE PUSH0 DUP2 SUB PUSH2 0x5CE JUMPI PUSH1 0x40 MLOAD PUSH32 0x1F2A200500000000000000000000000000000000000000000000000000000000 DUP2 MSTORE PUSH1 0x4 ADD PUSH1 0x40 MLOAD DUP1 SWAP2 SUB SWAP1 REVERT JUMPDEST PUSH32 0x0 CALLVALUE PUSH1 0x1 SLOAD PUSH2 0x5FD SWAP2 SWAP1 PUSH2 0xA05 JUMP JUMPDEST GT ISZERO PUSH2 0x666 JUMPI CALLVALUE PUSH1 0x1 SLOAD PUSH32 0x0 PUSH1 0x40 MLOAD PUSH32 0x621E5A6900000000000000000000000000000000000000000000000000000000 DUP2 MSTORE PUSH1 0x4 ADD PUSH2 0x65D SWAP4 SWAP3 SWAP2 SWAP1 PUSH2 0x9D0 JUMP JUMPDEST PUSH1 0x40 MLOAD DUP1 SWAP2 SUB SWAP1 REVERT JUMPDEST PUSH2 0x670 CALLER CALLVALUE PUSH2 0x75C JUMP JUMPDEST CALLVALUE PUSH1 0x1 PUSH0 DUP3 DUP3 SLOAD PUSH2 0x681 SWAP2 SWAP1 PUSH2 0xA05 JUMP JUMPDEST SWAP3 POP POP DUP2 SWAP1 SSTORE POP PUSH1 0x2 PUSH0 DUP2 SLOAD DUP1 SWAP3 SWAP2 SWAP1 PUSH2 0x69A SWAP1 PUSH2 0x948 JUMP JUMPDEST SWAP2 SWAP1 POP SSTORE POP CALLER PUSH20 0xFFFFFFFFFFFFFFFFFFFFFFFFFFFFFFFFFFFFFFFF AND PUSH32 0x36AF321EC8D3C75236829C5317AFFD40DDB308863A1236D2D277A4025CCCEE1E CALLVALUE PUSH0 PUSH0 CALLER PUSH20 0xFFFFFFFFFFFFFFFFFFFFFFFFFFFFFFFFFFFFFFFF AND PUSH20 0xFFFFFFFFFFFFFFFFFFFFFFFFFFFFFFFFFFFFFFFF AND DUP2 MSTORE PUSH1 0x20 ADD SWAP1 DUP2 MSTORE PUSH1 0x20 ADD PUSH0 KECCAK256 SLOAD PUSH1 0x1 SLOAD PUSH1 0x40 MLOAD PUSH2 0x727 SWAP4 SWAP3 SWAP2 SWAP1 PUSH2 0x9D0 JUMP JUMPDEST PUSH1 0x40 MLOAD DUP1 SWAP2 SUB SWAP1 LOG2 POP JUMP JUMPDEST PUSH32 0x0 DUP2 JUMP JUMPDEST PUSH1 0x1 SLOAD DUP2 JUMP JUMPDEST DUP1 PUSH0 PUSH0 DUP5 PUSH20 0xFFFFFFFFFFFFFFFFFFFFFFFFFFFFFFFFFFFFFFFF AND PUSH20 0xFFFFFFFFFFFFFFFFFFFFFFFFFFFFFFFFFFFFFFFF AND DUP2 MSTORE PUSH1 0x20 ADD SWAP1 DUP2 MSTORE PUSH1 0x20 ADD PUSH0 KECCAK256 PUSH0 DUP3 DUP3 SLOAD PUSH2 0x7A7 SWAP2 SWAP1 PUSH2 0xA05 JUMP JUMPDEST SWAP3 POP POP DUP2 SWAP1 SSTORE POP POP POP JUMP JUMPDEST PUSH0 DUP2 SWAP1 POP SWAP2 SWAP1 POP JUMP JUMPDEST PUSH2 0x7C4 DUP2 PUSH2 0x7B2 JUMP JUMPDEST DUP3 MSTORE POP POP JUMP JUMPDEST PUSH0 PUSH1 0x20 DUP3 ADD SWAP1 POP PUSH2 0x7DD PUSH0 DUP4 ADD DUP5 PUSH2 0x7BB JUMP JUMPDEST SWAP3 SWAP2 POP POP JUMP JUMPDEST PUSH0 PUSH0 REVERT JUMPDEST PUSH2 0x7F0 DUP2 PUSH2 0x7B2 JUMP JUMPDEST DUP2 EQ PUSH2 0x7FA JUMPI PUSH0 PUSH0 REVERT JUMPDEST POP JUMP JUMPDEST PUSH0 DUP2 CALLDATALOAD SWAP1 POP PUSH2 0x80B DUP2 PUSH2 0x7E7 JUMP JUMPDEST SWAP3 SWAP2 POP POP JUMP JUMPDEST PUSH0 PUSH1 0x20 DUP3 DUP5 SUB SLT ISZERO PUSH2 0x826 JUMPI PUSH2 0x825 PUSH2 0x7E3 JUMP JUMPDEST JUMPDEST PUSH0 PUSH2 0x833 DUP5 DUP3 DUP6 ADD PUSH2 0x7FD JUMP JUMPDEST SWAP2 POP POP SWAP3 SWAP2 POP POP JUMP JUMPDEST PUSH0 PUSH20 0xFFFFFFFFFFFFFFFFFFFFFFFFFFFFFFFFFFFFFFFF DUP3 AND SWAP1 POP SWAP2 SWAP1 POP JUMP JUMPDEST PUSH0 PUSH2 0x865 DUP3 PUSH2 0x83C JUMP JUMPDEST SWAP1 POP SWAP2 SWAP1 POP JUMP JUMPDEST PUSH2 0x875 DUP2 PUSH2 0x85B JUMP JUMPDEST DUP2 EQ PUSH2 0x87F JUMPI PUSH0 PUSH0 REVERT JUMPDEST POP JUMP JUMPDEST PUSH0 DUP2 CALLDATALOAD SWAP1 POP PUSH2 0x890 DUP2 PUSH2 0x86C JUMP JUMPDEST SWAP3 SWAP2 POP POP JUMP JUMPDEST PUSH0 PUSH1 0x20 DUP3 DUP5 SUB SLT ISZERO PUSH2 0x8AB JUMPI PUSH2 0x8AA PUSH2 0x7E3 JUMP JUMPDEST JUMPDEST PUSH0 PUSH2 0x8B8 DUP5 DUP3 DUP6 ADD PUSH2 0x882 JUMP JUMPDEST SWAP2 POP POP SWAP3 SWAP2 POP POP JUMP JUMPDEST PUSH0 PUSH1 0x40 DUP3 ADD SWAP1 POP PUSH2 0x8D4 PUSH0 DUP4 ADD DUP6 PUSH2 0x7BB JUMP JUMPDEST PUSH2 0x8E1 PUSH1 0x20 DUP4 ADD DUP5 PUSH2 0x7BB JUMP JUMPDEST SWAP4 SWAP3 POP POP POP JUMP JUMPDEST PUSH32 0x4E487B7100000000000000000000000000000000000000000000000000000000 PUSH0 MSTORE PUSH1 0x11 PUSH1 0x4 MSTORE PUSH1 0x24 PUSH0 REVERT JUMPDEST PUSH0 PUSH2 0x91F DUP3 PUSH2 0x7B2 JUMP JUMPDEST SWAP2 POP PUSH2 0x92A DUP4 PUSH2 0x7B2 JUMP JUMPDEST SWAP3 POP DUP3 DUP3 SUB SWAP1 POP DUP2 DUP2 GT ISZERO PUSH2 0x942 JUMPI PUSH2 0x941 PUSH2 0x8E8 JUMP JUMPDEST JUMPDEST SWAP3 SWAP2 POP POP JUMP JUMPDEST PUSH0 PUSH2 0x952 DUP3 PUSH2 0x7B2 JUMP JUMPDEST SWAP2 POP PUSH32 0xFFFFFFFFFFFFFFFFFFFFFFFFFFFFFFFFFFFFFFFFFFFFFFFFFFFFFFFFFFFFFFFF DUP3 SUB PUSH2 0x984 JUMPI PUSH2 0x983 PUSH2 0x8E8 JUMP JUMPDEST JUMPDEST PUSH1 0x1 DUP3 ADD SWAP1 POP SWAP2 SWAP1 POP JUMP JUMPDEST PUSH0 DUP2 SWAP1 POP SWAP3 SWAP2 POP POP JUMP JUMPDEST POP JUMP JUMPDEST PUSH0 PUSH2 0x9A7 PUSH0 DUP4 PUSH2 0x98F JUMP JUMPDEST SWAP2 POP PUSH2 0x9B2 DUP3 PUSH2 0x999 JUMP JUMPDEST PUSH0 DUP3 ADD SWAP1 POP SWAP2 SWAP1 POP JUMP JUMPDEST PUSH0 PUSH2 0x9C6 DUP3 PUSH2 0x99C JUMP JUMPDEST SWAP2 POP DUP2 SWAP1 POP SWAP2 SWAP1 POP JUMP JUMPDEST PUSH0 PUSH1 0x60 DUP3 ADD SWAP1 POP PUSH2 0x9E3 PUSH0 DUP4 ADD DUP7 PUSH2 0x7BB JUMP JUMPDEST PUSH2 0x9F0 PUSH1 0x20 DUP4 ADD DUP6 PUSH2 0x7BB JUMP JUMPDEST PUSH2 0x9FD PUSH1 0x40 DUP4 ADD DUP5 PUSH2 0x7BB JUMP JUMPDEST SWAP5 SWAP4 POP POP POP POP JUMP JUMPDEST PUSH0 PUSH2 0xA0F DUP3 PUSH2 0x7B2 JUMP JUMPDEST SWAP2 POP PUSH2 0xA1A DUP4 PUSH2 0x7B2 JUMP JUMPDEST SWAP3 POP DUP3 DUP3 ADD SWAP1 POP DUP1 DUP3 GT ISZERO PUSH2 0xA32 JUMPI PUSH2 0xA31 PUSH2 0x8E8 JUMP JUMPDEST JUMPDEST SWAP3 SWAP2 POP POP JUMP INVALID LOG2 PUSH5 0x6970667358 0x22 SLT KECCAK256 0xD3 PUSH11 0x6A7A57F550C7ADF8E4EEF0 TIMESTAMP JUMPDEST SWAP6 SHL CALLDATACOPY 0xBE PUSH17 0x6D919C4F7372A4C982FDBC1264736F6C63 NUMBER STOP ADDMOD 0x1E STOP CALLER "
				},
				"gasEstimates": {
					"creation": {
						"codeDepositCost": "534000",
						"executionCost": "infinite",
						"totalCost": "infinite"
					},
					"external": {
						"balanceOf(address)": "2895",
						"bankCap()": "infinite",
						"deposit()": "infinite",
						"depositCount()": "2426",
						"totalDeposited()": "2491",
						"withdraw(uint256)": "infinite",
						"withdrawCount()": "2470",
						"withdrawLimitPerTx()": "infinite"
					},
					"internal": {
						"_addBalance(address,uint256)": "infinite"
					}
				},
				"methodIdentifiers": {
					"balanceOf(address)": "70a08231",
					"bankCap()": "ecbea24d",
					"deposit()": "d0e30db0",
					"depositCount()": "2dfdf0b5",
					"totalDeposited()": "ff50abdc",
					"withdraw(uint256)": "2e1a7d4d",
					"withdrawCount()": "4cc05a71",
					"withdrawLimitPerTx()": "9c51fd6e"
				}
			},
			"storageLayout": {
				"storage": [
					{
						"astId": 13,
						"contract": "contracts/KipuBank.sol:KipuBank",
						"label": "_balances",
						"offset": 0,
						"slot": "0",
						"type": "t_mapping(t_address,t_uint256)"
					},
					{
						"astId": 16,
						"contract": "contracts/KipuBank.sol:KipuBank",
						"label": "totalDeposited",
						"offset": 0,
						"slot": "1",
						"type": "t_uint256"
					},
					{
						"astId": 19,
						"contract": "contracts/KipuBank.sol:KipuBank",
						"label": "depositCount",
						"offset": 0,
						"slot": "2",
						"type": "t_uint256"
					},
					{
						"astId": 22,
						"contract": "contracts/KipuBank.sol:KipuBank",
						"label": "withdrawCount",
						"offset": 0,
						"slot": "3",
						"type": "t_uint256"
					}
				],
				"types": {
					"t_address": {
						"encoding": "inplace",
						"label": "address",
						"numberOfBytes": "20"
					},
					"t_mapping(t_address,t_uint256)": {
						"encoding": "mapping",
						"key": "t_address",
						"label": "mapping(address => uint256)",
						"numberOfBytes": "32",
						"value": "t_uint256"
					},
					"t_uint256": {
						"encoding": "inplace",
						"label": "uint256",
						"numberOfBytes": "32"
					}
				}
			},
			"userdoc": {
				"errors": {
					"BankCapExceeded(uint256,uint256,uint256)": [
						{
							"notice": "Error cuando el depósito excede el límite global del banco"
						}
					],
					"InsufficientBalance(uint256,uint256)": [
						{
							"notice": "Error cuando el usuario intenta retirar más de su saldo"
						}
					],
					"InvalidConstructorParams()": [
						{
							"notice": "Error si los parámetros del constructor son inválidos"
						}
					],
					"TransferFailed()": [
						{
							"notice": "Error cuando la transferencia falla"
						}
					],
					"WithdrawLimitExceeded(uint256,uint256)": [
						{
							"notice": "Error cuando el retiro excede el límite por transacción"
						}
					],
					"ZeroAmount()": [
						{
							"notice": "Error cuando el monto es cero"
						}
					]
				},
				"events": {
					"Deposit(address,uint256,uint256,uint256)": {
						"notice": "Evento emitido cuando un usuario deposita"
					},
					"Withdraw(address,uint256,uint256,uint256)": {
						"notice": "Evento emitido cuando un usuario retira"
					}
				},
				"kind": "user",
				"methods": {
					"balanceOf(address)": {
						"notice": "Consulta el saldo en la bóveda de un usuario"
					},
					"bankCap()": {
						"notice": "Límite global máximo de depósitos en el contrato"
					},
					"deposit()": {
						"notice": "Deposita ETH en la bóveda personal"
					},
					"depositCount()": {
						"notice": "Número total de depósitos realizados"
					},
					"totalDeposited()": {
						"notice": "Total de ETH depositado en el contrato"
					},
					"withdraw(uint256)": {
						"notice": "Retira ETH de la bóveda personal hasta el límite permitido"
					},
					"withdrawCount()": {
						"notice": "Número total de retiros realizados"
					},
					"withdrawLimitPerTx()": {
						"notice": "Límite máximo de retiro por transacción"
					}
				},
				"notice": "Permite a los usuarios depositar y retirar ETH bajo ciertos parametros",
				"version": 1
			}
		}
	}
}