{
	"src/KipuBankV2.sol": {
		"KipuBankV2": {
			"abi": [
				{
					"inputs": [
						{
							"internalType": "uint256",
							"name": "_bankCapUsd",
							"type": "uint256"
						},
						{
							"internalType": "uint256",
							"name": "_withdrawLimitUsd",
							"type": "uint256"
						},
						{
							"internalType": "address",
							"name": "_defaultPriceFeed",
							"type": "address"
						}
					],
					"stateMutability": "nonpayable",
					"type": "constructor"
				},
				{
					"inputs": [
						{
							"internalType": "uint256",
							"name": "attemptedUsd",
							"type": "uint256"
						},
						{
							"internalType": "uint256",
							"name": "totalUsd",
							"type": "uint256"
						},
						{
							"internalType": "uint256",
							"name": "capUsd",
							"type": "uint256"
						}
					],
					"name": "ErrBankCapExceeded",
					"type": "error"
				},
				{
					"inputs": [
						{
							"internalType": "address",
							"name": "token",
							"type": "address"
						},
						{
							"internalType": "uint256",
							"name": "available",
							"type": "uint256"
						},
						{
							"internalType": "uint256",
							"name": "requested",
							"type": "uint256"
						}
					],
					"name": "ErrInsufficientBalance",
					"type": "error"
				},
				{
					"inputs": [],
					"name": "ErrReentrantCall",
					"type": "error"
				},
				{
					"inputs": [
						{
							"internalType": "address",
							"name": "to",
							"type": "address"
						},
						{
							"internalType": "address",
							"name": "token",
							"type": "address"
						},
						{
							"internalType": "uint256",
							"name": "amount",
							"type": "uint256"
						}
					],
					"name": "ErrTransferFailed",
					"type": "error"
				},
				{
					"inputs": [],
					"name": "ErrUnauthorized",
					"type": "error"
				},
				{
					"inputs": [
						{
							"internalType": "uint256",
							"name": "requestedUsd",
							"type": "uint256"
						},
						{
							"internalType": "uint256",
							"name": "limitUsd",
							"type": "uint256"
						}
					],
					"name": "ErrWithdrawLimitExceeded",
					"type": "error"
				},
				{
					"inputs": [],
					"name": "ErrZeroAmount",
					"type": "error"
				},
				{
					"inputs": [],
					"name": "InvalidConstructorParams",
					"type": "error"
				},
				{
					"inputs": [
						{
							"internalType": "uint80",
							"name": "roundId",
							"type": "uint80"
						},
						{
							"internalType": "uint256",
							"name": "updatedAt",
							"type": "uint256"
						},
						{
							"internalType": "uint80",
							"name": "answeredInRound",
							"type": "uint80"
						}
					],
					"name": "InvalidOracleResponse",
					"type": "error"
				},
				{
					"anonymous": false,
					"inputs": [
						{
							"indexed": true,
							"internalType": "address",
							"name": "user",
							"type": "address"
						},
						{
							"indexed": true,
							"internalType": "address",
							"name": "token",
							"type": "address"
						},
						{
							"indexed": false,
							"internalType": "uint256",
							"name": "amount",
							"type": "uint256"
						},
						{
							"indexed": false,
							"internalType": "uint256",
							"name": "amountUsd",
							"type": "uint256"
						}
					],
					"name": "Deposit",
					"type": "event"
				},
				{
					"anonymous": false,
					"inputs": [
						{
							"indexed": true,
							"internalType": "address",
							"name": "oldOwner",
							"type": "address"
						},
						{
							"indexed": true,
							"internalType": "address",
							"name": "newOwner",
							"type": "address"
						}
					],
					"name": "OwnerChanged",
					"type": "event"
				},
				{
					"anonymous": false,
					"inputs": [
						{
							"indexed": true,
							"internalType": "address",
							"name": "token",
							"type": "address"
						},
						{
							"indexed": true,
							"internalType": "address",
							"name": "feed",
							"type": "address"
						}
					],
					"name": "PriceFeedSet",
					"type": "event"
				},
				{
					"anonymous": false,
					"inputs": [
						{
							"indexed": true,
							"internalType": "address",
							"name": "user",
							"type": "address"
						},
						{
							"indexed": true,
							"internalType": "address",
							"name": "token",
							"type": "address"
						},
						{
							"indexed": false,
							"internalType": "uint256",
							"name": "amount",
							"type": "uint256"
						},
						{
							"indexed": false,
							"internalType": "uint256",
							"name": "amountUsd",
							"type": "uint256"
						}
					],
					"name": "Withdraw",
					"type": "event"
				},
				{
					"stateMutability": "payable",
					"type": "fallback"
				},
				{
					"inputs": [],
					"name": "INTERNAL_DECIMALS",
					"outputs": [
						{
							"internalType": "uint8",
							"name": "",
							"type": "uint8"
						}
					],
					"stateMutability": "view",
					"type": "function"
				},
				{
					"inputs": [
						{
							"internalType": "address",
							"name": "token",
							"type": "address"
						},
						{
							"internalType": "address",
							"name": "user",
							"type": "address"
						}
					],
					"name": "balanceOf",
					"outputs": [
						{
							"internalType": "uint256",
							"name": "",
							"type": "uint256"
						}
					],
					"stateMutability": "view",
					"type": "function"
				},
				{
					"inputs": [],
					"name": "bankCapUsd",
					"outputs": [
						{
							"internalType": "uint256",
							"name": "",
							"type": "uint256"
						}
					],
					"stateMutability": "view",
					"type": "function"
				},
				{
					"inputs": [],
					"name": "defaultPriceFeed",
					"outputs": [
						{
							"internalType": "contract AggregatorV3Interface",
							"name": "",
							"type": "address"
						}
					],
					"stateMutability": "view",
					"type": "function"
				},
				{
					"inputs": [
						{
							"internalType": "address",
							"name": "token",
							"type": "address"
						},
						{
							"internalType": "uint256",
							"name": "amount",
							"type": "uint256"
						}
					],
					"name": "depositERC20",
					"outputs": [],
					"stateMutability": "nonpayable",
					"type": "function"
				},
				{
					"inputs": [],
					"name": "depositETH",
					"outputs": [],
					"stateMutability": "payable",
					"type": "function"
				},
				{
					"inputs": [],
					"name": "owner",
					"outputs": [
						{
							"internalType": "address",
							"name": "",
							"type": "address"
						}
					],
					"stateMutability": "view",
					"type": "function"
				},
				{
					"inputs": [
						{
							"internalType": "address",
							"name": "",
							"type": "address"
						}
					],
					"name": "priceFeeds",
					"outputs": [
						{
							"internalType": "contract AggregatorV3Interface",
							"name": "",
							"type": "address"
						}
					],
					"stateMutability": "view",
					"type": "function"
				},
				{
					"inputs": [
						{
							"internalType": "address",
							"name": "newOwner",
							"type": "address"
						}
					],
					"name": "setOwner",
					"outputs": [],
					"stateMutability": "nonpayable",
					"type": "function"
				},
				{
					"inputs": [
						{
							"internalType": "address",
							"name": "token",
							"type": "address"
						},
						{
							"internalType": "address",
							"name": "feed",
							"type": "address"
						}
					],
					"name": "setPriceFeed",
					"outputs": [],
					"stateMutability": "nonpayable",
					"type": "function"
				},
				{
					"inputs": [],
					"name": "totalDepositCount",
					"outputs": [
						{
							"internalType": "uint256",
							"name": "",
							"type": "uint256"
						}
					],
					"stateMutability": "view",
					"type": "function"
				},
				{
					"inputs": [],
					"name": "totalDepositedUsd",
					"outputs": [
						{
							"internalType": "uint256",
							"name": "",
							"type": "uint256"
						}
					],
					"stateMutability": "view",
					"type": "function"
				},
				{
					"inputs": [],
					"name": "totalWithdrawCount",
					"outputs": [
						{
							"internalType": "uint256",
							"name": "",
							"type": "uint256"
						}
					],
					"stateMutability": "view",
					"type": "function"
				},
				{
					"inputs": [
						{
							"internalType": "address",
							"name": "token",
							"type": "address"
						},
						{
							"internalType": "uint256",
							"name": "amount",
							"type": "uint256"
						}
					],
					"name": "withdrawERC20",
					"outputs": [],
					"stateMutability": "nonpayable",
					"type": "function"
				},
				{
					"inputs": [
						{
							"internalType": "uint256",
							"name": "amount",
							"type": "uint256"
						}
					],
					"name": "withdrawETH",
					"outputs": [],
					"stateMutability": "nonpayable",
					"type": "function"
				},
				{
					"inputs": [],
					"name": "withdrawLimitUsd",
					"outputs": [
						{
							"internalType": "uint256",
							"name": "",
							"type": "uint256"
						}
					],
					"stateMutability": "view",
					"type": "function"
				},
				{
					"stateMutability": "payable",
					"type": "receive"
				}
			],
			"devdoc": {
				"kind": "dev",
				"methods": {
					"constructor": {
						"params": {
							"_bankCapUsd": "límite global del banco (en unidades con INTERNAL_DECIMALS, p.ej 100 * 10**6 para 100 USD)",
							"_defaultPriceFeed": "dirección del agregador Chainlink para ETH/USD (usado cuando token == address(0))",
							"_withdrawLimitUsd": "límite de retiro por tx (en INTERNAL_DECIMALS)"
						}
					},
					"depositERC20(address,uint256)": {
						"params": {
							"amount": "cantidad de token (en unidades token)",
							"token": "dirección del token ERC20"
						}
					},
					"setOwner(address)": {
						"details": "Solo owner puede llamar. No permite owner = address(0).",
						"params": {
							"newOwner": "Nueva dirección del owner"
						}
					},
					"setPriceFeed(address,address)": {
						"details": "Solo puede ser llamado por el owner.",
						"params": {
							"feed": "Dirección del AggregatorV3Interface (Chainlink) correspondiente al token",
							"token": "Dirección del token ERC20 (usar address(0) para ETH si desea override)"
						}
					},
					"withdrawERC20(address,uint256)": {
						"params": {
							"amount": "cantidad en unidades token",
							"token": "dirección del token"
						}
					},
					"withdrawETH(uint256)": {
						"params": {
							"amount": "cantidad en wei"
						}
					}
				},
				"version": 1
			},
			"evm": {
				"assembly": "    /* \"src/KipuBankV2.sol\":1697:15199  contract KipuBankV2{... */\n  mstore(0x40, 0xe0)\n    /* \"src/KipuBankV2.sol\":5771:6174  constructor(uint256 _bankCapUsd, uint256 _withdrawLimitUsd, address _defaultPriceFeed) {... */\n  callvalue\n  dup1\n  iszero\n  tag_1\n  jumpi\n  revert(0x00, 0x00)\ntag_1:\n  pop\n  mload(0x40)\n  sub(codesize, bytecodeSize)\n  dup1\n  bytecodeSize\n  dup4\n  codecopy\n  dup2\n  dup2\n  add\n  0x40\n  mstore\n  dup2\n  add\n  swap1\n  tag_2\n  swap2\n  swap1\n  tag_3\n  jump\t// in\ntag_2:\n    /* \"src/KipuBankV2.sol\":5888:5889  0 */\n  0x00\n    /* \"src/KipuBankV2.sol\":5873:5884  _bankCapUsd */\n  dup4\n    /* \"src/KipuBankV2.sol\":5873:5889  _bankCapUsd == 0 */\n  eq\n    /* \"src/KipuBankV2.sol\":5873:5915  _bankCapUsd == 0 || _withdrawLimitUsd == 0 */\n  dup1\n  tag_6\n  jumpi\n  pop\n    /* \"src/KipuBankV2.sol\":5914:5915  0 */\n  0x00\n    /* \"src/KipuBankV2.sol\":5893:5910  _withdrawLimitUsd */\n  dup3\n    /* \"src/KipuBankV2.sol\":5893:5915  _withdrawLimitUsd == 0 */\n  eq\n    /* \"src/KipuBankV2.sol\":5873:5915  _bankCapUsd == 0 || _withdrawLimitUsd == 0 */\ntag_6:\n    /* \"src/KipuBankV2.sol\":5873:5950  _bankCapUsd == 0 || _withdrawLimitUsd == 0 || _defaultPriceFeed == address(0) */\n  dup1\n  tag_7\n  jumpi\n  pop\n    /* \"src/KipuBankV2.sol\":5948:5949  0 */\n  0x00\n    /* \"src/KipuBankV2.sol\":5919:5950  _defaultPriceFeed == address(0) */\n  0xffffffffffffffffffffffffffffffffffffffff\n  and\n    /* \"src/KipuBankV2.sol\":5919:5936  _defaultPriceFeed */\n  dup2\n    /* \"src/KipuBankV2.sol\":5919:5950  _defaultPriceFeed == address(0) */\n  0xffffffffffffffffffffffffffffffffffffffff\n  and\n  eq\n    /* \"src/KipuBankV2.sol\":5873:5950  _bankCapUsd == 0 || _withdrawLimitUsd == 0 || _defaultPriceFeed == address(0) */\ntag_7:\n    /* \"src/KipuBankV2.sol\":5869:5985  if (_bankCapUsd == 0 || _withdrawLimitUsd == 0 || _defaultPriceFeed == address(0)) revert InvalidConstructorParams() */\n  iszero\n  tag_8\n  jumpi\n    /* \"src/KipuBankV2.sol\":5959:5985  InvalidConstructorParams() */\n  mload(0x40)\n  0x1510b77f00000000000000000000000000000000000000000000000000000000\n  dup2\n  mstore\n  0x04\n  add\n  mload(0x40)\n  dup1\n  swap2\n  sub\n  swap1\n  revert\n    /* \"src/KipuBankV2.sol\":5869:5985  if (_bankCapUsd == 0 || _withdrawLimitUsd == 0 || _defaultPriceFeed == address(0)) revert InvalidConstructorParams() */\ntag_8:\n    /* \"src/KipuBankV2.sol\":6004:6014  msg.sender */\n  caller\n    /* \"src/KipuBankV2.sol\":5996:6001  owner */\n  0x00\n  0x00\n    /* \"src/KipuBankV2.sol\":5996:6014  owner = msg.sender */\n  0x0100\n  exp\n  dup2\n  sload\n  dup2\n  0xffffffffffffffffffffffffffffffffffffffff\n  mul\n  not\n  and\n  swap1\n  dup4\n  0xffffffffffffffffffffffffffffffffffffffff\n  and\n  mul\n  or\n  swap1\n  sstore\n  pop\n    /* \"src/KipuBankV2.sol\":6038:6049  _bankCapUsd */\n  dup3\n    /* \"src/KipuBankV2.sol\":6025:6049  bankCapUsd = _bankCapUsd */\n  0x80\n  dup2\n  dup2\n  mstore\n  pop\n  pop\n    /* \"src/KipuBankV2.sol\":6079:6096  _withdrawLimitUsd */\n  dup2\n    /* \"src/KipuBankV2.sol\":6060:6096  withdrawLimitUsd = _withdrawLimitUsd */\n  0xa0\n  dup2\n  dup2\n  mstore\n  pop\n  pop\n    /* \"src/KipuBankV2.sol\":6148:6165  _defaultPriceFeed */\n  dup1\n    /* \"src/KipuBankV2.sol\":6107:6166  defaultPriceFeed = AggregatorV3Interface(_defaultPriceFeed) */\n  0xffffffffffffffffffffffffffffffffffffffff\n  and\n  0xc0\n  dup2\n  0xffffffffffffffffffffffffffffffffffffffff\n  and\n  dup2\n  mstore\n  pop\n  pop\n    /* \"src/KipuBankV2.sol\":5771:6174  constructor(uint256 _bankCapUsd, uint256 _withdrawLimitUsd, address _defaultPriceFeed) {... */\n  pop\n  pop\n  pop\n    /* \"src/KipuBankV2.sol\":1697:15199  contract KipuBankV2{... */\n  jump(tag_9)\n    /* \"#utility.yul\":88:205   */\ntag_11:\n    /* \"#utility.yul\":197:198   */\n  0x00\n    /* \"#utility.yul\":194:195   */\n  0x00\n    /* \"#utility.yul\":187:199   */\n  revert\n    /* \"#utility.yul\":334:411   */\ntag_13:\n    /* \"#utility.yul\":371:378   */\n  0x00\n    /* \"#utility.yul\":400:405   */\n  dup2\n    /* \"#utility.yul\":389:405   */\n  swap1\n  pop\n    /* \"#utility.yul\":334:411   */\n  swap2\n  swap1\n  pop\n  jump\t// out\n    /* \"#utility.yul\":417:539   */\ntag_14:\n    /* \"#utility.yul\":490:514   */\n  tag_26\n    /* \"#utility.yul\":508:513   */\n  dup2\n    /* \"#utility.yul\":490:514   */\n  tag_13\n  jump\t// in\ntag_26:\n    /* \"#utility.yul\":483:488   */\n  dup2\n    /* \"#utility.yul\":480:515   */\n  eq\n    /* \"#utility.yul\":470:533   */\n  tag_27\n  jumpi\n    /* \"#utility.yul\":529:530   */\n  0x00\n    /* \"#utility.yul\":526:527   */\n  0x00\n    /* \"#utility.yul\":519:531   */\n  revert\n    /* \"#utility.yul\":470:533   */\ntag_27:\n    /* \"#utility.yul\":417:539   */\n  pop\n  jump\t// out\n    /* \"#utility.yul\":545:688   */\ntag_15:\n    /* \"#utility.yul\":602:607   */\n  0x00\n    /* \"#utility.yul\":633:639   */\n  dup2\n    /* \"#utility.yul\":627:640   */\n  mload\n    /* \"#utility.yul\":618:640   */\n  swap1\n  pop\n    /* \"#utility.yul\":649:682   */\n  tag_29\n    /* \"#utility.yul\":676:681   */\n  dup2\n    /* \"#utility.yul\":649:682   */\n  tag_14\n  jump\t// in\ntag_29:\n    /* \"#utility.yul\":545:688   */\n  swap3\n  swap2\n  pop\n  pop\n  jump\t// out\n    /* \"#utility.yul\":694:820   */\ntag_16:\n    /* \"#utility.yul\":731:738   */\n  0x00\n    /* \"#utility.yul\":771:813   */\n  0xffffffffffffffffffffffffffffffffffffffff\n    /* \"#utility.yul\":764:769   */\n  dup3\n    /* \"#utility.yul\":760:814   */\n  and\n    /* \"#utility.yul\":749:814   */\n  swap1\n  pop\n    /* \"#utility.yul\":694:820   */\n  swap2\n  swap1\n  pop\n  jump\t// out\n    /* \"#utility.yul\":826:922   */\ntag_17:\n    /* \"#utility.yul\":863:870   */\n  0x00\n    /* \"#utility.yul\":892:916   */\n  tag_32\n    /* \"#utility.yul\":910:915   */\n  dup3\n    /* \"#utility.yul\":892:916   */\n  tag_16\n  jump\t// in\ntag_32:\n    /* \"#utility.yul\":881:916   */\n  swap1\n  pop\n    /* \"#utility.yul\":826:922   */\n  swap2\n  swap1\n  pop\n  jump\t// out\n    /* \"#utility.yul\":928:1050   */\ntag_18:\n    /* \"#utility.yul\":1001:1025   */\n  tag_34\n    /* \"#utility.yul\":1019:1024   */\n  dup2\n    /* \"#utility.yul\":1001:1025   */\n  tag_17\n  jump\t// in\ntag_34:\n    /* \"#utility.yul\":994:999   */\n  dup2\n    /* \"#utility.yul\":991:1026   */\n  eq\n    /* \"#utility.yul\":981:1044   */\n  tag_35\n  jumpi\n    /* \"#utility.yul\":1040:1041   */\n  0x00\n    /* \"#utility.yul\":1037:1038   */\n  0x00\n    /* \"#utility.yul\":1030:1042   */\n  revert\n    /* \"#utility.yul\":981:1044   */\ntag_35:\n    /* \"#utility.yul\":928:1050   */\n  pop\n  jump\t// out\n    /* \"#utility.yul\":1056:1199   */\ntag_19:\n    /* \"#utility.yul\":1113:1118   */\n  0x00\n    /* \"#utility.yul\":1144:1150   */\n  dup2\n    /* \"#utility.yul\":1138:1151   */\n  mload\n    /* \"#utility.yul\":1129:1151   */\n  swap1\n  pop\n    /* \"#utility.yul\":1160:1193   */\n  tag_37\n    /* \"#utility.yul\":1187:1192   */\n  dup2\n    /* \"#utility.yul\":1160:1193   */\n  tag_18\n  jump\t// in\ntag_37:\n    /* \"#utility.yul\":1056:1199   */\n  swap3\n  swap2\n  pop\n  pop\n  jump\t// out\n    /* \"#utility.yul\":1205:1868   */\ntag_3:\n    /* \"#utility.yul\":1293:1299   */\n  0x00\n    /* \"#utility.yul\":1301:1307   */\n  0x00\n    /* \"#utility.yul\":1309:1315   */\n  0x00\n    /* \"#utility.yul\":1358:1360   */\n  0x60\n    /* \"#utility.yul\":1346:1355   */\n  dup5\n    /* \"#utility.yul\":1337:1344   */\n  dup7\n    /* \"#utility.yul\":1333:1356   */\n  sub\n    /* \"#utility.yul\":1329:1361   */\n  slt\n    /* \"#utility.yul\":1326:1445   */\n  iszero\n  tag_39\n  jumpi\n    /* \"#utility.yul\":1364:1443   */\n  tag_40\n  tag_11\n  jump\t// in\ntag_40:\n    /* \"#utility.yul\":1326:1445   */\ntag_39:\n    /* \"#utility.yul\":1484:1485   */\n  0x00\n    /* \"#utility.yul\":1509:1573   */\n  tag_41\n    /* \"#utility.yul\":1565:1572   */\n  dup7\n    /* \"#utility.yul\":1556:1562   */\n  dup3\n    /* \"#utility.yul\":1545:1554   */\n  dup8\n    /* \"#utility.yul\":1541:1563   */\n  add\n    /* \"#utility.yul\":1509:1573   */\n  tag_15\n  jump\t// in\ntag_41:\n    /* \"#utility.yul\":1499:1573   */\n  swap4\n  pop\n    /* \"#utility.yul\":1455:1583   */\n  pop\n    /* \"#utility.yul\":1622:1624   */\n  0x20\n    /* \"#utility.yul\":1648:1712   */\n  tag_42\n    /* \"#utility.yul\":1704:1711   */\n  dup7\n    /* \"#utility.yul\":1695:1701   */\n  dup3\n    /* \"#utility.yul\":1684:1693   */\n  dup8\n    /* \"#utility.yul\":1680:1702   */\n  add\n    /* \"#utility.yul\":1648:1712   */\n  tag_15\n  jump\t// in\ntag_42:\n    /* \"#utility.yul\":1638:1712   */\n  swap3\n  pop\n    /* \"#utility.yul\":1593:1722   */\n  pop\n    /* \"#utility.yul\":1761:1763   */\n  0x40\n    /* \"#utility.yul\":1787:1851   */\n  tag_43\n    /* \"#utility.yul\":1843:1850   */\n  dup7\n    /* \"#utility.yul\":1834:1840   */\n  dup3\n    /* \"#utility.yul\":1823:1832   */\n  dup8\n    /* \"#utility.yul\":1819:1841   */\n  add\n    /* \"#utility.yul\":1787:1851   */\n  tag_19\n  jump\t// in\ntag_43:\n    /* \"#utility.yul\":1777:1851   */\n  swap2\n  pop\n    /* \"#utility.yul\":1732:1861   */\n  pop\n    /* \"#utility.yul\":1205:1868   */\n  swap3\n  pop\n  swap3\n  pop\n  swap3\n  jump\t// out\n    /* \"src/KipuBankV2.sol\":1697:15199  contract KipuBankV2{... */\ntag_9:\n  mload(0x80)\n  mload(0xa0)\n  mload(0xc0)\n  codecopy(0x00, dataOffset(sub_0), dataSize(sub_0))\n  0x00\n  assignImmutable(\"0xecb3d63bca2dac2f15cfd948f18f200abecc477e6036fc1499f13da50bed1ba1\")\n  0x00\n  assignImmutable(\"0x2a9063ed52b7d417e441f378325359c9ce274f5d6c3ecf11b7d42f24b9c90b7f\")\n  0x00\n  assignImmutable(\"0xc41c8390c0da0418b7667ee0df6c246c26c4be6c0618368dce5a916e8008b0db\")\n  return(0x00, dataSize(sub_0))\nstop\n\nsub_0: assembly {\n        /* \"src/KipuBankV2.sol\":1697:15199  contract KipuBankV2{... */\n      mstore(0x40, 0x80)\n      jumpi(tag_1, lt(calldatasize, 0x04))\n      shr(0xe0, calldataload(0x00))\n      dup1\n      0xb7b0ffd8\n      gt\n      tag_19\n      jumpi\n      dup1\n      0xe243df20\n      gt\n      tag_20\n      jumpi\n      dup1\n      0xe243df20\n      eq\n      tag_15\n      jumpi\n      dup1\n      0xf14210a6\n      eq\n      tag_16\n      jumpi\n      dup1\n      0xf6326fb3\n      eq\n      tag_17\n      jumpi\n      dup1\n      0xf7888aec\n      eq\n      tag_18\n      jumpi\n      jump(tag_2)\n    tag_20:\n      dup1\n      0xb7b0ffd8\n      eq\n      tag_11\n      jumpi\n      dup1\n      0xbe406e6c\n      eq\n      tag_12\n      jumpi\n      dup1\n      0xc1636bc9\n      eq\n      tag_13\n      jumpi\n      dup1\n      0xd6343867\n      eq\n      tag_14\n      jumpi\n      jump(tag_2)\n    tag_19:\n      dup1\n      0x97feb926\n      gt\n      tag_21\n      jumpi\n      dup1\n      0x97feb926\n      eq\n      tag_7\n      jumpi\n      dup1\n      0x9dcb511a\n      eq\n      tag_8\n      jumpi\n      dup1\n      0xa1db9782\n      eq\n      tag_9\n      jumpi\n      dup1\n      0xac4543ba\n      eq\n      tag_10\n      jumpi\n      jump(tag_2)\n    tag_21:\n      dup1\n      0x13af4035\n      eq\n      tag_3\n      jumpi\n      dup1\n      0x503e7042\n      eq\n      tag_4\n      jumpi\n      dup1\n      0x76e11286\n      eq\n      tag_5\n      jumpi\n      dup1\n      0x8da5cb5b\n      eq\n      tag_6\n      jumpi\n      jump(tag_2)\n    tag_1:\n      jumpi(tag_2, calldatasize)\n        /* \"src/KipuBankV2.sol\":15031:15035  this */\n      address\n        /* \"src/KipuBankV2.sol\":15031:15046  this.depositETH */\n      0xffffffffffffffffffffffffffffffffffffffff\n      and\n      0xf6326fb3\n        /* \"src/KipuBankV2.sol\":15054:15063  msg.value */\n      callvalue\n        /* \"src/KipuBankV2.sol\":15031:15066  this.depositETH{value: msg.value}() */\n      mload(0x40)\n      dup3\n      0xffffffff\n      and\n      0xe0\n      shl\n      dup2\n      mstore\n      0x04\n      add\n      0x00\n      mload(0x40)\n      dup1\n      dup4\n      sub\n      dup2\n      dup6\n      dup9\n      dup1\n      extcodesize\n      iszero\n      dup1\n      iszero\n      tag_24\n      jumpi\n      revert(0x00, 0x00)\n    tag_24:\n      pop\n      gas\n      call\n      iszero\n      dup1\n      iszero\n      tag_26\n      jumpi\n      returndatacopy(0x00, 0x00, returndatasize)\n      revert(0x00, returndatasize)\n    tag_26:\n      stop\n        /* \"src/KipuBankV2.sol\":1697:15199  contract KipuBankV2{... */\n    tag_2:\n        /* \"src/KipuBankV2.sol\":15180:15188  revert() */\n      revert(0x00, 0x00)\n        /* \"src/KipuBankV2.sol\":6954:7173  function setOwner(address newOwner) external onlyOwner {... */\n    tag_3:\n      callvalue\n      dup1\n      iszero\n      tag_29\n      jumpi\n      revert(0x00, 0x00)\n    tag_29:\n      pop\n      tag_30\n      0x04\n      dup1\n      calldatasize\n      sub\n      dup2\n      add\n      swap1\n      tag_31\n      swap2\n      swap1\n      tag_32\n      jump\t// in\n    tag_31:\n      tag_33\n      jump\t// in\n    tag_30:\n      stop\n        /* \"src/KipuBankV2.sol\":3044:3077  uint256 public totalWithdrawCount */\n    tag_4:\n      callvalue\n      dup1\n      iszero\n      tag_34\n      jumpi\n      revert(0x00, 0x00)\n    tag_34:\n      pop\n      tag_35\n      tag_36\n      jump\t// in\n    tag_35:\n      mload(0x40)\n      tag_37\n      swap2\n      swap1\n      tag_38\n      jump\t// in\n    tag_37:\n      mload(0x40)\n      dup1\n      swap2\n      sub\n      swap1\n      return\n        /* \"src/KipuBankV2.sol\":6601:6778  function setPriceFeed(address token, address feed) external onlyOwner {... */\n    tag_5:\n      callvalue\n      dup1\n      iszero\n      tag_39\n      jumpi\n      revert(0x00, 0x00)\n    tag_39:\n      pop\n      tag_40\n      0x04\n      dup1\n      calldatasize\n      sub\n      dup2\n      add\n      swap1\n      tag_41\n      swap2\n      swap1\n      tag_42\n      jump\t// in\n    tag_41:\n      tag_43\n      jump\t// in\n    tag_40:\n      stop\n        /* \"src/KipuBankV2.sol\":2492:2512  address public owner */\n    tag_6:\n      callvalue\n      dup1\n      iszero\n      tag_44\n      jumpi\n      revert(0x00, 0x00)\n    tag_44:\n      pop\n      tag_45\n      tag_46\n      jump\t// in\n    tag_45:\n      mload(0x40)\n      tag_47\n      swap2\n      swap1\n      tag_48\n      jump\t// in\n    tag_47:\n      mload(0x40)\n      dup1\n      swap2\n      sub\n      swap1\n      return\n        /* \"src/KipuBankV2.sol\":8776:9921  function depositERC20(address token, uint256 amount) external nonReentrant nonZero(amount) {... */\n    tag_7:\n      callvalue\n      dup1\n      iszero\n      tag_49\n      jumpi\n      revert(0x00, 0x00)\n    tag_49:\n      pop\n      tag_50\n      0x04\n      dup1\n      calldatasize\n      sub\n      dup2\n      add\n      swap1\n      tag_51\n      swap2\n      swap1\n      tag_52\n      jump\t// in\n    tag_51:\n      tag_53\n      jump\t// in\n    tag_50:\n      stop\n        /* \"src/KipuBankV2.sol\":2746:2805  mapping(address => AggregatorV3Interface) public priceFeeds */\n    tag_8:\n      callvalue\n      dup1\n      iszero\n      tag_54\n      jumpi\n      revert(0x00, 0x00)\n    tag_54:\n      pop\n      tag_55\n      0x04\n      dup1\n      calldatasize\n      sub\n      dup2\n      add\n      swap1\n      tag_56\n      swap2\n      swap1\n      tag_32\n      jump\t// in\n    tag_56:\n      tag_57\n      jump\t// in\n    tag_55:\n      mload(0x40)\n      tag_58\n      swap2\n      swap1\n      tag_59\n      jump\t// in\n    tag_58:\n      mload(0x40)\n      dup1\n      swap2\n      sub\n      swap1\n      return\n        /* \"src/KipuBankV2.sol\":11112:11969  function withdrawERC20(address token, uint256 amount) external nonReentrant nonZero(amount) {... */\n    tag_9:\n      callvalue\n      dup1\n      iszero\n      tag_60\n      jumpi\n      revert(0x00, 0x00)\n    tag_60:\n      pop\n      tag_61\n      0x04\n      dup1\n      calldatasize\n      sub\n      dup2\n      add\n      swap1\n      tag_62\n      swap2\n      swap1\n      tag_52\n      jump\t// in\n    tag_62:\n      tag_63\n      jump\t// in\n    tag_61:\n      stop\n        /* \"src/KipuBankV2.sol\":2060:2095  uint256 public immutable bankCapUsd */\n    tag_10:\n      callvalue\n      dup1\n      iszero\n      tag_64\n      jumpi\n      revert(0x00, 0x00)\n    tag_64:\n      pop\n      tag_65\n      tag_66\n      jump\t// in\n    tag_65:\n      mload(0x40)\n      tag_67\n      swap2\n      swap1\n      tag_38\n      jump\t// in\n    tag_67:\n      mload(0x40)\n      dup1\n      swap2\n      sub\n      swap1\n      return\n        /* \"src/KipuBankV2.sol\":2936:2968  uint256 public totalDepositedUsd */\n    tag_11:\n      callvalue\n      dup1\n      iszero\n      tag_68\n      jumpi\n      revert(0x00, 0x00)\n    tag_68:\n      pop\n      tag_69\n      tag_70\n      jump\t// in\n    tag_69:\n      mload(0x40)\n      tag_71\n      swap2\n      swap1\n      tag_38\n      jump\t// in\n    tag_71:\n      mload(0x40)\n      dup1\n      swap2\n      sub\n      swap1\n      return\n        /* \"src/KipuBankV2.sol\":1862:1905  uint8 public constant INTERNAL_DECIMALS = 6 */\n    tag_12:\n      callvalue\n      dup1\n      iszero\n      tag_72\n      jumpi\n      revert(0x00, 0x00)\n    tag_72:\n      pop\n      tag_73\n      tag_74\n      jump\t// in\n    tag_73:\n      mload(0x40)\n      tag_75\n      swap2\n      swap1\n      tag_76\n      jump\t// in\n    tag_75:\n      mload(0x40)\n      dup1\n      swap2\n      sub\n      swap1\n      return\n        /* \"src/KipuBankV2.sol\":2332:2387  AggregatorV3Interface public immutable defaultPriceFeed */\n    tag_13:\n      callvalue\n      dup1\n      iszero\n      tag_77\n      jumpi\n      revert(0x00, 0x00)\n    tag_77:\n      pop\n      tag_78\n      tag_79\n      jump\t// in\n    tag_78:\n      mload(0x40)\n      tag_80\n      swap2\n      swap1\n      tag_59\n      jump\t// in\n    tag_80:\n      mload(0x40)\n      dup1\n      swap2\n      sub\n      swap1\n      return\n        /* \"src/KipuBankV2.sol\":3005:3037  uint256 public totalDepositCount */\n    tag_14:\n      callvalue\n      dup1\n      iszero\n      tag_81\n      jumpi\n      revert(0x00, 0x00)\n    tag_81:\n      pop\n      tag_82\n      tag_83\n      jump\t// in\n    tag_82:\n      mload(0x40)\n      tag_84\n      swap2\n      swap1\n      tag_38\n      jump\t// in\n    tag_84:\n      mload(0x40)\n      dup1\n      swap2\n      sub\n      swap1\n      return\n        /* \"src/KipuBankV2.sol\":2197:2238  uint256 public immutable withdrawLimitUsd */\n    tag_15:\n      callvalue\n      dup1\n      iszero\n      tag_85\n      jumpi\n      revert(0x00, 0x00)\n    tag_85:\n      pop\n      tag_86\n      tag_87\n      jump\t// in\n    tag_86:\n      mload(0x40)\n      tag_88\n      swap2\n      swap1\n      tag_38\n      jump\t// in\n    tag_88:\n      mload(0x40)\n      dup1\n      swap2\n      sub\n      swap1\n      return\n        /* \"src/KipuBankV2.sol\":10080:10959  function withdrawETH(uint256 amount) external nonReentrant nonZero(amount) {... */\n    tag_16:\n      callvalue\n      dup1\n      iszero\n      tag_89\n      jumpi\n      revert(0x00, 0x00)\n    tag_89:\n      pop\n      tag_90\n      0x04\n      dup1\n      calldatasize\n      sub\n      dup2\n      add\n      swap1\n      tag_91\n      swap2\n      swap1\n      tag_92\n      jump\t// in\n    tag_91:\n      tag_93\n      jump\t// in\n    tag_90:\n      stop\n        /* \"src/KipuBankV2.sol\":8006:8578  function depositETH() external payable nonReentrant nonZero(msg.value) {... */\n    tag_17:\n      tag_94\n      tag_95\n      jump\t// in\n    tag_94:\n      stop\n        /* \"src/KipuBankV2.sol\":12085:12212  function balanceOf(address token, address user) external view returns (uint256) {... */\n    tag_18:\n      callvalue\n      dup1\n      iszero\n      tag_96\n      jumpi\n      revert(0x00, 0x00)\n    tag_96:\n      pop\n      tag_97\n      0x04\n      dup1\n      calldatasize\n      sub\n      dup2\n      add\n      swap1\n      tag_98\n      swap2\n      swap1\n      tag_42\n      jump\t// in\n    tag_98:\n      tag_99\n      jump\t// in\n    tag_97:\n      mload(0x40)\n      tag_100\n      swap2\n      swap1\n      tag_38\n      jump\t// in\n    tag_100:\n      mload(0x40)\n      dup1\n      swap2\n      sub\n      swap1\n      return\n        /* \"src/KipuBankV2.sol\":6954:7173  function setOwner(address newOwner) external onlyOwner {... */\n    tag_33:\n        /* \"src/KipuBankV2.sol\":5046:5051  owner */\n      0x00\n      0x00\n      swap1\n      sload\n      swap1\n      0x0100\n      exp\n      swap1\n      div\n      0xffffffffffffffffffffffffffffffffffffffff\n      and\n        /* \"src/KipuBankV2.sol\":5032:5051  msg.sender != owner */\n      0xffffffffffffffffffffffffffffffffffffffff\n      and\n        /* \"src/KipuBankV2.sol\":5032:5042  msg.sender */\n      caller\n        /* \"src/KipuBankV2.sol\":5032:5051  msg.sender != owner */\n      0xffffffffffffffffffffffffffffffffffffffff\n      and\n      eq\n        /* \"src/KipuBankV2.sol\":5028:5077  if (msg.sender != owner) revert ErrUnauthorized() */\n      tag_102\n      jumpi\n        /* \"src/KipuBankV2.sol\":5060:5077  ErrUnauthorized() */\n      mload(0x40)\n      0xcc12cef600000000000000000000000000000000000000000000000000000000\n      dup2\n      mstore\n      0x04\n      add\n      mload(0x40)\n      dup1\n      swap2\n      sub\n      swap1\n      revert\n        /* \"src/KipuBankV2.sol\":5028:5077  if (msg.sender != owner) revert ErrUnauthorized() */\n    tag_102:\n        /* \"src/KipuBankV2.sol\":7048:7049  0 */\n      0x00\n        /* \"src/KipuBankV2.sol\":7028:7050  newOwner != address(0) */\n      0xffffffffffffffffffffffffffffffffffffffff\n      and\n        /* \"src/KipuBankV2.sol\":7028:7036  newOwner */\n      dup2\n        /* \"src/KipuBankV2.sol\":7028:7050  newOwner != address(0) */\n      0xffffffffffffffffffffffffffffffffffffffff\n      and\n      sub\n        /* \"src/KipuBankV2.sol\":7020:7065  require(newOwner != address(0), \"zero owner\") */\n      tag_104\n      jumpi\n      mload(0x40)\n      0x08c379a000000000000000000000000000000000000000000000000000000000\n      dup2\n      mstore\n      0x04\n      add\n      tag_105\n      swap1\n      tag_106\n      jump\t// in\n    tag_105:\n      mload(0x40)\n      dup1\n      swap2\n      sub\n      swap1\n      revert\n    tag_104:\n        /* \"src/KipuBankV2.sol\":7076:7087  address old */\n      0x00\n        /* \"src/KipuBankV2.sol\":7090:7095  owner */\n      0x00\n      0x00\n      swap1\n      sload\n      swap1\n      0x0100\n      exp\n      swap1\n      div\n      0xffffffffffffffffffffffffffffffffffffffff\n      and\n        /* \"src/KipuBankV2.sol\":7076:7095  address old = owner */\n      swap1\n      pop\n        /* \"src/KipuBankV2.sol\":7114:7122  newOwner */\n      dup2\n        /* \"src/KipuBankV2.sol\":7106:7111  owner */\n      0x00\n      0x00\n        /* \"src/KipuBankV2.sol\":7106:7122  owner = newOwner */\n      0x0100\n      exp\n      dup2\n      sload\n      dup2\n      0xffffffffffffffffffffffffffffffffffffffff\n      mul\n      not\n      and\n      swap1\n      dup4\n      0xffffffffffffffffffffffffffffffffffffffff\n      and\n      mul\n      or\n      swap1\n      sstore\n      pop\n        /* \"src/KipuBankV2.sol\":7156:7164  newOwner */\n      dup2\n        /* \"src/KipuBankV2.sol\":7138:7165  OwnerChanged(old, newOwner) */\n      0xffffffffffffffffffffffffffffffffffffffff\n      and\n        /* \"src/KipuBankV2.sol\":7151:7154  old */\n      dup2\n        /* \"src/KipuBankV2.sol\":7138:7165  OwnerChanged(old, newOwner) */\n      0xffffffffffffffffffffffffffffffffffffffff\n      and\n      0xb532073b38c83145e3e5135377a08bf9aab55bc0fd7c1179cd4fb995d2a5159c\n      mload(0x40)\n      mload(0x40)\n      dup1\n      swap2\n      sub\n      swap1\n      log3\n        /* \"src/KipuBankV2.sol\":7009:7173  {... */\n      pop\n        /* \"src/KipuBankV2.sol\":6954:7173  function setOwner(address newOwner) external onlyOwner {... */\n      pop\n      jump\t// out\n        /* \"src/KipuBankV2.sol\":3044:3077  uint256 public totalWithdrawCount */\n    tag_36:\n      sload(0x05)\n      dup2\n      jump\t// out\n        /* \"src/KipuBankV2.sol\":6601:6778  function setPriceFeed(address token, address feed) external onlyOwner {... */\n    tag_43:\n        /* \"src/KipuBankV2.sol\":5046:5051  owner */\n      0x00\n      0x00\n      swap1\n      sload\n      swap1\n      0x0100\n      exp\n      swap1\n      div\n      0xffffffffffffffffffffffffffffffffffffffff\n      and\n        /* \"src/KipuBankV2.sol\":5032:5051  msg.sender != owner */\n      0xffffffffffffffffffffffffffffffffffffffff\n      and\n        /* \"src/KipuBankV2.sol\":5032:5042  msg.sender */\n      caller\n        /* \"src/KipuBankV2.sol\":5032:5051  msg.sender != owner */\n      0xffffffffffffffffffffffffffffffffffffffff\n      and\n      eq\n        /* \"src/KipuBankV2.sol\":5028:5077  if (msg.sender != owner) revert ErrUnauthorized() */\n      tag_108\n      jumpi\n        /* \"src/KipuBankV2.sol\":5060:5077  ErrUnauthorized() */\n      mload(0x40)\n      0xcc12cef600000000000000000000000000000000000000000000000000000000\n      dup2\n      mstore\n      0x04\n      add\n      mload(0x40)\n      dup1\n      swap2\n      sub\n      swap1\n      revert\n        /* \"src/KipuBankV2.sol\":5028:5077  if (msg.sender != owner) revert ErrUnauthorized() */\n    tag_108:\n        /* \"src/KipuBankV2.sol\":6724:6728  feed */\n      dup1\n        /* \"src/KipuBankV2.sol\":6682:6692  priceFeeds */\n      0x02\n        /* \"src/KipuBankV2.sol\":6682:6699  priceFeeds[token] */\n      0x00\n        /* \"src/KipuBankV2.sol\":6693:6698  token */\n      dup5\n        /* \"src/KipuBankV2.sol\":6682:6699  priceFeeds[token] */\n      0xffffffffffffffffffffffffffffffffffffffff\n      and\n      0xffffffffffffffffffffffffffffffffffffffff\n      and\n      dup2\n      mstore\n      0x20\n      add\n      swap1\n      dup2\n      mstore\n      0x20\n      add\n      0x00\n      keccak256\n      0x00\n        /* \"src/KipuBankV2.sol\":6682:6729  priceFeeds[token] = AggregatorV3Interface(feed) */\n      0x0100\n      exp\n      dup2\n      sload\n      dup2\n      0xffffffffffffffffffffffffffffffffffffffff\n      mul\n      not\n      and\n      swap1\n      dup4\n      0xffffffffffffffffffffffffffffffffffffffff\n      and\n      mul\n      or\n      swap1\n      sstore\n      pop\n        /* \"src/KipuBankV2.sol\":6765:6769  feed */\n      dup1\n        /* \"src/KipuBankV2.sol\":6745:6770  PriceFeedSet(token, feed) */\n      0xffffffffffffffffffffffffffffffffffffffff\n      and\n        /* \"src/KipuBankV2.sol\":6758:6763  token */\n      dup3\n        /* \"src/KipuBankV2.sol\":6745:6770  PriceFeedSet(token, feed) */\n      0xffffffffffffffffffffffffffffffffffffffff\n      and\n      0xd2d8394cf7549a5ddbc2ba3dd7b2de8d53c891472d1f2907008ed6a10045fdae\n      mload(0x40)\n      mload(0x40)\n      dup1\n      swap2\n      sub\n      swap1\n      log3\n        /* \"src/KipuBankV2.sol\":6601:6778  function setPriceFeed(address token, address feed) external onlyOwner {... */\n      pop\n      pop\n      jump\t// out\n        /* \"src/KipuBankV2.sol\":2492:2512  address public owner */\n    tag_46:\n      0x00\n      0x00\n      swap1\n      sload\n      swap1\n      0x0100\n      exp\n      swap1\n      div\n      0xffffffffffffffffffffffffffffffffffffffff\n      and\n      dup2\n      jump\t// out\n        /* \"src/KipuBankV2.sol\":8776:9921  function depositERC20(address token, uint256 amount) external nonReentrant nonZero(amount) {... */\n    tag_53:\n        /* \"src/KipuBankV2.sol\":4836:4842  locked */\n      0x06\n      0x00\n      swap1\n      sload\n      swap1\n      0x0100\n      exp\n      swap1\n      div\n      0xff\n      and\n        /* \"src/KipuBankV2.sol\":4832:4869  if (locked) revert ErrReentrantCall() */\n      iszero\n      tag_111\n      jumpi\n        /* \"src/KipuBankV2.sol\":4851:4869  ErrReentrantCall() */\n      mload(0x40)\n      0x5a919cd900000000000000000000000000000000000000000000000000000000\n      dup2\n      mstore\n      0x04\n      add\n      mload(0x40)\n      dup1\n      swap2\n      sub\n      swap1\n      revert\n        /* \"src/KipuBankV2.sol\":4832:4869  if (locked) revert ErrReentrantCall() */\n    tag_111:\n        /* \"src/KipuBankV2.sol\":4889:4893  true */\n      0x01\n        /* \"src/KipuBankV2.sol\":4880:4886  locked */\n      0x06\n      0x00\n        /* \"src/KipuBankV2.sol\":4880:4893  locked = true */\n      0x0100\n      exp\n      dup2\n      sload\n      dup2\n      0xff\n      mul\n      not\n      and\n      swap1\n      dup4\n      iszero\n      iszero\n      mul\n      or\n      swap1\n      sstore\n      pop\n        /* \"src/KipuBankV2.sol\":8859:8865  amount */\n      dup1\n        /* \"src/KipuBankV2.sol\":5337:5338  0 */\n      0x00\n        /* \"src/KipuBankV2.sol\":5327:5333  amount */\n      dup2\n        /* \"src/KipuBankV2.sol\":5327:5338  amount == 0 */\n      sub\n        /* \"src/KipuBankV2.sol\":5323:5362  if (amount == 0) revert ErrZeroAmount() */\n      tag_113\n      jumpi\n        /* \"src/KipuBankV2.sol\":5347:5362  ErrZeroAmount() */\n      mload(0x40)\n      0x608294ac00000000000000000000000000000000000000000000000000000000\n      dup2\n      mstore\n      0x04\n      add\n      mload(0x40)\n      dup1\n      swap2\n      sub\n      swap1\n      revert\n        /* \"src/KipuBankV2.sol\":5323:5362  if (amount == 0) revert ErrZeroAmount() */\n    tag_113:\n        /* \"src/KipuBankV2.sol\":8899:8900  0 */\n      0x00\n        /* \"src/KipuBankV2.sol\":8882:8901  token == address(0) */\n      0xffffffffffffffffffffffffffffffffffffffff\n      and\n        /* \"src/KipuBankV2.sol\":8882:8887  token */\n      dup4\n        /* \"src/KipuBankV2.sol\":8882:8901  token == address(0) */\n      0xffffffffffffffffffffffffffffffffffffffff\n      and\n      sub\n        /* \"src/KipuBankV2.sol\":8878:8925  if (token == address(0)) revert ErrZeroAmount() */\n      tag_115\n      jumpi\n        /* \"src/KipuBankV2.sol\":8910:8925  ErrZeroAmount() */\n      mload(0x40)\n      0x608294ac00000000000000000000000000000000000000000000000000000000\n      dup2\n      mstore\n      0x04\n      add\n      mload(0x40)\n      dup1\n      swap2\n      sub\n      swap1\n      revert\n        /* \"src/KipuBankV2.sol\":8878:8925  if (token == address(0)) revert ErrZeroAmount() */\n    tag_115:\n        /* \"src/KipuBankV2.sol\":8983:9009  AggregatorV3Interface feed */\n      0x00\n        /* \"src/KipuBankV2.sol\":9012:9022  priceFeeds */\n      0x02\n        /* \"src/KipuBankV2.sol\":9012:9029  priceFeeds[token] */\n      0x00\n        /* \"src/KipuBankV2.sol\":9023:9028  token */\n      dup6\n        /* \"src/KipuBankV2.sol\":9012:9029  priceFeeds[token] */\n      0xffffffffffffffffffffffffffffffffffffffff\n      and\n      0xffffffffffffffffffffffffffffffffffffffff\n      and\n      dup2\n      mstore\n      0x20\n      add\n      swap1\n      dup2\n      mstore\n      0x20\n      add\n      0x00\n      keccak256\n      0x00\n      swap1\n      sload\n      swap1\n      0x0100\n      exp\n      swap1\n      div\n      0xffffffffffffffffffffffffffffffffffffffff\n      and\n        /* \"src/KipuBankV2.sol\":8983:9029  AggregatorV3Interface feed = priceFeeds[token] */\n      swap1\n      pop\n        /* \"src/KipuBankV2.sol\":9069:9070  0 */\n      0x00\n        /* \"src/KipuBankV2.sol\":9044:9071  address(feed) == address(0) */\n      0xffffffffffffffffffffffffffffffffffffffff\n      and\n        /* \"src/KipuBankV2.sol\":9052:9056  feed */\n      dup2\n        /* \"src/KipuBankV2.sol\":9044:9071  address(feed) == address(0) */\n      0xffffffffffffffffffffffffffffffffffffffff\n      and\n      sub\n        /* \"src/KipuBankV2.sol\":9040:9097  if (address(feed) == address(0)) revert ErrUnauthorized() */\n      tag_116\n      jumpi\n        /* \"src/KipuBankV2.sol\":9080:9097  ErrUnauthorized() */\n      mload(0x40)\n      0xcc12cef600000000000000000000000000000000000000000000000000000000\n      dup2\n      mstore\n      0x04\n      add\n      mload(0x40)\n      dup1\n      swap2\n      sub\n      swap1\n      revert\n        /* \"src/KipuBankV2.sol\":9040:9097  if (address(feed) == address(0)) revert ErrUnauthorized() */\n    tag_116:\n        /* \"src/KipuBankV2.sol\":9184:9191  bool ok */\n      0x00\n        /* \"src/KipuBankV2.sol\":9201:9206  token */\n      dup5\n        /* \"src/KipuBankV2.sol\":9194:9220  IERC20(token).transferFrom */\n      0xffffffffffffffffffffffffffffffffffffffff\n      and\n      0x23b872dd\n        /* \"src/KipuBankV2.sol\":9221:9231  msg.sender */\n      caller\n        /* \"src/KipuBankV2.sol\":9241:9245  this */\n      address\n        /* \"src/KipuBankV2.sol\":9248:9254  amount */\n      dup8\n        /* \"src/KipuBankV2.sol\":9194:9255  IERC20(token).transferFrom(msg.sender, address(this), amount) */\n      mload(0x40)\n      dup5\n      0xffffffff\n      and\n      0xe0\n      shl\n      dup2\n      mstore\n      0x04\n      add\n      tag_117\n      swap4\n      swap3\n      swap2\n      swap1\n      tag_118\n      jump\t// in\n    tag_117:\n      0x20\n      mload(0x40)\n      dup1\n      dup4\n      sub\n      dup2\n      0x00\n      dup8\n      gas\n      call\n      iszero\n      dup1\n      iszero\n      tag_120\n      jumpi\n      returndatacopy(0x00, 0x00, returndatasize)\n      revert(0x00, returndatasize)\n    tag_120:\n      pop\n      pop\n      pop\n      pop\n      mload(0x40)\n      returndatasize\n      not(0x1f)\n      0x1f\n      dup3\n      add\n      and\n      dup3\n      add\n      dup1\n      0x40\n      mstore\n      pop\n      dup2\n      add\n      swap1\n      tag_121\n      swap2\n      swap1\n      tag_122\n      jump\t// in\n    tag_121:\n        /* \"src/KipuBankV2.sol\":9184:9255  bool ok = IERC20(token).transferFrom(msg.sender, address(this), amount) */\n      swap1\n      pop\n        /* \"src/KipuBankV2.sol\":9271:9273  ok */\n      dup1\n        /* \"src/KipuBankV2.sol\":9266:9326  if (!ok) revert ErrTransferFailed(msg.sender, token, amount) */\n      tag_123\n      jumpi\n        /* \"src/KipuBankV2.sol\":9300:9310  msg.sender */\n      caller\n        /* \"src/KipuBankV2.sol\":9312:9317  token */\n      dup6\n        /* \"src/KipuBankV2.sol\":9319:9325  amount */\n      dup6\n        /* \"src/KipuBankV2.sol\":9282:9326  ErrTransferFailed(msg.sender, token, amount) */\n      mload(0x40)\n      0x31e6e4e100000000000000000000000000000000000000000000000000000000\n      dup2\n      mstore\n      0x04\n      add\n      tag_124\n      swap4\n      swap3\n      swap2\n      swap1\n      tag_118\n      jump\t// in\n    tag_124:\n      mload(0x40)\n      dup1\n      swap2\n      sub\n      swap1\n      revert\n        /* \"src/KipuBankV2.sol\":9266:9326  if (!ok) revert ErrTransferFailed(msg.sender, token, amount) */\n    tag_123:\n        /* \"src/KipuBankV2.sol\":9363:9380  uint256 amountUsd */\n      0x00\n        /* \"src/KipuBankV2.sol\":9383:9411  _convertToUsd(token, amount) */\n      tag_125\n        /* \"src/KipuBankV2.sol\":9397:9402  token */\n      dup7\n        /* \"src/KipuBankV2.sol\":9404:9410  amount */\n      dup7\n        /* \"src/KipuBankV2.sol\":9383:9396  _convertToUsd */\n      tag_126\n        /* \"src/KipuBankV2.sol\":9383:9411  _convertToUsd(token, amount) */\n      jump\t// in\n    tag_125:\n        /* \"src/KipuBankV2.sol\":9363:9411  uint256 amountUsd = _convertToUsd(token, amount) */\n      swap1\n      pop\n        /* \"src/KipuBankV2.sol\":9458:9468  bankCapUsd */\n      immutable(\"0xc41c8390c0da0418b7667ee0df6c246c26c4be6c0618368dce5a916e8008b0db\")\n        /* \"src/KipuBankV2.sol\":9446:9455  amountUsd */\n      dup2\n        /* \"src/KipuBankV2.sol\":9426:9443  totalDepositedUsd */\n      sload(0x03)\n        /* \"src/KipuBankV2.sol\":9426:9455  totalDepositedUsd + amountUsd */\n      tag_127\n      swap2\n      swap1\n      tag_128\n      jump\t// in\n    tag_127:\n        /* \"src/KipuBankV2.sol\":9426:9468  totalDepositedUsd + amountUsd > bankCapUsd */\n      gt\n        /* \"src/KipuBankV2.sol\":9422:9676  if (totalDepositedUsd + amountUsd > bankCapUsd) {... */\n      iszero\n      tag_129\n      jumpi\n        /* \"src/KipuBankV2.sol\":9547:9552  token */\n      dup6\n        /* \"src/KipuBankV2.sol\":9540:9562  IERC20(token).transfer */\n      0xffffffffffffffffffffffffffffffffffffffff\n      and\n      0xa9059cbb\n        /* \"src/KipuBankV2.sol\":9563:9573  msg.sender */\n      caller\n        /* \"src/KipuBankV2.sol\":9575:9581  amount */\n      dup8\n        /* \"src/KipuBankV2.sol\":9540:9582  IERC20(token).transfer(msg.sender, amount) */\n      mload(0x40)\n      dup4\n      0xffffffff\n      and\n      0xe0\n      shl\n      dup2\n      mstore\n      0x04\n      add\n      tag_130\n      swap3\n      swap2\n      swap1\n      tag_131\n      jump\t// in\n    tag_130:\n      0x20\n      mload(0x40)\n      dup1\n      dup4\n      sub\n      dup2\n      0x00\n      dup8\n      gas\n      call\n      iszero\n      dup1\n      iszero\n      tag_133\n      jumpi\n      returndatacopy(0x00, 0x00, returndatasize)\n      revert(0x00, returndatasize)\n    tag_133:\n      pop\n      pop\n      pop\n      pop\n      mload(0x40)\n      returndatasize\n      not(0x1f)\n      0x1f\n      dup3\n      add\n      and\n      dup3\n      add\n      dup1\n      0x40\n      mstore\n      pop\n      dup2\n      add\n      swap1\n      tag_134\n      swap2\n      swap1\n      tag_122\n      jump\t// in\n    tag_134:\n      pop\n        /* \"src/KipuBankV2.sol\":9623:9632  amountUsd */\n      dup1\n        /* \"src/KipuBankV2.sol\":9634:9651  totalDepositedUsd */\n      sload(0x03)\n        /* \"src/KipuBankV2.sol\":9653:9663  bankCapUsd */\n      immutable(\"0xc41c8390c0da0418b7667ee0df6c246c26c4be6c0618368dce5a916e8008b0db\")\n        /* \"src/KipuBankV2.sol\":9604:9664  ErrBankCapExceeded(amountUsd, totalDepositedUsd, bankCapUsd) */\n      mload(0x40)\n      0xcfe6749800000000000000000000000000000000000000000000000000000000\n      dup2\n      mstore\n      0x04\n      add\n      tag_135\n      swap4\n      swap3\n      swap2\n      swap1\n      tag_136\n      jump\t// in\n    tag_135:\n      mload(0x40)\n      dup1\n      swap2\n      sub\n      swap1\n      revert\n        /* \"src/KipuBankV2.sol\":9422:9676  if (totalDepositedUsd + amountUsd > bankCapUsd) {... */\n    tag_129:\n        /* \"src/KipuBankV2.sol\":9732:9779  _updateBalance(token, msg.sender, amount, true) */\n      tag_137\n        /* \"src/KipuBankV2.sol\":9747:9752  token */\n      dup7\n        /* \"src/KipuBankV2.sol\":9754:9764  msg.sender */\n      caller\n        /* \"src/KipuBankV2.sol\":9766:9772  amount */\n      dup8\n        /* \"src/KipuBankV2.sol\":9774:9778  true */\n      0x01\n        /* \"src/KipuBankV2.sol\":9732:9746  _updateBalance */\n      tag_138\n        /* \"src/KipuBankV2.sol\":9732:9779  _updateBalance(token, msg.sender, amount, true) */\n      jump\t// in\n    tag_137:\n        /* \"src/KipuBankV2.sol\":9790:9807  totalDepositCount */\n      0x04\n      0x00\n        /* \"src/KipuBankV2.sol\":9790:9809  totalDepositCount++ */\n      dup2\n      sload\n      dup1\n      swap3\n      swap2\n      swap1\n      tag_139\n      swap1\n      tag_140\n      jump\t// in\n    tag_139:\n      swap2\n      swap1\n      pop\n      sstore\n      pop\n        /* \"src/KipuBankV2.sol\":9841:9850  amountUsd */\n      dup1\n        /* \"src/KipuBankV2.sol\":9820:9837  totalDepositedUsd */\n      0x03\n      0x00\n        /* \"src/KipuBankV2.sol\":9820:9850  totalDepositedUsd += amountUsd */\n      dup3\n      dup3\n      sload\n      tag_141\n      swap2\n      swap1\n      tag_128\n      jump\t// in\n    tag_141:\n      swap3\n      pop\n      pop\n      dup2\n      swap1\n      sstore\n      pop\n        /* \"src/KipuBankV2.sol\":9888:9893  token */\n      dup6\n        /* \"src/KipuBankV2.sol\":9868:9913  Deposit(msg.sender, token, amount, amountUsd) */\n      0xffffffffffffffffffffffffffffffffffffffff\n      and\n        /* \"src/KipuBankV2.sol\":9876:9886  msg.sender */\n      caller\n        /* \"src/KipuBankV2.sol\":9868:9913  Deposit(msg.sender, token, amount, amountUsd) */\n      0xffffffffffffffffffffffffffffffffffffffff\n      and\n      0xdcbc1c05240f31ff3ad067ef1ee35ce4997762752e3a095284754544f4c709d7\n        /* \"src/KipuBankV2.sol\":9895:9901  amount */\n      dup8\n        /* \"src/KipuBankV2.sol\":9903:9912  amountUsd */\n      dup5\n        /* \"src/KipuBankV2.sol\":9868:9913  Deposit(msg.sender, token, amount, amountUsd) */\n      mload(0x40)\n      tag_142\n      swap3\n      swap2\n      swap1\n      tag_143\n      jump\t// in\n    tag_142:\n      mload(0x40)\n      dup1\n      swap2\n      sub\n      swap1\n      log3\n        /* \"src/KipuBankV2.sol\":8867:9921  {... */\n      pop\n      pop\n      pop\n        /* \"src/KipuBankV2.sol\":4904:4905  _ */\n      pop\n        /* \"src/KipuBankV2.sol\":4925:4930  false */\n      0x00\n        /* \"src/KipuBankV2.sol\":4916:4922  locked */\n      0x06\n      0x00\n        /* \"src/KipuBankV2.sol\":4916:4930  locked = false */\n      0x0100\n      exp\n      dup2\n      sload\n      dup2\n      0xff\n      mul\n      not\n      and\n      swap1\n      dup4\n      iszero\n      iszero\n      mul\n      or\n      swap1\n      sstore\n      pop\n        /* \"src/KipuBankV2.sol\":8776:9921  function depositERC20(address token, uint256 amount) external nonReentrant nonZero(amount) {... */\n      pop\n      pop\n      jump\t// out\n        /* \"src/KipuBankV2.sol\":2746:2805  mapping(address => AggregatorV3Interface) public priceFeeds */\n    tag_57:\n      mstore(0x20, 0x02)\n      dup1\n      0x00\n      mstore\n      keccak256(0x00, 0x40)\n      0x00\n      swap2\n      pop\n      sload\n      swap1\n      0x0100\n      exp\n      swap1\n      div\n      0xffffffffffffffffffffffffffffffffffffffff\n      and\n      dup2\n      jump\t// out\n        /* \"src/KipuBankV2.sol\":11112:11969  function withdrawERC20(address token, uint256 amount) external nonReentrant nonZero(amount) {... */\n    tag_63:\n        /* \"src/KipuBankV2.sol\":4836:4842  locked */\n      0x06\n      0x00\n      swap1\n      sload\n      swap1\n      0x0100\n      exp\n      swap1\n      div\n      0xff\n      and\n        /* \"src/KipuBankV2.sol\":4832:4869  if (locked) revert ErrReentrantCall() */\n      iszero\n      tag_145\n      jumpi\n        /* \"src/KipuBankV2.sol\":4851:4869  ErrReentrantCall() */\n      mload(0x40)\n      0x5a919cd900000000000000000000000000000000000000000000000000000000\n      dup2\n      mstore\n      0x04\n      add\n      mload(0x40)\n      dup1\n      swap2\n      sub\n      swap1\n      revert\n        /* \"src/KipuBankV2.sol\":4832:4869  if (locked) revert ErrReentrantCall() */\n    tag_145:\n        /* \"src/KipuBankV2.sol\":4889:4893  true */\n      0x01\n        /* \"src/KipuBankV2.sol\":4880:4886  locked */\n      0x06\n      0x00\n        /* \"src/KipuBankV2.sol\":4880:4893  locked = true */\n      0x0100\n      exp\n      dup2\n      sload\n      dup2\n      0xff\n      mul\n      not\n      and\n      swap1\n      dup4\n      iszero\n      iszero\n      mul\n      or\n      swap1\n      sstore\n      pop\n        /* \"src/KipuBankV2.sol\":11196:11202  amount */\n      dup1\n        /* \"src/KipuBankV2.sol\":5337:5338  0 */\n      0x00\n        /* \"src/KipuBankV2.sol\":5327:5333  amount */\n      dup2\n        /* \"src/KipuBankV2.sol\":5327:5338  amount == 0 */\n      sub\n        /* \"src/KipuBankV2.sol\":5323:5362  if (amount == 0) revert ErrZeroAmount() */\n      tag_147\n      jumpi\n        /* \"src/KipuBankV2.sol\":5347:5362  ErrZeroAmount() */\n      mload(0x40)\n      0x608294ac00000000000000000000000000000000000000000000000000000000\n      dup2\n      mstore\n      0x04\n      add\n      mload(0x40)\n      dup1\n      swap2\n      sub\n      swap1\n      revert\n        /* \"src/KipuBankV2.sol\":5323:5362  if (amount == 0) revert ErrZeroAmount() */\n    tag_147:\n        /* \"src/KipuBankV2.sol\":11215:11226  uint256 bal */\n      0x00\n        /* \"src/KipuBankV2.sol\":11229:11237  balances */\n      0x01\n        /* \"src/KipuBankV2.sol\":11229:11244  balances[token] */\n      0x00\n        /* \"src/KipuBankV2.sol\":11238:11243  token */\n      dup6\n        /* \"src/KipuBankV2.sol\":11229:11244  balances[token] */\n      0xffffffffffffffffffffffffffffffffffffffff\n      and\n      0xffffffffffffffffffffffffffffffffffffffff\n      and\n      dup2\n      mstore\n      0x20\n      add\n      swap1\n      dup2\n      mstore\n      0x20\n      add\n      0x00\n      keccak256\n        /* \"src/KipuBankV2.sol\":11229:11256  balances[token][msg.sender] */\n      0x00\n        /* \"src/KipuBankV2.sol\":11245:11255  msg.sender */\n      caller\n        /* \"src/KipuBankV2.sol\":11229:11256  balances[token][msg.sender] */\n      0xffffffffffffffffffffffffffffffffffffffff\n      and\n      0xffffffffffffffffffffffffffffffffffffffff\n      and\n      dup2\n      mstore\n      0x20\n      add\n      swap1\n      dup2\n      mstore\n      0x20\n      add\n      0x00\n      keccak256\n      sload\n        /* \"src/KipuBankV2.sol\":11215:11256  uint256 bal = balances[token][msg.sender] */\n      swap1\n      pop\n        /* \"src/KipuBankV2.sol\":11280:11283  bal */\n      dup1\n        /* \"src/KipuBankV2.sol\":11271:11277  amount */\n      dup4\n        /* \"src/KipuBankV2.sol\":11271:11283  amount > bal */\n      gt\n        /* \"src/KipuBankV2.sol\":11267:11334  if (amount > bal) revert ErrInsufficientBalance(token, bal, amount) */\n      iszero\n      tag_149\n      jumpi\n        /* \"src/KipuBankV2.sol\":11315:11320  token */\n      dup4\n        /* \"src/KipuBankV2.sol\":11322:11325  bal */\n      dup2\n        /* \"src/KipuBankV2.sol\":11327:11333  amount */\n      dup5\n        /* \"src/KipuBankV2.sol\":11292:11334  ErrInsufficientBalance(token, bal, amount) */\n      mload(0x40)\n      0x483b38f200000000000000000000000000000000000000000000000000000000\n      dup2\n      mstore\n      0x04\n      add\n      tag_150\n      swap4\n      swap3\n      swap2\n      swap1\n      tag_151\n      jump\t// in\n    tag_150:\n      mload(0x40)\n      dup1\n      swap2\n      sub\n      swap1\n      revert\n        /* \"src/KipuBankV2.sol\":11267:11334  if (amount > bal) revert ErrInsufficientBalance(token, bal, amount) */\n    tag_149:\n        /* \"src/KipuBankV2.sol\":11347:11364  uint256 amountUsd */\n      0x00\n        /* \"src/KipuBankV2.sol\":11367:11395  _convertToUsd(token, amount) */\n      tag_152\n        /* \"src/KipuBankV2.sol\":11381:11386  token */\n      dup6\n        /* \"src/KipuBankV2.sol\":11388:11394  amount */\n      dup6\n        /* \"src/KipuBankV2.sol\":11367:11380  _convertToUsd */\n      tag_126\n        /* \"src/KipuBankV2.sol\":11367:11395  _convertToUsd(token, amount) */\n      jump\t// in\n    tag_152:\n        /* \"src/KipuBankV2.sol\":11347:11395  uint256 amountUsd = _convertToUsd(token, amount) */\n      swap1\n      pop\n        /* \"src/KipuBankV2.sol\":11422:11438  withdrawLimitUsd */\n      immutable(\"0x2a9063ed52b7d417e441f378325359c9ce274f5d6c3ecf11b7d42f24b9c90b7f\")\n        /* \"src/KipuBankV2.sol\":11410:11419  amountUsd */\n      dup2\n        /* \"src/KipuBankV2.sol\":11410:11438  amountUsd > withdrawLimitUsd */\n      gt\n        /* \"src/KipuBankV2.sol\":11406:11500  if (amountUsd > withdrawLimitUsd) revert ErrWithdrawLimitExceeded(amountUsd, withdrawLimitUsd) */\n      iszero\n      tag_153\n      jumpi\n        /* \"src/KipuBankV2.sol\":11472:11481  amountUsd */\n      dup1\n        /* \"src/KipuBankV2.sol\":11483:11499  withdrawLimitUsd */\n      immutable(\"0x2a9063ed52b7d417e441f378325359c9ce274f5d6c3ecf11b7d42f24b9c90b7f\")\n        /* \"src/KipuBankV2.sol\":11447:11500  ErrWithdrawLimitExceeded(amountUsd, withdrawLimitUsd) */\n      mload(0x40)\n      0x2996304900000000000000000000000000000000000000000000000000000000\n      dup2\n      mstore\n      0x04\n      add\n      tag_154\n      swap3\n      swap2\n      swap1\n      tag_143\n      jump\t// in\n    tag_154:\n      mload(0x40)\n      dup1\n      swap2\n      sub\n      swap1\n      revert\n        /* \"src/KipuBankV2.sol\":11406:11500  if (amountUsd > withdrawLimitUsd) revert ErrWithdrawLimitExceeded(amountUsd, withdrawLimitUsd) */\n    tag_153:\n        /* \"src/KipuBankV2.sol\":11557:11605  _updateBalance(token, msg.sender, amount, false) */\n      tag_155\n        /* \"src/KipuBankV2.sol\":11572:11577  token */\n      dup6\n        /* \"src/KipuBankV2.sol\":11579:11589  msg.sender */\n      caller\n        /* \"src/KipuBankV2.sol\":11591:11597  amount */\n      dup7\n        /* \"src/KipuBankV2.sol\":11599:11604  false */\n      0x00\n        /* \"src/KipuBankV2.sol\":11557:11571  _updateBalance */\n      tag_138\n        /* \"src/KipuBankV2.sol\":11557:11605  _updateBalance(token, msg.sender, amount, false) */\n      jump\t// in\n    tag_155:\n        /* \"src/KipuBankV2.sol\":11616:11634  totalWithdrawCount */\n      0x05\n      0x00\n        /* \"src/KipuBankV2.sol\":11616:11636  totalWithdrawCount++ */\n      dup2\n      sload\n      dup1\n      swap3\n      swap2\n      swap1\n      tag_156\n      swap1\n      tag_140\n      jump\t// in\n    tag_156:\n      swap2\n      swap1\n      pop\n      sstore\n      pop\n        /* \"src/KipuBankV2.sol\":11680:11697  totalDepositedUsd */\n      sload(0x03)\n        /* \"src/KipuBankV2.sol\":11668:11677  amountUsd */\n      dup2\n        /* \"src/KipuBankV2.sol\":11668:11697  amountUsd > totalDepositedUsd */\n      gt\n        /* \"src/KipuBankV2.sol\":11667:11736  (amountUsd > totalDepositedUsd) ? 0 : (totalDepositedUsd - amountUsd) */\n      tag_157\n      jumpi\n        /* \"src/KipuBankV2.sol\":11726:11735  amountUsd */\n      dup1\n        /* \"src/KipuBankV2.sol\":11706:11723  totalDepositedUsd */\n      sload(0x03)\n        /* \"src/KipuBankV2.sol\":11706:11735  totalDepositedUsd - amountUsd */\n      tag_158\n      swap2\n      swap1\n      tag_159\n      jump\t// in\n    tag_158:\n        /* \"src/KipuBankV2.sol\":11667:11736  (amountUsd > totalDepositedUsd) ? 0 : (totalDepositedUsd - amountUsd) */\n      jump(tag_160)\n    tag_157:\n        /* \"src/KipuBankV2.sol\":11701:11702  0 */\n      0x00\n        /* \"src/KipuBankV2.sol\":11667:11736  (amountUsd > totalDepositedUsd) ? 0 : (totalDepositedUsd - amountUsd) */\n    tag_160:\n        /* \"src/KipuBankV2.sol\":11647:11664  totalDepositedUsd */\n      0x03\n        /* \"src/KipuBankV2.sol\":11647:11736  totalDepositedUsd = (amountUsd > totalDepositedUsd) ? 0 : (totalDepositedUsd - amountUsd) */\n      dup2\n      swap1\n      sstore\n      pop\n        /* \"src/KipuBankV2.sol\":11774:11781  bool ok */\n      0x00\n        /* \"src/KipuBankV2.sol\":11791:11796  token */\n      dup6\n        /* \"src/KipuBankV2.sol\":11784:11806  IERC20(token).transfer */\n      0xffffffffffffffffffffffffffffffffffffffff\n      and\n      0xa9059cbb\n        /* \"src/KipuBankV2.sol\":11807:11817  msg.sender */\n      caller\n        /* \"src/KipuBankV2.sol\":11819:11825  amount */\n      dup8\n        /* \"src/KipuBankV2.sol\":11784:11826  IERC20(token).transfer(msg.sender, amount) */\n      mload(0x40)\n      dup4\n      0xffffffff\n      and\n      0xe0\n      shl\n      dup2\n      mstore\n      0x04\n      add\n      tag_161\n      swap3\n      swap2\n      swap1\n      tag_131\n      jump\t// in\n    tag_161:\n      0x20\n      mload(0x40)\n      dup1\n      dup4\n      sub\n      dup2\n      0x00\n      dup8\n      gas\n      call\n      iszero\n      dup1\n      iszero\n      tag_163\n      jumpi\n      returndatacopy(0x00, 0x00, returndatasize)\n      revert(0x00, returndatasize)\n    tag_163:\n      pop\n      pop\n      pop\n      pop\n      mload(0x40)\n      returndatasize\n      not(0x1f)\n      0x1f\n      dup3\n      add\n      and\n      dup3\n      add\n      dup1\n      0x40\n      mstore\n      pop\n      dup2\n      add\n      swap1\n      tag_164\n      swap2\n      swap1\n      tag_122\n      jump\t// in\n    tag_164:\n        /* \"src/KipuBankV2.sol\":11774:11826  bool ok = IERC20(token).transfer(msg.sender, amount) */\n      swap1\n      pop\n        /* \"src/KipuBankV2.sol\":11842:11844  ok */\n      dup1\n        /* \"src/KipuBankV2.sol\":11837:11897  if (!ok) revert ErrTransferFailed(msg.sender, token, amount) */\n      tag_165\n      jumpi\n        /* \"src/KipuBankV2.sol\":11871:11881  msg.sender */\n      caller\n        /* \"src/KipuBankV2.sol\":11883:11888  token */\n      dup7\n        /* \"src/KipuBankV2.sol\":11890:11896  amount */\n      dup7\n        /* \"src/KipuBankV2.sol\":11853:11897  ErrTransferFailed(msg.sender, token, amount) */\n      mload(0x40)\n      0x31e6e4e100000000000000000000000000000000000000000000000000000000\n      dup2\n      mstore\n      0x04\n      add\n      tag_166\n      swap4\n      swap3\n      swap2\n      swap1\n      tag_118\n      jump\t// in\n    tag_166:\n      mload(0x40)\n      dup1\n      swap2\n      sub\n      swap1\n      revert\n        /* \"src/KipuBankV2.sol\":11837:11897  if (!ok) revert ErrTransferFailed(msg.sender, token, amount) */\n    tag_165:\n        /* \"src/KipuBankV2.sol\":11936:11941  token */\n      dup6\n        /* \"src/KipuBankV2.sol\":11915:11961  Withdraw(msg.sender, token, amount, amountUsd) */\n      0xffffffffffffffffffffffffffffffffffffffff\n      and\n        /* \"src/KipuBankV2.sol\":11924:11934  msg.sender */\n      caller\n        /* \"src/KipuBankV2.sol\":11915:11961  Withdraw(msg.sender, token, amount, amountUsd) */\n      0xffffffffffffffffffffffffffffffffffffffff\n      and\n      0xf341246adaac6f497bc2a656f546ab9e182111d630394f0c57c710a59a2cb567\n        /* \"src/KipuBankV2.sol\":11943:11949  amount */\n      dup8\n        /* \"src/KipuBankV2.sol\":11951:11960  amountUsd */\n      dup6\n        /* \"src/KipuBankV2.sol\":11915:11961  Withdraw(msg.sender, token, amount, amountUsd) */\n      mload(0x40)\n      tag_167\n      swap3\n      swap2\n      swap1\n      tag_143\n      jump\t// in\n    tag_167:\n      mload(0x40)\n      dup1\n      swap2\n      sub\n      swap1\n      log3\n        /* \"src/KipuBankV2.sol\":11204:11969  {... */\n      pop\n      pop\n      pop\n        /* \"src/KipuBankV2.sol\":4904:4905  _ */\n      pop\n        /* \"src/KipuBankV2.sol\":4925:4930  false */\n      0x00\n        /* \"src/KipuBankV2.sol\":4916:4922  locked */\n      0x06\n      0x00\n        /* \"src/KipuBankV2.sol\":4916:4930  locked = false */\n      0x0100\n      exp\n      dup2\n      sload\n      dup2\n      0xff\n      mul\n      not\n      and\n      swap1\n      dup4\n      iszero\n      iszero\n      mul\n      or\n      swap1\n      sstore\n      pop\n        /* \"src/KipuBankV2.sol\":11112:11969  function withdrawERC20(address token, uint256 amount) external nonReentrant nonZero(amount) {... */\n      pop\n      pop\n      jump\t// out\n        /* \"src/KipuBankV2.sol\":2060:2095  uint256 public immutable bankCapUsd */\n    tag_66:\n      immutable(\"0xc41c8390c0da0418b7667ee0df6c246c26c4be6c0618368dce5a916e8008b0db\")\n      dup2\n      jump\t// out\n        /* \"src/KipuBankV2.sol\":2936:2968  uint256 public totalDepositedUsd */\n    tag_70:\n      sload(0x03)\n      dup2\n      jump\t// out\n        /* \"src/KipuBankV2.sol\":1862:1905  uint8 public constant INTERNAL_DECIMALS = 6 */\n    tag_74:\n        /* \"src/KipuBankV2.sol\":1904:1905  6 */\n      0x06\n        /* \"src/KipuBankV2.sol\":1862:1905  uint8 public constant INTERNAL_DECIMALS = 6 */\n      dup2\n      jump\t// out\n        /* \"src/KipuBankV2.sol\":2332:2387  AggregatorV3Interface public immutable defaultPriceFeed */\n    tag_79:\n      immutable(\"0xecb3d63bca2dac2f15cfd948f18f200abecc477e6036fc1499f13da50bed1ba1\")\n      dup2\n      jump\t// out\n        /* \"src/KipuBankV2.sol\":3005:3037  uint256 public totalDepositCount */\n    tag_83:\n      sload(0x04)\n      dup2\n      jump\t// out\n        /* \"src/KipuBankV2.sol\":2197:2238  uint256 public immutable withdrawLimitUsd */\n    tag_87:\n      immutable(\"0x2a9063ed52b7d417e441f378325359c9ce274f5d6c3ecf11b7d42f24b9c90b7f\")\n      dup2\n      jump\t// out\n        /* \"src/KipuBankV2.sol\":10080:10959  function withdrawETH(uint256 amount) external nonReentrant nonZero(amount) {... */\n    tag_93:\n        /* \"src/KipuBankV2.sol\":4836:4842  locked */\n      0x06\n      0x00\n      swap1\n      sload\n      swap1\n      0x0100\n      exp\n      swap1\n      div\n      0xff\n      and\n        /* \"src/KipuBankV2.sol\":4832:4869  if (locked) revert ErrReentrantCall() */\n      iszero\n      tag_169\n      jumpi\n        /* \"src/KipuBankV2.sol\":4851:4869  ErrReentrantCall() */\n      mload(0x40)\n      0x5a919cd900000000000000000000000000000000000000000000000000000000\n      dup2\n      mstore\n      0x04\n      add\n      mload(0x40)\n      dup1\n      swap2\n      sub\n      swap1\n      revert\n        /* \"src/KipuBankV2.sol\":4832:4869  if (locked) revert ErrReentrantCall() */\n    tag_169:\n        /* \"src/KipuBankV2.sol\":4889:4893  true */\n      0x01\n        /* \"src/KipuBankV2.sol\":4880:4886  locked */\n      0x06\n      0x00\n        /* \"src/KipuBankV2.sol\":4880:4893  locked = true */\n      0x0100\n      exp\n      dup2\n      sload\n      dup2\n      0xff\n      mul\n      not\n      and\n      swap1\n      dup4\n      iszero\n      iszero\n      mul\n      or\n      swap1\n      sstore\n      pop\n        /* \"src/KipuBankV2.sol\":10147:10153  amount */\n      dup1\n        /* \"src/KipuBankV2.sol\":5337:5338  0 */\n      0x00\n        /* \"src/KipuBankV2.sol\":5327:5333  amount */\n      dup2\n        /* \"src/KipuBankV2.sol\":5327:5338  amount == 0 */\n      sub\n        /* \"src/KipuBankV2.sol\":5323:5362  if (amount == 0) revert ErrZeroAmount() */\n      tag_171\n      jumpi\n        /* \"src/KipuBankV2.sol\":5347:5362  ErrZeroAmount() */\n      mload(0x40)\n      0x608294ac00000000000000000000000000000000000000000000000000000000\n      dup2\n      mstore\n      0x04\n      add\n      mload(0x40)\n      dup1\n      swap2\n      sub\n      swap1\n      revert\n        /* \"src/KipuBankV2.sol\":5323:5362  if (amount == 0) revert ErrZeroAmount() */\n    tag_171:\n        /* \"src/KipuBankV2.sol\":10166:10177  uint256 bal */\n      0x00\n        /* \"src/KipuBankV2.sol\":10180:10188  balances */\n      0x01\n        /* \"src/KipuBankV2.sol\":10180:10200  balances[address(0)] */\n      0x00\n        /* \"src/KipuBankV2.sol\":10197:10198  0 */\n      0x00\n        /* \"src/KipuBankV2.sol\":10180:10200  balances[address(0)] */\n      0xffffffffffffffffffffffffffffffffffffffff\n      and\n      0xffffffffffffffffffffffffffffffffffffffff\n      and\n      dup2\n      mstore\n      0x20\n      add\n      swap1\n      dup2\n      mstore\n      0x20\n      add\n      0x00\n      keccak256\n        /* \"src/KipuBankV2.sol\":10180:10212  balances[address(0)][msg.sender] */\n      0x00\n        /* \"src/KipuBankV2.sol\":10201:10211  msg.sender */\n      caller\n        /* \"src/KipuBankV2.sol\":10180:10212  balances[address(0)][msg.sender] */\n      0xffffffffffffffffffffffffffffffffffffffff\n      and\n      0xffffffffffffffffffffffffffffffffffffffff\n      and\n      dup2\n      mstore\n      0x20\n      add\n      swap1\n      dup2\n      mstore\n      0x20\n      add\n      0x00\n      keccak256\n      sload\n        /* \"src/KipuBankV2.sol\":10166:10212  uint256 bal = balances[address(0)][msg.sender] */\n      swap1\n      pop\n        /* \"src/KipuBankV2.sol\":10236:10239  bal */\n      dup1\n        /* \"src/KipuBankV2.sol\":10227:10233  amount */\n      dup4\n        /* \"src/KipuBankV2.sol\":10227:10239  amount > bal */\n      gt\n        /* \"src/KipuBankV2.sol\":10223:10295  if (amount > bal) revert ErrInsufficientBalance(address(0), bal, amount) */\n      iszero\n      tag_173\n      jumpi\n        /* \"src/KipuBankV2.sol\":10279:10280  0 */\n      0x00\n        /* \"src/KipuBankV2.sol\":10283:10286  bal */\n      dup2\n        /* \"src/KipuBankV2.sol\":10288:10294  amount */\n      dup5\n        /* \"src/KipuBankV2.sol\":10248:10295  ErrInsufficientBalance(address(0), bal, amount) */\n      mload(0x40)\n      0x483b38f200000000000000000000000000000000000000000000000000000000\n      dup2\n      mstore\n      0x04\n      add\n      tag_174\n      swap4\n      swap3\n      swap2\n      swap1\n      tag_151\n      jump\t// in\n    tag_174:\n      mload(0x40)\n      dup1\n      swap2\n      sub\n      swap1\n      revert\n        /* \"src/KipuBankV2.sol\":10223:10295  if (amount > bal) revert ErrInsufficientBalance(address(0), bal, amount) */\n    tag_173:\n        /* \"src/KipuBankV2.sol\":10308:10325  uint256 amountUsd */\n      0x00\n        /* \"src/KipuBankV2.sol\":10328:10361  _convertToUsd(address(0), amount) */\n      tag_175\n        /* \"src/KipuBankV2.sol\":10350:10351  0 */\n      0x00\n        /* \"src/KipuBankV2.sol\":10354:10360  amount */\n      dup6\n        /* \"src/KipuBankV2.sol\":10328:10341  _convertToUsd */\n      tag_126\n        /* \"src/KipuBankV2.sol\":10328:10361  _convertToUsd(address(0), amount) */\n      jump\t// in\n    tag_175:\n        /* \"src/KipuBankV2.sol\":10308:10361  uint256 amountUsd = _convertToUsd(address(0), amount) */\n      swap1\n      pop\n        /* \"src/KipuBankV2.sol\":10388:10404  withdrawLimitUsd */\n      immutable(\"0x2a9063ed52b7d417e441f378325359c9ce274f5d6c3ecf11b7d42f24b9c90b7f\")\n        /* \"src/KipuBankV2.sol\":10376:10385  amountUsd */\n      dup2\n        /* \"src/KipuBankV2.sol\":10376:10404  amountUsd > withdrawLimitUsd */\n      gt\n        /* \"src/KipuBankV2.sol\":10372:10466  if (amountUsd > withdrawLimitUsd) revert ErrWithdrawLimitExceeded(amountUsd, withdrawLimitUsd) */\n      iszero\n      tag_176\n      jumpi\n        /* \"src/KipuBankV2.sol\":10438:10447  amountUsd */\n      dup1\n        /* \"src/KipuBankV2.sol\":10449:10465  withdrawLimitUsd */\n      immutable(\"0x2a9063ed52b7d417e441f378325359c9ce274f5d6c3ecf11b7d42f24b9c90b7f\")\n        /* \"src/KipuBankV2.sol\":10413:10466  ErrWithdrawLimitExceeded(amountUsd, withdrawLimitUsd) */\n      mload(0x40)\n      0x2996304900000000000000000000000000000000000000000000000000000000\n      dup2\n      mstore\n      0x04\n      add\n      tag_177\n      swap3\n      swap2\n      swap1\n      tag_143\n      jump\t// in\n    tag_177:\n      mload(0x40)\n      dup1\n      swap2\n      sub\n      swap1\n      revert\n        /* \"src/KipuBankV2.sol\":10372:10466  if (amountUsd > withdrawLimitUsd) revert ErrWithdrawLimitExceeded(amountUsd, withdrawLimitUsd) */\n    tag_176:\n        /* \"src/KipuBankV2.sol\":10523:10576  _updateBalance(address(0), msg.sender, amount, false) */\n      tag_178\n        /* \"src/KipuBankV2.sol\":10546:10547  0 */\n      0x00\n        /* \"src/KipuBankV2.sol\":10550:10560  msg.sender */\n      caller\n        /* \"src/KipuBankV2.sol\":10562:10568  amount */\n      dup7\n        /* \"src/KipuBankV2.sol\":10570:10575  false */\n      0x00\n        /* \"src/KipuBankV2.sol\":10523:10537  _updateBalance */\n      tag_138\n        /* \"src/KipuBankV2.sol\":10523:10576  _updateBalance(address(0), msg.sender, amount, false) */\n      jump\t// in\n    tag_178:\n        /* \"src/KipuBankV2.sol\":10587:10605  totalWithdrawCount */\n      0x05\n      0x00\n        /* \"src/KipuBankV2.sol\":10587:10607  totalWithdrawCount++ */\n      dup2\n      sload\n      dup1\n      swap3\n      swap2\n      swap1\n      tag_179\n      swap1\n      tag_140\n      jump\t// in\n    tag_179:\n      swap2\n      swap1\n      pop\n      sstore\n      pop\n        /* \"src/KipuBankV2.sol\":10651:10668  totalDepositedUsd */\n      sload(0x03)\n        /* \"src/KipuBankV2.sol\":10639:10648  amountUsd */\n      dup2\n        /* \"src/KipuBankV2.sol\":10639:10668  amountUsd > totalDepositedUsd */\n      gt\n        /* \"src/KipuBankV2.sol\":10638:10707  (amountUsd > totalDepositedUsd) ? 0 : (totalDepositedUsd - amountUsd) */\n      tag_180\n      jumpi\n        /* \"src/KipuBankV2.sol\":10697:10706  amountUsd */\n      dup1\n        /* \"src/KipuBankV2.sol\":10677:10694  totalDepositedUsd */\n      sload(0x03)\n        /* \"src/KipuBankV2.sol\":10677:10706  totalDepositedUsd - amountUsd */\n      tag_181\n      swap2\n      swap1\n      tag_159\n      jump\t// in\n    tag_181:\n        /* \"src/KipuBankV2.sol\":10638:10707  (amountUsd > totalDepositedUsd) ? 0 : (totalDepositedUsd - amountUsd) */\n      jump(tag_182)\n    tag_180:\n        /* \"src/KipuBankV2.sol\":10672:10673  0 */\n      0x00\n        /* \"src/KipuBankV2.sol\":10638:10707  (amountUsd > totalDepositedUsd) ? 0 : (totalDepositedUsd - amountUsd) */\n    tag_182:\n        /* \"src/KipuBankV2.sol\":10618:10635  totalDepositedUsd */\n      0x03\n        /* \"src/KipuBankV2.sol\":10618:10707  totalDepositedUsd = (amountUsd > totalDepositedUsd) ? 0 : (totalDepositedUsd - amountUsd) */\n      dup2\n      swap1\n      sstore\n      pop\n        /* \"src/KipuBankV2.sol\":10746:10755  bool sent */\n      0x00\n        /* \"src/KipuBankV2.sol\":10769:10779  msg.sender */\n      caller\n        /* \"src/KipuBankV2.sol\":10761:10785  payable(msg.sender).call */\n      0xffffffffffffffffffffffffffffffffffffffff\n      and\n        /* \"src/KipuBankV2.sol\":10793:10799  amount */\n      dup6\n        /* \"src/KipuBankV2.sol\":10761:10804  payable(msg.sender).call{value: amount}(\"\") */\n      mload(0x40)\n      tag_183\n      swap1\n      tag_184\n      jump\t// in\n    tag_183:\n      0x00\n      mload(0x40)\n      dup1\n      dup4\n      sub\n      dup2\n      dup6\n      dup8\n      gas\n      call\n      swap3\n      pop\n      pop\n      pop\n      returndatasize\n      dup1\n      0x00\n      dup2\n      eq\n      tag_187\n      jumpi\n      mload(0x40)\n      swap2\n      pop\n      and(add(returndatasize, 0x3f), not(0x1f))\n      dup3\n      add\n      0x40\n      mstore\n      returndatasize\n      dup3\n      mstore\n      returndatasize\n      0x00\n      0x20\n      dup5\n      add\n      returndatacopy\n      jump(tag_186)\n    tag_187:\n      0x60\n      swap2\n      pop\n    tag_186:\n      pop\n        /* \"src/KipuBankV2.sol\":10745:10804  (bool sent, ) = payable(msg.sender).call{value: amount}(\"\") */\n      pop\n      swap1\n      pop\n        /* \"src/KipuBankV2.sol\":10820:10824  sent */\n      dup1\n        /* \"src/KipuBankV2.sol\":10815:10882  if (!sent) revert ErrTransferFailed(msg.sender, address(0), amount) */\n      tag_188\n      jumpi\n        /* \"src/KipuBankV2.sol\":10851:10861  msg.sender */\n      caller\n        /* \"src/KipuBankV2.sol\":10871:10872  0 */\n      0x00\n        /* \"src/KipuBankV2.sol\":10875:10881  amount */\n      dup7\n        /* \"src/KipuBankV2.sol\":10833:10882  ErrTransferFailed(msg.sender, address(0), amount) */\n      mload(0x40)\n      0x31e6e4e100000000000000000000000000000000000000000000000000000000\n      dup2\n      mstore\n      0x04\n      add\n      tag_189\n      swap4\n      swap3\n      swap2\n      swap1\n      tag_118\n      jump\t// in\n    tag_189:\n      mload(0x40)\n      dup1\n      swap2\n      sub\n      swap1\n      revert\n        /* \"src/KipuBankV2.sol\":10815:10882  if (!sent) revert ErrTransferFailed(msg.sender, address(0), amount) */\n    tag_188:\n        /* \"src/KipuBankV2.sol\":10929:10930  0 */\n      0x00\n        /* \"src/KipuBankV2.sol\":10900:10951  Withdraw(msg.sender, address(0), amount, amountUsd) */\n      0xffffffffffffffffffffffffffffffffffffffff\n      and\n        /* \"src/KipuBankV2.sol\":10909:10919  msg.sender */\n      caller\n        /* \"src/KipuBankV2.sol\":10900:10951  Withdraw(msg.sender, address(0), amount, amountUsd) */\n      0xffffffffffffffffffffffffffffffffffffffff\n      and\n      0xf341246adaac6f497bc2a656f546ab9e182111d630394f0c57c710a59a2cb567\n        /* \"src/KipuBankV2.sol\":10933:10939  amount */\n      dup8\n        /* \"src/KipuBankV2.sol\":10941:10950  amountUsd */\n      dup6\n        /* \"src/KipuBankV2.sol\":10900:10951  Withdraw(msg.sender, address(0), amount, amountUsd) */\n      mload(0x40)\n      tag_190\n      swap3\n      swap2\n      swap1\n      tag_143\n      jump\t// in\n    tag_190:\n      mload(0x40)\n      dup1\n      swap2\n      sub\n      swap1\n      log3\n        /* \"src/KipuBankV2.sol\":10155:10959  {... */\n      pop\n      pop\n      pop\n        /* \"src/KipuBankV2.sol\":4904:4905  _ */\n      pop\n        /* \"src/KipuBankV2.sol\":4925:4930  false */\n      0x00\n        /* \"src/KipuBankV2.sol\":4916:4922  locked */\n      0x06\n      0x00\n        /* \"src/KipuBankV2.sol\":4916:4930  locked = false */\n      0x0100\n      exp\n      dup2\n      sload\n      dup2\n      0xff\n      mul\n      not\n      and\n      swap1\n      dup4\n      iszero\n      iszero\n      mul\n      or\n      swap1\n      sstore\n      pop\n        /* \"src/KipuBankV2.sol\":10080:10959  function withdrawETH(uint256 amount) external nonReentrant nonZero(amount) {... */\n      pop\n      jump\t// out\n        /* \"src/KipuBankV2.sol\":8006:8578  function depositETH() external payable nonReentrant nonZero(msg.value) {... */\n    tag_95:\n        /* \"src/KipuBankV2.sol\":4836:4842  locked */\n      0x06\n      0x00\n      swap1\n      sload\n      swap1\n      0x0100\n      exp\n      swap1\n      div\n      0xff\n      and\n        /* \"src/KipuBankV2.sol\":4832:4869  if (locked) revert ErrReentrantCall() */\n      iszero\n      tag_192\n      jumpi\n        /* \"src/KipuBankV2.sol\":4851:4869  ErrReentrantCall() */\n      mload(0x40)\n      0x5a919cd900000000000000000000000000000000000000000000000000000000\n      dup2\n      mstore\n      0x04\n      add\n      mload(0x40)\n      dup1\n      swap2\n      sub\n      swap1\n      revert\n        /* \"src/KipuBankV2.sol\":4832:4869  if (locked) revert ErrReentrantCall() */\n    tag_192:\n        /* \"src/KipuBankV2.sol\":4889:4893  true */\n      0x01\n        /* \"src/KipuBankV2.sol\":4880:4886  locked */\n      0x06\n      0x00\n        /* \"src/KipuBankV2.sol\":4880:4893  locked = true */\n      0x0100\n      exp\n      dup2\n      sload\n      dup2\n      0xff\n      mul\n      not\n      and\n      swap1\n      dup4\n      iszero\n      iszero\n      mul\n      or\n      swap1\n      sstore\n      pop\n        /* \"src/KipuBankV2.sol\":8066:8075  msg.value */\n      callvalue\n        /* \"src/KipuBankV2.sol\":5337:5338  0 */\n      0x00\n        /* \"src/KipuBankV2.sol\":5327:5333  amount */\n      dup2\n        /* \"src/KipuBankV2.sol\":5327:5338  amount == 0 */\n      sub\n        /* \"src/KipuBankV2.sol\":5323:5362  if (amount == 0) revert ErrZeroAmount() */\n      tag_194\n      jumpi\n        /* \"src/KipuBankV2.sol\":5347:5362  ErrZeroAmount() */\n      mload(0x40)\n      0x608294ac00000000000000000000000000000000000000000000000000000000\n      dup2\n      mstore\n      0x04\n      add\n      mload(0x40)\n      dup1\n      swap2\n      sub\n      swap1\n      revert\n        /* \"src/KipuBankV2.sol\":5323:5362  if (amount == 0) revert ErrZeroAmount() */\n    tag_194:\n        /* \"src/KipuBankV2.sol\":8134:8151  uint256 amountUsd */\n      0x00\n        /* \"src/KipuBankV2.sol\":8154:8190  _convertToUsd(address(0), msg.value) */\n      tag_196\n        /* \"src/KipuBankV2.sol\":8176:8177  0 */\n      0x00\n        /* \"src/KipuBankV2.sol\":8180:8189  msg.value */\n      callvalue\n        /* \"src/KipuBankV2.sol\":8154:8167  _convertToUsd */\n      tag_126\n        /* \"src/KipuBankV2.sol\":8154:8190  _convertToUsd(address(0), msg.value) */\n      jump\t// in\n    tag_196:\n        /* \"src/KipuBankV2.sol\":8134:8190  uint256 amountUsd = _convertToUsd(address(0), msg.value) */\n      swap1\n      pop\n        /* \"src/KipuBankV2.sol\":8237:8247  bankCapUsd */\n      immutable(\"0xc41c8390c0da0418b7667ee0df6c246c26c4be6c0618368dce5a916e8008b0db\")\n        /* \"src/KipuBankV2.sol\":8225:8234  amountUsd */\n      dup2\n        /* \"src/KipuBankV2.sol\":8205:8222  totalDepositedUsd */\n      sload(0x03)\n        /* \"src/KipuBankV2.sol\":8205:8234  totalDepositedUsd + amountUsd */\n      tag_197\n      swap2\n      swap1\n      tag_128\n      jump\t// in\n    tag_197:\n        /* \"src/KipuBankV2.sol\":8205:8247  totalDepositedUsd + amountUsd > bankCapUsd */\n      gt\n        /* \"src/KipuBankV2.sol\":8201:8316  if (totalDepositedUsd + amountUsd > bankCapUsd) revert ErrBankCapExceeded(amountUsd, totalDepositedUsd, bankCapUsd) */\n      iszero\n      tag_198\n      jumpi\n        /* \"src/KipuBankV2.sol\":8275:8284  amountUsd */\n      dup1\n        /* \"src/KipuBankV2.sol\":8286:8303  totalDepositedUsd */\n      sload(0x03)\n        /* \"src/KipuBankV2.sol\":8305:8315  bankCapUsd */\n      immutable(\"0xc41c8390c0da0418b7667ee0df6c246c26c4be6c0618368dce5a916e8008b0db\")\n        /* \"src/KipuBankV2.sol\":8256:8316  ErrBankCapExceeded(amountUsd, totalDepositedUsd, bankCapUsd) */\n      mload(0x40)\n      0xcfe6749800000000000000000000000000000000000000000000000000000000\n      dup2\n      mstore\n      0x04\n      add\n      tag_199\n      swap4\n      swap3\n      swap2\n      swap1\n      tag_136\n      jump\t// in\n    tag_199:\n      mload(0x40)\n      dup1\n      swap2\n      sub\n      swap1\n      revert\n        /* \"src/KipuBankV2.sol\":8201:8316  if (totalDepositedUsd + amountUsd > bankCapUsd) revert ErrBankCapExceeded(amountUsd, totalDepositedUsd, bankCapUsd) */\n    tag_198:\n        /* \"src/KipuBankV2.sol\":8373:8428  _updateBalance(address(0), msg.sender, msg.value, true) */\n      tag_200\n        /* \"src/KipuBankV2.sol\":8396:8397  0 */\n      0x00\n        /* \"src/KipuBankV2.sol\":8400:8410  msg.sender */\n      caller\n        /* \"src/KipuBankV2.sol\":8412:8421  msg.value */\n      callvalue\n        /* \"src/KipuBankV2.sol\":8423:8427  true */\n      0x01\n        /* \"src/KipuBankV2.sol\":8373:8387  _updateBalance */\n      tag_138\n        /* \"src/KipuBankV2.sol\":8373:8428  _updateBalance(address(0), msg.sender, msg.value, true) */\n      jump\t// in\n    tag_200:\n        /* \"src/KipuBankV2.sol\":8439:8456  totalDepositCount */\n      0x04\n      0x00\n        /* \"src/KipuBankV2.sol\":8439:8458  totalDepositCount++ */\n      dup2\n      sload\n      dup1\n      swap3\n      swap2\n      swap1\n      tag_201\n      swap1\n      tag_140\n      jump\t// in\n    tag_201:\n      swap2\n      swap1\n      pop\n      sstore\n      pop\n        /* \"src/KipuBankV2.sol\":8490:8499  amountUsd */\n      dup1\n        /* \"src/KipuBankV2.sol\":8469:8486  totalDepositedUsd */\n      0x03\n      0x00\n        /* \"src/KipuBankV2.sol\":8469:8499  totalDepositedUsd += amountUsd */\n      dup3\n      dup3\n      sload\n      tag_202\n      swap2\n      swap1\n      tag_128\n      jump\t// in\n    tag_202:\n      swap3\n      pop\n      pop\n      dup2\n      swap1\n      sstore\n      pop\n        /* \"src/KipuBankV2.sol\":8545:8546  0 */\n      0x00\n        /* \"src/KipuBankV2.sol\":8517:8570  Deposit(msg.sender, address(0), msg.value, amountUsd) */\n      0xffffffffffffffffffffffffffffffffffffffff\n      and\n        /* \"src/KipuBankV2.sol\":8525:8535  msg.sender */\n      caller\n        /* \"src/KipuBankV2.sol\":8517:8570  Deposit(msg.sender, address(0), msg.value, amountUsd) */\n      0xffffffffffffffffffffffffffffffffffffffff\n      and\n      0xdcbc1c05240f31ff3ad067ef1ee35ce4997762752e3a095284754544f4c709d7\n        /* \"src/KipuBankV2.sol\":8549:8558  msg.value */\n      callvalue\n        /* \"src/KipuBankV2.sol\":8560:8569  amountUsd */\n      dup5\n        /* \"src/KipuBankV2.sol\":8517:8570  Deposit(msg.sender, address(0), msg.value, amountUsd) */\n      mload(0x40)\n      tag_203\n      swap3\n      swap2\n      swap1\n      tag_143\n      jump\t// in\n    tag_203:\n      mload(0x40)\n      dup1\n      swap2\n      sub\n      swap1\n      log3\n        /* \"src/KipuBankV2.sol\":8077:8578  {... */\n      pop\n        /* \"src/KipuBankV2.sol\":4904:4905  _ */\n      pop\n        /* \"src/KipuBankV2.sol\":4925:4930  false */\n      0x00\n        /* \"src/KipuBankV2.sol\":4916:4922  locked */\n      0x06\n      0x00\n        /* \"src/KipuBankV2.sol\":4916:4930  locked = false */\n      0x0100\n      exp\n      dup2\n      sload\n      dup2\n      0xff\n      mul\n      not\n      and\n      swap1\n      dup4\n      iszero\n      iszero\n      mul\n      or\n      swap1\n      sstore\n      pop\n        /* \"src/KipuBankV2.sol\":8006:8578  function depositETH() external payable nonReentrant nonZero(msg.value) {... */\n      jump\t// out\n        /* \"src/KipuBankV2.sol\":12085:12212  function balanceOf(address token, address user) external view returns (uint256) {... */\n    tag_99:\n        /* \"src/KipuBankV2.sol\":12156:12163  uint256 */\n      0x00\n        /* \"src/KipuBankV2.sol\":12183:12191  balances */\n      0x01\n        /* \"src/KipuBankV2.sol\":12183:12198  balances[token] */\n      0x00\n        /* \"src/KipuBankV2.sol\":12192:12197  token */\n      dup5\n        /* \"src/KipuBankV2.sol\":12183:12198  balances[token] */\n      0xffffffffffffffffffffffffffffffffffffffff\n      and\n      0xffffffffffffffffffffffffffffffffffffffff\n      and\n      dup2\n      mstore\n      0x20\n      add\n      swap1\n      dup2\n      mstore\n      0x20\n      add\n      0x00\n      keccak256\n        /* \"src/KipuBankV2.sol\":12183:12204  balances[token][user] */\n      0x00\n        /* \"src/KipuBankV2.sol\":12199:12203  user */\n      dup4\n        /* \"src/KipuBankV2.sol\":12183:12204  balances[token][user] */\n      0xffffffffffffffffffffffffffffffffffffffff\n      and\n      0xffffffffffffffffffffffffffffffffffffffff\n      and\n      dup2\n      mstore\n      0x20\n      add\n      swap1\n      dup2\n      mstore\n      0x20\n      add\n      0x00\n      keccak256\n      sload\n        /* \"src/KipuBankV2.sol\":12176:12204  return balances[token][user] */\n      swap1\n      pop\n        /* \"src/KipuBankV2.sol\":12085:12212  function balanceOf(address token, address user) external view returns (uint256) {... */\n      swap3\n      swap2\n      pop\n      pop\n      jump\t// out\n        /* \"src/KipuBankV2.sol\":12876:14791  function _convertToUsd(address token, uint256 amount) internal view returns (uint256) {... */\n    tag_126:\n        /* \"src/KipuBankV2.sol\":12953:12960  uint256 */\n      0x00\n        /* \"src/KipuBankV2.sol\":12973:12999  AggregatorV3Interface feed */\n      0x00\n        /* \"src/KipuBankV2.sol\":13002:13017  _getFeed(token) */\n      tag_206\n        /* \"src/KipuBankV2.sol\":13011:13016  token */\n      dup5\n        /* \"src/KipuBankV2.sol\":13002:13010  _getFeed */\n      tag_207\n        /* \"src/KipuBankV2.sol\":13002:13017  _getFeed(token) */\n      jump\t// in\n    tag_206:\n        /* \"src/KipuBankV2.sol\":12973:13017  AggregatorV3Interface feed = _getFeed(token) */\n      swap1\n      pop\n        /* \"src/KipuBankV2.sol\":13029:13043  uint80 roundId */\n      0x00\n        /* \"src/KipuBankV2.sol\":13045:13057  int256 price */\n      0x00\n        /* \"src/KipuBankV2.sol\":13061:13078  uint256 updatedAt */\n      0x00\n        /* \"src/KipuBankV2.sol\":13080:13102  uint80 answeredInRound */\n      0x00\n        /* \"src/KipuBankV2.sol\":13106:13110  feed */\n      dup5\n        /* \"src/KipuBankV2.sol\":13106:13126  feed.latestRoundData */\n      0xffffffffffffffffffffffffffffffffffffffff\n      and\n      0xfeaf968c\n        /* \"src/KipuBankV2.sol\":13106:13128  feed.latestRoundData() */\n      mload(0x40)\n      dup2\n      0xffffffff\n      and\n      0xe0\n      shl\n      dup2\n      mstore\n      0x04\n      add\n      0xa0\n      mload(0x40)\n      dup1\n      dup4\n      sub\n      dup2\n      dup7\n      gas\n      staticcall\n      iszero\n      dup1\n      iszero\n      tag_209\n      jumpi\n      returndatacopy(0x00, 0x00, returndatasize)\n      revert(0x00, returndatasize)\n    tag_209:\n      pop\n      pop\n      pop\n      pop\n      mload(0x40)\n      returndatasize\n      not(0x1f)\n      0x1f\n      dup3\n      add\n      and\n      dup3\n      add\n      dup1\n      0x40\n      mstore\n      pop\n      dup2\n      add\n      swap1\n      tag_210\n      swap2\n      swap1\n      tag_211\n      jump\t// in\n    tag_210:\n        /* \"src/KipuBankV2.sol\":13028:13128  (uint80 roundId, int256 price, , uint256 updatedAt, uint80 answeredInRound) = feed.latestRoundData() */\n      swap5\n      pop\n      swap5\n      pop\n      pop\n      swap4\n      pop\n      swap4\n      pop\n        /* \"src/KipuBankV2.sol\":13139:13157  uint8 feedDecimals */\n      0x00\n        /* \"src/KipuBankV2.sol\":13160:13164  feed */\n      dup6\n        /* \"src/KipuBankV2.sol\":13160:13173  feed.decimals */\n      0xffffffffffffffffffffffffffffffffffffffff\n      and\n      0x313ce567\n        /* \"src/KipuBankV2.sol\":13160:13175  feed.decimals() */\n      mload(0x40)\n      dup2\n      0xffffffff\n      and\n      0xe0\n      shl\n      dup2\n      mstore\n      0x04\n      add\n      0x20\n      mload(0x40)\n      dup1\n      dup4\n      sub\n      dup2\n      dup7\n      gas\n      staticcall\n      iszero\n      dup1\n      iszero\n      tag_213\n      jumpi\n      returndatacopy(0x00, 0x00, returndatasize)\n      revert(0x00, returndatasize)\n    tag_213:\n      pop\n      pop\n      pop\n      pop\n      mload(0x40)\n      returndatasize\n      not(0x1f)\n      0x1f\n      dup3\n      add\n      and\n      dup3\n      add\n      dup1\n      0x40\n      mstore\n      pop\n      dup2\n      add\n      swap1\n      tag_214\n      swap2\n      swap1\n      tag_215\n      jump\t// in\n    tag_214:\n        /* \"src/KipuBankV2.sol\":13139:13175  uint8 feedDecimals = feed.decimals() */\n      swap1\n      pop\n        /* \"src/KipuBankV2.sol\":13249:13250  0 */\n      0x00\n        /* \"src/KipuBankV2.sol\":13240:13245  price */\n      dup5\n        /* \"src/KipuBankV2.sol\":13240:13250  price <= 0 */\n      sgt\n        /* \"src/KipuBankV2.sol\":13236:13317  if (price <= 0) revert InvalidOracleResponse(roundId, updatedAt, answeredInRound) */\n      tag_216\n      jumpi\n        /* \"src/KipuBankV2.sol\":13281:13288  roundId */\n      dup5\n        /* \"src/KipuBankV2.sol\":13290:13299  updatedAt */\n      dup4\n        /* \"src/KipuBankV2.sol\":13301:13316  answeredInRound */\n      dup4\n        /* \"src/KipuBankV2.sol\":13259:13317  InvalidOracleResponse(roundId, updatedAt, answeredInRound) */\n      mload(0x40)\n      0x0433448100000000000000000000000000000000000000000000000000000000\n      dup2\n      mstore\n      0x04\n      add\n      tag_217\n      swap4\n      swap3\n      swap2\n      swap1\n      tag_218\n      jump\t// in\n    tag_217:\n      mload(0x40)\n      dup1\n      swap2\n      sub\n      swap1\n      revert\n        /* \"src/KipuBankV2.sol\":13236:13317  if (price <= 0) revert InvalidOracleResponse(roundId, updatedAt, answeredInRound) */\n    tag_216:\n        /* \"src/KipuBankV2.sol\":13345:13346  0 */\n      0x00\n        /* \"src/KipuBankV2.sol\":13332:13341  updatedAt */\n      dup4\n        /* \"src/KipuBankV2.sol\":13332:13346  updatedAt == 0 */\n      sub\n        /* \"src/KipuBankV2.sol\":13328:13413  if (updatedAt == 0) revert InvalidOracleResponse(roundId, updatedAt, answeredInRound) */\n      tag_219\n      jumpi\n        /* \"src/KipuBankV2.sol\":13377:13384  roundId */\n      dup5\n        /* \"src/KipuBankV2.sol\":13386:13395  updatedAt */\n      dup4\n        /* \"src/KipuBankV2.sol\":13397:13412  answeredInRound */\n      dup4\n        /* \"src/KipuBankV2.sol\":13355:13413  InvalidOracleResponse(roundId, updatedAt, answeredInRound) */\n      mload(0x40)\n      0x0433448100000000000000000000000000000000000000000000000000000000\n      dup2\n      mstore\n      0x04\n      add\n      tag_220\n      swap4\n      swap3\n      swap2\n      swap1\n      tag_218\n      jump\t// in\n    tag_220:\n      mload(0x40)\n      dup1\n      swap2\n      sub\n      swap1\n      revert\n        /* \"src/KipuBankV2.sol\":13328:13413  if (updatedAt == 0) revert InvalidOracleResponse(roundId, updatedAt, answeredInRound) */\n    tag_219:\n        /* \"src/KipuBankV2.sol\":13446:13453  roundId */\n      dup5\n        /* \"src/KipuBankV2.sol\":13428:13453  answeredInRound < roundId */\n      0xffffffffffffffffffff\n      and\n        /* \"src/KipuBankV2.sol\":13428:13443  answeredInRound */\n      dup3\n        /* \"src/KipuBankV2.sol\":13428:13453  answeredInRound < roundId */\n      0xffffffffffffffffffff\n      and\n      lt\n        /* \"src/KipuBankV2.sol\":13424:13520  if (answeredInRound < roundId) revert InvalidOracleResponse(roundId, updatedAt, answeredInRound) */\n      iszero\n      tag_221\n      jumpi\n        /* \"src/KipuBankV2.sol\":13484:13491  roundId */\n      dup5\n        /* \"src/KipuBankV2.sol\":13493:13502  updatedAt */\n      dup4\n        /* \"src/KipuBankV2.sol\":13504:13519  answeredInRound */\n      dup4\n        /* \"src/KipuBankV2.sol\":13462:13520  InvalidOracleResponse(roundId, updatedAt, answeredInRound) */\n      mload(0x40)\n      0x0433448100000000000000000000000000000000000000000000000000000000\n      dup2\n      mstore\n      0x04\n      add\n      tag_222\n      swap4\n      swap3\n      swap2\n      swap1\n      tag_218\n      jump\t// in\n    tag_222:\n      mload(0x40)\n      dup1\n      swap2\n      sub\n      swap1\n      revert\n        /* \"src/KipuBankV2.sol\":13424:13520  if (answeredInRound < roundId) revert InvalidOracleResponse(roundId, updatedAt, answeredInRound) */\n    tag_221:\n        /* \"src/KipuBankV2.sol\":13533:13552  uint8 tokenDecimals */\n      0x00\n        /* \"src/KipuBankV2.sol\":13555:13557  18 */\n      0x12\n        /* \"src/KipuBankV2.sol\":13533:13557  uint8 tokenDecimals = 18 */\n      swap1\n      pop\n        /* \"src/KipuBankV2.sol\":13589:13590  0 */\n      0x00\n        /* \"src/KipuBankV2.sol\":13572:13591  token != address(0) */\n      0xffffffffffffffffffffffffffffffffffffffff\n      and\n        /* \"src/KipuBankV2.sol\":13572:13577  token */\n      dup11\n        /* \"src/KipuBankV2.sol\":13572:13591  token != address(0) */\n      0xffffffffffffffffffffffffffffffffffffffff\n      and\n      eq\n        /* \"src/KipuBankV2.sol\":13568:13869  if (token != address(0)) {... */\n      tag_223\n      jumpi\n        /* \"src/KipuBankV2.sol\":13710:13715  token */\n      dup10\n        /* \"src/KipuBankV2.sol\":13703:13725  IERC20(token).decimals */\n      0xffffffffffffffffffffffffffffffffffffffff\n      and\n      0x313ce567\n        /* \"src/KipuBankV2.sol\":13703:13727  IERC20(token).decimals() */\n      mload(0x40)\n      dup2\n      0xffffffff\n      and\n      0xe0\n      shl\n      dup2\n      mstore\n      0x04\n      add\n      0x20\n      mload(0x40)\n      dup1\n      dup4\n      sub\n      dup2\n      dup7\n      gas\n      staticcall\n      swap3\n      pop\n      pop\n      pop\n      dup1\n      iszero\n      tag_224\n      jumpi\n      pop\n      mload(0x40)\n      returndatasize\n      not(0x1f)\n      0x1f\n      dup3\n      add\n      and\n      dup3\n      add\n      dup1\n      0x40\n      mstore\n      pop\n      dup2\n      add\n      swap1\n      tag_225\n      swap2\n      swap1\n      tag_215\n      jump\t// in\n    tag_225:\n      0x01\n    tag_224:\n        /* \"src/KipuBankV2.sol\":13699:13858  try IERC20(token).decimals() returns (uint8 d) {... */\n      tag_226\n      jumpi\n        /* \"src/KipuBankV2.sol\":13840:13842  18 */\n      0x12\n        /* \"src/KipuBankV2.sol\":13824:13842  tokenDecimals = 18 */\n      swap1\n      pop\n        /* \"src/KipuBankV2.sol\":13699:13858  try IERC20(token).decimals() returns (uint8 d) {... */\n      jump(tag_230)\n    tag_226:\n        /* \"src/KipuBankV2.sol\":13781:13782  d */\n      dup1\n        /* \"src/KipuBankV2.sol\":13765:13782  tokenDecimals = d */\n      swap2\n      pop\n        /* \"src/KipuBankV2.sol\":13728:13798  returns (uint8 d) {... */\n      pop\n        /* \"src/KipuBankV2.sol\":13699:13858  try IERC20(token).decimals() returns (uint8 d) {... */\n    tag_230:\n        /* \"src/KipuBankV2.sol\":13568:13869  if (token != address(0)) {... */\n    tag_223:\n        /* \"src/KipuBankV2.sol\":14172:14189  uint256 numerator */\n      0x00\n        /* \"src/KipuBankV2.sol\":14209:14215  amount */\n      dup10\n        /* \"src/KipuBankV2.sol\":14200:14205  price */\n      dup7\n        /* \"src/KipuBankV2.sol\":14192:14215  uint256(price) * amount */\n      tag_231\n      swap2\n      swap1\n      tag_232\n      jump\t// in\n    tag_231:\n        /* \"src/KipuBankV2.sol\":14172:14215  uint256 numerator = uint256(price) * amount */\n      swap1\n      pop\n        /* \"src/KipuBankV2.sol\":14226:14252  uint256 decimalsAdjustment */\n      0x00\n        /* \"src/KipuBankV2.sol\":1904:1905  6 */\n      0x06\n        /* \"src/KipuBankV2.sol\":14321:14370  tokenDecimals + feedDecimals >= INTERNAL_DECIMALS */\n      0xff\n      and\n        /* \"src/KipuBankV2.sol\":14337:14349  feedDecimals */\n      dup5\n        /* \"src/KipuBankV2.sol\":14321:14334  tokenDecimals */\n      dup5\n        /* \"src/KipuBankV2.sol\":14321:14349  tokenDecimals + feedDecimals */\n      tag_233\n      swap2\n      swap1\n      tag_234\n      jump\t// in\n    tag_233:\n        /* \"src/KipuBankV2.sol\":14321:14370  tokenDecimals + feedDecimals >= INTERNAL_DECIMALS */\n      0xff\n      and\n      lt\n        /* \"src/KipuBankV2.sol\":14317:14784  if (tokenDecimals + feedDecimals >= INTERNAL_DECIMALS) {... */\n      tag_235\n      jumpi\n        /* \"src/KipuBankV2.sol\":1904:1905  6 */\n      0x06\n        /* \"src/KipuBankV2.sol\":14424:14436  feedDecimals */\n      dup5\n        /* \"src/KipuBankV2.sol\":14408:14421  tokenDecimals */\n      dup5\n        /* \"src/KipuBankV2.sol\":14408:14436  tokenDecimals + feedDecimals */\n      tag_236\n      swap2\n      swap1\n      tag_234\n      jump\t// in\n    tag_236:\n        /* \"src/KipuBankV2.sol\":14408:14456  tokenDecimals + feedDecimals - INTERNAL_DECIMALS */\n      tag_237\n      swap2\n      swap1\n      tag_238\n      jump\t// in\n    tag_237:\n        /* \"src/KipuBankV2.sol\":14387:14456  decimalsAdjustment = tokenDecimals + feedDecimals - INTERNAL_DECIMALS */\n      0xff\n      and\n      swap1\n      pop\n        /* \"src/KipuBankV2.sol\":14497:14515  decimalsAdjustment */\n      dup1\n        /* \"src/KipuBankV2.sol\":14491:14493  10 */\n      0x0a\n        /* \"src/KipuBankV2.sol\":14491:14515  10 ** decimalsAdjustment */\n      tag_239\n      swap2\n      swap1\n      tag_240\n      jump\t// in\n    tag_239:\n        /* \"src/KipuBankV2.sol\":14478:14487  numerator */\n      dup3\n        /* \"src/KipuBankV2.sol\":14478:14516  numerator / (10 ** decimalsAdjustment) */\n      tag_241\n      swap2\n      swap1\n      tag_242\n      jump\t// in\n    tag_241:\n        /* \"src/KipuBankV2.sol\":14471:14516  return numerator / (10 ** decimalsAdjustment) */\n      swap10\n      pop\n      pop\n      pop\n      pop\n      pop\n      pop\n      pop\n      pop\n      pop\n      pop\n      jump(tag_205)\n        /* \"src/KipuBankV2.sol\":14317:14784  if (tokenDecimals + feedDecimals >= INTERNAL_DECIMALS) {... */\n    tag_235:\n        /* \"src/KipuBankV2.sol\":14699:14711  feedDecimals */\n      dup4\n        /* \"src/KipuBankV2.sol\":14683:14696  tokenDecimals */\n      dup4\n        /* \"src/KipuBankV2.sol\":14683:14711  tokenDecimals + feedDecimals */\n      tag_244\n      swap2\n      swap1\n      tag_234\n      jump\t// in\n    tag_244:\n        /* \"src/KipuBankV2.sol\":1904:1905  6 */\n      0x06\n        /* \"src/KipuBankV2.sol\":14662:14712  INTERNAL_DECIMALS - (tokenDecimals + feedDecimals) */\n      tag_245\n      swap2\n      swap1\n      tag_238\n      jump\t// in\n    tag_245:\n        /* \"src/KipuBankV2.sol\":14641:14712  decimalsAdjustment = INTERNAL_DECIMALS - (tokenDecimals + feedDecimals) */\n      0xff\n      and\n      swap1\n      pop\n        /* \"src/KipuBankV2.sol\":14753:14771  decimalsAdjustment */\n      dup1\n        /* \"src/KipuBankV2.sol\":14747:14749  10 */\n      0x0a\n        /* \"src/KipuBankV2.sol\":14747:14771  10 ** decimalsAdjustment */\n      tag_246\n      swap2\n      swap1\n      tag_240\n      jump\t// in\n    tag_246:\n        /* \"src/KipuBankV2.sol\":14734:14743  numerator */\n      dup3\n        /* \"src/KipuBankV2.sol\":14734:14772  numerator * (10 ** decimalsAdjustment) */\n      tag_247\n      swap2\n      swap1\n      tag_232\n      jump\t// in\n    tag_247:\n        /* \"src/KipuBankV2.sol\":14727:14772  return numerator * (10 ** decimalsAdjustment) */\n      swap10\n      pop\n      pop\n      pop\n      pop\n      pop\n      pop\n      pop\n      pop\n      pop\n      pop\n        /* \"src/KipuBankV2.sol\":12876:14791  function _convertToUsd(address token, uint256 amount) internal view returns (uint256) {... */\n    tag_205:\n      swap3\n      swap2\n      pop\n      pop\n      jump\t// out\n        /* \"src/KipuBankV2.sol\":7520:7845  function _updateBalance(address token, address user, uint256 amount, bool isDeposit) private {... */\n    tag_138:\n        /* \"src/KipuBankV2.sol\":7628:7637  isDeposit */\n      dup1\n        /* \"src/KipuBankV2.sol\":7624:7838  if (isDeposit) {... */\n      iszero\n      tag_249\n      jumpi\n        /* \"src/KipuBankV2.sol\":7679:7685  amount */\n      dup2\n        /* \"src/KipuBankV2.sol\":7654:7662  balances */\n      0x01\n        /* \"src/KipuBankV2.sol\":7654:7669  balances[token] */\n      0x00\n        /* \"src/KipuBankV2.sol\":7663:7668  token */\n      dup7\n        /* \"src/KipuBankV2.sol\":7654:7669  balances[token] */\n      0xffffffffffffffffffffffffffffffffffffffff\n      and\n      0xffffffffffffffffffffffffffffffffffffffff\n      and\n      dup2\n      mstore\n      0x20\n      add\n      swap1\n      dup2\n      mstore\n      0x20\n      add\n      0x00\n      keccak256\n        /* \"src/KipuBankV2.sol\":7654:7675  balances[token][user] */\n      0x00\n        /* \"src/KipuBankV2.sol\":7670:7674  user */\n      dup6\n        /* \"src/KipuBankV2.sol\":7654:7675  balances[token][user] */\n      0xffffffffffffffffffffffffffffffffffffffff\n      and\n      0xffffffffffffffffffffffffffffffffffffffff\n      and\n      dup2\n      mstore\n      0x20\n      add\n      swap1\n      dup2\n      mstore\n      0x20\n      add\n      0x00\n      keccak256\n      0x00\n        /* \"src/KipuBankV2.sol\":7654:7685  balances[token][user] += amount */\n      dup3\n      dup3\n      sload\n      tag_250\n      swap2\n      swap1\n      tag_128\n      jump\t// in\n    tag_250:\n      swap3\n      pop\n      pop\n      dup2\n      swap1\n      sstore\n      pop\n        /* \"src/KipuBankV2.sol\":7624:7838  if (isDeposit) {... */\n      jump(tag_251)\n    tag_249:\n        /* \"src/KipuBankV2.sol\":7820:7826  amount */\n      dup2\n        /* \"src/KipuBankV2.sol\":7795:7803  balances */\n      0x01\n        /* \"src/KipuBankV2.sol\":7795:7810  balances[token] */\n      0x00\n        /* \"src/KipuBankV2.sol\":7804:7809  token */\n      dup7\n        /* \"src/KipuBankV2.sol\":7795:7810  balances[token] */\n      0xffffffffffffffffffffffffffffffffffffffff\n      and\n      0xffffffffffffffffffffffffffffffffffffffff\n      and\n      dup2\n      mstore\n      0x20\n      add\n      swap1\n      dup2\n      mstore\n      0x20\n      add\n      0x00\n      keccak256\n        /* \"src/KipuBankV2.sol\":7795:7816  balances[token][user] */\n      0x00\n        /* \"src/KipuBankV2.sol\":7811:7815  user */\n      dup6\n        /* \"src/KipuBankV2.sol\":7795:7816  balances[token][user] */\n      0xffffffffffffffffffffffffffffffffffffffff\n      and\n      0xffffffffffffffffffffffffffffffffffffffff\n      and\n      dup2\n      mstore\n      0x20\n      add\n      swap1\n      dup2\n      mstore\n      0x20\n      add\n      0x00\n      keccak256\n      0x00\n        /* \"src/KipuBankV2.sol\":7795:7826  balances[token][user] -= amount */\n      dup3\n      dup3\n      sload\n      tag_252\n      swap2\n      swap1\n      tag_159\n      jump\t// in\n    tag_252:\n      swap3\n      pop\n      pop\n      dup2\n      swap1\n      sstore\n      pop\n        /* \"src/KipuBankV2.sol\":7624:7838  if (isDeposit) {... */\n    tag_251:\n        /* \"src/KipuBankV2.sol\":7520:7845  function _updateBalance(address token, address user, uint256 amount, bool isDeposit) private {... */\n      pop\n      pop\n      pop\n      pop\n      jump\t// out\n        /* \"src/KipuBankV2.sol\":12310:12569  function _getFeed(address token) internal view returns (AggregatorV3Interface) {... */\n    tag_207:\n        /* \"src/KipuBankV2.sol\":12366:12387  AggregatorV3Interface */\n      0x00\n        /* \"src/KipuBankV2.sol\":12400:12426  AggregatorV3Interface feed */\n      0x00\n        /* \"src/KipuBankV2.sol\":12429:12439  priceFeeds */\n      0x02\n        /* \"src/KipuBankV2.sol\":12429:12446  priceFeeds[token] */\n      0x00\n        /* \"src/KipuBankV2.sol\":12440:12445  token */\n      dup5\n        /* \"src/KipuBankV2.sol\":12429:12446  priceFeeds[token] */\n      0xffffffffffffffffffffffffffffffffffffffff\n      and\n      0xffffffffffffffffffffffffffffffffffffffff\n      and\n      dup2\n      mstore\n      0x20\n      add\n      swap1\n      dup2\n      mstore\n      0x20\n      add\n      0x00\n      keccak256\n      0x00\n      swap1\n      sload\n      swap1\n      0x0100\n      exp\n      swap1\n      div\n      0xffffffffffffffffffffffffffffffffffffffff\n      and\n        /* \"src/KipuBankV2.sol\":12400:12446  AggregatorV3Interface feed = priceFeeds[token] */\n      swap1\n      pop\n        /* \"src/KipuBankV2.sol\":12486:12487  0 */\n      0x00\n        /* \"src/KipuBankV2.sol\":12461:12488  address(feed) == address(0) */\n      0xffffffffffffffffffffffffffffffffffffffff\n      and\n        /* \"src/KipuBankV2.sol\":12469:12473  feed */\n      dup2\n        /* \"src/KipuBankV2.sol\":12461:12488  address(feed) == address(0) */\n      0xffffffffffffffffffffffffffffffffffffffff\n      and\n      sub\n        /* \"src/KipuBankV2.sol\":12457:12540  if (address(feed) == address(0)) {... */\n      tag_254\n      jumpi\n        /* \"src/KipuBankV2.sol\":12512:12528  defaultPriceFeed */\n      immutable(\"0xecb3d63bca2dac2f15cfd948f18f200abecc477e6036fc1499f13da50bed1ba1\")\n        /* \"src/KipuBankV2.sol\":12505:12528  return defaultPriceFeed */\n      swap2\n      pop\n      pop\n      jump(tag_253)\n        /* \"src/KipuBankV2.sol\":12457:12540  if (address(feed) == address(0)) {... */\n    tag_254:\n        /* \"src/KipuBankV2.sol\":12557:12561  feed */\n      dup1\n        /* \"src/KipuBankV2.sol\":12550:12561  return feed */\n      swap2\n      pop\n      pop\n        /* \"src/KipuBankV2.sol\":12310:12569  function _getFeed(address token) internal view returns (AggregatorV3Interface) {... */\n    tag_253:\n      swap2\n      swap1\n      pop\n      jump\t// out\n        /* \"#utility.yul\":88:205   */\n    tag_256:\n        /* \"#utility.yul\":197:198   */\n      0x00\n        /* \"#utility.yul\":194:195   */\n      0x00\n        /* \"#utility.yul\":187:199   */\n      revert\n        /* \"#utility.yul\":334:460   */\n    tag_258:\n        /* \"#utility.yul\":371:378   */\n      0x00\n        /* \"#utility.yul\":411:453   */\n      0xffffffffffffffffffffffffffffffffffffffff\n        /* \"#utility.yul\":404:409   */\n      dup3\n        /* \"#utility.yul\":400:454   */\n      and\n        /* \"#utility.yul\":389:454   */\n      swap1\n      pop\n        /* \"#utility.yul\":334:460   */\n      swap2\n      swap1\n      pop\n      jump\t// out\n        /* \"#utility.yul\":466:562   */\n    tag_259:\n        /* \"#utility.yul\":503:510   */\n      0x00\n        /* \"#utility.yul\":532:556   */\n      tag_304\n        /* \"#utility.yul\":550:555   */\n      dup3\n        /* \"#utility.yul\":532:556   */\n      tag_258\n      jump\t// in\n    tag_304:\n        /* \"#utility.yul\":521:556   */\n      swap1\n      pop\n        /* \"#utility.yul\":466:562   */\n      swap2\n      swap1\n      pop\n      jump\t// out\n        /* \"#utility.yul\":568:690   */\n    tag_260:\n        /* \"#utility.yul\":641:665   */\n      tag_306\n        /* \"#utility.yul\":659:664   */\n      dup2\n        /* \"#utility.yul\":641:665   */\n      tag_259\n      jump\t// in\n    tag_306:\n        /* \"#utility.yul\":634:639   */\n      dup2\n        /* \"#utility.yul\":631:666   */\n      eq\n        /* \"#utility.yul\":621:684   */\n      tag_307\n      jumpi\n        /* \"#utility.yul\":680:681   */\n      0x00\n        /* \"#utility.yul\":677:678   */\n      0x00\n        /* \"#utility.yul\":670:682   */\n      revert\n        /* \"#utility.yul\":621:684   */\n    tag_307:\n        /* \"#utility.yul\":568:690   */\n      pop\n      jump\t// out\n        /* \"#utility.yul\":696:835   */\n    tag_261:\n        /* \"#utility.yul\":742:747   */\n      0x00\n        /* \"#utility.yul\":780:786   */\n      dup2\n        /* \"#utility.yul\":767:787   */\n      calldataload\n        /* \"#utility.yul\":758:787   */\n      swap1\n      pop\n        /* \"#utility.yul\":796:829   */\n      tag_309\n        /* \"#utility.yul\":823:828   */\n      dup2\n        /* \"#utility.yul\":796:829   */\n      tag_260\n      jump\t// in\n    tag_309:\n        /* \"#utility.yul\":696:835   */\n      swap3\n      swap2\n      pop\n      pop\n      jump\t// out\n        /* \"#utility.yul\":841:1170   */\n    tag_32:\n        /* \"#utility.yul\":900:906   */\n      0x00\n        /* \"#utility.yul\":949:951   */\n      0x20\n        /* \"#utility.yul\":937:946   */\n      dup3\n        /* \"#utility.yul\":928:935   */\n      dup5\n        /* \"#utility.yul\":924:947   */\n      sub\n        /* \"#utility.yul\":920:952   */\n      slt\n        /* \"#utility.yul\":917:1036   */\n      iszero\n      tag_311\n      jumpi\n        /* \"#utility.yul\":955:1034   */\n      tag_312\n      tag_256\n      jump\t// in\n    tag_312:\n        /* \"#utility.yul\":917:1036   */\n    tag_311:\n        /* \"#utility.yul\":1075:1076   */\n      0x00\n        /* \"#utility.yul\":1100:1153   */\n      tag_313\n        /* \"#utility.yul\":1145:1152   */\n      dup5\n        /* \"#utility.yul\":1136:1142   */\n      dup3\n        /* \"#utility.yul\":1125:1134   */\n      dup6\n        /* \"#utility.yul\":1121:1143   */\n      add\n        /* \"#utility.yul\":1100:1153   */\n      tag_261\n      jump\t// in\n    tag_313:\n        /* \"#utility.yul\":1090:1153   */\n      swap2\n      pop\n        /* \"#utility.yul\":1046:1163   */\n      pop\n        /* \"#utility.yul\":841:1170   */\n      swap3\n      swap2\n      pop\n      pop\n      jump\t// out\n        /* \"#utility.yul\":1176:1253   */\n    tag_262:\n        /* \"#utility.yul\":1213:1220   */\n      0x00\n        /* \"#utility.yul\":1242:1247   */\n      dup2\n        /* \"#utility.yul\":1231:1247   */\n      swap1\n      pop\n        /* \"#utility.yul\":1176:1253   */\n      swap2\n      swap1\n      pop\n      jump\t// out\n        /* \"#utility.yul\":1259:1377   */\n    tag_263:\n        /* \"#utility.yul\":1346:1370   */\n      tag_316\n        /* \"#utility.yul\":1364:1369   */\n      dup2\n        /* \"#utility.yul\":1346:1370   */\n      tag_262\n      jump\t// in\n    tag_316:\n        /* \"#utility.yul\":1341:1344   */\n      dup3\n        /* \"#utility.yul\":1334:1371   */\n      mstore\n        /* \"#utility.yul\":1259:1377   */\n      pop\n      pop\n      jump\t// out\n        /* \"#utility.yul\":1383:1605   */\n    tag_38:\n        /* \"#utility.yul\":1476:1480   */\n      0x00\n        /* \"#utility.yul\":1514:1516   */\n      0x20\n        /* \"#utility.yul\":1503:1512   */\n      dup3\n        /* \"#utility.yul\":1499:1517   */\n      add\n        /* \"#utility.yul\":1491:1517   */\n      swap1\n      pop\n        /* \"#utility.yul\":1527:1598   */\n      tag_318\n        /* \"#utility.yul\":1595:1596   */\n      0x00\n        /* \"#utility.yul\":1584:1593   */\n      dup4\n        /* \"#utility.yul\":1580:1597   */\n      add\n        /* \"#utility.yul\":1571:1577   */\n      dup5\n        /* \"#utility.yul\":1527:1598   */\n      tag_263\n      jump\t// in\n    tag_318:\n        /* \"#utility.yul\":1383:1605   */\n      swap3\n      swap2\n      pop\n      pop\n      jump\t// out\n        /* \"#utility.yul\":1611:2085   */\n    tag_42:\n        /* \"#utility.yul\":1679:1685   */\n      0x00\n        /* \"#utility.yul\":1687:1693   */\n      0x00\n        /* \"#utility.yul\":1736:1738   */\n      0x40\n        /* \"#utility.yul\":1724:1733   */\n      dup4\n        /* \"#utility.yul\":1715:1722   */\n      dup6\n        /* \"#utility.yul\":1711:1734   */\n      sub\n        /* \"#utility.yul\":1707:1739   */\n      slt\n        /* \"#utility.yul\":1704:1823   */\n      iszero\n      tag_320\n      jumpi\n        /* \"#utility.yul\":1742:1821   */\n      tag_321\n      tag_256\n      jump\t// in\n    tag_321:\n        /* \"#utility.yul\":1704:1823   */\n    tag_320:\n        /* \"#utility.yul\":1862:1863   */\n      0x00\n        /* \"#utility.yul\":1887:1940   */\n      tag_322\n        /* \"#utility.yul\":1932:1939   */\n      dup6\n        /* \"#utility.yul\":1923:1929   */\n      dup3\n        /* \"#utility.yul\":1912:1921   */\n      dup7\n        /* \"#utility.yul\":1908:1930   */\n      add\n        /* \"#utility.yul\":1887:1940   */\n      tag_261\n      jump\t// in\n    tag_322:\n        /* \"#utility.yul\":1877:1940   */\n      swap3\n      pop\n        /* \"#utility.yul\":1833:1950   */\n      pop\n        /* \"#utility.yul\":1989:1991   */\n      0x20\n        /* \"#utility.yul\":2015:2068   */\n      tag_323\n        /* \"#utility.yul\":2060:2067   */\n      dup6\n        /* \"#utility.yul\":2051:2057   */\n      dup3\n        /* \"#utility.yul\":2040:2049   */\n      dup7\n        /* \"#utility.yul\":2036:2058   */\n      add\n        /* \"#utility.yul\":2015:2068   */\n      tag_261\n      jump\t// in\n    tag_323:\n        /* \"#utility.yul\":2005:2068   */\n      swap2\n      pop\n        /* \"#utility.yul\":1960:2078   */\n      pop\n        /* \"#utility.yul\":1611:2085   */\n      swap3\n      pop\n      swap3\n      swap1\n      pop\n      jump\t// out\n        /* \"#utility.yul\":2091:2209   */\n    tag_264:\n        /* \"#utility.yul\":2178:2202   */\n      tag_325\n        /* \"#utility.yul\":2196:2201   */\n      dup2\n        /* \"#utility.yul\":2178:2202   */\n      tag_259\n      jump\t// in\n    tag_325:\n        /* \"#utility.yul\":2173:2176   */\n      dup3\n        /* \"#utility.yul\":2166:2203   */\n      mstore\n        /* \"#utility.yul\":2091:2209   */\n      pop\n      pop\n      jump\t// out\n        /* \"#utility.yul\":2215:2437   */\n    tag_48:\n        /* \"#utility.yul\":2308:2312   */\n      0x00\n        /* \"#utility.yul\":2346:2348   */\n      0x20\n        /* \"#utility.yul\":2335:2344   */\n      dup3\n        /* \"#utility.yul\":2331:2349   */\n      add\n        /* \"#utility.yul\":2323:2349   */\n      swap1\n      pop\n        /* \"#utility.yul\":2359:2430   */\n      tag_327\n        /* \"#utility.yul\":2427:2428   */\n      0x00\n        /* \"#utility.yul\":2416:2425   */\n      dup4\n        /* \"#utility.yul\":2412:2429   */\n      add\n        /* \"#utility.yul\":2403:2409   */\n      dup5\n        /* \"#utility.yul\":2359:2430   */\n      tag_264\n      jump\t// in\n    tag_327:\n        /* \"#utility.yul\":2215:2437   */\n      swap3\n      swap2\n      pop\n      pop\n      jump\t// out\n        /* \"#utility.yul\":2443:2565   */\n    tag_265:\n        /* \"#utility.yul\":2516:2540   */\n      tag_329\n        /* \"#utility.yul\":2534:2539   */\n      dup2\n        /* \"#utility.yul\":2516:2540   */\n      tag_262\n      jump\t// in\n    tag_329:\n        /* \"#utility.yul\":2509:2514   */\n      dup2\n        /* \"#utility.yul\":2506:2541   */\n      eq\n        /* \"#utility.yul\":2496:2559   */\n      tag_330\n      jumpi\n        /* \"#utility.yul\":2555:2556   */\n      0x00\n        /* \"#utility.yul\":2552:2553   */\n      0x00\n        /* \"#utility.yul\":2545:2557   */\n      revert\n        /* \"#utility.yul\":2496:2559   */\n    tag_330:\n        /* \"#utility.yul\":2443:2565   */\n      pop\n      jump\t// out\n        /* \"#utility.yul\":2571:2710   */\n    tag_266:\n        /* \"#utility.yul\":2617:2622   */\n      0x00\n        /* \"#utility.yul\":2655:2661   */\n      dup2\n        /* \"#utility.yul\":2642:2662   */\n      calldataload\n        /* \"#utility.yul\":2633:2662   */\n      swap1\n      pop\n        /* \"#utility.yul\":2671:2704   */\n      tag_332\n        /* \"#utility.yul\":2698:2703   */\n      dup2\n        /* \"#utility.yul\":2671:2704   */\n      tag_265\n      jump\t// in\n    tag_332:\n        /* \"#utility.yul\":2571:2710   */\n      swap3\n      swap2\n      pop\n      pop\n      jump\t// out\n        /* \"#utility.yul\":2716:3190   */\n    tag_52:\n        /* \"#utility.yul\":2784:2790   */\n      0x00\n        /* \"#utility.yul\":2792:2798   */\n      0x00\n        /* \"#utility.yul\":2841:2843   */\n      0x40\n        /* \"#utility.yul\":2829:2838   */\n      dup4\n        /* \"#utility.yul\":2820:2827   */\n      dup6\n        /* \"#utility.yul\":2816:2839   */\n      sub\n        /* \"#utility.yul\":2812:2844   */\n      slt\n        /* \"#utility.yul\":2809:2928   */\n      iszero\n      tag_334\n      jumpi\n        /* \"#utility.yul\":2847:2926   */\n      tag_335\n      tag_256\n      jump\t// in\n    tag_335:\n        /* \"#utility.yul\":2809:2928   */\n    tag_334:\n        /* \"#utility.yul\":2967:2968   */\n      0x00\n        /* \"#utility.yul\":2992:3045   */\n      tag_336\n        /* \"#utility.yul\":3037:3044   */\n      dup6\n        /* \"#utility.yul\":3028:3034   */\n      dup3\n        /* \"#utility.yul\":3017:3026   */\n      dup7\n        /* \"#utility.yul\":3013:3035   */\n      add\n        /* \"#utility.yul\":2992:3045   */\n      tag_261\n      jump\t// in\n    tag_336:\n        /* \"#utility.yul\":2982:3045   */\n      swap3\n      pop\n        /* \"#utility.yul\":2938:3055   */\n      pop\n        /* \"#utility.yul\":3094:3096   */\n      0x20\n        /* \"#utility.yul\":3120:3173   */\n      tag_337\n        /* \"#utility.yul\":3165:3172   */\n      dup6\n        /* \"#utility.yul\":3156:3162   */\n      dup3\n        /* \"#utility.yul\":3145:3154   */\n      dup7\n        /* \"#utility.yul\":3141:3163   */\n      add\n        /* \"#utility.yul\":3120:3173   */\n      tag_266\n      jump\t// in\n    tag_337:\n        /* \"#utility.yul\":3110:3173   */\n      swap2\n      pop\n        /* \"#utility.yul\":3065:3183   */\n      pop\n        /* \"#utility.yul\":2716:3190   */\n      swap3\n      pop\n      swap3\n      swap1\n      pop\n      jump\t// out\n        /* \"#utility.yul\":3196:3256   */\n    tag_267:\n        /* \"#utility.yul\":3224:3227   */\n      0x00\n        /* \"#utility.yul\":3245:3250   */\n      dup2\n        /* \"#utility.yul\":3238:3250   */\n      swap1\n      pop\n        /* \"#utility.yul\":3196:3256   */\n      swap2\n      swap1\n      pop\n      jump\t// out\n        /* \"#utility.yul\":3262:3404   */\n    tag_268:\n        /* \"#utility.yul\":3312:3321   */\n      0x00\n        /* \"#utility.yul\":3345:3398   */\n      tag_340\n        /* \"#utility.yul\":3363:3397   */\n      tag_341\n        /* \"#utility.yul\":3372:3396   */\n      tag_342\n        /* \"#utility.yul\":3390:3395   */\n      dup5\n        /* \"#utility.yul\":3372:3396   */\n      tag_258\n      jump\t// in\n    tag_342:\n        /* \"#utility.yul\":3363:3397   */\n      tag_267\n      jump\t// in\n    tag_341:\n        /* \"#utility.yul\":3345:3398   */\n      tag_258\n      jump\t// in\n    tag_340:\n        /* \"#utility.yul\":3332:3398   */\n      swap1\n      pop\n        /* \"#utility.yul\":3262:3404   */\n      swap2\n      swap1\n      pop\n      jump\t// out\n        /* \"#utility.yul\":3410:3536   */\n    tag_269:\n        /* \"#utility.yul\":3460:3469   */\n      0x00\n        /* \"#utility.yul\":3493:3530   */\n      tag_344\n        /* \"#utility.yul\":3524:3529   */\n      dup3\n        /* \"#utility.yul\":3493:3530   */\n      tag_268\n      jump\t// in\n    tag_344:\n        /* \"#utility.yul\":3480:3530   */\n      swap1\n      pop\n        /* \"#utility.yul\":3410:3536   */\n      swap2\n      swap1\n      pop\n      jump\t// out\n        /* \"#utility.yul\":3542:3696   */\n    tag_270:\n        /* \"#utility.yul\":3620:3629   */\n      0x00\n        /* \"#utility.yul\":3653:3690   */\n      tag_346\n        /* \"#utility.yul\":3684:3689   */\n      dup3\n        /* \"#utility.yul\":3653:3690   */\n      tag_269\n      jump\t// in\n    tag_346:\n        /* \"#utility.yul\":3640:3690   */\n      swap1\n      pop\n        /* \"#utility.yul\":3542:3696   */\n      swap2\n      swap1\n      pop\n      jump\t// out\n        /* \"#utility.yul\":3702:3889   */\n    tag_271:\n        /* \"#utility.yul\":3817:3882   */\n      tag_348\n        /* \"#utility.yul\":3876:3881   */\n      dup2\n        /* \"#utility.yul\":3817:3882   */\n      tag_270\n      jump\t// in\n    tag_348:\n        /* \"#utility.yul\":3812:3815   */\n      dup3\n        /* \"#utility.yul\":3805:3883   */\n      mstore\n        /* \"#utility.yul\":3702:3889   */\n      pop\n      pop\n      jump\t// out\n        /* \"#utility.yul\":3895:4173   */\n    tag_59:\n        /* \"#utility.yul\":4016:4020   */\n      0x00\n        /* \"#utility.yul\":4054:4056   */\n      0x20\n        /* \"#utility.yul\":4043:4052   */\n      dup3\n        /* \"#utility.yul\":4039:4057   */\n      add\n        /* \"#utility.yul\":4031:4057   */\n      swap1\n      pop\n        /* \"#utility.yul\":4067:4166   */\n      tag_350\n        /* \"#utility.yul\":4163:4164   */\n      0x00\n        /* \"#utility.yul\":4152:4161   */\n      dup4\n        /* \"#utility.yul\":4148:4165   */\n      add\n        /* \"#utility.yul\":4139:4145   */\n      dup5\n        /* \"#utility.yul\":4067:4166   */\n      tag_271\n      jump\t// in\n    tag_350:\n        /* \"#utility.yul\":3895:4173   */\n      swap3\n      swap2\n      pop\n      pop\n      jump\t// out\n        /* \"#utility.yul\":4179:4265   */\n    tag_272:\n        /* \"#utility.yul\":4214:4221   */\n      0x00\n        /* \"#utility.yul\":4254:4258   */\n      0xff\n        /* \"#utility.yul\":4247:4252   */\n      dup3\n        /* \"#utility.yul\":4243:4259   */\n      and\n        /* \"#utility.yul\":4232:4259   */\n      swap1\n      pop\n        /* \"#utility.yul\":4179:4265   */\n      swap2\n      swap1\n      pop\n      jump\t// out\n        /* \"#utility.yul\":4271:4383   */\n    tag_273:\n        /* \"#utility.yul\":4354:4376   */\n      tag_353\n        /* \"#utility.yul\":4370:4375   */\n      dup2\n        /* \"#utility.yul\":4354:4376   */\n      tag_272\n      jump\t// in\n    tag_353:\n        /* \"#utility.yul\":4349:4352   */\n      dup3\n        /* \"#utility.yul\":4342:4377   */\n      mstore\n        /* \"#utility.yul\":4271:4383   */\n      pop\n      pop\n      jump\t// out\n        /* \"#utility.yul\":4389:4603   */\n    tag_76:\n        /* \"#utility.yul\":4478:4482   */\n      0x00\n        /* \"#utility.yul\":4516:4518   */\n      0x20\n        /* \"#utility.yul\":4505:4514   */\n      dup3\n        /* \"#utility.yul\":4501:4519   */\n      add\n        /* \"#utility.yul\":4493:4519   */\n      swap1\n      pop\n        /* \"#utility.yul\":4529:4596   */\n      tag_355\n        /* \"#utility.yul\":4593:4594   */\n      0x00\n        /* \"#utility.yul\":4582:4591   */\n      dup4\n        /* \"#utility.yul\":4578:4595   */\n      add\n        /* \"#utility.yul\":4569:4575   */\n      dup5\n        /* \"#utility.yul\":4529:4596   */\n      tag_273\n      jump\t// in\n    tag_355:\n        /* \"#utility.yul\":4389:4603   */\n      swap3\n      swap2\n      pop\n      pop\n      jump\t// out\n        /* \"#utility.yul\":4609:4938   */\n    tag_92:\n        /* \"#utility.yul\":4668:4674   */\n      0x00\n        /* \"#utility.yul\":4717:4719   */\n      0x20\n        /* \"#utility.yul\":4705:4714   */\n      dup3\n        /* \"#utility.yul\":4696:4703   */\n      dup5\n        /* \"#utility.yul\":4692:4715   */\n      sub\n        /* \"#utility.yul\":4688:4720   */\n      slt\n        /* \"#utility.yul\":4685:4804   */\n      iszero\n      tag_357\n      jumpi\n        /* \"#utility.yul\":4723:4802   */\n      tag_358\n      tag_256\n      jump\t// in\n    tag_358:\n        /* \"#utility.yul\":4685:4804   */\n    tag_357:\n        /* \"#utility.yul\":4843:4844   */\n      0x00\n        /* \"#utility.yul\":4868:4921   */\n      tag_359\n        /* \"#utility.yul\":4913:4920   */\n      dup5\n        /* \"#utility.yul\":4904:4910   */\n      dup3\n        /* \"#utility.yul\":4893:4902   */\n      dup6\n        /* \"#utility.yul\":4889:4911   */\n      add\n        /* \"#utility.yul\":4868:4921   */\n      tag_266\n      jump\t// in\n    tag_359:\n        /* \"#utility.yul\":4858:4921   */\n      swap2\n      pop\n        /* \"#utility.yul\":4814:4931   */\n      pop\n        /* \"#utility.yul\":4609:4938   */\n      swap3\n      swap2\n      pop\n      pop\n      jump\t// out\n        /* \"#utility.yul\":4944:5113   */\n    tag_274:\n        /* \"#utility.yul\":5028:5039   */\n      0x00\n        /* \"#utility.yul\":5062:5068   */\n      dup3\n        /* \"#utility.yul\":5057:5060   */\n      dup3\n        /* \"#utility.yul\":5050:5069   */\n      mstore\n        /* \"#utility.yul\":5102:5106   */\n      0x20\n        /* \"#utility.yul\":5097:5100   */\n      dup3\n        /* \"#utility.yul\":5093:5107   */\n      add\n        /* \"#utility.yul\":5078:5107   */\n      swap1\n      pop\n        /* \"#utility.yul\":4944:5113   */\n      swap3\n      swap2\n      pop\n      pop\n      jump\t// out\n        /* \"#utility.yul\":5119:5279   */\n    tag_275:\n        /* \"#utility.yul\":5259:5271   */\n      0x7a65726f206f776e657200000000000000000000000000000000000000000000\n        /* \"#utility.yul\":5255:5256   */\n      0x00\n        /* \"#utility.yul\":5247:5253   */\n      dup3\n        /* \"#utility.yul\":5243:5257   */\n      add\n        /* \"#utility.yul\":5236:5272   */\n      mstore\n        /* \"#utility.yul\":5119:5279   */\n      pop\n      jump\t// out\n        /* \"#utility.yul\":5285:5651   */\n    tag_276:\n        /* \"#utility.yul\":5427:5430   */\n      0x00\n        /* \"#utility.yul\":5448:5515   */\n      tag_363\n        /* \"#utility.yul\":5512:5514   */\n      0x0a\n        /* \"#utility.yul\":5507:5510   */\n      dup4\n        /* \"#utility.yul\":5448:5515   */\n      tag_274\n      jump\t// in\n    tag_363:\n        /* \"#utility.yul\":5441:5515   */\n      swap2\n      pop\n        /* \"#utility.yul\":5524:5617   */\n      tag_364\n        /* \"#utility.yul\":5613:5616   */\n      dup3\n        /* \"#utility.yul\":5524:5617   */\n      tag_275\n      jump\t// in\n    tag_364:\n        /* \"#utility.yul\":5642:5644   */\n      0x20\n        /* \"#utility.yul\":5637:5640   */\n      dup3\n        /* \"#utility.yul\":5633:5645   */\n      add\n        /* \"#utility.yul\":5626:5645   */\n      swap1\n      pop\n        /* \"#utility.yul\":5285:5651   */\n      swap2\n      swap1\n      pop\n      jump\t// out\n        /* \"#utility.yul\":5657:6076   */\n    tag_106:\n        /* \"#utility.yul\":5823:5827   */\n      0x00\n        /* \"#utility.yul\":5861:5863   */\n      0x20\n        /* \"#utility.yul\":5850:5859   */\n      dup3\n        /* \"#utility.yul\":5846:5864   */\n      add\n        /* \"#utility.yul\":5838:5864   */\n      swap1\n      pop\n        /* \"#utility.yul\":5910:5919   */\n      dup2\n        /* \"#utility.yul\":5904:5908   */\n      dup2\n        /* \"#utility.yul\":5900:5920   */\n      sub\n        /* \"#utility.yul\":5896:5897   */\n      0x00\n        /* \"#utility.yul\":5885:5894   */\n      dup4\n        /* \"#utility.yul\":5881:5898   */\n      add\n        /* \"#utility.yul\":5874:5921   */\n      mstore\n        /* \"#utility.yul\":5938:6069   */\n      tag_366\n        /* \"#utility.yul\":6064:6068   */\n      dup2\n        /* \"#utility.yul\":5938:6069   */\n      tag_276\n      jump\t// in\n    tag_366:\n        /* \"#utility.yul\":5930:6069   */\n      swap1\n      pop\n        /* \"#utility.yul\":5657:6076   */\n      swap2\n      swap1\n      pop\n      jump\t// out\n        /* \"#utility.yul\":6082:6524   */\n    tag_118:\n        /* \"#utility.yul\":6231:6235   */\n      0x00\n        /* \"#utility.yul\":6269:6271   */\n      0x60\n        /* \"#utility.yul\":6258:6267   */\n      dup3\n        /* \"#utility.yul\":6254:6272   */\n      add\n        /* \"#utility.yul\":6246:6272   */\n      swap1\n      pop\n        /* \"#utility.yul\":6282:6353   */\n      tag_368\n        /* \"#utility.yul\":6350:6351   */\n      0x00\n        /* \"#utility.yul\":6339:6348   */\n      dup4\n        /* \"#utility.yul\":6335:6352   */\n      add\n        /* \"#utility.yul\":6326:6332   */\n      dup7\n        /* \"#utility.yul\":6282:6353   */\n      tag_264\n      jump\t// in\n    tag_368:\n        /* \"#utility.yul\":6363:6435   */\n      tag_369\n        /* \"#utility.yul\":6431:6433   */\n      0x20\n        /* \"#utility.yul\":6420:6429   */\n      dup4\n        /* \"#utility.yul\":6416:6434   */\n      add\n        /* \"#utility.yul\":6407:6413   */\n      dup6\n        /* \"#utility.yul\":6363:6435   */\n      tag_264\n      jump\t// in\n    tag_369:\n        /* \"#utility.yul\":6445:6517   */\n      tag_370\n        /* \"#utility.yul\":6513:6515   */\n      0x40\n        /* \"#utility.yul\":6502:6511   */\n      dup4\n        /* \"#utility.yul\":6498:6516   */\n      add\n        /* \"#utility.yul\":6489:6495   */\n      dup5\n        /* \"#utility.yul\":6445:6517   */\n      tag_263\n      jump\t// in\n    tag_370:\n        /* \"#utility.yul\":6082:6524   */\n      swap5\n      swap4\n      pop\n      pop\n      pop\n      pop\n      jump\t// out\n        /* \"#utility.yul\":6530:6620   */\n    tag_277:\n        /* \"#utility.yul\":6564:6571   */\n      0x00\n        /* \"#utility.yul\":6607:6612   */\n      dup2\n        /* \"#utility.yul\":6600:6613   */\n      iszero\n        /* \"#utility.yul\":6593:6614   */\n      iszero\n        /* \"#utility.yul\":6582:6614   */\n      swap1\n      pop\n        /* \"#utility.yul\":6530:6620   */\n      swap2\n      swap1\n      pop\n      jump\t// out\n        /* \"#utility.yul\":6626:6742   */\n    tag_278:\n        /* \"#utility.yul\":6696:6717   */\n      tag_373\n        /* \"#utility.yul\":6711:6716   */\n      dup2\n        /* \"#utility.yul\":6696:6717   */\n      tag_277\n      jump\t// in\n    tag_373:\n        /* \"#utility.yul\":6689:6694   */\n      dup2\n        /* \"#utility.yul\":6686:6718   */\n      eq\n        /* \"#utility.yul\":6676:6736   */\n      tag_374\n      jumpi\n        /* \"#utility.yul\":6732:6733   */\n      0x00\n        /* \"#utility.yul\":6729:6730   */\n      0x00\n        /* \"#utility.yul\":6722:6734   */\n      revert\n        /* \"#utility.yul\":6676:6736   */\n    tag_374:\n        /* \"#utility.yul\":6626:6742   */\n      pop\n      jump\t// out\n        /* \"#utility.yul\":6748:6885   */\n    tag_279:\n        /* \"#utility.yul\":6802:6807   */\n      0x00\n        /* \"#utility.yul\":6833:6839   */\n      dup2\n        /* \"#utility.yul\":6827:6840   */\n      mload\n        /* \"#utility.yul\":6818:6840   */\n      swap1\n      pop\n        /* \"#utility.yul\":6849:6879   */\n      tag_376\n        /* \"#utility.yul\":6873:6878   */\n      dup2\n        /* \"#utility.yul\":6849:6879   */\n      tag_278\n      jump\t// in\n    tag_376:\n        /* \"#utility.yul\":6748:6885   */\n      swap3\n      swap2\n      pop\n      pop\n      jump\t// out\n        /* \"#utility.yul\":6891:7236   */\n    tag_122:\n        /* \"#utility.yul\":6958:6964   */\n      0x00\n        /* \"#utility.yul\":7007:7009   */\n      0x20\n        /* \"#utility.yul\":6995:7004   */\n      dup3\n        /* \"#utility.yul\":6986:6993   */\n      dup5\n        /* \"#utility.yul\":6982:7005   */\n      sub\n        /* \"#utility.yul\":6978:7010   */\n      slt\n        /* \"#utility.yul\":6975:7094   */\n      iszero\n      tag_378\n      jumpi\n        /* \"#utility.yul\":7013:7092   */\n      tag_379\n      tag_256\n      jump\t// in\n    tag_379:\n        /* \"#utility.yul\":6975:7094   */\n    tag_378:\n        /* \"#utility.yul\":7133:7134   */\n      0x00\n        /* \"#utility.yul\":7158:7219   */\n      tag_380\n        /* \"#utility.yul\":7211:7218   */\n      dup5\n        /* \"#utility.yul\":7202:7208   */\n      dup3\n        /* \"#utility.yul\":7191:7200   */\n      dup6\n        /* \"#utility.yul\":7187:7209   */\n      add\n        /* \"#utility.yul\":7158:7219   */\n      tag_279\n      jump\t// in\n    tag_380:\n        /* \"#utility.yul\":7148:7219   */\n      swap2\n      pop\n        /* \"#utility.yul\":7104:7229   */\n      pop\n        /* \"#utility.yul\":6891:7236   */\n      swap3\n      swap2\n      pop\n      pop\n      jump\t// out\n        /* \"#utility.yul\":7242:7422   */\n    tag_280:\n        /* \"#utility.yul\":7290:7367   */\n      0x4e487b7100000000000000000000000000000000000000000000000000000000\n        /* \"#utility.yul\":7287:7288   */\n      0x00\n        /* \"#utility.yul\":7280:7368   */\n      mstore\n        /* \"#utility.yul\":7387:7391   */\n      0x11\n        /* \"#utility.yul\":7384:7385   */\n      0x04\n        /* \"#utility.yul\":7377:7392   */\n      mstore\n        /* \"#utility.yul\":7411:7415   */\n      0x24\n        /* \"#utility.yul\":7408:7409   */\n      0x00\n        /* \"#utility.yul\":7401:7416   */\n      revert\n        /* \"#utility.yul\":7428:7619   */\n    tag_128:\n        /* \"#utility.yul\":7468:7471   */\n      0x00\n        /* \"#utility.yul\":7487:7507   */\n      tag_383\n        /* \"#utility.yul\":7505:7506   */\n      dup3\n        /* \"#utility.yul\":7487:7507   */\n      tag_262\n      jump\t// in\n    tag_383:\n        /* \"#utility.yul\":7482:7507   */\n      swap2\n      pop\n        /* \"#utility.yul\":7521:7541   */\n      tag_384\n        /* \"#utility.yul\":7539:7540   */\n      dup4\n        /* \"#utility.yul\":7521:7541   */\n      tag_262\n      jump\t// in\n    tag_384:\n        /* \"#utility.yul\":7516:7541   */\n      swap3\n      pop\n        /* \"#utility.yul\":7564:7565   */\n      dup3\n        /* \"#utility.yul\":7561:7562   */\n      dup3\n        /* \"#utility.yul\":7557:7566   */\n      add\n        /* \"#utility.yul\":7550:7566   */\n      swap1\n      pop\n        /* \"#utility.yul\":7585:7588   */\n      dup1\n        /* \"#utility.yul\":7582:7583   */\n      dup3\n        /* \"#utility.yul\":7579:7589   */\n      gt\n        /* \"#utility.yul\":7576:7612   */\n      iszero\n      tag_385\n      jumpi\n        /* \"#utility.yul\":7592:7610   */\n      tag_386\n      tag_280\n      jump\t// in\n    tag_386:\n        /* \"#utility.yul\":7576:7612   */\n    tag_385:\n        /* \"#utility.yul\":7428:7619   */\n      swap3\n      swap2\n      pop\n      pop\n      jump\t// out\n        /* \"#utility.yul\":7625:7957   */\n    tag_131:\n        /* \"#utility.yul\":7746:7750   */\n      0x00\n        /* \"#utility.yul\":7784:7786   */\n      0x40\n        /* \"#utility.yul\":7773:7782   */\n      dup3\n        /* \"#utility.yul\":7769:7787   */\n      add\n        /* \"#utility.yul\":7761:7787   */\n      swap1\n      pop\n        /* \"#utility.yul\":7797:7868   */\n      tag_388\n        /* \"#utility.yul\":7865:7866   */\n      0x00\n        /* \"#utility.yul\":7854:7863   */\n      dup4\n        /* \"#utility.yul\":7850:7867   */\n      add\n        /* \"#utility.yul\":7841:7847   */\n      dup6\n        /* \"#utility.yul\":7797:7868   */\n      tag_264\n      jump\t// in\n    tag_388:\n        /* \"#utility.yul\":7878:7950   */\n      tag_389\n        /* \"#utility.yul\":7946:7948   */\n      0x20\n        /* \"#utility.yul\":7935:7944   */\n      dup4\n        /* \"#utility.yul\":7931:7949   */\n      add\n        /* \"#utility.yul\":7922:7928   */\n      dup5\n        /* \"#utility.yul\":7878:7950   */\n      tag_263\n      jump\t// in\n    tag_389:\n        /* \"#utility.yul\":7625:7957   */\n      swap4\n      swap3\n      pop\n      pop\n      pop\n      jump\t// out\n        /* \"#utility.yul\":7963:8405   */\n    tag_136:\n        /* \"#utility.yul\":8112:8116   */\n      0x00\n        /* \"#utility.yul\":8150:8152   */\n      0x60\n        /* \"#utility.yul\":8139:8148   */\n      dup3\n        /* \"#utility.yul\":8135:8153   */\n      add\n        /* \"#utility.yul\":8127:8153   */\n      swap1\n      pop\n        /* \"#utility.yul\":8163:8234   */\n      tag_391\n        /* \"#utility.yul\":8231:8232   */\n      0x00\n        /* \"#utility.yul\":8220:8229   */\n      dup4\n        /* \"#utility.yul\":8216:8233   */\n      add\n        /* \"#utility.yul\":8207:8213   */\n      dup7\n        /* \"#utility.yul\":8163:8234   */\n      tag_263\n      jump\t// in\n    tag_391:\n        /* \"#utility.yul\":8244:8316   */\n      tag_392\n        /* \"#utility.yul\":8312:8314   */\n      0x20\n        /* \"#utility.yul\":8301:8310   */\n      dup4\n        /* \"#utility.yul\":8297:8315   */\n      add\n        /* \"#utility.yul\":8288:8294   */\n      dup6\n        /* \"#utility.yul\":8244:8316   */\n      tag_263\n      jump\t// in\n    tag_392:\n        /* \"#utility.yul\":8326:8398   */\n      tag_393\n        /* \"#utility.yul\":8394:8396   */\n      0x40\n        /* \"#utility.yul\":8383:8392   */\n      dup4\n        /* \"#utility.yul\":8379:8397   */\n      add\n        /* \"#utility.yul\":8370:8376   */\n      dup5\n        /* \"#utility.yul\":8326:8398   */\n      tag_263\n      jump\t// in\n    tag_393:\n        /* \"#utility.yul\":7963:8405   */\n      swap5\n      swap4\n      pop\n      pop\n      pop\n      pop\n      jump\t// out\n        /* \"#utility.yul\":8411:8644   */\n    tag_140:\n        /* \"#utility.yul\":8450:8453   */\n      0x00\n        /* \"#utility.yul\":8473:8497   */\n      tag_395\n        /* \"#utility.yul\":8491:8496   */\n      dup3\n        /* \"#utility.yul\":8473:8497   */\n      tag_262\n      jump\t// in\n    tag_395:\n        /* \"#utility.yul\":8464:8497   */\n      swap2\n      pop\n        /* \"#utility.yul\":8519:8585   */\n      0xffffffffffffffffffffffffffffffffffffffffffffffffffffffffffffffff\n        /* \"#utility.yul\":8512:8517   */\n      dup3\n        /* \"#utility.yul\":8509:8586   */\n      sub\n        /* \"#utility.yul\":8506:8609   */\n      tag_396\n      jumpi\n        /* \"#utility.yul\":8589:8607   */\n      tag_397\n      tag_280\n      jump\t// in\n    tag_397:\n        /* \"#utility.yul\":8506:8609   */\n    tag_396:\n        /* \"#utility.yul\":8636:8637   */\n      0x01\n        /* \"#utility.yul\":8629:8634   */\n      dup3\n        /* \"#utility.yul\":8625:8638   */\n      add\n        /* \"#utility.yul\":8618:8638   */\n      swap1\n      pop\n        /* \"#utility.yul\":8411:8644   */\n      swap2\n      swap1\n      pop\n      jump\t// out\n        /* \"#utility.yul\":8650:8982   */\n    tag_143:\n        /* \"#utility.yul\":8771:8775   */\n      0x00\n        /* \"#utility.yul\":8809:8811   */\n      0x40\n        /* \"#utility.yul\":8798:8807   */\n      dup3\n        /* \"#utility.yul\":8794:8812   */\n      add\n        /* \"#utility.yul\":8786:8812   */\n      swap1\n      pop\n        /* \"#utility.yul\":8822:8893   */\n      tag_399\n        /* \"#utility.yul\":8890:8891   */\n      0x00\n        /* \"#utility.yul\":8879:8888   */\n      dup4\n        /* \"#utility.yul\":8875:8892   */\n      add\n        /* \"#utility.yul\":8866:8872   */\n      dup6\n        /* \"#utility.yul\":8822:8893   */\n      tag_263\n      jump\t// in\n    tag_399:\n        /* \"#utility.yul\":8903:8975   */\n      tag_400\n        /* \"#utility.yul\":8971:8973   */\n      0x20\n        /* \"#utility.yul\":8960:8969   */\n      dup4\n        /* \"#utility.yul\":8956:8974   */\n      add\n        /* \"#utility.yul\":8947:8953   */\n      dup5\n        /* \"#utility.yul\":8903:8975   */\n      tag_263\n      jump\t// in\n    tag_400:\n        /* \"#utility.yul\":8650:8982   */\n      swap4\n      swap3\n      pop\n      pop\n      pop\n      jump\t// out\n        /* \"#utility.yul\":8988:9430   */\n    tag_151:\n        /* \"#utility.yul\":9137:9141   */\n      0x00\n        /* \"#utility.yul\":9175:9177   */\n      0x60\n        /* \"#utility.yul\":9164:9173   */\n      dup3\n        /* \"#utility.yul\":9160:9178   */\n      add\n        /* \"#utility.yul\":9152:9178   */\n      swap1\n      pop\n        /* \"#utility.yul\":9188:9259   */\n      tag_402\n        /* \"#utility.yul\":9256:9257   */\n      0x00\n        /* \"#utility.yul\":9245:9254   */\n      dup4\n        /* \"#utility.yul\":9241:9258   */\n      add\n        /* \"#utility.yul\":9232:9238   */\n      dup7\n        /* \"#utility.yul\":9188:9259   */\n      tag_264\n      jump\t// in\n    tag_402:\n        /* \"#utility.yul\":9269:9341   */\n      tag_403\n        /* \"#utility.yul\":9337:9339   */\n      0x20\n        /* \"#utility.yul\":9326:9335   */\n      dup4\n        /* \"#utility.yul\":9322:9340   */\n      add\n        /* \"#utility.yul\":9313:9319   */\n      dup6\n        /* \"#utility.yul\":9269:9341   */\n      tag_263\n      jump\t// in\n    tag_403:\n        /* \"#utility.yul\":9351:9423   */\n      tag_404\n        /* \"#utility.yul\":9419:9421   */\n      0x40\n        /* \"#utility.yul\":9408:9417   */\n      dup4\n        /* \"#utility.yul\":9404:9422   */\n      add\n        /* \"#utility.yul\":9395:9401   */\n      dup5\n        /* \"#utility.yul\":9351:9423   */\n      tag_263\n      jump\t// in\n    tag_404:\n        /* \"#utility.yul\":8988:9430   */\n      swap5\n      swap4\n      pop\n      pop\n      pop\n      pop\n      jump\t// out\n        /* \"#utility.yul\":9436:9630   */\n    tag_159:\n        /* \"#utility.yul\":9476:9480   */\n      0x00\n        /* \"#utility.yul\":9496:9516   */\n      tag_406\n        /* \"#utility.yul\":9514:9515   */\n      dup3\n        /* \"#utility.yul\":9496:9516   */\n      tag_262\n      jump\t// in\n    tag_406:\n        /* \"#utility.yul\":9491:9516   */\n      swap2\n      pop\n        /* \"#utility.yul\":9530:9550   */\n      tag_407\n        /* \"#utility.yul\":9548:9549   */\n      dup4\n        /* \"#utility.yul\":9530:9550   */\n      tag_262\n      jump\t// in\n    tag_407:\n        /* \"#utility.yul\":9525:9550   */\n      swap3\n      pop\n        /* \"#utility.yul\":9574:9575   */\n      dup3\n        /* \"#utility.yul\":9571:9572   */\n      dup3\n        /* \"#utility.yul\":9567:9576   */\n      sub\n        /* \"#utility.yul\":9559:9576   */\n      swap1\n      pop\n        /* \"#utility.yul\":9598:9599   */\n      dup2\n        /* \"#utility.yul\":9592:9596   */\n      dup2\n        /* \"#utility.yul\":9589:9600   */\n      gt\n        /* \"#utility.yul\":9586:9623   */\n      iszero\n      tag_408\n      jumpi\n        /* \"#utility.yul\":9603:9621   */\n      tag_409\n      tag_280\n      jump\t// in\n    tag_409:\n        /* \"#utility.yul\":9586:9623   */\n    tag_408:\n        /* \"#utility.yul\":9436:9630   */\n      swap3\n      swap2\n      pop\n      pop\n      jump\t// out\n        /* \"#utility.yul\":9636:9783   */\n    tag_281:\n        /* \"#utility.yul\":9737:9748   */\n      0x00\n        /* \"#utility.yul\":9774:9777   */\n      dup2\n        /* \"#utility.yul\":9759:9777   */\n      swap1\n      pop\n        /* \"#utility.yul\":9636:9783   */\n      swap3\n      swap2\n      pop\n      pop\n      jump\t// out\n        /* \"#utility.yul\":9789:9903   */\n    tag_282:\n      pop\n      jump\t// out\n        /* \"#utility.yul\":9909:10307   */\n    tag_283:\n        /* \"#utility.yul\":10068:10071   */\n      0x00\n        /* \"#utility.yul\":10089:10172   */\n      tag_413\n        /* \"#utility.yul\":10170:10171   */\n      0x00\n        /* \"#utility.yul\":10165:10168   */\n      dup4\n        /* \"#utility.yul\":10089:10172   */\n      tag_281\n      jump\t// in\n    tag_413:\n        /* \"#utility.yul\":10082:10172   */\n      swap2\n      pop\n        /* \"#utility.yul\":10181:10274   */\n      tag_414\n        /* \"#utility.yul\":10270:10273   */\n      dup3\n        /* \"#utility.yul\":10181:10274   */\n      tag_282\n      jump\t// in\n    tag_414:\n        /* \"#utility.yul\":10299:10300   */\n      0x00\n        /* \"#utility.yul\":10294:10297   */\n      dup3\n        /* \"#utility.yul\":10290:10301   */\n      add\n        /* \"#utility.yul\":10283:10301   */\n      swap1\n      pop\n        /* \"#utility.yul\":9909:10307   */\n      swap2\n      swap1\n      pop\n      jump\t// out\n        /* \"#utility.yul\":10313:10692   */\n    tag_184:\n        /* \"#utility.yul\":10497:10500   */\n      0x00\n        /* \"#utility.yul\":10519:10666   */\n      tag_416\n        /* \"#utility.yul\":10662:10665   */\n      dup3\n        /* \"#utility.yul\":10519:10666   */\n      tag_283\n      jump\t// in\n    tag_416:\n        /* \"#utility.yul\":10512:10666   */\n      swap2\n      pop\n        /* \"#utility.yul\":10683:10686   */\n      dup2\n        /* \"#utility.yul\":10676:10686   */\n      swap1\n      pop\n        /* \"#utility.yul\":10313:10692   */\n      swap2\n      swap1\n      pop\n      jump\t// out\n        /* \"#utility.yul\":10698:10803   */\n    tag_284:\n        /* \"#utility.yul\":10734:10741   */\n      0x00\n        /* \"#utility.yul\":10774:10796   */\n      0xffffffffffffffffffff\n        /* \"#utility.yul\":10767:10772   */\n      dup3\n        /* \"#utility.yul\":10763:10797   */\n      and\n        /* \"#utility.yul\":10752:10797   */\n      swap1\n      pop\n        /* \"#utility.yul\":10698:10803   */\n      swap2\n      swap1\n      pop\n      jump\t// out\n        /* \"#utility.yul\":10809:10929   */\n    tag_285:\n        /* \"#utility.yul\":10881:10904   */\n      tag_419\n        /* \"#utility.yul\":10898:10903   */\n      dup2\n        /* \"#utility.yul\":10881:10904   */\n      tag_284\n      jump\t// in\n    tag_419:\n        /* \"#utility.yul\":10874:10879   */\n      dup2\n        /* \"#utility.yul\":10871:10905   */\n      eq\n        /* \"#utility.yul\":10861:10923   */\n      tag_420\n      jumpi\n        /* \"#utility.yul\":10919:10920   */\n      0x00\n        /* \"#utility.yul\":10916:10917   */\n      0x00\n        /* \"#utility.yul\":10909:10921   */\n      revert\n        /* \"#utility.yul\":10861:10923   */\n    tag_420:\n        /* \"#utility.yul\":10809:10929   */\n      pop\n      jump\t// out\n        /* \"#utility.yul\":10935:11076   */\n    tag_286:\n        /* \"#utility.yul\":10991:10996   */\n      0x00\n        /* \"#utility.yul\":11022:11028   */\n      dup2\n        /* \"#utility.yul\":11016:11029   */\n      mload\n        /* \"#utility.yul\":11007:11029   */\n      swap1\n      pop\n        /* \"#utility.yul\":11038:11070   */\n      tag_422\n        /* \"#utility.yul\":11064:11069   */\n      dup2\n        /* \"#utility.yul\":11038:11070   */\n      tag_285\n      jump\t// in\n    tag_422:\n        /* \"#utility.yul\":10935:11076   */\n      swap3\n      swap2\n      pop\n      pop\n      jump\t// out\n        /* \"#utility.yul\":11082:11158   */\n    tag_287:\n        /* \"#utility.yul\":11118:11125   */\n      0x00\n        /* \"#utility.yul\":11147:11152   */\n      dup2\n        /* \"#utility.yul\":11136:11152   */\n      swap1\n      pop\n        /* \"#utility.yul\":11082:11158   */\n      swap2\n      swap1\n      pop\n      jump\t// out\n        /* \"#utility.yul\":11164:11284   */\n    tag_288:\n        /* \"#utility.yul\":11236:11259   */\n      tag_425\n        /* \"#utility.yul\":11253:11258   */\n      dup2\n        /* \"#utility.yul\":11236:11259   */\n      tag_287\n      jump\t// in\n    tag_425:\n        /* \"#utility.yul\":11229:11234   */\n      dup2\n        /* \"#utility.yul\":11226:11260   */\n      eq\n        /* \"#utility.yul\":11216:11278   */\n      tag_426\n      jumpi\n        /* \"#utility.yul\":11274:11275   */\n      0x00\n        /* \"#utility.yul\":11271:11272   */\n      0x00\n        /* \"#utility.yul\":11264:11276   */\n      revert\n        /* \"#utility.yul\":11216:11278   */\n    tag_426:\n        /* \"#utility.yul\":11164:11284   */\n      pop\n      jump\t// out\n        /* \"#utility.yul\":11290:11431   */\n    tag_289:\n        /* \"#utility.yul\":11346:11351   */\n      0x00\n        /* \"#utility.yul\":11377:11383   */\n      dup2\n        /* \"#utility.yul\":11371:11384   */\n      mload\n        /* \"#utility.yul\":11362:11384   */\n      swap1\n      pop\n        /* \"#utility.yul\":11393:11425   */\n      tag_428\n        /* \"#utility.yul\":11419:11424   */\n      dup2\n        /* \"#utility.yul\":11393:11425   */\n      tag_288\n      jump\t// in\n    tag_428:\n        /* \"#utility.yul\":11290:11431   */\n      swap3\n      swap2\n      pop\n      pop\n      jump\t// out\n        /* \"#utility.yul\":11437:11580   */\n    tag_290:\n        /* \"#utility.yul\":11494:11499   */\n      0x00\n        /* \"#utility.yul\":11525:11531   */\n      dup2\n        /* \"#utility.yul\":11519:11532   */\n      mload\n        /* \"#utility.yul\":11510:11532   */\n      swap1\n      pop\n        /* \"#utility.yul\":11541:11574   */\n      tag_430\n        /* \"#utility.yul\":11568:11573   */\n      dup2\n        /* \"#utility.yul\":11541:11574   */\n      tag_265\n      jump\t// in\n    tag_430:\n        /* \"#utility.yul\":11437:11580   */\n      swap3\n      swap2\n      pop\n      pop\n      jump\t// out\n        /* \"#utility.yul\":11586:12557   */\n    tag_211:\n        /* \"#utility.yul\":11689:11695   */\n      0x00\n        /* \"#utility.yul\":11697:11703   */\n      0x00\n        /* \"#utility.yul\":11705:11711   */\n      0x00\n        /* \"#utility.yul\":11713:11719   */\n      0x00\n        /* \"#utility.yul\":11721:11727   */\n      0x00\n        /* \"#utility.yul\":11770:11773   */\n      0xa0\n        /* \"#utility.yul\":11758:11767   */\n      dup7\n        /* \"#utility.yul\":11749:11756   */\n      dup9\n        /* \"#utility.yul\":11745:11768   */\n      sub\n        /* \"#utility.yul\":11741:11774   */\n      slt\n        /* \"#utility.yul\":11738:11858   */\n      iszero\n      tag_432\n      jumpi\n        /* \"#utility.yul\":11777:11856   */\n      tag_433\n      tag_256\n      jump\t// in\n    tag_433:\n        /* \"#utility.yul\":11738:11858   */\n    tag_432:\n        /* \"#utility.yul\":11897:11898   */\n      0x00\n        /* \"#utility.yul\":11922:11985   */\n      tag_434\n        /* \"#utility.yul\":11977:11984   */\n      dup9\n        /* \"#utility.yul\":11968:11974   */\n      dup3\n        /* \"#utility.yul\":11957:11966   */\n      dup10\n        /* \"#utility.yul\":11953:11975   */\n      add\n        /* \"#utility.yul\":11922:11985   */\n      tag_286\n      jump\t// in\n    tag_434:\n        /* \"#utility.yul\":11912:11985   */\n      swap6\n      pop\n        /* \"#utility.yul\":11868:11995   */\n      pop\n        /* \"#utility.yul\":12034:12036   */\n      0x20\n        /* \"#utility.yul\":12060:12123   */\n      tag_435\n        /* \"#utility.yul\":12115:12122   */\n      dup9\n        /* \"#utility.yul\":12106:12112   */\n      dup3\n        /* \"#utility.yul\":12095:12104   */\n      dup10\n        /* \"#utility.yul\":12091:12113   */\n      add\n        /* \"#utility.yul\":12060:12123   */\n      tag_289\n      jump\t// in\n    tag_435:\n        /* \"#utility.yul\":12050:12123   */\n      swap5\n      pop\n        /* \"#utility.yul\":12005:12133   */\n      pop\n        /* \"#utility.yul\":12172:12174   */\n      0x40\n        /* \"#utility.yul\":12198:12262   */\n      tag_436\n        /* \"#utility.yul\":12254:12261   */\n      dup9\n        /* \"#utility.yul\":12245:12251   */\n      dup3\n        /* \"#utility.yul\":12234:12243   */\n      dup10\n        /* \"#utility.yul\":12230:12252   */\n      add\n        /* \"#utility.yul\":12198:12262   */\n      tag_290\n      jump\t// in\n    tag_436:\n        /* \"#utility.yul\":12188:12262   */\n      swap4\n      pop\n        /* \"#utility.yul\":12143:12272   */\n      pop\n        /* \"#utility.yul\":12311:12313   */\n      0x60\n        /* \"#utility.yul\":12337:12401   */\n      tag_437\n        /* \"#utility.yul\":12393:12400   */\n      dup9\n        /* \"#utility.yul\":12384:12390   */\n      dup3\n        /* \"#utility.yul\":12373:12382   */\n      dup10\n        /* \"#utility.yul\":12369:12391   */\n      add\n        /* \"#utility.yul\":12337:12401   */\n      tag_290\n      jump\t// in\n    tag_437:\n        /* \"#utility.yul\":12327:12401   */\n      swap3\n      pop\n        /* \"#utility.yul\":12282:12411   */\n      pop\n        /* \"#utility.yul\":12450:12453   */\n      0x80\n        /* \"#utility.yul\":12477:12540   */\n      tag_438\n        /* \"#utility.yul\":12532:12539   */\n      dup9\n        /* \"#utility.yul\":12523:12529   */\n      dup3\n        /* \"#utility.yul\":12512:12521   */\n      dup10\n        /* \"#utility.yul\":12508:12530   */\n      add\n        /* \"#utility.yul\":12477:12540   */\n      tag_286\n      jump\t// in\n    tag_438:\n        /* \"#utility.yul\":12467:12540   */\n      swap2\n      pop\n        /* \"#utility.yul\":12421:12550   */\n      pop\n        /* \"#utility.yul\":11586:12557   */\n      swap3\n      swap6\n      pop\n      swap3\n      swap6\n      swap1\n      swap4\n      pop\n      jump\t// out\n        /* \"#utility.yul\":12563:12681   */\n    tag_291:\n        /* \"#utility.yul\":12634:12656   */\n      tag_440\n        /* \"#utility.yul\":12650:12655   */\n      dup2\n        /* \"#utility.yul\":12634:12656   */\n      tag_272\n      jump\t// in\n    tag_440:\n        /* \"#utility.yul\":12627:12632   */\n      dup2\n        /* \"#utility.yul\":12624:12657   */\n      eq\n        /* \"#utility.yul\":12614:12675   */\n      tag_441\n      jumpi\n        /* \"#utility.yul\":12671:12672   */\n      0x00\n        /* \"#utility.yul\":12668:12669   */\n      0x00\n        /* \"#utility.yul\":12661:12673   */\n      revert\n        /* \"#utility.yul\":12614:12675   */\n    tag_441:\n        /* \"#utility.yul\":12563:12681   */\n      pop\n      jump\t// out\n        /* \"#utility.yul\":12687:12826   */\n    tag_292:\n        /* \"#utility.yul\":12742:12747   */\n      0x00\n        /* \"#utility.yul\":12773:12779   */\n      dup2\n        /* \"#utility.yul\":12767:12780   */\n      mload\n        /* \"#utility.yul\":12758:12780   */\n      swap1\n      pop\n        /* \"#utility.yul\":12789:12820   */\n      tag_443\n        /* \"#utility.yul\":12814:12819   */\n      dup2\n        /* \"#utility.yul\":12789:12820   */\n      tag_291\n      jump\t// in\n    tag_443:\n        /* \"#utility.yul\":12687:12826   */\n      swap3\n      swap2\n      pop\n      pop\n      jump\t// out\n        /* \"#utility.yul\":12832:13179   */\n    tag_215:\n        /* \"#utility.yul\":12900:12906   */\n      0x00\n        /* \"#utility.yul\":12949:12951   */\n      0x20\n        /* \"#utility.yul\":12937:12946   */\n      dup3\n        /* \"#utility.yul\":12928:12935   */\n      dup5\n        /* \"#utility.yul\":12924:12947   */\n      sub\n        /* \"#utility.yul\":12920:12952   */\n      slt\n        /* \"#utility.yul\":12917:13036   */\n      iszero\n      tag_445\n      jumpi\n        /* \"#utility.yul\":12955:13034   */\n      tag_446\n      tag_256\n      jump\t// in\n    tag_446:\n        /* \"#utility.yul\":12917:13036   */\n    tag_445:\n        /* \"#utility.yul\":13075:13076   */\n      0x00\n        /* \"#utility.yul\":13100:13162   */\n      tag_447\n        /* \"#utility.yul\":13154:13161   */\n      dup5\n        /* \"#utility.yul\":13145:13151   */\n      dup3\n        /* \"#utility.yul\":13134:13143   */\n      dup6\n        /* \"#utility.yul\":13130:13152   */\n      add\n        /* \"#utility.yul\":13100:13162   */\n      tag_292\n      jump\t// in\n    tag_447:\n        /* \"#utility.yul\":13090:13162   */\n      swap2\n      pop\n        /* \"#utility.yul\":13046:13172   */\n      pop\n        /* \"#utility.yul\":12832:13179   */\n      swap3\n      swap2\n      pop\n      pop\n      jump\t// out\n        /* \"#utility.yul\":13185:13300   */\n    tag_293:\n        /* \"#utility.yul\":13270:13293   */\n      tag_449\n        /* \"#utility.yul\":13287:13292   */\n      dup2\n        /* \"#utility.yul\":13270:13293   */\n      tag_284\n      jump\t// in\n    tag_449:\n        /* \"#utility.yul\":13265:13268   */\n      dup3\n        /* \"#utility.yul\":13258:13294   */\n      mstore\n        /* \"#utility.yul\":13185:13300   */\n      pop\n      pop\n      jump\t// out\n        /* \"#utility.yul\":13306:13740   */\n    tag_218:\n        /* \"#utility.yul\":13451:13455   */\n      0x00\n        /* \"#utility.yul\":13489:13491   */\n      0x60\n        /* \"#utility.yul\":13478:13487   */\n      dup3\n        /* \"#utility.yul\":13474:13492   */\n      add\n        /* \"#utility.yul\":13466:13492   */\n      swap1\n      pop\n        /* \"#utility.yul\":13502:13571   */\n      tag_451\n        /* \"#utility.yul\":13568:13569   */\n      0x00\n        /* \"#utility.yul\":13557:13566   */\n      dup4\n        /* \"#utility.yul\":13553:13570   */\n      add\n        /* \"#utility.yul\":13544:13550   */\n      dup7\n        /* \"#utility.yul\":13502:13571   */\n      tag_293\n      jump\t// in\n    tag_451:\n        /* \"#utility.yul\":13581:13653   */\n      tag_452\n        /* \"#utility.yul\":13649:13651   */\n      0x20\n        /* \"#utility.yul\":13638:13647   */\n      dup4\n        /* \"#utility.yul\":13634:13652   */\n      add\n        /* \"#utility.yul\":13625:13631   */\n      dup6\n        /* \"#utility.yul\":13581:13653   */\n      tag_263\n      jump\t// in\n    tag_452:\n        /* \"#utility.yul\":13663:13733   */\n      tag_453\n        /* \"#utility.yul\":13729:13731   */\n      0x40\n        /* \"#utility.yul\":13718:13727   */\n      dup4\n        /* \"#utility.yul\":13714:13732   */\n      add\n        /* \"#utility.yul\":13705:13711   */\n      dup5\n        /* \"#utility.yul\":13663:13733   */\n      tag_293\n      jump\t// in\n    tag_453:\n        /* \"#utility.yul\":13306:13740   */\n      swap5\n      swap4\n      pop\n      pop\n      pop\n      pop\n      jump\t// out\n        /* \"#utility.yul\":13746:14156   */\n    tag_232:\n        /* \"#utility.yul\":13786:13793   */\n      0x00\n        /* \"#utility.yul\":13809:13829   */\n      tag_455\n        /* \"#utility.yul\":13827:13828   */\n      dup3\n        /* \"#utility.yul\":13809:13829   */\n      tag_262\n      jump\t// in\n    tag_455:\n        /* \"#utility.yul\":13804:13829   */\n      swap2\n      pop\n        /* \"#utility.yul\":13843:13863   */\n      tag_456\n        /* \"#utility.yul\":13861:13862   */\n      dup4\n        /* \"#utility.yul\":13843:13863   */\n      tag_262\n      jump\t// in\n    tag_456:\n        /* \"#utility.yul\":13838:13863   */\n      swap3\n      pop\n        /* \"#utility.yul\":13898:13899   */\n      dup3\n        /* \"#utility.yul\":13895:13896   */\n      dup3\n        /* \"#utility.yul\":13891:13900   */\n      mul\n        /* \"#utility.yul\":13920:13950   */\n      tag_457\n        /* \"#utility.yul\":13938:13949   */\n      dup2\n        /* \"#utility.yul\":13920:13950   */\n      tag_262\n      jump\t// in\n    tag_457:\n        /* \"#utility.yul\":13909:13950   */\n      swap2\n      pop\n        /* \"#utility.yul\":14099:14100   */\n      dup3\n        /* \"#utility.yul\":14090:14097   */\n      dup3\n        /* \"#utility.yul\":14086:14101   */\n      div\n        /* \"#utility.yul\":14083:14084   */\n      dup5\n        /* \"#utility.yul\":14080:14102   */\n      eq\n        /* \"#utility.yul\":14060:14061   */\n      dup4\n        /* \"#utility.yul\":14053:14062   */\n      iszero\n        /* \"#utility.yul\":14033:14116   */\n      or\n        /* \"#utility.yul\":14010:14149   */\n      tag_458\n      jumpi\n        /* \"#utility.yul\":14129:14147   */\n      tag_459\n      tag_280\n      jump\t// in\n    tag_459:\n        /* \"#utility.yul\":14010:14149   */\n    tag_458:\n        /* \"#utility.yul\":13794:14156   */\n      pop\n        /* \"#utility.yul\":13746:14156   */\n      swap3\n      swap2\n      pop\n      pop\n      jump\t// out\n        /* \"#utility.yul\":14162:14350   */\n    tag_234:\n        /* \"#utility.yul\":14200:14203   */\n      0x00\n        /* \"#utility.yul\":14219:14237   */\n      tag_461\n        /* \"#utility.yul\":14235:14236   */\n      dup3\n        /* \"#utility.yul\":14219:14237   */\n      tag_272\n      jump\t// in\n    tag_461:\n        /* \"#utility.yul\":14214:14237   */\n      swap2\n      pop\n        /* \"#utility.yul\":14251:14269   */\n      tag_462\n        /* \"#utility.yul\":14267:14268   */\n      dup4\n        /* \"#utility.yul\":14251:14269   */\n      tag_272\n      jump\t// in\n    tag_462:\n        /* \"#utility.yul\":14246:14269   */\n      swap3\n      pop\n        /* \"#utility.yul\":14292:14293   */\n      dup3\n        /* \"#utility.yul\":14289:14290   */\n      dup3\n        /* \"#utility.yul\":14285:14294   */\n      add\n        /* \"#utility.yul\":14278:14294   */\n      swap1\n      pop\n        /* \"#utility.yul\":14315:14319   */\n      0xff\n        /* \"#utility.yul\":14310:14313   */\n      dup2\n        /* \"#utility.yul\":14307:14320   */\n      gt\n        /* \"#utility.yul\":14304:14343   */\n      iszero\n      tag_463\n      jumpi\n        /* \"#utility.yul\":14323:14341   */\n      tag_464\n      tag_280\n      jump\t// in\n    tag_464:\n        /* \"#utility.yul\":14304:14343   */\n    tag_463:\n        /* \"#utility.yul\":14162:14350   */\n      swap3\n      swap2\n      pop\n      pop\n      jump\t// out\n        /* \"#utility.yul\":14356:14547   */\n    tag_238:\n        /* \"#utility.yul\":14394:14398   */\n      0x00\n        /* \"#utility.yul\":14414:14432   */\n      tag_466\n        /* \"#utility.yul\":14430:14431   */\n      dup3\n        /* \"#utility.yul\":14414:14432   */\n      tag_272\n      jump\t// in\n    tag_466:\n        /* \"#utility.yul\":14409:14432   */\n      swap2\n      pop\n        /* \"#utility.yul\":14446:14464   */\n      tag_467\n        /* \"#utility.yul\":14462:14463   */\n      dup4\n        /* \"#utility.yul\":14446:14464   */\n      tag_272\n      jump\t// in\n    tag_467:\n        /* \"#utility.yul\":14441:14464   */\n      swap3\n      pop\n        /* \"#utility.yul\":14488:14489   */\n      dup3\n        /* \"#utility.yul\":14485:14486   */\n      dup3\n        /* \"#utility.yul\":14481:14490   */\n      sub\n        /* \"#utility.yul\":14473:14490   */\n      swap1\n      pop\n        /* \"#utility.yul\":14512:14516   */\n      0xff\n        /* \"#utility.yul\":14506:14510   */\n      dup2\n        /* \"#utility.yul\":14503:14517   */\n      gt\n        /* \"#utility.yul\":14500:14540   */\n      iszero\n      tag_468\n      jumpi\n        /* \"#utility.yul\":14520:14538   */\n      tag_469\n      tag_280\n      jump\t// in\n    tag_469:\n        /* \"#utility.yul\":14500:14540   */\n    tag_468:\n        /* \"#utility.yul\":14356:14547   */\n      swap3\n      swap2\n      pop\n      pop\n      jump\t// out\n        /* \"#utility.yul\":14553:14655   */\n    tag_294:\n        /* \"#utility.yul\":14595:14603   */\n      0x00\n        /* \"#utility.yul\":14642:14647   */\n      dup2\n        /* \"#utility.yul\":14639:14640   */\n      0x01\n        /* \"#utility.yul\":14635:14648   */\n      shr\n        /* \"#utility.yul\":14614:14648   */\n      swap1\n      pop\n        /* \"#utility.yul\":14553:14655   */\n      swap2\n      swap1\n      pop\n      jump\t// out\n        /* \"#utility.yul\":14661:15509   */\n    tag_295:\n        /* \"#utility.yul\":14722:14727   */\n      0x00\n        /* \"#utility.yul\":14729:14733   */\n      0x00\n        /* \"#utility.yul\":14753:14759   */\n      dup3\n        /* \"#utility.yul\":14744:14759   */\n      swap2\n      pop\n        /* \"#utility.yul\":14777:14782   */\n      dup4\n        /* \"#utility.yul\":14768:14782   */\n      swap1\n      pop\n        /* \"#utility.yul\":14791:15503   */\n    tag_472:\n        /* \"#utility.yul\":14812:14813   */\n      0x01\n        /* \"#utility.yul\":14802:14810   */\n      dup6\n        /* \"#utility.yul\":14799:14814   */\n      gt\n        /* \"#utility.yul\":14791:15503   */\n      iszero\n      tag_474\n      jumpi\n        /* \"#utility.yul\":14907:14911   */\n      dup1\n        /* \"#utility.yul\":14902:14905   */\n      dup7\n        /* \"#utility.yul\":14898:14912   */\n      div\n        /* \"#utility.yul\":14892:14896   */\n      dup2\n        /* \"#utility.yul\":14889:14913   */\n      gt\n        /* \"#utility.yul\":14886:14936   */\n      iszero\n      tag_475\n      jumpi\n        /* \"#utility.yul\":14916:14934   */\n      tag_476\n      tag_280\n      jump\t// in\n    tag_476:\n        /* \"#utility.yul\":14886:14936   */\n    tag_475:\n        /* \"#utility.yul\":14966:14967   */\n      0x01\n        /* \"#utility.yul\":14956:14964   */\n      dup6\n        /* \"#utility.yul\":14952:14968   */\n      and\n        /* \"#utility.yul\":14949:15400   */\n      iszero\n      tag_477\n      jumpi\n        /* \"#utility.yul\":15381:15385   */\n      dup1\n        /* \"#utility.yul\":15374:15379   */\n      dup3\n        /* \"#utility.yul\":15370:15386   */\n      mul\n        /* \"#utility.yul\":15361:15386   */\n      swap2\n      pop\n        /* \"#utility.yul\":14949:15400   */\n    tag_477:\n        /* \"#utility.yul\":15431:15435   */\n      dup1\n        /* \"#utility.yul\":15425:15429   */\n      dup2\n        /* \"#utility.yul\":15421:15436   */\n      mul\n        /* \"#utility.yul\":15413:15436   */\n      swap1\n      pop\n        /* \"#utility.yul\":15461:15493   */\n      tag_478\n        /* \"#utility.yul\":15484:15492   */\n      dup6\n        /* \"#utility.yul\":15461:15493   */\n      tag_294\n      jump\t// in\n    tag_478:\n        /* \"#utility.yul\":15449:15493   */\n      swap5\n      pop\n        /* \"#utility.yul\":14791:15503   */\n      jump(tag_472)\n    tag_474:\n        /* \"#utility.yul\":14661:15509   */\n      swap5\n      pop\n      swap5\n      swap3\n      pop\n      pop\n      pop\n      jump\t// out\n        /* \"#utility.yul\":15515:16588   */\n    tag_296:\n        /* \"#utility.yul\":15569:15574   */\n      0x00\n        /* \"#utility.yul\":15760:15768   */\n      dup3\n        /* \"#utility.yul\":15750:15790   */\n      tag_480\n      jumpi\n        /* \"#utility.yul\":15781:15782   */\n      0x01\n        /* \"#utility.yul\":15772:15782   */\n      swap1\n      pop\n        /* \"#utility.yul\":15783:15788   */\n      jump(tag_479)\n        /* \"#utility.yul\":15750:15790   */\n    tag_480:\n        /* \"#utility.yul\":15809:15813   */\n      dup2\n        /* \"#utility.yul\":15799:15835   */\n      tag_481\n      jumpi\n        /* \"#utility.yul\":15826:15827   */\n      0x00\n        /* \"#utility.yul\":15817:15827   */\n      swap1\n      pop\n        /* \"#utility.yul\":15828:15833   */\n      jump(tag_479)\n        /* \"#utility.yul\":15799:15835   */\n    tag_481:\n        /* \"#utility.yul\":15895:15899   */\n      dup2\n        /* \"#utility.yul\":15943:15944   */\n      0x01\n        /* \"#utility.yul\":15938:15965   */\n      dup2\n      eq\n      tag_483\n      jumpi\n        /* \"#utility.yul\":15979:15980   */\n      0x02\n        /* \"#utility.yul\":15974:16165   */\n      dup2\n      eq\n      tag_484\n      jumpi\n        /* \"#utility.yul\":15888:16165   */\n      jump(tag_482)\n        /* \"#utility.yul\":15938:15965   */\n    tag_483:\n        /* \"#utility.yul\":15956:15957   */\n      0x01\n        /* \"#utility.yul\":15947:15957   */\n      swap2\n      pop\n        /* \"#utility.yul\":15958:15963   */\n      pop\n      jump(tag_479)\n        /* \"#utility.yul\":15974:16165   */\n    tag_484:\n        /* \"#utility.yul\":16019:16022   */\n      0xff\n        /* \"#utility.yul\":16009:16017   */\n      dup5\n        /* \"#utility.yul\":16006:16023   */\n      gt\n        /* \"#utility.yul\":16003:16046   */\n      iszero\n      tag_485\n      jumpi\n        /* \"#utility.yul\":16026:16044   */\n      tag_486\n      tag_280\n      jump\t// in\n    tag_486:\n        /* \"#utility.yul\":16003:16046   */\n    tag_485:\n        /* \"#utility.yul\":16075:16083   */\n      dup4\n        /* \"#utility.yul\":16072:16073   */\n      0x02\n        /* \"#utility.yul\":16068:16084   */\n      exp\n        /* \"#utility.yul\":16059:16084   */\n      swap2\n      pop\n        /* \"#utility.yul\":16110:16113   */\n      dup5\n        /* \"#utility.yul\":16103:16108   */\n      dup3\n        /* \"#utility.yul\":16100:16114   */\n      gt\n        /* \"#utility.yul\":16097:16137   */\n      iszero\n      tag_487\n      jumpi\n        /* \"#utility.yul\":16117:16135   */\n      tag_488\n      tag_280\n      jump\t// in\n    tag_488:\n        /* \"#utility.yul\":16097:16137   */\n    tag_487:\n        /* \"#utility.yul\":16150:16155   */\n      pop\n      jump(tag_479)\n        /* \"#utility.yul\":15888:16165   */\n    tag_482:\n      pop\n        /* \"#utility.yul\":16274:16276   */\n      0x20\n        /* \"#utility.yul\":16264:16272   */\n      dup4\n        /* \"#utility.yul\":16261:16277   */\n      lt\n        /* \"#utility.yul\":16255:16258   */\n      0x0133\n        /* \"#utility.yul\":16249:16253   */\n      dup4\n        /* \"#utility.yul\":16246:16259   */\n      lt\n        /* \"#utility.yul\":16242:16278   */\n      and\n        /* \"#utility.yul\":16224:16226   */\n      0x4e\n        /* \"#utility.yul\":16214:16222   */\n      dup5\n        /* \"#utility.yul\":16211:16227   */\n      lt\n        /* \"#utility.yul\":16206:16208   */\n      0x0b\n        /* \"#utility.yul\":16200:16204   */\n      dup5\n        /* \"#utility.yul\":16197:16209   */\n      lt\n        /* \"#utility.yul\":16193:16228   */\n      and\n        /* \"#utility.yul\":16177:16288   */\n      or\n        /* \"#utility.yul\":16174:16420   */\n      iszero\n      tag_489\n      jumpi\n        /* \"#utility.yul\":16330:16338   */\n      dup3\n        /* \"#utility.yul\":16324:16328   */\n      dup3\n        /* \"#utility.yul\":16320:16339   */\n      exp\n        /* \"#utility.yul\":16311:16339   */\n      swap1\n      pop\n        /* \"#utility.yul\":16365:16368   */\n      dup4\n        /* \"#utility.yul\":16358:16363   */\n      dup2\n        /* \"#utility.yul\":16355:16369   */\n      gt\n        /* \"#utility.yul\":16352:16392   */\n      iszero\n      tag_490\n      jumpi\n        /* \"#utility.yul\":16372:16390   */\n      tag_491\n      tag_280\n      jump\t// in\n    tag_491:\n        /* \"#utility.yul\":16352:16392   */\n    tag_490:\n        /* \"#utility.yul\":16405:16410   */\n      jump(tag_479)\n        /* \"#utility.yul\":16174:16420   */\n    tag_489:\n        /* \"#utility.yul\":16445:16487   */\n      tag_492\n        /* \"#utility.yul\":16483:16486   */\n      dup5\n        /* \"#utility.yul\":16473:16481   */\n      dup5\n        /* \"#utility.yul\":16467:16471   */\n      dup5\n        /* \"#utility.yul\":16464:16465   */\n      0x01\n        /* \"#utility.yul\":16445:16487   */\n      tag_295\n      jump\t// in\n    tag_492:\n        /* \"#utility.yul\":16430:16487   */\n      swap3\n      pop\n      swap1\n      pop\n        /* \"#utility.yul\":16519:16523   */\n      dup2\n        /* \"#utility.yul\":16514:16517   */\n      dup5\n        /* \"#utility.yul\":16510:16524   */\n      div\n        /* \"#utility.yul\":16503:16508   */\n      dup2\n        /* \"#utility.yul\":16500:16525   */\n      gt\n        /* \"#utility.yul\":16497:16548   */\n      iszero\n      tag_493\n      jumpi\n        /* \"#utility.yul\":16528:16546   */\n      tag_494\n      tag_280\n      jump\t// in\n    tag_494:\n        /* \"#utility.yul\":16497:16548   */\n    tag_493:\n        /* \"#utility.yul\":16577:16581   */\n      dup2\n        /* \"#utility.yul\":16570:16575   */\n      dup2\n        /* \"#utility.yul\":16566:16582   */\n      mul\n        /* \"#utility.yul\":16557:16582   */\n      swap1\n      pop\n        /* \"#utility.yul\":15515:16588   */\n    tag_479:\n      swap4\n      swap3\n      pop\n      pop\n      pop\n      jump\t// out\n        /* \"#utility.yul\":16594:16879   */\n    tag_240:\n        /* \"#utility.yul\":16654:16659   */\n      0x00\n        /* \"#utility.yul\":16678:16701   */\n      tag_496\n        /* \"#utility.yul\":16696:16700   */\n      dup3\n        /* \"#utility.yul\":16678:16701   */\n      tag_262\n      jump\t// in\n    tag_496:\n        /* \"#utility.yul\":16670:16701   */\n      swap2\n      pop\n        /* \"#utility.yul\":16722:16749   */\n      tag_497\n        /* \"#utility.yul\":16740:16748   */\n      dup4\n        /* \"#utility.yul\":16722:16749   */\n      tag_262\n      jump\t// in\n    tag_497:\n        /* \"#utility.yul\":16710:16749   */\n      swap3\n      pop\n        /* \"#utility.yul\":16768:16872   */\n      tag_498\n        /* \"#utility.yul\":16805:16871   */\n      0xffffffffffffffffffffffffffffffffffffffffffffffffffffffffffffffff\n        /* \"#utility.yul\":16795:16803   */\n      dup5\n        /* \"#utility.yul\":16789:16793   */\n      dup5\n        /* \"#utility.yul\":16768:16872   */\n      tag_296\n      jump\t// in\n    tag_498:\n        /* \"#utility.yul\":16759:16872   */\n      swap1\n      pop\n        /* \"#utility.yul\":16594:16879   */\n      swap3\n      swap2\n      pop\n      pop\n      jump\t// out\n        /* \"#utility.yul\":16885:17065   */\n    tag_297:\n        /* \"#utility.yul\":16933:17010   */\n      0x4e487b7100000000000000000000000000000000000000000000000000000000\n        /* \"#utility.yul\":16930:16931   */\n      0x00\n        /* \"#utility.yul\":16923:17011   */\n      mstore\n        /* \"#utility.yul\":17030:17034   */\n      0x12\n        /* \"#utility.yul\":17027:17028   */\n      0x04\n        /* \"#utility.yul\":17020:17035   */\n      mstore\n        /* \"#utility.yul\":17054:17058   */\n      0x24\n        /* \"#utility.yul\":17051:17052   */\n      0x00\n        /* \"#utility.yul\":17044:17059   */\n      revert\n        /* \"#utility.yul\":17071:17256   */\n    tag_242:\n        /* \"#utility.yul\":17111:17112   */\n      0x00\n        /* \"#utility.yul\":17128:17148   */\n      tag_501\n        /* \"#utility.yul\":17146:17147   */\n      dup3\n        /* \"#utility.yul\":17128:17148   */\n      tag_262\n      jump\t// in\n    tag_501:\n        /* \"#utility.yul\":17123:17148   */\n      swap2\n      pop\n        /* \"#utility.yul\":17162:17182   */\n      tag_502\n        /* \"#utility.yul\":17180:17181   */\n      dup4\n        /* \"#utility.yul\":17162:17182   */\n      tag_262\n      jump\t// in\n    tag_502:\n        /* \"#utility.yul\":17157:17182   */\n      swap3\n      pop\n        /* \"#utility.yul\":17201:17202   */\n      dup3\n        /* \"#utility.yul\":17191:17226   */\n      tag_503\n      jumpi\n        /* \"#utility.yul\":17206:17224   */\n      tag_504\n      tag_297\n      jump\t// in\n    tag_504:\n        /* \"#utility.yul\":17191:17226   */\n    tag_503:\n        /* \"#utility.yul\":17248:17249   */\n      dup3\n        /* \"#utility.yul\":17245:17246   */\n      dup3\n        /* \"#utility.yul\":17241:17250   */\n      div\n        /* \"#utility.yul\":17236:17250   */\n      swap1\n      pop\n        /* \"#utility.yul\":17071:17256   */\n      swap3\n      swap2\n      pop\n      pop\n      jump\t// out\n\n    auxdata: 0xa26469706673582212204c76a4c31eed04ba2c0246b57215546081ecb75c0a443a8a8f86880f354d723b64736f6c634300081e0033\n}\n",
				"bytecode": {
					"linkReferences": {},
					"object": "60e060405234801561000f575f5ffd5b5060405161270c38038061270c833981810160405281019061003191906101c7565b5f83148061003e57505f82145b8061007457505f73ffffffffffffffffffffffffffffffffffffffff168173ffffffffffffffffffffffffffffffffffffffff16145b156100ab576040517f1510b77f00000000000000000000000000000000000000000000000000000000815260040160405180910390fd5b335f5f6101000a81548173ffffffffffffffffffffffffffffffffffffffff021916908373ffffffffffffffffffffffffffffffffffffffff16021790555082608081815250508160a081815250508073ffffffffffffffffffffffffffffffffffffffff1660c08173ffffffffffffffffffffffffffffffffffffffff1681525050505050610217565b5f5ffd5b5f819050919050565b61014c8161013a565b8114610156575f5ffd5b50565b5f8151905061016781610143565b92915050565b5f73ffffffffffffffffffffffffffffffffffffffff82169050919050565b5f6101968261016d565b9050919050565b6101a68161018c565b81146101b0575f5ffd5b50565b5f815190506101c18161019d565b92915050565b5f5f5f606084860312156101de576101dd610136565b5b5f6101eb86828701610159565b93505060206101fc86828701610159565b925050604061020d868287016101b3565b9150509250925092565b60805160a05160c05161248c6102805f395f8181610f850152611ad501525f8181610d3c01528181610d6501528181610faf0152818161113f015261116801525f81816109c801528181610a7d01528181610f56015281816113e90152611422015261248c5ff3fe6080604052600436106100f6575f3560e01c8063b7b0ffd811610089578063e243df2011610058578063e243df201461035b578063f14210a614610385578063f6326fb3146103ad578063f7888aec146103b757610155565b8063b7b0ffd8146102b3578063be406e6c146102dd578063c1636bc914610307578063d63438671461033157610155565b806397feb926116100c557806397feb926146101fd5780639dcb511a14610225578063a1db978214610261578063ac4543ba1461028957610155565b806313af403514610159578063503e70421461018157806376e11286146101ab5780638da5cb5b146101d357610155565b36610155573073ffffffffffffffffffffffffffffffffffffffff1663f6326fb3346040518263ffffffff1660e01b81526004015f604051808303818588803b158015610141575f5ffd5b505af1158015610153573d5f5f3e3d5ffd5b005b5f5ffd5b348015610164575f5ffd5b5061017f600480360381019061017a9190611b64565b6103f3565b005b34801561018c575f5ffd5b506101956105a7565b6040516101a29190611ba7565b60405180910390f35b3480156101b6575f5ffd5b506101d160048036038101906101cc9190611bc0565b6105ad565b005b3480156101de575f5ffd5b506101e761070b565b6040516101f49190611c0d565b60405180910390f35b348015610208575f5ffd5b50610223600480360381019061021e9190611c50565b61072f565b005b348015610230575f5ffd5b5061024b60048036038101906102469190611b64565b610b9e565b6040516102589190611ce9565b60405180910390f35b34801561026c575f5ffd5b5061028760048036038101906102829190611c50565b610bce565b005b348015610294575f5ffd5b5061029d610f54565b6040516102aa9190611ba7565b60405180910390f35b3480156102be575f5ffd5b506102c7610f78565b6040516102d49190611ba7565b60405180910390f35b3480156102e8575f5ffd5b506102f1610f7e565b6040516102fe9190611d1d565b60405180910390f35b348015610312575f5ffd5b5061031b610f83565b6040516103289190611ce9565b60405180910390f35b34801561033c575f5ffd5b50610345610fa7565b6040516103529190611ba7565b60405180910390f35b348015610366575f5ffd5b5061036f610fad565b60405161037c9190611ba7565b60405180910390f35b348015610390575f5ffd5b506103ab60048036038101906103a69190611d36565b610fd1565b005b6103b5611340565b005b3480156103c2575f5ffd5b506103dd60048036038101906103d89190611bc0565b61153f565b6040516103ea9190611ba7565b60405180910390f35b5f5f9054906101000a900473ffffffffffffffffffffffffffffffffffffffff1673ffffffffffffffffffffffffffffffffffffffff163373ffffffffffffffffffffffffffffffffffffffff1614610478576040517fcc12cef600000000000000000000000000000000000000000000000000000000815260040160405180910390fd5b5f73ffffffffffffffffffffffffffffffffffffffff168173ffffffffffffffffffffffffffffffffffffffff16036104e6576040517f08c379a00000000000000000000000000000000000000000000000000000000081526004016104dd90611dbb565b60405180910390fd5b5f5f5f9054906101000a900473ffffffffffffffffffffffffffffffffffffffff169050815f5f6101000a81548173ffffffffffffffffffffffffffffffffffffffff021916908373ffffffffffffffffffffffffffffffffffffffff1602179055508173ffffffffffffffffffffffffffffffffffffffff168173ffffffffffffffffffffffffffffffffffffffff167fb532073b38c83145e3e5135377a08bf9aab55bc0fd7c1179cd4fb995d2a5159c60405160405180910390a35050565b60055481565b5f5f9054906101000a900473ffffffffffffffffffffffffffffffffffffffff1673ffffffffffffffffffffffffffffffffffffffff163373ffffffffffffffffffffffffffffffffffffffff1614610632576040517fcc12cef600000000000000000000000000000000000000000000000000000000815260040160405180910390fd5b8060025f8473ffffffffffffffffffffffffffffffffffffffff1673ffffffffffffffffffffffffffffffffffffffff1681526020019081526020015f205f6101000a81548173ffffffffffffffffffffffffffffffffffffffff021916908373ffffffffffffffffffffffffffffffffffffffff1602179055508073ffffffffffffffffffffffffffffffffffffffff168273ffffffffffffffffffffffffffffffffffffffff167fd2d8394cf7549a5ddbc2ba3dd7b2de8d53c891472d1f2907008ed6a10045fdae60405160405180910390a35050565b5f5f9054906101000a900473ffffffffffffffffffffffffffffffffffffffff1681565b60065f9054906101000a900460ff1615610775576040517f5a919cd900000000000000000000000000000000000000000000000000000000815260040160405180910390fd5b600160065f6101000a81548160ff021916908315150217905550805f81036107c9576040517f608294ac00000000000000000000000000000000000000000000000000000000815260040160405180910390fd5b5f73ffffffffffffffffffffffffffffffffffffffff168373ffffffffffffffffffffffffffffffffffffffff160361082e576040517f608294ac00000000000000000000000000000000000000000000000000000000815260040160405180910390fd5b5f60025f8573ffffffffffffffffffffffffffffffffffffffff1673ffffffffffffffffffffffffffffffffffffffff1681526020019081526020015f205f9054906101000a900473ffffffffffffffffffffffffffffffffffffffff1690505f73ffffffffffffffffffffffffffffffffffffffff168173ffffffffffffffffffffffffffffffffffffffff16036108f3576040517fcc12cef600000000000000000000000000000000000000000000000000000000815260040160405180910390fd5b5f8473ffffffffffffffffffffffffffffffffffffffff166323b872dd3330876040518463ffffffff1660e01b815260040161093193929190611dd9565b6020604051808303815f875af115801561094d573d5f5f3e3d5ffd5b505050506040513d601f19601f820116820180604052508101906109719190611e43565b9050806109b9573385856040517f31e6e4e10000000000000000000000000000000000000000000000000000000081526004016109b093929190611dd9565b60405180910390fd5b5f6109c486866115c1565b90507f0000000000000000000000000000000000000000000000000000000000000000816003546109f59190611e9b565b1115610ada578573ffffffffffffffffffffffffffffffffffffffff1663a9059cbb33876040518363ffffffff1660e01b8152600401610a36929190611ece565b6020604051808303815f875af1158015610a52573d5f5f3e3d5ffd5b505050506040513d601f19601f82011682018060405250810190610a769190611e43565b50806003547f00000000000000000000000000000000000000000000000000000000000000006040517fcfe67498000000000000000000000000000000000000000000000000000000008152600401610ad193929190611ef5565b60405180910390fd5b610ae78633876001611911565b60045f815480929190610af990611f2a565b91905055508060035f828254610b0f9190611e9b565b925050819055508573ffffffffffffffffffffffffffffffffffffffff163373ffffffffffffffffffffffffffffffffffffffff167fdcbc1c05240f31ff3ad067ef1ee35ce4997762752e3a095284754544f4c709d78784604051610b75929190611f71565b60405180910390a3505050505f60065f6101000a81548160ff0219169083151502179055505050565b6002602052805f5260405f205f915054906101000a900473ffffffffffffffffffffffffffffffffffffffff1681565b60065f9054906101000a900460ff1615610c14576040517f5a919cd900000000000000000000000000000000000000000000000000000000815260040160405180910390fd5b600160065f6101000a81548160ff021916908315150217905550805f8103610c68576040517f608294ac00000000000000000000000000000000000000000000000000000000815260040160405180910390fd5b5f60015f8573ffffffffffffffffffffffffffffffffffffffff1673ffffffffffffffffffffffffffffffffffffffff1681526020019081526020015f205f3373ffffffffffffffffffffffffffffffffffffffff1673ffffffffffffffffffffffffffffffffffffffff1681526020019081526020015f2054905080831115610d2d578381846040517f483b38f2000000000000000000000000000000000000000000000000000000008152600401610d2493929190611f98565b60405180910390fd5b5f610d3885856115c1565b90507f0000000000000000000000000000000000000000000000000000000000000000811115610dc157807f00000000000000000000000000000000000000000000000000000000000000006040517f29963049000000000000000000000000000000000000000000000000000000008152600401610db8929190611f71565b60405180910390fd5b610dcd8533865f611911565b60055f815480929190610ddf90611f2a565b91905055506003548111610e005780600354610dfb9190611fcd565b610e02565b5f5b6003819055505f8573ffffffffffffffffffffffffffffffffffffffff1663a9059cbb33876040518363ffffffff1660e01b8152600401610e44929190611ece565b6020604051808303815f875af1158015610e60573d5f5f3e3d5ffd5b505050506040513d601f19601f82011682018060405250810190610e849190611e43565b905080610ecc573386866040517f31e6e4e1000000000000000000000000000000000000000000000000000000008152600401610ec393929190611dd9565b60405180910390fd5b8573ffffffffffffffffffffffffffffffffffffffff163373ffffffffffffffffffffffffffffffffffffffff167ff341246adaac6f497bc2a656f546ab9e182111d630394f0c57c710a59a2cb5678785604051610f2b929190611f71565b60405180910390a3505050505f60065f6101000a81548160ff0219169083151502179055505050565b7f000000000000000000000000000000000000000000000000000000000000000081565b60035481565b600681565b7f000000000000000000000000000000000000000000000000000000000000000081565b60045481565b7f000000000000000000000000000000000000000000000000000000000000000081565b60065f9054906101000a900460ff1615611017576040517f5a919cd900000000000000000000000000000000000000000000000000000000815260040160405180910390fd5b600160065f6101000a81548160ff021916908315150217905550805f810361106b576040517f608294ac00000000000000000000000000000000000000000000000000000000815260040160405180910390fd5b5f60015f5f73ffffffffffffffffffffffffffffffffffffffff1673ffffffffffffffffffffffffffffffffffffffff1681526020019081526020015f205f3373ffffffffffffffffffffffffffffffffffffffff1673ffffffffffffffffffffffffffffffffffffffff1681526020019081526020015f2054905080831115611130575f81846040517f483b38f200000000000000000000000000000000000000000000000000000000815260040161112793929190611f98565b60405180910390fd5b5f61113b5f856115c1565b90507f00000000000000000000000000000000000000000000000000000000000000008111156111c457807f00000000000000000000000000000000000000000000000000000000000000006040517f299630490000000000000000000000000000000000000000000000000000000081526004016111bb929190611f71565b60405180910390fd5b6111d05f33865f611911565b60055f8154809291906111e290611f2a565b9190505550600354811161120357806003546111fe9190611fcd565b611205565b5f5b6003819055505f3373ffffffffffffffffffffffffffffffffffffffff16856040516112309061202d565b5f6040518083038185875af1925050503d805f811461126a576040519150601f19603f3d011682016040523d82523d5f602084013e61126f565b606091505b50509050806112b957335f866040517f31e6e4e10000000000000000000000000000000000000000000000000000000081526004016112b093929190611dd9565b60405180910390fd5b5f73ffffffffffffffffffffffffffffffffffffffff163373ffffffffffffffffffffffffffffffffffffffff167ff341246adaac6f497bc2a656f546ab9e182111d630394f0c57c710a59a2cb5678785604051611318929190611f71565b60405180910390a3505050505f60065f6101000a81548160ff02191690831515021790555050565b60065f9054906101000a900460ff1615611386576040517f5a919cd900000000000000000000000000000000000000000000000000000000815260040160405180910390fd5b600160065f6101000a81548160ff021916908315150217905550345f81036113da576040517f608294ac00000000000000000000000000000000000000000000000000000000815260040160405180910390fd5b5f6113e55f346115c1565b90507f0000000000000000000000000000000000000000000000000000000000000000816003546114169190611e9b565b111561147f57806003547f00000000000000000000000000000000000000000000000000000000000000006040517fcfe6749800000000000000000000000000000000000000000000000000000000815260040161147693929190611ef5565b60405180910390fd5b61148c5f33346001611911565b60045f81548092919061149e90611f2a565b91905055508060035f8282546114b49190611e9b565b925050819055505f73ffffffffffffffffffffffffffffffffffffffff163373ffffffffffffffffffffffffffffffffffffffff167fdcbc1c05240f31ff3ad067ef1ee35ce4997762752e3a095284754544f4c709d7348460405161151a929190611f71565b60405180910390a350505f60065f6101000a81548160ff021916908315150217905550565b5f60015f8473ffffffffffffffffffffffffffffffffffffffff1673ffffffffffffffffffffffffffffffffffffffff1681526020019081526020015f205f8373ffffffffffffffffffffffffffffffffffffffff1673ffffffffffffffffffffffffffffffffffffffff1681526020019081526020015f2054905092915050565b5f5f6115cc84611a3f565b90505f5f5f5f8473ffffffffffffffffffffffffffffffffffffffff1663feaf968c6040518163ffffffff1660e01b815260040160a060405180830381865afa15801561161b573d5f5f3e3d5ffd5b505050506040513d601f19601f8201168201806040525081019061163f91906120c7565b9450945050935093505f8573ffffffffffffffffffffffffffffffffffffffff1663313ce5676040518163ffffffff1660e01b8152600401602060405180830381865afa158015611692573d5f5f3e3d5ffd5b505050506040513d601f19601f820116820180604052508101906116b69190612168565b90505f8413611700578483836040517f043344810000000000000000000000000000000000000000000000000000000081526004016116f7939291906121a2565b60405180910390fd5b5f8303611748578483836040517f0433448100000000000000000000000000000000000000000000000000000000815260040161173f939291906121a2565b60405180910390fd5b8469ffffffffffffffffffff168269ffffffffffffffffffff1610156117a9578483836040517f043344810000000000000000000000000000000000000000000000000000000081526004016117a0939291906121a2565b60405180910390fd5b5f601290505f73ffffffffffffffffffffffffffffffffffffffff168a73ffffffffffffffffffffffffffffffffffffffff161461185c578973ffffffffffffffffffffffffffffffffffffffff1663313ce5676040518163ffffffff1660e01b8152600401602060405180830381865afa92505050801561184957506040513d601f19601f820116820180604052508101906118469190612168565b60015b611856576012905061185b565b809150505b5b5f898661186991906121d7565b90505f600660ff16848461187d9190612218565b60ff16106118ca57600684846118939190612218565b61189d919061224c565b60ff16905080600a6118af91906123af565b826118ba9190612426565b995050505050505050505061190b565b83836118d69190612218565b60066118e2919061224c565b60ff16905080600a6118f491906123af565b826118ff91906121d7565b99505050505050505050505b92915050565b80156119aa578160015f8673ffffffffffffffffffffffffffffffffffffffff1673ffffffffffffffffffffffffffffffffffffffff1681526020019081526020015f205f8573ffffffffffffffffffffffffffffffffffffffff1673ffffffffffffffffffffffffffffffffffffffff1681526020019081526020015f205f82825461199e9190611e9b565b92505081905550611a39565b8160015f8673ffffffffffffffffffffffffffffffffffffffff1673ffffffffffffffffffffffffffffffffffffffff1681526020019081526020015f205f8573ffffffffffffffffffffffffffffffffffffffff1673ffffffffffffffffffffffffffffffffffffffff1681526020019081526020015f205f828254611a319190611fcd565b925050819055505b50505050565b5f5f60025f8473ffffffffffffffffffffffffffffffffffffffff1673ffffffffffffffffffffffffffffffffffffffff1681526020019081526020015f205f9054906101000a900473ffffffffffffffffffffffffffffffffffffffff1690505f73ffffffffffffffffffffffffffffffffffffffff168173ffffffffffffffffffffffffffffffffffffffff1603611afc577f0000000000000000000000000000000000000000000000000000000000000000915050611b01565b809150505b919050565b5f5ffd5b5f73ffffffffffffffffffffffffffffffffffffffff82169050919050565b5f611b3382611b0a565b9050919050565b611b4381611b29565b8114611b4d575f5ffd5b50565b5f81359050611b5e81611b3a565b92915050565b5f60208284031215611b7957611b78611b06565b5b5f611b8684828501611b50565b91505092915050565b5f819050919050565b611ba181611b8f565b82525050565b5f602082019050611bba5f830184611b98565b92915050565b5f5f60408385031215611bd657611bd5611b06565b5b5f611be385828601611b50565b9250506020611bf485828601611b50565b9150509250929050565b611c0781611b29565b82525050565b5f602082019050611c205f830184611bfe565b92915050565b611c2f81611b8f565b8114611c39575f5ffd5b50565b5f81359050611c4a81611c26565b92915050565b5f5f60408385031215611c6657611c65611b06565b5b5f611c7385828601611b50565b9250506020611c8485828601611c3c565b9150509250929050565b5f819050919050565b5f611cb1611cac611ca784611b0a565b611c8e565b611b0a565b9050919050565b5f611cc282611c97565b9050919050565b5f611cd382611cb8565b9050919050565b611ce381611cc9565b82525050565b5f602082019050611cfc5f830184611cda565b92915050565b5f60ff82169050919050565b611d1781611d02565b82525050565b5f602082019050611d305f830184611d0e565b92915050565b5f60208284031215611d4b57611d4a611b06565b5b5f611d5884828501611c3c565b91505092915050565b5f82825260208201905092915050565b7f7a65726f206f776e6572000000000000000000000000000000000000000000005f82015250565b5f611da5600a83611d61565b9150611db082611d71565b602082019050919050565b5f6020820190508181035f830152611dd281611d99565b9050919050565b5f606082019050611dec5f830186611bfe565b611df96020830185611bfe565b611e066040830184611b98565b949350505050565b5f8115159050919050565b611e2281611e0e565b8114611e2c575f5ffd5b50565b5f81519050611e3d81611e19565b92915050565b5f60208284031215611e5857611e57611b06565b5b5f611e6584828501611e2f565b91505092915050565b7f4e487b71000000000000000000000000000000000000000000000000000000005f52601160045260245ffd5b5f611ea582611b8f565b9150611eb083611b8f565b9250828201905080821115611ec857611ec7611e6e565b5b92915050565b5f604082019050611ee15f830185611bfe565b611eee6020830184611b98565b9392505050565b5f606082019050611f085f830186611b98565b611f156020830185611b98565b611f226040830184611b98565b949350505050565b5f611f3482611b8f565b91507fffffffffffffffffffffffffffffffffffffffffffffffffffffffffffffffff8203611f6657611f65611e6e565b5b600182019050919050565b5f604082019050611f845f830185611b98565b611f916020830184611b98565b9392505050565b5f606082019050611fab5f830186611bfe565b611fb86020830185611b98565b611fc56040830184611b98565b949350505050565b5f611fd782611b8f565b9150611fe283611b8f565b9250828203905081811115611ffa57611ff9611e6e565b5b92915050565b5f81905092915050565b50565b5f6120185f83612000565b91506120238261200a565b5f82019050919050565b5f6120378261200d565b9150819050919050565b5f69ffffffffffffffffffff82169050919050565b61205f81612041565b8114612069575f5ffd5b50565b5f8151905061207a81612056565b92915050565b5f819050919050565b61209281612080565b811461209c575f5ffd5b50565b5f815190506120ad81612089565b92915050565b5f815190506120c181611c26565b92915050565b5f5f5f5f5f60a086880312156120e0576120df611b06565b5b5f6120ed8882890161206c565b95505060206120fe8882890161209f565b945050604061210f888289016120b3565b9350506060612120888289016120b3565b92505060806121318882890161206c565b9150509295509295909350565b61214781611d02565b8114612151575f5ffd5b50565b5f815190506121628161213e565b92915050565b5f6020828403121561217d5761217c611b06565b5b5f61218a84828501612154565b91505092915050565b61219c81612041565b82525050565b5f6060820190506121b55f830186612193565b6121c26020830185611b98565b6121cf6040830184612193565b949350505050565b5f6121e182611b8f565b91506121ec83611b8f565b92508282026121fa81611b8f565b9150828204841483151761221157612210611e6e565b5b5092915050565b5f61222282611d02565b915061222d83611d02565b9250828201905060ff81111561224657612245611e6e565b5b92915050565b5f61225682611d02565b915061226183611d02565b9250828203905060ff81111561227a57612279611e6e565b5b92915050565b5f8160011c9050919050565b5f5f8291508390505b60018511156122d5578086048111156122b1576122b0611e6e565b5b60018516156122c05780820291505b80810290506122ce85612280565b9450612295565b94509492505050565b5f826122ed57600190506123a8565b816122fa575f90506123a8565b8160018114612310576002811461231a57612349565b60019150506123a8565b60ff84111561232c5761232b611e6e565b5b8360020a91508482111561234357612342611e6e565b5b506123a8565b5060208310610133831016604e8410600b841016171561237e5782820a90508381111561237957612378611e6e565b5b6123a8565b61238b848484600161228c565b925090508184048111156123a2576123a1611e6e565b5b81810290505b9392505050565b5f6123b982611b8f565b91506123c483611b8f565b92506123f17fffffffffffffffffffffffffffffffffffffffffffffffffffffffffffffffff84846122de565b905092915050565b7f4e487b71000000000000000000000000000000000000000000000000000000005f52601260045260245ffd5b5f61243082611b8f565b915061243b83611b8f565b92508261244b5761244a6123f9565b5b82820490509291505056fea26469706673582212204c76a4c31eed04ba2c0246b57215546081ecb75c0a443a8a8f86880f354d723b64736f6c634300081e0033",
					"opcodes": "PUSH1 0xE0 PUSH1 0x40 MSTORE CALLVALUE DUP1 ISZERO PUSH2 0xF JUMPI PUSH0 PUSH0 REVERT JUMPDEST POP PUSH1 0x40 MLOAD PUSH2 0x270C CODESIZE SUB DUP1 PUSH2 0x270C DUP4 CODECOPY DUP2 DUP2 ADD PUSH1 0x40 MSTORE DUP2 ADD SWAP1 PUSH2 0x31 SWAP2 SWAP1 PUSH2 0x1C7 JUMP JUMPDEST PUSH0 DUP4 EQ DUP1 PUSH2 0x3E JUMPI POP PUSH0 DUP3 EQ JUMPDEST DUP1 PUSH2 0x74 JUMPI POP PUSH0 PUSH20 0xFFFFFFFFFFFFFFFFFFFFFFFFFFFFFFFFFFFFFFFF AND DUP2 PUSH20 0xFFFFFFFFFFFFFFFFFFFFFFFFFFFFFFFFFFFFFFFF AND EQ JUMPDEST ISZERO PUSH2 0xAB JUMPI PUSH1 0x40 MLOAD PUSH32 0x1510B77F00000000000000000000000000000000000000000000000000000000 DUP2 MSTORE PUSH1 0x4 ADD PUSH1 0x40 MLOAD DUP1 SWAP2 SUB SWAP1 REVERT JUMPDEST CALLER PUSH0 PUSH0 PUSH2 0x100 EXP DUP2 SLOAD DUP2 PUSH20 0xFFFFFFFFFFFFFFFFFFFFFFFFFFFFFFFFFFFFFFFF MUL NOT AND SWAP1 DUP4 PUSH20 0xFFFFFFFFFFFFFFFFFFFFFFFFFFFFFFFFFFFFFFFF AND MUL OR SWAP1 SSTORE POP DUP3 PUSH1 0x80 DUP2 DUP2 MSTORE POP POP DUP2 PUSH1 0xA0 DUP2 DUP2 MSTORE POP POP DUP1 PUSH20 0xFFFFFFFFFFFFFFFFFFFFFFFFFFFFFFFFFFFFFFFF AND PUSH1 0xC0 DUP2 PUSH20 0xFFFFFFFFFFFFFFFFFFFFFFFFFFFFFFFFFFFFFFFF AND DUP2 MSTORE POP POP POP POP POP PUSH2 0x217 JUMP JUMPDEST PUSH0 PUSH0 REVERT JUMPDEST PUSH0 DUP2 SWAP1 POP SWAP2 SWAP1 POP JUMP JUMPDEST PUSH2 0x14C DUP2 PUSH2 0x13A JUMP JUMPDEST DUP2 EQ PUSH2 0x156 JUMPI PUSH0 PUSH0 REVERT JUMPDEST POP JUMP JUMPDEST PUSH0 DUP2 MLOAD SWAP1 POP PUSH2 0x167 DUP2 PUSH2 0x143 JUMP JUMPDEST SWAP3 SWAP2 POP POP JUMP JUMPDEST PUSH0 PUSH20 0xFFFFFFFFFFFFFFFFFFFFFFFFFFFFFFFFFFFFFFFF DUP3 AND SWAP1 POP SWAP2 SWAP1 POP JUMP JUMPDEST PUSH0 PUSH2 0x196 DUP3 PUSH2 0x16D JUMP JUMPDEST SWAP1 POP SWAP2 SWAP1 POP JUMP JUMPDEST PUSH2 0x1A6 DUP2 PUSH2 0x18C JUMP JUMPDEST DUP2 EQ PUSH2 0x1B0 JUMPI PUSH0 PUSH0 REVERT JUMPDEST POP JUMP JUMPDEST PUSH0 DUP2 MLOAD SWAP1 POP PUSH2 0x1C1 DUP2 PUSH2 0x19D JUMP JUMPDEST SWAP3 SWAP2 POP POP JUMP JUMPDEST PUSH0 PUSH0 PUSH0 PUSH1 0x60 DUP5 DUP7 SUB SLT ISZERO PUSH2 0x1DE JUMPI PUSH2 0x1DD PUSH2 0x136 JUMP JUMPDEST JUMPDEST PUSH0 PUSH2 0x1EB DUP7 DUP3 DUP8 ADD PUSH2 0x159 JUMP JUMPDEST SWAP4 POP POP PUSH1 0x20 PUSH2 0x1FC DUP7 DUP3 DUP8 ADD PUSH2 0x159 JUMP JUMPDEST SWAP3 POP POP PUSH1 0x40 PUSH2 0x20D DUP7 DUP3 DUP8 ADD PUSH2 0x1B3 JUMP JUMPDEST SWAP2 POP POP SWAP3 POP SWAP3 POP SWAP3 JUMP JUMPDEST PUSH1 0x80 MLOAD PUSH1 0xA0 MLOAD PUSH1 0xC0 MLOAD PUSH2 0x248C PUSH2 0x280 PUSH0 CODECOPY PUSH0 DUP2 DUP2 PUSH2 0xF85 ADD MSTORE PUSH2 0x1AD5 ADD MSTORE PUSH0 DUP2 DUP2 PUSH2 0xD3C ADD MSTORE DUP2 DUP2 PUSH2 0xD65 ADD MSTORE DUP2 DUP2 PUSH2 0xFAF ADD MSTORE DUP2 DUP2 PUSH2 0x113F ADD MSTORE PUSH2 0x1168 ADD MSTORE PUSH0 DUP2 DUP2 PUSH2 0x9C8 ADD MSTORE DUP2 DUP2 PUSH2 0xA7D ADD MSTORE DUP2 DUP2 PUSH2 0xF56 ADD MSTORE DUP2 DUP2 PUSH2 0x13E9 ADD MSTORE PUSH2 0x1422 ADD MSTORE PUSH2 0x248C PUSH0 RETURN INVALID PUSH1 0x80 PUSH1 0x40 MSTORE PUSH1 0x4 CALLDATASIZE LT PUSH2 0xF6 JUMPI PUSH0 CALLDATALOAD PUSH1 0xE0 SHR DUP1 PUSH4 0xB7B0FFD8 GT PUSH2 0x89 JUMPI DUP1 PUSH4 0xE243DF20 GT PUSH2 0x58 JUMPI DUP1 PUSH4 0xE243DF20 EQ PUSH2 0x35B JUMPI DUP1 PUSH4 0xF14210A6 EQ PUSH2 0x385 JUMPI DUP1 PUSH4 0xF6326FB3 EQ PUSH2 0x3AD JUMPI DUP1 PUSH4 0xF7888AEC EQ PUSH2 0x3B7 JUMPI PUSH2 0x155 JUMP JUMPDEST DUP1 PUSH4 0xB7B0FFD8 EQ PUSH2 0x2B3 JUMPI DUP1 PUSH4 0xBE406E6C EQ PUSH2 0x2DD JUMPI DUP1 PUSH4 0xC1636BC9 EQ PUSH2 0x307 JUMPI DUP1 PUSH4 0xD6343867 EQ PUSH2 0x331 JUMPI PUSH2 0x155 JUMP JUMPDEST DUP1 PUSH4 0x97FEB926 GT PUSH2 0xC5 JUMPI DUP1 PUSH4 0x97FEB926 EQ PUSH2 0x1FD JUMPI DUP1 PUSH4 0x9DCB511A EQ PUSH2 0x225 JUMPI DUP1 PUSH4 0xA1DB9782 EQ PUSH2 0x261 JUMPI DUP1 PUSH4 0xAC4543BA EQ PUSH2 0x289 JUMPI PUSH2 0x155 JUMP JUMPDEST DUP1 PUSH4 0x13AF4035 EQ PUSH2 0x159 JUMPI DUP1 PUSH4 0x503E7042 EQ PUSH2 0x181 JUMPI DUP1 PUSH4 0x76E11286 EQ PUSH2 0x1AB JUMPI DUP1 PUSH4 0x8DA5CB5B EQ PUSH2 0x1D3 JUMPI PUSH2 0x155 JUMP JUMPDEST CALLDATASIZE PUSH2 0x155 JUMPI ADDRESS PUSH20 0xFFFFFFFFFFFFFFFFFFFFFFFFFFFFFFFFFFFFFFFF AND PUSH4 0xF6326FB3 CALLVALUE PUSH1 0x40 MLOAD DUP3 PUSH4 0xFFFFFFFF AND PUSH1 0xE0 SHL DUP2 MSTORE PUSH1 0x4 ADD PUSH0 PUSH1 0x40 MLOAD DUP1 DUP4 SUB DUP2 DUP6 DUP9 DUP1 EXTCODESIZE ISZERO DUP1 ISZERO PUSH2 0x141 JUMPI PUSH0 PUSH0 REVERT JUMPDEST POP GAS CALL ISZERO DUP1 ISZERO PUSH2 0x153 JUMPI RETURNDATASIZE PUSH0 PUSH0 RETURNDATACOPY RETURNDATASIZE PUSH0 REVERT JUMPDEST STOP JUMPDEST PUSH0 PUSH0 REVERT JUMPDEST CALLVALUE DUP1 ISZERO PUSH2 0x164 JUMPI PUSH0 PUSH0 REVERT JUMPDEST POP PUSH2 0x17F PUSH1 0x4 DUP1 CALLDATASIZE SUB DUP2 ADD SWAP1 PUSH2 0x17A SWAP2 SWAP1 PUSH2 0x1B64 JUMP JUMPDEST PUSH2 0x3F3 JUMP JUMPDEST STOP JUMPDEST CALLVALUE DUP1 ISZERO PUSH2 0x18C JUMPI PUSH0 PUSH0 REVERT JUMPDEST POP PUSH2 0x195 PUSH2 0x5A7 JUMP JUMPDEST PUSH1 0x40 MLOAD PUSH2 0x1A2 SWAP2 SWAP1 PUSH2 0x1BA7 JUMP JUMPDEST PUSH1 0x40 MLOAD DUP1 SWAP2 SUB SWAP1 RETURN JUMPDEST CALLVALUE DUP1 ISZERO PUSH2 0x1B6 JUMPI PUSH0 PUSH0 REVERT JUMPDEST POP PUSH2 0x1D1 PUSH1 0x4 DUP1 CALLDATASIZE SUB DUP2 ADD SWAP1 PUSH2 0x1CC SWAP2 SWAP1 PUSH2 0x1BC0 JUMP JUMPDEST PUSH2 0x5AD JUMP JUMPDEST STOP JUMPDEST CALLVALUE DUP1 ISZERO PUSH2 0x1DE JUMPI PUSH0 PUSH0 REVERT JUMPDEST POP PUSH2 0x1E7 PUSH2 0x70B JUMP JUMPDEST PUSH1 0x40 MLOAD PUSH2 0x1F4 SWAP2 SWAP1 PUSH2 0x1C0D JUMP JUMPDEST PUSH1 0x40 MLOAD DUP1 SWAP2 SUB SWAP1 RETURN JUMPDEST CALLVALUE DUP1 ISZERO PUSH2 0x208 JUMPI PUSH0 PUSH0 REVERT JUMPDEST POP PUSH2 0x223 PUSH1 0x4 DUP1 CALLDATASIZE SUB DUP2 ADD SWAP1 PUSH2 0x21E SWAP2 SWAP1 PUSH2 0x1C50 JUMP JUMPDEST PUSH2 0x72F JUMP JUMPDEST STOP JUMPDEST CALLVALUE DUP1 ISZERO PUSH2 0x230 JUMPI PUSH0 PUSH0 REVERT JUMPDEST POP PUSH2 0x24B PUSH1 0x4 DUP1 CALLDATASIZE SUB DUP2 ADD SWAP1 PUSH2 0x246 SWAP2 SWAP1 PUSH2 0x1B64 JUMP JUMPDEST PUSH2 0xB9E JUMP JUMPDEST PUSH1 0x40 MLOAD PUSH2 0x258 SWAP2 SWAP1 PUSH2 0x1CE9 JUMP JUMPDEST PUSH1 0x40 MLOAD DUP1 SWAP2 SUB SWAP1 RETURN JUMPDEST CALLVALUE DUP1 ISZERO PUSH2 0x26C JUMPI PUSH0 PUSH0 REVERT JUMPDEST POP PUSH2 0x287 PUSH1 0x4 DUP1 CALLDATASIZE SUB DUP2 ADD SWAP1 PUSH2 0x282 SWAP2 SWAP1 PUSH2 0x1C50 JUMP JUMPDEST PUSH2 0xBCE JUMP JUMPDEST STOP JUMPDEST CALLVALUE DUP1 ISZERO PUSH2 0x294 JUMPI PUSH0 PUSH0 REVERT JUMPDEST POP PUSH2 0x29D PUSH2 0xF54 JUMP JUMPDEST PUSH1 0x40 MLOAD PUSH2 0x2AA SWAP2 SWAP1 PUSH2 0x1BA7 JUMP JUMPDEST PUSH1 0x40 MLOAD DUP1 SWAP2 SUB SWAP1 RETURN JUMPDEST CALLVALUE DUP1 ISZERO PUSH2 0x2BE JUMPI PUSH0 PUSH0 REVERT JUMPDEST POP PUSH2 0x2C7 PUSH2 0xF78 JUMP JUMPDEST PUSH1 0x40 MLOAD PUSH2 0x2D4 SWAP2 SWAP1 PUSH2 0x1BA7 JUMP JUMPDEST PUSH1 0x40 MLOAD DUP1 SWAP2 SUB SWAP1 RETURN JUMPDEST CALLVALUE DUP1 ISZERO PUSH2 0x2E8 JUMPI PUSH0 PUSH0 REVERT JUMPDEST POP PUSH2 0x2F1 PUSH2 0xF7E JUMP JUMPDEST PUSH1 0x40 MLOAD PUSH2 0x2FE SWAP2 SWAP1 PUSH2 0x1D1D JUMP JUMPDEST PUSH1 0x40 MLOAD DUP1 SWAP2 SUB SWAP1 RETURN JUMPDEST CALLVALUE DUP1 ISZERO PUSH2 0x312 JUMPI PUSH0 PUSH0 REVERT JUMPDEST POP PUSH2 0x31B PUSH2 0xF83 JUMP JUMPDEST PUSH1 0x40 MLOAD PUSH2 0x328 SWAP2 SWAP1 PUSH2 0x1CE9 JUMP JUMPDEST PUSH1 0x40 MLOAD DUP1 SWAP2 SUB SWAP1 RETURN JUMPDEST CALLVALUE DUP1 ISZERO PUSH2 0x33C JUMPI PUSH0 PUSH0 REVERT JUMPDEST POP PUSH2 0x345 PUSH2 0xFA7 JUMP JUMPDEST PUSH1 0x40 MLOAD PUSH2 0x352 SWAP2 SWAP1 PUSH2 0x1BA7 JUMP JUMPDEST PUSH1 0x40 MLOAD DUP1 SWAP2 SUB SWAP1 RETURN JUMPDEST CALLVALUE DUP1 ISZERO PUSH2 0x366 JUMPI PUSH0 PUSH0 REVERT JUMPDEST POP PUSH2 0x36F PUSH2 0xFAD JUMP JUMPDEST PUSH1 0x40 MLOAD PUSH2 0x37C SWAP2 SWAP1 PUSH2 0x1BA7 JUMP JUMPDEST PUSH1 0x40 MLOAD DUP1 SWAP2 SUB SWAP1 RETURN JUMPDEST CALLVALUE DUP1 ISZERO PUSH2 0x390 JUMPI PUSH0 PUSH0 REVERT JUMPDEST POP PUSH2 0x3AB PUSH1 0x4 DUP1 CALLDATASIZE SUB DUP2 ADD SWAP1 PUSH2 0x3A6 SWAP2 SWAP1 PUSH2 0x1D36 JUMP JUMPDEST PUSH2 0xFD1 JUMP JUMPDEST STOP JUMPDEST PUSH2 0x3B5 PUSH2 0x1340 JUMP JUMPDEST STOP JUMPDEST CALLVALUE DUP1 ISZERO PUSH2 0x3C2 JUMPI PUSH0 PUSH0 REVERT JUMPDEST POP PUSH2 0x3DD PUSH1 0x4 DUP1 CALLDATASIZE SUB DUP2 ADD SWAP1 PUSH2 0x3D8 SWAP2 SWAP1 PUSH2 0x1BC0 JUMP JUMPDEST PUSH2 0x153F JUMP JUMPDEST PUSH1 0x40 MLOAD PUSH2 0x3EA SWAP2 SWAP1 PUSH2 0x1BA7 JUMP JUMPDEST PUSH1 0x40 MLOAD DUP1 SWAP2 SUB SWAP1 RETURN JUMPDEST PUSH0 PUSH0 SWAP1 SLOAD SWAP1 PUSH2 0x100 EXP SWAP1 DIV PUSH20 0xFFFFFFFFFFFFFFFFFFFFFFFFFFFFFFFFFFFFFFFF AND PUSH20 0xFFFFFFFFFFFFFFFFFFFFFFFFFFFFFFFFFFFFFFFF AND CALLER PUSH20 0xFFFFFFFFFFFFFFFFFFFFFFFFFFFFFFFFFFFFFFFF AND EQ PUSH2 0x478 JUMPI PUSH1 0x40 MLOAD PUSH32 0xCC12CEF600000000000000000000000000000000000000000000000000000000 DUP2 MSTORE PUSH1 0x4 ADD PUSH1 0x40 MLOAD DUP1 SWAP2 SUB SWAP1 REVERT JUMPDEST PUSH0 PUSH20 0xFFFFFFFFFFFFFFFFFFFFFFFFFFFFFFFFFFFFFFFF AND DUP2 PUSH20 0xFFFFFFFFFFFFFFFFFFFFFFFFFFFFFFFFFFFFFFFF AND SUB PUSH2 0x4E6 JUMPI PUSH1 0x40 MLOAD PUSH32 0x8C379A000000000000000000000000000000000000000000000000000000000 DUP2 MSTORE PUSH1 0x4 ADD PUSH2 0x4DD SWAP1 PUSH2 0x1DBB JUMP JUMPDEST PUSH1 0x40 MLOAD DUP1 SWAP2 SUB SWAP1 REVERT JUMPDEST PUSH0 PUSH0 PUSH0 SWAP1 SLOAD SWAP1 PUSH2 0x100 EXP SWAP1 DIV PUSH20 0xFFFFFFFFFFFFFFFFFFFFFFFFFFFFFFFFFFFFFFFF AND SWAP1 POP DUP2 PUSH0 PUSH0 PUSH2 0x100 EXP DUP2 SLOAD DUP2 PUSH20 0xFFFFFFFFFFFFFFFFFFFFFFFFFFFFFFFFFFFFFFFF MUL NOT AND SWAP1 DUP4 PUSH20 0xFFFFFFFFFFFFFFFFFFFFFFFFFFFFFFFFFFFFFFFF AND MUL OR SWAP1 SSTORE POP DUP2 PUSH20 0xFFFFFFFFFFFFFFFFFFFFFFFFFFFFFFFFFFFFFFFF AND DUP2 PUSH20 0xFFFFFFFFFFFFFFFFFFFFFFFFFFFFFFFFFFFFFFFF AND PUSH32 0xB532073B38C83145E3E5135377A08BF9AAB55BC0FD7C1179CD4FB995D2A5159C PUSH1 0x40 MLOAD PUSH1 0x40 MLOAD DUP1 SWAP2 SUB SWAP1 LOG3 POP POP JUMP JUMPDEST PUSH1 0x5 SLOAD DUP2 JUMP JUMPDEST PUSH0 PUSH0 SWAP1 SLOAD SWAP1 PUSH2 0x100 EXP SWAP1 DIV PUSH20 0xFFFFFFFFFFFFFFFFFFFFFFFFFFFFFFFFFFFFFFFF AND PUSH20 0xFFFFFFFFFFFFFFFFFFFFFFFFFFFFFFFFFFFFFFFF AND CALLER PUSH20 0xFFFFFFFFFFFFFFFFFFFFFFFFFFFFFFFFFFFFFFFF AND EQ PUSH2 0x632 JUMPI PUSH1 0x40 MLOAD PUSH32 0xCC12CEF600000000000000000000000000000000000000000000000000000000 DUP2 MSTORE PUSH1 0x4 ADD PUSH1 0x40 MLOAD DUP1 SWAP2 SUB SWAP1 REVERT JUMPDEST DUP1 PUSH1 0x2 PUSH0 DUP5 PUSH20 0xFFFFFFFFFFFFFFFFFFFFFFFFFFFFFFFFFFFFFFFF AND PUSH20 0xFFFFFFFFFFFFFFFFFFFFFFFFFFFFFFFFFFFFFFFF AND DUP2 MSTORE PUSH1 0x20 ADD SWAP1 DUP2 MSTORE PUSH1 0x20 ADD PUSH0 KECCAK256 PUSH0 PUSH2 0x100 EXP DUP2 SLOAD DUP2 PUSH20 0xFFFFFFFFFFFFFFFFFFFFFFFFFFFFFFFFFFFFFFFF MUL NOT AND SWAP1 DUP4 PUSH20 0xFFFFFFFFFFFFFFFFFFFFFFFFFFFFFFFFFFFFFFFF AND MUL OR SWAP1 SSTORE POP DUP1 PUSH20 0xFFFFFFFFFFFFFFFFFFFFFFFFFFFFFFFFFFFFFFFF AND DUP3 PUSH20 0xFFFFFFFFFFFFFFFFFFFFFFFFFFFFFFFFFFFFFFFF AND PUSH32 0xD2D8394CF7549A5DDBC2BA3DD7B2DE8D53C891472D1F2907008ED6A10045FDAE PUSH1 0x40 MLOAD PUSH1 0x40 MLOAD DUP1 SWAP2 SUB SWAP1 LOG3 POP POP JUMP JUMPDEST PUSH0 PUSH0 SWAP1 SLOAD SWAP1 PUSH2 0x100 EXP SWAP1 DIV PUSH20 0xFFFFFFFFFFFFFFFFFFFFFFFFFFFFFFFFFFFFFFFF AND DUP2 JUMP JUMPDEST PUSH1 0x6 PUSH0 SWAP1 SLOAD SWAP1 PUSH2 0x100 EXP SWAP1 DIV PUSH1 0xFF AND ISZERO PUSH2 0x775 JUMPI PUSH1 0x40 MLOAD PUSH32 0x5A919CD900000000000000000000000000000000000000000000000000000000 DUP2 MSTORE PUSH1 0x4 ADD PUSH1 0x40 MLOAD DUP1 SWAP2 SUB SWAP1 REVERT JUMPDEST PUSH1 0x1 PUSH1 0x6 PUSH0 PUSH2 0x100 EXP DUP2 SLOAD DUP2 PUSH1 0xFF MUL NOT AND SWAP1 DUP4 ISZERO ISZERO MUL OR SWAP1 SSTORE POP DUP1 PUSH0 DUP2 SUB PUSH2 0x7C9 JUMPI PUSH1 0x40 MLOAD PUSH32 0x608294AC00000000000000000000000000000000000000000000000000000000 DUP2 MSTORE PUSH1 0x4 ADD PUSH1 0x40 MLOAD DUP1 SWAP2 SUB SWAP1 REVERT JUMPDEST PUSH0 PUSH20 0xFFFFFFFFFFFFFFFFFFFFFFFFFFFFFFFFFFFFFFFF AND DUP4 PUSH20 0xFFFFFFFFFFFFFFFFFFFFFFFFFFFFFFFFFFFFFFFF AND SUB PUSH2 0x82E JUMPI PUSH1 0x40 MLOAD PUSH32 0x608294AC00000000000000000000000000000000000000000000000000000000 DUP2 MSTORE PUSH1 0x4 ADD PUSH1 0x40 MLOAD DUP1 SWAP2 SUB SWAP1 REVERT JUMPDEST PUSH0 PUSH1 0x2 PUSH0 DUP6 PUSH20 0xFFFFFFFFFFFFFFFFFFFFFFFFFFFFFFFFFFFFFFFF AND PUSH20 0xFFFFFFFFFFFFFFFFFFFFFFFFFFFFFFFFFFFFFFFF AND DUP2 MSTORE PUSH1 0x20 ADD SWAP1 DUP2 MSTORE PUSH1 0x20 ADD PUSH0 KECCAK256 PUSH0 SWAP1 SLOAD SWAP1 PUSH2 0x100 EXP SWAP1 DIV PUSH20 0xFFFFFFFFFFFFFFFFFFFFFFFFFFFFFFFFFFFFFFFF AND SWAP1 POP PUSH0 PUSH20 0xFFFFFFFFFFFFFFFFFFFFFFFFFFFFFFFFFFFFFFFF AND DUP2 PUSH20 0xFFFFFFFFFFFFFFFFFFFFFFFFFFFFFFFFFFFFFFFF AND SUB PUSH2 0x8F3 JUMPI PUSH1 0x40 MLOAD PUSH32 0xCC12CEF600000000000000000000000000000000000000000000000000000000 DUP2 MSTORE PUSH1 0x4 ADD PUSH1 0x40 MLOAD DUP1 SWAP2 SUB SWAP1 REVERT JUMPDEST PUSH0 DUP5 PUSH20 0xFFFFFFFFFFFFFFFFFFFFFFFFFFFFFFFFFFFFFFFF AND PUSH4 0x23B872DD CALLER ADDRESS DUP8 PUSH1 0x40 MLOAD DUP5 PUSH4 0xFFFFFFFF AND PUSH1 0xE0 SHL DUP2 MSTORE PUSH1 0x4 ADD PUSH2 0x931 SWAP4 SWAP3 SWAP2 SWAP1 PUSH2 0x1DD9 JUMP JUMPDEST PUSH1 0x20 PUSH1 0x40 MLOAD DUP1 DUP4 SUB DUP2 PUSH0 DUP8 GAS CALL ISZERO DUP1 ISZERO PUSH2 0x94D JUMPI RETURNDATASIZE PUSH0 PUSH0 RETURNDATACOPY RETURNDATASIZE PUSH0 REVERT JUMPDEST POP POP POP POP PUSH1 0x40 MLOAD RETURNDATASIZE PUSH1 0x1F NOT PUSH1 0x1F DUP3 ADD AND DUP3 ADD DUP1 PUSH1 0x40 MSTORE POP DUP2 ADD SWAP1 PUSH2 0x971 SWAP2 SWAP1 PUSH2 0x1E43 JUMP JUMPDEST SWAP1 POP DUP1 PUSH2 0x9B9 JUMPI CALLER DUP6 DUP6 PUSH1 0x40 MLOAD PUSH32 0x31E6E4E100000000000000000000000000000000000000000000000000000000 DUP2 MSTORE PUSH1 0x4 ADD PUSH2 0x9B0 SWAP4 SWAP3 SWAP2 SWAP1 PUSH2 0x1DD9 JUMP JUMPDEST PUSH1 0x40 MLOAD DUP1 SWAP2 SUB SWAP1 REVERT JUMPDEST PUSH0 PUSH2 0x9C4 DUP7 DUP7 PUSH2 0x15C1 JUMP JUMPDEST SWAP1 POP PUSH32 0x0 DUP2 PUSH1 0x3 SLOAD PUSH2 0x9F5 SWAP2 SWAP1 PUSH2 0x1E9B JUMP JUMPDEST GT ISZERO PUSH2 0xADA JUMPI DUP6 PUSH20 0xFFFFFFFFFFFFFFFFFFFFFFFFFFFFFFFFFFFFFFFF AND PUSH4 0xA9059CBB CALLER DUP8 PUSH1 0x40 MLOAD DUP4 PUSH4 0xFFFFFFFF AND PUSH1 0xE0 SHL DUP2 MSTORE PUSH1 0x4 ADD PUSH2 0xA36 SWAP3 SWAP2 SWAP1 PUSH2 0x1ECE JUMP JUMPDEST PUSH1 0x20 PUSH1 0x40 MLOAD DUP1 DUP4 SUB DUP2 PUSH0 DUP8 GAS CALL ISZERO DUP1 ISZERO PUSH2 0xA52 JUMPI RETURNDATASIZE PUSH0 PUSH0 RETURNDATACOPY RETURNDATASIZE PUSH0 REVERT JUMPDEST POP POP POP POP PUSH1 0x40 MLOAD RETURNDATASIZE PUSH1 0x1F NOT PUSH1 0x1F DUP3 ADD AND DUP3 ADD DUP1 PUSH1 0x40 MSTORE POP DUP2 ADD SWAP1 PUSH2 0xA76 SWAP2 SWAP1 PUSH2 0x1E43 JUMP JUMPDEST POP DUP1 PUSH1 0x3 SLOAD PUSH32 0x0 PUSH1 0x40 MLOAD PUSH32 0xCFE6749800000000000000000000000000000000000000000000000000000000 DUP2 MSTORE PUSH1 0x4 ADD PUSH2 0xAD1 SWAP4 SWAP3 SWAP2 SWAP1 PUSH2 0x1EF5 JUMP JUMPDEST PUSH1 0x40 MLOAD DUP1 SWAP2 SUB SWAP1 REVERT JUMPDEST PUSH2 0xAE7 DUP7 CALLER DUP8 PUSH1 0x1 PUSH2 0x1911 JUMP JUMPDEST PUSH1 0x4 PUSH0 DUP2 SLOAD DUP1 SWAP3 SWAP2 SWAP1 PUSH2 0xAF9 SWAP1 PUSH2 0x1F2A JUMP JUMPDEST SWAP2 SWAP1 POP SSTORE POP DUP1 PUSH1 0x3 PUSH0 DUP3 DUP3 SLOAD PUSH2 0xB0F SWAP2 SWAP1 PUSH2 0x1E9B JUMP JUMPDEST SWAP3 POP POP DUP2 SWAP1 SSTORE POP DUP6 PUSH20 0xFFFFFFFFFFFFFFFFFFFFFFFFFFFFFFFFFFFFFFFF AND CALLER PUSH20 0xFFFFFFFFFFFFFFFFFFFFFFFFFFFFFFFFFFFFFFFF AND PUSH32 0xDCBC1C05240F31FF3AD067EF1EE35CE4997762752E3A095284754544F4C709D7 DUP8 DUP5 PUSH1 0x40 MLOAD PUSH2 0xB75 SWAP3 SWAP2 SWAP1 PUSH2 0x1F71 JUMP JUMPDEST PUSH1 0x40 MLOAD DUP1 SWAP2 SUB SWAP1 LOG3 POP POP POP POP PUSH0 PUSH1 0x6 PUSH0 PUSH2 0x100 EXP DUP2 SLOAD DUP2 PUSH1 0xFF MUL NOT AND SWAP1 DUP4 ISZERO ISZERO MUL OR SWAP1 SSTORE POP POP POP JUMP JUMPDEST PUSH1 0x2 PUSH1 0x20 MSTORE DUP1 PUSH0 MSTORE PUSH1 0x40 PUSH0 KECCAK256 PUSH0 SWAP2 POP SLOAD SWAP1 PUSH2 0x100 EXP SWAP1 DIV PUSH20 0xFFFFFFFFFFFFFFFFFFFFFFFFFFFFFFFFFFFFFFFF AND DUP2 JUMP JUMPDEST PUSH1 0x6 PUSH0 SWAP1 SLOAD SWAP1 PUSH2 0x100 EXP SWAP1 DIV PUSH1 0xFF AND ISZERO PUSH2 0xC14 JUMPI PUSH1 0x40 MLOAD PUSH32 0x5A919CD900000000000000000000000000000000000000000000000000000000 DUP2 MSTORE PUSH1 0x4 ADD PUSH1 0x40 MLOAD DUP1 SWAP2 SUB SWAP1 REVERT JUMPDEST PUSH1 0x1 PUSH1 0x6 PUSH0 PUSH2 0x100 EXP DUP2 SLOAD DUP2 PUSH1 0xFF MUL NOT AND SWAP1 DUP4 ISZERO ISZERO MUL OR SWAP1 SSTORE POP DUP1 PUSH0 DUP2 SUB PUSH2 0xC68 JUMPI PUSH1 0x40 MLOAD PUSH32 0x608294AC00000000000000000000000000000000000000000000000000000000 DUP2 MSTORE PUSH1 0x4 ADD PUSH1 0x40 MLOAD DUP1 SWAP2 SUB SWAP1 REVERT JUMPDEST PUSH0 PUSH1 0x1 PUSH0 DUP6 PUSH20 0xFFFFFFFFFFFFFFFFFFFFFFFFFFFFFFFFFFFFFFFF AND PUSH20 0xFFFFFFFFFFFFFFFFFFFFFFFFFFFFFFFFFFFFFFFF AND DUP2 MSTORE PUSH1 0x20 ADD SWAP1 DUP2 MSTORE PUSH1 0x20 ADD PUSH0 KECCAK256 PUSH0 CALLER PUSH20 0xFFFFFFFFFFFFFFFFFFFFFFFFFFFFFFFFFFFFFFFF AND PUSH20 0xFFFFFFFFFFFFFFFFFFFFFFFFFFFFFFFFFFFFFFFF AND DUP2 MSTORE PUSH1 0x20 ADD SWAP1 DUP2 MSTORE PUSH1 0x20 ADD PUSH0 KECCAK256 SLOAD SWAP1 POP DUP1 DUP4 GT ISZERO PUSH2 0xD2D JUMPI DUP4 DUP2 DUP5 PUSH1 0x40 MLOAD PUSH32 0x483B38F200000000000000000000000000000000000000000000000000000000 DUP2 MSTORE PUSH1 0x4 ADD PUSH2 0xD24 SWAP4 SWAP3 SWAP2 SWAP1 PUSH2 0x1F98 JUMP JUMPDEST PUSH1 0x40 MLOAD DUP1 SWAP2 SUB SWAP1 REVERT JUMPDEST PUSH0 PUSH2 0xD38 DUP6 DUP6 PUSH2 0x15C1 JUMP JUMPDEST SWAP1 POP PUSH32 0x0 DUP2 GT ISZERO PUSH2 0xDC1 JUMPI DUP1 PUSH32 0x0 PUSH1 0x40 MLOAD PUSH32 0x2996304900000000000000000000000000000000000000000000000000000000 DUP2 MSTORE PUSH1 0x4 ADD PUSH2 0xDB8 SWAP3 SWAP2 SWAP1 PUSH2 0x1F71 JUMP JUMPDEST PUSH1 0x40 MLOAD DUP1 SWAP2 SUB SWAP1 REVERT JUMPDEST PUSH2 0xDCD DUP6 CALLER DUP7 PUSH0 PUSH2 0x1911 JUMP JUMPDEST PUSH1 0x5 PUSH0 DUP2 SLOAD DUP1 SWAP3 SWAP2 SWAP1 PUSH2 0xDDF SWAP1 PUSH2 0x1F2A JUMP JUMPDEST SWAP2 SWAP1 POP SSTORE POP PUSH1 0x3 SLOAD DUP2 GT PUSH2 0xE00 JUMPI DUP1 PUSH1 0x3 SLOAD PUSH2 0xDFB SWAP2 SWAP1 PUSH2 0x1FCD JUMP JUMPDEST PUSH2 0xE02 JUMP JUMPDEST PUSH0 JUMPDEST PUSH1 0x3 DUP2 SWAP1 SSTORE POP PUSH0 DUP6 PUSH20 0xFFFFFFFFFFFFFFFFFFFFFFFFFFFFFFFFFFFFFFFF AND PUSH4 0xA9059CBB CALLER DUP8 PUSH1 0x40 MLOAD DUP4 PUSH4 0xFFFFFFFF AND PUSH1 0xE0 SHL DUP2 MSTORE PUSH1 0x4 ADD PUSH2 0xE44 SWAP3 SWAP2 SWAP1 PUSH2 0x1ECE JUMP JUMPDEST PUSH1 0x20 PUSH1 0x40 MLOAD DUP1 DUP4 SUB DUP2 PUSH0 DUP8 GAS CALL ISZERO DUP1 ISZERO PUSH2 0xE60 JUMPI RETURNDATASIZE PUSH0 PUSH0 RETURNDATACOPY RETURNDATASIZE PUSH0 REVERT JUMPDEST POP POP POP POP PUSH1 0x40 MLOAD RETURNDATASIZE PUSH1 0x1F NOT PUSH1 0x1F DUP3 ADD AND DUP3 ADD DUP1 PUSH1 0x40 MSTORE POP DUP2 ADD SWAP1 PUSH2 0xE84 SWAP2 SWAP1 PUSH2 0x1E43 JUMP JUMPDEST SWAP1 POP DUP1 PUSH2 0xECC JUMPI CALLER DUP7 DUP7 PUSH1 0x40 MLOAD PUSH32 0x31E6E4E100000000000000000000000000000000000000000000000000000000 DUP2 MSTORE PUSH1 0x4 ADD PUSH2 0xEC3 SWAP4 SWAP3 SWAP2 SWAP1 PUSH2 0x1DD9 JUMP JUMPDEST PUSH1 0x40 MLOAD DUP1 SWAP2 SUB SWAP1 REVERT JUMPDEST DUP6 PUSH20 0xFFFFFFFFFFFFFFFFFFFFFFFFFFFFFFFFFFFFFFFF AND CALLER PUSH20 0xFFFFFFFFFFFFFFFFFFFFFFFFFFFFFFFFFFFFFFFF AND PUSH32 0xF341246ADAAC6F497BC2A656F546AB9E182111D630394F0C57C710A59A2CB567 DUP8 DUP6 PUSH1 0x40 MLOAD PUSH2 0xF2B SWAP3 SWAP2 SWAP1 PUSH2 0x1F71 JUMP JUMPDEST PUSH1 0x40 MLOAD DUP1 SWAP2 SUB SWAP1 LOG3 POP POP POP POP PUSH0 PUSH1 0x6 PUSH0 PUSH2 0x100 EXP DUP2 SLOAD DUP2 PUSH1 0xFF MUL NOT AND SWAP1 DUP4 ISZERO ISZERO MUL OR SWAP1 SSTORE POP POP POP JUMP JUMPDEST PUSH32 0x0 DUP2 JUMP JUMPDEST PUSH1 0x3 SLOAD DUP2 JUMP JUMPDEST PUSH1 0x6 DUP2 JUMP JUMPDEST PUSH32 0x0 DUP2 JUMP JUMPDEST PUSH1 0x4 SLOAD DUP2 JUMP JUMPDEST PUSH32 0x0 DUP2 JUMP JUMPDEST PUSH1 0x6 PUSH0 SWAP1 SLOAD SWAP1 PUSH2 0x100 EXP SWAP1 DIV PUSH1 0xFF AND ISZERO PUSH2 0x1017 JUMPI PUSH1 0x40 MLOAD PUSH32 0x5A919CD900000000000000000000000000000000000000000000000000000000 DUP2 MSTORE PUSH1 0x4 ADD PUSH1 0x40 MLOAD DUP1 SWAP2 SUB SWAP1 REVERT JUMPDEST PUSH1 0x1 PUSH1 0x6 PUSH0 PUSH2 0x100 EXP DUP2 SLOAD DUP2 PUSH1 0xFF MUL NOT AND SWAP1 DUP4 ISZERO ISZERO MUL OR SWAP1 SSTORE POP DUP1 PUSH0 DUP2 SUB PUSH2 0x106B JUMPI PUSH1 0x40 MLOAD PUSH32 0x608294AC00000000000000000000000000000000000000000000000000000000 DUP2 MSTORE PUSH1 0x4 ADD PUSH1 0x40 MLOAD DUP1 SWAP2 SUB SWAP1 REVERT JUMPDEST PUSH0 PUSH1 0x1 PUSH0 PUSH0 PUSH20 0xFFFFFFFFFFFFFFFFFFFFFFFFFFFFFFFFFFFFFFFF AND PUSH20 0xFFFFFFFFFFFFFFFFFFFFFFFFFFFFFFFFFFFFFFFF AND DUP2 MSTORE PUSH1 0x20 ADD SWAP1 DUP2 MSTORE PUSH1 0x20 ADD PUSH0 KECCAK256 PUSH0 CALLER PUSH20 0xFFFFFFFFFFFFFFFFFFFFFFFFFFFFFFFFFFFFFFFF AND PUSH20 0xFFFFFFFFFFFFFFFFFFFFFFFFFFFFFFFFFFFFFFFF AND DUP2 MSTORE PUSH1 0x20 ADD SWAP1 DUP2 MSTORE PUSH1 0x20 ADD PUSH0 KECCAK256 SLOAD SWAP1 POP DUP1 DUP4 GT ISZERO PUSH2 0x1130 JUMPI PUSH0 DUP2 DUP5 PUSH1 0x40 MLOAD PUSH32 0x483B38F200000000000000000000000000000000000000000000000000000000 DUP2 MSTORE PUSH1 0x4 ADD PUSH2 0x1127 SWAP4 SWAP3 SWAP2 SWAP1 PUSH2 0x1F98 JUMP JUMPDEST PUSH1 0x40 MLOAD DUP1 SWAP2 SUB SWAP1 REVERT JUMPDEST PUSH0 PUSH2 0x113B PUSH0 DUP6 PUSH2 0x15C1 JUMP JUMPDEST SWAP1 POP PUSH32 0x0 DUP2 GT ISZERO PUSH2 0x11C4 JUMPI DUP1 PUSH32 0x0 PUSH1 0x40 MLOAD PUSH32 0x2996304900000000000000000000000000000000000000000000000000000000 DUP2 MSTORE PUSH1 0x4 ADD PUSH2 0x11BB SWAP3 SWAP2 SWAP1 PUSH2 0x1F71 JUMP JUMPDEST PUSH1 0x40 MLOAD DUP1 SWAP2 SUB SWAP1 REVERT JUMPDEST PUSH2 0x11D0 PUSH0 CALLER DUP7 PUSH0 PUSH2 0x1911 JUMP JUMPDEST PUSH1 0x5 PUSH0 DUP2 SLOAD DUP1 SWAP3 SWAP2 SWAP1 PUSH2 0x11E2 SWAP1 PUSH2 0x1F2A JUMP JUMPDEST SWAP2 SWAP1 POP SSTORE POP PUSH1 0x3 SLOAD DUP2 GT PUSH2 0x1203 JUMPI DUP1 PUSH1 0x3 SLOAD PUSH2 0x11FE SWAP2 SWAP1 PUSH2 0x1FCD JUMP JUMPDEST PUSH2 0x1205 JUMP JUMPDEST PUSH0 JUMPDEST PUSH1 0x3 DUP2 SWAP1 SSTORE POP PUSH0 CALLER PUSH20 0xFFFFFFFFFFFFFFFFFFFFFFFFFFFFFFFFFFFFFFFF AND DUP6 PUSH1 0x40 MLOAD PUSH2 0x1230 SWAP1 PUSH2 0x202D JUMP JUMPDEST PUSH0 PUSH1 0x40 MLOAD DUP1 DUP4 SUB DUP2 DUP6 DUP8 GAS CALL SWAP3 POP POP POP RETURNDATASIZE DUP1 PUSH0 DUP2 EQ PUSH2 0x126A JUMPI PUSH1 0x40 MLOAD SWAP2 POP PUSH1 0x1F NOT PUSH1 0x3F RETURNDATASIZE ADD AND DUP3 ADD PUSH1 0x40 MSTORE RETURNDATASIZE DUP3 MSTORE RETURNDATASIZE PUSH0 PUSH1 0x20 DUP5 ADD RETURNDATACOPY PUSH2 0x126F JUMP JUMPDEST PUSH1 0x60 SWAP2 POP JUMPDEST POP POP SWAP1 POP DUP1 PUSH2 0x12B9 JUMPI CALLER PUSH0 DUP7 PUSH1 0x40 MLOAD PUSH32 0x31E6E4E100000000000000000000000000000000000000000000000000000000 DUP2 MSTORE PUSH1 0x4 ADD PUSH2 0x12B0 SWAP4 SWAP3 SWAP2 SWAP1 PUSH2 0x1DD9 JUMP JUMPDEST PUSH1 0x40 MLOAD DUP1 SWAP2 SUB SWAP1 REVERT JUMPDEST PUSH0 PUSH20 0xFFFFFFFFFFFFFFFFFFFFFFFFFFFFFFFFFFFFFFFF AND CALLER PUSH20 0xFFFFFFFFFFFFFFFFFFFFFFFFFFFFFFFFFFFFFFFF AND PUSH32 0xF341246ADAAC6F497BC2A656F546AB9E182111D630394F0C57C710A59A2CB567 DUP8 DUP6 PUSH1 0x40 MLOAD PUSH2 0x1318 SWAP3 SWAP2 SWAP1 PUSH2 0x1F71 JUMP JUMPDEST PUSH1 0x40 MLOAD DUP1 SWAP2 SUB SWAP1 LOG3 POP POP POP POP PUSH0 PUSH1 0x6 PUSH0 PUSH2 0x100 EXP DUP2 SLOAD DUP2 PUSH1 0xFF MUL NOT AND SWAP1 DUP4 ISZERO ISZERO MUL OR SWAP1 SSTORE POP POP JUMP JUMPDEST PUSH1 0x6 PUSH0 SWAP1 SLOAD SWAP1 PUSH2 0x100 EXP SWAP1 DIV PUSH1 0xFF AND ISZERO PUSH2 0x1386 JUMPI PUSH1 0x40 MLOAD PUSH32 0x5A919CD900000000000000000000000000000000000000000000000000000000 DUP2 MSTORE PUSH1 0x4 ADD PUSH1 0x40 MLOAD DUP1 SWAP2 SUB SWAP1 REVERT JUMPDEST PUSH1 0x1 PUSH1 0x6 PUSH0 PUSH2 0x100 EXP DUP2 SLOAD DUP2 PUSH1 0xFF MUL NOT AND SWAP1 DUP4 ISZERO ISZERO MUL OR SWAP1 SSTORE POP CALLVALUE PUSH0 DUP2 SUB PUSH2 0x13DA JUMPI PUSH1 0x40 MLOAD PUSH32 0x608294AC00000000000000000000000000000000000000000000000000000000 DUP2 MSTORE PUSH1 0x4 ADD PUSH1 0x40 MLOAD DUP1 SWAP2 SUB SWAP1 REVERT JUMPDEST PUSH0 PUSH2 0x13E5 PUSH0 CALLVALUE PUSH2 0x15C1 JUMP JUMPDEST SWAP1 POP PUSH32 0x0 DUP2 PUSH1 0x3 SLOAD PUSH2 0x1416 SWAP2 SWAP1 PUSH2 0x1E9B JUMP JUMPDEST GT ISZERO PUSH2 0x147F JUMPI DUP1 PUSH1 0x3 SLOAD PUSH32 0x0 PUSH1 0x40 MLOAD PUSH32 0xCFE6749800000000000000000000000000000000000000000000000000000000 DUP2 MSTORE PUSH1 0x4 ADD PUSH2 0x1476 SWAP4 SWAP3 SWAP2 SWAP1 PUSH2 0x1EF5 JUMP JUMPDEST PUSH1 0x40 MLOAD DUP1 SWAP2 SUB SWAP1 REVERT JUMPDEST PUSH2 0x148C PUSH0 CALLER CALLVALUE PUSH1 0x1 PUSH2 0x1911 JUMP JUMPDEST PUSH1 0x4 PUSH0 DUP2 SLOAD DUP1 SWAP3 SWAP2 SWAP1 PUSH2 0x149E SWAP1 PUSH2 0x1F2A JUMP JUMPDEST SWAP2 SWAP1 POP SSTORE POP DUP1 PUSH1 0x3 PUSH0 DUP3 DUP3 SLOAD PUSH2 0x14B4 SWAP2 SWAP1 PUSH2 0x1E9B JUMP JUMPDEST SWAP3 POP POP DUP2 SWAP1 SSTORE POP PUSH0 PUSH20 0xFFFFFFFFFFFFFFFFFFFFFFFFFFFFFFFFFFFFFFFF AND CALLER PUSH20 0xFFFFFFFFFFFFFFFFFFFFFFFFFFFFFFFFFFFFFFFF AND PUSH32 0xDCBC1C05240F31FF3AD067EF1EE35CE4997762752E3A095284754544F4C709D7 CALLVALUE DUP5 PUSH1 0x40 MLOAD PUSH2 0x151A SWAP3 SWAP2 SWAP1 PUSH2 0x1F71 JUMP JUMPDEST PUSH1 0x40 MLOAD DUP1 SWAP2 SUB SWAP1 LOG3 POP POP PUSH0 PUSH1 0x6 PUSH0 PUSH2 0x100 EXP DUP2 SLOAD DUP2 PUSH1 0xFF MUL NOT AND SWAP1 DUP4 ISZERO ISZERO MUL OR SWAP1 SSTORE POP JUMP JUMPDEST PUSH0 PUSH1 0x1 PUSH0 DUP5 PUSH20 0xFFFFFFFFFFFFFFFFFFFFFFFFFFFFFFFFFFFFFFFF AND PUSH20 0xFFFFFFFFFFFFFFFFFFFFFFFFFFFFFFFFFFFFFFFF AND DUP2 MSTORE PUSH1 0x20 ADD SWAP1 DUP2 MSTORE PUSH1 0x20 ADD PUSH0 KECCAK256 PUSH0 DUP4 PUSH20 0xFFFFFFFFFFFFFFFFFFFFFFFFFFFFFFFFFFFFFFFF AND PUSH20 0xFFFFFFFFFFFFFFFFFFFFFFFFFFFFFFFFFFFFFFFF AND DUP2 MSTORE PUSH1 0x20 ADD SWAP1 DUP2 MSTORE PUSH1 0x20 ADD PUSH0 KECCAK256 SLOAD SWAP1 POP SWAP3 SWAP2 POP POP JUMP JUMPDEST PUSH0 PUSH0 PUSH2 0x15CC DUP5 PUSH2 0x1A3F JUMP JUMPDEST SWAP1 POP PUSH0 PUSH0 PUSH0 PUSH0 DUP5 PUSH20 0xFFFFFFFFFFFFFFFFFFFFFFFFFFFFFFFFFFFFFFFF AND PUSH4 0xFEAF968C PUSH1 0x40 MLOAD DUP2 PUSH4 0xFFFFFFFF AND PUSH1 0xE0 SHL DUP2 MSTORE PUSH1 0x4 ADD PUSH1 0xA0 PUSH1 0x40 MLOAD DUP1 DUP4 SUB DUP2 DUP7 GAS STATICCALL ISZERO DUP1 ISZERO PUSH2 0x161B JUMPI RETURNDATASIZE PUSH0 PUSH0 RETURNDATACOPY RETURNDATASIZE PUSH0 REVERT JUMPDEST POP POP POP POP PUSH1 0x40 MLOAD RETURNDATASIZE PUSH1 0x1F NOT PUSH1 0x1F DUP3 ADD AND DUP3 ADD DUP1 PUSH1 0x40 MSTORE POP DUP2 ADD SWAP1 PUSH2 0x163F SWAP2 SWAP1 PUSH2 0x20C7 JUMP JUMPDEST SWAP5 POP SWAP5 POP POP SWAP4 POP SWAP4 POP PUSH0 DUP6 PUSH20 0xFFFFFFFFFFFFFFFFFFFFFFFFFFFFFFFFFFFFFFFF AND PUSH4 0x313CE567 PUSH1 0x40 MLOAD DUP2 PUSH4 0xFFFFFFFF AND PUSH1 0xE0 SHL DUP2 MSTORE PUSH1 0x4 ADD PUSH1 0x20 PUSH1 0x40 MLOAD DUP1 DUP4 SUB DUP2 DUP7 GAS STATICCALL ISZERO DUP1 ISZERO PUSH2 0x1692 JUMPI RETURNDATASIZE PUSH0 PUSH0 RETURNDATACOPY RETURNDATASIZE PUSH0 REVERT JUMPDEST POP POP POP POP PUSH1 0x40 MLOAD RETURNDATASIZE PUSH1 0x1F NOT PUSH1 0x1F DUP3 ADD AND DUP3 ADD DUP1 PUSH1 0x40 MSTORE POP DUP2 ADD SWAP1 PUSH2 0x16B6 SWAP2 SWAP1 PUSH2 0x2168 JUMP JUMPDEST SWAP1 POP PUSH0 DUP5 SGT PUSH2 0x1700 JUMPI DUP5 DUP4 DUP4 PUSH1 0x40 MLOAD PUSH32 0x433448100000000000000000000000000000000000000000000000000000000 DUP2 MSTORE PUSH1 0x4 ADD PUSH2 0x16F7 SWAP4 SWAP3 SWAP2 SWAP1 PUSH2 0x21A2 JUMP JUMPDEST PUSH1 0x40 MLOAD DUP1 SWAP2 SUB SWAP1 REVERT JUMPDEST PUSH0 DUP4 SUB PUSH2 0x1748 JUMPI DUP5 DUP4 DUP4 PUSH1 0x40 MLOAD PUSH32 0x433448100000000000000000000000000000000000000000000000000000000 DUP2 MSTORE PUSH1 0x4 ADD PUSH2 0x173F SWAP4 SWAP3 SWAP2 SWAP1 PUSH2 0x21A2 JUMP JUMPDEST PUSH1 0x40 MLOAD DUP1 SWAP2 SUB SWAP1 REVERT JUMPDEST DUP5 PUSH10 0xFFFFFFFFFFFFFFFFFFFF AND DUP3 PUSH10 0xFFFFFFFFFFFFFFFFFFFF AND LT ISZERO PUSH2 0x17A9 JUMPI DUP5 DUP4 DUP4 PUSH1 0x40 MLOAD PUSH32 0x433448100000000000000000000000000000000000000000000000000000000 DUP2 MSTORE PUSH1 0x4 ADD PUSH2 0x17A0 SWAP4 SWAP3 SWAP2 SWAP1 PUSH2 0x21A2 JUMP JUMPDEST PUSH1 0x40 MLOAD DUP1 SWAP2 SUB SWAP1 REVERT JUMPDEST PUSH0 PUSH1 0x12 SWAP1 POP PUSH0 PUSH20 0xFFFFFFFFFFFFFFFFFFFFFFFFFFFFFFFFFFFFFFFF AND DUP11 PUSH20 0xFFFFFFFFFFFFFFFFFFFFFFFFFFFFFFFFFFFFFFFF AND EQ PUSH2 0x185C JUMPI DUP10 PUSH20 0xFFFFFFFFFFFFFFFFFFFFFFFFFFFFFFFFFFFFFFFF AND PUSH4 0x313CE567 PUSH1 0x40 MLOAD DUP2 PUSH4 0xFFFFFFFF AND PUSH1 0xE0 SHL DUP2 MSTORE PUSH1 0x4 ADD PUSH1 0x20 PUSH1 0x40 MLOAD DUP1 DUP4 SUB DUP2 DUP7 GAS STATICCALL SWAP3 POP POP POP DUP1 ISZERO PUSH2 0x1849 JUMPI POP PUSH1 0x40 MLOAD RETURNDATASIZE PUSH1 0x1F NOT PUSH1 0x1F DUP3 ADD AND DUP3 ADD DUP1 PUSH1 0x40 MSTORE POP DUP2 ADD SWAP1 PUSH2 0x1846 SWAP2 SWAP1 PUSH2 0x2168 JUMP JUMPDEST PUSH1 0x1 JUMPDEST PUSH2 0x1856 JUMPI PUSH1 0x12 SWAP1 POP PUSH2 0x185B JUMP JUMPDEST DUP1 SWAP2 POP POP JUMPDEST JUMPDEST PUSH0 DUP10 DUP7 PUSH2 0x1869 SWAP2 SWAP1 PUSH2 0x21D7 JUMP JUMPDEST SWAP1 POP PUSH0 PUSH1 0x6 PUSH1 0xFF AND DUP5 DUP5 PUSH2 0x187D SWAP2 SWAP1 PUSH2 0x2218 JUMP JUMPDEST PUSH1 0xFF AND LT PUSH2 0x18CA JUMPI PUSH1 0x6 DUP5 DUP5 PUSH2 0x1893 SWAP2 SWAP1 PUSH2 0x2218 JUMP JUMPDEST PUSH2 0x189D SWAP2 SWAP1 PUSH2 0x224C JUMP JUMPDEST PUSH1 0xFF AND SWAP1 POP DUP1 PUSH1 0xA PUSH2 0x18AF SWAP2 SWAP1 PUSH2 0x23AF JUMP JUMPDEST DUP3 PUSH2 0x18BA SWAP2 SWAP1 PUSH2 0x2426 JUMP JUMPDEST SWAP10 POP POP POP POP POP POP POP POP POP POP PUSH2 0x190B JUMP JUMPDEST DUP4 DUP4 PUSH2 0x18D6 SWAP2 SWAP1 PUSH2 0x2218 JUMP JUMPDEST PUSH1 0x6 PUSH2 0x18E2 SWAP2 SWAP1 PUSH2 0x224C JUMP JUMPDEST PUSH1 0xFF AND SWAP1 POP DUP1 PUSH1 0xA PUSH2 0x18F4 SWAP2 SWAP1 PUSH2 0x23AF JUMP JUMPDEST DUP3 PUSH2 0x18FF SWAP2 SWAP1 PUSH2 0x21D7 JUMP JUMPDEST SWAP10 POP POP POP POP POP POP POP POP POP POP JUMPDEST SWAP3 SWAP2 POP POP JUMP JUMPDEST DUP1 ISZERO PUSH2 0x19AA JUMPI DUP2 PUSH1 0x1 PUSH0 DUP7 PUSH20 0xFFFFFFFFFFFFFFFFFFFFFFFFFFFFFFFFFFFFFFFF AND PUSH20 0xFFFFFFFFFFFFFFFFFFFFFFFFFFFFFFFFFFFFFFFF AND DUP2 MSTORE PUSH1 0x20 ADD SWAP1 DUP2 MSTORE PUSH1 0x20 ADD PUSH0 KECCAK256 PUSH0 DUP6 PUSH20 0xFFFFFFFFFFFFFFFFFFFFFFFFFFFFFFFFFFFFFFFF AND PUSH20 0xFFFFFFFFFFFFFFFFFFFFFFFFFFFFFFFFFFFFFFFF AND DUP2 MSTORE PUSH1 0x20 ADD SWAP1 DUP2 MSTORE PUSH1 0x20 ADD PUSH0 KECCAK256 PUSH0 DUP3 DUP3 SLOAD PUSH2 0x199E SWAP2 SWAP1 PUSH2 0x1E9B JUMP JUMPDEST SWAP3 POP POP DUP2 SWAP1 SSTORE POP PUSH2 0x1A39 JUMP JUMPDEST DUP2 PUSH1 0x1 PUSH0 DUP7 PUSH20 0xFFFFFFFFFFFFFFFFFFFFFFFFFFFFFFFFFFFFFFFF AND PUSH20 0xFFFFFFFFFFFFFFFFFFFFFFFFFFFFFFFFFFFFFFFF AND DUP2 MSTORE PUSH1 0x20 ADD SWAP1 DUP2 MSTORE PUSH1 0x20 ADD PUSH0 KECCAK256 PUSH0 DUP6 PUSH20 0xFFFFFFFFFFFFFFFFFFFFFFFFFFFFFFFFFFFFFFFF AND PUSH20 0xFFFFFFFFFFFFFFFFFFFFFFFFFFFFFFFFFFFFFFFF AND DUP2 MSTORE PUSH1 0x20 ADD SWAP1 DUP2 MSTORE PUSH1 0x20 ADD PUSH0 KECCAK256 PUSH0 DUP3 DUP3 SLOAD PUSH2 0x1A31 SWAP2 SWAP1 PUSH2 0x1FCD JUMP JUMPDEST SWAP3 POP POP DUP2 SWAP1 SSTORE POP JUMPDEST POP POP POP POP JUMP JUMPDEST PUSH0 PUSH0 PUSH1 0x2 PUSH0 DUP5 PUSH20 0xFFFFFFFFFFFFFFFFFFFFFFFFFFFFFFFFFFFFFFFF AND PUSH20 0xFFFFFFFFFFFFFFFFFFFFFFFFFFFFFFFFFFFFFFFF AND DUP2 MSTORE PUSH1 0x20 ADD SWAP1 DUP2 MSTORE PUSH1 0x20 ADD PUSH0 KECCAK256 PUSH0 SWAP1 SLOAD SWAP1 PUSH2 0x100 EXP SWAP1 DIV PUSH20 0xFFFFFFFFFFFFFFFFFFFFFFFFFFFFFFFFFFFFFFFF AND SWAP1 POP PUSH0 PUSH20 0xFFFFFFFFFFFFFFFFFFFFFFFFFFFFFFFFFFFFFFFF AND DUP2 PUSH20 0xFFFFFFFFFFFFFFFFFFFFFFFFFFFFFFFFFFFFFFFF AND SUB PUSH2 0x1AFC JUMPI PUSH32 0x0 SWAP2 POP POP PUSH2 0x1B01 JUMP JUMPDEST DUP1 SWAP2 POP POP JUMPDEST SWAP2 SWAP1 POP JUMP JUMPDEST PUSH0 PUSH0 REVERT JUMPDEST PUSH0 PUSH20 0xFFFFFFFFFFFFFFFFFFFFFFFFFFFFFFFFFFFFFFFF DUP3 AND SWAP1 POP SWAP2 SWAP1 POP JUMP JUMPDEST PUSH0 PUSH2 0x1B33 DUP3 PUSH2 0x1B0A JUMP JUMPDEST SWAP1 POP SWAP2 SWAP1 POP JUMP JUMPDEST PUSH2 0x1B43 DUP2 PUSH2 0x1B29 JUMP JUMPDEST DUP2 EQ PUSH2 0x1B4D JUMPI PUSH0 PUSH0 REVERT JUMPDEST POP JUMP JUMPDEST PUSH0 DUP2 CALLDATALOAD SWAP1 POP PUSH2 0x1B5E DUP2 PUSH2 0x1B3A JUMP JUMPDEST SWAP3 SWAP2 POP POP JUMP JUMPDEST PUSH0 PUSH1 0x20 DUP3 DUP5 SUB SLT ISZERO PUSH2 0x1B79 JUMPI PUSH2 0x1B78 PUSH2 0x1B06 JUMP JUMPDEST JUMPDEST PUSH0 PUSH2 0x1B86 DUP5 DUP3 DUP6 ADD PUSH2 0x1B50 JUMP JUMPDEST SWAP2 POP POP SWAP3 SWAP2 POP POP JUMP JUMPDEST PUSH0 DUP2 SWAP1 POP SWAP2 SWAP1 POP JUMP JUMPDEST PUSH2 0x1BA1 DUP2 PUSH2 0x1B8F JUMP JUMPDEST DUP3 MSTORE POP POP JUMP JUMPDEST PUSH0 PUSH1 0x20 DUP3 ADD SWAP1 POP PUSH2 0x1BBA PUSH0 DUP4 ADD DUP5 PUSH2 0x1B98 JUMP JUMPDEST SWAP3 SWAP2 POP POP JUMP JUMPDEST PUSH0 PUSH0 PUSH1 0x40 DUP4 DUP6 SUB SLT ISZERO PUSH2 0x1BD6 JUMPI PUSH2 0x1BD5 PUSH2 0x1B06 JUMP JUMPDEST JUMPDEST PUSH0 PUSH2 0x1BE3 DUP6 DUP3 DUP7 ADD PUSH2 0x1B50 JUMP JUMPDEST SWAP3 POP POP PUSH1 0x20 PUSH2 0x1BF4 DUP6 DUP3 DUP7 ADD PUSH2 0x1B50 JUMP JUMPDEST SWAP2 POP POP SWAP3 POP SWAP3 SWAP1 POP JUMP JUMPDEST PUSH2 0x1C07 DUP2 PUSH2 0x1B29 JUMP JUMPDEST DUP3 MSTORE POP POP JUMP JUMPDEST PUSH0 PUSH1 0x20 DUP3 ADD SWAP1 POP PUSH2 0x1C20 PUSH0 DUP4 ADD DUP5 PUSH2 0x1BFE JUMP JUMPDEST SWAP3 SWAP2 POP POP JUMP JUMPDEST PUSH2 0x1C2F DUP2 PUSH2 0x1B8F JUMP JUMPDEST DUP2 EQ PUSH2 0x1C39 JUMPI PUSH0 PUSH0 REVERT JUMPDEST POP JUMP JUMPDEST PUSH0 DUP2 CALLDATALOAD SWAP1 POP PUSH2 0x1C4A DUP2 PUSH2 0x1C26 JUMP JUMPDEST SWAP3 SWAP2 POP POP JUMP JUMPDEST PUSH0 PUSH0 PUSH1 0x40 DUP4 DUP6 SUB SLT ISZERO PUSH2 0x1C66 JUMPI PUSH2 0x1C65 PUSH2 0x1B06 JUMP JUMPDEST JUMPDEST PUSH0 PUSH2 0x1C73 DUP6 DUP3 DUP7 ADD PUSH2 0x1B50 JUMP JUMPDEST SWAP3 POP POP PUSH1 0x20 PUSH2 0x1C84 DUP6 DUP3 DUP7 ADD PUSH2 0x1C3C JUMP JUMPDEST SWAP2 POP POP SWAP3 POP SWAP3 SWAP1 POP JUMP JUMPDEST PUSH0 DUP2 SWAP1 POP SWAP2 SWAP1 POP JUMP JUMPDEST PUSH0 PUSH2 0x1CB1 PUSH2 0x1CAC PUSH2 0x1CA7 DUP5 PUSH2 0x1B0A JUMP JUMPDEST PUSH2 0x1C8E JUMP JUMPDEST PUSH2 0x1B0A JUMP JUMPDEST SWAP1 POP SWAP2 SWAP1 POP JUMP JUMPDEST PUSH0 PUSH2 0x1CC2 DUP3 PUSH2 0x1C97 JUMP JUMPDEST SWAP1 POP SWAP2 SWAP1 POP JUMP JUMPDEST PUSH0 PUSH2 0x1CD3 DUP3 PUSH2 0x1CB8 JUMP JUMPDEST SWAP1 POP SWAP2 SWAP1 POP JUMP JUMPDEST PUSH2 0x1CE3 DUP2 PUSH2 0x1CC9 JUMP JUMPDEST DUP3 MSTORE POP POP JUMP JUMPDEST PUSH0 PUSH1 0x20 DUP3 ADD SWAP1 POP PUSH2 0x1CFC PUSH0 DUP4 ADD DUP5 PUSH2 0x1CDA JUMP JUMPDEST SWAP3 SWAP2 POP POP JUMP JUMPDEST PUSH0 PUSH1 0xFF DUP3 AND SWAP1 POP SWAP2 SWAP1 POP JUMP JUMPDEST PUSH2 0x1D17 DUP2 PUSH2 0x1D02 JUMP JUMPDEST DUP3 MSTORE POP POP JUMP JUMPDEST PUSH0 PUSH1 0x20 DUP3 ADD SWAP1 POP PUSH2 0x1D30 PUSH0 DUP4 ADD DUP5 PUSH2 0x1D0E JUMP JUMPDEST SWAP3 SWAP2 POP POP JUMP JUMPDEST PUSH0 PUSH1 0x20 DUP3 DUP5 SUB SLT ISZERO PUSH2 0x1D4B JUMPI PUSH2 0x1D4A PUSH2 0x1B06 JUMP JUMPDEST JUMPDEST PUSH0 PUSH2 0x1D58 DUP5 DUP3 DUP6 ADD PUSH2 0x1C3C JUMP JUMPDEST SWAP2 POP POP SWAP3 SWAP2 POP POP JUMP JUMPDEST PUSH0 DUP3 DUP3 MSTORE PUSH1 0x20 DUP3 ADD SWAP1 POP SWAP3 SWAP2 POP POP JUMP JUMPDEST PUSH32 0x7A65726F206F776E657200000000000000000000000000000000000000000000 PUSH0 DUP3 ADD MSTORE POP JUMP JUMPDEST PUSH0 PUSH2 0x1DA5 PUSH1 0xA DUP4 PUSH2 0x1D61 JUMP JUMPDEST SWAP2 POP PUSH2 0x1DB0 DUP3 PUSH2 0x1D71 JUMP JUMPDEST PUSH1 0x20 DUP3 ADD SWAP1 POP SWAP2 SWAP1 POP JUMP JUMPDEST PUSH0 PUSH1 0x20 DUP3 ADD SWAP1 POP DUP2 DUP2 SUB PUSH0 DUP4 ADD MSTORE PUSH2 0x1DD2 DUP2 PUSH2 0x1D99 JUMP JUMPDEST SWAP1 POP SWAP2 SWAP1 POP JUMP JUMPDEST PUSH0 PUSH1 0x60 DUP3 ADD SWAP1 POP PUSH2 0x1DEC PUSH0 DUP4 ADD DUP7 PUSH2 0x1BFE JUMP JUMPDEST PUSH2 0x1DF9 PUSH1 0x20 DUP4 ADD DUP6 PUSH2 0x1BFE JUMP JUMPDEST PUSH2 0x1E06 PUSH1 0x40 DUP4 ADD DUP5 PUSH2 0x1B98 JUMP JUMPDEST SWAP5 SWAP4 POP POP POP POP JUMP JUMPDEST PUSH0 DUP2 ISZERO ISZERO SWAP1 POP SWAP2 SWAP1 POP JUMP JUMPDEST PUSH2 0x1E22 DUP2 PUSH2 0x1E0E JUMP JUMPDEST DUP2 EQ PUSH2 0x1E2C JUMPI PUSH0 PUSH0 REVERT JUMPDEST POP JUMP JUMPDEST PUSH0 DUP2 MLOAD SWAP1 POP PUSH2 0x1E3D DUP2 PUSH2 0x1E19 JUMP JUMPDEST SWAP3 SWAP2 POP POP JUMP JUMPDEST PUSH0 PUSH1 0x20 DUP3 DUP5 SUB SLT ISZERO PUSH2 0x1E58 JUMPI PUSH2 0x1E57 PUSH2 0x1B06 JUMP JUMPDEST JUMPDEST PUSH0 PUSH2 0x1E65 DUP5 DUP3 DUP6 ADD PUSH2 0x1E2F JUMP JUMPDEST SWAP2 POP POP SWAP3 SWAP2 POP POP JUMP JUMPDEST PUSH32 0x4E487B7100000000000000000000000000000000000000000000000000000000 PUSH0 MSTORE PUSH1 0x11 PUSH1 0x4 MSTORE PUSH1 0x24 PUSH0 REVERT JUMPDEST PUSH0 PUSH2 0x1EA5 DUP3 PUSH2 0x1B8F JUMP JUMPDEST SWAP2 POP PUSH2 0x1EB0 DUP4 PUSH2 0x1B8F JUMP JUMPDEST SWAP3 POP DUP3 DUP3 ADD SWAP1 POP DUP1 DUP3 GT ISZERO PUSH2 0x1EC8 JUMPI PUSH2 0x1EC7 PUSH2 0x1E6E JUMP JUMPDEST JUMPDEST SWAP3 SWAP2 POP POP JUMP JUMPDEST PUSH0 PUSH1 0x40 DUP3 ADD SWAP1 POP PUSH2 0x1EE1 PUSH0 DUP4 ADD DUP6 PUSH2 0x1BFE JUMP JUMPDEST PUSH2 0x1EEE PUSH1 0x20 DUP4 ADD DUP5 PUSH2 0x1B98 JUMP JUMPDEST SWAP4 SWAP3 POP POP POP JUMP JUMPDEST PUSH0 PUSH1 0x60 DUP3 ADD SWAP1 POP PUSH2 0x1F08 PUSH0 DUP4 ADD DUP7 PUSH2 0x1B98 JUMP JUMPDEST PUSH2 0x1F15 PUSH1 0x20 DUP4 ADD DUP6 PUSH2 0x1B98 JUMP JUMPDEST PUSH2 0x1F22 PUSH1 0x40 DUP4 ADD DUP5 PUSH2 0x1B98 JUMP JUMPDEST SWAP5 SWAP4 POP POP POP POP JUMP JUMPDEST PUSH0 PUSH2 0x1F34 DUP3 PUSH2 0x1B8F JUMP JUMPDEST SWAP2 POP PUSH32 0xFFFFFFFFFFFFFFFFFFFFFFFFFFFFFFFFFFFFFFFFFFFFFFFFFFFFFFFFFFFFFFFF DUP3 SUB PUSH2 0x1F66 JUMPI PUSH2 0x1F65 PUSH2 0x1E6E JUMP JUMPDEST JUMPDEST PUSH1 0x1 DUP3 ADD SWAP1 POP SWAP2 SWAP1 POP JUMP JUMPDEST PUSH0 PUSH1 0x40 DUP3 ADD SWAP1 POP PUSH2 0x1F84 PUSH0 DUP4 ADD DUP6 PUSH2 0x1B98 JUMP JUMPDEST PUSH2 0x1F91 PUSH1 0x20 DUP4 ADD DUP5 PUSH2 0x1B98 JUMP JUMPDEST SWAP4 SWAP3 POP POP POP JUMP JUMPDEST PUSH0 PUSH1 0x60 DUP3 ADD SWAP1 POP PUSH2 0x1FAB PUSH0 DUP4 ADD DUP7 PUSH2 0x1BFE JUMP JUMPDEST PUSH2 0x1FB8 PUSH1 0x20 DUP4 ADD DUP6 PUSH2 0x1B98 JUMP JUMPDEST PUSH2 0x1FC5 PUSH1 0x40 DUP4 ADD DUP5 PUSH2 0x1B98 JUMP JUMPDEST SWAP5 SWAP4 POP POP POP POP JUMP JUMPDEST PUSH0 PUSH2 0x1FD7 DUP3 PUSH2 0x1B8F JUMP JUMPDEST SWAP2 POP PUSH2 0x1FE2 DUP4 PUSH2 0x1B8F JUMP JUMPDEST SWAP3 POP DUP3 DUP3 SUB SWAP1 POP DUP2 DUP2 GT ISZERO PUSH2 0x1FFA JUMPI PUSH2 0x1FF9 PUSH2 0x1E6E JUMP JUMPDEST JUMPDEST SWAP3 SWAP2 POP POP JUMP JUMPDEST PUSH0 DUP2 SWAP1 POP SWAP3 SWAP2 POP POP JUMP JUMPDEST POP JUMP JUMPDEST PUSH0 PUSH2 0x2018 PUSH0 DUP4 PUSH2 0x2000 JUMP JUMPDEST SWAP2 POP PUSH2 0x2023 DUP3 PUSH2 0x200A JUMP JUMPDEST PUSH0 DUP3 ADD SWAP1 POP SWAP2 SWAP1 POP JUMP JUMPDEST PUSH0 PUSH2 0x2037 DUP3 PUSH2 0x200D JUMP JUMPDEST SWAP2 POP DUP2 SWAP1 POP SWAP2 SWAP1 POP JUMP JUMPDEST PUSH0 PUSH10 0xFFFFFFFFFFFFFFFFFFFF DUP3 AND SWAP1 POP SWAP2 SWAP1 POP JUMP JUMPDEST PUSH2 0x205F DUP2 PUSH2 0x2041 JUMP JUMPDEST DUP2 EQ PUSH2 0x2069 JUMPI PUSH0 PUSH0 REVERT JUMPDEST POP JUMP JUMPDEST PUSH0 DUP2 MLOAD SWAP1 POP PUSH2 0x207A DUP2 PUSH2 0x2056 JUMP JUMPDEST SWAP3 SWAP2 POP POP JUMP JUMPDEST PUSH0 DUP2 SWAP1 POP SWAP2 SWAP1 POP JUMP JUMPDEST PUSH2 0x2092 DUP2 PUSH2 0x2080 JUMP JUMPDEST DUP2 EQ PUSH2 0x209C JUMPI PUSH0 PUSH0 REVERT JUMPDEST POP JUMP JUMPDEST PUSH0 DUP2 MLOAD SWAP1 POP PUSH2 0x20AD DUP2 PUSH2 0x2089 JUMP JUMPDEST SWAP3 SWAP2 POP POP JUMP JUMPDEST PUSH0 DUP2 MLOAD SWAP1 POP PUSH2 0x20C1 DUP2 PUSH2 0x1C26 JUMP JUMPDEST SWAP3 SWAP2 POP POP JUMP JUMPDEST PUSH0 PUSH0 PUSH0 PUSH0 PUSH0 PUSH1 0xA0 DUP7 DUP9 SUB SLT ISZERO PUSH2 0x20E0 JUMPI PUSH2 0x20DF PUSH2 0x1B06 JUMP JUMPDEST JUMPDEST PUSH0 PUSH2 0x20ED DUP9 DUP3 DUP10 ADD PUSH2 0x206C JUMP JUMPDEST SWAP6 POP POP PUSH1 0x20 PUSH2 0x20FE DUP9 DUP3 DUP10 ADD PUSH2 0x209F JUMP JUMPDEST SWAP5 POP POP PUSH1 0x40 PUSH2 0x210F DUP9 DUP3 DUP10 ADD PUSH2 0x20B3 JUMP JUMPDEST SWAP4 POP POP PUSH1 0x60 PUSH2 0x2120 DUP9 DUP3 DUP10 ADD PUSH2 0x20B3 JUMP JUMPDEST SWAP3 POP POP PUSH1 0x80 PUSH2 0x2131 DUP9 DUP3 DUP10 ADD PUSH2 0x206C JUMP JUMPDEST SWAP2 POP POP SWAP3 SWAP6 POP SWAP3 SWAP6 SWAP1 SWAP4 POP JUMP JUMPDEST PUSH2 0x2147 DUP2 PUSH2 0x1D02 JUMP JUMPDEST DUP2 EQ PUSH2 0x2151 JUMPI PUSH0 PUSH0 REVERT JUMPDEST POP JUMP JUMPDEST PUSH0 DUP2 MLOAD SWAP1 POP PUSH2 0x2162 DUP2 PUSH2 0x213E JUMP JUMPDEST SWAP3 SWAP2 POP POP JUMP JUMPDEST PUSH0 PUSH1 0x20 DUP3 DUP5 SUB SLT ISZERO PUSH2 0x217D JUMPI PUSH2 0x217C PUSH2 0x1B06 JUMP JUMPDEST JUMPDEST PUSH0 PUSH2 0x218A DUP5 DUP3 DUP6 ADD PUSH2 0x2154 JUMP JUMPDEST SWAP2 POP POP SWAP3 SWAP2 POP POP JUMP JUMPDEST PUSH2 0x219C DUP2 PUSH2 0x2041 JUMP JUMPDEST DUP3 MSTORE POP POP JUMP JUMPDEST PUSH0 PUSH1 0x60 DUP3 ADD SWAP1 POP PUSH2 0x21B5 PUSH0 DUP4 ADD DUP7 PUSH2 0x2193 JUMP JUMPDEST PUSH2 0x21C2 PUSH1 0x20 DUP4 ADD DUP6 PUSH2 0x1B98 JUMP JUMPDEST PUSH2 0x21CF PUSH1 0x40 DUP4 ADD DUP5 PUSH2 0x2193 JUMP JUMPDEST SWAP5 SWAP4 POP POP POP POP JUMP JUMPDEST PUSH0 PUSH2 0x21E1 DUP3 PUSH2 0x1B8F JUMP JUMPDEST SWAP2 POP PUSH2 0x21EC DUP4 PUSH2 0x1B8F JUMP JUMPDEST SWAP3 POP DUP3 DUP3 MUL PUSH2 0x21FA DUP2 PUSH2 0x1B8F JUMP JUMPDEST SWAP2 POP DUP3 DUP3 DIV DUP5 EQ DUP4 ISZERO OR PUSH2 0x2211 JUMPI PUSH2 0x2210 PUSH2 0x1E6E JUMP JUMPDEST JUMPDEST POP SWAP3 SWAP2 POP POP JUMP JUMPDEST PUSH0 PUSH2 0x2222 DUP3 PUSH2 0x1D02 JUMP JUMPDEST SWAP2 POP PUSH2 0x222D DUP4 PUSH2 0x1D02 JUMP JUMPDEST SWAP3 POP DUP3 DUP3 ADD SWAP1 POP PUSH1 0xFF DUP2 GT ISZERO PUSH2 0x2246 JUMPI PUSH2 0x2245 PUSH2 0x1E6E JUMP JUMPDEST JUMPDEST SWAP3 SWAP2 POP POP JUMP JUMPDEST PUSH0 PUSH2 0x2256 DUP3 PUSH2 0x1D02 JUMP JUMPDEST SWAP2 POP PUSH2 0x2261 DUP4 PUSH2 0x1D02 JUMP JUMPDEST SWAP3 POP DUP3 DUP3 SUB SWAP1 POP PUSH1 0xFF DUP2 GT ISZERO PUSH2 0x227A JUMPI PUSH2 0x2279 PUSH2 0x1E6E JUMP JUMPDEST JUMPDEST SWAP3 SWAP2 POP POP JUMP JUMPDEST PUSH0 DUP2 PUSH1 0x1 SHR SWAP1 POP SWAP2 SWAP1 POP JUMP JUMPDEST PUSH0 PUSH0 DUP3 SWAP2 POP DUP4 SWAP1 POP JUMPDEST PUSH1 0x1 DUP6 GT ISZERO PUSH2 0x22D5 JUMPI DUP1 DUP7 DIV DUP2 GT ISZERO PUSH2 0x22B1 JUMPI PUSH2 0x22B0 PUSH2 0x1E6E JUMP JUMPDEST JUMPDEST PUSH1 0x1 DUP6 AND ISZERO PUSH2 0x22C0 JUMPI DUP1 DUP3 MUL SWAP2 POP JUMPDEST DUP1 DUP2 MUL SWAP1 POP PUSH2 0x22CE DUP6 PUSH2 0x2280 JUMP JUMPDEST SWAP5 POP PUSH2 0x2295 JUMP JUMPDEST SWAP5 POP SWAP5 SWAP3 POP POP POP JUMP JUMPDEST PUSH0 DUP3 PUSH2 0x22ED JUMPI PUSH1 0x1 SWAP1 POP PUSH2 0x23A8 JUMP JUMPDEST DUP2 PUSH2 0x22FA JUMPI PUSH0 SWAP1 POP PUSH2 0x23A8 JUMP JUMPDEST DUP2 PUSH1 0x1 DUP2 EQ PUSH2 0x2310 JUMPI PUSH1 0x2 DUP2 EQ PUSH2 0x231A JUMPI PUSH2 0x2349 JUMP JUMPDEST PUSH1 0x1 SWAP2 POP POP PUSH2 0x23A8 JUMP JUMPDEST PUSH1 0xFF DUP5 GT ISZERO PUSH2 0x232C JUMPI PUSH2 0x232B PUSH2 0x1E6E JUMP JUMPDEST JUMPDEST DUP4 PUSH1 0x2 EXP SWAP2 POP DUP5 DUP3 GT ISZERO PUSH2 0x2343 JUMPI PUSH2 0x2342 PUSH2 0x1E6E JUMP JUMPDEST JUMPDEST POP PUSH2 0x23A8 JUMP JUMPDEST POP PUSH1 0x20 DUP4 LT PUSH2 0x133 DUP4 LT AND PUSH1 0x4E DUP5 LT PUSH1 0xB DUP5 LT AND OR ISZERO PUSH2 0x237E JUMPI DUP3 DUP3 EXP SWAP1 POP DUP4 DUP2 GT ISZERO PUSH2 0x2379 JUMPI PUSH2 0x2378 PUSH2 0x1E6E JUMP JUMPDEST JUMPDEST PUSH2 0x23A8 JUMP JUMPDEST PUSH2 0x238B DUP5 DUP5 DUP5 PUSH1 0x1 PUSH2 0x228C JUMP JUMPDEST SWAP3 POP SWAP1 POP DUP2 DUP5 DIV DUP2 GT ISZERO PUSH2 0x23A2 JUMPI PUSH2 0x23A1 PUSH2 0x1E6E JUMP JUMPDEST JUMPDEST DUP2 DUP2 MUL SWAP1 POP JUMPDEST SWAP4 SWAP3 POP POP POP JUMP JUMPDEST PUSH0 PUSH2 0x23B9 DUP3 PUSH2 0x1B8F JUMP JUMPDEST SWAP2 POP PUSH2 0x23C4 DUP4 PUSH2 0x1B8F JUMP JUMPDEST SWAP3 POP PUSH2 0x23F1 PUSH32 0xFFFFFFFFFFFFFFFFFFFFFFFFFFFFFFFFFFFFFFFFFFFFFFFFFFFFFFFFFFFFFFFF DUP5 DUP5 PUSH2 0x22DE JUMP JUMPDEST SWAP1 POP SWAP3 SWAP2 POP POP JUMP JUMPDEST PUSH32 0x4E487B7100000000000000000000000000000000000000000000000000000000 PUSH0 MSTORE PUSH1 0x12 PUSH1 0x4 MSTORE PUSH1 0x24 PUSH0 REVERT JUMPDEST PUSH0 PUSH2 0x2430 DUP3 PUSH2 0x1B8F JUMP JUMPDEST SWAP2 POP PUSH2 0x243B DUP4 PUSH2 0x1B8F JUMP JUMPDEST SWAP3 POP DUP3 PUSH2 0x244B JUMPI PUSH2 0x244A PUSH2 0x23F9 JUMP JUMPDEST JUMPDEST DUP3 DUP3 DIV SWAP1 POP SWAP3 SWAP2 POP POP JUMP INVALID LOG2 PUSH5 0x6970667358 0x22 SLT KECCAK256 0x4C PUSH23 0xA4C31EED04BA2C0246B57215546081ECB75C0A443A8A8F DUP7 DUP9 0xF CALLDATALOAD 0x4D PUSH19 0x3B64736F6C634300081E003300000000000000 "
				},
				"gasEstimates": {
					"creation": {
						"codeDepositCost": "1871200",
						"executionCost": "infinite",
						"totalCost": "infinite"
					},
					"external": {
						"": "200",
						"INTERNAL_DECIMALS()": "376",
						"balanceOf(address,address)": "infinite",
						"bankCapUsd()": "infinite",
						"defaultPriceFeed()": "infinite",
						"depositERC20(address,uint256)": "infinite",
						"depositETH()": "infinite",
						"owner()": "2597",
						"priceFeeds(address)": "infinite",
						"setOwner(address)": "30631",
						"setPriceFeed(address,address)": "infinite",
						"totalDepositCount()": "2514",
						"totalDepositedUsd()": "2448",
						"totalWithdrawCount()": "2471",
						"withdrawERC20(address,uint256)": "infinite",
						"withdrawETH(uint256)": "infinite",
						"withdrawLimitUsd()": "infinite"
					},
					"internal": {
						"_convertToUsd(address,uint256)": "infinite",
						"_getFeed(address)": "infinite",
						"_updateBalance(address,address,uint256,bool)": "infinite"
					}
				},
				"methodIdentifiers": {
					"INTERNAL_DECIMALS()": "be406e6c",
					"balanceOf(address,address)": "f7888aec",
					"bankCapUsd()": "ac4543ba",
					"defaultPriceFeed()": "c1636bc9",
					"depositERC20(address,uint256)": "97feb926",
					"depositETH()": "f6326fb3",
					"owner()": "8da5cb5b",
					"priceFeeds(address)": "9dcb511a",
					"setOwner(address)": "13af4035",
					"setPriceFeed(address,address)": "76e11286",
					"totalDepositCount()": "d6343867",
					"totalDepositedUsd()": "b7b0ffd8",
					"totalWithdrawCount()": "503e7042",
					"withdrawERC20(address,uint256)": "a1db9782",
					"withdrawETH(uint256)": "f14210a6",
					"withdrawLimitUsd()": "e243df20"
				}
			},
			"storageLayout": {
				"storage": [
					{
						"astId": 109,
						"contract": "src/KipuBankV2.sol:KipuBankV2",
						"label": "owner",
						"offset": 0,
						"slot": "0",
						"type": "t_address"
					},
					{
						"astId": 116,
						"contract": "src/KipuBankV2.sol:KipuBankV2",
						"label": "balances",
						"offset": 0,
						"slot": "1",
						"type": "t_mapping(t_address,t_mapping(t_address,t_uint256))"
					},
					{
						"astId": 122,
						"contract": "src/KipuBankV2.sol:KipuBankV2",
						"label": "priceFeeds",
						"offset": 0,
						"slot": "2",
						"type": "t_mapping(t_address,t_contract(AggregatorV3Interface)92)"
					},
					{
						"astId": 125,
						"contract": "src/KipuBankV2.sol:KipuBankV2",
						"label": "totalDepositedUsd",
						"offset": 0,
						"slot": "3",
						"type": "t_uint256"
					},
					{
						"astId": 128,
						"contract": "src/KipuBankV2.sol:KipuBankV2",
						"label": "totalDepositCount",
						"offset": 0,
						"slot": "4",
						"type": "t_uint256"
					},
					{
						"astId": 130,
						"contract": "src/KipuBankV2.sol:KipuBankV2",
						"label": "totalWithdrawCount",
						"offset": 0,
						"slot": "5",
						"type": "t_uint256"
					},
					{
						"astId": 219,
						"contract": "src/KipuBankV2.sol:KipuBankV2",
						"label": "locked",
						"offset": 0,
						"slot": "6",
						"type": "t_bool"
					}
				],
				"types": {
					"t_address": {
						"encoding": "inplace",
						"label": "address",
						"numberOfBytes": "20"
					},
					"t_bool": {
						"encoding": "inplace",
						"label": "bool",
						"numberOfBytes": "1"
					},
					"t_contract(AggregatorV3Interface)92": {
						"encoding": "inplace",
						"label": "contract AggregatorV3Interface",
						"numberOfBytes": "20"
					},
					"t_mapping(t_address,t_contract(AggregatorV3Interface)92)": {
						"encoding": "mapping",
						"key": "t_address",
						"label": "mapping(address => contract AggregatorV3Interface)",
						"numberOfBytes": "32",
						"value": "t_contract(AggregatorV3Interface)92"
					},
					"t_mapping(t_address,t_mapping(t_address,t_uint256))": {
						"encoding": "mapping",
						"key": "t_address",
						"label": "mapping(address => mapping(address => uint256))",
						"numberOfBytes": "32",
						"value": "t_mapping(t_address,t_uint256)"
					},
					"t_mapping(t_address,t_uint256)": {
						"encoding": "mapping",
						"key": "t_address",
						"label": "mapping(address => uint256)",
						"numberOfBytes": "32",
						"value": "t_uint256"
					},
					"t_uint256": {
						"encoding": "inplace",
						"label": "uint256",
						"numberOfBytes": "32"
					}
				}
			},
			"userdoc": {
				"errors": {
					"ErrBankCapExceeded(uint256,uint256,uint256)": [
						{
							"notice": "Se lanza cuando el intento de depósito excede el límite global (USD internal)"
						}
					],
					"ErrInsufficientBalance(address,uint256,uint256)": [
						{
							"notice": "Se lanza cuando el usuario solicita más de lo que tiene"
						}
					],
					"ErrReentrantCall()": [
						{
							"notice": "Se lanza en caso de reentrancy detectado"
						}
					],
					"ErrTransferFailed(address,address,uint256)": [
						{
							"notice": "Se lanza cuando una transferencia falla (ERC20 o ETH)"
						}
					],
					"ErrUnauthorized()": [
						{
							"notice": "Se lanza cuando un caller no está autorizado"
						}
					],
					"ErrWithdrawLimitExceeded(uint256,uint256)": [
						{
							"notice": "Se lanza cuando el retiro (USD) excede el límite por transacción"
						}
					],
					"ErrZeroAmount()": [
						{
							"notice": "Se lanza cuando el argumento amount es cero"
						}
					],
					"InvalidConstructorParams()": [
						{
							"notice": "Parámetros inválidos del constructor"
						}
					],
					"InvalidOracleResponse(uint80,uint256,uint80)": [
						{
							"notice": "Se lanza cuando el oráculo devuelve datos inválidos"
						}
					]
				},
				"kind": "user",
				"methods": {
					"INTERNAL_DECIMALS()": {
						"notice": "número de decimales que adoptamos para la contabilidad interna (USDC style)"
					},
					"balanceOf(address,address)": {
						"notice": "Obtener saldo del usuario para un token"
					},
					"bankCapUsd()": {
						"notice": "Límite global del banco en valor USD (con INTERNAL_DECIMALS)"
					},
					"defaultPriceFeed()": {
						"notice": "Oráculo por defecto (ej. ETH/USD) usado cuando token == address(0)"
					},
					"depositERC20(address,uint256)": {
						"notice": "Depositar ERC20. El usuario debe aprobar antes."
					},
					"depositETH()": {
						"notice": "Depositar ETH (usar address(0) para representar ETH internamente)"
					},
					"owner()": {
						"notice": "owner simple (control administrativo)"
					},
					"priceFeeds(address)": {
						"notice": "mapping token => price feed aggregator (Chainlink)"
					},
					"setOwner(address)": {
						"notice": "Cambiar owner"
					},
					"setPriceFeed(address,address)": {
						"notice": "Asignar/actualizar price feed para un token (token == address(0) para ETH no debería cambiarse)"
					},
					"totalDepositCount()": {
						"notice": "contadores"
					},
					"totalDepositedUsd()": {
						"notice": "total depositado en USD (internal decimals) — aproximado en tiempo real según conversiones realizadas"
					},
					"withdrawERC20(address,uint256)": {
						"notice": "Retirar ERC20 token"
					},
					"withdrawETH(uint256)": {
						"notice": "Retirar ETH (address(0))"
					},
					"withdrawLimitUsd()": {
						"notice": "Límite de retiro por transacción expresado en USD (con INTERNAL_DECIMALS)"
					}
				},
				"version": 1
			}
		}
	}
}