{
	"src/KipuBankV3.sol": {
		"KipuBankV3": {
			"abi": [
				{
					"inputs": [
						{
							"internalType": "address",
							"name": "_usdc",
							"type": "address"
						},
						{
							"internalType": "address",
							"name": "_router",
							"type": "address"
						},
						{
							"internalType": "uint256",
							"name": "_bankCapUsd",
							"type": "uint256"
						}
					],
					"stateMutability": "nonpayable",
					"type": "constructor"
				},
				{
					"inputs": [
						{
							"internalType": "uint256",
							"name": "attempted",
							"type": "uint256"
						},
						{
							"internalType": "uint256",
							"name": "total",
							"type": "uint256"
						},
						{
							"internalType": "uint256",
							"name": "cap",
							"type": "uint256"
						}
					],
					"name": "BankCapExceeded",
					"type": "error"
				},
				{
					"inputs": [
						{
							"internalType": "uint256",
							"name": "available",
							"type": "uint256"
						},
						{
							"internalType": "uint256",
							"name": "requested",
							"type": "uint256"
						}
					],
					"name": "InsufficientBalance",
					"type": "error"
				},
				{
					"inputs": [],
					"name": "InvalidPath",
					"type": "error"
				},
				{
					"inputs": [],
					"name": "NotOwner",
					"type": "error"
				},
				{
					"inputs": [],
					"name": "Reentrant",
					"type": "error"
				},
				{
					"inputs": [],
					"name": "SwapFailed",
					"type": "error"
				},
				{
					"inputs": [],
					"name": "ZeroAmount",
					"type": "error"
				},
				{
					"anonymous": false,
					"inputs": [
						{
							"indexed": true,
							"internalType": "address",
							"name": "user",
							"type": "address"
						},
						{
							"indexed": true,
							"internalType": "address",
							"name": "tokenIn",
							"type": "address"
						},
						{
							"indexed": false,
							"internalType": "uint256",
							"name": "amountIn",
							"type": "uint256"
						},
						{
							"indexed": false,
							"internalType": "uint256",
							"name": "usdcReceived",
							"type": "uint256"
						}
					],
					"name": "DepositConverted",
					"type": "event"
				},
				{
					"anonymous": false,
					"inputs": [
						{
							"indexed": true,
							"internalType": "address",
							"name": "user",
							"type": "address"
						},
						{
							"indexed": false,
							"internalType": "uint256",
							"name": "amountUsdc",
							"type": "uint256"
						}
					],
					"name": "DepositUSDC",
					"type": "event"
				},
				{
					"anonymous": false,
					"inputs": [
						{
							"indexed": true,
							"internalType": "address",
							"name": "oldOwner",
							"type": "address"
						},
						{
							"indexed": true,
							"internalType": "address",
							"name": "newOwner",
							"type": "address"
						}
					],
					"name": "OwnerChanged",
					"type": "event"
				},
				{
					"anonymous": false,
					"inputs": [
						{
							"indexed": true,
							"internalType": "address",
							"name": "user",
							"type": "address"
						},
						{
							"indexed": false,
							"internalType": "uint256",
							"name": "amountUsdc",
							"type": "uint256"
						}
					],
					"name": "WithdrawUSDC",
					"type": "event"
				},
				{
					"stateMutability": "payable",
					"type": "fallback"
				},
				{
					"inputs": [],
					"name": "USDC",
					"outputs": [
						{
							"internalType": "address",
							"name": "",
							"type": "address"
						}
					],
					"stateMutability": "view",
					"type": "function"
				},
				{
					"inputs": [],
					"name": "WETH",
					"outputs": [
						{
							"internalType": "address",
							"name": "",
							"type": "address"
						}
					],
					"stateMutability": "view",
					"type": "function"
				},
				{
					"inputs": [],
					"name": "bankCapUsd",
					"outputs": [
						{
							"internalType": "uint256",
							"name": "",
							"type": "uint256"
						}
					],
					"stateMutability": "view",
					"type": "function"
				},
				{
					"inputs": [
						{
							"internalType": "uint256",
							"name": "minUsdcOut",
							"type": "uint256"
						}
					],
					"name": "depositETHSwapToUSDC",
					"outputs": [],
					"stateMutability": "payable",
					"type": "function"
				},
				{
					"inputs": [
						{
							"internalType": "address",
							"name": "token",
							"type": "address"
						},
						{
							"internalType": "uint256",
							"name": "amountIn",
							"type": "uint256"
						},
						{
							"internalType": "uint256",
							"name": "minUsdcOut",
							"type": "uint256"
						}
					],
					"name": "depositTokenSwapToUSDC",
					"outputs": [],
					"stateMutability": "nonpayable",
					"type": "function"
				},
				{
					"inputs": [
						{
							"internalType": "uint256",
							"name": "amountUsdc",
							"type": "uint256"
						}
					],
					"name": "depositUSDC",
					"outputs": [],
					"stateMutability": "nonpayable",
					"type": "function"
				},
				{
					"inputs": [],
					"name": "owner",
					"outputs": [
						{
							"internalType": "address",
							"name": "",
							"type": "address"
						}
					],
					"stateMutability": "view",
					"type": "function"
				},
				{
					"inputs": [],
					"name": "router",
					"outputs": [
						{
							"internalType": "contract IUniswapV2Router02",
							"name": "",
							"type": "address"
						}
					],
					"stateMutability": "view",
					"type": "function"
				},
				{
					"inputs": [
						{
							"internalType": "address",
							"name": "newOwner",
							"type": "address"
						}
					],
					"name": "setOwner",
					"outputs": [],
					"stateMutability": "nonpayable",
					"type": "function"
				},
				{
					"inputs": [],
					"name": "totalUsdc",
					"outputs": [
						{
							"internalType": "uint256",
							"name": "",
							"type": "uint256"
						}
					],
					"stateMutability": "view",
					"type": "function"
				},
				{
					"inputs": [
						{
							"internalType": "address",
							"name": "user",
							"type": "address"
						}
					],
					"name": "usdcBalanceOf",
					"outputs": [
						{
							"internalType": "uint256",
							"name": "",
							"type": "uint256"
						}
					],
					"stateMutability": "view",
					"type": "function"
				},
				{
					"inputs": [
						{
							"internalType": "uint256",
							"name": "amountUsdc",
							"type": "uint256"
						}
					],
					"name": "withdrawUSDC",
					"outputs": [],
					"stateMutability": "nonpayable",
					"type": "function"
				},
				{
					"stateMutability": "payable",
					"type": "receive"
				}
			],
			"devdoc": {
				"kind": "dev",
				"methods": {
					"constructor": {
						"params": {
							"_bankCapUsd": "bank cap expressed in USDC smallest units (e.g. 100 * 10**6)",
							"_router": "UniswapV2 router address",
							"_usdc": "address of USDC token (accounting token)"
						}
					},
					"depositETHSwapToUSDC(uint256)": {
						"params": {
							"minUsdcOut": "minimum acceptable USDC out to protect from slippage (USDC smallest units)"
						}
					},
					"depositTokenSwapToUSDC(address,uint256,uint256)": {
						"params": {
							"amountIn": "amount of token being deposited (in token units)",
							"minUsdcOut": "minimum acceptable USDC out to protect from slippage (USDC smallest units)",
							"token": "token address to deposit"
						}
					},
					"depositUSDC(uint256)": {
						"params": {
							"amountUsdc": "amount of USDC in USDC smallest units (6 decimals)"
						}
					},
					"withdrawUSDC(uint256)": {
						"params": {
							"amountUsdc": "amount in USDC smallest units"
						}
					}
				},
				"version": 1
			},
			"evm": {
				"assembly": "    /* \"src/KipuBankV3.sol\":1970:10996  contract KipuBankV3 {... */\n  mstore(0x40, 0x0100)\n    /* \"src/KipuBankV3.sol\":3799:4258  constructor(address _usdc, address _router, uint256 _bankCapUsd) {... */\n  callvalue\n  dup1\n  iszero\n  tag_1\n  jumpi\n  revert(0x00, 0x00)\ntag_1:\n  pop\n  mload(0x40)\n  sub(codesize, bytecodeSize)\n  dup1\n  bytecodeSize\n  dup4\n  codecopy\n  dup2\n  dup2\n  add\n  0x40\n  mstore\n  dup2\n  add\n  swap1\n  tag_2\n  swap2\n  swap1\n  tag_3\n  jump\t// in\ntag_2:\n    /* \"src/KipuBankV3.sol\":3896:3897  0 */\n  0x00\n    /* \"src/KipuBankV3.sol\":3879:3898  _usdc == address(0) */\n  0xffffffffffffffffffffffffffffffffffffffff\n  and\n    /* \"src/KipuBankV3.sol\":3879:3884  _usdc */\n  dup4\n    /* \"src/KipuBankV3.sol\":3879:3898  _usdc == address(0) */\n  0xffffffffffffffffffffffffffffffffffffffff\n  and\n  eq\n    /* \"src/KipuBankV3.sol\":3879:3923  _usdc == address(0) || _router == address(0) */\n  dup1\n  tag_6\n  jumpi\n  pop\n    /* \"src/KipuBankV3.sol\":3921:3922  0 */\n  0x00\n    /* \"src/KipuBankV3.sol\":3902:3923  _router == address(0) */\n  0xffffffffffffffffffffffffffffffffffffffff\n  and\n    /* \"src/KipuBankV3.sol\":3902:3909  _router */\n  dup3\n    /* \"src/KipuBankV3.sol\":3902:3923  _router == address(0) */\n  0xffffffffffffffffffffffffffffffffffffffff\n  and\n  eq\n    /* \"src/KipuBankV3.sol\":3879:3923  _usdc == address(0) || _router == address(0) */\ntag_6:\n    /* \"src/KipuBankV3.sol\":3879:3943  _usdc == address(0) || _router == address(0) || _bankCapUsd == 0 */\n  dup1\n  tag_7\n  jumpi\n  pop\n    /* \"src/KipuBankV3.sol\":3942:3943  0 */\n  0x00\n    /* \"src/KipuBankV3.sol\":3927:3938  _bankCapUsd */\n  dup2\n    /* \"src/KipuBankV3.sol\":3927:3943  _bankCapUsd == 0 */\n  eq\n    /* \"src/KipuBankV3.sol\":3879:3943  _usdc == address(0) || _router == address(0) || _bankCapUsd == 0 */\ntag_7:\n    /* \"src/KipuBankV3.sol\":3875:3964  if (_usdc == address(0) || _router == address(0) || _bankCapUsd == 0) revert ZeroAmount() */\n  iszero\n  tag_8\n  jumpi\n    /* \"src/KipuBankV3.sol\":3952:3964  ZeroAmount() */\n  mload(0x40)\n  0x1f2a200500000000000000000000000000000000000000000000000000000000\n  dup2\n  mstore\n  0x04\n  add\n  mload(0x40)\n  dup1\n  swap2\n  sub\n  swap1\n  revert\n    /* \"src/KipuBankV3.sol\":3875:3964  if (_usdc == address(0) || _router == address(0) || _bankCapUsd == 0) revert ZeroAmount() */\ntag_8:\n    /* \"src/KipuBankV3.sol\":3988:3993  _usdc */\n  dup3\n    /* \"src/KipuBankV3.sol\":3981:3993  USDC = _usdc */\n  0xffffffffffffffffffffffffffffffffffffffff\n  and\n  0x80\n  dup2\n  0xffffffffffffffffffffffffffffffffffffffff\n  and\n  dup2\n  mstore\n  pop\n  pop\n    /* \"src/KipuBankV3.sol\":4032:4039  _router */\n  dup2\n    /* \"src/KipuBankV3.sol\":4004:4040  router = IUniswapV2Router02(_router) */\n  0xffffffffffffffffffffffffffffffffffffffff\n  and\n  0xa0\n  dup2\n  0xffffffffffffffffffffffffffffffffffffffff\n  and\n  dup2\n  mstore\n  pop\n  pop\n    /* \"src/KipuBankV3.sol\":4138:4180  0x7b79995e5f793A07Bc00c21412e50Ecae098E7f9 */\n  0x7b79995e5f793a07bc00c21412e50ecae098e7f9\n    /* \"src/KipuBankV3.sol\":4131:4180  WETH = 0x7b79995e5f793A07Bc00c21412e50Ecae098E7f9 */\n  0xffffffffffffffffffffffffffffffffffffffff\n  and\n  0xc0\n  dup2\n  0xffffffffffffffffffffffffffffffffffffffff\n  and\n  dup2\n  mstore\n  pop\n  pop\n    /* \"src/KipuBankV3.sol\":4210:4221  _bankCapUsd */\n  dup1\n    /* \"src/KipuBankV3.sol\":4197:4221  bankCapUsd = _bankCapUsd */\n  0xe0\n  dup2\n  dup2\n  mstore\n  pop\n  pop\n    /* \"src/KipuBankV3.sol\":4240:4250  msg.sender */\n  caller\n    /* \"src/KipuBankV3.sol\":4232:4237  owner */\n  0x00\n  0x00\n    /* \"src/KipuBankV3.sol\":4232:4250  owner = msg.sender */\n  0x0100\n  exp\n  dup2\n  sload\n  dup2\n  0xffffffffffffffffffffffffffffffffffffffff\n  mul\n  not\n  and\n  swap1\n  dup4\n  0xffffffffffffffffffffffffffffffffffffffff\n  and\n  mul\n  or\n  swap1\n  sstore\n  pop\n    /* \"src/KipuBankV3.sol\":3799:4258  constructor(address _usdc, address _router, uint256 _bankCapUsd) {... */\n  pop\n  pop\n  pop\n    /* \"src/KipuBankV3.sol\":1970:10996  contract KipuBankV3 {... */\n  jump(tag_9)\n    /* \"#utility.yul\":88:205   */\ntag_11:\n    /* \"#utility.yul\":197:198   */\n  0x00\n    /* \"#utility.yul\":194:195   */\n  0x00\n    /* \"#utility.yul\":187:199   */\n  revert\n    /* \"#utility.yul\":334:460   */\ntag_13:\n    /* \"#utility.yul\":371:378   */\n  0x00\n    /* \"#utility.yul\":411:453   */\n  0xffffffffffffffffffffffffffffffffffffffff\n    /* \"#utility.yul\":404:409   */\n  dup3\n    /* \"#utility.yul\":400:454   */\n  and\n    /* \"#utility.yul\":389:454   */\n  swap1\n  pop\n    /* \"#utility.yul\":334:460   */\n  swap2\n  swap1\n  pop\n  jump\t// out\n    /* \"#utility.yul\":466:562   */\ntag_14:\n    /* \"#utility.yul\":503:510   */\n  0x00\n    /* \"#utility.yul\":532:556   */\n  tag_26\n    /* \"#utility.yul\":550:555   */\n  dup3\n    /* \"#utility.yul\":532:556   */\n  tag_13\n  jump\t// in\ntag_26:\n    /* \"#utility.yul\":521:556   */\n  swap1\n  pop\n    /* \"#utility.yul\":466:562   */\n  swap2\n  swap1\n  pop\n  jump\t// out\n    /* \"#utility.yul\":568:690   */\ntag_15:\n    /* \"#utility.yul\":641:665   */\n  tag_28\n    /* \"#utility.yul\":659:664   */\n  dup2\n    /* \"#utility.yul\":641:665   */\n  tag_14\n  jump\t// in\ntag_28:\n    /* \"#utility.yul\":634:639   */\n  dup2\n    /* \"#utility.yul\":631:666   */\n  eq\n    /* \"#utility.yul\":621:684   */\n  tag_29\n  jumpi\n    /* \"#utility.yul\":680:681   */\n  0x00\n    /* \"#utility.yul\":677:678   */\n  0x00\n    /* \"#utility.yul\":670:682   */\n  revert\n    /* \"#utility.yul\":621:684   */\ntag_29:\n    /* \"#utility.yul\":568:690   */\n  pop\n  jump\t// out\n    /* \"#utility.yul\":696:839   */\ntag_16:\n    /* \"#utility.yul\":753:758   */\n  0x00\n    /* \"#utility.yul\":784:790   */\n  dup2\n    /* \"#utility.yul\":778:791   */\n  mload\n    /* \"#utility.yul\":769:791   */\n  swap1\n  pop\n    /* \"#utility.yul\":800:833   */\n  tag_31\n    /* \"#utility.yul\":827:832   */\n  dup2\n    /* \"#utility.yul\":800:833   */\n  tag_15\n  jump\t// in\ntag_31:\n    /* \"#utility.yul\":696:839   */\n  swap3\n  swap2\n  pop\n  pop\n  jump\t// out\n    /* \"#utility.yul\":845:922   */\ntag_17:\n    /* \"#utility.yul\":882:889   */\n  0x00\n    /* \"#utility.yul\":911:916   */\n  dup2\n    /* \"#utility.yul\":900:916   */\n  swap1\n  pop\n    /* \"#utility.yul\":845:922   */\n  swap2\n  swap1\n  pop\n  jump\t// out\n    /* \"#utility.yul\":928:1050   */\ntag_18:\n    /* \"#utility.yul\":1001:1025   */\n  tag_34\n    /* \"#utility.yul\":1019:1024   */\n  dup2\n    /* \"#utility.yul\":1001:1025   */\n  tag_17\n  jump\t// in\ntag_34:\n    /* \"#utility.yul\":994:999   */\n  dup2\n    /* \"#utility.yul\":991:1026   */\n  eq\n    /* \"#utility.yul\":981:1044   */\n  tag_35\n  jumpi\n    /* \"#utility.yul\":1040:1041   */\n  0x00\n    /* \"#utility.yul\":1037:1038   */\n  0x00\n    /* \"#utility.yul\":1030:1042   */\n  revert\n    /* \"#utility.yul\":981:1044   */\ntag_35:\n    /* \"#utility.yul\":928:1050   */\n  pop\n  jump\t// out\n    /* \"#utility.yul\":1056:1199   */\ntag_19:\n    /* \"#utility.yul\":1113:1118   */\n  0x00\n    /* \"#utility.yul\":1144:1150   */\n  dup2\n    /* \"#utility.yul\":1138:1151   */\n  mload\n    /* \"#utility.yul\":1129:1151   */\n  swap1\n  pop\n    /* \"#utility.yul\":1160:1193   */\n  tag_37\n    /* \"#utility.yul\":1187:1192   */\n  dup2\n    /* \"#utility.yul\":1160:1193   */\n  tag_18\n  jump\t// in\ntag_37:\n    /* \"#utility.yul\":1056:1199   */\n  swap3\n  swap2\n  pop\n  pop\n  jump\t// out\n    /* \"#utility.yul\":1205:1868   */\ntag_3:\n    /* \"#utility.yul\":1293:1299   */\n  0x00\n    /* \"#utility.yul\":1301:1307   */\n  0x00\n    /* \"#utility.yul\":1309:1315   */\n  0x00\n    /* \"#utility.yul\":1358:1360   */\n  0x60\n    /* \"#utility.yul\":1346:1355   */\n  dup5\n    /* \"#utility.yul\":1337:1344   */\n  dup7\n    /* \"#utility.yul\":1333:1356   */\n  sub\n    /* \"#utility.yul\":1329:1361   */\n  slt\n    /* \"#utility.yul\":1326:1445   */\n  iszero\n  tag_39\n  jumpi\n    /* \"#utility.yul\":1364:1443   */\n  tag_40\n  tag_11\n  jump\t// in\ntag_40:\n    /* \"#utility.yul\":1326:1445   */\ntag_39:\n    /* \"#utility.yul\":1484:1485   */\n  0x00\n    /* \"#utility.yul\":1509:1573   */\n  tag_41\n    /* \"#utility.yul\":1565:1572   */\n  dup7\n    /* \"#utility.yul\":1556:1562   */\n  dup3\n    /* \"#utility.yul\":1545:1554   */\n  dup8\n    /* \"#utility.yul\":1541:1563   */\n  add\n    /* \"#utility.yul\":1509:1573   */\n  tag_16\n  jump\t// in\ntag_41:\n    /* \"#utility.yul\":1499:1573   */\n  swap4\n  pop\n    /* \"#utility.yul\":1455:1583   */\n  pop\n    /* \"#utility.yul\":1622:1624   */\n  0x20\n    /* \"#utility.yul\":1648:1712   */\n  tag_42\n    /* \"#utility.yul\":1704:1711   */\n  dup7\n    /* \"#utility.yul\":1695:1701   */\n  dup3\n    /* \"#utility.yul\":1684:1693   */\n  dup8\n    /* \"#utility.yul\":1680:1702   */\n  add\n    /* \"#utility.yul\":1648:1712   */\n  tag_16\n  jump\t// in\ntag_42:\n    /* \"#utility.yul\":1638:1712   */\n  swap3\n  pop\n    /* \"#utility.yul\":1593:1722   */\n  pop\n    /* \"#utility.yul\":1761:1763   */\n  0x40\n    /* \"#utility.yul\":1787:1851   */\n  tag_43\n    /* \"#utility.yul\":1843:1850   */\n  dup7\n    /* \"#utility.yul\":1834:1840   */\n  dup3\n    /* \"#utility.yul\":1823:1832   */\n  dup8\n    /* \"#utility.yul\":1819:1841   */\n  add\n    /* \"#utility.yul\":1787:1851   */\n  tag_19\n  jump\t// in\ntag_43:\n    /* \"#utility.yul\":1777:1851   */\n  swap2\n  pop\n    /* \"#utility.yul\":1732:1861   */\n  pop\n    /* \"#utility.yul\":1205:1868   */\n  swap3\n  pop\n  swap3\n  pop\n  swap3\n  jump\t// out\n    /* \"src/KipuBankV3.sol\":1970:10996  contract KipuBankV3 {... */\ntag_9:\n  mload(0x80)\n  mload(0xa0)\n  mload(0xc0)\n  mload(0xe0)\n  codecopy(0x00, dataOffset(sub_0), dataSize(sub_0))\n  0x00\n  assignImmutable(\"0x2f5ccb30fa919306cd2899a81c7670a9b1be09e8c15a0b78b0fbbc777d15e97b\")\n  0x00\n  assignImmutable(\"0xac09810740600c31fa69f9db79ed6fc3e3281f758a950fe1fb254a3a3ae571b6\")\n  0x00\n  assignImmutable(\"0xb9aa4ff60d3edb7fbc3b53bd780c9274ed80a5ba1a237d38b011edab2b031b4a\")\n  0x00\n  assignImmutable(\"0x7d4579ab3c781860520f730aa471b37a7366c1c6efb6e34470da23130f5149f7\")\n  return(0x00, dataSize(sub_0))\nstop\n\nsub_0: assembly {\n        /* \"src/KipuBankV3.sol\":1970:10996  contract KipuBankV3 {... */\n      mstore(0x40, 0x80)\n      jumpi(tag_1, lt(calldatasize, 0x04))\n      shr(0xe0, calldataload(0x00))\n      dup1\n      0xac4543ba\n      gt\n      tag_15\n      jumpi\n      dup1\n      0xac4543ba\n      eq\n      tag_9\n      jumpi\n      dup1\n      0xad5c4648\n      eq\n      tag_10\n      jumpi\n      dup1\n      0xc3fd262d\n      eq\n      tag_11\n      jumpi\n      dup1\n      0xdb81f99b\n      eq\n      tag_12\n      jumpi\n      dup1\n      0xf688bcfb\n      eq\n      tag_13\n      jumpi\n      dup1\n      0xf887ea40\n      eq\n      tag_14\n      jumpi\n      jump(tag_2)\n    tag_15:\n      dup1\n      0x13af4035\n      eq\n      tag_3\n      jumpi\n      dup1\n      0x34462be6\n      eq\n      tag_4\n      jumpi\n      dup1\n      0x39657553\n      eq\n      tag_5\n      jumpi\n      dup1\n      0x883f1721\n      eq\n      tag_6\n      jumpi\n      dup1\n      0x89a30271\n      eq\n      tag_7\n      jumpi\n      dup1\n      0x8da5cb5b\n      eq\n      tag_8\n      jumpi\n      jump(tag_2)\n    tag_1:\n      jumpi(tag_2, calldatasize)\n        /* \"src/KipuBankV3.sol\":10870:10922  revert(\"Use depositETHSwapToUSDC function directly\") */\n      mload(0x40)\n      0x08c379a000000000000000000000000000000000000000000000000000000000\n      dup2\n      mstore\n      0x04\n      add\n      tag_18\n      swap1\n      tag_19\n      jump\t// in\n    tag_18:\n      mload(0x40)\n      dup1\n      swap2\n      sub\n      swap1\n      revert\n        /* \"src/KipuBankV3.sol\":1970:10996  contract KipuBankV3 {... */\n    tag_2:\n        /* \"src/KipuBankV3.sol\":10977:10985  revert() */\n      revert(0x00, 0x00)\n        /* \"src/KipuBankV3.sol\":4307:4568  function setOwner(address newOwner) external {... */\n    tag_3:\n      callvalue\n      dup1\n      iszero\n      tag_22\n      jumpi\n      revert(0x00, 0x00)\n    tag_22:\n      pop\n      tag_23\n      0x04\n      dup1\n      calldatasize\n      sub\n      dup2\n      add\n      swap1\n      tag_24\n      swap2\n      swap1\n      tag_25\n      jump\t// in\n    tag_24:\n      tag_26\n      jump\t// in\n    tag_23:\n      stop\n        /* \"src/KipuBankV3.sol\":2414:2438  uint256 public totalUsdc */\n    tag_4:\n      callvalue\n      dup1\n      iszero\n      tag_27\n      jumpi\n      revert(0x00, 0x00)\n    tag_27:\n      pop\n      tag_28\n      tag_29\n      jump\t// in\n    tag_28:\n      mload(0x40)\n      tag_30\n      swap2\n      swap1\n      tag_31\n      jump\t// in\n    tag_30:\n      mload(0x40)\n      dup1\n      swap2\n      sub\n      swap1\n      return\n        /* \"src/KipuBankV3.sol\":7568:9159  function depositTokenSwapToUSDC(... */\n    tag_5:\n      callvalue\n      dup1\n      iszero\n      tag_32\n      jumpi\n      revert(0x00, 0x00)\n    tag_32:\n      pop\n      tag_33\n      0x04\n      dup1\n      calldatasize\n      sub\n      dup2\n      add\n      swap1\n      tag_34\n      swap2\n      swap1\n      tag_35\n      jump\t// in\n    tag_34:\n      tag_36\n      jump\t// in\n    tag_33:\n      stop\n        /* \"src/KipuBankV3.sol\":5853:7154  function depositETHSwapToUSDC(uint256 minUsdcOut) external payable nonReentrant {... */\n    tag_6:\n      tag_37\n      0x04\n      dup1\n      calldatasize\n      sub\n      dup2\n      add\n      swap1\n      tag_38\n      swap2\n      swap1\n      tag_39\n      jump\t// in\n    tag_38:\n      tag_40\n      jump\t// in\n    tag_37:\n      stop\n        /* \"src/KipuBankV3.sol\":2085:2114  address public immutable USDC */\n    tag_7:\n      callvalue\n      dup1\n      iszero\n      tag_41\n      jumpi\n      revert(0x00, 0x00)\n    tag_41:\n      pop\n      tag_42\n      tag_43\n      jump\t// in\n    tag_42:\n      mload(0x40)\n      tag_44\n      swap2\n      swap1\n      tag_45\n      jump\t// in\n    tag_44:\n      mload(0x40)\n      dup1\n      swap2\n      sub\n      swap1\n      return\n        /* \"src/KipuBankV3.sol\":2315:2335  address public owner */\n    tag_8:\n      callvalue\n      dup1\n      iszero\n      tag_46\n      jumpi\n      revert(0x00, 0x00)\n    tag_46:\n      pop\n      tag_47\n      tag_48\n      jump\t// in\n    tag_47:\n      mload(0x40)\n      tag_49\n      swap2\n      swap1\n      tag_45\n      jump\t// in\n    tag_49:\n      mload(0x40)\n      dup1\n      swap2\n      sub\n      swap1\n      return\n        /* \"src/KipuBankV3.sol\":2523:2558  uint256 public immutable bankCapUsd */\n    tag_9:\n      callvalue\n      dup1\n      iszero\n      tag_50\n      jumpi\n      revert(0x00, 0x00)\n    tag_50:\n      pop\n      tag_51\n      tag_52\n      jump\t// in\n    tag_51:\n      mload(0x40)\n      tag_53\n      swap2\n      swap1\n      tag_31\n      jump\t// in\n    tag_53:\n      mload(0x40)\n      dup1\n      swap2\n      sub\n      swap1\n      return\n        /* \"src/KipuBankV3.sol\":2248:2277  address public immutable WETH */\n    tag_10:\n      callvalue\n      dup1\n      iszero\n      tag_54\n      jumpi\n      revert(0x00, 0x00)\n    tag_54:\n      pop\n      tag_55\n      tag_56\n      jump\t// in\n    tag_55:\n      mload(0x40)\n      tag_57\n      swap2\n      swap1\n      tag_45\n      jump\t// in\n    tag_57:\n      mload(0x40)\n      dup1\n      swap2\n      sub\n      swap1\n      return\n        /* \"src/KipuBankV3.sol\":4624:4737  function usdcBalanceOf(address user) external view returns (uint256) {... */\n    tag_11:\n      callvalue\n      dup1\n      iszero\n      tag_58\n      jumpi\n      revert(0x00, 0x00)\n    tag_58:\n      pop\n      tag_59\n      0x04\n      dup1\n      calldatasize\n      sub\n      dup2\n      add\n      swap1\n      tag_60\n      swap2\n      swap1\n      tag_25\n      jump\t// in\n    tag_60:\n      tag_61\n      jump\t// in\n    tag_59:\n      mload(0x40)\n      tag_62\n      swap2\n      swap1\n      tag_31\n      jump\t// in\n    tag_62:\n      mload(0x40)\n      dup1\n      swap2\n      sub\n      swap1\n      return\n        /* \"src/KipuBankV3.sol\":9342:9882  function withdrawUSDC(uint256 amountUsdc) external nonReentrant {... */\n    tag_12:\n      callvalue\n      dup1\n      iszero\n      tag_63\n      jumpi\n      revert(0x00, 0x00)\n    tag_63:\n      pop\n      tag_64\n      0x04\n      dup1\n      calldatasize\n      sub\n      dup2\n      add\n      swap1\n      tag_65\n      swap2\n      swap1\n      tag_39\n      jump\t// in\n    tag_65:\n      tag_66\n      jump\t// in\n    tag_64:\n      stop\n        /* \"src/KipuBankV3.sol\":4956:5646  function depositUSDC(uint256 amountUsdc) external nonReentrant {... */\n    tag_13:\n      callvalue\n      dup1\n      iszero\n      tag_67\n      jumpi\n      revert(0x00, 0x00)\n    tag_67:\n      pop\n      tag_68\n      0x04\n      dup1\n      calldatasize\n      sub\n      dup2\n      add\n      swap1\n      tag_69\n      swap2\n      swap1\n      tag_39\n      jump\t// in\n    tag_69:\n      tag_70\n      jump\t// in\n    tag_68:\n      stop\n        /* \"src/KipuBankV3.sol\":2155:2197  IUniswapV2Router02 public immutable router */\n    tag_14:\n      callvalue\n      dup1\n      iszero\n      tag_71\n      jumpi\n      revert(0x00, 0x00)\n    tag_71:\n      pop\n      tag_72\n      tag_73\n      jump\t// in\n    tag_72:\n      mload(0x40)\n      tag_74\n      swap2\n      swap1\n      tag_75\n      jump\t// in\n    tag_74:\n      mload(0x40)\n      dup1\n      swap2\n      sub\n      swap1\n      return\n        /* \"src/KipuBankV3.sol\":4307:4568  function setOwner(address newOwner) external {... */\n    tag_26:\n        /* \"src/KipuBankV3.sol\":4381:4386  owner */\n      0x00\n      0x00\n      swap1\n      sload\n      swap1\n      0x0100\n      exp\n      swap1\n      div\n      0xffffffffffffffffffffffffffffffffffffffff\n      and\n        /* \"src/KipuBankV3.sol\":4367:4386  msg.sender != owner */\n      0xffffffffffffffffffffffffffffffffffffffff\n      and\n        /* \"src/KipuBankV3.sol\":4367:4377  msg.sender */\n      caller\n        /* \"src/KipuBankV3.sol\":4367:4386  msg.sender != owner */\n      0xffffffffffffffffffffffffffffffffffffffff\n      and\n      eq\n        /* \"src/KipuBankV3.sol\":4363:4405  if (msg.sender != owner) revert NotOwner() */\n      tag_77\n      jumpi\n        /* \"src/KipuBankV3.sol\":4395:4405  NotOwner() */\n      mload(0x40)\n      0x30cd747100000000000000000000000000000000000000000000000000000000\n      dup2\n      mstore\n      0x04\n      add\n      mload(0x40)\n      dup1\n      swap2\n      sub\n      swap1\n      revert\n        /* \"src/KipuBankV3.sol\":4363:4405  if (msg.sender != owner) revert NotOwner() */\n    tag_77:\n        /* \"src/KipuBankV3.sol\":4444:4445  0 */\n      0x00\n        /* \"src/KipuBankV3.sol\":4424:4446  newOwner != address(0) */\n      0xffffffffffffffffffffffffffffffffffffffff\n      and\n        /* \"src/KipuBankV3.sol\":4424:4432  newOwner */\n      dup2\n        /* \"src/KipuBankV3.sol\":4424:4446  newOwner != address(0) */\n      0xffffffffffffffffffffffffffffffffffffffff\n      and\n      sub\n        /* \"src/KipuBankV3.sol\":4416:4460  require(newOwner != address(0), \"zero addr\") */\n      tag_78\n      jumpi\n      mload(0x40)\n      0x08c379a000000000000000000000000000000000000000000000000000000000\n      dup2\n      mstore\n      0x04\n      add\n      tag_79\n      swap1\n      tag_80\n      jump\t// in\n    tag_79:\n      mload(0x40)\n      dup1\n      swap2\n      sub\n      swap1\n      revert\n    tag_78:\n        /* \"src/KipuBankV3.sol\":4471:4482  address old */\n      0x00\n        /* \"src/KipuBankV3.sol\":4485:4490  owner */\n      0x00\n      0x00\n      swap1\n      sload\n      swap1\n      0x0100\n      exp\n      swap1\n      div\n      0xffffffffffffffffffffffffffffffffffffffff\n      and\n        /* \"src/KipuBankV3.sol\":4471:4490  address old = owner */\n      swap1\n      pop\n        /* \"src/KipuBankV3.sol\":4509:4517  newOwner */\n      dup2\n        /* \"src/KipuBankV3.sol\":4501:4506  owner */\n      0x00\n      0x00\n        /* \"src/KipuBankV3.sol\":4501:4517  owner = newOwner */\n      0x0100\n      exp\n      dup2\n      sload\n      dup2\n      0xffffffffffffffffffffffffffffffffffffffff\n      mul\n      not\n      and\n      swap1\n      dup4\n      0xffffffffffffffffffffffffffffffffffffffff\n      and\n      mul\n      or\n      swap1\n      sstore\n      pop\n        /* \"src/KipuBankV3.sol\":4551:4559  newOwner */\n      dup2\n        /* \"src/KipuBankV3.sol\":4533:4560  OwnerChanged(old, newOwner) */\n      0xffffffffffffffffffffffffffffffffffffffff\n      and\n        /* \"src/KipuBankV3.sol\":4546:4549  old */\n      dup2\n        /* \"src/KipuBankV3.sol\":4533:4560  OwnerChanged(old, newOwner) */\n      0xffffffffffffffffffffffffffffffffffffffff\n      and\n      0xb532073b38c83145e3e5135377a08bf9aab55bc0fd7c1179cd4fb995d2a5159c\n      mload(0x40)\n      mload(0x40)\n      dup1\n      swap2\n      sub\n      swap1\n      log3\n        /* \"src/KipuBankV3.sol\":4352:4568  {... */\n      pop\n        /* \"src/KipuBankV3.sol\":4307:4568  function setOwner(address newOwner) external {... */\n      pop\n      jump\t// out\n        /* \"src/KipuBankV3.sol\":2414:2438  uint256 public totalUsdc */\n    tag_29:\n      sload(0x01)\n      dup2\n      jump\t// out\n        /* \"src/KipuBankV3.sol\":7568:9159  function depositTokenSwapToUSDC(... */\n    tag_36:\n        /* \"src/KipuBankV3.sol\":2666:2672  locked */\n      0x02\n      0x00\n      swap1\n      sload\n      swap1\n      0x0100\n      exp\n      swap1\n      div\n      0xff\n      and\n        /* \"src/KipuBankV3.sol\":2662:2692  if (locked) revert Reentrant() */\n      iszero\n      tag_82\n      jumpi\n        /* \"src/KipuBankV3.sol\":2681:2692  Reentrant() */\n      mload(0x40)\n      0xed3ba6a600000000000000000000000000000000000000000000000000000000\n      dup2\n      mstore\n      0x04\n      add\n      mload(0x40)\n      dup1\n      swap2\n      sub\n      swap1\n      revert\n        /* \"src/KipuBankV3.sol\":2662:2692  if (locked) revert Reentrant() */\n    tag_82:\n        /* \"src/KipuBankV3.sol\":2712:2716  true */\n      0x01\n        /* \"src/KipuBankV3.sol\":2703:2709  locked */\n      0x02\n      0x00\n        /* \"src/KipuBankV3.sol\":2703:2716  locked = true */\n      0x0100\n      exp\n      dup2\n      sload\n      dup2\n      0xff\n      mul\n      not\n      and\n      swap1\n      dup4\n      iszero\n      iszero\n      mul\n      or\n      swap1\n      sstore\n      pop\n        /* \"src/KipuBankV3.sol\":7736:7737  0 */\n      0x00\n        /* \"src/KipuBankV3.sol\":7724:7732  amountIn */\n      dup3\n        /* \"src/KipuBankV3.sol\":7724:7737  amountIn == 0 */\n      sub\n        /* \"src/KipuBankV3.sol\":7720:7758  if (amountIn == 0) revert ZeroAmount() */\n      tag_84\n      jumpi\n        /* \"src/KipuBankV3.sol\":7746:7758  ZeroAmount() */\n      mload(0x40)\n      0x1f2a200500000000000000000000000000000000000000000000000000000000\n      dup2\n      mstore\n      0x04\n      add\n      mload(0x40)\n      dup1\n      swap2\n      sub\n      swap1\n      revert\n        /* \"src/KipuBankV3.sol\":7720:7758  if (amountIn == 0) revert ZeroAmount() */\n    tag_84:\n        /* \"src/KipuBankV3.sol\":7790:7791  0 */\n      0x00\n        /* \"src/KipuBankV3.sol\":7773:7792  token == address(0) */\n      0xffffffffffffffffffffffffffffffffffffffff\n      and\n        /* \"src/KipuBankV3.sol\":7773:7778  token */\n      dup4\n        /* \"src/KipuBankV3.sol\":7773:7792  token == address(0) */\n      0xffffffffffffffffffffffffffffffffffffffff\n      and\n      eq\n        /* \"src/KipuBankV3.sol\":7773:7809  token == address(0) || token == USDC */\n      dup1\n      tag_85\n      jumpi\n      pop\n        /* \"src/KipuBankV3.sol\":7805:7809  USDC */\n      immutable(\"0x7d4579ab3c781860520f730aa471b37a7366c1c6efb6e34470da23130f5149f7\")\n        /* \"src/KipuBankV3.sol\":7796:7809  token == USDC */\n      0xffffffffffffffffffffffffffffffffffffffff\n      and\n        /* \"src/KipuBankV3.sol\":7796:7801  token */\n      dup4\n        /* \"src/KipuBankV3.sol\":7796:7809  token == USDC */\n      0xffffffffffffffffffffffffffffffffffffffff\n      and\n      eq\n        /* \"src/KipuBankV3.sol\":7773:7809  token == address(0) || token == USDC */\n    tag_85:\n        /* \"src/KipuBankV3.sol\":7769:7831  if (token == address(0) || token == USDC) revert InvalidPath() */\n      iszero\n      tag_86\n      jumpi\n        /* \"src/KipuBankV3.sol\":7818:7831  InvalidPath() */\n      mload(0x40)\n      0x20db826700000000000000000000000000000000000000000000000000000000\n      dup2\n      mstore\n      0x04\n      add\n      mload(0x40)\n      dup1\n      swap2\n      sub\n      swap1\n      revert\n        /* \"src/KipuBankV3.sol\":7769:7831  if (token == address(0) || token == USDC) revert InvalidPath() */\n    tag_86:\n        /* \"src/KipuBankV3.sol\":7890:7898  bool ok1 */\n      0x00\n        /* \"src/KipuBankV3.sol\":7908:7913  token */\n      dup4\n        /* \"src/KipuBankV3.sol\":7901:7927  IERC20(token).transferFrom */\n      0xffffffffffffffffffffffffffffffffffffffff\n      and\n      0x23b872dd\n        /* \"src/KipuBankV3.sol\":7928:7938  msg.sender */\n      caller\n        /* \"src/KipuBankV3.sol\":7948:7952  this */\n      address\n        /* \"src/KipuBankV3.sol\":7955:7963  amountIn */\n      dup7\n        /* \"src/KipuBankV3.sol\":7901:7964  IERC20(token).transferFrom(msg.sender, address(this), amountIn) */\n      mload(0x40)\n      dup5\n      0xffffffff\n      and\n      0xe0\n      shl\n      dup2\n      mstore\n      0x04\n      add\n      tag_87\n      swap4\n      swap3\n      swap2\n      swap1\n      tag_88\n      jump\t// in\n    tag_87:\n      0x20\n      mload(0x40)\n      dup1\n      dup4\n      sub\n      dup2\n      0x00\n      dup8\n      gas\n      call\n      iszero\n      dup1\n      iszero\n      tag_90\n      jumpi\n      returndatacopy(0x00, 0x00, returndatasize)\n      revert(0x00, returndatasize)\n    tag_90:\n      pop\n      pop\n      pop\n      pop\n      mload(0x40)\n      returndatasize\n      not(0x1f)\n      0x1f\n      dup3\n      add\n      and\n      dup3\n      add\n      dup1\n      0x40\n      mstore\n      pop\n      dup2\n      add\n      swap1\n      tag_91\n      swap2\n      swap1\n      tag_92\n      jump\t// in\n    tag_91:\n        /* \"src/KipuBankV3.sol\":7890:7964  bool ok1 = IERC20(token).transferFrom(msg.sender, address(this), amountIn) */\n      swap1\n      pop\n        /* \"src/KipuBankV3.sol\":7980:7983  ok1 */\n      dup1\n        /* \"src/KipuBankV3.sol\":7975:8004  if (!ok1) revert SwapFailed() */\n      tag_93\n      jumpi\n        /* \"src/KipuBankV3.sol\":7992:8004  SwapFailed() */\n      mload(0x40)\n      0x81ceff3000000000000000000000000000000000000000000000000000000000\n      dup2\n      mstore\n      0x04\n      add\n      mload(0x40)\n      dup1\n      swap2\n      sub\n      swap1\n      revert\n        /* \"src/KipuBankV3.sol\":7975:8004  if (!ok1) revert SwapFailed() */\n    tag_93:\n        /* \"src/KipuBankV3.sol\":8067:8113  _safeApprove(token, address(router), amountIn) */\n      tag_94\n        /* \"src/KipuBankV3.sol\":8080:8085  token */\n      dup5\n        /* \"src/KipuBankV3.sol\":8095:8101  router */\n      immutable(\"0xb9aa4ff60d3edb7fbc3b53bd780c9274ed80a5ba1a237d38b011edab2b031b4a\")\n        /* \"src/KipuBankV3.sol\":8104:8112  amountIn */\n      dup6\n        /* \"src/KipuBankV3.sol\":8067:8079  _safeApprove */\n      tag_95\n        /* \"src/KipuBankV3.sol\":8067:8113  _safeApprove(token, address(router), amountIn) */\n      jump\t// in\n    tag_94:\n        /* \"src/KipuBankV3.sol\":8170:8191  address[] memory path */\n      0x00\n        /* \"src/KipuBankV3.sol\":8208:8209  2 */\n      0x02\n        /* \"src/KipuBankV3.sol\":8194:8210  new address[](2) */\n      0xffffffffffffffff\n      dup2\n      gt\n      iszero\n      tag_96\n      jumpi\n      tag_97\n      tag_98\n      jump\t// in\n    tag_97:\n    tag_96:\n      mload(0x40)\n      swap1\n      dup1\n      dup3\n      mstore\n      dup1\n      0x20\n      mul\n      0x20\n      add\n      dup3\n      add\n      0x40\n      mstore\n      dup1\n      iszero\n      tag_99\n      jumpi\n      dup2\n      0x20\n      add\n      0x20\n      dup3\n      mul\n      dup1\n      calldatasize\n      dup4\n      calldatacopy\n      dup1\n      dup3\n      add\n      swap2\n      pop\n      pop\n      swap1\n      pop\n    tag_99:\n      pop\n        /* \"src/KipuBankV3.sol\":8170:8210  address[] memory path = new address[](2) */\n      swap1\n      pop\n        /* \"src/KipuBankV3.sol\":8231:8236  token */\n      dup5\n        /* \"src/KipuBankV3.sol\":8221:8225  path */\n      dup2\n        /* \"src/KipuBankV3.sol\":8226:8227  0 */\n      0x00\n        /* \"src/KipuBankV3.sol\":8221:8228  path[0] */\n      dup2\n      mload\n      dup2\n      lt\n      tag_100\n      jumpi\n      tag_101\n      tag_102\n      jump\t// in\n    tag_101:\n    tag_100:\n      0x20\n      mul\n      0x20\n      add\n      add\n        /* \"src/KipuBankV3.sol\":8221:8236  path[0] = token */\n      swap1\n      0xffffffffffffffffffffffffffffffffffffffff\n      and\n      swap1\n      dup2\n      0xffffffffffffffffffffffffffffffffffffffff\n      and\n      dup2\n      mstore\n      pop\n      pop\n        /* \"src/KipuBankV3.sol\":8257:8261  USDC */\n      immutable(\"0x7d4579ab3c781860520f730aa471b37a7366c1c6efb6e34470da23130f5149f7\")\n        /* \"src/KipuBankV3.sol\":8247:8251  path */\n      dup2\n        /* \"src/KipuBankV3.sol\":8252:8253  1 */\n      0x01\n        /* \"src/KipuBankV3.sol\":8247:8254  path[1] */\n      dup2\n      mload\n      dup2\n      lt\n      tag_103\n      jumpi\n      tag_104\n      tag_102\n      jump\t// in\n    tag_104:\n    tag_103:\n      0x20\n      mul\n      0x20\n      add\n      add\n        /* \"src/KipuBankV3.sol\":8247:8261  path[1] = USDC */\n      swap1\n      0xffffffffffffffffffffffffffffffffffffffff\n      and\n      swap1\n      dup2\n      0xffffffffffffffffffffffffffffffffffffffff\n      and\n      dup2\n      mstore\n      pop\n      pop\n        /* \"src/KipuBankV3.sol\":8294:8307  uint deadline */\n      0x00\n        /* \"src/KipuBankV3.sol\":8328:8331  300 */\n      0x012c\n        /* \"src/KipuBankV3.sol\":8310:8325  block.timestamp */\n      timestamp\n        /* \"src/KipuBankV3.sol\":8310:8331  block.timestamp + 300 */\n      tag_105\n      swap2\n      swap1\n      tag_106\n      jump\t// in\n    tag_105:\n        /* \"src/KipuBankV3.sol\":8294:8331  uint deadline = block.timestamp + 300 */\n      swap1\n      pop\n        /* \"src/KipuBankV3.sol\":8342:8363  uint[] memory amounts */\n      0x00\n        /* \"src/KipuBankV3.sol\":8366:8372  router */\n      immutable(\"0xb9aa4ff60d3edb7fbc3b53bd780c9274ed80a5ba1a237d38b011edab2b031b4a\")\n        /* \"src/KipuBankV3.sol\":8366:8397  router.swapExactTokensForTokens */\n      0xffffffffffffffffffffffffffffffffffffffff\n      and\n      0x38ed1739\n        /* \"src/KipuBankV3.sol\":8412:8420  amountIn */\n      dup8\n        /* \"src/KipuBankV3.sol\":8435:8445  minUsdcOut */\n      dup8\n        /* \"src/KipuBankV3.sol\":8460:8464  path */\n      dup7\n        /* \"src/KipuBankV3.sol\":8487:8491  this */\n      address\n        /* \"src/KipuBankV3.sol\":8507:8515  deadline */\n      dup8\n        /* \"src/KipuBankV3.sol\":8366:8526  router.swapExactTokensForTokens(... */\n      mload(0x40)\n      dup7\n      0xffffffff\n      and\n      0xe0\n      shl\n      dup2\n      mstore\n      0x04\n      add\n      tag_107\n      swap6\n      swap5\n      swap4\n      swap3\n      swap2\n      swap1\n      tag_108\n      jump\t// in\n    tag_107:\n      0x00\n      mload(0x40)\n      dup1\n      dup4\n      sub\n      dup2\n      0x00\n      dup8\n      gas\n      call\n      iszero\n      dup1\n      iszero\n      tag_110\n      jumpi\n      returndatacopy(0x00, 0x00, returndatasize)\n      revert(0x00, returndatasize)\n    tag_110:\n      pop\n      pop\n      pop\n      pop\n      mload(0x40)\n      returndatasize\n      0x00\n      dup3\n      returndatacopy\n      returndatasize\n      not(0x1f)\n      0x1f\n      dup3\n      add\n      and\n      dup3\n      add\n      dup1\n      0x40\n      mstore\n      pop\n      dup2\n      add\n      swap1\n      tag_111\n      swap2\n      swap1\n      tag_112\n      jump\t// in\n    tag_111:\n        /* \"src/KipuBankV3.sol\":8342:8526  uint[] memory amounts = router.swapExactTokensForTokens(... */\n      swap1\n      pop\n        /* \"src/KipuBankV3.sol\":8558:8559  2 */\n      0x02\n        /* \"src/KipuBankV3.sol\":8541:8548  amounts */\n      dup2\n        /* \"src/KipuBankV3.sol\":8541:8555  amounts.length */\n      mload\n        /* \"src/KipuBankV3.sol\":8541:8559  amounts.length < 2 */\n      lt\n        /* \"src/KipuBankV3.sol\":8537:8580  if (amounts.length < 2) revert SwapFailed() */\n      iszero\n      tag_113\n      jumpi\n        /* \"src/KipuBankV3.sol\":8568:8580  SwapFailed() */\n      mload(0x40)\n      0x81ceff3000000000000000000000000000000000000000000000000000000000\n      dup2\n      mstore\n      0x04\n      add\n      mload(0x40)\n      dup1\n      swap2\n      sub\n      swap1\n      revert\n        /* \"src/KipuBankV3.sol\":8537:8580  if (amounts.length < 2) revert SwapFailed() */\n    tag_113:\n        /* \"src/KipuBankV3.sol\":8593:8610  uint usdcReceived */\n      0x00\n        /* \"src/KipuBankV3.sol\":8613:8620  amounts */\n      dup2\n        /* \"src/KipuBankV3.sol\":8638:8639  1 */\n      0x01\n        /* \"src/KipuBankV3.sol\":8621:8628  amounts */\n      dup4\n        /* \"src/KipuBankV3.sol\":8621:8635  amounts.length */\n      mload\n        /* \"src/KipuBankV3.sol\":8621:8639  amounts.length - 1 */\n      tag_114\n      swap2\n      swap1\n      tag_115\n      jump\t// in\n    tag_114:\n        /* \"src/KipuBankV3.sol\":8613:8640  amounts[amounts.length - 1] */\n      dup2\n      mload\n      dup2\n      lt\n      tag_116\n      jumpi\n      tag_117\n      tag_102\n      jump\t// in\n    tag_117:\n    tag_116:\n      0x20\n      mul\n      0x20\n      add\n      add\n      mload\n        /* \"src/KipuBankV3.sol\":8593:8640  uint usdcReceived = amounts[amounts.length - 1] */\n      swap1\n      pop\n        /* \"src/KipuBankV3.sol\":8728:8738  bankCapUsd */\n      immutable(\"0x2f5ccb30fa919306cd2899a81c7670a9b1be09e8c15a0b78b0fbbc777d15e97b\")\n        /* \"src/KipuBankV3.sol\":8713:8725  usdcReceived */\n      dup2\n        /* \"src/KipuBankV3.sol\":8701:8710  totalUsdc */\n      sload(0x01)\n        /* \"src/KipuBankV3.sol\":8701:8725  totalUsdc + usdcReceived */\n      tag_118\n      swap2\n      swap1\n      tag_106\n      jump\t// in\n    tag_118:\n        /* \"src/KipuBankV3.sol\":8701:8738  totalUsdc + usdcReceived > bankCapUsd */\n      gt\n        /* \"src/KipuBankV3.sol\":8697:8967  if (totalUsdc + usdcReceived > bankCapUsd) {... */\n      iszero\n      tag_119\n      jumpi\n        /* \"src/KipuBankV3.sol\":8841:8845  USDC */\n      immutable(\"0x7d4579ab3c781860520f730aa471b37a7366c1c6efb6e34470da23130f5149f7\")\n        /* \"src/KipuBankV3.sol\":8834:8855  IERC20(USDC).transfer */\n      0xffffffffffffffffffffffffffffffffffffffff\n      and\n      0xa9059cbb\n        /* \"src/KipuBankV3.sol\":8856:8866  msg.sender */\n      caller\n        /* \"src/KipuBankV3.sol\":8868:8880  usdcReceived */\n      dup4\n        /* \"src/KipuBankV3.sol\":8834:8881  IERC20(USDC).transfer(msg.sender, usdcReceived) */\n      mload(0x40)\n      dup4\n      0xffffffff\n      and\n      0xe0\n      shl\n      dup2\n      mstore\n      0x04\n      add\n      tag_120\n      swap3\n      swap2\n      swap1\n      tag_121\n      jump\t// in\n    tag_120:\n      0x20\n      mload(0x40)\n      dup1\n      dup4\n      sub\n      dup2\n      0x00\n      dup8\n      gas\n      call\n      iszero\n      dup1\n      iszero\n      tag_123\n      jumpi\n      returndatacopy(0x00, 0x00, returndatasize)\n      revert(0x00, returndatasize)\n    tag_123:\n      pop\n      pop\n      pop\n      pop\n      mload(0x40)\n      returndatasize\n      not(0x1f)\n      0x1f\n      dup3\n      add\n      and\n      dup3\n      add\n      dup1\n      0x40\n      mstore\n      pop\n      dup2\n      add\n      swap1\n      tag_124\n      swap2\n      swap1\n      tag_92\n      jump\t// in\n    tag_124:\n      pop\n        /* \"src/KipuBankV3.sol\":8919:8931  usdcReceived */\n      dup1\n        /* \"src/KipuBankV3.sol\":8933:8942  totalUsdc */\n      sload(0x01)\n        /* \"src/KipuBankV3.sol\":8944:8954  bankCapUsd */\n      immutable(\"0x2f5ccb30fa919306cd2899a81c7670a9b1be09e8c15a0b78b0fbbc777d15e97b\")\n        /* \"src/KipuBankV3.sol\":8903:8955  BankCapExceeded(usdcReceived, totalUsdc, bankCapUsd) */\n      mload(0x40)\n      0x621e5a6900000000000000000000000000000000000000000000000000000000\n      dup2\n      mstore\n      0x04\n      add\n      tag_125\n      swap4\n      swap3\n      swap2\n      swap1\n      tag_126\n      jump\t// in\n    tag_125:\n      mload(0x40)\n      dup1\n      swap2\n      sub\n      swap1\n      revert\n        /* \"src/KipuBankV3.sol\":8697:8967  if (totalUsdc + usdcReceived > bankCapUsd) {... */\n    tag_119:\n        /* \"src/KipuBankV3.sol\":9011:9023  usdcReceived */\n      dup1\n        /* \"src/KipuBankV3.sol\":8998:9007  totalUsdc */\n      0x01\n      0x00\n        /* \"src/KipuBankV3.sol\":8998:9023  totalUsdc += usdcReceived */\n      dup3\n      dup3\n      sload\n      tag_127\n      swap2\n      swap1\n      tag_106\n      jump\t// in\n    tag_127:\n      swap3\n      pop\n      pop\n      dup2\n      swap1\n      sstore\n      pop\n        /* \"src/KipuBankV3.sol\":9062:9074  usdcReceived */\n      dup1\n        /* \"src/KipuBankV3.sol\":9034:9046  usdcBalances */\n      0x03\n        /* \"src/KipuBankV3.sol\":9034:9058  usdcBalances[msg.sender] */\n      0x00\n        /* \"src/KipuBankV3.sol\":9047:9057  msg.sender */\n      caller\n        /* \"src/KipuBankV3.sol\":9034:9058  usdcBalances[msg.sender] */\n      0xffffffffffffffffffffffffffffffffffffffff\n      and\n      0xffffffffffffffffffffffffffffffffffffffff\n      and\n      dup2\n      mstore\n      0x20\n      add\n      swap1\n      dup2\n      mstore\n      0x20\n      add\n      0x00\n      keccak256\n      0x00\n        /* \"src/KipuBankV3.sol\":9034:9074  usdcBalances[msg.sender] += usdcReceived */\n      dup3\n      dup3\n      sload\n      tag_128\n      swap2\n      swap1\n      tag_106\n      jump\t// in\n    tag_128:\n      swap3\n      pop\n      pop\n      dup2\n      swap1\n      sstore\n      pop\n        /* \"src/KipuBankV3.sol\":9121:9126  token */\n      dup8\n        /* \"src/KipuBankV3.sol\":9092:9151  DepositConverted(msg.sender, token, amountIn, usdcReceived) */\n      0xffffffffffffffffffffffffffffffffffffffff\n      and\n        /* \"src/KipuBankV3.sol\":9109:9119  msg.sender */\n      caller\n        /* \"src/KipuBankV3.sol\":9092:9151  DepositConverted(msg.sender, token, amountIn, usdcReceived) */\n      0xffffffffffffffffffffffffffffffffffffffff\n      and\n      0xab466672cd9adae1c2072831f94c1068597b355987d2a64d4e5a7dcd74e5cda5\n        /* \"src/KipuBankV3.sol\":9128:9136  amountIn */\n      dup10\n        /* \"src/KipuBankV3.sol\":9138:9150  usdcReceived */\n      dup5\n        /* \"src/KipuBankV3.sol\":9092:9151  DepositConverted(msg.sender, token, amountIn, usdcReceived) */\n      mload(0x40)\n      tag_129\n      swap3\n      swap2\n      swap1\n      tag_130\n      jump\t// in\n    tag_129:\n      mload(0x40)\n      dup1\n      swap2\n      sub\n      swap1\n      log3\n        /* \"src/KipuBankV3.sol\":7709:9159  {... */\n      pop\n      pop\n      pop\n      pop\n      pop\n        /* \"src/KipuBankV3.sol\":2748:2753  false */\n      0x00\n        /* \"src/KipuBankV3.sol\":2739:2745  locked */\n      0x02\n      0x00\n        /* \"src/KipuBankV3.sol\":2739:2753  locked = false */\n      0x0100\n      exp\n      dup2\n      sload\n      dup2\n      0xff\n      mul\n      not\n      and\n      swap1\n      dup4\n      iszero\n      iszero\n      mul\n      or\n      swap1\n      sstore\n      pop\n        /* \"src/KipuBankV3.sol\":7568:9159  function depositTokenSwapToUSDC(... */\n      pop\n      pop\n      pop\n      jump\t// out\n        /* \"src/KipuBankV3.sol\":5853:7154  function depositETHSwapToUSDC(uint256 minUsdcOut) external payable nonReentrant {... */\n    tag_40:\n        /* \"src/KipuBankV3.sol\":2666:2672  locked */\n      0x02\n      0x00\n      swap1\n      sload\n      swap1\n      0x0100\n      exp\n      swap1\n      div\n      0xff\n      and\n        /* \"src/KipuBankV3.sol\":2662:2692  if (locked) revert Reentrant() */\n      iszero\n      tag_132\n      jumpi\n        /* \"src/KipuBankV3.sol\":2681:2692  Reentrant() */\n      mload(0x40)\n      0xed3ba6a600000000000000000000000000000000000000000000000000000000\n      dup2\n      mstore\n      0x04\n      add\n      mload(0x40)\n      dup1\n      swap2\n      sub\n      swap1\n      revert\n        /* \"src/KipuBankV3.sol\":2662:2692  if (locked) revert Reentrant() */\n    tag_132:\n        /* \"src/KipuBankV3.sol\":2712:2716  true */\n      0x01\n        /* \"src/KipuBankV3.sol\":2703:2709  locked */\n      0x02\n      0x00\n        /* \"src/KipuBankV3.sol\":2703:2716  locked = true */\n      0x0100\n      exp\n      dup2\n      sload\n      dup2\n      0xff\n      mul\n      not\n      and\n      swap1\n      dup4\n      iszero\n      iszero\n      mul\n      or\n      swap1\n      sstore\n      pop\n        /* \"src/KipuBankV3.sol\":5961:5962  0 */\n      0x00\n        /* \"src/KipuBankV3.sol\":5948:5957  msg.value */\n      callvalue\n        /* \"src/KipuBankV3.sol\":5948:5962  msg.value == 0 */\n      sub\n        /* \"src/KipuBankV3.sol\":5944:5983  if (msg.value == 0) revert ZeroAmount() */\n      tag_134\n      jumpi\n        /* \"src/KipuBankV3.sol\":5971:5983  ZeroAmount() */\n      mload(0x40)\n      0x1f2a200500000000000000000000000000000000000000000000000000000000\n      dup2\n      mstore\n      0x04\n      add\n      mload(0x40)\n      dup1\n      swap2\n      sub\n      swap1\n      revert\n        /* \"src/KipuBankV3.sol\":5944:5983  if (msg.value == 0) revert ZeroAmount() */\n    tag_134:\n        /* \"src/KipuBankV3.sol\":6031:6035  WETH */\n      immutable(\"0xac09810740600c31fa69f9db79ed6fc3e3281f758a950fe1fb254a3a3ae571b6\")\n        /* \"src/KipuBankV3.sol\":6025:6044  IWETH(WETH).deposit */\n      0xffffffffffffffffffffffffffffffffffffffff\n      and\n      0xd0e30db0\n        /* \"src/KipuBankV3.sol\":6052:6061  msg.value */\n      callvalue\n        /* \"src/KipuBankV3.sol\":6025:6064  IWETH(WETH).deposit{value: msg.value}() */\n      mload(0x40)\n      dup3\n      0xffffffff\n      and\n      0xe0\n      shl\n      dup2\n      mstore\n      0x04\n      add\n      0x00\n      mload(0x40)\n      dup1\n      dup4\n      sub\n      dup2\n      dup6\n      dup9\n      dup1\n      extcodesize\n      iszero\n      dup1\n      iszero\n      tag_135\n      jumpi\n      revert(0x00, 0x00)\n    tag_135:\n      pop\n      gas\n      call\n      iszero\n      dup1\n      iszero\n      tag_137\n      jumpi\n      returndatacopy(0x00, 0x00, returndatasize)\n      revert(0x00, returndatasize)\n    tag_137:\n      pop\n      pop\n      pop\n      pop\n      pop\n        /* \"src/KipuBankV3.sol\":6104:6150  _safeApprove(WETH, address(router), msg.value) */\n      tag_138\n        /* \"src/KipuBankV3.sol\":6117:6121  WETH */\n      immutable(\"0xac09810740600c31fa69f9db79ed6fc3e3281f758a950fe1fb254a3a3ae571b6\")\n        /* \"src/KipuBankV3.sol\":6131:6137  router */\n      immutable(\"0xb9aa4ff60d3edb7fbc3b53bd780c9274ed80a5ba1a237d38b011edab2b031b4a\")\n        /* \"src/KipuBankV3.sol\":6140:6149  msg.value */\n      callvalue\n        /* \"src/KipuBankV3.sol\":6104:6116  _safeApprove */\n      tag_95\n        /* \"src/KipuBankV3.sol\":6104:6150  _safeApprove(WETH, address(router), msg.value) */\n      jump\t// in\n    tag_138:\n        /* \"src/KipuBankV3.sol\":6221:6242  address[] memory path */\n      0x00\n        /* \"src/KipuBankV3.sol\":6259:6260  2 */\n      0x02\n        /* \"src/KipuBankV3.sol\":6245:6261  new address[](2) */\n      0xffffffffffffffff\n      dup2\n      gt\n      iszero\n      tag_139\n      jumpi\n      tag_140\n      tag_98\n      jump\t// in\n    tag_140:\n    tag_139:\n      mload(0x40)\n      swap1\n      dup1\n      dup3\n      mstore\n      dup1\n      0x20\n      mul\n      0x20\n      add\n      dup3\n      add\n      0x40\n      mstore\n      dup1\n      iszero\n      tag_141\n      jumpi\n      dup2\n      0x20\n      add\n      0x20\n      dup3\n      mul\n      dup1\n      calldatasize\n      dup4\n      calldatacopy\n      dup1\n      dup3\n      add\n      swap2\n      pop\n      pop\n      swap1\n      pop\n    tag_141:\n      pop\n        /* \"src/KipuBankV3.sol\":6221:6261  address[] memory path = new address[](2) */\n      swap1\n      pop\n        /* \"src/KipuBankV3.sol\":6282:6286  WETH */\n      immutable(\"0xac09810740600c31fa69f9db79ed6fc3e3281f758a950fe1fb254a3a3ae571b6\")\n        /* \"src/KipuBankV3.sol\":6272:6276  path */\n      dup2\n        /* \"src/KipuBankV3.sol\":6277:6278  0 */\n      0x00\n        /* \"src/KipuBankV3.sol\":6272:6279  path[0] */\n      dup2\n      mload\n      dup2\n      lt\n      tag_142\n      jumpi\n      tag_143\n      tag_102\n      jump\t// in\n    tag_143:\n    tag_142:\n      0x20\n      mul\n      0x20\n      add\n      add\n        /* \"src/KipuBankV3.sol\":6272:6286  path[0] = WETH */\n      swap1\n      0xffffffffffffffffffffffffffffffffffffffff\n      and\n      swap1\n      dup2\n      0xffffffffffffffffffffffffffffffffffffffff\n      and\n      dup2\n      mstore\n      pop\n      pop\n        /* \"src/KipuBankV3.sol\":6307:6311  USDC */\n      immutable(\"0x7d4579ab3c781860520f730aa471b37a7366c1c6efb6e34470da23130f5149f7\")\n        /* \"src/KipuBankV3.sol\":6297:6301  path */\n      dup2\n        /* \"src/KipuBankV3.sol\":6302:6303  1 */\n      0x01\n        /* \"src/KipuBankV3.sol\":6297:6304  path[1] */\n      dup2\n      mload\n      dup2\n      lt\n      tag_144\n      jumpi\n      tag_145\n      tag_102\n      jump\t// in\n    tag_145:\n    tag_144:\n      0x20\n      mul\n      0x20\n      add\n      add\n        /* \"src/KipuBankV3.sol\":6297:6311  path[1] = USDC */\n      swap1\n      0xffffffffffffffffffffffffffffffffffffffff\n      and\n      swap1\n      dup2\n      0xffffffffffffffffffffffffffffffffffffffff\n      and\n      dup2\n      mstore\n      pop\n      pop\n        /* \"src/KipuBankV3.sol\":6350:6363  uint deadline */\n      0x00\n        /* \"src/KipuBankV3.sol\":6384:6387  300 */\n      0x012c\n        /* \"src/KipuBankV3.sol\":6366:6381  block.timestamp */\n      timestamp\n        /* \"src/KipuBankV3.sol\":6366:6387  block.timestamp + 300 */\n      tag_146\n      swap2\n      swap1\n      tag_106\n      jump\t// in\n    tag_146:\n        /* \"src/KipuBankV3.sol\":6350:6387  uint deadline = block.timestamp + 300 */\n      swap1\n      pop\n        /* \"src/KipuBankV3.sol\":6398:6419  uint[] memory amounts */\n      0x00\n        /* \"src/KipuBankV3.sol\":6422:6428  router */\n      immutable(\"0xb9aa4ff60d3edb7fbc3b53bd780c9274ed80a5ba1a237d38b011edab2b031b4a\")\n        /* \"src/KipuBankV3.sol\":6422:6453  router.swapExactTokensForTokens */\n      0xffffffffffffffffffffffffffffffffffffffff\n      and\n      0x38ed1739\n        /* \"src/KipuBankV3.sol\":6468:6477  msg.value */\n      callvalue\n        /* \"src/KipuBankV3.sol\":6492:6502  minUsdcOut */\n      dup7\n        /* \"src/KipuBankV3.sol\":6517:6521  path */\n      dup7\n        /* \"src/KipuBankV3.sol\":6544:6548  this */\n      address\n        /* \"src/KipuBankV3.sol\":6564:6572  deadline */\n      dup8\n        /* \"src/KipuBankV3.sol\":6422:6583  router.swapExactTokensForTokens(... */\n      mload(0x40)\n      dup7\n      0xffffffff\n      and\n      0xe0\n      shl\n      dup2\n      mstore\n      0x04\n      add\n      tag_147\n      swap6\n      swap5\n      swap4\n      swap3\n      swap2\n      swap1\n      tag_108\n      jump\t// in\n    tag_147:\n      0x00\n      mload(0x40)\n      dup1\n      dup4\n      sub\n      dup2\n      0x00\n      dup8\n      gas\n      call\n      iszero\n      dup1\n      iszero\n      tag_149\n      jumpi\n      returndatacopy(0x00, 0x00, returndatasize)\n      revert(0x00, returndatasize)\n    tag_149:\n      pop\n      pop\n      pop\n      pop\n      mload(0x40)\n      returndatasize\n      0x00\n      dup3\n      returndatacopy\n      returndatasize\n      not(0x1f)\n      0x1f\n      dup3\n      add\n      and\n      dup3\n      add\n      dup1\n      0x40\n      mstore\n      pop\n      dup2\n      add\n      swap1\n      tag_150\n      swap2\n      swap1\n      tag_112\n      jump\t// in\n    tag_150:\n        /* \"src/KipuBankV3.sol\":6398:6583  uint[] memory amounts = router.swapExactTokensForTokens(... */\n      swap1\n      pop\n        /* \"src/KipuBankV3.sol\":6615:6616  2 */\n      0x02\n        /* \"src/KipuBankV3.sol\":6598:6605  amounts */\n      dup2\n        /* \"src/KipuBankV3.sol\":6598:6612  amounts.length */\n      mload\n        /* \"src/KipuBankV3.sol\":6598:6616  amounts.length < 2 */\n      lt\n        /* \"src/KipuBankV3.sol\":6594:6637  if (amounts.length < 2) revert SwapFailed() */\n      iszero\n      tag_151\n      jumpi\n        /* \"src/KipuBankV3.sol\":6625:6637  SwapFailed() */\n      mload(0x40)\n      0x81ceff3000000000000000000000000000000000000000000000000000000000\n      dup2\n      mstore\n      0x04\n      add\n      mload(0x40)\n      dup1\n      swap2\n      sub\n      swap1\n      revert\n        /* \"src/KipuBankV3.sol\":6594:6637  if (amounts.length < 2) revert SwapFailed() */\n    tag_151:\n        /* \"src/KipuBankV3.sol\":6650:6667  uint usdcReceived */\n      0x00\n        /* \"src/KipuBankV3.sol\":6670:6677  amounts */\n      dup2\n        /* \"src/KipuBankV3.sol\":6695:6696  1 */\n      0x01\n        /* \"src/KipuBankV3.sol\":6678:6685  amounts */\n      dup4\n        /* \"src/KipuBankV3.sol\":6678:6692  amounts.length */\n      mload\n        /* \"src/KipuBankV3.sol\":6678:6696  amounts.length - 1 */\n      tag_152\n      swap2\n      swap1\n      tag_115\n      jump\t// in\n    tag_152:\n        /* \"src/KipuBankV3.sol\":6670:6697  amounts[amounts.length - 1] */\n      dup2\n      mload\n      dup2\n      lt\n      tag_153\n      jumpi\n      tag_154\n      tag_102\n      jump\t// in\n    tag_154:\n    tag_153:\n      0x20\n      mul\n      0x20\n      add\n      add\n      mload\n        /* \"src/KipuBankV3.sol\":6650:6697  uint usdcReceived = amounts[amounts.length - 1] */\n      swap1\n      pop\n        /* \"src/KipuBankV3.sol\":6789:6799  bankCapUsd */\n      immutable(\"0x2f5ccb30fa919306cd2899a81c7670a9b1be09e8c15a0b78b0fbbc777d15e97b\")\n        /* \"src/KipuBankV3.sol\":6774:6786  usdcReceived */\n      dup2\n        /* \"src/KipuBankV3.sol\":6762:6771  totalUsdc */\n      sload(0x01)\n        /* \"src/KipuBankV3.sol\":6762:6786  totalUsdc + usdcReceived */\n      tag_155\n      swap2\n      swap1\n      tag_106\n      jump\t// in\n    tag_155:\n        /* \"src/KipuBankV3.sol\":6762:6799  totalUsdc + usdcReceived > bankCapUsd */\n      gt\n        /* \"src/KipuBankV3.sol\":6758:6949  if (totalUsdc + usdcReceived > bankCapUsd) {... */\n      iszero\n      tag_156\n      jumpi\n        /* \"src/KipuBankV3.sol\":6823:6827  USDC */\n      immutable(\"0x7d4579ab3c781860520f730aa471b37a7366c1c6efb6e34470da23130f5149f7\")\n        /* \"src/KipuBankV3.sol\":6816:6837  IERC20(USDC).transfer */\n      0xffffffffffffffffffffffffffffffffffffffff\n      and\n      0xa9059cbb\n        /* \"src/KipuBankV3.sol\":6838:6848  msg.sender */\n      caller\n        /* \"src/KipuBankV3.sol\":6850:6862  usdcReceived */\n      dup4\n        /* \"src/KipuBankV3.sol\":6816:6863  IERC20(USDC).transfer(msg.sender, usdcReceived) */\n      mload(0x40)\n      dup4\n      0xffffffff\n      and\n      0xe0\n      shl\n      dup2\n      mstore\n      0x04\n      add\n      tag_157\n      swap3\n      swap2\n      swap1\n      tag_121\n      jump\t// in\n    tag_157:\n      0x20\n      mload(0x40)\n      dup1\n      dup4\n      sub\n      dup2\n      0x00\n      dup8\n      gas\n      call\n      iszero\n      dup1\n      iszero\n      tag_159\n      jumpi\n      returndatacopy(0x00, 0x00, returndatasize)\n      revert(0x00, returndatasize)\n    tag_159:\n      pop\n      pop\n      pop\n      pop\n      mload(0x40)\n      returndatasize\n      not(0x1f)\n      0x1f\n      dup3\n      add\n      and\n      dup3\n      add\n      dup1\n      0x40\n      mstore\n      pop\n      dup2\n      add\n      swap1\n      tag_160\n      swap2\n      swap1\n      tag_92\n      jump\t// in\n    tag_160:\n      pop\n        /* \"src/KipuBankV3.sol\":6901:6913  usdcReceived */\n      dup1\n        /* \"src/KipuBankV3.sol\":6915:6924  totalUsdc */\n      sload(0x01)\n        /* \"src/KipuBankV3.sol\":6926:6936  bankCapUsd */\n      immutable(\"0x2f5ccb30fa919306cd2899a81c7670a9b1be09e8c15a0b78b0fbbc777d15e97b\")\n        /* \"src/KipuBankV3.sol\":6885:6937  BankCapExceeded(usdcReceived, totalUsdc, bankCapUsd) */\n      mload(0x40)\n      0x621e5a6900000000000000000000000000000000000000000000000000000000\n      dup2\n      mstore\n      0x04\n      add\n      tag_161\n      swap4\n      swap3\n      swap2\n      swap1\n      tag_126\n      jump\t// in\n    tag_161:\n      mload(0x40)\n      dup1\n      swap2\n      sub\n      swap1\n      revert\n        /* \"src/KipuBankV3.sol\":6758:6949  if (totalUsdc + usdcReceived > bankCapUsd) {... */\n    tag_156:\n        /* \"src/KipuBankV3.sol\":7006:7018  usdcReceived */\n      dup1\n        /* \"src/KipuBankV3.sol\":6993:7002  totalUsdc */\n      0x01\n      0x00\n        /* \"src/KipuBankV3.sol\":6993:7018  totalUsdc += usdcReceived */\n      dup3\n      dup3\n      sload\n      tag_162\n      swap2\n      swap1\n      tag_106\n      jump\t// in\n    tag_162:\n      swap3\n      pop\n      pop\n      dup2\n      swap1\n      sstore\n      pop\n        /* \"src/KipuBankV3.sol\":7057:7069  usdcReceived */\n      dup1\n        /* \"src/KipuBankV3.sol\":7029:7041  usdcBalances */\n      0x03\n        /* \"src/KipuBankV3.sol\":7029:7053  usdcBalances[msg.sender] */\n      0x00\n        /* \"src/KipuBankV3.sol\":7042:7052  msg.sender */\n      caller\n        /* \"src/KipuBankV3.sol\":7029:7053  usdcBalances[msg.sender] */\n      0xffffffffffffffffffffffffffffffffffffffff\n      and\n      0xffffffffffffffffffffffffffffffffffffffff\n      and\n      dup2\n      mstore\n      0x20\n      add\n      swap1\n      dup2\n      mstore\n      0x20\n      add\n      0x00\n      keccak256\n      0x00\n        /* \"src/KipuBankV3.sol\":7029:7069  usdcBalances[msg.sender] += usdcReceived */\n      dup3\n      dup3\n      sload\n      tag_163\n      swap2\n      swap1\n      tag_106\n      jump\t// in\n    tag_163:\n      swap3\n      pop\n      pop\n      dup2\n      swap1\n      sstore\n      pop\n        /* \"src/KipuBankV3.sol\":7116:7120  WETH */\n      immutable(\"0xac09810740600c31fa69f9db79ed6fc3e3281f758a950fe1fb254a3a3ae571b6\")\n        /* \"src/KipuBankV3.sol\":7087:7146  DepositConverted(msg.sender, WETH, msg.value, usdcReceived) */\n      0xffffffffffffffffffffffffffffffffffffffff\n      and\n        /* \"src/KipuBankV3.sol\":7104:7114  msg.sender */\n      caller\n        /* \"src/KipuBankV3.sol\":7087:7146  DepositConverted(msg.sender, WETH, msg.value, usdcReceived) */\n      0xffffffffffffffffffffffffffffffffffffffff\n      and\n      0xab466672cd9adae1c2072831f94c1068597b355987d2a64d4e5a7dcd74e5cda5\n        /* \"src/KipuBankV3.sol\":7122:7131  msg.value */\n      callvalue\n        /* \"src/KipuBankV3.sol\":7133:7145  usdcReceived */\n      dup5\n        /* \"src/KipuBankV3.sol\":7087:7146  DepositConverted(msg.sender, WETH, msg.value, usdcReceived) */\n      mload(0x40)\n      tag_164\n      swap3\n      swap2\n      swap1\n      tag_130\n      jump\t// in\n    tag_164:\n      mload(0x40)\n      dup1\n      swap2\n      sub\n      swap1\n      log3\n        /* \"src/KipuBankV3.sol\":5933:7154  {... */\n      pop\n      pop\n      pop\n      pop\n        /* \"src/KipuBankV3.sol\":2748:2753  false */\n      0x00\n        /* \"src/KipuBankV3.sol\":2739:2745  locked */\n      0x02\n      0x00\n        /* \"src/KipuBankV3.sol\":2739:2753  locked = false */\n      0x0100\n      exp\n      dup2\n      sload\n      dup2\n      0xff\n      mul\n      not\n      and\n      swap1\n      dup4\n      iszero\n      iszero\n      mul\n      or\n      swap1\n      sstore\n      pop\n        /* \"src/KipuBankV3.sol\":5853:7154  function depositETHSwapToUSDC(uint256 minUsdcOut) external payable nonReentrant {... */\n      pop\n      jump\t// out\n        /* \"src/KipuBankV3.sol\":2085:2114  address public immutable USDC */\n    tag_43:\n      immutable(\"0x7d4579ab3c781860520f730aa471b37a7366c1c6efb6e34470da23130f5149f7\")\n      dup2\n      jump\t// out\n        /* \"src/KipuBankV3.sol\":2315:2335  address public owner */\n    tag_48:\n      0x00\n      0x00\n      swap1\n      sload\n      swap1\n      0x0100\n      exp\n      swap1\n      div\n      0xffffffffffffffffffffffffffffffffffffffff\n      and\n      dup2\n      jump\t// out\n        /* \"src/KipuBankV3.sol\":2523:2558  uint256 public immutable bankCapUsd */\n    tag_52:\n      immutable(\"0x2f5ccb30fa919306cd2899a81c7670a9b1be09e8c15a0b78b0fbbc777d15e97b\")\n      dup2\n      jump\t// out\n        /* \"src/KipuBankV3.sol\":2248:2277  address public immutable WETH */\n    tag_56:\n      immutable(\"0xac09810740600c31fa69f9db79ed6fc3e3281f758a950fe1fb254a3a3ae571b6\")\n      dup2\n      jump\t// out\n        /* \"src/KipuBankV3.sol\":4624:4737  function usdcBalanceOf(address user) external view returns (uint256) {... */\n    tag_61:\n        /* \"src/KipuBankV3.sol\":4684:4691  uint256 */\n      0x00\n        /* \"src/KipuBankV3.sol\":4711:4723  usdcBalances */\n      0x03\n        /* \"src/KipuBankV3.sol\":4711:4729  usdcBalances[user] */\n      0x00\n        /* \"src/KipuBankV3.sol\":4724:4728  user */\n      dup4\n        /* \"src/KipuBankV3.sol\":4711:4729  usdcBalances[user] */\n      0xffffffffffffffffffffffffffffffffffffffff\n      and\n      0xffffffffffffffffffffffffffffffffffffffff\n      and\n      dup2\n      mstore\n      0x20\n      add\n      swap1\n      dup2\n      mstore\n      0x20\n      add\n      0x00\n      keccak256\n      sload\n        /* \"src/KipuBankV3.sol\":4704:4729  return usdcBalances[user] */\n      swap1\n      pop\n        /* \"src/KipuBankV3.sol\":4624:4737  function usdcBalanceOf(address user) external view returns (uint256) {... */\n      swap2\n      swap1\n      pop\n      jump\t// out\n        /* \"src/KipuBankV3.sol\":9342:9882  function withdrawUSDC(uint256 amountUsdc) external nonReentrant {... */\n    tag_66:\n        /* \"src/KipuBankV3.sol\":2666:2672  locked */\n      0x02\n      0x00\n      swap1\n      sload\n      swap1\n      0x0100\n      exp\n      swap1\n      div\n      0xff\n      and\n        /* \"src/KipuBankV3.sol\":2662:2692  if (locked) revert Reentrant() */\n      iszero\n      tag_167\n      jumpi\n        /* \"src/KipuBankV3.sol\":2681:2692  Reentrant() */\n      mload(0x40)\n      0xed3ba6a600000000000000000000000000000000000000000000000000000000\n      dup2\n      mstore\n      0x04\n      add\n      mload(0x40)\n      dup1\n      swap2\n      sub\n      swap1\n      revert\n        /* \"src/KipuBankV3.sol\":2662:2692  if (locked) revert Reentrant() */\n    tag_167:\n        /* \"src/KipuBankV3.sol\":2712:2716  true */\n      0x01\n        /* \"src/KipuBankV3.sol\":2703:2709  locked */\n      0x02\n      0x00\n        /* \"src/KipuBankV3.sol\":2703:2716  locked = true */\n      0x0100\n      exp\n      dup2\n      sload\n      dup2\n      0xff\n      mul\n      not\n      and\n      swap1\n      dup4\n      iszero\n      iszero\n      mul\n      or\n      swap1\n      sstore\n      pop\n        /* \"src/KipuBankV3.sol\":9435:9436  0 */\n      0x00\n        /* \"src/KipuBankV3.sol\":9421:9431  amountUsdc */\n      dup2\n        /* \"src/KipuBankV3.sol\":9421:9436  amountUsdc == 0 */\n      sub\n        /* \"src/KipuBankV3.sol\":9417:9457  if (amountUsdc == 0) revert ZeroAmount() */\n      tag_169\n      jumpi\n        /* \"src/KipuBankV3.sol\":9445:9457  ZeroAmount() */\n      mload(0x40)\n      0x1f2a200500000000000000000000000000000000000000000000000000000000\n      dup2\n      mstore\n      0x04\n      add\n      mload(0x40)\n      dup1\n      swap2\n      sub\n      swap1\n      revert\n        /* \"src/KipuBankV3.sol\":9417:9457  if (amountUsdc == 0) revert ZeroAmount() */\n    tag_169:\n        /* \"src/KipuBankV3.sol\":9468:9476  uint bal */\n      0x00\n        /* \"src/KipuBankV3.sol\":9479:9491  usdcBalances */\n      0x03\n        /* \"src/KipuBankV3.sol\":9479:9503  usdcBalances[msg.sender] */\n      0x00\n        /* \"src/KipuBankV3.sol\":9492:9502  msg.sender */\n      caller\n        /* \"src/KipuBankV3.sol\":9479:9503  usdcBalances[msg.sender] */\n      0xffffffffffffffffffffffffffffffffffffffff\n      and\n      0xffffffffffffffffffffffffffffffffffffffff\n      and\n      dup2\n      mstore\n      0x20\n      add\n      swap1\n      dup2\n      mstore\n      0x20\n      add\n      0x00\n      keccak256\n      sload\n        /* \"src/KipuBankV3.sol\":9468:9503  uint bal = usdcBalances[msg.sender] */\n      swap1\n      pop\n        /* \"src/KipuBankV3.sol\":9531:9534  bal */\n      dup1\n        /* \"src/KipuBankV3.sol\":9518:9528  amountUsdc */\n      dup3\n        /* \"src/KipuBankV3.sol\":9518:9534  amountUsdc > bal */\n      gt\n        /* \"src/KipuBankV3.sol\":9514:9579  if (amountUsdc > bal) revert InsufficientBalance(bal, amountUsdc) */\n      iszero\n      tag_170\n      jumpi\n        /* \"src/KipuBankV3.sol\":9563:9566  bal */\n      dup1\n        /* \"src/KipuBankV3.sol\":9568:9578  amountUsdc */\n      dup3\n        /* \"src/KipuBankV3.sol\":9543:9579  InsufficientBalance(bal, amountUsdc) */\n      mload(0x40)\n      0xcf47918100000000000000000000000000000000000000000000000000000000\n      dup2\n      mstore\n      0x04\n      add\n      tag_171\n      swap3\n      swap2\n      swap1\n      tag_130\n      jump\t// in\n    tag_171:\n      mload(0x40)\n      dup1\n      swap2\n      sub\n      swap1\n      revert\n        /* \"src/KipuBankV3.sol\":9514:9579  if (amountUsdc > bal) revert InsufficientBalance(bal, amountUsdc) */\n    tag_170:\n        /* \"src/KipuBankV3.sol\":9645:9655  amountUsdc */\n      dup2\n        /* \"src/KipuBankV3.sol\":9639:9642  bal */\n      dup2\n        /* \"src/KipuBankV3.sol\":9639:9655  bal - amountUsdc */\n      tag_172\n      swap2\n      swap1\n      tag_115\n      jump\t// in\n    tag_172:\n        /* \"src/KipuBankV3.sol\":9612:9624  usdcBalances */\n      0x03\n        /* \"src/KipuBankV3.sol\":9612:9636  usdcBalances[msg.sender] */\n      0x00\n        /* \"src/KipuBankV3.sol\":9625:9635  msg.sender */\n      caller\n        /* \"src/KipuBankV3.sol\":9612:9636  usdcBalances[msg.sender] */\n      0xffffffffffffffffffffffffffffffffffffffff\n      and\n      0xffffffffffffffffffffffffffffffffffffffff\n      and\n      dup2\n      mstore\n      0x20\n      add\n      swap1\n      dup2\n      mstore\n      0x20\n      add\n      0x00\n      keccak256\n        /* \"src/KipuBankV3.sol\":9612:9655  usdcBalances[msg.sender] = bal - amountUsdc */\n      dup2\n      swap1\n      sstore\n      pop\n        /* \"src/KipuBankV3.sol\":9679:9689  amountUsdc */\n      dup2\n        /* \"src/KipuBankV3.sol\":9666:9675  totalUsdc */\n      0x01\n      0x00\n        /* \"src/KipuBankV3.sol\":9666:9689  totalUsdc -= amountUsdc */\n      dup3\n      dup3\n      sload\n      tag_173\n      swap2\n      swap1\n      tag_115\n      jump\t// in\n    tag_173:\n      swap3\n      pop\n      pop\n      dup2\n      swap1\n      sstore\n      pop\n        /* \"src/KipuBankV3.sol\":9726:9733  bool ok */\n      0x00\n        /* \"src/KipuBankV3.sol\":9743:9747  USDC */\n      immutable(\"0x7d4579ab3c781860520f730aa471b37a7366c1c6efb6e34470da23130f5149f7\")\n        /* \"src/KipuBankV3.sol\":9736:9757  IERC20(USDC).transfer */\n      0xffffffffffffffffffffffffffffffffffffffff\n      and\n      0xa9059cbb\n        /* \"src/KipuBankV3.sol\":9758:9768  msg.sender */\n      caller\n        /* \"src/KipuBankV3.sol\":9770:9780  amountUsdc */\n      dup6\n        /* \"src/KipuBankV3.sol\":9736:9781  IERC20(USDC).transfer(msg.sender, amountUsdc) */\n      mload(0x40)\n      dup4\n      0xffffffff\n      and\n      0xe0\n      shl\n      dup2\n      mstore\n      0x04\n      add\n      tag_174\n      swap3\n      swap2\n      swap1\n      tag_121\n      jump\t// in\n    tag_174:\n      0x20\n      mload(0x40)\n      dup1\n      dup4\n      sub\n      dup2\n      0x00\n      dup8\n      gas\n      call\n      iszero\n      dup1\n      iszero\n      tag_176\n      jumpi\n      returndatacopy(0x00, 0x00, returndatasize)\n      revert(0x00, returndatasize)\n    tag_176:\n      pop\n      pop\n      pop\n      pop\n      mload(0x40)\n      returndatasize\n      not(0x1f)\n      0x1f\n      dup3\n      add\n      and\n      dup3\n      add\n      dup1\n      0x40\n      mstore\n      pop\n      dup2\n      add\n      swap1\n      tag_177\n      swap2\n      swap1\n      tag_92\n      jump\t// in\n    tag_177:\n        /* \"src/KipuBankV3.sol\":9726:9781  bool ok = IERC20(USDC).transfer(msg.sender, amountUsdc) */\n      swap1\n      pop\n        /* \"src/KipuBankV3.sol\":9797:9799  ok */\n      dup1\n        /* \"src/KipuBankV3.sol\":9792:9820  if (!ok) revert SwapFailed() */\n      tag_178\n      jumpi\n        /* \"src/KipuBankV3.sol\":9808:9820  SwapFailed() */\n      mload(0x40)\n      0x81ceff3000000000000000000000000000000000000000000000000000000000\n      dup2\n      mstore\n      0x04\n      add\n      mload(0x40)\n      dup1\n      swap2\n      sub\n      swap1\n      revert\n        /* \"src/KipuBankV3.sol\":9792:9820  if (!ok) revert SwapFailed() */\n    tag_178:\n        /* \"src/KipuBankV3.sol\":9851:9861  msg.sender */\n      caller\n        /* \"src/KipuBankV3.sol\":9838:9874  WithdrawUSDC(msg.sender, amountUsdc) */\n      0xffffffffffffffffffffffffffffffffffffffff\n      and\n      0x23ee1b877cb0081138b4973c5b2eca0133c573ad526550935d83aaade37666ca\n        /* \"src/KipuBankV3.sol\":9863:9873  amountUsdc */\n      dup5\n        /* \"src/KipuBankV3.sol\":9838:9874  WithdrawUSDC(msg.sender, amountUsdc) */\n      mload(0x40)\n      tag_179\n      swap2\n      swap1\n      tag_31\n      jump\t// in\n    tag_179:\n      mload(0x40)\n      dup1\n      swap2\n      sub\n      swap1\n      log2\n        /* \"src/KipuBankV3.sol\":9406:9882  {... */\n      pop\n      pop\n        /* \"src/KipuBankV3.sol\":2748:2753  false */\n      0x00\n        /* \"src/KipuBankV3.sol\":2739:2745  locked */\n      0x02\n      0x00\n        /* \"src/KipuBankV3.sol\":2739:2753  locked = false */\n      0x0100\n      exp\n      dup2\n      sload\n      dup2\n      0xff\n      mul\n      not\n      and\n      swap1\n      dup4\n      iszero\n      iszero\n      mul\n      or\n      swap1\n      sstore\n      pop\n        /* \"src/KipuBankV3.sol\":9342:9882  function withdrawUSDC(uint256 amountUsdc) external nonReentrant {... */\n      pop\n      jump\t// out\n        /* \"src/KipuBankV3.sol\":4956:5646  function depositUSDC(uint256 amountUsdc) external nonReentrant {... */\n    tag_70:\n        /* \"src/KipuBankV3.sol\":2666:2672  locked */\n      0x02\n      0x00\n      swap1\n      sload\n      swap1\n      0x0100\n      exp\n      swap1\n      div\n      0xff\n      and\n        /* \"src/KipuBankV3.sol\":2662:2692  if (locked) revert Reentrant() */\n      iszero\n      tag_181\n      jumpi\n        /* \"src/KipuBankV3.sol\":2681:2692  Reentrant() */\n      mload(0x40)\n      0xed3ba6a600000000000000000000000000000000000000000000000000000000\n      dup2\n      mstore\n      0x04\n      add\n      mload(0x40)\n      dup1\n      swap2\n      sub\n      swap1\n      revert\n        /* \"src/KipuBankV3.sol\":2662:2692  if (locked) revert Reentrant() */\n    tag_181:\n        /* \"src/KipuBankV3.sol\":2712:2716  true */\n      0x01\n        /* \"src/KipuBankV3.sol\":2703:2709  locked */\n      0x02\n      0x00\n        /* \"src/KipuBankV3.sol\":2703:2716  locked = true */\n      0x0100\n      exp\n      dup2\n      sload\n      dup2\n      0xff\n      mul\n      not\n      and\n      swap1\n      dup4\n      iszero\n      iszero\n      mul\n      or\n      swap1\n      sstore\n      pop\n        /* \"src/KipuBankV3.sol\":5048:5049  0 */\n      0x00\n        /* \"src/KipuBankV3.sol\":5034:5044  amountUsdc */\n      dup2\n        /* \"src/KipuBankV3.sol\":5034:5049  amountUsdc == 0 */\n      sub\n        /* \"src/KipuBankV3.sol\":5030:5070  if (amountUsdc == 0) revert ZeroAmount() */\n      tag_183\n      jumpi\n        /* \"src/KipuBankV3.sol\":5058:5070  ZeroAmount() */\n      mload(0x40)\n      0x1f2a200500000000000000000000000000000000000000000000000000000000\n      dup2\n      mstore\n      0x04\n      add\n      mload(0x40)\n      dup1\n      swap2\n      sub\n      swap1\n      revert\n        /* \"src/KipuBankV3.sol\":5030:5070  if (amountUsdc == 0) revert ZeroAmount() */\n    tag_183:\n        /* \"src/KipuBankV3.sol\":5121:5128  bool ok */\n      0x00\n        /* \"src/KipuBankV3.sol\":5138:5142  USDC */\n      immutable(\"0x7d4579ab3c781860520f730aa471b37a7366c1c6efb6e34470da23130f5149f7\")\n        /* \"src/KipuBankV3.sol\":5131:5156  IERC20(USDC).transferFrom */\n      0xffffffffffffffffffffffffffffffffffffffff\n      and\n      0x23b872dd\n        /* \"src/KipuBankV3.sol\":5157:5167  msg.sender */\n      caller\n        /* \"src/KipuBankV3.sol\":5177:5181  this */\n      address\n        /* \"src/KipuBankV3.sol\":5184:5194  amountUsdc */\n      dup6\n        /* \"src/KipuBankV3.sol\":5131:5195  IERC20(USDC).transferFrom(msg.sender, address(this), amountUsdc) */\n      mload(0x40)\n      dup5\n      0xffffffff\n      and\n      0xe0\n      shl\n      dup2\n      mstore\n      0x04\n      add\n      tag_184\n      swap4\n      swap3\n      swap2\n      swap1\n      tag_88\n      jump\t// in\n    tag_184:\n      0x20\n      mload(0x40)\n      dup1\n      dup4\n      sub\n      dup2\n      0x00\n      dup8\n      gas\n      call\n      iszero\n      dup1\n      iszero\n      tag_186\n      jumpi\n      returndatacopy(0x00, 0x00, returndatasize)\n      revert(0x00, returndatasize)\n    tag_186:\n      pop\n      pop\n      pop\n      pop\n      mload(0x40)\n      returndatasize\n      not(0x1f)\n      0x1f\n      dup3\n      add\n      and\n      dup3\n      add\n      dup1\n      0x40\n      mstore\n      pop\n      dup2\n      add\n      swap1\n      tag_187\n      swap2\n      swap1\n      tag_92\n      jump\t// in\n    tag_187:\n        /* \"src/KipuBankV3.sol\":5121:5195  bool ok = IERC20(USDC).transferFrom(msg.sender, address(this), amountUsdc) */\n      swap1\n      pop\n        /* \"src/KipuBankV3.sol\":5211:5213  ok */\n      dup1\n        /* \"src/KipuBankV3.sol\":5206:5234  if (!ok) revert SwapFailed() */\n      tag_188\n      jumpi\n        /* \"src/KipuBankV3.sol\":5222:5234  SwapFailed() */\n      mload(0x40)\n      0x81ceff3000000000000000000000000000000000000000000000000000000000\n      dup2\n      mstore\n      0x04\n      add\n      mload(0x40)\n      dup1\n      swap2\n      sub\n      swap1\n      revert\n        /* \"src/KipuBankV3.sol\":5206:5234  if (!ok) revert SwapFailed() */\n    tag_188:\n        /* \"src/KipuBankV3.sol\":5303:5313  bankCapUsd */\n      immutable(\"0x2f5ccb30fa919306cd2899a81c7670a9b1be09e8c15a0b78b0fbbc777d15e97b\")\n        /* \"src/KipuBankV3.sol\":5290:5300  amountUsdc */\n      dup3\n        /* \"src/KipuBankV3.sol\":5278:5287  totalUsdc */\n      sload(0x01)\n        /* \"src/KipuBankV3.sol\":5278:5300  totalUsdc + amountUsdc */\n      tag_189\n      swap2\n      swap1\n      tag_106\n      jump\t// in\n    tag_189:\n        /* \"src/KipuBankV3.sol\":5278:5313  totalUsdc + amountUsdc > bankCapUsd */\n      gt\n        /* \"src/KipuBankV3.sol\":5274:5482  if (totalUsdc + amountUsdc > bankCapUsd) {... */\n      iszero\n      tag_190\n      jumpi\n        /* \"src/KipuBankV3.sol\":5360:5364  USDC */\n      immutable(\"0x7d4579ab3c781860520f730aa471b37a7366c1c6efb6e34470da23130f5149f7\")\n        /* \"src/KipuBankV3.sol\":5353:5374  IERC20(USDC).transfer */\n      0xffffffffffffffffffffffffffffffffffffffff\n      and\n      0xa9059cbb\n        /* \"src/KipuBankV3.sol\":5375:5385  msg.sender */\n      caller\n        /* \"src/KipuBankV3.sol\":5387:5397  amountUsdc */\n      dup5\n        /* \"src/KipuBankV3.sol\":5353:5398  IERC20(USDC).transfer(msg.sender, amountUsdc) */\n      mload(0x40)\n      dup4\n      0xffffffff\n      and\n      0xe0\n      shl\n      dup2\n      mstore\n      0x04\n      add\n      tag_191\n      swap3\n      swap2\n      swap1\n      tag_121\n      jump\t// in\n    tag_191:\n      0x20\n      mload(0x40)\n      dup1\n      dup4\n      sub\n      dup2\n      0x00\n      dup8\n      gas\n      call\n      iszero\n      dup1\n      iszero\n      tag_193\n      jumpi\n      returndatacopy(0x00, 0x00, returndatasize)\n      revert(0x00, returndatasize)\n    tag_193:\n      pop\n      pop\n      pop\n      pop\n      mload(0x40)\n      returndatasize\n      not(0x1f)\n      0x1f\n      dup3\n      add\n      and\n      dup3\n      add\n      dup1\n      0x40\n      mstore\n      pop\n      dup2\n      add\n      swap1\n      tag_194\n      swap2\n      swap1\n      tag_92\n      jump\t// in\n    tag_194:\n      pop\n        /* \"src/KipuBankV3.sol\":5436:5446  amountUsdc */\n      dup2\n        /* \"src/KipuBankV3.sol\":5448:5457  totalUsdc */\n      sload(0x01)\n        /* \"src/KipuBankV3.sol\":5459:5469  bankCapUsd */\n      immutable(\"0x2f5ccb30fa919306cd2899a81c7670a9b1be09e8c15a0b78b0fbbc777d15e97b\")\n        /* \"src/KipuBankV3.sol\":5420:5470  BankCapExceeded(amountUsdc, totalUsdc, bankCapUsd) */\n      mload(0x40)\n      0x621e5a6900000000000000000000000000000000000000000000000000000000\n      dup2\n      mstore\n      0x04\n      add\n      tag_195\n      swap4\n      swap3\n      swap2\n      swap1\n      tag_126\n      jump\t// in\n    tag_195:\n      mload(0x40)\n      dup1\n      swap2\n      sub\n      swap1\n      revert\n        /* \"src/KipuBankV3.sol\":5274:5482  if (totalUsdc + amountUsdc > bankCapUsd) {... */\n    tag_190:\n        /* \"src/KipuBankV3.sol\":5526:5536  amountUsdc */\n      dup2\n        /* \"src/KipuBankV3.sol\":5513:5522  totalUsdc */\n      0x01\n      0x00\n        /* \"src/KipuBankV3.sol\":5513:5536  totalUsdc += amountUsdc */\n      dup3\n      dup3\n      sload\n      tag_196\n      swap2\n      swap1\n      tag_106\n      jump\t// in\n    tag_196:\n      swap3\n      pop\n      pop\n      dup2\n      swap1\n      sstore\n      pop\n        /* \"src/KipuBankV3.sol\":5575:5585  amountUsdc */\n      dup2\n        /* \"src/KipuBankV3.sol\":5547:5559  usdcBalances */\n      0x03\n        /* \"src/KipuBankV3.sol\":5547:5571  usdcBalances[msg.sender] */\n      0x00\n        /* \"src/KipuBankV3.sol\":5560:5570  msg.sender */\n      caller\n        /* \"src/KipuBankV3.sol\":5547:5571  usdcBalances[msg.sender] */\n      0xffffffffffffffffffffffffffffffffffffffff\n      and\n      0xffffffffffffffffffffffffffffffffffffffff\n      and\n      dup2\n      mstore\n      0x20\n      add\n      swap1\n      dup2\n      mstore\n      0x20\n      add\n      0x00\n      keccak256\n      0x00\n        /* \"src/KipuBankV3.sol\":5547:5585  usdcBalances[msg.sender] += amountUsdc */\n      dup3\n      dup3\n      sload\n      tag_197\n      swap2\n      swap1\n      tag_106\n      jump\t// in\n    tag_197:\n      swap3\n      pop\n      pop\n      dup2\n      swap1\n      sstore\n      pop\n        /* \"src/KipuBankV3.sol\":5615:5625  msg.sender */\n      caller\n        /* \"src/KipuBankV3.sol\":5603:5638  DepositUSDC(msg.sender, amountUsdc) */\n      0xffffffffffffffffffffffffffffffffffffffff\n      and\n      0xe7440f6772025dec9be06ba934e6ee5289b73533ee2136ba668f6cb6ea3f56a8\n        /* \"src/KipuBankV3.sol\":5627:5637  amountUsdc */\n      dup4\n        /* \"src/KipuBankV3.sol\":5603:5638  DepositUSDC(msg.sender, amountUsdc) */\n      mload(0x40)\n      tag_198\n      swap2\n      swap1\n      tag_31\n      jump\t// in\n    tag_198:\n      mload(0x40)\n      dup1\n      swap2\n      sub\n      swap1\n      log2\n        /* \"src/KipuBankV3.sol\":5019:5646  {... */\n      pop\n        /* \"src/KipuBankV3.sol\":2748:2753  false */\n      0x00\n        /* \"src/KipuBankV3.sol\":2739:2745  locked */\n      0x02\n      0x00\n        /* \"src/KipuBankV3.sol\":2739:2753  locked = false */\n      0x0100\n      exp\n      dup2\n      sload\n      dup2\n      0xff\n      mul\n      not\n      and\n      swap1\n      dup4\n      iszero\n      iszero\n      mul\n      or\n      swap1\n      sstore\n      pop\n        /* \"src/KipuBankV3.sol\":4956:5646  function depositUSDC(uint256 amountUsdc) external nonReentrant {... */\n      pop\n      jump\t// out\n        /* \"src/KipuBankV3.sol\":2155:2197  IUniswapV2Router02 public immutable router */\n    tag_73:\n      immutable(\"0xb9aa4ff60d3edb7fbc3b53bd780c9274ed80a5ba1a237d38b011edab2b031b4a\")\n      dup2\n      jump\t// out\n        /* \"src/KipuBankV3.sol\":9942:10196  function _safeApprove(address token, address spender, uint256 amount) internal {... */\n    tag_95:\n        /* \"src/KipuBankV3.sol\":10113:10118  token */\n      dup3\n        /* \"src/KipuBankV3.sol\":10106:10127  IERC20(token).approve */\n      0xffffffffffffffffffffffffffffffffffffffff\n      and\n      0x095ea7b3\n        /* \"src/KipuBankV3.sol\":10128:10135  spender */\n      dup4\n        /* \"src/KipuBankV3.sol\":10137:10138  0 */\n      0x00\n        /* \"src/KipuBankV3.sol\":10106:10139  IERC20(token).approve(spender, 0) */\n      mload(0x40)\n      dup4\n      0xffffffff\n      and\n      0xe0\n      shl\n      dup2\n      mstore\n      0x04\n      add\n      tag_200\n      swap3\n      swap2\n      swap1\n      tag_201\n      jump\t// in\n    tag_200:\n      0x20\n      mload(0x40)\n      dup1\n      dup4\n      sub\n      dup2\n      0x00\n      dup8\n      gas\n      call\n      iszero\n      dup1\n      iszero\n      tag_203\n      jumpi\n      returndatacopy(0x00, 0x00, returndatasize)\n      revert(0x00, returndatasize)\n    tag_203:\n      pop\n      pop\n      pop\n      pop\n      mload(0x40)\n      returndatasize\n      not(0x1f)\n      0x1f\n      dup3\n      add\n      and\n      dup3\n      add\n      dup1\n      0x40\n      mstore\n      pop\n      dup2\n      add\n      swap1\n      tag_204\n      swap2\n      swap1\n      tag_92\n      jump\t// in\n    tag_204:\n      pop\n        /* \"src/KipuBankV3.sol\":10157:10162  token */\n      dup3\n        /* \"src/KipuBankV3.sol\":10150:10171  IERC20(token).approve */\n      0xffffffffffffffffffffffffffffffffffffffff\n      and\n      0x095ea7b3\n        /* \"src/KipuBankV3.sol\":10172:10179  spender */\n      dup4\n        /* \"src/KipuBankV3.sol\":10181:10187  amount */\n      dup4\n        /* \"src/KipuBankV3.sol\":10150:10188  IERC20(token).approve(spender, amount) */\n      mload(0x40)\n      dup4\n      0xffffffff\n      and\n      0xe0\n      shl\n      dup2\n      mstore\n      0x04\n      add\n      tag_205\n      swap3\n      swap2\n      swap1\n      tag_121\n      jump\t// in\n    tag_205:\n      0x20\n      mload(0x40)\n      dup1\n      dup4\n      sub\n      dup2\n      0x00\n      dup8\n      gas\n      call\n      iszero\n      dup1\n      iszero\n      tag_207\n      jumpi\n      returndatacopy(0x00, 0x00, returndatasize)\n      revert(0x00, returndatasize)\n    tag_207:\n      pop\n      pop\n      pop\n      pop\n      mload(0x40)\n      returndatasize\n      not(0x1f)\n      0x1f\n      dup3\n      add\n      and\n      dup3\n      add\n      dup1\n      0x40\n      mstore\n      pop\n      dup2\n      add\n      swap1\n      tag_208\n      swap2\n      swap1\n      tag_92\n      jump\t// in\n    tag_208:\n      pop\n        /* \"src/KipuBankV3.sol\":9942:10196  function _safeApprove(address token, address spender, uint256 amount) internal {... */\n      pop\n      pop\n      pop\n      jump\t// out\n        /* \"#utility.yul\":7:176   */\n    tag_209:\n        /* \"#utility.yul\":91:102   */\n      0x00\n        /* \"#utility.yul\":125:131   */\n      dup3\n        /* \"#utility.yul\":120:123   */\n      dup3\n        /* \"#utility.yul\":113:132   */\n      mstore\n        /* \"#utility.yul\":165:169   */\n      0x20\n        /* \"#utility.yul\":160:163   */\n      dup3\n        /* \"#utility.yul\":156:170   */\n      add\n        /* \"#utility.yul\":141:170   */\n      swap1\n      pop\n        /* \"#utility.yul\":7:176   */\n      swap3\n      swap2\n      pop\n      pop\n      jump\t// out\n        /* \"#utility.yul\":182:411   */\n    tag_210:\n        /* \"#utility.yul\":322:356   */\n      0x557365206465706f73697445544853776170546f555344432066756e6374696f\n        /* \"#utility.yul\":318:319   */\n      0x00\n        /* \"#utility.yul\":310:316   */\n      dup3\n        /* \"#utility.yul\":306:320   */\n      add\n        /* \"#utility.yul\":299:357   */\n      mstore\n        /* \"#utility.yul\":391:403   */\n      0x6e206469726563746c7900000000000000000000000000000000000000000000\n        /* \"#utility.yul\":386:388   */\n      0x20\n        /* \"#utility.yul\":378:384   */\n      dup3\n        /* \"#utility.yul\":374:389   */\n      add\n        /* \"#utility.yul\":367:404   */\n      mstore\n        /* \"#utility.yul\":182:411   */\n      pop\n      jump\t// out\n        /* \"#utility.yul\":417:783   */\n    tag_211:\n        /* \"#utility.yul\":559:562   */\n      0x00\n        /* \"#utility.yul\":580:647   */\n      tag_258\n        /* \"#utility.yul\":644:646   */\n      0x2a\n        /* \"#utility.yul\":639:642   */\n      dup4\n        /* \"#utility.yul\":580:647   */\n      tag_209\n      jump\t// in\n    tag_258:\n        /* \"#utility.yul\":573:647   */\n      swap2\n      pop\n        /* \"#utility.yul\":656:749   */\n      tag_259\n        /* \"#utility.yul\":745:748   */\n      dup3\n        /* \"#utility.yul\":656:749   */\n      tag_210\n      jump\t// in\n    tag_259:\n        /* \"#utility.yul\":774:776   */\n      0x40\n        /* \"#utility.yul\":769:772   */\n      dup3\n        /* \"#utility.yul\":765:777   */\n      add\n        /* \"#utility.yul\":758:777   */\n      swap1\n      pop\n        /* \"#utility.yul\":417:783   */\n      swap2\n      swap1\n      pop\n      jump\t// out\n        /* \"#utility.yul\":789:1208   */\n    tag_19:\n        /* \"#utility.yul\":955:959   */\n      0x00\n        /* \"#utility.yul\":993:995   */\n      0x20\n        /* \"#utility.yul\":982:991   */\n      dup3\n        /* \"#utility.yul\":978:996   */\n      add\n        /* \"#utility.yul\":970:996   */\n      swap1\n      pop\n        /* \"#utility.yul\":1042:1051   */\n      dup2\n        /* \"#utility.yul\":1036:1040   */\n      dup2\n        /* \"#utility.yul\":1032:1052   */\n      sub\n        /* \"#utility.yul\":1028:1029   */\n      0x00\n        /* \"#utility.yul\":1017:1026   */\n      dup4\n        /* \"#utility.yul\":1013:1030   */\n      add\n        /* \"#utility.yul\":1006:1053   */\n      mstore\n        /* \"#utility.yul\":1070:1201   */\n      tag_261\n        /* \"#utility.yul\":1196:1200   */\n      dup2\n        /* \"#utility.yul\":1070:1201   */\n      tag_211\n      jump\t// in\n    tag_261:\n        /* \"#utility.yul\":1062:1201   */\n      swap1\n      pop\n        /* \"#utility.yul\":789:1208   */\n      swap2\n      swap1\n      pop\n      jump\t// out\n        /* \"#utility.yul\":1214:1289   */\n    tag_212:\n        /* \"#utility.yul\":1247:1253   */\n      0x00\n        /* \"#utility.yul\":1280:1282   */\n      0x40\n        /* \"#utility.yul\":1274:1283   */\n      mload\n        /* \"#utility.yul\":1264:1283   */\n      swap1\n      pop\n        /* \"#utility.yul\":1214:1289   */\n      swap1\n      jump\t// out\n        /* \"#utility.yul\":1295:1412   */\n    tag_213:\n        /* \"#utility.yul\":1404:1405   */\n      0x00\n        /* \"#utility.yul\":1401:1402   */\n      0x00\n        /* \"#utility.yul\":1394:1406   */\n      revert\n        /* \"#utility.yul\":1418:1535   */\n    tag_214:\n        /* \"#utility.yul\":1527:1528   */\n      0x00\n        /* \"#utility.yul\":1524:1525   */\n      0x00\n        /* \"#utility.yul\":1517:1529   */\n      revert\n        /* \"#utility.yul\":1541:1667   */\n    tag_215:\n        /* \"#utility.yul\":1578:1585   */\n      0x00\n        /* \"#utility.yul\":1618:1660   */\n      0xffffffffffffffffffffffffffffffffffffffff\n        /* \"#utility.yul\":1611:1616   */\n      dup3\n        /* \"#utility.yul\":1607:1661   */\n      and\n        /* \"#utility.yul\":1596:1661   */\n      swap1\n      pop\n        /* \"#utility.yul\":1541:1667   */\n      swap2\n      swap1\n      pop\n      jump\t// out\n        /* \"#utility.yul\":1673:1769   */\n    tag_216:\n        /* \"#utility.yul\":1710:1717   */\n      0x00\n        /* \"#utility.yul\":1739:1763   */\n      tag_267\n        /* \"#utility.yul\":1757:1762   */\n      dup3\n        /* \"#utility.yul\":1739:1763   */\n      tag_215\n      jump\t// in\n    tag_267:\n        /* \"#utility.yul\":1728:1763   */\n      swap1\n      pop\n        /* \"#utility.yul\":1673:1769   */\n      swap2\n      swap1\n      pop\n      jump\t// out\n        /* \"#utility.yul\":1775:1897   */\n    tag_217:\n        /* \"#utility.yul\":1848:1872   */\n      tag_269\n        /* \"#utility.yul\":1866:1871   */\n      dup2\n        /* \"#utility.yul\":1848:1872   */\n      tag_216\n      jump\t// in\n    tag_269:\n        /* \"#utility.yul\":1841:1846   */\n      dup2\n        /* \"#utility.yul\":1838:1873   */\n      eq\n        /* \"#utility.yul\":1828:1891   */\n      tag_270\n      jumpi\n        /* \"#utility.yul\":1887:1888   */\n      0x00\n        /* \"#utility.yul\":1884:1885   */\n      0x00\n        /* \"#utility.yul\":1877:1889   */\n      revert\n        /* \"#utility.yul\":1828:1891   */\n    tag_270:\n        /* \"#utility.yul\":1775:1897   */\n      pop\n      jump\t// out\n        /* \"#utility.yul\":1903:2042   */\n    tag_218:\n        /* \"#utility.yul\":1949:1954   */\n      0x00\n        /* \"#utility.yul\":1987:1993   */\n      dup2\n        /* \"#utility.yul\":1974:1994   */\n      calldataload\n        /* \"#utility.yul\":1965:1994   */\n      swap1\n      pop\n        /* \"#utility.yul\":2003:2036   */\n      tag_272\n        /* \"#utility.yul\":2030:2035   */\n      dup2\n        /* \"#utility.yul\":2003:2036   */\n      tag_217\n      jump\t// in\n    tag_272:\n        /* \"#utility.yul\":1903:2042   */\n      swap3\n      swap2\n      pop\n      pop\n      jump\t// out\n        /* \"#utility.yul\":2048:2377   */\n    tag_25:\n        /* \"#utility.yul\":2107:2113   */\n      0x00\n        /* \"#utility.yul\":2156:2158   */\n      0x20\n        /* \"#utility.yul\":2144:2153   */\n      dup3\n        /* \"#utility.yul\":2135:2142   */\n      dup5\n        /* \"#utility.yul\":2131:2154   */\n      sub\n        /* \"#utility.yul\":2127:2159   */\n      slt\n        /* \"#utility.yul\":2124:2243   */\n      iszero\n      tag_274\n      jumpi\n        /* \"#utility.yul\":2162:2241   */\n      tag_275\n      tag_213\n      jump\t// in\n    tag_275:\n        /* \"#utility.yul\":2124:2243   */\n    tag_274:\n        /* \"#utility.yul\":2282:2283   */\n      0x00\n        /* \"#utility.yul\":2307:2360   */\n      tag_276\n        /* \"#utility.yul\":2352:2359   */\n      dup5\n        /* \"#utility.yul\":2343:2349   */\n      dup3\n        /* \"#utility.yul\":2332:2341   */\n      dup6\n        /* \"#utility.yul\":2328:2350   */\n      add\n        /* \"#utility.yul\":2307:2360   */\n      tag_218\n      jump\t// in\n    tag_276:\n        /* \"#utility.yul\":2297:2360   */\n      swap2\n      pop\n        /* \"#utility.yul\":2253:2370   */\n      pop\n        /* \"#utility.yul\":2048:2377   */\n      swap3\n      swap2\n      pop\n      pop\n      jump\t// out\n        /* \"#utility.yul\":2383:2460   */\n    tag_219:\n        /* \"#utility.yul\":2420:2427   */\n      0x00\n        /* \"#utility.yul\":2449:2454   */\n      dup2\n        /* \"#utility.yul\":2438:2454   */\n      swap1\n      pop\n        /* \"#utility.yul\":2383:2460   */\n      swap2\n      swap1\n      pop\n      jump\t// out\n        /* \"#utility.yul\":2466:2584   */\n    tag_220:\n        /* \"#utility.yul\":2553:2577   */\n      tag_279\n        /* \"#utility.yul\":2571:2576   */\n      dup2\n        /* \"#utility.yul\":2553:2577   */\n      tag_219\n      jump\t// in\n    tag_279:\n        /* \"#utility.yul\":2548:2551   */\n      dup3\n        /* \"#utility.yul\":2541:2578   */\n      mstore\n        /* \"#utility.yul\":2466:2584   */\n      pop\n      pop\n      jump\t// out\n        /* \"#utility.yul\":2590:2812   */\n    tag_31:\n        /* \"#utility.yul\":2683:2687   */\n      0x00\n        /* \"#utility.yul\":2721:2723   */\n      0x20\n        /* \"#utility.yul\":2710:2719   */\n      dup3\n        /* \"#utility.yul\":2706:2724   */\n      add\n        /* \"#utility.yul\":2698:2724   */\n      swap1\n      pop\n        /* \"#utility.yul\":2734:2805   */\n      tag_281\n        /* \"#utility.yul\":2802:2803   */\n      0x00\n        /* \"#utility.yul\":2791:2800   */\n      dup4\n        /* \"#utility.yul\":2787:2804   */\n      add\n        /* \"#utility.yul\":2778:2784   */\n      dup5\n        /* \"#utility.yul\":2734:2805   */\n      tag_220\n      jump\t// in\n    tag_281:\n        /* \"#utility.yul\":2590:2812   */\n      swap3\n      swap2\n      pop\n      pop\n      jump\t// out\n        /* \"#utility.yul\":2818:2940   */\n    tag_221:\n        /* \"#utility.yul\":2891:2915   */\n      tag_283\n        /* \"#utility.yul\":2909:2914   */\n      dup2\n        /* \"#utility.yul\":2891:2915   */\n      tag_219\n      jump\t// in\n    tag_283:\n        /* \"#utility.yul\":2884:2889   */\n      dup2\n        /* \"#utility.yul\":2881:2916   */\n      eq\n        /* \"#utility.yul\":2871:2934   */\n      tag_284\n      jumpi\n        /* \"#utility.yul\":2930:2931   */\n      0x00\n        /* \"#utility.yul\":2927:2928   */\n      0x00\n        /* \"#utility.yul\":2920:2932   */\n      revert\n        /* \"#utility.yul\":2871:2934   */\n    tag_284:\n        /* \"#utility.yul\":2818:2940   */\n      pop\n      jump\t// out\n        /* \"#utility.yul\":2946:3085   */\n    tag_222:\n        /* \"#utility.yul\":2992:2997   */\n      0x00\n        /* \"#utility.yul\":3030:3036   */\n      dup2\n        /* \"#utility.yul\":3017:3037   */\n      calldataload\n        /* \"#utility.yul\":3008:3037   */\n      swap1\n      pop\n        /* \"#utility.yul\":3046:3079   */\n      tag_286\n        /* \"#utility.yul\":3073:3078   */\n      dup2\n        /* \"#utility.yul\":3046:3079   */\n      tag_221\n      jump\t// in\n    tag_286:\n        /* \"#utility.yul\":2946:3085   */\n      swap3\n      swap2\n      pop\n      pop\n      jump\t// out\n        /* \"#utility.yul\":3091:3710   */\n    tag_35:\n        /* \"#utility.yul\":3168:3174   */\n      0x00\n        /* \"#utility.yul\":3176:3182   */\n      0x00\n        /* \"#utility.yul\":3184:3190   */\n      0x00\n        /* \"#utility.yul\":3233:3235   */\n      0x60\n        /* \"#utility.yul\":3221:3230   */\n      dup5\n        /* \"#utility.yul\":3212:3219   */\n      dup7\n        /* \"#utility.yul\":3208:3231   */\n      sub\n        /* \"#utility.yul\":3204:3236   */\n      slt\n        /* \"#utility.yul\":3201:3320   */\n      iszero\n      tag_288\n      jumpi\n        /* \"#utility.yul\":3239:3318   */\n      tag_289\n      tag_213\n      jump\t// in\n    tag_289:\n        /* \"#utility.yul\":3201:3320   */\n    tag_288:\n        /* \"#utility.yul\":3359:3360   */\n      0x00\n        /* \"#utility.yul\":3384:3437   */\n      tag_290\n        /* \"#utility.yul\":3429:3436   */\n      dup7\n        /* \"#utility.yul\":3420:3426   */\n      dup3\n        /* \"#utility.yul\":3409:3418   */\n      dup8\n        /* \"#utility.yul\":3405:3427   */\n      add\n        /* \"#utility.yul\":3384:3437   */\n      tag_218\n      jump\t// in\n    tag_290:\n        /* \"#utility.yul\":3374:3437   */\n      swap4\n      pop\n        /* \"#utility.yul\":3330:3447   */\n      pop\n        /* \"#utility.yul\":3486:3488   */\n      0x20\n        /* \"#utility.yul\":3512:3565   */\n      tag_291\n        /* \"#utility.yul\":3557:3564   */\n      dup7\n        /* \"#utility.yul\":3548:3554   */\n      dup3\n        /* \"#utility.yul\":3537:3546   */\n      dup8\n        /* \"#utility.yul\":3533:3555   */\n      add\n        /* \"#utility.yul\":3512:3565   */\n      tag_222\n      jump\t// in\n    tag_291:\n        /* \"#utility.yul\":3502:3565   */\n      swap3\n      pop\n        /* \"#utility.yul\":3457:3575   */\n      pop\n        /* \"#utility.yul\":3614:3616   */\n      0x40\n        /* \"#utility.yul\":3640:3693   */\n      tag_292\n        /* \"#utility.yul\":3685:3692   */\n      dup7\n        /* \"#utility.yul\":3676:3682   */\n      dup3\n        /* \"#utility.yul\":3665:3674   */\n      dup8\n        /* \"#utility.yul\":3661:3683   */\n      add\n        /* \"#utility.yul\":3640:3693   */\n      tag_222\n      jump\t// in\n    tag_292:\n        /* \"#utility.yul\":3630:3693   */\n      swap2\n      pop\n        /* \"#utility.yul\":3585:3703   */\n      pop\n        /* \"#utility.yul\":3091:3710   */\n      swap3\n      pop\n      swap3\n      pop\n      swap3\n      jump\t// out\n        /* \"#utility.yul\":3716:4045   */\n    tag_39:\n        /* \"#utility.yul\":3775:3781   */\n      0x00\n        /* \"#utility.yul\":3824:3826   */\n      0x20\n        /* \"#utility.yul\":3812:3821   */\n      dup3\n        /* \"#utility.yul\":3803:3810   */\n      dup5\n        /* \"#utility.yul\":3799:3822   */\n      sub\n        /* \"#utility.yul\":3795:3827   */\n      slt\n        /* \"#utility.yul\":3792:3911   */\n      iszero\n      tag_294\n      jumpi\n        /* \"#utility.yul\":3830:3909   */\n      tag_295\n      tag_213\n      jump\t// in\n    tag_295:\n        /* \"#utility.yul\":3792:3911   */\n    tag_294:\n        /* \"#utility.yul\":3950:3951   */\n      0x00\n        /* \"#utility.yul\":3975:4028   */\n      tag_296\n        /* \"#utility.yul\":4020:4027   */\n      dup5\n        /* \"#utility.yul\":4011:4017   */\n      dup3\n        /* \"#utility.yul\":4000:4009   */\n      dup6\n        /* \"#utility.yul\":3996:4018   */\n      add\n        /* \"#utility.yul\":3975:4028   */\n      tag_222\n      jump\t// in\n    tag_296:\n        /* \"#utility.yul\":3965:4028   */\n      swap2\n      pop\n        /* \"#utility.yul\":3921:4038   */\n      pop\n        /* \"#utility.yul\":3716:4045   */\n      swap3\n      swap2\n      pop\n      pop\n      jump\t// out\n        /* \"#utility.yul\":4051:4169   */\n    tag_223:\n        /* \"#utility.yul\":4138:4162   */\n      tag_298\n        /* \"#utility.yul\":4156:4161   */\n      dup2\n        /* \"#utility.yul\":4138:4162   */\n      tag_216\n      jump\t// in\n    tag_298:\n        /* \"#utility.yul\":4133:4136   */\n      dup3\n        /* \"#utility.yul\":4126:4163   */\n      mstore\n        /* \"#utility.yul\":4051:4169   */\n      pop\n      pop\n      jump\t// out\n        /* \"#utility.yul\":4175:4397   */\n    tag_45:\n        /* \"#utility.yul\":4268:4272   */\n      0x00\n        /* \"#utility.yul\":4306:4308   */\n      0x20\n        /* \"#utility.yul\":4295:4304   */\n      dup3\n        /* \"#utility.yul\":4291:4309   */\n      add\n        /* \"#utility.yul\":4283:4309   */\n      swap1\n      pop\n        /* \"#utility.yul\":4319:4390   */\n      tag_300\n        /* \"#utility.yul\":4387:4388   */\n      0x00\n        /* \"#utility.yul\":4376:4385   */\n      dup4\n        /* \"#utility.yul\":4372:4389   */\n      add\n        /* \"#utility.yul\":4363:4369   */\n      dup5\n        /* \"#utility.yul\":4319:4390   */\n      tag_223\n      jump\t// in\n    tag_300:\n        /* \"#utility.yul\":4175:4397   */\n      swap3\n      swap2\n      pop\n      pop\n      jump\t// out\n        /* \"#utility.yul\":4403:4463   */\n    tag_224:\n        /* \"#utility.yul\":4431:4434   */\n      0x00\n        /* \"#utility.yul\":4452:4457   */\n      dup2\n        /* \"#utility.yul\":4445:4457   */\n      swap1\n      pop\n        /* \"#utility.yul\":4403:4463   */\n      swap2\n      swap1\n      pop\n      jump\t// out\n        /* \"#utility.yul\":4469:4611   */\n    tag_225:\n        /* \"#utility.yul\":4519:4528   */\n      0x00\n        /* \"#utility.yul\":4552:4605   */\n      tag_303\n        /* \"#utility.yul\":4570:4604   */\n      tag_304\n        /* \"#utility.yul\":4579:4603   */\n      tag_305\n        /* \"#utility.yul\":4597:4602   */\n      dup5\n        /* \"#utility.yul\":4579:4603   */\n      tag_215\n      jump\t// in\n    tag_305:\n        /* \"#utility.yul\":4570:4604   */\n      tag_224\n      jump\t// in\n    tag_304:\n        /* \"#utility.yul\":4552:4605   */\n      tag_215\n      jump\t// in\n    tag_303:\n        /* \"#utility.yul\":4539:4605   */\n      swap1\n      pop\n        /* \"#utility.yul\":4469:4611   */\n      swap2\n      swap1\n      pop\n      jump\t// out\n        /* \"#utility.yul\":4617:4743   */\n    tag_226:\n        /* \"#utility.yul\":4667:4676   */\n      0x00\n        /* \"#utility.yul\":4700:4737   */\n      tag_307\n        /* \"#utility.yul\":4731:4736   */\n      dup3\n        /* \"#utility.yul\":4700:4737   */\n      tag_225\n      jump\t// in\n    tag_307:\n        /* \"#utility.yul\":4687:4737   */\n      swap1\n      pop\n        /* \"#utility.yul\":4617:4743   */\n      swap2\n      swap1\n      pop\n      jump\t// out\n        /* \"#utility.yul\":4749:4901   */\n    tag_227:\n        /* \"#utility.yul\":4825:4834   */\n      0x00\n        /* \"#utility.yul\":4858:4895   */\n      tag_309\n        /* \"#utility.yul\":4889:4894   */\n      dup3\n        /* \"#utility.yul\":4858:4895   */\n      tag_226\n      jump\t// in\n    tag_309:\n        /* \"#utility.yul\":4845:4895   */\n      swap1\n      pop\n        /* \"#utility.yul\":4749:4901   */\n      swap2\n      swap1\n      pop\n      jump\t// out\n        /* \"#utility.yul\":4907:5090   */\n    tag_228:\n        /* \"#utility.yul\":5020:5083   */\n      tag_311\n        /* \"#utility.yul\":5077:5082   */\n      dup2\n        /* \"#utility.yul\":5020:5083   */\n      tag_227\n      jump\t// in\n    tag_311:\n        /* \"#utility.yul\":5015:5018   */\n      dup3\n        /* \"#utility.yul\":5008:5084   */\n      mstore\n        /* \"#utility.yul\":4907:5090   */\n      pop\n      pop\n      jump\t// out\n        /* \"#utility.yul\":5096:5370   */\n    tag_75:\n        /* \"#utility.yul\":5215:5219   */\n      0x00\n        /* \"#utility.yul\":5253:5255   */\n      0x20\n        /* \"#utility.yul\":5242:5251   */\n      dup3\n        /* \"#utility.yul\":5238:5256   */\n      add\n        /* \"#utility.yul\":5230:5256   */\n      swap1\n      pop\n        /* \"#utility.yul\":5266:5363   */\n      tag_313\n        /* \"#utility.yul\":5360:5361   */\n      0x00\n        /* \"#utility.yul\":5349:5358   */\n      dup4\n        /* \"#utility.yul\":5345:5362   */\n      add\n        /* \"#utility.yul\":5336:5342   */\n      dup5\n        /* \"#utility.yul\":5266:5363   */\n      tag_228\n      jump\t// in\n    tag_313:\n        /* \"#utility.yul\":5096:5370   */\n      swap3\n      swap2\n      pop\n      pop\n      jump\t// out\n        /* \"#utility.yul\":5376:5535   */\n    tag_229:\n        /* \"#utility.yul\":5516:5527   */\n      0x7a65726f20616464720000000000000000000000000000000000000000000000\n        /* \"#utility.yul\":5512:5513   */\n      0x00\n        /* \"#utility.yul\":5504:5510   */\n      dup3\n        /* \"#utility.yul\":5500:5514   */\n      add\n        /* \"#utility.yul\":5493:5528   */\n      mstore\n        /* \"#utility.yul\":5376:5535   */\n      pop\n      jump\t// out\n        /* \"#utility.yul\":5541:5906   */\n    tag_230:\n        /* \"#utility.yul\":5683:5686   */\n      0x00\n        /* \"#utility.yul\":5704:5770   */\n      tag_316\n        /* \"#utility.yul\":5768:5769   */\n      0x09\n        /* \"#utility.yul\":5763:5766   */\n      dup4\n        /* \"#utility.yul\":5704:5770   */\n      tag_209\n      jump\t// in\n    tag_316:\n        /* \"#utility.yul\":5697:5770   */\n      swap2\n      pop\n        /* \"#utility.yul\":5779:5872   */\n      tag_317\n        /* \"#utility.yul\":5868:5871   */\n      dup3\n        /* \"#utility.yul\":5779:5872   */\n      tag_229\n      jump\t// in\n    tag_317:\n        /* \"#utility.yul\":5897:5899   */\n      0x20\n        /* \"#utility.yul\":5892:5895   */\n      dup3\n        /* \"#utility.yul\":5888:5900   */\n      add\n        /* \"#utility.yul\":5881:5900   */\n      swap1\n      pop\n        /* \"#utility.yul\":5541:5906   */\n      swap2\n      swap1\n      pop\n      jump\t// out\n        /* \"#utility.yul\":5912:6331   */\n    tag_80:\n        /* \"#utility.yul\":6078:6082   */\n      0x00\n        /* \"#utility.yul\":6116:6118   */\n      0x20\n        /* \"#utility.yul\":6105:6114   */\n      dup3\n        /* \"#utility.yul\":6101:6119   */\n      add\n        /* \"#utility.yul\":6093:6119   */\n      swap1\n      pop\n        /* \"#utility.yul\":6165:6174   */\n      dup2\n        /* \"#utility.yul\":6159:6163   */\n      dup2\n        /* \"#utility.yul\":6155:6175   */\n      sub\n        /* \"#utility.yul\":6151:6152   */\n      0x00\n        /* \"#utility.yul\":6140:6149   */\n      dup4\n        /* \"#utility.yul\":6136:6153   */\n      add\n        /* \"#utility.yul\":6129:6176   */\n      mstore\n        /* \"#utility.yul\":6193:6324   */\n      tag_319\n        /* \"#utility.yul\":6319:6323   */\n      dup2\n        /* \"#utility.yul\":6193:6324   */\n      tag_230\n      jump\t// in\n    tag_319:\n        /* \"#utility.yul\":6185:6324   */\n      swap1\n      pop\n        /* \"#utility.yul\":5912:6331   */\n      swap2\n      swap1\n      pop\n      jump\t// out\n        /* \"#utility.yul\":6337:6779   */\n    tag_88:\n        /* \"#utility.yul\":6486:6490   */\n      0x00\n        /* \"#utility.yul\":6524:6526   */\n      0x60\n        /* \"#utility.yul\":6513:6522   */\n      dup3\n        /* \"#utility.yul\":6509:6527   */\n      add\n        /* \"#utility.yul\":6501:6527   */\n      swap1\n      pop\n        /* \"#utility.yul\":6537:6608   */\n      tag_321\n        /* \"#utility.yul\":6605:6606   */\n      0x00\n        /* \"#utility.yul\":6594:6603   */\n      dup4\n        /* \"#utility.yul\":6590:6607   */\n      add\n        /* \"#utility.yul\":6581:6587   */\n      dup7\n        /* \"#utility.yul\":6537:6608   */\n      tag_223\n      jump\t// in\n    tag_321:\n        /* \"#utility.yul\":6618:6690   */\n      tag_322\n        /* \"#utility.yul\":6686:6688   */\n      0x20\n        /* \"#utility.yul\":6675:6684   */\n      dup4\n        /* \"#utility.yul\":6671:6689   */\n      add\n        /* \"#utility.yul\":6662:6668   */\n      dup6\n        /* \"#utility.yul\":6618:6690   */\n      tag_223\n      jump\t// in\n    tag_322:\n        /* \"#utility.yul\":6700:6772   */\n      tag_323\n        /* \"#utility.yul\":6768:6770   */\n      0x40\n        /* \"#utility.yul\":6757:6766   */\n      dup4\n        /* \"#utility.yul\":6753:6771   */\n      add\n        /* \"#utility.yul\":6744:6750   */\n      dup5\n        /* \"#utility.yul\":6700:6772   */\n      tag_220\n      jump\t// in\n    tag_323:\n        /* \"#utility.yul\":6337:6779   */\n      swap5\n      swap4\n      pop\n      pop\n      pop\n      pop\n      jump\t// out\n        /* \"#utility.yul\":6785:6875   */\n    tag_231:\n        /* \"#utility.yul\":6819:6826   */\n      0x00\n        /* \"#utility.yul\":6862:6867   */\n      dup2\n        /* \"#utility.yul\":6855:6868   */\n      iszero\n        /* \"#utility.yul\":6848:6869   */\n      iszero\n        /* \"#utility.yul\":6837:6869   */\n      swap1\n      pop\n        /* \"#utility.yul\":6785:6875   */\n      swap2\n      swap1\n      pop\n      jump\t// out\n        /* \"#utility.yul\":6881:6997   */\n    tag_232:\n        /* \"#utility.yul\":6951:6972   */\n      tag_326\n        /* \"#utility.yul\":6966:6971   */\n      dup2\n        /* \"#utility.yul\":6951:6972   */\n      tag_231\n      jump\t// in\n    tag_326:\n        /* \"#utility.yul\":6944:6949   */\n      dup2\n        /* \"#utility.yul\":6941:6973   */\n      eq\n        /* \"#utility.yul\":6931:6991   */\n      tag_327\n      jumpi\n        /* \"#utility.yul\":6987:6988   */\n      0x00\n        /* \"#utility.yul\":6984:6985   */\n      0x00\n        /* \"#utility.yul\":6977:6989   */\n      revert\n        /* \"#utility.yul\":6931:6991   */\n    tag_327:\n        /* \"#utility.yul\":6881:6997   */\n      pop\n      jump\t// out\n        /* \"#utility.yul\":7003:7140   */\n    tag_233:\n        /* \"#utility.yul\":7057:7062   */\n      0x00\n        /* \"#utility.yul\":7088:7094   */\n      dup2\n        /* \"#utility.yul\":7082:7095   */\n      mload\n        /* \"#utility.yul\":7073:7095   */\n      swap1\n      pop\n        /* \"#utility.yul\":7104:7134   */\n      tag_329\n        /* \"#utility.yul\":7128:7133   */\n      dup2\n        /* \"#utility.yul\":7104:7134   */\n      tag_232\n      jump\t// in\n    tag_329:\n        /* \"#utility.yul\":7003:7140   */\n      swap3\n      swap2\n      pop\n      pop\n      jump\t// out\n        /* \"#utility.yul\":7146:7491   */\n    tag_92:\n        /* \"#utility.yul\":7213:7219   */\n      0x00\n        /* \"#utility.yul\":7262:7264   */\n      0x20\n        /* \"#utility.yul\":7250:7259   */\n      dup3\n        /* \"#utility.yul\":7241:7248   */\n      dup5\n        /* \"#utility.yul\":7237:7260   */\n      sub\n        /* \"#utility.yul\":7233:7265   */\n      slt\n        /* \"#utility.yul\":7230:7349   */\n      iszero\n      tag_331\n      jumpi\n        /* \"#utility.yul\":7268:7347   */\n      tag_332\n      tag_213\n      jump\t// in\n    tag_332:\n        /* \"#utility.yul\":7230:7349   */\n    tag_331:\n        /* \"#utility.yul\":7388:7389   */\n      0x00\n        /* \"#utility.yul\":7413:7474   */\n      tag_333\n        /* \"#utility.yul\":7466:7473   */\n      dup5\n        /* \"#utility.yul\":7457:7463   */\n      dup3\n        /* \"#utility.yul\":7446:7455   */\n      dup6\n        /* \"#utility.yul\":7442:7464   */\n      add\n        /* \"#utility.yul\":7413:7474   */\n      tag_233\n      jump\t// in\n    tag_333:\n        /* \"#utility.yul\":7403:7474   */\n      swap2\n      pop\n        /* \"#utility.yul\":7359:7484   */\n      pop\n        /* \"#utility.yul\":7146:7491   */\n      swap3\n      swap2\n      pop\n      pop\n      jump\t// out\n        /* \"#utility.yul\":7497:7677   */\n    tag_98:\n        /* \"#utility.yul\":7545:7622   */\n      0x4e487b7100000000000000000000000000000000000000000000000000000000\n        /* \"#utility.yul\":7542:7543   */\n      0x00\n        /* \"#utility.yul\":7535:7623   */\n      mstore\n        /* \"#utility.yul\":7642:7646   */\n      0x41\n        /* \"#utility.yul\":7639:7640   */\n      0x04\n        /* \"#utility.yul\":7632:7647   */\n      mstore\n        /* \"#utility.yul\":7666:7670   */\n      0x24\n        /* \"#utility.yul\":7663:7664   */\n      0x00\n        /* \"#utility.yul\":7656:7671   */\n      revert\n        /* \"#utility.yul\":7683:7863   */\n    tag_102:\n        /* \"#utility.yul\":7731:7808   */\n      0x4e487b7100000000000000000000000000000000000000000000000000000000\n        /* \"#utility.yul\":7728:7729   */\n      0x00\n        /* \"#utility.yul\":7721:7809   */\n      mstore\n        /* \"#utility.yul\":7828:7832   */\n      0x32\n        /* \"#utility.yul\":7825:7826   */\n      0x04\n        /* \"#utility.yul\":7818:7833   */\n      mstore\n        /* \"#utility.yul\":7852:7856   */\n      0x24\n        /* \"#utility.yul\":7849:7850   */\n      0x00\n        /* \"#utility.yul\":7842:7857   */\n      revert\n        /* \"#utility.yul\":7869:8049   */\n    tag_234:\n        /* \"#utility.yul\":7917:7994   */\n      0x4e487b7100000000000000000000000000000000000000000000000000000000\n        /* \"#utility.yul\":7914:7915   */\n      0x00\n        /* \"#utility.yul\":7907:7995   */\n      mstore\n        /* \"#utility.yul\":8014:8018   */\n      0x11\n        /* \"#utility.yul\":8011:8012   */\n      0x04\n        /* \"#utility.yul\":8004:8019   */\n      mstore\n        /* \"#utility.yul\":8038:8042   */\n      0x24\n        /* \"#utility.yul\":8035:8036   */\n      0x00\n        /* \"#utility.yul\":8028:8043   */\n      revert\n        /* \"#utility.yul\":8055:8246   */\n    tag_106:\n        /* \"#utility.yul\":8095:8098   */\n      0x00\n        /* \"#utility.yul\":8114:8134   */\n      tag_338\n        /* \"#utility.yul\":8132:8133   */\n      dup3\n        /* \"#utility.yul\":8114:8134   */\n      tag_219\n      jump\t// in\n    tag_338:\n        /* \"#utility.yul\":8109:8134   */\n      swap2\n      pop\n        /* \"#utility.yul\":8148:8168   */\n      tag_339\n        /* \"#utility.yul\":8166:8167   */\n      dup4\n        /* \"#utility.yul\":8148:8168   */\n      tag_219\n      jump\t// in\n    tag_339:\n        /* \"#utility.yul\":8143:8168   */\n      swap3\n      pop\n        /* \"#utility.yul\":8191:8192   */\n      dup3\n        /* \"#utility.yul\":8188:8189   */\n      dup3\n        /* \"#utility.yul\":8184:8193   */\n      add\n        /* \"#utility.yul\":8177:8193   */\n      swap1\n      pop\n        /* \"#utility.yul\":8212:8215   */\n      dup1\n        /* \"#utility.yul\":8209:8210   */\n      dup3\n        /* \"#utility.yul\":8206:8216   */\n      gt\n        /* \"#utility.yul\":8203:8239   */\n      iszero\n      tag_340\n      jumpi\n        /* \"#utility.yul\":8219:8237   */\n      tag_341\n      tag_234\n      jump\t// in\n    tag_341:\n        /* \"#utility.yul\":8203:8239   */\n    tag_340:\n        /* \"#utility.yul\":8055:8246   */\n      swap3\n      swap2\n      pop\n      pop\n      jump\t// out\n        /* \"#utility.yul\":8252:8366   */\n    tag_235:\n        /* \"#utility.yul\":8319:8325   */\n      0x00\n        /* \"#utility.yul\":8353:8358   */\n      dup2\n        /* \"#utility.yul\":8347:8359   */\n      mload\n        /* \"#utility.yul\":8337:8359   */\n      swap1\n      pop\n        /* \"#utility.yul\":8252:8366   */\n      swap2\n      swap1\n      pop\n      jump\t// out\n        /* \"#utility.yul\":8372:8556   */\n    tag_236:\n        /* \"#utility.yul\":8471:8482   */\n      0x00\n        /* \"#utility.yul\":8505:8511   */\n      dup3\n        /* \"#utility.yul\":8500:8503   */\n      dup3\n        /* \"#utility.yul\":8493:8512   */\n      mstore\n        /* \"#utility.yul\":8545:8549   */\n      0x20\n        /* \"#utility.yul\":8540:8543   */\n      dup3\n        /* \"#utility.yul\":8536:8550   */\n      add\n        /* \"#utility.yul\":8521:8550   */\n      swap1\n      pop\n        /* \"#utility.yul\":8372:8556   */\n      swap3\n      swap2\n      pop\n      pop\n      jump\t// out\n        /* \"#utility.yul\":8562:8694   */\n    tag_237:\n        /* \"#utility.yul\":8629:8633   */\n      0x00\n        /* \"#utility.yul\":8652:8655   */\n      dup2\n        /* \"#utility.yul\":8644:8655   */\n      swap1\n      pop\n        /* \"#utility.yul\":8682:8686   */\n      0x20\n        /* \"#utility.yul\":8677:8680   */\n      dup3\n        /* \"#utility.yul\":8673:8687   */\n      add\n        /* \"#utility.yul\":8665:8687   */\n      swap1\n      pop\n        /* \"#utility.yul\":8562:8694   */\n      swap2\n      swap1\n      pop\n      jump\t// out\n        /* \"#utility.yul\":8700:8808   */\n    tag_238:\n        /* \"#utility.yul\":8777:8801   */\n      tag_346\n        /* \"#utility.yul\":8795:8800   */\n      dup2\n        /* \"#utility.yul\":8777:8801   */\n      tag_216\n      jump\t// in\n    tag_346:\n        /* \"#utility.yul\":8772:8775   */\n      dup3\n        /* \"#utility.yul\":8765:8802   */\n      mstore\n        /* \"#utility.yul\":8700:8808   */\n      pop\n      pop\n      jump\t// out\n        /* \"#utility.yul\":8814:8993   */\n    tag_239:\n        /* \"#utility.yul\":8883:8893   */\n      0x00\n        /* \"#utility.yul\":8904:8950   */\n      tag_348\n        /* \"#utility.yul\":8946:8949   */\n      dup4\n        /* \"#utility.yul\":8938:8944   */\n      dup4\n        /* \"#utility.yul\":8904:8950   */\n      tag_238\n      jump\t// in\n    tag_348:\n        /* \"#utility.yul\":8982:8986   */\n      0x20\n        /* \"#utility.yul\":8977:8980   */\n      dup4\n        /* \"#utility.yul\":8973:8987   */\n      add\n        /* \"#utility.yul\":8959:8987   */\n      swap1\n      pop\n        /* \"#utility.yul\":8814:8993   */\n      swap3\n      swap2\n      pop\n      pop\n      jump\t// out\n        /* \"#utility.yul\":8999:9112   */\n    tag_240:\n        /* \"#utility.yul\":9069:9073   */\n      0x00\n        /* \"#utility.yul\":9101:9105   */\n      0x20\n        /* \"#utility.yul\":9096:9099   */\n      dup3\n        /* \"#utility.yul\":9092:9106   */\n      add\n        /* \"#utility.yul\":9084:9106   */\n      swap1\n      pop\n        /* \"#utility.yul\":8999:9112   */\n      swap2\n      swap1\n      pop\n      jump\t// out\n        /* \"#utility.yul\":9148:9880   */\n    tag_241:\n        /* \"#utility.yul\":9267:9270   */\n      0x00\n        /* \"#utility.yul\":9296:9350   */\n      tag_351\n        /* \"#utility.yul\":9344:9349   */\n      dup3\n        /* \"#utility.yul\":9296:9350   */\n      tag_235\n      jump\t// in\n    tag_351:\n        /* \"#utility.yul\":9366:9452   */\n      tag_352\n        /* \"#utility.yul\":9445:9451   */\n      dup2\n        /* \"#utility.yul\":9440:9443   */\n      dup6\n        /* \"#utility.yul\":9366:9452   */\n      tag_236\n      jump\t// in\n    tag_352:\n        /* \"#utility.yul\":9359:9452   */\n      swap4\n      pop\n        /* \"#utility.yul\":9476:9532   */\n      tag_353\n        /* \"#utility.yul\":9526:9531   */\n      dup4\n        /* \"#utility.yul\":9476:9532   */\n      tag_237\n      jump\t// in\n    tag_353:\n        /* \"#utility.yul\":9555:9562   */\n      dup1\n        /* \"#utility.yul\":9586:9587   */\n      0x00\n        /* \"#utility.yul\":9571:9855   */\n    tag_354:\n        /* \"#utility.yul\":9596:9602   */\n      dup4\n        /* \"#utility.yul\":9593:9594   */\n      dup2\n        /* \"#utility.yul\":9590:9603   */\n      lt\n        /* \"#utility.yul\":9571:9855   */\n      iszero\n      tag_356\n      jumpi\n        /* \"#utility.yul\":9672:9678   */\n      dup2\n        /* \"#utility.yul\":9666:9679   */\n      mload\n        /* \"#utility.yul\":9699:9762   */\n      tag_357\n        /* \"#utility.yul\":9758:9761   */\n      dup9\n        /* \"#utility.yul\":9743:9756   */\n      dup3\n        /* \"#utility.yul\":9699:9762   */\n      tag_239\n      jump\t// in\n    tag_357:\n        /* \"#utility.yul\":9692:9762   */\n      swap8\n      pop\n        /* \"#utility.yul\":9785:9845   */\n      tag_358\n        /* \"#utility.yul\":9838:9844   */\n      dup4\n        /* \"#utility.yul\":9785:9845   */\n      tag_240\n      jump\t// in\n    tag_358:\n        /* \"#utility.yul\":9775:9845   */\n      swap3\n      pop\n        /* \"#utility.yul\":9631:9855   */\n      pop\n        /* \"#utility.yul\":9618:9619   */\n      0x01\n        /* \"#utility.yul\":9615:9616   */\n      dup2\n        /* \"#utility.yul\":9611:9620   */\n      add\n        /* \"#utility.yul\":9606:9620   */\n      swap1\n      pop\n        /* \"#utility.yul\":9571:9855   */\n      jump(tag_354)\n    tag_356:\n        /* \"#utility.yul\":9575:9589   */\n      pop\n        /* \"#utility.yul\":9871:9874   */\n      dup6\n        /* \"#utility.yul\":9864:9874   */\n      swap4\n      pop\n        /* \"#utility.yul\":9272:9880   */\n      pop\n      pop\n      pop\n        /* \"#utility.yul\":9148:9880   */\n      swap3\n      swap2\n      pop\n      pop\n      jump\t// out\n        /* \"#utility.yul\":9886:10701   */\n    tag_108:\n        /* \"#utility.yul\":10141:10145   */\n      0x00\n        /* \"#utility.yul\":10179:10182   */\n      0xa0\n        /* \"#utility.yul\":10168:10177   */\n      dup3\n        /* \"#utility.yul\":10164:10183   */\n      add\n        /* \"#utility.yul\":10156:10183   */\n      swap1\n      pop\n        /* \"#utility.yul\":10193:10264   */\n      tag_360\n        /* \"#utility.yul\":10261:10262   */\n      0x00\n        /* \"#utility.yul\":10250:10259   */\n      dup4\n        /* \"#utility.yul\":10246:10263   */\n      add\n        /* \"#utility.yul\":10237:10243   */\n      dup9\n        /* \"#utility.yul\":10193:10264   */\n      tag_220\n      jump\t// in\n    tag_360:\n        /* \"#utility.yul\":10274:10346   */\n      tag_361\n        /* \"#utility.yul\":10342:10344   */\n      0x20\n        /* \"#utility.yul\":10331:10340   */\n      dup4\n        /* \"#utility.yul\":10327:10345   */\n      add\n        /* \"#utility.yul\":10318:10324   */\n      dup8\n        /* \"#utility.yul\":10274:10346   */\n      tag_220\n      jump\t// in\n    tag_361:\n        /* \"#utility.yul\":10393:10402   */\n      dup2\n        /* \"#utility.yul\":10387:10391   */\n      dup2\n        /* \"#utility.yul\":10383:10403   */\n      sub\n        /* \"#utility.yul\":10378:10380   */\n      0x40\n        /* \"#utility.yul\":10367:10376   */\n      dup4\n        /* \"#utility.yul\":10363:10381   */\n      add\n        /* \"#utility.yul\":10356:10404   */\n      mstore\n        /* \"#utility.yul\":10421:10529   */\n      tag_362\n        /* \"#utility.yul\":10524:10528   */\n      dup2\n        /* \"#utility.yul\":10515:10521   */\n      dup7\n        /* \"#utility.yul\":10421:10529   */\n      tag_241\n      jump\t// in\n    tag_362:\n        /* \"#utility.yul\":10413:10529   */\n      swap1\n      pop\n        /* \"#utility.yul\":10539:10611   */\n      tag_363\n        /* \"#utility.yul\":10607:10609   */\n      0x60\n        /* \"#utility.yul\":10596:10605   */\n      dup4\n        /* \"#utility.yul\":10592:10610   */\n      add\n        /* \"#utility.yul\":10583:10589   */\n      dup6\n        /* \"#utility.yul\":10539:10611   */\n      tag_223\n      jump\t// in\n    tag_363:\n        /* \"#utility.yul\":10621:10694   */\n      tag_364\n        /* \"#utility.yul\":10689:10692   */\n      0x80\n        /* \"#utility.yul\":10678:10687   */\n      dup4\n        /* \"#utility.yul\":10674:10693   */\n      add\n        /* \"#utility.yul\":10665:10671   */\n      dup5\n        /* \"#utility.yul\":10621:10694   */\n      tag_220\n      jump\t// in\n    tag_364:\n        /* \"#utility.yul\":9886:10701   */\n      swap7\n      swap6\n      pop\n      pop\n      pop\n      pop\n      pop\n      pop\n      jump\t// out\n        /* \"#utility.yul\":10707:10824   */\n    tag_242:\n        /* \"#utility.yul\":10816:10817   */\n      0x00\n        /* \"#utility.yul\":10813:10814   */\n      0x00\n        /* \"#utility.yul\":10806:10818   */\n      revert\n        /* \"#utility.yul\":10830:10932   */\n    tag_243:\n        /* \"#utility.yul\":10871:10877   */\n      0x00\n        /* \"#utility.yul\":10922:10924   */\n      0x1f\n        /* \"#utility.yul\":10918:10925   */\n      not\n        /* \"#utility.yul\":10913:10915   */\n      0x1f\n        /* \"#utility.yul\":10906:10911   */\n      dup4\n        /* \"#utility.yul\":10902:10916   */\n      add\n        /* \"#utility.yul\":10898:10926   */\n      and\n        /* \"#utility.yul\":10888:10926   */\n      swap1\n      pop\n        /* \"#utility.yul\":10830:10932   */\n      swap2\n      swap1\n      pop\n      jump\t// out\n        /* \"#utility.yul\":10938:11219   */\n    tag_244:\n        /* \"#utility.yul\":11021:11048   */\n      tag_368\n        /* \"#utility.yul\":11043:11047   */\n      dup3\n        /* \"#utility.yul\":11021:11048   */\n      tag_243\n      jump\t// in\n    tag_368:\n        /* \"#utility.yul\":11013:11019   */\n      dup2\n        /* \"#utility.yul\":11009:11049   */\n      add\n        /* \"#utility.yul\":11151:11157   */\n      dup2\n        /* \"#utility.yul\":11139:11149   */\n      dup2\n        /* \"#utility.yul\":11136:11158   */\n      lt\n        /* \"#utility.yul\":11115:11133   */\n      0xffffffffffffffff\n        /* \"#utility.yul\":11103:11113   */\n      dup3\n        /* \"#utility.yul\":11100:11134   */\n      gt\n        /* \"#utility.yul\":11097:11159   */\n      or\n        /* \"#utility.yul\":11094:11182   */\n      iszero\n      tag_369\n      jumpi\n        /* \"#utility.yul\":11162:11180   */\n      tag_370\n      tag_98\n      jump\t// in\n    tag_370:\n        /* \"#utility.yul\":11094:11182   */\n    tag_369:\n        /* \"#utility.yul\":11202:11212   */\n      dup1\n        /* \"#utility.yul\":11198:11200   */\n      0x40\n        /* \"#utility.yul\":11191:11213   */\n      mstore\n        /* \"#utility.yul\":10981:11219   */\n      pop\n        /* \"#utility.yul\":10938:11219   */\n      pop\n      pop\n      jump\t// out\n        /* \"#utility.yul\":11225:11354   */\n    tag_245:\n        /* \"#utility.yul\":11259:11265   */\n      0x00\n        /* \"#utility.yul\":11286:11306   */\n      tag_372\n      tag_212\n      jump\t// in\n    tag_372:\n        /* \"#utility.yul\":11276:11306   */\n      swap1\n      pop\n        /* \"#utility.yul\":11315:11348   */\n      tag_373\n        /* \"#utility.yul\":11343:11347   */\n      dup3\n        /* \"#utility.yul\":11335:11341   */\n      dup3\n        /* \"#utility.yul\":11315:11348   */\n      tag_244\n      jump\t// in\n    tag_373:\n        /* \"#utility.yul\":11225:11354   */\n      swap2\n      swap1\n      pop\n      jump\t// out\n        /* \"#utility.yul\":11360:11671   */\n    tag_246:\n        /* \"#utility.yul\":11437:11441   */\n      0x00\n        /* \"#utility.yul\":11527:11545   */\n      0xffffffffffffffff\n        /* \"#utility.yul\":11519:11525   */\n      dup3\n        /* \"#utility.yul\":11516:11546   */\n      gt\n        /* \"#utility.yul\":11513:11569   */\n      iszero\n      tag_375\n      jumpi\n        /* \"#utility.yul\":11549:11567   */\n      tag_376\n      tag_98\n      jump\t// in\n    tag_376:\n        /* \"#utility.yul\":11513:11569   */\n    tag_375:\n        /* \"#utility.yul\":11599:11603   */\n      0x20\n        /* \"#utility.yul\":11591:11597   */\n      dup3\n        /* \"#utility.yul\":11587:11604   */\n      mul\n        /* \"#utility.yul\":11579:11604   */\n      swap1\n      pop\n        /* \"#utility.yul\":11659:11663   */\n      0x20\n        /* \"#utility.yul\":11653:11657   */\n      dup2\n        /* \"#utility.yul\":11649:11664   */\n      add\n        /* \"#utility.yul\":11641:11664   */\n      swap1\n      pop\n        /* \"#utility.yul\":11360:11671   */\n      swap2\n      swap1\n      pop\n      jump\t// out\n        /* \"#utility.yul\":11677:11794   */\n    tag_247:\n        /* \"#utility.yul\":11786:11787   */\n      0x00\n        /* \"#utility.yul\":11783:11784   */\n      0x00\n        /* \"#utility.yul\":11776:11788   */\n      revert\n        /* \"#utility.yul\":11800:11943   */\n    tag_248:\n        /* \"#utility.yul\":11857:11862   */\n      0x00\n        /* \"#utility.yul\":11888:11894   */\n      dup2\n        /* \"#utility.yul\":11882:11895   */\n      mload\n        /* \"#utility.yul\":11873:11895   */\n      swap1\n      pop\n        /* \"#utility.yul\":11904:11937   */\n      tag_379\n        /* \"#utility.yul\":11931:11936   */\n      dup2\n        /* \"#utility.yul\":11904:11937   */\n      tag_221\n      jump\t// in\n    tag_379:\n        /* \"#utility.yul\":11800:11943   */\n      swap3\n      swap2\n      pop\n      pop\n      jump\t// out\n        /* \"#utility.yul\":11966:12698   */\n    tag_249:\n        /* \"#utility.yul\":12073:12078   */\n      0x00\n        /* \"#utility.yul\":12098:12179   */\n      tag_381\n        /* \"#utility.yul\":12114:12178   */\n      tag_382\n        /* \"#utility.yul\":12171:12177   */\n      dup5\n        /* \"#utility.yul\":12114:12178   */\n      tag_246\n      jump\t// in\n    tag_382:\n        /* \"#utility.yul\":12098:12179   */\n      tag_245\n      jump\t// in\n    tag_381:\n        /* \"#utility.yul\":12089:12179   */\n      swap1\n      pop\n        /* \"#utility.yul\":12199:12204   */\n      dup1\n        /* \"#utility.yul\":12228:12234   */\n      dup4\n        /* \"#utility.yul\":12221:12226   */\n      dup3\n        /* \"#utility.yul\":12214:12235   */\n      mstore\n        /* \"#utility.yul\":12262:12266   */\n      0x20\n        /* \"#utility.yul\":12255:12260   */\n      dup3\n        /* \"#utility.yul\":12251:12267   */\n      add\n        /* \"#utility.yul\":12244:12267   */\n      swap1\n      pop\n        /* \"#utility.yul\":12315:12319   */\n      0x20\n        /* \"#utility.yul\":12307:12313   */\n      dup5\n        /* \"#utility.yul\":12303:12320   */\n      mul\n        /* \"#utility.yul\":12295:12301   */\n      dup4\n        /* \"#utility.yul\":12291:12321   */\n      add\n        /* \"#utility.yul\":12344:12347   */\n      dup6\n        /* \"#utility.yul\":12336:12342   */\n      dup2\n        /* \"#utility.yul\":12333:12348   */\n      gt\n        /* \"#utility.yul\":12330:12452   */\n      iszero\n      tag_383\n      jumpi\n        /* \"#utility.yul\":12363:12442   */\n      tag_384\n      tag_247\n      jump\t// in\n    tag_384:\n        /* \"#utility.yul\":12330:12452   */\n    tag_383:\n        /* \"#utility.yul\":12478:12484   */\n      dup4\n        /* \"#utility.yul\":12461:12692   */\n    tag_385:\n        /* \"#utility.yul\":12495:12501   */\n      dup2\n        /* \"#utility.yul\":12490:12493   */\n      dup2\n        /* \"#utility.yul\":12487:12502   */\n      lt\n        /* \"#utility.yul\":12461:12692   */\n      iszero\n      tag_387\n      jumpi\n        /* \"#utility.yul\":12570:12573   */\n      dup1\n        /* \"#utility.yul\":12599:12647   */\n      tag_388\n        /* \"#utility.yul\":12643:12646   */\n      dup9\n        /* \"#utility.yul\":12631:12641   */\n      dup3\n        /* \"#utility.yul\":12599:12647   */\n      tag_248\n      jump\t// in\n    tag_388:\n        /* \"#utility.yul\":12594:12597   */\n      dup5\n        /* \"#utility.yul\":12587:12648   */\n      mstore\n        /* \"#utility.yul\":12677:12681   */\n      0x20\n        /* \"#utility.yul\":12672:12675   */\n      dup5\n        /* \"#utility.yul\":12668:12682   */\n      add\n        /* \"#utility.yul\":12661:12682   */\n      swap4\n      pop\n        /* \"#utility.yul\":12537:12692   */\n      pop\n        /* \"#utility.yul\":12521:12525   */\n      0x20\n        /* \"#utility.yul\":12516:12519   */\n      dup2\n        /* \"#utility.yul\":12512:12526   */\n      add\n        /* \"#utility.yul\":12505:12526   */\n      swap1\n      pop\n        /* \"#utility.yul\":12461:12692   */\n      jump(tag_385)\n    tag_387:\n        /* \"#utility.yul\":12465:12486   */\n      pop\n        /* \"#utility.yul\":12079:12698   */\n      pop\n      pop\n        /* \"#utility.yul\":11966:12698   */\n      swap4\n      swap3\n      pop\n      pop\n      pop\n      jump\t// out\n        /* \"#utility.yul\":12721:13106   */\n    tag_250:\n        /* \"#utility.yul\":12803:12808   */\n      0x00\n        /* \"#utility.yul\":12852:12855   */\n      dup3\n        /* \"#utility.yul\":12845:12849   */\n      0x1f\n        /* \"#utility.yul\":12837:12843   */\n      dup4\n        /* \"#utility.yul\":12833:12850   */\n      add\n        /* \"#utility.yul\":12829:12856   */\n      slt\n        /* \"#utility.yul\":12819:12941   */\n      tag_390\n      jumpi\n        /* \"#utility.yul\":12860:12939   */\n      tag_391\n      tag_242\n      jump\t// in\n    tag_391:\n        /* \"#utility.yul\":12819:12941   */\n    tag_390:\n        /* \"#utility.yul\":12970:12976   */\n      dup2\n        /* \"#utility.yul\":12964:12977   */\n      mload\n        /* \"#utility.yul\":12995:13100   */\n      tag_392\n        /* \"#utility.yul\":13096:13099   */\n      dup5\n        /* \"#utility.yul\":13088:13094   */\n      dup3\n        /* \"#utility.yul\":13081:13085   */\n      0x20\n        /* \"#utility.yul\":13073:13079   */\n      dup7\n        /* \"#utility.yul\":13069:13086   */\n      add\n        /* \"#utility.yul\":12995:13100   */\n      tag_249\n      jump\t// in\n    tag_392:\n        /* \"#utility.yul\":12986:13100   */\n      swap2\n      pop\n        /* \"#utility.yul\":12809:13106   */\n      pop\n        /* \"#utility.yul\":12721:13106   */\n      swap3\n      swap2\n      pop\n      pop\n      jump\t// out\n        /* \"#utility.yul\":13112:13666   */\n    tag_112:\n        /* \"#utility.yul\":13207:13213   */\n      0x00\n        /* \"#utility.yul\":13256:13258   */\n      0x20\n        /* \"#utility.yul\":13244:13253   */\n      dup3\n        /* \"#utility.yul\":13235:13242   */\n      dup5\n        /* \"#utility.yul\":13231:13254   */\n      sub\n        /* \"#utility.yul\":13227:13259   */\n      slt\n        /* \"#utility.yul\":13224:13343   */\n      iszero\n      tag_394\n      jumpi\n        /* \"#utility.yul\":13262:13341   */\n      tag_395\n      tag_213\n      jump\t// in\n    tag_395:\n        /* \"#utility.yul\":13224:13343   */\n    tag_394:\n        /* \"#utility.yul\":13403:13404   */\n      0x00\n        /* \"#utility.yul\":13392:13401   */\n      dup3\n        /* \"#utility.yul\":13388:13405   */\n      add\n        /* \"#utility.yul\":13382:13406   */\n      mload\n        /* \"#utility.yul\":13433:13451   */\n      0xffffffffffffffff\n        /* \"#utility.yul\":13425:13431   */\n      dup2\n        /* \"#utility.yul\":13422:13452   */\n      gt\n        /* \"#utility.yul\":13419:13536   */\n      iszero\n      tag_396\n      jumpi\n        /* \"#utility.yul\":13455:13534   */\n      tag_397\n      tag_214\n      jump\t// in\n    tag_397:\n        /* \"#utility.yul\":13419:13536   */\n    tag_396:\n        /* \"#utility.yul\":13560:13649   */\n      tag_398\n        /* \"#utility.yul\":13641:13648   */\n      dup5\n        /* \"#utility.yul\":13632:13638   */\n      dup3\n        /* \"#utility.yul\":13621:13630   */\n      dup6\n        /* \"#utility.yul\":13617:13639   */\n      add\n        /* \"#utility.yul\":13560:13649   */\n      tag_250\n      jump\t// in\n    tag_398:\n        /* \"#utility.yul\":13550:13649   */\n      swap2\n      pop\n        /* \"#utility.yul\":13353:13659   */\n      pop\n        /* \"#utility.yul\":13112:13666   */\n      swap3\n      swap2\n      pop\n      pop\n      jump\t// out\n        /* \"#utility.yul\":13672:13866   */\n    tag_115:\n        /* \"#utility.yul\":13712:13716   */\n      0x00\n        /* \"#utility.yul\":13732:13752   */\n      tag_400\n        /* \"#utility.yul\":13750:13751   */\n      dup3\n        /* \"#utility.yul\":13732:13752   */\n      tag_219\n      jump\t// in\n    tag_400:\n        /* \"#utility.yul\":13727:13752   */\n      swap2\n      pop\n        /* \"#utility.yul\":13766:13786   */\n      tag_401\n        /* \"#utility.yul\":13784:13785   */\n      dup4\n        /* \"#utility.yul\":13766:13786   */\n      tag_219\n      jump\t// in\n    tag_401:\n        /* \"#utility.yul\":13761:13786   */\n      swap3\n      pop\n        /* \"#utility.yul\":13810:13811   */\n      dup3\n        /* \"#utility.yul\":13807:13808   */\n      dup3\n        /* \"#utility.yul\":13803:13812   */\n      sub\n        /* \"#utility.yul\":13795:13812   */\n      swap1\n      pop\n        /* \"#utility.yul\":13834:13835   */\n      dup2\n        /* \"#utility.yul\":13828:13832   */\n      dup2\n        /* \"#utility.yul\":13825:13836   */\n      gt\n        /* \"#utility.yul\":13822:13859   */\n      iszero\n      tag_402\n      jumpi\n        /* \"#utility.yul\":13839:13857   */\n      tag_403\n      tag_234\n      jump\t// in\n    tag_403:\n        /* \"#utility.yul\":13822:13859   */\n    tag_402:\n        /* \"#utility.yul\":13672:13866   */\n      swap3\n      swap2\n      pop\n      pop\n      jump\t// out\n        /* \"#utility.yul\":13872:14204   */\n    tag_121:\n        /* \"#utility.yul\":13993:13997   */\n      0x00\n        /* \"#utility.yul\":14031:14033   */\n      0x40\n        /* \"#utility.yul\":14020:14029   */\n      dup3\n        /* \"#utility.yul\":14016:14034   */\n      add\n        /* \"#utility.yul\":14008:14034   */\n      swap1\n      pop\n        /* \"#utility.yul\":14044:14115   */\n      tag_405\n        /* \"#utility.yul\":14112:14113   */\n      0x00\n        /* \"#utility.yul\":14101:14110   */\n      dup4\n        /* \"#utility.yul\":14097:14114   */\n      add\n        /* \"#utility.yul\":14088:14094   */\n      dup6\n        /* \"#utility.yul\":14044:14115   */\n      tag_223\n      jump\t// in\n    tag_405:\n        /* \"#utility.yul\":14125:14197   */\n      tag_406\n        /* \"#utility.yul\":14193:14195   */\n      0x20\n        /* \"#utility.yul\":14182:14191   */\n      dup4\n        /* \"#utility.yul\":14178:14196   */\n      add\n        /* \"#utility.yul\":14169:14175   */\n      dup5\n        /* \"#utility.yul\":14125:14197   */\n      tag_220\n      jump\t// in\n    tag_406:\n        /* \"#utility.yul\":13872:14204   */\n      swap4\n      swap3\n      pop\n      pop\n      pop\n      jump\t// out\n        /* \"#utility.yul\":14210:14652   */\n    tag_126:\n        /* \"#utility.yul\":14359:14363   */\n      0x00\n        /* \"#utility.yul\":14397:14399   */\n      0x60\n        /* \"#utility.yul\":14386:14395   */\n      dup3\n        /* \"#utility.yul\":14382:14400   */\n      add\n        /* \"#utility.yul\":14374:14400   */\n      swap1\n      pop\n        /* \"#utility.yul\":14410:14481   */\n      tag_408\n        /* \"#utility.yul\":14478:14479   */\n      0x00\n        /* \"#utility.yul\":14467:14476   */\n      dup4\n        /* \"#utility.yul\":14463:14480   */\n      add\n        /* \"#utility.yul\":14454:14460   */\n      dup7\n        /* \"#utility.yul\":14410:14481   */\n      tag_220\n      jump\t// in\n    tag_408:\n        /* \"#utility.yul\":14491:14563   */\n      tag_409\n        /* \"#utility.yul\":14559:14561   */\n      0x20\n        /* \"#utility.yul\":14548:14557   */\n      dup4\n        /* \"#utility.yul\":14544:14562   */\n      add\n        /* \"#utility.yul\":14535:14541   */\n      dup6\n        /* \"#utility.yul\":14491:14563   */\n      tag_220\n      jump\t// in\n    tag_409:\n        /* \"#utility.yul\":14573:14645   */\n      tag_410\n        /* \"#utility.yul\":14641:14643   */\n      0x40\n        /* \"#utility.yul\":14630:14639   */\n      dup4\n        /* \"#utility.yul\":14626:14644   */\n      add\n        /* \"#utility.yul\":14617:14623   */\n      dup5\n        /* \"#utility.yul\":14573:14645   */\n      tag_220\n      jump\t// in\n    tag_410:\n        /* \"#utility.yul\":14210:14652   */\n      swap5\n      swap4\n      pop\n      pop\n      pop\n      pop\n      jump\t// out\n        /* \"#utility.yul\":14658:14990   */\n    tag_130:\n        /* \"#utility.yul\":14779:14783   */\n      0x00\n        /* \"#utility.yul\":14817:14819   */\n      0x40\n        /* \"#utility.yul\":14806:14815   */\n      dup3\n        /* \"#utility.yul\":14802:14820   */\n      add\n        /* \"#utility.yul\":14794:14820   */\n      swap1\n      pop\n        /* \"#utility.yul\":14830:14901   */\n      tag_412\n        /* \"#utility.yul\":14898:14899   */\n      0x00\n        /* \"#utility.yul\":14887:14896   */\n      dup4\n        /* \"#utility.yul\":14883:14900   */\n      add\n        /* \"#utility.yul\":14874:14880   */\n      dup6\n        /* \"#utility.yul\":14830:14901   */\n      tag_220\n      jump\t// in\n    tag_412:\n        /* \"#utility.yul\":14911:14983   */\n      tag_413\n        /* \"#utility.yul\":14979:14981   */\n      0x20\n        /* \"#utility.yul\":14968:14977   */\n      dup4\n        /* \"#utility.yul\":14964:14982   */\n      add\n        /* \"#utility.yul\":14955:14961   */\n      dup5\n        /* \"#utility.yul\":14911:14983   */\n      tag_220\n      jump\t// in\n    tag_413:\n        /* \"#utility.yul\":14658:14990   */\n      swap4\n      swap3\n      pop\n      pop\n      pop\n      jump\t// out\n        /* \"#utility.yul\":14996:15081   */\n    tag_251:\n        /* \"#utility.yul\":15041:15048   */\n      0x00\n        /* \"#utility.yul\":15070:15075   */\n      dup2\n        /* \"#utility.yul\":15059:15075   */\n      swap1\n      pop\n        /* \"#utility.yul\":14996:15081   */\n      swap2\n      swap1\n      pop\n      jump\t// out\n        /* \"#utility.yul\":15087:15245   */\n    tag_252:\n        /* \"#utility.yul\":15145:15154   */\n      0x00\n        /* \"#utility.yul\":15178:15239   */\n      tag_416\n        /* \"#utility.yul\":15196:15238   */\n      tag_417\n        /* \"#utility.yul\":15205:15237   */\n      tag_418\n        /* \"#utility.yul\":15231:15236   */\n      dup5\n        /* \"#utility.yul\":15205:15237   */\n      tag_251\n      jump\t// in\n    tag_418:\n        /* \"#utility.yul\":15196:15238   */\n      tag_224\n      jump\t// in\n    tag_417:\n        /* \"#utility.yul\":15178:15239   */\n      tag_219\n      jump\t// in\n    tag_416:\n        /* \"#utility.yul\":15165:15239   */\n      swap1\n      pop\n        /* \"#utility.yul\":15087:15245   */\n      swap2\n      swap1\n      pop\n      jump\t// out\n        /* \"#utility.yul\":15251:15398   */\n    tag_253:\n        /* \"#utility.yul\":15346:15391   */\n      tag_420\n        /* \"#utility.yul\":15385:15390   */\n      dup2\n        /* \"#utility.yul\":15346:15391   */\n      tag_252\n      jump\t// in\n    tag_420:\n        /* \"#utility.yul\":15341:15344   */\n      dup3\n        /* \"#utility.yul\":15334:15392   */\n      mstore\n        /* \"#utility.yul\":15251:15398   */\n      pop\n      pop\n      jump\t// out\n        /* \"#utility.yul\":15404:15752   */\n    tag_201:\n        /* \"#utility.yul\":15533:15537   */\n      0x00\n        /* \"#utility.yul\":15571:15573   */\n      0x40\n        /* \"#utility.yul\":15560:15569   */\n      dup3\n        /* \"#utility.yul\":15556:15574   */\n      add\n        /* \"#utility.yul\":15548:15574   */\n      swap1\n      pop\n        /* \"#utility.yul\":15584:15655   */\n      tag_422\n        /* \"#utility.yul\":15652:15653   */\n      0x00\n        /* \"#utility.yul\":15641:15650   */\n      dup4\n        /* \"#utility.yul\":15637:15654   */\n      add\n        /* \"#utility.yul\":15628:15634   */\n      dup6\n        /* \"#utility.yul\":15584:15655   */\n      tag_223\n      jump\t// in\n    tag_422:\n        /* \"#utility.yul\":15665:15745   */\n      tag_423\n        /* \"#utility.yul\":15741:15743   */\n      0x20\n        /* \"#utility.yul\":15730:15739   */\n      dup4\n        /* \"#utility.yul\":15726:15744   */\n      add\n        /* \"#utility.yul\":15717:15723   */\n      dup5\n        /* \"#utility.yul\":15665:15745   */\n      tag_253\n      jump\t// in\n    tag_423:\n        /* \"#utility.yul\":15404:15752   */\n      swap4\n      swap3\n      pop\n      pop\n      pop\n      jump\t// out\n\n    auxdata: 0xa2646970667358221220155ef160a3ab369d13322bc53e3244945fdc8ef1c36cfe71aaa3a12bb33b4e2664736f6c634300081e0033\n}\n",
				"bytecode": {
					"linkReferences": {},
					"object": "610100604052348015610010575f5ffd5b5060405161250838038061250883398181016040528101906100329190610268565b5f73ffffffffffffffffffffffffffffffffffffffff168373ffffffffffffffffffffffffffffffffffffffff16148061009757505f73ffffffffffffffffffffffffffffffffffffffff168273ffffffffffffffffffffffffffffffffffffffff16145b806100a157505f81145b156100d8576040517f1f2a200500000000000000000000000000000000000000000000000000000000815260040160405180910390fd5b8273ffffffffffffffffffffffffffffffffffffffff1660808173ffffffffffffffffffffffffffffffffffffffff16815250508173ffffffffffffffffffffffffffffffffffffffff1660a08173ffffffffffffffffffffffffffffffffffffffff1681525050737b79995e5f793a07bc00c21412e50ecae098e7f973ffffffffffffffffffffffffffffffffffffffff1660c08173ffffffffffffffffffffffffffffffffffffffff16815250508060e08181525050335f5f6101000a81548173ffffffffffffffffffffffffffffffffffffffff021916908373ffffffffffffffffffffffffffffffffffffffff1602179055505050506102b8565b5f5ffd5b5f73ffffffffffffffffffffffffffffffffffffffff82169050919050565b5f610204826101db565b9050919050565b610214816101fa565b811461021e575f5ffd5b50565b5f8151905061022f8161020b565b92915050565b5f819050919050565b61024781610235565b8114610251575f5ffd5b50565b5f815190506102628161023e565b92915050565b5f5f5f6060848603121561027f5761027e6101d7565b5b5f61028c86828701610221565b935050602061029d86828701610221565b92505060406102ae86828701610254565b9150509250925092565b60805160a05160c05160e0516121836103855f395f81816108fe015281816109d301528181610ed101528181610fa60152818161115f0152818161162401526116f901525f8181610bc001528181610c4001528181610cd501528181611070015261118301525f81816106ae015281816107f101528181610c6101528181610dc4015261182e01525f818161056c015281816107700152818161093301528181610d4301528181610f0601528181611117015281816113740152818161154e015261165901526121835ff3fe6080604052600436106100aa575f3560e01c8063ac4543ba11610063578063ac4543ba146101d8578063ad5c464814610202578063c3fd262d1461022c578063db81f99b14610268578063f688bcfb14610290578063f887ea40146102b8576100ea565b806313af4035146100ee57806334462be6146101165780633965755314610140578063883f17211461016857806389a30271146101845780638da5cb5b146101ae576100ea565b366100ea576040517f08c379a00000000000000000000000000000000000000000000000000000000081526004016100e1906119cd565b60405180910390fd5b5f5ffd5b3480156100f9575f5ffd5b50610114600480360381019061010f9190611a56565b6102e2565b005b348015610121575f5ffd5b5061012a610496565b6040516101379190611a99565b60405180910390f35b34801561014b575f5ffd5b5061016660048036038101906101619190611adc565b61049c565b005b610182600480360381019061017d9190611b2c565b610b25565b005b34801561018f575f5ffd5b50610198611115565b6040516101a59190611b66565b60405180910390f35b3480156101b9575f5ffd5b506101c2611139565b6040516101cf9190611b66565b60405180910390f35b3480156101e3575f5ffd5b506101ec61115d565b6040516101f99190611a99565b60405180910390f35b34801561020d575f5ffd5b50610216611181565b6040516102239190611b66565b60405180910390f35b348015610237575f5ffd5b50610252600480360381019061024d9190611a56565b6111a5565b60405161025f9190611a99565b60405180910390f35b348015610273575f5ffd5b5061028e60048036038101906102899190611b2c565b6111eb565b005b34801561029b575f5ffd5b506102b660048036038101906102b19190611b2c565b6114b2565b005b3480156102c3575f5ffd5b506102cc61182c565b6040516102d99190611bda565b60405180910390f35b5f5f9054906101000a900473ffffffffffffffffffffffffffffffffffffffff1673ffffffffffffffffffffffffffffffffffffffff163373ffffffffffffffffffffffffffffffffffffffff1614610367576040517f30cd747100000000000000000000000000000000000000000000000000000000815260040160405180910390fd5b5f73ffffffffffffffffffffffffffffffffffffffff168173ffffffffffffffffffffffffffffffffffffffff16036103d5576040517f08c379a00000000000000000000000000000000000000000000000000000000081526004016103cc90611c3d565b60405180910390fd5b5f5f5f9054906101000a900473ffffffffffffffffffffffffffffffffffffffff169050815f5f6101000a81548173ffffffffffffffffffffffffffffffffffffffff021916908373ffffffffffffffffffffffffffffffffffffffff1602179055508173ffffffffffffffffffffffffffffffffffffffff168173ffffffffffffffffffffffffffffffffffffffff167fb532073b38c83145e3e5135377a08bf9aab55bc0fd7c1179cd4fb995d2a5159c60405160405180910390a35050565b60015481565b60025f9054906101000a900460ff16156104e2576040517fed3ba6a600000000000000000000000000000000000000000000000000000000815260040160405180910390fd5b600160025f6101000a81548160ff0219169083151502179055505f8203610535576040517f1f2a200500000000000000000000000000000000000000000000000000000000815260040160405180910390fd5b5f73ffffffffffffffffffffffffffffffffffffffff168373ffffffffffffffffffffffffffffffffffffffff1614806105ba57507f000000000000000000000000000000000000000000000000000000000000000073ffffffffffffffffffffffffffffffffffffffff168373ffffffffffffffffffffffffffffffffffffffff16145b156105f1576040517f20db826700000000000000000000000000000000000000000000000000000000815260040160405180910390fd5b5f8373ffffffffffffffffffffffffffffffffffffffff166323b872dd3330866040518463ffffffff1660e01b815260040161062f93929190611c5b565b6020604051808303815f875af115801561064b573d5f5f3e3d5ffd5b505050506040513d601f19601f8201168201806040525081019061066f9190611cc5565b9050806106a8576040517f81ceff3000000000000000000000000000000000000000000000000000000000815260040160405180910390fd5b6106d3847f000000000000000000000000000000000000000000000000000000000000000085611850565b5f600267ffffffffffffffff8111156106ef576106ee611cf0565b5b60405190808252806020026020018201604052801561071d5781602001602082028036833780820191505090505b50905084815f8151811061073457610733611d1d565b5b602002602001019073ffffffffffffffffffffffffffffffffffffffff16908173ffffffffffffffffffffffffffffffffffffffff16815250507f0000000000000000000000000000000000000000000000000000000000000000816001815181106107a3576107a2611d1d565b5b602002602001019073ffffffffffffffffffffffffffffffffffffffff16908173ffffffffffffffffffffffffffffffffffffffff16815250505f61012c426107ec9190611d77565b90505f7f000000000000000000000000000000000000000000000000000000000000000073ffffffffffffffffffffffffffffffffffffffff166338ed173987878630876040518663ffffffff1660e01b8152600401610850959493929190611e61565b5f604051808303815f875af115801561086b573d5f5f3e3d5ffd5b505050506040513d5f823e3d601f19601f820116820180604052508101906108939190611ff0565b90506002815110156108d1576040517f81ceff3000000000000000000000000000000000000000000000000000000000815260040160405180910390fd5b5f81600183516108e19190612037565b815181106108f2576108f1611d1d565b5b602002602001015190507f00000000000000000000000000000000000000000000000000000000000000008160015461092b9190611d77565b1115610a30577f000000000000000000000000000000000000000000000000000000000000000073ffffffffffffffffffffffffffffffffffffffff1663a9059cbb33836040518363ffffffff1660e01b815260040161098c92919061206a565b6020604051808303815f875af11580156109a8573d5f5f3e3d5ffd5b505050506040513d601f19601f820116820180604052508101906109cc9190611cc5565b50806001547f00000000000000000000000000000000000000000000000000000000000000006040517f621e5a69000000000000000000000000000000000000000000000000000000008152600401610a2793929190612091565b60405180910390fd5b8060015f828254610a419190611d77565b925050819055508060035f3373ffffffffffffffffffffffffffffffffffffffff1673ffffffffffffffffffffffffffffffffffffffff1681526020019081526020015f205f828254610a949190611d77565b925050819055508773ffffffffffffffffffffffffffffffffffffffff163373ffffffffffffffffffffffffffffffffffffffff167fab466672cd9adae1c2072831f94c1068597b355987d2a64d4e5a7dcd74e5cda58984604051610afa9291906120c6565b60405180910390a350505050505f60025f6101000a81548160ff021916908315150217905550505050565b60025f9054906101000a900460ff1615610b6b576040517fed3ba6a600000000000000000000000000000000000000000000000000000000815260040160405180910390fd5b600160025f6101000a81548160ff0219169083151502179055505f3403610bbe576040517f1f2a200500000000000000000000000000000000000000000000000000000000815260040160405180910390fd5b7f000000000000000000000000000000000000000000000000000000000000000073ffffffffffffffffffffffffffffffffffffffff1663d0e30db0346040518263ffffffff1660e01b81526004015f604051808303818588803b158015610c24575f5ffd5b505af1158015610c36573d5f5f3e3d5ffd5b5050505050610c867f00000000000000000000000000000000000000000000000000000000000000007f000000000000000000000000000000000000000000000000000000000000000034611850565b5f600267ffffffffffffffff811115610ca257610ca1611cf0565b5b604051908082528060200260200182016040528015610cd05781602001602082028036833780820191505090505b5090507f0000000000000000000000000000000000000000000000000000000000000000815f81518110610d0757610d06611d1d565b5b602002602001019073ffffffffffffffffffffffffffffffffffffffff16908173ffffffffffffffffffffffffffffffffffffffff16815250507f000000000000000000000000000000000000000000000000000000000000000081600181518110610d7657610d75611d1d565b5b602002602001019073ffffffffffffffffffffffffffffffffffffffff16908173ffffffffffffffffffffffffffffffffffffffff16815250505f61012c42610dbf9190611d77565b90505f7f000000000000000000000000000000000000000000000000000000000000000073ffffffffffffffffffffffffffffffffffffffff166338ed173934868630876040518663ffffffff1660e01b8152600401610e23959493929190611e61565b5f604051808303815f875af1158015610e3e573d5f5f3e3d5ffd5b505050506040513d5f823e3d601f19601f82011682018060405250810190610e669190611ff0565b9050600281511015610ea4576040517f81ceff3000000000000000000000000000000000000000000000000000000000815260040160405180910390fd5b5f8160018351610eb49190612037565b81518110610ec557610ec4611d1d565b5b602002602001015190507f000000000000000000000000000000000000000000000000000000000000000081600154610efe9190611d77565b1115611003577f000000000000000000000000000000000000000000000000000000000000000073ffffffffffffffffffffffffffffffffffffffff1663a9059cbb33836040518363ffffffff1660e01b8152600401610f5f92919061206a565b6020604051808303815f875af1158015610f7b573d5f5f3e3d5ffd5b505050506040513d601f19601f82011682018060405250810190610f9f9190611cc5565b50806001547f00000000000000000000000000000000000000000000000000000000000000006040517f621e5a69000000000000000000000000000000000000000000000000000000008152600401610ffa93929190612091565b60405180910390fd5b8060015f8282546110149190611d77565b925050819055508060035f3373ffffffffffffffffffffffffffffffffffffffff1673ffffffffffffffffffffffffffffffffffffffff1681526020019081526020015f205f8282546110679190611d77565b925050819055507f000000000000000000000000000000000000000000000000000000000000000073ffffffffffffffffffffffffffffffffffffffff163373ffffffffffffffffffffffffffffffffffffffff167fab466672cd9adae1c2072831f94c1068597b355987d2a64d4e5a7dcd74e5cda534846040516110ed9291906120c6565b60405180910390a3505050505f60025f6101000a81548160ff02191690831515021790555050565b7f000000000000000000000000000000000000000000000000000000000000000081565b5f5f9054906101000a900473ffffffffffffffffffffffffffffffffffffffff1681565b7f000000000000000000000000000000000000000000000000000000000000000081565b7f000000000000000000000000000000000000000000000000000000000000000081565b5f60035f8373ffffffffffffffffffffffffffffffffffffffff1673ffffffffffffffffffffffffffffffffffffffff1681526020019081526020015f20549050919050565b60025f9054906101000a900460ff1615611231576040517fed3ba6a600000000000000000000000000000000000000000000000000000000815260040160405180910390fd5b600160025f6101000a81548160ff0219169083151502179055505f8103611284576040517f1f2a200500000000000000000000000000000000000000000000000000000000815260040160405180910390fd5b5f60035f3373ffffffffffffffffffffffffffffffffffffffff1673ffffffffffffffffffffffffffffffffffffffff1681526020019081526020015f205490508082111561130c5780826040517fcf4791810000000000000000000000000000000000000000000000000000000081526004016113039291906120c6565b60405180910390fd5b81816113189190612037565b60035f3373ffffffffffffffffffffffffffffffffffffffff1673ffffffffffffffffffffffffffffffffffffffff1681526020019081526020015f20819055508160015f82825461136a9190612037565b925050819055505f7f000000000000000000000000000000000000000000000000000000000000000073ffffffffffffffffffffffffffffffffffffffff1663a9059cbb33856040518363ffffffff1660e01b81526004016113cd92919061206a565b6020604051808303815f875af11580156113e9573d5f5f3e3d5ffd5b505050506040513d601f19601f8201168201806040525081019061140d9190611cc5565b905080611446576040517f81ceff3000000000000000000000000000000000000000000000000000000000815260040160405180910390fd5b3373ffffffffffffffffffffffffffffffffffffffff167f23ee1b877cb0081138b4973c5b2eca0133c573ad526550935d83aaade37666ca8460405161148c9190611a99565b60405180910390a250505f60025f6101000a81548160ff02191690831515021790555050565b60025f9054906101000a900460ff16156114f8576040517fed3ba6a600000000000000000000000000000000000000000000000000000000815260040160405180910390fd5b600160025f6101000a81548160ff0219169083151502179055505f810361154b576040517f1f2a200500000000000000000000000000000000000000000000000000000000815260040160405180910390fd5b5f7f000000000000000000000000000000000000000000000000000000000000000073ffffffffffffffffffffffffffffffffffffffff166323b872dd3330856040518463ffffffff1660e01b81526004016115a993929190611c5b565b6020604051808303815f875af11580156115c5573d5f5f3e3d5ffd5b505050506040513d601f19601f820116820180604052508101906115e99190611cc5565b905080611622576040517f81ceff3000000000000000000000000000000000000000000000000000000000815260040160405180910390fd5b7f0000000000000000000000000000000000000000000000000000000000000000826001546116519190611d77565b1115611756577f000000000000000000000000000000000000000000000000000000000000000073ffffffffffffffffffffffffffffffffffffffff1663a9059cbb33846040518363ffffffff1660e01b81526004016116b292919061206a565b6020604051808303815f875af11580156116ce573d5f5f3e3d5ffd5b505050506040513d601f19601f820116820180604052508101906116f29190611cc5565b50816001547f00000000000000000000000000000000000000000000000000000000000000006040517f621e5a6900000000000000000000000000000000000000000000000000000000815260040161174d93929190612091565b60405180910390fd5b8160015f8282546117679190611d77565b925050819055508160035f3373ffffffffffffffffffffffffffffffffffffffff1673ffffffffffffffffffffffffffffffffffffffff1681526020019081526020015f205f8282546117ba9190611d77565b925050819055503373ffffffffffffffffffffffffffffffffffffffff167fe7440f6772025dec9be06ba934e6ee5289b73533ee2136ba668f6cb6ea3f56a8836040516118079190611a99565b60405180910390a2505f60025f6101000a81548160ff02191690831515021790555050565b7f000000000000000000000000000000000000000000000000000000000000000081565b8273ffffffffffffffffffffffffffffffffffffffff1663095ea7b3835f6040518363ffffffff1660e01b815260040161188b929190612126565b6020604051808303815f875af11580156118a7573d5f5f3e3d5ffd5b505050506040513d601f19601f820116820180604052508101906118cb9190611cc5565b508273ffffffffffffffffffffffffffffffffffffffff1663095ea7b383836040518363ffffffff1660e01b815260040161190792919061206a565b6020604051808303815f875af1158015611923573d5f5f3e3d5ffd5b505050506040513d601f19601f820116820180604052508101906119479190611cc5565b50505050565b5f82825260208201905092915050565b7f557365206465706f73697445544853776170546f555344432066756e6374696f5f8201527f6e206469726563746c7900000000000000000000000000000000000000000000602082015250565b5f6119b7602a8361194d565b91506119c28261195d565b604082019050919050565b5f6020820190508181035f8301526119e4816119ab565b9050919050565b5f604051905090565b5f5ffd5b5f5ffd5b5f73ffffffffffffffffffffffffffffffffffffffff82169050919050565b5f611a25826119fc565b9050919050565b611a3581611a1b565b8114611a3f575f5ffd5b50565b5f81359050611a5081611a2c565b92915050565b5f60208284031215611a6b57611a6a6119f4565b5b5f611a7884828501611a42565b91505092915050565b5f819050919050565b611a9381611a81565b82525050565b5f602082019050611aac5f830184611a8a565b92915050565b611abb81611a81565b8114611ac5575f5ffd5b50565b5f81359050611ad681611ab2565b92915050565b5f5f5f60608486031215611af357611af26119f4565b5b5f611b0086828701611a42565b9350506020611b1186828701611ac8565b9250506040611b2286828701611ac8565b9150509250925092565b5f60208284031215611b4157611b406119f4565b5b5f611b4e84828501611ac8565b91505092915050565b611b6081611a1b565b82525050565b5f602082019050611b795f830184611b57565b92915050565b5f819050919050565b5f611ba2611b9d611b98846119fc565b611b7f565b6119fc565b9050919050565b5f611bb382611b88565b9050919050565b5f611bc482611ba9565b9050919050565b611bd481611bba565b82525050565b5f602082019050611bed5f830184611bcb565b92915050565b7f7a65726f206164647200000000000000000000000000000000000000000000005f82015250565b5f611c2760098361194d565b9150611c3282611bf3565b602082019050919050565b5f6020820190508181035f830152611c5481611c1b565b9050919050565b5f606082019050611c6e5f830186611b57565b611c7b6020830185611b57565b611c886040830184611a8a565b949350505050565b5f8115159050919050565b611ca481611c90565b8114611cae575f5ffd5b50565b5f81519050611cbf81611c9b565b92915050565b5f60208284031215611cda57611cd96119f4565b5b5f611ce784828501611cb1565b91505092915050565b7f4e487b71000000000000000000000000000000000000000000000000000000005f52604160045260245ffd5b7f4e487b71000000000000000000000000000000000000000000000000000000005f52603260045260245ffd5b7f4e487b71000000000000000000000000000000000000000000000000000000005f52601160045260245ffd5b5f611d8182611a81565b9150611d8c83611a81565b9250828201905080821115611da457611da3611d4a565b5b92915050565b5f81519050919050565b5f82825260208201905092915050565b5f819050602082019050919050565b611ddc81611a1b565b82525050565b5f611ded8383611dd3565b60208301905092915050565b5f602082019050919050565b5f611e0f82611daa565b611e198185611db4565b9350611e2483611dc4565b805f5b83811015611e54578151611e3b8882611de2565b9750611e4683611df9565b925050600181019050611e27565b5085935050505092915050565b5f60a082019050611e745f830188611a8a565b611e816020830187611a8a565b8181036040830152611e938186611e05565b9050611ea26060830185611b57565b611eaf6080830184611a8a565b9695505050505050565b5f5ffd5b5f601f19601f8301169050919050565b611ed682611ebd565b810181811067ffffffffffffffff82111715611ef557611ef4611cf0565b5b80604052505050565b5f611f076119eb565b9050611f138282611ecd565b919050565b5f67ffffffffffffffff821115611f3257611f31611cf0565b5b602082029050602081019050919050565b5f5ffd5b5f81519050611f5581611ab2565b92915050565b5f611f6d611f6884611f18565b611efe565b90508083825260208201905060208402830185811115611f9057611f8f611f43565b5b835b81811015611fb95780611fa58882611f47565b845260208401935050602081019050611f92565b5050509392505050565b5f82601f830112611fd757611fd6611eb9565b5b8151611fe7848260208601611f5b565b91505092915050565b5f60208284031215612005576120046119f4565b5b5f82015167ffffffffffffffff811115612022576120216119f8565b5b61202e84828501611fc3565b91505092915050565b5f61204182611a81565b915061204c83611a81565b925082820390508181111561206457612063611d4a565b5b92915050565b5f60408201905061207d5f830185611b57565b61208a6020830184611a8a565b9392505050565b5f6060820190506120a45f830186611a8a565b6120b16020830185611a8a565b6120be6040830184611a8a565b949350505050565b5f6040820190506120d95f830185611a8a565b6120e66020830184611a8a565b9392505050565b5f819050919050565b5f61211061210b612106846120ed565b611b7f565b611a81565b9050919050565b612120816120f6565b82525050565b5f6040820190506121395f830185611b57565b6121466020830184612117565b939250505056fea2646970667358221220155ef160a3ab369d13322bc53e3244945fdc8ef1c36cfe71aaa3a12bb33b4e2664736f6c634300081e0033",
					"opcodes": "PUSH2 0x100 PUSH1 0x40 MSTORE CALLVALUE DUP1 ISZERO PUSH2 0x10 JUMPI PUSH0 PUSH0 REVERT JUMPDEST POP PUSH1 0x40 MLOAD PUSH2 0x2508 CODESIZE SUB DUP1 PUSH2 0x2508 DUP4 CODECOPY DUP2 DUP2 ADD PUSH1 0x40 MSTORE DUP2 ADD SWAP1 PUSH2 0x32 SWAP2 SWAP1 PUSH2 0x268 JUMP JUMPDEST PUSH0 PUSH20 0xFFFFFFFFFFFFFFFFFFFFFFFFFFFFFFFFFFFFFFFF AND DUP4 PUSH20 0xFFFFFFFFFFFFFFFFFFFFFFFFFFFFFFFFFFFFFFFF AND EQ DUP1 PUSH2 0x97 JUMPI POP PUSH0 PUSH20 0xFFFFFFFFFFFFFFFFFFFFFFFFFFFFFFFFFFFFFFFF AND DUP3 PUSH20 0xFFFFFFFFFFFFFFFFFFFFFFFFFFFFFFFFFFFFFFFF AND EQ JUMPDEST DUP1 PUSH2 0xA1 JUMPI POP PUSH0 DUP2 EQ JUMPDEST ISZERO PUSH2 0xD8 JUMPI PUSH1 0x40 MLOAD PUSH32 0x1F2A200500000000000000000000000000000000000000000000000000000000 DUP2 MSTORE PUSH1 0x4 ADD PUSH1 0x40 MLOAD DUP1 SWAP2 SUB SWAP1 REVERT JUMPDEST DUP3 PUSH20 0xFFFFFFFFFFFFFFFFFFFFFFFFFFFFFFFFFFFFFFFF AND PUSH1 0x80 DUP2 PUSH20 0xFFFFFFFFFFFFFFFFFFFFFFFFFFFFFFFFFFFFFFFF AND DUP2 MSTORE POP POP DUP2 PUSH20 0xFFFFFFFFFFFFFFFFFFFFFFFFFFFFFFFFFFFFFFFF AND PUSH1 0xA0 DUP2 PUSH20 0xFFFFFFFFFFFFFFFFFFFFFFFFFFFFFFFFFFFFFFFF AND DUP2 MSTORE POP POP PUSH20 0x7B79995E5F793A07BC00C21412E50ECAE098E7F9 PUSH20 0xFFFFFFFFFFFFFFFFFFFFFFFFFFFFFFFFFFFFFFFF AND PUSH1 0xC0 DUP2 PUSH20 0xFFFFFFFFFFFFFFFFFFFFFFFFFFFFFFFFFFFFFFFF AND DUP2 MSTORE POP POP DUP1 PUSH1 0xE0 DUP2 DUP2 MSTORE POP POP CALLER PUSH0 PUSH0 PUSH2 0x100 EXP DUP2 SLOAD DUP2 PUSH20 0xFFFFFFFFFFFFFFFFFFFFFFFFFFFFFFFFFFFFFFFF MUL NOT AND SWAP1 DUP4 PUSH20 0xFFFFFFFFFFFFFFFFFFFFFFFFFFFFFFFFFFFFFFFF AND MUL OR SWAP1 SSTORE POP POP POP POP PUSH2 0x2B8 JUMP JUMPDEST PUSH0 PUSH0 REVERT JUMPDEST PUSH0 PUSH20 0xFFFFFFFFFFFFFFFFFFFFFFFFFFFFFFFFFFFFFFFF DUP3 AND SWAP1 POP SWAP2 SWAP1 POP JUMP JUMPDEST PUSH0 PUSH2 0x204 DUP3 PUSH2 0x1DB JUMP JUMPDEST SWAP1 POP SWAP2 SWAP1 POP JUMP JUMPDEST PUSH2 0x214 DUP2 PUSH2 0x1FA JUMP JUMPDEST DUP2 EQ PUSH2 0x21E JUMPI PUSH0 PUSH0 REVERT JUMPDEST POP JUMP JUMPDEST PUSH0 DUP2 MLOAD SWAP1 POP PUSH2 0x22F DUP2 PUSH2 0x20B JUMP JUMPDEST SWAP3 SWAP2 POP POP JUMP JUMPDEST PUSH0 DUP2 SWAP1 POP SWAP2 SWAP1 POP JUMP JUMPDEST PUSH2 0x247 DUP2 PUSH2 0x235 JUMP JUMPDEST DUP2 EQ PUSH2 0x251 JUMPI PUSH0 PUSH0 REVERT JUMPDEST POP JUMP JUMPDEST PUSH0 DUP2 MLOAD SWAP1 POP PUSH2 0x262 DUP2 PUSH2 0x23E JUMP JUMPDEST SWAP3 SWAP2 POP POP JUMP JUMPDEST PUSH0 PUSH0 PUSH0 PUSH1 0x60 DUP5 DUP7 SUB SLT ISZERO PUSH2 0x27F JUMPI PUSH2 0x27E PUSH2 0x1D7 JUMP JUMPDEST JUMPDEST PUSH0 PUSH2 0x28C DUP7 DUP3 DUP8 ADD PUSH2 0x221 JUMP JUMPDEST SWAP4 POP POP PUSH1 0x20 PUSH2 0x29D DUP7 DUP3 DUP8 ADD PUSH2 0x221 JUMP JUMPDEST SWAP3 POP POP PUSH1 0x40 PUSH2 0x2AE DUP7 DUP3 DUP8 ADD PUSH2 0x254 JUMP JUMPDEST SWAP2 POP POP SWAP3 POP SWAP3 POP SWAP3 JUMP JUMPDEST PUSH1 0x80 MLOAD PUSH1 0xA0 MLOAD PUSH1 0xC0 MLOAD PUSH1 0xE0 MLOAD PUSH2 0x2183 PUSH2 0x385 PUSH0 CODECOPY PUSH0 DUP2 DUP2 PUSH2 0x8FE ADD MSTORE DUP2 DUP2 PUSH2 0x9D3 ADD MSTORE DUP2 DUP2 PUSH2 0xED1 ADD MSTORE DUP2 DUP2 PUSH2 0xFA6 ADD MSTORE DUP2 DUP2 PUSH2 0x115F ADD MSTORE DUP2 DUP2 PUSH2 0x1624 ADD MSTORE PUSH2 0x16F9 ADD MSTORE PUSH0 DUP2 DUP2 PUSH2 0xBC0 ADD MSTORE DUP2 DUP2 PUSH2 0xC40 ADD MSTORE DUP2 DUP2 PUSH2 0xCD5 ADD MSTORE DUP2 DUP2 PUSH2 0x1070 ADD MSTORE PUSH2 0x1183 ADD MSTORE PUSH0 DUP2 DUP2 PUSH2 0x6AE ADD MSTORE DUP2 DUP2 PUSH2 0x7F1 ADD MSTORE DUP2 DUP2 PUSH2 0xC61 ADD MSTORE DUP2 DUP2 PUSH2 0xDC4 ADD MSTORE PUSH2 0x182E ADD MSTORE PUSH0 DUP2 DUP2 PUSH2 0x56C ADD MSTORE DUP2 DUP2 PUSH2 0x770 ADD MSTORE DUP2 DUP2 PUSH2 0x933 ADD MSTORE DUP2 DUP2 PUSH2 0xD43 ADD MSTORE DUP2 DUP2 PUSH2 0xF06 ADD MSTORE DUP2 DUP2 PUSH2 0x1117 ADD MSTORE DUP2 DUP2 PUSH2 0x1374 ADD MSTORE DUP2 DUP2 PUSH2 0x154E ADD MSTORE PUSH2 0x1659 ADD MSTORE PUSH2 0x2183 PUSH0 RETURN INVALID PUSH1 0x80 PUSH1 0x40 MSTORE PUSH1 0x4 CALLDATASIZE LT PUSH2 0xAA JUMPI PUSH0 CALLDATALOAD PUSH1 0xE0 SHR DUP1 PUSH4 0xAC4543BA GT PUSH2 0x63 JUMPI DUP1 PUSH4 0xAC4543BA EQ PUSH2 0x1D8 JUMPI DUP1 PUSH4 0xAD5C4648 EQ PUSH2 0x202 JUMPI DUP1 PUSH4 0xC3FD262D EQ PUSH2 0x22C JUMPI DUP1 PUSH4 0xDB81F99B EQ PUSH2 0x268 JUMPI DUP1 PUSH4 0xF688BCFB EQ PUSH2 0x290 JUMPI DUP1 PUSH4 0xF887EA40 EQ PUSH2 0x2B8 JUMPI PUSH2 0xEA JUMP JUMPDEST DUP1 PUSH4 0x13AF4035 EQ PUSH2 0xEE JUMPI DUP1 PUSH4 0x34462BE6 EQ PUSH2 0x116 JUMPI DUP1 PUSH4 0x39657553 EQ PUSH2 0x140 JUMPI DUP1 PUSH4 0x883F1721 EQ PUSH2 0x168 JUMPI DUP1 PUSH4 0x89A30271 EQ PUSH2 0x184 JUMPI DUP1 PUSH4 0x8DA5CB5B EQ PUSH2 0x1AE JUMPI PUSH2 0xEA JUMP JUMPDEST CALLDATASIZE PUSH2 0xEA JUMPI PUSH1 0x40 MLOAD PUSH32 0x8C379A000000000000000000000000000000000000000000000000000000000 DUP2 MSTORE PUSH1 0x4 ADD PUSH2 0xE1 SWAP1 PUSH2 0x19CD JUMP JUMPDEST PUSH1 0x40 MLOAD DUP1 SWAP2 SUB SWAP1 REVERT JUMPDEST PUSH0 PUSH0 REVERT JUMPDEST CALLVALUE DUP1 ISZERO PUSH2 0xF9 JUMPI PUSH0 PUSH0 REVERT JUMPDEST POP PUSH2 0x114 PUSH1 0x4 DUP1 CALLDATASIZE SUB DUP2 ADD SWAP1 PUSH2 0x10F SWAP2 SWAP1 PUSH2 0x1A56 JUMP JUMPDEST PUSH2 0x2E2 JUMP JUMPDEST STOP JUMPDEST CALLVALUE DUP1 ISZERO PUSH2 0x121 JUMPI PUSH0 PUSH0 REVERT JUMPDEST POP PUSH2 0x12A PUSH2 0x496 JUMP JUMPDEST PUSH1 0x40 MLOAD PUSH2 0x137 SWAP2 SWAP1 PUSH2 0x1A99 JUMP JUMPDEST PUSH1 0x40 MLOAD DUP1 SWAP2 SUB SWAP1 RETURN JUMPDEST CALLVALUE DUP1 ISZERO PUSH2 0x14B JUMPI PUSH0 PUSH0 REVERT JUMPDEST POP PUSH2 0x166 PUSH1 0x4 DUP1 CALLDATASIZE SUB DUP2 ADD SWAP1 PUSH2 0x161 SWAP2 SWAP1 PUSH2 0x1ADC JUMP JUMPDEST PUSH2 0x49C JUMP JUMPDEST STOP JUMPDEST PUSH2 0x182 PUSH1 0x4 DUP1 CALLDATASIZE SUB DUP2 ADD SWAP1 PUSH2 0x17D SWAP2 SWAP1 PUSH2 0x1B2C JUMP JUMPDEST PUSH2 0xB25 JUMP JUMPDEST STOP JUMPDEST CALLVALUE DUP1 ISZERO PUSH2 0x18F JUMPI PUSH0 PUSH0 REVERT JUMPDEST POP PUSH2 0x198 PUSH2 0x1115 JUMP JUMPDEST PUSH1 0x40 MLOAD PUSH2 0x1A5 SWAP2 SWAP1 PUSH2 0x1B66 JUMP JUMPDEST PUSH1 0x40 MLOAD DUP1 SWAP2 SUB SWAP1 RETURN JUMPDEST CALLVALUE DUP1 ISZERO PUSH2 0x1B9 JUMPI PUSH0 PUSH0 REVERT JUMPDEST POP PUSH2 0x1C2 PUSH2 0x1139 JUMP JUMPDEST PUSH1 0x40 MLOAD PUSH2 0x1CF SWAP2 SWAP1 PUSH2 0x1B66 JUMP JUMPDEST PUSH1 0x40 MLOAD DUP1 SWAP2 SUB SWAP1 RETURN JUMPDEST CALLVALUE DUP1 ISZERO PUSH2 0x1E3 JUMPI PUSH0 PUSH0 REVERT JUMPDEST POP PUSH2 0x1EC PUSH2 0x115D JUMP JUMPDEST PUSH1 0x40 MLOAD PUSH2 0x1F9 SWAP2 SWAP1 PUSH2 0x1A99 JUMP JUMPDEST PUSH1 0x40 MLOAD DUP1 SWAP2 SUB SWAP1 RETURN JUMPDEST CALLVALUE DUP1 ISZERO PUSH2 0x20D JUMPI PUSH0 PUSH0 REVERT JUMPDEST POP PUSH2 0x216 PUSH2 0x1181 JUMP JUMPDEST PUSH1 0x40 MLOAD PUSH2 0x223 SWAP2 SWAP1 PUSH2 0x1B66 JUMP JUMPDEST PUSH1 0x40 MLOAD DUP1 SWAP2 SUB SWAP1 RETURN JUMPDEST CALLVALUE DUP1 ISZERO PUSH2 0x237 JUMPI PUSH0 PUSH0 REVERT JUMPDEST POP PUSH2 0x252 PUSH1 0x4 DUP1 CALLDATASIZE SUB DUP2 ADD SWAP1 PUSH2 0x24D SWAP2 SWAP1 PUSH2 0x1A56 JUMP JUMPDEST PUSH2 0x11A5 JUMP JUMPDEST PUSH1 0x40 MLOAD PUSH2 0x25F SWAP2 SWAP1 PUSH2 0x1A99 JUMP JUMPDEST PUSH1 0x40 MLOAD DUP1 SWAP2 SUB SWAP1 RETURN JUMPDEST CALLVALUE DUP1 ISZERO PUSH2 0x273 JUMPI PUSH0 PUSH0 REVERT JUMPDEST POP PUSH2 0x28E PUSH1 0x4 DUP1 CALLDATASIZE SUB DUP2 ADD SWAP1 PUSH2 0x289 SWAP2 SWAP1 PUSH2 0x1B2C JUMP JUMPDEST PUSH2 0x11EB JUMP JUMPDEST STOP JUMPDEST CALLVALUE DUP1 ISZERO PUSH2 0x29B JUMPI PUSH0 PUSH0 REVERT JUMPDEST POP PUSH2 0x2B6 PUSH1 0x4 DUP1 CALLDATASIZE SUB DUP2 ADD SWAP1 PUSH2 0x2B1 SWAP2 SWAP1 PUSH2 0x1B2C JUMP JUMPDEST PUSH2 0x14B2 JUMP JUMPDEST STOP JUMPDEST CALLVALUE DUP1 ISZERO PUSH2 0x2C3 JUMPI PUSH0 PUSH0 REVERT JUMPDEST POP PUSH2 0x2CC PUSH2 0x182C JUMP JUMPDEST PUSH1 0x40 MLOAD PUSH2 0x2D9 SWAP2 SWAP1 PUSH2 0x1BDA JUMP JUMPDEST PUSH1 0x40 MLOAD DUP1 SWAP2 SUB SWAP1 RETURN JUMPDEST PUSH0 PUSH0 SWAP1 SLOAD SWAP1 PUSH2 0x100 EXP SWAP1 DIV PUSH20 0xFFFFFFFFFFFFFFFFFFFFFFFFFFFFFFFFFFFFFFFF AND PUSH20 0xFFFFFFFFFFFFFFFFFFFFFFFFFFFFFFFFFFFFFFFF AND CALLER PUSH20 0xFFFFFFFFFFFFFFFFFFFFFFFFFFFFFFFFFFFFFFFF AND EQ PUSH2 0x367 JUMPI PUSH1 0x40 MLOAD PUSH32 0x30CD747100000000000000000000000000000000000000000000000000000000 DUP2 MSTORE PUSH1 0x4 ADD PUSH1 0x40 MLOAD DUP1 SWAP2 SUB SWAP1 REVERT JUMPDEST PUSH0 PUSH20 0xFFFFFFFFFFFFFFFFFFFFFFFFFFFFFFFFFFFFFFFF AND DUP2 PUSH20 0xFFFFFFFFFFFFFFFFFFFFFFFFFFFFFFFFFFFFFFFF AND SUB PUSH2 0x3D5 JUMPI PUSH1 0x40 MLOAD PUSH32 0x8C379A000000000000000000000000000000000000000000000000000000000 DUP2 MSTORE PUSH1 0x4 ADD PUSH2 0x3CC SWAP1 PUSH2 0x1C3D JUMP JUMPDEST PUSH1 0x40 MLOAD DUP1 SWAP2 SUB SWAP1 REVERT JUMPDEST PUSH0 PUSH0 PUSH0 SWAP1 SLOAD SWAP1 PUSH2 0x100 EXP SWAP1 DIV PUSH20 0xFFFFFFFFFFFFFFFFFFFFFFFFFFFFFFFFFFFFFFFF AND SWAP1 POP DUP2 PUSH0 PUSH0 PUSH2 0x100 EXP DUP2 SLOAD DUP2 PUSH20 0xFFFFFFFFFFFFFFFFFFFFFFFFFFFFFFFFFFFFFFFF MUL NOT AND SWAP1 DUP4 PUSH20 0xFFFFFFFFFFFFFFFFFFFFFFFFFFFFFFFFFFFFFFFF AND MUL OR SWAP1 SSTORE POP DUP2 PUSH20 0xFFFFFFFFFFFFFFFFFFFFFFFFFFFFFFFFFFFFFFFF AND DUP2 PUSH20 0xFFFFFFFFFFFFFFFFFFFFFFFFFFFFFFFFFFFFFFFF AND PUSH32 0xB532073B38C83145E3E5135377A08BF9AAB55BC0FD7C1179CD4FB995D2A5159C PUSH1 0x40 MLOAD PUSH1 0x40 MLOAD DUP1 SWAP2 SUB SWAP1 LOG3 POP POP JUMP JUMPDEST PUSH1 0x1 SLOAD DUP2 JUMP JUMPDEST PUSH1 0x2 PUSH0 SWAP1 SLOAD SWAP1 PUSH2 0x100 EXP SWAP1 DIV PUSH1 0xFF AND ISZERO PUSH2 0x4E2 JUMPI PUSH1 0x40 MLOAD PUSH32 0xED3BA6A600000000000000000000000000000000000000000000000000000000 DUP2 MSTORE PUSH1 0x4 ADD PUSH1 0x40 MLOAD DUP1 SWAP2 SUB SWAP1 REVERT JUMPDEST PUSH1 0x1 PUSH1 0x2 PUSH0 PUSH2 0x100 EXP DUP2 SLOAD DUP2 PUSH1 0xFF MUL NOT AND SWAP1 DUP4 ISZERO ISZERO MUL OR SWAP1 SSTORE POP PUSH0 DUP3 SUB PUSH2 0x535 JUMPI PUSH1 0x40 MLOAD PUSH32 0x1F2A200500000000000000000000000000000000000000000000000000000000 DUP2 MSTORE PUSH1 0x4 ADD PUSH1 0x40 MLOAD DUP1 SWAP2 SUB SWAP1 REVERT JUMPDEST PUSH0 PUSH20 0xFFFFFFFFFFFFFFFFFFFFFFFFFFFFFFFFFFFFFFFF AND DUP4 PUSH20 0xFFFFFFFFFFFFFFFFFFFFFFFFFFFFFFFFFFFFFFFF AND EQ DUP1 PUSH2 0x5BA JUMPI POP PUSH32 0x0 PUSH20 0xFFFFFFFFFFFFFFFFFFFFFFFFFFFFFFFFFFFFFFFF AND DUP4 PUSH20 0xFFFFFFFFFFFFFFFFFFFFFFFFFFFFFFFFFFFFFFFF AND EQ JUMPDEST ISZERO PUSH2 0x5F1 JUMPI PUSH1 0x40 MLOAD PUSH32 0x20DB826700000000000000000000000000000000000000000000000000000000 DUP2 MSTORE PUSH1 0x4 ADD PUSH1 0x40 MLOAD DUP1 SWAP2 SUB SWAP1 REVERT JUMPDEST PUSH0 DUP4 PUSH20 0xFFFFFFFFFFFFFFFFFFFFFFFFFFFFFFFFFFFFFFFF AND PUSH4 0x23B872DD CALLER ADDRESS DUP7 PUSH1 0x40 MLOAD DUP5 PUSH4 0xFFFFFFFF AND PUSH1 0xE0 SHL DUP2 MSTORE PUSH1 0x4 ADD PUSH2 0x62F SWAP4 SWAP3 SWAP2 SWAP1 PUSH2 0x1C5B JUMP JUMPDEST PUSH1 0x20 PUSH1 0x40 MLOAD DUP1 DUP4 SUB DUP2 PUSH0 DUP8 GAS CALL ISZERO DUP1 ISZERO PUSH2 0x64B JUMPI RETURNDATASIZE PUSH0 PUSH0 RETURNDATACOPY RETURNDATASIZE PUSH0 REVERT JUMPDEST POP POP POP POP PUSH1 0x40 MLOAD RETURNDATASIZE PUSH1 0x1F NOT PUSH1 0x1F DUP3 ADD AND DUP3 ADD DUP1 PUSH1 0x40 MSTORE POP DUP2 ADD SWAP1 PUSH2 0x66F SWAP2 SWAP1 PUSH2 0x1CC5 JUMP JUMPDEST SWAP1 POP DUP1 PUSH2 0x6A8 JUMPI PUSH1 0x40 MLOAD PUSH32 0x81CEFF3000000000000000000000000000000000000000000000000000000000 DUP2 MSTORE PUSH1 0x4 ADD PUSH1 0x40 MLOAD DUP1 SWAP2 SUB SWAP1 REVERT JUMPDEST PUSH2 0x6D3 DUP5 PUSH32 0x0 DUP6 PUSH2 0x1850 JUMP JUMPDEST PUSH0 PUSH1 0x2 PUSH8 0xFFFFFFFFFFFFFFFF DUP2 GT ISZERO PUSH2 0x6EF JUMPI PUSH2 0x6EE PUSH2 0x1CF0 JUMP JUMPDEST JUMPDEST PUSH1 0x40 MLOAD SWAP1 DUP1 DUP3 MSTORE DUP1 PUSH1 0x20 MUL PUSH1 0x20 ADD DUP3 ADD PUSH1 0x40 MSTORE DUP1 ISZERO PUSH2 0x71D JUMPI DUP2 PUSH1 0x20 ADD PUSH1 0x20 DUP3 MUL DUP1 CALLDATASIZE DUP4 CALLDATACOPY DUP1 DUP3 ADD SWAP2 POP POP SWAP1 POP JUMPDEST POP SWAP1 POP DUP5 DUP2 PUSH0 DUP2 MLOAD DUP2 LT PUSH2 0x734 JUMPI PUSH2 0x733 PUSH2 0x1D1D JUMP JUMPDEST JUMPDEST PUSH1 0x20 MUL PUSH1 0x20 ADD ADD SWAP1 PUSH20 0xFFFFFFFFFFFFFFFFFFFFFFFFFFFFFFFFFFFFFFFF AND SWAP1 DUP2 PUSH20 0xFFFFFFFFFFFFFFFFFFFFFFFFFFFFFFFFFFFFFFFF AND DUP2 MSTORE POP POP PUSH32 0x0 DUP2 PUSH1 0x1 DUP2 MLOAD DUP2 LT PUSH2 0x7A3 JUMPI PUSH2 0x7A2 PUSH2 0x1D1D JUMP JUMPDEST JUMPDEST PUSH1 0x20 MUL PUSH1 0x20 ADD ADD SWAP1 PUSH20 0xFFFFFFFFFFFFFFFFFFFFFFFFFFFFFFFFFFFFFFFF AND SWAP1 DUP2 PUSH20 0xFFFFFFFFFFFFFFFFFFFFFFFFFFFFFFFFFFFFFFFF AND DUP2 MSTORE POP POP PUSH0 PUSH2 0x12C TIMESTAMP PUSH2 0x7EC SWAP2 SWAP1 PUSH2 0x1D77 JUMP JUMPDEST SWAP1 POP PUSH0 PUSH32 0x0 PUSH20 0xFFFFFFFFFFFFFFFFFFFFFFFFFFFFFFFFFFFFFFFF AND PUSH4 0x38ED1739 DUP8 DUP8 DUP7 ADDRESS DUP8 PUSH1 0x40 MLOAD DUP7 PUSH4 0xFFFFFFFF AND PUSH1 0xE0 SHL DUP2 MSTORE PUSH1 0x4 ADD PUSH2 0x850 SWAP6 SWAP5 SWAP4 SWAP3 SWAP2 SWAP1 PUSH2 0x1E61 JUMP JUMPDEST PUSH0 PUSH1 0x40 MLOAD DUP1 DUP4 SUB DUP2 PUSH0 DUP8 GAS CALL ISZERO DUP1 ISZERO PUSH2 0x86B JUMPI RETURNDATASIZE PUSH0 PUSH0 RETURNDATACOPY RETURNDATASIZE PUSH0 REVERT JUMPDEST POP POP POP POP PUSH1 0x40 MLOAD RETURNDATASIZE PUSH0 DUP3 RETURNDATACOPY RETURNDATASIZE PUSH1 0x1F NOT PUSH1 0x1F DUP3 ADD AND DUP3 ADD DUP1 PUSH1 0x40 MSTORE POP DUP2 ADD SWAP1 PUSH2 0x893 SWAP2 SWAP1 PUSH2 0x1FF0 JUMP JUMPDEST SWAP1 POP PUSH1 0x2 DUP2 MLOAD LT ISZERO PUSH2 0x8D1 JUMPI PUSH1 0x40 MLOAD PUSH32 0x81CEFF3000000000000000000000000000000000000000000000000000000000 DUP2 MSTORE PUSH1 0x4 ADD PUSH1 0x40 MLOAD DUP1 SWAP2 SUB SWAP1 REVERT JUMPDEST PUSH0 DUP2 PUSH1 0x1 DUP4 MLOAD PUSH2 0x8E1 SWAP2 SWAP1 PUSH2 0x2037 JUMP JUMPDEST DUP2 MLOAD DUP2 LT PUSH2 0x8F2 JUMPI PUSH2 0x8F1 PUSH2 0x1D1D JUMP JUMPDEST JUMPDEST PUSH1 0x20 MUL PUSH1 0x20 ADD ADD MLOAD SWAP1 POP PUSH32 0x0 DUP2 PUSH1 0x1 SLOAD PUSH2 0x92B SWAP2 SWAP1 PUSH2 0x1D77 JUMP JUMPDEST GT ISZERO PUSH2 0xA30 JUMPI PUSH32 0x0 PUSH20 0xFFFFFFFFFFFFFFFFFFFFFFFFFFFFFFFFFFFFFFFF AND PUSH4 0xA9059CBB CALLER DUP4 PUSH1 0x40 MLOAD DUP4 PUSH4 0xFFFFFFFF AND PUSH1 0xE0 SHL DUP2 MSTORE PUSH1 0x4 ADD PUSH2 0x98C SWAP3 SWAP2 SWAP1 PUSH2 0x206A JUMP JUMPDEST PUSH1 0x20 PUSH1 0x40 MLOAD DUP1 DUP4 SUB DUP2 PUSH0 DUP8 GAS CALL ISZERO DUP1 ISZERO PUSH2 0x9A8 JUMPI RETURNDATASIZE PUSH0 PUSH0 RETURNDATACOPY RETURNDATASIZE PUSH0 REVERT JUMPDEST POP POP POP POP PUSH1 0x40 MLOAD RETURNDATASIZE PUSH1 0x1F NOT PUSH1 0x1F DUP3 ADD AND DUP3 ADD DUP1 PUSH1 0x40 MSTORE POP DUP2 ADD SWAP1 PUSH2 0x9CC SWAP2 SWAP1 PUSH2 0x1CC5 JUMP JUMPDEST POP DUP1 PUSH1 0x1 SLOAD PUSH32 0x0 PUSH1 0x40 MLOAD PUSH32 0x621E5A6900000000000000000000000000000000000000000000000000000000 DUP2 MSTORE PUSH1 0x4 ADD PUSH2 0xA27 SWAP4 SWAP3 SWAP2 SWAP1 PUSH2 0x2091 JUMP JUMPDEST PUSH1 0x40 MLOAD DUP1 SWAP2 SUB SWAP1 REVERT JUMPDEST DUP1 PUSH1 0x1 PUSH0 DUP3 DUP3 SLOAD PUSH2 0xA41 SWAP2 SWAP1 PUSH2 0x1D77 JUMP JUMPDEST SWAP3 POP POP DUP2 SWAP1 SSTORE POP DUP1 PUSH1 0x3 PUSH0 CALLER PUSH20 0xFFFFFFFFFFFFFFFFFFFFFFFFFFFFFFFFFFFFFFFF AND PUSH20 0xFFFFFFFFFFFFFFFFFFFFFFFFFFFFFFFFFFFFFFFF AND DUP2 MSTORE PUSH1 0x20 ADD SWAP1 DUP2 MSTORE PUSH1 0x20 ADD PUSH0 KECCAK256 PUSH0 DUP3 DUP3 SLOAD PUSH2 0xA94 SWAP2 SWAP1 PUSH2 0x1D77 JUMP JUMPDEST SWAP3 POP POP DUP2 SWAP1 SSTORE POP DUP8 PUSH20 0xFFFFFFFFFFFFFFFFFFFFFFFFFFFFFFFFFFFFFFFF AND CALLER PUSH20 0xFFFFFFFFFFFFFFFFFFFFFFFFFFFFFFFFFFFFFFFF AND PUSH32 0xAB466672CD9ADAE1C2072831F94C1068597B355987D2A64D4E5A7DCD74E5CDA5 DUP10 DUP5 PUSH1 0x40 MLOAD PUSH2 0xAFA SWAP3 SWAP2 SWAP1 PUSH2 0x20C6 JUMP JUMPDEST PUSH1 0x40 MLOAD DUP1 SWAP2 SUB SWAP1 LOG3 POP POP POP POP POP PUSH0 PUSH1 0x2 PUSH0 PUSH2 0x100 EXP DUP2 SLOAD DUP2 PUSH1 0xFF MUL NOT AND SWAP1 DUP4 ISZERO ISZERO MUL OR SWAP1 SSTORE POP POP POP POP JUMP JUMPDEST PUSH1 0x2 PUSH0 SWAP1 SLOAD SWAP1 PUSH2 0x100 EXP SWAP1 DIV PUSH1 0xFF AND ISZERO PUSH2 0xB6B JUMPI PUSH1 0x40 MLOAD PUSH32 0xED3BA6A600000000000000000000000000000000000000000000000000000000 DUP2 MSTORE PUSH1 0x4 ADD PUSH1 0x40 MLOAD DUP1 SWAP2 SUB SWAP1 REVERT JUMPDEST PUSH1 0x1 PUSH1 0x2 PUSH0 PUSH2 0x100 EXP DUP2 SLOAD DUP2 PUSH1 0xFF MUL NOT AND SWAP1 DUP4 ISZERO ISZERO MUL OR SWAP1 SSTORE POP PUSH0 CALLVALUE SUB PUSH2 0xBBE JUMPI PUSH1 0x40 MLOAD PUSH32 0x1F2A200500000000000000000000000000000000000000000000000000000000 DUP2 MSTORE PUSH1 0x4 ADD PUSH1 0x40 MLOAD DUP1 SWAP2 SUB SWAP1 REVERT JUMPDEST PUSH32 0x0 PUSH20 0xFFFFFFFFFFFFFFFFFFFFFFFFFFFFFFFFFFFFFFFF AND PUSH4 0xD0E30DB0 CALLVALUE PUSH1 0x40 MLOAD DUP3 PUSH4 0xFFFFFFFF AND PUSH1 0xE0 SHL DUP2 MSTORE PUSH1 0x4 ADD PUSH0 PUSH1 0x40 MLOAD DUP1 DUP4 SUB DUP2 DUP6 DUP9 DUP1 EXTCODESIZE ISZERO DUP1 ISZERO PUSH2 0xC24 JUMPI PUSH0 PUSH0 REVERT JUMPDEST POP GAS CALL ISZERO DUP1 ISZERO PUSH2 0xC36 JUMPI RETURNDATASIZE PUSH0 PUSH0 RETURNDATACOPY RETURNDATASIZE PUSH0 REVERT JUMPDEST POP POP POP POP POP PUSH2 0xC86 PUSH32 0x0 PUSH32 0x0 CALLVALUE PUSH2 0x1850 JUMP JUMPDEST PUSH0 PUSH1 0x2 PUSH8 0xFFFFFFFFFFFFFFFF DUP2 GT ISZERO PUSH2 0xCA2 JUMPI PUSH2 0xCA1 PUSH2 0x1CF0 JUMP JUMPDEST JUMPDEST PUSH1 0x40 MLOAD SWAP1 DUP1 DUP3 MSTORE DUP1 PUSH1 0x20 MUL PUSH1 0x20 ADD DUP3 ADD PUSH1 0x40 MSTORE DUP1 ISZERO PUSH2 0xCD0 JUMPI DUP2 PUSH1 0x20 ADD PUSH1 0x20 DUP3 MUL DUP1 CALLDATASIZE DUP4 CALLDATACOPY DUP1 DUP3 ADD SWAP2 POP POP SWAP1 POP JUMPDEST POP SWAP1 POP PUSH32 0x0 DUP2 PUSH0 DUP2 MLOAD DUP2 LT PUSH2 0xD07 JUMPI PUSH2 0xD06 PUSH2 0x1D1D JUMP JUMPDEST JUMPDEST PUSH1 0x20 MUL PUSH1 0x20 ADD ADD SWAP1 PUSH20 0xFFFFFFFFFFFFFFFFFFFFFFFFFFFFFFFFFFFFFFFF AND SWAP1 DUP2 PUSH20 0xFFFFFFFFFFFFFFFFFFFFFFFFFFFFFFFFFFFFFFFF AND DUP2 MSTORE POP POP PUSH32 0x0 DUP2 PUSH1 0x1 DUP2 MLOAD DUP2 LT PUSH2 0xD76 JUMPI PUSH2 0xD75 PUSH2 0x1D1D JUMP JUMPDEST JUMPDEST PUSH1 0x20 MUL PUSH1 0x20 ADD ADD SWAP1 PUSH20 0xFFFFFFFFFFFFFFFFFFFFFFFFFFFFFFFFFFFFFFFF AND SWAP1 DUP2 PUSH20 0xFFFFFFFFFFFFFFFFFFFFFFFFFFFFFFFFFFFFFFFF AND DUP2 MSTORE POP POP PUSH0 PUSH2 0x12C TIMESTAMP PUSH2 0xDBF SWAP2 SWAP1 PUSH2 0x1D77 JUMP JUMPDEST SWAP1 POP PUSH0 PUSH32 0x0 PUSH20 0xFFFFFFFFFFFFFFFFFFFFFFFFFFFFFFFFFFFFFFFF AND PUSH4 0x38ED1739 CALLVALUE DUP7 DUP7 ADDRESS DUP8 PUSH1 0x40 MLOAD DUP7 PUSH4 0xFFFFFFFF AND PUSH1 0xE0 SHL DUP2 MSTORE PUSH1 0x4 ADD PUSH2 0xE23 SWAP6 SWAP5 SWAP4 SWAP3 SWAP2 SWAP1 PUSH2 0x1E61 JUMP JUMPDEST PUSH0 PUSH1 0x40 MLOAD DUP1 DUP4 SUB DUP2 PUSH0 DUP8 GAS CALL ISZERO DUP1 ISZERO PUSH2 0xE3E JUMPI RETURNDATASIZE PUSH0 PUSH0 RETURNDATACOPY RETURNDATASIZE PUSH0 REVERT JUMPDEST POP POP POP POP PUSH1 0x40 MLOAD RETURNDATASIZE PUSH0 DUP3 RETURNDATACOPY RETURNDATASIZE PUSH1 0x1F NOT PUSH1 0x1F DUP3 ADD AND DUP3 ADD DUP1 PUSH1 0x40 MSTORE POP DUP2 ADD SWAP1 PUSH2 0xE66 SWAP2 SWAP1 PUSH2 0x1FF0 JUMP JUMPDEST SWAP1 POP PUSH1 0x2 DUP2 MLOAD LT ISZERO PUSH2 0xEA4 JUMPI PUSH1 0x40 MLOAD PUSH32 0x81CEFF3000000000000000000000000000000000000000000000000000000000 DUP2 MSTORE PUSH1 0x4 ADD PUSH1 0x40 MLOAD DUP1 SWAP2 SUB SWAP1 REVERT JUMPDEST PUSH0 DUP2 PUSH1 0x1 DUP4 MLOAD PUSH2 0xEB4 SWAP2 SWAP1 PUSH2 0x2037 JUMP JUMPDEST DUP2 MLOAD DUP2 LT PUSH2 0xEC5 JUMPI PUSH2 0xEC4 PUSH2 0x1D1D JUMP JUMPDEST JUMPDEST PUSH1 0x20 MUL PUSH1 0x20 ADD ADD MLOAD SWAP1 POP PUSH32 0x0 DUP2 PUSH1 0x1 SLOAD PUSH2 0xEFE SWAP2 SWAP1 PUSH2 0x1D77 JUMP JUMPDEST GT ISZERO PUSH2 0x1003 JUMPI PUSH32 0x0 PUSH20 0xFFFFFFFFFFFFFFFFFFFFFFFFFFFFFFFFFFFFFFFF AND PUSH4 0xA9059CBB CALLER DUP4 PUSH1 0x40 MLOAD DUP4 PUSH4 0xFFFFFFFF AND PUSH1 0xE0 SHL DUP2 MSTORE PUSH1 0x4 ADD PUSH2 0xF5F SWAP3 SWAP2 SWAP1 PUSH2 0x206A JUMP JUMPDEST PUSH1 0x20 PUSH1 0x40 MLOAD DUP1 DUP4 SUB DUP2 PUSH0 DUP8 GAS CALL ISZERO DUP1 ISZERO PUSH2 0xF7B JUMPI RETURNDATASIZE PUSH0 PUSH0 RETURNDATACOPY RETURNDATASIZE PUSH0 REVERT JUMPDEST POP POP POP POP PUSH1 0x40 MLOAD RETURNDATASIZE PUSH1 0x1F NOT PUSH1 0x1F DUP3 ADD AND DUP3 ADD DUP1 PUSH1 0x40 MSTORE POP DUP2 ADD SWAP1 PUSH2 0xF9F SWAP2 SWAP1 PUSH2 0x1CC5 JUMP JUMPDEST POP DUP1 PUSH1 0x1 SLOAD PUSH32 0x0 PUSH1 0x40 MLOAD PUSH32 0x621E5A6900000000000000000000000000000000000000000000000000000000 DUP2 MSTORE PUSH1 0x4 ADD PUSH2 0xFFA SWAP4 SWAP3 SWAP2 SWAP1 PUSH2 0x2091 JUMP JUMPDEST PUSH1 0x40 MLOAD DUP1 SWAP2 SUB SWAP1 REVERT JUMPDEST DUP1 PUSH1 0x1 PUSH0 DUP3 DUP3 SLOAD PUSH2 0x1014 SWAP2 SWAP1 PUSH2 0x1D77 JUMP JUMPDEST SWAP3 POP POP DUP2 SWAP1 SSTORE POP DUP1 PUSH1 0x3 PUSH0 CALLER PUSH20 0xFFFFFFFFFFFFFFFFFFFFFFFFFFFFFFFFFFFFFFFF AND PUSH20 0xFFFFFFFFFFFFFFFFFFFFFFFFFFFFFFFFFFFFFFFF AND DUP2 MSTORE PUSH1 0x20 ADD SWAP1 DUP2 MSTORE PUSH1 0x20 ADD PUSH0 KECCAK256 PUSH0 DUP3 DUP3 SLOAD PUSH2 0x1067 SWAP2 SWAP1 PUSH2 0x1D77 JUMP JUMPDEST SWAP3 POP POP DUP2 SWAP1 SSTORE POP PUSH32 0x0 PUSH20 0xFFFFFFFFFFFFFFFFFFFFFFFFFFFFFFFFFFFFFFFF AND CALLER PUSH20 0xFFFFFFFFFFFFFFFFFFFFFFFFFFFFFFFFFFFFFFFF AND PUSH32 0xAB466672CD9ADAE1C2072831F94C1068597B355987D2A64D4E5A7DCD74E5CDA5 CALLVALUE DUP5 PUSH1 0x40 MLOAD PUSH2 0x10ED SWAP3 SWAP2 SWAP1 PUSH2 0x20C6 JUMP JUMPDEST PUSH1 0x40 MLOAD DUP1 SWAP2 SUB SWAP1 LOG3 POP POP POP POP PUSH0 PUSH1 0x2 PUSH0 PUSH2 0x100 EXP DUP2 SLOAD DUP2 PUSH1 0xFF MUL NOT AND SWAP1 DUP4 ISZERO ISZERO MUL OR SWAP1 SSTORE POP POP JUMP JUMPDEST PUSH32 0x0 DUP2 JUMP JUMPDEST PUSH0 PUSH0 SWAP1 SLOAD SWAP1 PUSH2 0x100 EXP SWAP1 DIV PUSH20 0xFFFFFFFFFFFFFFFFFFFFFFFFFFFFFFFFFFFFFFFF AND DUP2 JUMP JUMPDEST PUSH32 0x0 DUP2 JUMP JUMPDEST PUSH32 0x0 DUP2 JUMP JUMPDEST PUSH0 PUSH1 0x3 PUSH0 DUP4 PUSH20 0xFFFFFFFFFFFFFFFFFFFFFFFFFFFFFFFFFFFFFFFF AND PUSH20 0xFFFFFFFFFFFFFFFFFFFFFFFFFFFFFFFFFFFFFFFF AND DUP2 MSTORE PUSH1 0x20 ADD SWAP1 DUP2 MSTORE PUSH1 0x20 ADD PUSH0 KECCAK256 SLOAD SWAP1 POP SWAP2 SWAP1 POP JUMP JUMPDEST PUSH1 0x2 PUSH0 SWAP1 SLOAD SWAP1 PUSH2 0x100 EXP SWAP1 DIV PUSH1 0xFF AND ISZERO PUSH2 0x1231 JUMPI PUSH1 0x40 MLOAD PUSH32 0xED3BA6A600000000000000000000000000000000000000000000000000000000 DUP2 MSTORE PUSH1 0x4 ADD PUSH1 0x40 MLOAD DUP1 SWAP2 SUB SWAP1 REVERT JUMPDEST PUSH1 0x1 PUSH1 0x2 PUSH0 PUSH2 0x100 EXP DUP2 SLOAD DUP2 PUSH1 0xFF MUL NOT AND SWAP1 DUP4 ISZERO ISZERO MUL OR SWAP1 SSTORE POP PUSH0 DUP2 SUB PUSH2 0x1284 JUMPI PUSH1 0x40 MLOAD PUSH32 0x1F2A200500000000000000000000000000000000000000000000000000000000 DUP2 MSTORE PUSH1 0x4 ADD PUSH1 0x40 MLOAD DUP1 SWAP2 SUB SWAP1 REVERT JUMPDEST PUSH0 PUSH1 0x3 PUSH0 CALLER PUSH20 0xFFFFFFFFFFFFFFFFFFFFFFFFFFFFFFFFFFFFFFFF AND PUSH20 0xFFFFFFFFFFFFFFFFFFFFFFFFFFFFFFFFFFFFFFFF AND DUP2 MSTORE PUSH1 0x20 ADD SWAP1 DUP2 MSTORE PUSH1 0x20 ADD PUSH0 KECCAK256 SLOAD SWAP1 POP DUP1 DUP3 GT ISZERO PUSH2 0x130C JUMPI DUP1 DUP3 PUSH1 0x40 MLOAD PUSH32 0xCF47918100000000000000000000000000000000000000000000000000000000 DUP2 MSTORE PUSH1 0x4 ADD PUSH2 0x1303 SWAP3 SWAP2 SWAP1 PUSH2 0x20C6 JUMP JUMPDEST PUSH1 0x40 MLOAD DUP1 SWAP2 SUB SWAP1 REVERT JUMPDEST DUP2 DUP2 PUSH2 0x1318 SWAP2 SWAP1 PUSH2 0x2037 JUMP JUMPDEST PUSH1 0x3 PUSH0 CALLER PUSH20 0xFFFFFFFFFFFFFFFFFFFFFFFFFFFFFFFFFFFFFFFF AND PUSH20 0xFFFFFFFFFFFFFFFFFFFFFFFFFFFFFFFFFFFFFFFF AND DUP2 MSTORE PUSH1 0x20 ADD SWAP1 DUP2 MSTORE PUSH1 0x20 ADD PUSH0 KECCAK256 DUP2 SWAP1 SSTORE POP DUP2 PUSH1 0x1 PUSH0 DUP3 DUP3 SLOAD PUSH2 0x136A SWAP2 SWAP1 PUSH2 0x2037 JUMP JUMPDEST SWAP3 POP POP DUP2 SWAP1 SSTORE POP PUSH0 PUSH32 0x0 PUSH20 0xFFFFFFFFFFFFFFFFFFFFFFFFFFFFFFFFFFFFFFFF AND PUSH4 0xA9059CBB CALLER DUP6 PUSH1 0x40 MLOAD DUP4 PUSH4 0xFFFFFFFF AND PUSH1 0xE0 SHL DUP2 MSTORE PUSH1 0x4 ADD PUSH2 0x13CD SWAP3 SWAP2 SWAP1 PUSH2 0x206A JUMP JUMPDEST PUSH1 0x20 PUSH1 0x40 MLOAD DUP1 DUP4 SUB DUP2 PUSH0 DUP8 GAS CALL ISZERO DUP1 ISZERO PUSH2 0x13E9 JUMPI RETURNDATASIZE PUSH0 PUSH0 RETURNDATACOPY RETURNDATASIZE PUSH0 REVERT JUMPDEST POP POP POP POP PUSH1 0x40 MLOAD RETURNDATASIZE PUSH1 0x1F NOT PUSH1 0x1F DUP3 ADD AND DUP3 ADD DUP1 PUSH1 0x40 MSTORE POP DUP2 ADD SWAP1 PUSH2 0x140D SWAP2 SWAP1 PUSH2 0x1CC5 JUMP JUMPDEST SWAP1 POP DUP1 PUSH2 0x1446 JUMPI PUSH1 0x40 MLOAD PUSH32 0x81CEFF3000000000000000000000000000000000000000000000000000000000 DUP2 MSTORE PUSH1 0x4 ADD PUSH1 0x40 MLOAD DUP1 SWAP2 SUB SWAP1 REVERT JUMPDEST CALLER PUSH20 0xFFFFFFFFFFFFFFFFFFFFFFFFFFFFFFFFFFFFFFFF AND PUSH32 0x23EE1B877CB0081138B4973C5B2ECA0133C573AD526550935D83AAADE37666CA DUP5 PUSH1 0x40 MLOAD PUSH2 0x148C SWAP2 SWAP1 PUSH2 0x1A99 JUMP JUMPDEST PUSH1 0x40 MLOAD DUP1 SWAP2 SUB SWAP1 LOG2 POP POP PUSH0 PUSH1 0x2 PUSH0 PUSH2 0x100 EXP DUP2 SLOAD DUP2 PUSH1 0xFF MUL NOT AND SWAP1 DUP4 ISZERO ISZERO MUL OR SWAP1 SSTORE POP POP JUMP JUMPDEST PUSH1 0x2 PUSH0 SWAP1 SLOAD SWAP1 PUSH2 0x100 EXP SWAP1 DIV PUSH1 0xFF AND ISZERO PUSH2 0x14F8 JUMPI PUSH1 0x40 MLOAD PUSH32 0xED3BA6A600000000000000000000000000000000000000000000000000000000 DUP2 MSTORE PUSH1 0x4 ADD PUSH1 0x40 MLOAD DUP1 SWAP2 SUB SWAP1 REVERT JUMPDEST PUSH1 0x1 PUSH1 0x2 PUSH0 PUSH2 0x100 EXP DUP2 SLOAD DUP2 PUSH1 0xFF MUL NOT AND SWAP1 DUP4 ISZERO ISZERO MUL OR SWAP1 SSTORE POP PUSH0 DUP2 SUB PUSH2 0x154B JUMPI PUSH1 0x40 MLOAD PUSH32 0x1F2A200500000000000000000000000000000000000000000000000000000000 DUP2 MSTORE PUSH1 0x4 ADD PUSH1 0x40 MLOAD DUP1 SWAP2 SUB SWAP1 REVERT JUMPDEST PUSH0 PUSH32 0x0 PUSH20 0xFFFFFFFFFFFFFFFFFFFFFFFFFFFFFFFFFFFFFFFF AND PUSH4 0x23B872DD CALLER ADDRESS DUP6 PUSH1 0x40 MLOAD DUP5 PUSH4 0xFFFFFFFF AND PUSH1 0xE0 SHL DUP2 MSTORE PUSH1 0x4 ADD PUSH2 0x15A9 SWAP4 SWAP3 SWAP2 SWAP1 PUSH2 0x1C5B JUMP JUMPDEST PUSH1 0x20 PUSH1 0x40 MLOAD DUP1 DUP4 SUB DUP2 PUSH0 DUP8 GAS CALL ISZERO DUP1 ISZERO PUSH2 0x15C5 JUMPI RETURNDATASIZE PUSH0 PUSH0 RETURNDATACOPY RETURNDATASIZE PUSH0 REVERT JUMPDEST POP POP POP POP PUSH1 0x40 MLOAD RETURNDATASIZE PUSH1 0x1F NOT PUSH1 0x1F DUP3 ADD AND DUP3 ADD DUP1 PUSH1 0x40 MSTORE POP DUP2 ADD SWAP1 PUSH2 0x15E9 SWAP2 SWAP1 PUSH2 0x1CC5 JUMP JUMPDEST SWAP1 POP DUP1 PUSH2 0x1622 JUMPI PUSH1 0x40 MLOAD PUSH32 0x81CEFF3000000000000000000000000000000000000000000000000000000000 DUP2 MSTORE PUSH1 0x4 ADD PUSH1 0x40 MLOAD DUP1 SWAP2 SUB SWAP1 REVERT JUMPDEST PUSH32 0x0 DUP3 PUSH1 0x1 SLOAD PUSH2 0x1651 SWAP2 SWAP1 PUSH2 0x1D77 JUMP JUMPDEST GT ISZERO PUSH2 0x1756 JUMPI PUSH32 0x0 PUSH20 0xFFFFFFFFFFFFFFFFFFFFFFFFFFFFFFFFFFFFFFFF AND PUSH4 0xA9059CBB CALLER DUP5 PUSH1 0x40 MLOAD DUP4 PUSH4 0xFFFFFFFF AND PUSH1 0xE0 SHL DUP2 MSTORE PUSH1 0x4 ADD PUSH2 0x16B2 SWAP3 SWAP2 SWAP1 PUSH2 0x206A JUMP JUMPDEST PUSH1 0x20 PUSH1 0x40 MLOAD DUP1 DUP4 SUB DUP2 PUSH0 DUP8 GAS CALL ISZERO DUP1 ISZERO PUSH2 0x16CE JUMPI RETURNDATASIZE PUSH0 PUSH0 RETURNDATACOPY RETURNDATASIZE PUSH0 REVERT JUMPDEST POP POP POP POP PUSH1 0x40 MLOAD RETURNDATASIZE PUSH1 0x1F NOT PUSH1 0x1F DUP3 ADD AND DUP3 ADD DUP1 PUSH1 0x40 MSTORE POP DUP2 ADD SWAP1 PUSH2 0x16F2 SWAP2 SWAP1 PUSH2 0x1CC5 JUMP JUMPDEST POP DUP2 PUSH1 0x1 SLOAD PUSH32 0x0 PUSH1 0x40 MLOAD PUSH32 0x621E5A6900000000000000000000000000000000000000000000000000000000 DUP2 MSTORE PUSH1 0x4 ADD PUSH2 0x174D SWAP4 SWAP3 SWAP2 SWAP1 PUSH2 0x2091 JUMP JUMPDEST PUSH1 0x40 MLOAD DUP1 SWAP2 SUB SWAP1 REVERT JUMPDEST DUP2 PUSH1 0x1 PUSH0 DUP3 DUP3 SLOAD PUSH2 0x1767 SWAP2 SWAP1 PUSH2 0x1D77 JUMP JUMPDEST SWAP3 POP POP DUP2 SWAP1 SSTORE POP DUP2 PUSH1 0x3 PUSH0 CALLER PUSH20 0xFFFFFFFFFFFFFFFFFFFFFFFFFFFFFFFFFFFFFFFF AND PUSH20 0xFFFFFFFFFFFFFFFFFFFFFFFFFFFFFFFFFFFFFFFF AND DUP2 MSTORE PUSH1 0x20 ADD SWAP1 DUP2 MSTORE PUSH1 0x20 ADD PUSH0 KECCAK256 PUSH0 DUP3 DUP3 SLOAD PUSH2 0x17BA SWAP2 SWAP1 PUSH2 0x1D77 JUMP JUMPDEST SWAP3 POP POP DUP2 SWAP1 SSTORE POP CALLER PUSH20 0xFFFFFFFFFFFFFFFFFFFFFFFFFFFFFFFFFFFFFFFF AND PUSH32 0xE7440F6772025DEC9BE06BA934E6EE5289B73533EE2136BA668F6CB6EA3F56A8 DUP4 PUSH1 0x40 MLOAD PUSH2 0x1807 SWAP2 SWAP1 PUSH2 0x1A99 JUMP JUMPDEST PUSH1 0x40 MLOAD DUP1 SWAP2 SUB SWAP1 LOG2 POP PUSH0 PUSH1 0x2 PUSH0 PUSH2 0x100 EXP DUP2 SLOAD DUP2 PUSH1 0xFF MUL NOT AND SWAP1 DUP4 ISZERO ISZERO MUL OR SWAP1 SSTORE POP POP JUMP JUMPDEST PUSH32 0x0 DUP2 JUMP JUMPDEST DUP3 PUSH20 0xFFFFFFFFFFFFFFFFFFFFFFFFFFFFFFFFFFFFFFFF AND PUSH4 0x95EA7B3 DUP4 PUSH0 PUSH1 0x40 MLOAD DUP4 PUSH4 0xFFFFFFFF AND PUSH1 0xE0 SHL DUP2 MSTORE PUSH1 0x4 ADD PUSH2 0x188B SWAP3 SWAP2 SWAP1 PUSH2 0x2126 JUMP JUMPDEST PUSH1 0x20 PUSH1 0x40 MLOAD DUP1 DUP4 SUB DUP2 PUSH0 DUP8 GAS CALL ISZERO DUP1 ISZERO PUSH2 0x18A7 JUMPI RETURNDATASIZE PUSH0 PUSH0 RETURNDATACOPY RETURNDATASIZE PUSH0 REVERT JUMPDEST POP POP POP POP PUSH1 0x40 MLOAD RETURNDATASIZE PUSH1 0x1F NOT PUSH1 0x1F DUP3 ADD AND DUP3 ADD DUP1 PUSH1 0x40 MSTORE POP DUP2 ADD SWAP1 PUSH2 0x18CB SWAP2 SWAP1 PUSH2 0x1CC5 JUMP JUMPDEST POP DUP3 PUSH20 0xFFFFFFFFFFFFFFFFFFFFFFFFFFFFFFFFFFFFFFFF AND PUSH4 0x95EA7B3 DUP4 DUP4 PUSH1 0x40 MLOAD DUP4 PUSH4 0xFFFFFFFF AND PUSH1 0xE0 SHL DUP2 MSTORE PUSH1 0x4 ADD PUSH2 0x1907 SWAP3 SWAP2 SWAP1 PUSH2 0x206A JUMP JUMPDEST PUSH1 0x20 PUSH1 0x40 MLOAD DUP1 DUP4 SUB DUP2 PUSH0 DUP8 GAS CALL ISZERO DUP1 ISZERO PUSH2 0x1923 JUMPI RETURNDATASIZE PUSH0 PUSH0 RETURNDATACOPY RETURNDATASIZE PUSH0 REVERT JUMPDEST POP POP POP POP PUSH1 0x40 MLOAD RETURNDATASIZE PUSH1 0x1F NOT PUSH1 0x1F DUP3 ADD AND DUP3 ADD DUP1 PUSH1 0x40 MSTORE POP DUP2 ADD SWAP1 PUSH2 0x1947 SWAP2 SWAP1 PUSH2 0x1CC5 JUMP JUMPDEST POP POP POP POP JUMP JUMPDEST PUSH0 DUP3 DUP3 MSTORE PUSH1 0x20 DUP3 ADD SWAP1 POP SWAP3 SWAP2 POP POP JUMP JUMPDEST PUSH32 0x557365206465706F73697445544853776170546F555344432066756E6374696F PUSH0 DUP3 ADD MSTORE PUSH32 0x6E206469726563746C7900000000000000000000000000000000000000000000 PUSH1 0x20 DUP3 ADD MSTORE POP JUMP JUMPDEST PUSH0 PUSH2 0x19B7 PUSH1 0x2A DUP4 PUSH2 0x194D JUMP JUMPDEST SWAP2 POP PUSH2 0x19C2 DUP3 PUSH2 0x195D JUMP JUMPDEST PUSH1 0x40 DUP3 ADD SWAP1 POP SWAP2 SWAP1 POP JUMP JUMPDEST PUSH0 PUSH1 0x20 DUP3 ADD SWAP1 POP DUP2 DUP2 SUB PUSH0 DUP4 ADD MSTORE PUSH2 0x19E4 DUP2 PUSH2 0x19AB JUMP JUMPDEST SWAP1 POP SWAP2 SWAP1 POP JUMP JUMPDEST PUSH0 PUSH1 0x40 MLOAD SWAP1 POP SWAP1 JUMP JUMPDEST PUSH0 PUSH0 REVERT JUMPDEST PUSH0 PUSH0 REVERT JUMPDEST PUSH0 PUSH20 0xFFFFFFFFFFFFFFFFFFFFFFFFFFFFFFFFFFFFFFFF DUP3 AND SWAP1 POP SWAP2 SWAP1 POP JUMP JUMPDEST PUSH0 PUSH2 0x1A25 DUP3 PUSH2 0x19FC JUMP JUMPDEST SWAP1 POP SWAP2 SWAP1 POP JUMP JUMPDEST PUSH2 0x1A35 DUP2 PUSH2 0x1A1B JUMP JUMPDEST DUP2 EQ PUSH2 0x1A3F JUMPI PUSH0 PUSH0 REVERT JUMPDEST POP JUMP JUMPDEST PUSH0 DUP2 CALLDATALOAD SWAP1 POP PUSH2 0x1A50 DUP2 PUSH2 0x1A2C JUMP JUMPDEST SWAP3 SWAP2 POP POP JUMP JUMPDEST PUSH0 PUSH1 0x20 DUP3 DUP5 SUB SLT ISZERO PUSH2 0x1A6B JUMPI PUSH2 0x1A6A PUSH2 0x19F4 JUMP JUMPDEST JUMPDEST PUSH0 PUSH2 0x1A78 DUP5 DUP3 DUP6 ADD PUSH2 0x1A42 JUMP JUMPDEST SWAP2 POP POP SWAP3 SWAP2 POP POP JUMP JUMPDEST PUSH0 DUP2 SWAP1 POP SWAP2 SWAP1 POP JUMP JUMPDEST PUSH2 0x1A93 DUP2 PUSH2 0x1A81 JUMP JUMPDEST DUP3 MSTORE POP POP JUMP JUMPDEST PUSH0 PUSH1 0x20 DUP3 ADD SWAP1 POP PUSH2 0x1AAC PUSH0 DUP4 ADD DUP5 PUSH2 0x1A8A JUMP JUMPDEST SWAP3 SWAP2 POP POP JUMP JUMPDEST PUSH2 0x1ABB DUP2 PUSH2 0x1A81 JUMP JUMPDEST DUP2 EQ PUSH2 0x1AC5 JUMPI PUSH0 PUSH0 REVERT JUMPDEST POP JUMP JUMPDEST PUSH0 DUP2 CALLDATALOAD SWAP1 POP PUSH2 0x1AD6 DUP2 PUSH2 0x1AB2 JUMP JUMPDEST SWAP3 SWAP2 POP POP JUMP JUMPDEST PUSH0 PUSH0 PUSH0 PUSH1 0x60 DUP5 DUP7 SUB SLT ISZERO PUSH2 0x1AF3 JUMPI PUSH2 0x1AF2 PUSH2 0x19F4 JUMP JUMPDEST JUMPDEST PUSH0 PUSH2 0x1B00 DUP7 DUP3 DUP8 ADD PUSH2 0x1A42 JUMP JUMPDEST SWAP4 POP POP PUSH1 0x20 PUSH2 0x1B11 DUP7 DUP3 DUP8 ADD PUSH2 0x1AC8 JUMP JUMPDEST SWAP3 POP POP PUSH1 0x40 PUSH2 0x1B22 DUP7 DUP3 DUP8 ADD PUSH2 0x1AC8 JUMP JUMPDEST SWAP2 POP POP SWAP3 POP SWAP3 POP SWAP3 JUMP JUMPDEST PUSH0 PUSH1 0x20 DUP3 DUP5 SUB SLT ISZERO PUSH2 0x1B41 JUMPI PUSH2 0x1B40 PUSH2 0x19F4 JUMP JUMPDEST JUMPDEST PUSH0 PUSH2 0x1B4E DUP5 DUP3 DUP6 ADD PUSH2 0x1AC8 JUMP JUMPDEST SWAP2 POP POP SWAP3 SWAP2 POP POP JUMP JUMPDEST PUSH2 0x1B60 DUP2 PUSH2 0x1A1B JUMP JUMPDEST DUP3 MSTORE POP POP JUMP JUMPDEST PUSH0 PUSH1 0x20 DUP3 ADD SWAP1 POP PUSH2 0x1B79 PUSH0 DUP4 ADD DUP5 PUSH2 0x1B57 JUMP JUMPDEST SWAP3 SWAP2 POP POP JUMP JUMPDEST PUSH0 DUP2 SWAP1 POP SWAP2 SWAP1 POP JUMP JUMPDEST PUSH0 PUSH2 0x1BA2 PUSH2 0x1B9D PUSH2 0x1B98 DUP5 PUSH2 0x19FC JUMP JUMPDEST PUSH2 0x1B7F JUMP JUMPDEST PUSH2 0x19FC JUMP JUMPDEST SWAP1 POP SWAP2 SWAP1 POP JUMP JUMPDEST PUSH0 PUSH2 0x1BB3 DUP3 PUSH2 0x1B88 JUMP JUMPDEST SWAP1 POP SWAP2 SWAP1 POP JUMP JUMPDEST PUSH0 PUSH2 0x1BC4 DUP3 PUSH2 0x1BA9 JUMP JUMPDEST SWAP1 POP SWAP2 SWAP1 POP JUMP JUMPDEST PUSH2 0x1BD4 DUP2 PUSH2 0x1BBA JUMP JUMPDEST DUP3 MSTORE POP POP JUMP JUMPDEST PUSH0 PUSH1 0x20 DUP3 ADD SWAP1 POP PUSH2 0x1BED PUSH0 DUP4 ADD DUP5 PUSH2 0x1BCB JUMP JUMPDEST SWAP3 SWAP2 POP POP JUMP JUMPDEST PUSH32 0x7A65726F20616464720000000000000000000000000000000000000000000000 PUSH0 DUP3 ADD MSTORE POP JUMP JUMPDEST PUSH0 PUSH2 0x1C27 PUSH1 0x9 DUP4 PUSH2 0x194D JUMP JUMPDEST SWAP2 POP PUSH2 0x1C32 DUP3 PUSH2 0x1BF3 JUMP JUMPDEST PUSH1 0x20 DUP3 ADD SWAP1 POP SWAP2 SWAP1 POP JUMP JUMPDEST PUSH0 PUSH1 0x20 DUP3 ADD SWAP1 POP DUP2 DUP2 SUB PUSH0 DUP4 ADD MSTORE PUSH2 0x1C54 DUP2 PUSH2 0x1C1B JUMP JUMPDEST SWAP1 POP SWAP2 SWAP1 POP JUMP JUMPDEST PUSH0 PUSH1 0x60 DUP3 ADD SWAP1 POP PUSH2 0x1C6E PUSH0 DUP4 ADD DUP7 PUSH2 0x1B57 JUMP JUMPDEST PUSH2 0x1C7B PUSH1 0x20 DUP4 ADD DUP6 PUSH2 0x1B57 JUMP JUMPDEST PUSH2 0x1C88 PUSH1 0x40 DUP4 ADD DUP5 PUSH2 0x1A8A JUMP JUMPDEST SWAP5 SWAP4 POP POP POP POP JUMP JUMPDEST PUSH0 DUP2 ISZERO ISZERO SWAP1 POP SWAP2 SWAP1 POP JUMP JUMPDEST PUSH2 0x1CA4 DUP2 PUSH2 0x1C90 JUMP JUMPDEST DUP2 EQ PUSH2 0x1CAE JUMPI PUSH0 PUSH0 REVERT JUMPDEST POP JUMP JUMPDEST PUSH0 DUP2 MLOAD SWAP1 POP PUSH2 0x1CBF DUP2 PUSH2 0x1C9B JUMP JUMPDEST SWAP3 SWAP2 POP POP JUMP JUMPDEST PUSH0 PUSH1 0x20 DUP3 DUP5 SUB SLT ISZERO PUSH2 0x1CDA JUMPI PUSH2 0x1CD9 PUSH2 0x19F4 JUMP JUMPDEST JUMPDEST PUSH0 PUSH2 0x1CE7 DUP5 DUP3 DUP6 ADD PUSH2 0x1CB1 JUMP JUMPDEST SWAP2 POP POP SWAP3 SWAP2 POP POP JUMP JUMPDEST PUSH32 0x4E487B7100000000000000000000000000000000000000000000000000000000 PUSH0 MSTORE PUSH1 0x41 PUSH1 0x4 MSTORE PUSH1 0x24 PUSH0 REVERT JUMPDEST PUSH32 0x4E487B7100000000000000000000000000000000000000000000000000000000 PUSH0 MSTORE PUSH1 0x32 PUSH1 0x4 MSTORE PUSH1 0x24 PUSH0 REVERT JUMPDEST PUSH32 0x4E487B7100000000000000000000000000000000000000000000000000000000 PUSH0 MSTORE PUSH1 0x11 PUSH1 0x4 MSTORE PUSH1 0x24 PUSH0 REVERT JUMPDEST PUSH0 PUSH2 0x1D81 DUP3 PUSH2 0x1A81 JUMP JUMPDEST SWAP2 POP PUSH2 0x1D8C DUP4 PUSH2 0x1A81 JUMP JUMPDEST SWAP3 POP DUP3 DUP3 ADD SWAP1 POP DUP1 DUP3 GT ISZERO PUSH2 0x1DA4 JUMPI PUSH2 0x1DA3 PUSH2 0x1D4A JUMP JUMPDEST JUMPDEST SWAP3 SWAP2 POP POP JUMP JUMPDEST PUSH0 DUP2 MLOAD SWAP1 POP SWAP2 SWAP1 POP JUMP JUMPDEST PUSH0 DUP3 DUP3 MSTORE PUSH1 0x20 DUP3 ADD SWAP1 POP SWAP3 SWAP2 POP POP JUMP JUMPDEST PUSH0 DUP2 SWAP1 POP PUSH1 0x20 DUP3 ADD SWAP1 POP SWAP2 SWAP1 POP JUMP JUMPDEST PUSH2 0x1DDC DUP2 PUSH2 0x1A1B JUMP JUMPDEST DUP3 MSTORE POP POP JUMP JUMPDEST PUSH0 PUSH2 0x1DED DUP4 DUP4 PUSH2 0x1DD3 JUMP JUMPDEST PUSH1 0x20 DUP4 ADD SWAP1 POP SWAP3 SWAP2 POP POP JUMP JUMPDEST PUSH0 PUSH1 0x20 DUP3 ADD SWAP1 POP SWAP2 SWAP1 POP JUMP JUMPDEST PUSH0 PUSH2 0x1E0F DUP3 PUSH2 0x1DAA JUMP JUMPDEST PUSH2 0x1E19 DUP2 DUP6 PUSH2 0x1DB4 JUMP JUMPDEST SWAP4 POP PUSH2 0x1E24 DUP4 PUSH2 0x1DC4 JUMP JUMPDEST DUP1 PUSH0 JUMPDEST DUP4 DUP2 LT ISZERO PUSH2 0x1E54 JUMPI DUP2 MLOAD PUSH2 0x1E3B DUP9 DUP3 PUSH2 0x1DE2 JUMP JUMPDEST SWAP8 POP PUSH2 0x1E46 DUP4 PUSH2 0x1DF9 JUMP JUMPDEST SWAP3 POP POP PUSH1 0x1 DUP2 ADD SWAP1 POP PUSH2 0x1E27 JUMP JUMPDEST POP DUP6 SWAP4 POP POP POP POP SWAP3 SWAP2 POP POP JUMP JUMPDEST PUSH0 PUSH1 0xA0 DUP3 ADD SWAP1 POP PUSH2 0x1E74 PUSH0 DUP4 ADD DUP9 PUSH2 0x1A8A JUMP JUMPDEST PUSH2 0x1E81 PUSH1 0x20 DUP4 ADD DUP8 PUSH2 0x1A8A JUMP JUMPDEST DUP2 DUP2 SUB PUSH1 0x40 DUP4 ADD MSTORE PUSH2 0x1E93 DUP2 DUP7 PUSH2 0x1E05 JUMP JUMPDEST SWAP1 POP PUSH2 0x1EA2 PUSH1 0x60 DUP4 ADD DUP6 PUSH2 0x1B57 JUMP JUMPDEST PUSH2 0x1EAF PUSH1 0x80 DUP4 ADD DUP5 PUSH2 0x1A8A JUMP JUMPDEST SWAP7 SWAP6 POP POP POP POP POP POP JUMP JUMPDEST PUSH0 PUSH0 REVERT JUMPDEST PUSH0 PUSH1 0x1F NOT PUSH1 0x1F DUP4 ADD AND SWAP1 POP SWAP2 SWAP1 POP JUMP JUMPDEST PUSH2 0x1ED6 DUP3 PUSH2 0x1EBD JUMP JUMPDEST DUP2 ADD DUP2 DUP2 LT PUSH8 0xFFFFFFFFFFFFFFFF DUP3 GT OR ISZERO PUSH2 0x1EF5 JUMPI PUSH2 0x1EF4 PUSH2 0x1CF0 JUMP JUMPDEST JUMPDEST DUP1 PUSH1 0x40 MSTORE POP POP POP JUMP JUMPDEST PUSH0 PUSH2 0x1F07 PUSH2 0x19EB JUMP JUMPDEST SWAP1 POP PUSH2 0x1F13 DUP3 DUP3 PUSH2 0x1ECD JUMP JUMPDEST SWAP2 SWAP1 POP JUMP JUMPDEST PUSH0 PUSH8 0xFFFFFFFFFFFFFFFF DUP3 GT ISZERO PUSH2 0x1F32 JUMPI PUSH2 0x1F31 PUSH2 0x1CF0 JUMP JUMPDEST JUMPDEST PUSH1 0x20 DUP3 MUL SWAP1 POP PUSH1 0x20 DUP2 ADD SWAP1 POP SWAP2 SWAP1 POP JUMP JUMPDEST PUSH0 PUSH0 REVERT JUMPDEST PUSH0 DUP2 MLOAD SWAP1 POP PUSH2 0x1F55 DUP2 PUSH2 0x1AB2 JUMP JUMPDEST SWAP3 SWAP2 POP POP JUMP JUMPDEST PUSH0 PUSH2 0x1F6D PUSH2 0x1F68 DUP5 PUSH2 0x1F18 JUMP JUMPDEST PUSH2 0x1EFE JUMP JUMPDEST SWAP1 POP DUP1 DUP4 DUP3 MSTORE PUSH1 0x20 DUP3 ADD SWAP1 POP PUSH1 0x20 DUP5 MUL DUP4 ADD DUP6 DUP2 GT ISZERO PUSH2 0x1F90 JUMPI PUSH2 0x1F8F PUSH2 0x1F43 JUMP JUMPDEST JUMPDEST DUP4 JUMPDEST DUP2 DUP2 LT ISZERO PUSH2 0x1FB9 JUMPI DUP1 PUSH2 0x1FA5 DUP9 DUP3 PUSH2 0x1F47 JUMP JUMPDEST DUP5 MSTORE PUSH1 0x20 DUP5 ADD SWAP4 POP POP PUSH1 0x20 DUP2 ADD SWAP1 POP PUSH2 0x1F92 JUMP JUMPDEST POP POP POP SWAP4 SWAP3 POP POP POP JUMP JUMPDEST PUSH0 DUP3 PUSH1 0x1F DUP4 ADD SLT PUSH2 0x1FD7 JUMPI PUSH2 0x1FD6 PUSH2 0x1EB9 JUMP JUMPDEST JUMPDEST DUP2 MLOAD PUSH2 0x1FE7 DUP5 DUP3 PUSH1 0x20 DUP7 ADD PUSH2 0x1F5B JUMP JUMPDEST SWAP2 POP POP SWAP3 SWAP2 POP POP JUMP JUMPDEST PUSH0 PUSH1 0x20 DUP3 DUP5 SUB SLT ISZERO PUSH2 0x2005 JUMPI PUSH2 0x2004 PUSH2 0x19F4 JUMP JUMPDEST JUMPDEST PUSH0 DUP3 ADD MLOAD PUSH8 0xFFFFFFFFFFFFFFFF DUP2 GT ISZERO PUSH2 0x2022 JUMPI PUSH2 0x2021 PUSH2 0x19F8 JUMP JUMPDEST JUMPDEST PUSH2 0x202E DUP5 DUP3 DUP6 ADD PUSH2 0x1FC3 JUMP JUMPDEST SWAP2 POP POP SWAP3 SWAP2 POP POP JUMP JUMPDEST PUSH0 PUSH2 0x2041 DUP3 PUSH2 0x1A81 JUMP JUMPDEST SWAP2 POP PUSH2 0x204C DUP4 PUSH2 0x1A81 JUMP JUMPDEST SWAP3 POP DUP3 DUP3 SUB SWAP1 POP DUP2 DUP2 GT ISZERO PUSH2 0x2064 JUMPI PUSH2 0x2063 PUSH2 0x1D4A JUMP JUMPDEST JUMPDEST SWAP3 SWAP2 POP POP JUMP JUMPDEST PUSH0 PUSH1 0x40 DUP3 ADD SWAP1 POP PUSH2 0x207D PUSH0 DUP4 ADD DUP6 PUSH2 0x1B57 JUMP JUMPDEST PUSH2 0x208A PUSH1 0x20 DUP4 ADD DUP5 PUSH2 0x1A8A JUMP JUMPDEST SWAP4 SWAP3 POP POP POP JUMP JUMPDEST PUSH0 PUSH1 0x60 DUP3 ADD SWAP1 POP PUSH2 0x20A4 PUSH0 DUP4 ADD DUP7 PUSH2 0x1A8A JUMP JUMPDEST PUSH2 0x20B1 PUSH1 0x20 DUP4 ADD DUP6 PUSH2 0x1A8A JUMP JUMPDEST PUSH2 0x20BE PUSH1 0x40 DUP4 ADD DUP5 PUSH2 0x1A8A JUMP JUMPDEST SWAP5 SWAP4 POP POP POP POP JUMP JUMPDEST PUSH0 PUSH1 0x40 DUP3 ADD SWAP1 POP PUSH2 0x20D9 PUSH0 DUP4 ADD DUP6 PUSH2 0x1A8A JUMP JUMPDEST PUSH2 0x20E6 PUSH1 0x20 DUP4 ADD DUP5 PUSH2 0x1A8A JUMP JUMPDEST SWAP4 SWAP3 POP POP POP JUMP JUMPDEST PUSH0 DUP2 SWAP1 POP SWAP2 SWAP1 POP JUMP JUMPDEST PUSH0 PUSH2 0x2110 PUSH2 0x210B PUSH2 0x2106 DUP5 PUSH2 0x20ED JUMP JUMPDEST PUSH2 0x1B7F JUMP JUMPDEST PUSH2 0x1A81 JUMP JUMPDEST SWAP1 POP SWAP2 SWAP1 POP JUMP JUMPDEST PUSH2 0x2120 DUP2 PUSH2 0x20F6 JUMP JUMPDEST DUP3 MSTORE POP POP JUMP JUMPDEST PUSH0 PUSH1 0x40 DUP3 ADD SWAP1 POP PUSH2 0x2139 PUSH0 DUP4 ADD DUP6 PUSH2 0x1B57 JUMP JUMPDEST PUSH2 0x2146 PUSH1 0x20 DUP4 ADD DUP5 PUSH2 0x2117 JUMP JUMPDEST SWAP4 SWAP3 POP POP POP JUMP INVALID LOG2 PUSH5 0x6970667358 0x22 SLT KECCAK256 ISZERO MCOPY CALL PUSH1 0xA3 0xAB CALLDATASIZE SWAP14 SGT ORIGIN 0x2B 0xC5 RETURNDATACOPY ORIGIN PREVRANDAO SWAP5 PUSH0 0xDC DUP15 CALL 0xC3 PUSH13 0xFE71AAA3A12BB33B4E2664736F PUSH13 0x634300081E0033000000000000 "
				},
				"gasEstimates": {
					"creation": {
						"codeDepositCost": "1715800",
						"executionCost": "infinite",
						"totalCost": "infinite"
					},
					"external": {
						"": "221",
						"USDC()": "infinite",
						"WETH()": "infinite",
						"bankCapUsd()": "infinite",
						"depositETHSwapToUSDC(uint256)": "infinite",
						"depositTokenSwapToUSDC(address,uint256,uint256)": "infinite",
						"depositUSDC(uint256)": "infinite",
						"owner()": "2618",
						"router()": "infinite",
						"setOwner(address)": "30608",
						"totalUsdc()": "2448",
						"usdcBalanceOf(address)": "2873",
						"withdrawUSDC(uint256)": "infinite"
					},
					"internal": {
						"_safeApprove(address,address,uint256)": "infinite"
					}
				},
				"methodIdentifiers": {
					"USDC()": "89a30271",
					"WETH()": "ad5c4648",
					"bankCapUsd()": "ac4543ba",
					"depositETHSwapToUSDC(uint256)": "883f1721",
					"depositTokenSwapToUSDC(address,uint256,uint256)": "39657553",
					"depositUSDC(uint256)": "f688bcfb",
					"owner()": "8da5cb5b",
					"router()": "f887ea40",
					"setOwner(address)": "13af4035",
					"totalUsdc()": "34462be6",
					"usdcBalanceOf(address)": "c3fd262d",
					"withdrawUSDC(uint256)": "db81f99b"
				}
			},
			"storageLayout": {
				"storage": [
					{
						"astId": 127,
						"contract": "src/KipuBankV3.sol:KipuBankV3",
						"label": "owner",
						"offset": 0,
						"slot": "0",
						"type": "t_address"
					},
					{
						"astId": 130,
						"contract": "src/KipuBankV3.sol:KipuBankV3",
						"label": "totalUsdc",
						"offset": 0,
						"slot": "1",
						"type": "t_uint256"
					},
					{
						"astId": 136,
						"contract": "src/KipuBankV3.sol:KipuBankV3",
						"label": "locked",
						"offset": 0,
						"slot": "2",
						"type": "t_bool"
					},
					{
						"astId": 158,
						"contract": "src/KipuBankV3.sol:KipuBankV3",
						"label": "usdcBalances",
						"offset": 0,
						"slot": "3",
						"type": "t_mapping(t_address,t_uint256)"
					}
				],
				"types": {
					"t_address": {
						"encoding": "inplace",
						"label": "address",
						"numberOfBytes": "20"
					},
					"t_bool": {
						"encoding": "inplace",
						"label": "bool",
						"numberOfBytes": "1"
					},
					"t_mapping(t_address,t_uint256)": {
						"encoding": "mapping",
						"key": "t_address",
						"label": "mapping(address => uint256)",
						"numberOfBytes": "32",
						"value": "t_uint256"
					},
					"t_uint256": {
						"encoding": "inplace",
						"label": "uint256",
						"numberOfBytes": "32"
					}
				}
			},
			"userdoc": {
				"kind": "user",
				"methods": {
					"USDC()": {
						"notice": "USDC token used by this bank (accounting token, expected decimals = 6)"
					},
					"WETH()": {
						"notice": "WETH address (from router)"
					},
					"bankCapUsd()": {
						"notice": "bank cap in USDC units (raw, e.g. 100 * 10**6 = 100 USDC)"
					},
					"depositETHSwapToUSDC(uint256)": {
						"notice": "Deposit ETH (native). Contract swaps ETH -> USDC via UniswapV2."
					},
					"depositTokenSwapToUSDC(address,uint256,uint256)": {
						"notice": "Deposit ERC20 token (not USDC). Contract swaps token -> USDC via UniswapV2.         Token must have a direct pair to USDC (path [token, USDC])."
					},
					"depositUSDC(uint256)": {
						"notice": "Deposit USDC directly (user must approve this contract)"
					},
					"owner()": {
						"notice": "owner/admin"
					},
					"router()": {
						"notice": "UniswapV2 router"
					},
					"totalUsdc()": {
						"notice": "total USDC held (in raw USDC units, e.g. 6 decimals)"
					},
					"withdrawUSDC(uint256)": {
						"notice": "Withdraw USDC from your internal balance"
					}
				},
				"version": 1
			}
		}
	}
}