{
	"data": {
		"bytecode": {
			"linkReferences": {},
			"object": "60c060405234801561000f575f5ffd5b50604051610b4e380380610b4e833981810160405281019061003191906100c3565b5f82148061003e57505f81145b15610075576040517f1510b77f00000000000000000000000000000000000000000000000000000000815260040160405180910390fd5b8160a0818152505080608081815250505050610101565b5f5ffd5b5f819050919050565b6100a281610090565b81146100ac575f5ffd5b50565b5f815190506100bd81610099565b92915050565b5f5f604083850312156100d9576100d861008c565b5b5f6100e6858286016100af565b92505060206100f7858286016100af565b9150509250929050565b60805160a051610a1061013e5f395f818161020d01528181610246015261072c01525f8181610480015281816104a901526107080152610a105ff3fe60806040526004361061007e575f3560e01c80639c51fd6e1161004d5780639c51fd6e14610149578063d0e30db014610173578063ecbea24d1461017d578063ff50abdc146101a75761008d565b80632dfdf0b5146100915780632e1a7d4d146100bb5780634cc05a71146100e357806370a082311461010d5761008d565b3661008d5761008b6101d1565b005b5f5ffd5b34801561009c575f5ffd5b506100a56103b7565b6040516100b2919061076c565b60405180910390f35b3480156100c6575f5ffd5b506100e160048036038101906100dc91906107b3565b6103bd565b005b3480156100ee575f5ffd5b506100f76106bb565b604051610104919061076c565b60405180910390f35b348015610118575f5ffd5b50610133600480360381019061012e9190610838565b6106c1565b604051610140919061076c565b60405180910390f35b348015610154575f5ffd5b5061015d610706565b60405161016a919061076c565b60405180910390f35b61017b6101d1565b005b348015610188575f5ffd5b5061019161072a565b60405161019e919061076c565b60405180910390f35b3480156101b2575f5ffd5b506101bb61074e565b6040516101c8919061076c565b60405180910390f35b345f810361020b576040517f1f2a200500000000000000000000000000000000000000000000000000000000815260040160405180910390fd5b7f00000000000000000000000000000000000000000000000000000000000000003460015461023a9190610890565b11156102a357346001547f00000000000000000000000000000000000000000000000000000000000000006040517f621e5a6900000000000000000000000000000000000000000000000000000000815260040161029a939291906108c3565b60405180910390fd5b345f5f3373ffffffffffffffffffffffffffffffffffffffff1673ffffffffffffffffffffffffffffffffffffffff1681526020019081526020015f205f8282546102ee9190610890565b925050819055503460015f8282546103069190610890565b9250508190555060025f81548092919061031f906108f8565b91905055503373ffffffffffffffffffffffffffffffffffffffff167f36af321ec8d3c75236829c5317affd40ddb308863a1236d2d277a4025cccee1e345f5f3373ffffffffffffffffffffffffffffffffffffffff1673ffffffffffffffffffffffffffffffffffffffff1681526020019081526020015f20546001546040516103ac939291906108c3565b60405180910390a250565b60025481565b805f81036103f7576040517f1f2a200500000000000000000000000000000000000000000000000000000000815260040160405180910390fd5b5f5f5f3373ffffffffffffffffffffffffffffffffffffffff1673ffffffffffffffffffffffffffffffffffffffff1681526020019081526020015f205490508083111561047e5782816040517fcf47918100000000000000000000000000000000000000000000000000000000815260040161047592919061093f565b60405180910390fd5b7f000000000000000000000000000000000000000000000000000000000000000083111561050557827f00000000000000000000000000000000000000000000000000000000000000006040517f016d0ef10000000000000000000000000000000000000000000000000000000081526004016104fc92919061093f565b60405180910390fd5b825f5f3373ffffffffffffffffffffffffffffffffffffffff1673ffffffffffffffffffffffffffffffffffffffff1681526020019081526020015f205f8282546105509190610966565b925050819055508260015f8282546105689190610966565b9250508190555060035f815480929190610581906108f8565b91905055505f3373ffffffffffffffffffffffffffffffffffffffff16846040516105ab906109c6565b5f6040518083038185875af1925050503d805f81146105e5576040519150601f19603f3d011682016040523d82523d5f602084013e6105ea565b606091505b5050905080610625576040517f90b8ec1800000000000000000000000000000000000000000000000000000000815260040160405180910390fd5b3373ffffffffffffffffffffffffffffffffffffffff167f02f25270a4d87bea75db541cdfe559334a275b4a233520ed6c0a2429667cca94855f5f3373ffffffffffffffffffffffffffffffffffffffff1673ffffffffffffffffffffffffffffffffffffffff1681526020019081526020015f20546001546040516106ad939291906108c3565b60405180910390a250505050565b60035481565b5f5f5f8373ffffffffffffffffffffffffffffffffffffffff1673ffffffffffffffffffffffffffffffffffffffff1681526020019081526020015f20549050919050565b7f000000000000000000000000000000000000000000000000000000000000000081565b7f000000000000000000000000000000000000000000000000000000000000000081565b60015481565b5f819050919050565b61076681610754565b82525050565b5f60208201905061077f5f83018461075d565b92915050565b5f5ffd5b61079281610754565b811461079c575f5ffd5b50565b5f813590506107ad81610789565b92915050565b5f602082840312156107c8576107c7610785565b5b5f6107d58482850161079f565b91505092915050565b5f73ffffffffffffffffffffffffffffffffffffffff82169050919050565b5f610807826107de565b9050919050565b610817816107fd565b8114610821575f5ffd5b50565b5f813590506108328161080e565b92915050565b5f6020828403121561084d5761084c610785565b5b5f61085a84828501610824565b91505092915050565b7f4e487b71000000000000000000000000000000000000000000000000000000005f52601160045260245ffd5b5f61089a82610754565b91506108a583610754565b92508282019050808211156108bd576108bc610863565b5b92915050565b5f6060820190506108d65f83018661075d565b6108e3602083018561075d565b6108f0604083018461075d565b949350505050565b5f61090282610754565b91507fffffffffffffffffffffffffffffffffffffffffffffffffffffffffffffffff820361093457610933610863565b5b600182019050919050565b5f6040820190506109525f83018561075d565b61095f602083018461075d565b9392505050565b5f61097082610754565b915061097b83610754565b925082820390508181111561099357610992610863565b5b92915050565b5f81905092915050565b50565b5f6109b15f83610999565b91506109bc826109a3565b5f82019050919050565b5f6109d0826109a6565b915081905091905056fea2646970667358221220a9a3f795b150514662b1da9496c5bed5b51be477c28ce34483747d3fd667efad64736f6c634300081e0033",
			"opcodes": "PUSH1 0xC0 PUSH1 0x40 MSTORE CALLVALUE DUP1 ISZERO PUSH2 0xF JUMPI PUSH0 PUSH0 REVERT JUMPDEST POP PUSH1 0x40 MLOAD PUSH2 0xB4E CODESIZE SUB DUP1 PUSH2 0xB4E DUP4 CODECOPY DUP2 DUP2 ADD PUSH1 0x40 MSTORE DUP2 ADD SWAP1 PUSH2 0x31 SWAP2 SWAP1 PUSH2 0xC3 JUMP JUMPDEST PUSH0 DUP3 EQ DUP1 PUSH2 0x3E JUMPI POP PUSH0 DUP2 EQ JUMPDEST ISZERO PUSH2 0x75 JUMPI PUSH1 0x40 MLOAD PUSH32 0x1510B77F00000000000000000000000000000000000000000000000000000000 DUP2 MSTORE PUSH1 0x4 ADD PUSH1 0x40 MLOAD DUP1 SWAP2 SUB SWAP1 REVERT JUMPDEST DUP2 PUSH1 0xA0 DUP2 DUP2 MSTORE POP POP DUP1 PUSH1 0x80 DUP2 DUP2 MSTORE POP POP POP POP PUSH2 0x101 JUMP JUMPDEST PUSH0 PUSH0 REVERT JUMPDEST PUSH0 DUP2 SWAP1 POP SWAP2 SWAP1 POP JUMP JUMPDEST PUSH2 0xA2 DUP2 PUSH2 0x90 JUMP JUMPDEST DUP2 EQ PUSH2 0xAC JUMPI PUSH0 PUSH0 REVERT JUMPDEST POP JUMP JUMPDEST PUSH0 DUP2 MLOAD SWAP1 POP PUSH2 0xBD DUP2 PUSH2 0x99 JUMP JUMPDEST SWAP3 SWAP2 POP POP JUMP JUMPDEST PUSH0 PUSH0 PUSH1 0x40 DUP4 DUP6 SUB SLT ISZERO PUSH2 0xD9 JUMPI PUSH2 0xD8 PUSH2 0x8C JUMP JUMPDEST JUMPDEST PUSH0 PUSH2 0xE6 DUP6 DUP3 DUP7 ADD PUSH2 0xAF JUMP JUMPDEST SWAP3 POP POP PUSH1 0x20 PUSH2 0xF7 DUP6 DUP3 DUP7 ADD PUSH2 0xAF JUMP JUMPDEST SWAP2 POP POP SWAP3 POP SWAP3 SWAP1 POP JUMP JUMPDEST PUSH1 0x80 MLOAD PUSH1 0xA0 MLOAD PUSH2 0xA10 PUSH2 0x13E PUSH0 CODECOPY PUSH0 DUP2 DUP2 PUSH2 0x20D ADD MSTORE DUP2 DUP2 PUSH2 0x246 ADD MSTORE PUSH2 0x72C ADD MSTORE PUSH0 DUP2 DUP2 PUSH2 0x480 ADD MSTORE DUP2 DUP2 PUSH2 0x4A9 ADD MSTORE PUSH2 0x708 ADD MSTORE PUSH2 0xA10 PUSH0 RETURN INVALID PUSH1 0x80 PUSH1 0x40 MSTORE PUSH1 0x4 CALLDATASIZE LT PUSH2 0x7E JUMPI PUSH0 CALLDATALOAD PUSH1 0xE0 SHR DUP1 PUSH4 0x9C51FD6E GT PUSH2 0x4D JUMPI DUP1 PUSH4 0x9C51FD6E EQ PUSH2 0x149 JUMPI DUP1 PUSH4 0xD0E30DB0 EQ PUSH2 0x173 JUMPI DUP1 PUSH4 0xECBEA24D EQ PUSH2 0x17D JUMPI DUP1 PUSH4 0xFF50ABDC EQ PUSH2 0x1A7 JUMPI PUSH2 0x8D JUMP JUMPDEST DUP1 PUSH4 0x2DFDF0B5 EQ PUSH2 0x91 JUMPI DUP1 PUSH4 0x2E1A7D4D EQ PUSH2 0xBB JUMPI DUP1 PUSH4 0x4CC05A71 EQ PUSH2 0xE3 JUMPI DUP1 PUSH4 0x70A08231 EQ PUSH2 0x10D JUMPI PUSH2 0x8D JUMP JUMPDEST CALLDATASIZE PUSH2 0x8D JUMPI PUSH2 0x8B PUSH2 0x1D1 JUMP JUMPDEST STOP JUMPDEST PUSH0 PUSH0 REVERT JUMPDEST CALLVALUE DUP1 ISZERO PUSH2 0x9C JUMPI PUSH0 PUSH0 REVERT JUMPDEST POP PUSH2 0xA5 PUSH2 0x3B7 JUMP JUMPDEST PUSH1 0x40 MLOAD PUSH2 0xB2 SWAP2 SWAP1 PUSH2 0x76C JUMP JUMPDEST PUSH1 0x40 MLOAD DUP1 SWAP2 SUB SWAP1 RETURN JUMPDEST CALLVALUE DUP1 ISZERO PUSH2 0xC6 JUMPI PUSH0 PUSH0 REVERT JUMPDEST POP PUSH2 0xE1 PUSH1 0x4 DUP1 CALLDATASIZE SUB DUP2 ADD SWAP1 PUSH2 0xDC SWAP2 SWAP1 PUSH2 0x7B3 JUMP JUMPDEST PUSH2 0x3BD JUMP JUMPDEST STOP JUMPDEST CALLVALUE DUP1 ISZERO PUSH2 0xEE JUMPI PUSH0 PUSH0 REVERT JUMPDEST POP PUSH2 0xF7 PUSH2 0x6BB JUMP JUMPDEST PUSH1 0x40 MLOAD PUSH2 0x104 SWAP2 SWAP1 PUSH2 0x76C JUMP JUMPDEST PUSH1 0x40 MLOAD DUP1 SWAP2 SUB SWAP1 RETURN JUMPDEST CALLVALUE DUP1 ISZERO PUSH2 0x118 JUMPI PUSH0 PUSH0 REVERT JUMPDEST POP PUSH2 0x133 PUSH1 0x4 DUP1 CALLDATASIZE SUB DUP2 ADD SWAP1 PUSH2 0x12E SWAP2 SWAP1 PUSH2 0x838 JUMP JUMPDEST PUSH2 0x6C1 JUMP JUMPDEST PUSH1 0x40 MLOAD PUSH2 0x140 SWAP2 SWAP1 PUSH2 0x76C JUMP JUMPDEST PUSH1 0x40 MLOAD DUP1 SWAP2 SUB SWAP1 RETURN JUMPDEST CALLVALUE DUP1 ISZERO PUSH2 0x154 JUMPI PUSH0 PUSH0 REVERT JUMPDEST POP PUSH2 0x15D PUSH2 0x706 JUMP JUMPDEST PUSH1 0x40 MLOAD PUSH2 0x16A SWAP2 SWAP1 PUSH2 0x76C JUMP JUMPDEST PUSH1 0x40 MLOAD DUP1 SWAP2 SUB SWAP1 RETURN JUMPDEST PUSH2 0x17B PUSH2 0x1D1 JUMP JUMPDEST STOP JUMPDEST CALLVALUE DUP1 ISZERO PUSH2 0x188 JUMPI PUSH0 PUSH0 REVERT JUMPDEST POP PUSH2 0x191 PUSH2 0x72A JUMP JUMPDEST PUSH1 0x40 MLOAD PUSH2 0x19E SWAP2 SWAP1 PUSH2 0x76C JUMP JUMPDEST PUSH1 0x40 MLOAD DUP1 SWAP2 SUB SWAP1 RETURN JUMPDEST CALLVALUE DUP1 ISZERO PUSH2 0x1B2 JUMPI PUSH0 PUSH0 REVERT JUMPDEST POP PUSH2 0x1BB PUSH2 0x74E JUMP JUMPDEST PUSH1 0x40 MLOAD PUSH2 0x1C8 SWAP2 SWAP1 PUSH2 0x76C JUMP JUMPDEST PUSH1 0x40 MLOAD DUP1 SWAP2 SUB SWAP1 RETURN JUMPDEST CALLVALUE PUSH0 DUP2 SUB PUSH2 0x20B JUMPI PUSH1 0x40 MLOAD PUSH32 0x1F2A200500000000000000000000000000000000000000000000000000000000 DUP2 MSTORE PUSH1 0x4 ADD PUSH1 0x40 MLOAD DUP1 SWAP2 SUB SWAP1 REVERT JUMPDEST PUSH32 0x0 CALLVALUE PUSH1 0x1 SLOAD PUSH2 0x23A SWAP2 SWAP1 PUSH2 0x890 JUMP JUMPDEST GT ISZERO PUSH2 0x2A3 JUMPI CALLVALUE PUSH1 0x1 SLOAD PUSH32 0x0 PUSH1 0x40 MLOAD PUSH32 0x621E5A6900000000000000000000000000000000000000000000000000000000 DUP2 MSTORE PUSH1 0x4 ADD PUSH2 0x29A SWAP4 SWAP3 SWAP2 SWAP1 PUSH2 0x8C3 JUMP JUMPDEST PUSH1 0x40 MLOAD DUP1 SWAP2 SUB SWAP1 REVERT JUMPDEST CALLVALUE PUSH0 PUSH0 CALLER PUSH20 0xFFFFFFFFFFFFFFFFFFFFFFFFFFFFFFFFFFFFFFFF AND PUSH20 0xFFFFFFFFFFFFFFFFFFFFFFFFFFFFFFFFFFFFFFFF AND DUP2 MSTORE PUSH1 0x20 ADD SWAP1 DUP2 MSTORE PUSH1 0x20 ADD PUSH0 KECCAK256 PUSH0 DUP3 DUP3 SLOAD PUSH2 0x2EE SWAP2 SWAP1 PUSH2 0x890 JUMP JUMPDEST SWAP3 POP POP DUP2 SWAP1 SSTORE POP CALLVALUE PUSH1 0x1 PUSH0 DUP3 DUP3 SLOAD PUSH2 0x306 SWAP2 SWAP1 PUSH2 0x890 JUMP JUMPDEST SWAP3 POP POP DUP2 SWAP1 SSTORE POP PUSH1 0x2 PUSH0 DUP2 SLOAD DUP1 SWAP3 SWAP2 SWAP1 PUSH2 0x31F SWAP1 PUSH2 0x8F8 JUMP JUMPDEST SWAP2 SWAP1 POP SSTORE POP CALLER PUSH20 0xFFFFFFFFFFFFFFFFFFFFFFFFFFFFFFFFFFFFFFFF AND PUSH32 0x36AF321EC8D3C75236829C5317AFFD40DDB308863A1236D2D277A4025CCCEE1E CALLVALUE PUSH0 PUSH0 CALLER PUSH20 0xFFFFFFFFFFFFFFFFFFFFFFFFFFFFFFFFFFFFFFFF AND PUSH20 0xFFFFFFFFFFFFFFFFFFFFFFFFFFFFFFFFFFFFFFFF AND DUP2 MSTORE PUSH1 0x20 ADD SWAP1 DUP2 MSTORE PUSH1 0x20 ADD PUSH0 KECCAK256 SLOAD PUSH1 0x1 SLOAD PUSH1 0x40 MLOAD PUSH2 0x3AC SWAP4 SWAP3 SWAP2 SWAP1 PUSH2 0x8C3 JUMP JUMPDEST PUSH1 0x40 MLOAD DUP1 SWAP2 SUB SWAP1 LOG2 POP JUMP JUMPDEST PUSH1 0x2 SLOAD DUP2 JUMP JUMPDEST DUP1 PUSH0 DUP2 SUB PUSH2 0x3F7 JUMPI PUSH1 0x40 MLOAD PUSH32 0x1F2A200500000000000000000000000000000000000000000000000000000000 DUP2 MSTORE PUSH1 0x4 ADD PUSH1 0x40 MLOAD DUP1 SWAP2 SUB SWAP1 REVERT JUMPDEST PUSH0 PUSH0 PUSH0 CALLER PUSH20 0xFFFFFFFFFFFFFFFFFFFFFFFFFFFFFFFFFFFFFFFF AND PUSH20 0xFFFFFFFFFFFFFFFFFFFFFFFFFFFFFFFFFFFFFFFF AND DUP2 MSTORE PUSH1 0x20 ADD SWAP1 DUP2 MSTORE PUSH1 0x20 ADD PUSH0 KECCAK256 SLOAD SWAP1 POP DUP1 DUP4 GT ISZERO PUSH2 0x47E JUMPI DUP3 DUP2 PUSH1 0x40 MLOAD PUSH32 0xCF47918100000000000000000000000000000000000000000000000000000000 DUP2 MSTORE PUSH1 0x4 ADD PUSH2 0x475 SWAP3 SWAP2 SWAP1 PUSH2 0x93F JUMP JUMPDEST PUSH1 0x40 MLOAD DUP1 SWAP2 SUB SWAP1 REVERT JUMPDEST PUSH32 0x0 DUP4 GT ISZERO PUSH2 0x505 JUMPI DUP3 PUSH32 0x0 PUSH1 0x40 MLOAD PUSH32 0x16D0EF100000000000000000000000000000000000000000000000000000000 DUP2 MSTORE PUSH1 0x4 ADD PUSH2 0x4FC SWAP3 SWAP2 SWAP1 PUSH2 0x93F JUMP JUMPDEST PUSH1 0x40 MLOAD DUP1 SWAP2 SUB SWAP1 REVERT JUMPDEST DUP3 PUSH0 PUSH0 CALLER PUSH20 0xFFFFFFFFFFFFFFFFFFFFFFFFFFFFFFFFFFFFFFFF AND PUSH20 0xFFFFFFFFFFFFFFFFFFFFFFFFFFFFFFFFFFFFFFFF AND DUP2 MSTORE PUSH1 0x20 ADD SWAP1 DUP2 MSTORE PUSH1 0x20 ADD PUSH0 KECCAK256 PUSH0 DUP3 DUP3 SLOAD PUSH2 0x550 SWAP2 SWAP1 PUSH2 0x966 JUMP JUMPDEST SWAP3 POP POP DUP2 SWAP1 SSTORE POP DUP3 PUSH1 0x1 PUSH0 DUP3 DUP3 SLOAD PUSH2 0x568 SWAP2 SWAP1 PUSH2 0x966 JUMP JUMPDEST SWAP3 POP POP DUP2 SWAP1 SSTORE POP PUSH1 0x3 PUSH0 DUP2 SLOAD DUP1 SWAP3 SWAP2 SWAP1 PUSH2 0x581 SWAP1 PUSH2 0x8F8 JUMP JUMPDEST SWAP2 SWAP1 POP SSTORE POP PUSH0 CALLER PUSH20 0xFFFFFFFFFFFFFFFFFFFFFFFFFFFFFFFFFFFFFFFF AND DUP5 PUSH1 0x40 MLOAD PUSH2 0x5AB SWAP1 PUSH2 0x9C6 JUMP JUMPDEST PUSH0 PUSH1 0x40 MLOAD DUP1 DUP4 SUB DUP2 DUP6 DUP8 GAS CALL SWAP3 POP POP POP RETURNDATASIZE DUP1 PUSH0 DUP2 EQ PUSH2 0x5E5 JUMPI PUSH1 0x40 MLOAD SWAP2 POP PUSH1 0x1F NOT PUSH1 0x3F RETURNDATASIZE ADD AND DUP3 ADD PUSH1 0x40 MSTORE RETURNDATASIZE DUP3 MSTORE RETURNDATASIZE PUSH0 PUSH1 0x20 DUP5 ADD RETURNDATACOPY PUSH2 0x5EA JUMP JUMPDEST PUSH1 0x60 SWAP2 POP JUMPDEST POP POP SWAP1 POP DUP1 PUSH2 0x625 JUMPI PUSH1 0x40 MLOAD PUSH32 0x90B8EC1800000000000000000000000000000000000000000000000000000000 DUP2 MSTORE PUSH1 0x4 ADD PUSH1 0x40 MLOAD DUP1 SWAP2 SUB SWAP1 REVERT JUMPDEST CALLER PUSH20 0xFFFFFFFFFFFFFFFFFFFFFFFFFFFFFFFFFFFFFFFF AND PUSH32 0x2F25270A4D87BEA75DB541CDFE559334A275B4A233520ED6C0A2429667CCA94 DUP6 PUSH0 PUSH0 CALLER PUSH20 0xFFFFFFFFFFFFFFFFFFFFFFFFFFFFFFFFFFFFFFFF AND PUSH20 0xFFFFFFFFFFFFFFFFFFFFFFFFFFFFFFFFFFFFFFFF AND DUP2 MSTORE PUSH1 0x20 ADD SWAP1 DUP2 MSTORE PUSH1 0x20 ADD PUSH0 KECCAK256 SLOAD PUSH1 0x1 SLOAD PUSH1 0x40 MLOAD PUSH2 0x6AD SWAP4 SWAP3 SWAP2 SWAP1 PUSH2 0x8C3 JUMP JUMPDEST PUSH1 0x40 MLOAD DUP1 SWAP2 SUB SWAP1 LOG2 POP POP POP POP JUMP JUMPDEST PUSH1 0x3 SLOAD DUP2 JUMP JUMPDEST PUSH0 PUSH0 PUSH0 DUP4 PUSH20 0xFFFFFFFFFFFFFFFFFFFFFFFFFFFFFFFFFFFFFFFF AND PUSH20 0xFFFFFFFFFFFFFFFFFFFFFFFFFFFFFFFFFFFFFFFF AND DUP2 MSTORE PUSH1 0x20 ADD SWAP1 DUP2 MSTORE PUSH1 0x20 ADD PUSH0 KECCAK256 SLOAD SWAP1 POP SWAP2 SWAP1 POP JUMP JUMPDEST PUSH32 0x0 DUP2 JUMP JUMPDEST PUSH32 0x0 DUP2 JUMP JUMPDEST PUSH1 0x1 SLOAD DUP2 JUMP JUMPDEST PUSH0 DUP2 SWAP1 POP SWAP2 SWAP1 POP JUMP JUMPDEST PUSH2 0x766 DUP2 PUSH2 0x754 JUMP JUMPDEST DUP3 MSTORE POP POP JUMP JUMPDEST PUSH0 PUSH1 0x20 DUP3 ADD SWAP1 POP PUSH2 0x77F PUSH0 DUP4 ADD DUP5 PUSH2 0x75D JUMP JUMPDEST SWAP3 SWAP2 POP POP JUMP JUMPDEST PUSH0 PUSH0 REVERT JUMPDEST PUSH2 0x792 DUP2 PUSH2 0x754 JUMP JUMPDEST DUP2 EQ PUSH2 0x79C JUMPI PUSH0 PUSH0 REVERT JUMPDEST POP JUMP JUMPDEST PUSH0 DUP2 CALLDATALOAD SWAP1 POP PUSH2 0x7AD DUP2 PUSH2 0x789 JUMP JUMPDEST SWAP3 SWAP2 POP POP JUMP JUMPDEST PUSH0 PUSH1 0x20 DUP3 DUP5 SUB SLT ISZERO PUSH2 0x7C8 JUMPI PUSH2 0x7C7 PUSH2 0x785 JUMP JUMPDEST JUMPDEST PUSH0 PUSH2 0x7D5 DUP5 DUP3 DUP6 ADD PUSH2 0x79F JUMP JUMPDEST SWAP2 POP POP SWAP3 SWAP2 POP POP JUMP JUMPDEST PUSH0 PUSH20 0xFFFFFFFFFFFFFFFFFFFFFFFFFFFFFFFFFFFFFFFF DUP3 AND SWAP1 POP SWAP2 SWAP1 POP JUMP JUMPDEST PUSH0 PUSH2 0x807 DUP3 PUSH2 0x7DE JUMP JUMPDEST SWAP1 POP SWAP2 SWAP1 POP JUMP JUMPDEST PUSH2 0x817 DUP2 PUSH2 0x7FD JUMP JUMPDEST DUP2 EQ PUSH2 0x821 JUMPI PUSH0 PUSH0 REVERT JUMPDEST POP JUMP JUMPDEST PUSH0 DUP2 CALLDATALOAD SWAP1 POP PUSH2 0x832 DUP2 PUSH2 0x80E JUMP JUMPDEST SWAP3 SWAP2 POP POP JUMP JUMPDEST PUSH0 PUSH1 0x20 DUP3 DUP5 SUB SLT ISZERO PUSH2 0x84D JUMPI PUSH2 0x84C PUSH2 0x785 JUMP JUMPDEST JUMPDEST PUSH0 PUSH2 0x85A DUP5 DUP3 DUP6 ADD PUSH2 0x824 JUMP JUMPDEST SWAP2 POP POP SWAP3 SWAP2 POP POP JUMP JUMPDEST PUSH32 0x4E487B7100000000000000000000000000000000000000000000000000000000 PUSH0 MSTORE PUSH1 0x11 PUSH1 0x4 MSTORE PUSH1 0x24 PUSH0 REVERT JUMPDEST PUSH0 PUSH2 0x89A DUP3 PUSH2 0x754 JUMP JUMPDEST SWAP2 POP PUSH2 0x8A5 DUP4 PUSH2 0x754 JUMP JUMPDEST SWAP3 POP DUP3 DUP3 ADD SWAP1 POP DUP1 DUP3 GT ISZERO PUSH2 0x8BD JUMPI PUSH2 0x8BC PUSH2 0x863 JUMP JUMPDEST JUMPDEST SWAP3 SWAP2 POP POP JUMP JUMPDEST PUSH0 PUSH1 0x60 DUP3 ADD SWAP1 POP PUSH2 0x8D6 PUSH0 DUP4 ADD DUP7 PUSH2 0x75D JUMP JUMPDEST PUSH2 0x8E3 PUSH1 0x20 DUP4 ADD DUP6 PUSH2 0x75D JUMP JUMPDEST PUSH2 0x8F0 PUSH1 0x40 DUP4 ADD DUP5 PUSH2 0x75D JUMP JUMPDEST SWAP5 SWAP4 POP POP POP POP JUMP JUMPDEST PUSH0 PUSH2 0x902 DUP3 PUSH2 0x754 JUMP JUMPDEST SWAP2 POP PUSH32 0xFFFFFFFFFFFFFFFFFFFFFFFFFFFFFFFFFFFFFFFFFFFFFFFFFFFFFFFFFFFFFFFF DUP3 SUB PUSH2 0x934 JUMPI PUSH2 0x933 PUSH2 0x863 JUMP JUMPDEST JUMPDEST PUSH1 0x1 DUP3 ADD SWAP1 POP SWAP2 SWAP1 POP JUMP JUMPDEST PUSH0 PUSH1 0x40 DUP3 ADD SWAP1 POP PUSH2 0x952 PUSH0 DUP4 ADD DUP6 PUSH2 0x75D JUMP JUMPDEST PUSH2 0x95F PUSH1 0x20 DUP4 ADD DUP5 PUSH2 0x75D JUMP JUMPDEST SWAP4 SWAP3 POP POP POP JUMP JUMPDEST PUSH0 PUSH2 0x970 DUP3 PUSH2 0x754 JUMP JUMPDEST SWAP2 POP PUSH2 0x97B DUP4 PUSH2 0x754 JUMP JUMPDEST SWAP3 POP DUP3 DUP3 SUB SWAP1 POP DUP2 DUP2 GT ISZERO PUSH2 0x993 JUMPI PUSH2 0x992 PUSH2 0x863 JUMP JUMPDEST JUMPDEST SWAP3 SWAP2 POP POP JUMP JUMPDEST PUSH0 DUP2 SWAP1 POP SWAP3 SWAP2 POP POP JUMP JUMPDEST POP JUMP JUMPDEST PUSH0 PUSH2 0x9B1 PUSH0 DUP4 PUSH2 0x999 JUMP JUMPDEST SWAP2 POP PUSH2 0x9BC DUP3 PUSH2 0x9A3 JUMP JUMPDEST PUSH0 DUP3 ADD SWAP1 POP SWAP2 SWAP1 POP JUMP JUMPDEST PUSH0 PUSH2 0x9D0 DUP3 PUSH2 0x9A6 JUMP JUMPDEST SWAP2 POP DUP2 SWAP1 POP SWAP2 SWAP1 POP JUMP INVALID LOG2 PUSH5 0x6970667358 0x22 SLT KECCAK256 0xA9 LOG3 0xF7 SWAP6 0xB1 POP MLOAD CHAINID PUSH3 0xB1DA94 SWAP7 0xC5 0xBE 0xD5 0xB5 SHL RETF PUSH24 0xC28CE34483747D3FD667EFAD64736F6C634300081E003300 "
		},
		"gasEstimates": {
			"creation": {
				"codeDepositCost": "515200",
				"executionCost": "infinite",
				"totalCost": "infinite"
			},
			"external": {
				"balanceOf(address)": "2895",
				"bankCap()": "infinite",
				"deposit()": "infinite",
				"depositCount()": "2426",
				"totalDeposited()": "2491",
				"withdraw(uint256)": "infinite",
				"withdrawCount()": "2470",
				"withdrawLimitPerTx()": "infinite"
			},
			"internal": {
				"_addBalance(address,uint256)": "infinite"
			}
		},
		"methodIdentifiers": {
			"balanceOf(address)": "70a08231",
			"bankCap()": "ecbea24d",
			"deposit()": "d0e30db0",
			"depositCount()": "2dfdf0b5",
			"totalDeposited()": "ff50abdc",
			"withdraw(uint256)": "2e1a7d4d",
			"withdrawCount()": "4cc05a71",
			"withdrawLimitPerTx()": "9c51fd6e"
		}
	},
	"abi": [
		{
			"inputs": [
				{
					"internalType": "uint256",
					"name": "_bankCap",
					"type": "uint256"
				},
				{
					"internalType": "uint256",
					"name": "_withdrawLimitPerTx",
					"type": "uint256"
				}
			],
			"stateMutability": "nonpayable",
			"type": "constructor"
		},
		{
			"inputs": [
				{
					"internalType": "uint256",
					"name": "attempted",
					"type": "uint256"
				},
				{
					"internalType": "uint256",
					"name": "total",
					"type": "uint256"
				},
				{
					"internalType": "uint256",
					"name": "cap",
					"type": "uint256"
				}
			],
			"name": "BankCapExceeded",
			"type": "error"
		},
		{
			"inputs": [
				{
					"internalType": "uint256",
					"name": "requested",
					"type": "uint256"
				},
				{
					"internalType": "uint256",
					"name": "available",
					"type": "uint256"
				}
			],
			"name": "InsufficientBalance",
			"type": "error"
		},
		{
			"inputs": [],
			"name": "InvalidConstructorParams",
			"type": "error"
		},
		{
			"inputs": [],
			"name": "TransferFailed",
			"type": "error"
		},
		{
			"inputs": [
				{
					"internalType": "uint256",
					"name": "requested",
					"type": "uint256"
				},
				{
					"internalType": "uint256",
					"name": "limit",
					"type": "uint256"
				}
			],
			"name": "WithdrawLimitExceeded",
			"type": "error"
		},
		{
			"inputs": [],
			"name": "ZeroAmount",
			"type": "error"
		},
		{
			"anonymous": false,
			"inputs": [
				{
					"indexed": true,
					"internalType": "address",
					"name": "user",
					"type": "address"
				},
				{
					"indexed": false,
					"internalType": "uint256",
					"name": "amount",
					"type": "uint256"
				},
				{
					"indexed": false,
					"internalType": "uint256",
					"name": "balance",
					"type": "uint256"
				},
				{
					"indexed": false,
					"internalType": "uint256",
					"name": "totalDeposited",
					"type": "uint256"
				}
			],
			"name": "Deposit",
			"type": "event"
		},
		{
			"anonymous": false,
			"inputs": [
				{
					"indexed": true,
					"internalType": "address",
					"name": "user",
					"type": "address"
				},
				{
					"indexed": false,
					"internalType": "uint256",
					"name": "amount",
					"type": "uint256"
				},
				{
					"indexed": false,
					"internalType": "uint256",
					"name": "balance",
					"type": "uint256"
				},
				{
					"indexed": false,
					"internalType": "uint256",
					"name": "totalDeposited",
					"type": "uint256"
				}
			],
			"name": "Withdraw",
			"type": "event"
		},
		{
			"inputs": [
				{
					"internalType": "address",
					"name": "user",
					"type": "address"
				}
			],
			"name": "balanceOf",
			"outputs": [
				{
					"internalType": "uint256",
					"name": "",
					"type": "uint256"
				}
			],
			"stateMutability": "view",
			"type": "function"
		},
		{
			"inputs": [],
			"name": "bankCap",
			"outputs": [
				{
					"internalType": "uint256",
					"name": "",
					"type": "uint256"
				}
			],
			"stateMutability": "view",
			"type": "function"
		},
		{
			"inputs": [],
			"name": "deposit",
			"outputs": [],
			"stateMutability": "payable",
			"type": "function"
		},
		{
			"inputs": [],
			"name": "depositCount",
			"outputs": [
				{
					"internalType": "uint256",
					"name": "",
					"type": "uint256"
				}
			],
			"stateMutability": "view",
			"type": "function"
		},
		{
			"inputs": [],
			"name": "totalDeposited",
			"outputs": [
				{
					"internalType": "uint256",
					"name": "",
					"type": "uint256"
				}
			],
			"stateMutability": "view",
			"type": "function"
		},
		{
			"inputs": [
				{
					"internalType": "uint256",
					"name": "amount",
					"type": "uint256"
				}
			],
			"name": "withdraw",
			"outputs": [],
			"stateMutability": "nonpayable",
			"type": "function"
		},
		{
			"inputs": [],
			"name": "withdrawCount",
			"outputs": [
				{
					"internalType": "uint256",
					"name": "",
					"type": "uint256"
				}
			],
			"stateMutability": "view",
			"type": "function"
		},
		{
			"inputs": [],
			"name": "withdrawLimitPerTx",
			"outputs": [
				{
					"internalType": "uint256",
					"name": "",
					"type": "uint256"
				}
			],
			"stateMutability": "view",
			"type": "function"
		},
		{
			"stateMutability": "payable",
			"type": "receive"
		}
	]
}