{
	"data": {
		"bytecode": {
			"linkReferences": {},
			"object": "60e060405234801561000f575f5ffd5b5060405161270c38038061270c833981810160405281019061003191906101c7565b5f83148061003e57505f82145b8061007457505f73ffffffffffffffffffffffffffffffffffffffff168173ffffffffffffffffffffffffffffffffffffffff16145b156100ab576040517f1510b77f00000000000000000000000000000000000000000000000000000000815260040160405180910390fd5b335f5f6101000a81548173ffffffffffffffffffffffffffffffffffffffff021916908373ffffffffffffffffffffffffffffffffffffffff16021790555082608081815250508160a081815250508073ffffffffffffffffffffffffffffffffffffffff1660c08173ffffffffffffffffffffffffffffffffffffffff1681525050505050610217565b5f5ffd5b5f819050919050565b61014c8161013a565b8114610156575f5ffd5b50565b5f8151905061016781610143565b92915050565b5f73ffffffffffffffffffffffffffffffffffffffff82169050919050565b5f6101968261016d565b9050919050565b6101a68161018c565b81146101b0575f5ffd5b50565b5f815190506101c18161019d565b92915050565b5f5f5f606084860312156101de576101dd610136565b5b5f6101eb86828701610159565b93505060206101fc86828701610159565b925050604061020d868287016101b3565b9150509250925092565b60805160a05160c05161248c6102805f395f8181610f850152611ad501525f8181610d3c01528181610d6501528181610faf0152818161113f015261116801525f81816109c801528181610a7d01528181610f56015281816113e90152611422015261248c5ff3fe6080604052600436106100f6575f3560e01c8063b7b0ffd811610089578063e243df2011610058578063e243df201461035b578063f14210a614610385578063f6326fb3146103ad578063f7888aec146103b757610155565b8063b7b0ffd8146102b3578063be406e6c146102dd578063c1636bc914610307578063d63438671461033157610155565b806397feb926116100c557806397feb926146101fd5780639dcb511a14610225578063a1db978214610261578063ac4543ba1461028957610155565b806313af403514610159578063503e70421461018157806376e11286146101ab5780638da5cb5b146101d357610155565b36610155573073ffffffffffffffffffffffffffffffffffffffff1663f6326fb3346040518263ffffffff1660e01b81526004015f604051808303818588803b158015610141575f5ffd5b505af1158015610153573d5f5f3e3d5ffd5b005b5f5ffd5b348015610164575f5ffd5b5061017f600480360381019061017a9190611b64565b6103f3565b005b34801561018c575f5ffd5b506101956105a7565b6040516101a29190611ba7565b60405180910390f35b3480156101b6575f5ffd5b506101d160048036038101906101cc9190611bc0565b6105ad565b005b3480156101de575f5ffd5b506101e761070b565b6040516101f49190611c0d565b60405180910390f35b348015610208575f5ffd5b50610223600480360381019061021e9190611c50565b61072f565b005b348015610230575f5ffd5b5061024b60048036038101906102469190611b64565b610b9e565b6040516102589190611ce9565b60405180910390f35b34801561026c575f5ffd5b5061028760048036038101906102829190611c50565b610bce565b005b348015610294575f5ffd5b5061029d610f54565b6040516102aa9190611ba7565b60405180910390f35b3480156102be575f5ffd5b506102c7610f78565b6040516102d49190611ba7565b60405180910390f35b3480156102e8575f5ffd5b506102f1610f7e565b6040516102fe9190611d1d565b60405180910390f35b348015610312575f5ffd5b5061031b610f83565b6040516103289190611ce9565b60405180910390f35b34801561033c575f5ffd5b50610345610fa7565b6040516103529190611ba7565b60405180910390f35b348015610366575f5ffd5b5061036f610fad565b60405161037c9190611ba7565b60405180910390f35b348015610390575f5ffd5b506103ab60048036038101906103a69190611d36565b610fd1565b005b6103b5611340565b005b3480156103c2575f5ffd5b506103dd60048036038101906103d89190611bc0565b61153f565b6040516103ea9190611ba7565b60405180910390f35b5f5f9054906101000a900473ffffffffffffffffffffffffffffffffffffffff1673ffffffffffffffffffffffffffffffffffffffff163373ffffffffffffffffffffffffffffffffffffffff1614610478576040517fcc12cef600000000000000000000000000000000000000000000000000000000815260040160405180910390fd5b5f73ffffffffffffffffffffffffffffffffffffffff168173ffffffffffffffffffffffffffffffffffffffff16036104e6576040517f08c379a00000000000000000000000000000000000000000000000000000000081526004016104dd90611dbb565b60405180910390fd5b5f5f5f9054906101000a900473ffffffffffffffffffffffffffffffffffffffff169050815f5f6101000a81548173ffffffffffffffffffffffffffffffffffffffff021916908373ffffffffffffffffffffffffffffffffffffffff1602179055508173ffffffffffffffffffffffffffffffffffffffff168173ffffffffffffffffffffffffffffffffffffffff167fb532073b38c83145e3e5135377a08bf9aab55bc0fd7c1179cd4fb995d2a5159c60405160405180910390a35050565b60055481565b5f5f9054906101000a900473ffffffffffffffffffffffffffffffffffffffff1673ffffffffffffffffffffffffffffffffffffffff163373ffffffffffffffffffffffffffffffffffffffff1614610632576040517fcc12cef600000000000000000000000000000000000000000000000000000000815260040160405180910390fd5b8060025f8473ffffffffffffffffffffffffffffffffffffffff1673ffffffffffffffffffffffffffffffffffffffff1681526020019081526020015f205f6101000a81548173ffffffffffffffffffffffffffffffffffffffff021916908373ffffffffffffffffffffffffffffffffffffffff1602179055508073ffffffffffffffffffffffffffffffffffffffff168273ffffffffffffffffffffffffffffffffffffffff167fd2d8394cf7549a5ddbc2ba3dd7b2de8d53c891472d1f2907008ed6a10045fdae60405160405180910390a35050565b5f5f9054906101000a900473ffffffffffffffffffffffffffffffffffffffff1681565b60065f9054906101000a900460ff1615610775576040517f5a919cd900000000000000000000000000000000000000000000000000000000815260040160405180910390fd5b600160065f6101000a81548160ff021916908315150217905550805f81036107c9576040517f608294ac00000000000000000000000000000000000000000000000000000000815260040160405180910390fd5b5f73ffffffffffffffffffffffffffffffffffffffff168373ffffffffffffffffffffffffffffffffffffffff160361082e576040517f608294ac00000000000000000000000000000000000000000000000000000000815260040160405180910390fd5b5f60025f8573ffffffffffffffffffffffffffffffffffffffff1673ffffffffffffffffffffffffffffffffffffffff1681526020019081526020015f205f9054906101000a900473ffffffffffffffffffffffffffffffffffffffff1690505f73ffffffffffffffffffffffffffffffffffffffff168173ffffffffffffffffffffffffffffffffffffffff16036108f3576040517fcc12cef600000000000000000000000000000000000000000000000000000000815260040160405180910390fd5b5f8473ffffffffffffffffffffffffffffffffffffffff166323b872dd3330876040518463ffffffff1660e01b815260040161093193929190611dd9565b6020604051808303815f875af115801561094d573d5f5f3e3d5ffd5b505050506040513d601f19601f820116820180604052508101906109719190611e43565b9050806109b9573385856040517f31e6e4e10000000000000000000000000000000000000000000000000000000081526004016109b093929190611dd9565b60405180910390fd5b5f6109c486866115c1565b90507f0000000000000000000000000000000000000000000000000000000000000000816003546109f59190611e9b565b1115610ada578573ffffffffffffffffffffffffffffffffffffffff1663a9059cbb33876040518363ffffffff1660e01b8152600401610a36929190611ece565b6020604051808303815f875af1158015610a52573d5f5f3e3d5ffd5b505050506040513d601f19601f82011682018060405250810190610a769190611e43565b50806003547f00000000000000000000000000000000000000000000000000000000000000006040517fcfe67498000000000000000000000000000000000000000000000000000000008152600401610ad193929190611ef5565b60405180910390fd5b610ae78633876001611911565b60045f815480929190610af990611f2a565b91905055508060035f828254610b0f9190611e9b565b925050819055508573ffffffffffffffffffffffffffffffffffffffff163373ffffffffffffffffffffffffffffffffffffffff167fdcbc1c05240f31ff3ad067ef1ee35ce4997762752e3a095284754544f4c709d78784604051610b75929190611f71565b60405180910390a3505050505f60065f6101000a81548160ff0219169083151502179055505050565b6002602052805f5260405f205f915054906101000a900473ffffffffffffffffffffffffffffffffffffffff1681565b60065f9054906101000a900460ff1615610c14576040517f5a919cd900000000000000000000000000000000000000000000000000000000815260040160405180910390fd5b600160065f6101000a81548160ff021916908315150217905550805f8103610c68576040517f608294ac00000000000000000000000000000000000000000000000000000000815260040160405180910390fd5b5f60015f8573ffffffffffffffffffffffffffffffffffffffff1673ffffffffffffffffffffffffffffffffffffffff1681526020019081526020015f205f3373ffffffffffffffffffffffffffffffffffffffff1673ffffffffffffffffffffffffffffffffffffffff1681526020019081526020015f2054905080831115610d2d578381846040517f483b38f2000000000000000000000000000000000000000000000000000000008152600401610d2493929190611f98565b60405180910390fd5b5f610d3885856115c1565b90507f0000000000000000000000000000000000000000000000000000000000000000811115610dc157807f00000000000000000000000000000000000000000000000000000000000000006040517f29963049000000000000000000000000000000000000000000000000000000008152600401610db8929190611f71565b60405180910390fd5b610dcd8533865f611911565b60055f815480929190610ddf90611f2a565b91905055506003548111610e005780600354610dfb9190611fcd565b610e02565b5f5b6003819055505f8573ffffffffffffffffffffffffffffffffffffffff1663a9059cbb33876040518363ffffffff1660e01b8152600401610e44929190611ece565b6020604051808303815f875af1158015610e60573d5f5f3e3d5ffd5b505050506040513d601f19601f82011682018060405250810190610e849190611e43565b905080610ecc573386866040517f31e6e4e1000000000000000000000000000000000000000000000000000000008152600401610ec393929190611dd9565b60405180910390fd5b8573ffffffffffffffffffffffffffffffffffffffff163373ffffffffffffffffffffffffffffffffffffffff167ff341246adaac6f497bc2a656f546ab9e182111d630394f0c57c710a59a2cb5678785604051610f2b929190611f71565b60405180910390a3505050505f60065f6101000a81548160ff0219169083151502179055505050565b7f000000000000000000000000000000000000000000000000000000000000000081565b60035481565b600681565b7f000000000000000000000000000000000000000000000000000000000000000081565b60045481565b7f000000000000000000000000000000000000000000000000000000000000000081565b60065f9054906101000a900460ff1615611017576040517f5a919cd900000000000000000000000000000000000000000000000000000000815260040160405180910390fd5b600160065f6101000a81548160ff021916908315150217905550805f810361106b576040517f608294ac00000000000000000000000000000000000000000000000000000000815260040160405180910390fd5b5f60015f5f73ffffffffffffffffffffffffffffffffffffffff1673ffffffffffffffffffffffffffffffffffffffff1681526020019081526020015f205f3373ffffffffffffffffffffffffffffffffffffffff1673ffffffffffffffffffffffffffffffffffffffff1681526020019081526020015f2054905080831115611130575f81846040517f483b38f200000000000000000000000000000000000000000000000000000000815260040161112793929190611f98565b60405180910390fd5b5f61113b5f856115c1565b90507f00000000000000000000000000000000000000000000000000000000000000008111156111c457807f00000000000000000000000000000000000000000000000000000000000000006040517f299630490000000000000000000000000000000000000000000000000000000081526004016111bb929190611f71565b60405180910390fd5b6111d05f33865f611911565b60055f8154809291906111e290611f2a565b9190505550600354811161120357806003546111fe9190611fcd565b611205565b5f5b6003819055505f3373ffffffffffffffffffffffffffffffffffffffff16856040516112309061202d565b5f6040518083038185875af1925050503d805f811461126a576040519150601f19603f3d011682016040523d82523d5f602084013e61126f565b606091505b50509050806112b957335f866040517f31e6e4e10000000000000000000000000000000000000000000000000000000081526004016112b093929190611dd9565b60405180910390fd5b5f73ffffffffffffffffffffffffffffffffffffffff163373ffffffffffffffffffffffffffffffffffffffff167ff341246adaac6f497bc2a656f546ab9e182111d630394f0c57c710a59a2cb5678785604051611318929190611f71565b60405180910390a3505050505f60065f6101000a81548160ff02191690831515021790555050565b60065f9054906101000a900460ff1615611386576040517f5a919cd900000000000000000000000000000000000000000000000000000000815260040160405180910390fd5b600160065f6101000a81548160ff021916908315150217905550345f81036113da576040517f608294ac00000000000000000000000000000000000000000000000000000000815260040160405180910390fd5b5f6113e55f346115c1565b90507f0000000000000000000000000000000000000000000000000000000000000000816003546114169190611e9b565b111561147f57806003547f00000000000000000000000000000000000000000000000000000000000000006040517fcfe6749800000000000000000000000000000000000000000000000000000000815260040161147693929190611ef5565b60405180910390fd5b61148c5f33346001611911565b60045f81548092919061149e90611f2a565b91905055508060035f8282546114b49190611e9b565b925050819055505f73ffffffffffffffffffffffffffffffffffffffff163373ffffffffffffffffffffffffffffffffffffffff167fdcbc1c05240f31ff3ad067ef1ee35ce4997762752e3a095284754544f4c709d7348460405161151a929190611f71565b60405180910390a350505f60065f6101000a81548160ff021916908315150217905550565b5f60015f8473ffffffffffffffffffffffffffffffffffffffff1673ffffffffffffffffffffffffffffffffffffffff1681526020019081526020015f205f8373ffffffffffffffffffffffffffffffffffffffff1673ffffffffffffffffffffffffffffffffffffffff1681526020019081526020015f2054905092915050565b5f5f6115cc84611a3f565b90505f5f5f5f8473ffffffffffffffffffffffffffffffffffffffff1663feaf968c6040518163ffffffff1660e01b815260040160a060405180830381865afa15801561161b573d5f5f3e3d5ffd5b505050506040513d601f19601f8201168201806040525081019061163f91906120c7565b9450945050935093505f8573ffffffffffffffffffffffffffffffffffffffff1663313ce5676040518163ffffffff1660e01b8152600401602060405180830381865afa158015611692573d5f5f3e3d5ffd5b505050506040513d601f19601f820116820180604052508101906116b69190612168565b90505f8413611700578483836040517f043344810000000000000000000000000000000000000000000000000000000081526004016116f7939291906121a2565b60405180910390fd5b5f8303611748578483836040517f0433448100000000000000000000000000000000000000000000000000000000815260040161173f939291906121a2565b60405180910390fd5b8469ffffffffffffffffffff168269ffffffffffffffffffff1610156117a9578483836040517f043344810000000000000000000000000000000000000000000000000000000081526004016117a0939291906121a2565b60405180910390fd5b5f601290505f73ffffffffffffffffffffffffffffffffffffffff168a73ffffffffffffffffffffffffffffffffffffffff161461185c578973ffffffffffffffffffffffffffffffffffffffff1663313ce5676040518163ffffffff1660e01b8152600401602060405180830381865afa92505050801561184957506040513d601f19601f820116820180604052508101906118469190612168565b60015b611856576012905061185b565b809150505b5b5f898661186991906121d7565b90505f600660ff16848461187d9190612218565b60ff16106118ca57600684846118939190612218565b61189d919061224c565b60ff16905080600a6118af91906123af565b826118ba9190612426565b995050505050505050505061190b565b83836118d69190612218565b60066118e2919061224c565b60ff16905080600a6118f491906123af565b826118ff91906121d7565b99505050505050505050505b92915050565b80156119aa578160015f8673ffffffffffffffffffffffffffffffffffffffff1673ffffffffffffffffffffffffffffffffffffffff1681526020019081526020015f205f8573ffffffffffffffffffffffffffffffffffffffff1673ffffffffffffffffffffffffffffffffffffffff1681526020019081526020015f205f82825461199e9190611e9b565b92505081905550611a39565b8160015f8673ffffffffffffffffffffffffffffffffffffffff1673ffffffffffffffffffffffffffffffffffffffff1681526020019081526020015f205f8573ffffffffffffffffffffffffffffffffffffffff1673ffffffffffffffffffffffffffffffffffffffff1681526020019081526020015f205f828254611a319190611fcd565b925050819055505b50505050565b5f5f60025f8473ffffffffffffffffffffffffffffffffffffffff1673ffffffffffffffffffffffffffffffffffffffff1681526020019081526020015f205f9054906101000a900473ffffffffffffffffffffffffffffffffffffffff1690505f73ffffffffffffffffffffffffffffffffffffffff168173ffffffffffffffffffffffffffffffffffffffff1603611afc577f0000000000000000000000000000000000000000000000000000000000000000915050611b01565b809150505b919050565b5f5ffd5b5f73ffffffffffffffffffffffffffffffffffffffff82169050919050565b5f611b3382611b0a565b9050919050565b611b4381611b29565b8114611b4d575f5ffd5b50565b5f81359050611b5e81611b3a565b92915050565b5f60208284031215611b7957611b78611b06565b5b5f611b8684828501611b50565b91505092915050565b5f819050919050565b611ba181611b8f565b82525050565b5f602082019050611bba5f830184611b98565b92915050565b5f5f60408385031215611bd657611bd5611b06565b5b5f611be385828601611b50565b9250506020611bf485828601611b50565b9150509250929050565b611c0781611b29565b82525050565b5f602082019050611c205f830184611bfe565b92915050565b611c2f81611b8f565b8114611c39575f5ffd5b50565b5f81359050611c4a81611c26565b92915050565b5f5f60408385031215611c6657611c65611b06565b5b5f611c7385828601611b50565b9250506020611c8485828601611c3c565b9150509250929050565b5f819050919050565b5f611cb1611cac611ca784611b0a565b611c8e565b611b0a565b9050919050565b5f611cc282611c97565b9050919050565b5f611cd382611cb8565b9050919050565b611ce381611cc9565b82525050565b5f602082019050611cfc5f830184611cda565b92915050565b5f60ff82169050919050565b611d1781611d02565b82525050565b5f602082019050611d305f830184611d0e565b92915050565b5f60208284031215611d4b57611d4a611b06565b5b5f611d5884828501611c3c565b91505092915050565b5f82825260208201905092915050565b7f7a65726f206f776e6572000000000000000000000000000000000000000000005f82015250565b5f611da5600a83611d61565b9150611db082611d71565b602082019050919050565b5f6020820190508181035f830152611dd281611d99565b9050919050565b5f606082019050611dec5f830186611bfe565b611df96020830185611bfe565b611e066040830184611b98565b949350505050565b5f8115159050919050565b611e2281611e0e565b8114611e2c575f5ffd5b50565b5f81519050611e3d81611e19565b92915050565b5f60208284031215611e5857611e57611b06565b5b5f611e6584828501611e2f565b91505092915050565b7f4e487b71000000000000000000000000000000000000000000000000000000005f52601160045260245ffd5b5f611ea582611b8f565b9150611eb083611b8f565b9250828201905080821115611ec857611ec7611e6e565b5b92915050565b5f604082019050611ee15f830185611bfe565b611eee6020830184611b98565b9392505050565b5f606082019050611f085f830186611b98565b611f156020830185611b98565b611f226040830184611b98565b949350505050565b5f611f3482611b8f565b91507fffffffffffffffffffffffffffffffffffffffffffffffffffffffffffffffff8203611f6657611f65611e6e565b5b600182019050919050565b5f604082019050611f845f830185611b98565b611f916020830184611b98565b9392505050565b5f606082019050611fab5f830186611bfe565b611fb86020830185611b98565b611fc56040830184611b98565b949350505050565b5f611fd782611b8f565b9150611fe283611b8f565b9250828203905081811115611ffa57611ff9611e6e565b5b92915050565b5f81905092915050565b50565b5f6120185f83612000565b91506120238261200a565b5f82019050919050565b5f6120378261200d565b9150819050919050565b5f69ffffffffffffffffffff82169050919050565b61205f81612041565b8114612069575f5ffd5b50565b5f8151905061207a81612056565b92915050565b5f819050919050565b61209281612080565b811461209c575f5ffd5b50565b5f815190506120ad81612089565b92915050565b5f815190506120c181611c26565b92915050565b5f5f5f5f5f60a086880312156120e0576120df611b06565b5b5f6120ed8882890161206c565b95505060206120fe8882890161209f565b945050604061210f888289016120b3565b9350506060612120888289016120b3565b92505060806121318882890161206c565b9150509295509295909350565b61214781611d02565b8114612151575f5ffd5b50565b5f815190506121628161213e565b92915050565b5f6020828403121561217d5761217c611b06565b5b5f61218a84828501612154565b91505092915050565b61219c81612041565b82525050565b5f6060820190506121b55f830186612193565b6121c26020830185611b98565b6121cf6040830184612193565b949350505050565b5f6121e182611b8f565b91506121ec83611b8f565b92508282026121fa81611b8f565b9150828204841483151761221157612210611e6e565b5b5092915050565b5f61222282611d02565b915061222d83611d02565b9250828201905060ff81111561224657612245611e6e565b5b92915050565b5f61225682611d02565b915061226183611d02565b9250828203905060ff81111561227a57612279611e6e565b5b92915050565b5f8160011c9050919050565b5f5f8291508390505b60018511156122d5578086048111156122b1576122b0611e6e565b5b60018516156122c05780820291505b80810290506122ce85612280565b9450612295565b94509492505050565b5f826122ed57600190506123a8565b816122fa575f90506123a8565b8160018114612310576002811461231a57612349565b60019150506123a8565b60ff84111561232c5761232b611e6e565b5b8360020a91508482111561234357612342611e6e565b5b506123a8565b5060208310610133831016604e8410600b841016171561237e5782820a90508381111561237957612378611e6e565b5b6123a8565b61238b848484600161228c565b925090508184048111156123a2576123a1611e6e565b5b81810290505b9392505050565b5f6123b982611b8f565b91506123c483611b8f565b92506123f17fffffffffffffffffffffffffffffffffffffffffffffffffffffffffffffffff84846122de565b905092915050565b7f4e487b71000000000000000000000000000000000000000000000000000000005f52601260045260245ffd5b5f61243082611b8f565b915061243b83611b8f565b92508261244b5761244a6123f9565b5b82820490509291505056fea26469706673582212204c76a4c31eed04ba2c0246b57215546081ecb75c0a443a8a8f86880f354d723b64736f6c634300081e0033",
			"opcodes": "PUSH1 0xE0 PUSH1 0x40 MSTORE CALLVALUE DUP1 ISZERO PUSH2 0xF JUMPI PUSH0 PUSH0 REVERT JUMPDEST POP PUSH1 0x40 MLOAD PUSH2 0x270C CODESIZE SUB DUP1 PUSH2 0x270C DUP4 CODECOPY DUP2 DUP2 ADD PUSH1 0x40 MSTORE DUP2 ADD SWAP1 PUSH2 0x31 SWAP2 SWAP1 PUSH2 0x1C7 JUMP JUMPDEST PUSH0 DUP4 EQ DUP1 PUSH2 0x3E JUMPI POP PUSH0 DUP3 EQ JUMPDEST DUP1 PUSH2 0x74 JUMPI POP PUSH0 PUSH20 0xFFFFFFFFFFFFFFFFFFFFFFFFFFFFFFFFFFFFFFFF AND DUP2 PUSH20 0xFFFFFFFFFFFFFFFFFFFFFFFFFFFFFFFFFFFFFFFF AND EQ JUMPDEST ISZERO PUSH2 0xAB JUMPI PUSH1 0x40 MLOAD PUSH32 0x1510B77F00000000000000000000000000000000000000000000000000000000 DUP2 MSTORE PUSH1 0x4 ADD PUSH1 0x40 MLOAD DUP1 SWAP2 SUB SWAP1 REVERT JUMPDEST CALLER PUSH0 PUSH0 PUSH2 0x100 EXP DUP2 SLOAD DUP2 PUSH20 0xFFFFFFFFFFFFFFFFFFFFFFFFFFFFFFFFFFFFFFFF MUL NOT AND SWAP1 DUP4 PUSH20 0xFFFFFFFFFFFFFFFFFFFFFFFFFFFFFFFFFFFFFFFF AND MUL OR SWAP1 SSTORE POP DUP3 PUSH1 0x80 DUP2 DUP2 MSTORE POP POP DUP2 PUSH1 0xA0 DUP2 DUP2 MSTORE POP POP DUP1 PUSH20 0xFFFFFFFFFFFFFFFFFFFFFFFFFFFFFFFFFFFFFFFF AND PUSH1 0xC0 DUP2 PUSH20 0xFFFFFFFFFFFFFFFFFFFFFFFFFFFFFFFFFFFFFFFF AND DUP2 MSTORE POP POP POP POP POP PUSH2 0x217 JUMP JUMPDEST PUSH0 PUSH0 REVERT JUMPDEST PUSH0 DUP2 SWAP1 POP SWAP2 SWAP1 POP JUMP JUMPDEST PUSH2 0x14C DUP2 PUSH2 0x13A JUMP JUMPDEST DUP2 EQ PUSH2 0x156 JUMPI PUSH0 PUSH0 REVERT JUMPDEST POP JUMP JUMPDEST PUSH0 DUP2 MLOAD SWAP1 POP PUSH2 0x167 DUP2 PUSH2 0x143 JUMP JUMPDEST SWAP3 SWAP2 POP POP JUMP JUMPDEST PUSH0 PUSH20 0xFFFFFFFFFFFFFFFFFFFFFFFFFFFFFFFFFFFFFFFF DUP3 AND SWAP1 POP SWAP2 SWAP1 POP JUMP JUMPDEST PUSH0 PUSH2 0x196 DUP3 PUSH2 0x16D JUMP JUMPDEST SWAP1 POP SWAP2 SWAP1 POP JUMP JUMPDEST PUSH2 0x1A6 DUP2 PUSH2 0x18C JUMP JUMPDEST DUP2 EQ PUSH2 0x1B0 JUMPI PUSH0 PUSH0 REVERT JUMPDEST POP JUMP JUMPDEST PUSH0 DUP2 MLOAD SWAP1 POP PUSH2 0x1C1 DUP2 PUSH2 0x19D JUMP JUMPDEST SWAP3 SWAP2 POP POP JUMP JUMPDEST PUSH0 PUSH0 PUSH0 PUSH1 0x60 DUP5 DUP7 SUB SLT ISZERO PUSH2 0x1DE JUMPI PUSH2 0x1DD PUSH2 0x136 JUMP JUMPDEST JUMPDEST PUSH0 PUSH2 0x1EB DUP7 DUP3 DUP8 ADD PUSH2 0x159 JUMP JUMPDEST SWAP4 POP POP PUSH1 0x20 PUSH2 0x1FC DUP7 DUP3 DUP8 ADD PUSH2 0x159 JUMP JUMPDEST SWAP3 POP POP PUSH1 0x40 PUSH2 0x20D DUP7 DUP3 DUP8 ADD PUSH2 0x1B3 JUMP JUMPDEST SWAP2 POP POP SWAP3 POP SWAP3 POP SWAP3 JUMP JUMPDEST PUSH1 0x80 MLOAD PUSH1 0xA0 MLOAD PUSH1 0xC0 MLOAD PUSH2 0x248C PUSH2 0x280 PUSH0 CODECOPY PUSH0 DUP2 DUP2 PUSH2 0xF85 ADD MSTORE PUSH2 0x1AD5 ADD MSTORE PUSH0 DUP2 DUP2 PUSH2 0xD3C ADD MSTORE DUP2 DUP2 PUSH2 0xD65 ADD MSTORE DUP2 DUP2 PUSH2 0xFAF ADD MSTORE DUP2 DUP2 PUSH2 0x113F ADD MSTORE PUSH2 0x1168 ADD MSTORE PUSH0 DUP2 DUP2 PUSH2 0x9C8 ADD MSTORE DUP2 DUP2 PUSH2 0xA7D ADD MSTORE DUP2 DUP2 PUSH2 0xF56 ADD MSTORE DUP2 DUP2 PUSH2 0x13E9 ADD MSTORE PUSH2 0x1422 ADD MSTORE PUSH2 0x248C PUSH0 RETURN INVALID PUSH1 0x80 PUSH1 0x40 MSTORE PUSH1 0x4 CALLDATASIZE LT PUSH2 0xF6 JUMPI PUSH0 CALLDATALOAD PUSH1 0xE0 SHR DUP1 PUSH4 0xB7B0FFD8 GT PUSH2 0x89 JUMPI DUP1 PUSH4 0xE243DF20 GT PUSH2 0x58 JUMPI DUP1 PUSH4 0xE243DF20 EQ PUSH2 0x35B JUMPI DUP1 PUSH4 0xF14210A6 EQ PUSH2 0x385 JUMPI DUP1 PUSH4 0xF6326FB3 EQ PUSH2 0x3AD JUMPI DUP1 PUSH4 0xF7888AEC EQ PUSH2 0x3B7 JUMPI PUSH2 0x155 JUMP JUMPDEST DUP1 PUSH4 0xB7B0FFD8 EQ PUSH2 0x2B3 JUMPI DUP1 PUSH4 0xBE406E6C EQ PUSH2 0x2DD JUMPI DUP1 PUSH4 0xC1636BC9 EQ PUSH2 0x307 JUMPI DUP1 PUSH4 0xD6343867 EQ PUSH2 0x331 JUMPI PUSH2 0x155 JUMP JUMPDEST DUP1 PUSH4 0x97FEB926 GT PUSH2 0xC5 JUMPI DUP1 PUSH4 0x97FEB926 EQ PUSH2 0x1FD JUMPI DUP1 PUSH4 0x9DCB511A EQ PUSH2 0x225 JUMPI DUP1 PUSH4 0xA1DB9782 EQ PUSH2 0x261 JUMPI DUP1 PUSH4 0xAC4543BA EQ PUSH2 0x289 JUMPI PUSH2 0x155 JUMP JUMPDEST DUP1 PUSH4 0x13AF4035 EQ PUSH2 0x159 JUMPI DUP1 PUSH4 0x503E7042 EQ PUSH2 0x181 JUMPI DUP1 PUSH4 0x76E11286 EQ PUSH2 0x1AB JUMPI DUP1 PUSH4 0x8DA5CB5B EQ PUSH2 0x1D3 JUMPI PUSH2 0x155 JUMP JUMPDEST CALLDATASIZE PUSH2 0x155 JUMPI ADDRESS PUSH20 0xFFFFFFFFFFFFFFFFFFFFFFFFFFFFFFFFFFFFFFFF AND PUSH4 0xF6326FB3 CALLVALUE PUSH1 0x40 MLOAD DUP3 PUSH4 0xFFFFFFFF AND PUSH1 0xE0 SHL DUP2 MSTORE PUSH1 0x4 ADD PUSH0 PUSH1 0x40 MLOAD DUP1 DUP4 SUB DUP2 DUP6 DUP9 DUP1 EXTCODESIZE ISZERO DUP1 ISZERO PUSH2 0x141 JUMPI PUSH0 PUSH0 REVERT JUMPDEST POP GAS CALL ISZERO DUP1 ISZERO PUSH2 0x153 JUMPI RETURNDATASIZE PUSH0 PUSH0 RETURNDATACOPY RETURNDATASIZE PUSH0 REVERT JUMPDEST STOP JUMPDEST PUSH0 PUSH0 REVERT JUMPDEST CALLVALUE DUP1 ISZERO PUSH2 0x164 JUMPI PUSH0 PUSH0 REVERT JUMPDEST POP PUSH2 0x17F PUSH1 0x4 DUP1 CALLDATASIZE SUB DUP2 ADD SWAP1 PUSH2 0x17A SWAP2 SWAP1 PUSH2 0x1B64 JUMP JUMPDEST PUSH2 0x3F3 JUMP JUMPDEST STOP JUMPDEST CALLVALUE DUP1 ISZERO PUSH2 0x18C JUMPI PUSH0 PUSH0 REVERT JUMPDEST POP PUSH2 0x195 PUSH2 0x5A7 JUMP JUMPDEST PUSH1 0x40 MLOAD PUSH2 0x1A2 SWAP2 SWAP1 PUSH2 0x1BA7 JUMP JUMPDEST PUSH1 0x40 MLOAD DUP1 SWAP2 SUB SWAP1 RETURN JUMPDEST CALLVALUE DUP1 ISZERO PUSH2 0x1B6 JUMPI PUSH0 PUSH0 REVERT JUMPDEST POP PUSH2 0x1D1 PUSH1 0x4 DUP1 CALLDATASIZE SUB DUP2 ADD SWAP1 PUSH2 0x1CC SWAP2 SWAP1 PUSH2 0x1BC0 JUMP JUMPDEST PUSH2 0x5AD JUMP JUMPDEST STOP JUMPDEST CALLVALUE DUP1 ISZERO PUSH2 0x1DE JUMPI PUSH0 PUSH0 REVERT JUMPDEST POP PUSH2 0x1E7 PUSH2 0x70B JUMP JUMPDEST PUSH1 0x40 MLOAD PUSH2 0x1F4 SWAP2 SWAP1 PUSH2 0x1C0D JUMP JUMPDEST PUSH1 0x40 MLOAD DUP1 SWAP2 SUB SWAP1 RETURN JUMPDEST CALLVALUE DUP1 ISZERO PUSH2 0x208 JUMPI PUSH0 PUSH0 REVERT JUMPDEST POP PUSH2 0x223 PUSH1 0x4 DUP1 CALLDATASIZE SUB DUP2 ADD SWAP1 PUSH2 0x21E SWAP2 SWAP1 PUSH2 0x1C50 JUMP JUMPDEST PUSH2 0x72F JUMP JUMPDEST STOP JUMPDEST CALLVALUE DUP1 ISZERO PUSH2 0x230 JUMPI PUSH0 PUSH0 REVERT JUMPDEST POP PUSH2 0x24B PUSH1 0x4 DUP1 CALLDATASIZE SUB DUP2 ADD SWAP1 PUSH2 0x246 SWAP2 SWAP1 PUSH2 0x1B64 JUMP JUMPDEST PUSH2 0xB9E JUMP JUMPDEST PUSH1 0x40 MLOAD PUSH2 0x258 SWAP2 SWAP1 PUSH2 0x1CE9 JUMP JUMPDEST PUSH1 0x40 MLOAD DUP1 SWAP2 SUB SWAP1 RETURN JUMPDEST CALLVALUE DUP1 ISZERO PUSH2 0x26C JUMPI PUSH0 PUSH0 REVERT JUMPDEST POP PUSH2 0x287 PUSH1 0x4 DUP1 CALLDATASIZE SUB DUP2 ADD SWAP1 PUSH2 0x282 SWAP2 SWAP1 PUSH2 0x1C50 JUMP JUMPDEST PUSH2 0xBCE JUMP JUMPDEST STOP JUMPDEST CALLVALUE DUP1 ISZERO PUSH2 0x294 JUMPI PUSH0 PUSH0 REVERT JUMPDEST POP PUSH2 0x29D PUSH2 0xF54 JUMP JUMPDEST PUSH1 0x40 MLOAD PUSH2 0x2AA SWAP2 SWAP1 PUSH2 0x1BA7 JUMP JUMPDEST PUSH1 0x40 MLOAD DUP1 SWAP2 SUB SWAP1 RETURN JUMPDEST CALLVALUE DUP1 ISZERO PUSH2 0x2BE JUMPI PUSH0 PUSH0 REVERT JUMPDEST POP PUSH2 0x2C7 PUSH2 0xF78 JUMP JUMPDEST PUSH1 0x40 MLOAD PUSH2 0x2D4 SWAP2 SWAP1 PUSH2 0x1BA7 JUMP JUMPDEST PUSH1 0x40 MLOAD DUP1 SWAP2 SUB SWAP1 RETURN JUMPDEST CALLVALUE DUP1 ISZERO PUSH2 0x2E8 JUMPI PUSH0 PUSH0 REVERT JUMPDEST POP PUSH2 0x2F1 PUSH2 0xF7E JUMP JUMPDEST PUSH1 0x40 MLOAD PUSH2 0x2FE SWAP2 SWAP1 PUSH2 0x1D1D JUMP JUMPDEST PUSH1 0x40 MLOAD DUP1 SWAP2 SUB SWAP1 RETURN JUMPDEST CALLVALUE DUP1 ISZERO PUSH2 0x312 JUMPI PUSH0 PUSH0 REVERT JUMPDEST POP PUSH2 0x31B PUSH2 0xF83 JUMP JUMPDEST PUSH1 0x40 MLOAD PUSH2 0x328 SWAP2 SWAP1 PUSH2 0x1CE9 JUMP JUMPDEST PUSH1 0x40 MLOAD DUP1 SWAP2 SUB SWAP1 RETURN JUMPDEST CALLVALUE DUP1 ISZERO PUSH2 0x33C JUMPI PUSH0 PUSH0 REVERT JUMPDEST POP PUSH2 0x345 PUSH2 0xFA7 JUMP JUMPDEST PUSH1 0x40 MLOAD PUSH2 0x352 SWAP2 SWAP1 PUSH2 0x1BA7 JUMP JUMPDEST PUSH1 0x40 MLOAD DUP1 SWAP2 SUB SWAP1 RETURN JUMPDEST CALLVALUE DUP1 ISZERO PUSH2 0x366 JUMPI PUSH0 PUSH0 REVERT JUMPDEST POP PUSH2 0x36F PUSH2 0xFAD JUMP JUMPDEST PUSH1 0x40 MLOAD PUSH2 0x37C SWAP2 SWAP1 PUSH2 0x1BA7 JUMP JUMPDEST PUSH1 0x40 MLOAD DUP1 SWAP2 SUB SWAP1 RETURN JUMPDEST CALLVALUE DUP1 ISZERO PUSH2 0x390 JUMPI PUSH0 PUSH0 REVERT JUMPDEST POP PUSH2 0x3AB PUSH1 0x4 DUP1 CALLDATASIZE SUB DUP2 ADD SWAP1 PUSH2 0x3A6 SWAP2 SWAP1 PUSH2 0x1D36 JUMP JUMPDEST PUSH2 0xFD1 JUMP JUMPDEST STOP JUMPDEST PUSH2 0x3B5 PUSH2 0x1340 JUMP JUMPDEST STOP JUMPDEST CALLVALUE DUP1 ISZERO PUSH2 0x3C2 JUMPI PUSH0 PUSH0 REVERT JUMPDEST POP PUSH2 0x3DD PUSH1 0x4 DUP1 CALLDATASIZE SUB DUP2 ADD SWAP1 PUSH2 0x3D8 SWAP2 SWAP1 PUSH2 0x1BC0 JUMP JUMPDEST PUSH2 0x153F JUMP JUMPDEST PUSH1 0x40 MLOAD PUSH2 0x3EA SWAP2 SWAP1 PUSH2 0x1BA7 JUMP JUMPDEST PUSH1 0x40 MLOAD DUP1 SWAP2 SUB SWAP1 RETURN JUMPDEST PUSH0 PUSH0 SWAP1 SLOAD SWAP1 PUSH2 0x100 EXP SWAP1 DIV PUSH20 0xFFFFFFFFFFFFFFFFFFFFFFFFFFFFFFFFFFFFFFFF AND PUSH20 0xFFFFFFFFFFFFFFFFFFFFFFFFFFFFFFFFFFFFFFFF AND CALLER PUSH20 0xFFFFFFFFFFFFFFFFFFFFFFFFFFFFFFFFFFFFFFFF AND EQ PUSH2 0x478 JUMPI PUSH1 0x40 MLOAD PUSH32 0xCC12CEF600000000000000000000000000000000000000000000000000000000 DUP2 MSTORE PUSH1 0x4 ADD PUSH1 0x40 MLOAD DUP1 SWAP2 SUB SWAP1 REVERT JUMPDEST PUSH0 PUSH20 0xFFFFFFFFFFFFFFFFFFFFFFFFFFFFFFFFFFFFFFFF AND DUP2 PUSH20 0xFFFFFFFFFFFFFFFFFFFFFFFFFFFFFFFFFFFFFFFF AND SUB PUSH2 0x4E6 JUMPI PUSH1 0x40 MLOAD PUSH32 0x8C379A000000000000000000000000000000000000000000000000000000000 DUP2 MSTORE PUSH1 0x4 ADD PUSH2 0x4DD SWAP1 PUSH2 0x1DBB JUMP JUMPDEST PUSH1 0x40 MLOAD DUP1 SWAP2 SUB SWAP1 REVERT JUMPDEST PUSH0 PUSH0 PUSH0 SWAP1 SLOAD SWAP1 PUSH2 0x100 EXP SWAP1 DIV PUSH20 0xFFFFFFFFFFFFFFFFFFFFFFFFFFFFFFFFFFFFFFFF AND SWAP1 POP DUP2 PUSH0 PUSH0 PUSH2 0x100 EXP DUP2 SLOAD DUP2 PUSH20 0xFFFFFFFFFFFFFFFFFFFFFFFFFFFFFFFFFFFFFFFF MUL NOT AND SWAP1 DUP4 PUSH20 0xFFFFFFFFFFFFFFFFFFFFFFFFFFFFFFFFFFFFFFFF AND MUL OR SWAP1 SSTORE POP DUP2 PUSH20 0xFFFFFFFFFFFFFFFFFFFFFFFFFFFFFFFFFFFFFFFF AND DUP2 PUSH20 0xFFFFFFFFFFFFFFFFFFFFFFFFFFFFFFFFFFFFFFFF AND PUSH32 0xB532073B38C83145E3E5135377A08BF9AAB55BC0FD7C1179CD4FB995D2A5159C PUSH1 0x40 MLOAD PUSH1 0x40 MLOAD DUP1 SWAP2 SUB SWAP1 LOG3 POP POP JUMP JUMPDEST PUSH1 0x5 SLOAD DUP2 JUMP JUMPDEST PUSH0 PUSH0 SWAP1 SLOAD SWAP1 PUSH2 0x100 EXP SWAP1 DIV PUSH20 0xFFFFFFFFFFFFFFFFFFFFFFFFFFFFFFFFFFFFFFFF AND PUSH20 0xFFFFFFFFFFFFFFFFFFFFFFFFFFFFFFFFFFFFFFFF AND CALLER PUSH20 0xFFFFFFFFFFFFFFFFFFFFFFFFFFFFFFFFFFFFFFFF AND EQ PUSH2 0x632 JUMPI PUSH1 0x40 MLOAD PUSH32 0xCC12CEF600000000000000000000000000000000000000000000000000000000 DUP2 MSTORE PUSH1 0x4 ADD PUSH1 0x40 MLOAD DUP1 SWAP2 SUB SWAP1 REVERT JUMPDEST DUP1 PUSH1 0x2 PUSH0 DUP5 PUSH20 0xFFFFFFFFFFFFFFFFFFFFFFFFFFFFFFFFFFFFFFFF AND PUSH20 0xFFFFFFFFFFFFFFFFFFFFFFFFFFFFFFFFFFFFFFFF AND DUP2 MSTORE PUSH1 0x20 ADD SWAP1 DUP2 MSTORE PUSH1 0x20 ADD PUSH0 KECCAK256 PUSH0 PUSH2 0x100 EXP DUP2 SLOAD DUP2 PUSH20 0xFFFFFFFFFFFFFFFFFFFFFFFFFFFFFFFFFFFFFFFF MUL NOT AND SWAP1 DUP4 PUSH20 0xFFFFFFFFFFFFFFFFFFFFFFFFFFFFFFFFFFFFFFFF AND MUL OR SWAP1 SSTORE POP DUP1 PUSH20 0xFFFFFFFFFFFFFFFFFFFFFFFFFFFFFFFFFFFFFFFF AND DUP3 PUSH20 0xFFFFFFFFFFFFFFFFFFFFFFFFFFFFFFFFFFFFFFFF AND PUSH32 0xD2D8394CF7549A5DDBC2BA3DD7B2DE8D53C891472D1F2907008ED6A10045FDAE PUSH1 0x40 MLOAD PUSH1 0x40 MLOAD DUP1 SWAP2 SUB SWAP1 LOG3 POP POP JUMP JUMPDEST PUSH0 PUSH0 SWAP1 SLOAD SWAP1 PUSH2 0x100 EXP SWAP1 DIV PUSH20 0xFFFFFFFFFFFFFFFFFFFFFFFFFFFFFFFFFFFFFFFF AND DUP2 JUMP JUMPDEST PUSH1 0x6 PUSH0 SWAP1 SLOAD SWAP1 PUSH2 0x100 EXP SWAP1 DIV PUSH1 0xFF AND ISZERO PUSH2 0x775 JUMPI PUSH1 0x40 MLOAD PUSH32 0x5A919CD900000000000000000000000000000000000000000000000000000000 DUP2 MSTORE PUSH1 0x4 ADD PUSH1 0x40 MLOAD DUP1 SWAP2 SUB SWAP1 REVERT JUMPDEST PUSH1 0x1 PUSH1 0x6 PUSH0 PUSH2 0x100 EXP DUP2 SLOAD DUP2 PUSH1 0xFF MUL NOT AND SWAP1 DUP4 ISZERO ISZERO MUL OR SWAP1 SSTORE POP DUP1 PUSH0 DUP2 SUB PUSH2 0x7C9 JUMPI PUSH1 0x40 MLOAD PUSH32 0x608294AC00000000000000000000000000000000000000000000000000000000 DUP2 MSTORE PUSH1 0x4 ADD PUSH1 0x40 MLOAD DUP1 SWAP2 SUB SWAP1 REVERT JUMPDEST PUSH0 PUSH20 0xFFFFFFFFFFFFFFFFFFFFFFFFFFFFFFFFFFFFFFFF AND DUP4 PUSH20 0xFFFFFFFFFFFFFFFFFFFFFFFFFFFFFFFFFFFFFFFF AND SUB PUSH2 0x82E JUMPI PUSH1 0x40 MLOAD PUSH32 0x608294AC00000000000000000000000000000000000000000000000000000000 DUP2 MSTORE PUSH1 0x4 ADD PUSH1 0x40 MLOAD DUP1 SWAP2 SUB SWAP1 REVERT JUMPDEST PUSH0 PUSH1 0x2 PUSH0 DUP6 PUSH20 0xFFFFFFFFFFFFFFFFFFFFFFFFFFFFFFFFFFFFFFFF AND PUSH20 0xFFFFFFFFFFFFFFFFFFFFFFFFFFFFFFFFFFFFFFFF AND DUP2 MSTORE PUSH1 0x20 ADD SWAP1 DUP2 MSTORE PUSH1 0x20 ADD PUSH0 KECCAK256 PUSH0 SWAP1 SLOAD SWAP1 PUSH2 0x100 EXP SWAP1 DIV PUSH20 0xFFFFFFFFFFFFFFFFFFFFFFFFFFFFFFFFFFFFFFFF AND SWAP1 POP PUSH0 PUSH20 0xFFFFFFFFFFFFFFFFFFFFFFFFFFFFFFFFFFFFFFFF AND DUP2 PUSH20 0xFFFFFFFFFFFFFFFFFFFFFFFFFFFFFFFFFFFFFFFF AND SUB PUSH2 0x8F3 JUMPI PUSH1 0x40 MLOAD PUSH32 0xCC12CEF600000000000000000000000000000000000000000000000000000000 DUP2 MSTORE PUSH1 0x4 ADD PUSH1 0x40 MLOAD DUP1 SWAP2 SUB SWAP1 REVERT JUMPDEST PUSH0 DUP5 PUSH20 0xFFFFFFFFFFFFFFFFFFFFFFFFFFFFFFFFFFFFFFFF AND PUSH4 0x23B872DD CALLER ADDRESS DUP8 PUSH1 0x40 MLOAD DUP5 PUSH4 0xFFFFFFFF AND PUSH1 0xE0 SHL DUP2 MSTORE PUSH1 0x4 ADD PUSH2 0x931 SWAP4 SWAP3 SWAP2 SWAP1 PUSH2 0x1DD9 JUMP JUMPDEST PUSH1 0x20 PUSH1 0x40 MLOAD DUP1 DUP4 SUB DUP2 PUSH0 DUP8 GAS CALL ISZERO DUP1 ISZERO PUSH2 0x94D JUMPI RETURNDATASIZE PUSH0 PUSH0 RETURNDATACOPY RETURNDATASIZE PUSH0 REVERT JUMPDEST POP POP POP POP PUSH1 0x40 MLOAD RETURNDATASIZE PUSH1 0x1F NOT PUSH1 0x1F DUP3 ADD AND DUP3 ADD DUP1 PUSH1 0x40 MSTORE POP DUP2 ADD SWAP1 PUSH2 0x971 SWAP2 SWAP1 PUSH2 0x1E43 JUMP JUMPDEST SWAP1 POP DUP1 PUSH2 0x9B9 JUMPI CALLER DUP6 DUP6 PUSH1 0x40 MLOAD PUSH32 0x31E6E4E100000000000000000000000000000000000000000000000000000000 DUP2 MSTORE PUSH1 0x4 ADD PUSH2 0x9B0 SWAP4 SWAP3 SWAP2 SWAP1 PUSH2 0x1DD9 JUMP JUMPDEST PUSH1 0x40 MLOAD DUP1 SWAP2 SUB SWAP1 REVERT JUMPDEST PUSH0 PUSH2 0x9C4 DUP7 DUP7 PUSH2 0x15C1 JUMP JUMPDEST SWAP1 POP PUSH32 0x0 DUP2 PUSH1 0x3 SLOAD PUSH2 0x9F5 SWAP2 SWAP1 PUSH2 0x1E9B JUMP JUMPDEST GT ISZERO PUSH2 0xADA JUMPI DUP6 PUSH20 0xFFFFFFFFFFFFFFFFFFFFFFFFFFFFFFFFFFFFFFFF AND PUSH4 0xA9059CBB CALLER DUP8 PUSH1 0x40 MLOAD DUP4 PUSH4 0xFFFFFFFF AND PUSH1 0xE0 SHL DUP2 MSTORE PUSH1 0x4 ADD PUSH2 0xA36 SWAP3 SWAP2 SWAP1 PUSH2 0x1ECE JUMP JUMPDEST PUSH1 0x20 PUSH1 0x40 MLOAD DUP1 DUP4 SUB DUP2 PUSH0 DUP8 GAS CALL ISZERO DUP1 ISZERO PUSH2 0xA52 JUMPI RETURNDATASIZE PUSH0 PUSH0 RETURNDATACOPY RETURNDATASIZE PUSH0 REVERT JUMPDEST POP POP POP POP PUSH1 0x40 MLOAD RETURNDATASIZE PUSH1 0x1F NOT PUSH1 0x1F DUP3 ADD AND DUP3 ADD DUP1 PUSH1 0x40 MSTORE POP DUP2 ADD SWAP1 PUSH2 0xA76 SWAP2 SWAP1 PUSH2 0x1E43 JUMP JUMPDEST POP DUP1 PUSH1 0x3 SLOAD PUSH32 0x0 PUSH1 0x40 MLOAD PUSH32 0xCFE6749800000000000000000000000000000000000000000000000000000000 DUP2 MSTORE PUSH1 0x4 ADD PUSH2 0xAD1 SWAP4 SWAP3 SWAP2 SWAP1 PUSH2 0x1EF5 JUMP JUMPDEST PUSH1 0x40 MLOAD DUP1 SWAP2 SUB SWAP1 REVERT JUMPDEST PUSH2 0xAE7 DUP7 CALLER DUP8 PUSH1 0x1 PUSH2 0x1911 JUMP JUMPDEST PUSH1 0x4 PUSH0 DUP2 SLOAD DUP1 SWAP3 SWAP2 SWAP1 PUSH2 0xAF9 SWAP1 PUSH2 0x1F2A JUMP JUMPDEST SWAP2 SWAP1 POP SSTORE POP DUP1 PUSH1 0x3 PUSH0 DUP3 DUP3 SLOAD PUSH2 0xB0F SWAP2 SWAP1 PUSH2 0x1E9B JUMP JUMPDEST SWAP3 POP POP DUP2 SWAP1 SSTORE POP DUP6 PUSH20 0xFFFFFFFFFFFFFFFFFFFFFFFFFFFFFFFFFFFFFFFF AND CALLER PUSH20 0xFFFFFFFFFFFFFFFFFFFFFFFFFFFFFFFFFFFFFFFF AND PUSH32 0xDCBC1C05240F31FF3AD067EF1EE35CE4997762752E3A095284754544F4C709D7 DUP8 DUP5 PUSH1 0x40 MLOAD PUSH2 0xB75 SWAP3 SWAP2 SWAP1 PUSH2 0x1F71 JUMP JUMPDEST PUSH1 0x40 MLOAD DUP1 SWAP2 SUB SWAP1 LOG3 POP POP POP POP PUSH0 PUSH1 0x6 PUSH0 PUSH2 0x100 EXP DUP2 SLOAD DUP2 PUSH1 0xFF MUL NOT AND SWAP1 DUP4 ISZERO ISZERO MUL OR SWAP1 SSTORE POP POP POP JUMP JUMPDEST PUSH1 0x2 PUSH1 0x20 MSTORE DUP1 PUSH0 MSTORE PUSH1 0x40 PUSH0 KECCAK256 PUSH0 SWAP2 POP SLOAD SWAP1 PUSH2 0x100 EXP SWAP1 DIV PUSH20 0xFFFFFFFFFFFFFFFFFFFFFFFFFFFFFFFFFFFFFFFF AND DUP2 JUMP JUMPDEST PUSH1 0x6 PUSH0 SWAP1 SLOAD SWAP1 PUSH2 0x100 EXP SWAP1 DIV PUSH1 0xFF AND ISZERO PUSH2 0xC14 JUMPI PUSH1 0x40 MLOAD PUSH32 0x5A919CD900000000000000000000000000000000000000000000000000000000 DUP2 MSTORE PUSH1 0x4 ADD PUSH1 0x40 MLOAD DUP1 SWAP2 SUB SWAP1 REVERT JUMPDEST PUSH1 0x1 PUSH1 0x6 PUSH0 PUSH2 0x100 EXP DUP2 SLOAD DUP2 PUSH1 0xFF MUL NOT AND SWAP1 DUP4 ISZERO ISZERO MUL OR SWAP1 SSTORE POP DUP1 PUSH0 DUP2 SUB PUSH2 0xC68 JUMPI PUSH1 0x40 MLOAD PUSH32 0x608294AC00000000000000000000000000000000000000000000000000000000 DUP2 MSTORE PUSH1 0x4 ADD PUSH1 0x40 MLOAD DUP1 SWAP2 SUB SWAP1 REVERT JUMPDEST PUSH0 PUSH1 0x1 PUSH0 DUP6 PUSH20 0xFFFFFFFFFFFFFFFFFFFFFFFFFFFFFFFFFFFFFFFF AND PUSH20 0xFFFFFFFFFFFFFFFFFFFFFFFFFFFFFFFFFFFFFFFF AND DUP2 MSTORE PUSH1 0x20 ADD SWAP1 DUP2 MSTORE PUSH1 0x20 ADD PUSH0 KECCAK256 PUSH0 CALLER PUSH20 0xFFFFFFFFFFFFFFFFFFFFFFFFFFFFFFFFFFFFFFFF AND PUSH20 0xFFFFFFFFFFFFFFFFFFFFFFFFFFFFFFFFFFFFFFFF AND DUP2 MSTORE PUSH1 0x20 ADD SWAP1 DUP2 MSTORE PUSH1 0x20 ADD PUSH0 KECCAK256 SLOAD SWAP1 POP DUP1 DUP4 GT ISZERO PUSH2 0xD2D JUMPI DUP4 DUP2 DUP5 PUSH1 0x40 MLOAD PUSH32 0x483B38F200000000000000000000000000000000000000000000000000000000 DUP2 MSTORE PUSH1 0x4 ADD PUSH2 0xD24 SWAP4 SWAP3 SWAP2 SWAP1 PUSH2 0x1F98 JUMP JUMPDEST PUSH1 0x40 MLOAD DUP1 SWAP2 SUB SWAP1 REVERT JUMPDEST PUSH0 PUSH2 0xD38 DUP6 DUP6 PUSH2 0x15C1 JUMP JUMPDEST SWAP1 POP PUSH32 0x0 DUP2 GT ISZERO PUSH2 0xDC1 JUMPI DUP1 PUSH32 0x0 PUSH1 0x40 MLOAD PUSH32 0x2996304900000000000000000000000000000000000000000000000000000000 DUP2 MSTORE PUSH1 0x4 ADD PUSH2 0xDB8 SWAP3 SWAP2 SWAP1 PUSH2 0x1F71 JUMP JUMPDEST PUSH1 0x40 MLOAD DUP1 SWAP2 SUB SWAP1 REVERT JUMPDEST PUSH2 0xDCD DUP6 CALLER DUP7 PUSH0 PUSH2 0x1911 JUMP JUMPDEST PUSH1 0x5 PUSH0 DUP2 SLOAD DUP1 SWAP3 SWAP2 SWAP1 PUSH2 0xDDF SWAP1 PUSH2 0x1F2A JUMP JUMPDEST SWAP2 SWAP1 POP SSTORE POP PUSH1 0x3 SLOAD DUP2 GT PUSH2 0xE00 JUMPI DUP1 PUSH1 0x3 SLOAD PUSH2 0xDFB SWAP2 SWAP1 PUSH2 0x1FCD JUMP JUMPDEST PUSH2 0xE02 JUMP JUMPDEST PUSH0 JUMPDEST PUSH1 0x3 DUP2 SWAP1 SSTORE POP PUSH0 DUP6 PUSH20 0xFFFFFFFFFFFFFFFFFFFFFFFFFFFFFFFFFFFFFFFF AND PUSH4 0xA9059CBB CALLER DUP8 PUSH1 0x40 MLOAD DUP4 PUSH4 0xFFFFFFFF AND PUSH1 0xE0 SHL DUP2 MSTORE PUSH1 0x4 ADD PUSH2 0xE44 SWAP3 SWAP2 SWAP1 PUSH2 0x1ECE JUMP JUMPDEST PUSH1 0x20 PUSH1 0x40 MLOAD DUP1 DUP4 SUB DUP2 PUSH0 DUP8 GAS CALL ISZERO DUP1 ISZERO PUSH2 0xE60 JUMPI RETURNDATASIZE PUSH0 PUSH0 RETURNDATACOPY RETURNDATASIZE PUSH0 REVERT JUMPDEST POP POP POP POP PUSH1 0x40 MLOAD RETURNDATASIZE PUSH1 0x1F NOT PUSH1 0x1F DUP3 ADD AND DUP3 ADD DUP1 PUSH1 0x40 MSTORE POP DUP2 ADD SWAP1 PUSH2 0xE84 SWAP2 SWAP1 PUSH2 0x1E43 JUMP JUMPDEST SWAP1 POP DUP1 PUSH2 0xECC JUMPI CALLER DUP7 DUP7 PUSH1 0x40 MLOAD PUSH32 0x31E6E4E100000000000000000000000000000000000000000000000000000000 DUP2 MSTORE PUSH1 0x4 ADD PUSH2 0xEC3 SWAP4 SWAP3 SWAP2 SWAP1 PUSH2 0x1DD9 JUMP JUMPDEST PUSH1 0x40 MLOAD DUP1 SWAP2 SUB SWAP1 REVERT JUMPDEST DUP6 PUSH20 0xFFFFFFFFFFFFFFFFFFFFFFFFFFFFFFFFFFFFFFFF AND CALLER PUSH20 0xFFFFFFFFFFFFFFFFFFFFFFFFFFFFFFFFFFFFFFFF AND PUSH32 0xF341246ADAAC6F497BC2A656F546AB9E182111D630394F0C57C710A59A2CB567 DUP8 DUP6 PUSH1 0x40 MLOAD PUSH2 0xF2B SWAP3 SWAP2 SWAP1 PUSH2 0x1F71 JUMP JUMPDEST PUSH1 0x40 MLOAD DUP1 SWAP2 SUB SWAP1 LOG3 POP POP POP POP PUSH0 PUSH1 0x6 PUSH0 PUSH2 0x100 EXP DUP2 SLOAD DUP2 PUSH1 0xFF MUL NOT AND SWAP1 DUP4 ISZERO ISZERO MUL OR SWAP1 SSTORE POP POP POP JUMP JUMPDEST PUSH32 0x0 DUP2 JUMP JUMPDEST PUSH1 0x3 SLOAD DUP2 JUMP JUMPDEST PUSH1 0x6 DUP2 JUMP JUMPDEST PUSH32 0x0 DUP2 JUMP JUMPDEST PUSH1 0x4 SLOAD DUP2 JUMP JUMPDEST PUSH32 0x0 DUP2 JUMP JUMPDEST PUSH1 0x6 PUSH0 SWAP1 SLOAD SWAP1 PUSH2 0x100 EXP SWAP1 DIV PUSH1 0xFF AND ISZERO PUSH2 0x1017 JUMPI PUSH1 0x40 MLOAD PUSH32 0x5A919CD900000000000000000000000000000000000000000000000000000000 DUP2 MSTORE PUSH1 0x4 ADD PUSH1 0x40 MLOAD DUP1 SWAP2 SUB SWAP1 REVERT JUMPDEST PUSH1 0x1 PUSH1 0x6 PUSH0 PUSH2 0x100 EXP DUP2 SLOAD DUP2 PUSH1 0xFF MUL NOT AND SWAP1 DUP4 ISZERO ISZERO MUL OR SWAP1 SSTORE POP DUP1 PUSH0 DUP2 SUB PUSH2 0x106B JUMPI PUSH1 0x40 MLOAD PUSH32 0x608294AC00000000000000000000000000000000000000000000000000000000 DUP2 MSTORE PUSH1 0x4 ADD PUSH1 0x40 MLOAD DUP1 SWAP2 SUB SWAP1 REVERT JUMPDEST PUSH0 PUSH1 0x1 PUSH0 PUSH0 PUSH20 0xFFFFFFFFFFFFFFFFFFFFFFFFFFFFFFFFFFFFFFFF AND PUSH20 0xFFFFFFFFFFFFFFFFFFFFFFFFFFFFFFFFFFFFFFFF AND DUP2 MSTORE PUSH1 0x20 ADD SWAP1 DUP2 MSTORE PUSH1 0x20 ADD PUSH0 KECCAK256 PUSH0 CALLER PUSH20 0xFFFFFFFFFFFFFFFFFFFFFFFFFFFFFFFFFFFFFFFF AND PUSH20 0xFFFFFFFFFFFFFFFFFFFFFFFFFFFFFFFFFFFFFFFF AND DUP2 MSTORE PUSH1 0x20 ADD SWAP1 DUP2 MSTORE PUSH1 0x20 ADD PUSH0 KECCAK256 SLOAD SWAP1 POP DUP1 DUP4 GT ISZERO PUSH2 0x1130 JUMPI PUSH0 DUP2 DUP5 PUSH1 0x40 MLOAD PUSH32 0x483B38F200000000000000000000000000000000000000000000000000000000 DUP2 MSTORE PUSH1 0x4 ADD PUSH2 0x1127 SWAP4 SWAP3 SWAP2 SWAP1 PUSH2 0x1F98 JUMP JUMPDEST PUSH1 0x40 MLOAD DUP1 SWAP2 SUB SWAP1 REVERT JUMPDEST PUSH0 PUSH2 0x113B PUSH0 DUP6 PUSH2 0x15C1 JUMP JUMPDEST SWAP1 POP PUSH32 0x0 DUP2 GT ISZERO PUSH2 0x11C4 JUMPI DUP1 PUSH32 0x0 PUSH1 0x40 MLOAD PUSH32 0x2996304900000000000000000000000000000000000000000000000000000000 DUP2 MSTORE PUSH1 0x4 ADD PUSH2 0x11BB SWAP3 SWAP2 SWAP1 PUSH2 0x1F71 JUMP JUMPDEST PUSH1 0x40 MLOAD DUP1 SWAP2 SUB SWAP1 REVERT JUMPDEST PUSH2 0x11D0 PUSH0 CALLER DUP7 PUSH0 PUSH2 0x1911 JUMP JUMPDEST PUSH1 0x5 PUSH0 DUP2 SLOAD DUP1 SWAP3 SWAP2 SWAP1 PUSH2 0x11E2 SWAP1 PUSH2 0x1F2A JUMP JUMPDEST SWAP2 SWAP1 POP SSTORE POP PUSH1 0x3 SLOAD DUP2 GT PUSH2 0x1203 JUMPI DUP1 PUSH1 0x3 SLOAD PUSH2 0x11FE SWAP2 SWAP1 PUSH2 0x1FCD JUMP JUMPDEST PUSH2 0x1205 JUMP JUMPDEST PUSH0 JUMPDEST PUSH1 0x3 DUP2 SWAP1 SSTORE POP PUSH0 CALLER PUSH20 0xFFFFFFFFFFFFFFFFFFFFFFFFFFFFFFFFFFFFFFFF AND DUP6 PUSH1 0x40 MLOAD PUSH2 0x1230 SWAP1 PUSH2 0x202D JUMP JUMPDEST PUSH0 PUSH1 0x40 MLOAD DUP1 DUP4 SUB DUP2 DUP6 DUP8 GAS CALL SWAP3 POP POP POP RETURNDATASIZE DUP1 PUSH0 DUP2 EQ PUSH2 0x126A JUMPI PUSH1 0x40 MLOAD SWAP2 POP PUSH1 0x1F NOT PUSH1 0x3F RETURNDATASIZE ADD AND DUP3 ADD PUSH1 0x40 MSTORE RETURNDATASIZE DUP3 MSTORE RETURNDATASIZE PUSH0 PUSH1 0x20 DUP5 ADD RETURNDATACOPY PUSH2 0x126F JUMP JUMPDEST PUSH1 0x60 SWAP2 POP JUMPDEST POP POP SWAP1 POP DUP1 PUSH2 0x12B9 JUMPI CALLER PUSH0 DUP7 PUSH1 0x40 MLOAD PUSH32 0x31E6E4E100000000000000000000000000000000000000000000000000000000 DUP2 MSTORE PUSH1 0x4 ADD PUSH2 0x12B0 SWAP4 SWAP3 SWAP2 SWAP1 PUSH2 0x1DD9 JUMP JUMPDEST PUSH1 0x40 MLOAD DUP1 SWAP2 SUB SWAP1 REVERT JUMPDEST PUSH0 PUSH20 0xFFFFFFFFFFFFFFFFFFFFFFFFFFFFFFFFFFFFFFFF AND CALLER PUSH20 0xFFFFFFFFFFFFFFFFFFFFFFFFFFFFFFFFFFFFFFFF AND PUSH32 0xF341246ADAAC6F497BC2A656F546AB9E182111D630394F0C57C710A59A2CB567 DUP8 DUP6 PUSH1 0x40 MLOAD PUSH2 0x1318 SWAP3 SWAP2 SWAP1 PUSH2 0x1F71 JUMP JUMPDEST PUSH1 0x40 MLOAD DUP1 SWAP2 SUB SWAP1 LOG3 POP POP POP POP PUSH0 PUSH1 0x6 PUSH0 PUSH2 0x100 EXP DUP2 SLOAD DUP2 PUSH1 0xFF MUL NOT AND SWAP1 DUP4 ISZERO ISZERO MUL OR SWAP1 SSTORE POP POP JUMP JUMPDEST PUSH1 0x6 PUSH0 SWAP1 SLOAD SWAP1 PUSH2 0x100 EXP SWAP1 DIV PUSH1 0xFF AND ISZERO PUSH2 0x1386 JUMPI PUSH1 0x40 MLOAD PUSH32 0x5A919CD900000000000000000000000000000000000000000000000000000000 DUP2 MSTORE PUSH1 0x4 ADD PUSH1 0x40 MLOAD DUP1 SWAP2 SUB SWAP1 REVERT JUMPDEST PUSH1 0x1 PUSH1 0x6 PUSH0 PUSH2 0x100 EXP DUP2 SLOAD DUP2 PUSH1 0xFF MUL NOT AND SWAP1 DUP4 ISZERO ISZERO MUL OR SWAP1 SSTORE POP CALLVALUE PUSH0 DUP2 SUB PUSH2 0x13DA JUMPI PUSH1 0x40 MLOAD PUSH32 0x608294AC00000000000000000000000000000000000000000000000000000000 DUP2 MSTORE PUSH1 0x4 ADD PUSH1 0x40 MLOAD DUP1 SWAP2 SUB SWAP1 REVERT JUMPDEST PUSH0 PUSH2 0x13E5 PUSH0 CALLVALUE PUSH2 0x15C1 JUMP JUMPDEST SWAP1 POP PUSH32 0x0 DUP2 PUSH1 0x3 SLOAD PUSH2 0x1416 SWAP2 SWAP1 PUSH2 0x1E9B JUMP JUMPDEST GT ISZERO PUSH2 0x147F JUMPI DUP1 PUSH1 0x3 SLOAD PUSH32 0x0 PUSH1 0x40 MLOAD PUSH32 0xCFE6749800000000000000000000000000000000000000000000000000000000 DUP2 MSTORE PUSH1 0x4 ADD PUSH2 0x1476 SWAP4 SWAP3 SWAP2 SWAP1 PUSH2 0x1EF5 JUMP JUMPDEST PUSH1 0x40 MLOAD DUP1 SWAP2 SUB SWAP1 REVERT JUMPDEST PUSH2 0x148C PUSH0 CALLER CALLVALUE PUSH1 0x1 PUSH2 0x1911 JUMP JUMPDEST PUSH1 0x4 PUSH0 DUP2 SLOAD DUP1 SWAP3 SWAP2 SWAP1 PUSH2 0x149E SWAP1 PUSH2 0x1F2A JUMP JUMPDEST SWAP2 SWAP1 POP SSTORE POP DUP1 PUSH1 0x3 PUSH0 DUP3 DUP3 SLOAD PUSH2 0x14B4 SWAP2 SWAP1 PUSH2 0x1E9B JUMP JUMPDEST SWAP3 POP POP DUP2 SWAP1 SSTORE POP PUSH0 PUSH20 0xFFFFFFFFFFFFFFFFFFFFFFFFFFFFFFFFFFFFFFFF AND CALLER PUSH20 0xFFFFFFFFFFFFFFFFFFFFFFFFFFFFFFFFFFFFFFFF AND PUSH32 0xDCBC1C05240F31FF3AD067EF1EE35CE4997762752E3A095284754544F4C709D7 CALLVALUE DUP5 PUSH1 0x40 MLOAD PUSH2 0x151A SWAP3 SWAP2 SWAP1 PUSH2 0x1F71 JUMP JUMPDEST PUSH1 0x40 MLOAD DUP1 SWAP2 SUB SWAP1 LOG3 POP POP PUSH0 PUSH1 0x6 PUSH0 PUSH2 0x100 EXP DUP2 SLOAD DUP2 PUSH1 0xFF MUL NOT AND SWAP1 DUP4 ISZERO ISZERO MUL OR SWAP1 SSTORE POP JUMP JUMPDEST PUSH0 PUSH1 0x1 PUSH0 DUP5 PUSH20 0xFFFFFFFFFFFFFFFFFFFFFFFFFFFFFFFFFFFFFFFF AND PUSH20 0xFFFFFFFFFFFFFFFFFFFFFFFFFFFFFFFFFFFFFFFF AND DUP2 MSTORE PUSH1 0x20 ADD SWAP1 DUP2 MSTORE PUSH1 0x20 ADD PUSH0 KECCAK256 PUSH0 DUP4 PUSH20 0xFFFFFFFFFFFFFFFFFFFFFFFFFFFFFFFFFFFFFFFF AND PUSH20 0xFFFFFFFFFFFFFFFFFFFFFFFFFFFFFFFFFFFFFFFF AND DUP2 MSTORE PUSH1 0x20 ADD SWAP1 DUP2 MSTORE PUSH1 0x20 ADD PUSH0 KECCAK256 SLOAD SWAP1 POP SWAP3 SWAP2 POP POP JUMP JUMPDEST PUSH0 PUSH0 PUSH2 0x15CC DUP5 PUSH2 0x1A3F JUMP JUMPDEST SWAP1 POP PUSH0 PUSH0 PUSH0 PUSH0 DUP5 PUSH20 0xFFFFFFFFFFFFFFFFFFFFFFFFFFFFFFFFFFFFFFFF AND PUSH4 0xFEAF968C PUSH1 0x40 MLOAD DUP2 PUSH4 0xFFFFFFFF AND PUSH1 0xE0 SHL DUP2 MSTORE PUSH1 0x4 ADD PUSH1 0xA0 PUSH1 0x40 MLOAD DUP1 DUP4 SUB DUP2 DUP7 GAS STATICCALL ISZERO DUP1 ISZERO PUSH2 0x161B JUMPI RETURNDATASIZE PUSH0 PUSH0 RETURNDATACOPY RETURNDATASIZE PUSH0 REVERT JUMPDEST POP POP POP POP PUSH1 0x40 MLOAD RETURNDATASIZE PUSH1 0x1F NOT PUSH1 0x1F DUP3 ADD AND DUP3 ADD DUP1 PUSH1 0x40 MSTORE POP DUP2 ADD SWAP1 PUSH2 0x163F SWAP2 SWAP1 PUSH2 0x20C7 JUMP JUMPDEST SWAP5 POP SWAP5 POP POP SWAP4 POP SWAP4 POP PUSH0 DUP6 PUSH20 0xFFFFFFFFFFFFFFFFFFFFFFFFFFFFFFFFFFFFFFFF AND PUSH4 0x313CE567 PUSH1 0x40 MLOAD DUP2 PUSH4 0xFFFFFFFF AND PUSH1 0xE0 SHL DUP2 MSTORE PUSH1 0x4 ADD PUSH1 0x20 PUSH1 0x40 MLOAD DUP1 DUP4 SUB DUP2 DUP7 GAS STATICCALL ISZERO DUP1 ISZERO PUSH2 0x1692 JUMPI RETURNDATASIZE PUSH0 PUSH0 RETURNDATACOPY RETURNDATASIZE PUSH0 REVERT JUMPDEST POP POP POP POP PUSH1 0x40 MLOAD RETURNDATASIZE PUSH1 0x1F NOT PUSH1 0x1F DUP3 ADD AND DUP3 ADD DUP1 PUSH1 0x40 MSTORE POP DUP2 ADD SWAP1 PUSH2 0x16B6 SWAP2 SWAP1 PUSH2 0x2168 JUMP JUMPDEST SWAP1 POP PUSH0 DUP5 SGT PUSH2 0x1700 JUMPI DUP5 DUP4 DUP4 PUSH1 0x40 MLOAD PUSH32 0x433448100000000000000000000000000000000000000000000000000000000 DUP2 MSTORE PUSH1 0x4 ADD PUSH2 0x16F7 SWAP4 SWAP3 SWAP2 SWAP1 PUSH2 0x21A2 JUMP JUMPDEST PUSH1 0x40 MLOAD DUP1 SWAP2 SUB SWAP1 REVERT JUMPDEST PUSH0 DUP4 SUB PUSH2 0x1748 JUMPI DUP5 DUP4 DUP4 PUSH1 0x40 MLOAD PUSH32 0x433448100000000000000000000000000000000000000000000000000000000 DUP2 MSTORE PUSH1 0x4 ADD PUSH2 0x173F SWAP4 SWAP3 SWAP2 SWAP1 PUSH2 0x21A2 JUMP JUMPDEST PUSH1 0x40 MLOAD DUP1 SWAP2 SUB SWAP1 REVERT JUMPDEST DUP5 PUSH10 0xFFFFFFFFFFFFFFFFFFFF AND DUP3 PUSH10 0xFFFFFFFFFFFFFFFFFFFF AND LT ISZERO PUSH2 0x17A9 JUMPI DUP5 DUP4 DUP4 PUSH1 0x40 MLOAD PUSH32 0x433448100000000000000000000000000000000000000000000000000000000 DUP2 MSTORE PUSH1 0x4 ADD PUSH2 0x17A0 SWAP4 SWAP3 SWAP2 SWAP1 PUSH2 0x21A2 JUMP JUMPDEST PUSH1 0x40 MLOAD DUP1 SWAP2 SUB SWAP1 REVERT JUMPDEST PUSH0 PUSH1 0x12 SWAP1 POP PUSH0 PUSH20 0xFFFFFFFFFFFFFFFFFFFFFFFFFFFFFFFFFFFFFFFF AND DUP11 PUSH20 0xFFFFFFFFFFFFFFFFFFFFFFFFFFFFFFFFFFFFFFFF AND EQ PUSH2 0x185C JUMPI DUP10 PUSH20 0xFFFFFFFFFFFFFFFFFFFFFFFFFFFFFFFFFFFFFFFF AND PUSH4 0x313CE567 PUSH1 0x40 MLOAD DUP2 PUSH4 0xFFFFFFFF AND PUSH1 0xE0 SHL DUP2 MSTORE PUSH1 0x4 ADD PUSH1 0x20 PUSH1 0x40 MLOAD DUP1 DUP4 SUB DUP2 DUP7 GAS STATICCALL SWAP3 POP POP POP DUP1 ISZERO PUSH2 0x1849 JUMPI POP PUSH1 0x40 MLOAD RETURNDATASIZE PUSH1 0x1F NOT PUSH1 0x1F DUP3 ADD AND DUP3 ADD DUP1 PUSH1 0x40 MSTORE POP DUP2 ADD SWAP1 PUSH2 0x1846 SWAP2 SWAP1 PUSH2 0x2168 JUMP JUMPDEST PUSH1 0x1 JUMPDEST PUSH2 0x1856 JUMPI PUSH1 0x12 SWAP1 POP PUSH2 0x185B JUMP JUMPDEST DUP1 SWAP2 POP POP JUMPDEST JUMPDEST PUSH0 DUP10 DUP7 PUSH2 0x1869 SWAP2 SWAP1 PUSH2 0x21D7 JUMP JUMPDEST SWAP1 POP PUSH0 PUSH1 0x6 PUSH1 0xFF AND DUP5 DUP5 PUSH2 0x187D SWAP2 SWAP1 PUSH2 0x2218 JUMP JUMPDEST PUSH1 0xFF AND LT PUSH2 0x18CA JUMPI PUSH1 0x6 DUP5 DUP5 PUSH2 0x1893 SWAP2 SWAP1 PUSH2 0x2218 JUMP JUMPDEST PUSH2 0x189D SWAP2 SWAP1 PUSH2 0x224C JUMP JUMPDEST PUSH1 0xFF AND SWAP1 POP DUP1 PUSH1 0xA PUSH2 0x18AF SWAP2 SWAP1 PUSH2 0x23AF JUMP JUMPDEST DUP3 PUSH2 0x18BA SWAP2 SWAP1 PUSH2 0x2426 JUMP JUMPDEST SWAP10 POP POP POP POP POP POP POP POP POP POP PUSH2 0x190B JUMP JUMPDEST DUP4 DUP4 PUSH2 0x18D6 SWAP2 SWAP1 PUSH2 0x2218 JUMP JUMPDEST PUSH1 0x6 PUSH2 0x18E2 SWAP2 SWAP1 PUSH2 0x224C JUMP JUMPDEST PUSH1 0xFF AND SWAP1 POP DUP1 PUSH1 0xA PUSH2 0x18F4 SWAP2 SWAP1 PUSH2 0x23AF JUMP JUMPDEST DUP3 PUSH2 0x18FF SWAP2 SWAP1 PUSH2 0x21D7 JUMP JUMPDEST SWAP10 POP POP POP POP POP POP POP POP POP POP JUMPDEST SWAP3 SWAP2 POP POP JUMP JUMPDEST DUP1 ISZERO PUSH2 0x19AA JUMPI DUP2 PUSH1 0x1 PUSH0 DUP7 PUSH20 0xFFFFFFFFFFFFFFFFFFFFFFFFFFFFFFFFFFFFFFFF AND PUSH20 0xFFFFFFFFFFFFFFFFFFFFFFFFFFFFFFFFFFFFFFFF AND DUP2 MSTORE PUSH1 0x20 ADD SWAP1 DUP2 MSTORE PUSH1 0x20 ADD PUSH0 KECCAK256 PUSH0 DUP6 PUSH20 0xFFFFFFFFFFFFFFFFFFFFFFFFFFFFFFFFFFFFFFFF AND PUSH20 0xFFFFFFFFFFFFFFFFFFFFFFFFFFFFFFFFFFFFFFFF AND DUP2 MSTORE PUSH1 0x20 ADD SWAP1 DUP2 MSTORE PUSH1 0x20 ADD PUSH0 KECCAK256 PUSH0 DUP3 DUP3 SLOAD PUSH2 0x199E SWAP2 SWAP1 PUSH2 0x1E9B JUMP JUMPDEST SWAP3 POP POP DUP2 SWAP1 SSTORE POP PUSH2 0x1A39 JUMP JUMPDEST DUP2 PUSH1 0x1 PUSH0 DUP7 PUSH20 0xFFFFFFFFFFFFFFFFFFFFFFFFFFFFFFFFFFFFFFFF AND PUSH20 0xFFFFFFFFFFFFFFFFFFFFFFFFFFFFFFFFFFFFFFFF AND DUP2 MSTORE PUSH1 0x20 ADD SWAP1 DUP2 MSTORE PUSH1 0x20 ADD PUSH0 KECCAK256 PUSH0 DUP6 PUSH20 0xFFFFFFFFFFFFFFFFFFFFFFFFFFFFFFFFFFFFFFFF AND PUSH20 0xFFFFFFFFFFFFFFFFFFFFFFFFFFFFFFFFFFFFFFFF AND DUP2 MSTORE PUSH1 0x20 ADD SWAP1 DUP2 MSTORE PUSH1 0x20 ADD PUSH0 KECCAK256 PUSH0 DUP3 DUP3 SLOAD PUSH2 0x1A31 SWAP2 SWAP1 PUSH2 0x1FCD JUMP JUMPDEST SWAP3 POP POP DUP2 SWAP1 SSTORE POP JUMPDEST POP POP POP POP JUMP JUMPDEST PUSH0 PUSH0 PUSH1 0x2 PUSH0 DUP5 PUSH20 0xFFFFFFFFFFFFFFFFFFFFFFFFFFFFFFFFFFFFFFFF AND PUSH20 0xFFFFFFFFFFFFFFFFFFFFFFFFFFFFFFFFFFFFFFFF AND DUP2 MSTORE PUSH1 0x20 ADD SWAP1 DUP2 MSTORE PUSH1 0x20 ADD PUSH0 KECCAK256 PUSH0 SWAP1 SLOAD SWAP1 PUSH2 0x100 EXP SWAP1 DIV PUSH20 0xFFFFFFFFFFFFFFFFFFFFFFFFFFFFFFFFFFFFFFFF AND SWAP1 POP PUSH0 PUSH20 0xFFFFFFFFFFFFFFFFFFFFFFFFFFFFFFFFFFFFFFFF AND DUP2 PUSH20 0xFFFFFFFFFFFFFFFFFFFFFFFFFFFFFFFFFFFFFFFF AND SUB PUSH2 0x1AFC JUMPI PUSH32 0x0 SWAP2 POP POP PUSH2 0x1B01 JUMP JUMPDEST DUP1 SWAP2 POP POP JUMPDEST SWAP2 SWAP1 POP JUMP JUMPDEST PUSH0 PUSH0 REVERT JUMPDEST PUSH0 PUSH20 0xFFFFFFFFFFFFFFFFFFFFFFFFFFFFFFFFFFFFFFFF DUP3 AND SWAP1 POP SWAP2 SWAP1 POP JUMP JUMPDEST PUSH0 PUSH2 0x1B33 DUP3 PUSH2 0x1B0A JUMP JUMPDEST SWAP1 POP SWAP2 SWAP1 POP JUMP JUMPDEST PUSH2 0x1B43 DUP2 PUSH2 0x1B29 JUMP JUMPDEST DUP2 EQ PUSH2 0x1B4D JUMPI PUSH0 PUSH0 REVERT JUMPDEST POP JUMP JUMPDEST PUSH0 DUP2 CALLDATALOAD SWAP1 POP PUSH2 0x1B5E DUP2 PUSH2 0x1B3A JUMP JUMPDEST SWAP3 SWAP2 POP POP JUMP JUMPDEST PUSH0 PUSH1 0x20 DUP3 DUP5 SUB SLT ISZERO PUSH2 0x1B79 JUMPI PUSH2 0x1B78 PUSH2 0x1B06 JUMP JUMPDEST JUMPDEST PUSH0 PUSH2 0x1B86 DUP5 DUP3 DUP6 ADD PUSH2 0x1B50 JUMP JUMPDEST SWAP2 POP POP SWAP3 SWAP2 POP POP JUMP JUMPDEST PUSH0 DUP2 SWAP1 POP SWAP2 SWAP1 POP JUMP JUMPDEST PUSH2 0x1BA1 DUP2 PUSH2 0x1B8F JUMP JUMPDEST DUP3 MSTORE POP POP JUMP JUMPDEST PUSH0 PUSH1 0x20 DUP3 ADD SWAP1 POP PUSH2 0x1BBA PUSH0 DUP4 ADD DUP5 PUSH2 0x1B98 JUMP JUMPDEST SWAP3 SWAP2 POP POP JUMP JUMPDEST PUSH0 PUSH0 PUSH1 0x40 DUP4 DUP6 SUB SLT ISZERO PUSH2 0x1BD6 JUMPI PUSH2 0x1BD5 PUSH2 0x1B06 JUMP JUMPDEST JUMPDEST PUSH0 PUSH2 0x1BE3 DUP6 DUP3 DUP7 ADD PUSH2 0x1B50 JUMP JUMPDEST SWAP3 POP POP PUSH1 0x20 PUSH2 0x1BF4 DUP6 DUP3 DUP7 ADD PUSH2 0x1B50 JUMP JUMPDEST SWAP2 POP POP SWAP3 POP SWAP3 SWAP1 POP JUMP JUMPDEST PUSH2 0x1C07 DUP2 PUSH2 0x1B29 JUMP JUMPDEST DUP3 MSTORE POP POP JUMP JUMPDEST PUSH0 PUSH1 0x20 DUP3 ADD SWAP1 POP PUSH2 0x1C20 PUSH0 DUP4 ADD DUP5 PUSH2 0x1BFE JUMP JUMPDEST SWAP3 SWAP2 POP POP JUMP JUMPDEST PUSH2 0x1C2F DUP2 PUSH2 0x1B8F JUMP JUMPDEST DUP2 EQ PUSH2 0x1C39 JUMPI PUSH0 PUSH0 REVERT JUMPDEST POP JUMP JUMPDEST PUSH0 DUP2 CALLDATALOAD SWAP1 POP PUSH2 0x1C4A DUP2 PUSH2 0x1C26 JUMP JUMPDEST SWAP3 SWAP2 POP POP JUMP JUMPDEST PUSH0 PUSH0 PUSH1 0x40 DUP4 DUP6 SUB SLT ISZERO PUSH2 0x1C66 JUMPI PUSH2 0x1C65 PUSH2 0x1B06 JUMP JUMPDEST JUMPDEST PUSH0 PUSH2 0x1C73 DUP6 DUP3 DUP7 ADD PUSH2 0x1B50 JUMP JUMPDEST SWAP3 POP POP PUSH1 0x20 PUSH2 0x1C84 DUP6 DUP3 DUP7 ADD PUSH2 0x1C3C JUMP JUMPDEST SWAP2 POP POP SWAP3 POP SWAP3 SWAP1 POP JUMP JUMPDEST PUSH0 DUP2 SWAP1 POP SWAP2 SWAP1 POP JUMP JUMPDEST PUSH0 PUSH2 0x1CB1 PUSH2 0x1CAC PUSH2 0x1CA7 DUP5 PUSH2 0x1B0A JUMP JUMPDEST PUSH2 0x1C8E JUMP JUMPDEST PUSH2 0x1B0A JUMP JUMPDEST SWAP1 POP SWAP2 SWAP1 POP JUMP JUMPDEST PUSH0 PUSH2 0x1CC2 DUP3 PUSH2 0x1C97 JUMP JUMPDEST SWAP1 POP SWAP2 SWAP1 POP JUMP JUMPDEST PUSH0 PUSH2 0x1CD3 DUP3 PUSH2 0x1CB8 JUMP JUMPDEST SWAP1 POP SWAP2 SWAP1 POP JUMP JUMPDEST PUSH2 0x1CE3 DUP2 PUSH2 0x1CC9 JUMP JUMPDEST DUP3 MSTORE POP POP JUMP JUMPDEST PUSH0 PUSH1 0x20 DUP3 ADD SWAP1 POP PUSH2 0x1CFC PUSH0 DUP4 ADD DUP5 PUSH2 0x1CDA JUMP JUMPDEST SWAP3 SWAP2 POP POP JUMP JUMPDEST PUSH0 PUSH1 0xFF DUP3 AND SWAP1 POP SWAP2 SWAP1 POP JUMP JUMPDEST PUSH2 0x1D17 DUP2 PUSH2 0x1D02 JUMP JUMPDEST DUP3 MSTORE POP POP JUMP JUMPDEST PUSH0 PUSH1 0x20 DUP3 ADD SWAP1 POP PUSH2 0x1D30 PUSH0 DUP4 ADD DUP5 PUSH2 0x1D0E JUMP JUMPDEST SWAP3 SWAP2 POP POP JUMP JUMPDEST PUSH0 PUSH1 0x20 DUP3 DUP5 SUB SLT ISZERO PUSH2 0x1D4B JUMPI PUSH2 0x1D4A PUSH2 0x1B06 JUMP JUMPDEST JUMPDEST PUSH0 PUSH2 0x1D58 DUP5 DUP3 DUP6 ADD PUSH2 0x1C3C JUMP JUMPDEST SWAP2 POP POP SWAP3 SWAP2 POP POP JUMP JUMPDEST PUSH0 DUP3 DUP3 MSTORE PUSH1 0x20 DUP3 ADD SWAP1 POP SWAP3 SWAP2 POP POP JUMP JUMPDEST PUSH32 0x7A65726F206F776E657200000000000000000000000000000000000000000000 PUSH0 DUP3 ADD MSTORE POP JUMP JUMPDEST PUSH0 PUSH2 0x1DA5 PUSH1 0xA DUP4 PUSH2 0x1D61 JUMP JUMPDEST SWAP2 POP PUSH2 0x1DB0 DUP3 PUSH2 0x1D71 JUMP JUMPDEST PUSH1 0x20 DUP3 ADD SWAP1 POP SWAP2 SWAP1 POP JUMP JUMPDEST PUSH0 PUSH1 0x20 DUP3 ADD SWAP1 POP DUP2 DUP2 SUB PUSH0 DUP4 ADD MSTORE PUSH2 0x1DD2 DUP2 PUSH2 0x1D99 JUMP JUMPDEST SWAP1 POP SWAP2 SWAP1 POP JUMP JUMPDEST PUSH0 PUSH1 0x60 DUP3 ADD SWAP1 POP PUSH2 0x1DEC PUSH0 DUP4 ADD DUP7 PUSH2 0x1BFE JUMP JUMPDEST PUSH2 0x1DF9 PUSH1 0x20 DUP4 ADD DUP6 PUSH2 0x1BFE JUMP JUMPDEST PUSH2 0x1E06 PUSH1 0x40 DUP4 ADD DUP5 PUSH2 0x1B98 JUMP JUMPDEST SWAP5 SWAP4 POP POP POP POP JUMP JUMPDEST PUSH0 DUP2 ISZERO ISZERO SWAP1 POP SWAP2 SWAP1 POP JUMP JUMPDEST PUSH2 0x1E22 DUP2 PUSH2 0x1E0E JUMP JUMPDEST DUP2 EQ PUSH2 0x1E2C JUMPI PUSH0 PUSH0 REVERT JUMPDEST POP JUMP JUMPDEST PUSH0 DUP2 MLOAD SWAP1 POP PUSH2 0x1E3D DUP2 PUSH2 0x1E19 JUMP JUMPDEST SWAP3 SWAP2 POP POP JUMP JUMPDEST PUSH0 PUSH1 0x20 DUP3 DUP5 SUB SLT ISZERO PUSH2 0x1E58 JUMPI PUSH2 0x1E57 PUSH2 0x1B06 JUMP JUMPDEST JUMPDEST PUSH0 PUSH2 0x1E65 DUP5 DUP3 DUP6 ADD PUSH2 0x1E2F JUMP JUMPDEST SWAP2 POP POP SWAP3 SWAP2 POP POP JUMP JUMPDEST PUSH32 0x4E487B7100000000000000000000000000000000000000000000000000000000 PUSH0 MSTORE PUSH1 0x11 PUSH1 0x4 MSTORE PUSH1 0x24 PUSH0 REVERT JUMPDEST PUSH0 PUSH2 0x1EA5 DUP3 PUSH2 0x1B8F JUMP JUMPDEST SWAP2 POP PUSH2 0x1EB0 DUP4 PUSH2 0x1B8F JUMP JUMPDEST SWAP3 POP DUP3 DUP3 ADD SWAP1 POP DUP1 DUP3 GT ISZERO PUSH2 0x1EC8 JUMPI PUSH2 0x1EC7 PUSH2 0x1E6E JUMP JUMPDEST JUMPDEST SWAP3 SWAP2 POP POP JUMP JUMPDEST PUSH0 PUSH1 0x40 DUP3 ADD SWAP1 POP PUSH2 0x1EE1 PUSH0 DUP4 ADD DUP6 PUSH2 0x1BFE JUMP JUMPDEST PUSH2 0x1EEE PUSH1 0x20 DUP4 ADD DUP5 PUSH2 0x1B98 JUMP JUMPDEST SWAP4 SWAP3 POP POP POP JUMP JUMPDEST PUSH0 PUSH1 0x60 DUP3 ADD SWAP1 POP PUSH2 0x1F08 PUSH0 DUP4 ADD DUP7 PUSH2 0x1B98 JUMP JUMPDEST PUSH2 0x1F15 PUSH1 0x20 DUP4 ADD DUP6 PUSH2 0x1B98 JUMP JUMPDEST PUSH2 0x1F22 PUSH1 0x40 DUP4 ADD DUP5 PUSH2 0x1B98 JUMP JUMPDEST SWAP5 SWAP4 POP POP POP POP JUMP JUMPDEST PUSH0 PUSH2 0x1F34 DUP3 PUSH2 0x1B8F JUMP JUMPDEST SWAP2 POP PUSH32 0xFFFFFFFFFFFFFFFFFFFFFFFFFFFFFFFFFFFFFFFFFFFFFFFFFFFFFFFFFFFFFFFF DUP3 SUB PUSH2 0x1F66 JUMPI PUSH2 0x1F65 PUSH2 0x1E6E JUMP JUMPDEST JUMPDEST PUSH1 0x1 DUP3 ADD SWAP1 POP SWAP2 SWAP1 POP JUMP JUMPDEST PUSH0 PUSH1 0x40 DUP3 ADD SWAP1 POP PUSH2 0x1F84 PUSH0 DUP4 ADD DUP6 PUSH2 0x1B98 JUMP JUMPDEST PUSH2 0x1F91 PUSH1 0x20 DUP4 ADD DUP5 PUSH2 0x1B98 JUMP JUMPDEST SWAP4 SWAP3 POP POP POP JUMP JUMPDEST PUSH0 PUSH1 0x60 DUP3 ADD SWAP1 POP PUSH2 0x1FAB PUSH0 DUP4 ADD DUP7 PUSH2 0x1BFE JUMP JUMPDEST PUSH2 0x1FB8 PUSH1 0x20 DUP4 ADD DUP6 PUSH2 0x1B98 JUMP JUMPDEST PUSH2 0x1FC5 PUSH1 0x40 DUP4 ADD DUP5 PUSH2 0x1B98 JUMP JUMPDEST SWAP5 SWAP4 POP POP POP POP JUMP JUMPDEST PUSH0 PUSH2 0x1FD7 DUP3 PUSH2 0x1B8F JUMP JUMPDEST SWAP2 POP PUSH2 0x1FE2 DUP4 PUSH2 0x1B8F JUMP JUMPDEST SWAP3 POP DUP3 DUP3 SUB SWAP1 POP DUP2 DUP2 GT ISZERO PUSH2 0x1FFA JUMPI PUSH2 0x1FF9 PUSH2 0x1E6E JUMP JUMPDEST JUMPDEST SWAP3 SWAP2 POP POP JUMP JUMPDEST PUSH0 DUP2 SWAP1 POP SWAP3 SWAP2 POP POP JUMP JUMPDEST POP JUMP JUMPDEST PUSH0 PUSH2 0x2018 PUSH0 DUP4 PUSH2 0x2000 JUMP JUMPDEST SWAP2 POP PUSH2 0x2023 DUP3 PUSH2 0x200A JUMP JUMPDEST PUSH0 DUP3 ADD SWAP1 POP SWAP2 SWAP1 POP JUMP JUMPDEST PUSH0 PUSH2 0x2037 DUP3 PUSH2 0x200D JUMP JUMPDEST SWAP2 POP DUP2 SWAP1 POP SWAP2 SWAP1 POP JUMP JUMPDEST PUSH0 PUSH10 0xFFFFFFFFFFFFFFFFFFFF DUP3 AND SWAP1 POP SWAP2 SWAP1 POP JUMP JUMPDEST PUSH2 0x205F DUP2 PUSH2 0x2041 JUMP JUMPDEST DUP2 EQ PUSH2 0x2069 JUMPI PUSH0 PUSH0 REVERT JUMPDEST POP JUMP JUMPDEST PUSH0 DUP2 MLOAD SWAP1 POP PUSH2 0x207A DUP2 PUSH2 0x2056 JUMP JUMPDEST SWAP3 SWAP2 POP POP JUMP JUMPDEST PUSH0 DUP2 SWAP1 POP SWAP2 SWAP1 POP JUMP JUMPDEST PUSH2 0x2092 DUP2 PUSH2 0x2080 JUMP JUMPDEST DUP2 EQ PUSH2 0x209C JUMPI PUSH0 PUSH0 REVERT JUMPDEST POP JUMP JUMPDEST PUSH0 DUP2 MLOAD SWAP1 POP PUSH2 0x20AD DUP2 PUSH2 0x2089 JUMP JUMPDEST SWAP3 SWAP2 POP POP JUMP JUMPDEST PUSH0 DUP2 MLOAD SWAP1 POP PUSH2 0x20C1 DUP2 PUSH2 0x1C26 JUMP JUMPDEST SWAP3 SWAP2 POP POP JUMP JUMPDEST PUSH0 PUSH0 PUSH0 PUSH0 PUSH0 PUSH1 0xA0 DUP7 DUP9 SUB SLT ISZERO PUSH2 0x20E0 JUMPI PUSH2 0x20DF PUSH2 0x1B06 JUMP JUMPDEST JUMPDEST PUSH0 PUSH2 0x20ED DUP9 DUP3 DUP10 ADD PUSH2 0x206C JUMP JUMPDEST SWAP6 POP POP PUSH1 0x20 PUSH2 0x20FE DUP9 DUP3 DUP10 ADD PUSH2 0x209F JUMP JUMPDEST SWAP5 POP POP PUSH1 0x40 PUSH2 0x210F DUP9 DUP3 DUP10 ADD PUSH2 0x20B3 JUMP JUMPDEST SWAP4 POP POP PUSH1 0x60 PUSH2 0x2120 DUP9 DUP3 DUP10 ADD PUSH2 0x20B3 JUMP JUMPDEST SWAP3 POP POP PUSH1 0x80 PUSH2 0x2131 DUP9 DUP3 DUP10 ADD PUSH2 0x206C JUMP JUMPDEST SWAP2 POP POP SWAP3 SWAP6 POP SWAP3 SWAP6 SWAP1 SWAP4 POP JUMP JUMPDEST PUSH2 0x2147 DUP2 PUSH2 0x1D02 JUMP JUMPDEST DUP2 EQ PUSH2 0x2151 JUMPI PUSH0 PUSH0 REVERT JUMPDEST POP JUMP JUMPDEST PUSH0 DUP2 MLOAD SWAP1 POP PUSH2 0x2162 DUP2 PUSH2 0x213E JUMP JUMPDEST SWAP3 SWAP2 POP POP JUMP JUMPDEST PUSH0 PUSH1 0x20 DUP3 DUP5 SUB SLT ISZERO PUSH2 0x217D JUMPI PUSH2 0x217C PUSH2 0x1B06 JUMP JUMPDEST JUMPDEST PUSH0 PUSH2 0x218A DUP5 DUP3 DUP6 ADD PUSH2 0x2154 JUMP JUMPDEST SWAP2 POP POP SWAP3 SWAP2 POP POP JUMP JUMPDEST PUSH2 0x219C DUP2 PUSH2 0x2041 JUMP JUMPDEST DUP3 MSTORE POP POP JUMP JUMPDEST PUSH0 PUSH1 0x60 DUP3 ADD SWAP1 POP PUSH2 0x21B5 PUSH0 DUP4 ADD DUP7 PUSH2 0x2193 JUMP JUMPDEST PUSH2 0x21C2 PUSH1 0x20 DUP4 ADD DUP6 PUSH2 0x1B98 JUMP JUMPDEST PUSH2 0x21CF PUSH1 0x40 DUP4 ADD DUP5 PUSH2 0x2193 JUMP JUMPDEST SWAP5 SWAP4 POP POP POP POP JUMP JUMPDEST PUSH0 PUSH2 0x21E1 DUP3 PUSH2 0x1B8F JUMP JUMPDEST SWAP2 POP PUSH2 0x21EC DUP4 PUSH2 0x1B8F JUMP JUMPDEST SWAP3 POP DUP3 DUP3 MUL PUSH2 0x21FA DUP2 PUSH2 0x1B8F JUMP JUMPDEST SWAP2 POP DUP3 DUP3 DIV DUP5 EQ DUP4 ISZERO OR PUSH2 0x2211 JUMPI PUSH2 0x2210 PUSH2 0x1E6E JUMP JUMPDEST JUMPDEST POP SWAP3 SWAP2 POP POP JUMP JUMPDEST PUSH0 PUSH2 0x2222 DUP3 PUSH2 0x1D02 JUMP JUMPDEST SWAP2 POP PUSH2 0x222D DUP4 PUSH2 0x1D02 JUMP JUMPDEST SWAP3 POP DUP3 DUP3 ADD SWAP1 POP PUSH1 0xFF DUP2 GT ISZERO PUSH2 0x2246 JUMPI PUSH2 0x2245 PUSH2 0x1E6E JUMP JUMPDEST JUMPDEST SWAP3 SWAP2 POP POP JUMP JUMPDEST PUSH0 PUSH2 0x2256 DUP3 PUSH2 0x1D02 JUMP JUMPDEST SWAP2 POP PUSH2 0x2261 DUP4 PUSH2 0x1D02 JUMP JUMPDEST SWAP3 POP DUP3 DUP3 SUB SWAP1 POP PUSH1 0xFF DUP2 GT ISZERO PUSH2 0x227A JUMPI PUSH2 0x2279 PUSH2 0x1E6E JUMP JUMPDEST JUMPDEST SWAP3 SWAP2 POP POP JUMP JUMPDEST PUSH0 DUP2 PUSH1 0x1 SHR SWAP1 POP SWAP2 SWAP1 POP JUMP JUMPDEST PUSH0 PUSH0 DUP3 SWAP2 POP DUP4 SWAP1 POP JUMPDEST PUSH1 0x1 DUP6 GT ISZERO PUSH2 0x22D5 JUMPI DUP1 DUP7 DIV DUP2 GT ISZERO PUSH2 0x22B1 JUMPI PUSH2 0x22B0 PUSH2 0x1E6E JUMP JUMPDEST JUMPDEST PUSH1 0x1 DUP6 AND ISZERO PUSH2 0x22C0 JUMPI DUP1 DUP3 MUL SWAP2 POP JUMPDEST DUP1 DUP2 MUL SWAP1 POP PUSH2 0x22CE DUP6 PUSH2 0x2280 JUMP JUMPDEST SWAP5 POP PUSH2 0x2295 JUMP JUMPDEST SWAP5 POP SWAP5 SWAP3 POP POP POP JUMP JUMPDEST PUSH0 DUP3 PUSH2 0x22ED JUMPI PUSH1 0x1 SWAP1 POP PUSH2 0x23A8 JUMP JUMPDEST DUP2 PUSH2 0x22FA JUMPI PUSH0 SWAP1 POP PUSH2 0x23A8 JUMP JUMPDEST DUP2 PUSH1 0x1 DUP2 EQ PUSH2 0x2310 JUMPI PUSH1 0x2 DUP2 EQ PUSH2 0x231A JUMPI PUSH2 0x2349 JUMP JUMPDEST PUSH1 0x1 SWAP2 POP POP PUSH2 0x23A8 JUMP JUMPDEST PUSH1 0xFF DUP5 GT ISZERO PUSH2 0x232C JUMPI PUSH2 0x232B PUSH2 0x1E6E JUMP JUMPDEST JUMPDEST DUP4 PUSH1 0x2 EXP SWAP2 POP DUP5 DUP3 GT ISZERO PUSH2 0x2343 JUMPI PUSH2 0x2342 PUSH2 0x1E6E JUMP JUMPDEST JUMPDEST POP PUSH2 0x23A8 JUMP JUMPDEST POP PUSH1 0x20 DUP4 LT PUSH2 0x133 DUP4 LT AND PUSH1 0x4E DUP5 LT PUSH1 0xB DUP5 LT AND OR ISZERO PUSH2 0x237E JUMPI DUP3 DUP3 EXP SWAP1 POP DUP4 DUP2 GT ISZERO PUSH2 0x2379 JUMPI PUSH2 0x2378 PUSH2 0x1E6E JUMP JUMPDEST JUMPDEST PUSH2 0x23A8 JUMP JUMPDEST PUSH2 0x238B DUP5 DUP5 DUP5 PUSH1 0x1 PUSH2 0x228C JUMP JUMPDEST SWAP3 POP SWAP1 POP DUP2 DUP5 DIV DUP2 GT ISZERO PUSH2 0x23A2 JUMPI PUSH2 0x23A1 PUSH2 0x1E6E JUMP JUMPDEST JUMPDEST DUP2 DUP2 MUL SWAP1 POP JUMPDEST SWAP4 SWAP3 POP POP POP JUMP JUMPDEST PUSH0 PUSH2 0x23B9 DUP3 PUSH2 0x1B8F JUMP JUMPDEST SWAP2 POP PUSH2 0x23C4 DUP4 PUSH2 0x1B8F JUMP JUMPDEST SWAP3 POP PUSH2 0x23F1 PUSH32 0xFFFFFFFFFFFFFFFFFFFFFFFFFFFFFFFFFFFFFFFFFFFFFFFFFFFFFFFFFFFFFFFF DUP5 DUP5 PUSH2 0x22DE JUMP JUMPDEST SWAP1 POP SWAP3 SWAP2 POP POP JUMP JUMPDEST PUSH32 0x4E487B7100000000000000000000000000000000000000000000000000000000 PUSH0 MSTORE PUSH1 0x12 PUSH1 0x4 MSTORE PUSH1 0x24 PUSH0 REVERT JUMPDEST PUSH0 PUSH2 0x2430 DUP3 PUSH2 0x1B8F JUMP JUMPDEST SWAP2 POP PUSH2 0x243B DUP4 PUSH2 0x1B8F JUMP JUMPDEST SWAP3 POP DUP3 PUSH2 0x244B JUMPI PUSH2 0x244A PUSH2 0x23F9 JUMP JUMPDEST JUMPDEST DUP3 DUP3 DIV SWAP1 POP SWAP3 SWAP2 POP POP JUMP INVALID LOG2 PUSH5 0x6970667358 0x22 SLT KECCAK256 0x4C PUSH23 0xA4C31EED04BA2C0246B57215546081ECB75C0A443A8A8F DUP7 DUP9 0xF CALLDATALOAD 0x4D PUSH19 0x3B64736F6C634300081E003300000000000000 "
		},
		"gasEstimates": {
			"creation": {
				"codeDepositCost": "1871200",
				"executionCost": "infinite",
				"totalCost": "infinite"
			},
			"external": {
				"": "200",
				"INTERNAL_DECIMALS()": "376",
				"balanceOf(address,address)": "infinite",
				"bankCapUsd()": "infinite",
				"defaultPriceFeed()": "infinite",
				"depositERC20(address,uint256)": "infinite",
				"depositETH()": "infinite",
				"owner()": "2597",
				"priceFeeds(address)": "infinite",
				"setOwner(address)": "30631",
				"setPriceFeed(address,address)": "infinite",
				"totalDepositCount()": "2514",
				"totalDepositedUsd()": "2448",
				"totalWithdrawCount()": "2471",
				"withdrawERC20(address,uint256)": "infinite",
				"withdrawETH(uint256)": "infinite",
				"withdrawLimitUsd()": "infinite"
			},
			"internal": {
				"_convertToUsd(address,uint256)": "infinite",
				"_getFeed(address)": "infinite",
				"_updateBalance(address,address,uint256,bool)": "infinite"
			}
		},
		"methodIdentifiers": {
			"INTERNAL_DECIMALS()": "be406e6c",
			"balanceOf(address,address)": "f7888aec",
			"bankCapUsd()": "ac4543ba",
			"defaultPriceFeed()": "c1636bc9",
			"depositERC20(address,uint256)": "97feb926",
			"depositETH()": "f6326fb3",
			"owner()": "8da5cb5b",
			"priceFeeds(address)": "9dcb511a",
			"setOwner(address)": "13af4035",
			"setPriceFeed(address,address)": "76e11286",
			"totalDepositCount()": "d6343867",
			"totalDepositedUsd()": "b7b0ffd8",
			"totalWithdrawCount()": "503e7042",
			"withdrawERC20(address,uint256)": "a1db9782",
			"withdrawETH(uint256)": "f14210a6",
			"withdrawLimitUsd()": "e243df20"
		}
	},
	"abi": [
		{
			"inputs": [
				{
					"internalType": "uint256",
					"name": "_bankCapUsd",
					"type": "uint256"
				},
				{
					"internalType": "uint256",
					"name": "_withdrawLimitUsd",
					"type": "uint256"
				},
				{
					"internalType": "address",
					"name": "_defaultPriceFeed",
					"type": "address"
				}
			],
			"stateMutability": "nonpayable",
			"type": "constructor"
		},
		{
			"inputs": [
				{
					"internalType": "uint256",
					"name": "attemptedUsd",
					"type": "uint256"
				},
				{
					"internalType": "uint256",
					"name": "totalUsd",
					"type": "uint256"
				},
				{
					"internalType": "uint256",
					"name": "capUsd",
					"type": "uint256"
				}
			],
			"name": "ErrBankCapExceeded",
			"type": "error"
		},
		{
			"inputs": [
				{
					"internalType": "address",
					"name": "token",
					"type": "address"
				},
				{
					"internalType": "uint256",
					"name": "available",
					"type": "uint256"
				},
				{
					"internalType": "uint256",
					"name": "requested",
					"type": "uint256"
				}
			],
			"name": "ErrInsufficientBalance",
			"type": "error"
		},
		{
			"inputs": [],
			"name": "ErrReentrantCall",
			"type": "error"
		},
		{
			"inputs": [
				{
					"internalType": "address",
					"name": "to",
					"type": "address"
				},
				{
					"internalType": "address",
					"name": "token",
					"type": "address"
				},
				{
					"internalType": "uint256",
					"name": "amount",
					"type": "uint256"
				}
			],
			"name": "ErrTransferFailed",
			"type": "error"
		},
		{
			"inputs": [],
			"name": "ErrUnauthorized",
			"type": "error"
		},
		{
			"inputs": [
				{
					"internalType": "uint256",
					"name": "requestedUsd",
					"type": "uint256"
				},
				{
					"internalType": "uint256",
					"name": "limitUsd",
					"type": "uint256"
				}
			],
			"name": "ErrWithdrawLimitExceeded",
			"type": "error"
		},
		{
			"inputs": [],
			"name": "ErrZeroAmount",
			"type": "error"
		},
		{
			"inputs": [],
			"name": "InvalidConstructorParams",
			"type": "error"
		},
		{
			"inputs": [
				{
					"internalType": "uint80",
					"name": "roundId",
					"type": "uint80"
				},
				{
					"internalType": "uint256",
					"name": "updatedAt",
					"type": "uint256"
				},
				{
					"internalType": "uint80",
					"name": "answeredInRound",
					"type": "uint80"
				}
			],
			"name": "InvalidOracleResponse",
			"type": "error"
		},
		{
			"anonymous": false,
			"inputs": [
				{
					"indexed": true,
					"internalType": "address",
					"name": "user",
					"type": "address"
				},
				{
					"indexed": true,
					"internalType": "address",
					"name": "token",
					"type": "address"
				},
				{
					"indexed": false,
					"internalType": "uint256",
					"name": "amount",
					"type": "uint256"
				},
				{
					"indexed": false,
					"internalType": "uint256",
					"name": "amountUsd",
					"type": "uint256"
				}
			],
			"name": "Deposit",
			"type": "event"
		},
		{
			"anonymous": false,
			"inputs": [
				{
					"indexed": true,
					"internalType": "address",
					"name": "oldOwner",
					"type": "address"
				},
				{
					"indexed": true,
					"internalType": "address",
					"name": "newOwner",
					"type": "address"
				}
			],
			"name": "OwnerChanged",
			"type": "event"
		},
		{
			"anonymous": false,
			"inputs": [
				{
					"indexed": true,
					"internalType": "address",
					"name": "token",
					"type": "address"
				},
				{
					"indexed": true,
					"internalType": "address",
					"name": "feed",
					"type": "address"
				}
			],
			"name": "PriceFeedSet",
			"type": "event"
		},
		{
			"anonymous": false,
			"inputs": [
				{
					"indexed": true,
					"internalType": "address",
					"name": "user",
					"type": "address"
				},
				{
					"indexed": true,
					"internalType": "address",
					"name": "token",
					"type": "address"
				},
				{
					"indexed": false,
					"internalType": "uint256",
					"name": "amount",
					"type": "uint256"
				},
				{
					"indexed": false,
					"internalType": "uint256",
					"name": "amountUsd",
					"type": "uint256"
				}
			],
			"name": "Withdraw",
			"type": "event"
		},
		{
			"stateMutability": "payable",
			"type": "fallback"
		},
		{
			"inputs": [],
			"name": "INTERNAL_DECIMALS",
			"outputs": [
				{
					"internalType": "uint8",
					"name": "",
					"type": "uint8"
				}
			],
			"stateMutability": "view",
			"type": "function"
		},
		{
			"inputs": [
				{
					"internalType": "address",
					"name": "token",
					"type": "address"
				},
				{
					"internalType": "address",
					"name": "user",
					"type": "address"
				}
			],
			"name": "balanceOf",
			"outputs": [
				{
					"internalType": "uint256",
					"name": "",
					"type": "uint256"
				}
			],
			"stateMutability": "view",
			"type": "function"
		},
		{
			"inputs": [],
			"name": "bankCapUsd",
			"outputs": [
				{
					"internalType": "uint256",
					"name": "",
					"type": "uint256"
				}
			],
			"stateMutability": "view",
			"type": "function"
		},
		{
			"inputs": [],
			"name": "defaultPriceFeed",
			"outputs": [
				{
					"internalType": "contract AggregatorV3Interface",
					"name": "",
					"type": "address"
				}
			],
			"stateMutability": "view",
			"type": "function"
		},
		{
			"inputs": [
				{
					"internalType": "address",
					"name": "token",
					"type": "address"
				},
				{
					"internalType": "uint256",
					"name": "amount",
					"type": "uint256"
				}
			],
			"name": "depositERC20",
			"outputs": [],
			"stateMutability": "nonpayable",
			"type": "function"
		},
		{
			"inputs": [],
			"name": "depositETH",
			"outputs": [],
			"stateMutability": "payable",
			"type": "function"
		},
		{
			"inputs": [],
			"name": "owner",
			"outputs": [
				{
					"internalType": "address",
					"name": "",
					"type": "address"
				}
			],
			"stateMutability": "view",
			"type": "function"
		},
		{
			"inputs": [
				{
					"internalType": "address",
					"name": "",
					"type": "address"
				}
			],
			"name": "priceFeeds",
			"outputs": [
				{
					"internalType": "contract AggregatorV3Interface",
					"name": "",
					"type": "address"
				}
			],
			"stateMutability": "view",
			"type": "function"
		},
		{
			"inputs": [
				{
					"internalType": "address",
					"name": "newOwner",
					"type": "address"
				}
			],
			"name": "setOwner",
			"outputs": [],
			"stateMutability": "nonpayable",
			"type": "function"
		},
		{
			"inputs": [
				{
					"internalType": "address",
					"name": "token",
					"type": "address"
				},
				{
					"internalType": "address",
					"name": "feed",
					"type": "address"
				}
			],
			"name": "setPriceFeed",
			"outputs": [],
			"stateMutability": "nonpayable",
			"type": "function"
		},
		{
			"inputs": [],
			"name": "totalDepositCount",
			"outputs": [
				{
					"internalType": "uint256",
					"name": "",
					"type": "uint256"
				}
			],
			"stateMutability": "view",
			"type": "function"
		},
		{
			"inputs": [],
			"name": "totalDepositedUsd",
			"outputs": [
				{
					"internalType": "uint256",
					"name": "",
					"type": "uint256"
				}
			],
			"stateMutability": "view",
			"type": "function"
		},
		{
			"inputs": [],
			"name": "totalWithdrawCount",
			"outputs": [
				{
					"internalType": "uint256",
					"name": "",
					"type": "uint256"
				}
			],
			"stateMutability": "view",
			"type": "function"
		},
		{
			"inputs": [
				{
					"internalType": "address",
					"name": "token",
					"type": "address"
				},
				{
					"internalType": "uint256",
					"name": "amount",
					"type": "uint256"
				}
			],
			"name": "withdrawERC20",
			"outputs": [],
			"stateMutability": "nonpayable",
			"type": "function"
		},
		{
			"inputs": [
				{
					"internalType": "uint256",
					"name": "amount",
					"type": "uint256"
				}
			],
			"name": "withdrawETH",
			"outputs": [],
			"stateMutability": "nonpayable",
			"type": "function"
		},
		{
			"inputs": [],
			"name": "withdrawLimitUsd",
			"outputs": [
				{
					"internalType": "uint256",
					"name": "",
					"type": "uint256"
				}
			],
			"stateMutability": "view",
			"type": "function"
		},
		{
			"stateMutability": "payable",
			"type": "receive"
		}
	]
}