{
	"data": {
		"bytecode": {
			"linkReferences": {},
			"object": "610100604052348015610010575f5ffd5b50604051612cf7380380612cf783398181016040528101906100329190610268565b5f73ffffffffffffffffffffffffffffffffffffffff168373ffffffffffffffffffffffffffffffffffffffff16148061009757505f73ffffffffffffffffffffffffffffffffffffffff168273ffffffffffffffffffffffffffffffffffffffff16145b806100a157505f81145b156100d8576040517f1f2a200500000000000000000000000000000000000000000000000000000000815260040160405180910390fd5b8273ffffffffffffffffffffffffffffffffffffffff1660808173ffffffffffffffffffffffffffffffffffffffff16815250508173ffffffffffffffffffffffffffffffffffffffff1660a08173ffffffffffffffffffffffffffffffffffffffff1681525050737b79995e5f793a07bc00c21412e50ecae098e7f973ffffffffffffffffffffffffffffffffffffffff1660c08173ffffffffffffffffffffffffffffffffffffffff16815250508060e08181525050335f5f6101000a81548173ffffffffffffffffffffffffffffffffffffffff021916908373ffffffffffffffffffffffffffffffffffffffff1602179055505050506102b8565b5f5ffd5b5f73ffffffffffffffffffffffffffffffffffffffff82169050919050565b5f610204826101db565b9050919050565b610214816101fa565b811461021e575f5ffd5b50565b5f8151905061022f8161020b565b92915050565b5f819050919050565b61024781610235565b8114610251575f5ffd5b50565b5f815190506102628161023e565b92915050565b5f5f5f6060848603121561027f5761027e6101d7565b5b5f61028c86828701610221565b935050602061029d86828701610221565b92505060406102ae86828701610254565b9150509250925092565b60805160a05160c05160e0516129646103935f395f8181610893015281816108cc01528181610f1201528181610f4b0152818161162b0152818161165b01528181611c2d0152611c6601525f8181610e2801528181610faa0152818161102a015281816110bf01528181611326015261167f01525f81816109e601528181610b290152818161104b015281816111ae01528181611e720152611e9e01525f81816106f50152818161081701528181610aa801528181610e960152818161112d015281816113cf01528181611a540152611cc601526129645ff3fe60806040526004361061010c575f3560e01c8063a78c7b0811610094578063c3fd262d11610063578063c3fd262d14610382578063db81f99b146103be578063f688bcfb146103e6578063f887ea401461040e578063feedab00146104385761014c565b8063a78c7b08146102c8578063ac4543ba146102f2578063ad5c46481461031c578063b3d8bcdc146103465761014c565b80634de5120e116100db5780634de5120e146101f4578063883f17211461023057806389a302711461024c5780638da5cb5b1461027657806395ccea67146102a05761014c565b8063058c8c2e1461015057806313af40351461017a57806334462be6146101a257806339657553146101cc5761014c565b3661014c576040517f08c379a0000000000000000000000000000000000000000000000000000000008152600401610143906120fb565b60405180910390fd5b5f5ffd5b34801561015b575f5ffd5b50610164610462565b6040516101719190612131565b60405180910390f35b348015610185575f5ffd5b506101a0600480360381019061019b91906121b5565b61046b565b005b3480156101ad575f5ffd5b506101b661061f565b6040516101c39190612131565b60405180910390f35b3480156101d7575f5ffd5b506101f260048036038101906101ed919061220a565b610625565b005b3480156101ff575f5ffd5b5061021a600480360381019061021591906121b5565b610d2b565b6040516102279190612131565b60405180910390f35b61024a6004803603810190610245919061225a565b610d40565b005b348015610257575f5ffd5b506102606113cd565b60405161026d9190612294565b60405180910390f35b348015610281575f5ffd5b5061028a6113f1565b6040516102979190612294565b60405180910390f35b3480156102ab575f5ffd5b506102c660048036038101906102c191906122ad565b611415565b005b3480156102d3575f5ffd5b506102dc611625565b6040516102e99190612131565b60405180910390f35b3480156102fd575f5ffd5b50610306611659565b6040516103139190612131565b60405180910390f35b348015610327575f5ffd5b5061033061167d565b60405161033d9190612294565b60405180910390f35b348015610351575f5ffd5b5061036c600480360381019061036791906121b5565b6116a1565b6040516103799190612131565b60405180910390f35b34801561038d575f5ffd5b506103a860048036038101906103a391906121b5565b6116b6565b6040516103b59190612131565b60405180910390f35b3480156103c9575f5ffd5b506103e460048036038101906103df919061225a565b6116fc565b005b3480156103f1575f5ffd5b5061040c6004803603810190610407919061225a565b611b92565b005b348015610419575f5ffd5b50610422611e70565b60405161042f9190612346565b60405180910390f35b348015610443575f5ffd5b5061044c611e94565b6040516104599190612131565b60405180910390f35b640ba43b740081565b5f5f9054906101000a900473ffffffffffffffffffffffffffffffffffffffff1673ffffffffffffffffffffffffffffffffffffffff163373ffffffffffffffffffffffffffffffffffffffff16146104f0576040517f30cd747100000000000000000000000000000000000000000000000000000000815260040160405180910390fd5b5f73ffffffffffffffffffffffffffffffffffffffff168173ffffffffffffffffffffffffffffffffffffffff160361055e576040517f08c379a0000000000000000000000000000000000000000000000000000000008152600401610555906123a9565b60405180910390fd5b5f5f5f9054906101000a900473ffffffffffffffffffffffffffffffffffffffff169050815f5f6101000a81548173ffffffffffffffffffffffffffffffffffffffff021916908373ffffffffffffffffffffffffffffffffffffffff1602179055508173ffffffffffffffffffffffffffffffffffffffff168173ffffffffffffffffffffffffffffffffffffffff167fb532073b38c83145e3e5135377a08bf9aab55bc0fd7c1179cd4fb995d2a5159c60405160405180910390a35050565b60015481565b60025f9054906101000a900460ff161561066b576040517fed3ba6a600000000000000000000000000000000000000000000000000000000815260040160405180910390fd5b600160025f6101000a81548160ff0219169083151502179055505f82036106be576040517f1f2a200500000000000000000000000000000000000000000000000000000000815260040160405180910390fd5b5f73ffffffffffffffffffffffffffffffffffffffff168373ffffffffffffffffffffffffffffffffffffffff16148061074357507f000000000000000000000000000000000000000000000000000000000000000073ffffffffffffffffffffffffffffffffffffffff168373ffffffffffffffffffffffffffffffffffffffff16145b1561077a576040517fc1ab6dc100000000000000000000000000000000000000000000000000000000815260040160405180910390fd5b5f600267ffffffffffffffff811115610796576107956123c7565b5b6040519080825280602002602001820160405280156107c45781602001602082028036833780820191505090505b50905083815f815181106107db576107da6123f4565b5b602002602001019073ffffffffffffffffffffffffffffffffffffffff16908173ffffffffffffffffffffffffffffffffffffffff16815250507f00000000000000000000000000000000000000000000000000000000000000008160018151811061084a576108496123f4565b5b602002602001019073ffffffffffffffffffffffffffffffffffffffff16908173ffffffffffffffffffffffffffffffffffffffff16815250505f61088f8285611e9b565b90507f0000000000000000000000000000000000000000000000000000000000000000816001546108c0919061244e565b111561092957806001547f00000000000000000000000000000000000000000000000000000000000000006040517f621e5a6900000000000000000000000000000000000000000000000000000000815260040161092093929190612481565b60405180910390fd5b5f8573ffffffffffffffffffffffffffffffffffffffff166323b872dd3330886040518463ffffffff1660e01b8152600401610967939291906124b6565b6020604051808303815f875af1158015610983573d5f5f3e3d5ffd5b505050506040513d601f19601f820116820180604052508101906109a79190612520565b9050806109e0576040517f81ceff3000000000000000000000000000000000000000000000000000000000815260040160405180910390fd5b610a0b867f000000000000000000000000000000000000000000000000000000000000000087611f7e565b5f600267ffffffffffffffff811115610a2757610a266123c7565b5b604051908082528060200260200182016040528015610a555781602001602082028036833780820191505090505b50905086815f81518110610a6c57610a6b6123f4565b5b602002602001019073ffffffffffffffffffffffffffffffffffffffff16908173ffffffffffffffffffffffffffffffffffffffff16815250507f000000000000000000000000000000000000000000000000000000000000000081600181518110610adb57610ada6123f4565b5b602002602001019073ffffffffffffffffffffffffffffffffffffffff16908173ffffffffffffffffffffffffffffffffffffffff16815250505f61012c42610b24919061244e565b90505f7f000000000000000000000000000000000000000000000000000000000000000073ffffffffffffffffffffffffffffffffffffffff166338ed173989898630876040518663ffffffff1660e01b8152600401610b88959493929190612602565b5f604051808303815f875af1158015610ba3573d5f5f3e3d5ffd5b505050506040513d5f823e3d601f19601f82011682018060405250810190610bcb9190612791565b9050600281511015610c09576040517f81ceff3000000000000000000000000000000000000000000000000000000000815260040160405180910390fd5b5f8160018351610c1991906127d8565b81518110610c2a57610c296123f4565b5b602002602001015190508060015f828254610c45919061244e565b925050819055508060035f3373ffffffffffffffffffffffffffffffffffffffff1673ffffffffffffffffffffffffffffffffffffffff1681526020019081526020015f205f828254610c98919061244e565b925050819055508973ffffffffffffffffffffffffffffffffffffffff163373ffffffffffffffffffffffffffffffffffffffff167fab466672cd9adae1c2072831f94c1068597b355987d2a64d4e5a7dcd74e5cda58b84604051610cfe92919061280b565b60405180910390a3505050505050505f60025f6101000a81548160ff021916908315150217905550505050565b6005602052805f5260405f205f915090505481565b60025f9054906101000a900460ff1615610d86576040517fed3ba6a600000000000000000000000000000000000000000000000000000000815260040160405180910390fd5b600160025f6101000a81548160ff0219169083151502179055505f3403610dd9576040517f1f2a200500000000000000000000000000000000000000000000000000000000815260040160405180910390fd5b5f600267ffffffffffffffff811115610df557610df46123c7565b5b604051908082528060200260200182016040528015610e235781602001602082028036833780820191505090505b5090507f0000000000000000000000000000000000000000000000000000000000000000815f81518110610e5a57610e596123f4565b5b602002602001019073ffffffffffffffffffffffffffffffffffffffff16908173ffffffffffffffffffffffffffffffffffffffff16815250507f000000000000000000000000000000000000000000000000000000000000000081600181518110610ec957610ec86123f4565b5b602002602001019073ffffffffffffffffffffffffffffffffffffffff16908173ffffffffffffffffffffffffffffffffffffffff16815250505f610f0e8234611e9b565b90507f000000000000000000000000000000000000000000000000000000000000000081600154610f3f919061244e565b1115610fa857806001547f00000000000000000000000000000000000000000000000000000000000000006040517f621e5a69000000000000000000000000000000000000000000000000000000008152600401610f9f93929190612481565b60405180910390fd5b7f000000000000000000000000000000000000000000000000000000000000000073ffffffffffffffffffffffffffffffffffffffff1663d0e30db0346040518263ffffffff1660e01b81526004015f604051808303818588803b15801561100e575f5ffd5b505af1158015611020573d5f5f3e3d5ffd5b50505050506110707f00000000000000000000000000000000000000000000000000000000000000007f000000000000000000000000000000000000000000000000000000000000000034611f7e565b5f600267ffffffffffffffff81111561108c5761108b6123c7565b5b6040519080825280602002602001820160405280156110ba5781602001602082028036833780820191505090505b5090507f0000000000000000000000000000000000000000000000000000000000000000815f815181106110f1576110f06123f4565b5b602002602001019073ffffffffffffffffffffffffffffffffffffffff16908173ffffffffffffffffffffffffffffffffffffffff16815250507f0000000000000000000000000000000000000000000000000000000000000000816001815181106111605761115f6123f4565b5b602002602001019073ffffffffffffffffffffffffffffffffffffffff16908173ffffffffffffffffffffffffffffffffffffffff16815250505f61012c426111a9919061244e565b90505f7f000000000000000000000000000000000000000000000000000000000000000073ffffffffffffffffffffffffffffffffffffffff166338ed173934888630876040518663ffffffff1660e01b815260040161120d959493929190612602565b5f604051808303815f875af1158015611228573d5f5f3e3d5ffd5b505050506040513d5f823e3d601f19601f820116820180604052508101906112509190612791565b905060028151101561128e576040517f81ceff3000000000000000000000000000000000000000000000000000000000815260040160405180910390fd5b5f816001835161129e91906127d8565b815181106112af576112ae6123f4565b5b602002602001015190508060015f8282546112ca919061244e565b925050819055508060035f3373ffffffffffffffffffffffffffffffffffffffff1673ffffffffffffffffffffffffffffffffffffffff1681526020019081526020015f205f82825461131d919061244e565b925050819055507f000000000000000000000000000000000000000000000000000000000000000073ffffffffffffffffffffffffffffffffffffffff163373ffffffffffffffffffffffffffffffffffffffff167fab466672cd9adae1c2072831f94c1068597b355987d2a64d4e5a7dcd74e5cda534846040516113a392919061280b565b60405180910390a35050505050505f60025f6101000a81548160ff02191690831515021790555050565b7f000000000000000000000000000000000000000000000000000000000000000081565b5f5f9054906101000a900473ffffffffffffffffffffffffffffffffffffffff1681565b5f5f9054906101000a900473ffffffffffffffffffffffffffffffffffffffff1673ffffffffffffffffffffffffffffffffffffffff163373ffffffffffffffffffffffffffffffffffffffff161461149a576040517f30cd747100000000000000000000000000000000000000000000000000000000815260040160405180910390fd5b5f73ffffffffffffffffffffffffffffffffffffffff168273ffffffffffffffffffffffffffffffffffffffff1603611536575f5f9054906101000a900473ffffffffffffffffffffffffffffffffffffffff1673ffffffffffffffffffffffffffffffffffffffff166108fc8290811502906040515f60405180830381858888f19350505050158015611530573d5f5f3e3d5ffd5b506115d3565b8173ffffffffffffffffffffffffffffffffffffffff1663a9059cbb5f5f9054906101000a900473ffffffffffffffffffffffffffffffffffffffff16836040518363ffffffff1660e01b8152600401611591929190612832565b6020604051808303815f875af11580156115ad573d5f5f3e3d5ffd5b505050506040513d601f19601f820116820180604052508101906115d19190612520565b505b8173ffffffffffffffffffffffffffffffffffffffff167f5fafa99d0643513820be26656b45130b01e1c03062e1266bf36f88cbd3bd9695826040516116199190612131565b60405180910390a25050565b5f6001547f000000000000000000000000000000000000000000000000000000000000000061165491906127d8565b905090565b7f000000000000000000000000000000000000000000000000000000000000000081565b7f000000000000000000000000000000000000000000000000000000000000000081565b6004602052805f5260405f205f915090505481565b5f60035f8373ffffffffffffffffffffffffffffffffffffffff1673ffffffffffffffffffffffffffffffffffffffff1681526020019081526020015f20549050919050565b60025f9054906101000a900460ff1615611742576040517fed3ba6a600000000000000000000000000000000000000000000000000000000815260040160405180910390fd5b600160025f6101000a81548160ff0219169083151502179055505f8103611795576040517f1f2a200500000000000000000000000000000000000000000000000000000000815260040160405180910390fd5b640ba43b74008111156117e65780640ba43b74006040517fb945e2d80000000000000000000000000000000000000000000000000000000081526004016117dd92919061280b565b60405180910390fd5b6201518060055f3373ffffffffffffffffffffffffffffffffffffffff1673ffffffffffffffffffffffffffffffffffffffff1681526020019081526020015f2054611832919061244e565b4210156118d0575f426201518060055f3373ffffffffffffffffffffffffffffffffffffffff1673ffffffffffffffffffffffffffffffffffffffff1681526020019081526020015f2054611887919061244e565b61189191906127d8565b9050806040517fc1ab61a10000000000000000000000000000000000000000000000000000000081526004016118c79190612131565b60405180910390fd5b5f60035f3373ffffffffffffffffffffffffffffffffffffffff1673ffffffffffffffffffffffffffffffffffffffff1681526020019081526020015f20549050808211156119585780826040517fcf47918100000000000000000000000000000000000000000000000000000000815260040161194f92919061280b565b60405180910390fd5b818161196491906127d8565b60035f3373ffffffffffffffffffffffffffffffffffffffff1673ffffffffffffffffffffffffffffffffffffffff1681526020019081526020015f20819055508160015f8282546119b691906127d8565b9250508190555060045f3373ffffffffffffffffffffffffffffffffffffffff1673ffffffffffffffffffffffffffffffffffffffff1681526020019081526020015f205f815480929190611a0a90612859565b91905055504260055f3373ffffffffffffffffffffffffffffffffffffffff1673ffffffffffffffffffffffffffffffffffffffff1681526020019081526020015f20819055505f7f000000000000000000000000000000000000000000000000000000000000000073ffffffffffffffffffffffffffffffffffffffff1663a9059cbb33856040518363ffffffff1660e01b8152600401611aad929190612832565b6020604051808303815f875af1158015611ac9573d5f5f3e3d5ffd5b505050506040513d601f19601f82011682018060405250810190611aed9190612520565b905080611b26576040517f81ceff3000000000000000000000000000000000000000000000000000000000815260040160405180910390fd5b3373ffffffffffffffffffffffffffffffffffffffff167f23ee1b877cb0081138b4973c5b2eca0133c573ad526550935d83aaade37666ca84604051611b6c9190612131565b60405180910390a250505f60025f6101000a81548160ff02191690831515021790555050565b60025f9054906101000a900460ff1615611bd8576040517fed3ba6a600000000000000000000000000000000000000000000000000000000815260040160405180910390fd5b600160025f6101000a81548160ff0219169083151502179055505f8103611c2b576040517f1f2a200500000000000000000000000000000000000000000000000000000000815260040160405180910390fd5b7f000000000000000000000000000000000000000000000000000000000000000081600154611c5a919061244e565b1115611cc357806001547f00000000000000000000000000000000000000000000000000000000000000006040517f621e5a69000000000000000000000000000000000000000000000000000000008152600401611cba93929190612481565b60405180910390fd5b5f7f000000000000000000000000000000000000000000000000000000000000000073ffffffffffffffffffffffffffffffffffffffff166323b872dd3330856040518463ffffffff1660e01b8152600401611d21939291906124b6565b6020604051808303815f875af1158015611d3d573d5f5f3e3d5ffd5b505050506040513d601f19601f82011682018060405250810190611d619190612520565b905080611d9a576040517f81ceff3000000000000000000000000000000000000000000000000000000000815260040160405180910390fd5b8160015f828254611dab919061244e565b925050819055508160035f3373ffffffffffffffffffffffffffffffffffffffff1673ffffffffffffffffffffffffffffffffffffffff1681526020019081526020015f205f828254611dfe919061244e565b925050819055503373ffffffffffffffffffffffffffffffffffffffff167fe7440f6772025dec9be06ba934e6ee5289b73533ee2136ba668f6cb6ea3f56a883604051611e4b9190612131565b60405180910390a2505f60025f6101000a81548160ff02191690831515021790555050565b7f000000000000000000000000000000000000000000000000000000000000000081565b6201518081565b5f7f000000000000000000000000000000000000000000000000000000000000000073ffffffffffffffffffffffffffffffffffffffff1663d06ca61f83856040518363ffffffff1660e01b8152600401611ef79291906128a0565b5f60405180830381865afa925050508015611f3457506040513d5f823e3d601f19601f82011682018060405250810190611f319190612791565b60015b15611f74576002815110611f72578060018251611f5191906127d8565b81518110611f6257611f616123f4565b5b6020026020010151915050611f78565b505b8190505b92915050565b8273ffffffffffffffffffffffffffffffffffffffff1663095ea7b3835f6040518363ffffffff1660e01b8152600401611fb9929190612907565b6020604051808303815f875af1158015611fd5573d5f5f3e3d5ffd5b505050506040513d601f19601f82011682018060405250810190611ff99190612520565b508273ffffffffffffffffffffffffffffffffffffffff1663095ea7b383836040518363ffffffff1660e01b8152600401612035929190612832565b6020604051808303815f875af1158015612051573d5f5f3e3d5ffd5b505050506040513d601f19601f820116820180604052508101906120759190612520565b50505050565b5f82825260208201905092915050565b7f557365206465706f73697445544853776170546f555344432066756e6374696f5f8201527f6e206469726563746c7900000000000000000000000000000000000000000000602082015250565b5f6120e5602a8361207b565b91506120f08261208b565b604082019050919050565b5f6020820190508181035f830152612112816120d9565b9050919050565b5f819050919050565b61212b81612119565b82525050565b5f6020820190506121445f830184612122565b92915050565b5f604051905090565b5f5ffd5b5f5ffd5b5f73ffffffffffffffffffffffffffffffffffffffff82169050919050565b5f6121848261215b565b9050919050565b6121948161217a565b811461219e575f5ffd5b50565b5f813590506121af8161218b565b92915050565b5f602082840312156121ca576121c9612153565b5b5f6121d7848285016121a1565b91505092915050565b6121e981612119565b81146121f3575f5ffd5b50565b5f81359050612204816121e0565b92915050565b5f5f5f6060848603121561222157612220612153565b5b5f61222e868287016121a1565b935050602061223f868287016121f6565b9250506040612250868287016121f6565b9150509250925092565b5f6020828403121561226f5761226e612153565b5b5f61227c848285016121f6565b91505092915050565b61228e8161217a565b82525050565b5f6020820190506122a75f830184612285565b92915050565b5f5f604083850312156122c3576122c2612153565b5b5f6122d0858286016121a1565b92505060206122e1858286016121f6565b9150509250929050565b5f819050919050565b5f61230e6123096123048461215b565b6122eb565b61215b565b9050919050565b5f61231f826122f4565b9050919050565b5f61233082612315565b9050919050565b61234081612326565b82525050565b5f6020820190506123595f830184612337565b92915050565b7f7a65726f206164647200000000000000000000000000000000000000000000005f82015250565b5f61239360098361207b565b915061239e8261235f565b602082019050919050565b5f6020820190508181035f8301526123c081612387565b9050919050565b7f4e487b71000000000000000000000000000000000000000000000000000000005f52604160045260245ffd5b7f4e487b71000000000000000000000000000000000000000000000000000000005f52603260045260245ffd5b7f4e487b71000000000000000000000000000000000000000000000000000000005f52601160045260245ffd5b5f61245882612119565b915061246383612119565b925082820190508082111561247b5761247a612421565b5b92915050565b5f6060820190506124945f830186612122565b6124a16020830185612122565b6124ae6040830184612122565b949350505050565b5f6060820190506124c95f830186612285565b6124d66020830185612285565b6124e36040830184612122565b949350505050565b5f8115159050919050565b6124ff816124eb565b8114612509575f5ffd5b50565b5f8151905061251a816124f6565b92915050565b5f6020828403121561253557612534612153565b5b5f6125428482850161250c565b91505092915050565b5f81519050919050565b5f82825260208201905092915050565b5f819050602082019050919050565b61257d8161217a565b82525050565b5f61258e8383612574565b60208301905092915050565b5f602082019050919050565b5f6125b08261254b565b6125ba8185612555565b93506125c583612565565b805f5b838110156125f55781516125dc8882612583565b97506125e78361259a565b9250506001810190506125c8565b5085935050505092915050565b5f60a0820190506126155f830188612122565b6126226020830187612122565b818103604083015261263481866125a6565b90506126436060830185612285565b6126506080830184612122565b9695505050505050565b5f5ffd5b5f601f19601f8301169050919050565b6126778261265e565b810181811067ffffffffffffffff82111715612696576126956123c7565b5b80604052505050565b5f6126a861214a565b90506126b4828261266e565b919050565b5f67ffffffffffffffff8211156126d3576126d26123c7565b5b602082029050602081019050919050565b5f5ffd5b5f815190506126f6816121e0565b92915050565b5f61270e612709846126b9565b61269f565b90508083825260208201905060208402830185811115612731576127306126e4565b5b835b8181101561275a578061274688826126e8565b845260208401935050602081019050612733565b5050509392505050565b5f82601f8301126127785761277761265a565b5b81516127888482602086016126fc565b91505092915050565b5f602082840312156127a6576127a5612153565b5b5f82015167ffffffffffffffff8111156127c3576127c2612157565b5b6127cf84828501612764565b91505092915050565b5f6127e282612119565b91506127ed83612119565b925082820390508181111561280557612804612421565b5b92915050565b5f60408201905061281e5f830185612122565b61282b6020830184612122565b9392505050565b5f6040820190506128455f830185612285565b6128526020830184612122565b9392505050565b5f61286382612119565b91507fffffffffffffffffffffffffffffffffffffffffffffffffffffffffffffffff820361289557612894612421565b5b600182019050919050565b5f6040820190506128b35f830185612122565b81810360208301526128c581846125a6565b90509392505050565b5f819050919050565b5f6128f16128ec6128e7846128ce565b6122eb565b612119565b9050919050565b612901816128d7565b82525050565b5f60408201905061291a5f830185612285565b61292760208301846128f8565b939250505056fea264697066735822122024ff14c6731bbaa5cc2e78dab7220c6609c36a7f89f825d2d016b45c1e41bd3c64736f6c634300081e0033",
			"opcodes": "PUSH2 0x100 PUSH1 0x40 MSTORE CALLVALUE DUP1 ISZERO PUSH2 0x10 JUMPI PUSH0 PUSH0 REVERT JUMPDEST POP PUSH1 0x40 MLOAD PUSH2 0x2CF7 CODESIZE SUB DUP1 PUSH2 0x2CF7 DUP4 CODECOPY DUP2 DUP2 ADD PUSH1 0x40 MSTORE DUP2 ADD SWAP1 PUSH2 0x32 SWAP2 SWAP1 PUSH2 0x268 JUMP JUMPDEST PUSH0 PUSH20 0xFFFFFFFFFFFFFFFFFFFFFFFFFFFFFFFFFFFFFFFF AND DUP4 PUSH20 0xFFFFFFFFFFFFFFFFFFFFFFFFFFFFFFFFFFFFFFFF AND EQ DUP1 PUSH2 0x97 JUMPI POP PUSH0 PUSH20 0xFFFFFFFFFFFFFFFFFFFFFFFFFFFFFFFFFFFFFFFF AND DUP3 PUSH20 0xFFFFFFFFFFFFFFFFFFFFFFFFFFFFFFFFFFFFFFFF AND EQ JUMPDEST DUP1 PUSH2 0xA1 JUMPI POP PUSH0 DUP2 EQ JUMPDEST ISZERO PUSH2 0xD8 JUMPI PUSH1 0x40 MLOAD PUSH32 0x1F2A200500000000000000000000000000000000000000000000000000000000 DUP2 MSTORE PUSH1 0x4 ADD PUSH1 0x40 MLOAD DUP1 SWAP2 SUB SWAP1 REVERT JUMPDEST DUP3 PUSH20 0xFFFFFFFFFFFFFFFFFFFFFFFFFFFFFFFFFFFFFFFF AND PUSH1 0x80 DUP2 PUSH20 0xFFFFFFFFFFFFFFFFFFFFFFFFFFFFFFFFFFFFFFFF AND DUP2 MSTORE POP POP DUP2 PUSH20 0xFFFFFFFFFFFFFFFFFFFFFFFFFFFFFFFFFFFFFFFF AND PUSH1 0xA0 DUP2 PUSH20 0xFFFFFFFFFFFFFFFFFFFFFFFFFFFFFFFFFFFFFFFF AND DUP2 MSTORE POP POP PUSH20 0x7B79995E5F793A07BC00C21412E50ECAE098E7F9 PUSH20 0xFFFFFFFFFFFFFFFFFFFFFFFFFFFFFFFFFFFFFFFF AND PUSH1 0xC0 DUP2 PUSH20 0xFFFFFFFFFFFFFFFFFFFFFFFFFFFFFFFFFFFFFFFF AND DUP2 MSTORE POP POP DUP1 PUSH1 0xE0 DUP2 DUP2 MSTORE POP POP CALLER PUSH0 PUSH0 PUSH2 0x100 EXP DUP2 SLOAD DUP2 PUSH20 0xFFFFFFFFFFFFFFFFFFFFFFFFFFFFFFFFFFFFFFFF MUL NOT AND SWAP1 DUP4 PUSH20 0xFFFFFFFFFFFFFFFFFFFFFFFFFFFFFFFFFFFFFFFF AND MUL OR SWAP1 SSTORE POP POP POP POP PUSH2 0x2B8 JUMP JUMPDEST PUSH0 PUSH0 REVERT JUMPDEST PUSH0 PUSH20 0xFFFFFFFFFFFFFFFFFFFFFFFFFFFFFFFFFFFFFFFF DUP3 AND SWAP1 POP SWAP2 SWAP1 POP JUMP JUMPDEST PUSH0 PUSH2 0x204 DUP3 PUSH2 0x1DB JUMP JUMPDEST SWAP1 POP SWAP2 SWAP1 POP JUMP JUMPDEST PUSH2 0x214 DUP2 PUSH2 0x1FA JUMP JUMPDEST DUP2 EQ PUSH2 0x21E JUMPI PUSH0 PUSH0 REVERT JUMPDEST POP JUMP JUMPDEST PUSH0 DUP2 MLOAD SWAP1 POP PUSH2 0x22F DUP2 PUSH2 0x20B JUMP JUMPDEST SWAP3 SWAP2 POP POP JUMP JUMPDEST PUSH0 DUP2 SWAP1 POP SWAP2 SWAP1 POP JUMP JUMPDEST PUSH2 0x247 DUP2 PUSH2 0x235 JUMP JUMPDEST DUP2 EQ PUSH2 0x251 JUMPI PUSH0 PUSH0 REVERT JUMPDEST POP JUMP JUMPDEST PUSH0 DUP2 MLOAD SWAP1 POP PUSH2 0x262 DUP2 PUSH2 0x23E JUMP JUMPDEST SWAP3 SWAP2 POP POP JUMP JUMPDEST PUSH0 PUSH0 PUSH0 PUSH1 0x60 DUP5 DUP7 SUB SLT ISZERO PUSH2 0x27F JUMPI PUSH2 0x27E PUSH2 0x1D7 JUMP JUMPDEST JUMPDEST PUSH0 PUSH2 0x28C DUP7 DUP3 DUP8 ADD PUSH2 0x221 JUMP JUMPDEST SWAP4 POP POP PUSH1 0x20 PUSH2 0x29D DUP7 DUP3 DUP8 ADD PUSH2 0x221 JUMP JUMPDEST SWAP3 POP POP PUSH1 0x40 PUSH2 0x2AE DUP7 DUP3 DUP8 ADD PUSH2 0x254 JUMP JUMPDEST SWAP2 POP POP SWAP3 POP SWAP3 POP SWAP3 JUMP JUMPDEST PUSH1 0x80 MLOAD PUSH1 0xA0 MLOAD PUSH1 0xC0 MLOAD PUSH1 0xE0 MLOAD PUSH2 0x2964 PUSH2 0x393 PUSH0 CODECOPY PUSH0 DUP2 DUP2 PUSH2 0x893 ADD MSTORE DUP2 DUP2 PUSH2 0x8CC ADD MSTORE DUP2 DUP2 PUSH2 0xF12 ADD MSTORE DUP2 DUP2 PUSH2 0xF4B ADD MSTORE DUP2 DUP2 PUSH2 0x162B ADD MSTORE DUP2 DUP2 PUSH2 0x165B ADD MSTORE DUP2 DUP2 PUSH2 0x1C2D ADD MSTORE PUSH2 0x1C66 ADD MSTORE PUSH0 DUP2 DUP2 PUSH2 0xE28 ADD MSTORE DUP2 DUP2 PUSH2 0xFAA ADD MSTORE DUP2 DUP2 PUSH2 0x102A ADD MSTORE DUP2 DUP2 PUSH2 0x10BF ADD MSTORE DUP2 DUP2 PUSH2 0x1326 ADD MSTORE PUSH2 0x167F ADD MSTORE PUSH0 DUP2 DUP2 PUSH2 0x9E6 ADD MSTORE DUP2 DUP2 PUSH2 0xB29 ADD MSTORE DUP2 DUP2 PUSH2 0x104B ADD MSTORE DUP2 DUP2 PUSH2 0x11AE ADD MSTORE DUP2 DUP2 PUSH2 0x1E72 ADD MSTORE PUSH2 0x1E9E ADD MSTORE PUSH0 DUP2 DUP2 PUSH2 0x6F5 ADD MSTORE DUP2 DUP2 PUSH2 0x817 ADD MSTORE DUP2 DUP2 PUSH2 0xAA8 ADD MSTORE DUP2 DUP2 PUSH2 0xE96 ADD MSTORE DUP2 DUP2 PUSH2 0x112D ADD MSTORE DUP2 DUP2 PUSH2 0x13CF ADD MSTORE DUP2 DUP2 PUSH2 0x1A54 ADD MSTORE PUSH2 0x1CC6 ADD MSTORE PUSH2 0x2964 PUSH0 RETURN INVALID PUSH1 0x80 PUSH1 0x40 MSTORE PUSH1 0x4 CALLDATASIZE LT PUSH2 0x10C JUMPI PUSH0 CALLDATALOAD PUSH1 0xE0 SHR DUP1 PUSH4 0xA78C7B08 GT PUSH2 0x94 JUMPI DUP1 PUSH4 0xC3FD262D GT PUSH2 0x63 JUMPI DUP1 PUSH4 0xC3FD262D EQ PUSH2 0x382 JUMPI DUP1 PUSH4 0xDB81F99B EQ PUSH2 0x3BE JUMPI DUP1 PUSH4 0xF688BCFB EQ PUSH2 0x3E6 JUMPI DUP1 PUSH4 0xF887EA40 EQ PUSH2 0x40E JUMPI DUP1 PUSH4 0xFEEDAB00 EQ PUSH2 0x438 JUMPI PUSH2 0x14C JUMP JUMPDEST DUP1 PUSH4 0xA78C7B08 EQ PUSH2 0x2C8 JUMPI DUP1 PUSH4 0xAC4543BA EQ PUSH2 0x2F2 JUMPI DUP1 PUSH4 0xAD5C4648 EQ PUSH2 0x31C JUMPI DUP1 PUSH4 0xB3D8BCDC EQ PUSH2 0x346 JUMPI PUSH2 0x14C JUMP JUMPDEST DUP1 PUSH4 0x4DE5120E GT PUSH2 0xDB JUMPI DUP1 PUSH4 0x4DE5120E EQ PUSH2 0x1F4 JUMPI DUP1 PUSH4 0x883F1721 EQ PUSH2 0x230 JUMPI DUP1 PUSH4 0x89A30271 EQ PUSH2 0x24C JUMPI DUP1 PUSH4 0x8DA5CB5B EQ PUSH2 0x276 JUMPI DUP1 PUSH4 0x95CCEA67 EQ PUSH2 0x2A0 JUMPI PUSH2 0x14C JUMP JUMPDEST DUP1 PUSH4 0x58C8C2E EQ PUSH2 0x150 JUMPI DUP1 PUSH4 0x13AF4035 EQ PUSH2 0x17A JUMPI DUP1 PUSH4 0x34462BE6 EQ PUSH2 0x1A2 JUMPI DUP1 PUSH4 0x39657553 EQ PUSH2 0x1CC JUMPI PUSH2 0x14C JUMP JUMPDEST CALLDATASIZE PUSH2 0x14C JUMPI PUSH1 0x40 MLOAD PUSH32 0x8C379A000000000000000000000000000000000000000000000000000000000 DUP2 MSTORE PUSH1 0x4 ADD PUSH2 0x143 SWAP1 PUSH2 0x20FB JUMP JUMPDEST PUSH1 0x40 MLOAD DUP1 SWAP2 SUB SWAP1 REVERT JUMPDEST PUSH0 PUSH0 REVERT JUMPDEST CALLVALUE DUP1 ISZERO PUSH2 0x15B JUMPI PUSH0 PUSH0 REVERT JUMPDEST POP PUSH2 0x164 PUSH2 0x462 JUMP JUMPDEST PUSH1 0x40 MLOAD PUSH2 0x171 SWAP2 SWAP1 PUSH2 0x2131 JUMP JUMPDEST PUSH1 0x40 MLOAD DUP1 SWAP2 SUB SWAP1 RETURN JUMPDEST CALLVALUE DUP1 ISZERO PUSH2 0x185 JUMPI PUSH0 PUSH0 REVERT JUMPDEST POP PUSH2 0x1A0 PUSH1 0x4 DUP1 CALLDATASIZE SUB DUP2 ADD SWAP1 PUSH2 0x19B SWAP2 SWAP1 PUSH2 0x21B5 JUMP JUMPDEST PUSH2 0x46B JUMP JUMPDEST STOP JUMPDEST CALLVALUE DUP1 ISZERO PUSH2 0x1AD JUMPI PUSH0 PUSH0 REVERT JUMPDEST POP PUSH2 0x1B6 PUSH2 0x61F JUMP JUMPDEST PUSH1 0x40 MLOAD PUSH2 0x1C3 SWAP2 SWAP1 PUSH2 0x2131 JUMP JUMPDEST PUSH1 0x40 MLOAD DUP1 SWAP2 SUB SWAP1 RETURN JUMPDEST CALLVALUE DUP1 ISZERO PUSH2 0x1D7 JUMPI PUSH0 PUSH0 REVERT JUMPDEST POP PUSH2 0x1F2 PUSH1 0x4 DUP1 CALLDATASIZE SUB DUP2 ADD SWAP1 PUSH2 0x1ED SWAP2 SWAP1 PUSH2 0x220A JUMP JUMPDEST PUSH2 0x625 JUMP JUMPDEST STOP JUMPDEST CALLVALUE DUP1 ISZERO PUSH2 0x1FF JUMPI PUSH0 PUSH0 REVERT JUMPDEST POP PUSH2 0x21A PUSH1 0x4 DUP1 CALLDATASIZE SUB DUP2 ADD SWAP1 PUSH2 0x215 SWAP2 SWAP1 PUSH2 0x21B5 JUMP JUMPDEST PUSH2 0xD2B JUMP JUMPDEST PUSH1 0x40 MLOAD PUSH2 0x227 SWAP2 SWAP1 PUSH2 0x2131 JUMP JUMPDEST PUSH1 0x40 MLOAD DUP1 SWAP2 SUB SWAP1 RETURN JUMPDEST PUSH2 0x24A PUSH1 0x4 DUP1 CALLDATASIZE SUB DUP2 ADD SWAP1 PUSH2 0x245 SWAP2 SWAP1 PUSH2 0x225A JUMP JUMPDEST PUSH2 0xD40 JUMP JUMPDEST STOP JUMPDEST CALLVALUE DUP1 ISZERO PUSH2 0x257 JUMPI PUSH0 PUSH0 REVERT JUMPDEST POP PUSH2 0x260 PUSH2 0x13CD JUMP JUMPDEST PUSH1 0x40 MLOAD PUSH2 0x26D SWAP2 SWAP1 PUSH2 0x2294 JUMP JUMPDEST PUSH1 0x40 MLOAD DUP1 SWAP2 SUB SWAP1 RETURN JUMPDEST CALLVALUE DUP1 ISZERO PUSH2 0x281 JUMPI PUSH0 PUSH0 REVERT JUMPDEST POP PUSH2 0x28A PUSH2 0x13F1 JUMP JUMPDEST PUSH1 0x40 MLOAD PUSH2 0x297 SWAP2 SWAP1 PUSH2 0x2294 JUMP JUMPDEST PUSH1 0x40 MLOAD DUP1 SWAP2 SUB SWAP1 RETURN JUMPDEST CALLVALUE DUP1 ISZERO PUSH2 0x2AB JUMPI PUSH0 PUSH0 REVERT JUMPDEST POP PUSH2 0x2C6 PUSH1 0x4 DUP1 CALLDATASIZE SUB DUP2 ADD SWAP1 PUSH2 0x2C1 SWAP2 SWAP1 PUSH2 0x22AD JUMP JUMPDEST PUSH2 0x1415 JUMP JUMPDEST STOP JUMPDEST CALLVALUE DUP1 ISZERO PUSH2 0x2D3 JUMPI PUSH0 PUSH0 REVERT JUMPDEST POP PUSH2 0x2DC PUSH2 0x1625 JUMP JUMPDEST PUSH1 0x40 MLOAD PUSH2 0x2E9 SWAP2 SWAP1 PUSH2 0x2131 JUMP JUMPDEST PUSH1 0x40 MLOAD DUP1 SWAP2 SUB SWAP1 RETURN JUMPDEST CALLVALUE DUP1 ISZERO PUSH2 0x2FD JUMPI PUSH0 PUSH0 REVERT JUMPDEST POP PUSH2 0x306 PUSH2 0x1659 JUMP JUMPDEST PUSH1 0x40 MLOAD PUSH2 0x313 SWAP2 SWAP1 PUSH2 0x2131 JUMP JUMPDEST PUSH1 0x40 MLOAD DUP1 SWAP2 SUB SWAP1 RETURN JUMPDEST CALLVALUE DUP1 ISZERO PUSH2 0x327 JUMPI PUSH0 PUSH0 REVERT JUMPDEST POP PUSH2 0x330 PUSH2 0x167D JUMP JUMPDEST PUSH1 0x40 MLOAD PUSH2 0x33D SWAP2 SWAP1 PUSH2 0x2294 JUMP JUMPDEST PUSH1 0x40 MLOAD DUP1 SWAP2 SUB SWAP1 RETURN JUMPDEST CALLVALUE DUP1 ISZERO PUSH2 0x351 JUMPI PUSH0 PUSH0 REVERT JUMPDEST POP PUSH2 0x36C PUSH1 0x4 DUP1 CALLDATASIZE SUB DUP2 ADD SWAP1 PUSH2 0x367 SWAP2 SWAP1 PUSH2 0x21B5 JUMP JUMPDEST PUSH2 0x16A1 JUMP JUMPDEST PUSH1 0x40 MLOAD PUSH2 0x379 SWAP2 SWAP1 PUSH2 0x2131 JUMP JUMPDEST PUSH1 0x40 MLOAD DUP1 SWAP2 SUB SWAP1 RETURN JUMPDEST CALLVALUE DUP1 ISZERO PUSH2 0x38D JUMPI PUSH0 PUSH0 REVERT JUMPDEST POP PUSH2 0x3A8 PUSH1 0x4 DUP1 CALLDATASIZE SUB DUP2 ADD SWAP1 PUSH2 0x3A3 SWAP2 SWAP1 PUSH2 0x21B5 JUMP JUMPDEST PUSH2 0x16B6 JUMP JUMPDEST PUSH1 0x40 MLOAD PUSH2 0x3B5 SWAP2 SWAP1 PUSH2 0x2131 JUMP JUMPDEST PUSH1 0x40 MLOAD DUP1 SWAP2 SUB SWAP1 RETURN JUMPDEST CALLVALUE DUP1 ISZERO PUSH2 0x3C9 JUMPI PUSH0 PUSH0 REVERT JUMPDEST POP PUSH2 0x3E4 PUSH1 0x4 DUP1 CALLDATASIZE SUB DUP2 ADD SWAP1 PUSH2 0x3DF SWAP2 SWAP1 PUSH2 0x225A JUMP JUMPDEST PUSH2 0x16FC JUMP JUMPDEST STOP JUMPDEST CALLVALUE DUP1 ISZERO PUSH2 0x3F1 JUMPI PUSH0 PUSH0 REVERT JUMPDEST POP PUSH2 0x40C PUSH1 0x4 DUP1 CALLDATASIZE SUB DUP2 ADD SWAP1 PUSH2 0x407 SWAP2 SWAP1 PUSH2 0x225A JUMP JUMPDEST PUSH2 0x1B92 JUMP JUMPDEST STOP JUMPDEST CALLVALUE DUP1 ISZERO PUSH2 0x419 JUMPI PUSH0 PUSH0 REVERT JUMPDEST POP PUSH2 0x422 PUSH2 0x1E70 JUMP JUMPDEST PUSH1 0x40 MLOAD PUSH2 0x42F SWAP2 SWAP1 PUSH2 0x2346 JUMP JUMPDEST PUSH1 0x40 MLOAD DUP1 SWAP2 SUB SWAP1 RETURN JUMPDEST CALLVALUE DUP1 ISZERO PUSH2 0x443 JUMPI PUSH0 PUSH0 REVERT JUMPDEST POP PUSH2 0x44C PUSH2 0x1E94 JUMP JUMPDEST PUSH1 0x40 MLOAD PUSH2 0x459 SWAP2 SWAP1 PUSH2 0x2131 JUMP JUMPDEST PUSH1 0x40 MLOAD DUP1 SWAP2 SUB SWAP1 RETURN JUMPDEST PUSH5 0xBA43B7400 DUP2 JUMP JUMPDEST PUSH0 PUSH0 SWAP1 SLOAD SWAP1 PUSH2 0x100 EXP SWAP1 DIV PUSH20 0xFFFFFFFFFFFFFFFFFFFFFFFFFFFFFFFFFFFFFFFF AND PUSH20 0xFFFFFFFFFFFFFFFFFFFFFFFFFFFFFFFFFFFFFFFF AND CALLER PUSH20 0xFFFFFFFFFFFFFFFFFFFFFFFFFFFFFFFFFFFFFFFF AND EQ PUSH2 0x4F0 JUMPI PUSH1 0x40 MLOAD PUSH32 0x30CD747100000000000000000000000000000000000000000000000000000000 DUP2 MSTORE PUSH1 0x4 ADD PUSH1 0x40 MLOAD DUP1 SWAP2 SUB SWAP1 REVERT JUMPDEST PUSH0 PUSH20 0xFFFFFFFFFFFFFFFFFFFFFFFFFFFFFFFFFFFFFFFF AND DUP2 PUSH20 0xFFFFFFFFFFFFFFFFFFFFFFFFFFFFFFFFFFFFFFFF AND SUB PUSH2 0x55E JUMPI PUSH1 0x40 MLOAD PUSH32 0x8C379A000000000000000000000000000000000000000000000000000000000 DUP2 MSTORE PUSH1 0x4 ADD PUSH2 0x555 SWAP1 PUSH2 0x23A9 JUMP JUMPDEST PUSH1 0x40 MLOAD DUP1 SWAP2 SUB SWAP1 REVERT JUMPDEST PUSH0 PUSH0 PUSH0 SWAP1 SLOAD SWAP1 PUSH2 0x100 EXP SWAP1 DIV PUSH20 0xFFFFFFFFFFFFFFFFFFFFFFFFFFFFFFFFFFFFFFFF AND SWAP1 POP DUP2 PUSH0 PUSH0 PUSH2 0x100 EXP DUP2 SLOAD DUP2 PUSH20 0xFFFFFFFFFFFFFFFFFFFFFFFFFFFFFFFFFFFFFFFF MUL NOT AND SWAP1 DUP4 PUSH20 0xFFFFFFFFFFFFFFFFFFFFFFFFFFFFFFFFFFFFFFFF AND MUL OR SWAP1 SSTORE POP DUP2 PUSH20 0xFFFFFFFFFFFFFFFFFFFFFFFFFFFFFFFFFFFFFFFF AND DUP2 PUSH20 0xFFFFFFFFFFFFFFFFFFFFFFFFFFFFFFFFFFFFFFFF AND PUSH32 0xB532073B38C83145E3E5135377A08BF9AAB55BC0FD7C1179CD4FB995D2A5159C PUSH1 0x40 MLOAD PUSH1 0x40 MLOAD DUP1 SWAP2 SUB SWAP1 LOG3 POP POP JUMP JUMPDEST PUSH1 0x1 SLOAD DUP2 JUMP JUMPDEST PUSH1 0x2 PUSH0 SWAP1 SLOAD SWAP1 PUSH2 0x100 EXP SWAP1 DIV PUSH1 0xFF AND ISZERO PUSH2 0x66B JUMPI PUSH1 0x40 MLOAD PUSH32 0xED3BA6A600000000000000000000000000000000000000000000000000000000 DUP2 MSTORE PUSH1 0x4 ADD PUSH1 0x40 MLOAD DUP1 SWAP2 SUB SWAP1 REVERT JUMPDEST PUSH1 0x1 PUSH1 0x2 PUSH0 PUSH2 0x100 EXP DUP2 SLOAD DUP2 PUSH1 0xFF MUL NOT AND SWAP1 DUP4 ISZERO ISZERO MUL OR SWAP1 SSTORE POP PUSH0 DUP3 SUB PUSH2 0x6BE JUMPI PUSH1 0x40 MLOAD PUSH32 0x1F2A200500000000000000000000000000000000000000000000000000000000 DUP2 MSTORE PUSH1 0x4 ADD PUSH1 0x40 MLOAD DUP1 SWAP2 SUB SWAP1 REVERT JUMPDEST PUSH0 PUSH20 0xFFFFFFFFFFFFFFFFFFFFFFFFFFFFFFFFFFFFFFFF AND DUP4 PUSH20 0xFFFFFFFFFFFFFFFFFFFFFFFFFFFFFFFFFFFFFFFF AND EQ DUP1 PUSH2 0x743 JUMPI POP PUSH32 0x0 PUSH20 0xFFFFFFFFFFFFFFFFFFFFFFFFFFFFFFFFFFFFFFFF AND DUP4 PUSH20 0xFFFFFFFFFFFFFFFFFFFFFFFFFFFFFFFFFFFFFFFF AND EQ JUMPDEST ISZERO PUSH2 0x77A JUMPI PUSH1 0x40 MLOAD PUSH32 0xC1AB6DC100000000000000000000000000000000000000000000000000000000 DUP2 MSTORE PUSH1 0x4 ADD PUSH1 0x40 MLOAD DUP1 SWAP2 SUB SWAP1 REVERT JUMPDEST PUSH0 PUSH1 0x2 PUSH8 0xFFFFFFFFFFFFFFFF DUP2 GT ISZERO PUSH2 0x796 JUMPI PUSH2 0x795 PUSH2 0x23C7 JUMP JUMPDEST JUMPDEST PUSH1 0x40 MLOAD SWAP1 DUP1 DUP3 MSTORE DUP1 PUSH1 0x20 MUL PUSH1 0x20 ADD DUP3 ADD PUSH1 0x40 MSTORE DUP1 ISZERO PUSH2 0x7C4 JUMPI DUP2 PUSH1 0x20 ADD PUSH1 0x20 DUP3 MUL DUP1 CALLDATASIZE DUP4 CALLDATACOPY DUP1 DUP3 ADD SWAP2 POP POP SWAP1 POP JUMPDEST POP SWAP1 POP DUP4 DUP2 PUSH0 DUP2 MLOAD DUP2 LT PUSH2 0x7DB JUMPI PUSH2 0x7DA PUSH2 0x23F4 JUMP JUMPDEST JUMPDEST PUSH1 0x20 MUL PUSH1 0x20 ADD ADD SWAP1 PUSH20 0xFFFFFFFFFFFFFFFFFFFFFFFFFFFFFFFFFFFFFFFF AND SWAP1 DUP2 PUSH20 0xFFFFFFFFFFFFFFFFFFFFFFFFFFFFFFFFFFFFFFFF AND DUP2 MSTORE POP POP PUSH32 0x0 DUP2 PUSH1 0x1 DUP2 MLOAD DUP2 LT PUSH2 0x84A JUMPI PUSH2 0x849 PUSH2 0x23F4 JUMP JUMPDEST JUMPDEST PUSH1 0x20 MUL PUSH1 0x20 ADD ADD SWAP1 PUSH20 0xFFFFFFFFFFFFFFFFFFFFFFFFFFFFFFFFFFFFFFFF AND SWAP1 DUP2 PUSH20 0xFFFFFFFFFFFFFFFFFFFFFFFFFFFFFFFFFFFFFFFF AND DUP2 MSTORE POP POP PUSH0 PUSH2 0x88F DUP3 DUP6 PUSH2 0x1E9B JUMP JUMPDEST SWAP1 POP PUSH32 0x0 DUP2 PUSH1 0x1 SLOAD PUSH2 0x8C0 SWAP2 SWAP1 PUSH2 0x244E JUMP JUMPDEST GT ISZERO PUSH2 0x929 JUMPI DUP1 PUSH1 0x1 SLOAD PUSH32 0x0 PUSH1 0x40 MLOAD PUSH32 0x621E5A6900000000000000000000000000000000000000000000000000000000 DUP2 MSTORE PUSH1 0x4 ADD PUSH2 0x920 SWAP4 SWAP3 SWAP2 SWAP1 PUSH2 0x2481 JUMP JUMPDEST PUSH1 0x40 MLOAD DUP1 SWAP2 SUB SWAP1 REVERT JUMPDEST PUSH0 DUP6 PUSH20 0xFFFFFFFFFFFFFFFFFFFFFFFFFFFFFFFFFFFFFFFF AND PUSH4 0x23B872DD CALLER ADDRESS DUP9 PUSH1 0x40 MLOAD DUP5 PUSH4 0xFFFFFFFF AND PUSH1 0xE0 SHL DUP2 MSTORE PUSH1 0x4 ADD PUSH2 0x967 SWAP4 SWAP3 SWAP2 SWAP1 PUSH2 0x24B6 JUMP JUMPDEST PUSH1 0x20 PUSH1 0x40 MLOAD DUP1 DUP4 SUB DUP2 PUSH0 DUP8 GAS CALL ISZERO DUP1 ISZERO PUSH2 0x983 JUMPI RETURNDATASIZE PUSH0 PUSH0 RETURNDATACOPY RETURNDATASIZE PUSH0 REVERT JUMPDEST POP POP POP POP PUSH1 0x40 MLOAD RETURNDATASIZE PUSH1 0x1F NOT PUSH1 0x1F DUP3 ADD AND DUP3 ADD DUP1 PUSH1 0x40 MSTORE POP DUP2 ADD SWAP1 PUSH2 0x9A7 SWAP2 SWAP1 PUSH2 0x2520 JUMP JUMPDEST SWAP1 POP DUP1 PUSH2 0x9E0 JUMPI PUSH1 0x40 MLOAD PUSH32 0x81CEFF3000000000000000000000000000000000000000000000000000000000 DUP2 MSTORE PUSH1 0x4 ADD PUSH1 0x40 MLOAD DUP1 SWAP2 SUB SWAP1 REVERT JUMPDEST PUSH2 0xA0B DUP7 PUSH32 0x0 DUP8 PUSH2 0x1F7E JUMP JUMPDEST PUSH0 PUSH1 0x2 PUSH8 0xFFFFFFFFFFFFFFFF DUP2 GT ISZERO PUSH2 0xA27 JUMPI PUSH2 0xA26 PUSH2 0x23C7 JUMP JUMPDEST JUMPDEST PUSH1 0x40 MLOAD SWAP1 DUP1 DUP3 MSTORE DUP1 PUSH1 0x20 MUL PUSH1 0x20 ADD DUP3 ADD PUSH1 0x40 MSTORE DUP1 ISZERO PUSH2 0xA55 JUMPI DUP2 PUSH1 0x20 ADD PUSH1 0x20 DUP3 MUL DUP1 CALLDATASIZE DUP4 CALLDATACOPY DUP1 DUP3 ADD SWAP2 POP POP SWAP1 POP JUMPDEST POP SWAP1 POP DUP7 DUP2 PUSH0 DUP2 MLOAD DUP2 LT PUSH2 0xA6C JUMPI PUSH2 0xA6B PUSH2 0x23F4 JUMP JUMPDEST JUMPDEST PUSH1 0x20 MUL PUSH1 0x20 ADD ADD SWAP1 PUSH20 0xFFFFFFFFFFFFFFFFFFFFFFFFFFFFFFFFFFFFFFFF AND SWAP1 DUP2 PUSH20 0xFFFFFFFFFFFFFFFFFFFFFFFFFFFFFFFFFFFFFFFF AND DUP2 MSTORE POP POP PUSH32 0x0 DUP2 PUSH1 0x1 DUP2 MLOAD DUP2 LT PUSH2 0xADB JUMPI PUSH2 0xADA PUSH2 0x23F4 JUMP JUMPDEST JUMPDEST PUSH1 0x20 MUL PUSH1 0x20 ADD ADD SWAP1 PUSH20 0xFFFFFFFFFFFFFFFFFFFFFFFFFFFFFFFFFFFFFFFF AND SWAP1 DUP2 PUSH20 0xFFFFFFFFFFFFFFFFFFFFFFFFFFFFFFFFFFFFFFFF AND DUP2 MSTORE POP POP PUSH0 PUSH2 0x12C TIMESTAMP PUSH2 0xB24 SWAP2 SWAP1 PUSH2 0x244E JUMP JUMPDEST SWAP1 POP PUSH0 PUSH32 0x0 PUSH20 0xFFFFFFFFFFFFFFFFFFFFFFFFFFFFFFFFFFFFFFFF AND PUSH4 0x38ED1739 DUP10 DUP10 DUP7 ADDRESS DUP8 PUSH1 0x40 MLOAD DUP7 PUSH4 0xFFFFFFFF AND PUSH1 0xE0 SHL DUP2 MSTORE PUSH1 0x4 ADD PUSH2 0xB88 SWAP6 SWAP5 SWAP4 SWAP3 SWAP2 SWAP1 PUSH2 0x2602 JUMP JUMPDEST PUSH0 PUSH1 0x40 MLOAD DUP1 DUP4 SUB DUP2 PUSH0 DUP8 GAS CALL ISZERO DUP1 ISZERO PUSH2 0xBA3 JUMPI RETURNDATASIZE PUSH0 PUSH0 RETURNDATACOPY RETURNDATASIZE PUSH0 REVERT JUMPDEST POP POP POP POP PUSH1 0x40 MLOAD RETURNDATASIZE PUSH0 DUP3 RETURNDATACOPY RETURNDATASIZE PUSH1 0x1F NOT PUSH1 0x1F DUP3 ADD AND DUP3 ADD DUP1 PUSH1 0x40 MSTORE POP DUP2 ADD SWAP1 PUSH2 0xBCB SWAP2 SWAP1 PUSH2 0x2791 JUMP JUMPDEST SWAP1 POP PUSH1 0x2 DUP2 MLOAD LT ISZERO PUSH2 0xC09 JUMPI PUSH1 0x40 MLOAD PUSH32 0x81CEFF3000000000000000000000000000000000000000000000000000000000 DUP2 MSTORE PUSH1 0x4 ADD PUSH1 0x40 MLOAD DUP1 SWAP2 SUB SWAP1 REVERT JUMPDEST PUSH0 DUP2 PUSH1 0x1 DUP4 MLOAD PUSH2 0xC19 SWAP2 SWAP1 PUSH2 0x27D8 JUMP JUMPDEST DUP2 MLOAD DUP2 LT PUSH2 0xC2A JUMPI PUSH2 0xC29 PUSH2 0x23F4 JUMP JUMPDEST JUMPDEST PUSH1 0x20 MUL PUSH1 0x20 ADD ADD MLOAD SWAP1 POP DUP1 PUSH1 0x1 PUSH0 DUP3 DUP3 SLOAD PUSH2 0xC45 SWAP2 SWAP1 PUSH2 0x244E JUMP JUMPDEST SWAP3 POP POP DUP2 SWAP1 SSTORE POP DUP1 PUSH1 0x3 PUSH0 CALLER PUSH20 0xFFFFFFFFFFFFFFFFFFFFFFFFFFFFFFFFFFFFFFFF AND PUSH20 0xFFFFFFFFFFFFFFFFFFFFFFFFFFFFFFFFFFFFFFFF AND DUP2 MSTORE PUSH1 0x20 ADD SWAP1 DUP2 MSTORE PUSH1 0x20 ADD PUSH0 KECCAK256 PUSH0 DUP3 DUP3 SLOAD PUSH2 0xC98 SWAP2 SWAP1 PUSH2 0x244E JUMP JUMPDEST SWAP3 POP POP DUP2 SWAP1 SSTORE POP DUP10 PUSH20 0xFFFFFFFFFFFFFFFFFFFFFFFFFFFFFFFFFFFFFFFF AND CALLER PUSH20 0xFFFFFFFFFFFFFFFFFFFFFFFFFFFFFFFFFFFFFFFF AND PUSH32 0xAB466672CD9ADAE1C2072831F94C1068597B355987D2A64D4E5A7DCD74E5CDA5 DUP12 DUP5 PUSH1 0x40 MLOAD PUSH2 0xCFE SWAP3 SWAP2 SWAP1 PUSH2 0x280B JUMP JUMPDEST PUSH1 0x40 MLOAD DUP1 SWAP2 SUB SWAP1 LOG3 POP POP POP POP POP POP POP PUSH0 PUSH1 0x2 PUSH0 PUSH2 0x100 EXP DUP2 SLOAD DUP2 PUSH1 0xFF MUL NOT AND SWAP1 DUP4 ISZERO ISZERO MUL OR SWAP1 SSTORE POP POP POP POP JUMP JUMPDEST PUSH1 0x5 PUSH1 0x20 MSTORE DUP1 PUSH0 MSTORE PUSH1 0x40 PUSH0 KECCAK256 PUSH0 SWAP2 POP SWAP1 POP SLOAD DUP2 JUMP JUMPDEST PUSH1 0x2 PUSH0 SWAP1 SLOAD SWAP1 PUSH2 0x100 EXP SWAP1 DIV PUSH1 0xFF AND ISZERO PUSH2 0xD86 JUMPI PUSH1 0x40 MLOAD PUSH32 0xED3BA6A600000000000000000000000000000000000000000000000000000000 DUP2 MSTORE PUSH1 0x4 ADD PUSH1 0x40 MLOAD DUP1 SWAP2 SUB SWAP1 REVERT JUMPDEST PUSH1 0x1 PUSH1 0x2 PUSH0 PUSH2 0x100 EXP DUP2 SLOAD DUP2 PUSH1 0xFF MUL NOT AND SWAP1 DUP4 ISZERO ISZERO MUL OR SWAP1 SSTORE POP PUSH0 CALLVALUE SUB PUSH2 0xDD9 JUMPI PUSH1 0x40 MLOAD PUSH32 0x1F2A200500000000000000000000000000000000000000000000000000000000 DUP2 MSTORE PUSH1 0x4 ADD PUSH1 0x40 MLOAD DUP1 SWAP2 SUB SWAP1 REVERT JUMPDEST PUSH0 PUSH1 0x2 PUSH8 0xFFFFFFFFFFFFFFFF DUP2 GT ISZERO PUSH2 0xDF5 JUMPI PUSH2 0xDF4 PUSH2 0x23C7 JUMP JUMPDEST JUMPDEST PUSH1 0x40 MLOAD SWAP1 DUP1 DUP3 MSTORE DUP1 PUSH1 0x20 MUL PUSH1 0x20 ADD DUP3 ADD PUSH1 0x40 MSTORE DUP1 ISZERO PUSH2 0xE23 JUMPI DUP2 PUSH1 0x20 ADD PUSH1 0x20 DUP3 MUL DUP1 CALLDATASIZE DUP4 CALLDATACOPY DUP1 DUP3 ADD SWAP2 POP POP SWAP1 POP JUMPDEST POP SWAP1 POP PUSH32 0x0 DUP2 PUSH0 DUP2 MLOAD DUP2 LT PUSH2 0xE5A JUMPI PUSH2 0xE59 PUSH2 0x23F4 JUMP JUMPDEST JUMPDEST PUSH1 0x20 MUL PUSH1 0x20 ADD ADD SWAP1 PUSH20 0xFFFFFFFFFFFFFFFFFFFFFFFFFFFFFFFFFFFFFFFF AND SWAP1 DUP2 PUSH20 0xFFFFFFFFFFFFFFFFFFFFFFFFFFFFFFFFFFFFFFFF AND DUP2 MSTORE POP POP PUSH32 0x0 DUP2 PUSH1 0x1 DUP2 MLOAD DUP2 LT PUSH2 0xEC9 JUMPI PUSH2 0xEC8 PUSH2 0x23F4 JUMP JUMPDEST JUMPDEST PUSH1 0x20 MUL PUSH1 0x20 ADD ADD SWAP1 PUSH20 0xFFFFFFFFFFFFFFFFFFFFFFFFFFFFFFFFFFFFFFFF AND SWAP1 DUP2 PUSH20 0xFFFFFFFFFFFFFFFFFFFFFFFFFFFFFFFFFFFFFFFF AND DUP2 MSTORE POP POP PUSH0 PUSH2 0xF0E DUP3 CALLVALUE PUSH2 0x1E9B JUMP JUMPDEST SWAP1 POP PUSH32 0x0 DUP2 PUSH1 0x1 SLOAD PUSH2 0xF3F SWAP2 SWAP1 PUSH2 0x244E JUMP JUMPDEST GT ISZERO PUSH2 0xFA8 JUMPI DUP1 PUSH1 0x1 SLOAD PUSH32 0x0 PUSH1 0x40 MLOAD PUSH32 0x621E5A6900000000000000000000000000000000000000000000000000000000 DUP2 MSTORE PUSH1 0x4 ADD PUSH2 0xF9F SWAP4 SWAP3 SWAP2 SWAP1 PUSH2 0x2481 JUMP JUMPDEST PUSH1 0x40 MLOAD DUP1 SWAP2 SUB SWAP1 REVERT JUMPDEST PUSH32 0x0 PUSH20 0xFFFFFFFFFFFFFFFFFFFFFFFFFFFFFFFFFFFFFFFF AND PUSH4 0xD0E30DB0 CALLVALUE PUSH1 0x40 MLOAD DUP3 PUSH4 0xFFFFFFFF AND PUSH1 0xE0 SHL DUP2 MSTORE PUSH1 0x4 ADD PUSH0 PUSH1 0x40 MLOAD DUP1 DUP4 SUB DUP2 DUP6 DUP9 DUP1 EXTCODESIZE ISZERO DUP1 ISZERO PUSH2 0x100E JUMPI PUSH0 PUSH0 REVERT JUMPDEST POP GAS CALL ISZERO DUP1 ISZERO PUSH2 0x1020 JUMPI RETURNDATASIZE PUSH0 PUSH0 RETURNDATACOPY RETURNDATASIZE PUSH0 REVERT JUMPDEST POP POP POP POP POP PUSH2 0x1070 PUSH32 0x0 PUSH32 0x0 CALLVALUE PUSH2 0x1F7E JUMP JUMPDEST PUSH0 PUSH1 0x2 PUSH8 0xFFFFFFFFFFFFFFFF DUP2 GT ISZERO PUSH2 0x108C JUMPI PUSH2 0x108B PUSH2 0x23C7 JUMP JUMPDEST JUMPDEST PUSH1 0x40 MLOAD SWAP1 DUP1 DUP3 MSTORE DUP1 PUSH1 0x20 MUL PUSH1 0x20 ADD DUP3 ADD PUSH1 0x40 MSTORE DUP1 ISZERO PUSH2 0x10BA JUMPI DUP2 PUSH1 0x20 ADD PUSH1 0x20 DUP3 MUL DUP1 CALLDATASIZE DUP4 CALLDATACOPY DUP1 DUP3 ADD SWAP2 POP POP SWAP1 POP JUMPDEST POP SWAP1 POP PUSH32 0x0 DUP2 PUSH0 DUP2 MLOAD DUP2 LT PUSH2 0x10F1 JUMPI PUSH2 0x10F0 PUSH2 0x23F4 JUMP JUMPDEST JUMPDEST PUSH1 0x20 MUL PUSH1 0x20 ADD ADD SWAP1 PUSH20 0xFFFFFFFFFFFFFFFFFFFFFFFFFFFFFFFFFFFFFFFF AND SWAP1 DUP2 PUSH20 0xFFFFFFFFFFFFFFFFFFFFFFFFFFFFFFFFFFFFFFFF AND DUP2 MSTORE POP POP PUSH32 0x0 DUP2 PUSH1 0x1 DUP2 MLOAD DUP2 LT PUSH2 0x1160 JUMPI PUSH2 0x115F PUSH2 0x23F4 JUMP JUMPDEST JUMPDEST PUSH1 0x20 MUL PUSH1 0x20 ADD ADD SWAP1 PUSH20 0xFFFFFFFFFFFFFFFFFFFFFFFFFFFFFFFFFFFFFFFF AND SWAP1 DUP2 PUSH20 0xFFFFFFFFFFFFFFFFFFFFFFFFFFFFFFFFFFFFFFFF AND DUP2 MSTORE POP POP PUSH0 PUSH2 0x12C TIMESTAMP PUSH2 0x11A9 SWAP2 SWAP1 PUSH2 0x244E JUMP JUMPDEST SWAP1 POP PUSH0 PUSH32 0x0 PUSH20 0xFFFFFFFFFFFFFFFFFFFFFFFFFFFFFFFFFFFFFFFF AND PUSH4 0x38ED1739 CALLVALUE DUP9 DUP7 ADDRESS DUP8 PUSH1 0x40 MLOAD DUP7 PUSH4 0xFFFFFFFF AND PUSH1 0xE0 SHL DUP2 MSTORE PUSH1 0x4 ADD PUSH2 0x120D SWAP6 SWAP5 SWAP4 SWAP3 SWAP2 SWAP1 PUSH2 0x2602 JUMP JUMPDEST PUSH0 PUSH1 0x40 MLOAD DUP1 DUP4 SUB DUP2 PUSH0 DUP8 GAS CALL ISZERO DUP1 ISZERO PUSH2 0x1228 JUMPI RETURNDATASIZE PUSH0 PUSH0 RETURNDATACOPY RETURNDATASIZE PUSH0 REVERT JUMPDEST POP POP POP POP PUSH1 0x40 MLOAD RETURNDATASIZE PUSH0 DUP3 RETURNDATACOPY RETURNDATASIZE PUSH1 0x1F NOT PUSH1 0x1F DUP3 ADD AND DUP3 ADD DUP1 PUSH1 0x40 MSTORE POP DUP2 ADD SWAP1 PUSH2 0x1250 SWAP2 SWAP1 PUSH2 0x2791 JUMP JUMPDEST SWAP1 POP PUSH1 0x2 DUP2 MLOAD LT ISZERO PUSH2 0x128E JUMPI PUSH1 0x40 MLOAD PUSH32 0x81CEFF3000000000000000000000000000000000000000000000000000000000 DUP2 MSTORE PUSH1 0x4 ADD PUSH1 0x40 MLOAD DUP1 SWAP2 SUB SWAP1 REVERT JUMPDEST PUSH0 DUP2 PUSH1 0x1 DUP4 MLOAD PUSH2 0x129E SWAP2 SWAP1 PUSH2 0x27D8 JUMP JUMPDEST DUP2 MLOAD DUP2 LT PUSH2 0x12AF JUMPI PUSH2 0x12AE PUSH2 0x23F4 JUMP JUMPDEST JUMPDEST PUSH1 0x20 MUL PUSH1 0x20 ADD ADD MLOAD SWAP1 POP DUP1 PUSH1 0x1 PUSH0 DUP3 DUP3 SLOAD PUSH2 0x12CA SWAP2 SWAP1 PUSH2 0x244E JUMP JUMPDEST SWAP3 POP POP DUP2 SWAP1 SSTORE POP DUP1 PUSH1 0x3 PUSH0 CALLER PUSH20 0xFFFFFFFFFFFFFFFFFFFFFFFFFFFFFFFFFFFFFFFF AND PUSH20 0xFFFFFFFFFFFFFFFFFFFFFFFFFFFFFFFFFFFFFFFF AND DUP2 MSTORE PUSH1 0x20 ADD SWAP1 DUP2 MSTORE PUSH1 0x20 ADD PUSH0 KECCAK256 PUSH0 DUP3 DUP3 SLOAD PUSH2 0x131D SWAP2 SWAP1 PUSH2 0x244E JUMP JUMPDEST SWAP3 POP POP DUP2 SWAP1 SSTORE POP PUSH32 0x0 PUSH20 0xFFFFFFFFFFFFFFFFFFFFFFFFFFFFFFFFFFFFFFFF AND CALLER PUSH20 0xFFFFFFFFFFFFFFFFFFFFFFFFFFFFFFFFFFFFFFFF AND PUSH32 0xAB466672CD9ADAE1C2072831F94C1068597B355987D2A64D4E5A7DCD74E5CDA5 CALLVALUE DUP5 PUSH1 0x40 MLOAD PUSH2 0x13A3 SWAP3 SWAP2 SWAP1 PUSH2 0x280B JUMP JUMPDEST PUSH1 0x40 MLOAD DUP1 SWAP2 SUB SWAP1 LOG3 POP POP POP POP POP POP PUSH0 PUSH1 0x2 PUSH0 PUSH2 0x100 EXP DUP2 SLOAD DUP2 PUSH1 0xFF MUL NOT AND SWAP1 DUP4 ISZERO ISZERO MUL OR SWAP1 SSTORE POP POP JUMP JUMPDEST PUSH32 0x0 DUP2 JUMP JUMPDEST PUSH0 PUSH0 SWAP1 SLOAD SWAP1 PUSH2 0x100 EXP SWAP1 DIV PUSH20 0xFFFFFFFFFFFFFFFFFFFFFFFFFFFFFFFFFFFFFFFF AND DUP2 JUMP JUMPDEST PUSH0 PUSH0 SWAP1 SLOAD SWAP1 PUSH2 0x100 EXP SWAP1 DIV PUSH20 0xFFFFFFFFFFFFFFFFFFFFFFFFFFFFFFFFFFFFFFFF AND PUSH20 0xFFFFFFFFFFFFFFFFFFFFFFFFFFFFFFFFFFFFFFFF AND CALLER PUSH20 0xFFFFFFFFFFFFFFFFFFFFFFFFFFFFFFFFFFFFFFFF AND EQ PUSH2 0x149A JUMPI PUSH1 0x40 MLOAD PUSH32 0x30CD747100000000000000000000000000000000000000000000000000000000 DUP2 MSTORE PUSH1 0x4 ADD PUSH1 0x40 MLOAD DUP1 SWAP2 SUB SWAP1 REVERT JUMPDEST PUSH0 PUSH20 0xFFFFFFFFFFFFFFFFFFFFFFFFFFFFFFFFFFFFFFFF AND DUP3 PUSH20 0xFFFFFFFFFFFFFFFFFFFFFFFFFFFFFFFFFFFFFFFF AND SUB PUSH2 0x1536 JUMPI PUSH0 PUSH0 SWAP1 SLOAD SWAP1 PUSH2 0x100 EXP SWAP1 DIV PUSH20 0xFFFFFFFFFFFFFFFFFFFFFFFFFFFFFFFFFFFFFFFF AND PUSH20 0xFFFFFFFFFFFFFFFFFFFFFFFFFFFFFFFFFFFFFFFF AND PUSH2 0x8FC DUP3 SWAP1 DUP2 ISZERO MUL SWAP1 PUSH1 0x40 MLOAD PUSH0 PUSH1 0x40 MLOAD DUP1 DUP4 SUB DUP2 DUP6 DUP9 DUP9 CALL SWAP4 POP POP POP POP ISZERO DUP1 ISZERO PUSH2 0x1530 JUMPI RETURNDATASIZE PUSH0 PUSH0 RETURNDATACOPY RETURNDATASIZE PUSH0 REVERT JUMPDEST POP PUSH2 0x15D3 JUMP JUMPDEST DUP2 PUSH20 0xFFFFFFFFFFFFFFFFFFFFFFFFFFFFFFFFFFFFFFFF AND PUSH4 0xA9059CBB PUSH0 PUSH0 SWAP1 SLOAD SWAP1 PUSH2 0x100 EXP SWAP1 DIV PUSH20 0xFFFFFFFFFFFFFFFFFFFFFFFFFFFFFFFFFFFFFFFF AND DUP4 PUSH1 0x40 MLOAD DUP4 PUSH4 0xFFFFFFFF AND PUSH1 0xE0 SHL DUP2 MSTORE PUSH1 0x4 ADD PUSH2 0x1591 SWAP3 SWAP2 SWAP1 PUSH2 0x2832 JUMP JUMPDEST PUSH1 0x20 PUSH1 0x40 MLOAD DUP1 DUP4 SUB DUP2 PUSH0 DUP8 GAS CALL ISZERO DUP1 ISZERO PUSH2 0x15AD JUMPI RETURNDATASIZE PUSH0 PUSH0 RETURNDATACOPY RETURNDATASIZE PUSH0 REVERT JUMPDEST POP POP POP POP PUSH1 0x40 MLOAD RETURNDATASIZE PUSH1 0x1F NOT PUSH1 0x1F DUP3 ADD AND DUP3 ADD DUP1 PUSH1 0x40 MSTORE POP DUP2 ADD SWAP1 PUSH2 0x15D1 SWAP2 SWAP1 PUSH2 0x2520 JUMP JUMPDEST POP JUMPDEST DUP2 PUSH20 0xFFFFFFFFFFFFFFFFFFFFFFFFFFFFFFFFFFFFFFFF AND PUSH32 0x5FAFA99D0643513820BE26656B45130B01E1C03062E1266BF36F88CBD3BD9695 DUP3 PUSH1 0x40 MLOAD PUSH2 0x1619 SWAP2 SWAP1 PUSH2 0x2131 JUMP JUMPDEST PUSH1 0x40 MLOAD DUP1 SWAP2 SUB SWAP1 LOG2 POP POP JUMP JUMPDEST PUSH0 PUSH1 0x1 SLOAD PUSH32 0x0 PUSH2 0x1654 SWAP2 SWAP1 PUSH2 0x27D8 JUMP JUMPDEST SWAP1 POP SWAP1 JUMP JUMPDEST PUSH32 0x0 DUP2 JUMP JUMPDEST PUSH32 0x0 DUP2 JUMP JUMPDEST PUSH1 0x4 PUSH1 0x20 MSTORE DUP1 PUSH0 MSTORE PUSH1 0x40 PUSH0 KECCAK256 PUSH0 SWAP2 POP SWAP1 POP SLOAD DUP2 JUMP JUMPDEST PUSH0 PUSH1 0x3 PUSH0 DUP4 PUSH20 0xFFFFFFFFFFFFFFFFFFFFFFFFFFFFFFFFFFFFFFFF AND PUSH20 0xFFFFFFFFFFFFFFFFFFFFFFFFFFFFFFFFFFFFFFFF AND DUP2 MSTORE PUSH1 0x20 ADD SWAP1 DUP2 MSTORE PUSH1 0x20 ADD PUSH0 KECCAK256 SLOAD SWAP1 POP SWAP2 SWAP1 POP JUMP JUMPDEST PUSH1 0x2 PUSH0 SWAP1 SLOAD SWAP1 PUSH2 0x100 EXP SWAP1 DIV PUSH1 0xFF AND ISZERO PUSH2 0x1742 JUMPI PUSH1 0x40 MLOAD PUSH32 0xED3BA6A600000000000000000000000000000000000000000000000000000000 DUP2 MSTORE PUSH1 0x4 ADD PUSH1 0x40 MLOAD DUP1 SWAP2 SUB SWAP1 REVERT JUMPDEST PUSH1 0x1 PUSH1 0x2 PUSH0 PUSH2 0x100 EXP DUP2 SLOAD DUP2 PUSH1 0xFF MUL NOT AND SWAP1 DUP4 ISZERO ISZERO MUL OR SWAP1 SSTORE POP PUSH0 DUP2 SUB PUSH2 0x1795 JUMPI PUSH1 0x40 MLOAD PUSH32 0x1F2A200500000000000000000000000000000000000000000000000000000000 DUP2 MSTORE PUSH1 0x4 ADD PUSH1 0x40 MLOAD DUP1 SWAP2 SUB SWAP1 REVERT JUMPDEST PUSH5 0xBA43B7400 DUP2 GT ISZERO PUSH2 0x17E6 JUMPI DUP1 PUSH5 0xBA43B7400 PUSH1 0x40 MLOAD PUSH32 0xB945E2D800000000000000000000000000000000000000000000000000000000 DUP2 MSTORE PUSH1 0x4 ADD PUSH2 0x17DD SWAP3 SWAP2 SWAP1 PUSH2 0x280B JUMP JUMPDEST PUSH1 0x40 MLOAD DUP1 SWAP2 SUB SWAP1 REVERT JUMPDEST PUSH3 0x15180 PUSH1 0x5 PUSH0 CALLER PUSH20 0xFFFFFFFFFFFFFFFFFFFFFFFFFFFFFFFFFFFFFFFF AND PUSH20 0xFFFFFFFFFFFFFFFFFFFFFFFFFFFFFFFFFFFFFFFF AND DUP2 MSTORE PUSH1 0x20 ADD SWAP1 DUP2 MSTORE PUSH1 0x20 ADD PUSH0 KECCAK256 SLOAD PUSH2 0x1832 SWAP2 SWAP1 PUSH2 0x244E JUMP JUMPDEST TIMESTAMP LT ISZERO PUSH2 0x18D0 JUMPI PUSH0 TIMESTAMP PUSH3 0x15180 PUSH1 0x5 PUSH0 CALLER PUSH20 0xFFFFFFFFFFFFFFFFFFFFFFFFFFFFFFFFFFFFFFFF AND PUSH20 0xFFFFFFFFFFFFFFFFFFFFFFFFFFFFFFFFFFFFFFFF AND DUP2 MSTORE PUSH1 0x20 ADD SWAP1 DUP2 MSTORE PUSH1 0x20 ADD PUSH0 KECCAK256 SLOAD PUSH2 0x1887 SWAP2 SWAP1 PUSH2 0x244E JUMP JUMPDEST PUSH2 0x1891 SWAP2 SWAP1 PUSH2 0x27D8 JUMP JUMPDEST SWAP1 POP DUP1 PUSH1 0x40 MLOAD PUSH32 0xC1AB61A100000000000000000000000000000000000000000000000000000000 DUP2 MSTORE PUSH1 0x4 ADD PUSH2 0x18C7 SWAP2 SWAP1 PUSH2 0x2131 JUMP JUMPDEST PUSH1 0x40 MLOAD DUP1 SWAP2 SUB SWAP1 REVERT JUMPDEST PUSH0 PUSH1 0x3 PUSH0 CALLER PUSH20 0xFFFFFFFFFFFFFFFFFFFFFFFFFFFFFFFFFFFFFFFF AND PUSH20 0xFFFFFFFFFFFFFFFFFFFFFFFFFFFFFFFFFFFFFFFF AND DUP2 MSTORE PUSH1 0x20 ADD SWAP1 DUP2 MSTORE PUSH1 0x20 ADD PUSH0 KECCAK256 SLOAD SWAP1 POP DUP1 DUP3 GT ISZERO PUSH2 0x1958 JUMPI DUP1 DUP3 PUSH1 0x40 MLOAD PUSH32 0xCF47918100000000000000000000000000000000000000000000000000000000 DUP2 MSTORE PUSH1 0x4 ADD PUSH2 0x194F SWAP3 SWAP2 SWAP1 PUSH2 0x280B JUMP JUMPDEST PUSH1 0x40 MLOAD DUP1 SWAP2 SUB SWAP1 REVERT JUMPDEST DUP2 DUP2 PUSH2 0x1964 SWAP2 SWAP1 PUSH2 0x27D8 JUMP JUMPDEST PUSH1 0x3 PUSH0 CALLER PUSH20 0xFFFFFFFFFFFFFFFFFFFFFFFFFFFFFFFFFFFFFFFF AND PUSH20 0xFFFFFFFFFFFFFFFFFFFFFFFFFFFFFFFFFFFFFFFF AND DUP2 MSTORE PUSH1 0x20 ADD SWAP1 DUP2 MSTORE PUSH1 0x20 ADD PUSH0 KECCAK256 DUP2 SWAP1 SSTORE POP DUP2 PUSH1 0x1 PUSH0 DUP3 DUP3 SLOAD PUSH2 0x19B6 SWAP2 SWAP1 PUSH2 0x27D8 JUMP JUMPDEST SWAP3 POP POP DUP2 SWAP1 SSTORE POP PUSH1 0x4 PUSH0 CALLER PUSH20 0xFFFFFFFFFFFFFFFFFFFFFFFFFFFFFFFFFFFFFFFF AND PUSH20 0xFFFFFFFFFFFFFFFFFFFFFFFFFFFFFFFFFFFFFFFF AND DUP2 MSTORE PUSH1 0x20 ADD SWAP1 DUP2 MSTORE PUSH1 0x20 ADD PUSH0 KECCAK256 PUSH0 DUP2 SLOAD DUP1 SWAP3 SWAP2 SWAP1 PUSH2 0x1A0A SWAP1 PUSH2 0x2859 JUMP JUMPDEST SWAP2 SWAP1 POP SSTORE POP TIMESTAMP PUSH1 0x5 PUSH0 CALLER PUSH20 0xFFFFFFFFFFFFFFFFFFFFFFFFFFFFFFFFFFFFFFFF AND PUSH20 0xFFFFFFFFFFFFFFFFFFFFFFFFFFFFFFFFFFFFFFFF AND DUP2 MSTORE PUSH1 0x20 ADD SWAP1 DUP2 MSTORE PUSH1 0x20 ADD PUSH0 KECCAK256 DUP2 SWAP1 SSTORE POP PUSH0 PUSH32 0x0 PUSH20 0xFFFFFFFFFFFFFFFFFFFFFFFFFFFFFFFFFFFFFFFF AND PUSH4 0xA9059CBB CALLER DUP6 PUSH1 0x40 MLOAD DUP4 PUSH4 0xFFFFFFFF AND PUSH1 0xE0 SHL DUP2 MSTORE PUSH1 0x4 ADD PUSH2 0x1AAD SWAP3 SWAP2 SWAP1 PUSH2 0x2832 JUMP JUMPDEST PUSH1 0x20 PUSH1 0x40 MLOAD DUP1 DUP4 SUB DUP2 PUSH0 DUP8 GAS CALL ISZERO DUP1 ISZERO PUSH2 0x1AC9 JUMPI RETURNDATASIZE PUSH0 PUSH0 RETURNDATACOPY RETURNDATASIZE PUSH0 REVERT JUMPDEST POP POP POP POP PUSH1 0x40 MLOAD RETURNDATASIZE PUSH1 0x1F NOT PUSH1 0x1F DUP3 ADD AND DUP3 ADD DUP1 PUSH1 0x40 MSTORE POP DUP2 ADD SWAP1 PUSH2 0x1AED SWAP2 SWAP1 PUSH2 0x2520 JUMP JUMPDEST SWAP1 POP DUP1 PUSH2 0x1B26 JUMPI PUSH1 0x40 MLOAD PUSH32 0x81CEFF3000000000000000000000000000000000000000000000000000000000 DUP2 MSTORE PUSH1 0x4 ADD PUSH1 0x40 MLOAD DUP1 SWAP2 SUB SWAP1 REVERT JUMPDEST CALLER PUSH20 0xFFFFFFFFFFFFFFFFFFFFFFFFFFFFFFFFFFFFFFFF AND PUSH32 0x23EE1B877CB0081138B4973C5B2ECA0133C573AD526550935D83AAADE37666CA DUP5 PUSH1 0x40 MLOAD PUSH2 0x1B6C SWAP2 SWAP1 PUSH2 0x2131 JUMP JUMPDEST PUSH1 0x40 MLOAD DUP1 SWAP2 SUB SWAP1 LOG2 POP POP PUSH0 PUSH1 0x2 PUSH0 PUSH2 0x100 EXP DUP2 SLOAD DUP2 PUSH1 0xFF MUL NOT AND SWAP1 DUP4 ISZERO ISZERO MUL OR SWAP1 SSTORE POP POP JUMP JUMPDEST PUSH1 0x2 PUSH0 SWAP1 SLOAD SWAP1 PUSH2 0x100 EXP SWAP1 DIV PUSH1 0xFF AND ISZERO PUSH2 0x1BD8 JUMPI PUSH1 0x40 MLOAD PUSH32 0xED3BA6A600000000000000000000000000000000000000000000000000000000 DUP2 MSTORE PUSH1 0x4 ADD PUSH1 0x40 MLOAD DUP1 SWAP2 SUB SWAP1 REVERT JUMPDEST PUSH1 0x1 PUSH1 0x2 PUSH0 PUSH2 0x100 EXP DUP2 SLOAD DUP2 PUSH1 0xFF MUL NOT AND SWAP1 DUP4 ISZERO ISZERO MUL OR SWAP1 SSTORE POP PUSH0 DUP2 SUB PUSH2 0x1C2B JUMPI PUSH1 0x40 MLOAD PUSH32 0x1F2A200500000000000000000000000000000000000000000000000000000000 DUP2 MSTORE PUSH1 0x4 ADD PUSH1 0x40 MLOAD DUP1 SWAP2 SUB SWAP1 REVERT JUMPDEST PUSH32 0x0 DUP2 PUSH1 0x1 SLOAD PUSH2 0x1C5A SWAP2 SWAP1 PUSH2 0x244E JUMP JUMPDEST GT ISZERO PUSH2 0x1CC3 JUMPI DUP1 PUSH1 0x1 SLOAD PUSH32 0x0 PUSH1 0x40 MLOAD PUSH32 0x621E5A6900000000000000000000000000000000000000000000000000000000 DUP2 MSTORE PUSH1 0x4 ADD PUSH2 0x1CBA SWAP4 SWAP3 SWAP2 SWAP1 PUSH2 0x2481 JUMP JUMPDEST PUSH1 0x40 MLOAD DUP1 SWAP2 SUB SWAP1 REVERT JUMPDEST PUSH0 PUSH32 0x0 PUSH20 0xFFFFFFFFFFFFFFFFFFFFFFFFFFFFFFFFFFFFFFFF AND PUSH4 0x23B872DD CALLER ADDRESS DUP6 PUSH1 0x40 MLOAD DUP5 PUSH4 0xFFFFFFFF AND PUSH1 0xE0 SHL DUP2 MSTORE PUSH1 0x4 ADD PUSH2 0x1D21 SWAP4 SWAP3 SWAP2 SWAP1 PUSH2 0x24B6 JUMP JUMPDEST PUSH1 0x20 PUSH1 0x40 MLOAD DUP1 DUP4 SUB DUP2 PUSH0 DUP8 GAS CALL ISZERO DUP1 ISZERO PUSH2 0x1D3D JUMPI RETURNDATASIZE PUSH0 PUSH0 RETURNDATACOPY RETURNDATASIZE PUSH0 REVERT JUMPDEST POP POP POP POP PUSH1 0x40 MLOAD RETURNDATASIZE PUSH1 0x1F NOT PUSH1 0x1F DUP3 ADD AND DUP3 ADD DUP1 PUSH1 0x40 MSTORE POP DUP2 ADD SWAP1 PUSH2 0x1D61 SWAP2 SWAP1 PUSH2 0x2520 JUMP JUMPDEST SWAP1 POP DUP1 PUSH2 0x1D9A JUMPI PUSH1 0x40 MLOAD PUSH32 0x81CEFF3000000000000000000000000000000000000000000000000000000000 DUP2 MSTORE PUSH1 0x4 ADD PUSH1 0x40 MLOAD DUP1 SWAP2 SUB SWAP1 REVERT JUMPDEST DUP2 PUSH1 0x1 PUSH0 DUP3 DUP3 SLOAD PUSH2 0x1DAB SWAP2 SWAP1 PUSH2 0x244E JUMP JUMPDEST SWAP3 POP POP DUP2 SWAP1 SSTORE POP DUP2 PUSH1 0x3 PUSH0 CALLER PUSH20 0xFFFFFFFFFFFFFFFFFFFFFFFFFFFFFFFFFFFFFFFF AND PUSH20 0xFFFFFFFFFFFFFFFFFFFFFFFFFFFFFFFFFFFFFFFF AND DUP2 MSTORE PUSH1 0x20 ADD SWAP1 DUP2 MSTORE PUSH1 0x20 ADD PUSH0 KECCAK256 PUSH0 DUP3 DUP3 SLOAD PUSH2 0x1DFE SWAP2 SWAP1 PUSH2 0x244E JUMP JUMPDEST SWAP3 POP POP DUP2 SWAP1 SSTORE POP CALLER PUSH20 0xFFFFFFFFFFFFFFFFFFFFFFFFFFFFFFFFFFFFFFFF AND PUSH32 0xE7440F6772025DEC9BE06BA934E6EE5289B73533EE2136BA668F6CB6EA3F56A8 DUP4 PUSH1 0x40 MLOAD PUSH2 0x1E4B SWAP2 SWAP1 PUSH2 0x2131 JUMP JUMPDEST PUSH1 0x40 MLOAD DUP1 SWAP2 SUB SWAP1 LOG2 POP PUSH0 PUSH1 0x2 PUSH0 PUSH2 0x100 EXP DUP2 SLOAD DUP2 PUSH1 0xFF MUL NOT AND SWAP1 DUP4 ISZERO ISZERO MUL OR SWAP1 SSTORE POP POP JUMP JUMPDEST PUSH32 0x0 DUP2 JUMP JUMPDEST PUSH3 0x15180 DUP2 JUMP JUMPDEST PUSH0 PUSH32 0x0 PUSH20 0xFFFFFFFFFFFFFFFFFFFFFFFFFFFFFFFFFFFFFFFF AND PUSH4 0xD06CA61F DUP4 DUP6 PUSH1 0x40 MLOAD DUP4 PUSH4 0xFFFFFFFF AND PUSH1 0xE0 SHL DUP2 MSTORE PUSH1 0x4 ADD PUSH2 0x1EF7 SWAP3 SWAP2 SWAP1 PUSH2 0x28A0 JUMP JUMPDEST PUSH0 PUSH1 0x40 MLOAD DUP1 DUP4 SUB DUP2 DUP7 GAS STATICCALL SWAP3 POP POP POP DUP1 ISZERO PUSH2 0x1F34 JUMPI POP PUSH1 0x40 MLOAD RETURNDATASIZE PUSH0 DUP3 RETURNDATACOPY RETURNDATASIZE PUSH1 0x1F NOT PUSH1 0x1F DUP3 ADD AND DUP3 ADD DUP1 PUSH1 0x40 MSTORE POP DUP2 ADD SWAP1 PUSH2 0x1F31 SWAP2 SWAP1 PUSH2 0x2791 JUMP JUMPDEST PUSH1 0x1 JUMPDEST ISZERO PUSH2 0x1F74 JUMPI PUSH1 0x2 DUP2 MLOAD LT PUSH2 0x1F72 JUMPI DUP1 PUSH1 0x1 DUP3 MLOAD PUSH2 0x1F51 SWAP2 SWAP1 PUSH2 0x27D8 JUMP JUMPDEST DUP2 MLOAD DUP2 LT PUSH2 0x1F62 JUMPI PUSH2 0x1F61 PUSH2 0x23F4 JUMP JUMPDEST JUMPDEST PUSH1 0x20 MUL PUSH1 0x20 ADD ADD MLOAD SWAP2 POP POP PUSH2 0x1F78 JUMP JUMPDEST POP JUMPDEST DUP2 SWAP1 POP JUMPDEST SWAP3 SWAP2 POP POP JUMP JUMPDEST DUP3 PUSH20 0xFFFFFFFFFFFFFFFFFFFFFFFFFFFFFFFFFFFFFFFF AND PUSH4 0x95EA7B3 DUP4 PUSH0 PUSH1 0x40 MLOAD DUP4 PUSH4 0xFFFFFFFF AND PUSH1 0xE0 SHL DUP2 MSTORE PUSH1 0x4 ADD PUSH2 0x1FB9 SWAP3 SWAP2 SWAP1 PUSH2 0x2907 JUMP JUMPDEST PUSH1 0x20 PUSH1 0x40 MLOAD DUP1 DUP4 SUB DUP2 PUSH0 DUP8 GAS CALL ISZERO DUP1 ISZERO PUSH2 0x1FD5 JUMPI RETURNDATASIZE PUSH0 PUSH0 RETURNDATACOPY RETURNDATASIZE PUSH0 REVERT JUMPDEST POP POP POP POP PUSH1 0x40 MLOAD RETURNDATASIZE PUSH1 0x1F NOT PUSH1 0x1F DUP3 ADD AND DUP3 ADD DUP1 PUSH1 0x40 MSTORE POP DUP2 ADD SWAP1 PUSH2 0x1FF9 SWAP2 SWAP1 PUSH2 0x2520 JUMP JUMPDEST POP DUP3 PUSH20 0xFFFFFFFFFFFFFFFFFFFFFFFFFFFFFFFFFFFFFFFF AND PUSH4 0x95EA7B3 DUP4 DUP4 PUSH1 0x40 MLOAD DUP4 PUSH4 0xFFFFFFFF AND PUSH1 0xE0 SHL DUP2 MSTORE PUSH1 0x4 ADD PUSH2 0x2035 SWAP3 SWAP2 SWAP1 PUSH2 0x2832 JUMP JUMPDEST PUSH1 0x20 PUSH1 0x40 MLOAD DUP1 DUP4 SUB DUP2 PUSH0 DUP8 GAS CALL ISZERO DUP1 ISZERO PUSH2 0x2051 JUMPI RETURNDATASIZE PUSH0 PUSH0 RETURNDATACOPY RETURNDATASIZE PUSH0 REVERT JUMPDEST POP POP POP POP PUSH1 0x40 MLOAD RETURNDATASIZE PUSH1 0x1F NOT PUSH1 0x1F DUP3 ADD AND DUP3 ADD DUP1 PUSH1 0x40 MSTORE POP DUP2 ADD SWAP1 PUSH2 0x2075 SWAP2 SWAP1 PUSH2 0x2520 JUMP JUMPDEST POP POP POP POP JUMP JUMPDEST PUSH0 DUP3 DUP3 MSTORE PUSH1 0x20 DUP3 ADD SWAP1 POP SWAP3 SWAP2 POP POP JUMP JUMPDEST PUSH32 0x557365206465706F73697445544853776170546F555344432066756E6374696F PUSH0 DUP3 ADD MSTORE PUSH32 0x6E206469726563746C7900000000000000000000000000000000000000000000 PUSH1 0x20 DUP3 ADD MSTORE POP JUMP JUMPDEST PUSH0 PUSH2 0x20E5 PUSH1 0x2A DUP4 PUSH2 0x207B JUMP JUMPDEST SWAP2 POP PUSH2 0x20F0 DUP3 PUSH2 0x208B JUMP JUMPDEST PUSH1 0x40 DUP3 ADD SWAP1 POP SWAP2 SWAP1 POP JUMP JUMPDEST PUSH0 PUSH1 0x20 DUP3 ADD SWAP1 POP DUP2 DUP2 SUB PUSH0 DUP4 ADD MSTORE PUSH2 0x2112 DUP2 PUSH2 0x20D9 JUMP JUMPDEST SWAP1 POP SWAP2 SWAP1 POP JUMP JUMPDEST PUSH0 DUP2 SWAP1 POP SWAP2 SWAP1 POP JUMP JUMPDEST PUSH2 0x212B DUP2 PUSH2 0x2119 JUMP JUMPDEST DUP3 MSTORE POP POP JUMP JUMPDEST PUSH0 PUSH1 0x20 DUP3 ADD SWAP1 POP PUSH2 0x2144 PUSH0 DUP4 ADD DUP5 PUSH2 0x2122 JUMP JUMPDEST SWAP3 SWAP2 POP POP JUMP JUMPDEST PUSH0 PUSH1 0x40 MLOAD SWAP1 POP SWAP1 JUMP JUMPDEST PUSH0 PUSH0 REVERT JUMPDEST PUSH0 PUSH0 REVERT JUMPDEST PUSH0 PUSH20 0xFFFFFFFFFFFFFFFFFFFFFFFFFFFFFFFFFFFFFFFF DUP3 AND SWAP1 POP SWAP2 SWAP1 POP JUMP JUMPDEST PUSH0 PUSH2 0x2184 DUP3 PUSH2 0x215B JUMP JUMPDEST SWAP1 POP SWAP2 SWAP1 POP JUMP JUMPDEST PUSH2 0x2194 DUP2 PUSH2 0x217A JUMP JUMPDEST DUP2 EQ PUSH2 0x219E JUMPI PUSH0 PUSH0 REVERT JUMPDEST POP JUMP JUMPDEST PUSH0 DUP2 CALLDATALOAD SWAP1 POP PUSH2 0x21AF DUP2 PUSH2 0x218B JUMP JUMPDEST SWAP3 SWAP2 POP POP JUMP JUMPDEST PUSH0 PUSH1 0x20 DUP3 DUP5 SUB SLT ISZERO PUSH2 0x21CA JUMPI PUSH2 0x21C9 PUSH2 0x2153 JUMP JUMPDEST JUMPDEST PUSH0 PUSH2 0x21D7 DUP5 DUP3 DUP6 ADD PUSH2 0x21A1 JUMP JUMPDEST SWAP2 POP POP SWAP3 SWAP2 POP POP JUMP JUMPDEST PUSH2 0x21E9 DUP2 PUSH2 0x2119 JUMP JUMPDEST DUP2 EQ PUSH2 0x21F3 JUMPI PUSH0 PUSH0 REVERT JUMPDEST POP JUMP JUMPDEST PUSH0 DUP2 CALLDATALOAD SWAP1 POP PUSH2 0x2204 DUP2 PUSH2 0x21E0 JUMP JUMPDEST SWAP3 SWAP2 POP POP JUMP JUMPDEST PUSH0 PUSH0 PUSH0 PUSH1 0x60 DUP5 DUP7 SUB SLT ISZERO PUSH2 0x2221 JUMPI PUSH2 0x2220 PUSH2 0x2153 JUMP JUMPDEST JUMPDEST PUSH0 PUSH2 0x222E DUP7 DUP3 DUP8 ADD PUSH2 0x21A1 JUMP JUMPDEST SWAP4 POP POP PUSH1 0x20 PUSH2 0x223F DUP7 DUP3 DUP8 ADD PUSH2 0x21F6 JUMP JUMPDEST SWAP3 POP POP PUSH1 0x40 PUSH2 0x2250 DUP7 DUP3 DUP8 ADD PUSH2 0x21F6 JUMP JUMPDEST SWAP2 POP POP SWAP3 POP SWAP3 POP SWAP3 JUMP JUMPDEST PUSH0 PUSH1 0x20 DUP3 DUP5 SUB SLT ISZERO PUSH2 0x226F JUMPI PUSH2 0x226E PUSH2 0x2153 JUMP JUMPDEST JUMPDEST PUSH0 PUSH2 0x227C DUP5 DUP3 DUP6 ADD PUSH2 0x21F6 JUMP JUMPDEST SWAP2 POP POP SWAP3 SWAP2 POP POP JUMP JUMPDEST PUSH2 0x228E DUP2 PUSH2 0x217A JUMP JUMPDEST DUP3 MSTORE POP POP JUMP JUMPDEST PUSH0 PUSH1 0x20 DUP3 ADD SWAP1 POP PUSH2 0x22A7 PUSH0 DUP4 ADD DUP5 PUSH2 0x2285 JUMP JUMPDEST SWAP3 SWAP2 POP POP JUMP JUMPDEST PUSH0 PUSH0 PUSH1 0x40 DUP4 DUP6 SUB SLT ISZERO PUSH2 0x22C3 JUMPI PUSH2 0x22C2 PUSH2 0x2153 JUMP JUMPDEST JUMPDEST PUSH0 PUSH2 0x22D0 DUP6 DUP3 DUP7 ADD PUSH2 0x21A1 JUMP JUMPDEST SWAP3 POP POP PUSH1 0x20 PUSH2 0x22E1 DUP6 DUP3 DUP7 ADD PUSH2 0x21F6 JUMP JUMPDEST SWAP2 POP POP SWAP3 POP SWAP3 SWAP1 POP JUMP JUMPDEST PUSH0 DUP2 SWAP1 POP SWAP2 SWAP1 POP JUMP JUMPDEST PUSH0 PUSH2 0x230E PUSH2 0x2309 PUSH2 0x2304 DUP5 PUSH2 0x215B JUMP JUMPDEST PUSH2 0x22EB JUMP JUMPDEST PUSH2 0x215B JUMP JUMPDEST SWAP1 POP SWAP2 SWAP1 POP JUMP JUMPDEST PUSH0 PUSH2 0x231F DUP3 PUSH2 0x22F4 JUMP JUMPDEST SWAP1 POP SWAP2 SWAP1 POP JUMP JUMPDEST PUSH0 PUSH2 0x2330 DUP3 PUSH2 0x2315 JUMP JUMPDEST SWAP1 POP SWAP2 SWAP1 POP JUMP JUMPDEST PUSH2 0x2340 DUP2 PUSH2 0x2326 JUMP JUMPDEST DUP3 MSTORE POP POP JUMP JUMPDEST PUSH0 PUSH1 0x20 DUP3 ADD SWAP1 POP PUSH2 0x2359 PUSH0 DUP4 ADD DUP5 PUSH2 0x2337 JUMP JUMPDEST SWAP3 SWAP2 POP POP JUMP JUMPDEST PUSH32 0x7A65726F20616464720000000000000000000000000000000000000000000000 PUSH0 DUP3 ADD MSTORE POP JUMP JUMPDEST PUSH0 PUSH2 0x2393 PUSH1 0x9 DUP4 PUSH2 0x207B JUMP JUMPDEST SWAP2 POP PUSH2 0x239E DUP3 PUSH2 0x235F JUMP JUMPDEST PUSH1 0x20 DUP3 ADD SWAP1 POP SWAP2 SWAP1 POP JUMP JUMPDEST PUSH0 PUSH1 0x20 DUP3 ADD SWAP1 POP DUP2 DUP2 SUB PUSH0 DUP4 ADD MSTORE PUSH2 0x23C0 DUP2 PUSH2 0x2387 JUMP JUMPDEST SWAP1 POP SWAP2 SWAP1 POP JUMP JUMPDEST PUSH32 0x4E487B7100000000000000000000000000000000000000000000000000000000 PUSH0 MSTORE PUSH1 0x41 PUSH1 0x4 MSTORE PUSH1 0x24 PUSH0 REVERT JUMPDEST PUSH32 0x4E487B7100000000000000000000000000000000000000000000000000000000 PUSH0 MSTORE PUSH1 0x32 PUSH1 0x4 MSTORE PUSH1 0x24 PUSH0 REVERT JUMPDEST PUSH32 0x4E487B7100000000000000000000000000000000000000000000000000000000 PUSH0 MSTORE PUSH1 0x11 PUSH1 0x4 MSTORE PUSH1 0x24 PUSH0 REVERT JUMPDEST PUSH0 PUSH2 0x2458 DUP3 PUSH2 0x2119 JUMP JUMPDEST SWAP2 POP PUSH2 0x2463 DUP4 PUSH2 0x2119 JUMP JUMPDEST SWAP3 POP DUP3 DUP3 ADD SWAP1 POP DUP1 DUP3 GT ISZERO PUSH2 0x247B JUMPI PUSH2 0x247A PUSH2 0x2421 JUMP JUMPDEST JUMPDEST SWAP3 SWAP2 POP POP JUMP JUMPDEST PUSH0 PUSH1 0x60 DUP3 ADD SWAP1 POP PUSH2 0x2494 PUSH0 DUP4 ADD DUP7 PUSH2 0x2122 JUMP JUMPDEST PUSH2 0x24A1 PUSH1 0x20 DUP4 ADD DUP6 PUSH2 0x2122 JUMP JUMPDEST PUSH2 0x24AE PUSH1 0x40 DUP4 ADD DUP5 PUSH2 0x2122 JUMP JUMPDEST SWAP5 SWAP4 POP POP POP POP JUMP JUMPDEST PUSH0 PUSH1 0x60 DUP3 ADD SWAP1 POP PUSH2 0x24C9 PUSH0 DUP4 ADD DUP7 PUSH2 0x2285 JUMP JUMPDEST PUSH2 0x24D6 PUSH1 0x20 DUP4 ADD DUP6 PUSH2 0x2285 JUMP JUMPDEST PUSH2 0x24E3 PUSH1 0x40 DUP4 ADD DUP5 PUSH2 0x2122 JUMP JUMPDEST SWAP5 SWAP4 POP POP POP POP JUMP JUMPDEST PUSH0 DUP2 ISZERO ISZERO SWAP1 POP SWAP2 SWAP1 POP JUMP JUMPDEST PUSH2 0x24FF DUP2 PUSH2 0x24EB JUMP JUMPDEST DUP2 EQ PUSH2 0x2509 JUMPI PUSH0 PUSH0 REVERT JUMPDEST POP JUMP JUMPDEST PUSH0 DUP2 MLOAD SWAP1 POP PUSH2 0x251A DUP2 PUSH2 0x24F6 JUMP JUMPDEST SWAP3 SWAP2 POP POP JUMP JUMPDEST PUSH0 PUSH1 0x20 DUP3 DUP5 SUB SLT ISZERO PUSH2 0x2535 JUMPI PUSH2 0x2534 PUSH2 0x2153 JUMP JUMPDEST JUMPDEST PUSH0 PUSH2 0x2542 DUP5 DUP3 DUP6 ADD PUSH2 0x250C JUMP JUMPDEST SWAP2 POP POP SWAP3 SWAP2 POP POP JUMP JUMPDEST PUSH0 DUP2 MLOAD SWAP1 POP SWAP2 SWAP1 POP JUMP JUMPDEST PUSH0 DUP3 DUP3 MSTORE PUSH1 0x20 DUP3 ADD SWAP1 POP SWAP3 SWAP2 POP POP JUMP JUMPDEST PUSH0 DUP2 SWAP1 POP PUSH1 0x20 DUP3 ADD SWAP1 POP SWAP2 SWAP1 POP JUMP JUMPDEST PUSH2 0x257D DUP2 PUSH2 0x217A JUMP JUMPDEST DUP3 MSTORE POP POP JUMP JUMPDEST PUSH0 PUSH2 0x258E DUP4 DUP4 PUSH2 0x2574 JUMP JUMPDEST PUSH1 0x20 DUP4 ADD SWAP1 POP SWAP3 SWAP2 POP POP JUMP JUMPDEST PUSH0 PUSH1 0x20 DUP3 ADD SWAP1 POP SWAP2 SWAP1 POP JUMP JUMPDEST PUSH0 PUSH2 0x25B0 DUP3 PUSH2 0x254B JUMP JUMPDEST PUSH2 0x25BA DUP2 DUP6 PUSH2 0x2555 JUMP JUMPDEST SWAP4 POP PUSH2 0x25C5 DUP4 PUSH2 0x2565 JUMP JUMPDEST DUP1 PUSH0 JUMPDEST DUP4 DUP2 LT ISZERO PUSH2 0x25F5 JUMPI DUP2 MLOAD PUSH2 0x25DC DUP9 DUP3 PUSH2 0x2583 JUMP JUMPDEST SWAP8 POP PUSH2 0x25E7 DUP4 PUSH2 0x259A JUMP JUMPDEST SWAP3 POP POP PUSH1 0x1 DUP2 ADD SWAP1 POP PUSH2 0x25C8 JUMP JUMPDEST POP DUP6 SWAP4 POP POP POP POP SWAP3 SWAP2 POP POP JUMP JUMPDEST PUSH0 PUSH1 0xA0 DUP3 ADD SWAP1 POP PUSH2 0x2615 PUSH0 DUP4 ADD DUP9 PUSH2 0x2122 JUMP JUMPDEST PUSH2 0x2622 PUSH1 0x20 DUP4 ADD DUP8 PUSH2 0x2122 JUMP JUMPDEST DUP2 DUP2 SUB PUSH1 0x40 DUP4 ADD MSTORE PUSH2 0x2634 DUP2 DUP7 PUSH2 0x25A6 JUMP JUMPDEST SWAP1 POP PUSH2 0x2643 PUSH1 0x60 DUP4 ADD DUP6 PUSH2 0x2285 JUMP JUMPDEST PUSH2 0x2650 PUSH1 0x80 DUP4 ADD DUP5 PUSH2 0x2122 JUMP JUMPDEST SWAP7 SWAP6 POP POP POP POP POP POP JUMP JUMPDEST PUSH0 PUSH0 REVERT JUMPDEST PUSH0 PUSH1 0x1F NOT PUSH1 0x1F DUP4 ADD AND SWAP1 POP SWAP2 SWAP1 POP JUMP JUMPDEST PUSH2 0x2677 DUP3 PUSH2 0x265E JUMP JUMPDEST DUP2 ADD DUP2 DUP2 LT PUSH8 0xFFFFFFFFFFFFFFFF DUP3 GT OR ISZERO PUSH2 0x2696 JUMPI PUSH2 0x2695 PUSH2 0x23C7 JUMP JUMPDEST JUMPDEST DUP1 PUSH1 0x40 MSTORE POP POP POP JUMP JUMPDEST PUSH0 PUSH2 0x26A8 PUSH2 0x214A JUMP JUMPDEST SWAP1 POP PUSH2 0x26B4 DUP3 DUP3 PUSH2 0x266E JUMP JUMPDEST SWAP2 SWAP1 POP JUMP JUMPDEST PUSH0 PUSH8 0xFFFFFFFFFFFFFFFF DUP3 GT ISZERO PUSH2 0x26D3 JUMPI PUSH2 0x26D2 PUSH2 0x23C7 JUMP JUMPDEST JUMPDEST PUSH1 0x20 DUP3 MUL SWAP1 POP PUSH1 0x20 DUP2 ADD SWAP1 POP SWAP2 SWAP1 POP JUMP JUMPDEST PUSH0 PUSH0 REVERT JUMPDEST PUSH0 DUP2 MLOAD SWAP1 POP PUSH2 0x26F6 DUP2 PUSH2 0x21E0 JUMP JUMPDEST SWAP3 SWAP2 POP POP JUMP JUMPDEST PUSH0 PUSH2 0x270E PUSH2 0x2709 DUP5 PUSH2 0x26B9 JUMP JUMPDEST PUSH2 0x269F JUMP JUMPDEST SWAP1 POP DUP1 DUP4 DUP3 MSTORE PUSH1 0x20 DUP3 ADD SWAP1 POP PUSH1 0x20 DUP5 MUL DUP4 ADD DUP6 DUP2 GT ISZERO PUSH2 0x2731 JUMPI PUSH2 0x2730 PUSH2 0x26E4 JUMP JUMPDEST JUMPDEST DUP4 JUMPDEST DUP2 DUP2 LT ISZERO PUSH2 0x275A JUMPI DUP1 PUSH2 0x2746 DUP9 DUP3 PUSH2 0x26E8 JUMP JUMPDEST DUP5 MSTORE PUSH1 0x20 DUP5 ADD SWAP4 POP POP PUSH1 0x20 DUP2 ADD SWAP1 POP PUSH2 0x2733 JUMP JUMPDEST POP POP POP SWAP4 SWAP3 POP POP POP JUMP JUMPDEST PUSH0 DUP3 PUSH1 0x1F DUP4 ADD SLT PUSH2 0x2778 JUMPI PUSH2 0x2777 PUSH2 0x265A JUMP JUMPDEST JUMPDEST DUP2 MLOAD PUSH2 0x2788 DUP5 DUP3 PUSH1 0x20 DUP7 ADD PUSH2 0x26FC JUMP JUMPDEST SWAP2 POP POP SWAP3 SWAP2 POP POP JUMP JUMPDEST PUSH0 PUSH1 0x20 DUP3 DUP5 SUB SLT ISZERO PUSH2 0x27A6 JUMPI PUSH2 0x27A5 PUSH2 0x2153 JUMP JUMPDEST JUMPDEST PUSH0 DUP3 ADD MLOAD PUSH8 0xFFFFFFFFFFFFFFFF DUP2 GT ISZERO PUSH2 0x27C3 JUMPI PUSH2 0x27C2 PUSH2 0x2157 JUMP JUMPDEST JUMPDEST PUSH2 0x27CF DUP5 DUP3 DUP6 ADD PUSH2 0x2764 JUMP JUMPDEST SWAP2 POP POP SWAP3 SWAP2 POP POP JUMP JUMPDEST PUSH0 PUSH2 0x27E2 DUP3 PUSH2 0x2119 JUMP JUMPDEST SWAP2 POP PUSH2 0x27ED DUP4 PUSH2 0x2119 JUMP JUMPDEST SWAP3 POP DUP3 DUP3 SUB SWAP1 POP DUP2 DUP2 GT ISZERO PUSH2 0x2805 JUMPI PUSH2 0x2804 PUSH2 0x2421 JUMP JUMPDEST JUMPDEST SWAP3 SWAP2 POP POP JUMP JUMPDEST PUSH0 PUSH1 0x40 DUP3 ADD SWAP1 POP PUSH2 0x281E PUSH0 DUP4 ADD DUP6 PUSH2 0x2122 JUMP JUMPDEST PUSH2 0x282B PUSH1 0x20 DUP4 ADD DUP5 PUSH2 0x2122 JUMP JUMPDEST SWAP4 SWAP3 POP POP POP JUMP JUMPDEST PUSH0 PUSH1 0x40 DUP3 ADD SWAP1 POP PUSH2 0x2845 PUSH0 DUP4 ADD DUP6 PUSH2 0x2285 JUMP JUMPDEST PUSH2 0x2852 PUSH1 0x20 DUP4 ADD DUP5 PUSH2 0x2122 JUMP JUMPDEST SWAP4 SWAP3 POP POP POP JUMP JUMPDEST PUSH0 PUSH2 0x2863 DUP3 PUSH2 0x2119 JUMP JUMPDEST SWAP2 POP PUSH32 0xFFFFFFFFFFFFFFFFFFFFFFFFFFFFFFFFFFFFFFFFFFFFFFFFFFFFFFFFFFFFFFFF DUP3 SUB PUSH2 0x2895 JUMPI PUSH2 0x2894 PUSH2 0x2421 JUMP JUMPDEST JUMPDEST PUSH1 0x1 DUP3 ADD SWAP1 POP SWAP2 SWAP1 POP JUMP JUMPDEST PUSH0 PUSH1 0x40 DUP3 ADD SWAP1 POP PUSH2 0x28B3 PUSH0 DUP4 ADD DUP6 PUSH2 0x2122 JUMP JUMPDEST DUP2 DUP2 SUB PUSH1 0x20 DUP4 ADD MSTORE PUSH2 0x28C5 DUP2 DUP5 PUSH2 0x25A6 JUMP JUMPDEST SWAP1 POP SWAP4 SWAP3 POP POP POP JUMP JUMPDEST PUSH0 DUP2 SWAP1 POP SWAP2 SWAP1 POP JUMP JUMPDEST PUSH0 PUSH2 0x28F1 PUSH2 0x28EC PUSH2 0x28E7 DUP5 PUSH2 0x28CE JUMP JUMPDEST PUSH2 0x22EB JUMP JUMPDEST PUSH2 0x2119 JUMP JUMPDEST SWAP1 POP SWAP2 SWAP1 POP JUMP JUMPDEST PUSH2 0x2901 DUP2 PUSH2 0x28D7 JUMP JUMPDEST DUP3 MSTORE POP POP JUMP JUMPDEST PUSH0 PUSH1 0x40 DUP3 ADD SWAP1 POP PUSH2 0x291A PUSH0 DUP4 ADD DUP6 PUSH2 0x2285 JUMP JUMPDEST PUSH2 0x2927 PUSH1 0x20 DUP4 ADD DUP5 PUSH2 0x28F8 JUMP JUMPDEST SWAP4 SWAP3 POP POP POP JUMP INVALID LOG2 PUSH5 0x6970667358 0x22 SLT KECCAK256 0x24 SELFDESTRUCT EQ 0xC6 PUSH20 0x1BBAA5CC2E78DAB7220C6609C36A7F89F825D2D0 AND 0xB4 TLOAD 0x1E COINBASE 0xBD EXTCODECOPY PUSH5 0x736F6C6343 STOP ADDMOD 0x1E STOP CALLER "
		},
		"gasEstimates": {
			"creation": {
				"codeDepositCost": "2119200",
				"executionCost": "infinite",
				"totalCost": "infinite"
			},
			"external": {
				"": "200",
				"MAX_WITHDRAWAL_AMOUNT()": "349",
				"USDC()": "infinite",
				"WETH()": "infinite",
				"WITHDRAWAL_COOLDOWN()": "435",
				"bankCapUsd()": "infinite",
				"depositETHSwapToUSDC(uint256)": "infinite",
				"depositTokenSwapToUSDC(address,uint256,uint256)": "infinite",
				"depositUSDC(uint256)": "infinite",
				"emergencyWithdraw(address,uint256)": "infinite",
				"lastWithdrawalTime(address)": "2825",
				"owner()": "2596",
				"remainingCapacity()": "infinite",
				"router()": "infinite",
				"setOwner(address)": "30653",
				"totalUsdc()": "2493",
				"usdcBalanceOf(address)": "2851",
				"withdrawUSDC(uint256)": "infinite",
				"withdrawalCount(address)": "2891"
			},
			"internal": {
				"_estimateSwapOutput(address[] memory,uint256)": "infinite",
				"_safeApprove(address,address,uint256)": "infinite"
			}
		},
		"methodIdentifiers": {
			"MAX_WITHDRAWAL_AMOUNT()": "058c8c2e",
			"USDC()": "89a30271",
			"WETH()": "ad5c4648",
			"WITHDRAWAL_COOLDOWN()": "feedab00",
			"bankCapUsd()": "ac4543ba",
			"depositETHSwapToUSDC(uint256)": "883f1721",
			"depositTokenSwapToUSDC(address,uint256,uint256)": "39657553",
			"depositUSDC(uint256)": "f688bcfb",
			"emergencyWithdraw(address,uint256)": "95ccea67",
			"lastWithdrawalTime(address)": "4de5120e",
			"owner()": "8da5cb5b",
			"remainingCapacity()": "a78c7b08",
			"router()": "f887ea40",
			"setOwner(address)": "13af4035",
			"totalUsdc()": "34462be6",
			"usdcBalanceOf(address)": "c3fd262d",
			"withdrawUSDC(uint256)": "db81f99b",
			"withdrawalCount(address)": "b3d8bcdc"
		}
	},
	"abi": [
		{
			"inputs": [
				{
					"internalType": "address",
					"name": "_usdc",
					"type": "address"
				},
				{
					"internalType": "address",
					"name": "_router",
					"type": "address"
				},
				{
					"internalType": "uint256",
					"name": "_bankCapUsd",
					"type": "uint256"
				}
			],
			"stateMutability": "nonpayable",
			"type": "constructor"
		},
		{
			"inputs": [
				{
					"internalType": "uint256",
					"name": "attempted",
					"type": "uint256"
				},
				{
					"internalType": "uint256",
					"name": "total",
					"type": "uint256"
				},
				{
					"internalType": "uint256",
					"name": "cap",
					"type": "uint256"
				}
			],
			"name": "BankCapExceeded",
			"type": "error"
		},
		{
			"inputs": [
				{
					"internalType": "uint256",
					"name": "waitTime",
					"type": "uint256"
				}
			],
			"name": "CooldownActive",
			"type": "error"
		},
		{
			"inputs": [
				{
					"internalType": "uint256",
					"name": "available",
					"type": "uint256"
				},
				{
					"internalType": "uint256",
					"name": "requested",
					"type": "uint256"
				}
			],
			"name": "InsufficientBalance",
			"type": "error"
		},
		{
			"inputs": [],
			"name": "InvalidPath",
			"type": "error"
		},
		{
			"inputs": [],
			"name": "InvalidToken",
			"type": "error"
		},
		{
			"inputs": [],
			"name": "NotOwner",
			"type": "error"
		},
		{
			"inputs": [],
			"name": "Reentrant",
			"type": "error"
		},
		{
			"inputs": [],
			"name": "SwapFailed",
			"type": "error"
		},
		{
			"inputs": [
				{
					"internalType": "uint256",
					"name": "attempted",
					"type": "uint256"
				},
				{
					"internalType": "uint256",
					"name": "limit",
					"type": "uint256"
				}
			],
			"name": "WithdrawalLimitExceeded",
			"type": "error"
		},
		{
			"inputs": [],
			"name": "ZeroAmount",
			"type": "error"
		},
		{
			"anonymous": false,
			"inputs": [
				{
					"indexed": true,
					"internalType": "address",
					"name": "user",
					"type": "address"
				},
				{
					"indexed": true,
					"internalType": "address",
					"name": "tokenIn",
					"type": "address"
				},
				{
					"indexed": false,
					"internalType": "uint256",
					"name": "amountIn",
					"type": "uint256"
				},
				{
					"indexed": false,
					"internalType": "uint256",
					"name": "usdcReceived",
					"type": "uint256"
				}
			],
			"name": "DepositConverted",
			"type": "event"
		},
		{
			"anonymous": false,
			"inputs": [
				{
					"indexed": true,
					"internalType": "address",
					"name": "user",
					"type": "address"
				},
				{
					"indexed": false,
					"internalType": "uint256",
					"name": "amountUsdc",
					"type": "uint256"
				}
			],
			"name": "DepositUSDC",
			"type": "event"
		},
		{
			"anonymous": false,
			"inputs": [
				{
					"indexed": true,
					"internalType": "address",
					"name": "token",
					"type": "address"
				},
				{
					"indexed": false,
					"internalType": "uint256",
					"name": "amount",
					"type": "uint256"
				}
			],
			"name": "EmergencyWithdraw",
			"type": "event"
		},
		{
			"anonymous": false,
			"inputs": [
				{
					"indexed": true,
					"internalType": "address",
					"name": "oldOwner",
					"type": "address"
				},
				{
					"indexed": true,
					"internalType": "address",
					"name": "newOwner",
					"type": "address"
				}
			],
			"name": "OwnerChanged",
			"type": "event"
		},
		{
			"anonymous": false,
			"inputs": [
				{
					"indexed": true,
					"internalType": "address",
					"name": "user",
					"type": "address"
				},
				{
					"indexed": false,
					"internalType": "uint256",
					"name": "amountUsdc",
					"type": "uint256"
				}
			],
			"name": "WithdrawUSDC",
			"type": "event"
		},
		{
			"stateMutability": "payable",
			"type": "fallback"
		},
		{
			"inputs": [],
			"name": "MAX_WITHDRAWAL_AMOUNT",
			"outputs": [
				{
					"internalType": "uint256",
					"name": "",
					"type": "uint256"
				}
			],
			"stateMutability": "view",
			"type": "function"
		},
		{
			"inputs": [],
			"name": "USDC",
			"outputs": [
				{
					"internalType": "address",
					"name": "",
					"type": "address"
				}
			],
			"stateMutability": "view",
			"type": "function"
		},
		{
			"inputs": [],
			"name": "WETH",
			"outputs": [
				{
					"internalType": "address",
					"name": "",
					"type": "address"
				}
			],
			"stateMutability": "view",
			"type": "function"
		},
		{
			"inputs": [],
			"name": "WITHDRAWAL_COOLDOWN",
			"outputs": [
				{
					"internalType": "uint256",
					"name": "",
					"type": "uint256"
				}
			],
			"stateMutability": "view",
			"type": "function"
		},
		{
			"inputs": [],
			"name": "bankCapUsd",
			"outputs": [
				{
					"internalType": "uint256",
					"name": "",
					"type": "uint256"
				}
			],
			"stateMutability": "view",
			"type": "function"
		},
		{
			"inputs": [
				{
					"internalType": "uint256",
					"name": "minUsdcOut",
					"type": "uint256"
				}
			],
			"name": "depositETHSwapToUSDC",
			"outputs": [],
			"stateMutability": "payable",
			"type": "function"
		},
		{
			"inputs": [
				{
					"internalType": "address",
					"name": "token",
					"type": "address"
				},
				{
					"internalType": "uint256",
					"name": "amountIn",
					"type": "uint256"
				},
				{
					"internalType": "uint256",
					"name": "minUsdcOut",
					"type": "uint256"
				}
			],
			"name": "depositTokenSwapToUSDC",
			"outputs": [],
			"stateMutability": "nonpayable",
			"type": "function"
		},
		{
			"inputs": [
				{
					"internalType": "uint256",
					"name": "amountUsdc",
					"type": "uint256"
				}
			],
			"name": "depositUSDC",
			"outputs": [],
			"stateMutability": "nonpayable",
			"type": "function"
		},
		{
			"inputs": [
				{
					"internalType": "address",
					"name": "token",
					"type": "address"
				},
				{
					"internalType": "uint256",
					"name": "amount",
					"type": "uint256"
				}
			],
			"name": "emergencyWithdraw",
			"outputs": [],
			"stateMutability": "nonpayable",
			"type": "function"
		},
		{
			"inputs": [
				{
					"internalType": "address",
					"name": "",
					"type": "address"
				}
			],
			"name": "lastWithdrawalTime",
			"outputs": [
				{
					"internalType": "uint256",
					"name": "",
					"type": "uint256"
				}
			],
			"stateMutability": "view",
			"type": "function"
		},
		{
			"inputs": [],
			"name": "owner",
			"outputs": [
				{
					"internalType": "address",
					"name": "",
					"type": "address"
				}
			],
			"stateMutability": "view",
			"type": "function"
		},
		{
			"inputs": [],
			"name": "remainingCapacity",
			"outputs": [
				{
					"internalType": "uint256",
					"name": "",
					"type": "uint256"
				}
			],
			"stateMutability": "view",
			"type": "function"
		},
		{
			"inputs": [],
			"name": "router",
			"outputs": [
				{
					"internalType": "contract IUniswapV2Router02",
					"name": "",
					"type": "address"
				}
			],
			"stateMutability": "view",
			"type": "function"
		},
		{
			"inputs": [
				{
					"internalType": "address",
					"name": "newOwner",
					"type": "address"
				}
			],
			"name": "setOwner",
			"outputs": [],
			"stateMutability": "nonpayable",
			"type": "function"
		},
		{
			"inputs": [],
			"name": "totalUsdc",
			"outputs": [
				{
					"internalType": "uint256",
					"name": "",
					"type": "uint256"
				}
			],
			"stateMutability": "view",
			"type": "function"
		},
		{
			"inputs": [
				{
					"internalType": "address",
					"name": "user",
					"type": "address"
				}
			],
			"name": "usdcBalanceOf",
			"outputs": [
				{
					"internalType": "uint256",
					"name": "",
					"type": "uint256"
				}
			],
			"stateMutability": "view",
			"type": "function"
		},
		{
			"inputs": [
				{
					"internalType": "uint256",
					"name": "amountUsdc",
					"type": "uint256"
				}
			],
			"name": "withdrawUSDC",
			"outputs": [],
			"stateMutability": "nonpayable",
			"type": "function"
		},
		{
			"inputs": [
				{
					"internalType": "address",
					"name": "",
					"type": "address"
				}
			],
			"name": "withdrawalCount",
			"outputs": [
				{
					"internalType": "uint256",
					"name": "",
					"type": "uint256"
				}
			],
			"stateMutability": "view",
			"type": "function"
		},
		{
			"stateMutability": "payable",
			"type": "receive"
		}
	]
}