{
	"data": {
		"bytecode": {
			"linkReferences": {},
			"object": "610100604052348015610010575f5ffd5b50604051612720380380612720833981810160405281019061003291906102c2565b5f73ffffffffffffffffffffffffffffffffffffffff168373ffffffffffffffffffffffffffffffffffffffff16148061009757505f73ffffffffffffffffffffffffffffffffffffffff168273ffffffffffffffffffffffffffffffffffffffff16145b806100a157505f81145b156100d8576040517f1f2a200500000000000000000000000000000000000000000000000000000000815260040160405180910390fd5b8273ffffffffffffffffffffffffffffffffffffffff1660808173ffffffffffffffffffffffffffffffffffffffff16815250508173ffffffffffffffffffffffffffffffffffffffff1660a08173ffffffffffffffffffffffffffffffffffffffff168152505060a05173ffffffffffffffffffffffffffffffffffffffff1663ad5c46486040518163ffffffff1660e01b8152600401602060405180830381865afa15801561018b573d5f5f3e3d5ffd5b505050506040513d601f19601f820116820180604052508101906101af9190610312565b73ffffffffffffffffffffffffffffffffffffffff1660c08173ffffffffffffffffffffffffffffffffffffffff16815250508060e08181525050335f5f6101000a81548173ffffffffffffffffffffffffffffffffffffffff021916908373ffffffffffffffffffffffffffffffffffffffff16021790555050505061033d565b5f5ffd5b5f73ffffffffffffffffffffffffffffffffffffffff82169050919050565b5f61025e82610235565b9050919050565b61026e81610254565b8114610278575f5ffd5b50565b5f8151905061028981610265565b92915050565b5f819050919050565b6102a18161028f565b81146102ab575f5ffd5b50565b5f815190506102bc81610298565b92915050565b5f5f5f606084860312156102d9576102d8610231565b5b5f6102e68682870161027b565b93505060206102f78682870161027b565b9250506040610308868287016102ae565b9150509250925092565b5f6020828403121561032757610326610231565b5b5f6103348482850161027b565b91505092915050565b60805160a05160c05160e05161231661040a5f395f81816109fa01528181610acf01528181610fcd015281816110a20152818161125b0152818161172001526117f501525f8181610cbc01528181610d3c01528181610dd10152818161116c015261127f01525f81816107aa015281816108ed01528181610d5d01528181610ec0015261192a01525f81816106680152818161086c01528181610a2f01528181610e3f0152818161100201528181611213015281816114700152818161164a015261175501526123165ff3fe6080604052600436106100aa575f3560e01c8063ac4543ba11610063578063ac4543ba146102d4578063ad5c4648146102fe578063c3fd262d14610328578063db81f99b14610364578063f688bcfb1461038c578063f887ea40146103b4576101e6565b806313af4035146101ea57806334462be614610212578063396575531461023c578063883f17211461026457806389a30271146102805780638da5cb5b146102aa576101e6565b366101e6575f3073ffffffffffffffffffffffffffffffffffffffff165f6040516024016100d89190611a97565b6040516020818303038152906040527f883f1721000000000000000000000000000000000000000000000000000000007bffffffffffffffffffffffffffffffffffffffffffffffffffffffff19166020820180517bffffffffffffffffffffffffffffffffffffffffffffffffffffffff83818316178352505050506040516101629190611b02565b5f604051808303815f865af19150503d805f811461019b576040519150601f19603f3d011682016040523d82523d5f602084013e6101a0565b606091505b50509050806101e4576040517f08c379a00000000000000000000000000000000000000000000000000000000081526004016101db90611b72565b60405180910390fd5b005b5f5ffd5b3480156101f5575f5ffd5b50610210600480360381019061020b9190611bfb565b6103de565b005b34801561021d575f5ffd5b50610226610592565b6040516102339190611c3e565b60405180910390f35b348015610247575f5ffd5b50610262600480360381019061025d9190611c81565b610598565b005b61027e60048036038101906102799190611cd1565b610c21565b005b34801561028b575f5ffd5b50610294611211565b6040516102a19190611d0b565b60405180910390f35b3480156102b5575f5ffd5b506102be611235565b6040516102cb9190611d0b565b60405180910390f35b3480156102df575f5ffd5b506102e8611259565b6040516102f59190611c3e565b60405180910390f35b348015610309575f5ffd5b5061031261127d565b60405161031f9190611d0b565b60405180910390f35b348015610333575f5ffd5b5061034e60048036038101906103499190611bfb565b6112a1565b60405161035b9190611c3e565b60405180910390f35b34801561036f575f5ffd5b5061038a60048036038101906103859190611cd1565b6112e7565b005b348015610397575f5ffd5b506103b260048036038101906103ad9190611cd1565b6115ae565b005b3480156103bf575f5ffd5b506103c8611928565b6040516103d59190611d76565b60405180910390f35b5f5f9054906101000a900473ffffffffffffffffffffffffffffffffffffffff1673ffffffffffffffffffffffffffffffffffffffff163373ffffffffffffffffffffffffffffffffffffffff1614610463576040517f30cd747100000000000000000000000000000000000000000000000000000000815260040160405180910390fd5b5f73ffffffffffffffffffffffffffffffffffffffff168173ffffffffffffffffffffffffffffffffffffffff16036104d1576040517f08c379a00000000000000000000000000000000000000000000000000000000081526004016104c890611dd9565b60405180910390fd5b5f5f5f9054906101000a900473ffffffffffffffffffffffffffffffffffffffff169050815f5f6101000a81548173ffffffffffffffffffffffffffffffffffffffff021916908373ffffffffffffffffffffffffffffffffffffffff1602179055508173ffffffffffffffffffffffffffffffffffffffff168173ffffffffffffffffffffffffffffffffffffffff167fb532073b38c83145e3e5135377a08bf9aab55bc0fd7c1179cd4fb995d2a5159c60405160405180910390a35050565b60015481565b60025f9054906101000a900460ff16156105de576040517fed3ba6a600000000000000000000000000000000000000000000000000000000815260040160405180910390fd5b600160025f6101000a81548160ff0219169083151502179055505f8203610631576040517f1f2a200500000000000000000000000000000000000000000000000000000000815260040160405180910390fd5b5f73ffffffffffffffffffffffffffffffffffffffff168373ffffffffffffffffffffffffffffffffffffffff1614806106b657507f000000000000000000000000000000000000000000000000000000000000000073ffffffffffffffffffffffffffffffffffffffff168373ffffffffffffffffffffffffffffffffffffffff16145b156106ed576040517f20db826700000000000000000000000000000000000000000000000000000000815260040160405180910390fd5b5f8373ffffffffffffffffffffffffffffffffffffffff166323b872dd3330866040518463ffffffff1660e01b815260040161072b93929190611df7565b6020604051808303815f875af1158015610747573d5f5f3e3d5ffd5b505050506040513d601f19601f8201168201806040525081019061076b9190611e61565b9050806107a4576040517f81ceff3000000000000000000000000000000000000000000000000000000000815260040160405180910390fd5b6107cf847f00000000000000000000000000000000000000000000000000000000000000008561194c565b5f600267ffffffffffffffff8111156107eb576107ea611e8c565b5b6040519080825280602002602001820160405280156108195781602001602082028036833780820191505090505b50905084815f815181106108305761082f611eb9565b5b602002602001019073ffffffffffffffffffffffffffffffffffffffff16908173ffffffffffffffffffffffffffffffffffffffff16815250507f00000000000000000000000000000000000000000000000000000000000000008160018151811061089f5761089e611eb9565b5b602002602001019073ffffffffffffffffffffffffffffffffffffffff16908173ffffffffffffffffffffffffffffffffffffffff16815250505f61012c426108e89190611f13565b90505f7f000000000000000000000000000000000000000000000000000000000000000073ffffffffffffffffffffffffffffffffffffffff166338ed173987878630876040518663ffffffff1660e01b815260040161094c959493929190611ffd565b5f604051808303815f875af1158015610967573d5f5f3e3d5ffd5b505050506040513d5f823e3d601f19601f8201168201806040525081019061098f919061218c565b90506002815110156109cd576040517f81ceff3000000000000000000000000000000000000000000000000000000000815260040160405180910390fd5b5f81600183516109dd91906121d3565b815181106109ee576109ed611eb9565b5b602002602001015190507f000000000000000000000000000000000000000000000000000000000000000081600154610a279190611f13565b1115610b2c577f000000000000000000000000000000000000000000000000000000000000000073ffffffffffffffffffffffffffffffffffffffff1663a9059cbb33836040518363ffffffff1660e01b8152600401610a88929190612206565b6020604051808303815f875af1158015610aa4573d5f5f3e3d5ffd5b505050506040513d601f19601f82011682018060405250810190610ac89190611e61565b50806001547f00000000000000000000000000000000000000000000000000000000000000006040517f621e5a69000000000000000000000000000000000000000000000000000000008152600401610b239392919061222d565b60405180910390fd5b8060015f828254610b3d9190611f13565b925050819055508060035f3373ffffffffffffffffffffffffffffffffffffffff1673ffffffffffffffffffffffffffffffffffffffff1681526020019081526020015f205f828254610b909190611f13565b925050819055508773ffffffffffffffffffffffffffffffffffffffff163373ffffffffffffffffffffffffffffffffffffffff167fab466672cd9adae1c2072831f94c1068597b355987d2a64d4e5a7dcd74e5cda58984604051610bf6929190612262565b60405180910390a350505050505f60025f6101000a81548160ff021916908315150217905550505050565b60025f9054906101000a900460ff1615610c67576040517fed3ba6a600000000000000000000000000000000000000000000000000000000815260040160405180910390fd5b600160025f6101000a81548160ff0219169083151502179055505f3403610cba576040517f1f2a200500000000000000000000000000000000000000000000000000000000815260040160405180910390fd5b7f000000000000000000000000000000000000000000000000000000000000000073ffffffffffffffffffffffffffffffffffffffff1663d0e30db0346040518263ffffffff1660e01b81526004015f604051808303818588803b158015610d20575f5ffd5b505af1158015610d32573d5f5f3e3d5ffd5b5050505050610d827f00000000000000000000000000000000000000000000000000000000000000007f00000000000000000000000000000000000000000000000000000000000000003461194c565b5f600267ffffffffffffffff811115610d9e57610d9d611e8c565b5b604051908082528060200260200182016040528015610dcc5781602001602082028036833780820191505090505b5090507f0000000000000000000000000000000000000000000000000000000000000000815f81518110610e0357610e02611eb9565b5b602002602001019073ffffffffffffffffffffffffffffffffffffffff16908173ffffffffffffffffffffffffffffffffffffffff16815250507f000000000000000000000000000000000000000000000000000000000000000081600181518110610e7257610e71611eb9565b5b602002602001019073ffffffffffffffffffffffffffffffffffffffff16908173ffffffffffffffffffffffffffffffffffffffff16815250505f61012c42610ebb9190611f13565b90505f7f000000000000000000000000000000000000000000000000000000000000000073ffffffffffffffffffffffffffffffffffffffff166338ed173934868630876040518663ffffffff1660e01b8152600401610f1f959493929190611ffd565b5f604051808303815f875af1158015610f3a573d5f5f3e3d5ffd5b505050506040513d5f823e3d601f19601f82011682018060405250810190610f62919061218c565b9050600281511015610fa0576040517f81ceff3000000000000000000000000000000000000000000000000000000000815260040160405180910390fd5b5f8160018351610fb091906121d3565b81518110610fc157610fc0611eb9565b5b602002602001015190507f000000000000000000000000000000000000000000000000000000000000000081600154610ffa9190611f13565b11156110ff577f000000000000000000000000000000000000000000000000000000000000000073ffffffffffffffffffffffffffffffffffffffff1663a9059cbb33836040518363ffffffff1660e01b815260040161105b929190612206565b6020604051808303815f875af1158015611077573d5f5f3e3d5ffd5b505050506040513d601f19601f8201168201806040525081019061109b9190611e61565b50806001547f00000000000000000000000000000000000000000000000000000000000000006040517f621e5a690000000000000000000000000000000000000000000000000000000081526004016110f69392919061222d565b60405180910390fd5b8060015f8282546111109190611f13565b925050819055508060035f3373ffffffffffffffffffffffffffffffffffffffff1673ffffffffffffffffffffffffffffffffffffffff1681526020019081526020015f205f8282546111639190611f13565b925050819055507f000000000000000000000000000000000000000000000000000000000000000073ffffffffffffffffffffffffffffffffffffffff163373ffffffffffffffffffffffffffffffffffffffff167fab466672cd9adae1c2072831f94c1068597b355987d2a64d4e5a7dcd74e5cda534846040516111e9929190612262565b60405180910390a3505050505f60025f6101000a81548160ff02191690831515021790555050565b7f000000000000000000000000000000000000000000000000000000000000000081565b5f5f9054906101000a900473ffffffffffffffffffffffffffffffffffffffff1681565b7f000000000000000000000000000000000000000000000000000000000000000081565b7f000000000000000000000000000000000000000000000000000000000000000081565b5f60035f8373ffffffffffffffffffffffffffffffffffffffff1673ffffffffffffffffffffffffffffffffffffffff1681526020019081526020015f20549050919050565b60025f9054906101000a900460ff161561132d576040517fed3ba6a600000000000000000000000000000000000000000000000000000000815260040160405180910390fd5b600160025f6101000a81548160ff0219169083151502179055505f8103611380576040517f1f2a200500000000000000000000000000000000000000000000000000000000815260040160405180910390fd5b5f60035f3373ffffffffffffffffffffffffffffffffffffffff1673ffffffffffffffffffffffffffffffffffffffff1681526020019081526020015f20549050808211156114085780826040517fcf4791810000000000000000000000000000000000000000000000000000000081526004016113ff929190612262565b60405180910390fd5b818161141491906121d3565b60035f3373ffffffffffffffffffffffffffffffffffffffff1673ffffffffffffffffffffffffffffffffffffffff1681526020019081526020015f20819055508160015f82825461146691906121d3565b925050819055505f7f000000000000000000000000000000000000000000000000000000000000000073ffffffffffffffffffffffffffffffffffffffff1663a9059cbb33856040518363ffffffff1660e01b81526004016114c9929190612206565b6020604051808303815f875af11580156114e5573d5f5f3e3d5ffd5b505050506040513d601f19601f820116820180604052508101906115099190611e61565b905080611542576040517f81ceff3000000000000000000000000000000000000000000000000000000000815260040160405180910390fd5b3373ffffffffffffffffffffffffffffffffffffffff167f23ee1b877cb0081138b4973c5b2eca0133c573ad526550935d83aaade37666ca846040516115889190611c3e565b60405180910390a250505f60025f6101000a81548160ff02191690831515021790555050565b60025f9054906101000a900460ff16156115f4576040517fed3ba6a600000000000000000000000000000000000000000000000000000000815260040160405180910390fd5b600160025f6101000a81548160ff0219169083151502179055505f8103611647576040517f1f2a200500000000000000000000000000000000000000000000000000000000815260040160405180910390fd5b5f7f000000000000000000000000000000000000000000000000000000000000000073ffffffffffffffffffffffffffffffffffffffff166323b872dd3330856040518463ffffffff1660e01b81526004016116a593929190611df7565b6020604051808303815f875af11580156116c1573d5f5f3e3d5ffd5b505050506040513d601f19601f820116820180604052508101906116e59190611e61565b90508061171e576040517f81ceff3000000000000000000000000000000000000000000000000000000000815260040160405180910390fd5b7f00000000000000000000000000000000000000000000000000000000000000008260015461174d9190611f13565b1115611852577f000000000000000000000000000000000000000000000000000000000000000073ffffffffffffffffffffffffffffffffffffffff1663a9059cbb33846040518363ffffffff1660e01b81526004016117ae929190612206565b6020604051808303815f875af11580156117ca573d5f5f3e3d5ffd5b505050506040513d601f19601f820116820180604052508101906117ee9190611e61565b50816001547f00000000000000000000000000000000000000000000000000000000000000006040517f621e5a690000000000000000000000000000000000000000000000000000000081526004016118499392919061222d565b60405180910390fd5b8160015f8282546118639190611f13565b925050819055508160035f3373ffffffffffffffffffffffffffffffffffffffff1673ffffffffffffffffffffffffffffffffffffffff1681526020019081526020015f205f8282546118b69190611f13565b925050819055503373ffffffffffffffffffffffffffffffffffffffff167fe7440f6772025dec9be06ba934e6ee5289b73533ee2136ba668f6cb6ea3f56a8836040516119039190611c3e565b60405180910390a2505f60025f6101000a81548160ff02191690831515021790555050565b7f000000000000000000000000000000000000000000000000000000000000000081565b8273ffffffffffffffffffffffffffffffffffffffff1663095ea7b3835f6040518363ffffffff1660e01b81526004016119879291906122b9565b6020604051808303815f875af11580156119a3573d5f5f3e3d5ffd5b505050506040513d601f19601f820116820180604052508101906119c79190611e61565b508273ffffffffffffffffffffffffffffffffffffffff1663095ea7b383836040518363ffffffff1660e01b8152600401611a03929190612206565b6020604051808303815f875af1158015611a1f573d5f5f3e3d5ffd5b505050506040513d601f19601f82011682018060405250810190611a439190611e61565b50505050565b5f819050919050565b5f60ff82169050919050565b5f819050919050565b5f611a81611a7c611a7784611a49565b611a5e565b611a52565b9050919050565b611a9181611a67565b82525050565b5f602082019050611aaa5f830184611a88565b92915050565b5f81519050919050565b5f81905092915050565b8281835e5f83830152505050565b5f611adc82611ab0565b611ae68185611aba565b9350611af6818560208601611ac4565b80840191505092915050565b5f611b0d8284611ad2565b915081905092915050565b5f82825260208201905092915050565b7f4465706f736974206661696c65640000000000000000000000000000000000005f82015250565b5f611b5c600e83611b18565b9150611b6782611b28565b602082019050919050565b5f6020820190508181035f830152611b8981611b50565b9050919050565b5f604051905090565b5f5ffd5b5f5ffd5b5f73ffffffffffffffffffffffffffffffffffffffff82169050919050565b5f611bca82611ba1565b9050919050565b611bda81611bc0565b8114611be4575f5ffd5b50565b5f81359050611bf581611bd1565b92915050565b5f60208284031215611c1057611c0f611b99565b5b5f611c1d84828501611be7565b91505092915050565b5f819050919050565b611c3881611c26565b82525050565b5f602082019050611c515f830184611c2f565b92915050565b611c6081611c26565b8114611c6a575f5ffd5b50565b5f81359050611c7b81611c57565b92915050565b5f5f5f60608486031215611c9857611c97611b99565b5b5f611ca586828701611be7565b9350506020611cb686828701611c6d565b9250506040611cc786828701611c6d565b9150509250925092565b5f60208284031215611ce657611ce5611b99565b5b5f611cf384828501611c6d565b91505092915050565b611d0581611bc0565b82525050565b5f602082019050611d1e5f830184611cfc565b92915050565b5f611d3e611d39611d3484611ba1565b611a5e565b611ba1565b9050919050565b5f611d4f82611d24565b9050919050565b5f611d6082611d45565b9050919050565b611d7081611d56565b82525050565b5f602082019050611d895f830184611d67565b92915050565b7f7a65726f206164647200000000000000000000000000000000000000000000005f82015250565b5f611dc3600983611b18565b9150611dce82611d8f565b602082019050919050565b5f6020820190508181035f830152611df081611db7565b9050919050565b5f606082019050611e0a5f830186611cfc565b611e176020830185611cfc565b611e246040830184611c2f565b949350505050565b5f8115159050919050565b611e4081611e2c565b8114611e4a575f5ffd5b50565b5f81519050611e5b81611e37565b92915050565b5f60208284031215611e7657611e75611b99565b5b5f611e8384828501611e4d565b91505092915050565b7f4e487b71000000000000000000000000000000000000000000000000000000005f52604160045260245ffd5b7f4e487b71000000000000000000000000000000000000000000000000000000005f52603260045260245ffd5b7f4e487b71000000000000000000000000000000000000000000000000000000005f52601160045260245ffd5b5f611f1d82611c26565b9150611f2883611c26565b9250828201905080821115611f4057611f3f611ee6565b5b92915050565b5f81519050919050565b5f82825260208201905092915050565b5f819050602082019050919050565b611f7881611bc0565b82525050565b5f611f898383611f6f565b60208301905092915050565b5f602082019050919050565b5f611fab82611f46565b611fb58185611f50565b9350611fc083611f60565b805f5b83811015611ff0578151611fd78882611f7e565b9750611fe283611f95565b925050600181019050611fc3565b5085935050505092915050565b5f60a0820190506120105f830188611c2f565b61201d6020830187611c2f565b818103604083015261202f8186611fa1565b905061203e6060830185611cfc565b61204b6080830184611c2f565b9695505050505050565b5f5ffd5b5f601f19601f8301169050919050565b61207282612059565b810181811067ffffffffffffffff8211171561209157612090611e8c565b5b80604052505050565b5f6120a3611b90565b90506120af8282612069565b919050565b5f67ffffffffffffffff8211156120ce576120cd611e8c565b5b602082029050602081019050919050565b5f5ffd5b5f815190506120f181611c57565b92915050565b5f612109612104846120b4565b61209a565b9050808382526020820190506020840283018581111561212c5761212b6120df565b5b835b81811015612155578061214188826120e3565b84526020840193505060208101905061212e565b5050509392505050565b5f82601f83011261217357612172612055565b5b81516121838482602086016120f7565b91505092915050565b5f602082840312156121a1576121a0611b99565b5b5f82015167ffffffffffffffff8111156121be576121bd611b9d565b5b6121ca8482850161215f565b91505092915050565b5f6121dd82611c26565b91506121e883611c26565b9250828203905081811115612200576121ff611ee6565b5b92915050565b5f6040820190506122195f830185611cfc565b6122266020830184611c2f565b9392505050565b5f6060820190506122405f830186611c2f565b61224d6020830185611c2f565b61225a6040830184611c2f565b949350505050565b5f6040820190506122755f830185611c2f565b6122826020830184611c2f565b9392505050565b5f6122a361229e61229984611a49565b611a5e565b611c26565b9050919050565b6122b381612289565b82525050565b5f6040820190506122cc5f830185611cfc565b6122d960208301846122aa565b939250505056fea264697066735822122017630e7d5aba65394e117794739a773474f9c10ac53ba776c0274a44175fa8f064736f6c634300081e0033",
			"opcodes": "PUSH2 0x100 PUSH1 0x40 MSTORE CALLVALUE DUP1 ISZERO PUSH2 0x10 JUMPI PUSH0 PUSH0 REVERT JUMPDEST POP PUSH1 0x40 MLOAD PUSH2 0x2720 CODESIZE SUB DUP1 PUSH2 0x2720 DUP4 CODECOPY DUP2 DUP2 ADD PUSH1 0x40 MSTORE DUP2 ADD SWAP1 PUSH2 0x32 SWAP2 SWAP1 PUSH2 0x2C2 JUMP JUMPDEST PUSH0 PUSH20 0xFFFFFFFFFFFFFFFFFFFFFFFFFFFFFFFFFFFFFFFF AND DUP4 PUSH20 0xFFFFFFFFFFFFFFFFFFFFFFFFFFFFFFFFFFFFFFFF AND EQ DUP1 PUSH2 0x97 JUMPI POP PUSH0 PUSH20 0xFFFFFFFFFFFFFFFFFFFFFFFFFFFFFFFFFFFFFFFF AND DUP3 PUSH20 0xFFFFFFFFFFFFFFFFFFFFFFFFFFFFFFFFFFFFFFFF AND EQ JUMPDEST DUP1 PUSH2 0xA1 JUMPI POP PUSH0 DUP2 EQ JUMPDEST ISZERO PUSH2 0xD8 JUMPI PUSH1 0x40 MLOAD PUSH32 0x1F2A200500000000000000000000000000000000000000000000000000000000 DUP2 MSTORE PUSH1 0x4 ADD PUSH1 0x40 MLOAD DUP1 SWAP2 SUB SWAP1 REVERT JUMPDEST DUP3 PUSH20 0xFFFFFFFFFFFFFFFFFFFFFFFFFFFFFFFFFFFFFFFF AND PUSH1 0x80 DUP2 PUSH20 0xFFFFFFFFFFFFFFFFFFFFFFFFFFFFFFFFFFFFFFFF AND DUP2 MSTORE POP POP DUP2 PUSH20 0xFFFFFFFFFFFFFFFFFFFFFFFFFFFFFFFFFFFFFFFF AND PUSH1 0xA0 DUP2 PUSH20 0xFFFFFFFFFFFFFFFFFFFFFFFFFFFFFFFFFFFFFFFF AND DUP2 MSTORE POP POP PUSH1 0xA0 MLOAD PUSH20 0xFFFFFFFFFFFFFFFFFFFFFFFFFFFFFFFFFFFFFFFF AND PUSH4 0xAD5C4648 PUSH1 0x40 MLOAD DUP2 PUSH4 0xFFFFFFFF AND PUSH1 0xE0 SHL DUP2 MSTORE PUSH1 0x4 ADD PUSH1 0x20 PUSH1 0x40 MLOAD DUP1 DUP4 SUB DUP2 DUP7 GAS STATICCALL ISZERO DUP1 ISZERO PUSH2 0x18B JUMPI RETURNDATASIZE PUSH0 PUSH0 RETURNDATACOPY RETURNDATASIZE PUSH0 REVERT JUMPDEST POP POP POP POP PUSH1 0x40 MLOAD RETURNDATASIZE PUSH1 0x1F NOT PUSH1 0x1F DUP3 ADD AND DUP3 ADD DUP1 PUSH1 0x40 MSTORE POP DUP2 ADD SWAP1 PUSH2 0x1AF SWAP2 SWAP1 PUSH2 0x312 JUMP JUMPDEST PUSH20 0xFFFFFFFFFFFFFFFFFFFFFFFFFFFFFFFFFFFFFFFF AND PUSH1 0xC0 DUP2 PUSH20 0xFFFFFFFFFFFFFFFFFFFFFFFFFFFFFFFFFFFFFFFF AND DUP2 MSTORE POP POP DUP1 PUSH1 0xE0 DUP2 DUP2 MSTORE POP POP CALLER PUSH0 PUSH0 PUSH2 0x100 EXP DUP2 SLOAD DUP2 PUSH20 0xFFFFFFFFFFFFFFFFFFFFFFFFFFFFFFFFFFFFFFFF MUL NOT AND SWAP1 DUP4 PUSH20 0xFFFFFFFFFFFFFFFFFFFFFFFFFFFFFFFFFFFFFFFF AND MUL OR SWAP1 SSTORE POP POP POP POP PUSH2 0x33D JUMP JUMPDEST PUSH0 PUSH0 REVERT JUMPDEST PUSH0 PUSH20 0xFFFFFFFFFFFFFFFFFFFFFFFFFFFFFFFFFFFFFFFF DUP3 AND SWAP1 POP SWAP2 SWAP1 POP JUMP JUMPDEST PUSH0 PUSH2 0x25E DUP3 PUSH2 0x235 JUMP JUMPDEST SWAP1 POP SWAP2 SWAP1 POP JUMP JUMPDEST PUSH2 0x26E DUP2 PUSH2 0x254 JUMP JUMPDEST DUP2 EQ PUSH2 0x278 JUMPI PUSH0 PUSH0 REVERT JUMPDEST POP JUMP JUMPDEST PUSH0 DUP2 MLOAD SWAP1 POP PUSH2 0x289 DUP2 PUSH2 0x265 JUMP JUMPDEST SWAP3 SWAP2 POP POP JUMP JUMPDEST PUSH0 DUP2 SWAP1 POP SWAP2 SWAP1 POP JUMP JUMPDEST PUSH2 0x2A1 DUP2 PUSH2 0x28F JUMP JUMPDEST DUP2 EQ PUSH2 0x2AB JUMPI PUSH0 PUSH0 REVERT JUMPDEST POP JUMP JUMPDEST PUSH0 DUP2 MLOAD SWAP1 POP PUSH2 0x2BC DUP2 PUSH2 0x298 JUMP JUMPDEST SWAP3 SWAP2 POP POP JUMP JUMPDEST PUSH0 PUSH0 PUSH0 PUSH1 0x60 DUP5 DUP7 SUB SLT ISZERO PUSH2 0x2D9 JUMPI PUSH2 0x2D8 PUSH2 0x231 JUMP JUMPDEST JUMPDEST PUSH0 PUSH2 0x2E6 DUP7 DUP3 DUP8 ADD PUSH2 0x27B JUMP JUMPDEST SWAP4 POP POP PUSH1 0x20 PUSH2 0x2F7 DUP7 DUP3 DUP8 ADD PUSH2 0x27B JUMP JUMPDEST SWAP3 POP POP PUSH1 0x40 PUSH2 0x308 DUP7 DUP3 DUP8 ADD PUSH2 0x2AE JUMP JUMPDEST SWAP2 POP POP SWAP3 POP SWAP3 POP SWAP3 JUMP JUMPDEST PUSH0 PUSH1 0x20 DUP3 DUP5 SUB SLT ISZERO PUSH2 0x327 JUMPI PUSH2 0x326 PUSH2 0x231 JUMP JUMPDEST JUMPDEST PUSH0 PUSH2 0x334 DUP5 DUP3 DUP6 ADD PUSH2 0x27B JUMP JUMPDEST SWAP2 POP POP SWAP3 SWAP2 POP POP JUMP JUMPDEST PUSH1 0x80 MLOAD PUSH1 0xA0 MLOAD PUSH1 0xC0 MLOAD PUSH1 0xE0 MLOAD PUSH2 0x2316 PUSH2 0x40A PUSH0 CODECOPY PUSH0 DUP2 DUP2 PUSH2 0x9FA ADD MSTORE DUP2 DUP2 PUSH2 0xACF ADD MSTORE DUP2 DUP2 PUSH2 0xFCD ADD MSTORE DUP2 DUP2 PUSH2 0x10A2 ADD MSTORE DUP2 DUP2 PUSH2 0x125B ADD MSTORE DUP2 DUP2 PUSH2 0x1720 ADD MSTORE PUSH2 0x17F5 ADD MSTORE PUSH0 DUP2 DUP2 PUSH2 0xCBC ADD MSTORE DUP2 DUP2 PUSH2 0xD3C ADD MSTORE DUP2 DUP2 PUSH2 0xDD1 ADD MSTORE DUP2 DUP2 PUSH2 0x116C ADD MSTORE PUSH2 0x127F ADD MSTORE PUSH0 DUP2 DUP2 PUSH2 0x7AA ADD MSTORE DUP2 DUP2 PUSH2 0x8ED ADD MSTORE DUP2 DUP2 PUSH2 0xD5D ADD MSTORE DUP2 DUP2 PUSH2 0xEC0 ADD MSTORE PUSH2 0x192A ADD MSTORE PUSH0 DUP2 DUP2 PUSH2 0x668 ADD MSTORE DUP2 DUP2 PUSH2 0x86C ADD MSTORE DUP2 DUP2 PUSH2 0xA2F ADD MSTORE DUP2 DUP2 PUSH2 0xE3F ADD MSTORE DUP2 DUP2 PUSH2 0x1002 ADD MSTORE DUP2 DUP2 PUSH2 0x1213 ADD MSTORE DUP2 DUP2 PUSH2 0x1470 ADD MSTORE DUP2 DUP2 PUSH2 0x164A ADD MSTORE PUSH2 0x1755 ADD MSTORE PUSH2 0x2316 PUSH0 RETURN INVALID PUSH1 0x80 PUSH1 0x40 MSTORE PUSH1 0x4 CALLDATASIZE LT PUSH2 0xAA JUMPI PUSH0 CALLDATALOAD PUSH1 0xE0 SHR DUP1 PUSH4 0xAC4543BA GT PUSH2 0x63 JUMPI DUP1 PUSH4 0xAC4543BA EQ PUSH2 0x2D4 JUMPI DUP1 PUSH4 0xAD5C4648 EQ PUSH2 0x2FE JUMPI DUP1 PUSH4 0xC3FD262D EQ PUSH2 0x328 JUMPI DUP1 PUSH4 0xDB81F99B EQ PUSH2 0x364 JUMPI DUP1 PUSH4 0xF688BCFB EQ PUSH2 0x38C JUMPI DUP1 PUSH4 0xF887EA40 EQ PUSH2 0x3B4 JUMPI PUSH2 0x1E6 JUMP JUMPDEST DUP1 PUSH4 0x13AF4035 EQ PUSH2 0x1EA JUMPI DUP1 PUSH4 0x34462BE6 EQ PUSH2 0x212 JUMPI DUP1 PUSH4 0x39657553 EQ PUSH2 0x23C JUMPI DUP1 PUSH4 0x883F1721 EQ PUSH2 0x264 JUMPI DUP1 PUSH4 0x89A30271 EQ PUSH2 0x280 JUMPI DUP1 PUSH4 0x8DA5CB5B EQ PUSH2 0x2AA JUMPI PUSH2 0x1E6 JUMP JUMPDEST CALLDATASIZE PUSH2 0x1E6 JUMPI PUSH0 ADDRESS PUSH20 0xFFFFFFFFFFFFFFFFFFFFFFFFFFFFFFFFFFFFFFFF AND PUSH0 PUSH1 0x40 MLOAD PUSH1 0x24 ADD PUSH2 0xD8 SWAP2 SWAP1 PUSH2 0x1A97 JUMP JUMPDEST PUSH1 0x40 MLOAD PUSH1 0x20 DUP2 DUP4 SUB SUB DUP2 MSTORE SWAP1 PUSH1 0x40 MSTORE PUSH32 0x883F172100000000000000000000000000000000000000000000000000000000 PUSH28 0xFFFFFFFFFFFFFFFFFFFFFFFFFFFFFFFFFFFFFFFFFFFFFFFFFFFFFFFF NOT AND PUSH1 0x20 DUP3 ADD DUP1 MLOAD PUSH28 0xFFFFFFFFFFFFFFFFFFFFFFFFFFFFFFFFFFFFFFFFFFFFFFFFFFFFFFFF DUP4 DUP2 DUP4 AND OR DUP4 MSTORE POP POP POP POP PUSH1 0x40 MLOAD PUSH2 0x162 SWAP2 SWAP1 PUSH2 0x1B02 JUMP JUMPDEST PUSH0 PUSH1 0x40 MLOAD DUP1 DUP4 SUB DUP2 PUSH0 DUP7 GAS CALL SWAP2 POP POP RETURNDATASIZE DUP1 PUSH0 DUP2 EQ PUSH2 0x19B JUMPI PUSH1 0x40 MLOAD SWAP2 POP PUSH1 0x1F NOT PUSH1 0x3F RETURNDATASIZE ADD AND DUP3 ADD PUSH1 0x40 MSTORE RETURNDATASIZE DUP3 MSTORE RETURNDATASIZE PUSH0 PUSH1 0x20 DUP5 ADD RETURNDATACOPY PUSH2 0x1A0 JUMP JUMPDEST PUSH1 0x60 SWAP2 POP JUMPDEST POP POP SWAP1 POP DUP1 PUSH2 0x1E4 JUMPI PUSH1 0x40 MLOAD PUSH32 0x8C379A000000000000000000000000000000000000000000000000000000000 DUP2 MSTORE PUSH1 0x4 ADD PUSH2 0x1DB SWAP1 PUSH2 0x1B72 JUMP JUMPDEST PUSH1 0x40 MLOAD DUP1 SWAP2 SUB SWAP1 REVERT JUMPDEST STOP JUMPDEST PUSH0 PUSH0 REVERT JUMPDEST CALLVALUE DUP1 ISZERO PUSH2 0x1F5 JUMPI PUSH0 PUSH0 REVERT JUMPDEST POP PUSH2 0x210 PUSH1 0x4 DUP1 CALLDATASIZE SUB DUP2 ADD SWAP1 PUSH2 0x20B SWAP2 SWAP1 PUSH2 0x1BFB JUMP JUMPDEST PUSH2 0x3DE JUMP JUMPDEST STOP JUMPDEST CALLVALUE DUP1 ISZERO PUSH2 0x21D JUMPI PUSH0 PUSH0 REVERT JUMPDEST POP PUSH2 0x226 PUSH2 0x592 JUMP JUMPDEST PUSH1 0x40 MLOAD PUSH2 0x233 SWAP2 SWAP1 PUSH2 0x1C3E JUMP JUMPDEST PUSH1 0x40 MLOAD DUP1 SWAP2 SUB SWAP1 RETURN JUMPDEST CALLVALUE DUP1 ISZERO PUSH2 0x247 JUMPI PUSH0 PUSH0 REVERT JUMPDEST POP PUSH2 0x262 PUSH1 0x4 DUP1 CALLDATASIZE SUB DUP2 ADD SWAP1 PUSH2 0x25D SWAP2 SWAP1 PUSH2 0x1C81 JUMP JUMPDEST PUSH2 0x598 JUMP JUMPDEST STOP JUMPDEST PUSH2 0x27E PUSH1 0x4 DUP1 CALLDATASIZE SUB DUP2 ADD SWAP1 PUSH2 0x279 SWAP2 SWAP1 PUSH2 0x1CD1 JUMP JUMPDEST PUSH2 0xC21 JUMP JUMPDEST STOP JUMPDEST CALLVALUE DUP1 ISZERO PUSH2 0x28B JUMPI PUSH0 PUSH0 REVERT JUMPDEST POP PUSH2 0x294 PUSH2 0x1211 JUMP JUMPDEST PUSH1 0x40 MLOAD PUSH2 0x2A1 SWAP2 SWAP1 PUSH2 0x1D0B JUMP JUMPDEST PUSH1 0x40 MLOAD DUP1 SWAP2 SUB SWAP1 RETURN JUMPDEST CALLVALUE DUP1 ISZERO PUSH2 0x2B5 JUMPI PUSH0 PUSH0 REVERT JUMPDEST POP PUSH2 0x2BE PUSH2 0x1235 JUMP JUMPDEST PUSH1 0x40 MLOAD PUSH2 0x2CB SWAP2 SWAP1 PUSH2 0x1D0B JUMP JUMPDEST PUSH1 0x40 MLOAD DUP1 SWAP2 SUB SWAP1 RETURN JUMPDEST CALLVALUE DUP1 ISZERO PUSH2 0x2DF JUMPI PUSH0 PUSH0 REVERT JUMPDEST POP PUSH2 0x2E8 PUSH2 0x1259 JUMP JUMPDEST PUSH1 0x40 MLOAD PUSH2 0x2F5 SWAP2 SWAP1 PUSH2 0x1C3E JUMP JUMPDEST PUSH1 0x40 MLOAD DUP1 SWAP2 SUB SWAP1 RETURN JUMPDEST CALLVALUE DUP1 ISZERO PUSH2 0x309 JUMPI PUSH0 PUSH0 REVERT JUMPDEST POP PUSH2 0x312 PUSH2 0x127D JUMP JUMPDEST PUSH1 0x40 MLOAD PUSH2 0x31F SWAP2 SWAP1 PUSH2 0x1D0B JUMP JUMPDEST PUSH1 0x40 MLOAD DUP1 SWAP2 SUB SWAP1 RETURN JUMPDEST CALLVALUE DUP1 ISZERO PUSH2 0x333 JUMPI PUSH0 PUSH0 REVERT JUMPDEST POP PUSH2 0x34E PUSH1 0x4 DUP1 CALLDATASIZE SUB DUP2 ADD SWAP1 PUSH2 0x349 SWAP2 SWAP1 PUSH2 0x1BFB JUMP JUMPDEST PUSH2 0x12A1 JUMP JUMPDEST PUSH1 0x40 MLOAD PUSH2 0x35B SWAP2 SWAP1 PUSH2 0x1C3E JUMP JUMPDEST PUSH1 0x40 MLOAD DUP1 SWAP2 SUB SWAP1 RETURN JUMPDEST CALLVALUE DUP1 ISZERO PUSH2 0x36F JUMPI PUSH0 PUSH0 REVERT JUMPDEST POP PUSH2 0x38A PUSH1 0x4 DUP1 CALLDATASIZE SUB DUP2 ADD SWAP1 PUSH2 0x385 SWAP2 SWAP1 PUSH2 0x1CD1 JUMP JUMPDEST PUSH2 0x12E7 JUMP JUMPDEST STOP JUMPDEST CALLVALUE DUP1 ISZERO PUSH2 0x397 JUMPI PUSH0 PUSH0 REVERT JUMPDEST POP PUSH2 0x3B2 PUSH1 0x4 DUP1 CALLDATASIZE SUB DUP2 ADD SWAP1 PUSH2 0x3AD SWAP2 SWAP1 PUSH2 0x1CD1 JUMP JUMPDEST PUSH2 0x15AE JUMP JUMPDEST STOP JUMPDEST CALLVALUE DUP1 ISZERO PUSH2 0x3BF JUMPI PUSH0 PUSH0 REVERT JUMPDEST POP PUSH2 0x3C8 PUSH2 0x1928 JUMP JUMPDEST PUSH1 0x40 MLOAD PUSH2 0x3D5 SWAP2 SWAP1 PUSH2 0x1D76 JUMP JUMPDEST PUSH1 0x40 MLOAD DUP1 SWAP2 SUB SWAP1 RETURN JUMPDEST PUSH0 PUSH0 SWAP1 SLOAD SWAP1 PUSH2 0x100 EXP SWAP1 DIV PUSH20 0xFFFFFFFFFFFFFFFFFFFFFFFFFFFFFFFFFFFFFFFF AND PUSH20 0xFFFFFFFFFFFFFFFFFFFFFFFFFFFFFFFFFFFFFFFF AND CALLER PUSH20 0xFFFFFFFFFFFFFFFFFFFFFFFFFFFFFFFFFFFFFFFF AND EQ PUSH2 0x463 JUMPI PUSH1 0x40 MLOAD PUSH32 0x30CD747100000000000000000000000000000000000000000000000000000000 DUP2 MSTORE PUSH1 0x4 ADD PUSH1 0x40 MLOAD DUP1 SWAP2 SUB SWAP1 REVERT JUMPDEST PUSH0 PUSH20 0xFFFFFFFFFFFFFFFFFFFFFFFFFFFFFFFFFFFFFFFF AND DUP2 PUSH20 0xFFFFFFFFFFFFFFFFFFFFFFFFFFFFFFFFFFFFFFFF AND SUB PUSH2 0x4D1 JUMPI PUSH1 0x40 MLOAD PUSH32 0x8C379A000000000000000000000000000000000000000000000000000000000 DUP2 MSTORE PUSH1 0x4 ADD PUSH2 0x4C8 SWAP1 PUSH2 0x1DD9 JUMP JUMPDEST PUSH1 0x40 MLOAD DUP1 SWAP2 SUB SWAP1 REVERT JUMPDEST PUSH0 PUSH0 PUSH0 SWAP1 SLOAD SWAP1 PUSH2 0x100 EXP SWAP1 DIV PUSH20 0xFFFFFFFFFFFFFFFFFFFFFFFFFFFFFFFFFFFFFFFF AND SWAP1 POP DUP2 PUSH0 PUSH0 PUSH2 0x100 EXP DUP2 SLOAD DUP2 PUSH20 0xFFFFFFFFFFFFFFFFFFFFFFFFFFFFFFFFFFFFFFFF MUL NOT AND SWAP1 DUP4 PUSH20 0xFFFFFFFFFFFFFFFFFFFFFFFFFFFFFFFFFFFFFFFF AND MUL OR SWAP1 SSTORE POP DUP2 PUSH20 0xFFFFFFFFFFFFFFFFFFFFFFFFFFFFFFFFFFFFFFFF AND DUP2 PUSH20 0xFFFFFFFFFFFFFFFFFFFFFFFFFFFFFFFFFFFFFFFF AND PUSH32 0xB532073B38C83145E3E5135377A08BF9AAB55BC0FD7C1179CD4FB995D2A5159C PUSH1 0x40 MLOAD PUSH1 0x40 MLOAD DUP1 SWAP2 SUB SWAP1 LOG3 POP POP JUMP JUMPDEST PUSH1 0x1 SLOAD DUP2 JUMP JUMPDEST PUSH1 0x2 PUSH0 SWAP1 SLOAD SWAP1 PUSH2 0x100 EXP SWAP1 DIV PUSH1 0xFF AND ISZERO PUSH2 0x5DE JUMPI PUSH1 0x40 MLOAD PUSH32 0xED3BA6A600000000000000000000000000000000000000000000000000000000 DUP2 MSTORE PUSH1 0x4 ADD PUSH1 0x40 MLOAD DUP1 SWAP2 SUB SWAP1 REVERT JUMPDEST PUSH1 0x1 PUSH1 0x2 PUSH0 PUSH2 0x100 EXP DUP2 SLOAD DUP2 PUSH1 0xFF MUL NOT AND SWAP1 DUP4 ISZERO ISZERO MUL OR SWAP1 SSTORE POP PUSH0 DUP3 SUB PUSH2 0x631 JUMPI PUSH1 0x40 MLOAD PUSH32 0x1F2A200500000000000000000000000000000000000000000000000000000000 DUP2 MSTORE PUSH1 0x4 ADD PUSH1 0x40 MLOAD DUP1 SWAP2 SUB SWAP1 REVERT JUMPDEST PUSH0 PUSH20 0xFFFFFFFFFFFFFFFFFFFFFFFFFFFFFFFFFFFFFFFF AND DUP4 PUSH20 0xFFFFFFFFFFFFFFFFFFFFFFFFFFFFFFFFFFFFFFFF AND EQ DUP1 PUSH2 0x6B6 JUMPI POP PUSH32 0x0 PUSH20 0xFFFFFFFFFFFFFFFFFFFFFFFFFFFFFFFFFFFFFFFF AND DUP4 PUSH20 0xFFFFFFFFFFFFFFFFFFFFFFFFFFFFFFFFFFFFFFFF AND EQ JUMPDEST ISZERO PUSH2 0x6ED JUMPI PUSH1 0x40 MLOAD PUSH32 0x20DB826700000000000000000000000000000000000000000000000000000000 DUP2 MSTORE PUSH1 0x4 ADD PUSH1 0x40 MLOAD DUP1 SWAP2 SUB SWAP1 REVERT JUMPDEST PUSH0 DUP4 PUSH20 0xFFFFFFFFFFFFFFFFFFFFFFFFFFFFFFFFFFFFFFFF AND PUSH4 0x23B872DD CALLER ADDRESS DUP7 PUSH1 0x40 MLOAD DUP5 PUSH4 0xFFFFFFFF AND PUSH1 0xE0 SHL DUP2 MSTORE PUSH1 0x4 ADD PUSH2 0x72B SWAP4 SWAP3 SWAP2 SWAP1 PUSH2 0x1DF7 JUMP JUMPDEST PUSH1 0x20 PUSH1 0x40 MLOAD DUP1 DUP4 SUB DUP2 PUSH0 DUP8 GAS CALL ISZERO DUP1 ISZERO PUSH2 0x747 JUMPI RETURNDATASIZE PUSH0 PUSH0 RETURNDATACOPY RETURNDATASIZE PUSH0 REVERT JUMPDEST POP POP POP POP PUSH1 0x40 MLOAD RETURNDATASIZE PUSH1 0x1F NOT PUSH1 0x1F DUP3 ADD AND DUP3 ADD DUP1 PUSH1 0x40 MSTORE POP DUP2 ADD SWAP1 PUSH2 0x76B SWAP2 SWAP1 PUSH2 0x1E61 JUMP JUMPDEST SWAP1 POP DUP1 PUSH2 0x7A4 JUMPI PUSH1 0x40 MLOAD PUSH32 0x81CEFF3000000000000000000000000000000000000000000000000000000000 DUP2 MSTORE PUSH1 0x4 ADD PUSH1 0x40 MLOAD DUP1 SWAP2 SUB SWAP1 REVERT JUMPDEST PUSH2 0x7CF DUP5 PUSH32 0x0 DUP6 PUSH2 0x194C JUMP JUMPDEST PUSH0 PUSH1 0x2 PUSH8 0xFFFFFFFFFFFFFFFF DUP2 GT ISZERO PUSH2 0x7EB JUMPI PUSH2 0x7EA PUSH2 0x1E8C JUMP JUMPDEST JUMPDEST PUSH1 0x40 MLOAD SWAP1 DUP1 DUP3 MSTORE DUP1 PUSH1 0x20 MUL PUSH1 0x20 ADD DUP3 ADD PUSH1 0x40 MSTORE DUP1 ISZERO PUSH2 0x819 JUMPI DUP2 PUSH1 0x20 ADD PUSH1 0x20 DUP3 MUL DUP1 CALLDATASIZE DUP4 CALLDATACOPY DUP1 DUP3 ADD SWAP2 POP POP SWAP1 POP JUMPDEST POP SWAP1 POP DUP5 DUP2 PUSH0 DUP2 MLOAD DUP2 LT PUSH2 0x830 JUMPI PUSH2 0x82F PUSH2 0x1EB9 JUMP JUMPDEST JUMPDEST PUSH1 0x20 MUL PUSH1 0x20 ADD ADD SWAP1 PUSH20 0xFFFFFFFFFFFFFFFFFFFFFFFFFFFFFFFFFFFFFFFF AND SWAP1 DUP2 PUSH20 0xFFFFFFFFFFFFFFFFFFFFFFFFFFFFFFFFFFFFFFFF AND DUP2 MSTORE POP POP PUSH32 0x0 DUP2 PUSH1 0x1 DUP2 MLOAD DUP2 LT PUSH2 0x89F JUMPI PUSH2 0x89E PUSH2 0x1EB9 JUMP JUMPDEST JUMPDEST PUSH1 0x20 MUL PUSH1 0x20 ADD ADD SWAP1 PUSH20 0xFFFFFFFFFFFFFFFFFFFFFFFFFFFFFFFFFFFFFFFF AND SWAP1 DUP2 PUSH20 0xFFFFFFFFFFFFFFFFFFFFFFFFFFFFFFFFFFFFFFFF AND DUP2 MSTORE POP POP PUSH0 PUSH2 0x12C TIMESTAMP PUSH2 0x8E8 SWAP2 SWAP1 PUSH2 0x1F13 JUMP JUMPDEST SWAP1 POP PUSH0 PUSH32 0x0 PUSH20 0xFFFFFFFFFFFFFFFFFFFFFFFFFFFFFFFFFFFFFFFF AND PUSH4 0x38ED1739 DUP8 DUP8 DUP7 ADDRESS DUP8 PUSH1 0x40 MLOAD DUP7 PUSH4 0xFFFFFFFF AND PUSH1 0xE0 SHL DUP2 MSTORE PUSH1 0x4 ADD PUSH2 0x94C SWAP6 SWAP5 SWAP4 SWAP3 SWAP2 SWAP1 PUSH2 0x1FFD JUMP JUMPDEST PUSH0 PUSH1 0x40 MLOAD DUP1 DUP4 SUB DUP2 PUSH0 DUP8 GAS CALL ISZERO DUP1 ISZERO PUSH2 0x967 JUMPI RETURNDATASIZE PUSH0 PUSH0 RETURNDATACOPY RETURNDATASIZE PUSH0 REVERT JUMPDEST POP POP POP POP PUSH1 0x40 MLOAD RETURNDATASIZE PUSH0 DUP3 RETURNDATACOPY RETURNDATASIZE PUSH1 0x1F NOT PUSH1 0x1F DUP3 ADD AND DUP3 ADD DUP1 PUSH1 0x40 MSTORE POP DUP2 ADD SWAP1 PUSH2 0x98F SWAP2 SWAP1 PUSH2 0x218C JUMP JUMPDEST SWAP1 POP PUSH1 0x2 DUP2 MLOAD LT ISZERO PUSH2 0x9CD JUMPI PUSH1 0x40 MLOAD PUSH32 0x81CEFF3000000000000000000000000000000000000000000000000000000000 DUP2 MSTORE PUSH1 0x4 ADD PUSH1 0x40 MLOAD DUP1 SWAP2 SUB SWAP1 REVERT JUMPDEST PUSH0 DUP2 PUSH1 0x1 DUP4 MLOAD PUSH2 0x9DD SWAP2 SWAP1 PUSH2 0x21D3 JUMP JUMPDEST DUP2 MLOAD DUP2 LT PUSH2 0x9EE JUMPI PUSH2 0x9ED PUSH2 0x1EB9 JUMP JUMPDEST JUMPDEST PUSH1 0x20 MUL PUSH1 0x20 ADD ADD MLOAD SWAP1 POP PUSH32 0x0 DUP2 PUSH1 0x1 SLOAD PUSH2 0xA27 SWAP2 SWAP1 PUSH2 0x1F13 JUMP JUMPDEST GT ISZERO PUSH2 0xB2C JUMPI PUSH32 0x0 PUSH20 0xFFFFFFFFFFFFFFFFFFFFFFFFFFFFFFFFFFFFFFFF AND PUSH4 0xA9059CBB CALLER DUP4 PUSH1 0x40 MLOAD DUP4 PUSH4 0xFFFFFFFF AND PUSH1 0xE0 SHL DUP2 MSTORE PUSH1 0x4 ADD PUSH2 0xA88 SWAP3 SWAP2 SWAP1 PUSH2 0x2206 JUMP JUMPDEST PUSH1 0x20 PUSH1 0x40 MLOAD DUP1 DUP4 SUB DUP2 PUSH0 DUP8 GAS CALL ISZERO DUP1 ISZERO PUSH2 0xAA4 JUMPI RETURNDATASIZE PUSH0 PUSH0 RETURNDATACOPY RETURNDATASIZE PUSH0 REVERT JUMPDEST POP POP POP POP PUSH1 0x40 MLOAD RETURNDATASIZE PUSH1 0x1F NOT PUSH1 0x1F DUP3 ADD AND DUP3 ADD DUP1 PUSH1 0x40 MSTORE POP DUP2 ADD SWAP1 PUSH2 0xAC8 SWAP2 SWAP1 PUSH2 0x1E61 JUMP JUMPDEST POP DUP1 PUSH1 0x1 SLOAD PUSH32 0x0 PUSH1 0x40 MLOAD PUSH32 0x621E5A6900000000000000000000000000000000000000000000000000000000 DUP2 MSTORE PUSH1 0x4 ADD PUSH2 0xB23 SWAP4 SWAP3 SWAP2 SWAP1 PUSH2 0x222D JUMP JUMPDEST PUSH1 0x40 MLOAD DUP1 SWAP2 SUB SWAP1 REVERT JUMPDEST DUP1 PUSH1 0x1 PUSH0 DUP3 DUP3 SLOAD PUSH2 0xB3D SWAP2 SWAP1 PUSH2 0x1F13 JUMP JUMPDEST SWAP3 POP POP DUP2 SWAP1 SSTORE POP DUP1 PUSH1 0x3 PUSH0 CALLER PUSH20 0xFFFFFFFFFFFFFFFFFFFFFFFFFFFFFFFFFFFFFFFF AND PUSH20 0xFFFFFFFFFFFFFFFFFFFFFFFFFFFFFFFFFFFFFFFF AND DUP2 MSTORE PUSH1 0x20 ADD SWAP1 DUP2 MSTORE PUSH1 0x20 ADD PUSH0 KECCAK256 PUSH0 DUP3 DUP3 SLOAD PUSH2 0xB90 SWAP2 SWAP1 PUSH2 0x1F13 JUMP JUMPDEST SWAP3 POP POP DUP2 SWAP1 SSTORE POP DUP8 PUSH20 0xFFFFFFFFFFFFFFFFFFFFFFFFFFFFFFFFFFFFFFFF AND CALLER PUSH20 0xFFFFFFFFFFFFFFFFFFFFFFFFFFFFFFFFFFFFFFFF AND PUSH32 0xAB466672CD9ADAE1C2072831F94C1068597B355987D2A64D4E5A7DCD74E5CDA5 DUP10 DUP5 PUSH1 0x40 MLOAD PUSH2 0xBF6 SWAP3 SWAP2 SWAP1 PUSH2 0x2262 JUMP JUMPDEST PUSH1 0x40 MLOAD DUP1 SWAP2 SUB SWAP1 LOG3 POP POP POP POP POP PUSH0 PUSH1 0x2 PUSH0 PUSH2 0x100 EXP DUP2 SLOAD DUP2 PUSH1 0xFF MUL NOT AND SWAP1 DUP4 ISZERO ISZERO MUL OR SWAP1 SSTORE POP POP POP POP JUMP JUMPDEST PUSH1 0x2 PUSH0 SWAP1 SLOAD SWAP1 PUSH2 0x100 EXP SWAP1 DIV PUSH1 0xFF AND ISZERO PUSH2 0xC67 JUMPI PUSH1 0x40 MLOAD PUSH32 0xED3BA6A600000000000000000000000000000000000000000000000000000000 DUP2 MSTORE PUSH1 0x4 ADD PUSH1 0x40 MLOAD DUP1 SWAP2 SUB SWAP1 REVERT JUMPDEST PUSH1 0x1 PUSH1 0x2 PUSH0 PUSH2 0x100 EXP DUP2 SLOAD DUP2 PUSH1 0xFF MUL NOT AND SWAP1 DUP4 ISZERO ISZERO MUL OR SWAP1 SSTORE POP PUSH0 CALLVALUE SUB PUSH2 0xCBA JUMPI PUSH1 0x40 MLOAD PUSH32 0x1F2A200500000000000000000000000000000000000000000000000000000000 DUP2 MSTORE PUSH1 0x4 ADD PUSH1 0x40 MLOAD DUP1 SWAP2 SUB SWAP1 REVERT JUMPDEST PUSH32 0x0 PUSH20 0xFFFFFFFFFFFFFFFFFFFFFFFFFFFFFFFFFFFFFFFF AND PUSH4 0xD0E30DB0 CALLVALUE PUSH1 0x40 MLOAD DUP3 PUSH4 0xFFFFFFFF AND PUSH1 0xE0 SHL DUP2 MSTORE PUSH1 0x4 ADD PUSH0 PUSH1 0x40 MLOAD DUP1 DUP4 SUB DUP2 DUP6 DUP9 DUP1 EXTCODESIZE ISZERO DUP1 ISZERO PUSH2 0xD20 JUMPI PUSH0 PUSH0 REVERT JUMPDEST POP GAS CALL ISZERO DUP1 ISZERO PUSH2 0xD32 JUMPI RETURNDATASIZE PUSH0 PUSH0 RETURNDATACOPY RETURNDATASIZE PUSH0 REVERT JUMPDEST POP POP POP POP POP PUSH2 0xD82 PUSH32 0x0 PUSH32 0x0 CALLVALUE PUSH2 0x194C JUMP JUMPDEST PUSH0 PUSH1 0x2 PUSH8 0xFFFFFFFFFFFFFFFF DUP2 GT ISZERO PUSH2 0xD9E JUMPI PUSH2 0xD9D PUSH2 0x1E8C JUMP JUMPDEST JUMPDEST PUSH1 0x40 MLOAD SWAP1 DUP1 DUP3 MSTORE DUP1 PUSH1 0x20 MUL PUSH1 0x20 ADD DUP3 ADD PUSH1 0x40 MSTORE DUP1 ISZERO PUSH2 0xDCC JUMPI DUP2 PUSH1 0x20 ADD PUSH1 0x20 DUP3 MUL DUP1 CALLDATASIZE DUP4 CALLDATACOPY DUP1 DUP3 ADD SWAP2 POP POP SWAP1 POP JUMPDEST POP SWAP1 POP PUSH32 0x0 DUP2 PUSH0 DUP2 MLOAD DUP2 LT PUSH2 0xE03 JUMPI PUSH2 0xE02 PUSH2 0x1EB9 JUMP JUMPDEST JUMPDEST PUSH1 0x20 MUL PUSH1 0x20 ADD ADD SWAP1 PUSH20 0xFFFFFFFFFFFFFFFFFFFFFFFFFFFFFFFFFFFFFFFF AND SWAP1 DUP2 PUSH20 0xFFFFFFFFFFFFFFFFFFFFFFFFFFFFFFFFFFFFFFFF AND DUP2 MSTORE POP POP PUSH32 0x0 DUP2 PUSH1 0x1 DUP2 MLOAD DUP2 LT PUSH2 0xE72 JUMPI PUSH2 0xE71 PUSH2 0x1EB9 JUMP JUMPDEST JUMPDEST PUSH1 0x20 MUL PUSH1 0x20 ADD ADD SWAP1 PUSH20 0xFFFFFFFFFFFFFFFFFFFFFFFFFFFFFFFFFFFFFFFF AND SWAP1 DUP2 PUSH20 0xFFFFFFFFFFFFFFFFFFFFFFFFFFFFFFFFFFFFFFFF AND DUP2 MSTORE POP POP PUSH0 PUSH2 0x12C TIMESTAMP PUSH2 0xEBB SWAP2 SWAP1 PUSH2 0x1F13 JUMP JUMPDEST SWAP1 POP PUSH0 PUSH32 0x0 PUSH20 0xFFFFFFFFFFFFFFFFFFFFFFFFFFFFFFFFFFFFFFFF AND PUSH4 0x38ED1739 CALLVALUE DUP7 DUP7 ADDRESS DUP8 PUSH1 0x40 MLOAD DUP7 PUSH4 0xFFFFFFFF AND PUSH1 0xE0 SHL DUP2 MSTORE PUSH1 0x4 ADD PUSH2 0xF1F SWAP6 SWAP5 SWAP4 SWAP3 SWAP2 SWAP1 PUSH2 0x1FFD JUMP JUMPDEST PUSH0 PUSH1 0x40 MLOAD DUP1 DUP4 SUB DUP2 PUSH0 DUP8 GAS CALL ISZERO DUP1 ISZERO PUSH2 0xF3A JUMPI RETURNDATASIZE PUSH0 PUSH0 RETURNDATACOPY RETURNDATASIZE PUSH0 REVERT JUMPDEST POP POP POP POP PUSH1 0x40 MLOAD RETURNDATASIZE PUSH0 DUP3 RETURNDATACOPY RETURNDATASIZE PUSH1 0x1F NOT PUSH1 0x1F DUP3 ADD AND DUP3 ADD DUP1 PUSH1 0x40 MSTORE POP DUP2 ADD SWAP1 PUSH2 0xF62 SWAP2 SWAP1 PUSH2 0x218C JUMP JUMPDEST SWAP1 POP PUSH1 0x2 DUP2 MLOAD LT ISZERO PUSH2 0xFA0 JUMPI PUSH1 0x40 MLOAD PUSH32 0x81CEFF3000000000000000000000000000000000000000000000000000000000 DUP2 MSTORE PUSH1 0x4 ADD PUSH1 0x40 MLOAD DUP1 SWAP2 SUB SWAP1 REVERT JUMPDEST PUSH0 DUP2 PUSH1 0x1 DUP4 MLOAD PUSH2 0xFB0 SWAP2 SWAP1 PUSH2 0x21D3 JUMP JUMPDEST DUP2 MLOAD DUP2 LT PUSH2 0xFC1 JUMPI PUSH2 0xFC0 PUSH2 0x1EB9 JUMP JUMPDEST JUMPDEST PUSH1 0x20 MUL PUSH1 0x20 ADD ADD MLOAD SWAP1 POP PUSH32 0x0 DUP2 PUSH1 0x1 SLOAD PUSH2 0xFFA SWAP2 SWAP1 PUSH2 0x1F13 JUMP JUMPDEST GT ISZERO PUSH2 0x10FF JUMPI PUSH32 0x0 PUSH20 0xFFFFFFFFFFFFFFFFFFFFFFFFFFFFFFFFFFFFFFFF AND PUSH4 0xA9059CBB CALLER DUP4 PUSH1 0x40 MLOAD DUP4 PUSH4 0xFFFFFFFF AND PUSH1 0xE0 SHL DUP2 MSTORE PUSH1 0x4 ADD PUSH2 0x105B SWAP3 SWAP2 SWAP1 PUSH2 0x2206 JUMP JUMPDEST PUSH1 0x20 PUSH1 0x40 MLOAD DUP1 DUP4 SUB DUP2 PUSH0 DUP8 GAS CALL ISZERO DUP1 ISZERO PUSH2 0x1077 JUMPI RETURNDATASIZE PUSH0 PUSH0 RETURNDATACOPY RETURNDATASIZE PUSH0 REVERT JUMPDEST POP POP POP POP PUSH1 0x40 MLOAD RETURNDATASIZE PUSH1 0x1F NOT PUSH1 0x1F DUP3 ADD AND DUP3 ADD DUP1 PUSH1 0x40 MSTORE POP DUP2 ADD SWAP1 PUSH2 0x109B SWAP2 SWAP1 PUSH2 0x1E61 JUMP JUMPDEST POP DUP1 PUSH1 0x1 SLOAD PUSH32 0x0 PUSH1 0x40 MLOAD PUSH32 0x621E5A6900000000000000000000000000000000000000000000000000000000 DUP2 MSTORE PUSH1 0x4 ADD PUSH2 0x10F6 SWAP4 SWAP3 SWAP2 SWAP1 PUSH2 0x222D JUMP JUMPDEST PUSH1 0x40 MLOAD DUP1 SWAP2 SUB SWAP1 REVERT JUMPDEST DUP1 PUSH1 0x1 PUSH0 DUP3 DUP3 SLOAD PUSH2 0x1110 SWAP2 SWAP1 PUSH2 0x1F13 JUMP JUMPDEST SWAP3 POP POP DUP2 SWAP1 SSTORE POP DUP1 PUSH1 0x3 PUSH0 CALLER PUSH20 0xFFFFFFFFFFFFFFFFFFFFFFFFFFFFFFFFFFFFFFFF AND PUSH20 0xFFFFFFFFFFFFFFFFFFFFFFFFFFFFFFFFFFFFFFFF AND DUP2 MSTORE PUSH1 0x20 ADD SWAP1 DUP2 MSTORE PUSH1 0x20 ADD PUSH0 KECCAK256 PUSH0 DUP3 DUP3 SLOAD PUSH2 0x1163 SWAP2 SWAP1 PUSH2 0x1F13 JUMP JUMPDEST SWAP3 POP POP DUP2 SWAP1 SSTORE POP PUSH32 0x0 PUSH20 0xFFFFFFFFFFFFFFFFFFFFFFFFFFFFFFFFFFFFFFFF AND CALLER PUSH20 0xFFFFFFFFFFFFFFFFFFFFFFFFFFFFFFFFFFFFFFFF AND PUSH32 0xAB466672CD9ADAE1C2072831F94C1068597B355987D2A64D4E5A7DCD74E5CDA5 CALLVALUE DUP5 PUSH1 0x40 MLOAD PUSH2 0x11E9 SWAP3 SWAP2 SWAP1 PUSH2 0x2262 JUMP JUMPDEST PUSH1 0x40 MLOAD DUP1 SWAP2 SUB SWAP1 LOG3 POP POP POP POP PUSH0 PUSH1 0x2 PUSH0 PUSH2 0x100 EXP DUP2 SLOAD DUP2 PUSH1 0xFF MUL NOT AND SWAP1 DUP4 ISZERO ISZERO MUL OR SWAP1 SSTORE POP POP JUMP JUMPDEST PUSH32 0x0 DUP2 JUMP JUMPDEST PUSH0 PUSH0 SWAP1 SLOAD SWAP1 PUSH2 0x100 EXP SWAP1 DIV PUSH20 0xFFFFFFFFFFFFFFFFFFFFFFFFFFFFFFFFFFFFFFFF AND DUP2 JUMP JUMPDEST PUSH32 0x0 DUP2 JUMP JUMPDEST PUSH32 0x0 DUP2 JUMP JUMPDEST PUSH0 PUSH1 0x3 PUSH0 DUP4 PUSH20 0xFFFFFFFFFFFFFFFFFFFFFFFFFFFFFFFFFFFFFFFF AND PUSH20 0xFFFFFFFFFFFFFFFFFFFFFFFFFFFFFFFFFFFFFFFF AND DUP2 MSTORE PUSH1 0x20 ADD SWAP1 DUP2 MSTORE PUSH1 0x20 ADD PUSH0 KECCAK256 SLOAD SWAP1 POP SWAP2 SWAP1 POP JUMP JUMPDEST PUSH1 0x2 PUSH0 SWAP1 SLOAD SWAP1 PUSH2 0x100 EXP SWAP1 DIV PUSH1 0xFF AND ISZERO PUSH2 0x132D JUMPI PUSH1 0x40 MLOAD PUSH32 0xED3BA6A600000000000000000000000000000000000000000000000000000000 DUP2 MSTORE PUSH1 0x4 ADD PUSH1 0x40 MLOAD DUP1 SWAP2 SUB SWAP1 REVERT JUMPDEST PUSH1 0x1 PUSH1 0x2 PUSH0 PUSH2 0x100 EXP DUP2 SLOAD DUP2 PUSH1 0xFF MUL NOT AND SWAP1 DUP4 ISZERO ISZERO MUL OR SWAP1 SSTORE POP PUSH0 DUP2 SUB PUSH2 0x1380 JUMPI PUSH1 0x40 MLOAD PUSH32 0x1F2A200500000000000000000000000000000000000000000000000000000000 DUP2 MSTORE PUSH1 0x4 ADD PUSH1 0x40 MLOAD DUP1 SWAP2 SUB SWAP1 REVERT JUMPDEST PUSH0 PUSH1 0x3 PUSH0 CALLER PUSH20 0xFFFFFFFFFFFFFFFFFFFFFFFFFFFFFFFFFFFFFFFF AND PUSH20 0xFFFFFFFFFFFFFFFFFFFFFFFFFFFFFFFFFFFFFFFF AND DUP2 MSTORE PUSH1 0x20 ADD SWAP1 DUP2 MSTORE PUSH1 0x20 ADD PUSH0 KECCAK256 SLOAD SWAP1 POP DUP1 DUP3 GT ISZERO PUSH2 0x1408 JUMPI DUP1 DUP3 PUSH1 0x40 MLOAD PUSH32 0xCF47918100000000000000000000000000000000000000000000000000000000 DUP2 MSTORE PUSH1 0x4 ADD PUSH2 0x13FF SWAP3 SWAP2 SWAP1 PUSH2 0x2262 JUMP JUMPDEST PUSH1 0x40 MLOAD DUP1 SWAP2 SUB SWAP1 REVERT JUMPDEST DUP2 DUP2 PUSH2 0x1414 SWAP2 SWAP1 PUSH2 0x21D3 JUMP JUMPDEST PUSH1 0x3 PUSH0 CALLER PUSH20 0xFFFFFFFFFFFFFFFFFFFFFFFFFFFFFFFFFFFFFFFF AND PUSH20 0xFFFFFFFFFFFFFFFFFFFFFFFFFFFFFFFFFFFFFFFF AND DUP2 MSTORE PUSH1 0x20 ADD SWAP1 DUP2 MSTORE PUSH1 0x20 ADD PUSH0 KECCAK256 DUP2 SWAP1 SSTORE POP DUP2 PUSH1 0x1 PUSH0 DUP3 DUP3 SLOAD PUSH2 0x1466 SWAP2 SWAP1 PUSH2 0x21D3 JUMP JUMPDEST SWAP3 POP POP DUP2 SWAP1 SSTORE POP PUSH0 PUSH32 0x0 PUSH20 0xFFFFFFFFFFFFFFFFFFFFFFFFFFFFFFFFFFFFFFFF AND PUSH4 0xA9059CBB CALLER DUP6 PUSH1 0x40 MLOAD DUP4 PUSH4 0xFFFFFFFF AND PUSH1 0xE0 SHL DUP2 MSTORE PUSH1 0x4 ADD PUSH2 0x14C9 SWAP3 SWAP2 SWAP1 PUSH2 0x2206 JUMP JUMPDEST PUSH1 0x20 PUSH1 0x40 MLOAD DUP1 DUP4 SUB DUP2 PUSH0 DUP8 GAS CALL ISZERO DUP1 ISZERO PUSH2 0x14E5 JUMPI RETURNDATASIZE PUSH0 PUSH0 RETURNDATACOPY RETURNDATASIZE PUSH0 REVERT JUMPDEST POP POP POP POP PUSH1 0x40 MLOAD RETURNDATASIZE PUSH1 0x1F NOT PUSH1 0x1F DUP3 ADD AND DUP3 ADD DUP1 PUSH1 0x40 MSTORE POP DUP2 ADD SWAP1 PUSH2 0x1509 SWAP2 SWAP1 PUSH2 0x1E61 JUMP JUMPDEST SWAP1 POP DUP1 PUSH2 0x1542 JUMPI PUSH1 0x40 MLOAD PUSH32 0x81CEFF3000000000000000000000000000000000000000000000000000000000 DUP2 MSTORE PUSH1 0x4 ADD PUSH1 0x40 MLOAD DUP1 SWAP2 SUB SWAP1 REVERT JUMPDEST CALLER PUSH20 0xFFFFFFFFFFFFFFFFFFFFFFFFFFFFFFFFFFFFFFFF AND PUSH32 0x23EE1B877CB0081138B4973C5B2ECA0133C573AD526550935D83AAADE37666CA DUP5 PUSH1 0x40 MLOAD PUSH2 0x1588 SWAP2 SWAP1 PUSH2 0x1C3E JUMP JUMPDEST PUSH1 0x40 MLOAD DUP1 SWAP2 SUB SWAP1 LOG2 POP POP PUSH0 PUSH1 0x2 PUSH0 PUSH2 0x100 EXP DUP2 SLOAD DUP2 PUSH1 0xFF MUL NOT AND SWAP1 DUP4 ISZERO ISZERO MUL OR SWAP1 SSTORE POP POP JUMP JUMPDEST PUSH1 0x2 PUSH0 SWAP1 SLOAD SWAP1 PUSH2 0x100 EXP SWAP1 DIV PUSH1 0xFF AND ISZERO PUSH2 0x15F4 JUMPI PUSH1 0x40 MLOAD PUSH32 0xED3BA6A600000000000000000000000000000000000000000000000000000000 DUP2 MSTORE PUSH1 0x4 ADD PUSH1 0x40 MLOAD DUP1 SWAP2 SUB SWAP1 REVERT JUMPDEST PUSH1 0x1 PUSH1 0x2 PUSH0 PUSH2 0x100 EXP DUP2 SLOAD DUP2 PUSH1 0xFF MUL NOT AND SWAP1 DUP4 ISZERO ISZERO MUL OR SWAP1 SSTORE POP PUSH0 DUP2 SUB PUSH2 0x1647 JUMPI PUSH1 0x40 MLOAD PUSH32 0x1F2A200500000000000000000000000000000000000000000000000000000000 DUP2 MSTORE PUSH1 0x4 ADD PUSH1 0x40 MLOAD DUP1 SWAP2 SUB SWAP1 REVERT JUMPDEST PUSH0 PUSH32 0x0 PUSH20 0xFFFFFFFFFFFFFFFFFFFFFFFFFFFFFFFFFFFFFFFF AND PUSH4 0x23B872DD CALLER ADDRESS DUP6 PUSH1 0x40 MLOAD DUP5 PUSH4 0xFFFFFFFF AND PUSH1 0xE0 SHL DUP2 MSTORE PUSH1 0x4 ADD PUSH2 0x16A5 SWAP4 SWAP3 SWAP2 SWAP1 PUSH2 0x1DF7 JUMP JUMPDEST PUSH1 0x20 PUSH1 0x40 MLOAD DUP1 DUP4 SUB DUP2 PUSH0 DUP8 GAS CALL ISZERO DUP1 ISZERO PUSH2 0x16C1 JUMPI RETURNDATASIZE PUSH0 PUSH0 RETURNDATACOPY RETURNDATASIZE PUSH0 REVERT JUMPDEST POP POP POP POP PUSH1 0x40 MLOAD RETURNDATASIZE PUSH1 0x1F NOT PUSH1 0x1F DUP3 ADD AND DUP3 ADD DUP1 PUSH1 0x40 MSTORE POP DUP2 ADD SWAP1 PUSH2 0x16E5 SWAP2 SWAP1 PUSH2 0x1E61 JUMP JUMPDEST SWAP1 POP DUP1 PUSH2 0x171E JUMPI PUSH1 0x40 MLOAD PUSH32 0x81CEFF3000000000000000000000000000000000000000000000000000000000 DUP2 MSTORE PUSH1 0x4 ADD PUSH1 0x40 MLOAD DUP1 SWAP2 SUB SWAP1 REVERT JUMPDEST PUSH32 0x0 DUP3 PUSH1 0x1 SLOAD PUSH2 0x174D SWAP2 SWAP1 PUSH2 0x1F13 JUMP JUMPDEST GT ISZERO PUSH2 0x1852 JUMPI PUSH32 0x0 PUSH20 0xFFFFFFFFFFFFFFFFFFFFFFFFFFFFFFFFFFFFFFFF AND PUSH4 0xA9059CBB CALLER DUP5 PUSH1 0x40 MLOAD DUP4 PUSH4 0xFFFFFFFF AND PUSH1 0xE0 SHL DUP2 MSTORE PUSH1 0x4 ADD PUSH2 0x17AE SWAP3 SWAP2 SWAP1 PUSH2 0x2206 JUMP JUMPDEST PUSH1 0x20 PUSH1 0x40 MLOAD DUP1 DUP4 SUB DUP2 PUSH0 DUP8 GAS CALL ISZERO DUP1 ISZERO PUSH2 0x17CA JUMPI RETURNDATASIZE PUSH0 PUSH0 RETURNDATACOPY RETURNDATASIZE PUSH0 REVERT JUMPDEST POP POP POP POP PUSH1 0x40 MLOAD RETURNDATASIZE PUSH1 0x1F NOT PUSH1 0x1F DUP3 ADD AND DUP3 ADD DUP1 PUSH1 0x40 MSTORE POP DUP2 ADD SWAP1 PUSH2 0x17EE SWAP2 SWAP1 PUSH2 0x1E61 JUMP JUMPDEST POP DUP2 PUSH1 0x1 SLOAD PUSH32 0x0 PUSH1 0x40 MLOAD PUSH32 0x621E5A6900000000000000000000000000000000000000000000000000000000 DUP2 MSTORE PUSH1 0x4 ADD PUSH2 0x1849 SWAP4 SWAP3 SWAP2 SWAP1 PUSH2 0x222D JUMP JUMPDEST PUSH1 0x40 MLOAD DUP1 SWAP2 SUB SWAP1 REVERT JUMPDEST DUP2 PUSH1 0x1 PUSH0 DUP3 DUP3 SLOAD PUSH2 0x1863 SWAP2 SWAP1 PUSH2 0x1F13 JUMP JUMPDEST SWAP3 POP POP DUP2 SWAP1 SSTORE POP DUP2 PUSH1 0x3 PUSH0 CALLER PUSH20 0xFFFFFFFFFFFFFFFFFFFFFFFFFFFFFFFFFFFFFFFF AND PUSH20 0xFFFFFFFFFFFFFFFFFFFFFFFFFFFFFFFFFFFFFFFF AND DUP2 MSTORE PUSH1 0x20 ADD SWAP1 DUP2 MSTORE PUSH1 0x20 ADD PUSH0 KECCAK256 PUSH0 DUP3 DUP3 SLOAD PUSH2 0x18B6 SWAP2 SWAP1 PUSH2 0x1F13 JUMP JUMPDEST SWAP3 POP POP DUP2 SWAP1 SSTORE POP CALLER PUSH20 0xFFFFFFFFFFFFFFFFFFFFFFFFFFFFFFFFFFFFFFFF AND PUSH32 0xE7440F6772025DEC9BE06BA934E6EE5289B73533EE2136BA668F6CB6EA3F56A8 DUP4 PUSH1 0x40 MLOAD PUSH2 0x1903 SWAP2 SWAP1 PUSH2 0x1C3E JUMP JUMPDEST PUSH1 0x40 MLOAD DUP1 SWAP2 SUB SWAP1 LOG2 POP PUSH0 PUSH1 0x2 PUSH0 PUSH2 0x100 EXP DUP2 SLOAD DUP2 PUSH1 0xFF MUL NOT AND SWAP1 DUP4 ISZERO ISZERO MUL OR SWAP1 SSTORE POP POP JUMP JUMPDEST PUSH32 0x0 DUP2 JUMP JUMPDEST DUP3 PUSH20 0xFFFFFFFFFFFFFFFFFFFFFFFFFFFFFFFFFFFFFFFF AND PUSH4 0x95EA7B3 DUP4 PUSH0 PUSH1 0x40 MLOAD DUP4 PUSH4 0xFFFFFFFF AND PUSH1 0xE0 SHL DUP2 MSTORE PUSH1 0x4 ADD PUSH2 0x1987 SWAP3 SWAP2 SWAP1 PUSH2 0x22B9 JUMP JUMPDEST PUSH1 0x20 PUSH1 0x40 MLOAD DUP1 DUP4 SUB DUP2 PUSH0 DUP8 GAS CALL ISZERO DUP1 ISZERO PUSH2 0x19A3 JUMPI RETURNDATASIZE PUSH0 PUSH0 RETURNDATACOPY RETURNDATASIZE PUSH0 REVERT JUMPDEST POP POP POP POP PUSH1 0x40 MLOAD RETURNDATASIZE PUSH1 0x1F NOT PUSH1 0x1F DUP3 ADD AND DUP3 ADD DUP1 PUSH1 0x40 MSTORE POP DUP2 ADD SWAP1 PUSH2 0x19C7 SWAP2 SWAP1 PUSH2 0x1E61 JUMP JUMPDEST POP DUP3 PUSH20 0xFFFFFFFFFFFFFFFFFFFFFFFFFFFFFFFFFFFFFFFF AND PUSH4 0x95EA7B3 DUP4 DUP4 PUSH1 0x40 MLOAD DUP4 PUSH4 0xFFFFFFFF AND PUSH1 0xE0 SHL DUP2 MSTORE PUSH1 0x4 ADD PUSH2 0x1A03 SWAP3 SWAP2 SWAP1 PUSH2 0x2206 JUMP JUMPDEST PUSH1 0x20 PUSH1 0x40 MLOAD DUP1 DUP4 SUB DUP2 PUSH0 DUP8 GAS CALL ISZERO DUP1 ISZERO PUSH2 0x1A1F JUMPI RETURNDATASIZE PUSH0 PUSH0 RETURNDATACOPY RETURNDATASIZE PUSH0 REVERT JUMPDEST POP POP POP POP PUSH1 0x40 MLOAD RETURNDATASIZE PUSH1 0x1F NOT PUSH1 0x1F DUP3 ADD AND DUP3 ADD DUP1 PUSH1 0x40 MSTORE POP DUP2 ADD SWAP1 PUSH2 0x1A43 SWAP2 SWAP1 PUSH2 0x1E61 JUMP JUMPDEST POP POP POP POP JUMP JUMPDEST PUSH0 DUP2 SWAP1 POP SWAP2 SWAP1 POP JUMP JUMPDEST PUSH0 PUSH1 0xFF DUP3 AND SWAP1 POP SWAP2 SWAP1 POP JUMP JUMPDEST PUSH0 DUP2 SWAP1 POP SWAP2 SWAP1 POP JUMP JUMPDEST PUSH0 PUSH2 0x1A81 PUSH2 0x1A7C PUSH2 0x1A77 DUP5 PUSH2 0x1A49 JUMP JUMPDEST PUSH2 0x1A5E JUMP JUMPDEST PUSH2 0x1A52 JUMP JUMPDEST SWAP1 POP SWAP2 SWAP1 POP JUMP JUMPDEST PUSH2 0x1A91 DUP2 PUSH2 0x1A67 JUMP JUMPDEST DUP3 MSTORE POP POP JUMP JUMPDEST PUSH0 PUSH1 0x20 DUP3 ADD SWAP1 POP PUSH2 0x1AAA PUSH0 DUP4 ADD DUP5 PUSH2 0x1A88 JUMP JUMPDEST SWAP3 SWAP2 POP POP JUMP JUMPDEST PUSH0 DUP2 MLOAD SWAP1 POP SWAP2 SWAP1 POP JUMP JUMPDEST PUSH0 DUP2 SWAP1 POP SWAP3 SWAP2 POP POP JUMP JUMPDEST DUP3 DUP2 DUP4 MCOPY PUSH0 DUP4 DUP4 ADD MSTORE POP POP POP JUMP JUMPDEST PUSH0 PUSH2 0x1ADC DUP3 PUSH2 0x1AB0 JUMP JUMPDEST PUSH2 0x1AE6 DUP2 DUP6 PUSH2 0x1ABA JUMP JUMPDEST SWAP4 POP PUSH2 0x1AF6 DUP2 DUP6 PUSH1 0x20 DUP7 ADD PUSH2 0x1AC4 JUMP JUMPDEST DUP1 DUP5 ADD SWAP2 POP POP SWAP3 SWAP2 POP POP JUMP JUMPDEST PUSH0 PUSH2 0x1B0D DUP3 DUP5 PUSH2 0x1AD2 JUMP JUMPDEST SWAP2 POP DUP2 SWAP1 POP SWAP3 SWAP2 POP POP JUMP JUMPDEST PUSH0 DUP3 DUP3 MSTORE PUSH1 0x20 DUP3 ADD SWAP1 POP SWAP3 SWAP2 POP POP JUMP JUMPDEST PUSH32 0x4465706F736974206661696C6564000000000000000000000000000000000000 PUSH0 DUP3 ADD MSTORE POP JUMP JUMPDEST PUSH0 PUSH2 0x1B5C PUSH1 0xE DUP4 PUSH2 0x1B18 JUMP JUMPDEST SWAP2 POP PUSH2 0x1B67 DUP3 PUSH2 0x1B28 JUMP JUMPDEST PUSH1 0x20 DUP3 ADD SWAP1 POP SWAP2 SWAP1 POP JUMP JUMPDEST PUSH0 PUSH1 0x20 DUP3 ADD SWAP1 POP DUP2 DUP2 SUB PUSH0 DUP4 ADD MSTORE PUSH2 0x1B89 DUP2 PUSH2 0x1B50 JUMP JUMPDEST SWAP1 POP SWAP2 SWAP1 POP JUMP JUMPDEST PUSH0 PUSH1 0x40 MLOAD SWAP1 POP SWAP1 JUMP JUMPDEST PUSH0 PUSH0 REVERT JUMPDEST PUSH0 PUSH0 REVERT JUMPDEST PUSH0 PUSH20 0xFFFFFFFFFFFFFFFFFFFFFFFFFFFFFFFFFFFFFFFF DUP3 AND SWAP1 POP SWAP2 SWAP1 POP JUMP JUMPDEST PUSH0 PUSH2 0x1BCA DUP3 PUSH2 0x1BA1 JUMP JUMPDEST SWAP1 POP SWAP2 SWAP1 POP JUMP JUMPDEST PUSH2 0x1BDA DUP2 PUSH2 0x1BC0 JUMP JUMPDEST DUP2 EQ PUSH2 0x1BE4 JUMPI PUSH0 PUSH0 REVERT JUMPDEST POP JUMP JUMPDEST PUSH0 DUP2 CALLDATALOAD SWAP1 POP PUSH2 0x1BF5 DUP2 PUSH2 0x1BD1 JUMP JUMPDEST SWAP3 SWAP2 POP POP JUMP JUMPDEST PUSH0 PUSH1 0x20 DUP3 DUP5 SUB SLT ISZERO PUSH2 0x1C10 JUMPI PUSH2 0x1C0F PUSH2 0x1B99 JUMP JUMPDEST JUMPDEST PUSH0 PUSH2 0x1C1D DUP5 DUP3 DUP6 ADD PUSH2 0x1BE7 JUMP JUMPDEST SWAP2 POP POP SWAP3 SWAP2 POP POP JUMP JUMPDEST PUSH0 DUP2 SWAP1 POP SWAP2 SWAP1 POP JUMP JUMPDEST PUSH2 0x1C38 DUP2 PUSH2 0x1C26 JUMP JUMPDEST DUP3 MSTORE POP POP JUMP JUMPDEST PUSH0 PUSH1 0x20 DUP3 ADD SWAP1 POP PUSH2 0x1C51 PUSH0 DUP4 ADD DUP5 PUSH2 0x1C2F JUMP JUMPDEST SWAP3 SWAP2 POP POP JUMP JUMPDEST PUSH2 0x1C60 DUP2 PUSH2 0x1C26 JUMP JUMPDEST DUP2 EQ PUSH2 0x1C6A JUMPI PUSH0 PUSH0 REVERT JUMPDEST POP JUMP JUMPDEST PUSH0 DUP2 CALLDATALOAD SWAP1 POP PUSH2 0x1C7B DUP2 PUSH2 0x1C57 JUMP JUMPDEST SWAP3 SWAP2 POP POP JUMP JUMPDEST PUSH0 PUSH0 PUSH0 PUSH1 0x60 DUP5 DUP7 SUB SLT ISZERO PUSH2 0x1C98 JUMPI PUSH2 0x1C97 PUSH2 0x1B99 JUMP JUMPDEST JUMPDEST PUSH0 PUSH2 0x1CA5 DUP7 DUP3 DUP8 ADD PUSH2 0x1BE7 JUMP JUMPDEST SWAP4 POP POP PUSH1 0x20 PUSH2 0x1CB6 DUP7 DUP3 DUP8 ADD PUSH2 0x1C6D JUMP JUMPDEST SWAP3 POP POP PUSH1 0x40 PUSH2 0x1CC7 DUP7 DUP3 DUP8 ADD PUSH2 0x1C6D JUMP JUMPDEST SWAP2 POP POP SWAP3 POP SWAP3 POP SWAP3 JUMP JUMPDEST PUSH0 PUSH1 0x20 DUP3 DUP5 SUB SLT ISZERO PUSH2 0x1CE6 JUMPI PUSH2 0x1CE5 PUSH2 0x1B99 JUMP JUMPDEST JUMPDEST PUSH0 PUSH2 0x1CF3 DUP5 DUP3 DUP6 ADD PUSH2 0x1C6D JUMP JUMPDEST SWAP2 POP POP SWAP3 SWAP2 POP POP JUMP JUMPDEST PUSH2 0x1D05 DUP2 PUSH2 0x1BC0 JUMP JUMPDEST DUP3 MSTORE POP POP JUMP JUMPDEST PUSH0 PUSH1 0x20 DUP3 ADD SWAP1 POP PUSH2 0x1D1E PUSH0 DUP4 ADD DUP5 PUSH2 0x1CFC JUMP JUMPDEST SWAP3 SWAP2 POP POP JUMP JUMPDEST PUSH0 PUSH2 0x1D3E PUSH2 0x1D39 PUSH2 0x1D34 DUP5 PUSH2 0x1BA1 JUMP JUMPDEST PUSH2 0x1A5E JUMP JUMPDEST PUSH2 0x1BA1 JUMP JUMPDEST SWAP1 POP SWAP2 SWAP1 POP JUMP JUMPDEST PUSH0 PUSH2 0x1D4F DUP3 PUSH2 0x1D24 JUMP JUMPDEST SWAP1 POP SWAP2 SWAP1 POP JUMP JUMPDEST PUSH0 PUSH2 0x1D60 DUP3 PUSH2 0x1D45 JUMP JUMPDEST SWAP1 POP SWAP2 SWAP1 POP JUMP JUMPDEST PUSH2 0x1D70 DUP2 PUSH2 0x1D56 JUMP JUMPDEST DUP3 MSTORE POP POP JUMP JUMPDEST PUSH0 PUSH1 0x20 DUP3 ADD SWAP1 POP PUSH2 0x1D89 PUSH0 DUP4 ADD DUP5 PUSH2 0x1D67 JUMP JUMPDEST SWAP3 SWAP2 POP POP JUMP JUMPDEST PUSH32 0x7A65726F20616464720000000000000000000000000000000000000000000000 PUSH0 DUP3 ADD MSTORE POP JUMP JUMPDEST PUSH0 PUSH2 0x1DC3 PUSH1 0x9 DUP4 PUSH2 0x1B18 JUMP JUMPDEST SWAP2 POP PUSH2 0x1DCE DUP3 PUSH2 0x1D8F JUMP JUMPDEST PUSH1 0x20 DUP3 ADD SWAP1 POP SWAP2 SWAP1 POP JUMP JUMPDEST PUSH0 PUSH1 0x20 DUP3 ADD SWAP1 POP DUP2 DUP2 SUB PUSH0 DUP4 ADD MSTORE PUSH2 0x1DF0 DUP2 PUSH2 0x1DB7 JUMP JUMPDEST SWAP1 POP SWAP2 SWAP1 POP JUMP JUMPDEST PUSH0 PUSH1 0x60 DUP3 ADD SWAP1 POP PUSH2 0x1E0A PUSH0 DUP4 ADD DUP7 PUSH2 0x1CFC JUMP JUMPDEST PUSH2 0x1E17 PUSH1 0x20 DUP4 ADD DUP6 PUSH2 0x1CFC JUMP JUMPDEST PUSH2 0x1E24 PUSH1 0x40 DUP4 ADD DUP5 PUSH2 0x1C2F JUMP JUMPDEST SWAP5 SWAP4 POP POP POP POP JUMP JUMPDEST PUSH0 DUP2 ISZERO ISZERO SWAP1 POP SWAP2 SWAP1 POP JUMP JUMPDEST PUSH2 0x1E40 DUP2 PUSH2 0x1E2C JUMP JUMPDEST DUP2 EQ PUSH2 0x1E4A JUMPI PUSH0 PUSH0 REVERT JUMPDEST POP JUMP JUMPDEST PUSH0 DUP2 MLOAD SWAP1 POP PUSH2 0x1E5B DUP2 PUSH2 0x1E37 JUMP JUMPDEST SWAP3 SWAP2 POP POP JUMP JUMPDEST PUSH0 PUSH1 0x20 DUP3 DUP5 SUB SLT ISZERO PUSH2 0x1E76 JUMPI PUSH2 0x1E75 PUSH2 0x1B99 JUMP JUMPDEST JUMPDEST PUSH0 PUSH2 0x1E83 DUP5 DUP3 DUP6 ADD PUSH2 0x1E4D JUMP JUMPDEST SWAP2 POP POP SWAP3 SWAP2 POP POP JUMP JUMPDEST PUSH32 0x4E487B7100000000000000000000000000000000000000000000000000000000 PUSH0 MSTORE PUSH1 0x41 PUSH1 0x4 MSTORE PUSH1 0x24 PUSH0 REVERT JUMPDEST PUSH32 0x4E487B7100000000000000000000000000000000000000000000000000000000 PUSH0 MSTORE PUSH1 0x32 PUSH1 0x4 MSTORE PUSH1 0x24 PUSH0 REVERT JUMPDEST PUSH32 0x4E487B7100000000000000000000000000000000000000000000000000000000 PUSH0 MSTORE PUSH1 0x11 PUSH1 0x4 MSTORE PUSH1 0x24 PUSH0 REVERT JUMPDEST PUSH0 PUSH2 0x1F1D DUP3 PUSH2 0x1C26 JUMP JUMPDEST SWAP2 POP PUSH2 0x1F28 DUP4 PUSH2 0x1C26 JUMP JUMPDEST SWAP3 POP DUP3 DUP3 ADD SWAP1 POP DUP1 DUP3 GT ISZERO PUSH2 0x1F40 JUMPI PUSH2 0x1F3F PUSH2 0x1EE6 JUMP JUMPDEST JUMPDEST SWAP3 SWAP2 POP POP JUMP JUMPDEST PUSH0 DUP2 MLOAD SWAP1 POP SWAP2 SWAP1 POP JUMP JUMPDEST PUSH0 DUP3 DUP3 MSTORE PUSH1 0x20 DUP3 ADD SWAP1 POP SWAP3 SWAP2 POP POP JUMP JUMPDEST PUSH0 DUP2 SWAP1 POP PUSH1 0x20 DUP3 ADD SWAP1 POP SWAP2 SWAP1 POP JUMP JUMPDEST PUSH2 0x1F78 DUP2 PUSH2 0x1BC0 JUMP JUMPDEST DUP3 MSTORE POP POP JUMP JUMPDEST PUSH0 PUSH2 0x1F89 DUP4 DUP4 PUSH2 0x1F6F JUMP JUMPDEST PUSH1 0x20 DUP4 ADD SWAP1 POP SWAP3 SWAP2 POP POP JUMP JUMPDEST PUSH0 PUSH1 0x20 DUP3 ADD SWAP1 POP SWAP2 SWAP1 POP JUMP JUMPDEST PUSH0 PUSH2 0x1FAB DUP3 PUSH2 0x1F46 JUMP JUMPDEST PUSH2 0x1FB5 DUP2 DUP6 PUSH2 0x1F50 JUMP JUMPDEST SWAP4 POP PUSH2 0x1FC0 DUP4 PUSH2 0x1F60 JUMP JUMPDEST DUP1 PUSH0 JUMPDEST DUP4 DUP2 LT ISZERO PUSH2 0x1FF0 JUMPI DUP2 MLOAD PUSH2 0x1FD7 DUP9 DUP3 PUSH2 0x1F7E JUMP JUMPDEST SWAP8 POP PUSH2 0x1FE2 DUP4 PUSH2 0x1F95 JUMP JUMPDEST SWAP3 POP POP PUSH1 0x1 DUP2 ADD SWAP1 POP PUSH2 0x1FC3 JUMP JUMPDEST POP DUP6 SWAP4 POP POP POP POP SWAP3 SWAP2 POP POP JUMP JUMPDEST PUSH0 PUSH1 0xA0 DUP3 ADD SWAP1 POP PUSH2 0x2010 PUSH0 DUP4 ADD DUP9 PUSH2 0x1C2F JUMP JUMPDEST PUSH2 0x201D PUSH1 0x20 DUP4 ADD DUP8 PUSH2 0x1C2F JUMP JUMPDEST DUP2 DUP2 SUB PUSH1 0x40 DUP4 ADD MSTORE PUSH2 0x202F DUP2 DUP7 PUSH2 0x1FA1 JUMP JUMPDEST SWAP1 POP PUSH2 0x203E PUSH1 0x60 DUP4 ADD DUP6 PUSH2 0x1CFC JUMP JUMPDEST PUSH2 0x204B PUSH1 0x80 DUP4 ADD DUP5 PUSH2 0x1C2F JUMP JUMPDEST SWAP7 SWAP6 POP POP POP POP POP POP JUMP JUMPDEST PUSH0 PUSH0 REVERT JUMPDEST PUSH0 PUSH1 0x1F NOT PUSH1 0x1F DUP4 ADD AND SWAP1 POP SWAP2 SWAP1 POP JUMP JUMPDEST PUSH2 0x2072 DUP3 PUSH2 0x2059 JUMP JUMPDEST DUP2 ADD DUP2 DUP2 LT PUSH8 0xFFFFFFFFFFFFFFFF DUP3 GT OR ISZERO PUSH2 0x2091 JUMPI PUSH2 0x2090 PUSH2 0x1E8C JUMP JUMPDEST JUMPDEST DUP1 PUSH1 0x40 MSTORE POP POP POP JUMP JUMPDEST PUSH0 PUSH2 0x20A3 PUSH2 0x1B90 JUMP JUMPDEST SWAP1 POP PUSH2 0x20AF DUP3 DUP3 PUSH2 0x2069 JUMP JUMPDEST SWAP2 SWAP1 POP JUMP JUMPDEST PUSH0 PUSH8 0xFFFFFFFFFFFFFFFF DUP3 GT ISZERO PUSH2 0x20CE JUMPI PUSH2 0x20CD PUSH2 0x1E8C JUMP JUMPDEST JUMPDEST PUSH1 0x20 DUP3 MUL SWAP1 POP PUSH1 0x20 DUP2 ADD SWAP1 POP SWAP2 SWAP1 POP JUMP JUMPDEST PUSH0 PUSH0 REVERT JUMPDEST PUSH0 DUP2 MLOAD SWAP1 POP PUSH2 0x20F1 DUP2 PUSH2 0x1C57 JUMP JUMPDEST SWAP3 SWAP2 POP POP JUMP JUMPDEST PUSH0 PUSH2 0x2109 PUSH2 0x2104 DUP5 PUSH2 0x20B4 JUMP JUMPDEST PUSH2 0x209A JUMP JUMPDEST SWAP1 POP DUP1 DUP4 DUP3 MSTORE PUSH1 0x20 DUP3 ADD SWAP1 POP PUSH1 0x20 DUP5 MUL DUP4 ADD DUP6 DUP2 GT ISZERO PUSH2 0x212C JUMPI PUSH2 0x212B PUSH2 0x20DF JUMP JUMPDEST JUMPDEST DUP4 JUMPDEST DUP2 DUP2 LT ISZERO PUSH2 0x2155 JUMPI DUP1 PUSH2 0x2141 DUP9 DUP3 PUSH2 0x20E3 JUMP JUMPDEST DUP5 MSTORE PUSH1 0x20 DUP5 ADD SWAP4 POP POP PUSH1 0x20 DUP2 ADD SWAP1 POP PUSH2 0x212E JUMP JUMPDEST POP POP POP SWAP4 SWAP3 POP POP POP JUMP JUMPDEST PUSH0 DUP3 PUSH1 0x1F DUP4 ADD SLT PUSH2 0x2173 JUMPI PUSH2 0x2172 PUSH2 0x2055 JUMP JUMPDEST JUMPDEST DUP2 MLOAD PUSH2 0x2183 DUP5 DUP3 PUSH1 0x20 DUP7 ADD PUSH2 0x20F7 JUMP JUMPDEST SWAP2 POP POP SWAP3 SWAP2 POP POP JUMP JUMPDEST PUSH0 PUSH1 0x20 DUP3 DUP5 SUB SLT ISZERO PUSH2 0x21A1 JUMPI PUSH2 0x21A0 PUSH2 0x1B99 JUMP JUMPDEST JUMPDEST PUSH0 DUP3 ADD MLOAD PUSH8 0xFFFFFFFFFFFFFFFF DUP2 GT ISZERO PUSH2 0x21BE JUMPI PUSH2 0x21BD PUSH2 0x1B9D JUMP JUMPDEST JUMPDEST PUSH2 0x21CA DUP5 DUP3 DUP6 ADD PUSH2 0x215F JUMP JUMPDEST SWAP2 POP POP SWAP3 SWAP2 POP POP JUMP JUMPDEST PUSH0 PUSH2 0x21DD DUP3 PUSH2 0x1C26 JUMP JUMPDEST SWAP2 POP PUSH2 0x21E8 DUP4 PUSH2 0x1C26 JUMP JUMPDEST SWAP3 POP DUP3 DUP3 SUB SWAP1 POP DUP2 DUP2 GT ISZERO PUSH2 0x2200 JUMPI PUSH2 0x21FF PUSH2 0x1EE6 JUMP JUMPDEST JUMPDEST SWAP3 SWAP2 POP POP JUMP JUMPDEST PUSH0 PUSH1 0x40 DUP3 ADD SWAP1 POP PUSH2 0x2219 PUSH0 DUP4 ADD DUP6 PUSH2 0x1CFC JUMP JUMPDEST PUSH2 0x2226 PUSH1 0x20 DUP4 ADD DUP5 PUSH2 0x1C2F JUMP JUMPDEST SWAP4 SWAP3 POP POP POP JUMP JUMPDEST PUSH0 PUSH1 0x60 DUP3 ADD SWAP1 POP PUSH2 0x2240 PUSH0 DUP4 ADD DUP7 PUSH2 0x1C2F JUMP JUMPDEST PUSH2 0x224D PUSH1 0x20 DUP4 ADD DUP6 PUSH2 0x1C2F JUMP JUMPDEST PUSH2 0x225A PUSH1 0x40 DUP4 ADD DUP5 PUSH2 0x1C2F JUMP JUMPDEST SWAP5 SWAP4 POP POP POP POP JUMP JUMPDEST PUSH0 PUSH1 0x40 DUP3 ADD SWAP1 POP PUSH2 0x2275 PUSH0 DUP4 ADD DUP6 PUSH2 0x1C2F JUMP JUMPDEST PUSH2 0x2282 PUSH1 0x20 DUP4 ADD DUP5 PUSH2 0x1C2F JUMP JUMPDEST SWAP4 SWAP3 POP POP POP JUMP JUMPDEST PUSH0 PUSH2 0x22A3 PUSH2 0x229E PUSH2 0x2299 DUP5 PUSH2 0x1A49 JUMP JUMPDEST PUSH2 0x1A5E JUMP JUMPDEST PUSH2 0x1C26 JUMP JUMPDEST SWAP1 POP SWAP2 SWAP1 POP JUMP JUMPDEST PUSH2 0x22B3 DUP2 PUSH2 0x2289 JUMP JUMPDEST DUP3 MSTORE POP POP JUMP JUMPDEST PUSH0 PUSH1 0x40 DUP3 ADD SWAP1 POP PUSH2 0x22CC PUSH0 DUP4 ADD DUP6 PUSH2 0x1CFC JUMP JUMPDEST PUSH2 0x22D9 PUSH1 0x20 DUP4 ADD DUP5 PUSH2 0x22AA JUMP JUMPDEST SWAP4 SWAP3 POP POP POP JUMP INVALID LOG2 PUSH5 0x6970667358 0x22 SLT KECCAK256 OR PUSH4 0xE7D5ABA PUSH6 0x394E11779473 SWAP11 PUSH24 0x3474F9C10AC53BA776C0274A44175FA8F064736F6C634300 ADDMOD 0x1E STOP CALLER "
		},
		"gasEstimates": {
			"creation": {
				"codeDepositCost": "1796400",
				"executionCost": "infinite",
				"totalCost": "infinite"
			},
			"external": {
				"": "221",
				"USDC()": "infinite",
				"WETH()": "infinite",
				"bankCapUsd()": "infinite",
				"depositETHSwapToUSDC(uint256)": "infinite",
				"depositTokenSwapToUSDC(address,uint256,uint256)": "infinite",
				"depositUSDC(uint256)": "infinite",
				"owner()": "2618",
				"router()": "infinite",
				"setOwner(address)": "30608",
				"totalUsdc()": "2448",
				"usdcBalanceOf(address)": "2873",
				"withdrawUSDC(uint256)": "infinite"
			},
			"internal": {
				"_safeApprove(address,address,uint256)": "infinite"
			}
		},
		"methodIdentifiers": {
			"USDC()": "89a30271",
			"WETH()": "ad5c4648",
			"bankCapUsd()": "ac4543ba",
			"depositETHSwapToUSDC(uint256)": "883f1721",
			"depositTokenSwapToUSDC(address,uint256,uint256)": "39657553",
			"depositUSDC(uint256)": "f688bcfb",
			"owner()": "8da5cb5b",
			"router()": "f887ea40",
			"setOwner(address)": "13af4035",
			"totalUsdc()": "34462be6",
			"usdcBalanceOf(address)": "c3fd262d",
			"withdrawUSDC(uint256)": "db81f99b"
		}
	},
	"abi": [
		{
			"inputs": [
				{
					"internalType": "address",
					"name": "_usdc",
					"type": "address"
				},
				{
					"internalType": "address",
					"name": "_router",
					"type": "address"
				},
				{
					"internalType": "uint256",
					"name": "_bankCapUsd",
					"type": "uint256"
				}
			],
			"stateMutability": "nonpayable",
			"type": "constructor"
		},
		{
			"inputs": [
				{
					"internalType": "uint256",
					"name": "attempted",
					"type": "uint256"
				},
				{
					"internalType": "uint256",
					"name": "total",
					"type": "uint256"
				},
				{
					"internalType": "uint256",
					"name": "cap",
					"type": "uint256"
				}
			],
			"name": "BankCapExceeded",
			"type": "error"
		},
		{
			"inputs": [
				{
					"internalType": "uint256",
					"name": "available",
					"type": "uint256"
				},
				{
					"internalType": "uint256",
					"name": "requested",
					"type": "uint256"
				}
			],
			"name": "InsufficientBalance",
			"type": "error"
		},
		{
			"inputs": [],
			"name": "InvalidPath",
			"type": "error"
		},
		{
			"inputs": [],
			"name": "NotOwner",
			"type": "error"
		},
		{
			"inputs": [],
			"name": "Reentrant",
			"type": "error"
		},
		{
			"inputs": [],
			"name": "SwapFailed",
			"type": "error"
		},
		{
			"inputs": [],
			"name": "ZeroAmount",
			"type": "error"
		},
		{
			"anonymous": false,
			"inputs": [
				{
					"indexed": true,
					"internalType": "address",
					"name": "user",
					"type": "address"
				},
				{
					"indexed": true,
					"internalType": "address",
					"name": "tokenIn",
					"type": "address"
				},
				{
					"indexed": false,
					"internalType": "uint256",
					"name": "amountIn",
					"type": "uint256"
				},
				{
					"indexed": false,
					"internalType": "uint256",
					"name": "usdcReceived",
					"type": "uint256"
				}
			],
			"name": "DepositConverted",
			"type": "event"
		},
		{
			"anonymous": false,
			"inputs": [
				{
					"indexed": true,
					"internalType": "address",
					"name": "user",
					"type": "address"
				},
				{
					"indexed": false,
					"internalType": "uint256",
					"name": "amountUsdc",
					"type": "uint256"
				}
			],
			"name": "DepositUSDC",
			"type": "event"
		},
		{
			"anonymous": false,
			"inputs": [
				{
					"indexed": true,
					"internalType": "address",
					"name": "oldOwner",
					"type": "address"
				},
				{
					"indexed": true,
					"internalType": "address",
					"name": "newOwner",
					"type": "address"
				}
			],
			"name": "OwnerChanged",
			"type": "event"
		},
		{
			"anonymous": false,
			"inputs": [
				{
					"indexed": true,
					"internalType": "address",
					"name": "user",
					"type": "address"
				},
				{
					"indexed": false,
					"internalType": "uint256",
					"name": "amountUsdc",
					"type": "uint256"
				}
			],
			"name": "WithdrawUSDC",
			"type": "event"
		},
		{
			"stateMutability": "payable",
			"type": "fallback"
		},
		{
			"inputs": [],
			"name": "USDC",
			"outputs": [
				{
					"internalType": "address",
					"name": "",
					"type": "address"
				}
			],
			"stateMutability": "view",
			"type": "function"
		},
		{
			"inputs": [],
			"name": "WETH",
			"outputs": [
				{
					"internalType": "address",
					"name": "",
					"type": "address"
				}
			],
			"stateMutability": "view",
			"type": "function"
		},
		{
			"inputs": [],
			"name": "bankCapUsd",
			"outputs": [
				{
					"internalType": "uint256",
					"name": "",
					"type": "uint256"
				}
			],
			"stateMutability": "view",
			"type": "function"
		},
		{
			"inputs": [
				{
					"internalType": "uint256",
					"name": "minUsdcOut",
					"type": "uint256"
				}
			],
			"name": "depositETHSwapToUSDC",
			"outputs": [],
			"stateMutability": "payable",
			"type": "function"
		},
		{
			"inputs": [
				{
					"internalType": "address",
					"name": "token",
					"type": "address"
				},
				{
					"internalType": "uint256",
					"name": "amountIn",
					"type": "uint256"
				},
				{
					"internalType": "uint256",
					"name": "minUsdcOut",
					"type": "uint256"
				}
			],
			"name": "depositTokenSwapToUSDC",
			"outputs": [],
			"stateMutability": "nonpayable",
			"type": "function"
		},
		{
			"inputs": [
				{
					"internalType": "uint256",
					"name": "amountUsdc",
					"type": "uint256"
				}
			],
			"name": "depositUSDC",
			"outputs": [],
			"stateMutability": "nonpayable",
			"type": "function"
		},
		{
			"inputs": [],
			"name": "owner",
			"outputs": [
				{
					"internalType": "address",
					"name": "",
					"type": "address"
				}
			],
			"stateMutability": "view",
			"type": "function"
		},
		{
			"inputs": [],
			"name": "router",
			"outputs": [
				{
					"internalType": "contract IUniswapV2Router02",
					"name": "",
					"type": "address"
				}
			],
			"stateMutability": "view",
			"type": "function"
		},
		{
			"inputs": [
				{
					"internalType": "address",
					"name": "newOwner",
					"type": "address"
				}
			],
			"name": "setOwner",
			"outputs": [],
			"stateMutability": "nonpayable",
			"type": "function"
		},
		{
			"inputs": [],
			"name": "totalUsdc",
			"outputs": [
				{
					"internalType": "uint256",
					"name": "",
					"type": "uint256"
				}
			],
			"stateMutability": "view",
			"type": "function"
		},
		{
			"inputs": [
				{
					"internalType": "address",
					"name": "user",
					"type": "address"
				}
			],
			"name": "usdcBalanceOf",
			"outputs": [
				{
					"internalType": "uint256",
					"name": "",
					"type": "uint256"
				}
			],
			"stateMutability": "view",
			"type": "function"
		},
		{
			"inputs": [
				{
					"internalType": "uint256",
					"name": "amountUsdc",
					"type": "uint256"
				}
			],
			"name": "withdrawUSDC",
			"outputs": [],
			"stateMutability": "nonpayable",
			"type": "function"
		},
		{
			"stateMutability": "payable",
			"type": "receive"
		}
	]
}